{
  "_format": "hh-sol-artifact-1",
  "contractName": "BPool",
  "sourceName": "contracts/pools/balancer/BPool.sol",
  "abi": [
    {
      "anonymous": false,
      "inputs": [
        {
          "indexed": true,
          "internalType": "address",
          "name": "src",
          "type": "address"
        },
        {
          "indexed": true,
          "internalType": "address",
          "name": "dst",
          "type": "address"
        },
        {
          "indexed": false,
          "internalType": "uint256",
          "name": "amt",
          "type": "uint256"
        }
      ],
      "name": "Approval",
      "type": "event"
    },
    {
      "anonymous": false,
      "inputs": [
        {
          "indexed": false,
          "internalType": "uint256",
          "name": "bptAmount",
          "type": "uint256"
        }
      ],
      "name": "LOG_BPT",
      "type": "event"
    },
    {
      "anonymous": false,
      "inputs": [
        {
          "indexed": false,
          "internalType": "uint256",
          "name": "bptAmount",
          "type": "uint256"
        }
      ],
      "name": "LOG_BPT_SS",
      "type": "event"
    },
    {
      "anonymous": false,
      "inputs": [
        {
          "indexed": true,
          "internalType": "bytes4",
          "name": "sig",
          "type": "bytes4"
        },
        {
          "indexed": true,
          "internalType": "address",
          "name": "caller",
          "type": "address"
        },
        {
          "indexed": false,
          "internalType": "uint256",
          "name": "timestamp",
          "type": "uint256"
        },
        {
          "indexed": false,
          "internalType": "bytes",
          "name": "data",
          "type": "bytes"
        }
      ],
      "name": "LOG_CALL",
      "type": "event"
    },
    {
      "anonymous": false,
      "inputs": [
        {
          "indexed": true,
          "internalType": "address",
          "name": "caller",
          "type": "address"
        },
        {
          "indexed": true,
          "internalType": "address",
          "name": "tokenOut",
          "type": "address"
        },
        {
          "indexed": false,
          "internalType": "uint256",
          "name": "tokenAmountOut",
          "type": "uint256"
        },
        {
          "indexed": false,
          "internalType": "uint256",
          "name": "timestamp",
          "type": "uint256"
        }
      ],
      "name": "LOG_EXIT",
      "type": "event"
    },
    {
      "anonymous": false,
      "inputs": [
        {
          "indexed": true,
          "internalType": "address",
          "name": "caller",
          "type": "address"
        },
        {
          "indexed": true,
          "internalType": "address",
          "name": "tokenIn",
          "type": "address"
        },
        {
          "indexed": false,
          "internalType": "uint256",
          "name": "tokenAmountIn",
          "type": "uint256"
        },
        {
          "indexed": false,
          "internalType": "uint256",
          "name": "timestamp",
          "type": "uint256"
        }
      ],
      "name": "LOG_JOIN",
      "type": "event"
    },
    {
      "anonymous": false,
      "inputs": [
        {
          "indexed": true,
          "internalType": "address",
          "name": "caller",
          "type": "address"
        },
        {
          "indexed": true,
          "internalType": "address",
          "name": "baseToken",
          "type": "address"
        },
        {
          "indexed": false,
          "internalType": "uint256",
          "name": "baseTokenAmountIn",
          "type": "uint256"
        },
        {
          "indexed": false,
          "internalType": "uint256",
          "name": "baseTokenWeight",
          "type": "uint256"
        },
        {
          "indexed": true,
          "internalType": "address",
          "name": "dataToken",
          "type": "address"
        },
        {
          "indexed": false,
          "internalType": "uint256",
          "name": "dataTokenAmountIn",
          "type": "uint256"
        },
        {
          "indexed": false,
          "internalType": "uint256",
          "name": "dataTokenWeight",
          "type": "uint256"
        }
      ],
      "name": "LOG_SETUP",
      "type": "event"
    },
    {
      "anonymous": false,
      "inputs": [
        {
          "indexed": true,
          "internalType": "address",
          "name": "caller",
          "type": "address"
        },
        {
          "indexed": true,
          "internalType": "address",
          "name": "tokenIn",
          "type": "address"
        },
        {
          "indexed": true,
          "internalType": "address",
          "name": "tokenOut",
          "type": "address"
        },
        {
          "indexed": false,
          "internalType": "uint256",
          "name": "tokenAmountIn",
          "type": "uint256"
        },
        {
          "indexed": false,
          "internalType": "uint256",
          "name": "tokenAmountOut",
          "type": "uint256"
        },
        {
          "indexed": false,
          "internalType": "uint256",
          "name": "timestamp",
          "type": "uint256"
        }
      ],
      "name": "LOG_SWAP",
      "type": "event"
    },
    {
      "anonymous": false,
      "inputs": [
        {
          "indexed": false,
          "internalType": "address",
          "name": "caller",
          "type": "address"
        },
        {
          "indexed": false,
          "internalType": "address",
          "name": "newMarketCollector",
          "type": "address"
        }
      ],
      "name": "MarketCollectorChanged",
      "type": "event"
    },
    {
      "anonymous": false,
      "inputs": [
        {
          "indexed": false,
          "internalType": "address",
          "name": "caller",
          "type": "address"
        },
        {
          "indexed": false,
          "internalType": "address",
          "name": "marketAddress",
          "type": "address"
        },
        {
          "indexed": false,
          "internalType": "address",
          "name": "token",
          "type": "address"
        },
        {
          "indexed": false,
          "internalType": "uint256",
          "name": "amount",
          "type": "uint256"
        }
      ],
      "name": "MarketFee",
      "type": "event"
    },
    {
      "anonymous": false,
      "inputs": [
        {
          "indexed": false,
          "internalType": "address",
          "name": "caller",
          "type": "address"
        },
        {
          "indexed": false,
          "internalType": "address",
          "name": "OPFWallet",
          "type": "address"
        },
        {
          "indexed": false,
          "internalType": "address",
          "name": "token",
          "type": "address"
        },
        {
          "indexed": false,
          "internalType": "uint256",
          "name": "amount",
          "type": "uint256"
        }
      ],
      "name": "OPFFee",
      "type": "event"
    },
    {
      "anonymous": false,
      "inputs": [
        {
          "indexed": false,
          "internalType": "uint256",
          "name": "swapFeeAmount",
          "type": "uint256"
        },
        {
          "indexed": false,
          "internalType": "uint256",
          "name": "oceanFeeAmount",
          "type": "uint256"
        },
        {
          "indexed": false,
          "internalType": "uint256",
          "name": "marketFeeAmount",
          "type": "uint256"
        },
        {
          "indexed": false,
          "internalType": "address",
          "name": "tokenFees",
          "type": "address"
        }
      ],
      "name": "SWAP_FEES",
      "type": "event"
    },
    {
      "anonymous": false,
      "inputs": [
        {
          "indexed": false,
          "internalType": "address",
          "name": "caller",
          "type": "address"
        },
        {
          "indexed": false,
          "internalType": "uint256",
          "name": "amount",
          "type": "uint256"
        }
      ],
      "name": "SwapFeeChanged",
      "type": "event"
    },
    {
      "anonymous": false,
      "inputs": [
        {
          "indexed": true,
          "internalType": "address",
          "name": "src",
          "type": "address"
        },
        {
          "indexed": true,
          "internalType": "address",
          "name": "dst",
          "type": "address"
        },
        {
          "indexed": false,
          "internalType": "uint256",
          "name": "amt",
          "type": "uint256"
        }
      ],
      "name": "Transfer",
      "type": "event"
    },
    {
      "inputs": [],
      "name": "BONE",
      "outputs": [
        {
          "internalType": "uint256",
          "name": "",
          "type": "uint256"
        }
      ],
      "stateMutability": "view",
      "type": "function"
    },
    {
      "inputs": [],
      "name": "BPOW_PRECISION",
      "outputs": [
        {
          "internalType": "uint256",
          "name": "",
          "type": "uint256"
        }
      ],
      "stateMutability": "view",
      "type": "function"
    },
    {
      "inputs": [],
      "name": "EXIT_FEE",
      "outputs": [
        {
          "internalType": "uint256",
          "name": "",
          "type": "uint256"
        }
      ],
      "stateMutability": "view",
      "type": "function"
    },
    {
      "inputs": [],
      "name": "INIT_POOL_SUPPLY",
      "outputs": [
        {
          "internalType": "uint256",
          "name": "",
          "type": "uint256"
        }
      ],
      "stateMutability": "view",
      "type": "function"
    },
    {
      "inputs": [],
      "name": "MAX_BOUND_TOKENS",
      "outputs": [
        {
          "internalType": "uint256",
          "name": "",
          "type": "uint256"
        }
      ],
      "stateMutability": "view",
      "type": "function"
    },
    {
      "inputs": [],
      "name": "MAX_BPOW_BASE",
      "outputs": [
        {
          "internalType": "uint256",
          "name": "",
          "type": "uint256"
        }
      ],
      "stateMutability": "view",
      "type": "function"
    },
    {
      "inputs": [],
      "name": "MAX_FEE",
      "outputs": [
        {
          "internalType": "uint256",
          "name": "",
          "type": "uint256"
        }
      ],
      "stateMutability": "view",
      "type": "function"
    },
    {
      "inputs": [],
      "name": "MAX_IN_RATIO",
      "outputs": [
        {
          "internalType": "uint256",
          "name": "",
          "type": "uint256"
        }
      ],
      "stateMutability": "view",
      "type": "function"
    },
    {
      "inputs": [],
      "name": "MAX_OUT_RATIO",
      "outputs": [
        {
          "internalType": "uint256",
          "name": "",
          "type": "uint256"
        }
      ],
      "stateMutability": "view",
      "type": "function"
    },
    {
      "inputs": [],
      "name": "MAX_TOTAL_WEIGHT",
      "outputs": [
        {
          "internalType": "uint256",
          "name": "",
          "type": "uint256"
        }
      ],
      "stateMutability": "view",
      "type": "function"
    },
    {
      "inputs": [],
      "name": "MAX_WEIGHT",
      "outputs": [
        {
          "internalType": "uint256",
          "name": "",
          "type": "uint256"
        }
      ],
      "stateMutability": "view",
      "type": "function"
    },
    {
      "inputs": [],
      "name": "MIN_BALANCE",
      "outputs": [
        {
          "internalType": "uint256",
          "name": "",
          "type": "uint256"
        }
      ],
      "stateMutability": "view",
      "type": "function"
    },
    {
      "inputs": [],
      "name": "MIN_BOUND_TOKENS",
      "outputs": [
        {
          "internalType": "uint256",
          "name": "",
          "type": "uint256"
        }
      ],
      "stateMutability": "view",
      "type": "function"
    },
    {
      "inputs": [],
      "name": "MIN_BPOW_BASE",
      "outputs": [
        {
          "internalType": "uint256",
          "name": "",
          "type": "uint256"
        }
      ],
      "stateMutability": "view",
      "type": "function"
    },
    {
      "inputs": [],
      "name": "MIN_FEE",
      "outputs": [
        {
          "internalType": "uint256",
          "name": "",
          "type": "uint256"
        }
      ],
      "stateMutability": "view",
      "type": "function"
    },
    {
      "inputs": [],
      "name": "MIN_WEIGHT",
      "outputs": [
        {
          "internalType": "uint256",
          "name": "",
          "type": "uint256"
        }
      ],
      "stateMutability": "view",
      "type": "function"
    },
    {
      "inputs": [],
      "name": "_marketCollector",
      "outputs": [
        {
          "internalType": "address",
          "name": "",
          "type": "address"
        }
      ],
      "stateMutability": "view",
      "type": "function"
    },
    {
      "inputs": [],
      "name": "_opfCollector",
      "outputs": [
        {
          "internalType": "address",
          "name": "",
          "type": "address"
        }
      ],
      "stateMutability": "view",
      "type": "function"
    },
    {
      "inputs": [],
      "name": "_swapMarketFee",
      "outputs": [
        {
          "internalType": "uint256",
          "name": "",
          "type": "uint256"
        }
      ],
      "stateMutability": "view",
      "type": "function"
    },
    {
      "inputs": [
        {
          "internalType": "address",
          "name": "src",
          "type": "address"
        },
        {
          "internalType": "address",
          "name": "dst",
          "type": "address"
        }
      ],
      "name": "allowance",
      "outputs": [
        {
          "internalType": "uint256",
          "name": "",
          "type": "uint256"
        }
      ],
      "stateMutability": "view",
      "type": "function"
    },
    {
      "inputs": [
        {
          "internalType": "address",
          "name": "dst",
          "type": "address"
        },
        {
          "internalType": "uint256",
          "name": "amt",
          "type": "uint256"
        }
      ],
      "name": "approve",
      "outputs": [
        {
          "internalType": "bool",
          "name": "",
          "type": "bool"
        }
      ],
      "stateMutability": "nonpayable",
      "type": "function"
    },
    {
      "inputs": [
        {
          "internalType": "address",
          "name": "whom",
          "type": "address"
        }
      ],
      "name": "balanceOf",
      "outputs": [
        {
          "internalType": "uint256",
          "name": "",
          "type": "uint256"
        }
      ],
      "stateMutability": "view",
      "type": "function"
    },
    {
      "inputs": [
        {
          "internalType": "address",
          "name": "tokenOut",
          "type": "address"
        },
        {
          "internalType": "uint256",
          "name": "tokenAmountOut",
          "type": "uint256"
        }
      ],
      "name": "calcPoolInSingleOut",
      "outputs": [
        {
          "internalType": "uint256",
          "name": "poolAmountIn",
          "type": "uint256"
        }
      ],
      "stateMutability": "view",
      "type": "function"
    },
    {
      "inputs": [
        {
          "internalType": "address",
          "name": "tokenIn",
          "type": "address"
        },
        {
          "internalType": "uint256",
          "name": "tokenAmountIn",
          "type": "uint256"
        }
      ],
      "name": "calcPoolOutSingleIn",
      "outputs": [
        {
          "internalType": "uint256",
          "name": "poolAmountOut",
          "type": "uint256"
        }
      ],
      "stateMutability": "view",
      "type": "function"
    },
    {
      "inputs": [
        {
          "internalType": "address",
          "name": "tokenIn",
          "type": "address"
        },
        {
          "internalType": "uint256",
          "name": "poolAmountOut",
          "type": "uint256"
        }
      ],
      "name": "calcSingleInPoolOut",
      "outputs": [
        {
          "internalType": "uint256",
          "name": "tokenAmountIn",
          "type": "uint256"
        }
      ],
      "stateMutability": "view",
      "type": "function"
    },
    {
      "inputs": [
        {
          "internalType": "address",
          "name": "tokenOut",
          "type": "address"
        },
        {
          "internalType": "uint256",
          "name": "poolAmountIn",
          "type": "uint256"
        }
      ],
      "name": "calcSingleOutPoolIn",
      "outputs": [
        {
          "internalType": "uint256",
          "name": "tokenAmountOut",
          "type": "uint256"
        }
      ],
      "stateMutability": "view",
      "type": "function"
    },
    {
      "inputs": [],
      "name": "collectMarketFee",
      "outputs": [],
      "stateMutability": "nonpayable",
      "type": "function"
    },
    {
      "inputs": [],
      "name": "collectOPF",
      "outputs": [],
      "stateMutability": "nonpayable",
      "type": "function"
    },
    {
      "inputs": [
        {
          "internalType": "address",
          "name": "",
          "type": "address"
        }
      ],
      "name": "communityFees",
      "outputs": [
        {
          "internalType": "uint256",
          "name": "",
          "type": "uint256"
        }
      ],
      "stateMutability": "view",
      "type": "function"
    },
    {
      "inputs": [],
      "name": "decimals",
      "outputs": [
        {
          "internalType": "uint8",
          "name": "",
          "type": "uint8"
        }
      ],
      "stateMutability": "view",
      "type": "function"
    },
    {
      "inputs": [
        {
          "internalType": "address",
          "name": "dst",
          "type": "address"
        },
        {
          "internalType": "uint256",
          "name": "amt",
          "type": "uint256"
        }
      ],
      "name": "decreaseApproval",
      "outputs": [
        {
          "internalType": "bool",
          "name": "",
          "type": "bool"
        }
      ],
      "stateMutability": "nonpayable",
      "type": "function"
    },
    {
      "inputs": [
        {
          "internalType": "uint256",
          "name": "poolAmountIn",
          "type": "uint256"
        },
        {
          "internalType": "uint256[]",
          "name": "minAmountsOut",
          "type": "uint256[]"
        }
      ],
      "name": "exitPool",
      "outputs": [],
      "stateMutability": "nonpayable",
      "type": "function"
    },
    {
      "inputs": [
        {
          "internalType": "address",
          "name": "tokenOut",
          "type": "address"
        },
        {
          "internalType": "uint256",
          "name": "tokenAmountOut",
          "type": "uint256"
        },
        {
          "internalType": "uint256",
          "name": "maxPoolAmountIn",
          "type": "uint256"
        }
      ],
      "name": "exitswapExternAmountOut",
      "outputs": [
        {
          "internalType": "uint256",
          "name": "poolAmountIn",
          "type": "uint256"
        }
      ],
      "stateMutability": "nonpayable",
      "type": "function"
    },
    {
      "inputs": [
        {
          "internalType": "address",
          "name": "tokenOut",
          "type": "address"
        },
        {
          "internalType": "uint256",
          "name": "poolAmountIn",
          "type": "uint256"
        },
        {
          "internalType": "uint256",
          "name": "minAmountOut",
          "type": "uint256"
        }
      ],
      "name": "exitswapPoolAmountIn",
      "outputs": [
        {
          "internalType": "uint256",
          "name": "tokenAmountOut",
          "type": "uint256"
        }
      ],
      "stateMutability": "nonpayable",
      "type": "function"
    },
    {
      "inputs": [
        {
          "internalType": "address",
          "name": "tokenIn",
          "type": "address"
        },
        {
          "internalType": "address",
          "name": "tokenOut",
          "type": "address"
        },
        {
          "internalType": "uint256",
          "name": "tokenAmountOut",
          "type": "uint256"
        }
      ],
      "name": "getAmountInExactOut",
      "outputs": [
        {
          "internalType": "uint256",
          "name": "tokenAmountIn",
          "type": "uint256"
        }
      ],
      "stateMutability": "view",
      "type": "function"
    },
    {
      "inputs": [
        {
          "internalType": "address",
          "name": "tokenIn",
          "type": "address"
        },
        {
          "internalType": "address",
          "name": "tokenOut",
          "type": "address"
        },
        {
          "internalType": "uint256",
          "name": "tokenAmountIn",
          "type": "uint256"
        }
      ],
      "name": "getAmountOutExactIn",
      "outputs": [
        {
          "internalType": "uint256",
          "name": "tokenAmountOut",
          "type": "uint256"
        }
      ],
      "stateMutability": "view",
      "type": "function"
    },
    {
      "inputs": [
        {
          "internalType": "address",
          "name": "token",
          "type": "address"
        }
      ],
      "name": "getBalance",
      "outputs": [
        {
          "internalType": "uint256",
          "name": "",
          "type": "uint256"
        }
      ],
      "stateMutability": "view",
      "type": "function"
    },
    {
      "inputs": [],
      "name": "getBaseTokenAddress",
      "outputs": [
        {
          "internalType": "address",
          "name": "",
          "type": "address"
        }
      ],
      "stateMutability": "view",
      "type": "function"
    },
    {
      "inputs": [],
      "name": "getController",
      "outputs": [
        {
          "internalType": "address",
          "name": "",
          "type": "address"
        }
      ],
      "stateMutability": "view",
      "type": "function"
    },
    {
      "inputs": [],
      "name": "getCurrentMarketFees",
      "outputs": [
        {
          "internalType": "address[]",
          "name": "",
          "type": "address[]"
        },
        {
          "internalType": "uint256[]",
          "name": "",
          "type": "uint256[]"
        }
      ],
      "stateMutability": "view",
      "type": "function"
    },
    {
      "inputs": [],
      "name": "getCurrentOPFFees",
      "outputs": [
        {
          "internalType": "address[]",
          "name": "",
          "type": "address[]"
        },
        {
          "internalType": "uint256[]",
          "name": "",
          "type": "uint256[]"
        }
      ],
      "stateMutability": "view",
      "type": "function"
    },
    {
      "inputs": [],
      "name": "getCurrentTokens",
      "outputs": [
        {
          "internalType": "address[]",
          "name": "tokens",
          "type": "address[]"
        }
      ],
      "stateMutability": "view",
      "type": "function"
    },
    {
      "inputs": [],
      "name": "getDataTokenAddress",
      "outputs": [
        {
          "internalType": "address",
          "name": "",
          "type": "address"
        }
      ],
      "stateMutability": "view",
      "type": "function"
    },
    {
      "inputs": [
        {
          "internalType": "address",
          "name": "token",
          "type": "address"
        }
      ],
      "name": "getDenormalizedWeight",
      "outputs": [
        {
          "internalType": "uint256",
          "name": "",
          "type": "uint256"
        }
      ],
      "stateMutability": "view",
      "type": "function"
    },
    {
      "inputs": [],
      "name": "getFinalTokens",
      "outputs": [
        {
          "internalType": "address[]",
          "name": "tokens",
          "type": "address[]"
        }
      ],
      "stateMutability": "view",
      "type": "function"
    },
    {
      "inputs": [],
      "name": "getMarketFee",
      "outputs": [
        {
          "internalType": "uint256",
          "name": "",
          "type": "uint256"
        }
      ],
      "stateMutability": "view",
      "type": "function"
    },
    {
      "inputs": [
        {
          "internalType": "address",
          "name": "token",
          "type": "address"
        }
      ],
      "name": "getNormalizedWeight",
      "outputs": [
        {
          "internalType": "uint256",
          "name": "",
          "type": "uint256"
        }
      ],
      "stateMutability": "view",
      "type": "function"
    },
    {
      "inputs": [],
      "name": "getNumTokens",
      "outputs": [
        {
          "internalType": "uint256",
          "name": "",
          "type": "uint256"
        }
      ],
      "stateMutability": "view",
      "type": "function"
    },
    {
      "inputs": [],
      "name": "getOPFFee",
      "outputs": [
        {
          "internalType": "uint256",
          "name": "",
          "type": "uint256"
        }
      ],
      "stateMutability": "view",
      "type": "function"
    },
    {
      "inputs": [
        {
          "internalType": "address",
          "name": "tokenIn",
          "type": "address"
        },
        {
          "internalType": "address",
          "name": "tokenOut",
          "type": "address"
        }
      ],
      "name": "getSpotPrice",
      "outputs": [
        {
          "internalType": "uint256",
          "name": "spotPrice",
          "type": "uint256"
        }
      ],
      "stateMutability": "view",
      "type": "function"
    },
    {
      "inputs": [],
      "name": "getSwapFee",
      "outputs": [
        {
          "internalType": "uint256",
          "name": "",
          "type": "uint256"
        }
      ],
      "stateMutability": "view",
      "type": "function"
    },
    {
      "inputs": [],
      "name": "getTotalDenormalizedWeight",
      "outputs": [
        {
          "internalType": "uint256",
          "name": "",
          "type": "uint256"
        }
      ],
      "stateMutability": "view",
      "type": "function"
    },
    {
      "inputs": [
        {
          "internalType": "address",
          "name": "dst",
          "type": "address"
        },
        {
          "internalType": "uint256",
          "name": "amt",
          "type": "uint256"
        }
      ],
      "name": "increaseApproval",
      "outputs": [
        {
          "internalType": "bool",
          "name": "",
          "type": "bool"
        }
      ],
      "stateMutability": "nonpayable",
      "type": "function"
    },
    {
      "inputs": [
        {
          "internalType": "address",
          "name": "controller",
          "type": "address"
        },
        {
          "internalType": "address",
          "name": "factory",
          "type": "address"
        },
        {
          "internalType": "uint256[]",
          "name": "swapFees",
          "type": "uint256[]"
        },
        {
          "internalType": "bool",
          "name": "publicSwap",
          "type": "bool"
        },
        {
          "internalType": "bool",
          "name": "finalized",
          "type": "bool"
        },
        {
          "internalType": "address[2]",
          "name": "tokens",
          "type": "address[2]"
        },
        {
          "internalType": "address[2]",
          "name": "feeCollectors",
          "type": "address[2]"
        }
      ],
      "name": "initialize",
      "outputs": [
        {
          "internalType": "bool",
          "name": "",
          "type": "bool"
        }
      ],
      "stateMutability": "nonpayable",
      "type": "function"
    },
    {
      "inputs": [
        {
          "internalType": "address",
          "name": "t",
          "type": "address"
        }
      ],
      "name": "isBound",
      "outputs": [
        {
          "internalType": "bool",
          "name": "",
          "type": "bool"
        }
      ],
      "stateMutability": "view",
      "type": "function"
    },
    {
      "inputs": [],
      "name": "isFinalized",
      "outputs": [
        {
          "internalType": "bool",
          "name": "",
          "type": "bool"
        }
      ],
      "stateMutability": "view",
      "type": "function"
    },
    {
      "inputs": [],
      "name": "isInitialized",
      "outputs": [
        {
          "internalType": "bool",
          "name": "",
          "type": "bool"
        }
      ],
      "stateMutability": "view",
      "type": "function"
    },
    {
      "inputs": [],
      "name": "isPublicSwap",
      "outputs": [
        {
          "internalType": "bool",
          "name": "",
          "type": "bool"
        }
      ],
      "stateMutability": "view",
      "type": "function"
    },
    {
      "inputs": [
        {
          "internalType": "uint256",
          "name": "poolAmountOut",
          "type": "uint256"
        },
        {
          "internalType": "uint256[]",
          "name": "maxAmountsIn",
          "type": "uint256[]"
        }
      ],
      "name": "joinPool",
      "outputs": [],
      "stateMutability": "nonpayable",
      "type": "function"
    },
    {
      "inputs": [
        {
          "internalType": "address",
          "name": "tokenIn",
          "type": "address"
        },
        {
          "internalType": "uint256",
          "name": "tokenAmountIn",
          "type": "uint256"
        },
        {
          "internalType": "uint256",
          "name": "minPoolAmountOut",
          "type": "uint256"
        }
      ],
      "name": "joinswapExternAmountIn",
      "outputs": [
        {
          "internalType": "uint256",
          "name": "poolAmountOut",
          "type": "uint256"
        }
      ],
      "stateMutability": "nonpayable",
      "type": "function"
    },
    {
      "inputs": [
        {
          "internalType": "address",
          "name": "tokenIn",
          "type": "address"
        },
        {
          "internalType": "uint256",
          "name": "poolAmountOut",
          "type": "uint256"
        },
        {
          "internalType": "uint256",
          "name": "maxAmountIn",
          "type": "uint256"
        }
      ],
      "name": "joinswapPoolAmountOut",
      "outputs": [
        {
          "internalType": "uint256",
          "name": "tokenAmountIn",
          "type": "uint256"
        }
      ],
      "stateMutability": "nonpayable",
      "type": "function"
    },
    {
      "inputs": [
        {
          "internalType": "address",
          "name": "",
          "type": "address"
        }
      ],
      "name": "marketFees",
      "outputs": [
        {
          "internalType": "uint256",
          "name": "",
          "type": "uint256"
        }
      ],
      "stateMutability": "view",
      "type": "function"
    },
    {
      "inputs": [],
      "name": "name",
      "outputs": [
        {
          "internalType": "string",
          "name": "",
          "type": "string"
        }
      ],
      "stateMutability": "view",
      "type": "function"
    },
    {
      "inputs": [
        {
          "internalType": "uint256",
          "name": "swapFee",
          "type": "uint256"
        }
      ],
      "name": "setSwapFee",
      "outputs": [],
      "stateMutability": "nonpayable",
      "type": "function"
    },
    {
      "inputs": [
        {
          "internalType": "address",
          "name": "dataTokenAddress",
          "type": "address"
        },
        {
          "internalType": "uint256",
          "name": "dataTokenAmount",
          "type": "uint256"
        },
        {
          "internalType": "uint256",
          "name": "dataTokenWeight",
          "type": "uint256"
        },
        {
          "internalType": "address",
          "name": "baseTokenAddress",
          "type": "address"
        },
        {
          "internalType": "uint256",
          "name": "baseTokenAmount",
          "type": "uint256"
        },
        {
          "internalType": "uint256",
          "name": "baseTokenWeight",
          "type": "uint256"
        }
      ],
      "name": "setup",
      "outputs": [],
      "stateMutability": "nonpayable",
      "type": "function"
    },
    {
      "inputs": [
        {
          "internalType": "address",
          "name": "tokenIn",
          "type": "address"
        },
        {
          "internalType": "uint256",
          "name": "tokenAmountIn",
          "type": "uint256"
        },
        {
          "internalType": "address",
          "name": "tokenOut",
          "type": "address"
        },
        {
          "internalType": "uint256",
          "name": "minAmountOut",
          "type": "uint256"
        },
        {
          "internalType": "uint256",
          "name": "maxPrice",
          "type": "uint256"
        }
      ],
      "name": "swapExactAmountIn",
      "outputs": [
        {
          "internalType": "uint256",
          "name": "tokenAmountOut",
          "type": "uint256"
        },
        {
          "internalType": "uint256",
          "name": "spotPriceAfter",
          "type": "uint256"
        }
      ],
      "stateMutability": "nonpayable",
      "type": "function"
    },
    {
      "inputs": [
        {
          "internalType": "address",
          "name": "tokenIn",
          "type": "address"
        },
        {
          "internalType": "uint256",
          "name": "maxAmountIn",
          "type": "uint256"
        },
        {
          "internalType": "address",
          "name": "tokenOut",
          "type": "address"
        },
        {
          "internalType": "uint256",
          "name": "tokenAmountOut",
          "type": "uint256"
        },
        {
          "internalType": "uint256",
          "name": "maxPrice",
          "type": "uint256"
        }
      ],
      "name": "swapExactAmountOut",
      "outputs": [
        {
          "internalType": "uint256",
          "name": "tokenAmountIn",
          "type": "uint256"
        },
        {
          "internalType": "uint256",
          "name": "spotPriceAfter",
          "type": "uint256"
        }
      ],
      "stateMutability": "nonpayable",
      "type": "function"
    },
    {
      "inputs": [],
      "name": "symbol",
      "outputs": [
        {
          "internalType": "string",
          "name": "",
          "type": "string"
        }
      ],
      "stateMutability": "view",
      "type": "function"
    },
    {
      "inputs": [],
      "name": "totalSupply",
      "outputs": [
        {
          "internalType": "uint256",
          "name": "",
          "type": "uint256"
        }
      ],
      "stateMutability": "view",
      "type": "function"
    },
    {
      "inputs": [
        {
          "internalType": "address",
          "name": "dst",
          "type": "address"
        },
        {
          "internalType": "uint256",
          "name": "amt",
          "type": "uint256"
        }
      ],
      "name": "transfer",
      "outputs": [
        {
          "internalType": "bool",
          "name": "",
          "type": "bool"
        }
      ],
      "stateMutability": "nonpayable",
      "type": "function"
    },
    {
      "inputs": [
        {
          "internalType": "address",
          "name": "src",
          "type": "address"
        },
        {
          "internalType": "address",
          "name": "dst",
          "type": "address"
        },
        {
          "internalType": "uint256",
          "name": "amt",
          "type": "uint256"
        }
      ],
      "name": "transferFrom",
      "outputs": [
        {
          "internalType": "bool",
          "name": "",
          "type": "bool"
        }
      ],
      "stateMutability": "nonpayable",
      "type": "function"
    },
    {
      "inputs": [
        {
          "internalType": "address",
          "name": "_newCollector",
          "type": "address"
        }
      ],
      "name": "updateMarketFeeCollector",
      "outputs": [],
      "stateMutability": "nonpayable",
      "type": "function"
    }
  ],
  "bytecode": "0x60c0604052601360808190527f42616c616e63657220506f6f6c20546f6b656e0000000000000000000000000060a09081526200004091600a91906200008f565b506040805180820190915260038082526210941560ea1b60209092019182526200006d91600b916200008f565b50600c805460ff191660121790553480156200008857600080fd5b5062000172565b8280546200009d9062000135565b90600052602060002090601f016020900481019282620000c157600085556200010c565b82601f10620000dc57805160ff19168380011785556200010c565b828001600101855582156200010c579182015b828111156200010c578251825591602001919060010190620000ef565b506200011a9291506200011e565b5090565b5b808211156200011a57600081556001016200011f565b600181811c908216806200014a57607f821691505b602082108114156200016c57634e487b7160e01b600052602260045260246000fd5b50919050565b615e4980620001826000396000f3fe608060405234801561001057600080fd5b50600436106104285760003560e01c80638201aa3f1161022b578063c070a6d811610130578063dd62ed3e116100b8578063f1b8a9b711610087578063f1b8a9b7146108b1578063f68045a5146108c4578063f8b2cb4f146108cc578063fde924f7146108df578063ff9b1850146108f157600080fd5b8063dd62ed3e1461085d578063e4a28a52146104b0578063ec09302114610896578063f0f13f0b1461089e57600080fd5b8063c8ff1833116100ff578063c8ff18331461082a578063cc77828d14610832578063cd2ed8fb1461083a578063d4cadf6814610842578063d73dd6231461084a57600080fd5b8063c070a6d8146107f9578063c36596a6146104f0578063c44a42831461080c578063c6580d121461082257600080fd5b8063a562ddf0116101b3578063b7b800a411610182578063b7b800a4146107c4578063ba019dab146107cc578063bc063e1a146107d4578063bc694ea2146107dc578063be3bbd2e146107e457600080fd5b8063a562ddf01461078b578063a9059cbb1461079e578063b02f0b73146107b1578063b0e0d136146107c457600080fd5b80639381cd2b116101fa5780639381cd2b1461074d578063948d8ce61461075557806395d89b4114610768578063992e2a9214610770578063a3b3a16d1461077857600080fd5b80638201aa3f14610718578063867378c51461072b5780638d4e408314610733578063936c34771461074557600080fd5b8063380376a6116103315780635e123add116102b9578063703305181161028857806370330518146106a457806370a08231146106b757806376c7a3c7146106e05780637c5e9ea4146106e857806380ca73081461071057600080fd5b80635e123add1461066e57806366188463146106765780636d06dfa014610689578063700dd7e81461069c57600080fd5b806346ab38f11161030057806346ab38f11461061b57806349e9350f1461062e5780634df947d0146106375780634f69c0d4146106485780635db342771461065b57600080fd5b8063380376a6146105d0578063392e53cd146105e35780633950b3fd146105f5578063430ed5d01461060857600080fd5b8063218b5382116103b4578063300621921161038357806330062192146105515780633018205f14610571578063313ce5671461058857806331e2761b1461059d57806334e19907146105bd57600080fd5b8063218b5382146104f057806323b872dd146104ff5780632ea07d8a146105125780632f37b6241461052557600080fd5b806309a3bbe4116103fb57806309a3bbe4146104b057806309ef3f5b146104b857806315e84af9146104cd57806318160ddd146104e0578063189d00ca146104e857600080fd5b806302c967481461042d57806304ad79541461045357806306fdde0314610478578063095ea7b31461048d575b600080fd5b61044061043b366004615687565b610904565b6040519081526020015b60405180910390f35b6003546001600160a01b03165b6040516001600160a01b03909116815260200161044a565b610480610d94565b60405161044a91906156e6565b6104a061049b366004615719565b610e26565b604051901515815260200161044a565b610440610e81565b6104cb6104c6366004615743565b610e97565b005b6104406104db36600461579b565b6110d3565b600954610440565b6104406111b7565b610440670de0b6b3a764000081565b6104a061050d3660046157ce565b6111ce565b6104406105203660046157ce565b611323565b6104a061053336600461580a565b6001600160a01b031660009081526010602052604090205460ff1690565b61044061055f36600461580a565b60056020526000908152604090205481565b600c546201000090046001600160a01b0316610460565b600c5460405160ff909116815260200161044a565b6104406105ab36600461580a565b60066020526000908152604090205481565b6104cb6105cb366004615825565b6113de565b6104406105de3660046157ce565b611564565b601254600160a01b900460ff166104a0565b610440610603366004615719565b611615565b610440610616366004615719565b61167d565b610440610629366004615687565b6116dd565b61044060005481565b6004546001600160a01b0316610460565b6104cb610656366004615883565b611b12565b610440610669366004615687565b611d39565b600054610440565b6104a0610684366004615719565b612129565b610440610697366004615687565b6121ff565b61044061260a565b6104cb6106b236600461580a565b612684565b6104406106c536600461580a565b6001600160a01b031660009081526007602052604090205490565b610440612781565b6106fb6106f63660046158cf565b612796565b6040805192835260208301919091520161044a565b6104cb612ae7565b6106fb6107263660046158cf565b612c79565b610440612fae565b600e54600160a01b900460ff166104a0565b610440612fc5565b610440612ff7565b61044061076336600461580a565b61300a565b610480613090565b61044061309f565b610440610786366004615719565b6130bd565b600d54610460906001600160a01b031681565b6104a06107ac366004615719565b61311d565b6104cb6107bf366004615883565b613133565b610440600281565b610440600181565b61044061338f565b6104406133a2565b6107ec6133c1565b60405161044a9190615961565b6104a0610807366004615993565b613474565b6108146136e4565b60405161044a929190615a40565b610440600081565b610814613854565b6107ec6139b9565b600f54610440565b600154610440565b6104a0610858366004615719565b6139e4565b61044061086b36600461579b565b6001600160a01b03918216600090815260086020908152604080832093909416825291909152205490565b610440613a57565b600e54610460906001600160a01b031681565b6104406108bf36600461580a565b613a6a565b6104cb613af7565b6104406108da36600461580a565b613c65565b600c54600160b01b900460ff166104a0565b6104406108ff366004615719565b613ce7565b600c54600090610100900460ff16156109385760405162461bcd60e51b815260040161092f90615a97565b60405180910390fd5b600c805461ff001916610100179055600e54600160a01b900460ff166109705760405162461bcd60e51b815260040161092f90615abc565b6001600160a01b03841660009081526010602052604090205460ff166109a85760405162461bcd60e51b815260040161092f90615ae7565b6001600160a01b03841660009081526010602052604090206003908101546109ec916109dc90670de0b6b3a7640000615b3a565b6109e7906001615b4e565b613d47565b831115610a0b5760405162461bcd60e51b815260040161092f90615b66565b6001600160a01b038416600090815260106020526040902060038101546002820154600954601154610a409392919088613e22565b915081610a5f5760405162461bcd60e51b815260040161092f90615b91565b82821115610a7f5760405162461bcd60e51b815260040161092f90615bba565b610a8d816003015485613ee6565b60038201556000610a9e8382613d47565b604080518781524260208201529192506001600160a01b038816913391600080516020615d74833981519152910160405180910390a3604051838152600080516020615db48339815191529060200160405180910390a1610aff3384613f43565b610b11610b0c8483613ee6565b613f4d565b600254610b27906001600160a01b031682613f59565b610b32863387613f63565b6003546000906001600160a01b0388811691161415610b5d57506004546001600160a01b0316610b6b565b506003546001600160a01b03165b60125460035460405163efd4810360e01b81526001600160a01b039283169263efd4810392610ba39291169085908990600401615be0565b602060405180830381865afa158015610bc0573d6000803e3d6000fd5b505050506040513d601f19601f82011682018060405250810190610be49190615c04565b15610d7f57600380546001600160a01b03166000908152601060205260408120918201546002830154600954601154610c20939291908a613f7c565b9050610c30826003015482613ee6565b6003830155610c40866000613d47565b600c54604080518481524260208201529296506001600160a01b0386811693620100009093041691600080516020615d74833981519152910160405180910390a3600c54610c9d906201000090046001600160a01b031687613f43565b610caa610b0c8786613ee6565b600254610cc0906001600160a01b031685613f59565b600c54610cde9084906201000090046001600160a01b031683613f63565b6012546003546040516307b01ab360e41b81526001600160a01b03918216600482015285821660248201526044810184905260648101899052911690637b01ab3090608401600060405180830381600087803b158015610d3d57600080fd5b505af1158015610d51573d6000803e3d6000fd5b50505050600080516020615d9483398151915286604051610d7491815260200190565b60405180910390a150505b505050600c805461ff00191690559392505050565b6060600a8054610da390615c21565b80601f0160208091040260200160405190810160405280929190818152602001828054610dcf90615c21565b8015610e1c5780601f10610df157610100808354040283529160200191610e1c565b820191906000526020600020905b815481529060010190602001808311610dff57829003601f168201915b5050505050905090565b3360008181526008602090815260408083206001600160a01b03871680855292528083208590555191929091600080516020615df483398151915290610e6f9086815260200190565b60405180910390a35060015b92915050565b610e94670de0b6b3a76400006032615c5c565b81565b600c54610100900460ff1615610ebf5760405162461bcd60e51b815260040161092f90615a97565b600c805461010061ff001990911617908190556201000090046001600160a01b03163314610f285760405162461bcd60e51b815260206004820152601660248201527522a9292fa4a72b20a624a22fa1a7a72a2927a62622a960511b604482015260640161092f565b6003546001600160a01b03878116911614610f855760405162461bcd60e51b815260206004820152601d60248201527f4552525f494e56414c49445f44415441544f4b454e5f41444452455353000000604482015260640161092f565b6004546001600160a01b03848116911614610fe25760405162461bcd60e51b815260206004820152601d60248201527f4552525f494e56414c49445f42415345544f4b454e5f41444452455353000000604482015260640161092f565b610fed868686614046565b604080518681524260208201526001600160a01b038816913391600080516020615dd4833981519152910160405180910390a361102b838383614046565b604080518381524260208201526001600160a01b038516913391600080516020615dd4833981519152910160405180910390a3611066614230565b6040805183815260208101839052908101869052606081018590526001600160a01b03808816919085169033907fbece8b4dcdbe446dd65a9288154698e067e3e91de17a1a408c2f531b9f845d739060800160405180910390a45050600c805461ff001916905550505050565b600c54600090610100900460ff16156110fe5760405162461bcd60e51b815260040161092f90615a97565b6001600160a01b03831660009081526010602052604090205460ff166111365760405162461bcd60e51b815260040161092f90615ae7565b6001600160a01b03821660009081526010602052604090205460ff1661116e5760405162461bcd60e51b815260040161092f90615ae7565b6001600160a01b038084166000908152601060205260408082209285168252902060038083015460028085015492840154908401546111ae93919061428f565b95945050505050565b610e946402540be400670de0b6b3a7640000615b3a565b6000336001600160a01b038516148061120a57506001600160a01b03841660009081526008602090815260408083203384529091529020548211155b61124e5760405162461bcd60e51b815260206004820152601560248201527422a9292fa12a27a5a2a72fa120a22fa1a0a62622a960591b604482015260640161092f565b611259848484614307565b336001600160a01b0385161480159061129757506001600160a01b038416600090815260086020908152604080832033845290915290205460001914155b15611318576001600160a01b03841660009081526008602090815260408083203384529091529020546112ca9083613ee6565b6001600160a01b038581166000908152600860209081526040808320338085529083529281902085905551938452918616929091600080516020615df4833981519152910160405180910390a35b5060015b9392505050565b6001600160a01b03831660009081526010602052604081205460ff1661135b5760405162461bcd60e51b815260040161092f90615ae7565b6001600160a01b03831660009081526010602052604090205460ff166113935760405162461bcd60e51b815260040161092f90615ae7565b6001600160a01b038085166000908152601060205260408082209286168252902060038083015460028085015492840154908401546113d493919088614419565b9695505050505050565b600e54600160a01b900460ff161561142b5760405162461bcd60e51b815260206004820152601060248201526f11549497d254d7d1925390531256915160821b604482015260640161092f565b600c546201000090046001600160a01b031633146114805760405162461bcd60e51b815260206004820152601260248201527122a9292fa727aa2fa1a7a72a2927a62622a960711b604482015260640161092f565b611495620f4240670de0b6b3a7640000615b3a565b8110156114d25760405162461bcd60e51b815260206004820152600b60248201526a4552525f4d494e5f46454560a81b604482015260640161092f565b6114e5600a670de0b6b3a7640000615b3a565b8111156115225760405162461bcd60e51b815260206004820152600b60248201526a4552525f4d41585f46454560a81b604482015260640161092f565b600181905560408051338152602081018390527fbca0d601c32979eebac4e8cd06375b6e45d39af80fc06a33f366425b450dfb6991015b60405180910390a150565b6001600160a01b03831660009081526010602052604081205460ff1661159c5760405162461bcd60e51b815260040161092f90615ae7565b6001600160a01b03831660009081526010602052604090205460ff166115d45760405162461bcd60e51b815260040161092f90615ae7565b6001600160a01b038085166000908152601060205260408082209286168252902060038083015460028085015492840154908401546113d4939190886144c1565b6001600160a01b03821660009081526010602090815260408083208151608081018352815460ff16151581526001820154938101939093526002810154918301829052600301546060830181905260095460115461167593919087614567565b949350505050565b6001600160a01b03821660009081526010602090815260408083208151608081018352815460ff16151581526001820154938101939093526002810154918301829052600301546060830181905260095460115461167593919087613f7c565b600c54600090610100900460ff16156117085760405162461bcd60e51b815260040161092f90615a97565b600c805461ff001916610100179055600e54600160a01b900460ff166117405760405162461bcd60e51b815260040161092f90615abc565b6001600160a01b03841660009081526010602052604090205460ff166117785760405162461bcd60e51b815260040161092f90615ae7565b6001600160a01b0384166000908152601060205260409020600381015460028201546009546011546117ad9392919088613f7c565b9150828210156117cf5760405162461bcd60e51b815260040161092f90615c7b565b6001600160a01b0385166000908152601060205260409020600390810154611803916109dc90670de0b6b3a7640000615b3a565b8211156118225760405162461bcd60e51b815260040161092f90615b66565b611830816003015483613ee6565b600382015560006118418582613d47565b604080518581524260208201529192506001600160a01b038816913391600080516020615d74833981519152910160405180910390a3604051858152600080516020615db48339815191529060200160405180910390a16118a23386613f43565b6118af610b0c8683613ee6565b6002546118c5906001600160a01b031682613f59565b6118d0863385613f63565b6003546000906001600160a01b03888116911614156118fb57506004546001600160a01b0316611909565b506003546001600160a01b03165b60125460035460405163efd4810360e01b81526001600160a01b039283169263efd48103926119419291169085908b90600401615be0565b602060405180830381865afa15801561195e573d6000803e3d6000fd5b505050506040513d601f19601f820116820180604052508101906119829190615c04565b15610d7f57600380546001600160a01b031660009081526010602052604081209182015460028301546009546011546119be939291908c613f7c565b90506119ce826003015482613ee6565b60038301556119de886000613d47565b600c54604080518481524260208201529296506001600160a01b0386811693620100009093041691600080516020615d74833981519152910160405180910390a3600c54611a3b906201000090046001600160a01b031689613f43565b611a48610b0c8986613ee6565b600254611a5e906001600160a01b031685613f59565b600c54611a7c9084906201000090046001600160a01b031683613f63565b6012546003546040516307b01ab360e41b81526001600160a01b039182166004820152858216602482015260448101849052606481018b9052911690637b01ab3090608401600060405180830381600087803b158015611adb57600080fd5b505af1158015611aef573d6000803e3d6000fd5b50505050600080516020615d9483398151915288604051610d7491815260200190565b600c54610100900460ff1615611b3a5760405162461bcd60e51b815260040161092f90615a97565b600c805461ff001916610100179055600e54600160a01b900460ff16611b725760405162461bcd60e51b815260040161092f90615abc565b6000611b7d60095490565b90506000611b8b85836145fc565b905080611baa5760405162461bcd60e51b815260040161092f90615b91565b60005b600f54811015611cf2576000600f8281548110611bcc57611bcc615ca2565b60009182526020808320909101546001600160a01b03168083526010909152604082206003015490925090611c018583613d47565b905080611c205760405162461bcd60e51b815260040161092f90615b91565b878785818110611c3257611c32615ca2565b90506020020135811115611c585760405162461bcd60e51b815260040161092f90615bba565b6001600160a01b038316600090815260106020526040902060030154611c7e9082614714565b6001600160a01b038416600081815260106020526040908190206003019290925590513390600080516020615dd483398151915290611cc99085904290918252602082015260400190565b60405180910390a3611cdc833383614766565b5050508080611cea90615cb8565b915050611bad565b50611cfc8561477b565b611d063386613f59565b604051858152600080516020615db48339815191529060200160405180910390a15050600c805461ff0019169055505050565b600c54600090610100900460ff1615611d645760405162461bcd60e51b815260040161092f90615a97565b600c805461ff001916610100179055600e54600160a01b900460ff16611d9c5760405162461bcd60e51b815260040161092f90615abc565b6001600160a01b03841660009081526010602052604090205460ff16611dd45760405162461bcd60e51b815260040161092f90615ae7565b6001600160a01b038416600090815260106020526040902060030154611e07906109e76002670de0b6b3a7640000615b3a565b831115611e265760405162461bcd60e51b815260040161092f90615cd3565b6001600160a01b038416600090815260106020526040902060038101546002820154600954601154611e5b9392919088614567565b915082821015611e7d5760405162461bcd60e51b815260040161092f90615c7b565b611e8b816003015485614714565b6003820155604080518581524260208201526001600160a01b038716913391600080516020615dd4833981519152910160405180910390a3604051828152600080516020615db48339815191529060200160405180910390a1611eed8261477b565b611ef73383613f59565b611f02853386614766565b600380546001600160a01b031660009081526010602052604081209182015460028301546009546011548493611f3c939092909189614784565b6003549091506001600160a01b0389811691161415611f68576004546001600160a01b03169150611f77565b6003546001600160a01b031691505b6012546003546040516326b1f01f60e01b81526001600160a01b03928316926326b1f01f92611faf9291169086908690600401615be0565b602060405180830381865afa158015611fcc573d6000803e3d6000fd5b505050506040513d601f19601f82011682018060405250810190611ff09190615c04565b15612113576012546003546040516399039fcf60e01b81526001600160a01b03928316926399039fcf9261202d9291169086908690600401615be0565b600060405180830381600087803b15801561204757600080fd5b505af115801561205b573d6000803e3d6000fd5b5050505061206d836003015482614714565b6003840155600c54604080518381524260208201526001600160a01b03858116936201000090041691600080516020615dd4833981519152910160405180910390a3604051858152600080516020615d948339815191529060200160405180910390a16120d98561477b565b600c546120f5906201000090046001600160a01b031686613f59565b600c546121139083906201000090046001600160a01b031683614766565b50505050600c805461ff00191690559392505050565b3360009081526008602090815260408083206001600160a01b03861684529091528120548083111561217e573360009081526008602090815260408083206001600160a01b03881684529091528120556121ad565b6121888184613ee6565b3360009081526008602090815260408083206001600160a01b03891684529091529020555b3360008181526008602090815260408083206001600160a01b03891680855290835292819020549051908152919291600080516020615df4833981519152910160405180910390a35060019392505050565b600c54600090610100900460ff161561222a5760405162461bcd60e51b815260040161092f90615a97565b600c805461ff001916610100179055600e54600160a01b900460ff166122625760405162461bcd60e51b815260040161092f90615abc565b6001600160a01b03841660009081526010602052604090205460ff1661229a5760405162461bcd60e51b815260040161092f90615ae7565b6001600160a01b0384166000908152601060205260409020600381015460028201546009546011546122cf9392919088614784565b9150816122ee5760405162461bcd60e51b815260040161092f90615b91565b8282111561230e5760405162461bcd60e51b815260040161092f90615bba565b6001600160a01b038516600090815260106020526040902060030154612341906109e76002670de0b6b3a7640000615b3a565b8211156123605760405162461bcd60e51b815260040161092f90615cd3565b61236e816003015483614714565b6003820155604080518381524260208201526001600160a01b038716913391600080516020615dd4833981519152910160405180910390a3604051848152600080516020615db48339815191529060200160405180910390a16123d08461477b565b6123da3385613f59565b6123e5853384614766565b600380546001600160a01b0316600090815260106020526040812091820154600283015460095460115461241c939291908a614784565b6003549091506000906001600160a01b038981169116141561244a57506004546001600160a01b0316612458565b506003546001600160a01b03165b6012546003546040516326b1f01f60e01b81526001600160a01b03928316926326b1f01f926124909291169085908790600401615be0565b602060405180830381865afa1580156124ad573d6000803e3d6000fd5b505050506040513d601f19601f820116820180604052508101906124d19190615c04565b15612113576012546003546040516399039fcf60e01b81526001600160a01b03928316926399039fcf9261250e9291169085908790600401615be0565b600060405180830381600087803b15801561252857600080fd5b505af115801561253c573d6000803e3d6000fd5b5050505061254e836003015483614714565b6003840155600c54604080518481524260208201526001600160a01b03848116936201000090041691600080516020615dd4833981519152910160405180910390a36125998761477b565b600c546125b5906201000090046001600160a01b031688613f59565b600c546125d39082906201000090046001600160a01b031684614766565b604051878152600080516020615d948339815191529060200160405180910390a150505050600c805461ff00191690559392505050565b60025460048054604051637c0aa57760e11b81526001600160a01b0391821692810192909252600092169063f8154aee90602401602060405180830381865afa15801561265b573d6000803e3d6000fd5b505050506040513d601f19601f8201168201806040525081019061267f9190615cfd565b905090565b600d546001600160a01b031633146126d65760405162461bcd60e51b815260206004820152601560248201527427a7262c9026a0a925a2aa1021a7a62622a1aa27a960591b604482015260640161092f565b6001600160a01b03811661272c5760405162461bcd60e51b815260206004820152601d60248201527f496e76616c6964205f6e6577436f6c6c6563746f722061646472657373000000604482015260640161092f565b600d80546001600160a01b0319166001600160a01b0383169081179091556040805133815260208101929092527f82aaf1a11850bc9b5eb1b7db8b4ad08629911d970a4d7539875938c4017e59b89101611559565b610e94620f4240670de0b6b3a7640000615b3a565b600c546000908190610100900460ff16156127c35760405162461bcd60e51b815260040161092f90615a97565b600c805461ff001916610100179055600e54600160a01b900460ff166127fb5760405162461bcd60e51b815260040161092f90615abc565b6001600160a01b03871660009081526010602052604090205460ff166128335760405162461bcd60e51b815260040161092f90615ae7565b6001600160a01b03851660009081526010602052604090205460ff1661286b5760405162461bcd60e51b815260040161092f90615ae7565b6001600160a01b03808816600090815260106020526040808220928816825290206003808201546128a8916109dc90670de0b6b3a7640000615b3a565b8611156128c75760405162461bcd60e51b815260040161092f90615b66565b60006128e5836003015484600201548460030154856002015461428f565b90508581111561292d5760405162461bcd60e51b81526020600482015260136024820152724552525f4241445f4c494d49545f505249434560681b604482015260640161092f565b60008060405180608001604052808660030154815260200186600201548152602001856003015481526020018560020154815250905061296e818a8e61481e565b90975091508a8711156129935760405162461bcd60e51b815260040161092f90615bba565b6129a1856003015483614714565b85600301819055506129b784600301548a613ee6565b6003808601829055860154600280880154908701546129d6939061428f565b9550828610156129f85760405162461bcd60e51b815260040161092f90615b91565b87861115612a3a5760405162461bcd60e51b815260206004820152600f60248201526e4552525f4c494d49545f505249434560881b604482015260640161092f565b612a44878a6145fc565b831115612a635760405162461bcd60e51b815260040161092f90615b91565b60408051888152602081018b9052428183015290516001600160a01b038c811692908f169133917f50ef2fc267012b5c84b56835f16ffd5331ac5a151a3760d74908721ba78b0efe919081900360600190a4612ac08c3389614766565b612acb8a338b613f63565b5050505050600c805461ff001916905590969095509350505050565b6000612af16133c1565b905060005b8151811015612c7557600060066000848481518110612b1757612b17615ca2565b60200260200101516001600160a01b03166001600160a01b03168152602001908152602001600020549050600060066000858581518110612b5a57612b5a615ca2565b60200260200101516001600160a01b03166001600160a01b0316815260200190815260200160002081905550612bd2600d60009054906101000a90046001600160a01b031682858581518110612bb257612bb2615ca2565b60200260200101516001600160a01b0316614a3c9092919063ffffffff16565b7f6b98b886762529d8027f347356f9ec147e1735888054ace831c0e3de7983ab3d33600d60009054906101000a90046001600160a01b0316858581518110612c1c57612c1c615ca2565b602002602001015184604051612c5a94939291906001600160a01b039485168152928416602084015292166040820152606081019190915260800190565b60405180910390a15080612c6d81615cb8565b915050612af6565b5050565b600c546000908190610100900460ff1615612ca65760405162461bcd60e51b815260040161092f90615a97565b600c805461ff001916610100179055600e54600160a01b900460ff16612cde5760405162461bcd60e51b815260040161092f90615abc565b6001600160a01b03871660009081526010602052604090205460ff16612d165760405162461bcd60e51b815260040161092f90615ae7565b6001600160a01b03851660009081526010602052604090205460ff16612d4e5760405162461bcd60e51b815260040161092f90615ae7565b6001600160a01b03808816600090815260106020526040808220928816825290206003820154612d8b906109e76002670de0b6b3a7640000615b3a565b881115612daa5760405162461bcd60e51b815260040161092f90615cd3565b6000612dc8836003015484600201548460030154856002015461428f565b905085811115612e105760405162461bcd60e51b81526020600482015260136024820152724552525f4241445f4c494d49545f505249434560681b604482015260640161092f565b600080604051806080016040528086600301548152602001866002015481526020018560030154815260200185600201548152509050612e51818c8e614a9f565b909750915088871015612e765760405162461bcd60e51b815260040161092f90615c7b565b612e84856003015483614714565b8560030181905550612e9a846003015488613ee6565b600380860182905586015460028088015490870154612eb9939061428f565b955082861015612edb5760405162461bcd60e51b815260040161092f90615b91565b87861115612f1d5760405162461bcd60e51b815260206004820152600f60248201526e4552525f4c494d49545f505249434560881b604482015260640161092f565b612f278b886145fc565b831115612f465760405162461bcd60e51b815260040161092f90615b91565b604080518c815260208101899052428183015290516001600160a01b038c811692908f169133917f50ef2fc267012b5c84b56835f16ffd5331ac5a151a3760d74908721ba78b0efe919081900360600190a4612fa38c338d614766565b612acb8a3389613f63565b610e9464e8d4a51000670de0b6b3a7640000615b3a565b600c54600090610100900460ff1615612ff05760405162461bcd60e51b815260040161092f90615a97565b5060115490565b610e94670de0b6b3a76400006064615c5c565b600c54600090610100900460ff16156130355760405162461bcd60e51b815260040161092f90615a97565b6001600160a01b03821660009081526010602052604090205460ff1661306d5760405162461bcd60e51b815260040161092f90615ae7565b506001600160a01b0381166000908152601060205260409020600201545b919050565b6060600b8054610da390615c21565b6130b26003670de0b6b3a7640000615b3a565b610e94906001615b4e565b6001600160a01b03821660009081526010602090815260408083208151608081018352815460ff16151581526001820154938101939093526002810154918301829052600301546060830181905260095460115461167593919087613e22565b600061312a338484614307565b50600192915050565b600c54610100900460ff161561315b5760405162461bcd60e51b815260040161092f90615a97565b600c805461ff001916610100179055600e54600160a01b900460ff166131935760405162461bcd60e51b815260040161092f90615abc565b600061319e60095490565b905060006131ad856000613d47565b905060006131bb8683613ee6565b905060006131c982856145fc565b9050806131e85760405162461bcd60e51b815260040161092f90615b91565b6131f23388613f43565b600254613208906001600160a01b031684613f59565b61321182613f4d565b60005b600f54811015613359576000600f828154811061323357613233615ca2565b60009182526020808320909101546001600160a01b031680835260109091526040822060030154909250906132688583613d47565b9050806132875760405162461bcd60e51b815260040161092f90615b91565b89898581811061329957613299615ca2565b905060200201358110156132bf5760405162461bcd60e51b815260040161092f90615c7b565b6001600160a01b0383166000908152601060205260409020600301546132e59082613ee6565b6001600160a01b038416600081815260106020526040908190206003019290925590513390600080516020615d74833981519152906133309085904290918252602082015260400190565b60405180910390a3613343833383613f63565b505050808061335190615cb8565b915050613214565b50604051878152600080516020615db48339815191529060200160405180910390a15050600c805461ff00191690555050505050565b610e94600a670de0b6b3a7640000615b3a565b60016133b7670de0b6b3a76400006002615c5c565b610e949190615d16565b600c54606090610100900460ff16156133ec5760405162461bcd60e51b815260040161092f90615a97565b600e54600160a01b900460ff166134155760405162461bcd60e51b815260040161092f90615abc565b600f805480602002602001604051908101604052809291908181526020018280548015610e1c57602002820191906000526020600020905b81546001600160a01b0316815260019091019060200180831161344d575050505050905090565b601254600090600160a01b900460ff16156134d15760405162461bcd60e51b815260206004820152601760248201527f4552525f414c52454144595f494e495449414c495a4544000000000000000000604482015260640161092f565b6001600160a01b0389166135275760405162461bcd60e51b815260206004820152601e60248201527f4552525f494e56414c49445f434f4e54524f4c4c45525f414444524553530000604482015260640161092f565b6001600160a01b03881661357d5760405162461bcd60e51b815260206004820152601b60248201527f4552525f494e56414c49445f464143544f52595f414444524553530000000000604482015260640161092f565b613592620f4240670de0b6b3a7640000615b3a565b878760008181106135a5576135a5615ca2565b9050602002013510156135e85760405162461bcd60e51b815260206004820152600b60248201526a4552525f4d494e5f46454560a81b604482015260640161092f565b6135fb600a670de0b6b3a7640000615b3a565b8787600081811061360e5761360e615ca2565b9050602002013511156136515760405162461bcd60e51b815260206004820152600b60248201526a4552525f4d41585f46454560a81b604482015260640161092f565b6136d78989898980806020026020016040519081016040528093929190818152602001838360200280828437600092019190915250506040805180820182528c93508b9250908a9060029083908390808284376000920191909152505060408051808201825291508a906002908390839080828437600092019190915250614ca4915050565b9998505050505050505050565b60608060006136f16133c1565b90506000815167ffffffffffffffff81111561370f5761370f615d2d565b604051908082528060200260200182016040528015613738578160200160208202803683370190505b5090506000825167ffffffffffffffff81111561375757613757615d2d565b604051908082528060200260200182016040528015613780578160200160208202803683370190505b50905060005b8351811015613849578381815181106137a1576137a1615ca2565b60200260200101518382815181106137bb576137bb615ca2565b60200260200101906001600160a01b031690816001600160a01b031681525050600660008583815181106137f1576137f1615ca2565b60200260200101516001600160a01b03166001600160a01b031681526020019081526020016000205482828151811061382c5761382c615ca2565b60209081029190910101528061384181615cb8565b915050613786565b509094909350915050565b60608060006138616133c1565b90506000815167ffffffffffffffff81111561387f5761387f615d2d565b6040519080825280602002602001820160405280156138a8578160200160208202803683370190505b5090506000825167ffffffffffffffff8111156138c7576138c7615d2d565b6040519080825280602002602001820160405280156138f0578160200160208202803683370190505b50905060005b83518110156138495783818151811061391157613911615ca2565b602002602001015183828151811061392b5761392b615ca2565b60200260200101906001600160a01b031690816001600160a01b0316815250506005600085838151811061396157613961615ca2565b60200260200101516001600160a01b03166001600160a01b031681526020019081526020016000205482828151811061399c5761399c615ca2565b6020908102919091010152806139b181615cb8565b9150506138f6565b600c54606090610100900460ff16156134155760405162461bcd60e51b815260040161092f90615a97565b3360009081526008602090815260408083206001600160a01b0386168452909152812054613a129083614714565b3360008181526008602090815260408083206001600160a01b03891680855290835292819020859055519384529092600080516020615df48339815191529101610e6f565b610e946002670de0b6b3a7640000615b3a565b600c54600090610100900460ff1615613a955760405162461bcd60e51b815260040161092f90615a97565b6001600160a01b03821660009081526010602052604090205460ff16613acd5760405162461bcd60e51b815260040161092f90615ae7565b6001600160a01b03821660009081526010602052604090206002015460115461131c9082906145fc565b6000613b016133c1565b905060005b8151811015612c7557600060056000848481518110613b2757613b27615ca2565b60200260200101516001600160a01b03166001600160a01b03168152602001908152602001600020549050600060056000858581518110613b6a57613b6a615ca2565b60200260200101516001600160a01b03166001600160a01b0316815260200190815260200160002081905550613bc2600e60009054906101000a90046001600160a01b031682858581518110612bb257612bb2615ca2565b7fe8e83bbe0f2a413d8e79dcb9ef4143cd967143e9d6b93c91d002c7eefdc507cc33600e60009054906101000a90046001600160a01b0316858581518110613c0c57613c0c615ca2565b602002602001015184604051613c4a94939291906001600160a01b039485168152928416602084015292166040820152606081019190915260800190565b60405180910390a15080613c5d81615cb8565b915050613b06565b600c54600090610100900460ff1615613c905760405162461bcd60e51b815260040161092f90615a97565b6001600160a01b03821660009081526010602052604090205460ff16613cc85760405162461bcd60e51b815260040161092f90615ae7565b506001600160a01b031660009081526010602052604090206003015490565b6001600160a01b03821660009081526010602090815260408083208151608081018352815460ff16151581526001820154938101939093526002810154918301829052600301546060830181905260095460115461167593919087614784565b600080613d548385615c5c565b9050831580613d6b575082613d698583615b3a565b145b613daa5760405162461bcd60e51b815260206004820152601060248201526f4552525f4d554c5f4f564552464c4f5760801b604482015260640161092f565b6000613dbf6002670de0b6b3a7640000615b3a565b613dc99083615b4e565b905081811015613e0e5760405162461bcd60e51b815260206004820152601060248201526f4552525f4d554c5f4f564552464c4f5760801b604482015260640161092f565b60006113d4670de0b6b3a764000083615b3a565b600080613e2f86856145fc565b90506000613e45670de0b6b3a764000083613ee6565b90506000613e5582600154613d47565b90506000613e7486613e6f670de0b6b3a764000085613ee6565b6145fc565b90506000613e828b83613ee6565b90506000613e90828d6145fc565b90506000613e9e8288614de2565b90506000613eac828d613d47565b90506000613eba8d83613ee6565b9050613ed381613e6f670de0b6b3a76400006000613ee6565b9f9e505050505050505050505050505050565b6000806000613ef58585614f0e565b915091508015613f3b5760405162461bcd60e51b81526020600482015260116024820152704552525f5355425f554e444552464c4f5760781b604482015260640161092f565b509392505050565b612c758282614f45565b613f5681614f50565b50565b612c75828261501c565b613f776001600160a01b0384168383614a3c565b505050565b600080613f8986856145fc565b90506000613fa4846109e7670de0b6b3a76400006000613ee6565b90506000613fb28783613ee6565b90506000613fc082896145fc565b90506000613fdf82613fda670de0b6b3a7640000886145fc565b614de2565b90506000613fed828d613d47565b90506000613ffb8d83613ee6565b9050600061401c614014670de0b6b3a76400008a613ee6565b600154613d47565b9050614034826109e7670de0b6b3a764000084613ee6565b9e9d5050505050505050505050505050565b600c546201000090046001600160a01b0316331461409b5760405162461bcd60e51b815260206004820152601260248201527122a9292fa727aa2fa1a7a72a2927a62622a960711b604482015260640161092f565b6001600160a01b03831660009081526010602052604090205460ff16156140f35760405162461bcd60e51b815260206004820152600c60248201526b11549497d254d7d093d5539160a21b604482015260640161092f565b600e54600160a01b900460ff16156141405760405162461bcd60e51b815260206004820152601060248201526f11549497d254d7d1925390531256915160821b604482015260640161092f565b600f546002116141835760405162461bcd60e51b815260206004820152600e60248201526d4552525f4d41585f544f4b454e5360901b604482015260640161092f565b604080516080810182526001808252600f805460208085019182526000858701818152606087018281526001600160a01b038c1680845260109094529782209651875460ff1916901515178755925186860155915160028601559451600390940193909355805491820181559091527f8d1108e10bcb7c27dddfc02ed9d693a074039d026cf4ea4240b40f7d581ac8020180546001600160a01b0319169091179055613f77838383615027565b600e805460ff60a01b1916600160a01b179055600c805460ff60b01b1916600160b01b17905561427161426c670de0b6b3a76400006064615c5c565b61477b565b61428d33614288670de0b6b3a76400006064615c5c565b613f59565b565b60008061429c86866145fc565b905060006142aa85856145fc565b905060006142b883836145fc565b905060006142fb670de0b6b3a7640000613e6f670de0b6b3a76400006000546142df61260a565b6001546142ec9190615b4e565b6142f69190615b4e565b613ee6565b90506136d78282613d47565b6001600160a01b0383166000908152600760205260409020548111156143665760405162461bcd60e51b815260206004820152601460248201527311549497d25394d551919250d251539517d0905360621b604482015260640161092f565b6001600160a01b0383166000908152600760205260409020546143899082613ee6565b6001600160a01b0380851660009081526007602052604080822093909355908416815220546143b89082614714565b6001600160a01b0380841660008181526007602052604090819020939093559151908516907fddf252ad1be2c89b69c2b068fc378daa952ba7f163c4a11628f55a4df523b3ef9061440c9085815260200190565b60405180910390a3505050565b60008061442684876145fc565b905060006144348685613ee6565b9050600061444287836145fc565b905060006144508285614de2565b905061446481670de0b6b3a7640000613ee6565b90506000805461447261260a565b60015461447f9190615b4e565b6144899190615b4e565b905061449d670de0b6b3a764000082613ee6565b95506144b26144ac8c84613d47565b876145fc565b9b9a5050505050505050505050565b6000806144ce86856145fc565b9050600080546144dc61260a565b6001546144e99190615b4e565b6144f39190615b4e565b90506000614509670de0b6b3a764000083613ee6565b90506145158582613d47565b905060006145278a613e6f8c85614714565b905060006145358286614de2565b9050600061454b670de0b6b3a764000083613ee6565b90506145578a82613d47565b9c9b505050505050505050505050565b60008061457486856145fc565b9050600061458d614014670de0b6b3a764000084613ee6565b905060006145a7856109e7670de0b6b3a764000085613ee6565b905060006145b58a83614714565b905060006145c3828c6145fc565b905060006145d18287614de2565b905060006145df828c613d47565b90506145eb818c613ee6565b9d9c50505050505050505050505050565b60008161463a5760405162461bcd60e51b815260206004820152600c60248201526b4552525f4449565f5a45524f60a01b604482015260640161092f565b600061464e670de0b6b3a764000085615c5c565b905083158061466d5750670de0b6b3a764000061466b8583615b3a565b145b6146ac5760405162461bcd60e51b815260206004820152601060248201526f11549497d1125597d25395115493905360821b604482015260640161092f565b60006146b9600285615b3a565b6146c39083615b4e565b9050818110156147085760405162461bcd60e51b815260206004820152601060248201526f11549497d1125597d25395115493905360821b604482015260640161092f565b60006113d48583615b3a565b6000806147218385615b4e565b90508381101561131c5760405162461bcd60e51b815260206004820152601060248201526f4552525f4144445f4f564552464c4f5760801b604482015260640161092f565b613f776001600160a01b038416833084615277565b613f568161529e565b60008061479186856145fc565b9050600061479f8685614714565b905060006147ad82886145fc565b905060006147c3670de0b6b3a7640000856145fc565b905060006147d18383614de2565b905060006147df828d613d47565b905060006147ed828e613ee6565b90506000614806614014670de0b6b3a76400008a613ee6565b905061403482613e6f670de0b6b3a764000084613ee6565b6000808061483b86600360200201518760015b60200201516145fc565b90506000614850876002602002015187613ee6565b905060006148658860026020020151836145fc565b905060006148738285614de2565b905061488781670de0b6b3a7640000613ee6565b90506000805461489561260a565b6001546148a29190615b4e565b6148ac9190615b4e565b8a519091506148d1906148bf9084613d47565b613e6f670de0b6b3a764000084613ee6565b965060006148f1886142f68a6109e7670de0b6b3a76400006142f661260a565b6001600160a01b038a166000908152600560205260409020549091506149179082614714565b600560008b6001600160a01b03166001600160a01b0316815260200190815260200160002081905550600061495e896142f68b6109e7670de0b6b3a7640000600054613ee6565b6001600160a01b038b166000908152600660205260409020549091506149849082614714565b6001600160a01b038b166000908152600660205260409020558b516149c1906149ad9086613d47565b613e6f670de0b6b3a7640000600154613ee6565b97507f90d9f1d0641138b6407ac37bea3a905d63a371c2d91a484f68d59924634d4ef3614a008a6142f68c6109e7670de0b6b3a7640000600154613ee6565b604080519182526020820185905281018390526001600160a01b038c16606082015260800160405180910390a150505050505050935093915050565b6040516001600160a01b038316602482015260448101829052613f7790849063a9059cbb60e01b906064015b60408051601f198184030181529190526020810180516001600160e01b03166001600160e01b03199093169290921790915261530d565b60008080614ab68660016020020151876003614831565b90506000614ad6866142f6886109e7670de0b6b3a76400006142f661260a565b6001600160a01b038616600090815260056020526040902054909150614afc9082614714565b60056000876001600160a01b03166001600160a01b03168152602001908152602001600020819055506000614b43876142f6896109e7670de0b6b3a7640000600054613ee6565b6001600160a01b038716600090815260066020526040902054909150614b699082614714565b6001600160a01b0387166000908152600660205260408120919091558054614b8f61260a565b600154614b9c9190615b4e565b614ba69190615b4e565b90507f90d9f1d0641138b6407ac37bea3a905d63a371c2d91a484f68d59924634d4ef3614be5896142f68b6109e7670de0b6b3a7640000600154613ee6565b604080519182526020820186905281018490526001600160a01b038916606082015260800160405180910390a16000614c26670de0b6b3a764000083613ee6565b9050614c328982613d47565b8a51909150600090614c4890613e6f8185614714565b90506000614c568288614de2565b90506000614c6c670de0b6b3a764000083613ee6565b9050614c7f8d6002602002015182613d47565b995089614c908d6142f6898b615b4e565b995099505050505050505050935093915050565b600c805462010000600160b01b031916620100006001600160a01b038a81169190910291909117909155600280546001600160a01b031916918816919091179055845160009086908290614cfa57614cfa615ca2565b602002602001015160018190555085600181518110614d1b57614d1b615ca2565b602090810291909101810151600055600c8054961515600160b01b0260ff60b01b199097169690961795869055600e80548551600380546001600160a01b039283166001600160a01b03199182161790915596840151600480549183169189169190911790558551600d805491831691891691909117905594909201518416951515600160a01b908102959095166001600160a81b0319928316179590951790945550601280549093166201000090940416929092178217908190550460ff169392505050565b60006001831015614e2d5760405162461bcd60e51b81526020600482015260156024820152744552525f42504f575f424153455f544f4f5f4c4f5760581b604482015260640161092f565b6001614e42670de0b6b3a76400006002615c5c565b614e4c9190615d16565b831115614e945760405162461bcd60e51b815260206004820152601660248201527508aa4a4be84a09eaebe8482a68abea89e9ebe90928e960531b604482015260640161092f565b6000614e9f836153df565b90506000614ead8483613ee6565b90506000614ec386614ebe856153fd565b615411565b905081614ed4579250610e7b915050565b6000614ef78784614ef26402540be400670de0b6b3a7640000615b3a565b615485565b9050614f038282613d47565b979650505050505050565b600080828410614f2d57614f228385615d16565b600091509150614f3e565b614f378484615d16565b6001915091505b9250929050565b612c75823083614307565b30600090815260076020526040902054811115614fa65760405162461bcd60e51b815260206004820152601460248201527311549497d25394d551919250d251539517d0905360621b604482015260640161092f565b30600090815260076020526040902054614fc09082613ee6565b30600090815260076020526040902055600954614fdd9082613ee6565b60095560405181815260009030907fddf252ad1be2c89b69c2b068fc378daa952ba7f163c4a11628f55a4df523b3ef906020015b60405180910390a350565b612c75308383614307565b670de0b6b3a76400008110156150705760405162461bcd60e51b815260206004820152600e60248201526d11549497d3525397d5d15251d21560921b604482015260640161092f565b615083670de0b6b3a76400006032615c5c565b8111156150c35760405162461bcd60e51b815260206004820152600e60248201526d11549497d3505617d5d15251d21560921b604482015260640161092f565b6150da64e8d4a51000670de0b6b3a7640000615b3a565b82101561511b5760405162461bcd60e51b815260206004820152600f60248201526e4552525f4d494e5f42414c414e434560881b604482015260640161092f565b6001600160a01b038316600090815260106020526040902060020154808211156151b75761515460115461514f8484613ee6565b614714565b60115561516a670de0b6b3a76400006032615c5c565b60115411156151b25760405162461bcd60e51b815260206004820152601460248201527311549497d3505617d513d5105317d5d15251d21560621b604482015260640161092f565b6151d3565b808210156151d3576151cf6011546142f68385613ee6565b6011555b6001600160a01b0384166000908152601060205260409020600281018390556003018054908490558084111561521c5761521785336152128785613ee6565b614766565b615270565b808410156152705760006152308286613ee6565b9050600061523f826000613d47565b905061525587336152508585613ee6565b613f63565b60025461526d9088906001600160a01b031683613f63565b50505b5050505050565b615298846323b872dd60e01b858585604051602401614a6893929190615be0565b50505050565b306000908152600760205260409020546152b89082614714565b306000908152600760205260409020556009546152d59082614714565b60095560405181815230906000907fddf252ad1be2c89b69c2b068fc378daa952ba7f163c4a11628f55a4df523b3ef90602001615011565b6000615362826040518060400160405280602081526020017f5361666545524332303a206c6f772d6c6576656c2063616c6c206661696c6564815250856001600160a01b03166155759092919063ffffffff16565b805190915015613f7757808060200190518101906153809190615c04565b613f775760405162461bcd60e51b815260206004820152602a60248201527f5361666545524332303a204552433230206f7065726174696f6e20646964206e6044820152691bdd081cdd58d8d9595960b21b606482015260840161092f565b6000670de0b6b3a76400006153f3836153fd565b610e7b9190615c5c565b6000610e7b670de0b6b3a764000083615b3a565b60008281615420600285615d43565b61543257670de0b6b3a7640000615434565b815b9050615441600285615b3a565b93505b8315611675576154548283613d47565b9150615461600285615d43565b15615473576154708183613d47565b90505b61547e600285615b3a565b9350615444565b600082818061549c87670de0b6b3a7640000614f0e565b9092509050670de0b6b3a764000080600060015b8884106155665760006154cb670de0b6b3a764000083615c5c565b90506000806154eb8a6154e685670de0b6b3a7640000613ee6565b614f0e565b915091506154fd876109e7848c613d47565b965061550987846145fc565b96508661551857505050615566565b8715615522579315935b801561552c579315935b84156155435761553c8688613ee6565b9550615550565b61554d8688614714565b95505b505050808061555e90615cb8565b9150506154b0565b50909998505050505050505050565b6060611675848460008585843b6155ce5760405162461bcd60e51b815260206004820152601d60248201527f416464726573733a2063616c6c20746f206e6f6e2d636f6e7472616374000000604482015260640161092f565b600080866001600160a01b031685876040516155ea9190615d57565b60006040518083038185875af1925050503d8060008114615627576040519150601f19603f3d011682016040523d82523d6000602084013e61562c565b606091505b5091509150614f038282866060831561564657508161131c565b8251156156565782518084602001fd5b8160405162461bcd60e51b815260040161092f91906156e6565b80356001600160a01b038116811461308b57600080fd5b60008060006060848603121561569c57600080fd5b6156a584615670565b95602085013595506040909401359392505050565b60005b838110156156d55781810151838201526020016156bd565b838111156152985750506000910152565b60208152600082518060208401526157058160408501602087016156ba565b601f01601f19169190910160400192915050565b6000806040838503121561572c57600080fd5b61573583615670565b946020939093013593505050565b60008060008060008060c0878903121561575c57600080fd5b61576587615670565b9550602087013594506040870135935061578160608801615670565b92506080870135915060a087013590509295509295509295565b600080604083850312156157ae57600080fd5b6157b783615670565b91506157c560208401615670565b90509250929050565b6000806000606084860312156157e357600080fd5b6157ec84615670565b92506157fa60208501615670565b9150604084013590509250925092565b60006020828403121561581c57600080fd5b61131c82615670565b60006020828403121561583757600080fd5b5035919050565b60008083601f84011261585057600080fd5b50813567ffffffffffffffff81111561586857600080fd5b6020830191508360208260051b8501011115614f3e57600080fd5b60008060006040848603121561589857600080fd5b83359250602084013567ffffffffffffffff8111156158b657600080fd5b6158c28682870161583e565b9497909650939450505050565b600080600080600060a086880312156158e757600080fd5b6158f086615670565b94506020860135935061590560408701615670565b94979396509394606081013594506080013592915050565b600081518084526020808501945080840160005b838110156159565781516001600160a01b031687529582019590820190600101615931565b509495945050505050565b60208152600061131c602083018461591d565b8015158114613f5657600080fd5b8060408101831015610e7b57600080fd5b600080600080600080600080610120898b0312156159b057600080fd5b6159b989615670565b97506159c760208a01615670565b9650604089013567ffffffffffffffff8111156159e357600080fd5b6159ef8b828c0161583e565b9097509550506060890135615a0381615974565b93506080890135615a1381615974565b9250615a228a60a08b01615982565b9150615a318a60e08b01615982565b90509295985092959890939650565b604081526000615a53604083018561591d565b82810360208481019190915284518083528582019282019060005b81811015615a8a57845183529383019391830191600101615a6e565b5090979650505050505050565b6020808252600b908201526a4552525f5245454e54525960a81b604082015260600190565b60208082526011908201527011549497d393d517d19253905312569151607a1b604082015260600190565b6020808252600d908201526c11549497d393d517d093d55391609a1b604082015260600190565b634e487b7160e01b600052601260045260246000fd5b634e487b7160e01b600052601160045260246000fd5b600082615b4957615b49615b0e565b500490565b60008219821115615b6157615b61615b24565b500190565b6020808252601190820152704552525f4d41585f4f55545f524154494f60781b604082015260600190565b6020808252600f908201526e08aa4a4be9a82a890be82a0a0a49eb608b1b604082015260600190565b6020808252600c908201526b22a9292fa624a6a4aa2fa4a760a11b604082015260600190565b6001600160a01b039384168152919092166020820152604081019190915260600190565b600060208284031215615c1657600080fd5b815161131c81615974565b600181811c90821680615c3557607f821691505b60208210811415615c5657634e487b7160e01b600052602260045260246000fd5b50919050565b6000816000190483118215151615615c7657615c76615b24565b500290565b6020808252600d908201526c11549497d31253525517d3d555609a1b604082015260600190565b634e487b7160e01b600052603260045260246000fd5b6000600019821415615ccc57615ccc615b24565b5060010190565b60208082526010908201526f4552525f4d41585f494e5f524154494f60801b604082015260600190565b600060208284031215615d0f57600080fd5b5051919050565b600082821015615d2857615d28615b24565b500390565b634e487b7160e01b600052604160045260246000fd5b600082615d5257615d52615b0e565b500690565b60008251615d698184602087016156ba565b919091019291505056fe9d9058fd2f25ccc389fec7720abef0ca83472f5abfafd5f10d37f51e6a0493f387b3975661762d852ddf2eeaad6a43b2d93777de7b3b7bdb634283df32456118fcda32798d5a9d032f49b37fea876d422f18f6e386e0f07db6029b693624b2c215a8ca63e37b2cff1677df2b6b82d36fcf8a524228bd7a4b4d02d107c28c1e8a8c5be1e5ebec7d5bd14f71427d1e84f3dd0314c0f7b2291e5b200ac8c7c3b925a264697066735822122066b878776f6905a5b736d732235358959d6e065f795a53114e65cc6c577a17a864736f6c634300080a0033",
  "linkReferences": {},
  "deployedLinkReferences": {}
}