{
  "_format": "hh-sol-artifact-1",
  "contractName": "BPool",
  "sourceName": "contracts/pools/balancer/BPool.sol",
  "abi": [
    {
      "anonymous": false,
      "inputs": [
        {
          "indexed": true,
          "internalType": "address",
          "name": "src",
          "type": "address"
        },
        {
          "indexed": true,
          "internalType": "address",
          "name": "dst",
          "type": "address"
        },
        {
          "indexed": false,
          "internalType": "uint256",
          "name": "amt",
          "type": "uint256"
        }
      ],
      "name": "Approval",
      "type": "event"
    },
    {
      "anonymous": false,
      "inputs": [
        {
          "indexed": false,
          "internalType": "uint256",
          "name": "bptAmount",
          "type": "uint256"
        }
      ],
      "name": "LOG_BPT",
      "type": "event"
    },
    {
      "anonymous": false,
      "inputs": [
        {
          "indexed": true,
          "internalType": "bytes4",
          "name": "sig",
          "type": "bytes4"
        },
        {
          "indexed": true,
          "internalType": "address",
          "name": "caller",
          "type": "address"
        },
        {
          "indexed": false,
          "internalType": "uint256",
          "name": "timestamp",
          "type": "uint256"
        },
        {
          "indexed": false,
          "internalType": "bytes",
          "name": "data",
          "type": "bytes"
        }
      ],
      "name": "LOG_CALL",
      "type": "event"
    },
    {
      "anonymous": false,
      "inputs": [
        {
          "indexed": true,
          "internalType": "address",
          "name": "caller",
          "type": "address"
        },
        {
          "indexed": true,
          "internalType": "address",
          "name": "tokenOut",
          "type": "address"
        },
        {
          "indexed": false,
          "internalType": "uint256",
          "name": "tokenAmountOut",
          "type": "uint256"
        },
        {
          "indexed": false,
          "internalType": "uint256",
          "name": "timestamp",
          "type": "uint256"
        }
      ],
      "name": "LOG_EXIT",
      "type": "event"
    },
    {
      "anonymous": false,
      "inputs": [
        {
          "indexed": true,
          "internalType": "address",
          "name": "caller",
          "type": "address"
        },
        {
          "indexed": true,
          "internalType": "address",
          "name": "tokenIn",
          "type": "address"
        },
        {
          "indexed": false,
          "internalType": "uint256",
          "name": "tokenAmountIn",
          "type": "uint256"
        },
        {
          "indexed": false,
          "internalType": "uint256",
          "name": "timestamp",
          "type": "uint256"
        }
      ],
      "name": "LOG_JOIN",
      "type": "event"
    },
    {
      "anonymous": false,
      "inputs": [
        {
          "indexed": true,
          "internalType": "address",
          "name": "caller",
          "type": "address"
        },
        {
          "indexed": true,
          "internalType": "address",
          "name": "tokenIn",
          "type": "address"
        },
        {
          "indexed": true,
          "internalType": "address",
          "name": "tokenOut",
          "type": "address"
        },
        {
          "indexed": false,
          "internalType": "uint256",
          "name": "tokenAmountIn",
          "type": "uint256"
        },
        {
          "indexed": false,
          "internalType": "uint256",
          "name": "tokenAmountOut",
          "type": "uint256"
        },
        {
          "indexed": false,
          "internalType": "uint256",
          "name": "timestamp",
          "type": "uint256"
        }
      ],
      "name": "LOG_SWAP",
      "type": "event"
    },
    {
      "anonymous": false,
      "inputs": [
        {
          "indexed": false,
          "internalType": "uint256",
          "name": "swapFeeAmount",
          "type": "uint256"
        },
        {
          "indexed": false,
          "internalType": "uint256",
          "name": "oceanFeeAmount",
          "type": "uint256"
        },
        {
          "indexed": false,
          "internalType": "uint256",
          "name": "marketFeeAmount",
          "type": "uint256"
        },
        {
          "indexed": false,
          "internalType": "address",
          "name": "tokenFees",
          "type": "address"
        }
      ],
      "name": "SWAP_FEES",
      "type": "event"
    },
    {
      "anonymous": false,
      "inputs": [
        {
          "indexed": true,
          "internalType": "address",
          "name": "src",
          "type": "address"
        },
        {
          "indexed": true,
          "internalType": "address",
          "name": "dst",
          "type": "address"
        },
        {
          "indexed": false,
          "internalType": "uint256",
          "name": "amt",
          "type": "uint256"
        }
      ],
      "name": "Transfer",
      "type": "event"
    },
    {
      "inputs": [],
      "name": "BONE",
      "outputs": [
        {
          "internalType": "uint256",
          "name": "",
          "type": "uint256"
        }
      ],
      "stateMutability": "view",
      "type": "function"
    },
    {
      "inputs": [],
      "name": "BPOW_PRECISION",
      "outputs": [
        {
          "internalType": "uint256",
          "name": "",
          "type": "uint256"
        }
      ],
      "stateMutability": "view",
      "type": "function"
    },
    {
      "inputs": [],
      "name": "EXIT_FEE",
      "outputs": [
        {
          "internalType": "uint256",
          "name": "",
          "type": "uint256"
        }
      ],
      "stateMutability": "view",
      "type": "function"
    },
    {
      "inputs": [],
      "name": "INIT_POOL_SUPPLY",
      "outputs": [
        {
          "internalType": "uint256",
          "name": "",
          "type": "uint256"
        }
      ],
      "stateMutability": "view",
      "type": "function"
    },
    {
      "inputs": [],
      "name": "MAX_BOUND_TOKENS",
      "outputs": [
        {
          "internalType": "uint256",
          "name": "",
          "type": "uint256"
        }
      ],
      "stateMutability": "view",
      "type": "function"
    },
    {
      "inputs": [],
      "name": "MAX_BPOW_BASE",
      "outputs": [
        {
          "internalType": "uint256",
          "name": "",
          "type": "uint256"
        }
      ],
      "stateMutability": "view",
      "type": "function"
    },
    {
      "inputs": [],
      "name": "MAX_FEE",
      "outputs": [
        {
          "internalType": "uint256",
          "name": "",
          "type": "uint256"
        }
      ],
      "stateMutability": "view",
      "type": "function"
    },
    {
      "inputs": [],
      "name": "MAX_IN_RATIO",
      "outputs": [
        {
          "internalType": "uint256",
          "name": "",
          "type": "uint256"
        }
      ],
      "stateMutability": "view",
      "type": "function"
    },
    {
      "inputs": [],
      "name": "MAX_OUT_RATIO",
      "outputs": [
        {
          "internalType": "uint256",
          "name": "",
          "type": "uint256"
        }
      ],
      "stateMutability": "view",
      "type": "function"
    },
    {
      "inputs": [],
      "name": "MAX_TOTAL_WEIGHT",
      "outputs": [
        {
          "internalType": "uint256",
          "name": "",
          "type": "uint256"
        }
      ],
      "stateMutability": "view",
      "type": "function"
    },
    {
      "inputs": [],
      "name": "MAX_WEIGHT",
      "outputs": [
        {
          "internalType": "uint256",
          "name": "",
          "type": "uint256"
        }
      ],
      "stateMutability": "view",
      "type": "function"
    },
    {
      "inputs": [],
      "name": "MIN_BALANCE",
      "outputs": [
        {
          "internalType": "uint256",
          "name": "",
          "type": "uint256"
        }
      ],
      "stateMutability": "view",
      "type": "function"
    },
    {
      "inputs": [],
      "name": "MIN_BOUND_TOKENS",
      "outputs": [
        {
          "internalType": "uint256",
          "name": "",
          "type": "uint256"
        }
      ],
      "stateMutability": "view",
      "type": "function"
    },
    {
      "inputs": [],
      "name": "MIN_BPOW_BASE",
      "outputs": [
        {
          "internalType": "uint256",
          "name": "",
          "type": "uint256"
        }
      ],
      "stateMutability": "view",
      "type": "function"
    },
    {
      "inputs": [],
      "name": "MIN_FEE",
      "outputs": [
        {
          "internalType": "uint256",
          "name": "",
          "type": "uint256"
        }
      ],
      "stateMutability": "view",
      "type": "function"
    },
    {
      "inputs": [],
      "name": "MIN_WEIGHT",
      "outputs": [
        {
          "internalType": "uint256",
          "name": "",
          "type": "uint256"
        }
      ],
      "stateMutability": "view",
      "type": "function"
    },
    {
      "inputs": [],
      "name": "_marketCollector",
      "outputs": [
        {
          "internalType": "address",
          "name": "",
          "type": "address"
        }
      ],
      "stateMutability": "view",
      "type": "function"
    },
    {
      "inputs": [],
      "name": "_opfCollector",
      "outputs": [
        {
          "internalType": "address",
          "name": "",
          "type": "address"
        }
      ],
      "stateMutability": "view",
      "type": "function"
    },
    {
      "inputs": [],
      "name": "_swapMarketFee",
      "outputs": [
        {
          "internalType": "uint256",
          "name": "",
          "type": "uint256"
        }
      ],
      "stateMutability": "view",
      "type": "function"
    },
    {
      "inputs": [
        {
          "internalType": "address",
          "name": "src",
          "type": "address"
        },
        {
          "internalType": "address",
          "name": "dst",
          "type": "address"
        }
      ],
      "name": "allowance",
      "outputs": [
        {
          "internalType": "uint256",
          "name": "",
          "type": "uint256"
        }
      ],
      "stateMutability": "view",
      "type": "function"
    },
    {
      "inputs": [
        {
          "internalType": "address",
          "name": "dst",
          "type": "address"
        },
        {
          "internalType": "uint256",
          "name": "amt",
          "type": "uint256"
        }
      ],
      "name": "approve",
      "outputs": [
        {
          "internalType": "bool",
          "name": "",
          "type": "bool"
        }
      ],
      "stateMutability": "nonpayable",
      "type": "function"
    },
    {
      "inputs": [
        {
          "internalType": "address",
          "name": "whom",
          "type": "address"
        }
      ],
      "name": "balanceOf",
      "outputs": [
        {
          "internalType": "uint256",
          "name": "",
          "type": "uint256"
        }
      ],
      "stateMutability": "view",
      "type": "function"
    },
    {
      "inputs": [
        {
          "internalType": "address",
          "name": "to",
          "type": "address"
        }
      ],
      "name": "collectMarketFee",
      "outputs": [],
      "stateMutability": "nonpayable",
      "type": "function"
    },
    {
      "inputs": [],
      "name": "collectOPF",
      "outputs": [],
      "stateMutability": "nonpayable",
      "type": "function"
    },
    {
      "inputs": [
        {
          "internalType": "address",
          "name": "",
          "type": "address"
        }
      ],
      "name": "communityFees",
      "outputs": [
        {
          "internalType": "uint256",
          "name": "",
          "type": "uint256"
        }
      ],
      "stateMutability": "view",
      "type": "function"
    },
    {
      "inputs": [],
      "name": "decimals",
      "outputs": [
        {
          "internalType": "uint8",
          "name": "",
          "type": "uint8"
        }
      ],
      "stateMutability": "view",
      "type": "function"
    },
    {
      "inputs": [
        {
          "internalType": "address",
          "name": "dst",
          "type": "address"
        },
        {
          "internalType": "uint256",
          "name": "amt",
          "type": "uint256"
        }
      ],
      "name": "decreaseApproval",
      "outputs": [
        {
          "internalType": "bool",
          "name": "",
          "type": "bool"
        }
      ],
      "stateMutability": "nonpayable",
      "type": "function"
    },
    {
      "inputs": [
        {
          "internalType": "uint256",
          "name": "poolAmountIn",
          "type": "uint256"
        },
        {
          "internalType": "uint256[]",
          "name": "minAmountsOut",
          "type": "uint256[]"
        }
      ],
      "name": "exitPool",
      "outputs": [],
      "stateMutability": "nonpayable",
      "type": "function"
    },
    {
      "inputs": [
        {
          "internalType": "address",
          "name": "tokenOut",
          "type": "address"
        },
        {
          "internalType": "uint256",
          "name": "tokenAmountOut",
          "type": "uint256"
        },
        {
          "internalType": "uint256",
          "name": "maxPoolAmountIn",
          "type": "uint256"
        }
      ],
      "name": "exitswapExternAmountOut",
      "outputs": [
        {
          "internalType": "uint256",
          "name": "poolAmountIn",
          "type": "uint256"
        }
      ],
      "stateMutability": "nonpayable",
      "type": "function"
    },
    {
      "inputs": [
        {
          "internalType": "address",
          "name": "tokenOut",
          "type": "address"
        },
        {
          "internalType": "uint256",
          "name": "poolAmountIn",
          "type": "uint256"
        },
        {
          "internalType": "uint256",
          "name": "minAmountOut",
          "type": "uint256"
        }
      ],
      "name": "exitswapPoolAmountIn",
      "outputs": [
        {
          "internalType": "uint256",
          "name": "tokenAmountOut",
          "type": "uint256"
        }
      ],
      "stateMutability": "nonpayable",
      "type": "function"
    },
    {
      "inputs": [
        {
          "internalType": "address",
          "name": "tokenIn",
          "type": "address"
        },
        {
          "internalType": "address",
          "name": "tokenOut",
          "type": "address"
        },
        {
          "internalType": "uint256",
          "name": "tokenAmountOut",
          "type": "uint256"
        }
      ],
      "name": "getAmountInExactOut",
      "outputs": [
        {
          "internalType": "uint256",
          "name": "tokenAmountIn",
          "type": "uint256"
        }
      ],
      "stateMutability": "view",
      "type": "function"
    },
    {
      "inputs": [
        {
          "internalType": "address",
          "name": "tokenIn",
          "type": "address"
        },
        {
          "internalType": "address",
          "name": "tokenOut",
          "type": "address"
        },
        {
          "internalType": "uint256",
          "name": "tokenAmountIn",
          "type": "uint256"
        }
      ],
      "name": "getAmountOutExactIn",
      "outputs": [
        {
          "internalType": "uint256",
          "name": "tokenAmountOut",
          "type": "uint256"
        }
      ],
      "stateMutability": "view",
      "type": "function"
    },
    {
      "inputs": [
        {
          "internalType": "address",
          "name": "token",
          "type": "address"
        }
      ],
      "name": "getBalance",
      "outputs": [
        {
          "internalType": "uint256",
          "name": "",
          "type": "uint256"
        }
      ],
      "stateMutability": "view",
      "type": "function"
    },
    {
      "inputs": [],
      "name": "getBaseTokenAddress",
      "outputs": [
        {
          "internalType": "address",
          "name": "",
          "type": "address"
        }
      ],
      "stateMutability": "view",
      "type": "function"
    },
    {
      "inputs": [],
      "name": "getController",
      "outputs": [
        {
          "internalType": "address",
          "name": "",
          "type": "address"
        }
      ],
      "stateMutability": "view",
      "type": "function"
    },
    {
      "inputs": [],
      "name": "getCurrentTokens",
      "outputs": [
        {
          "internalType": "address[]",
          "name": "tokens",
          "type": "address[]"
        }
      ],
      "stateMutability": "view",
      "type": "function"
    },
    {
      "inputs": [],
      "name": "getDataTokenAddress",
      "outputs": [
        {
          "internalType": "address",
          "name": "",
          "type": "address"
        }
      ],
      "stateMutability": "view",
      "type": "function"
    },
    {
      "inputs": [
        {
          "internalType": "address",
          "name": "token",
          "type": "address"
        }
      ],
      "name": "getDenormalizedWeight",
      "outputs": [
        {
          "internalType": "uint256",
          "name": "",
          "type": "uint256"
        }
      ],
      "stateMutability": "view",
      "type": "function"
    },
    {
      "inputs": [],
      "name": "getFinalTokens",
      "outputs": [
        {
          "internalType": "address[]",
          "name": "tokens",
          "type": "address[]"
        }
      ],
      "stateMutability": "view",
      "type": "function"
    },
    {
      "inputs": [
        {
          "internalType": "address",
          "name": "token",
          "type": "address"
        }
      ],
      "name": "getNormalizedWeight",
      "outputs": [
        {
          "internalType": "uint256",
          "name": "",
          "type": "uint256"
        }
      ],
      "stateMutability": "view",
      "type": "function"
    },
    {
      "inputs": [],
      "name": "getNumTokens",
      "outputs": [
        {
          "internalType": "uint256",
          "name": "",
          "type": "uint256"
        }
      ],
      "stateMutability": "view",
      "type": "function"
    },
    {
      "inputs": [],
      "name": "getOPFFee",
      "outputs": [
        {
          "internalType": "uint256",
          "name": "",
          "type": "uint256"
        }
      ],
      "stateMutability": "view",
      "type": "function"
    },
    {
      "inputs": [
        {
          "internalType": "address",
          "name": "tokenIn",
          "type": "address"
        },
        {
          "internalType": "address",
          "name": "tokenOut",
          "type": "address"
        }
      ],
      "name": "getSpotPrice",
      "outputs": [
        {
          "internalType": "uint256",
          "name": "spotPrice",
          "type": "uint256"
        }
      ],
      "stateMutability": "view",
      "type": "function"
    },
    {
      "inputs": [],
      "name": "getSwapFee",
      "outputs": [
        {
          "internalType": "uint256",
          "name": "",
          "type": "uint256"
        }
      ],
      "stateMutability": "view",
      "type": "function"
    },
    {
      "inputs": [],
      "name": "getTotalDenormalizedWeight",
      "outputs": [
        {
          "internalType": "uint256",
          "name": "",
          "type": "uint256"
        }
      ],
      "stateMutability": "view",
      "type": "function"
    },
    {
      "inputs": [
        {
          "internalType": "address",
          "name": "dst",
          "type": "address"
        },
        {
          "internalType": "uint256",
          "name": "amt",
          "type": "uint256"
        }
      ],
      "name": "increaseApproval",
      "outputs": [
        {
          "internalType": "bool",
          "name": "",
          "type": "bool"
        }
      ],
      "stateMutability": "nonpayable",
      "type": "function"
    },
    {
      "inputs": [
        {
          "internalType": "address",
          "name": "controller",
          "type": "address"
        },
        {
          "internalType": "address",
          "name": "factory",
          "type": "address"
        },
        {
          "internalType": "uint256[]",
          "name": "swapFees",
          "type": "uint256[]"
        },
        {
          "internalType": "bool",
          "name": "publicSwap",
          "type": "bool"
        },
        {
          "internalType": "bool",
          "name": "finalized",
          "type": "bool"
        },
        {
          "internalType": "address[2]",
          "name": "tokens",
          "type": "address[2]"
        },
        {
          "internalType": "address[2]",
          "name": "feeCollectors",
          "type": "address[2]"
        }
      ],
      "name": "initialize",
      "outputs": [
        {
          "internalType": "bool",
          "name": "",
          "type": "bool"
        }
      ],
      "stateMutability": "nonpayable",
      "type": "function"
    },
    {
      "inputs": [
        {
          "internalType": "address",
          "name": "t",
          "type": "address"
        }
      ],
      "name": "isBound",
      "outputs": [
        {
          "internalType": "bool",
          "name": "",
          "type": "bool"
        }
      ],
      "stateMutability": "view",
      "type": "function"
    },
    {
      "inputs": [],
      "name": "isFinalized",
      "outputs": [
        {
          "internalType": "bool",
          "name": "",
          "type": "bool"
        }
      ],
      "stateMutability": "view",
      "type": "function"
    },
    {
      "inputs": [],
      "name": "isInitialized",
      "outputs": [
        {
          "internalType": "bool",
          "name": "",
          "type": "bool"
        }
      ],
      "stateMutability": "view",
      "type": "function"
    },
    {
      "inputs": [],
      "name": "isPublicSwap",
      "outputs": [
        {
          "internalType": "bool",
          "name": "",
          "type": "bool"
        }
      ],
      "stateMutability": "view",
      "type": "function"
    },
    {
      "inputs": [
        {
          "internalType": "uint256",
          "name": "poolAmountOut",
          "type": "uint256"
        },
        {
          "internalType": "uint256[]",
          "name": "maxAmountsIn",
          "type": "uint256[]"
        }
      ],
      "name": "joinPool",
      "outputs": [],
      "stateMutability": "nonpayable",
      "type": "function"
    },
    {
      "inputs": [
        {
          "internalType": "address",
          "name": "tokenIn",
          "type": "address"
        },
        {
          "internalType": "uint256",
          "name": "tokenAmountIn",
          "type": "uint256"
        },
        {
          "internalType": "uint256",
          "name": "minPoolAmountOut",
          "type": "uint256"
        }
      ],
      "name": "joinswapExternAmountIn",
      "outputs": [
        {
          "internalType": "uint256",
          "name": "poolAmountOut",
          "type": "uint256"
        }
      ],
      "stateMutability": "nonpayable",
      "type": "function"
    },
    {
      "inputs": [
        {
          "internalType": "address",
          "name": "tokenIn",
          "type": "address"
        },
        {
          "internalType": "uint256",
          "name": "poolAmountOut",
          "type": "uint256"
        },
        {
          "internalType": "uint256",
          "name": "maxAmountIn",
          "type": "uint256"
        }
      ],
      "name": "joinswapPoolAmountOut",
      "outputs": [
        {
          "internalType": "uint256",
          "name": "tokenAmountIn",
          "type": "uint256"
        }
      ],
      "stateMutability": "nonpayable",
      "type": "function"
    },
    {
      "inputs": [
        {
          "internalType": "address",
          "name": "",
          "type": "address"
        }
      ],
      "name": "marketFees",
      "outputs": [
        {
          "internalType": "uint256",
          "name": "",
          "type": "uint256"
        }
      ],
      "stateMutability": "view",
      "type": "function"
    },
    {
      "inputs": [],
      "name": "name",
      "outputs": [
        {
          "internalType": "string",
          "name": "",
          "type": "string"
        }
      ],
      "stateMutability": "view",
      "type": "function"
    },
    {
      "inputs": [
        {
          "internalType": "uint256",
          "name": "swapFee",
          "type": "uint256"
        }
      ],
      "name": "setSwapFee",
      "outputs": [],
      "stateMutability": "nonpayable",
      "type": "function"
    },
    {
      "inputs": [
        {
          "internalType": "address",
          "name": "dataTokenAddress",
          "type": "address"
        },
        {
          "internalType": "uint256",
          "name": "dataTokenAmount",
          "type": "uint256"
        },
        {
          "internalType": "uint256",
          "name": "dataTokenWeight",
          "type": "uint256"
        },
        {
          "internalType": "address",
          "name": "baseTokenAddress",
          "type": "address"
        },
        {
          "internalType": "uint256",
          "name": "baseTokenAmount",
          "type": "uint256"
        },
        {
          "internalType": "uint256",
          "name": "baseTokenWeight",
          "type": "uint256"
        }
      ],
      "name": "setup",
      "outputs": [],
      "stateMutability": "nonpayable",
      "type": "function"
    },
    {
      "inputs": [
        {
          "internalType": "address",
          "name": "tokenIn",
          "type": "address"
        },
        {
          "internalType": "uint256",
          "name": "tokenAmountIn",
          "type": "uint256"
        },
        {
          "internalType": "address",
          "name": "tokenOut",
          "type": "address"
        },
        {
          "internalType": "uint256",
          "name": "minAmountOut",
          "type": "uint256"
        },
        {
          "internalType": "uint256",
          "name": "maxPrice",
          "type": "uint256"
        }
      ],
      "name": "swapExactAmountIn",
      "outputs": [
        {
          "internalType": "uint256",
          "name": "tokenAmountOut",
          "type": "uint256"
        },
        {
          "internalType": "uint256",
          "name": "spotPriceAfter",
          "type": "uint256"
        }
      ],
      "stateMutability": "nonpayable",
      "type": "function"
    },
    {
      "inputs": [
        {
          "internalType": "address",
          "name": "tokenIn",
          "type": "address"
        },
        {
          "internalType": "uint256",
          "name": "maxAmountIn",
          "type": "uint256"
        },
        {
          "internalType": "address",
          "name": "tokenOut",
          "type": "address"
        },
        {
          "internalType": "uint256",
          "name": "tokenAmountOut",
          "type": "uint256"
        },
        {
          "internalType": "uint256",
          "name": "maxPrice",
          "type": "uint256"
        }
      ],
      "name": "swapExactAmountOut",
      "outputs": [
        {
          "internalType": "uint256",
          "name": "tokenAmountIn",
          "type": "uint256"
        },
        {
          "internalType": "uint256",
          "name": "spotPriceAfter",
          "type": "uint256"
        }
      ],
      "stateMutability": "nonpayable",
      "type": "function"
    },
    {
      "inputs": [],
      "name": "symbol",
      "outputs": [
        {
          "internalType": "string",
          "name": "",
          "type": "string"
        }
      ],
      "stateMutability": "view",
      "type": "function"
    },
    {
      "inputs": [],
      "name": "totalSupply",
      "outputs": [
        {
          "internalType": "uint256",
          "name": "",
          "type": "uint256"
        }
      ],
      "stateMutability": "view",
      "type": "function"
    },
    {
      "inputs": [
        {
          "internalType": "address",
          "name": "dst",
          "type": "address"
        },
        {
          "internalType": "uint256",
          "name": "amt",
          "type": "uint256"
        }
      ],
      "name": "transfer",
      "outputs": [
        {
          "internalType": "bool",
          "name": "",
          "type": "bool"
        }
      ],
      "stateMutability": "nonpayable",
      "type": "function"
    },
    {
      "inputs": [
        {
          "internalType": "address",
          "name": "src",
          "type": "address"
        },
        {
          "internalType": "address",
          "name": "dst",
          "type": "address"
        },
        {
          "internalType": "uint256",
          "name": "amt",
          "type": "uint256"
        }
      ],
      "name": "transferFrom",
      "outputs": [
        {
          "internalType": "bool",
          "name": "",
          "type": "bool"
        }
      ],
      "stateMutability": "nonpayable",
      "type": "function"
    },
    {
      "inputs": [
        {
          "internalType": "address",
          "name": "_newCollector",
          "type": "address"
        }
      ],
      "name": "updateMarketFeeCollector",
      "outputs": [],
      "stateMutability": "nonpayable",
      "type": "function"
    }
  ],
  "bytecode": "0x60c0604052601360808190527f42616c616e63657220506f6f6c20546f6b656e0000000000000000000000000060a09081526200004091600a91906200008f565b506040805180820190915260038082526210941560ea1b60209092019182526200006d91600b916200008f565b50600c805460ff191660121790553480156200008857600080fd5b5062000172565b8280546200009d9062000135565b90600052602060002090601f016020900481019282620000c157600085556200010c565b82601f10620000dc57805160ff19168380011785556200010c565b828001600101855582156200010c579182015b828111156200010c578251825591602001919060010190620000ef565b506200011a9291506200011e565b5090565b5b808211156200011a57600081556001016200011f565b600181811c908216806200014a57607f821691505b602082108114156200016c57634e487b7160e01b600052602260045260246000fd5b50919050565b61553f80620001826000396000f3fe608060405234801561001057600080fd5b50600436106103db5760003560e01c80638201aa3f1161020a578063be3bbd2e11610125578063dd62ed3e116100b8578063f1b8a9b711610087578063f1b8a9b7146107fd578063f68045a514610810578063f8b2cb4f14610818578063fbb9dd501461082b578063fde924f71461083e57600080fd5b8063dd62ed3e146107a9578063e4a28a5214610463578063ec093021146107e2578063f0f13f0b146107ea57600080fd5b8063cc77828d116100f4578063cc77828d1461077e578063cd2ed8fb14610786578063d4cadf681461078e578063d73dd6231461079657600080fd5b8063be3bbd2e1461074e578063c070a6d814610763578063c36596a6146104a3578063c6580d121461077657600080fd5b8063a562ddf01161019d578063b7b800a41161016c578063b7b800a41461072e578063ba019dab14610736578063bc063e1a1461073e578063bc694ea21461074657600080fd5b8063a562ddf0146106f5578063a9059cbb14610708578063b02f0b731461071b578063b0e0d1361461072e57600080fd5b80639381cd2b116101d95780639381cd2b146106ca578063948d8ce6146106d257806395d89b41146106e5578063992e2a92146106ed57600080fd5b80638201aa3f14610695578063867378c5146106a85780638d4e4083146106b0578063936c3477146106c257600080fd5b806331e2761b116102fa5780635db342771161028d578063703305181161025c578063703305181461062957806370a082311461063c57806376c7a3c7146106655780637c5e9ea41461066d57600080fd5b80635db34277146105e857806366188463146105fb5780636d06dfa01461060e578063700dd7e81461062157600080fd5b806346ab38f1116102c957806346ab38f1146105a857806349e9350f146105bb5780634df947d0146105c45780634f69c0d4146105d557600080fd5b806331e2761b1461055057806334e1990714610570578063380376a614610583578063392e53cd1461059657600080fd5b8063189d00ca116103725780632f37b624116103415780632f37b624146104d857806330062192146105045780633018205f14610524578063313ce5671461053b57600080fd5b8063189d00ca1461049b578063218b5382146104a357806323b872dd146104b25780632ea07d8a146104c557600080fd5b806309a3bbe4116103ae57806309a3bbe41461046357806309ef3f5b1461046b57806315e84af91461048057806318160ddd1461049357600080fd5b806302c96748146103e057806304ad79541461040657806306fdde031461042b578063095ea7b314610440575b600080fd5b6103f36103ee36600461503f565b610850565b6040519081526020015b60405180910390f35b6003546001600160a01b03165b6040516001600160a01b0390911681526020016103fd565b610433610ccc565b6040516103fd91906151d6565b61045361044e366004614fc7565b610d5e565b60405190151581526020016103fd565b6103f3610db9565b61047e610479366004615072565b610dcf565b005b6103f361048e366004614eab565b610f6e565b6009546103f3565b6103f3611052565b6103f3670de0b6b3a764000081565b6104536104c0366004614f8b565b611069565b6103f36104d3366004614f8b565b6111bd565b6104536104e6366004614e90565b6001600160a01b031660009081526010602052604090205460ff1690565b6103f3610512366004614e90565b60056020526000908152604090205481565b600c546201000090046001600160a01b0316610413565b600c5460405160ff90911681526020016103fd565b6103f361055e366004614e90565b60066020526000908152604090205481565b61047e61057e3660046150e7565b611278565b6103f3610591366004614f8b565b6113c1565b601254600160a01b900460ff16610453565b6103f36105b636600461503f565b611472565b6103f360005481565b6004546001600160a01b0316610413565b61047e6105e3366004615119565b611869565b6103f36105f636600461503f565b611a90565b610453610609366004614fc7565b611e9b565b6103f361061c36600461503f565b611f71565b6103f3612360565b61047e610637366004614e90565b6123e9565b6103f361064a366004614e90565b6001600160a01b031660009081526007602052604090205490565b6103f361245d565b61068061067b366004614ff1565b612472565b604080519283526020830191909152016103fd565b6106806106a3366004614ff1565b6127c3565b6103f3612af8565b600e54600160a01b900460ff16610453565b6103f3612b0f565b6103f3612b41565b6103f36106e0366004614e90565b612b54565b610433612bda565b6103f3612be9565b600d54610413906001600160a01b031681565b610453610716366004614fc7565b612c07565b61047e610729366004615119565b612c1d565b6103f3600281565b6103f3600181565b6103f3612e58565b6103f3612e6b565b610756612e8a565b6040516103fd9190615189565b610453610771366004614ede565b612f3d565b6103f3600081565b6107566131ad565b600f546103f3565b6001546103f3565b6104536107a4366004614fc7565b6131d8565b6103f36107b7366004614eab565b6001600160a01b03918216600090815260086020908152604080832093909416825291909152205490565b6103f361324b565b600e54610413906001600160a01b031681565b6103f361080b366004614e90565b61325e565b61047e6132f2565b6103f3610826366004614e90565b61344c565b61047e610839366004614e90565b6134ce565b600c54600160b01b900460ff16610453565b600c54600090610100900460ff16156108845760405162461bcd60e51b815260040161087b906152cb565b60405180910390fd5b600c805461ff001916610100179055600e54600160a01b900460ff166108bc5760405162461bcd60e51b815260040161087b90615342565b6001600160a01b03841660009081526010602052604090205460ff166108f45760405162461bcd60e51b815260040161087b9061531b565b6001600160a01b03841660009081526010602052604090206003908101546109389161092890670de0b6b3a7640000615385565b61093390600161536d565b613679565b8311156109575760405162461bcd60e51b815260040161087b906152f0565b6003546001600160a01b039081166000818152601060205260408120909290919087161415610993576004546001600160a01b031691506109b8565b50506003546004546001600160a01b0390811660009081526010602052604090209116905b6001600160a01b0386166000908152601060205260409020600381015460028201546009546011546109ed939291908a613754565b935083610a0c5760405162461bcd60e51b815260040161087b90615255565b84841115610a2c5760405162461bcd60e51b815260040161087b906152a5565b610a3a816003015487613818565b60038201556000610a4b8582613679565b604080518981524260208201529192506001600160a01b038a1691339160008051602061548a833981519152910160405180910390a36040518581526000805160206154aa8339815191529060200160405180910390a1610aac3386613875565b610abe610ab98683613818565b61387f565b600254610ad4906001600160a01b03168261388b565b610adf883389613895565b6000610afa846003015485600201546009546011548a613963565b60125460035460405163efd4810360e01b81529293506001600160a01b039182169263efd4810392610b3492169089908690600401615165565b60206040518083038186803b158015610b4c57600080fd5b505afa158015610b60573d6000803e3d6000fd5b505050506040513d601f19601f82011682018060405250810190610b8491906150ca565b151560011415610cb557610b9c846003015482613818565b6003850155610bac866000613679565b600c54604080518481524260208201529294506001600160a01b038881169362010000909304169160008051602061548a833981519152910160405180910390a3600c54610c09906201000090046001600160a01b031687613875565b610c16610ab98784613818565b600254610c2c906001600160a01b03168361388b565b600c54610c4a9086906201000090046001600160a01b031683613895565b60125460035460405163679346f560e11b81526001600160a01b039283169263cf268dea92610c829291169089908690600401615165565b600060405180830381600087803b158015610c9c57600080fd5b505af1158015610cb0573d6000803e3d6000fd5b505050505b5050505050600c805461ff00191690559392505050565b6060600a8054610cdb906153cf565b80601f0160208091040260200160405190810160405280929190818152602001828054610d07906153cf565b8015610d545780601f10610d2957610100808354040283529160200191610d54565b820191906000526020600020905b815481529060010190602001808311610d3757829003601f168201915b5050505050905090565b3360008181526008602090815260408083206001600160a01b038716808552925280832085905551919290916000805160206154ea83398151915290610da79086815260200190565b60405180910390a35060015b92915050565b610dcc670de0b6b3a76400006032615399565b81565b600c546201000090046001600160a01b03163314610e285760405162461bcd60e51b815260206004820152601660248201527522a9292fa4a72b20a624a22fa1a7a72a2927a62622a960511b604482015260640161087b565b6003546001600160a01b03878116911614610e855760405162461bcd60e51b815260206004820152601d60248201527f4552525f494e56414c49445f44415441544f4b454e5f41444452455353000000604482015260640161087b565b6004546001600160a01b03848116911614610ee25760405162461bcd60e51b815260206004820152601d60248201527f4552525f494e56414c49445f42415345544f4b454e5f41444452455353000000604482015260640161087b565b610eed868686613a2d565b604080518681524260208201526001600160a01b0388169133916000805160206154ca833981519152910160405180910390a3610f2b838383613a2d565b604080518381524260208201526001600160a01b0385169133916000805160206154ca833981519152910160405180910390a3610f66613c17565b505050505050565b600c54600090610100900460ff1615610f995760405162461bcd60e51b815260040161087b906152cb565b6001600160a01b03831660009081526010602052604090205460ff16610fd15760405162461bcd60e51b815260040161087b9061531b565b6001600160a01b03821660009081526010602052604090205460ff166110095760405162461bcd60e51b815260040161087b9061531b565b6001600160a01b03808416600090815260106020526040808220928516825290206003808301546002808501549284015490840154611049939190613c76565b95945050505050565b610dcc6402540be400670de0b6b3a7640000615385565b6000336001600160a01b03851614806110a557506001600160a01b03841660009081526008602090815260408083203384529091529020548211155b6110e95760405162461bcd60e51b815260206004820152601560248201527422a9292fa12a27a5a2a72fa120a22fa1a0a62622a960591b604482015260640161087b565b6110f4848484613ccf565b336001600160a01b0385161480159061113257506001600160a01b038416600090815260086020908152604080832033845290915290205460001914155b156111b3576001600160a01b03841660009081526008602090815260408083203384529091529020546111659083613818565b6001600160a01b0385811660009081526008602090815260408083203380855290835292819020859055519384529186169290916000805160206154ea833981519152910160405180910390a35b5060019392505050565b6001600160a01b03831660009081526010602052604081205460ff166111f55760405162461bcd60e51b815260040161087b9061531b565b6001600160a01b03831660009081526010602052604090205460ff1661122d5760405162461bcd60e51b815260040161087b9061531b565b6001600160a01b0380851660009081526010602052604080822092861682529020600380830154600280850154928401549084015461126e93919088613de1565b9695505050505050565b600e54600160a01b900460ff16156112c55760405162461bcd60e51b815260206004820152601060248201526f11549497d254d7d1925390531256915160821b604482015260640161087b565b600c546201000090046001600160a01b0316331461131a5760405162461bcd60e51b815260206004820152601260248201527122a9292fa727aa2fa1a7a72a2927a62622a960711b604482015260640161087b565b61132f620f4240670de0b6b3a7640000615385565b81101561136c5760405162461bcd60e51b815260206004820152600b60248201526a4552525f4d494e5f46454560a81b604482015260640161087b565b61137f600a670de0b6b3a7640000615385565b8111156113bc5760405162461bcd60e51b815260206004820152600b60248201526a4552525f4d41585f46454560a81b604482015260640161087b565b600155565b6001600160a01b03831660009081526010602052604081205460ff166113f95760405162461bcd60e51b815260040161087b9061531b565b6001600160a01b03831660009081526010602052604090205460ff166114315760405162461bcd60e51b815260040161087b9061531b565b6001600160a01b0380851660009081526010602052604080822092861682529020600380830154600280850154928401549084015461126e93919088613e89565b600c54600090610100900460ff161561149d5760405162461bcd60e51b815260040161087b906152cb565b600c805461ff001916610100179055600e54600160a01b900460ff166114d55760405162461bcd60e51b815260040161087b90615342565b6001600160a01b03841660009081526010602052604090205460ff1661150d5760405162461bcd60e51b815260040161087b9061531b565b6001600160a01b0384166000908152601060205260409020600381015460028201546009546011546115429392919088613963565b9150828210156115645760405162461bcd60e51b815260040161087b9061527e565b6001600160a01b03851660009081526010602052604090206003908101546115989161092890670de0b6b3a7640000615385565b8211156115b75760405162461bcd60e51b815260040161087b906152f0565b6003546001600160a01b0390811660008181526010602052604081209092909190881614156115f3576004546001600160a01b03169150611618565b50506003546004546001600160a01b0390811660009081526010602052604090209116905b611626836003015485613818565b600384015560006116378782613679565b604080518781524260208201529192506001600160a01b038a1691339160008051602061548a833981519152910160405180910390a36040518781526000805160206154aa8339815191529060200160405180910390a16116983388613875565b6116a5610ab98883613818565b6002546116bb906001600160a01b03168261388b565b6116c6883387613895565b60006116e1836003015484600201546009546011548c613963565b60125460035460405163efd4810360e01b81529293506001600160a01b039182169263efd481039261171b92169088908d90600401615165565b60206040518083038186803b15801561173357600080fd5b505afa158015611747573d6000803e3d6000fd5b505050506040513d601f19601f8201168201806040525081019061176b91906150ca565b151560011415610cb557611783836003015482613818565b6003840155611793886000613679565b600c54604080518481524260208201529294506001600160a01b038781169362010000909304169160008051602061548a833981519152910160405180910390a3600c546117f0906201000090046001600160a01b031689613875565b6117fd610ab98984613818565b600254611813906001600160a01b03168361388b565b600c546118319085906201000090046001600160a01b031683613895565b60125460035460405163679346f560e11b81526001600160a01b039283169263cf268dea92610c829291169088908690600401615165565b600c54610100900460ff16156118915760405162461bcd60e51b815260040161087b906152cb565b600c805461ff001916610100179055600e54600160a01b900460ff166118c95760405162461bcd60e51b815260040161087b90615342565b60006118d460095490565b905060006118e28583613f52565b9050806119015760405162461bcd60e51b815260040161087b90615255565b60005b600f54811015611a49576000600f828154811061192357611923615465565b60009182526020808320909101546001600160a01b031680835260109091526040822060030154909250906119588583613679565b9050806119775760405162461bcd60e51b815260040161087b90615255565b87878581811061198957611989615465565b905060200201358111156119af5760405162461bcd60e51b815260040161087b906152a5565b6001600160a01b0383166000908152601060205260409020600301546119d5908261406a565b6001600160a01b0384166000818152601060205260409081902060030192909255905133906000805160206154ca83398151915290611a209085904290918252602082015260400190565b60405180910390a3611a338333836140bc565b5050508080611a419061540a565b915050611904565b50611a53856140ef565b611a5d338661388b565b6040518581526000805160206154aa8339815191529060200160405180910390a15050600c805461ff0019169055505050565b600c54600090610100900460ff1615611abb5760405162461bcd60e51b815260040161087b906152cb565b600c805461ff001916610100179055600e54600160a01b900460ff16611af35760405162461bcd60e51b815260040161087b90615342565b6001600160a01b03841660009081526010602052604090205460ff16611b2b5760405162461bcd60e51b815260040161087b9061531b565b6001600160a01b038416600090815260106020526040902060030154611b5e906109336002670de0b6b3a7640000615385565b831115611b7d5760405162461bcd60e51b815260040161087b9061522b565b6003546001600160a01b0390811660008181526010602052604081209290919087161415611bb757506004546001600160a01b0316611bdc565b50506004546001600160a01b0390811660009081526010602052604090206003549091165b6001600160a01b038616600090815260106020526040902060038101546002820154600954601154611c11939291908a6140f8565b935084841015611c335760405162461bcd60e51b815260040161087b9061527e565b611c4181600301548761406a565b6003820155604080518781524260208201526001600160a01b0389169133916000805160206154ca833981519152910160405180910390a36040518481526000805160206154aa8339815191529060200160405180910390a1611ca3846140ef565b611cad338561388b565b611cb88733886140bc565b6000611cd3846003015485600201546009546011548961418d565b6012546003546040516326b1f01f60e01b81529293506001600160a01b03918216926326b1f01f92611d0d92169087908690600401615165565b60206040518083038186803b158015611d2557600080fd5b505afa158015611d39573d6000803e3d6000fd5b505050506040513d601f19601f82011682018060405250810190611d5d91906150ca565b151560011415611e85576012546003546040516399039fcf60e01b81526001600160a01b03928316926399039fcf92611d9f9291169087908690600401615165565b600060405180830381600087803b158015611db957600080fd5b505af1158015611dcd573d6000803e3d6000fd5b50505050611ddf84600301548261406a565b6003850155600c54604080518381524260208201526001600160a01b038681169362010000900416916000805160206154ca833981519152910160405180910390a36040518581526000805160206154aa8339815191529060200160405180910390a1611e4b856140ef565b600c54611e67906201000090046001600160a01b03168661388b565b600c54611e859084906201000090046001600160a01b0316836140bc565b50505050600c805461ff00191690559392505050565b3360009081526008602090815260408083206001600160a01b038616845290915281205480831115611ef0573360009081526008602090815260408083206001600160a01b0388168452909152812055611f1f565b611efa8184613818565b3360009081526008602090815260408083206001600160a01b03891684529091529020555b3360008181526008602090815260408083206001600160a01b038916808552908352928190205490519081529192916000805160206154ea833981519152910160405180910390a35060019392505050565b600c54600090610100900460ff1615611f9c5760405162461bcd60e51b815260040161087b906152cb565b600c805461ff001916610100179055600e54600160a01b900460ff16611fd45760405162461bcd60e51b815260040161087b90615342565b6001600160a01b03841660009081526010602052604090205460ff1661200c5760405162461bcd60e51b815260040161087b9061531b565b6001600160a01b038416600090815260106020526040902060038101546002820154600954601154612041939291908861418d565b6003546001600160a01b039081166000818152601060205260408120939550918816141561207b57506004546001600160a01b03166120a0565b50506004546001600160a01b0390811660009081526010602052604090206003549091165b836120bd5760405162461bcd60e51b815260040161087b90615255565b848411156120dd5760405162461bcd60e51b815260040161087b906152a5565b6001600160a01b038716600090815260106020526040902060030154612110906109336002670de0b6b3a7640000615385565b84111561212f5760405162461bcd60e51b815260040161087b9061522b565b61213d83600301548561406a565b6003840155604080518581524260208201526001600160a01b0389169133916000805160206154ca833981519152910160405180910390a36040518681526000805160206154aa8339815191529060200160405180910390a161219f866140ef565b6121a9338761388b565b6121b48733866140bc565b60006121cf836003015484600201546009546011548b61418d565b6012546003546040516326b1f01f60e01b81529293506001600160a01b03918216926326b1f01f9261220992169086908690600401615165565b60206040518083038186803b15801561222157600080fd5b505afa158015612235573d6000803e3d6000fd5b505050506040513d601f19601f8201168201806040525081019061225991906150ca565b151560011415611e85576012546003546040516399039fcf60e01b81526001600160a01b03928316926399039fcf9261229b9291169086908690600401615165565b600060405180830381600087803b1580156122b557600080fd5b505af11580156122c9573d6000803e3d6000fd5b505050506122db83600301548261406a565b6003840155600c54604080518381524260208201526001600160a01b038581169362010000900416916000805160206154ca833981519152910160405180910390a3612326876140ef565b600c54612342906201000090046001600160a01b03168861388b565b600c54611e859083906201000090046001600160a01b0316836140bc565b60025460048054604051637c0aa57760e11b81526001600160a01b0391821692810192909252600092169063f8154aee9060240160206040518083038186803b1580156123ac57600080fd5b505afa1580156123c0573d6000803e3d6000fd5b505050506040513d601f19601f820116820180604052508101906123e49190615100565b905090565b600d546001600160a01b0316331461243b5760405162461bcd60e51b815260206004820152601560248201527427a7262c9026a0a925a2aa1021a7a62622a1aa27a960591b604482015260640161087b565b600d80546001600160a01b0319166001600160a01b0392909216919091179055565b610dcc620f4240670de0b6b3a7640000615385565b600c546000908190610100900460ff161561249f5760405162461bcd60e51b815260040161087b906152cb565b600c805461ff001916610100179055600e54600160a01b900460ff166124d75760405162461bcd60e51b815260040161087b90615342565b6001600160a01b03871660009081526010602052604090205460ff1661250f5760405162461bcd60e51b815260040161087b9061531b565b6001600160a01b03851660009081526010602052604090205460ff166125475760405162461bcd60e51b815260040161087b9061531b565b6001600160a01b03808816600090815260106020526040808220928816825290206003808201546125849161092890670de0b6b3a7640000615385565b8611156125a35760405162461bcd60e51b815260040161087b906152f0565b60006125c18360030154846002015484600301548560020154613c76565b9050858111156126095760405162461bcd60e51b81526020600482015260136024820152724552525f4241445f4c494d49545f505249434560681b604482015260640161087b565b60008060405180608001604052808660030154815260200186600201548152602001856003015481526020018560020154815250905061264a818a8e614227565b90975091508a87111561266f5760405162461bcd60e51b815260040161087b906152a5565b61267d85600301548361406a565b856003018190555061269384600301548a613818565b6003808601829055860154600280880154908701546126b29390613c76565b9550828610156126d45760405162461bcd60e51b815260040161087b90615255565b878611156127165760405162461bcd60e51b815260206004820152600f60248201526e4552525f4c494d49545f505249434560881b604482015260640161087b565b612720878a613f52565b83111561273f5760405162461bcd60e51b815260040161087b90615255565b60408051888152602081018b9052428183015290516001600160a01b038c811692908f169133917f50ef2fc267012b5c84b56835f16ffd5331ac5a151a3760d74908721ba78b0efe919081900360600190a461279c8c33896140bc565b6127a78a338b613895565b5050505050600c805461ff001916905590969095509350505050565b600c546000908190610100900460ff16156127f05760405162461bcd60e51b815260040161087b906152cb565b600c805461ff001916610100179055600e54600160a01b900460ff166128285760405162461bcd60e51b815260040161087b90615342565b6001600160a01b03871660009081526010602052604090205460ff166128605760405162461bcd60e51b815260040161087b9061531b565b6001600160a01b03851660009081526010602052604090205460ff166128985760405162461bcd60e51b815260040161087b9061531b565b6001600160a01b038088166000908152601060205260408082209288168252902060038201546128d5906109336002670de0b6b3a7640000615385565b8811156128f45760405162461bcd60e51b815260040161087b9061522b565b60006129128360030154846002015484600301548560020154613c76565b90508581111561295a5760405162461bcd60e51b81526020600482015260136024820152724552525f4241445f4c494d49545f505249434560681b604482015260640161087b565b60008060405180608001604052808660030154815260200186600201548152602001856003015481526020018560020154815250905061299b818c8e614445565b9097509150888710156129c05760405162461bcd60e51b815260040161087b9061527e565b6129ce85600301548361406a565b85600301819055506129e4846003015488613818565b600380860182905586015460028088015490870154612a039390613c76565b955082861015612a255760405162461bcd60e51b815260040161087b90615255565b87861115612a675760405162461bcd60e51b815260206004820152600f60248201526e4552525f4c494d49545f505249434560881b604482015260640161087b565b612a718b88613f52565b831115612a905760405162461bcd60e51b815260040161087b90615255565b604080518c815260208101899052428183015290516001600160a01b038c811692908f169133917f50ef2fc267012b5c84b56835f16ffd5331ac5a151a3760d74908721ba78b0efe919081900360600190a4612aed8c338d6140bc565b6127a78a3389613895565b610dcc64e8d4a51000670de0b6b3a7640000615385565b600c54600090610100900460ff1615612b3a5760405162461bcd60e51b815260040161087b906152cb565b5060115490565b610dcc670de0b6b3a76400006064615399565b600c54600090610100900460ff1615612b7f5760405162461bcd60e51b815260040161087b906152cb565b6001600160a01b03821660009081526010602052604090205460ff16612bb75760405162461bcd60e51b815260040161087b9061531b565b506001600160a01b0381166000908152601060205260409020600201545b919050565b6060600b8054610cdb906153cf565b612bfc6003670de0b6b3a7640000615385565b610dcc90600161536d565b6000612c14338484613ccf565b50600192915050565b600c54610100900460ff1615612c455760405162461bcd60e51b815260040161087b906152cb565b600c805461ff001916610100179055600e54600160a01b900460ff16612c7d5760405162461bcd60e51b815260040161087b90615342565b6000612c8860095490565b90506000612c97856000613679565b90506000612ca58683613818565b90506000612cb38285613f52565b905080612cd25760405162461bcd60e51b815260040161087b90615255565b612cdc3388613875565b600254612cf2906001600160a01b03168461388b565b612cfb8261387f565b60005b600f54811015612e43576000600f8281548110612d1d57612d1d615465565b60009182526020808320909101546001600160a01b03168083526010909152604082206003015490925090612d528583613679565b905080612d715760405162461bcd60e51b815260040161087b90615255565b898985818110612d8357612d83615465565b90506020020135811015612da95760405162461bcd60e51b815260040161087b9061527e565b6001600160a01b038316600090815260106020526040902060030154612dcf9082613818565b6001600160a01b03841660008181526010602052604090819020600301929092559051339060008051602061548a83398151915290612e1a9085904290918252602082015260400190565b60405180910390a3612e2d833383613895565b5050508080612e3b9061540a565b915050612cfe565b5050600c805461ff0019169055505050505050565b610dcc600a670de0b6b3a7640000615385565b6001612e80670de0b6b3a76400006002615399565b610dcc91906153b8565b600c54606090610100900460ff1615612eb55760405162461bcd60e51b815260040161087b906152cb565b600e54600160a01b900460ff16612ede5760405162461bcd60e51b815260040161087b90615342565b600f805480602002602001604051908101604052809291908181526020018280548015610d5457602002820191906000526020600020905b81546001600160a01b03168152600190910190602001808311612f16575050505050905090565b601254600090600160a01b900460ff1615612f9a5760405162461bcd60e51b815260206004820152601760248201527f4552525f414c52454144595f494e495449414c495a4544000000000000000000604482015260640161087b565b6001600160a01b038916612ff05760405162461bcd60e51b815260206004820152601e60248201527f4552525f494e56414c49445f434f4e54524f4c4c45525f414444524553530000604482015260640161087b565b6001600160a01b0388166130465760405162461bcd60e51b815260206004820152601b60248201527f4552525f494e56414c49445f464143544f52595f414444524553530000000000604482015260640161087b565b61305b620f4240670de0b6b3a7640000615385565b8787600081811061306e5761306e615465565b9050602002013510156130b15760405162461bcd60e51b815260206004820152600b60248201526a4552525f4d494e5f46454560a81b604482015260640161087b565b6130c4600a670de0b6b3a7640000615385565b878760008181106130d7576130d7615465565b90506020020135111561311a5760405162461bcd60e51b815260206004820152600b60248201526a4552525f4d41585f46454560a81b604482015260640161087b565b6131a08989898980806020026020016040519081016040528093929190818152602001838360200280828437600092019190915250506040805180820182528c93508b9250908a9060029083908390808284376000920191909152505060408051808201825291508a906002908390839080828437600092019190915250614643915050565b9998505050505050505050565b600c54606090610100900460ff1615612ede5760405162461bcd60e51b815260040161087b906152cb565b3360009081526008602090815260408083206001600160a01b0386168452909152812054613206908361406a565b3360008181526008602090815260408083206001600160a01b038916808552908352928190208590555193845290926000805160206154ea8339815191529101610da7565b610dcc6002670de0b6b3a7640000615385565b600c54600090610100900460ff16156132895760405162461bcd60e51b815260040161087b906152cb565b6001600160a01b03821660009081526010602052604090205460ff166132c15760405162461bcd60e51b815260040161087b9061531b565b6001600160a01b0382166000908152601060205260409020600201546011546132eb908290613f52565b9392505050565b60006132fc612e8a565b905060005b81518110156134485760006005600084848151811061332257613322615465565b60200260200101516001600160a01b03166001600160a01b0316815260200190815260200160002054905060006005600085858151811061336557613365615465565b60200260200101516001600160a01b03166001600160a01b03168152602001908152602001600020819055508282815181106133a3576133a3615465565b6020908102919091010151600e5460405163a9059cbb60e01b81526001600160a01b0391821660048201526024810184905291169063a9059cbb90604401602060405180830381600087803b1580156133fb57600080fd5b505af115801561340f573d6000803e3d6000fd5b505050506040513d601f19601f8201168201806040525081019061343391906150ca565b505080806134409061540a565b915050613301565b5050565b600c54600090610100900460ff16156134775760405162461bcd60e51b815260040161087b906152cb565b6001600160a01b03821660009081526010602052604090205460ff166134af5760405162461bcd60e51b815260040161087b9061531b565b506001600160a01b031660009081526010602052604090206003015490565b600d546001600160a01b031633146135205760405162461bcd60e51b815260206004820152601560248201527427a7262c9026a0a925a2aa1021a7a62622a1aa27a960591b604482015260640161087b565b600061352a612e8a565b905060005b81518110156136745760006006600084848151811061355057613550615465565b60200260200101516001600160a01b03166001600160a01b0316815260200190815260200160002054905060006006600085858151811061359357613593615465565b60200260200101516001600160a01b03166001600160a01b03168152602001908152602001600020819055508282815181106135d1576135d1615465565b602090810291909101015160405163a9059cbb60e01b81526001600160a01b038681166004830152602482018490529091169063a9059cbb90604401602060405180830381600087803b15801561362757600080fd5b505af115801561363b573d6000803e3d6000fd5b505050506040513d601f19601f8201168201806040525081019061365f91906150ca565b5050808061366c9061540a565b91505061352f565b505050565b6000806136868385615399565b905083158061369d57508261369b8583615385565b145b6136dc5760405162461bcd60e51b815260206004820152601060248201526f4552525f4d554c5f4f564552464c4f5760801b604482015260640161087b565b60006136f16002670de0b6b3a7640000615385565b6136fb908361536d565b9050818110156137405760405162461bcd60e51b815260206004820152601060248201526f4552525f4d554c5f4f564552464c4f5760801b604482015260640161087b565b600061126e670de0b6b3a764000083615385565b6000806137618685613f52565b90506000613777670de0b6b3a764000083613818565b9050600061378782600154613679565b905060006137a6866137a1670de0b6b3a764000085613818565b613f52565b905060006137b48b83613818565b905060006137c2828d613f52565b905060006137d08288614781565b905060006137de828d613679565b905060006137ec8d83613818565b9050613805816137a1670de0b6b3a76400006000613818565b9f9e505050505050505050505050505050565b600080600061382785856148ad565b91509150801561386d5760405162461bcd60e51b81526020600482015260116024820152704552525f5355425f554e444552464c4f5760781b604482015260640161087b565b509392505050565b61344882826148e4565b613888816148ef565b50565b61344882826149bb565b60405163a9059cbb60e01b81526001600160a01b038381166004830152602482018390526000919085169063a9059cbb906044015b602060405180830381600087803b1580156138e457600080fd5b505af11580156138f8573d6000803e3d6000fd5b505050506040513d601f19601f8201168201806040525081019061391c91906150ca565b90508061395d5760405162461bcd60e51b815260206004820152600f60248201526e4552525f45524332305f46414c534560881b604482015260640161087b565b50505050565b6000806139708685613f52565b9050600061398b84610933670de0b6b3a76400006000613818565b905060006139998783613818565b905060006139a78289613f52565b905060006139c6826139c1670de0b6b3a764000088613f52565b614781565b905060006139d4828d613679565b905060006139e28d83613818565b90506000613a036139fb670de0b6b3a76400008a613818565b600154613679565b9050613a1b82610933670de0b6b3a764000084613818565b9e9d5050505050505050505050505050565b600c546201000090046001600160a01b03163314613a825760405162461bcd60e51b815260206004820152601260248201527122a9292fa727aa2fa1a7a72a2927a62622a960711b604482015260640161087b565b6001600160a01b03831660009081526010602052604090205460ff1615613ada5760405162461bcd60e51b815260206004820152600c60248201526b11549497d254d7d093d5539160a21b604482015260640161087b565b600e54600160a01b900460ff1615613b275760405162461bcd60e51b815260206004820152601060248201526f11549497d254d7d1925390531256915160821b604482015260640161087b565b600f54600211613b6a5760405162461bcd60e51b815260206004820152600e60248201526d4552525f4d41585f544f4b454e5360901b604482015260640161087b565b604080516080810182526001808252600f805460208085019182526000858701818152606087018281526001600160a01b038c1680845260109094529782209651875460ff1916901515178755925186860155915160028601559451600390940193909355805491820181559091527f8d1108e10bcb7c27dddfc02ed9d693a074039d026cf4ea4240b40f7d581ac8020180546001600160a01b03191690911790556136748383836149c6565b600e805460ff60a01b1916600160a01b179055600c805460ff60b01b1916600160b01b179055613c58613c53670de0b6b3a76400006064615399565b6140ef565b613c7433613c6f670de0b6b3a76400006064615399565b61388b565b565b600080613c838686613f52565b90506000613c918585613f52565b90506000613c9f8383613f52565b90506000613cc3670de0b6b3a76400006137a1670de0b6b3a7640000600154613818565b90506131a08282613679565b6001600160a01b038316600090815260076020526040902054811115613d2e5760405162461bcd60e51b815260206004820152601460248201527311549497d25394d551919250d251539517d0905360621b604482015260640161087b565b6001600160a01b038316600090815260076020526040902054613d519082613818565b6001600160a01b038085166000908152600760205260408082209390935590841681522054613d80908261406a565b6001600160a01b0380841660008181526007602052604090819020939093559151908516907fddf252ad1be2c89b69c2b068fc378daa952ba7f163c4a11628f55a4df523b3ef90613dd49085815260200190565b60405180910390a3505050565b600080613dee8487613f52565b90506000613dfc8685613818565b90506000613e0a8783613f52565b90506000613e188285614781565b9050613e2c81670de0b6b3a7640000613818565b905060008054613e3a612360565b600154613e47919061536d565b613e51919061536d565b9050613e65670de0b6b3a764000082613818565b9550613e7a613e748c84613679565b87613f52565b9b9a5050505050505050505050565b600080613e968685613f52565b90506000613eae670de0b6b3a7640000600154613818565b9050613eba8482613679565b90506000613edb85610933670de0b6b3a7640000613ed6612360565b613818565b90506000613ef786610933670de0b6b3a7640000600054613818565b9050600081613f06848661536d565b613f10919061536d565b90506000613f228c6137a18e8561406a565b90506000613f308288614781565b90506000613f46670de0b6b3a764000083613818565b9050613a1b8c82613679565b600081613f905760405162461bcd60e51b815260206004820152600c60248201526b4552525f4449565f5a45524f60a01b604482015260640161087b565b6000613fa4670de0b6b3a764000085615399565b9050831580613fc35750670de0b6b3a7640000613fc18583615385565b145b6140025760405162461bcd60e51b815260206004820152601060248201526f11549497d1125597d25395115493905360821b604482015260640161087b565b600061400f600285615385565b614019908361536d565b90508181101561405e5760405162461bcd60e51b815260206004820152601060248201526f11549497d1125597d25395115493905360821b604482015260640161087b565b600061126e8583615385565b600080614077838561536d565b9050838110156132eb5760405162461bcd60e51b815260206004820152601060248201526f4552525f4144445f4f564552464c4f5760801b604482015260640161087b565b6040516323b872dd60e01b81526000906001600160a01b038516906323b872dd906138ca90869030908790600401615165565b61388881614c16565b6000806141058685613f52565b9050600061411e6139fb670de0b6b3a764000084613818565b9050600061413885610933670de0b6b3a764000085613818565b905060006141468a8361406a565b90506000614154828c613f52565b905060006141628287614781565b90506000614170828c613679565b905061417c818c613818565b9d9c50505050505050505050505050565b60008061419a8685613f52565b905060006141a8868561406a565b905060006141b68288613f52565b905060006141cc670de0b6b3a764000085613f52565b905060006141da8383614781565b905060006141e8828d613679565b905060006141f6828e613818565b9050600061420f6139fb670de0b6b3a76400008a613818565b9050613a1b826137a1670de0b6b3a764000084613818565b6000808061424486600360200201518760015b6020020151613f52565b90506000614259876002602002015187613818565b9050600061426e886002602002015183613f52565b9050600061427c8285614781565b905061429081670de0b6b3a7640000613818565b90506000805461429e612360565b6001546142ab919061536d565b6142b5919061536d565b8a519091506142da906142c89084613679565b6137a1670de0b6b3a764000084613818565b965060006142fa88613ed68a610933670de0b6b3a7640000613ed6612360565b6001600160a01b038a16600090815260056020526040902054909150614320908261406a565b600560008b6001600160a01b03166001600160a01b0316815260200190815260200160002081905550600061436789613ed68b610933670de0b6b3a7640000600054613818565b6001600160a01b038b1660009081526006602052604090205490915061438d908261406a565b6001600160a01b038b166000908152600660205260409020558b516143ca906143b69086613679565b6137a1670de0b6b3a7640000600154613818565b97507f90d9f1d0641138b6407ac37bea3a905d63a371c2d91a484f68d59924634d4ef36144098a613ed68c610933670de0b6b3a7640000600154613818565b604080519182526020820185905281018390526001600160a01b038c16606082015260800160405180910390a150505050505050935093915050565b6000808061445c866001602002015187600361423a565b9050600061447c86613ed688610933670de0b6b3a7640000613ed6612360565b6001600160a01b0386166000908152600560205260409020549091506144a2908261406a565b60056000876001600160a01b03166001600160a01b031681526020019081526020016000208190555060006144e987613ed689610933670de0b6b3a7640000600054613818565b6001600160a01b03871660009081526006602052604090205490915061450f908261406a565b6001600160a01b038716600090815260066020526040812091909155600154829061453b90859061536d565b614545919061536d565b90507f90d9f1d0641138b6407ac37bea3a905d63a371c2d91a484f68d59924634d4ef361458489613ed68b610933670de0b6b3a7640000600154613818565b604080519182526020820186905281018490526001600160a01b038916606082015260800160405180910390a160006145c5670de0b6b3a764000083613818565b90506145d18982613679565b8a519091506000906145e7906137a1818561406a565b905060006145f58288614781565b9050600061460b670de0b6b3a764000083613818565b905061461e8d6002602002015182613679565b99508961462f8d613ed6898b61536d565b995099505050505050505050935093915050565b600c805462010000600160b01b031916620100006001600160a01b038a81169190910291909117909155600280546001600160a01b03191691881691909117905584516000908690829061469957614699615465565b6020026020010151600181905550856001815181106146ba576146ba615465565b602090810291909101810151600055600c8054961515600160b01b0260ff60b01b199097169690961795869055600e80548551600380546001600160a01b039283166001600160a01b03199182161790915596840151600480549183169189169190911790558551600d805491831691891691909117905594909201518416951515600160a01b908102959095166001600160a81b0319928316179590951790945550601280549093166201000090940416929092178217908190550460ff169392505050565b600060018310156147cc5760405162461bcd60e51b81526020600482015260156024820152744552525f42504f575f424153455f544f4f5f4c4f5760581b604482015260640161087b565b60016147e1670de0b6b3a76400006002615399565b6147eb91906153b8565b8311156148335760405162461bcd60e51b815260206004820152601660248201527508aa4a4be84a09eaebe8482a68abea89e9ebe90928e960531b604482015260640161087b565b600061483e83614c85565b9050600061484c8483613818565b905060006148628661485d85614ca3565b614cb7565b905081614873579250610db3915050565b600061489687846148916402540be400670de0b6b3a7640000615385565b614d33565b90506148a28282613679565b979650505050505050565b6000808284106148cc576148c183856153b8565b6000915091506148dd565b6148d684846153b8565b6001915091505b9250929050565b613448823083613ccf565b306000908152600760205260409020548111156149455760405162461bcd60e51b815260206004820152601460248201527311549497d25394d551919250d251539517d0905360621b604482015260640161087b565b3060009081526007602052604090205461495f9082613818565b3060009081526007602052604090205560095461497c9082613818565b60095560405181815260009030907fddf252ad1be2c89b69c2b068fc378daa952ba7f163c4a11628f55a4df523b3ef906020015b60405180910390a350565b613448308383613ccf565b670de0b6b3a7640000811015614a0f5760405162461bcd60e51b815260206004820152600e60248201526d11549497d3525397d5d15251d21560921b604482015260640161087b565b614a22670de0b6b3a76400006032615399565b811115614a625760405162461bcd60e51b815260206004820152600e60248201526d11549497d3505617d5d15251d21560921b604482015260640161087b565b614a7964e8d4a51000670de0b6b3a7640000615385565b821015614aba5760405162461bcd60e51b815260206004820152600f60248201526e4552525f4d494e5f42414c414e434560881b604482015260640161087b565b6001600160a01b03831660009081526010602052604090206002015480821115614b5657614af3601154614aee8484613818565b61406a565b601155614b09670de0b6b3a76400006032615399565b6011541115614b515760405162461bcd60e51b815260206004820152601460248201527311549497d3505617d513d5105317d5d15251d21560621b604482015260640161087b565b614b72565b80821015614b7257614b6e601154613ed68385613818565b6011555b6001600160a01b03841660009081526010602052604090206002810183905560030180549084905580841115614bbb57614bb68533614bb18785613818565b6140bc565b614c0f565b80841015614c0f576000614bcf8286613818565b90506000614bde826000613679565b9050614bf48733614bef8585613818565b613895565b600254614c0c9088906001600160a01b031683613895565b50505b5050505050565b30600090815260076020526040902054614c30908261406a565b30600090815260076020526040902055600954614c4d908261406a565b60095560405181815230906000907fddf252ad1be2c89b69c2b068fc378daa952ba7f163c4a11628f55a4df523b3ef906020016149b0565b6000670de0b6b3a7640000614c9983614ca3565b610db39190615399565b6000610db3670de0b6b3a764000083615385565b60008281614cc6600285615425565b614cd857670de0b6b3a7640000614cda565b815b9050614ce7600285615385565b93505b8315614d2b57614cfa8283613679565b9150614d07600285615425565b15614d1957614d168183613679565b90505b614d24600285615385565b9350614cea565b949350505050565b6000828180614d4a87670de0b6b3a76400006148ad565b9092509050670de0b6b3a764000080600060015b888410614e14576000614d79670de0b6b3a764000083615399565b9050600080614d998a614d9485670de0b6b3a7640000613818565b6148ad565b91509150614dab87610933848c613679565b9650614db78784613f52565b965086614dc657505050614e14565b8715614dd0579315935b8015614dda579315935b8415614df157614dea8688613818565b9550614dfe565b614dfb868861406a565b95505b5050508080614e0c9061540a565b915050614d5e565b50909998505050505050505050565b80356001600160a01b0381168114612bd557600080fd5b8060408101831015610db357600080fd5b60008083601f840112614e5d57600080fd5b50813567ffffffffffffffff811115614e7557600080fd5b6020830191508360208260051b85010111156148dd57600080fd5b600060208284031215614ea257600080fd5b6132eb82614e23565b60008060408385031215614ebe57600080fd5b614ec783614e23565b9150614ed560208401614e23565b90509250929050565b600080600080600080600080610120898b031215614efb57600080fd5b614f0489614e23565b9750614f1260208a01614e23565b9650604089013567ffffffffffffffff811115614f2e57600080fd5b614f3a8b828c01614e4b565b9097509550506060890135614f4e8161547b565b93506080890135614f5e8161547b565b9250614f6d8a60a08b01614e3a565b9150614f7c8a60e08b01614e3a565b90509295985092959890939650565b600080600060608486031215614fa057600080fd5b614fa984614e23565b9250614fb760208501614e23565b9150604084013590509250925092565b60008060408385031215614fda57600080fd5b614fe383614e23565b946020939093013593505050565b600080600080600060a0868803121561500957600080fd5b61501286614e23565b94506020860135935061502760408701614e23565b94979396509394606081013594506080013592915050565b60008060006060848603121561505457600080fd5b61505d84614e23565b95602085013595506040909401359392505050565b60008060008060008060c0878903121561508b57600080fd5b61509487614e23565b955060208701359450604087013593506150b060608801614e23565b92506080870135915060a087013590509295509295509295565b6000602082840312156150dc57600080fd5b81516132eb8161547b565b6000602082840312156150f957600080fd5b5035919050565b60006020828403121561511257600080fd5b5051919050565b60008060006040848603121561512e57600080fd5b83359250602084013567ffffffffffffffff81111561514c57600080fd5b61515886828701614e4b565b9497909650939450505050565b6001600160a01b039384168152919092166020820152604081019190915260600190565b6020808252825182820181905260009190848201906040850190845b818110156151ca5783516001600160a01b0316835292840192918401916001016151a5565b50909695505050505050565b600060208083528351808285015260005b81811015615203578581018301518582016040015282016151e7565b81811115615215576000604083870101525b50601f01601f1916929092016040019392505050565b60208082526010908201526f4552525f4d41585f494e5f524154494f60801b604082015260600190565b6020808252600f908201526e08aa4a4be9a82a890be82a0a0a49eb608b1b604082015260600190565b6020808252600d908201526c11549497d31253525517d3d555609a1b604082015260600190565b6020808252600c908201526b22a9292fa624a6a4aa2fa4a760a11b604082015260600190565b6020808252600b908201526a4552525f5245454e54525960a81b604082015260600190565b6020808252601190820152704552525f4d41585f4f55545f524154494f60781b604082015260600190565b6020808252600d908201526c11549497d393d517d093d55391609a1b604082015260600190565b60208082526011908201527011549497d393d517d19253905312569151607a1b604082015260600190565b6000821982111561538057615380615439565b500190565b6000826153945761539461544f565b500490565b60008160001904831182151516156153b3576153b3615439565b500290565b6000828210156153ca576153ca615439565b500390565b600181811c908216806153e357607f821691505b6020821081141561540457634e487b7160e01b600052602260045260246000fd5b50919050565b600060001982141561541e5761541e615439565b5060010190565b6000826154345761543461544f565b500690565b634e487b7160e01b600052601160045260246000fd5b634e487b7160e01b600052601260045260246000fd5b634e487b7160e01b600052603260045260246000fd5b801515811461388857600080fdfe9d9058fd2f25ccc389fec7720abef0ca83472f5abfafd5f10d37f51e6a0493f3fcda32798d5a9d032f49b37fea876d422f18f6e386e0f07db6029b693624b2c215a8ca63e37b2cff1677df2b6b82d36fcf8a524228bd7a4b4d02d107c28c1e8a8c5be1e5ebec7d5bd14f71427d1e84f3dd0314c0f7b2291e5b200ac8c7c3b925a2646970667358221220e9bc0860b789a5c82e89d67775b4c1f64e3a419ceee15f52fb2f21707772c65c64736f6c63430008070033",
  "linkReferences": {},
  "deployedLinkReferences": {}
}