{
  "_format": "hh-sol-artifact-1",
  "contractName": "BPool",
  "sourceName": "contracts/pools/balancer/BPool.sol",
  "abi": [
    {
      "anonymous": false,
      "inputs": [
        {
          "indexed": true,
          "internalType": "address",
          "name": "src",
          "type": "address"
        },
        {
          "indexed": true,
          "internalType": "address",
          "name": "dst",
          "type": "address"
        },
        {
          "indexed": false,
          "internalType": "uint256",
          "name": "amt",
          "type": "uint256"
        }
      ],
      "name": "Approval",
      "type": "event"
    },
    {
      "anonymous": false,
      "inputs": [
        {
          "indexed": false,
          "internalType": "uint256",
          "name": "bptAmount",
          "type": "uint256"
        }
      ],
      "name": "LOG_BPT",
      "type": "event"
    },
    {
      "anonymous": false,
      "inputs": [
        {
          "indexed": false,
          "internalType": "uint256",
          "name": "bptAmount",
          "type": "uint256"
        }
      ],
      "name": "LOG_BPT_SS",
      "type": "event"
    },
    {
      "anonymous": false,
      "inputs": [
        {
          "indexed": true,
          "internalType": "bytes4",
          "name": "sig",
          "type": "bytes4"
        },
        {
          "indexed": true,
          "internalType": "address",
          "name": "caller",
          "type": "address"
        },
        {
          "indexed": false,
          "internalType": "uint256",
          "name": "timestamp",
          "type": "uint256"
        },
        {
          "indexed": false,
          "internalType": "bytes",
          "name": "data",
          "type": "bytes"
        }
      ],
      "name": "LOG_CALL",
      "type": "event"
    },
    {
      "anonymous": false,
      "inputs": [
        {
          "indexed": true,
          "internalType": "address",
          "name": "caller",
          "type": "address"
        },
        {
          "indexed": true,
          "internalType": "address",
          "name": "tokenOut",
          "type": "address"
        },
        {
          "indexed": false,
          "internalType": "uint256",
          "name": "tokenAmountOut",
          "type": "uint256"
        },
        {
          "indexed": false,
          "internalType": "uint256",
          "name": "timestamp",
          "type": "uint256"
        }
      ],
      "name": "LOG_EXIT",
      "type": "event"
    },
    {
      "anonymous": false,
      "inputs": [
        {
          "indexed": true,
          "internalType": "address",
          "name": "caller",
          "type": "address"
        },
        {
          "indexed": true,
          "internalType": "address",
          "name": "tokenIn",
          "type": "address"
        },
        {
          "indexed": false,
          "internalType": "uint256",
          "name": "tokenAmountIn",
          "type": "uint256"
        },
        {
          "indexed": false,
          "internalType": "uint256",
          "name": "timestamp",
          "type": "uint256"
        }
      ],
      "name": "LOG_JOIN",
      "type": "event"
    },
    {
      "anonymous": false,
      "inputs": [
        {
          "indexed": true,
          "internalType": "address",
          "name": "caller",
          "type": "address"
        },
        {
          "indexed": true,
          "internalType": "address",
          "name": "baseToken",
          "type": "address"
        },
        {
          "indexed": false,
          "internalType": "uint256",
          "name": "baseTokenAmountIn",
          "type": "uint256"
        },
        {
          "indexed": false,
          "internalType": "uint256",
          "name": "baseTokenWeight",
          "type": "uint256"
        },
        {
          "indexed": true,
          "internalType": "address",
          "name": "dataToken",
          "type": "address"
        },
        {
          "indexed": false,
          "internalType": "uint256",
          "name": "dataTokenAmountIn",
          "type": "uint256"
        },
        {
          "indexed": false,
          "internalType": "uint256",
          "name": "dataTokenWeight",
          "type": "uint256"
        }
      ],
      "name": "LOG_SETUP",
      "type": "event"
    },
    {
      "anonymous": false,
      "inputs": [
        {
          "indexed": true,
          "internalType": "address",
          "name": "caller",
          "type": "address"
        },
        {
          "indexed": true,
          "internalType": "address",
          "name": "tokenIn",
          "type": "address"
        },
        {
          "indexed": true,
          "internalType": "address",
          "name": "tokenOut",
          "type": "address"
        },
        {
          "indexed": false,
          "internalType": "uint256",
          "name": "tokenAmountIn",
          "type": "uint256"
        },
        {
          "indexed": false,
          "internalType": "uint256",
          "name": "tokenAmountOut",
          "type": "uint256"
        },
        {
          "indexed": false,
          "internalType": "uint256",
          "name": "timestamp",
          "type": "uint256"
        }
      ],
      "name": "LOG_SWAP",
      "type": "event"
    },
    {
      "anonymous": false,
      "inputs": [
        {
          "indexed": false,
          "internalType": "address",
          "name": "caller",
          "type": "address"
        },
        {
          "indexed": false,
          "internalType": "address",
          "name": "newMarketCollector",
          "type": "address"
        }
      ],
      "name": "MarketCollectorChanged",
      "type": "event"
    },
    {
      "anonymous": false,
      "inputs": [
        {
          "indexed": false,
          "internalType": "address",
          "name": "to",
          "type": "address"
        },
        {
          "indexed": false,
          "internalType": "address",
          "name": "token",
          "type": "address"
        },
        {
          "indexed": false,
          "internalType": "uint256",
          "name": "amount",
          "type": "uint256"
        }
      ],
      "name": "MarketFees",
      "type": "event"
    },
    {
      "anonymous": false,
      "inputs": [
        {
          "indexed": false,
          "internalType": "address",
          "name": "caller",
          "type": "address"
        },
        {
          "indexed": false,
          "internalType": "address",
          "name": "OPFWallet",
          "type": "address"
        },
        {
          "indexed": false,
          "internalType": "address",
          "name": "token",
          "type": "address"
        },
        {
          "indexed": false,
          "internalType": "uint256",
          "name": "amount",
          "type": "uint256"
        }
      ],
      "name": "OPFFee",
      "type": "event"
    },
    {
      "anonymous": false,
      "inputs": [
        {
          "indexed": false,
          "internalType": "address",
          "name": "caller",
          "type": "address"
        },
        {
          "indexed": false,
          "internalType": "address",
          "name": "marketAddress",
          "type": "address"
        },
        {
          "indexed": false,
          "internalType": "address",
          "name": "token",
          "type": "address"
        },
        {
          "indexed": false,
          "internalType": "uint256",
          "name": "amount",
          "type": "uint256"
        }
      ],
      "name": "PublishMarketFee",
      "type": "event"
    },
    {
      "anonymous": false,
      "inputs": [
        {
          "indexed": false,
          "internalType": "uint256",
          "name": "swapFeeAmount",
          "type": "uint256"
        },
        {
          "indexed": false,
          "internalType": "uint256",
          "name": "oceanFeeAmount",
          "type": "uint256"
        },
        {
          "indexed": false,
          "internalType": "uint256",
          "name": "marketFeeAmount",
          "type": "uint256"
        },
        {
          "indexed": false,
          "internalType": "address",
          "name": "tokenFees",
          "type": "address"
        }
      ],
      "name": "SWAP_FEES",
      "type": "event"
    },
    {
      "anonymous": false,
      "inputs": [
        {
          "indexed": false,
          "internalType": "address",
          "name": "caller",
          "type": "address"
        },
        {
          "indexed": false,
          "internalType": "uint256",
          "name": "amount",
          "type": "uint256"
        }
      ],
      "name": "SwapFeeChanged",
      "type": "event"
    },
    {
      "anonymous": false,
      "inputs": [
        {
          "indexed": true,
          "internalType": "address",
          "name": "src",
          "type": "address"
        },
        {
          "indexed": true,
          "internalType": "address",
          "name": "dst",
          "type": "address"
        },
        {
          "indexed": false,
          "internalType": "uint256",
          "name": "amt",
          "type": "uint256"
        }
      ],
      "name": "Transfer",
      "type": "event"
    },
    {
      "inputs": [],
      "name": "BONE",
      "outputs": [
        {
          "internalType": "uint256",
          "name": "",
          "type": "uint256"
        }
      ],
      "stateMutability": "view",
      "type": "function"
    },
    {
      "inputs": [],
      "name": "BPOW_PRECISION",
      "outputs": [
        {
          "internalType": "uint256",
          "name": "",
          "type": "uint256"
        }
      ],
      "stateMutability": "view",
      "type": "function"
    },
    {
      "inputs": [],
      "name": "EXIT_FEE",
      "outputs": [
        {
          "internalType": "uint256",
          "name": "",
          "type": "uint256"
        }
      ],
      "stateMutability": "view",
      "type": "function"
    },
    {
      "inputs": [],
      "name": "INIT_POOL_SUPPLY",
      "outputs": [
        {
          "internalType": "uint256",
          "name": "",
          "type": "uint256"
        }
      ],
      "stateMutability": "view",
      "type": "function"
    },
    {
      "inputs": [],
      "name": "MAX_BOUND_TOKENS",
      "outputs": [
        {
          "internalType": "uint256",
          "name": "",
          "type": "uint256"
        }
      ],
      "stateMutability": "view",
      "type": "function"
    },
    {
      "inputs": [],
      "name": "MAX_BPOW_BASE",
      "outputs": [
        {
          "internalType": "uint256",
          "name": "",
          "type": "uint256"
        }
      ],
      "stateMutability": "view",
      "type": "function"
    },
    {
      "inputs": [],
      "name": "MAX_FEE",
      "outputs": [
        {
          "internalType": "uint256",
          "name": "",
          "type": "uint256"
        }
      ],
      "stateMutability": "view",
      "type": "function"
    },
    {
      "inputs": [],
      "name": "MAX_IN_RATIO",
      "outputs": [
        {
          "internalType": "uint256",
          "name": "",
          "type": "uint256"
        }
      ],
      "stateMutability": "view",
      "type": "function"
    },
    {
      "inputs": [],
      "name": "MAX_OUT_RATIO",
      "outputs": [
        {
          "internalType": "uint256",
          "name": "",
          "type": "uint256"
        }
      ],
      "stateMutability": "view",
      "type": "function"
    },
    {
      "inputs": [],
      "name": "MAX_TOTAL_WEIGHT",
      "outputs": [
        {
          "internalType": "uint256",
          "name": "",
          "type": "uint256"
        }
      ],
      "stateMutability": "view",
      "type": "function"
    },
    {
      "inputs": [],
      "name": "MAX_WEIGHT",
      "outputs": [
        {
          "internalType": "uint256",
          "name": "",
          "type": "uint256"
        }
      ],
      "stateMutability": "view",
      "type": "function"
    },
    {
      "inputs": [],
      "name": "MIN_BALANCE",
      "outputs": [
        {
          "internalType": "uint256",
          "name": "",
          "type": "uint256"
        }
      ],
      "stateMutability": "view",
      "type": "function"
    },
    {
      "inputs": [],
      "name": "MIN_BOUND_TOKENS",
      "outputs": [
        {
          "internalType": "uint256",
          "name": "",
          "type": "uint256"
        }
      ],
      "stateMutability": "view",
      "type": "function"
    },
    {
      "inputs": [],
      "name": "MIN_BPOW_BASE",
      "outputs": [
        {
          "internalType": "uint256",
          "name": "",
          "type": "uint256"
        }
      ],
      "stateMutability": "view",
      "type": "function"
    },
    {
      "inputs": [],
      "name": "MIN_FEE",
      "outputs": [
        {
          "internalType": "uint256",
          "name": "",
          "type": "uint256"
        }
      ],
      "stateMutability": "view",
      "type": "function"
    },
    {
      "inputs": [],
      "name": "MIN_WEIGHT",
      "outputs": [
        {
          "internalType": "uint256",
          "name": "",
          "type": "uint256"
        }
      ],
      "stateMutability": "view",
      "type": "function"
    },
    {
      "inputs": [],
      "name": "_opfCollector",
      "outputs": [
        {
          "internalType": "address",
          "name": "",
          "type": "address"
        }
      ],
      "stateMutability": "view",
      "type": "function"
    },
    {
      "inputs": [],
      "name": "_publishMarketCollector",
      "outputs": [
        {
          "internalType": "address",
          "name": "",
          "type": "address"
        }
      ],
      "stateMutability": "view",
      "type": "function"
    },
    {
      "inputs": [],
      "name": "_swapPublishMarketFee",
      "outputs": [
        {
          "internalType": "uint256",
          "name": "",
          "type": "uint256"
        }
      ],
      "stateMutability": "view",
      "type": "function"
    },
    {
      "inputs": [
        {
          "internalType": "address",
          "name": "src",
          "type": "address"
        },
        {
          "internalType": "address",
          "name": "dst",
          "type": "address"
        }
      ],
      "name": "allowance",
      "outputs": [
        {
          "internalType": "uint256",
          "name": "",
          "type": "uint256"
        }
      ],
      "stateMutability": "view",
      "type": "function"
    },
    {
      "inputs": [
        {
          "internalType": "address",
          "name": "dst",
          "type": "address"
        },
        {
          "internalType": "uint256",
          "name": "amt",
          "type": "uint256"
        }
      ],
      "name": "approve",
      "outputs": [
        {
          "internalType": "bool",
          "name": "",
          "type": "bool"
        }
      ],
      "stateMutability": "nonpayable",
      "type": "function"
    },
    {
      "inputs": [
        {
          "internalType": "address",
          "name": "whom",
          "type": "address"
        }
      ],
      "name": "balanceOf",
      "outputs": [
        {
          "internalType": "uint256",
          "name": "",
          "type": "uint256"
        }
      ],
      "stateMutability": "view",
      "type": "function"
    },
    {
      "inputs": [
        {
          "internalType": "address",
          "name": "tokenOut",
          "type": "address"
        },
        {
          "internalType": "uint256",
          "name": "tokenAmountOut",
          "type": "uint256"
        }
      ],
      "name": "calcPoolInSingleOut",
      "outputs": [
        {
          "internalType": "uint256",
          "name": "poolAmountIn",
          "type": "uint256"
        }
      ],
      "stateMutability": "view",
      "type": "function"
    },
    {
      "inputs": [
        {
          "internalType": "address",
          "name": "tokenIn",
          "type": "address"
        },
        {
          "internalType": "uint256",
          "name": "tokenAmountIn",
          "type": "uint256"
        }
      ],
      "name": "calcPoolOutSingleIn",
      "outputs": [
        {
          "internalType": "uint256",
          "name": "poolAmountOut",
          "type": "uint256"
        }
      ],
      "stateMutability": "view",
      "type": "function"
    },
    {
      "inputs": [
        {
          "internalType": "address",
          "name": "tokenIn",
          "type": "address"
        },
        {
          "internalType": "uint256",
          "name": "poolAmountOut",
          "type": "uint256"
        }
      ],
      "name": "calcSingleInPoolOut",
      "outputs": [
        {
          "internalType": "uint256",
          "name": "tokenAmountIn",
          "type": "uint256"
        }
      ],
      "stateMutability": "view",
      "type": "function"
    },
    {
      "inputs": [
        {
          "internalType": "address",
          "name": "tokenOut",
          "type": "address"
        },
        {
          "internalType": "uint256",
          "name": "poolAmountIn",
          "type": "uint256"
        }
      ],
      "name": "calcSingleOutPoolIn",
      "outputs": [
        {
          "internalType": "uint256",
          "name": "tokenAmountOut",
          "type": "uint256"
        }
      ],
      "stateMutability": "view",
      "type": "function"
    },
    {
      "inputs": [],
      "name": "collectMarketFee",
      "outputs": [],
      "stateMutability": "nonpayable",
      "type": "function"
    },
    {
      "inputs": [],
      "name": "collectOPF",
      "outputs": [],
      "stateMutability": "nonpayable",
      "type": "function"
    },
    {
      "inputs": [
        {
          "internalType": "address",
          "name": "",
          "type": "address"
        }
      ],
      "name": "communityFees",
      "outputs": [
        {
          "internalType": "uint256",
          "name": "",
          "type": "uint256"
        }
      ],
      "stateMutability": "view",
      "type": "function"
    },
    {
      "inputs": [],
      "name": "decimals",
      "outputs": [
        {
          "internalType": "uint8",
          "name": "",
          "type": "uint8"
        }
      ],
      "stateMutability": "view",
      "type": "function"
    },
    {
      "inputs": [
        {
          "internalType": "address",
          "name": "dst",
          "type": "address"
        },
        {
          "internalType": "uint256",
          "name": "amt",
          "type": "uint256"
        }
      ],
      "name": "decreaseApproval",
      "outputs": [
        {
          "internalType": "bool",
          "name": "",
          "type": "bool"
        }
      ],
      "stateMutability": "nonpayable",
      "type": "function"
    },
    {
      "inputs": [
        {
          "internalType": "uint256",
          "name": "poolAmountIn",
          "type": "uint256"
        },
        {
          "internalType": "uint256[]",
          "name": "minAmountsOut",
          "type": "uint256[]"
        }
      ],
      "name": "exitPool",
      "outputs": [],
      "stateMutability": "nonpayable",
      "type": "function"
    },
    {
      "inputs": [
        {
          "internalType": "address",
          "name": "tokenOut",
          "type": "address"
        },
        {
          "internalType": "uint256",
          "name": "tokenAmountOut",
          "type": "uint256"
        },
        {
          "internalType": "uint256",
          "name": "maxPoolAmountIn",
          "type": "uint256"
        }
      ],
      "name": "exitswapExternAmountOut",
      "outputs": [
        {
          "internalType": "uint256",
          "name": "poolAmountIn",
          "type": "uint256"
        }
      ],
      "stateMutability": "nonpayable",
      "type": "function"
    },
    {
      "inputs": [
        {
          "internalType": "address",
          "name": "tokenOut",
          "type": "address"
        },
        {
          "internalType": "uint256",
          "name": "poolAmountIn",
          "type": "uint256"
        },
        {
          "internalType": "uint256",
          "name": "minAmountOut",
          "type": "uint256"
        }
      ],
      "name": "exitswapPoolAmountIn",
      "outputs": [
        {
          "internalType": "uint256",
          "name": "tokenAmountOut",
          "type": "uint256"
        }
      ],
      "stateMutability": "nonpayable",
      "type": "function"
    },
    {
      "inputs": [
        {
          "internalType": "address",
          "name": "tokenIn",
          "type": "address"
        },
        {
          "internalType": "address",
          "name": "tokenOut",
          "type": "address"
        },
        {
          "internalType": "uint256",
          "name": "tokenAmountOut",
          "type": "uint256"
        },
        {
          "internalType": "uint256",
          "name": "_swapMarketFee",
          "type": "uint256"
        }
      ],
      "name": "getAmountInExactOut",
      "outputs": [
        {
          "internalType": "uint256",
          "name": "tokenAmountIn",
          "type": "uint256"
        }
      ],
      "stateMutability": "view",
      "type": "function"
    },
    {
      "inputs": [
        {
          "internalType": "address",
          "name": "tokenIn",
          "type": "address"
        },
        {
          "internalType": "address",
          "name": "tokenOut",
          "type": "address"
        },
        {
          "internalType": "uint256",
          "name": "tokenAmountIn",
          "type": "uint256"
        },
        {
          "internalType": "uint256",
          "name": "_swapMarketFee",
          "type": "uint256"
        }
      ],
      "name": "getAmountOutExactIn",
      "outputs": [
        {
          "internalType": "uint256",
          "name": "tokenAmountOut",
          "type": "uint256"
        }
      ],
      "stateMutability": "view",
      "type": "function"
    },
    {
      "inputs": [
        {
          "internalType": "address",
          "name": "token",
          "type": "address"
        }
      ],
      "name": "getBalance",
      "outputs": [
        {
          "internalType": "uint256",
          "name": "",
          "type": "uint256"
        }
      ],
      "stateMutability": "view",
      "type": "function"
    },
    {
      "inputs": [],
      "name": "getBaseTokenAddress",
      "outputs": [
        {
          "internalType": "address",
          "name": "",
          "type": "address"
        }
      ],
      "stateMutability": "view",
      "type": "function"
    },
    {
      "inputs": [],
      "name": "getController",
      "outputs": [
        {
          "internalType": "address",
          "name": "",
          "type": "address"
        }
      ],
      "stateMutability": "view",
      "type": "function"
    },
    {
      "inputs": [],
      "name": "getCurrentMarketFees",
      "outputs": [
        {
          "internalType": "address[]",
          "name": "",
          "type": "address[]"
        },
        {
          "internalType": "uint256[]",
          "name": "",
          "type": "uint256[]"
        }
      ],
      "stateMutability": "view",
      "type": "function"
    },
    {
      "inputs": [],
      "name": "getCurrentOPFFees",
      "outputs": [
        {
          "internalType": "address[]",
          "name": "",
          "type": "address[]"
        },
        {
          "internalType": "uint256[]",
          "name": "",
          "type": "uint256[]"
        }
      ],
      "stateMutability": "view",
      "type": "function"
    },
    {
      "inputs": [],
      "name": "getCurrentTokens",
      "outputs": [
        {
          "internalType": "address[]",
          "name": "tokens",
          "type": "address[]"
        }
      ],
      "stateMutability": "view",
      "type": "function"
    },
    {
      "inputs": [],
      "name": "getDataTokenAddress",
      "outputs": [
        {
          "internalType": "address",
          "name": "",
          "type": "address"
        }
      ],
      "stateMutability": "view",
      "type": "function"
    },
    {
      "inputs": [
        {
          "internalType": "address",
          "name": "token",
          "type": "address"
        }
      ],
      "name": "getDenormalizedWeight",
      "outputs": [
        {
          "internalType": "uint256",
          "name": "",
          "type": "uint256"
        }
      ],
      "stateMutability": "view",
      "type": "function"
    },
    {
      "inputs": [],
      "name": "getFinalTokens",
      "outputs": [
        {
          "internalType": "address[]",
          "name": "tokens",
          "type": "address[]"
        }
      ],
      "stateMutability": "view",
      "type": "function"
    },
    {
      "inputs": [],
      "name": "getMarketFee",
      "outputs": [
        {
          "internalType": "uint256",
          "name": "",
          "type": "uint256"
        }
      ],
      "stateMutability": "view",
      "type": "function"
    },
    {
      "inputs": [
        {
          "internalType": "address",
          "name": "token",
          "type": "address"
        }
      ],
      "name": "getNormalizedWeight",
      "outputs": [
        {
          "internalType": "uint256",
          "name": "",
          "type": "uint256"
        }
      ],
      "stateMutability": "view",
      "type": "function"
    },
    {
      "inputs": [],
      "name": "getNumTokens",
      "outputs": [
        {
          "internalType": "uint256",
          "name": "",
          "type": "uint256"
        }
      ],
      "stateMutability": "view",
      "type": "function"
    },
    {
      "inputs": [],
      "name": "getOPFFee",
      "outputs": [
        {
          "internalType": "uint256",
          "name": "",
          "type": "uint256"
        }
      ],
      "stateMutability": "view",
      "type": "function"
    },
    {
      "inputs": [
        {
          "internalType": "address",
          "name": "tokenIn",
          "type": "address"
        },
        {
          "internalType": "address",
          "name": "tokenOut",
          "type": "address"
        },
        {
          "internalType": "uint256",
          "name": "_swapMarketFee",
          "type": "uint256"
        }
      ],
      "name": "getSpotPrice",
      "outputs": [
        {
          "internalType": "uint256",
          "name": "spotPrice",
          "type": "uint256"
        }
      ],
      "stateMutability": "view",
      "type": "function"
    },
    {
      "inputs": [],
      "name": "getSwapFee",
      "outputs": [
        {
          "internalType": "uint256",
          "name": "",
          "type": "uint256"
        }
      ],
      "stateMutability": "view",
      "type": "function"
    },
    {
      "inputs": [],
      "name": "getTotalDenormalizedWeight",
      "outputs": [
        {
          "internalType": "uint256",
          "name": "",
          "type": "uint256"
        }
      ],
      "stateMutability": "view",
      "type": "function"
    },
    {
      "inputs": [
        {
          "internalType": "address",
          "name": "dst",
          "type": "address"
        },
        {
          "internalType": "uint256",
          "name": "amt",
          "type": "uint256"
        }
      ],
      "name": "increaseApproval",
      "outputs": [
        {
          "internalType": "bool",
          "name": "",
          "type": "bool"
        }
      ],
      "stateMutability": "nonpayable",
      "type": "function"
    },
    {
      "inputs": [
        {
          "internalType": "address",
          "name": "controller",
          "type": "address"
        },
        {
          "internalType": "address",
          "name": "factory",
          "type": "address"
        },
        {
          "internalType": "uint256[]",
          "name": "swapFees",
          "type": "uint256[]"
        },
        {
          "internalType": "bool",
          "name": "publicSwap",
          "type": "bool"
        },
        {
          "internalType": "bool",
          "name": "finalized",
          "type": "bool"
        },
        {
          "internalType": "address[2]",
          "name": "tokens",
          "type": "address[2]"
        },
        {
          "internalType": "address[2]",
          "name": "feeCollectors",
          "type": "address[2]"
        }
      ],
      "name": "initialize",
      "outputs": [
        {
          "internalType": "bool",
          "name": "",
          "type": "bool"
        }
      ],
      "stateMutability": "nonpayable",
      "type": "function"
    },
    {
      "inputs": [
        {
          "internalType": "address",
          "name": "t",
          "type": "address"
        }
      ],
      "name": "isBound",
      "outputs": [
        {
          "internalType": "bool",
          "name": "",
          "type": "bool"
        }
      ],
      "stateMutability": "view",
      "type": "function"
    },
    {
      "inputs": [],
      "name": "isFinalized",
      "outputs": [
        {
          "internalType": "bool",
          "name": "",
          "type": "bool"
        }
      ],
      "stateMutability": "view",
      "type": "function"
    },
    {
      "inputs": [],
      "name": "isInitialized",
      "outputs": [
        {
          "internalType": "bool",
          "name": "",
          "type": "bool"
        }
      ],
      "stateMutability": "view",
      "type": "function"
    },
    {
      "inputs": [],
      "name": "isPublicSwap",
      "outputs": [
        {
          "internalType": "bool",
          "name": "",
          "type": "bool"
        }
      ],
      "stateMutability": "view",
      "type": "function"
    },
    {
      "inputs": [
        {
          "internalType": "uint256",
          "name": "poolAmountOut",
          "type": "uint256"
        },
        {
          "internalType": "uint256[]",
          "name": "maxAmountsIn",
          "type": "uint256[]"
        }
      ],
      "name": "joinPool",
      "outputs": [],
      "stateMutability": "nonpayable",
      "type": "function"
    },
    {
      "inputs": [
        {
          "internalType": "address",
          "name": "tokenIn",
          "type": "address"
        },
        {
          "internalType": "uint256",
          "name": "tokenAmountIn",
          "type": "uint256"
        },
        {
          "internalType": "uint256",
          "name": "minPoolAmountOut",
          "type": "uint256"
        }
      ],
      "name": "joinswapExternAmountIn",
      "outputs": [
        {
          "internalType": "uint256",
          "name": "poolAmountOut",
          "type": "uint256"
        }
      ],
      "stateMutability": "nonpayable",
      "type": "function"
    },
    {
      "inputs": [
        {
          "internalType": "address",
          "name": "tokenIn",
          "type": "address"
        },
        {
          "internalType": "uint256",
          "name": "poolAmountOut",
          "type": "uint256"
        },
        {
          "internalType": "uint256",
          "name": "maxAmountIn",
          "type": "uint256"
        }
      ],
      "name": "joinswapPoolAmountOut",
      "outputs": [
        {
          "internalType": "uint256",
          "name": "tokenAmountIn",
          "type": "uint256"
        }
      ],
      "stateMutability": "nonpayable",
      "type": "function"
    },
    {
      "inputs": [],
      "name": "name",
      "outputs": [
        {
          "internalType": "string",
          "name": "",
          "type": "string"
        }
      ],
      "stateMutability": "view",
      "type": "function"
    },
    {
      "inputs": [
        {
          "internalType": "address",
          "name": "",
          "type": "address"
        }
      ],
      "name": "publishMarketFees",
      "outputs": [
        {
          "internalType": "uint256",
          "name": "",
          "type": "uint256"
        }
      ],
      "stateMutability": "view",
      "type": "function"
    },
    {
      "inputs": [
        {
          "internalType": "uint256",
          "name": "swapFee",
          "type": "uint256"
        }
      ],
      "name": "setSwapFee",
      "outputs": [],
      "stateMutability": "nonpayable",
      "type": "function"
    },
    {
      "inputs": [
        {
          "internalType": "address",
          "name": "dataTokenAddress",
          "type": "address"
        },
        {
          "internalType": "uint256",
          "name": "dataTokenAmount",
          "type": "uint256"
        },
        {
          "internalType": "uint256",
          "name": "dataTokenWeight",
          "type": "uint256"
        },
        {
          "internalType": "address",
          "name": "baseTokenAddress",
          "type": "address"
        },
        {
          "internalType": "uint256",
          "name": "baseTokenAmount",
          "type": "uint256"
        },
        {
          "internalType": "uint256",
          "name": "baseTokenWeight",
          "type": "uint256"
        }
      ],
      "name": "setup",
      "outputs": [],
      "stateMutability": "nonpayable",
      "type": "function"
    },
    {
      "inputs": [
        {
          "internalType": "address[3]",
          "name": "tokenInOutMarket",
          "type": "address[3]"
        },
        {
          "internalType": "uint256[4]",
          "name": "amountsInOutMaxFee",
          "type": "uint256[4]"
        }
      ],
      "name": "swapExactAmountIn",
      "outputs": [
        {
          "internalType": "uint256",
          "name": "tokenAmountOut",
          "type": "uint256"
        },
        {
          "internalType": "uint256",
          "name": "spotPriceAfter",
          "type": "uint256"
        }
      ],
      "stateMutability": "nonpayable",
      "type": "function"
    },
    {
      "inputs": [
        {
          "internalType": "address[3]",
          "name": "tokenInOutMarket",
          "type": "address[3]"
        },
        {
          "internalType": "uint256[4]",
          "name": "amountsInOutMaxFee",
          "type": "uint256[4]"
        }
      ],
      "name": "swapExactAmountOut",
      "outputs": [
        {
          "internalType": "uint256",
          "name": "tokenAmountIn",
          "type": "uint256"
        },
        {
          "internalType": "uint256",
          "name": "spotPriceAfter",
          "type": "uint256"
        }
      ],
      "stateMutability": "nonpayable",
      "type": "function"
    },
    {
      "inputs": [],
      "name": "symbol",
      "outputs": [
        {
          "internalType": "string",
          "name": "",
          "type": "string"
        }
      ],
      "stateMutability": "view",
      "type": "function"
    },
    {
      "inputs": [],
      "name": "totalSupply",
      "outputs": [
        {
          "internalType": "uint256",
          "name": "",
          "type": "uint256"
        }
      ],
      "stateMutability": "view",
      "type": "function"
    },
    {
      "inputs": [
        {
          "internalType": "address",
          "name": "dst",
          "type": "address"
        },
        {
          "internalType": "uint256",
          "name": "amt",
          "type": "uint256"
        }
      ],
      "name": "transfer",
      "outputs": [
        {
          "internalType": "bool",
          "name": "",
          "type": "bool"
        }
      ],
      "stateMutability": "nonpayable",
      "type": "function"
    },
    {
      "inputs": [
        {
          "internalType": "address",
          "name": "src",
          "type": "address"
        },
        {
          "internalType": "address",
          "name": "dst",
          "type": "address"
        },
        {
          "internalType": "uint256",
          "name": "amt",
          "type": "uint256"
        }
      ],
      "name": "transferFrom",
      "outputs": [
        {
          "internalType": "bool",
          "name": "",
          "type": "bool"
        }
      ],
      "stateMutability": "nonpayable",
      "type": "function"
    },
    {
      "inputs": [
        {
          "internalType": "address",
          "name": "_newCollector",
          "type": "address"
        }
      ],
      "name": "updateMarketFeeCollector",
      "outputs": [],
      "stateMutability": "nonpayable",
      "type": "function"
    }
  ],
  "bytecode": "0x60c0604052601360808190527f42616c616e63657220506f6f6c20546f6b656e0000000000000000000000000060a09081526200004091600a91906200008f565b506040805180820190915260038082526210941560ea1b60209092019182526200006d91600b916200008f565b50600c805460ff191660121790553480156200008857600080fd5b5062000172565b8280546200009d9062000135565b90600052602060002090601f016020900481019282620000c157600085556200010c565b82601f10620000dc57805160ff19168380011785556200010c565b828001600101855582156200010c579182015b828111156200010c578251825591602001919060010190620000ef565b506200011a9291506200011e565b5090565b5b808211156200011a57600081556001016200011f565b600181811c908216806200014a57607f821691505b602082108114156200016c57634e487b7160e01b600052602260045260246000fd5b50919050565b615ea280620001826000396000f3fe608060405234801561001057600080fd5b50600436106104285760003560e01c80638d4e40831161022b578063c44a428311610130578063dd62ed3e116100b8578063f1b8a9b711610087578063f1b8a9b7146108b1578063f68045a5146108c4578063f8b2cb4f146108cc578063fde924f7146108df578063ff9b1850146108f157600080fd5b8063dd62ed3e1461085d578063e4a28a52146104c3578063ec09302114610896578063f0f13f0b1461089e57600080fd5b8063caa01148116100ff578063caa011481461081f578063cc77828d14610832578063cd2ed8fb1461083a578063d4cadf6814610842578063d73dd6231461084a57600080fd5b8063c44a4283146107e6578063c6580d12146107fc578063c8ff183314610804578063c98a59cf1461080c57600080fd5b8063b0e0d136116101b3578063bc694ea211610182578063bc694ea21461078e578063be3bbd2e14610796578063c070a6d8146107ab578063c36596a6146104f0578063c421a3fc146107be57600080fd5b8063b0e0d13614610776578063b7b800a414610776578063ba019dab1461077e578063bc063e1a1461078657600080fd5b806395d89b41116101fa57806395d89b411461072d578063992e2a9214610735578063a3b3a16d1461073d578063a9059cbb14610750578063b02f0b731461076357600080fd5b80638d4e4083146106f8578063936c34771461070a5780639381cd2b14610712578063948d8ce61461071a57600080fd5b80633950b3fd116103315780636d06dfa0116102b957806376c7a3c71161028857806376c7a3c7146106b75780637a284be4146106bf5780637c5918b3146106c857806380ca7308146106e8578063867378c5146106f057600080fd5b80636d06dfa014610660578063700dd7e814610673578063703305181461067b57806370a082311461068e57600080fd5b80634f69c0d4116103005780634f69c0d41461060c5780635db342771461061f5780635e123add14610632578063638c9e951461063a578063661884631461064d57600080fd5b80633950b3fd146105c2578063430ed5d0146105d557806346ab38f1146105e85780634df947d0146105fb57600080fd5b8063218b5382116103b4578063300621921161038357806330062192146105515780633018205f14610571578063313ce5671461058857806334e199071461059d578063392e53cd146105b057600080fd5b8063218b5382146104f057806323b872dd146104ff5780632eebd6ae146105125780632f37b6241461052557600080fd5b8063095ea7b3116103fb578063095ea7b3146104a057806309a3bbe4146104c357806309ef3f5b146104cb57806318160ddd146104e0578063189d00ca146104e857600080fd5b806302c967481461042d57806304ad79541461045357806306fdde0314610478578063079492d41461048d575b600080fd5b61044061043b3660046156d1565b610904565b6040519081526020015b60405180910390f35b6003546001600160a01b03165b6040516001600160a01b03909116815260200161044a565b610480610d65565b60405161044a9190615730565b61044061049b366004615763565b610df7565b6104b36104ae36600461579f565b610e81565b604051901515815260200161044a565b610440610edc565b6104de6104d93660046157c9565b610ef2565b005b600954610440565b61044061112e565b610440670de0b6b3a764000081565b6104b361050d366004615763565b611145565b610440610520366004615821565b611299565b6104b3610533366004615863565b6001600160a01b031660009081526010602052604090205460ff1690565b61044061055f366004615863565b60056020526000908152604090205481565b600c546201000090046001600160a01b0316610460565b600c5460405160ff909116815260200161044a565b6104de6105ab36600461587e565b6112fa565b601254600160a01b900460ff166104b3565b6104406105d036600461579f565b611433565b6104406105e336600461579f565b61149b565b6104406105f63660046156d1565b6114fb565b6004546001600160a01b0316610460565b6104de61061a3660046158dc565b611901565b61044061062d3660046156d1565b611b28565b600054610440565b600d54610460906001600160a01b031681565b6104b361065b36600461579f565b611ee9565b61044061066e3660046156d1565b611fbf565b61044061239b565b6104de610689366004615863565b612415565b61044061069c366004615863565b6001600160a01b031660009081526007602052604090205490565b610440612512565b61044060005481565b6104406106d6366004615863565b60066020526000908152604090205481565b6104de612527565b6104406126b9565b600e54600160a01b900460ff166104b3565b6104406126d0565b610440612702565b610440610728366004615863565b612715565b61048061276c565b61044061277b565b61044061074b36600461579f565b612799565b6104b361075e36600461579f565b6127f9565b6104de6107713660046158dc565b61280f565b610440600281565b610440600181565b610440612a6b565b610440612a7e565b61079e612a9d565b60405161044a919061596c565b6104b36107b936600461599e565b612b50565b6107d16107cc366004615a4b565b612dc0565b6040805192835260208301919091520161044a565b6107ee613267565b60405161044a929190615a8d565b610440600081565b6107ee6133d7565b6107d161081a366004615a4b565b61353c565b61044061082d366004615821565b613980565b61079e6139d6565b600f54610440565b600154610440565b6104b361085836600461579f565b613a01565b61044061086b366004615ae4565b6001600160a01b03918216600090815260086020908152604080832093909416825291909152205490565b610440613a74565b600e54610460906001600160a01b031681565b6104406108bf366004615863565b613a87565b6104de613ae5565b6104406108da366004615863565b613c53565b600c54600160b01b900460ff166104b3565b6104406108ff36600461579f565b613ca6565b600c54600090610100900460ff16156109385760405162461bcd60e51b815260040161092f90615b17565b60405180910390fd5b600c805461ff001916610100179055600e54600160a01b900460ff166109705760405162461bcd60e51b815260040161092f90615b3c565b61097984613d06565b6001600160a01b03841660009081526010602052604090206003908101546109bd916109ad90670de0b6b3a7640000615b93565b6109b8906001615ba7565b613d61565b8311156109dc5760405162461bcd60e51b815260040161092f90615bbf565b6001600160a01b038416600090815260106020526040902060038101546002820154600954601154610a119392919088613e46565b915081610a305760405162461bcd60e51b815260040161092f90615bea565b82821115610a505760405162461bcd60e51b815260040161092f90615c13565b610a5e816003015485613f0a565b60038201556000610a6f8382613d61565b604080518781524260208201529192506001600160a01b038816913391600080516020615dcd833981519152910160405180910390a3604051838152600080516020615e0d8339815191529060200160405180910390a1610ad03384613f67565b610ae2610add8483613f0a565b613f71565b600254610af8906001600160a01b031682613f7a565b610b03863387613f84565b6003546000906001600160a01b0388811691161415610b2e57506004546001600160a01b0316610b3c565b506003546001600160a01b03165b60125460035460405163efd4810360e01b81526001600160a01b039283169263efd4810392610b749291169085908990600401615c39565b602060405180830381865afa158015610b91573d6000803e3d6000fd5b505050506040513d601f19601f82011682018060405250810190610bb59190615c5d565b15610d5057600380546001600160a01b03166000908152601060205260408120918201546002830154600954601154610bf1939291908a613f9d565b9050610c01826003015482613f0a565b6003830155610c11866000613d61565b600c54604080518481524260208201529296506001600160a01b0386811693620100009093041691600080516020615dcd833981519152910160405180910390a3600c54610c6e906201000090046001600160a01b031687613f67565b610c7b610add8786613f0a565b600254610c91906001600160a01b031685613f7a565b600c54610caf9084906201000090046001600160a01b031683613f84565b6012546003546040516307b01ab360e41b81526001600160a01b03918216600482015285821660248201526044810184905260648101899052911690637b01ab3090608401600060405180830381600087803b158015610d0e57600080fd5b505af1158015610d22573d6000803e3d6000fd5b50505050600080516020615ded83398151915286604051610d4591815260200190565b60405180910390a150505b505050600c805461ff00191690559392505050565b6060600a8054610d7490615c7a565b80601f0160208091040260200160405190810160405280929190818152602001828054610da090615c7a565b8015610ded5780601f10610dc257610100808354040283529160200191610ded565b820191906000526020600020905b815481529060010190602001808311610dd057829003601f168201915b5050505050905090565b600c54600090610100900460ff1615610e225760405162461bcd60e51b815260040161092f90615b17565b610e2b84613d06565b610e3483613d06565b6001600160a01b03808516600090815260106020526040808220928616825290206003808301546002808501549284015490840154610e7593919088614067565b925050505b9392505050565b3360008181526008602090815260408083206001600160a01b03871680855292528083208590555191929091600080516020615e4d83398151915290610eca9086815260200190565b60405180910390a35060015b92915050565b610eef670de0b6b3a76400006032615cb5565b81565b600c54610100900460ff1615610f1a5760405162461bcd60e51b815260040161092f90615b17565b600c805461010061ff001990911617908190556201000090046001600160a01b03163314610f835760405162461bcd60e51b815260206004820152601660248201527522a9292fa4a72b20a624a22fa1a7a72a2927a62622a960511b604482015260640161092f565b6003546001600160a01b03878116911614610fe05760405162461bcd60e51b815260206004820152601d60248201527f4552525f494e56414c49445f44415441544f4b454e5f41444452455353000000604482015260640161092f565b6004546001600160a01b0384811691161461103d5760405162461bcd60e51b815260206004820152601d60248201527f4552525f494e56414c49445f42415345544f4b454e5f41444452455353000000604482015260640161092f565b6110488686866140f3565b604080518681524260208201526001600160a01b038816913391600080516020615e2d833981519152910160405180910390a36110868383836140f3565b604080518381524260208201526001600160a01b038516913391600080516020615e2d833981519152910160405180910390a36110c16142dd565b6040805183815260208101839052908101869052606081018590526001600160a01b03808816919085169033907fbece8b4dcdbe446dd65a9288154698e067e3e91de17a1a408c2f531b9f845d739060800160405180910390a45050600c805461ff001916905550505050565b610eef6402540be400670de0b6b3a7640000615b93565b6000336001600160a01b038516148061118157506001600160a01b03841660009081526008602090815260408083203384529091529020548211155b6111c55760405162461bcd60e51b815260206004820152601560248201527422a9292fa12a27a5a2a72fa120a22fa1a0a62622a960591b604482015260640161092f565b6111d084848461433c565b336001600160a01b0385161480159061120e57506001600160a01b038416600090815260086020908152604080832033845290915290205460001914155b1561128f576001600160a01b03841660009081526008602090815260408083203384529091529020546112419083613f0a565b6001600160a01b038581166000908152600860209081526040808320338085529083529281902085905551938452918616929091600080516020615e4d833981519152910160405180910390a35b5060019392505050565b60006112a485613d06565b6112ad84613d06565b6001600160a01b038086166000908152601060205260408082209287168252902060038083015460028085015492840154908401546112ef939190898961444e565b979650505050505050565b600c546201000090046001600160a01b0316331461134f5760405162461bcd60e51b815260206004820152601260248201527122a9292fa727aa2fa1a7a72a2927a62622a960711b604482015260640161092f565b611364620f4240670de0b6b3a7640000615b93565b8110156113a15760405162461bcd60e51b815260206004820152600b60248201526a4552525f4d494e5f46454560a81b604482015260640161092f565b6113b4600a670de0b6b3a7640000615b93565b8111156113f15760405162461bcd60e51b815260206004820152600b60248201526a4552525f4d41585f46454560a81b604482015260640161092f565b600181905560408051338152602081018390527fbca0d601c32979eebac4e8cd06375b6e45d39af80fc06a33f366425b450dfb6991015b60405180910390a150565b6001600160a01b03821660009081526010602090815260408083208151608081018352815460ff16151581526001820154938101939093526002810154918301829052600301546060830181905260095460115461149393919087614500565b949350505050565b6001600160a01b03821660009081526010602090815260408083208151608081018352815460ff16151581526001820154938101939093526002810154918301829052600301546060830181905260095460115461149393919087613f9d565b600c54600090610100900460ff16156115265760405162461bcd60e51b815260040161092f90615b17565b600c805461ff001916610100179055600e54600160a01b900460ff1661155e5760405162461bcd60e51b815260040161092f90615b3c565b61156784613d06565b6001600160a01b03841660009081526010602052604090206003810154600282015460095460115461159c9392919088613f9d565b9150828210156115be5760405162461bcd60e51b815260040161092f90615cd4565b6001600160a01b03851660009081526010602052604090206003908101546115f2916109ad90670de0b6b3a7640000615b93565b8211156116115760405162461bcd60e51b815260040161092f90615bbf565b61161f816003015483613f0a565b600382015560006116308582613d61565b604080518581524260208201529192506001600160a01b038816913391600080516020615dcd833981519152910160405180910390a3604051858152600080516020615e0d8339815191529060200160405180910390a16116913386613f67565b61169e610add8683613f0a565b6002546116b4906001600160a01b031682613f7a565b6116bf863385613f84565b6003546000906001600160a01b03888116911614156116ea57506004546001600160a01b03166116f8565b506003546001600160a01b03165b60125460035460405163efd4810360e01b81526001600160a01b039283169263efd48103926117309291169085908b90600401615c39565b602060405180830381865afa15801561174d573d6000803e3d6000fd5b505050506040513d601f19601f820116820180604052508101906117719190615c5d565b15610d5057600380546001600160a01b031660009081526010602052604081209182015460028301546009546011546117ad939291908c613f9d565b90506117bd826003015482613f0a565b60038301556117cd886000613d61565b600c54604080518481524260208201529296506001600160a01b0386811693620100009093041691600080516020615dcd833981519152910160405180910390a3600c5461182a906201000090046001600160a01b031689613f67565b611837610add8986613f0a565b60025461184d906001600160a01b031685613f7a565b600c5461186b9084906201000090046001600160a01b031683613f84565b6012546003546040516307b01ab360e41b81526001600160a01b039182166004820152858216602482015260448101849052606481018b9052911690637b01ab3090608401600060405180830381600087803b1580156118ca57600080fd5b505af11580156118de573d6000803e3d6000fd5b50505050600080516020615ded83398151915288604051610d4591815260200190565b600c54610100900460ff16156119295760405162461bcd60e51b815260040161092f90615b17565b600c805461ff001916610100179055600e54600160a01b900460ff166119615760405162461bcd60e51b815260040161092f90615b3c565b600061196c60095490565b9050600061197a8583614584565b9050806119995760405162461bcd60e51b815260040161092f90615bea565b60005b600f54811015611ae1576000600f82815481106119bb576119bb615cfb565b60009182526020808320909101546001600160a01b031680835260109091526040822060030154909250906119f08583613d61565b905080611a0f5760405162461bcd60e51b815260040161092f90615bea565b878785818110611a2157611a21615cfb565b90506020020135811115611a475760405162461bcd60e51b815260040161092f90615c13565b6001600160a01b038316600090815260106020526040902060030154611a6d908261469c565b6001600160a01b038416600081815260106020526040908190206003019290925590513390600080516020615e2d83398151915290611ab89085904290918252602082015260400190565b60405180910390a3611acb8333836146ee565b5050508080611ad990615d11565b91505061199c565b50611aeb85614703565b611af53386613f7a565b604051858152600080516020615e0d8339815191529060200160405180910390a15050600c805461ff0019169055505050565b600c54600090610100900460ff1615611b535760405162461bcd60e51b815260040161092f90615b17565b600c805461ff001916610100179055600e54600160a01b900460ff16611b8b5760405162461bcd60e51b815260040161092f90615b3c565b611b9484613d06565b6001600160a01b038416600090815260106020526040902060030154611bc7906109b86002670de0b6b3a7640000615b93565b831115611be65760405162461bcd60e51b815260040161092f90615d2c565b6001600160a01b038416600090815260106020526040902060038101546002820154600954601154611c1b9392919088614500565b915082821015611c3d5760405162461bcd60e51b815260040161092f90615cd4565b611c4b81600301548561469c565b6003820155604080518581524260208201526001600160a01b038716913391600080516020615e2d833981519152910160405180910390a3604051828152600080516020615e0d8339815191529060200160405180910390a1611cad82614703565b611cb73383613f7a565b611cc28533866146ee565b600380546001600160a01b031660009081526010602052604081209182015460028301546009546011548493611cfc93909290918961470c565b6003549091506001600160a01b0389811691161415611d28576004546001600160a01b03169150611d37565b6003546001600160a01b031691505b6012546003546040516326b1f01f60e01b81526001600160a01b03928316926326b1f01f92611d6f9291169086908690600401615c39565b602060405180830381865afa158015611d8c573d6000803e3d6000fd5b505050506040513d601f19601f82011682018060405250810190611db09190615c5d565b15611ed3576012546003546040516399039fcf60e01b81526001600160a01b03928316926399039fcf92611ded9291169086908690600401615c39565b600060405180830381600087803b158015611e0757600080fd5b505af1158015611e1b573d6000803e3d6000fd5b50505050611e2d83600301548261469c565b6003840155600c54604080518381524260208201526001600160a01b03858116936201000090041691600080516020615e2d833981519152910160405180910390a3604051858152600080516020615ded8339815191529060200160405180910390a1611e9985614703565b600c54611eb5906201000090046001600160a01b031686613f7a565b600c54611ed39083906201000090046001600160a01b0316836146ee565b50505050600c805461ff00191690559392505050565b3360009081526008602090815260408083206001600160a01b038616845290915281205480831115611f3e573360009081526008602090815260408083206001600160a01b0388168452909152812055611f6d565b611f488184613f0a565b3360009081526008602090815260408083206001600160a01b03891684529091529020555b3360008181526008602090815260408083206001600160a01b03891680855290835292819020549051908152919291600080516020615e4d833981519152910160405180910390a35060019392505050565b600c54600090610100900460ff1615611fea5760405162461bcd60e51b815260040161092f90615b17565b600c805461ff001916610100179055600e54600160a01b900460ff166120225760405162461bcd60e51b815260040161092f90615b3c565b61202b84613d06565b6001600160a01b038416600090815260106020526040902060038101546002820154600954601154612060939291908861470c565b91508161207f5760405162461bcd60e51b815260040161092f90615bea565b8282111561209f5760405162461bcd60e51b815260040161092f90615c13565b6001600160a01b0385166000908152601060205260409020600301546120d2906109b86002670de0b6b3a7640000615b93565b8211156120f15760405162461bcd60e51b815260040161092f90615d2c565b6120ff81600301548361469c565b6003820155604080518381524260208201526001600160a01b038716913391600080516020615e2d833981519152910160405180910390a3604051848152600080516020615e0d8339815191529060200160405180910390a161216184614703565b61216b3385613f7a565b6121768533846146ee565b600380546001600160a01b031660009081526010602052604081209182015460028301546009546011546121ad939291908a61470c565b6003549091506000906001600160a01b03898116911614156121db57506004546001600160a01b03166121e9565b506003546001600160a01b03165b6012546003546040516326b1f01f60e01b81526001600160a01b03928316926326b1f01f926122219291169085908790600401615c39565b602060405180830381865afa15801561223e573d6000803e3d6000fd5b505050506040513d601f19601f820116820180604052508101906122629190615c5d565b15611ed3576012546003546040516399039fcf60e01b81526001600160a01b03928316926399039fcf9261229f9291169085908790600401615c39565b600060405180830381600087803b1580156122b957600080fd5b505af11580156122cd573d6000803e3d6000fd5b505050506122df83600301548361469c565b6003840155600c54604080518481524260208201526001600160a01b03848116936201000090041691600080516020615e2d833981519152910160405180910390a361232a87614703565b600c54612346906201000090046001600160a01b031688613f7a565b600c546123649082906201000090046001600160a01b0316846146ee565b604051878152600080516020615ded8339815191529060200160405180910390a150505050600c805461ff00191690559392505050565b60025460048054604051637c0aa57760e11b81526001600160a01b0391821692810192909252600092169063f8154aee90602401602060405180830381865afa1580156123ec573d6000803e3d6000fd5b505050506040513d601f19601f820116820180604052508101906124109190615d56565b905090565b600d546001600160a01b031633146124675760405162461bcd60e51b815260206004820152601560248201527427a7262c9026a0a925a2aa1021a7a62622a1aa27a960591b604482015260640161092f565b6001600160a01b0381166124bd5760405162461bcd60e51b815260206004820152601d60248201527f496e76616c6964205f6e6577436f6c6c6563746f722061646472657373000000604482015260640161092f565b600d80546001600160a01b0319166001600160a01b0383169081179091556040805133815260208101929092527f82aaf1a11850bc9b5eb1b7db8b4ad08629911d970a4d7539875938c4017e59b89101611428565b610eef620f4240670de0b6b3a7640000615b93565b6000612531612a9d565b905060005b81518110156126b55760006006600084848151811061255757612557615cfb565b60200260200101516001600160a01b03166001600160a01b0316815260200190815260200160002054905060006006600085858151811061259a5761259a615cfb565b60200260200101516001600160a01b03166001600160a01b0316815260200190815260200160002081905550612612600d60009054906101000a90046001600160a01b0316828585815181106125f2576125f2615cfb565b60200260200101516001600160a01b03166147a69092919063ffffffff16565b7fbaf1ab77be65c7abf8fcd922bfcf0a749f556ac1a4cdf39c126ffaa1851edb5633600d60009054906101000a90046001600160a01b031685858151811061265c5761265c615cfb565b60200260200101518460405161269a94939291906001600160a01b039485168152928416602084015292166040820152606081019190915260800190565b60405180910390a150806126ad81615d11565b915050612536565b5050565b610eef64e8d4a51000670de0b6b3a7640000615b93565b600c54600090610100900460ff16156126fb5760405162461bcd60e51b815260040161092f90615b17565b5060115490565b610eef670de0b6b3a76400006064615cb5565b600c54600090610100900460ff16156127405760405162461bcd60e51b815260040161092f90615b17565b61274982613d06565b506001600160a01b0381166000908152601060205260409020600201545b919050565b6060600b8054610d7490615c7a565b61278e6003670de0b6b3a7640000615b93565b610eef906001615ba7565b6001600160a01b03821660009081526010602090815260408083208151608081018352815460ff16151581526001820154938101939093526002810154918301829052600301546060830181905260095460115461149393919087613e46565b600061280633848461433c565b50600192915050565b600c54610100900460ff16156128375760405162461bcd60e51b815260040161092f90615b17565b600c805461ff001916610100179055600e54600160a01b900460ff1661286f5760405162461bcd60e51b815260040161092f90615b3c565b600061287a60095490565b90506000612889856000613d61565b905060006128978683613f0a565b905060006128a58285614584565b9050806128c45760405162461bcd60e51b815260040161092f90615bea565b6128ce3388613f67565b6002546128e4906001600160a01b031684613f7a565b6128ed82613f71565b60005b600f54811015612a35576000600f828154811061290f5761290f615cfb565b60009182526020808320909101546001600160a01b031680835260109091526040822060030154909250906129448583613d61565b9050806129635760405162461bcd60e51b815260040161092f90615bea565b89898581811061297557612975615cfb565b9050602002013581101561299b5760405162461bcd60e51b815260040161092f90615cd4565b6001600160a01b0383166000908152601060205260409020600301546129c19082613f0a565b6001600160a01b038416600081815260106020526040908190206003019290925590513390600080516020615dcd83398151915290612a0c9085904290918252602082015260400190565b60405180910390a3612a1f833383613f84565b5050508080612a2d90615d11565b9150506128f0565b50604051878152600080516020615e0d8339815191529060200160405180910390a15050600c805461ff00191690555050505050565b610eef600a670de0b6b3a7640000615b93565b6001612a93670de0b6b3a76400006002615cb5565b610eef9190615d6f565b600c54606090610100900460ff1615612ac85760405162461bcd60e51b815260040161092f90615b17565b600e54600160a01b900460ff16612af15760405162461bcd60e51b815260040161092f90615b3c565b600f805480602002602001604051908101604052809291908181526020018280548015610ded57602002820191906000526020600020905b81546001600160a01b03168152600190910190602001808311612b29575050505050905090565b601254600090600160a01b900460ff1615612bad5760405162461bcd60e51b815260206004820152601760248201527f4552525f414c52454144595f494e495449414c495a4544000000000000000000604482015260640161092f565b6001600160a01b038916612c035760405162461bcd60e51b815260206004820152601e60248201527f4552525f494e56414c49445f434f4e54524f4c4c45525f414444524553530000604482015260640161092f565b6001600160a01b038816612c595760405162461bcd60e51b815260206004820152601b60248201527f4552525f494e56414c49445f464143544f52595f414444524553530000000000604482015260640161092f565b612c6e620f4240670de0b6b3a7640000615b93565b87876000818110612c8157612c81615cfb565b905060200201351015612cc45760405162461bcd60e51b815260206004820152600b60248201526a4552525f4d494e5f46454560a81b604482015260640161092f565b612cd7600a670de0b6b3a7640000615b93565b87876000818110612cea57612cea615cfb565b905060200201351115612d2d5760405162461bcd60e51b815260206004820152600b60248201526a4552525f4d41585f46454560a81b604482015260640161092f565b612db38989898980806020026020016040519081016040528093929190818152602001838360200280828437600092019190915250506040805180820182528c93508b9250908a9060029083908390808284376000920191909152505060408051808201825291508a906002908390839080828437600092019190915250614809915050565b9998505050505050505050565b600c546000908190610100900460ff1615612ded5760405162461bcd60e51b815260040161092f90615b17565b600c805461ff001916610100179055600e54600160a01b900460ff16612e255760405162461bcd60e51b815260040161092f90615b3c565b612e448460005b602002016020810190612e3f9190615863565b613d06565b612e4f846001612e2c565b6000601081612e616020880188615863565b6001600160a01b03168152602081019190915260400160009081209150601081876001602002016020810190612e979190615863565b6001600160a01b03166001600160a01b031681526020019081526020016000209050612ed682600301546002670de0b6b3a76400006109b89190615b93565b85351115612ef65760405162461bcd60e51b815260040161092f90615d2c565b6000612f2c83600301548460020154846003015485600201548a600360048110612f2257612f22615cfb565b6020020135614067565b90506040860135811115612f785760405162461bcd60e51b81526020600482015260136024820152724552525f4241445f4c494d49545f505249434560681b604482015260640161092f565b6040805160808101825260038581015482526002808701546020808501919091529186015493830193909352918401546060820152600091612fcf9082908a3590612fc5908d018d615863565b60608c0135614947565b90975091506020880135871015612ff85760405162461bcd60e51b815260040161092f90615cd4565b61300685600301548361469c565b856003018190555061301c846003015488613f0a565b846003018190555061304e85600301548660020154866003015487600201548c600360048110612f2257612f22615cfb565b9550828610156130705760405162461bcd60e51b815260040161092f90615bea565b60408801358611156130b65760405162461bcd60e51b815260206004820152600f60248201526e4552525f4c494d49545f505249434560881b604482015260640161092f565b6130c1883588614584565b8311156130e05760405162461bcd60e51b815260040161092f90615bea565b6130f060408a0160208b01615863565b6001600160a01b031661310660208b018b615863565b604080518b358152602081018b9052428183015290516001600160a01b03929092169133917f50ef2fc267012b5c84b56835f16ffd5331ac5a151a3760d74908721ba78b0efe919081900360600190a461316e61316660208b018b615863565b338a356146ee565b60006131988935613193816109b8670de0b6b3a76400008e60035b6020020135613f0a565b613f0a565b9050606089013515613233576131dc8a60025b6020020160208101906131be9190615863565b826131cc60208e018e615863565b6001600160a01b031691906147a6565b7f73412e11c89feeef4b84e0900c5de25904e834da8f2e1b3cddfd55de4cb6ecae61320d60608c0160408d01615863565b61321a60208d018d615863565b8360405161322a93929190615c39565b60405180910390a15b61324d61324660408c0160208d01615863565b338a613f84565b505050505050600c805461ff001916905590939092509050565b6060806000613274612a9d565b90506000815167ffffffffffffffff81111561329257613292615d86565b6040519080825280602002602001820160405280156132bb578160200160208202803683370190505b5090506000825167ffffffffffffffff8111156132da576132da615d86565b604051908082528060200260200182016040528015613303578160200160208202803683370190505b50905060005b83518110156133cc5783818151811061332457613324615cfb565b602002602001015183828151811061333e5761333e615cfb565b60200260200101906001600160a01b031690816001600160a01b0316815250506006600085838151811061337457613374615cfb565b60200260200101516001600160a01b03166001600160a01b03168152602001908152602001600020548282815181106133af576133af615cfb565b6020908102919091010152806133c481615d11565b915050613309565b509094909350915050565b60608060006133e4612a9d565b90506000815167ffffffffffffffff81111561340257613402615d86565b60405190808252806020026020018201604052801561342b578160200160208202803683370190505b5090506000825167ffffffffffffffff81111561344a5761344a615d86565b604051908082528060200260200182016040528015613473578160200160208202803683370190505b50905060005b83518110156133cc5783818151811061349457613494615cfb565b60200260200101518382815181106134ae576134ae615cfb565b60200260200101906001600160a01b031690816001600160a01b031681525050600560008583815181106134e4576134e4615cfb565b60200260200101516001600160a01b03166001600160a01b031681526020019081526020016000205482828151811061351f5761351f615cfb565b60209081029190910101528061353481615d11565b915050613479565b600c546000908190610100900460ff16156135695760405162461bcd60e51b815260040161092f90615b17565b600c805461ff001916610100179055600e54600160a01b900460ff166135a15760405162461bcd60e51b815260040161092f90615b3c565b6135ac846000612e2c565b6135b7846001612e2c565b60006010816135c96020880188615863565b6001600160a01b031681526020810191909152604001600090812091506010818760016020020160208101906135ff9190615863565b6001600160a01b03166001600160a01b03168152602001908152602001600020905061363e81600301546003670de0b6b3a76400006109ad9190615b93565b602086013511156136615760405162461bcd60e51b815260040161092f90615bbf565b600061368d83600301548460020154846003015485600201548a600360048110612f2257612f22615cfb565b905060408601358111156136d95760405162461bcd60e51b81526020600482015260136024820152724552525f4241445f4c494d49545f505249434560681b604482015260640161092f565b60408051608081018252600385810154825260028087015460208085019190915291860154938301939093529184015460608201526000916137329082908a81013590613728908d018d615863565b60608c0135614b5f565b909750915087358711156137585760405162461bcd60e51b815260040161092f90615c13565b61376685600301548361469c565b60038087019190915584015461377e90896001613189565b84600301819055506137b085600301548660020154866003015487600201548c600360048110612f2257612f22615cfb565b9550828610156137d25760405162461bcd60e51b815260040161092f90615bea565b60408801358611156138185760405162461bcd60e51b815260206004820152600f60248201526e4552525f4c494d49545f505249434560881b604482015260640161092f565b6138268760208a0135614584565b8311156138455760405162461bcd60e51b815260040161092f90615bea565b61385560408a0160208b01615863565b6001600160a01b031661386b60208b018b615863565b6001600160a01b0316337f50ef2fc267012b5c84b56835f16ffd5331ac5a151a3760d74908721ba78b0efe8a8c6001604080519384526020918202929092013590830152429082015260600160405180910390a46138d66138cf60208b018b615863565b33896146ee565b60006138f488613193816109b8670de0b6b3a76400008e6003613189565b90506060890135156139625761390b8a60026131ab565b7f73412e11c89feeef4b84e0900c5de25904e834da8f2e1b3cddfd55de4cb6ecae61393c60608c0160408d01615863565b61394960208d018d615863565b8360405161395993929190615c39565b60405180910390a15b61324d61397560408c0160208d01615863565b3360208c0135613f84565b600061398b85613d06565b61399484613d06565b6001600160a01b038086166000908152601060205260408082209287168252902060038083015460028085015492840154908401546112ef9391908989614d83565b600c54606090610100900460ff1615612af15760405162461bcd60e51b815260040161092f90615b17565b3360009081526008602090815260408083206001600160a01b0386168452909152812054613a2f908361469c565b3360008181526008602090815260408083206001600160a01b03891680855290835292819020859055519384529092600080516020615e4d8339815191529101610eca565b610eef6002670de0b6b3a7640000615b93565b600c54600090610100900460ff1615613ab25760405162461bcd60e51b815260040161092f90615b17565b613abb82613d06565b6001600160a01b038216600090815260106020526040902060020154601154610e7a908290614584565b6000613aef612a9d565b905060005b81518110156126b557600060056000848481518110613b1557613b15615cfb565b60200260200101516001600160a01b03166001600160a01b03168152602001908152602001600020549050600060056000858581518110613b5857613b58615cfb565b60200260200101516001600160a01b03166001600160a01b0316815260200190815260200160002081905550613bb0600e60009054906101000a90046001600160a01b0316828585815181106125f2576125f2615cfb565b7fe8e83bbe0f2a413d8e79dcb9ef4143cd967143e9d6b93c91d002c7eefdc507cc33600e60009054906101000a90046001600160a01b0316858581518110613bfa57613bfa615cfb565b602002602001015184604051613c3894939291906001600160a01b039485168152928416602084015292166040820152606081019190915260800190565b60405180910390a15080613c4b81615d11565b915050613af4565b600c54600090610100900460ff1615613c7e5760405162461bcd60e51b815260040161092f90615b17565b613c8782613d06565b506001600160a01b031660009081526010602052604090206003015490565b6001600160a01b03821660009081526010602090815260408083208151608081018352815460ff1615158152600182015493810193909352600281015491830182905260030154606083018190526009546011546114939391908761470c565b6001600160a01b03811660009081526010602052604090205460ff16613d5e5760405162461bcd60e51b815260206004820152600d60248201526c11549497d393d517d093d55391609a1b604482015260640161092f565b50565b600080613d6e8385615cb5565b9050831580613d85575082613d838583615b93565b145b613dc45760405162461bcd60e51b815260206004820152601060248201526f4552525f4d554c5f4f564552464c4f5760801b604482015260640161092f565b6000613dd96002670de0b6b3a7640000615b93565b613de39083615ba7565b905081811015613e285760405162461bcd60e51b815260206004820152601060248201526f4552525f4d554c5f4f564552464c4f5760801b604482015260640161092f565b6000613e3c670de0b6b3a764000083615b93565b9695505050505050565b600080613e538685614584565b90506000613e69670de0b6b3a764000083613f0a565b90506000613e7982600154613d61565b90506000613e9886613e93670de0b6b3a764000085613f0a565b614584565b90506000613ea68b83613f0a565b90506000613eb4828d614584565b90506000613ec28288614e37565b90506000613ed0828d613d61565b90506000613ede8d83613f0a565b9050613ef781613e93670de0b6b3a76400006000613f0a565b9f9e505050505050505050505050505050565b6000806000613f198585614f58565b915091508015613f5f5760405162461bcd60e51b81526020600482015260116024820152704552525f5355425f554e444552464c4f5760781b604482015260640161092f565b509392505050565b6126b58282614f8f565b613d5e81614f9a565b6126b58282615066565b613f986001600160a01b03841683836147a6565b505050565b600080613faa8685614584565b90506000613fc5846109b8670de0b6b3a76400006000613f0a565b90506000613fd38783613f0a565b90506000613fe18289614584565b9050600061400082613ffb670de0b6b3a764000088614584565b614e37565b9050600061400e828d613d61565b9050600061401c8d83613f0a565b9050600061403d614035670de0b6b3a76400008a613f0a565b600154613d61565b9050614055826109b8670de0b6b3a764000084613f0a565b9e9d5050505050505050505050505050565b6000806140748787614584565b905060006140828686614584565b905060006140908383614584565b905060006140d9670de0b6b3a7640000613e93670de0b6b3a7640000896000546140b861239b565b6001546140c59190615ba7565b6140cf9190615ba7565b6131939190615ba7565b90506140e58282613d61565b9a9950505050505050505050565b600c546201000090046001600160a01b031633146141485760405162461bcd60e51b815260206004820152601260248201527122a9292fa727aa2fa1a7a72a2927a62622a960711b604482015260640161092f565b6001600160a01b03831660009081526010602052604090205460ff16156141a05760405162461bcd60e51b815260206004820152600c60248201526b11549497d254d7d093d5539160a21b604482015260640161092f565b600e54600160a01b900460ff16156141ed5760405162461bcd60e51b815260206004820152601060248201526f11549497d254d7d1925390531256915160821b604482015260640161092f565b600f546002116142305760405162461bcd60e51b815260206004820152600e60248201526d4552525f4d41585f544f4b454e5360901b604482015260640161092f565b604080516080810182526001808252600f805460208085019182526000858701818152606087018281526001600160a01b038c1680845260109094529782209651875460ff1916901515178755925186860155915160028601559451600390940193909355805491820181559091527f8d1108e10bcb7c27dddfc02ed9d693a074039d026cf4ea4240b40f7d581ac8020180546001600160a01b0319169091179055613f98838383615071565b600e805460ff60a01b1916600160a01b179055600c805460ff60b01b1916600160b01b17905561431e614319670de0b6b3a76400006064615cb5565b614703565b61433a33614335670de0b6b3a76400006064615cb5565b613f7a565b565b6001600160a01b03831660009081526007602052604090205481111561439b5760405162461bcd60e51b815260206004820152601460248201527311549497d25394d551919250d251539517d0905360621b604482015260640161092f565b6001600160a01b0383166000908152600760205260409020546143be9082613f0a565b6001600160a01b0380851660009081526007602052604080822093909355908416815220546143ed908261469c565b6001600160a01b0380841660008181526007602052604090819020939093559151908516907fddf252ad1be2c89b69c2b068fc378daa952ba7f163c4a11628f55a4df523b3ef906144419085815260200190565b60405180910390a3505050565b60008061445b8786614584565b9050600080548461446a61239b565b6001546144779190615ba7565b6144819190615ba7565b61448b9190615ba7565b905060006144a1670de0b6b3a764000083613f0a565b90506144ad8682613d61565b905060006144bf8b613e938d8561469c565b905060006144cd8286614e37565b905060006144e3670de0b6b3a764000083613f0a565b90506144ef8b82613d61565b9d9c50505050505050505050505050565b60008061450d8685614584565b90506000614526614035670de0b6b3a764000084613f0a565b90506000614540856109b8670de0b6b3a764000085613f0a565b9050600061454e8a8361469c565b9050600061455c828c614584565b9050600061456a8287614e37565b90506000614578828c613d61565b90506144ef818c613f0a565b6000816145c25760405162461bcd60e51b815260206004820152600c60248201526b4552525f4449565f5a45524f60a01b604482015260640161092f565b60006145d6670de0b6b3a764000085615cb5565b90508315806145f55750670de0b6b3a76400006145f38583615b93565b145b6146345760405162461bcd60e51b815260206004820152601060248201526f11549497d1125597d25395115493905360821b604482015260640161092f565b6000614641600285615b93565b61464b9083615ba7565b9050818110156146905760405162461bcd60e51b815260206004820152601060248201526f11549497d1125597d25395115493905360821b604482015260640161092f565b6000613e3c8583615b93565b6000806146a98385615ba7565b905083811015610e7a5760405162461bcd60e51b815260206004820152601060248201526f4552525f4144445f4f564552464c4f5760801b604482015260640161092f565b613f986001600160a01b0384168330846152c1565b613d5e816152e8565b6000806147198685614584565b90506000614727868561469c565b905060006147358288614584565b9050600061474b670de0b6b3a764000085614584565b905060006147598383614e37565b90506000614767828d613d61565b90506000614775828e613f0a565b9050600061478e614035670de0b6b3a76400008a613f0a565b905061405582613e93670de0b6b3a764000084613f0a565b6040516001600160a01b038316602482015260448101829052613f9890849063a9059cbb60e01b906064015b60408051601f198184030181529190526020810180516001600160e01b03166001600160e01b031990931692909217909152615357565b600c805462010000600160b01b031916620100006001600160a01b038a81169190910291909117909155600280546001600160a01b03191691881691909117905584516000908690829061485f5761485f615cfb565b60200260200101516001819055508560018151811061488057614880615cfb565b602090810291909101810151600055600c8054961515600160b01b0260ff60b01b199097169690961795869055600e80548551600380546001600160a01b039283166001600160a01b03199182161790915596840151600480549183169189169190911790558551600d805491831691891691909117905594909201518416951515600160a01b908102959095166001600160a81b0319928316179590951790945550601280549093166201000090940416929092178217908190550460ff169392505050565b6000808061496487600160200201518860035b6020020151614584565b9050600061498487613193896109b8670de0b6b3a764000061319361239b565b6001600160a01b0387166000908152600560205260409020549091506149aa908261469c565b60056000886001600160a01b03166001600160a01b031681526020019081526020016000208190555060006149f1886131938a6109b8670de0b6b3a7640000600054613f0a565b6001600160a01b038816600090815260066020526040902054909150614a17908261469c565b6001600160a01b03881660009081526006602052604081209190915580548790614a3f61239b565b600154614a4c9190615ba7565b614a569190615ba7565b614a609190615ba7565b90507f90d9f1d0641138b6407ac37bea3a905d63a371c2d91a484f68d59924634d4ef3614a9f8a6131938c6109b8670de0b6b3a7640000600154613f0a565b604080519182526020820186905281018490526001600160a01b038a16606082015260800160405180910390a16000614ae0670de0b6b3a764000083613f0a565b9050614aec8a82613d61565b8b51909150600090614b0290613e93818561469c565b90506000614b108288614e37565b90506000614b26670de0b6b3a764000083613f0a565b9050614b398e6002602002015182613d61565b995089614b4a8e613193898b615ba7565b99509950505050505050505094509492505050565b60008080614b76876003602002015188600161495a565b90506000614b8b886002602002015188613f0a565b90506000614ba0896002602002015183614584565b90506000614bae8285614e37565b9050614bc281670de0b6b3a7640000613f0a565b90506000805488614bd161239b565b600154614bde9190615ba7565b614be89190615ba7565b614bf29190615ba7565b8b51909150614c1790614c059084613d61565b613e93670de0b6b3a764000084613f0a565b96506000614c37886131938a6109b8670de0b6b3a764000061319361239b565b6001600160a01b038b16600090815260056020526040902054909150614c5d908261469c565b600560008c6001600160a01b03166001600160a01b03168152602001908152602001600020819055506000614ca4896131938b6109b8670de0b6b3a7640000600054613f0a565b6001600160a01b038c16600090815260066020526040902054909150614cca908261469c565b6001600160a01b038c166000908152600660205260409020558c51614d0790614cf39086613d61565b613e93670de0b6b3a7640000600154613f0a565b97507f90d9f1d0641138b6407ac37bea3a905d63a371c2d91a484f68d59924634d4ef3614d468a6131938c6109b8670de0b6b3a7640000600154613f0a565b604080519182526020820185905281018390526001600160a01b038d16606082015260800160405180910390a15050505050505094509492505050565b600080614d908588614584565b90506000614d9e8786613f0a565b90506000614dac8883614584565b90506000614dba8285614e37565b9050614dce81670de0b6b3a7640000613f0a565b90506000805487614ddd61239b565b600154614dea9190615ba7565b614df49190615ba7565b614dfe9190615ba7565b9050614e12670de0b6b3a764000082613f0a565b9550614e27614e218d84613d61565b87614584565b9c9b505050505050505050505050565b60006001831015614e825760405162461bcd60e51b81526020600482015260156024820152744552525f42504f575f424153455f544f4f5f4c4f5760581b604482015260640161092f565b6001614e97670de0b6b3a76400006002615cb5565b614ea19190615d6f565b831115614ee95760405162461bcd60e51b815260206004820152601660248201527508aa4a4be84a09eaebe8482a68abea89e9ebe90928e960531b604482015260640161092f565b6000614ef483615429565b90506000614f028483613f0a565b90506000614f1886614f1385615447565b61545b565b905081614f29579250610ed6915050565b6000614f4c8784614f476402540be400670de0b6b3a7640000615b93565b6154cf565b90506112ef8282613d61565b600080828410614f7757614f6c8385615d6f565b600091509150614f88565b614f818484615d6f565b6001915091505b9250929050565b6126b582308361433c565b30600090815260076020526040902054811115614ff05760405162461bcd60e51b815260206004820152601460248201527311549497d25394d551919250d251539517d0905360621b604482015260640161092f565b3060009081526007602052604090205461500a9082613f0a565b306000908152600760205260409020556009546150279082613f0a565b60095560405181815260009030907fddf252ad1be2c89b69c2b068fc378daa952ba7f163c4a11628f55a4df523b3ef906020015b60405180910390a350565b6126b530838361433c565b670de0b6b3a76400008110156150ba5760405162461bcd60e51b815260206004820152600e60248201526d11549497d3525397d5d15251d21560921b604482015260640161092f565b6150cd670de0b6b3a76400006032615cb5565b81111561510d5760405162461bcd60e51b815260206004820152600e60248201526d11549497d3505617d5d15251d21560921b604482015260640161092f565b61512464e8d4a51000670de0b6b3a7640000615b93565b8210156151655760405162461bcd60e51b815260206004820152600f60248201526e4552525f4d494e5f42414c414e434560881b604482015260640161092f565b6001600160a01b038316600090815260106020526040902060020154808211156152015761519e6011546151998484613f0a565b61469c565b6011556151b4670de0b6b3a76400006032615cb5565b60115411156151fc5760405162461bcd60e51b815260206004820152601460248201527311549497d3505617d513d5105317d5d15251d21560621b604482015260640161092f565b61521d565b8082101561521d576152196011546131938385613f0a565b6011555b6001600160a01b0384166000908152601060205260409020600281018390556003018054908490558084111561526657615261853361525c8785613f0a565b6146ee565b6152ba565b808410156152ba57600061527a8286613f0a565b90506000615289826000613d61565b905061529f873361529a8585613f0a565b613f84565b6002546152b79088906001600160a01b031683613f84565b50505b5050505050565b6152e2846323b872dd60e01b8585856040516024016147d293929190615c39565b50505050565b30600090815260076020526040902054615302908261469c565b3060009081526007602052604090205560095461531f908261469c565b60095560405181815230906000907fddf252ad1be2c89b69c2b068fc378daa952ba7f163c4a11628f55a4df523b3ef9060200161505b565b60006153ac826040518060400160405280602081526020017f5361666545524332303a206c6f772d6c6576656c2063616c6c206661696c6564815250856001600160a01b03166155bf9092919063ffffffff16565b805190915015613f9857808060200190518101906153ca9190615c5d565b613f985760405162461bcd60e51b815260206004820152602a60248201527f5361666545524332303a204552433230206f7065726174696f6e20646964206e6044820152691bdd081cdd58d8d9595960b21b606482015260840161092f565b6000670de0b6b3a764000061543d83615447565b610ed69190615cb5565b6000610ed6670de0b6b3a764000083615b93565b6000828161546a600285615d9c565b61547c57670de0b6b3a764000061547e565b815b905061548b600285615b93565b93505b83156114935761549e8283613d61565b91506154ab600285615d9c565b156154bd576154ba8183613d61565b90505b6154c8600285615b93565b935061548e565b60008281806154e687670de0b6b3a7640000614f58565b9092509050670de0b6b3a764000080600060015b8884106155b0576000615515670de0b6b3a764000083615cb5565b90506000806155358a61553085670de0b6b3a7640000613f0a565b614f58565b91509150615547876109b8848c613d61565b96506155538784614584565b965086615562575050506155b0565b871561556c579315935b8015615576579315935b841561558d576155868688613f0a565b955061559a565b615597868861469c565b95505b50505080806155a890615d11565b9150506154fa565b50909998505050505050505050565b6060611493848460008585843b6156185760405162461bcd60e51b815260206004820152601d60248201527f416464726573733a2063616c6c20746f206e6f6e2d636f6e7472616374000000604482015260640161092f565b600080866001600160a01b031685876040516156349190615db0565b60006040518083038185875af1925050503d8060008114615671576040519150601f19603f3d011682016040523d82523d6000602084013e615676565b606091505b50915091506112ef82828660608315615690575081610e7a565b8251156156a05782518084602001fd5b8160405162461bcd60e51b815260040161092f9190615730565b80356001600160a01b038116811461276757600080fd5b6000806000606084860312156156e657600080fd5b6156ef846156ba565b95602085013595506040909401359392505050565b60005b8381101561571f578181015183820152602001615707565b838111156152e25750506000910152565b602081526000825180602084015261574f816040850160208701615704565b601f01601f19169190910160400192915050565b60008060006060848603121561577857600080fd5b615781846156ba565b925061578f602085016156ba565b9150604084013590509250925092565b600080604083850312156157b257600080fd5b6157bb836156ba565b946020939093013593505050565b60008060008060008060c087890312156157e257600080fd5b6157eb876156ba565b95506020870135945060408701359350615807606088016156ba565b92506080870135915060a087013590509295509295509295565b6000806000806080858703121561583757600080fd5b615840856156ba565b935061584e602086016156ba565b93969395505050506040820135916060013590565b60006020828403121561587557600080fd5b610e7a826156ba565b60006020828403121561589057600080fd5b5035919050565b60008083601f8401126158a957600080fd5b50813567ffffffffffffffff8111156158c157600080fd5b6020830191508360208260051b8501011115614f8857600080fd5b6000806000604084860312156158f157600080fd5b83359250602084013567ffffffffffffffff81111561590f57600080fd5b61591b86828701615897565b9497909650939450505050565b600081518084526020808501945080840160005b838110156159615781516001600160a01b03168752958201959082019060010161593c565b509495945050505050565b602081526000610e7a6020830184615928565b8015158114613d5e57600080fd5b8060408101831015610ed657600080fd5b600080600080600080600080610120898b0312156159bb57600080fd5b6159c4896156ba565b97506159d260208a016156ba565b9650604089013567ffffffffffffffff8111156159ee57600080fd5b6159fa8b828c01615897565b9097509550506060890135615a0e8161597f565b93506080890135615a1e8161597f565b9250615a2d8a60a08b0161598d565b9150615a3c8a60e08b0161598d565b90509295985092959890939650565b60008060e08385031215615a5e57600080fd5b6060830184811115615a6f57600080fd5b8392508460e085011115615a8257600080fd5b809150509250929050565b604081526000615aa06040830185615928565b82810360208481019190915284518083528582019282019060005b81811015615ad757845183529383019391830191600101615abb565b5090979650505050505050565b60008060408385031215615af757600080fd5b615b00836156ba565b9150615b0e602084016156ba565b90509250929050565b6020808252600b908201526a4552525f5245454e54525960a81b604082015260600190565b60208082526011908201527011549497d393d517d19253905312569151607a1b604082015260600190565b634e487b7160e01b600052601260045260246000fd5b634e487b7160e01b600052601160045260246000fd5b600082615ba257615ba2615b67565b500490565b60008219821115615bba57615bba615b7d565b500190565b6020808252601190820152704552525f4d41585f4f55545f524154494f60781b604082015260600190565b6020808252600f908201526e08aa4a4be9a82a890be82a0a0a49eb608b1b604082015260600190565b6020808252600c908201526b22a9292fa624a6a4aa2fa4a760a11b604082015260600190565b6001600160a01b039384168152919092166020820152604081019190915260600190565b600060208284031215615c6f57600080fd5b8151610e7a8161597f565b600181811c90821680615c8e57607f821691505b60208210811415615caf57634e487b7160e01b600052602260045260246000fd5b50919050565b6000816000190483118215151615615ccf57615ccf615b7d565b500290565b6020808252600d908201526c11549497d31253525517d3d555609a1b604082015260600190565b634e487b7160e01b600052603260045260246000fd5b6000600019821415615d2557615d25615b7d565b5060010190565b60208082526010908201526f4552525f4d41585f494e5f524154494f60801b604082015260600190565b600060208284031215615d6857600080fd5b5051919050565b600082821015615d8157615d81615b7d565b500390565b634e487b7160e01b600052604160045260246000fd5b600082615dab57615dab615b67565b500690565b60008251615dc2818460208701615704565b919091019291505056fe9d9058fd2f25ccc389fec7720abef0ca83472f5abfafd5f10d37f51e6a0493f387b3975661762d852ddf2eeaad6a43b2d93777de7b3b7bdb634283df32456118fcda32798d5a9d032f49b37fea876d422f18f6e386e0f07db6029b693624b2c215a8ca63e37b2cff1677df2b6b82d36fcf8a524228bd7a4b4d02d107c28c1e8a8c5be1e5ebec7d5bd14f71427d1e84f3dd0314c0f7b2291e5b200ac8c7c3b925a2646970667358221220b2cddedb256d857dbe0e18db9bfbe32072683bb77f53e9eca2ed351a904324c864736f6c634300080a0033",
  "linkReferences": {},
  "deployedLinkReferences": {}
}