{
  "_format": "hh-sol-artifact-1",
  "contractName": "BPool",
  "sourceName": "contracts/pools/balancer/BPool.sol",
  "abi": [
    {
      "anonymous": false,
      "inputs": [
        {
          "indexed": true,
          "internalType": "address",
          "name": "src",
          "type": "address"
        },
        {
          "indexed": true,
          "internalType": "address",
          "name": "dst",
          "type": "address"
        },
        {
          "indexed": false,
          "internalType": "uint256",
          "name": "amt",
          "type": "uint256"
        }
      ],
      "name": "Approval",
      "type": "event"
    },
    {
      "anonymous": false,
      "inputs": [
        {
          "indexed": false,
          "internalType": "address",
          "name": "to",
          "type": "address"
        },
        {
          "indexed": false,
          "internalType": "address",
          "name": "token",
          "type": "address"
        },
        {
          "indexed": false,
          "internalType": "uint256",
          "name": "amount",
          "type": "uint256"
        }
      ],
      "name": "ConsumeMarketFee",
      "type": "event"
    },
    {
      "anonymous": false,
      "inputs": [
        {
          "indexed": false,
          "internalType": "uint256",
          "name": "bptAmount",
          "type": "uint256"
        }
      ],
      "name": "LOG_BPT",
      "type": "event"
    },
    {
      "anonymous": false,
      "inputs": [
        {
          "indexed": false,
          "internalType": "uint256",
          "name": "bptAmount",
          "type": "uint256"
        }
      ],
      "name": "LOG_BPT_SS",
      "type": "event"
    },
    {
      "anonymous": false,
      "inputs": [
        {
          "indexed": true,
          "internalType": "bytes4",
          "name": "sig",
          "type": "bytes4"
        },
        {
          "indexed": true,
          "internalType": "address",
          "name": "caller",
          "type": "address"
        },
        {
          "indexed": false,
          "internalType": "uint256",
          "name": "timestamp",
          "type": "uint256"
        },
        {
          "indexed": false,
          "internalType": "bytes",
          "name": "data",
          "type": "bytes"
        }
      ],
      "name": "LOG_CALL",
      "type": "event"
    },
    {
      "anonymous": false,
      "inputs": [
        {
          "indexed": true,
          "internalType": "address",
          "name": "caller",
          "type": "address"
        },
        {
          "indexed": true,
          "internalType": "address",
          "name": "tokenOut",
          "type": "address"
        },
        {
          "indexed": false,
          "internalType": "uint256",
          "name": "tokenAmountOut",
          "type": "uint256"
        },
        {
          "indexed": false,
          "internalType": "uint256",
          "name": "timestamp",
          "type": "uint256"
        }
      ],
      "name": "LOG_EXIT",
      "type": "event"
    },
    {
      "anonymous": false,
      "inputs": [
        {
          "indexed": true,
          "internalType": "address",
          "name": "caller",
          "type": "address"
        },
        {
          "indexed": true,
          "internalType": "address",
          "name": "tokenIn",
          "type": "address"
        },
        {
          "indexed": false,
          "internalType": "uint256",
          "name": "tokenAmountIn",
          "type": "uint256"
        },
        {
          "indexed": false,
          "internalType": "uint256",
          "name": "timestamp",
          "type": "uint256"
        }
      ],
      "name": "LOG_JOIN",
      "type": "event"
    },
    {
      "anonymous": false,
      "inputs": [
        {
          "indexed": true,
          "internalType": "address",
          "name": "caller",
          "type": "address"
        },
        {
          "indexed": true,
          "internalType": "address",
          "name": "baseToken",
          "type": "address"
        },
        {
          "indexed": false,
          "internalType": "uint256",
          "name": "baseTokenAmountIn",
          "type": "uint256"
        },
        {
          "indexed": false,
          "internalType": "uint256",
          "name": "baseTokenWeight",
          "type": "uint256"
        },
        {
          "indexed": true,
          "internalType": "address",
          "name": "datatoken",
          "type": "address"
        },
        {
          "indexed": false,
          "internalType": "uint256",
          "name": "datatokenAmountIn",
          "type": "uint256"
        },
        {
          "indexed": false,
          "internalType": "uint256",
          "name": "datatokenWeight",
          "type": "uint256"
        }
      ],
      "name": "LOG_SETUP",
      "type": "event"
    },
    {
      "anonymous": false,
      "inputs": [
        {
          "indexed": true,
          "internalType": "address",
          "name": "caller",
          "type": "address"
        },
        {
          "indexed": true,
          "internalType": "address",
          "name": "tokenIn",
          "type": "address"
        },
        {
          "indexed": true,
          "internalType": "address",
          "name": "tokenOut",
          "type": "address"
        },
        {
          "indexed": false,
          "internalType": "uint256",
          "name": "tokenAmountIn",
          "type": "uint256"
        },
        {
          "indexed": false,
          "internalType": "uint256",
          "name": "tokenAmountOut",
          "type": "uint256"
        },
        {
          "indexed": false,
          "internalType": "uint256",
          "name": "timestamp",
          "type": "uint256"
        },
        {
          "indexed": false,
          "internalType": "uint256",
          "name": "inBalance",
          "type": "uint256"
        },
        {
          "indexed": false,
          "internalType": "uint256",
          "name": "outBalance",
          "type": "uint256"
        },
        {
          "indexed": false,
          "internalType": "uint256",
          "name": "newSpotPrice",
          "type": "uint256"
        }
      ],
      "name": "LOG_SWAP",
      "type": "event"
    },
    {
      "anonymous": false,
      "inputs": [
        {
          "indexed": false,
          "internalType": "address",
          "name": "caller",
          "type": "address"
        },
        {
          "indexed": false,
          "internalType": "address",
          "name": "OPCWallet",
          "type": "address"
        },
        {
          "indexed": false,
          "internalType": "address",
          "name": "token",
          "type": "address"
        },
        {
          "indexed": false,
          "internalType": "uint256",
          "name": "amount",
          "type": "uint256"
        }
      ],
      "name": "OPCFee",
      "type": "event"
    },
    {
      "anonymous": false,
      "inputs": [
        {
          "indexed": false,
          "internalType": "address",
          "name": "caller",
          "type": "address"
        },
        {
          "indexed": false,
          "internalType": "address",
          "name": "marketAddress",
          "type": "address"
        },
        {
          "indexed": false,
          "internalType": "address",
          "name": "token",
          "type": "address"
        },
        {
          "indexed": false,
          "internalType": "uint256",
          "name": "amount",
          "type": "uint256"
        }
      ],
      "name": "PublishMarketFee",
      "type": "event"
    },
    {
      "anonymous": false,
      "inputs": [
        {
          "indexed": false,
          "internalType": "address",
          "name": "caller",
          "type": "address"
        },
        {
          "indexed": false,
          "internalType": "address",
          "name": "newMarketCollector",
          "type": "address"
        },
        {
          "indexed": false,
          "internalType": "uint256",
          "name": "swapFee",
          "type": "uint256"
        }
      ],
      "name": "PublishMarketFeeChanged",
      "type": "event"
    },
    {
      "anonymous": false,
      "inputs": [
        {
          "indexed": false,
          "internalType": "uint256",
          "name": "LPFeeAmount",
          "type": "uint256"
        },
        {
          "indexed": false,
          "internalType": "uint256",
          "name": "oceanFeeAmount",
          "type": "uint256"
        },
        {
          "indexed": false,
          "internalType": "uint256",
          "name": "marketFeeAmount",
          "type": "uint256"
        },
        {
          "indexed": false,
          "internalType": "uint256",
          "name": "consumeMarketFeeAmount",
          "type": "uint256"
        },
        {
          "indexed": false,
          "internalType": "address",
          "name": "tokenFeeAddress",
          "type": "address"
        }
      ],
      "name": "SWAP_FEES",
      "type": "event"
    },
    {
      "anonymous": false,
      "inputs": [
        {
          "indexed": false,
          "internalType": "address",
          "name": "caller",
          "type": "address"
        },
        {
          "indexed": false,
          "internalType": "uint256",
          "name": "amount",
          "type": "uint256"
        }
      ],
      "name": "SwapFeeChanged",
      "type": "event"
    },
    {
      "anonymous": false,
      "inputs": [
        {
          "indexed": true,
          "internalType": "address",
          "name": "src",
          "type": "address"
        },
        {
          "indexed": true,
          "internalType": "address",
          "name": "dst",
          "type": "address"
        },
        {
          "indexed": false,
          "internalType": "uint256",
          "name": "amt",
          "type": "uint256"
        }
      ],
      "name": "Transfer",
      "type": "event"
    },
    {
      "inputs": [],
      "name": "BONE",
      "outputs": [
        {
          "internalType": "uint256",
          "name": "",
          "type": "uint256"
        }
      ],
      "stateMutability": "view",
      "type": "function"
    },
    {
      "inputs": [],
      "name": "BPOW_PRECISION",
      "outputs": [
        {
          "internalType": "uint256",
          "name": "",
          "type": "uint256"
        }
      ],
      "stateMutability": "view",
      "type": "function"
    },
    {
      "inputs": [],
      "name": "EXIT_FEE",
      "outputs": [
        {
          "internalType": "uint256",
          "name": "",
          "type": "uint256"
        }
      ],
      "stateMutability": "view",
      "type": "function"
    },
    {
      "inputs": [],
      "name": "INIT_POOL_SUPPLY",
      "outputs": [
        {
          "internalType": "uint256",
          "name": "",
          "type": "uint256"
        }
      ],
      "stateMutability": "view",
      "type": "function"
    },
    {
      "inputs": [],
      "name": "MAX_BOUND_TOKENS",
      "outputs": [
        {
          "internalType": "uint256",
          "name": "",
          "type": "uint256"
        }
      ],
      "stateMutability": "view",
      "type": "function"
    },
    {
      "inputs": [],
      "name": "MAX_BPOW_BASE",
      "outputs": [
        {
          "internalType": "uint256",
          "name": "",
          "type": "uint256"
        }
      ],
      "stateMutability": "view",
      "type": "function"
    },
    {
      "inputs": [],
      "name": "MAX_FEE",
      "outputs": [
        {
          "internalType": "uint256",
          "name": "",
          "type": "uint256"
        }
      ],
      "stateMutability": "view",
      "type": "function"
    },
    {
      "inputs": [],
      "name": "MAX_IN_RATIO",
      "outputs": [
        {
          "internalType": "uint256",
          "name": "",
          "type": "uint256"
        }
      ],
      "stateMutability": "view",
      "type": "function"
    },
    {
      "inputs": [],
      "name": "MAX_OUT_RATIO",
      "outputs": [
        {
          "internalType": "uint256",
          "name": "",
          "type": "uint256"
        }
      ],
      "stateMutability": "view",
      "type": "function"
    },
    {
      "inputs": [],
      "name": "MAX_TOTAL_WEIGHT",
      "outputs": [
        {
          "internalType": "uint256",
          "name": "",
          "type": "uint256"
        }
      ],
      "stateMutability": "view",
      "type": "function"
    },
    {
      "inputs": [],
      "name": "MAX_WEIGHT",
      "outputs": [
        {
          "internalType": "uint256",
          "name": "",
          "type": "uint256"
        }
      ],
      "stateMutability": "view",
      "type": "function"
    },
    {
      "inputs": [],
      "name": "MIN_BALANCE",
      "outputs": [
        {
          "internalType": "uint256",
          "name": "",
          "type": "uint256"
        }
      ],
      "stateMutability": "view",
      "type": "function"
    },
    {
      "inputs": [],
      "name": "MIN_BOUND_TOKENS",
      "outputs": [
        {
          "internalType": "uint256",
          "name": "",
          "type": "uint256"
        }
      ],
      "stateMutability": "view",
      "type": "function"
    },
    {
      "inputs": [],
      "name": "MIN_BPOW_BASE",
      "outputs": [
        {
          "internalType": "uint256",
          "name": "",
          "type": "uint256"
        }
      ],
      "stateMutability": "view",
      "type": "function"
    },
    {
      "inputs": [],
      "name": "MIN_FEE",
      "outputs": [
        {
          "internalType": "uint256",
          "name": "",
          "type": "uint256"
        }
      ],
      "stateMutability": "view",
      "type": "function"
    },
    {
      "inputs": [],
      "name": "MIN_WEIGHT",
      "outputs": [
        {
          "internalType": "uint256",
          "name": "",
          "type": "uint256"
        }
      ],
      "stateMutability": "view",
      "type": "function"
    },
    {
      "inputs": [],
      "name": "_opcCollector",
      "outputs": [
        {
          "internalType": "address",
          "name": "",
          "type": "address"
        }
      ],
      "stateMutability": "view",
      "type": "function"
    },
    {
      "inputs": [],
      "name": "_publishMarketCollector",
      "outputs": [
        {
          "internalType": "address",
          "name": "",
          "type": "address"
        }
      ],
      "stateMutability": "view",
      "type": "function"
    },
    {
      "inputs": [],
      "name": "_swapPublishMarketFee",
      "outputs": [
        {
          "internalType": "uint256",
          "name": "",
          "type": "uint256"
        }
      ],
      "stateMutability": "view",
      "type": "function"
    },
    {
      "inputs": [
        {
          "internalType": "address",
          "name": "src",
          "type": "address"
        },
        {
          "internalType": "address",
          "name": "dst",
          "type": "address"
        }
      ],
      "name": "allowance",
      "outputs": [
        {
          "internalType": "uint256",
          "name": "",
          "type": "uint256"
        }
      ],
      "stateMutability": "view",
      "type": "function"
    },
    {
      "inputs": [
        {
          "internalType": "address",
          "name": "dst",
          "type": "address"
        },
        {
          "internalType": "uint256",
          "name": "amt",
          "type": "uint256"
        }
      ],
      "name": "approve",
      "outputs": [
        {
          "internalType": "bool",
          "name": "",
          "type": "bool"
        }
      ],
      "stateMutability": "nonpayable",
      "type": "function"
    },
    {
      "inputs": [
        {
          "internalType": "address",
          "name": "whom",
          "type": "address"
        }
      ],
      "name": "balanceOf",
      "outputs": [
        {
          "internalType": "uint256",
          "name": "",
          "type": "uint256"
        }
      ],
      "stateMutability": "view",
      "type": "function"
    },
    {
      "inputs": [
        {
          "internalType": "uint256[4]",
          "name": "data",
          "type": "uint256[4]"
        },
        {
          "internalType": "uint256",
          "name": "tokenAmountOut",
          "type": "uint256"
        },
        {
          "internalType": "uint256",
          "name": "_consumeMarketSwapFee",
          "type": "uint256"
        }
      ],
      "name": "calcInGivenOut",
      "outputs": [
        {
          "internalType": "uint256",
          "name": "tokenAmountIn",
          "type": "uint256"
        },
        {
          "internalType": "uint256",
          "name": "tokenAmountInBalance",
          "type": "uint256"
        },
        {
          "components": [
            {
              "internalType": "uint256",
              "name": "LPFee",
              "type": "uint256"
            },
            {
              "internalType": "uint256",
              "name": "oceanFeeAmount",
              "type": "uint256"
            },
            {
              "internalType": "uint256",
              "name": "publishMarketFeeAmount",
              "type": "uint256"
            },
            {
              "internalType": "uint256",
              "name": "consumeMarketFee",
              "type": "uint256"
            }
          ],
          "internalType": "struct BMath.swapfees",
          "name": "_swapfees",
          "type": "tuple"
        }
      ],
      "stateMutability": "view",
      "type": "function"
    },
    {
      "inputs": [
        {
          "internalType": "uint256[4]",
          "name": "data",
          "type": "uint256[4]"
        },
        {
          "internalType": "uint256",
          "name": "tokenAmountIn",
          "type": "uint256"
        },
        {
          "internalType": "uint256",
          "name": "_consumeMarketSwapFee",
          "type": "uint256"
        }
      ],
      "name": "calcOutGivenIn",
      "outputs": [
        {
          "internalType": "uint256",
          "name": "tokenAmountOut",
          "type": "uint256"
        },
        {
          "internalType": "uint256",
          "name": "balanceInToAdd",
          "type": "uint256"
        },
        {
          "components": [
            {
              "internalType": "uint256",
              "name": "LPFee",
              "type": "uint256"
            },
            {
              "internalType": "uint256",
              "name": "oceanFeeAmount",
              "type": "uint256"
            },
            {
              "internalType": "uint256",
              "name": "publishMarketFeeAmount",
              "type": "uint256"
            },
            {
              "internalType": "uint256",
              "name": "consumeMarketFee",
              "type": "uint256"
            }
          ],
          "internalType": "struct BMath.swapfees",
          "name": "_swapfees",
          "type": "tuple"
        }
      ],
      "stateMutability": "view",
      "type": "function"
    },
    {
      "inputs": [
        {
          "internalType": "address",
          "name": "tokenOut",
          "type": "address"
        },
        {
          "internalType": "uint256",
          "name": "tokenAmountOut",
          "type": "uint256"
        }
      ],
      "name": "calcPoolInSingleOut",
      "outputs": [
        {
          "internalType": "uint256",
          "name": "poolAmountIn",
          "type": "uint256"
        }
      ],
      "stateMutability": "view",
      "type": "function"
    },
    {
      "inputs": [
        {
          "internalType": "address",
          "name": "tokenIn",
          "type": "address"
        },
        {
          "internalType": "uint256",
          "name": "tokenAmountIn",
          "type": "uint256"
        }
      ],
      "name": "calcPoolOutSingleIn",
      "outputs": [
        {
          "internalType": "uint256",
          "name": "poolAmountOut",
          "type": "uint256"
        }
      ],
      "stateMutability": "view",
      "type": "function"
    },
    {
      "inputs": [
        {
          "internalType": "address",
          "name": "tokenIn",
          "type": "address"
        },
        {
          "internalType": "uint256",
          "name": "poolAmountOut",
          "type": "uint256"
        }
      ],
      "name": "calcSingleInPoolOut",
      "outputs": [
        {
          "internalType": "uint256",
          "name": "tokenAmountIn",
          "type": "uint256"
        }
      ],
      "stateMutability": "view",
      "type": "function"
    },
    {
      "inputs": [
        {
          "internalType": "address",
          "name": "tokenOut",
          "type": "address"
        },
        {
          "internalType": "uint256",
          "name": "poolAmountIn",
          "type": "uint256"
        }
      ],
      "name": "calcSingleOutPoolIn",
      "outputs": [
        {
          "internalType": "uint256",
          "name": "tokenAmountOut",
          "type": "uint256"
        }
      ],
      "stateMutability": "view",
      "type": "function"
    },
    {
      "inputs": [],
      "name": "collectMarketFee",
      "outputs": [],
      "stateMutability": "nonpayable",
      "type": "function"
    },
    {
      "inputs": [],
      "name": "collectOPC",
      "outputs": [],
      "stateMutability": "nonpayable",
      "type": "function"
    },
    {
      "inputs": [
        {
          "internalType": "address",
          "name": "",
          "type": "address"
        }
      ],
      "name": "communityFees",
      "outputs": [
        {
          "internalType": "uint256",
          "name": "",
          "type": "uint256"
        }
      ],
      "stateMutability": "view",
      "type": "function"
    },
    {
      "inputs": [],
      "name": "decimals",
      "outputs": [
        {
          "internalType": "uint8",
          "name": "",
          "type": "uint8"
        }
      ],
      "stateMutability": "view",
      "type": "function"
    },
    {
      "inputs": [
        {
          "internalType": "address",
          "name": "dst",
          "type": "address"
        },
        {
          "internalType": "uint256",
          "name": "amt",
          "type": "uint256"
        }
      ],
      "name": "decreaseApproval",
      "outputs": [
        {
          "internalType": "bool",
          "name": "",
          "type": "bool"
        }
      ],
      "stateMutability": "nonpayable",
      "type": "function"
    },
    {
      "inputs": [
        {
          "internalType": "uint256",
          "name": "poolAmountIn",
          "type": "uint256"
        },
        {
          "internalType": "uint256[]",
          "name": "minAmountsOut",
          "type": "uint256[]"
        }
      ],
      "name": "exitPool",
      "outputs": [],
      "stateMutability": "nonpayable",
      "type": "function"
    },
    {
      "inputs": [
        {
          "internalType": "uint256",
          "name": "poolAmountIn",
          "type": "uint256"
        },
        {
          "internalType": "uint256",
          "name": "minAmountOut",
          "type": "uint256"
        }
      ],
      "name": "exitswapPoolAmountIn",
      "outputs": [
        {
          "internalType": "uint256",
          "name": "tokenAmountOut",
          "type": "uint256"
        }
      ],
      "stateMutability": "nonpayable",
      "type": "function"
    },
    {
      "inputs": [
        {
          "internalType": "address",
          "name": "tokenIn",
          "type": "address"
        },
        {
          "internalType": "address",
          "name": "tokenOut",
          "type": "address"
        },
        {
          "internalType": "uint256",
          "name": "tokenAmountOut",
          "type": "uint256"
        },
        {
          "internalType": "uint256",
          "name": "_consumeMarketSwapFee",
          "type": "uint256"
        }
      ],
      "name": "getAmountInExactOut",
      "outputs": [
        {
          "internalType": "uint256",
          "name": "tokenAmountIn",
          "type": "uint256"
        },
        {
          "internalType": "uint256",
          "name": "lpFeeAmount",
          "type": "uint256"
        },
        {
          "internalType": "uint256",
          "name": "oceanFeeAmount",
          "type": "uint256"
        },
        {
          "internalType": "uint256",
          "name": "publishMarketSwapFeeAmount",
          "type": "uint256"
        },
        {
          "internalType": "uint256",
          "name": "consumeMarketSwapFeeAmount",
          "type": "uint256"
        }
      ],
      "stateMutability": "view",
      "type": "function"
    },
    {
      "inputs": [
        {
          "internalType": "address",
          "name": "tokenIn",
          "type": "address"
        },
        {
          "internalType": "address",
          "name": "tokenOut",
          "type": "address"
        },
        {
          "internalType": "uint256",
          "name": "tokenAmountIn",
          "type": "uint256"
        },
        {
          "internalType": "uint256",
          "name": "_consumeMarketSwapFee",
          "type": "uint256"
        }
      ],
      "name": "getAmountOutExactIn",
      "outputs": [
        {
          "internalType": "uint256",
          "name": "tokenAmountOut",
          "type": "uint256"
        },
        {
          "internalType": "uint256",
          "name": "lpFeeAmount",
          "type": "uint256"
        },
        {
          "internalType": "uint256",
          "name": "oceanFeeAmount",
          "type": "uint256"
        },
        {
          "internalType": "uint256",
          "name": "publishMarketSwapFeeAmount",
          "type": "uint256"
        },
        {
          "internalType": "uint256",
          "name": "consumeMarketSwapFeeAmount",
          "type": "uint256"
        }
      ],
      "stateMutability": "view",
      "type": "function"
    },
    {
      "inputs": [
        {
          "internalType": "address",
          "name": "token",
          "type": "address"
        }
      ],
      "name": "getBalance",
      "outputs": [
        {
          "internalType": "uint256",
          "name": "",
          "type": "uint256"
        }
      ],
      "stateMutability": "view",
      "type": "function"
    },
    {
      "inputs": [],
      "name": "getBaseTokenAddress",
      "outputs": [
        {
          "internalType": "address",
          "name": "",
          "type": "address"
        }
      ],
      "stateMutability": "view",
      "type": "function"
    },
    {
      "inputs": [],
      "name": "getController",
      "outputs": [
        {
          "internalType": "address",
          "name": "",
          "type": "address"
        }
      ],
      "stateMutability": "view",
      "type": "function"
    },
    {
      "inputs": [],
      "name": "getCurrentMarketFees",
      "outputs": [
        {
          "internalType": "address[]",
          "name": "",
          "type": "address[]"
        },
        {
          "internalType": "uint256[]",
          "name": "",
          "type": "uint256[]"
        }
      ],
      "stateMutability": "view",
      "type": "function"
    },
    {
      "inputs": [],
      "name": "getCurrentOPCFees",
      "outputs": [
        {
          "internalType": "address[]",
          "name": "",
          "type": "address[]"
        },
        {
          "internalType": "uint256[]",
          "name": "",
          "type": "uint256[]"
        }
      ],
      "stateMutability": "view",
      "type": "function"
    },
    {
      "inputs": [],
      "name": "getCurrentTokens",
      "outputs": [
        {
          "internalType": "address[]",
          "name": "tokens",
          "type": "address[]"
        }
      ],
      "stateMutability": "view",
      "type": "function"
    },
    {
      "inputs": [],
      "name": "getDatatokenAddress",
      "outputs": [
        {
          "internalType": "address",
          "name": "",
          "type": "address"
        }
      ],
      "stateMutability": "view",
      "type": "function"
    },
    {
      "inputs": [
        {
          "internalType": "address",
          "name": "token",
          "type": "address"
        }
      ],
      "name": "getDenormalizedWeight",
      "outputs": [
        {
          "internalType": "uint256",
          "name": "",
          "type": "uint256"
        }
      ],
      "stateMutability": "view",
      "type": "function"
    },
    {
      "inputs": [],
      "name": "getFinalTokens",
      "outputs": [
        {
          "internalType": "address[]",
          "name": "tokens",
          "type": "address[]"
        }
      ],
      "stateMutability": "view",
      "type": "function"
    },
    {
      "inputs": [],
      "name": "getId",
      "outputs": [
        {
          "internalType": "uint8",
          "name": "",
          "type": "uint8"
        }
      ],
      "stateMutability": "pure",
      "type": "function"
    },
    {
      "inputs": [],
      "name": "getMarketFee",
      "outputs": [
        {
          "internalType": "uint256",
          "name": "",
          "type": "uint256"
        }
      ],
      "stateMutability": "view",
      "type": "function"
    },
    {
      "inputs": [
        {
          "internalType": "address",
          "name": "token",
          "type": "address"
        }
      ],
      "name": "getNormalizedWeight",
      "outputs": [
        {
          "internalType": "uint256",
          "name": "",
          "type": "uint256"
        }
      ],
      "stateMutability": "view",
      "type": "function"
    },
    {
      "inputs": [],
      "name": "getNumTokens",
      "outputs": [
        {
          "internalType": "uint256",
          "name": "",
          "type": "uint256"
        }
      ],
      "stateMutability": "view",
      "type": "function"
    },
    {
      "inputs": [],
      "name": "getOPCFee",
      "outputs": [
        {
          "internalType": "uint256",
          "name": "",
          "type": "uint256"
        }
      ],
      "stateMutability": "view",
      "type": "function"
    },
    {
      "inputs": [
        {
          "internalType": "address",
          "name": "tokenIn",
          "type": "address"
        },
        {
          "internalType": "address",
          "name": "tokenOut",
          "type": "address"
        },
        {
          "internalType": "uint256",
          "name": "_consumeMarketSwapFee",
          "type": "uint256"
        }
      ],
      "name": "getSpotPrice",
      "outputs": [
        {
          "internalType": "uint256",
          "name": "spotPrice",
          "type": "uint256"
        }
      ],
      "stateMutability": "view",
      "type": "function"
    },
    {
      "inputs": [],
      "name": "getSwapFee",
      "outputs": [
        {
          "internalType": "uint256",
          "name": "",
          "type": "uint256"
        }
      ],
      "stateMutability": "view",
      "type": "function"
    },
    {
      "inputs": [],
      "name": "getTotalDenormalizedWeight",
      "outputs": [
        {
          "internalType": "uint256",
          "name": "",
          "type": "uint256"
        }
      ],
      "stateMutability": "view",
      "type": "function"
    },
    {
      "inputs": [
        {
          "internalType": "address",
          "name": "dst",
          "type": "address"
        },
        {
          "internalType": "uint256",
          "name": "amt",
          "type": "uint256"
        }
      ],
      "name": "increaseApproval",
      "outputs": [
        {
          "internalType": "bool",
          "name": "",
          "type": "bool"
        }
      ],
      "stateMutability": "nonpayable",
      "type": "function"
    },
    {
      "inputs": [
        {
          "internalType": "address",
          "name": "controller",
          "type": "address"
        },
        {
          "internalType": "address",
          "name": "factory",
          "type": "address"
        },
        {
          "internalType": "uint256[]",
          "name": "swapFees",
          "type": "uint256[]"
        },
        {
          "internalType": "bool",
          "name": "publicSwap",
          "type": "bool"
        },
        {
          "internalType": "bool",
          "name": "finalized",
          "type": "bool"
        },
        {
          "internalType": "address[2]",
          "name": "tokens",
          "type": "address[2]"
        },
        {
          "internalType": "address[2]",
          "name": "feeCollectors",
          "type": "address[2]"
        }
      ],
      "name": "initialize",
      "outputs": [
        {
          "internalType": "bool",
          "name": "",
          "type": "bool"
        }
      ],
      "stateMutability": "nonpayable",
      "type": "function"
    },
    {
      "inputs": [
        {
          "internalType": "address",
          "name": "t",
          "type": "address"
        }
      ],
      "name": "isBound",
      "outputs": [
        {
          "internalType": "bool",
          "name": "",
          "type": "bool"
        }
      ],
      "stateMutability": "view",
      "type": "function"
    },
    {
      "inputs": [],
      "name": "isFinalized",
      "outputs": [
        {
          "internalType": "bool",
          "name": "",
          "type": "bool"
        }
      ],
      "stateMutability": "view",
      "type": "function"
    },
    {
      "inputs": [],
      "name": "isInitialized",
      "outputs": [
        {
          "internalType": "bool",
          "name": "",
          "type": "bool"
        }
      ],
      "stateMutability": "view",
      "type": "function"
    },
    {
      "inputs": [],
      "name": "isPublicSwap",
      "outputs": [
        {
          "internalType": "bool",
          "name": "",
          "type": "bool"
        }
      ],
      "stateMutability": "view",
      "type": "function"
    },
    {
      "inputs": [
        {
          "internalType": "uint256",
          "name": "poolAmountOut",
          "type": "uint256"
        },
        {
          "internalType": "uint256[]",
          "name": "maxAmountsIn",
          "type": "uint256[]"
        }
      ],
      "name": "joinPool",
      "outputs": [],
      "stateMutability": "nonpayable",
      "type": "function"
    },
    {
      "inputs": [
        {
          "internalType": "uint256",
          "name": "tokenAmountIn",
          "type": "uint256"
        },
        {
          "internalType": "uint256",
          "name": "minPoolAmountOut",
          "type": "uint256"
        }
      ],
      "name": "joinswapExternAmountIn",
      "outputs": [
        {
          "internalType": "uint256",
          "name": "poolAmountOut",
          "type": "uint256"
        }
      ],
      "stateMutability": "nonpayable",
      "type": "function"
    },
    {
      "inputs": [],
      "name": "name",
      "outputs": [
        {
          "internalType": "string",
          "name": "",
          "type": "string"
        }
      ],
      "stateMutability": "view",
      "type": "function"
    },
    {
      "inputs": [
        {
          "internalType": "address",
          "name": "",
          "type": "address"
        }
      ],
      "name": "publishMarketFees",
      "outputs": [
        {
          "internalType": "uint256",
          "name": "",
          "type": "uint256"
        }
      ],
      "stateMutability": "view",
      "type": "function"
    },
    {
      "inputs": [
        {
          "internalType": "uint256",
          "name": "swapFee",
          "type": "uint256"
        }
      ],
      "name": "setSwapFee",
      "outputs": [],
      "stateMutability": "nonpayable",
      "type": "function"
    },
    {
      "inputs": [
        {
          "internalType": "address",
          "name": "datatokenAddress",
          "type": "address"
        },
        {
          "internalType": "uint256",
          "name": "datatokenAmount",
          "type": "uint256"
        },
        {
          "internalType": "uint256",
          "name": "datatokenWeight",
          "type": "uint256"
        },
        {
          "internalType": "address",
          "name": "baseTokenAddress",
          "type": "address"
        },
        {
          "internalType": "uint256",
          "name": "baseTokenAmount",
          "type": "uint256"
        },
        {
          "internalType": "uint256",
          "name": "baseTokenWeight",
          "type": "uint256"
        }
      ],
      "name": "setup",
      "outputs": [],
      "stateMutability": "nonpayable",
      "type": "function"
    },
    {
      "inputs": [
        {
          "internalType": "address[3]",
          "name": "tokenInOutMarket",
          "type": "address[3]"
        },
        {
          "internalType": "uint256[4]",
          "name": "amountsInOutMaxFee",
          "type": "uint256[4]"
        }
      ],
      "name": "swapExactAmountIn",
      "outputs": [
        {
          "internalType": "uint256",
          "name": "tokenAmountOut",
          "type": "uint256"
        },
        {
          "internalType": "uint256",
          "name": "spotPriceAfter",
          "type": "uint256"
        }
      ],
      "stateMutability": "nonpayable",
      "type": "function"
    },
    {
      "inputs": [
        {
          "internalType": "address[3]",
          "name": "tokenInOutMarket",
          "type": "address[3]"
        },
        {
          "internalType": "uint256[4]",
          "name": "amountsInOutMaxFee",
          "type": "uint256[4]"
        }
      ],
      "name": "swapExactAmountOut",
      "outputs": [
        {
          "internalType": "uint256",
          "name": "tokenAmountIn",
          "type": "uint256"
        },
        {
          "internalType": "uint256",
          "name": "spotPriceAfter",
          "type": "uint256"
        }
      ],
      "stateMutability": "nonpayable",
      "type": "function"
    },
    {
      "inputs": [],
      "name": "symbol",
      "outputs": [
        {
          "internalType": "string",
          "name": "",
          "type": "string"
        }
      ],
      "stateMutability": "view",
      "type": "function"
    },
    {
      "inputs": [],
      "name": "totalSupply",
      "outputs": [
        {
          "internalType": "uint256",
          "name": "",
          "type": "uint256"
        }
      ],
      "stateMutability": "view",
      "type": "function"
    },
    {
      "inputs": [
        {
          "internalType": "address",
          "name": "dst",
          "type": "address"
        },
        {
          "internalType": "uint256",
          "name": "amt",
          "type": "uint256"
        }
      ],
      "name": "transfer",
      "outputs": [
        {
          "internalType": "bool",
          "name": "",
          "type": "bool"
        }
      ],
      "stateMutability": "nonpayable",
      "type": "function"
    },
    {
      "inputs": [
        {
          "internalType": "address",
          "name": "src",
          "type": "address"
        },
        {
          "internalType": "address",
          "name": "dst",
          "type": "address"
        },
        {
          "internalType": "uint256",
          "name": "amt",
          "type": "uint256"
        }
      ],
      "name": "transferFrom",
      "outputs": [
        {
          "internalType": "bool",
          "name": "",
          "type": "bool"
        }
      ],
      "stateMutability": "nonpayable",
      "type": "function"
    },
    {
      "inputs": [
        {
          "internalType": "address",
          "name": "_newCollector",
          "type": "address"
        },
        {
          "internalType": "uint256",
          "name": "_newSwapFee",
          "type": "uint256"
        }
      ],
      "name": "updatePublishMarketFee",
      "outputs": [],
      "stateMutability": "nonpayable",
      "type": "function"
    }
  ],
  "bytecode": "0x60c0604052601360808190527f42616c616e63657220506f6f6c20546f6b656e0000000000000000000000000060a09081526200004091600a91906200008f565b506040805180820190915260038082526210941560ea1b60209092019182526200006d91600b916200008f565b50600c805460ff191660121790553480156200008857600080fd5b5062000172565b8280546200009d9062000135565b90600052602060002090601f016020900481019282620000c157600085556200010c565b82601f10620000dc57805160ff19168380011785556200010c565b828001600101855582156200010c579182015b828111156200010c578251825591602001919060010190620000ef565b506200011a9291506200011e565b5090565b5b808211156200011a57600081556001016200011f565b600181811c908216806200014a57607f821691505b602082108114156200016c57634e487b7160e01b600052602260045260246000fd5b50919050565b615d9280620001826000396000f3fe608060405234801561001057600080fd5b50600436106104335760003560e01c8063867378c511610236578063bf7db2361161013b578063cd2ed8fb116100c3578063ec09302111610087578063ec0930211461092e578063f1b8a9b714610936578063f8b2cb4f14610949578063fde924f71461095c578063ff9b18501461096e57600080fd5b8063cd2ed8fb146108d2578063d4cadf68146108da578063d73dd623146108e2578063dd62ed3e146108f5578063e4a28a521461049a57600080fd5b8063c44a42831161010a578063c44a428314610894578063c6580d121461089c578063c98a59cf146108a4578063caa01148146108b7578063cc77828d146108ca57600080fd5b8063bf7db23614610843578063c070a6d814610859578063c36596a6146104ed578063c421a3fc1461086c57600080fd5b8063a9059cbb116101be578063b7b800a41161018d578063b7b800a41461080e578063ba019dab14610816578063bc063e1a1461081e578063bc694ea214610826578063be3bbd2e1461082e57600080fd5b8063a9059cbb146107e0578063ab77a2de146107f3578063b02f0b73146107fb578063b0e0d1361461080e57600080fd5b80639381cd2b116102055780639381cd2b146107a2578063948d8ce6146107aa57806395d89b41146107bd578063992e2a92146107c5578063a3b3a16d146107cd57600080fd5b8063867378c51461076d578063892cdf9e146107755780638d4e408314610788578063936c34771461079a57600080fd5b8063392e53cd1161033c5780635e123add116102c457806376c7a3c71161029357806376c7a3c7146107215780637a284be4146107295780637c5918b31461073257806380ca7308146107525780638329ab331461075a57600080fd5b80635e123add146106ca578063638c9e95146106d257806366188463146106e557806370a08231146106f857600080fd5b80634df947d01161030b5780634df947d01461063e5780634f69c0d41461064f57806351705cd0146106625780635c3f1532146106b05780635d1ca631146106c357600080fd5b8063392e53cd146105f55780633950b3fd14610607578063430ed5d01461061a578063458c3fb51461062d57600080fd5b8063218b5382116103bf5780632f37b6241161038e5780632f37b62414610552578063300621921461057e5780633018205f1461059e578063313ce567146105c957806334e19907146105e257600080fd5b8063218b5382146104ed57806323b872dd146104fc57806329b88a6a1461050f5780632eebd6ae1461051757600080fd5b806309ef3f5b1161040657806309ef3f5b146104a257806312989260146104b757806318160ddd146104ca578063189d00ca146104d257806318f9722a146104da57600080fd5b806306fdde0314610438578063079492d414610456578063095ea7b31461047757806309a3bbe41461049a575b600080fd5b610440610981565b60405161044d91906155cc565b60405180910390f35b610469610464366004615616565b610a13565b60405190815260200161044d565b61048a610485366004615652565b610aa6565b604051901515815260200161044d565b610469610b01565b6104b56104b036600461567c565b610b17565b005b6104696104c53660046156d4565b610d53565b600954610469565b610469611178565b6104b56104e8366004615652565b61118f565b610469670de0b6b3a764000081565b61048a61050a366004615616565b611307565b61046961145b565b61052a6105253660046156f6565b6114d5565b604080519586526020860194909452928401919091526060830152608082015260a00161044d565b61048a610560366004615738565b6001600160a01b031660009081526010602052604090205460ff1690565b61046961058c366004615738565b60056020526000908152604090205481565b600c546201000090046001600160a01b03165b6040516001600160a01b03909116815260200161044d565b600c5460ff165b60405160ff909116815260200161044d565b6104b56105f0366004615753565b6115ad565b601254600160a01b900460ff1661048a565b610469610615366004615652565b6116a8565b610469610628366004615652565b611710565b6003546001600160a01b03166105b1565b6004546001600160a01b03166105b1565b6104b561065d3660046157b1565b611770565b610675610670366004615813565b6119b7565b6040805193845260208085019390935281518482015291810151606080850191909152918101516080840152015160a082015260c00161044d565b600e546105b1906001600160a01b031681565b60016105d0565b600054610469565b600d546105b1906001600160a01b031681565b61048a6106f3366004615652565b611b6a565b610469610706366004615738565b6001600160a01b031660009081526007602052604090205490565b610469611c40565b61046960005481565b610469610740366004615738565b60066020526000908152604090205481565b6104b5611c54565b6104696107683660046156d4565b611de6565b6104696121c7565b610675610783366004615813565b6121de565b600e54600160a01b900460ff1661048a565b610469612376565b6104696123a8565b6104696107b8366004615738565b6123bb565b610440612412565b610469612421565b6104696107db366004615652565b61243f565b61048a6107ee366004615652565b61249f565b6104b56124b5565b6104b56108093660046157b1565b612623565b610469600281565b610469600181565b610469612847565b61046961285a565b610836612879565b60405161044d91906158e3565b61084b61292c565b60405161044d9291906158f6565b61048a61086736600461596c565b612a9c565b61087f61087a366004615a19565b612d8a565b6040805192835260208301919091520161044d565b61084b613561565b610469600081565b61087f6108b2366004615a19565b6136c6565b61052a6108c53660046156f6565b613df7565b610836613ea1565b600f54610469565b600154610469565b61048a6108f0366004615652565b613ecc565b610469610903366004615a5b565b6001600160a01b03918216600090815260086020908152604080832093909416825291909152205490565b610469613f3f565b610469610944366004615738565b613f52565b610469610957366004615738565b613fb0565b600c54600160b01b900460ff1661048a565b61046961097c366004615652565b614003565b6060600a805461099090615a8e565b80601f01602080910402602001604051908101604052809291908181526020018280546109bc90615a8e565b8015610a095780601f106109de57610100808354040283529160200191610a09565b820191906000526020600020905b8154815290600101906020018083116109ec57829003601f168201915b5050505050905090565b600c54600090610100900460ff1615610a475760405162461bcd60e51b8152600401610a3e90615ac9565b60405180910390fd5b610a5084614063565b610a5983614063565b6001600160a01b03808516600090815260106020526040808220928616825290206003808301546002808501549284015490840154610a9a939190886140be565b925050505b9392505050565b3360008181526008602090815260408083206001600160a01b03871680855292528083208590555191929091600080516020615d3d83398151915290610aef9086815260200190565b60405180910390a35060015b92915050565b610b14670de0b6b3a76400006032615b04565b81565b600c54610100900460ff1615610b3f5760405162461bcd60e51b8152600401610a3e90615ac9565b600c805461010061ff001990911617908190556201000090046001600160a01b03163314610ba85760405162461bcd60e51b815260206004820152601660248201527522a9292fa4a72b20a624a22fa1a7a72a2927a62622a960511b6044820152606401610a3e565b6003546001600160a01b03878116911614610c055760405162461bcd60e51b815260206004820152601d60248201527f4552525f494e56414c49445f44415441544f4b454e5f414444524553530000006044820152606401610a3e565b6004546001600160a01b03848116911614610c625760405162461bcd60e51b815260206004820152601d60248201527f4552525f494e56414c49445f62617365546f6b656e5f414444524553530000006044820152606401610a3e565b610c6d86868661414a565b604080518681524260208201526001600160a01b038816913391600080516020615d1d833981519152910160405180910390a3610cab83838361414a565b604080518381524260208201526001600160a01b038516913391600080516020615d1d833981519152910160405180910390a3610ce6614339565b6040805183815260208101839052908101869052606081018590526001600160a01b03808816919085169033907fbece8b4dcdbe446dd65a9288154698e067e3e91de17a1a408c2f531b9f845d739060800160405180910390a45050600c805461ff001916905550505050565b600c54600090610100900460ff1615610d7e5760405162461bcd60e51b8152600401610a3e90615ac9565b600c805461ff001916610100179055600e54600160a01b900460ff16610db65760405162461bcd60e51b8152600401610a3e90615b23565b600454610dcb906001600160a01b0316614063565b6004546001600160a01b0316600090815260106020526040902060038101546002820154600954601154610e029392919088614398565b915082821015610e245760405162461bcd60e51b8152600401610a3e90615b4e565b6004546001600160a01b03166000908152601060205260409020600390810154610e6a91610e5a90670de0b6b3a7640000615b8b565b610e65906001615b9f565b614428565b821115610ead5760405162461bcd60e51b81526020600482015260116024820152704552525f4d41585f4f55545f524154494f60781b6044820152606401610a3e565b610ebb81600301548361450d565b6003820155600454604080518481524260208201526001600160a01b039092169133917f9d9058fd2f25ccc389fec7720abef0ca83472f5abfafd5f10d37f51e6a0493f3910160405180910390a3604051848152600080516020615cfd8339815191529060200160405180910390a1601254600354604051630d098ab360e11b81526001600160a01b03918216600482015260248101879052911690631a13156690604401602060405180830381865afa158015610f7d573d6000803e3d6000fd5b505050506040513d601f19601f82011682018060405250810190610fa19190615bb7565b1561113c57600380546001600160a01b03166000908152601060205260408120918201546002830154600954601154610fdd939291908a614398565b9050610fed82600301548261450d565b60038381019190915554600c54604080518481524260208201526001600160a01b039384169362010000909304909216917f9d9058fd2f25ccc389fec7720abef0ca83472f5abfafd5f10d37f51e6a0493f3910160405180910390a3600c54611065906201000090046001600160a01b03168761456a565b61106e86614574565b600354600c54611091916001600160a01b0390811691620100009004168361457d565b60125460035460405163054a976360e41b81526001600160a01b03918216600482015260248101849052604481018990529116906354a9763090606401600060405180830381600087803b1580156110e857600080fd5b505af11580156110fc573d6000803e3d6000fd5b505050507f87b3975661762d852ddf2eeaad6a43b2d93777de7b3b7bdb634283df324561188660405161113191815260200190565b60405180910390a150505b611146338561456a565b61114f84614574565b600454611166906001600160a01b0316338461457d565b50600c805461ff001916905592915050565b610b146402540be400670de0b6b3a7640000615b8b565b600d546001600160a01b031633146111e15760405162461bcd60e51b815260206004820152601560248201527427a7262c9026a0a925a2aa1021a7a62622a1aa27a960591b6044820152606401610a3e565b6001600160a01b0382166112375760405162461bcd60e51b815260206004820152601d60248201527f496e76616c6964205f6e6577436f6c6c6563746f7220616464726573730000006044820152606401610a3e565b8015806112575750611253612710670de0b6b3a7640000615b8b565b8110155b6112735760405162461bcd60e51b8152600401610a3e90615bd4565b611286600a670de0b6b3a7640000615b8b565b8111156112a55760405162461bcd60e51b8152600401610a3e90615bf9565b600d80546001600160a01b0319166001600160a01b03841690811790915560008290556040517f5e3e722dbd3b6b8071b78568ac80cd0e8ff92e4fb3024e755d504d8f7c2f6f09916112fb913391908590615c1e565b60405180910390a15050565b6000336001600160a01b038516148061134357506001600160a01b03841660009081526008602090815260408083203384529091529020548211155b6113875760405162461bcd60e51b815260206004820152601560248201527422a9292fa12a27a5a2a72fa120a22fa1a0a62622a960591b6044820152606401610a3e565b611392848484614591565b336001600160a01b038516148015906113d057506001600160a01b038416600090815260086020908152604080832033845290915290205460001914155b15611451576001600160a01b0384166000908152600860209081526040808320338452909152902054611403908361450d565b6001600160a01b038581166000908152600860209081526040808320338085529083529281902085905551938452918616929091600080516020615d3d833981519152910160405180910390a35b5060019392505050565b6002546004805460405163b8421e2b60e01b81526001600160a01b0391821692810192909252600092169063b8421e2b90602401602060405180830381865afa1580156114ac573d6000803e3d6000fd5b505050506040513d601f19601f820116820180604052508101906114d09190615c42565b905090565b60008060008060006114e689614063565b6114ef88614063565b604080516080810182526001600160a01b03808c16600090815260106020818152858320600380820154875260029182015483880152948f168085528383528785209586015497870197909752958352529201546060820152906115746040518060800160405280600081526020016000815260200160008152602001600081525090565b61157f838b8b6121de565b805160208201516040830151606090930151949c50909a509850965090945050505050945094509450945094565b600c546201000090046001600160a01b031633146116025760405162461bcd60e51b815260206004820152601260248201527122a9292fa727aa2fa1a7a72a2927a62622a960711b6044820152606401610a3e565b611616612710670de0b6b3a7640000615b8b565b8110156116355760405162461bcd60e51b8152600401610a3e90615bd4565b611648600a670de0b6b3a7640000615b8b565b8111156116675760405162461bcd60e51b8152600401610a3e90615bf9565b600181905560408051338152602081018390527fbca0d601c32979eebac4e8cd06375b6e45d39af80fc06a33f366425b450dfb69910160405180910390a150565b6001600160a01b03821660009081526010602090815260408083208151608081018352815460ff161515815260018201549381019390935260028101549183018290526003015460608301819052600954601154611708939190876146a3565b949350505050565b6001600160a01b03821660009081526010602090815260408083208151608081018352815460ff16151581526001820154938101939093526002810154918301829052600301546060830181905260095460115461170893919087614398565b600c54610100900460ff16156117985760405162461bcd60e51b8152600401610a3e90615ac9565b600c805461ff001916610100179055600e54600160a01b900460ff166117d05760405162461bcd60e51b8152600401610a3e90615b23565b60006117db60095490565b905060006117e9858361472b565b9050806118085760405162461bcd60e51b8152600401610a3e90615c5b565b60005b600f5481101561196f576000600f828154811061182a5761182a615c84565b60009182526020808320909101546001600160a01b0316808352601090915260408220600301549092509061185f8583614428565b90508061187e5760405162461bcd60e51b8152600401610a3e90615c5b565b87878581811061189057611890615c84565b905060200201358111156118d55760405162461bcd60e51b815260206004820152600c60248201526b22a9292fa624a6a4aa2fa4a760a11b6044820152606401610a3e565b6001600160a01b0383166000908152601060205260409020600301546118fb9082614843565b6001600160a01b038416600081815260106020526040908190206003019290925590513390600080516020615d1d833981519152906119469085904290918252602082015260400190565b60405180910390a3611959833383614895565b505050808061196790615c9a565b91505061180b565b50611979856149dd565b61198333866149e6565b604051858152600080516020615cfd833981519152906020015b60405180910390a15050600c805461ff0019169055505050565b6000806119e56040518060800160405280600081526020016000815260200160008152602001600081525090565b6000611a0087600360200201518860015b602002015161472b565b90506000611a1588600260200201518861450d565b90506000611a2a89600260200201518361472b565b90506000611a3882856149f0565b9050611a4c81670de0b6b3a764000061450d565b90506000805489611a5b61145b565b600154611a689190615b9f565b611a729190615b9f565b611a7c9190615b9f565b9050611aaa611a938c60005b602002015184614428565b611aa5670de0b6b3a76400008461450d565b61472b565b9750611acd88611ac88a610e65670de0b6b3a7640000611ac861145b565b61450d565b866020018181525050611af288611ac88a610e65670de0b6b3a764000060005461450d565b866040018181525050611b1788611ac88a610e65670de0b6b3a764000060015461450d565b8652611b3388611ac881610e65670de0b6b3a76400008e61450d565b6060870152611b5a611b468c6000611a88565b611aa5670de0b6b3a764000060015461450d565b9650505050505093509350939050565b3360009081526008602090815260408083206001600160a01b038616845290915281205480831115611bbf573360009081526008602090815260408083206001600160a01b0388168452909152812055611bee565b611bc9818461450d565b3360009081526008602090815260408083206001600160a01b03891684529091529020555b3360008181526008602090815260408083206001600160a01b03891680855290835292819020549051908152919291600080516020615d3d833981519152910160405180910390a35060019392505050565b610b14612710670de0b6b3a7640000615b8b565b6000611c5e612879565b905060005b8151811015611de257600060066000848481518110611c8457611c84615c84565b60200260200101516001600160a01b03166001600160a01b03168152602001908152602001600020549050600060066000858581518110611cc757611cc7615c84565b60200260200101516001600160a01b03166001600160a01b0316815260200190815260200160002081905550611d3f600d60009054906101000a90046001600160a01b031682858581518110611d1f57611d1f615c84565b60200260200101516001600160a01b0316614b1c9092919063ffffffff16565b7fbaf1ab77be65c7abf8fcd922bfcf0a749f556ac1a4cdf39c126ffaa1851edb5633600d60009054906101000a90046001600160a01b0316858581518110611d8957611d89615c84565b602002602001015184604051611dc794939291906001600160a01b039485168152928416602084015292166040820152606081019190915260800190565b60405180910390a15080611dda81615c9a565b915050611c63565b5050565b600c54600090610100900460ff1615611e115760405162461bcd60e51b8152600401610a3e90615ac9565b600c805461ff001916610100179055600e54600160a01b900460ff16611e495760405162461bcd60e51b8152600401610a3e90615b23565b600454611e5e906001600160a01b0316614063565b6004546001600160a01b0316600090815260106020526040902060030154611e9390610e656002670de0b6b3a7640000615b8b565b831115611ed55760405162461bcd60e51b815260206004820152601060248201526f4552525f4d41585f494e5f524154494f60801b6044820152606401610a3e565b6004546001600160a01b0316600090815260106020526040902060038101546002820154600954601154611f0c93929190886146a3565b915082821015611f2e5760405162461bcd60e51b8152600401610a3e90615b4e565b611f3c816003015485614843565b6003820155600454604080518681524260208201526001600160a01b03909216913391600080516020615d1d833981519152910160405180910390a3604051828152600080516020615cfd8339815191529060200160405180910390a1600380546001600160a01b03166000908152601060205260408120918201546002830154600954601154611fd09392919088614b7f565b601254600354604051632afbbacb60e01b81526001600160a01b039182166004820152602481018490529293501690632afbbacb90604401602060405180830381865afa158015612025573d6000803e3d6000fd5b505050506040513d601f19601f820116820180604052508101906120499190615bb7565b156121895760125460035460405163ebedb8b360e01b81526001600160a01b0391821660048201526024810184905291169063ebedb8b390604401600060405180830381600087803b15801561209e57600080fd5b505af11580156120b2573d6000803e3d6000fd5b505050506120c4826003015482614843565b60038381019190915554600c54604080518481524260208201526001600160a01b03938416936201000090930490921691600080516020615d1d833981519152910160405180910390a36040518481527f87b3975661762d852ddf2eeaad6a43b2d93777de7b3b7bdb634283df324561189060200160405180910390a161214a846149dd565b600c54612166906201000090046001600160a01b0316856149e6565b600354600c54612189916001600160a01b03908116916201000090041683614895565b612192846149dd565b61219c33856149e6565b6004546121b3906001600160a01b03163388614895565b505050600c805461ff001916905592915050565b610b1464e8d4a51000670de0b6b3a7640000615b8b565b60008061220c6040518060800160405280600081526020016000815260200160008152602001600081525090565b600061222187600160200201518860036119f6565b905061223f86611ac888610e65670de0b6b3a7640000611ac861145b565b82602001818152505061226486611ac888610e65670de0b6b3a764000060005461450d565b82604001818152505061228986611ac888610e65670de0b6b3a764000060015461450d565b82526122a586611ac881610e65670de0b6b3a76400008a61450d565b60608301526000805486906122b861145b565b6001546122c59190615b9f565b6122cf9190615b9f565b6122d99190615b9f565b905060006122ef670de0b6b3a76400008361450d565b90506122fb8882614428565b895190915060009061231190611aa58185614843565b9050600061231f82866149f0565b90506000612335670de0b6b3a76400008361450d565b90506123488c6002602002015182614428565b9850886123638c89604001518a60200151611ac89190615b9f565b9850985050505050505093509350939050565b600c54600090610100900460ff16156123a15760405162461bcd60e51b8152600401610a3e90615ac9565b5060115490565b610b14670de0b6b3a76400006064615b04565b600c54600090610100900460ff16156123e65760405162461bcd60e51b8152600401610a3e90615ac9565b6123ef82614063565b506001600160a01b0381166000908152601060205260409020600201545b919050565b6060600b805461099090615a8e565b6124346003670de0b6b3a7640000615b8b565b610b14906001615b9f565b6001600160a01b03821660009081526010602090815260408083208151608081018352815460ff16151581526001820154938101939093526002810154918301829052600301546060830181905260095460115461170893919087614be8565b60006124ac338484614591565b50600192915050565b60006124bf612879565b905060005b8151811015611de2576000600560008484815181106124e5576124e5615c84565b60200260200101516001600160a01b03166001600160a01b0316815260200190815260200160002054905060006005600085858151811061252857612528615c84565b60200260200101516001600160a01b03166001600160a01b0316815260200190815260200160002081905550612580600e60009054906101000a90046001600160a01b031682858581518110611d1f57611d1f615c84565b7fed2b0288692cfc6d01c94a67a53721792f59c3d1388221f8aa4f66c8d2808dde33600e60009054906101000a90046001600160a01b03168585815181106125ca576125ca615c84565b60200260200101518460405161260894939291906001600160a01b039485168152928416602084015292166040820152606081019190915260800190565b60405180910390a1508061261b81615c9a565b9150506124c4565b600c54610100900460ff161561264b5760405162461bcd60e51b8152600401610a3e90615ac9565b600c805461ff001916610100179055600e54600160a01b900460ff166126835760405162461bcd60e51b8152600401610a3e90615b23565b600061268e60095490565b9050600061269c858361472b565b9050806126bb5760405162461bcd60e51b8152600401610a3e90615c5b565b6126c5338661456a565b6126ce85614574565b60005b600f54811015612828576000600f82815481106126f0576126f0615c84565b60009182526020808320909101546001600160a01b031680835260109091526040822060030154909250906127258583614428565b9050806127445760405162461bcd60e51b8152600401610a3e90615c5b565b87878581811061275657612756615c84565b9050602002013581101561277c5760405162461bcd60e51b8152600401610a3e90615b4e565b6001600160a01b0383166000908152601060205260409020600301546127a2908261450d565b6001600160a01b0384166000818152601060205260409081902060030192909255905133907f9d9058fd2f25ccc389fec7720abef0ca83472f5abfafd5f10d37f51e6a0493f3906127ff9085904290918252602082015260400190565b60405180910390a361281283338361457d565b505050808061282090615c9a565b9150506126d1565b50604051858152600080516020615cfd8339815191529060200161199d565b610b14600a670de0b6b3a7640000615b8b565b600161286f670de0b6b3a76400006002615b04565b610b149190615cb5565b600c54606090610100900460ff16156128a45760405162461bcd60e51b8152600401610a3e90615ac9565b600e54600160a01b900460ff166128cd5760405162461bcd60e51b8152600401610a3e90615b23565b600f805480602002602001604051908101604052809291908181526020018280548015610a0957602002820191906000526020600020905b81546001600160a01b03168152600190910190602001808311612905575050505050905090565b6060806000612939612879565b90506000815167ffffffffffffffff811115612957576129576157fd565b604051908082528060200260200182016040528015612980578160200160208202803683370190505b5090506000825167ffffffffffffffff81111561299f5761299f6157fd565b6040519080825280602002602001820160405280156129c8578160200160208202803683370190505b50905060005b8351811015612a91578381815181106129e9576129e9615c84565b6020026020010151838281518110612a0357612a03615c84565b60200260200101906001600160a01b031690816001600160a01b03168152505060056000858381518110612a3957612a39615c84565b60200260200101516001600160a01b03166001600160a01b0316815260200190815260200160002054828281518110612a7457612a74615c84565b602090810291909101015280612a8981615c9a565b9150506129ce565b509094909350915050565b601254600090600160a01b900460ff1615612af95760405162461bcd60e51b815260206004820152601760248201527f4552525f414c52454144595f494e495449414c495a45440000000000000000006044820152606401610a3e565b6001600160a01b038916612b4f5760405162461bcd60e51b815260206004820152601e60248201527f4552525f494e56414c49445f434f4e54524f4c4c45525f4144445245535300006044820152606401610a3e565b6001600160a01b038816612ba55760405162461bcd60e51b815260206004820152601b60248201527f4552525f494e56414c49445f464143544f52595f4144445245535300000000006044820152606401610a3e565b612bb9612710670de0b6b3a7640000615b8b565b87876000818110612bcc57612bcc615c84565b905060200201351015612bf15760405162461bcd60e51b8152600401610a3e90615bd4565b612c04600a670de0b6b3a7640000615b8b565b87876000818110612c1757612c17615c84565b905060200201351115612c3c5760405162461bcd60e51b8152600401610a3e90615bf9565b86866001818110612c4f57612c4f615c84565b9050602002013560001480612c905750612c73612710670de0b6b3a7640000615b8b565b87876001818110612c8657612c86615c84565b9050602002013510155b612cac5760405162461bcd60e51b8152600401610a3e90615bd4565b612cbf600a670de0b6b3a7640000615b8b565b87876001818110612cd257612cd2615c84565b905060200201351115612cf75760405162461bcd60e51b8152600401610a3e90615bf9565b612d7d8989898980806020026020016040519081016040528093929190818152602001838360200280828437600092019190915250506040805180820182528c93508b9250908a9060029083908390808284376000920191909152505060408051808201825291508a906002908390839080828437600092019190915250614ca7915050565b9998505050505050505050565b600c546000908190610100900460ff1615612db75760405162461bcd60e51b8152600401610a3e90615ac9565b600c805461ff001916610100179055600e54600160a01b900460ff16612def5760405162461bcd60e51b8152600401610a3e90615b23565b612dff6040850160208601615738565b6001600160a01b0316612e156020860186615738565b6001600160a01b03161415612e655760405162461bcd60e51b815260206004820152601660248201527521b0b73737ba1039bbb0b81039b0b6b2903a37b5b2b760511b6044820152606401610a3e565b612e848460005b602002016020810190612e7f9190615738565b614063565b612e8f846001612e6c565b6000601081612ea16020880188615738565b6001600160a01b03168152602081019190915260400160009081209150601081876001602002016020810190612ed79190615738565b6001600160a01b031681526020810191909152604001600020905060608501351580612f1a5750612f12612710670de0b6b3a7640000615b8b565b606086013510155b612f5f5760405162461bcd60e51b8152602060048201526016602482015275436f6e73756d655377617046656520746f6f206c6f7760501b6044820152606401610a3e565b612f72600a670de0b6b3a7640000615b8b565b60608601351115612fbf5760405162461bcd60e51b8152602060048201526017602482015276086dedce6eadacaa6eec2e08ccaca40e8dede40d0d2ced604b1b6044820152606401610a3e565b6003820154612fdb90610e656002670de0b6b3a7640000615b8b565b8535111561301e5760405162461bcd60e51b815260206004820152601060248201526f4552525f4d41585f494e5f524154494f60801b6044820152606401610a3e565b600061305483600301548460020154846003015485600201548a60036004811061304a5761304a615c84565b60200201356140be565b905060408601358111156130a05760405162461bcd60e51b81526020600482015260136024820152724552525f4241445f4c494d49545f505249434560681b6044820152606401610a3e565b6000806040518060800160405280866003015481526020018660020154815260200185600301548152602001856002015481525090506131016040518060800160405280600081526020016000815260200160008152602001600081525090565b613111828a3560608c01356121de565b91995093509050613160600560008c815b6020020160208101906131359190615738565b6001600160a01b03166001600160a01b03168152602001908152602001600020548260200151614843565b6005600061317160208e018e615738565b6001600160a01b03166001600160a01b03168152602001908152602001600020819055506131ed600660008c6000600381106131af576131af615c84565b6020020160208101906131c29190615738565b6001600160a01b03166001600160a01b03168152602001908152602001600020548260400151614843565b600660006131fe60208e018e615738565b6001600160a01b03166001600160a01b03168152602001908152602001600020819055507f53a9dc73d01196a9c660d761bc5ec77b945340a34b5b52e510760af2dab1c0f181600001518260200151836040015184606001518e60006003811061326a5761326a615c84565b60200201602081019061327d9190615738565b6040805195865260208601949094529284019190915260608301526001600160a01b0316608082015260a00160405180910390a160208901358810156132d55760405162461bcd60e51b8152600401610a3e90615b4e565b6132e3866003015484614843565b86600301819055506132f985600301548961450d565b856003018190555061332b86600301548760020154876003015488600201548d60036004811061304a5761304a615c84565b96508387101561334d5760405162461bcd60e51b8152600401610a3e90615c5b565b60408901358711156133935760405162461bcd60e51b815260206004820152600f60248201526e4552525f4c494d49545f505249434560881b6044820152606401610a3e565b61339e89358961472b565b8411156133bd5760405162461bcd60e51b8152600401610a3e90615c5b565b6133cd60408b0160208c01615738565b6001600160a01b03166133e360208c018c615738565b60038089015490880154604080518e358152602081018e905242918101919091526060810192909252608082015260a081018a90526001600160a01b03919091169033907fbdafe88494b31fc7436fe7992b0f377e874287e841e62eed1ad77e84f3c5b1719060c00160405180910390a461346c61346460208c018c615738565b338b35614895565b60006134918a35611ac881610e65670de0b6b3a76400008f60035b602002013561450d565b905060608a01351561352c576134d58b60025b6020020160208101906134b79190615738565b826134c560208f018f615738565b6001600160a01b03169190614b1c565b7f6d11837f46cc09b011cf4aae09fcade046c020aac088090ae4f77ff67b70797261350660608d0160408e01615738565b61351360208e018e615738565b8360405161352393929190615c1e565b60405180910390a15b61354661353f60408d0160208e01615738565b338b61457d565b50505050505050600c805461ff001916905590939092509050565b606080600061356e612879565b90506000815167ffffffffffffffff81111561358c5761358c6157fd565b6040519080825280602002602001820160405280156135b5578160200160208202803683370190505b5090506000825167ffffffffffffffff8111156135d4576135d46157fd565b6040519080825280602002602001820160405280156135fd578160200160208202803683370190505b50905060005b8351811015612a915783818151811061361e5761361e615c84565b602002602001015183828151811061363857613638615c84565b60200260200101906001600160a01b031690816001600160a01b0316815250506006600085838151811061366e5761366e615c84565b60200260200101516001600160a01b03166001600160a01b03168152602001908152602001600020548282815181106136a9576136a9615c84565b6020908102919091010152806136be81615c9a565b915050613603565b600c546000908190610100900460ff16156136f35760405162461bcd60e51b8152600401610a3e90615ac9565b600c805461ff001916610100179055600e54600160a01b900460ff1661372b5760405162461bcd60e51b8152600401610a3e90615b23565b61373b6040850160208601615738565b6001600160a01b03166137516020860186615738565b6001600160a01b031614156137a15760405162461bcd60e51b815260206004820152601660248201527521b0b73737ba1039bbb0b81039b0b6b2903a37b5b2b760511b6044820152606401610a3e565b606083013515806137c957506137c1612710670de0b6b3a7640000615b8b565b606084013510155b61380e5760405162461bcd60e51b8152602060048201526016602482015275436f6e73756d655377617046656520746f6f206c6f7760501b6044820152606401610a3e565b613821600a670de0b6b3a7640000615b8b565b6060840135111561386e5760405162461bcd60e51b8152602060048201526017602482015276086dedce6eadacaa6eec2e08ccaca40e8dede40d0d2ced604b1b6044820152606401610a3e565b613879846000612e6c565b613884846001612e6c565b60006010816138966020880188615738565b6001600160a01b031681526020810191909152604001600090812091506010818760016020020160208101906138cc9190615738565b6001600160a01b03166001600160a01b03168152602001908152602001600020905061390b81600301546003670de0b6b3a7640000610e5a9190615b8b565b602086013511156139525760405162461bcd60e51b81526020600482015260116024820152704552525f4d41585f4f55545f524154494f60781b6044820152606401610a3e565b600061397e83600301548460020154846003015485600201548a60036004811061304a5761304a615c84565b905060408601358111156139ca5760405162461bcd60e51b81526020600482015260136024820152724552525f4241445f4c494d49545f505249434560681b6044820152606401610a3e565b600080604051806080016040528086600301548152602001866002015481526020018560030154815260200185600201548152509050613a2b6040518060800160405280600081526020016000815260200160008152602001600081525090565b613a3e8260208b013560608c01356119b7565b91995093509050613a53600560008c81613122565b60056000613a6460208e018e615738565b6001600160a01b03166001600160a01b0316815260200190815260200160002081905550613aa2600660008c6000600381106131af576131af615c84565b60066000613ab360208e018e615738565b6001600160a01b03166001600160a01b03168152602001908152602001600020819055507f53a9dc73d01196a9c660d761bc5ec77b945340a34b5b52e510760af2dab1c0f181600001518260200151836040015184606001518e600060038110613b1f57613b1f615c84565b602002016020810190613b329190615738565b6040805195865260208601949094529284019190915260608301526001600160a01b0316608082015260a00160405180910390a18835881115613ba65760405162461bcd60e51b815260206004820152600c60248201526b22a9292fa624a6a4aa2fa4a760a11b6044820152606401610a3e565b613bb4866003015484614843565b600380880191909155850154613bcc908a6001613487565b8560030181905550613bfe86600301548760020154876003015488600201548d60036004811061304a5761304a615c84565b965083871015613c205760405162461bcd60e51b8152600401610a3e90615c5b565b6040890135871115613c665760405162461bcd60e51b815260206004820152600f60248201526e4552525f4c494d49545f505249434560881b6044820152606401610a3e565b613c748860208b013561472b565b841115613c935760405162461bcd60e51b8152600401610a3e90615c5b565b613ca360408b0160208c01615738565b6001600160a01b0316613cb960208c018c615738565b6001600160a01b0316337fbdafe88494b31fc7436fe7992b0f377e874287e841e62eed1ad77e84f3c5b1718b8d60016020020135428c600301548c600301548f604051613d2e96959493929190958652602086019490945260408501929092526060840152608083015260a082015260c00190565b60405180910390a4613d4d613d4660208c018c615738565b338a614895565b6000613d6b89611ac881610e65670de0b6b3a76400008f6003613487565b905060608a013515613dd957613d828b60026134a4565b7f6d11837f46cc09b011cf4aae09fcade046c020aac088090ae4f77ff67b707972613db360608d0160408e01615738565b613dc060208e018e615738565b83604051613dd093929190615c1e565b60405180910390a15b613546613dec60408d0160208e01615738565b3360208d013561457d565b6000806000806000613e0889614063565b613e1188614063565b604080516080810182526001600160a01b03808c16600090815260106020818152858320600380820154875260029182015483880152948f16808552838352878520958601549787019790975295835252920154606082015290613e966040518060800160405280600081526020016000815260200160008152602001600081525090565b61157f838b8b6119b7565b600c54606090610100900460ff16156128cd5760405162461bcd60e51b8152600401610a3e90615ac9565b3360009081526008602090815260408083206001600160a01b0386168452909152812054613efa9083614843565b3360008181526008602090815260408083206001600160a01b03891680855290835292819020859055519384529092600080516020615d3d8339815191529101610aef565b610b146002670de0b6b3a7640000615b8b565b600c54600090610100900460ff1615613f7d5760405162461bcd60e51b8152600401610a3e90615ac9565b613f8682614063565b6001600160a01b038216600090815260106020526040902060020154601154610a9f90829061472b565b600c54600090610100900460ff1615613fdb5760405162461bcd60e51b8152600401610a3e90615ac9565b613fe482614063565b506001600160a01b031660009081526010602052604090206003015490565b6001600160a01b03821660009081526010602090815260408083208151608081018352815460ff16151581526001820154938101939093526002810154918301829052600301546060830181905260095460115461170893919087614b7f565b6001600160a01b03811660009081526010602052604090205460ff166140bb5760405162461bcd60e51b815260206004820152600d60248201526c11549497d393d517d093d55391609a1b6044820152606401610a3e565b50565b6000806140cb878761472b565b905060006140d9868661472b565b905060006140e7838361472b565b90506000614130670de0b6b3a7640000611aa5670de0b6b3a76400008960005461410f61145b565b60015461411c9190615b9f565b6141269190615b9f565b611ac89190615b9f565b905061413c8282614428565b9a9950505050505050505050565b600c546201000090046001600160a01b0316331461419f5760405162461bcd60e51b815260206004820152601260248201527122a9292fa727aa2fa1a7a72a2927a62622a960711b6044820152606401610a3e565b6001600160a01b03831660009081526010602052604090205460ff16156141f75760405162461bcd60e51b815260206004820152600c60248201526b11549497d254d7d093d5539160a21b6044820152606401610a3e565b600e54600160a01b900460ff16156142445760405162461bcd60e51b815260206004820152601060248201526f11549497d254d7d1925390531256915160821b6044820152606401610a3e565b600f546002116142875760405162461bcd60e51b815260206004820152600e60248201526d4552525f4d41585f544f4b454e5360901b6044820152606401610a3e565b604080516080810182526001808252600f805460208085019182526000858701818152606087018281526001600160a01b038c1680845260109094529782209651875460ff1916901515178755925186860155915160028601559451600390940193909355805491820181559091527f8d1108e10bcb7c27dddfc02ed9d693a074039d026cf4ea4240b40f7d581ac8020180546001600160a01b0319169091179055614334838383614e75565b505050565b600e805460ff60a01b1916600160a01b179055600c805460ff60b01b1916600160b01b17905561437a614375670de0b6b3a76400006064615b04565b6149dd565b61439633614391670de0b6b3a76400006064615b04565b6149e6565b565b6000806143a5868561472b565b905060006143c084610e65670de0b6b3a7640000600061450d565b905060006143ce878361450d565b905060006143dc828961472b565b905060006143fb826143f6670de0b6b3a76400008861472b565b6149f0565b90506000614409828d614428565b905060006144178d8361450d565b9d9c50505050505050505050505050565b6000806144358385615b04565b905083158061444c57508261444a8583615b8b565b145b61448b5760405162461bcd60e51b815260206004820152601060248201526f4552525f4d554c5f4f564552464c4f5760801b6044820152606401610a3e565b60006144a06002670de0b6b3a7640000615b8b565b6144aa9083615b9f565b9050818110156144ef5760405162461bcd60e51b815260206004820152601060248201526f4552525f4d554c5f4f564552464c4f5760801b6044820152606401610a3e565b6000614503670de0b6b3a764000083615b8b565b9695505050505050565b600080600061451c8585615094565b9150915080156145625760405162461bcd60e51b81526020600482015260116024820152704552525f5355425f554e444552464c4f5760781b6044820152606401610a3e565b509392505050565b611de282826150cb565b6140bb816150d6565b6143346001600160a01b0384168383614b1c565b6001600160a01b0383166000908152600760205260409020548111156145f05760405162461bcd60e51b815260206004820152601460248201527311549497d25394d551919250d251539517d0905360621b6044820152606401610a3e565b6001600160a01b038316600090815260076020526040902054614613908261450d565b6001600160a01b0380851660009081526007602052604080822093909355908416815220546146429082614843565b6001600160a01b0380841660008181526007602052604090819020939093559151908516907fddf252ad1be2c89b69c2b068fc378daa952ba7f163c4a11628f55a4df523b3ef906146969085815260200190565b60405180910390a3505050565b6000806146b0868561472b565b905060006146d16146c9670de0b6b3a76400008461450d565b600154614428565b905060006146e785670de0b6b3a7640000614428565b905060006146f58a83614843565b90506000614703828c61472b565b9050600061471182876149f0565b9050600061471f828c614428565b9050614417818c61450d565b6000816147695760405162461bcd60e51b815260206004820152600c60248201526b4552525f4449565f5a45524f60a01b6044820152606401610a3e565b600061477d670de0b6b3a764000085615b04565b905083158061479c5750670de0b6b3a764000061479a8583615b8b565b145b6147db5760405162461bcd60e51b815260206004820152601060248201526f11549497d1125597d25395115493905360821b6044820152606401610a3e565b60006147e8600285615b8b565b6147f29083615b9f565b9050818110156148375760405162461bcd60e51b815260206004820152601060248201526f11549497d1125597d25395115493905360821b6044820152606401610a3e565b60006145038583615b8b565b6000806148508385615b9f565b905083811015610a9f5760405162461bcd60e51b815260206004820152601060248201526f4552525f4144445f4f564552464c4f5760801b6044820152606401610a3e565b6040516370a0823160e01b81523060048201526000906001600160a01b038516906370a0823190602401602060405180830381865afa1580156148dc573d6000803e3d6000fd5b505050506040513d601f19601f820116820180604052508101906149009190615c42565b90506149176001600160a01b0385168430856151a2565b6149218282615b9f565b6040516370a0823160e01b81523060048201526001600160a01b038616906370a0823190602401602060405180830381865afa158015614965573d6000803e3d6000fd5b505050506040513d601f19601f820116820180604052508101906149899190615c42565b10156149d75760405162461bcd60e51b815260206004820152601a60248201527f5472616e7366657220616d6f756e7420697320746f6f206c6f770000000000006044820152606401610a3e565b50505050565b6140bb816151c3565b611de28282615232565b60006001831015614a3b5760405162461bcd60e51b81526020600482015260156024820152744552525f42504f575f424153455f544f4f5f4c4f5760581b6044820152606401610a3e565b6001614a50670de0b6b3a76400006002615b04565b614a5a9190615cb5565b831115614aa25760405162461bcd60e51b815260206004820152601660248201527508aa4a4be84a09eaebe8482a68abea89e9ebe90928e960531b6044820152606401610a3e565b6000614aad8361523d565b90506000614abb848361450d565b90506000614ad186614acc8561525b565b61526f565b905081614ae2579250610afb915050565b6000614b058784614b006402540be400670de0b6b3a7640000615b8b565b6152e3565b9050614b118282614428565b979650505050505050565b6040516001600160a01b03831660248201526044810182905261433490849063a9059cbb60e01b906064015b60408051601f198184030181529190526020810180516001600160e01b03166001600160e01b0319909316929092179091526153d3565b600080614b8c868561472b565b90506000614b9a8685614843565b90506000614ba8828861472b565b90506000614bbe670de0b6b3a76400008561472b565b90506000614bcc83836149f0565b90506000614bda828d614428565b90506000614417828e61450d565b600080614bf5868561472b565b90506000614c0b670de0b6b3a76400008361450d565b90506000614c1b82600154614428565b90506000614c3586611aa5670de0b6b3a76400008561450d565b90506000614c438b8361450d565b90506000614c51828d61472b565b90506000614c5f82886149f0565b90506000614c6d828d614428565b90506000614c7b8d8361450d565b9050614c9481611aa5670de0b6b3a7640000600061450d565b9f9e505050505050505050505050505050565b600c805462010000600160b01b031916620100006001600160a01b038a81169190910291909117909155600280546001600160a01b031916918816919091179055845160009086908290614cfd57614cfd615c84565b602090810291909101810151600181905560408051338152928301919091527fbca0d601c32979eebac4e8cd06375b6e45d39af80fc06a33f366425b450dfb69910160405180910390a185600181518110614d5a57614d5a615c84565b6020908102919091018101516000819055600c805460ff60b01b1916600160b01b89151502179055600e805460ff60a01b1916600160a01b881515021790558451600380546001600160a01b03199081166001600160a01b0393841617909155928601516004805485169183169190911790558451600d805490941691169081179092556040517f5e3e722dbd3b6b8071b78568ac80cd0e8ff92e4fb3024e755d504d8f7c2f6f0992614e0e923392615c1e565b60405180910390a18160016020020151600e80546001600160a01b0319166001600160a01b0392831617905560128054600c54600160a01b620100009091049093166001600160a81b03199091161782179081905560ff9190041698975050505050505050565b670de0b6b3a7640000811015614ebe5760405162461bcd60e51b815260206004820152600e60248201526d11549497d3525397d5d15251d21560921b6044820152606401610a3e565b614ed1670de0b6b3a76400006032615b04565b811115614f115760405162461bcd60e51b815260206004820152600e60248201526d11549497d3505617d5d15251d21560921b6044820152606401610a3e565b614f2864e8d4a51000670de0b6b3a7640000615b8b565b821015614f695760405162461bcd60e51b815260206004820152600f60248201526e4552525f4d494e5f42414c414e434560881b6044820152606401610a3e565b6001600160a01b0383166000908152601060205260409020600201548082111561500557614fa2601154614f9d848461450d565b614843565b601155614fb8670de0b6b3a76400006032615b04565b60115411156150005760405162461bcd60e51b815260206004820152601460248201527311549497d3505617d513d5105317d5d15251d21560621b6044820152606401610a3e565b615021565b808210156150215761501d601154611ac8838561450d565b6011555b6001600160a01b0384166000908152601060205260409020600281018390556003018054908490558084111561506a576150658533615060878561450d565b614895565b61508d565b8084101561508d57600061507e828661450d565b905061508b86338361457d565b505b5050505050565b6000808284106150b3576150a88385615cb5565b6000915091506150c4565b6150bd8484615cb5565b6001915091505b9250929050565b611de2823083614591565b3060009081526007602052604090205481111561512c5760405162461bcd60e51b815260206004820152601460248201527311549497d25394d551919250d251539517d0905360621b6044820152606401610a3e565b30600090815260076020526040902054615146908261450d565b30600090815260076020526040902055600954615163908261450d565b60095560405181815260009030907fddf252ad1be2c89b69c2b068fc378daa952ba7f163c4a11628f55a4df523b3ef906020015b60405180910390a350565b6149d7846323b872dd60e01b858585604051602401614b4893929190615c1e565b306000908152600760205260409020546151dd9082614843565b306000908152600760205260409020556009546151fa9082614843565b60095560405181815230906000907fddf252ad1be2c89b69c2b068fc378daa952ba7f163c4a11628f55a4df523b3ef90602001615197565b611de2308383614591565b6000670de0b6b3a76400006152518361525b565b610afb9190615b04565b6000610afb670de0b6b3a764000083615b8b565b6000828161527e600285615ccc565b61529057670de0b6b3a7640000615292565b815b905061529f600285615b8b565b93505b8315611708576152b28283614428565b91506152bf600285615ccc565b156152d1576152ce8183614428565b90505b6152dc600285615b8b565b93506152a2565b60008281806152fa87670de0b6b3a7640000615094565b9092509050670de0b6b3a764000080600060015b8884106153c4576000615329670de0b6b3a764000083615b04565b90506000806153498a61534485670de0b6b3a764000061450d565b615094565b9150915061535b87610e65848c614428565b9650615367878461472b565b965086615376575050506153c4565b8715615380579315935b801561538a579315935b84156153a15761539a868861450d565b95506153ae565b6153ab8688614843565b95505b50505080806153bc90615c9a565b91505061530e565b50909998505050505050505050565b6000615428826040518060400160405280602081526020017f5361666545524332303a206c6f772d6c6576656c2063616c6c206661696c6564815250856001600160a01b03166154a59092919063ffffffff16565b80519091501561433457808060200190518101906154469190615bb7565b6143345760405162461bcd60e51b815260206004820152602a60248201527f5361666545524332303a204552433230206f7065726174696f6e20646964206e6044820152691bdd081cdd58d8d9595960b21b6064820152608401610a3e565b6060611708848460008585843b6154fe5760405162461bcd60e51b815260206004820152601d60248201527f416464726573733a2063616c6c20746f206e6f6e2d636f6e74726163740000006044820152606401610a3e565b600080866001600160a01b0316858760405161551a9190615ce0565b60006040518083038185875af1925050503d8060008114615557576040519150601f19603f3d011682016040523d82523d6000602084013e61555c565b606091505b5091509150614b1182828660608315615576575081610a9f565b8251156155865782518084602001fd5b8160405162461bcd60e51b8152600401610a3e91906155cc565b60005b838110156155bb5781810151838201526020016155a3565b838111156149d75750506000910152565b60208152600082518060208401526155eb8160408501602087016155a0565b601f01601f19169190910160400192915050565b80356001600160a01b038116811461240d57600080fd5b60008060006060848603121561562b57600080fd5b615634846155ff565b9250615642602085016155ff565b9150604084013590509250925092565b6000806040838503121561566557600080fd5b61566e836155ff565b946020939093013593505050565b60008060008060008060c0878903121561569557600080fd5b61569e876155ff565b955060208701359450604087013593506156ba606088016155ff565b92506080870135915060a087013590509295509295509295565b600080604083850312156156e757600080fd5b50508035926020909101359150565b6000806000806080858703121561570c57600080fd5b615715856155ff565b9350615723602086016155ff565b93969395505050506040820135916060013590565b60006020828403121561574a57600080fd5b610a9f826155ff565b60006020828403121561576557600080fd5b5035919050565b60008083601f84011261577e57600080fd5b50813567ffffffffffffffff81111561579657600080fd5b6020830191508360208260051b85010111156150c457600080fd5b6000806000604084860312156157c657600080fd5b83359250602084013567ffffffffffffffff8111156157e457600080fd5b6157f08682870161576c565b9497909650939450505050565b634e487b7160e01b600052604160045260246000fd5b600080600060c0848603121561582857600080fd5b84601f85011261583757600080fd5b6040516080810181811067ffffffffffffffff8211171561585a5761585a6157fd565b60405280608086018781111561586f57600080fd5b865b81811015615889578035835260209283019201615871565b509197913596505060a094909401359392505050565b600081518084526020808501945080840160005b838110156158d85781516001600160a01b0316875295820195908201906001016158b3565b509495945050505050565b602081526000610a9f602083018461589f565b604081526000615909604083018561589f565b82810360208481019190915284518083528582019282019060005b8181101561594057845183529383019391830191600101615924565b5090979650505050505050565b80151581146140bb57600080fd5b8060408101831015610afb57600080fd5b600080600080600080600080610120898b03121561598957600080fd5b615992896155ff565b97506159a060208a016155ff565b9650604089013567ffffffffffffffff8111156159bc57600080fd5b6159c88b828c0161576c565b90975095505060608901356159dc8161594d565b935060808901356159ec8161594d565b92506159fb8a60a08b0161595b565b9150615a0a8a60e08b0161595b565b90509295985092959890939650565b60008060e08385031215615a2c57600080fd5b6060830184811115615a3d57600080fd5b8392508460e085011115615a5057600080fd5b809150509250929050565b60008060408385031215615a6e57600080fd5b615a77836155ff565b9150615a85602084016155ff565b90509250929050565b600181811c90821680615aa257607f821691505b60208210811415615ac357634e487b7160e01b600052602260045260246000fd5b50919050565b6020808252600b908201526a4552525f5245454e54525960a81b604082015260600190565b634e487b7160e01b600052601160045260246000fd5b6000816000190483118215151615615b1e57615b1e615aee565b500290565b60208082526011908201527011549497d393d517d19253905312569151607a1b604082015260600190565b6020808252600d908201526c11549497d31253525517d3d555609a1b604082015260600190565b634e487b7160e01b600052601260045260246000fd5b600082615b9a57615b9a615b75565b500490565b60008219821115615bb257615bb2615aee565b500190565b600060208284031215615bc957600080fd5b8151610a9f8161594d565b6020808252600b908201526a4552525f4d494e5f46454560a81b604082015260600190565b6020808252600b908201526a4552525f4d41585f46454560a81b604082015260600190565b6001600160a01b039384168152919092166020820152604081019190915260600190565b600060208284031215615c5457600080fd5b5051919050565b6020808252600f908201526e08aa4a4be9a82a890be82a0a0a49eb608b1b604082015260600190565b634e487b7160e01b600052603260045260246000fd5b6000600019821415615cae57615cae615aee565b5060010190565b600082821015615cc757615cc7615aee565b500390565b600082615cdb57615cdb615b75565b500690565b60008251615cf28184602087016155a0565b919091019291505056fefcda32798d5a9d032f49b37fea876d422f18f6e386e0f07db6029b693624b2c215a8ca63e37b2cff1677df2b6b82d36fcf8a524228bd7a4b4d02d107c28c1e8a8c5be1e5ebec7d5bd14f71427d1e84f3dd0314c0f7b2291e5b200ac8c7c3b925a264697066735822122085052f1e19dd6dd2ce27e127880674cc02d3c11429e62fed5e2831c870d268b664736f6c634300080c0033",
  "linkReferences": {},
  "deployedLinkReferences": {}
}