{
  "_format": "hh-sol-artifact-1",
  "contractName": "BPool",
  "sourceName": "contracts/pools/balancer/BPool.sol",
  "abi": [
    {
      "anonymous": false,
      "inputs": [
        {
          "indexed": true,
          "internalType": "address",
          "name": "src",
          "type": "address"
        },
        {
          "indexed": true,
          "internalType": "address",
          "name": "dst",
          "type": "address"
        },
        {
          "indexed": false,
          "internalType": "uint256",
          "name": "amt",
          "type": "uint256"
        }
      ],
      "name": "Approval",
      "type": "event"
    },
    {
      "anonymous": false,
      "inputs": [
        {
          "indexed": false,
          "internalType": "uint256",
          "name": "bptAmount",
          "type": "uint256"
        }
      ],
      "name": "LOG_BPT",
      "type": "event"
    },
    {
      "anonymous": false,
      "inputs": [
        {
          "indexed": true,
          "internalType": "bytes4",
          "name": "sig",
          "type": "bytes4"
        },
        {
          "indexed": true,
          "internalType": "address",
          "name": "caller",
          "type": "address"
        },
        {
          "indexed": false,
          "internalType": "uint256",
          "name": "timestamp",
          "type": "uint256"
        },
        {
          "indexed": false,
          "internalType": "bytes",
          "name": "data",
          "type": "bytes"
        }
      ],
      "name": "LOG_CALL",
      "type": "event"
    },
    {
      "anonymous": false,
      "inputs": [
        {
          "indexed": true,
          "internalType": "address",
          "name": "caller",
          "type": "address"
        },
        {
          "indexed": true,
          "internalType": "address",
          "name": "tokenOut",
          "type": "address"
        },
        {
          "indexed": false,
          "internalType": "uint256",
          "name": "tokenAmountOut",
          "type": "uint256"
        },
        {
          "indexed": false,
          "internalType": "uint256",
          "name": "timestamp",
          "type": "uint256"
        }
      ],
      "name": "LOG_EXIT",
      "type": "event"
    },
    {
      "anonymous": false,
      "inputs": [
        {
          "indexed": true,
          "internalType": "address",
          "name": "caller",
          "type": "address"
        },
        {
          "indexed": true,
          "internalType": "address",
          "name": "tokenIn",
          "type": "address"
        },
        {
          "indexed": false,
          "internalType": "uint256",
          "name": "tokenAmountIn",
          "type": "uint256"
        },
        {
          "indexed": false,
          "internalType": "uint256",
          "name": "timestamp",
          "type": "uint256"
        }
      ],
      "name": "LOG_JOIN",
      "type": "event"
    },
    {
      "anonymous": false,
      "inputs": [
        {
          "indexed": true,
          "internalType": "address",
          "name": "caller",
          "type": "address"
        },
        {
          "indexed": true,
          "internalType": "address",
          "name": "baseToken",
          "type": "address"
        },
        {
          "indexed": false,
          "internalType": "uint256",
          "name": "baseTokenAmountIn",
          "type": "uint256"
        },
        {
          "indexed": false,
          "internalType": "uint256",
          "name": "baseTokenWeight",
          "type": "uint256"
        },
        {
          "indexed": true,
          "internalType": "address",
          "name": "dataToken",
          "type": "address"
        },
        {
          "indexed": false,
          "internalType": "uint256",
          "name": "dataTokenAmountIn",
          "type": "uint256"
        },
        {
          "indexed": false,
          "internalType": "uint256",
          "name": "dataTokenWeight",
          "type": "uint256"
        }
      ],
      "name": "LOG_SETUP",
      "type": "event"
    },
    {
      "anonymous": false,
      "inputs": [
        {
          "indexed": true,
          "internalType": "address",
          "name": "caller",
          "type": "address"
        },
        {
          "indexed": true,
          "internalType": "address",
          "name": "tokenIn",
          "type": "address"
        },
        {
          "indexed": true,
          "internalType": "address",
          "name": "tokenOut",
          "type": "address"
        },
        {
          "indexed": false,
          "internalType": "uint256",
          "name": "tokenAmountIn",
          "type": "uint256"
        },
        {
          "indexed": false,
          "internalType": "uint256",
          "name": "tokenAmountOut",
          "type": "uint256"
        },
        {
          "indexed": false,
          "internalType": "uint256",
          "name": "timestamp",
          "type": "uint256"
        }
      ],
      "name": "LOG_SWAP",
      "type": "event"
    },
    {
      "anonymous": false,
      "inputs": [
        {
          "indexed": false,
          "internalType": "uint256",
          "name": "swapFeeAmount",
          "type": "uint256"
        },
        {
          "indexed": false,
          "internalType": "uint256",
          "name": "oceanFeeAmount",
          "type": "uint256"
        },
        {
          "indexed": false,
          "internalType": "uint256",
          "name": "marketFeeAmount",
          "type": "uint256"
        },
        {
          "indexed": false,
          "internalType": "address",
          "name": "tokenFees",
          "type": "address"
        }
      ],
      "name": "SWAP_FEES",
      "type": "event"
    },
    {
      "anonymous": false,
      "inputs": [
        {
          "indexed": true,
          "internalType": "address",
          "name": "src",
          "type": "address"
        },
        {
          "indexed": true,
          "internalType": "address",
          "name": "dst",
          "type": "address"
        },
        {
          "indexed": false,
          "internalType": "uint256",
          "name": "amt",
          "type": "uint256"
        }
      ],
      "name": "Transfer",
      "type": "event"
    },
    {
      "inputs": [],
      "name": "BONE",
      "outputs": [
        {
          "internalType": "uint256",
          "name": "",
          "type": "uint256"
        }
      ],
      "stateMutability": "view",
      "type": "function"
    },
    {
      "inputs": [],
      "name": "BPOW_PRECISION",
      "outputs": [
        {
          "internalType": "uint256",
          "name": "",
          "type": "uint256"
        }
      ],
      "stateMutability": "view",
      "type": "function"
    },
    {
      "inputs": [],
      "name": "EXIT_FEE",
      "outputs": [
        {
          "internalType": "uint256",
          "name": "",
          "type": "uint256"
        }
      ],
      "stateMutability": "view",
      "type": "function"
    },
    {
      "inputs": [],
      "name": "INIT_POOL_SUPPLY",
      "outputs": [
        {
          "internalType": "uint256",
          "name": "",
          "type": "uint256"
        }
      ],
      "stateMutability": "view",
      "type": "function"
    },
    {
      "inputs": [],
      "name": "MAX_BOUND_TOKENS",
      "outputs": [
        {
          "internalType": "uint256",
          "name": "",
          "type": "uint256"
        }
      ],
      "stateMutability": "view",
      "type": "function"
    },
    {
      "inputs": [],
      "name": "MAX_BPOW_BASE",
      "outputs": [
        {
          "internalType": "uint256",
          "name": "",
          "type": "uint256"
        }
      ],
      "stateMutability": "view",
      "type": "function"
    },
    {
      "inputs": [],
      "name": "MAX_FEE",
      "outputs": [
        {
          "internalType": "uint256",
          "name": "",
          "type": "uint256"
        }
      ],
      "stateMutability": "view",
      "type": "function"
    },
    {
      "inputs": [],
      "name": "MAX_IN_RATIO",
      "outputs": [
        {
          "internalType": "uint256",
          "name": "",
          "type": "uint256"
        }
      ],
      "stateMutability": "view",
      "type": "function"
    },
    {
      "inputs": [],
      "name": "MAX_OUT_RATIO",
      "outputs": [
        {
          "internalType": "uint256",
          "name": "",
          "type": "uint256"
        }
      ],
      "stateMutability": "view",
      "type": "function"
    },
    {
      "inputs": [],
      "name": "MAX_TOTAL_WEIGHT",
      "outputs": [
        {
          "internalType": "uint256",
          "name": "",
          "type": "uint256"
        }
      ],
      "stateMutability": "view",
      "type": "function"
    },
    {
      "inputs": [],
      "name": "MAX_WEIGHT",
      "outputs": [
        {
          "internalType": "uint256",
          "name": "",
          "type": "uint256"
        }
      ],
      "stateMutability": "view",
      "type": "function"
    },
    {
      "inputs": [],
      "name": "MIN_BALANCE",
      "outputs": [
        {
          "internalType": "uint256",
          "name": "",
          "type": "uint256"
        }
      ],
      "stateMutability": "view",
      "type": "function"
    },
    {
      "inputs": [],
      "name": "MIN_BOUND_TOKENS",
      "outputs": [
        {
          "internalType": "uint256",
          "name": "",
          "type": "uint256"
        }
      ],
      "stateMutability": "view",
      "type": "function"
    },
    {
      "inputs": [],
      "name": "MIN_BPOW_BASE",
      "outputs": [
        {
          "internalType": "uint256",
          "name": "",
          "type": "uint256"
        }
      ],
      "stateMutability": "view",
      "type": "function"
    },
    {
      "inputs": [],
      "name": "MIN_FEE",
      "outputs": [
        {
          "internalType": "uint256",
          "name": "",
          "type": "uint256"
        }
      ],
      "stateMutability": "view",
      "type": "function"
    },
    {
      "inputs": [],
      "name": "MIN_WEIGHT",
      "outputs": [
        {
          "internalType": "uint256",
          "name": "",
          "type": "uint256"
        }
      ],
      "stateMutability": "view",
      "type": "function"
    },
    {
      "inputs": [],
      "name": "_marketCollector",
      "outputs": [
        {
          "internalType": "address",
          "name": "",
          "type": "address"
        }
      ],
      "stateMutability": "view",
      "type": "function"
    },
    {
      "inputs": [],
      "name": "_opfCollector",
      "outputs": [
        {
          "internalType": "address",
          "name": "",
          "type": "address"
        }
      ],
      "stateMutability": "view",
      "type": "function"
    },
    {
      "inputs": [],
      "name": "_swapMarketFee",
      "outputs": [
        {
          "internalType": "uint256",
          "name": "",
          "type": "uint256"
        }
      ],
      "stateMutability": "view",
      "type": "function"
    },
    {
      "inputs": [
        {
          "internalType": "address",
          "name": "src",
          "type": "address"
        },
        {
          "internalType": "address",
          "name": "dst",
          "type": "address"
        }
      ],
      "name": "allowance",
      "outputs": [
        {
          "internalType": "uint256",
          "name": "",
          "type": "uint256"
        }
      ],
      "stateMutability": "view",
      "type": "function"
    },
    {
      "inputs": [
        {
          "internalType": "address",
          "name": "dst",
          "type": "address"
        },
        {
          "internalType": "uint256",
          "name": "amt",
          "type": "uint256"
        }
      ],
      "name": "approve",
      "outputs": [
        {
          "internalType": "bool",
          "name": "",
          "type": "bool"
        }
      ],
      "stateMutability": "nonpayable",
      "type": "function"
    },
    {
      "inputs": [
        {
          "internalType": "address",
          "name": "whom",
          "type": "address"
        }
      ],
      "name": "balanceOf",
      "outputs": [
        {
          "internalType": "uint256",
          "name": "",
          "type": "uint256"
        }
      ],
      "stateMutability": "view",
      "type": "function"
    },
    {
      "inputs": [
        {
          "internalType": "address",
          "name": "tokenOut",
          "type": "address"
        },
        {
          "internalType": "uint256",
          "name": "tokenAmountOut",
          "type": "uint256"
        }
      ],
      "name": "calcPoolInSingleOut",
      "outputs": [
        {
          "internalType": "uint256",
          "name": "poolAmountIn",
          "type": "uint256"
        }
      ],
      "stateMutability": "view",
      "type": "function"
    },
    {
      "inputs": [
        {
          "internalType": "address",
          "name": "tokenIn",
          "type": "address"
        },
        {
          "internalType": "uint256",
          "name": "tokenAmountIn",
          "type": "uint256"
        }
      ],
      "name": "calcPoolOutSingleIn",
      "outputs": [
        {
          "internalType": "uint256",
          "name": "poolAmountOut",
          "type": "uint256"
        }
      ],
      "stateMutability": "view",
      "type": "function"
    },
    {
      "inputs": [
        {
          "internalType": "address",
          "name": "tokenIn",
          "type": "address"
        },
        {
          "internalType": "uint256",
          "name": "poolAmountOut",
          "type": "uint256"
        }
      ],
      "name": "calcSingleInPoolOut",
      "outputs": [
        {
          "internalType": "uint256",
          "name": "tokenAmountIn",
          "type": "uint256"
        }
      ],
      "stateMutability": "view",
      "type": "function"
    },
    {
      "inputs": [
        {
          "internalType": "address",
          "name": "tokenOut",
          "type": "address"
        },
        {
          "internalType": "uint256",
          "name": "poolAmountIn",
          "type": "uint256"
        }
      ],
      "name": "calcSingleOutPoolIn",
      "outputs": [
        {
          "internalType": "uint256",
          "name": "tokenAmountOut",
          "type": "uint256"
        }
      ],
      "stateMutability": "view",
      "type": "function"
    },
    {
      "inputs": [
        {
          "internalType": "address",
          "name": "to",
          "type": "address"
        }
      ],
      "name": "collectMarketFee",
      "outputs": [],
      "stateMutability": "nonpayable",
      "type": "function"
    },
    {
      "inputs": [],
      "name": "collectOPF",
      "outputs": [],
      "stateMutability": "nonpayable",
      "type": "function"
    },
    {
      "inputs": [
        {
          "internalType": "address",
          "name": "",
          "type": "address"
        }
      ],
      "name": "communityFees",
      "outputs": [
        {
          "internalType": "uint256",
          "name": "",
          "type": "uint256"
        }
      ],
      "stateMutability": "view",
      "type": "function"
    },
    {
      "inputs": [],
      "name": "decimals",
      "outputs": [
        {
          "internalType": "uint8",
          "name": "",
          "type": "uint8"
        }
      ],
      "stateMutability": "view",
      "type": "function"
    },
    {
      "inputs": [
        {
          "internalType": "address",
          "name": "dst",
          "type": "address"
        },
        {
          "internalType": "uint256",
          "name": "amt",
          "type": "uint256"
        }
      ],
      "name": "decreaseApproval",
      "outputs": [
        {
          "internalType": "bool",
          "name": "",
          "type": "bool"
        }
      ],
      "stateMutability": "nonpayable",
      "type": "function"
    },
    {
      "inputs": [
        {
          "internalType": "uint256",
          "name": "poolAmountIn",
          "type": "uint256"
        },
        {
          "internalType": "uint256[]",
          "name": "minAmountsOut",
          "type": "uint256[]"
        }
      ],
      "name": "exitPool",
      "outputs": [],
      "stateMutability": "nonpayable",
      "type": "function"
    },
    {
      "inputs": [
        {
          "internalType": "address",
          "name": "tokenOut",
          "type": "address"
        },
        {
          "internalType": "uint256",
          "name": "tokenAmountOut",
          "type": "uint256"
        },
        {
          "internalType": "uint256",
          "name": "maxPoolAmountIn",
          "type": "uint256"
        }
      ],
      "name": "exitswapExternAmountOut",
      "outputs": [
        {
          "internalType": "uint256",
          "name": "poolAmountIn",
          "type": "uint256"
        }
      ],
      "stateMutability": "nonpayable",
      "type": "function"
    },
    {
      "inputs": [
        {
          "internalType": "address",
          "name": "tokenOut",
          "type": "address"
        },
        {
          "internalType": "uint256",
          "name": "poolAmountIn",
          "type": "uint256"
        },
        {
          "internalType": "uint256",
          "name": "minAmountOut",
          "type": "uint256"
        }
      ],
      "name": "exitswapPoolAmountIn",
      "outputs": [
        {
          "internalType": "uint256",
          "name": "tokenAmountOut",
          "type": "uint256"
        }
      ],
      "stateMutability": "nonpayable",
      "type": "function"
    },
    {
      "inputs": [
        {
          "internalType": "address",
          "name": "tokenIn",
          "type": "address"
        },
        {
          "internalType": "address",
          "name": "tokenOut",
          "type": "address"
        },
        {
          "internalType": "uint256",
          "name": "tokenAmountOut",
          "type": "uint256"
        }
      ],
      "name": "getAmountInExactOut",
      "outputs": [
        {
          "internalType": "uint256",
          "name": "tokenAmountIn",
          "type": "uint256"
        }
      ],
      "stateMutability": "view",
      "type": "function"
    },
    {
      "inputs": [
        {
          "internalType": "address",
          "name": "tokenIn",
          "type": "address"
        },
        {
          "internalType": "address",
          "name": "tokenOut",
          "type": "address"
        },
        {
          "internalType": "uint256",
          "name": "tokenAmountIn",
          "type": "uint256"
        }
      ],
      "name": "getAmountOutExactIn",
      "outputs": [
        {
          "internalType": "uint256",
          "name": "tokenAmountOut",
          "type": "uint256"
        }
      ],
      "stateMutability": "view",
      "type": "function"
    },
    {
      "inputs": [
        {
          "internalType": "address",
          "name": "token",
          "type": "address"
        }
      ],
      "name": "getBalance",
      "outputs": [
        {
          "internalType": "uint256",
          "name": "",
          "type": "uint256"
        }
      ],
      "stateMutability": "view",
      "type": "function"
    },
    {
      "inputs": [],
      "name": "getBaseTokenAddress",
      "outputs": [
        {
          "internalType": "address",
          "name": "",
          "type": "address"
        }
      ],
      "stateMutability": "view",
      "type": "function"
    },
    {
      "inputs": [],
      "name": "getController",
      "outputs": [
        {
          "internalType": "address",
          "name": "",
          "type": "address"
        }
      ],
      "stateMutability": "view",
      "type": "function"
    },
    {
      "inputs": [],
      "name": "getCurrentTokens",
      "outputs": [
        {
          "internalType": "address[]",
          "name": "tokens",
          "type": "address[]"
        }
      ],
      "stateMutability": "view",
      "type": "function"
    },
    {
      "inputs": [],
      "name": "getDataTokenAddress",
      "outputs": [
        {
          "internalType": "address",
          "name": "",
          "type": "address"
        }
      ],
      "stateMutability": "view",
      "type": "function"
    },
    {
      "inputs": [
        {
          "internalType": "address",
          "name": "token",
          "type": "address"
        }
      ],
      "name": "getDenormalizedWeight",
      "outputs": [
        {
          "internalType": "uint256",
          "name": "",
          "type": "uint256"
        }
      ],
      "stateMutability": "view",
      "type": "function"
    },
    {
      "inputs": [],
      "name": "getFinalTokens",
      "outputs": [
        {
          "internalType": "address[]",
          "name": "tokens",
          "type": "address[]"
        }
      ],
      "stateMutability": "view",
      "type": "function"
    },
    {
      "inputs": [
        {
          "internalType": "address",
          "name": "token",
          "type": "address"
        }
      ],
      "name": "getNormalizedWeight",
      "outputs": [
        {
          "internalType": "uint256",
          "name": "",
          "type": "uint256"
        }
      ],
      "stateMutability": "view",
      "type": "function"
    },
    {
      "inputs": [],
      "name": "getNumTokens",
      "outputs": [
        {
          "internalType": "uint256",
          "name": "",
          "type": "uint256"
        }
      ],
      "stateMutability": "view",
      "type": "function"
    },
    {
      "inputs": [],
      "name": "getOPFFee",
      "outputs": [
        {
          "internalType": "uint256",
          "name": "",
          "type": "uint256"
        }
      ],
      "stateMutability": "view",
      "type": "function"
    },
    {
      "inputs": [
        {
          "internalType": "address",
          "name": "tokenIn",
          "type": "address"
        },
        {
          "internalType": "address",
          "name": "tokenOut",
          "type": "address"
        }
      ],
      "name": "getSpotPrice",
      "outputs": [
        {
          "internalType": "uint256",
          "name": "spotPrice",
          "type": "uint256"
        }
      ],
      "stateMutability": "view",
      "type": "function"
    },
    {
      "inputs": [],
      "name": "getSwapFee",
      "outputs": [
        {
          "internalType": "uint256",
          "name": "",
          "type": "uint256"
        }
      ],
      "stateMutability": "view",
      "type": "function"
    },
    {
      "inputs": [],
      "name": "getTotalDenormalizedWeight",
      "outputs": [
        {
          "internalType": "uint256",
          "name": "",
          "type": "uint256"
        }
      ],
      "stateMutability": "view",
      "type": "function"
    },
    {
      "inputs": [
        {
          "internalType": "address",
          "name": "dst",
          "type": "address"
        },
        {
          "internalType": "uint256",
          "name": "amt",
          "type": "uint256"
        }
      ],
      "name": "increaseApproval",
      "outputs": [
        {
          "internalType": "bool",
          "name": "",
          "type": "bool"
        }
      ],
      "stateMutability": "nonpayable",
      "type": "function"
    },
    {
      "inputs": [
        {
          "internalType": "address",
          "name": "controller",
          "type": "address"
        },
        {
          "internalType": "address",
          "name": "factory",
          "type": "address"
        },
        {
          "internalType": "uint256[]",
          "name": "swapFees",
          "type": "uint256[]"
        },
        {
          "internalType": "bool",
          "name": "publicSwap",
          "type": "bool"
        },
        {
          "internalType": "bool",
          "name": "finalized",
          "type": "bool"
        },
        {
          "internalType": "address[2]",
          "name": "tokens",
          "type": "address[2]"
        },
        {
          "internalType": "address[2]",
          "name": "feeCollectors",
          "type": "address[2]"
        }
      ],
      "name": "initialize",
      "outputs": [
        {
          "internalType": "bool",
          "name": "",
          "type": "bool"
        }
      ],
      "stateMutability": "nonpayable",
      "type": "function"
    },
    {
      "inputs": [
        {
          "internalType": "address",
          "name": "t",
          "type": "address"
        }
      ],
      "name": "isBound",
      "outputs": [
        {
          "internalType": "bool",
          "name": "",
          "type": "bool"
        }
      ],
      "stateMutability": "view",
      "type": "function"
    },
    {
      "inputs": [],
      "name": "isFinalized",
      "outputs": [
        {
          "internalType": "bool",
          "name": "",
          "type": "bool"
        }
      ],
      "stateMutability": "view",
      "type": "function"
    },
    {
      "inputs": [],
      "name": "isInitialized",
      "outputs": [
        {
          "internalType": "bool",
          "name": "",
          "type": "bool"
        }
      ],
      "stateMutability": "view",
      "type": "function"
    },
    {
      "inputs": [],
      "name": "isPublicSwap",
      "outputs": [
        {
          "internalType": "bool",
          "name": "",
          "type": "bool"
        }
      ],
      "stateMutability": "view",
      "type": "function"
    },
    {
      "inputs": [
        {
          "internalType": "uint256",
          "name": "poolAmountOut",
          "type": "uint256"
        },
        {
          "internalType": "uint256[]",
          "name": "maxAmountsIn",
          "type": "uint256[]"
        }
      ],
      "name": "joinPool",
      "outputs": [],
      "stateMutability": "nonpayable",
      "type": "function"
    },
    {
      "inputs": [
        {
          "internalType": "address",
          "name": "tokenIn",
          "type": "address"
        },
        {
          "internalType": "uint256",
          "name": "tokenAmountIn",
          "type": "uint256"
        },
        {
          "internalType": "uint256",
          "name": "minPoolAmountOut",
          "type": "uint256"
        }
      ],
      "name": "joinswapExternAmountIn",
      "outputs": [
        {
          "internalType": "uint256",
          "name": "poolAmountOut",
          "type": "uint256"
        }
      ],
      "stateMutability": "nonpayable",
      "type": "function"
    },
    {
      "inputs": [
        {
          "internalType": "address",
          "name": "tokenIn",
          "type": "address"
        },
        {
          "internalType": "uint256",
          "name": "poolAmountOut",
          "type": "uint256"
        },
        {
          "internalType": "uint256",
          "name": "maxAmountIn",
          "type": "uint256"
        }
      ],
      "name": "joinswapPoolAmountOut",
      "outputs": [
        {
          "internalType": "uint256",
          "name": "tokenAmountIn",
          "type": "uint256"
        }
      ],
      "stateMutability": "nonpayable",
      "type": "function"
    },
    {
      "inputs": [
        {
          "internalType": "address",
          "name": "",
          "type": "address"
        }
      ],
      "name": "marketFees",
      "outputs": [
        {
          "internalType": "uint256",
          "name": "",
          "type": "uint256"
        }
      ],
      "stateMutability": "view",
      "type": "function"
    },
    {
      "inputs": [],
      "name": "name",
      "outputs": [
        {
          "internalType": "string",
          "name": "",
          "type": "string"
        }
      ],
      "stateMutability": "view",
      "type": "function"
    },
    {
      "inputs": [
        {
          "internalType": "uint256",
          "name": "swapFee",
          "type": "uint256"
        }
      ],
      "name": "setSwapFee",
      "outputs": [],
      "stateMutability": "nonpayable",
      "type": "function"
    },
    {
      "inputs": [
        {
          "internalType": "address",
          "name": "dataTokenAddress",
          "type": "address"
        },
        {
          "internalType": "uint256",
          "name": "dataTokenAmount",
          "type": "uint256"
        },
        {
          "internalType": "uint256",
          "name": "dataTokenWeight",
          "type": "uint256"
        },
        {
          "internalType": "address",
          "name": "baseTokenAddress",
          "type": "address"
        },
        {
          "internalType": "uint256",
          "name": "baseTokenAmount",
          "type": "uint256"
        },
        {
          "internalType": "uint256",
          "name": "baseTokenWeight",
          "type": "uint256"
        }
      ],
      "name": "setup",
      "outputs": [],
      "stateMutability": "nonpayable",
      "type": "function"
    },
    {
      "inputs": [
        {
          "internalType": "address",
          "name": "tokenIn",
          "type": "address"
        },
        {
          "internalType": "uint256",
          "name": "tokenAmountIn",
          "type": "uint256"
        },
        {
          "internalType": "address",
          "name": "tokenOut",
          "type": "address"
        },
        {
          "internalType": "uint256",
          "name": "minAmountOut",
          "type": "uint256"
        },
        {
          "internalType": "uint256",
          "name": "maxPrice",
          "type": "uint256"
        }
      ],
      "name": "swapExactAmountIn",
      "outputs": [
        {
          "internalType": "uint256",
          "name": "tokenAmountOut",
          "type": "uint256"
        },
        {
          "internalType": "uint256",
          "name": "spotPriceAfter",
          "type": "uint256"
        }
      ],
      "stateMutability": "nonpayable",
      "type": "function"
    },
    {
      "inputs": [
        {
          "internalType": "address",
          "name": "tokenIn",
          "type": "address"
        },
        {
          "internalType": "uint256",
          "name": "maxAmountIn",
          "type": "uint256"
        },
        {
          "internalType": "address",
          "name": "tokenOut",
          "type": "address"
        },
        {
          "internalType": "uint256",
          "name": "tokenAmountOut",
          "type": "uint256"
        },
        {
          "internalType": "uint256",
          "name": "maxPrice",
          "type": "uint256"
        }
      ],
      "name": "swapExactAmountOut",
      "outputs": [
        {
          "internalType": "uint256",
          "name": "tokenAmountIn",
          "type": "uint256"
        },
        {
          "internalType": "uint256",
          "name": "spotPriceAfter",
          "type": "uint256"
        }
      ],
      "stateMutability": "nonpayable",
      "type": "function"
    },
    {
      "inputs": [],
      "name": "symbol",
      "outputs": [
        {
          "internalType": "string",
          "name": "",
          "type": "string"
        }
      ],
      "stateMutability": "view",
      "type": "function"
    },
    {
      "inputs": [],
      "name": "totalSupply",
      "outputs": [
        {
          "internalType": "uint256",
          "name": "",
          "type": "uint256"
        }
      ],
      "stateMutability": "view",
      "type": "function"
    },
    {
      "inputs": [
        {
          "internalType": "address",
          "name": "dst",
          "type": "address"
        },
        {
          "internalType": "uint256",
          "name": "amt",
          "type": "uint256"
        }
      ],
      "name": "transfer",
      "outputs": [
        {
          "internalType": "bool",
          "name": "",
          "type": "bool"
        }
      ],
      "stateMutability": "nonpayable",
      "type": "function"
    },
    {
      "inputs": [
        {
          "internalType": "address",
          "name": "src",
          "type": "address"
        },
        {
          "internalType": "address",
          "name": "dst",
          "type": "address"
        },
        {
          "internalType": "uint256",
          "name": "amt",
          "type": "uint256"
        }
      ],
      "name": "transferFrom",
      "outputs": [
        {
          "internalType": "bool",
          "name": "",
          "type": "bool"
        }
      ],
      "stateMutability": "nonpayable",
      "type": "function"
    },
    {
      "inputs": [
        {
          "internalType": "address",
          "name": "_newCollector",
          "type": "address"
        }
      ],
      "name": "updateMarketFeeCollector",
      "outputs": [],
      "stateMutability": "nonpayable",
      "type": "function"
    }
  ],
  "bytecode": "0x60c0604052601360808190527f42616c616e63657220506f6f6c20546f6b656e0000000000000000000000000060a09081526200004091600a91906200008f565b506040805180820190915260038082526210941560ea1b60209092019182526200006d91600b916200008f565b50600c805460ff191660121790553480156200008857600080fd5b5062000172565b8280546200009d9062000135565b90600052602060002090601f016020900481019282620000c157600085556200010c565b82601f10620000dc57805160ff19168380011785556200010c565b828001600101855582156200010c579182015b828111156200010c578251825591602001919060010190620000ef565b506200011a9291506200011e565b5090565b5b808211156200011a57600081556001016200011f565b600181811c908216806200014a57607f821691505b602082108114156200016c57634e487b7160e01b600052602260045260246000fd5b50919050565b61578e80620001826000396000f3fe608060405234801561001057600080fd5b50600436106104075760003560e01c80638201aa3f11610220578063be3bbd2e11610130578063e4a28a52116100b8578063f68045a511610087578063f68045a514610875578063f8b2cb4f1461087d578063fbb9dd5014610890578063fde924f7146108a3578063ff9b1850146108b557600080fd5b8063e4a28a521461048f578063ec09302114610847578063f0f13f0b1461084f578063f1b8a9b71461086257600080fd5b8063cc77828d116100ff578063cc77828d146107e3578063cd2ed8fb146107eb578063d4cadf68146107f3578063d73dd623146107fb578063dd62ed3e1461080e57600080fd5b8063be3bbd2e146107b3578063c070a6d8146107c8578063c36596a6146104cf578063c6580d12146107db57600080fd5b8063a3b3a16d116101b3578063b0e0d13611610182578063b0e0d13614610793578063b7b800a414610793578063ba019dab1461079b578063bc063e1a146107a3578063bc694ea2146107ab57600080fd5b8063a3b3a16d14610747578063a562ddf01461075a578063a9059cbb1461076d578063b02f0b731461078057600080fd5b80639381cd2b116101ef5780639381cd2b1461071c578063948d8ce61461072457806395d89b4114610737578063992e2a921461073f57600080fd5b80638201aa3f146106e7578063867378c5146106fa5780638d4e408314610702578063936c34771461071457600080fd5b806334e199071161031b5780634f69c0d4116102ae578063700dd7e81161027d578063700dd7e814610673578063703305181461067b57806370a082311461068e57806376c7a3c7146106b75780637c5e9ea4146106bf57600080fd5b80634f69c0d4146106275780635db342771461063a578063661884631461064d5780636d06dfa01461066057600080fd5b8063430ed5d0116102ea578063430ed5d0146105e757806346ab38f1146105fa57806349e9350f1461060d5780634df947d01461061657600080fd5b806334e199071461059c578063380376a6146105af578063392e53cd146105c25780633950b3fd146105d457600080fd5b8063189d00ca1161039e5780632f37b6241161036d5780632f37b6241461050457806330062192146105305780633018205f14610550578063313ce5671461056757806331e2761b1461057c57600080fd5b8063189d00ca146104c7578063218b5382146104cf57806323b872dd146104de5780632ea07d8a146104f157600080fd5b806309a3bbe4116103da57806309a3bbe41461048f57806309ef3f5b1461049757806315e84af9146104ac57806318160ddd146104bf57600080fd5b806302c967481461040c57806304ad79541461043257806306fdde0314610457578063095ea7b31461046c575b600080fd5b61041f61041a36600461528e565b6108c8565b6040519081526020015b60405180910390f35b6003546001600160a01b03165b6040516001600160a01b039091168152602001610429565b61045f610d46565b6040516104299190615425565b61047f61047a366004615216565b610dd8565b6040519015158152602001610429565b61041f610e33565b6104aa6104a53660046152c1565b610e49565b005b61041f6104ba3660046150fa565b611042565b60095461041f565b61041f611126565b61041f670de0b6b3a764000081565b61047f6104ec3660046151da565b61113d565b61041f6104ff3660046151da565b611291565b61047f6105123660046150df565b6001600160a01b031660009081526010602052604090205460ff1690565b61041f61053e3660046150df565b60056020526000908152604090205481565b600c546201000090046001600160a01b031661043f565b600c5460405160ff9091168152602001610429565b61041f61058a3660046150df565b60066020526000908152604090205481565b6104aa6105aa366004615336565b61134c565b61041f6105bd3660046151da565b611495565b601254600160a01b900460ff1661047f565b61041f6105e2366004615216565b611546565b61041f6105f5366004615216565b6115ae565b61041f61060836600461528e565b61160e565b61041f60005481565b6004546001600160a01b031661043f565b6104aa610635366004615368565b611a0b565b61041f61064836600461528e565b611c32565b61047f61065b366004615216565b612036565b61041f61066e36600461528e565b61210c565b61041f6124f4565b6104aa6106893660046150df565b61257d565b61041f61069c3660046150df565b6001600160a01b031660009081526007602052604090205490565b61041f6125f1565b6106d26106cd366004615240565b612606565b60408051928352602083019190915201610429565b6106d26106f5366004615240565b612957565b61041f612c8c565b600e54600160a01b900460ff1661047f565b61041f612ca3565b61041f612cd5565b61041f6107323660046150df565b612ce8565b61045f612d6e565b61041f612d7d565b61041f610755366004615216565b612d9b565b600d5461043f906001600160a01b031681565b61047f61077b366004615216565b612dfb565b6104aa61078e366004615368565b612e11565b61041f600281565b61041f600181565b61041f61304c565b61041f61305f565b6107bb61307e565b60405161042991906153d8565b61047f6107d636600461512d565b613131565b61041f600081565b6107bb6133a1565b600f5461041f565b60015461041f565b61047f610809366004615216565b6133cc565b61041f61081c3660046150fa565b6001600160a01b03918216600090815260086020908152604080832093909416825291909152205490565b61041f61343f565b600e5461043f906001600160a01b031681565b61041f6108703660046150df565b613452565b6104aa6134e6565b61041f61088b3660046150df565b613640565b6104aa61089e3660046150df565b6136c2565b600c54600160b01b900460ff1661047f565b61041f6108c3366004615216565b61386d565b600c54600090610100900460ff16156108fc5760405162461bcd60e51b81526004016108f39061551a565b60405180910390fd5b600c805461ff001916610100179055600e54600160a01b900460ff166109345760405162461bcd60e51b81526004016108f390615591565b6001600160a01b03841660009081526010602052604090205460ff1661096c5760405162461bcd60e51b81526004016108f39061556a565b6001600160a01b03841660009081526010602052604090206003908101546109b0916109a090670de0b6b3a76400006155d4565b6109ab9060016155bc565b6138cd565b8311156109cf5760405162461bcd60e51b81526004016108f39061553f565b6001600160a01b038416600090815260106020526040902060038101546002820154600954601154610a0493929190886139a8565b915081610a235760405162461bcd60e51b81526004016108f3906154a4565b82821115610a435760405162461bcd60e51b81526004016108f3906154f4565b610a51816003015485613a6c565b60038201556000610a6283826138cd565b604080518781524260208201529192506001600160a01b0388169133916000805160206156d9833981519152910160405180910390a36040518381526000805160206156f98339815191529060200160405180910390a1610ac33384613ac9565b610ad5610ad08483613a6c565b613ad3565b600254610aeb906001600160a01b031682613adf565b610af6863387613ae9565b6003546000906001600160a01b0388811691161415610b2157506004546001600160a01b0316610b2f565b506003546001600160a01b03165b60125460035460405163efd4810360e01b81526001600160a01b039283169263efd4810392610b6792911690859089906004016153b4565b60206040518083038186803b158015610b7f57600080fd5b505afa158015610b93573d6000803e3d6000fd5b505050506040513d601f19601f82011682018060405250810190610bb79190615319565b151560011415610d3157600380546001600160a01b03166000908152601060205260408120918201546002830154600954601154610bf8939291908a613bb7565b9050610c08826003015482613a6c565b6003830155610c188660006138cd565b600c54604080518481524260208201529296506001600160a01b03868116936201000090930416916000805160206156d9833981519152910160405180910390a3600c54610c75906201000090046001600160a01b031687613ac9565b610c82610ad08786613a6c565b600254610c98906001600160a01b031685613adf565b600c54610cb69084906201000090046001600160a01b031683613ae9565b6012546003546040516307b01ab360e41b81526001600160a01b03918216600482015285821660248201526044810184905260648101899052911690637b01ab30906084015b600060405180830381600087803b158015610d1657600080fd5b505af1158015610d2a573d6000803e3d6000fd5b5050505050505b505050600c805461ff00191690559392505050565b6060600a8054610d559061561e565b80601f0160208091040260200160405190810160405280929190818152602001828054610d819061561e565b8015610dce5780601f10610da357610100808354040283529160200191610dce565b820191906000526020600020905b815481529060010190602001808311610db157829003601f168201915b5050505050905090565b3360008181526008602090815260408083206001600160a01b0387168085529252808320859055519192909160008051602061573983398151915290610e219086815260200190565b60405180910390a35060015b92915050565b610e46670de0b6b3a764000060326155e8565b81565b600c546201000090046001600160a01b03163314610ea25760405162461bcd60e51b815260206004820152601660248201527522a9292fa4a72b20a624a22fa1a7a72a2927a62622a960511b60448201526064016108f3565b6003546001600160a01b03878116911614610eff5760405162461bcd60e51b815260206004820152601d60248201527f4552525f494e56414c49445f44415441544f4b454e5f4144445245535300000060448201526064016108f3565b6004546001600160a01b03848116911614610f5c5760405162461bcd60e51b815260206004820152601d60248201527f4552525f494e56414c49445f42415345544f4b454e5f4144445245535300000060448201526064016108f3565b610f67868686613c81565b604080518681524260208201526001600160a01b038816913391600080516020615719833981519152910160405180910390a3610fa5838383613c81565b604080518381524260208201526001600160a01b038516913391600080516020615719833981519152910160405180910390a3610fe0613e6b565b6040805183815260208101839052908101869052606081018590526001600160a01b03808816919085169033907fbece8b4dcdbe446dd65a9288154698e067e3e91de17a1a408c2f531b9f845d739060800160405180910390a4505050505050565b600c54600090610100900460ff161561106d5760405162461bcd60e51b81526004016108f39061551a565b6001600160a01b03831660009081526010602052604090205460ff166110a55760405162461bcd60e51b81526004016108f39061556a565b6001600160a01b03821660009081526010602052604090205460ff166110dd5760405162461bcd60e51b81526004016108f39061556a565b6001600160a01b0380841660009081526010602052604080822092851682529020600380830154600280850154928401549084015461111d939190613eca565b95945050505050565b610e466402540be400670de0b6b3a76400006155d4565b6000336001600160a01b038516148061117957506001600160a01b03841660009081526008602090815260408083203384529091529020548211155b6111bd5760405162461bcd60e51b815260206004820152601560248201527422a9292fa12a27a5a2a72fa120a22fa1a0a62622a960591b60448201526064016108f3565b6111c8848484613f42565b336001600160a01b0385161480159061120657506001600160a01b038416600090815260086020908152604080832033845290915290205460001914155b15611287576001600160a01b03841660009081526008602090815260408083203384529091529020546112399083613a6c565b6001600160a01b038581166000908152600860209081526040808320338085529083529281902085905551938452918616929091600080516020615739833981519152910160405180910390a35b5060019392505050565b6001600160a01b03831660009081526010602052604081205460ff166112c95760405162461bcd60e51b81526004016108f39061556a565b6001600160a01b03831660009081526010602052604090205460ff166113015760405162461bcd60e51b81526004016108f39061556a565b6001600160a01b0380851660009081526010602052604080822092861682529020600380830154600280850154928401549084015461134293919088614054565b9695505050505050565b600e54600160a01b900460ff16156113995760405162461bcd60e51b815260206004820152601060248201526f11549497d254d7d1925390531256915160821b60448201526064016108f3565b600c546201000090046001600160a01b031633146113ee5760405162461bcd60e51b815260206004820152601260248201527122a9292fa727aa2fa1a7a72a2927a62622a960711b60448201526064016108f3565b611403620f4240670de0b6b3a76400006155d4565b8110156114405760405162461bcd60e51b815260206004820152600b60248201526a4552525f4d494e5f46454560a81b60448201526064016108f3565b611453600a670de0b6b3a76400006155d4565b8111156114905760405162461bcd60e51b815260206004820152600b60248201526a4552525f4d41585f46454560a81b60448201526064016108f3565b600155565b6001600160a01b03831660009081526010602052604081205460ff166114cd5760405162461bcd60e51b81526004016108f39061556a565b6001600160a01b03831660009081526010602052604090205460ff166115055760405162461bcd60e51b81526004016108f39061556a565b6001600160a01b03808516600090815260106020526040808220928616825290206003808301546002808501549284015490840154611342939190886140fc565b6001600160a01b03821660009081526010602090815260408083208151608081018352815460ff1615158152600182015493810193909352600281015491830182905260030154606083018190526009546011546115a6939190876141a2565b949350505050565b6001600160a01b03821660009081526010602090815260408083208151608081018352815460ff1615158152600182015493810193909352600281015491830182905260030154606083018190526009546011546115a693919087613bb7565b600c54600090610100900460ff16156116395760405162461bcd60e51b81526004016108f39061551a565b600c805461ff001916610100179055600e54600160a01b900460ff166116715760405162461bcd60e51b81526004016108f390615591565b6001600160a01b03841660009081526010602052604090205460ff166116a95760405162461bcd60e51b81526004016108f39061556a565b6001600160a01b0384166000908152601060205260409020600381015460028201546009546011546116de9392919088613bb7565b9150828210156117005760405162461bcd60e51b81526004016108f3906154cd565b6001600160a01b0385166000908152601060205260409020600390810154611734916109a090670de0b6b3a76400006155d4565b8211156117535760405162461bcd60e51b81526004016108f39061553f565b611761816003015483613a6c565b6003820155600061177285826138cd565b604080518581524260208201529192506001600160a01b0388169133916000805160206156d9833981519152910160405180910390a36040518581526000805160206156f98339815191529060200160405180910390a16117d33386613ac9565b6117e0610ad08683613a6c565b6002546117f6906001600160a01b031682613adf565b611801863385613ae9565b6003546000906001600160a01b038881169116141561182c57506004546001600160a01b031661183a565b506003546001600160a01b03165b60125460035460405163efd4810360e01b81526001600160a01b039283169263efd48103926118729291169085908b906004016153b4565b60206040518083038186803b15801561188a57600080fd5b505afa15801561189e573d6000803e3d6000fd5b505050506040513d601f19601f820116820180604052508101906118c29190615319565b151560011415610d3157600380546001600160a01b03166000908152601060205260408120918201546002830154600954601154611903939291908c613bb7565b9050611913826003015482613a6c565b60038301556119238860006138cd565b600c54604080518481524260208201529296506001600160a01b03868116936201000090930416916000805160206156d9833981519152910160405180910390a3600c54611980906201000090046001600160a01b031689613ac9565b61198d610ad08986613a6c565b6002546119a3906001600160a01b031685613adf565b600c546119c19084906201000090046001600160a01b031683613ae9565b6012546003546040516307b01ab360e41b81526001600160a01b039182166004820152858216602482015260448101849052606481018b9052911690637b01ab3090608401610cfc565b600c54610100900460ff1615611a335760405162461bcd60e51b81526004016108f39061551a565b600c805461ff001916610100179055600e54600160a01b900460ff16611a6b5760405162461bcd60e51b81526004016108f390615591565b6000611a7660095490565b90506000611a848583614237565b905080611aa35760405162461bcd60e51b81526004016108f3906154a4565b60005b600f54811015611beb576000600f8281548110611ac557611ac56156b4565b60009182526020808320909101546001600160a01b03168083526010909152604082206003015490925090611afa85836138cd565b905080611b195760405162461bcd60e51b81526004016108f3906154a4565b878785818110611b2b57611b2b6156b4565b90506020020135811115611b515760405162461bcd60e51b81526004016108f3906154f4565b6001600160a01b038316600090815260106020526040902060030154611b77908261434f565b6001600160a01b03841660008181526010602052604090819020600301929092559051339060008051602061571983398151915290611bc29085904290918252602082015260400190565b60405180910390a3611bd58333836143a1565b5050508080611be390615659565b915050611aa6565b50611bf5856143d4565b611bff3386613adf565b6040518581526000805160206156f98339815191529060200160405180910390a15050600c805461ff0019169055505050565b600c54600090610100900460ff1615611c5d5760405162461bcd60e51b81526004016108f39061551a565b600c805461ff001916610100179055600e54600160a01b900460ff16611c955760405162461bcd60e51b81526004016108f390615591565b6001600160a01b03841660009081526010602052604090205460ff16611ccd5760405162461bcd60e51b81526004016108f39061556a565b6001600160a01b038416600090815260106020526040902060030154611d00906109ab6002670de0b6b3a76400006155d4565b831115611d1f5760405162461bcd60e51b81526004016108f39061547a565b6001600160a01b038416600090815260106020526040902060038101546002820154600954601154611d5493929190886141a2565b915082821015611d765760405162461bcd60e51b81526004016108f3906154cd565b611d8481600301548561434f565b6003820155604080518581524260208201526001600160a01b038716913391600080516020615719833981519152910160405180910390a36040518281526000805160206156f98339815191529060200160405180910390a1611de6826143d4565b611df03383613adf565b611dfb8533866143a1565b600380546001600160a01b031660009081526010602052604081209182015460028301546009546011548493611e359390929091896143dd565b6003549091506001600160a01b0389811691161415611e61576004546001600160a01b03169150611e70565b6003546001600160a01b031691505b6012546003546040516326b1f01f60e01b81526001600160a01b03928316926326b1f01f92611ea892911690869086906004016153b4565b60206040518083038186803b158015611ec057600080fd5b505afa158015611ed4573d6000803e3d6000fd5b505050506040513d601f19601f82011682018060405250810190611ef89190615319565b151560011415612020576012546003546040516399039fcf60e01b81526001600160a01b03928316926399039fcf92611f3a92911690869086906004016153b4565b600060405180830381600087803b158015611f5457600080fd5b505af1158015611f68573d6000803e3d6000fd5b50505050611f7a83600301548261434f565b6003840155600c54604080518381524260208201526001600160a01b03858116936201000090041691600080516020615719833981519152910160405180910390a36040518581526000805160206156f98339815191529060200160405180910390a1611fe6856143d4565b600c54612002906201000090046001600160a01b031686613adf565b600c546120209083906201000090046001600160a01b0316836143a1565b50505050600c805461ff00191690559392505050565b3360009081526008602090815260408083206001600160a01b03861684529091528120548083111561208b573360009081526008602090815260408083206001600160a01b03881684529091528120556120ba565b6120958184613a6c565b3360009081526008602090815260408083206001600160a01b03891684529091529020555b3360008181526008602090815260408083206001600160a01b03891680855290835292819020549051908152919291600080516020615739833981519152910160405180910390a35060019392505050565b600c54600090610100900460ff16156121375760405162461bcd60e51b81526004016108f39061551a565b600c805461ff001916610100179055600e54600160a01b900460ff1661216f5760405162461bcd60e51b81526004016108f390615591565b6001600160a01b03841660009081526010602052604090205460ff166121a75760405162461bcd60e51b81526004016108f39061556a565b6001600160a01b0384166000908152601060205260409020600381015460028201546009546011546121dc93929190886143dd565b9150816121fb5760405162461bcd60e51b81526004016108f3906154a4565b8282111561221b5760405162461bcd60e51b81526004016108f3906154f4565b6001600160a01b03851660009081526010602052604090206003015461224e906109ab6002670de0b6b3a76400006155d4565b82111561226d5760405162461bcd60e51b81526004016108f39061547a565b61227b81600301548361434f565b6003820155604080518381524260208201526001600160a01b038716913391600080516020615719833981519152910160405180910390a36040518481526000805160206156f98339815191529060200160405180910390a16122dd846143d4565b6122e73385613adf565b6122f28533846143a1565b600380546001600160a01b03166000908152601060205260408120918201546002830154600954601154612329939291908a6143dd565b6003549091506000906001600160a01b038981169116141561235757506004546001600160a01b0316612365565b506003546001600160a01b03165b6012546003546040516326b1f01f60e01b81526001600160a01b03928316926326b1f01f9261239d92911690859087906004016153b4565b60206040518083038186803b1580156123b557600080fd5b505afa1580156123c9573d6000803e3d6000fd5b505050506040513d601f19601f820116820180604052508101906123ed9190615319565b151560011415612020576012546003546040516399039fcf60e01b81526001600160a01b03928316926399039fcf9261242f92911690859087906004016153b4565b600060405180830381600087803b15801561244957600080fd5b505af115801561245d573d6000803e3d6000fd5b5050505061246f83600301548361434f565b6003840155600c54604080518481524260208201526001600160a01b03848116936201000090041691600080516020615719833981519152910160405180910390a36124ba876143d4565b600c546124d6906201000090046001600160a01b031688613adf565b600c546120209082906201000090046001600160a01b0316846143a1565b60025460048054604051637c0aa57760e11b81526001600160a01b0391821692810192909252600092169063f8154aee9060240160206040518083038186803b15801561254057600080fd5b505afa158015612554573d6000803e3d6000fd5b505050506040513d601f19601f82011682018060405250810190612578919061534f565b905090565b600d546001600160a01b031633146125cf5760405162461bcd60e51b815260206004820152601560248201527427a7262c9026a0a925a2aa1021a7a62622a1aa27a960591b60448201526064016108f3565b600d80546001600160a01b0319166001600160a01b0392909216919091179055565b610e46620f4240670de0b6b3a76400006155d4565b600c546000908190610100900460ff16156126335760405162461bcd60e51b81526004016108f39061551a565b600c805461ff001916610100179055600e54600160a01b900460ff1661266b5760405162461bcd60e51b81526004016108f390615591565b6001600160a01b03871660009081526010602052604090205460ff166126a35760405162461bcd60e51b81526004016108f39061556a565b6001600160a01b03851660009081526010602052604090205460ff166126db5760405162461bcd60e51b81526004016108f39061556a565b6001600160a01b0380881660009081526010602052604080822092881682529020600380820154612718916109a090670de0b6b3a76400006155d4565b8611156127375760405162461bcd60e51b81526004016108f39061553f565b60006127558360030154846002015484600301548560020154613eca565b90508581111561279d5760405162461bcd60e51b81526020600482015260136024820152724552525f4241445f4c494d49545f505249434560681b60448201526064016108f3565b6000806040518060800160405280866003015481526020018660020154815260200185600301548152602001856002015481525090506127de818a8e614477565b90975091508a8711156128035760405162461bcd60e51b81526004016108f3906154f4565b61281185600301548361434f565b856003018190555061282784600301548a613a6c565b6003808601829055860154600280880154908701546128469390613eca565b9550828610156128685760405162461bcd60e51b81526004016108f3906154a4565b878611156128aa5760405162461bcd60e51b815260206004820152600f60248201526e4552525f4c494d49545f505249434560881b60448201526064016108f3565b6128b4878a614237565b8311156128d35760405162461bcd60e51b81526004016108f3906154a4565b60408051888152602081018b9052428183015290516001600160a01b038c811692908f169133917f50ef2fc267012b5c84b56835f16ffd5331ac5a151a3760d74908721ba78b0efe919081900360600190a46129308c33896143a1565b61293b8a338b613ae9565b5050505050600c805461ff001916905590969095509350505050565b600c546000908190610100900460ff16156129845760405162461bcd60e51b81526004016108f39061551a565b600c805461ff001916610100179055600e54600160a01b900460ff166129bc5760405162461bcd60e51b81526004016108f390615591565b6001600160a01b03871660009081526010602052604090205460ff166129f45760405162461bcd60e51b81526004016108f39061556a565b6001600160a01b03851660009081526010602052604090205460ff16612a2c5760405162461bcd60e51b81526004016108f39061556a565b6001600160a01b03808816600090815260106020526040808220928816825290206003820154612a69906109ab6002670de0b6b3a76400006155d4565b881115612a885760405162461bcd60e51b81526004016108f39061547a565b6000612aa68360030154846002015484600301548560020154613eca565b905085811115612aee5760405162461bcd60e51b81526020600482015260136024820152724552525f4241445f4c494d49545f505249434560681b60448201526064016108f3565b600080604051806080016040528086600301548152602001866002015481526020018560030154815260200185600201548152509050612b2f818c8e614695565b909750915088871015612b545760405162461bcd60e51b81526004016108f3906154cd565b612b6285600301548361434f565b8560030181905550612b78846003015488613a6c565b600380860182905586015460028088015490870154612b979390613eca565b955082861015612bb95760405162461bcd60e51b81526004016108f3906154a4565b87861115612bfb5760405162461bcd60e51b815260206004820152600f60248201526e4552525f4c494d49545f505249434560881b60448201526064016108f3565b612c058b88614237565b831115612c245760405162461bcd60e51b81526004016108f3906154a4565b604080518c815260208101899052428183015290516001600160a01b038c811692908f169133917f50ef2fc267012b5c84b56835f16ffd5331ac5a151a3760d74908721ba78b0efe919081900360600190a4612c818c338d6143a1565b61293b8a3389613ae9565b610e4664e8d4a51000670de0b6b3a76400006155d4565b600c54600090610100900460ff1615612cce5760405162461bcd60e51b81526004016108f39061551a565b5060115490565b610e46670de0b6b3a764000060646155e8565b600c54600090610100900460ff1615612d135760405162461bcd60e51b81526004016108f39061551a565b6001600160a01b03821660009081526010602052604090205460ff16612d4b5760405162461bcd60e51b81526004016108f39061556a565b506001600160a01b0381166000908152601060205260409020600201545b919050565b6060600b8054610d559061561e565b612d906003670de0b6b3a76400006155d4565b610e469060016155bc565b6001600160a01b03821660009081526010602090815260408083208151608081018352815460ff1615158152600182015493810193909352600281015491830182905260030154606083018190526009546011546115a6939190876139a8565b6000612e08338484613f42565b50600192915050565b600c54610100900460ff1615612e395760405162461bcd60e51b81526004016108f39061551a565b600c805461ff001916610100179055600e54600160a01b900460ff16612e715760405162461bcd60e51b81526004016108f390615591565b6000612e7c60095490565b90506000612e8b8560006138cd565b90506000612e998683613a6c565b90506000612ea78285614237565b905080612ec65760405162461bcd60e51b81526004016108f3906154a4565b612ed03388613ac9565b600254612ee6906001600160a01b031684613adf565b612eef82613ad3565b60005b600f54811015613037576000600f8281548110612f1157612f116156b4565b60009182526020808320909101546001600160a01b03168083526010909152604082206003015490925090612f4685836138cd565b905080612f655760405162461bcd60e51b81526004016108f3906154a4565b898985818110612f7757612f776156b4565b90506020020135811015612f9d5760405162461bcd60e51b81526004016108f3906154cd565b6001600160a01b038316600090815260106020526040902060030154612fc39082613a6c565b6001600160a01b0384166000818152601060205260409081902060030192909255905133906000805160206156d98339815191529061300e9085904290918252602082015260400190565b60405180910390a3613021833383613ae9565b505050808061302f90615659565b915050612ef2565b5050600c805461ff0019169055505050505050565b610e46600a670de0b6b3a76400006155d4565b6001613074670de0b6b3a764000060026155e8565b610e469190615607565b600c54606090610100900460ff16156130a95760405162461bcd60e51b81526004016108f39061551a565b600e54600160a01b900460ff166130d25760405162461bcd60e51b81526004016108f390615591565b600f805480602002602001604051908101604052809291908181526020018280548015610dce57602002820191906000526020600020905b81546001600160a01b0316815260019091019060200180831161310a575050505050905090565b601254600090600160a01b900460ff161561318e5760405162461bcd60e51b815260206004820152601760248201527f4552525f414c52454144595f494e495449414c495a454400000000000000000060448201526064016108f3565b6001600160a01b0389166131e45760405162461bcd60e51b815260206004820152601e60248201527f4552525f494e56414c49445f434f4e54524f4c4c45525f41444452455353000060448201526064016108f3565b6001600160a01b03881661323a5760405162461bcd60e51b815260206004820152601b60248201527f4552525f494e56414c49445f464143544f52595f41444452455353000000000060448201526064016108f3565b61324f620f4240670de0b6b3a76400006155d4565b87876000818110613262576132626156b4565b9050602002013510156132a55760405162461bcd60e51b815260206004820152600b60248201526a4552525f4d494e5f46454560a81b60448201526064016108f3565b6132b8600a670de0b6b3a76400006155d4565b878760008181106132cb576132cb6156b4565b90506020020135111561330e5760405162461bcd60e51b815260206004820152600b60248201526a4552525f4d41585f46454560a81b60448201526064016108f3565b6133948989898980806020026020016040519081016040528093929190818152602001838360200280828437600092019190915250506040805180820182528c93508b9250908a9060029083908390808284376000920191909152505060408051808201825291508a90600290839083908082843760009201919091525061489a915050565b9998505050505050505050565b600c54606090610100900460ff16156130d25760405162461bcd60e51b81526004016108f39061551a565b3360009081526008602090815260408083206001600160a01b03861684529091528120546133fa908361434f565b3360008181526008602090815260408083206001600160a01b038916808552908352928190208590555193845290926000805160206157398339815191529101610e21565b610e466002670de0b6b3a76400006155d4565b600c54600090610100900460ff161561347d5760405162461bcd60e51b81526004016108f39061551a565b6001600160a01b03821660009081526010602052604090205460ff166134b55760405162461bcd60e51b81526004016108f39061556a565b6001600160a01b0382166000908152601060205260409020600201546011546134df908290614237565b9392505050565b60006134f061307e565b905060005b815181101561363c57600060056000848481518110613516576135166156b4565b60200260200101516001600160a01b03166001600160a01b03168152602001908152602001600020549050600060056000858581518110613559576135596156b4565b60200260200101516001600160a01b03166001600160a01b0316815260200190815260200160002081905550828281518110613597576135976156b4565b6020908102919091010151600e5460405163a9059cbb60e01b81526001600160a01b0391821660048201526024810184905291169063a9059cbb90604401602060405180830381600087803b1580156135ef57600080fd5b505af1158015613603573d6000803e3d6000fd5b505050506040513d601f19601f820116820180604052508101906136279190615319565b5050808061363490615659565b9150506134f5565b5050565b600c54600090610100900460ff161561366b5760405162461bcd60e51b81526004016108f39061551a565b6001600160a01b03821660009081526010602052604090205460ff166136a35760405162461bcd60e51b81526004016108f39061556a565b506001600160a01b031660009081526010602052604090206003015490565b600d546001600160a01b031633146137145760405162461bcd60e51b815260206004820152601560248201527427a7262c9026a0a925a2aa1021a7a62622a1aa27a960591b60448201526064016108f3565b600061371e61307e565b905060005b815181101561386857600060066000848481518110613744576137446156b4565b60200260200101516001600160a01b03166001600160a01b03168152602001908152602001600020549050600060066000858581518110613787576137876156b4565b60200260200101516001600160a01b03166001600160a01b03168152602001908152602001600020819055508282815181106137c5576137c56156b4565b602090810291909101015160405163a9059cbb60e01b81526001600160a01b038681166004830152602482018490529091169063a9059cbb90604401602060405180830381600087803b15801561381b57600080fd5b505af115801561382f573d6000803e3d6000fd5b505050506040513d601f19601f820116820180604052508101906138539190615319565b5050808061386090615659565b915050613723565b505050565b6001600160a01b03821660009081526010602090815260408083208151608081018352815460ff1615158152600182015493810193909352600281015491830182905260030154606083018190526009546011546115a6939190876143dd565b6000806138da83856155e8565b90508315806138f15750826138ef85836155d4565b145b6139305760405162461bcd60e51b815260206004820152601060248201526f4552525f4d554c5f4f564552464c4f5760801b60448201526064016108f3565b60006139456002670de0b6b3a76400006155d4565b61394f90836155bc565b9050818110156139945760405162461bcd60e51b815260206004820152601060248201526f4552525f4d554c5f4f564552464c4f5760801b60448201526064016108f3565b6000611342670de0b6b3a7640000836155d4565b6000806139b58685614237565b905060006139cb670de0b6b3a764000083613a6c565b905060006139db826001546138cd565b905060006139fa866139f5670de0b6b3a764000085613a6c565b614237565b90506000613a088b83613a6c565b90506000613a16828d614237565b90506000613a2482886149d8565b90506000613a32828d6138cd565b90506000613a408d83613a6c565b9050613a59816139f5670de0b6b3a76400006000613a6c565b9f9e505050505050505050505050505050565b6000806000613a7b8585614b04565b915091508015613ac15760405162461bcd60e51b81526020600482015260116024820152704552525f5355425f554e444552464c4f5760781b60448201526064016108f3565b509392505050565b61363c8282614b3b565b613adc81614b46565b50565b61363c8282614c12565b60405163a9059cbb60e01b81526001600160a01b038381166004830152602482018390526000919085169063a9059cbb906044015b602060405180830381600087803b158015613b3857600080fd5b505af1158015613b4c573d6000803e3d6000fd5b505050506040513d601f19601f82011682018060405250810190613b709190615319565b905080613bb15760405162461bcd60e51b815260206004820152600f60248201526e4552525f45524332305f46414c534560881b60448201526064016108f3565b50505050565b600080613bc48685614237565b90506000613bdf846109ab670de0b6b3a76400006000613a6c565b90506000613bed8783613a6c565b90506000613bfb8289614237565b90506000613c1a82613c15670de0b6b3a764000088614237565b6149d8565b90506000613c28828d6138cd565b90506000613c368d83613a6c565b90506000613c57613c4f670de0b6b3a76400008a613a6c565b6001546138cd565b9050613c6f826109ab670de0b6b3a764000084613a6c565b9e9d5050505050505050505050505050565b600c546201000090046001600160a01b03163314613cd65760405162461bcd60e51b815260206004820152601260248201527122a9292fa727aa2fa1a7a72a2927a62622a960711b60448201526064016108f3565b6001600160a01b03831660009081526010602052604090205460ff1615613d2e5760405162461bcd60e51b815260206004820152600c60248201526b11549497d254d7d093d5539160a21b60448201526064016108f3565b600e54600160a01b900460ff1615613d7b5760405162461bcd60e51b815260206004820152601060248201526f11549497d254d7d1925390531256915160821b60448201526064016108f3565b600f54600211613dbe5760405162461bcd60e51b815260206004820152600e60248201526d4552525f4d41585f544f4b454e5360901b60448201526064016108f3565b604080516080810182526001808252600f805460208085019182526000858701818152606087018281526001600160a01b038c1680845260109094529782209651875460ff1916901515178755925186860155915160028601559451600390940193909355805491820181559091527f8d1108e10bcb7c27dddfc02ed9d693a074039d026cf4ea4240b40f7d581ac8020180546001600160a01b0319169091179055613868838383614c1d565b600e805460ff60a01b1916600160a01b179055600c805460ff60b01b1916600160b01b179055613eac613ea7670de0b6b3a764000060646155e8565b6143d4565b613ec833613ec3670de0b6b3a764000060646155e8565b613adf565b565b600080613ed78686614237565b90506000613ee58585614237565b90506000613ef38383614237565b90506000613f36670de0b6b3a76400006139f5670de0b6b3a7640000600054613f1a6124f4565b600154613f2791906155bc565b613f3191906155bc565b613a6c565b905061339482826138cd565b6001600160a01b038316600090815260076020526040902054811115613fa15760405162461bcd60e51b815260206004820152601460248201527311549497d25394d551919250d251539517d0905360621b60448201526064016108f3565b6001600160a01b038316600090815260076020526040902054613fc49082613a6c565b6001600160a01b038085166000908152600760205260408082209390935590841681522054613ff3908261434f565b6001600160a01b0380841660008181526007602052604090819020939093559151908516907fddf252ad1be2c89b69c2b068fc378daa952ba7f163c4a11628f55a4df523b3ef906140479085815260200190565b60405180910390a3505050565b6000806140618487614237565b9050600061406f8685613a6c565b9050600061407d8783614237565b9050600061408b82856149d8565b905061409f81670de0b6b3a7640000613a6c565b9050600080546140ad6124f4565b6001546140ba91906155bc565b6140c491906155bc565b90506140d8670de0b6b3a764000082613a6c565b95506140ed6140e78c846138cd565b87614237565b9b9a5050505050505050505050565b6000806141098685614237565b9050600080546141176124f4565b60015461412491906155bc565b61412e91906155bc565b90506000614144670de0b6b3a764000083613a6c565b905061415085826138cd565b905060006141628a6139f58c8561434f565b9050600061417082866149d8565b90506000614186670de0b6b3a764000083613a6c565b90506141928a826138cd565b9c9b505050505050505050505050565b6000806141af8685614237565b905060006141c8613c4f670de0b6b3a764000084613a6c565b905060006141e2856109ab670de0b6b3a764000085613a6c565b905060006141f08a8361434f565b905060006141fe828c614237565b9050600061420c82876149d8565b9050600061421a828c6138cd565b9050614226818c613a6c565b9d9c50505050505050505050505050565b6000816142755760405162461bcd60e51b815260206004820152600c60248201526b4552525f4449565f5a45524f60a01b60448201526064016108f3565b6000614289670de0b6b3a7640000856155e8565b90508315806142a85750670de0b6b3a76400006142a685836155d4565b145b6142e75760405162461bcd60e51b815260206004820152601060248201526f11549497d1125597d25395115493905360821b60448201526064016108f3565b60006142f46002856155d4565b6142fe90836155bc565b9050818110156143435760405162461bcd60e51b815260206004820152601060248201526f11549497d1125597d25395115493905360821b60448201526064016108f3565b600061134285836155d4565b60008061435c83856155bc565b9050838110156134df5760405162461bcd60e51b815260206004820152601060248201526f4552525f4144445f4f564552464c4f5760801b60448201526064016108f3565b6040516323b872dd60e01b81526000906001600160a01b038516906323b872dd90613b1e908690309087906004016153b4565b613adc81614e6d565b6000806143ea8685614237565b905060006143f8868561434f565b905060006144068288614237565b9050600061441c670de0b6b3a764000085614237565b9050600061442a83836149d8565b90506000614438828d6138cd565b90506000614446828e613a6c565b9050600061445f613c4f670de0b6b3a76400008a613a6c565b9050613c6f826139f5670de0b6b3a764000084613a6c565b6000808061449486600360200201518760015b6020020151614237565b905060006144a9876002602002015187613a6c565b905060006144be886002602002015183614237565b905060006144cc82856149d8565b90506144e081670de0b6b3a7640000613a6c565b9050600080546144ee6124f4565b6001546144fb91906155bc565b61450591906155bc565b8a5190915061452a9061451890846138cd565b6139f5670de0b6b3a764000084613a6c565b9650600061454a88613f318a6109ab670de0b6b3a7640000613f316124f4565b6001600160a01b038a16600090815260056020526040902054909150614570908261434f565b600560008b6001600160a01b03166001600160a01b031681526020019081526020016000208190555060006145b789613f318b6109ab670de0b6b3a7640000600054613a6c565b6001600160a01b038b166000908152600660205260409020549091506145dd908261434f565b6001600160a01b038b166000908152600660205260409020558b5161461a9061460690866138cd565b6139f5670de0b6b3a7640000600154613a6c565b97507f90d9f1d0641138b6407ac37bea3a905d63a371c2d91a484f68d59924634d4ef36146598a613f318c6109ab670de0b6b3a7640000600154613a6c565b604080519182526020820185905281018390526001600160a01b038c16606082015260800160405180910390a150505050505050935093915050565b600080806146ac866001602002015187600361448a565b905060006146cc86613f31886109ab670de0b6b3a7640000613f316124f4565b6001600160a01b0386166000908152600560205260409020549091506146f2908261434f565b60056000876001600160a01b03166001600160a01b0316815260200190815260200160002081905550600061473987613f31896109ab670de0b6b3a7640000600054613a6c565b6001600160a01b03871660009081526006602052604090205490915061475f908261434f565b6001600160a01b03871660009081526006602052604081209190915580546147856124f4565b60015461479291906155bc565b61479c91906155bc565b90507f90d9f1d0641138b6407ac37bea3a905d63a371c2d91a484f68d59924634d4ef36147db89613f318b6109ab670de0b6b3a7640000600154613a6c565b604080519182526020820186905281018490526001600160a01b038916606082015260800160405180910390a1600061481c670de0b6b3a764000083613a6c565b905061482889826138cd565b8a5190915060009061483e906139f5818561434f565b9050600061484c82886149d8565b90506000614862670de0b6b3a764000083613a6c565b90506148758d60026020020151826138cd565b9950896148868d613f31898b6155bc565b995099505050505050505050935093915050565b600c805462010000600160b01b031916620100006001600160a01b038a81169190910291909117909155600280546001600160a01b0319169188169190911790558451600090869082906148f0576148f06156b4565b602002602001015160018190555085600181518110614911576149116156b4565b602090810291909101810151600055600c8054961515600160b01b0260ff60b01b199097169690961795869055600e80548551600380546001600160a01b039283166001600160a01b03199182161790915596840151600480549183169189169190911790558551600d805491831691891691909117905594909201518416951515600160a01b908102959095166001600160a81b0319928316179590951790945550601280549093166201000090940416929092178217908190550460ff169392505050565b60006001831015614a235760405162461bcd60e51b81526020600482015260156024820152744552525f42504f575f424153455f544f4f5f4c4f5760581b60448201526064016108f3565b6001614a38670de0b6b3a764000060026155e8565b614a429190615607565b831115614a8a5760405162461bcd60e51b815260206004820152601660248201527508aa4a4be84a09eaebe8482a68abea89e9ebe90928e960531b60448201526064016108f3565b6000614a9583614edc565b90506000614aa38483613a6c565b90506000614ab986614ab485614efa565b614f0e565b905081614aca579250610e2d915050565b6000614aed8784614ae86402540be400670de0b6b3a76400006155d4565b614f82565b9050614af982826138cd565b979650505050505050565b600080828410614b2357614b188385615607565b600091509150614b34565b614b2d8484615607565b6001915091505b9250929050565b61363c823083613f42565b30600090815260076020526040902054811115614b9c5760405162461bcd60e51b815260206004820152601460248201527311549497d25394d551919250d251539517d0905360621b60448201526064016108f3565b30600090815260076020526040902054614bb69082613a6c565b30600090815260076020526040902055600954614bd39082613a6c565b60095560405181815260009030907fddf252ad1be2c89b69c2b068fc378daa952ba7f163c4a11628f55a4df523b3ef906020015b60405180910390a350565b61363c308383613f42565b670de0b6b3a7640000811015614c665760405162461bcd60e51b815260206004820152600e60248201526d11549497d3525397d5d15251d21560921b60448201526064016108f3565b614c79670de0b6b3a764000060326155e8565b811115614cb95760405162461bcd60e51b815260206004820152600e60248201526d11549497d3505617d5d15251d21560921b60448201526064016108f3565b614cd064e8d4a51000670de0b6b3a76400006155d4565b821015614d115760405162461bcd60e51b815260206004820152600f60248201526e4552525f4d494e5f42414c414e434560881b60448201526064016108f3565b6001600160a01b03831660009081526010602052604090206002015480821115614dad57614d4a601154614d458484613a6c565b61434f565b601155614d60670de0b6b3a764000060326155e8565b6011541115614da85760405162461bcd60e51b815260206004820152601460248201527311549497d3505617d513d5105317d5d15251d21560621b60448201526064016108f3565b614dc9565b80821015614dc957614dc5601154613f318385613a6c565b6011555b6001600160a01b03841660009081526010602052604090206002810183905560030180549084905580841115614e1257614e0d8533614e088785613a6c565b6143a1565b614e66565b80841015614e66576000614e268286613a6c565b90506000614e358260006138cd565b9050614e4b8733614e468585613a6c565b613ae9565b600254614e639088906001600160a01b031683613ae9565b50505b5050505050565b30600090815260076020526040902054614e87908261434f565b30600090815260076020526040902055600954614ea4908261434f565b60095560405181815230906000907fddf252ad1be2c89b69c2b068fc378daa952ba7f163c4a11628f55a4df523b3ef90602001614c07565b6000670de0b6b3a7640000614ef083614efa565b610e2d91906155e8565b6000610e2d670de0b6b3a7640000836155d4565b60008281614f1d600285615674565b614f2f57670de0b6b3a7640000614f31565b815b9050614f3e6002856155d4565b93505b83156115a657614f5182836138cd565b9150614f5e600285615674565b15614f7057614f6d81836138cd565b90505b614f7b6002856155d4565b9350614f41565b6000828180614f9987670de0b6b3a7640000614b04565b9092509050670de0b6b3a764000080600060015b888410615063576000614fc8670de0b6b3a7640000836155e8565b9050600080614fe88a614fe385670de0b6b3a7640000613a6c565b614b04565b91509150614ffa876109ab848c6138cd565b96506150068784614237565b96508661501557505050615063565b871561501f579315935b8015615029579315935b8415615040576150398688613a6c565b955061504d565b61504a868861434f565b95505b505050808061505b90615659565b915050614fad565b50909998505050505050505050565b80356001600160a01b0381168114612d6957600080fd5b8060408101831015610e2d57600080fd5b60008083601f8401126150ac57600080fd5b50813567ffffffffffffffff8111156150c457600080fd5b6020830191508360208260051b8501011115614b3457600080fd5b6000602082840312156150f157600080fd5b6134df82615072565b6000806040838503121561510d57600080fd5b61511683615072565b915061512460208401615072565b90509250929050565b600080600080600080600080610120898b03121561514a57600080fd5b61515389615072565b975061516160208a01615072565b9650604089013567ffffffffffffffff81111561517d57600080fd5b6151898b828c0161509a565b909750955050606089013561519d816156ca565b935060808901356151ad816156ca565b92506151bc8a60a08b01615089565b91506151cb8a60e08b01615089565b90509295985092959890939650565b6000806000606084860312156151ef57600080fd5b6151f884615072565b925061520660208501615072565b9150604084013590509250925092565b6000806040838503121561522957600080fd5b61523283615072565b946020939093013593505050565b600080600080600060a0868803121561525857600080fd5b61526186615072565b94506020860135935061527660408701615072565b94979396509394606081013594506080013592915050565b6000806000606084860312156152a357600080fd5b6152ac84615072565b95602085013595506040909401359392505050565b60008060008060008060c087890312156152da57600080fd5b6152e387615072565b955060208701359450604087013593506152ff60608801615072565b92506080870135915060a087013590509295509295509295565b60006020828403121561532b57600080fd5b81516134df816156ca565b60006020828403121561534857600080fd5b5035919050565b60006020828403121561536157600080fd5b5051919050565b60008060006040848603121561537d57600080fd5b83359250602084013567ffffffffffffffff81111561539b57600080fd5b6153a78682870161509a565b9497909650939450505050565b6001600160a01b039384168152919092166020820152604081019190915260600190565b6020808252825182820181905260009190848201906040850190845b818110156154195783516001600160a01b0316835292840192918401916001016153f4565b50909695505050505050565b600060208083528351808285015260005b8181101561545257858101830151858201604001528201615436565b81811115615464576000604083870101525b50601f01601f1916929092016040019392505050565b60208082526010908201526f4552525f4d41585f494e5f524154494f60801b604082015260600190565b6020808252600f908201526e08aa4a4be9a82a890be82a0a0a49eb608b1b604082015260600190565b6020808252600d908201526c11549497d31253525517d3d555609a1b604082015260600190565b6020808252600c908201526b22a9292fa624a6a4aa2fa4a760a11b604082015260600190565b6020808252600b908201526a4552525f5245454e54525960a81b604082015260600190565b6020808252601190820152704552525f4d41585f4f55545f524154494f60781b604082015260600190565b6020808252600d908201526c11549497d393d517d093d55391609a1b604082015260600190565b60208082526011908201527011549497d393d517d19253905312569151607a1b604082015260600190565b600082198211156155cf576155cf615688565b500190565b6000826155e3576155e361569e565b500490565b600081600019048311821515161561560257615602615688565b500290565b60008282101561561957615619615688565b500390565b600181811c9082168061563257607f821691505b6020821081141561565357634e487b7160e01b600052602260045260246000fd5b50919050565b600060001982141561566d5761566d615688565b5060010190565b6000826156835761568361569e565b500690565b634e487b7160e01b600052601160045260246000fd5b634e487b7160e01b600052601260045260246000fd5b634e487b7160e01b600052603260045260246000fd5b8015158114613adc57600080fdfe9d9058fd2f25ccc389fec7720abef0ca83472f5abfafd5f10d37f51e6a0493f3fcda32798d5a9d032f49b37fea876d422f18f6e386e0f07db6029b693624b2c215a8ca63e37b2cff1677df2b6b82d36fcf8a524228bd7a4b4d02d107c28c1e8a8c5be1e5ebec7d5bd14f71427d1e84f3dd0314c0f7b2291e5b200ac8c7c3b925a264697066735822122050e05b3a15d209f645981c5602187830783411d60acf6d58ed970e01e78b794664736f6c63430008070033",
  "linkReferences": {},
  "deployedLinkReferences": {}
}