{
  "_format": "hh-sol-artifact-1",
  "contractName": "ERC725Ocean",
  "sourceName": "contracts/utils/ERC725/ERC725Ocean.sol",
  "abi": [
    {
      "inputs": [],
      "stateMutability": "nonpayable",
      "type": "constructor"
    },
    {
      "anonymous": false,
      "inputs": [
        {
          "indexed": true,
          "internalType": "address",
          "name": "contractAddress",
          "type": "address"
        }
      ],
      "name": "ContractCreated",
      "type": "event"
    },
    {
      "anonymous": false,
      "inputs": [
        {
          "indexed": true,
          "internalType": "bytes32",
          "name": "key",
          "type": "bytes32"
        },
        {
          "indexed": false,
          "internalType": "bytes",
          "name": "value",
          "type": "bytes"
        }
      ],
      "name": "DataChanged",
      "type": "event"
    },
    {
      "anonymous": false,
      "inputs": [
        {
          "indexed": true,
          "internalType": "uint256",
          "name": "_operation",
          "type": "uint256"
        },
        {
          "indexed": true,
          "internalType": "address",
          "name": "_to",
          "type": "address"
        },
        {
          "indexed": true,
          "internalType": "uint256",
          "name": "_value",
          "type": "uint256"
        },
        {
          "indexed": false,
          "internalType": "bytes",
          "name": "_data",
          "type": "bytes"
        }
      ],
      "name": "Executed",
      "type": "event"
    },
    {
      "inputs": [
        {
          "internalType": "bytes32",
          "name": "_key",
          "type": "bytes32"
        }
      ],
      "name": "getData",
      "outputs": [
        {
          "internalType": "bytes",
          "name": "_value",
          "type": "bytes"
        }
      ],
      "stateMutability": "view",
      "type": "function"
    },
    {
      "inputs": [
        {
          "internalType": "bytes4",
          "name": "interfaceId",
          "type": "bytes4"
        }
      ],
      "name": "supportsInterface",
      "outputs": [
        {
          "internalType": "bool",
          "name": "",
          "type": "bool"
        }
      ],
      "stateMutability": "view",
      "type": "function"
    }
  ],
  "bytecode": "0x608060405234801561001057600080fd5b506100216301ffc9a760e01b610046565b610031632260147f60e11b610046565b610041632bd57b7360e01b610046565b6100c9565b6001600160e01b031980821614156100a45760405162461bcd60e51b815260206004820152601c60248201527f4552433136353a20696e76616c696420696e7465726661636520696400000000604482015260640160405180910390fd5b6001600160e01b0319166000908152602081905260409020805460ff19166001179055565b61024f806100d86000396000f3fe608060405234801561001057600080fd5b50600436106100365760003560e01c806301ffc9a71461003b57806354f6127f1461007d575b600080fd5b61006861004936600461013f565b6001600160e01b03191660009081526020819052604090205460ff1690565b60405190151581526020015b60405180910390f35b61009061008b366004610170565b61009d565b6040516100749190610189565b60008181526001602052604090208054606091906100ba906101de565b80601f01602080910402602001604051908101604052809291908181526020018280546100e6906101de565b80156101335780601f1061010857610100808354040283529160200191610133565b820191906000526020600020905b81548152906001019060200180831161011657829003601f168201915b50505050509050919050565b60006020828403121561015157600080fd5b81356001600160e01b03198116811461016957600080fd5b9392505050565b60006020828403121561018257600080fd5b5035919050565b600060208083528351808285015260005b818110156101b65785810183015185820160400152820161019a565b818111156101c8576000604083870101525b50601f01601f1916929092016040019392505050565b600181811c908216806101f257607f821691505b6020821081141561021357634e487b7160e01b600052602260045260246000fd5b5091905056fea2646970667358221220dd4506a5af9f841ec3445644b6d9a1760e63c9fb108f95789788a1a6c674350064736f6c634300080c0033",
  "linkReferences": {},
  "deployedLinkReferences": {}
}