{
  "_format": "hh-sol-artifact-1",
  "contractName": "ERC725Ocean",
  "sourceName": "contracts/utils/ERC725/ERC725Ocean.sol",
  "abi": [
    {
      "inputs": [],
      "stateMutability": "nonpayable",
      "type": "constructor"
    },
    {
      "anonymous": false,
      "inputs": [
        {
          "indexed": true,
          "internalType": "address",
          "name": "contractAddress",
          "type": "address"
        }
      ],
      "name": "ContractCreated",
      "type": "event"
    },
    {
      "anonymous": false,
      "inputs": [
        {
          "indexed": true,
          "internalType": "bytes32",
          "name": "key",
          "type": "bytes32"
        },
        {
          "indexed": false,
          "internalType": "bytes",
          "name": "value",
          "type": "bytes"
        }
      ],
      "name": "DataChanged",
      "type": "event"
    },
    {
      "anonymous": false,
      "inputs": [
        {
          "indexed": true,
          "internalType": "uint256",
          "name": "_operation",
          "type": "uint256"
        },
        {
          "indexed": true,
          "internalType": "address",
          "name": "_to",
          "type": "address"
        },
        {
          "indexed": true,
          "internalType": "uint256",
          "name": "_value",
          "type": "uint256"
        },
        {
          "indexed": false,
          "internalType": "bytes",
          "name": "_data",
          "type": "bytes"
        }
      ],
      "name": "Executed",
      "type": "event"
    },
    {
      "inputs": [
        {
          "internalType": "bytes32",
          "name": "_key",
          "type": "bytes32"
        }
      ],
      "name": "getData",
      "outputs": [
        {
          "internalType": "bytes",
          "name": "_value",
          "type": "bytes"
        }
      ],
      "stateMutability": "view",
      "type": "function"
    },
    {
      "inputs": [
        {
          "internalType": "bytes4",
          "name": "interfaceId",
          "type": "bytes4"
        }
      ],
      "name": "supportsInterface",
      "outputs": [
        {
          "internalType": "bool",
          "name": "",
          "type": "bool"
        }
      ],
      "stateMutability": "view",
      "type": "function"
    }
  ],
  "bytecode": "0x608060405234801561001057600080fd5b50610021632260147f60e11b610036565b610031632bd57b7360e01b610036565b6100b9565b6001600160e01b031980821614156100945760405162461bcd60e51b815260206004820152601c60248201527f4552433136353a20696e76616c696420696e7465726661636520696400000000604482015260640160405180910390fd5b6001600160e01b0319166000908152602081905260409020805460ff19166001179055565b610275806100c86000396000f3fe608060405234801561001057600080fd5b50600436106100365760003560e01c806301ffc9a71461003b57806354f6127f14610063575b600080fd5b61004e610049366004610165565b610083565b60405190151581526020015b60405180910390f35b610076610071366004610196565b6100c3565b60405161005a91906101af565b60006301ffc9a760e01b6001600160e01b0319831614806100bd57506001600160e01b0319821660009081526020819052604090205460ff165b92915050565b60008181526001602052604090208054606091906100e090610204565b80601f016020809104026020016040519081016040528092919081815260200182805461010c90610204565b80156101595780601f1061012e57610100808354040283529160200191610159565b820191906000526020600020905b81548152906001019060200180831161013c57829003601f168201915b50505050509050919050565b60006020828403121561017757600080fd5b81356001600160e01b03198116811461018f57600080fd5b9392505050565b6000602082840312156101a857600080fd5b5035919050565b600060208083528351808285015260005b818110156101dc578581018301518582016040015282016101c0565b818111156101ee576000604083870101525b50601f01601f1916929092016040019392505050565b600181811c9082168061021857607f821691505b6020821081141561023957634e487b7160e01b600052602260045260246000fd5b5091905056fea2646970667358221220db55320062e1ef67da22f2ee7fac4e06014f6e36a3597f55c0e4bbe8ea9d7da364736f6c634300080a0033",
  "linkReferences": {},
  "deployedLinkReferences": {}
}