{
  "_format": "hh-sol-artifact-1",
  "contractName": "Dispenser",
  "sourceName": "contracts/pools/dispenser/Dispenser.sol",
  "abi": [
    {
      "inputs": [
        {
          "internalType": "address",
          "name": "_router",
          "type": "address"
        }
      ],
      "stateMutability": "nonpayable",
      "type": "constructor"
    },
    {
      "anonymous": false,
      "inputs": [
        {
          "indexed": true,
          "internalType": "address",
          "name": "datatokenAddress",
          "type": "address"
        }
      ],
      "name": "DispenserActivated",
      "type": "event"
    },
    {
      "anonymous": false,
      "inputs": [
        {
          "indexed": true,
          "internalType": "address",
          "name": "datatoken",
          "type": "address"
        },
        {
          "indexed": true,
          "internalType": "address",
          "name": "newAllowedSwapper",
          "type": "address"
        }
      ],
      "name": "DispenserAllowedSwapperChanged",
      "type": "event"
    },
    {
      "anonymous": false,
      "inputs": [
        {
          "indexed": true,
          "internalType": "address",
          "name": "datatokenAddress",
          "type": "address"
        },
        {
          "indexed": true,
          "internalType": "address",
          "name": "owner",
          "type": "address"
        },
        {
          "indexed": false,
          "internalType": "uint256",
          "name": "maxTokens",
          "type": "uint256"
        },
        {
          "indexed": false,
          "internalType": "uint256",
          "name": "maxBalance",
          "type": "uint256"
        },
        {
          "indexed": false,
          "internalType": "address",
          "name": "allowedSwapper",
          "type": "address"
        }
      ],
      "name": "DispenserCreated",
      "type": "event"
    },
    {
      "anonymous": false,
      "inputs": [
        {
          "indexed": true,
          "internalType": "address",
          "name": "datatokenAddress",
          "type": "address"
        }
      ],
      "name": "DispenserDeactivated",
      "type": "event"
    },
    {
      "anonymous": false,
      "inputs": [
        {
          "indexed": true,
          "internalType": "address",
          "name": "datatoken",
          "type": "address"
        },
        {
          "indexed": true,
          "internalType": "address",
          "name": "owner",
          "type": "address"
        },
        {
          "indexed": false,
          "internalType": "uint256",
          "name": "amount",
          "type": "uint256"
        }
      ],
      "name": "OwnerWithdrawed",
      "type": "event"
    },
    {
      "anonymous": false,
      "inputs": [
        {
          "indexed": true,
          "internalType": "address",
          "name": "datatokenAddress",
          "type": "address"
        },
        {
          "indexed": true,
          "internalType": "address",
          "name": "userAddress",
          "type": "address"
        },
        {
          "indexed": false,
          "internalType": "uint256",
          "name": "amount",
          "type": "uint256"
        }
      ],
      "name": "TokensDispensed",
      "type": "event"
    },
    {
      "inputs": [
        {
          "internalType": "address",
          "name": "datatoken",
          "type": "address"
        },
        {
          "internalType": "uint256",
          "name": "maxTokens",
          "type": "uint256"
        },
        {
          "internalType": "uint256",
          "name": "maxBalance",
          "type": "uint256"
        }
      ],
      "name": "activate",
      "outputs": [],
      "stateMutability": "nonpayable",
      "type": "function"
    },
    {
      "inputs": [
        {
          "internalType": "address",
          "name": "datatoken",
          "type": "address"
        },
        {
          "internalType": "uint256",
          "name": "maxTokens",
          "type": "uint256"
        },
        {
          "internalType": "uint256",
          "name": "maxBalance",
          "type": "uint256"
        },
        {
          "internalType": "address",
          "name": "owner",
          "type": "address"
        },
        {
          "internalType": "address",
          "name": "allowedSwapper",
          "type": "address"
        }
      ],
      "name": "create",
      "outputs": [],
      "stateMutability": "nonpayable",
      "type": "function"
    },
    {
      "inputs": [
        {
          "internalType": "uint256",
          "name": "",
          "type": "uint256"
        }
      ],
      "name": "datatokensList",
      "outputs": [
        {
          "internalType": "address",
          "name": "",
          "type": "address"
        }
      ],
      "stateMutability": "view",
      "type": "function"
    },
    {
      "inputs": [
        {
          "internalType": "address",
          "name": "datatoken",
          "type": "address"
        }
      ],
      "name": "deactivate",
      "outputs": [],
      "stateMutability": "nonpayable",
      "type": "function"
    },
    {
      "inputs": [
        {
          "internalType": "address",
          "name": "datatoken",
          "type": "address"
        },
        {
          "internalType": "uint256",
          "name": "amount",
          "type": "uint256"
        },
        {
          "internalType": "address",
          "name": "destination",
          "type": "address"
        }
      ],
      "name": "dispense",
      "outputs": [],
      "stateMutability": "payable",
      "type": "function"
    },
    {
      "inputs": [],
      "name": "getId",
      "outputs": [
        {
          "internalType": "uint8",
          "name": "",
          "type": "uint8"
        }
      ],
      "stateMutability": "pure",
      "type": "function"
    },
    {
      "inputs": [
        {
          "internalType": "address",
          "name": "datatoken",
          "type": "address"
        }
      ],
      "name": "ownerWithdraw",
      "outputs": [],
      "stateMutability": "nonpayable",
      "type": "function"
    },
    {
      "inputs": [],
      "name": "router",
      "outputs": [
        {
          "internalType": "address",
          "name": "",
          "type": "address"
        }
      ],
      "stateMutability": "view",
      "type": "function"
    },
    {
      "inputs": [
        {
          "internalType": "address",
          "name": "datatoken",
          "type": "address"
        },
        {
          "internalType": "address",
          "name": "newAllowedSwapper",
          "type": "address"
        }
      ],
      "name": "setAllowedSwapper",
      "outputs": [],
      "stateMutability": "nonpayable",
      "type": "function"
    },
    {
      "inputs": [
        {
          "internalType": "address",
          "name": "datatoken",
          "type": "address"
        }
      ],
      "name": "status",
      "outputs": [
        {
          "internalType": "bool",
          "name": "active",
          "type": "bool"
        },
        {
          "internalType": "address",
          "name": "owner",
          "type": "address"
        },
        {
          "internalType": "bool",
          "name": "isMinter",
          "type": "bool"
        },
        {
          "internalType": "uint256",
          "name": "maxTokens",
          "type": "uint256"
        },
        {
          "internalType": "uint256",
          "name": "maxBalance",
          "type": "uint256"
        },
        {
          "internalType": "uint256",
          "name": "balance",
          "type": "uint256"
        },
        {
          "internalType": "address",
          "name": "allowedSwapper",
          "type": "address"
        }
      ],
      "stateMutability": "view",
      "type": "function"
    }
  ],
  "bytecode": "0x608060405234801561001057600080fd5b506040516119c63803806119c683398101604081905261002f916100b3565b60016000556001600160a01b03811661008e5760405162461bcd60e51b815260206004820152601f60248201527f44697370656e7365723a2057726f6e6720526f75746572206164647265737300604482015260640160405180910390fd5b600180546001600160a01b0319166001600160a01b03929092169190911790556100e3565b6000602082840312156100c557600080fd5b81516001600160a01b03811681146100dc57600080fd5b9392505050565b6118d4806100f26000396000f3fe6080604052600436106100915760003560e01c80635d1ca631116100595780635d1ca63114610148578063645b8b1b14610164578063938d71d0146101c7578063f887ea40146101e7578063f9bfaa7d1461020757600080fd5b80631d746d831461009657806324ce2917146100ab5780633398086a146100cb5780633ea053eb1461010857806345d6646b14610128575b600080fd5b6100a96100a4366004611603565b610227565b005b3480156100b757600080fd5b506100a96100c6366004611645565b6107a5565b3480156100d757600080fd5b506100eb6100e63660046116a4565b6109d8565b6040516001600160a01b0390911681526020015b60405180910390f35b34801561011457600080fd5b506100a96101233660046116bd565b610a02565b34801561013457600080fd5b506100a96101433660046116da565b610be3565b34801561015457600080fd5b50604051600181526020016100ff565b34801561017057600080fd5b5061018461017f3660046116bd565b610dd5565b6040805197151588526001600160a01b039687166020890152941515948701949094526060860192909252608085015260a08401521660c082015260e0016100ff565b3480156101d357600080fd5b506100a96101e2366004611713565b610f3e565b3480156101f357600080fd5b506001546100eb906001600160a01b031681565b34801561021357600080fd5b506100a96102223660046116bd565b611172565b6002600054141561027f5760405162461bcd60e51b815260206004820152601f60248201527f5265656e7472616e637947756172643a207265656e7472616e742063616c6c0060448201526064015b60405180910390fd5b60026000556001600160a01b0383166102aa5760405162461bcd60e51b815260040161027690611748565b6001600160a01b03831660009081526002602052604090205460ff166103095760405162461bcd60e51b815260206004820152601460248201527344697370656e736572206e6f742061637469766560601b6044820152606401610276565b6000821161034f5760405162461bcd60e51b8152602060048201526013602482015272125b9d985b1a59081e995c9bc8185b5bdd5b9d606a1b6044820152606401610276565b6001600160a01b0383166000908152600260205260409020600101548211156103ac5760405162461bcd60e51b815260206004820152600f60248201526e082dadeeadce840e8dede40d0d2ced608b1b6044820152606401610276565b6001600160a01b03838116600090815260026020526040902060030154161561044d576001600160a01b0383811660009081526002602052604090206003015416331461044d5760405162461bcd60e51b815260206004820152602960248201527f546869732061646472657373206973206e6f7420616c6c6f77656420746f2072604482015268195c5d595cdd08111560ba1b6064820152608401610276565b6040516370a0823160e01b81526001600160a01b03828116600483015284916000918316906370a0823190602401602060405180830381865afa158015610498573d6000803e3d6000fd5b505050506040513d601f19601f820116820180604052508101906104bc919061177f565b6001600160a01b03861660009081526002602081905260409091200154909150811061052a5760405162461bcd60e51b815260206004820152601760248201527f43616c6c65722062616c616e636520746f6f20686967680000000000000000006044820152606401610276565b6040516370a0823160e01b81523060048201526000906001600160a01b038416906370a0823190602401602060405180830381865afa158015610571573d6000803e3d6000fd5b505050506040513d601f19601f82011682018060405250810190610595919061177f565b9050848110801561060957506040516355138f0d60e11b81523060048201526001600160a01b0384169063aa271e1a90602401602060405180830381865afa1580156105e5573d6000803e3d6000fd5b505050506040513d601f19601f820116820180604052508101906106099190611798565b156106f1576001600160a01b0383166340c10f193061062884896117ba565b6040516001600160e01b031960e085901b1681526001600160a01b0390921660048301526024820152604401600060405180830381600087803b15801561066e57600080fd5b505af1158015610682573d6000803e3d6000fd5b50506040516370a0823160e01b81523060048201526001600160a01b03861692506370a082319150602401602060405180830381865afa1580156106ca573d6000803e3d6000fd5b505050506040513d601f19601f820116820180604052508101906106ee919061177f565b90505b848110156107375760405162461bcd60e51b81526020600482015260136024820152724e6f7420656e6f75676820726573657276657360681b6044820152606401610276565b61074b6001600160a01b0387168587611201565b836001600160a01b0316866001600160a01b03167f63e223ff524bd93d4cbff98ef34405b39f63ded87f5a8d85e39ccda966f135438760405161079091815260200190565b60405180910390a35050600160005550505050565b6001546001600160a01b031633146107f85760405162461bcd60e51b81526020600482015260166024820152752234b9b832b739b2b91d1037b7363c903937baba32b960511b6044820152606401610276565b6001600160a01b03851661081e5760405162461bcd60e51b815260040161027690611748565b6001600160a01b03858116600090815260026020526040902054610100900416158061086b57506001600160a01b0385811660009081526002602052604090205461010090048116908316145b6108b75760405162461bcd60e51b815260206004820152601960248201527f44617461746f6b656e20616c72656164792063726561746564000000000000006044820152606401610276565b6001600160a01b038581166000818152600260208181526040808420805489881661010081026001600160a81b031990921691909117600190811783558083018d90559482018b905560039182018054988a166001600160a01b0319998a16811790915582549586018355919095527fc2575a0e9e593c00f959f8c92f12db2869c3395a3b0502d05e2516446f71f85b90930180549096168517909555845189815290810188905293840152917f7d0aa581e6eb87e15f58588ff20c39ff6622fc796ec9bb664df6ed3eb02442c99060600160405180910390a3806001600160a01b0316856001600160a01b03167fac5c7317d52e88de62aff4ba6869a4882a4556557b761158934d2fd32a8b2ca560405160405180910390a35050505050565b600381815481106109e857600080fd5b6000918252602090912001546001600160a01b0316905081565b806001600160a01b038116610a295760405162461bcd60e51b815260040161027690611748565b6040516396fb3eaf60e01b815233600482015281906001600160a01b038216906396fb3eaf906024016020604051808303816000875af1158015610a71573d6000803e3d6000fd5b505050506040513d601f19601f82011682018060405250810190610a959190611798565b80610b7c5750336001600160a01b0316816001600160a01b0316627ffb786040518163ffffffff1660e01b8152600401602060405180830381865afa158015610ae2573d6000803e3d6000fd5b505050506040513d601f19601f82011682018060405250810190610b0691906117df565b6040516331a9108f60e11b8152600160048201526001600160a01b039190911690636352211e90602401602060405180830381865afa158015610b4d573d6000803e3d6000fd5b505050506040513d601f19601f82011682018060405250810190610b7191906117df565b6001600160a01b0316145b610b985760405162461bcd60e51b8152600401610276906117fc565b6001600160a01b038316600081815260026020526040808220805460ff19169055517f393f01061139648745ea000bb047bbe1785bd3a19d3a9c90f6747e1d2357d2b89190a2505050565b816001600160a01b038116610c0a5760405162461bcd60e51b815260040161027690611748565b6040516396fb3eaf60e01b815233600482015281906001600160a01b038216906396fb3eaf906024016020604051808303816000875af1158015610c52573d6000803e3d6000fd5b505050506040513d601f19601f82011682018060405250810190610c769190611798565b80610d5d5750336001600160a01b0316816001600160a01b0316627ffb786040518163ffffffff1660e01b8152600401602060405180830381865afa158015610cc3573d6000803e3d6000fd5b505050506040513d601f19601f82011682018060405250810190610ce791906117df565b6040516331a9108f60e11b8152600160048201526001600160a01b039190911690636352211e90602401602060405180830381865afa158015610d2e573d6000803e3d6000fd5b505050506040513d601f19601f82011682018060405250810190610d5291906117df565b6001600160a01b0316145b610d795760405162461bcd60e51b8152600401610276906117fc565b6001600160a01b0384811660008181526002602052604080822060030180546001600160a01b0319169488169485179055517fac5c7317d52e88de62aff4ba6869a4882a4556557b761158934d2fd32a8b2ca59190a350505050565b60008080808080806001600160a01b038816610e035760405162461bcd60e51b815260040161027690611748565b6001600160a01b0388811660008181526002602081905260409182902080546001820154919092015492516370a0823160e01b815230600482015260ff83169c506101009092049094169950929650945089916370a0823190602401602060405180830381865afa158015610e7c573d6000803e3d6000fd5b505050506040513d601f19601f82011682018060405250810190610ea0919061177f565b6040516355138f0d60e11b81523060048201529093506001600160a01b0382169063aa271e1a90602401602060405180830381865afa158015610ee7573d6000803e3d6000fd5b505050506040513d601f19601f82011682018060405250810190610f0b9190611798565b6001600160a01b03998a16600090815260026020526040902060030154989a979990989597949650929490921692915050565b826001600160a01b038116610f655760405162461bcd60e51b815260040161027690611748565b6040516396fb3eaf60e01b815233600482015281906001600160a01b038216906396fb3eaf906024016020604051808303816000875af1158015610fad573d6000803e3d6000fd5b505050506040513d601f19601f82011682018060405250810190610fd19190611798565b806110b85750336001600160a01b0316816001600160a01b0316627ffb786040518163ffffffff1660e01b8152600401602060405180830381865afa15801561101e573d6000803e3d6000fd5b505050506040513d601f19601f8201168201806040525081019061104291906117df565b6040516331a9108f60e11b8152600160048201526001600160a01b039190911690636352211e90602401602060405180830381865afa158015611089573d6000803e3d6000fd5b505050506040513d601f19601f820116820180604052508101906110ad91906117df565b6001600160a01b0316145b6110d45760405162461bcd60e51b8152600401610276906117fc565b6001600160a01b0385166000818152600260208190526040808320805460ff1916600190811782558181018a9055920187905560038054928301815583527fc2575a0e9e593c00f959f8c92f12db2869c3395a3b0502d05e2516446f71f85b90910180546001600160a01b03191684179055517fe9372084cb52c5392afee4b9d79d131e04b1e65676088d50a8f39fffb16a87459190a25050505050565b600260005414156111c55760405162461bcd60e51b815260206004820152601f60248201527f5265656e7472616e637947756172643a207265656e7472616e742063616c6c006044820152606401610276565b60026000556001600160a01b0381166111f05760405162461bcd60e51b815260040161027690611748565b6111f981611258565b506001600055565b604080516001600160a01b038416602482015260448082018490528251808303909101815260649091019091526020810180516001600160e01b031663a9059cbb60e01b17905261125390849061139f565b505050565b60008190506000816001600160a01b031663e487c2e86040518163ffffffff1660e01b8152600401602060405180830381865afa15801561129d573d6000803e3d6000fd5b505050506040513d601f19601f820116820180604052508101906112c191906117df565b6040516370a0823160e01b81523060048201529091506000906001600160a01b038416906370a0823190602401602060405180830381865afa15801561130b573d6000803e3d6000fd5b505050506040513d601f19601f8201168201806040525081019061132f919061177f565b905080156113995761134b6001600160a01b0385168383611201565b816001600160a01b0316846001600160a01b03167f03185212530fcdce6b38fbf62ed27ab29b1b047f59b76b17401388a70a95f41b8360405161139091815260200190565b60405180910390a35b50505050565b60006113f4826040518060400160405280602081526020017f5361666545524332303a206c6f772d6c6576656c2063616c6c206661696c6564815250856001600160a01b03166114719092919063ffffffff16565b80519091501561125357808060200190518101906114129190611798565b6112535760405162461bcd60e51b815260206004820152602a60248201527f5361666545524332303a204552433230206f7065726174696f6e20646964206e6044820152691bdd081cdd58d8d9595960b21b6064820152608401610276565b6060611480848460008561148a565b90505b9392505050565b6060824710156114eb5760405162461bcd60e51b815260206004820152602660248201527f416464726573733a20696e73756666696369656e742062616c616e636520666f6044820152651c8818d85b1b60d21b6064820152608401610276565b843b6115395760405162461bcd60e51b815260206004820152601d60248201527f416464726573733a2063616c6c20746f206e6f6e2d636f6e74726163740000006044820152606401610276565b600080866001600160a01b03168587604051611555919061184f565b60006040518083038185875af1925050503d8060008114611592576040519150601f19603f3d011682016040523d82523d6000602084013e611597565b606091505b50915091506115a78282866115b2565b979650505050505050565b606083156115c1575081611483565b8251156115d15782518084602001fd5b8160405162461bcd60e51b8152600401610276919061186b565b6001600160a01b038116811461160057600080fd5b50565b60008060006060848603121561161857600080fd5b8335611623816115eb565b925060208401359150604084013561163a816115eb565b809150509250925092565b600080600080600060a0868803121561165d57600080fd5b8535611668816115eb565b945060208601359350604086013592506060860135611686816115eb565b91506080860135611696816115eb565b809150509295509295909350565b6000602082840312156116b657600080fd5b5035919050565b6000602082840312156116cf57600080fd5b8135611483816115eb565b600080604083850312156116ed57600080fd5b82356116f8816115eb565b91506020830135611708816115eb565b809150509250929050565b60008060006060848603121561172857600080fd5b8335611733816115eb565b95602085013595506040909401359392505050565b6020808252601e908201527f496e76616c696420746f6b656e20636f6e747261637420616464726573730000604082015260600190565b60006020828403121561179157600080fd5b5051919050565b6000602082840312156117aa57600080fd5b8151801515811461148357600080fd5b6000828210156117da57634e487b7160e01b600052601160045260246000fd5b500390565b6000602082840312156117f157600080fd5b8151611483816115eb565b6020808252600d908201526c24b73b30b634b21037bbb732b960991b604082015260600190565b60005b8381101561183e578181015183820152602001611826565b838111156113995750506000910152565b60008251611861818460208701611823565b9190910192915050565b602081526000825180602084015261188a816040850160208701611823565b601f01601f1916919091016040019291505056fea264697066735822122049a1260c86f97c6d59c5ed2a56f5b3df9a56860346dbae0023f5978e77bc859164736f6c634300080c0033",
  "linkReferences": {},
  "deployedLinkReferences": {}
}