{
  "_format": "hh-sol-artifact-1",
  "contractName": "ERC721Template",
  "sourceName": "contracts/templates/ERC721Template.sol",
  "abi": [
    {
      "anonymous": false,
      "inputs": [
        {
          "indexed": true,
          "internalType": "address",
          "name": "user",
          "type": "address"
        },
        {
          "indexed": true,
          "internalType": "address",
          "name": "signer",
          "type": "address"
        },
        {
          "indexed": false,
          "internalType": "uint256",
          "name": "timestamp",
          "type": "uint256"
        },
        {
          "indexed": false,
          "internalType": "uint256",
          "name": "blockNumber",
          "type": "uint256"
        }
      ],
      "name": "AddedManager",
      "type": "event"
    },
    {
      "anonymous": false,
      "inputs": [
        {
          "indexed": true,
          "internalType": "address",
          "name": "user",
          "type": "address"
        },
        {
          "indexed": true,
          "internalType": "address",
          "name": "signer",
          "type": "address"
        },
        {
          "indexed": false,
          "internalType": "uint256",
          "name": "timestamp",
          "type": "uint256"
        },
        {
          "indexed": false,
          "internalType": "uint256",
          "name": "blockNumber",
          "type": "uint256"
        }
      ],
      "name": "AddedTo725StoreList",
      "type": "event"
    },
    {
      "anonymous": false,
      "inputs": [
        {
          "indexed": true,
          "internalType": "address",
          "name": "user",
          "type": "address"
        },
        {
          "indexed": true,
          "internalType": "address",
          "name": "signer",
          "type": "address"
        },
        {
          "indexed": false,
          "internalType": "uint256",
          "name": "timestamp",
          "type": "uint256"
        },
        {
          "indexed": false,
          "internalType": "uint256",
          "name": "blockNumber",
          "type": "uint256"
        }
      ],
      "name": "AddedToCreateERC20List",
      "type": "event"
    },
    {
      "anonymous": false,
      "inputs": [
        {
          "indexed": true,
          "internalType": "address",
          "name": "user",
          "type": "address"
        },
        {
          "indexed": true,
          "internalType": "address",
          "name": "signer",
          "type": "address"
        },
        {
          "indexed": false,
          "internalType": "uint256",
          "name": "timestamp",
          "type": "uint256"
        },
        {
          "indexed": false,
          "internalType": "uint256",
          "name": "blockNumber",
          "type": "uint256"
        }
      ],
      "name": "AddedToMetadataList",
      "type": "event"
    },
    {
      "anonymous": false,
      "inputs": [
        {
          "indexed": true,
          "internalType": "address",
          "name": "owner",
          "type": "address"
        },
        {
          "indexed": true,
          "internalType": "address",
          "name": "approved",
          "type": "address"
        },
        {
          "indexed": true,
          "internalType": "uint256",
          "name": "tokenId",
          "type": "uint256"
        }
      ],
      "name": "Approval",
      "type": "event"
    },
    {
      "anonymous": false,
      "inputs": [
        {
          "indexed": true,
          "internalType": "address",
          "name": "owner",
          "type": "address"
        },
        {
          "indexed": true,
          "internalType": "address",
          "name": "operator",
          "type": "address"
        },
        {
          "indexed": false,
          "internalType": "bool",
          "name": "approved",
          "type": "bool"
        }
      ],
      "name": "ApprovalForAll",
      "type": "event"
    },
    {
      "anonymous": false,
      "inputs": [
        {
          "indexed": true,
          "internalType": "address",
          "name": "signer",
          "type": "address"
        },
        {
          "indexed": false,
          "internalType": "uint256",
          "name": "timestamp",
          "type": "uint256"
        },
        {
          "indexed": false,
          "internalType": "uint256",
          "name": "blockNumber",
          "type": "uint256"
        }
      ],
      "name": "CleanedPermissions",
      "type": "event"
    },
    {
      "anonymous": false,
      "inputs": [
        {
          "indexed": true,
          "internalType": "address",
          "name": "contractAddress",
          "type": "address"
        }
      ],
      "name": "ContractCreated",
      "type": "event"
    },
    {
      "anonymous": false,
      "inputs": [
        {
          "indexed": true,
          "internalType": "bytes32",
          "name": "key",
          "type": "bytes32"
        },
        {
          "indexed": false,
          "internalType": "bytes",
          "name": "value",
          "type": "bytes"
        }
      ],
      "name": "DataChanged",
      "type": "event"
    },
    {
      "anonymous": false,
      "inputs": [
        {
          "indexed": true,
          "internalType": "uint256",
          "name": "_operation",
          "type": "uint256"
        },
        {
          "indexed": true,
          "internalType": "address",
          "name": "_to",
          "type": "address"
        },
        {
          "indexed": true,
          "internalType": "uint256",
          "name": "_value",
          "type": "uint256"
        },
        {
          "indexed": false,
          "internalType": "bytes",
          "name": "_data",
          "type": "bytes"
        }
      ],
      "name": "Executed",
      "type": "event"
    },
    {
      "anonymous": false,
      "inputs": [
        {
          "indexed": true,
          "internalType": "address",
          "name": "createdBy",
          "type": "address"
        },
        {
          "indexed": false,
          "internalType": "uint8",
          "name": "state",
          "type": "uint8"
        },
        {
          "indexed": false,
          "internalType": "string",
          "name": "decryptorUrl",
          "type": "string"
        },
        {
          "indexed": false,
          "internalType": "bytes",
          "name": "flags",
          "type": "bytes"
        },
        {
          "indexed": false,
          "internalType": "bytes",
          "name": "data",
          "type": "bytes"
        },
        {
          "indexed": false,
          "internalType": "bytes",
          "name": "metaDataHash",
          "type": "bytes"
        },
        {
          "indexed": false,
          "internalType": "uint256",
          "name": "timestamp",
          "type": "uint256"
        },
        {
          "indexed": false,
          "internalType": "uint256",
          "name": "blockNumber",
          "type": "uint256"
        }
      ],
      "name": "MetadataCreated",
      "type": "event"
    },
    {
      "anonymous": false,
      "inputs": [
        {
          "indexed": true,
          "internalType": "address",
          "name": "updatedBy",
          "type": "address"
        },
        {
          "indexed": false,
          "internalType": "uint8",
          "name": "state",
          "type": "uint8"
        },
        {
          "indexed": false,
          "internalType": "uint256",
          "name": "timestamp",
          "type": "uint256"
        },
        {
          "indexed": false,
          "internalType": "uint256",
          "name": "blockNumber",
          "type": "uint256"
        }
      ],
      "name": "MetadataState",
      "type": "event"
    },
    {
      "anonymous": false,
      "inputs": [
        {
          "indexed": true,
          "internalType": "address",
          "name": "updatedBy",
          "type": "address"
        },
        {
          "indexed": false,
          "internalType": "uint8",
          "name": "state",
          "type": "uint8"
        },
        {
          "indexed": false,
          "internalType": "string",
          "name": "decryptorUrl",
          "type": "string"
        },
        {
          "indexed": false,
          "internalType": "bytes",
          "name": "flags",
          "type": "bytes"
        },
        {
          "indexed": false,
          "internalType": "bytes",
          "name": "data",
          "type": "bytes"
        },
        {
          "indexed": false,
          "internalType": "bytes",
          "name": "metaDataHash",
          "type": "bytes"
        },
        {
          "indexed": false,
          "internalType": "uint256",
          "name": "timestamp",
          "type": "uint256"
        },
        {
          "indexed": false,
          "internalType": "uint256",
          "name": "blockNumber",
          "type": "uint256"
        }
      ],
      "name": "MetadataUpdated",
      "type": "event"
    },
    {
      "anonymous": false,
      "inputs": [
        {
          "indexed": true,
          "internalType": "address",
          "name": "user",
          "type": "address"
        },
        {
          "indexed": true,
          "internalType": "address",
          "name": "signer",
          "type": "address"
        },
        {
          "indexed": false,
          "internalType": "uint256",
          "name": "timestamp",
          "type": "uint256"
        },
        {
          "indexed": false,
          "internalType": "uint256",
          "name": "blockNumber",
          "type": "uint256"
        }
      ],
      "name": "RemovedFrom725StoreList",
      "type": "event"
    },
    {
      "anonymous": false,
      "inputs": [
        {
          "indexed": true,
          "internalType": "address",
          "name": "user",
          "type": "address"
        },
        {
          "indexed": true,
          "internalType": "address",
          "name": "signer",
          "type": "address"
        },
        {
          "indexed": false,
          "internalType": "uint256",
          "name": "timestamp",
          "type": "uint256"
        },
        {
          "indexed": false,
          "internalType": "uint256",
          "name": "blockNumber",
          "type": "uint256"
        }
      ],
      "name": "RemovedFromCreateERC20List",
      "type": "event"
    },
    {
      "anonymous": false,
      "inputs": [
        {
          "indexed": true,
          "internalType": "address",
          "name": "user",
          "type": "address"
        },
        {
          "indexed": true,
          "internalType": "address",
          "name": "signer",
          "type": "address"
        },
        {
          "indexed": false,
          "internalType": "uint256",
          "name": "timestamp",
          "type": "uint256"
        },
        {
          "indexed": false,
          "internalType": "uint256",
          "name": "blockNumber",
          "type": "uint256"
        }
      ],
      "name": "RemovedFromMetadataList",
      "type": "event"
    },
    {
      "anonymous": false,
      "inputs": [
        {
          "indexed": true,
          "internalType": "address",
          "name": "user",
          "type": "address"
        },
        {
          "indexed": true,
          "internalType": "address",
          "name": "signer",
          "type": "address"
        },
        {
          "indexed": false,
          "internalType": "uint256",
          "name": "timestamp",
          "type": "uint256"
        },
        {
          "indexed": false,
          "internalType": "uint256",
          "name": "blockNumber",
          "type": "uint256"
        }
      ],
      "name": "RemovedManager",
      "type": "event"
    },
    {
      "anonymous": false,
      "inputs": [
        {
          "indexed": true,
          "internalType": "address",
          "name": "newTokenAddress",
          "type": "address"
        },
        {
          "indexed": true,
          "internalType": "address",
          "name": "templateAddress",
          "type": "address"
        },
        {
          "indexed": false,
          "internalType": "string",
          "name": "name",
          "type": "string"
        },
        {
          "indexed": false,
          "internalType": "string",
          "name": "symbol",
          "type": "string"
        },
        {
          "indexed": false,
          "internalType": "uint256",
          "name": "cap",
          "type": "uint256"
        },
        {
          "indexed": false,
          "internalType": "address",
          "name": "creator",
          "type": "address"
        }
      ],
      "name": "TokenCreated",
      "type": "event"
    },
    {
      "anonymous": false,
      "inputs": [
        {
          "indexed": true,
          "internalType": "address",
          "name": "updatedBy",
          "type": "address"
        },
        {
          "indexed": false,
          "internalType": "string",
          "name": "tokenURI",
          "type": "string"
        },
        {
          "indexed": false,
          "internalType": "uint256",
          "name": "tokenID",
          "type": "uint256"
        },
        {
          "indexed": false,
          "internalType": "uint256",
          "name": "timestamp",
          "type": "uint256"
        },
        {
          "indexed": false,
          "internalType": "uint256",
          "name": "blockNumber",
          "type": "uint256"
        }
      ],
      "name": "TokenURIUpdate",
      "type": "event"
    },
    {
      "anonymous": false,
      "inputs": [
        {
          "indexed": true,
          "internalType": "address",
          "name": "from",
          "type": "address"
        },
        {
          "indexed": true,
          "internalType": "address",
          "name": "to",
          "type": "address"
        },
        {
          "indexed": true,
          "internalType": "uint256",
          "name": "tokenId",
          "type": "uint256"
        }
      ],
      "name": "Transfer",
      "type": "event"
    },
    {
      "stateMutability": "payable",
      "type": "fallback"
    },
    {
      "inputs": [
        {
          "internalType": "address",
          "name": "_managerAddress",
          "type": "address"
        }
      ],
      "name": "addManager",
      "outputs": [],
      "stateMutability": "nonpayable",
      "type": "function"
    },
    {
      "inputs": [
        {
          "internalType": "address",
          "name": "_allowedAddress",
          "type": "address"
        }
      ],
      "name": "addTo725StoreList",
      "outputs": [],
      "stateMutability": "nonpayable",
      "type": "function"
    },
    {
      "inputs": [
        {
          "internalType": "address",
          "name": "_allowedAddress",
          "type": "address"
        }
      ],
      "name": "addToCreateERC20List",
      "outputs": [],
      "stateMutability": "nonpayable",
      "type": "function"
    },
    {
      "inputs": [
        {
          "internalType": "address",
          "name": "_allowedAddress",
          "type": "address"
        }
      ],
      "name": "addToMetadataList",
      "outputs": [],
      "stateMutability": "nonpayable",
      "type": "function"
    },
    {
      "inputs": [
        {
          "internalType": "address",
          "name": "to",
          "type": "address"
        },
        {
          "internalType": "uint256",
          "name": "tokenId",
          "type": "uint256"
        }
      ],
      "name": "approve",
      "outputs": [],
      "stateMutability": "nonpayable",
      "type": "function"
    },
    {
      "inputs": [
        {
          "internalType": "uint256",
          "name": "",
          "type": "uint256"
        }
      ],
      "name": "auth",
      "outputs": [
        {
          "internalType": "address",
          "name": "",
          "type": "address"
        }
      ],
      "stateMutability": "view",
      "type": "function"
    },
    {
      "inputs": [
        {
          "internalType": "address",
          "name": "owner",
          "type": "address"
        }
      ],
      "name": "balanceOf",
      "outputs": [
        {
          "internalType": "uint256",
          "name": "",
          "type": "uint256"
        }
      ],
      "stateMutability": "view",
      "type": "function"
    },
    {
      "inputs": [],
      "name": "cleanPermissions",
      "outputs": [],
      "stateMutability": "nonpayable",
      "type": "function"
    },
    {
      "inputs": [
        {
          "internalType": "uint256",
          "name": "_templateIndex",
          "type": "uint256"
        },
        {
          "internalType": "string[]",
          "name": "strings",
          "type": "string[]"
        },
        {
          "internalType": "address[]",
          "name": "addresses",
          "type": "address[]"
        },
        {
          "internalType": "uint256[]",
          "name": "uints",
          "type": "uint256[]"
        },
        {
          "internalType": "bytes[]",
          "name": "bytess",
          "type": "bytes[]"
        }
      ],
      "name": "createERC20",
      "outputs": [
        {
          "internalType": "address",
          "name": "",
          "type": "address"
        }
      ],
      "stateMutability": "nonpayable",
      "type": "function"
    },
    {
      "inputs": [
        {
          "internalType": "uint256",
          "name": "_operation",
          "type": "uint256"
        },
        {
          "internalType": "address",
          "name": "_to",
          "type": "address"
        },
        {
          "internalType": "uint256",
          "name": "_value",
          "type": "uint256"
        },
        {
          "internalType": "bytes",
          "name": "_data",
          "type": "bytes"
        }
      ],
      "name": "executeCall",
      "outputs": [],
      "stateMutability": "payable",
      "type": "function"
    },
    {
      "inputs": [
        {
          "internalType": "uint256",
          "name": "tokenId",
          "type": "uint256"
        }
      ],
      "name": "getApproved",
      "outputs": [
        {
          "internalType": "address",
          "name": "",
          "type": "address"
        }
      ],
      "stateMutability": "view",
      "type": "function"
    },
    {
      "inputs": [
        {
          "internalType": "bytes32",
          "name": "_key",
          "type": "bytes32"
        }
      ],
      "name": "getData",
      "outputs": [
        {
          "internalType": "bytes",
          "name": "_value",
          "type": "bytes"
        }
      ],
      "stateMutability": "view",
      "type": "function"
    },
    {
      "inputs": [],
      "name": "getId",
      "outputs": [
        {
          "internalType": "uint8",
          "name": "",
          "type": "uint8"
        }
      ],
      "stateMutability": "pure",
      "type": "function"
    },
    {
      "inputs": [],
      "name": "getMetaData",
      "outputs": [
        {
          "internalType": "string",
          "name": "",
          "type": "string"
        },
        {
          "internalType": "string",
          "name": "",
          "type": "string"
        },
        {
          "internalType": "uint8",
          "name": "",
          "type": "uint8"
        },
        {
          "internalType": "bool",
          "name": "",
          "type": "bool"
        }
      ],
      "stateMutability": "view",
      "type": "function"
    },
    {
      "inputs": [
        {
          "internalType": "address",
          "name": "user",
          "type": "address"
        }
      ],
      "name": "getPermissions",
      "outputs": [
        {
          "components": [
            {
              "internalType": "bool",
              "name": "manager",
              "type": "bool"
            },
            {
              "internalType": "bool",
              "name": "deployERC20",
              "type": "bool"
            },
            {
              "internalType": "bool",
              "name": "updateMetadata",
              "type": "bool"
            },
            {
              "internalType": "bool",
              "name": "store",
              "type": "bool"
            }
          ],
          "internalType": "struct ERC721RolesAddress.Roles",
          "name": "",
          "type": "tuple"
        }
      ],
      "stateMutability": "view",
      "type": "function"
    },
    {
      "inputs": [],
      "name": "getTokensList",
      "outputs": [
        {
          "internalType": "address[]",
          "name": "",
          "type": "address[]"
        }
      ],
      "stateMutability": "view",
      "type": "function"
    },
    {
      "inputs": [],
      "name": "hasMetaData",
      "outputs": [
        {
          "internalType": "bool",
          "name": "",
          "type": "bool"
        }
      ],
      "stateMutability": "view",
      "type": "function"
    },
    {
      "inputs": [
        {
          "internalType": "address",
          "name": "owner",
          "type": "address"
        },
        {
          "internalType": "string",
          "name": "name_",
          "type": "string"
        },
        {
          "internalType": "string",
          "name": "symbol_",
          "type": "string"
        },
        {
          "internalType": "address",
          "name": "tokenFactory",
          "type": "address"
        },
        {
          "internalType": "address",
          "name": "additionalERC20Deployer",
          "type": "address"
        },
        {
          "internalType": "string",
          "name": "tokenURI",
          "type": "string"
        }
      ],
      "name": "initialize",
      "outputs": [
        {
          "internalType": "bool",
          "name": "",
          "type": "bool"
        }
      ],
      "stateMutability": "nonpayable",
      "type": "function"
    },
    {
      "inputs": [
        {
          "internalType": "address",
          "name": "owner",
          "type": "address"
        },
        {
          "internalType": "address",
          "name": "operator",
          "type": "address"
        }
      ],
      "name": "isApprovedForAll",
      "outputs": [
        {
          "internalType": "bool",
          "name": "",
          "type": "bool"
        }
      ],
      "stateMutability": "view",
      "type": "function"
    },
    {
      "inputs": [
        {
          "internalType": "address",
          "name": "datatoken",
          "type": "address"
        }
      ],
      "name": "isDeployed",
      "outputs": [
        {
          "internalType": "bool",
          "name": "",
          "type": "bool"
        }
      ],
      "stateMutability": "view",
      "type": "function"
    },
    {
      "inputs": [
        {
          "internalType": "address",
          "name": "account",
          "type": "address"
        }
      ],
      "name": "isERC20Deployer",
      "outputs": [
        {
          "internalType": "bool",
          "name": "",
          "type": "bool"
        }
      ],
      "stateMutability": "view",
      "type": "function"
    },
    {
      "inputs": [],
      "name": "isInitialized",
      "outputs": [
        {
          "internalType": "bool",
          "name": "",
          "type": "bool"
        }
      ],
      "stateMutability": "view",
      "type": "function"
    },
    {
      "inputs": [],
      "name": "metaDataDecryptorAddress",
      "outputs": [
        {
          "internalType": "string",
          "name": "",
          "type": "string"
        }
      ],
      "stateMutability": "view",
      "type": "function"
    },
    {
      "inputs": [],
      "name": "metaDataDecryptorUrl",
      "outputs": [
        {
          "internalType": "string",
          "name": "",
          "type": "string"
        }
      ],
      "stateMutability": "view",
      "type": "function"
    },
    {
      "inputs": [],
      "name": "metaDataState",
      "outputs": [
        {
          "internalType": "uint8",
          "name": "",
          "type": "uint8"
        }
      ],
      "stateMutability": "view",
      "type": "function"
    },
    {
      "inputs": [],
      "name": "name",
      "outputs": [
        {
          "internalType": "string",
          "name": "",
          "type": "string"
        }
      ],
      "stateMutability": "view",
      "type": "function"
    },
    {
      "inputs": [
        {
          "internalType": "uint256",
          "name": "tokenId",
          "type": "uint256"
        }
      ],
      "name": "ownerOf",
      "outputs": [
        {
          "internalType": "address",
          "name": "",
          "type": "address"
        }
      ],
      "stateMutability": "view",
      "type": "function"
    },
    {
      "inputs": [
        {
          "internalType": "address",
          "name": "_allowedAddress",
          "type": "address"
        }
      ],
      "name": "removeFrom725StoreList",
      "outputs": [],
      "stateMutability": "nonpayable",
      "type": "function"
    },
    {
      "inputs": [
        {
          "internalType": "address",
          "name": "_allowedAddress",
          "type": "address"
        }
      ],
      "name": "removeFromCreateERC20List",
      "outputs": [],
      "stateMutability": "nonpayable",
      "type": "function"
    },
    {
      "inputs": [
        {
          "internalType": "address",
          "name": "_allowedAddress",
          "type": "address"
        }
      ],
      "name": "removeFromMetadataList",
      "outputs": [],
      "stateMutability": "nonpayable",
      "type": "function"
    },
    {
      "inputs": [
        {
          "internalType": "address",
          "name": "_managerAddress",
          "type": "address"
        }
      ],
      "name": "removeManager",
      "outputs": [],
      "stateMutability": "nonpayable",
      "type": "function"
    },
    {
      "inputs": [
        {
          "internalType": "address",
          "name": "from",
          "type": "address"
        },
        {
          "internalType": "address",
          "name": "to",
          "type": "address"
        },
        {
          "internalType": "uint256",
          "name": "tokenId",
          "type": "uint256"
        }
      ],
      "name": "safeTransferFrom",
      "outputs": [],
      "stateMutability": "nonpayable",
      "type": "function"
    },
    {
      "inputs": [
        {
          "internalType": "address",
          "name": "operator",
          "type": "address"
        },
        {
          "internalType": "bool",
          "name": "approved",
          "type": "bool"
        }
      ],
      "name": "setApprovalForAll",
      "outputs": [],
      "stateMutability": "nonpayable",
      "type": "function"
    },
    {
      "inputs": [
        {
          "internalType": "string",
          "name": "_baseURI",
          "type": "string"
        }
      ],
      "name": "setBaseURI",
      "outputs": [],
      "stateMutability": "nonpayable",
      "type": "function"
    },
    {
      "inputs": [
        {
          "internalType": "bytes32",
          "name": "_key",
          "type": "bytes32"
        },
        {
          "internalType": "bytes",
          "name": "_value",
          "type": "bytes"
        }
      ],
      "name": "setDataERC20",
      "outputs": [],
      "stateMutability": "nonpayable",
      "type": "function"
    },
    {
      "inputs": [
        {
          "internalType": "uint8",
          "name": "_metaDataState",
          "type": "uint8"
        },
        {
          "internalType": "string",
          "name": "_metaDataDecryptorUrl",
          "type": "string"
        },
        {
          "internalType": "string",
          "name": "_metaDataDecryptorAddress",
          "type": "string"
        },
        {
          "internalType": "bytes",
          "name": "flags",
          "type": "bytes"
        },
        {
          "internalType": "bytes",
          "name": "data",
          "type": "bytes"
        },
        {
          "internalType": "bytes",
          "name": "_metaDataHash",
          "type": "bytes"
        }
      ],
      "name": "setMetaData",
      "outputs": [],
      "stateMutability": "nonpayable",
      "type": "function"
    },
    {
      "inputs": [
        {
          "internalType": "uint8",
          "name": "_metaDataState",
          "type": "uint8"
        }
      ],
      "name": "setMetaDataState",
      "outputs": [],
      "stateMutability": "nonpayable",
      "type": "function"
    },
    {
      "inputs": [
        {
          "internalType": "bytes32",
          "name": "_key",
          "type": "bytes32"
        },
        {
          "internalType": "bytes",
          "name": "_value",
          "type": "bytes"
        }
      ],
      "name": "setNewData",
      "outputs": [],
      "stateMutability": "nonpayable",
      "type": "function"
    },
    {
      "inputs": [
        {
          "internalType": "uint256",
          "name": "tokenId",
          "type": "uint256"
        },
        {
          "internalType": "string",
          "name": "tokenURI",
          "type": "string"
        }
      ],
      "name": "setTokenURI",
      "outputs": [],
      "stateMutability": "nonpayable",
      "type": "function"
    },
    {
      "inputs": [],
      "name": "ssContract",
      "outputs": [
        {
          "internalType": "address",
          "name": "",
          "type": "address"
        }
      ],
      "stateMutability": "view",
      "type": "function"
    },
    {
      "inputs": [
        {
          "internalType": "bytes4",
          "name": "interfaceId",
          "type": "bytes4"
        }
      ],
      "name": "supportsInterface",
      "outputs": [
        {
          "internalType": "bool",
          "name": "",
          "type": "bool"
        }
      ],
      "stateMutability": "view",
      "type": "function"
    },
    {
      "inputs": [],
      "name": "symbol",
      "outputs": [
        {
          "internalType": "string",
          "name": "",
          "type": "string"
        }
      ],
      "stateMutability": "view",
      "type": "function"
    },
    {
      "inputs": [
        {
          "internalType": "uint256",
          "name": "tokenId",
          "type": "uint256"
        }
      ],
      "name": "tokenURI",
      "outputs": [
        {
          "internalType": "string",
          "name": "",
          "type": "string"
        }
      ],
      "stateMutability": "view",
      "type": "function"
    },
    {
      "inputs": [
        {
          "internalType": "address",
          "name": "from",
          "type": "address"
        },
        {
          "internalType": "address",
          "name": "to",
          "type": "address"
        },
        {
          "internalType": "uint256",
          "name": "tokenId",
          "type": "uint256"
        }
      ],
      "name": "transferFrom",
      "outputs": [],
      "stateMutability": "nonpayable",
      "type": "function"
    },
    {
      "inputs": [],
      "name": "withdrawETH",
      "outputs": [],
      "stateMutability": "payable",
      "type": "function"
    }
  ],
  "bytecode": "0x60806040523480156200001157600080fd5b50604080518082018252600881526754656d706c61746560c01b60208083019182528351808501909452600e84526d15195b5c1b185d1954de5b589bdb60921b908401528151919291620000689160009162000136565b5080516200007e90600190602084019062000136565b50620000959150632260147f60e11b9050620000b2565b620000a7632bd57b7360e01b620000b2565b6001600c5562000219565b6001600160e01b03198082161415620001115760405162461bcd60e51b815260206004820152601c60248201527f4552433136353a20696e76616c696420696e7465726661636520696400000000604482015260640160405180910390fd5b6001600160e01b0319166000908152600a60205260409020805460ff19166001179055565b8280546200014490620001dc565b90600052602060002090601f016020900481019282620001685760008555620001b3565b82601f106200018357805160ff1916838001178555620001b3565b82800160010185558215620001b3579182015b82811115620001b357825182559160200191906001019062000196565b50620001c1929150620001c5565b5090565b5b80821115620001c15760008155600101620001c6565b600181811c90821680620001f157607f821691505b602082108114156200021357634e487b7160e01b600052602260045260246000fd5b50919050565b613fb880620002296000396000f3fe60806040526004361061025d5760003560e01c806355f804b311610143578063a22cb465116100bb578063d2786ba411610077578063d2786ba41461082d578063d8053ad314610852578063e086e5ec14610871578063e38d7cad14610879578063e985e9c514610899578063fe1ec880146108e257005b8063a22cb46514610780578063ac18de43146107a0578063b0c41ead146107c0578063c55f8126146107e0578063c87b56dd146107f3578063ccd7d4761461081357005b806370a082311161010a57806370a082311461069157806370c166d7146106bf57806382cf129d146106df57806390184b02146106f457806395d89b411461072d57806396fb3eaf1461074257005b806355f804b3146105ef5780635d1ca6311461060f5780635d5dea24146106315780636352211e1461065157806367530a611461067157005b8063273e06b3116101d6578063466bca021161019d578063466bca0214610538578063467c97f51461055a5780634a63740a1461057a5780634b2ee5e91461059a5780634f189cb2146105ba57806354f6127f146105cf57005b8063273e06b3146104a05780632d06177a146104c0578063392e53cd146104e057806342842e0e146104f8578063431053ac1461051857005b80630e57c7e8116102255780630e57c7e81461032357806310c558bf14610343578063160a792514610363578063162094c41461044057806319c186e51461046057806323b872dd1461048057005b806301ffc9a71461025f57806306fdde0314610294578063081812fc146102b6578063095ea7b3146102ee5780630e05662e1461030e575b005b34801561026b57600080fd5b5061027f61027a36600461323e565b610902565b60405190151581526020015b60405180910390f35b3480156102a057600080fd5b506102a9610942565b60405161028b91906132ba565b3480156102c257600080fd5b506102d66102d13660046132cd565b6109d4565b6040516001600160a01b03909116815260200161028b565b3480156102fa57600080fd5b5061025d6103093660046132fb565b610a6e565b34801561031a57600080fd5b506102a9610b84565b34801561032f57600080fd5b5061025d61033e366004613370565b610c12565b34801561034f57600080fd5b5061025d61035e3660046133bc565b610c87565b34801561036f57600080fd5b5061040561037e3660046133bc565b604080516080810182526000808252602082018190529181018290526060810191909152506001600160a01b03166000908152600860209081526040918290208251608081018452905460ff808216151583526101008204811615159383019390935262010000810483161515938201939093526301000000909204161515606082015290565b60405161028b919081511515815260208083015115159082015260408083015115159082015260609182015115159181019190915260800190565b34801561044c57600080fd5b5061025d61045b36600461347c565b610d5a565b34801561046c57600080fd5b5061025d61047b3660046133bc565b610de9565b34801561048c57600080fd5b5061025d61049b3660046134c3565b610eb2565b3480156104ac57600080fd5b5061025d6104bb3660046133bc565b610f84565b3480156104cc57600080fd5b5061025d6104db3660046133bc565b6110bd565b3480156104ec57600080fd5b50600f5460ff1661027f565b34801561050457600080fd5b5061025d6105133660046134c3565b611100565b34801561052457600080fd5b5061025d6105333660046133bc565b6111a6565b34801561054457600080fd5b5061054d6112db565b60405161028b9190613504565b34801561056657600080fd5b5061025d610575366004613567565b61133c565b34801561058657600080fd5b5061025d6105953660046133bc565b6113c7565b3480156105a657600080fd5b506014546102d6906001600160a01b031681565b3480156105c657600080fd5b5061025d61148c565b3480156105db57600080fd5b506102a96105ea3660046132cd565b6114d0565b3480156105fb57600080fd5b5061025d61060a366004613582565b611572565b34801561061b57600080fd5b5060015b60405160ff909116815260200161028b565b34801561063d57600080fd5b5061025d61064c3660046135b7565b6115c3565b34801561065d57600080fd5b506102d661066c3660046132cd565b6116fa565b34801561067d57600080fd5b5061025d61068c366004613370565b611771565b34801561069d57600080fd5b506106b16106ac3660046133bc565b6117e1565b60405190815260200161028b565b3480156106cb57600080fd5b5061027f6106da3660046136be565b611868565b3480156106eb57600080fd5b506102a9611985565b34801561070057600080fd5b5061027f61070f3660046133bc565b6001600160a01b031660009081526015602052604090205460ff1690565b34801561073957600080fd5b506102a9611992565b34801561074e57600080fd5b5061027f61075d3660046133bc565b6001600160a01b0316600090815260086020526040902054610100900460ff1690565b34801561078c57600080fd5b5061025d61079b36600461378d565b6119a1565b3480156107ac57600080fd5b5061025d6107bb3660046133bc565b611a5f565b3480156107cc57600080fd5b506102d66107db3660046132cd565b611aa2565b61025d6107ee3660046137cb565b611acc565b3480156107ff57600080fd5b506102a961080e3660046132cd565b611b14565b34801561081f57600080fd5b5060125461061f9060ff1681565b34801561083957600080fd5b50610842611c72565b60405161028b9493929190613835565b34801561085e57600080fd5b50600f5461027f90610100900460ff1681565b61025d611dc2565b34801561088557600080fd5b506102d66108943660046138bb565b611e04565b3480156108a557600080fd5b5061027f6108b436600461398b565b6001600160a01b03918216600090815260066020908152604080832093909416825291909152205460ff1690565b3480156108ee57600080fd5b5061025d6108fd3660046133bc565b611fd4565b60006301ffc9a760e01b6001600160e01b03198316148061093c57506001600160e01b031982166000908152600a602052604090205460ff165b92915050565b6060600d8054610951906139b9565b80601f016020809104026020016040519081016040528092919081815260200182805461097d906139b9565b80156109ca5780601f1061099f576101008083540402835291602001916109ca565b820191906000526020600020905b8154815290600101906020018083116109ad57829003601f168201915b5050505050905090565b6000818152600360205260408120546001600160a01b0316610a525760405162461bcd60e51b815260206004820152602c60248201527f4552433732313a20617070726f76656420717565727920666f72206e6f6e657860448201526b34b9ba32b73a103a37b5b2b760a11b60648201526084015b60405180910390fd5b506000908152600560205260409020546001600160a01b031690565b6000610a79826116fa565b9050806001600160a01b0316836001600160a01b03161415610ae75760405162461bcd60e51b815260206004820152602160248201527f4552433732313a20617070726f76616c20746f2063757272656e74206f776e656044820152603960f91b6064820152608401610a49565b336001600160a01b0382161480610b035750610b0381336108b4565b610b755760405162461bcd60e51b815260206004820152603860248201527f4552433732313a20617070726f76652063616c6c6572206973206e6f74206f7760448201527f6e6572206e6f7220617070726f76656420666f7220616c6c00000000000000006064820152608401610a49565b610b7f8383612104565b505050565b60118054610b91906139b9565b80601f0160208091040260200160405190810160405280929190818152602001828054610bbd906139b9565b8015610c0a5780601f10610bdf57610100808354040283529160200191610c0a565b820191906000526020600020905b815481529060010190602001808311610bed57829003601f168201915b505050505081565b3360009081526015602052604090205460ff16610c7c5760405162461bcd60e51b815260206004820152602260248201527f45524337323154656d706c6174653a204e4f5420455243323020436f6e74726160448201526118dd60f21b6064820152608401610a49565b610b7f838383612172565b3360009081526008602052604090205460ff161515600114610cbb5760405162461bcd60e51b8152600401610a49906139f4565b6001600160a01b038116600081815260086020526040808220805462ff0000191662010000178155600980546001810182559352600080516020613f6383398151915290920180546001600160a01b0319168417905551909133917fc2a42571a74ce1442c8c44d375ba9442e7d55d94b37afeace261c83c62128fa490610d4e9042904390918252602082015260400190565b60405180910390a35050565b610d6460016116fa565b6001600160a01b0316336001600160a01b031614610d945760405162461bcd60e51b8152600401610a4990613a2b565b610d9e82826121cb565b336001600160a01b03167f6de6cd3982065cbd31e789e3109106f4d76d1c8a46e85262045cf947fb3fd4ed82844243604051610ddd9493929190613a62565b60405180910390a25050565b3360009081526008602052604090205460ff161515600114610e1d5760405162461bcd60e51b8152600401610a49906139f4565b6001600160a01b038116600081815260086020526040808220805463ff00000019166301000000178155600980546001810182559352600080516020613f6383398151915290920180546001600160a01b0319168417905551909133917feb09276310ed110a7e565d64966d0ff68a47112d2dd5eeb6cbd7451836ce35ee90610d4e9042904390918252602082015260400190565b80600114610ed25760405162461bcd60e51b8152600401610a4990613a91565b610f3c610f376013805480602002602001604051908101604052809291908181526020018280548015610f2e57602002820191906000526020600020905b81546001600160a01b03168152600190910190602001808311610f10575b50505050505190565b612265565b610f446122f6565b610f4f8383836123a7565b610f58826123e8565b506001600160a01b03166000908152600860205260409020805463ffffff001916630101010017905550565b3360009081526008602052604090205460ff16151560011480610fd55750336001600160a01b038216148015610fd55750336000908152600860205260409020546301000000900460ff1615156001145b1561103d576001600160a01b03811660008181526008602052604090819020805463ff000000191681559051909133917fc929b18b08ffea86a1f95e29384dbe8968f2fcbd70cfd735df3aba1cc548cbf390610d4e9042904390918252602082015260400190565b60405162461bcd60e51b815260206004820152604660248201527f455243373231526f6c6573416464726573733a204e6f7420656e6f756768207060448201527f65726d697373696f6e7320746f2072656d6f76652066726f6d2037323553746f6064820152651c99531a5cdd60d21b608482015260a401610a49565b50565b6110c760016116fa565b6001600160a01b0316336001600160a01b0316146110f75760405162461bcd60e51b8152600401610a4990613a2b565b6110ba816123e8565b806001146111205760405162461bcd60e51b8152600401610a4990613a91565b611183610f376013805480602002602001604051908101604052809291908181526020018280548015610f2e576020028201919060005260206000209081546001600160a01b03168152600190910190602001808311610f105750505050505190565b61118b6122f6565b610f4f83838360405180602001604052806000815250612479565b3360009081526008602052604090205460ff161515600114806111f65750336001600160a01b0382161480156111f657503360009081526008602052604090205462010000900460ff1615156001145b1561125d576001600160a01b03811660008181526008602052604090819020805462ff0000191681559051909133917f9b41e1311fa819e825bc77fa2568492112e15ea92d173f3f8ee1c8ec3c1c562b90610d4e9042904390918252602082015260400190565b60405162461bcd60e51b815260206004820152604760248201527f455243373231526f6c6573416464726573733a204e6f7420656e6f756768207060448201527f65726d697373696f6e7320746f2072656d6f76652066726f6d206d65746164616064820152661d18481b1a5cdd60ca1b608482015260a401610a49565b606060138054806020026020016040519081016040528092919081815260200182805480156109ca57602002820191906000526020600020905b81546001600160a01b03168152600190910190602001808311611315575050505050905090565b3360009081526008602052604090205462010000900460ff166113715760405162461bcd60e51b8152600401610a4990613add565b6012805460ff191660ff831690811790915560408051918252426020830152439082015233907fa8336411cc72db0e5bdc4dff989eeb35879bafaceffb59b54b37645c3395adb99060600160405180910390a250565b3360009081526008602052604090205460ff1615156001146113fb5760405162461bcd60e51b8152600401610a49906139f4565b6001600160a01b038116600081815260086020526040808220805461ff001916610100178155600980546001810182559352600080516020613f6383398151915290920180546001600160a01b0319168417905551909133917f0572d56343be407a66810f01449212e8545e14ff5049c479d34be944cdfd0d4f90610d4e9042904390918252602082015260400190565b61149660016116fa565b6001600160a01b0316336001600160a01b0316146114c65760405162461bcd60e51b8152600401610a4990613a2b565b6114ce6122f6565b565b6000818152600b602052604090208054606091906114ed906139b9565b80601f0160208091040260200160405190810160405280929190818152602001828054611519906139b9565b80156115665780601f1061153b57610100808354040283529160200191611566565b820191906000526020600020905b81548152906001019060200180831161154957829003601f168201915b50505050509050919050565b61157c60016116fa565b6001600160a01b0316336001600160a01b0316146115ac5760405162461bcd60e51b8152600401610a4990613a2b565b80516115bf906002906020840190613101565b5050565b3360009081526008602052604090205462010000900460ff166115f85760405162461bcd60e51b8152600401610a4990613add565b6012805460ff191660ff8d1617905561161360108b8b613185565b5061162060118989613185565b50600f54610100900460ff1661169957336001600160a01b03167fa6105ba66a6e1cdef460b79cd6a2d14f58d1e224f5bb876fafc51535c34ab6848c8c8c8a8a8a8a8a8a424360405161167d9b9a99989796959493929190613b47565b60405180910390a2600f805461ff0019166101001790556116ed565b60125460405133917f4248722dac0ab49fef08643fbc510e0343175ae223ca5cc5420e118e46da7198916116e49160ff16908e908e908c908c908c908c908c908c9042904390613b47565b60405180910390a25b5050505050505050505050565b6000818152600360205260408120546001600160a01b03168061093c5760405162461bcd60e51b815260206004820152602960248201527f4552433732313a206f776e657220717565727920666f72206e6f6e657869737460448201526832b73a103a37b5b2b760b91b6064820152608401610a49565b336000908152600860205260409020546301000000900460ff16610c7c5760405162461bcd60e51b815260206004820152602160248201527f45524337323154656d706c6174653a204e4f542053544f5245205550444154456044820152602960f91b6064820152608401610a49565b60006001600160a01b03821661184c5760405162461bcd60e51b815260206004820152602a60248201527f4552433732313a2062616c616e636520717565727920666f7220746865207a65604482015269726f206164647265737360b01b6064820152608401610a49565b506001600160a01b031660009081526004602052604090205490565b600f5460009060ff16156118d95760405162461bcd60e51b815260206004820152603260248201527f45524337323154656d706c6174653a20746f6b656e20696e7374616e636520616044820152711b1c9958591e481a5b9a5d1a585b1a5e995960721b6064820152608401610a49565b60006119538a8a8a8080601f01602080910402602001604051908101604052809392919081815260200183838082843760009201919091525050604080516020601f8e018190048102820181019092528c815292508c91508b90819084018382808284376000920191909152508b92508991506124b19050565b905080801561196a57506001600160a01b03841615155b1561197857611978846113fb565b9998505050505050505050565b60108054610b91906139b9565b6060600e8054610951906139b9565b6001600160a01b0382163314156119fa5760405162461bcd60e51b815260206004820152601960248201527f4552433732313a20617070726f766520746f2063616c6c6572000000000000006044820152606401610a49565b3360008181526006602090815260408083206001600160a01b03871680855290835292819020805460ff191686151590811790915590519081529192917f17307eab39ab6107e8899845ad3d59bd9653f200f220920489ca2b5937696c319101610d4e565b611a6960016116fa565b6001600160a01b0316336001600160a01b031614611a995760405162461bcd60e51b8152600401610a4990613a2b565b6110ba816125f1565b60098181548110611ab257600080fd5b6000918252602090912001546001600160a01b0316905081565b3360009081526008602052604090205460ff161515600114611b005760405162461bcd60e51b8152600401610a49906139f4565b611b0d8585858585612651565b5050505050565b6000818152600360205260409020546060906001600160a01b0316611b935760405162461bcd60e51b815260206004820152602f60248201527f4552433732314d657461646174613a2055524920717565727920666f72206e6f60448201526e3732bc34b9ba32b73a103a37b5b2b760891b6064820152608401610a49565b60008281526007602052604081208054611bac906139b9565b80601f0160208091040260200160405190810160405280929190818152602001828054611bd8906139b9565b8015611c255780601f10611bfa57610100808354040283529160200191611c25565b820191906000526020600020905b815481529060010190602001808311611c0857829003601f168201915b505050505090506000611c3661287a565b825190915015611c6b578082604051602001611c53929190613bbc565b60405160208183030381529060405292505050919050565b5092915050565b60608060008060106011601260009054906101000a900460ff16600f60019054906101000a900460ff16838054611ca8906139b9565b80601f0160208091040260200160405190810160405280929190818152602001828054611cd4906139b9565b8015611d215780601f10611cf657610100808354040283529160200191611d21565b820191906000526020600020905b815481529060010190602001808311611d0457829003601f168201915b50505050509350828054611d34906139b9565b80601f0160208091040260200160405190810160405280929190818152602001828054611d60906139b9565b8015611dad5780601f10611d8257610100808354040283529160200191611dad565b820191906000526020600020905b815481529060010190602001808311611d9057829003601f168201915b50505050509250935093509350935090919293565b611dcc60016116fa565b6001600160a01b03166108fc479081150290604051600060405180830381858888f193505050501580156110ba573d6000803e3d6000fd5b60006002600c541415611e595760405162461bcd60e51b815260206004820152601f60248201527f5265656e7472616e637947756172643a207265656e7472616e742063616c6c006044820152606401610a49565b6002600c5533600090815260086020526040902054610100900460ff16611ed15760405162461bcd60e51b815260206004820152602660248201527f45524337323154656d706c6174653a204e4f542045524332304445504c4f5945604482015265525f524f4c4560d01b6064820152608401610a49565b601254604051630557fcfb60e41b815260009161010090046001600160a01b03169063557fcfb090611f17908e908e908e908e908e908e908e908e908e90600401613d0d565b6020604051808303816000875af1158015611f36573d6000803e3d6000fd5b505050506040513d601f19601f82011682018060405250810190611f5a9190613dbe565b6001600160a01b0381166000818152601560205260408120805460ff191660019081179091556013805491820181559091527f66de8ffda797e3de9c05e8fc57b3bf0ec28a930d40b0d285d93c06501cf6a0900180546001600160a01b03191690911790559150506001600c559998505050505050505050565b3360009081526008602052604090205460ff161515600114806120245750336001600160a01b03821614801561202457503360009081526008602052604090205460ff6101009091041615156001145b1561208a576001600160a01b03811660008181526008602052604090819020805461ff00191681559051909133917f59bd33f4c27cc16a2d74450e1fa43d7896020be9aecea4bee009db9294de899790610d4e9042904390918252602082015260400190565b60405162461bcd60e51b815260206004820152604360248201527f455243373231526f6c6573416464726573733a204e6f7420656e6f756768207060448201527f65726d697373696f6e7320746f2072656d6f76652066726f6d2045524332304c6064820152621a5cdd60ea1b608482015260a401610a49565b600081815260056020526040902080546001600160a01b0319166001600160a01b0384169081179091558190612139826116fa565b6001600160a01b03167f8c5be1e5ebec7d5bd14f71427d1e84f3dd0314c0f7b2291e5b200ac8c7c3b92560405160405180910390a45050565b6000838152600b6020526040902061218b908383613185565b50827fece574603820d07bc9b91f2a932baadf4628aabcb8afba49776529c14a6104b283836040516121be929190613ddb565b60405180910390a2505050565b6000828152600360205260409020546001600160a01b03166122465760405162461bcd60e51b815260206004820152602e60248201527f45524337323155524953746f726167653a2055524920736574206f66206e6f6e60448201526d32bc34b9ba32b73a103a37b5b2b760911b6064820152608401610a49565b60008281526007602090815260409091208251610b7f92840190613101565b60005b818110156115bf576013818154811061228357612283613def565b6000918252602082200154604080516382c03da560e01b815290516001600160a01b03909216926382c03da59260048084019382900301818387803b1580156122cb57600080fd5b505af11580156122df573d6000803e3d6000fd5b5050505080806122ee90613e1b565b915050612268565b60005b60095481101561235e576000600860006009848154811061231c5761231c613def565b60009182526020808320909101546001600160a01b031683528201929092526040019020805463ffffffff19169055508061235681613e1b565b9150506122f9565b5061236b600960006131f9565b6040805142815243602082015233917f712bc71db81927a76b8bf1ea346247bb0ad58f18e4e5c1bd4aa0ec6573e02a2b910160405180910390a2565b6123b13382612889565b6123cd5760405162461bcd60e51b8152600401610a4990613e36565b610b7f83838360405180602001604052806000815250612479565b6001600160a01b038116600081815260086020526040808220805460ff191660019081178255600980549182018155909352600080516020613f6383398151915290920180546001600160a01b0319168417905551909133917faf8fc8b6726138c96881c895390a08e9d91a94c288f06281e7f9821c49c7155b90610d4e9042904390918252602082015260400190565b6124833383612889565b61249f5760405162461bcd60e51b8152600401610a4990613e36565b6124ab84848484612980565b50505050565b60006001600160a01b0386166125205760405162461bcd60e51b815260206004820152602e60248201527f45524337323154656d706c6174653a3a20496e76616c6964206d696e7465722c60448201526d20207a65726f206164647265737360901b6064820152608401610a49565b845161253390600d906020880190613101565b50835161254790600e906020870190613101565b5060128054610100600160a81b0319166101006001600160a01b0386160217905560408051602081019182905260009081905261258691600291613101565b50600f805461ffff191660019081179091556125a39087906129b3565b6125ac866123e8565b6001600160a01b0386166000908152600860205260409020805463ffffff00191663010101001781556125e06001846121cb565b5050600f5460ff1695945050505050565b6001600160a01b03811660008181526008602052604090819020805460ff191681559051909133917fb572db0e6da4924b771ed1712b980d48b5992b9a1c27aede55fbb3318c48996a90610d4e9042904390918252602082015260400190565b82846001600160a01b0316867f1f920dbda597d7bf95035464170fa58d0a4b57f13a1c315ace6793b9f63688b8858560405161268e929190613ddb565b60405180910390a460006109c45a6126a69190613e87565b9050856126f6576126f0858585858080601f0160208091040260200160405190810160405280939291908181526020018383808284376000920191909152508792506129cd915050565b50612872565b600386141561273f576126f08484848080601f0160208091040260200160405190810160405280939291908181526020018383808284376000920191909152506129e592505050565b600286141561283357600061279684848080601f016020809104026020016040519081016040528093929190818152602001838380828437600092019190915250612791925060209150879050613e87565b612a81565b905060006127e585858080601f016020809104026020016040519081016040528093929190818152602001838380828437600092018290525092506127e091506020905088613e87565b612adf565b905060006127f4878484612bec565b6040519091506001600160a01b038216907fcf78cf0d6f3d8371e1075c69c492ab4ec5d8cf23a1a239b6a51a1d00be7ca31290600090a2505050612872565b60405162461bcd60e51b815260206004820152601460248201527357726f6e67206f7065726174696f6e207479706560601b6044820152606401610a49565b505050505050565b606060028054610951906139b9565b6000818152600360205260408120546001600160a01b03166129025760405162461bcd60e51b815260206004820152602c60248201527f4552433732313a206f70657261746f7220717565727920666f72206e6f6e657860448201526b34b9ba32b73a103a37b5b2b760a11b6064820152608401610a49565b600061290d836116fa565b9050806001600160a01b0316846001600160a01b031614806129485750836001600160a01b031661293d846109d4565b6001600160a01b0316145b8061297857506001600160a01b0380821660009081526006602090815260408083209388168352929052205460ff165b949350505050565b61298b848484612cee565b61299784848484612e8e565b6124ab5760405162461bcd60e51b8152600401610a4990613e9e565b6115bf828260405180602001604052806000815250612f8c565b6000806000845160208601878987f195945050505050565b600081516020830184f090506001600160a01b038116612a475760405162461bcd60e51b815260206004820152601960248201527f436f756c64206e6f74206465706c6f7920636f6e7472616374000000000000006044820152606401610a49565b6040516001600160a01b038216907fcf78cf0d6f3d8371e1075c69c492ab4ec5d8cf23a1a239b6a51a1d00be7ca31290600090a292915050565b6000612a8e826020613ef0565b83511015612ad65760405162461bcd60e51b8152602060048201526015602482015274746f427974657333325f6f75744f66426f756e647360581b6044820152606401610a49565b50016020015190565b606081612aed81601f613ef0565b1015612b2c5760405162461bcd60e51b815260206004820152600e60248201526d736c6963655f6f766572666c6f7760901b6044820152606401610a49565b612b368284613ef0565b84511015612b7a5760405162461bcd60e51b8152602060048201526011602482015270736c6963655f6f75744f66426f756e647360781b6044820152606401610a49565b606082158015612b995760405191506000825260208201604052612be3565b6040519150601f8416801560200281840101858101878315602002848b0101015b81831015612bd2578051835260209283019201612bba565b5050858452601f01601f1916604052505b50949350505050565b60008084471015612c3f5760405162461bcd60e51b815260206004820152601d60248201527f437265617465323a20696e73756666696369656e742062616c616e63650000006044820152606401610a49565b8251612c8d5760405162461bcd60e51b815260206004820181905260248201527f437265617465323a2062797465636f6465206c656e677468206973207a65726f6044820152606401610a49565b8383516020850187f590506001600160a01b0381166129785760405162461bcd60e51b815260206004820152601960248201527f437265617465323a204661696c6564206f6e206465706c6f79000000000000006044820152606401610a49565b826001600160a01b0316612d01826116fa565b6001600160a01b031614612d695760405162461bcd60e51b815260206004820152602960248201527f4552433732313a207472616e73666572206f6620746f6b656e2074686174206960448201526839903737ba1037bbb760b91b6064820152608401610a49565b6001600160a01b038216612dcb5760405162461bcd60e51b8152602060048201526024808201527f4552433732313a207472616e7366657220746f20746865207a65726f206164646044820152637265737360e01b6064820152608401610a49565b612dd6600082612104565b6001600160a01b0383166000908152600460205260408120805460019290612dff908490613e87565b90915550506001600160a01b0382166000908152600460205260408120805460019290612e2d908490613ef0565b909155505060008181526003602052604080822080546001600160a01b0319166001600160a01b0386811691821790925591518493918716917fddf252ad1be2c89b69c2b068fc378daa952ba7f163c4a11628f55a4df523b3ef91a4505050565b60006001600160a01b0384163b15612f8157604051630a85bd0160e11b81526001600160a01b0385169063150b7a0290612ed2903390899088908890600401613f08565b6020604051808303816000875af1925050508015612f0d575060408051601f3d908101601f19168201909252612f0a91810190613f45565b60015b612f67573d808015612f3b576040519150601f19603f3d011682016040523d82523d6000602084013e612f40565b606091505b508051612f5f5760405162461bcd60e51b8152600401610a4990613e9e565b805181602001fd5b6001600160e01b031916630a85bd0160e11b149050612978565b506001949350505050565b612f968383612fbf565b612fa36000848484612e8e565b610b7f5760405162461bcd60e51b8152600401610a4990613e9e565b6001600160a01b0382166130155760405162461bcd60e51b815260206004820181905260248201527f4552433732313a206d696e7420746f20746865207a65726f20616464726573736044820152606401610a49565b6000818152600360205260409020546001600160a01b03161561307a5760405162461bcd60e51b815260206004820152601c60248201527f4552433732313a20746f6b656e20616c7265616479206d696e746564000000006044820152606401610a49565b6001600160a01b03821660009081526004602052604081208054600192906130a3908490613ef0565b909155505060008181526003602052604080822080546001600160a01b0319166001600160a01b03861690811790915590518392907fddf252ad1be2c89b69c2b068fc378daa952ba7f163c4a11628f55a4df523b3ef908290a45050565b82805461310d906139b9565b90600052602060002090601f01602090048101928261312f5760008555613175565b82601f1061314857805160ff1916838001178555613175565b82800160010185558215613175579182015b8281111561317557825182559160200191906001019061315a565b50613181929150613213565b5090565b828054613191906139b9565b90600052602060002090601f0160209004810192826131b35760008555613175565b82601f106131cc5782800160ff19823516178555613175565b82800160010185558215613175579182015b828111156131755782358255916020019190600101906131de565b50805460008255906000526020600020908101906110ba91905b5b808211156131815760008155600101613214565b6001600160e01b0319811681146110ba57600080fd5b60006020828403121561325057600080fd5b813561325b81613228565b9392505050565b60005b8381101561327d578181015183820152602001613265565b838111156124ab5750506000910152565b600081518084526132a6816020860160208601613262565b601f01601f19169290920160200192915050565b60208152600061325b602083018461328e565b6000602082840312156132df57600080fd5b5035919050565b6001600160a01b03811681146110ba57600080fd5b6000806040838503121561330e57600080fd5b8235613319816132e6565b946020939093013593505050565b60008083601f84011261333957600080fd5b50813567ffffffffffffffff81111561335157600080fd5b60208301915083602082850101111561336957600080fd5b9250929050565b60008060006040848603121561338557600080fd5b83359250602084013567ffffffffffffffff8111156133a357600080fd5b6133af86828701613327565b9497909650939450505050565b6000602082840312156133ce57600080fd5b813561325b816132e6565b634e487b7160e01b600052604160045260246000fd5b600082601f83011261340057600080fd5b813567ffffffffffffffff8082111561341b5761341b6133d9565b604051601f8301601f19908116603f01168101908282118183101715613443576134436133d9565b8160405283815286602085880101111561345c57600080fd5b836020870160208301376000602085830101528094505050505092915050565b6000806040838503121561348f57600080fd5b82359150602083013567ffffffffffffffff8111156134ad57600080fd5b6134b9858286016133ef565b9150509250929050565b6000806000606084860312156134d857600080fd5b83356134e3816132e6565b925060208401356134f3816132e6565b929592945050506040919091013590565b6020808252825182820181905260009190848201906040850190845b818110156135455783516001600160a01b031683529284019291840191600101613520565b50909695505050505050565b803560ff8116811461356257600080fd5b919050565b60006020828403121561357957600080fd5b61325b82613551565b60006020828403121561359457600080fd5b813567ffffffffffffffff8111156135ab57600080fd5b612978848285016133ef565b600080600080600080600080600080600060c08c8e0312156135d857600080fd5b6135e18c613551565b9a5067ffffffffffffffff8060208e013511156135fd57600080fd5b61360d8e60208f01358f01613327565b909b50995060408d013581101561362357600080fd5b6136338e60408f01358f01613327565b909950975060608d013581101561364957600080fd5b6136598e60608f01358f01613327565b909750955060808d013581101561366f57600080fd5b61367f8e60808f01358f01613327565b909550935060a08d013581101561369557600080fd5b506136a68d60a08e01358e01613327565b81935080925050509295989b509295989b9093969950565b60008060008060008060008060c0898b0312156136da57600080fd5b88356136e5816132e6565b9750602089013567ffffffffffffffff8082111561370257600080fd5b61370e8c838d01613327565b909950975060408b013591508082111561372757600080fd5b6137338c838d01613327565b909750955060608b01359150613748826132e6565b90935060808a01359061375a826132e6565b90925060a08a0135908082111561377057600080fd5b5061377d8b828c016133ef565b9150509295985092959890939650565b600080604083850312156137a057600080fd5b82356137ab816132e6565b9150602083013580151581146137c057600080fd5b809150509250929050565b6000806000806000608086880312156137e357600080fd5b8535945060208601356137f5816132e6565b935060408601359250606086013567ffffffffffffffff81111561381857600080fd5b61382488828901613327565b969995985093965092949392505050565b608081526000613848608083018761328e565b828103602084015261385a818761328e565b60ff959095166040840152505090151560609091015292915050565b60008083601f84011261388857600080fd5b50813567ffffffffffffffff8111156138a057600080fd5b6020830191508360208260051b850101111561336957600080fd5b600080600080600080600080600060a08a8c0312156138d957600080fd5b8935985060208a013567ffffffffffffffff808211156138f857600080fd5b6139048d838e01613876565b909a50985060408c013591508082111561391d57600080fd5b6139298d838e01613876565b909850965060608c013591508082111561394257600080fd5b61394e8d838e01613876565b909650945060808c013591508082111561396757600080fd5b506139748c828d01613876565b915080935050809150509295985092959850929598565b6000806040838503121561399e57600080fd5b82356139a9816132e6565b915060208301356137c0816132e6565b600181811c908216806139cd57607f821691505b602082108114156139ee57634e487b7160e01b600052602260045260246000fd5b50919050565b6020808252601f908201527f455243373231526f6c6573416464726573733a204e4f54204d414e4147455200604082015260600190565b6020808252601c908201527f45524337323154656d706c6174653a206e6f74204e46544f776e657200000000604082015260600190565b608081526000613a75608083018761328e565b6020830195909552506040810192909252606090910152919050565b6020808252602c908201527f45524337323154656d706c6174653a2043616e6e6f74207472616e736665722060408201526b1d1a1a5cc81d1bdad95b925960a21b606082015260800190565b60208082526021908201527f45524337323154656d706c6174653a204e4f54204d455441444154415f524f4c6040820152604560f81b606082015260800190565b81835281816020850137506000828201602090810191909152601f909101601f19169091010190565b60ff8c16815260e060208201526000613b6460e083018c8e613b1e565b8281036040840152613b77818b8d613b1e565b90508281036060840152613b8c81898b613b1e565b90508281036080840152613ba1818789613b1e565b60a0840195909552505060c001529998505050505050505050565b60008351613bce818460208801613262565b835190830190613be2818360208801613262565b01949350505050565b6000808335601e19843603018112613c0257600080fd5b830160208101925035905067ffffffffffffffff811115613c2257600080fd5b80360383131561336957600080fd5b8183526000602080850194508260005b85811015613c6f578135613c54816132e6565b6001600160a01b031687529582019590820190600101613c41565b509495945050505050565b81835260006001600160fb1b03831115613c9357600080fd5b8260051b8083602087013760009401602001938452509192915050565b81835260006020808501808196508560051b810191508460005b87811015613d00578284038952613ce18288613beb565b613cec868284613b1e565b9a87019a9550505090840190600101613cca565b5091979650505050505050565b89815260a0602082018190528101889052600060c060058a901b830181019083018b835b8c811015613d6e5785840360bf19018352613d4c828f613beb565b613d57868284613b1e565b955050506020928301929190910190600101613d31565b5050508281036040840152613d8481898b613c31565b90508281036060840152613d99818789613c7a565b90508281036080840152613dae818587613cb0565b9c9b505050505050505050505050565b600060208284031215613dd057600080fd5b815161325b816132e6565b602081526000612978602083018486613b1e565b634e487b7160e01b600052603260045260246000fd5b634e487b7160e01b600052601160045260246000fd5b6000600019821415613e2f57613e2f613e05565b5060010190565b60208082526031908201527f4552433732313a207472616e736665722063616c6c6572206973206e6f74206f6040820152701ddb995c881b9bdc88185c1c1c9bdd9959607a1b606082015260800190565b600082821015613e9957613e99613e05565b500390565b60208082526032908201527f4552433732313a207472616e7366657220746f206e6f6e20455243373231526560408201527131b2b4bb32b91034b6b83632b6b2b73a32b960711b606082015260800190565b60008219821115613f0357613f03613e05565b500190565b6001600160a01b0385811682528416602082015260408101839052608060608201819052600090613f3b9083018461328e565b9695505050505050565b600060208284031215613f5757600080fd5b815161325b8161322856fe6e1540171b6c0c960b71a7020d9f60077f6af931a8bbf590da0223dacf75c7afa264697066735822122016fa145809d8622746d3f91aeffeb895cefcbf067cb2f33d88740b46b926443f64736f6c634300080a0033",
  "linkReferences": {},
  "deployedLinkReferences": {}
}