{
  "_format": "hh-sol-artifact-1",
  "contractName": "ERC721Template",
  "sourceName": "contracts/templates/ERC721Template.sol",
  "abi": [
    {
      "anonymous": false,
      "inputs": [
        {
          "indexed": true,
          "internalType": "address",
          "name": "user",
          "type": "address"
        },
        {
          "indexed": true,
          "internalType": "address",
          "name": "signer",
          "type": "address"
        },
        {
          "indexed": false,
          "internalType": "uint256",
          "name": "timestamp",
          "type": "uint256"
        },
        {
          "indexed": false,
          "internalType": "uint256",
          "name": "blockNumber",
          "type": "uint256"
        }
      ],
      "name": "AddedManager",
      "type": "event"
    },
    {
      "anonymous": false,
      "inputs": [
        {
          "indexed": true,
          "internalType": "address",
          "name": "user",
          "type": "address"
        },
        {
          "indexed": true,
          "internalType": "address",
          "name": "signer",
          "type": "address"
        },
        {
          "indexed": false,
          "internalType": "uint256",
          "name": "timestamp",
          "type": "uint256"
        },
        {
          "indexed": false,
          "internalType": "uint256",
          "name": "blockNumber",
          "type": "uint256"
        }
      ],
      "name": "AddedTo725StoreList",
      "type": "event"
    },
    {
      "anonymous": false,
      "inputs": [
        {
          "indexed": true,
          "internalType": "address",
          "name": "user",
          "type": "address"
        },
        {
          "indexed": true,
          "internalType": "address",
          "name": "signer",
          "type": "address"
        },
        {
          "indexed": false,
          "internalType": "uint256",
          "name": "timestamp",
          "type": "uint256"
        },
        {
          "indexed": false,
          "internalType": "uint256",
          "name": "blockNumber",
          "type": "uint256"
        }
      ],
      "name": "AddedToCreateERC20List",
      "type": "event"
    },
    {
      "anonymous": false,
      "inputs": [
        {
          "indexed": true,
          "internalType": "address",
          "name": "user",
          "type": "address"
        },
        {
          "indexed": true,
          "internalType": "address",
          "name": "signer",
          "type": "address"
        },
        {
          "indexed": false,
          "internalType": "uint256",
          "name": "timestamp",
          "type": "uint256"
        },
        {
          "indexed": false,
          "internalType": "uint256",
          "name": "blockNumber",
          "type": "uint256"
        }
      ],
      "name": "AddedToMetadataList",
      "type": "event"
    },
    {
      "anonymous": false,
      "inputs": [
        {
          "indexed": true,
          "internalType": "address",
          "name": "owner",
          "type": "address"
        },
        {
          "indexed": true,
          "internalType": "address",
          "name": "approved",
          "type": "address"
        },
        {
          "indexed": true,
          "internalType": "uint256",
          "name": "tokenId",
          "type": "uint256"
        }
      ],
      "name": "Approval",
      "type": "event"
    },
    {
      "anonymous": false,
      "inputs": [
        {
          "indexed": true,
          "internalType": "address",
          "name": "owner",
          "type": "address"
        },
        {
          "indexed": true,
          "internalType": "address",
          "name": "operator",
          "type": "address"
        },
        {
          "indexed": false,
          "internalType": "bool",
          "name": "approved",
          "type": "bool"
        }
      ],
      "name": "ApprovalForAll",
      "type": "event"
    },
    {
      "anonymous": false,
      "inputs": [
        {
          "indexed": true,
          "internalType": "address",
          "name": "signer",
          "type": "address"
        },
        {
          "indexed": false,
          "internalType": "uint256",
          "name": "timestamp",
          "type": "uint256"
        },
        {
          "indexed": false,
          "internalType": "uint256",
          "name": "blockNumber",
          "type": "uint256"
        }
      ],
      "name": "CleanedPermissions",
      "type": "event"
    },
    {
      "anonymous": false,
      "inputs": [
        {
          "indexed": true,
          "internalType": "address",
          "name": "contractAddress",
          "type": "address"
        }
      ],
      "name": "ContractCreated",
      "type": "event"
    },
    {
      "anonymous": false,
      "inputs": [
        {
          "indexed": true,
          "internalType": "bytes32",
          "name": "key",
          "type": "bytes32"
        },
        {
          "indexed": false,
          "internalType": "bytes",
          "name": "value",
          "type": "bytes"
        }
      ],
      "name": "DataChanged",
      "type": "event"
    },
    {
      "anonymous": false,
      "inputs": [
        {
          "indexed": true,
          "internalType": "uint256",
          "name": "_operation",
          "type": "uint256"
        },
        {
          "indexed": true,
          "internalType": "address",
          "name": "_to",
          "type": "address"
        },
        {
          "indexed": true,
          "internalType": "uint256",
          "name": "_value",
          "type": "uint256"
        },
        {
          "indexed": false,
          "internalType": "bytes",
          "name": "_data",
          "type": "bytes"
        }
      ],
      "name": "Executed",
      "type": "event"
    },
    {
      "anonymous": false,
      "inputs": [
        {
          "indexed": true,
          "internalType": "address",
          "name": "createdBy",
          "type": "address"
        },
        {
          "indexed": false,
          "internalType": "uint8",
          "name": "state",
          "type": "uint8"
        },
        {
          "indexed": false,
          "internalType": "string",
          "name": "decryptorUrl",
          "type": "string"
        },
        {
          "indexed": false,
          "internalType": "bytes",
          "name": "flags",
          "type": "bytes"
        },
        {
          "indexed": false,
          "internalType": "bytes",
          "name": "data",
          "type": "bytes"
        },
        {
          "indexed": false,
          "internalType": "bytes32",
          "name": "metaDataHash",
          "type": "bytes32"
        },
        {
          "indexed": false,
          "internalType": "uint256",
          "name": "timestamp",
          "type": "uint256"
        },
        {
          "indexed": false,
          "internalType": "uint256",
          "name": "blockNumber",
          "type": "uint256"
        }
      ],
      "name": "MetadataCreated",
      "type": "event"
    },
    {
      "anonymous": false,
      "inputs": [
        {
          "indexed": true,
          "internalType": "address",
          "name": "updatedBy",
          "type": "address"
        },
        {
          "indexed": false,
          "internalType": "uint8",
          "name": "state",
          "type": "uint8"
        },
        {
          "indexed": false,
          "internalType": "uint256",
          "name": "timestamp",
          "type": "uint256"
        },
        {
          "indexed": false,
          "internalType": "uint256",
          "name": "blockNumber",
          "type": "uint256"
        }
      ],
      "name": "MetadataState",
      "type": "event"
    },
    {
      "anonymous": false,
      "inputs": [
        {
          "indexed": true,
          "internalType": "address",
          "name": "updatedBy",
          "type": "address"
        },
        {
          "indexed": false,
          "internalType": "uint8",
          "name": "state",
          "type": "uint8"
        },
        {
          "indexed": false,
          "internalType": "string",
          "name": "decryptorUrl",
          "type": "string"
        },
        {
          "indexed": false,
          "internalType": "bytes",
          "name": "flags",
          "type": "bytes"
        },
        {
          "indexed": false,
          "internalType": "bytes",
          "name": "data",
          "type": "bytes"
        },
        {
          "indexed": false,
          "internalType": "bytes32",
          "name": "metaDataHash",
          "type": "bytes32"
        },
        {
          "indexed": false,
          "internalType": "uint256",
          "name": "timestamp",
          "type": "uint256"
        },
        {
          "indexed": false,
          "internalType": "uint256",
          "name": "blockNumber",
          "type": "uint256"
        }
      ],
      "name": "MetadataUpdated",
      "type": "event"
    },
    {
      "anonymous": false,
      "inputs": [
        {
          "indexed": true,
          "internalType": "address",
          "name": "validator",
          "type": "address"
        },
        {
          "indexed": false,
          "internalType": "bytes32",
          "name": "metaDataHash",
          "type": "bytes32"
        },
        {
          "indexed": false,
          "internalType": "uint8",
          "name": "v",
          "type": "uint8"
        },
        {
          "indexed": false,
          "internalType": "bytes32",
          "name": "r",
          "type": "bytes32"
        },
        {
          "indexed": false,
          "internalType": "bytes32",
          "name": "s",
          "type": "bytes32"
        }
      ],
      "name": "MetadataValidated",
      "type": "event"
    },
    {
      "anonymous": false,
      "inputs": [
        {
          "indexed": true,
          "internalType": "address",
          "name": "user",
          "type": "address"
        },
        {
          "indexed": true,
          "internalType": "address",
          "name": "signer",
          "type": "address"
        },
        {
          "indexed": false,
          "internalType": "uint256",
          "name": "timestamp",
          "type": "uint256"
        },
        {
          "indexed": false,
          "internalType": "uint256",
          "name": "blockNumber",
          "type": "uint256"
        }
      ],
      "name": "RemovedFrom725StoreList",
      "type": "event"
    },
    {
      "anonymous": false,
      "inputs": [
        {
          "indexed": true,
          "internalType": "address",
          "name": "user",
          "type": "address"
        },
        {
          "indexed": true,
          "internalType": "address",
          "name": "signer",
          "type": "address"
        },
        {
          "indexed": false,
          "internalType": "uint256",
          "name": "timestamp",
          "type": "uint256"
        },
        {
          "indexed": false,
          "internalType": "uint256",
          "name": "blockNumber",
          "type": "uint256"
        }
      ],
      "name": "RemovedFromCreateERC20List",
      "type": "event"
    },
    {
      "anonymous": false,
      "inputs": [
        {
          "indexed": true,
          "internalType": "address",
          "name": "user",
          "type": "address"
        },
        {
          "indexed": true,
          "internalType": "address",
          "name": "signer",
          "type": "address"
        },
        {
          "indexed": false,
          "internalType": "uint256",
          "name": "timestamp",
          "type": "uint256"
        },
        {
          "indexed": false,
          "internalType": "uint256",
          "name": "blockNumber",
          "type": "uint256"
        }
      ],
      "name": "RemovedFromMetadataList",
      "type": "event"
    },
    {
      "anonymous": false,
      "inputs": [
        {
          "indexed": true,
          "internalType": "address",
          "name": "user",
          "type": "address"
        },
        {
          "indexed": true,
          "internalType": "address",
          "name": "signer",
          "type": "address"
        },
        {
          "indexed": false,
          "internalType": "uint256",
          "name": "timestamp",
          "type": "uint256"
        },
        {
          "indexed": false,
          "internalType": "uint256",
          "name": "blockNumber",
          "type": "uint256"
        }
      ],
      "name": "RemovedManager",
      "type": "event"
    },
    {
      "anonymous": false,
      "inputs": [
        {
          "indexed": true,
          "internalType": "address",
          "name": "newTokenAddress",
          "type": "address"
        },
        {
          "indexed": true,
          "internalType": "address",
          "name": "templateAddress",
          "type": "address"
        },
        {
          "indexed": false,
          "internalType": "string",
          "name": "name",
          "type": "string"
        },
        {
          "indexed": false,
          "internalType": "string",
          "name": "symbol",
          "type": "string"
        },
        {
          "indexed": false,
          "internalType": "uint256",
          "name": "cap",
          "type": "uint256"
        },
        {
          "indexed": false,
          "internalType": "address",
          "name": "creator",
          "type": "address"
        }
      ],
      "name": "TokenCreated",
      "type": "event"
    },
    {
      "anonymous": false,
      "inputs": [
        {
          "indexed": true,
          "internalType": "address",
          "name": "updatedBy",
          "type": "address"
        },
        {
          "indexed": false,
          "internalType": "string",
          "name": "tokenURI",
          "type": "string"
        },
        {
          "indexed": false,
          "internalType": "uint256",
          "name": "tokenID",
          "type": "uint256"
        },
        {
          "indexed": false,
          "internalType": "uint256",
          "name": "timestamp",
          "type": "uint256"
        },
        {
          "indexed": false,
          "internalType": "uint256",
          "name": "blockNumber",
          "type": "uint256"
        }
      ],
      "name": "TokenURIUpdate",
      "type": "event"
    },
    {
      "anonymous": false,
      "inputs": [
        {
          "indexed": true,
          "internalType": "address",
          "name": "from",
          "type": "address"
        },
        {
          "indexed": true,
          "internalType": "address",
          "name": "to",
          "type": "address"
        },
        {
          "indexed": true,
          "internalType": "uint256",
          "name": "tokenId",
          "type": "uint256"
        }
      ],
      "name": "Transfer",
      "type": "event"
    },
    {
      "stateMutability": "payable",
      "type": "fallback"
    },
    {
      "inputs": [
        {
          "internalType": "address",
          "name": "_managerAddress",
          "type": "address"
        }
      ],
      "name": "addManager",
      "outputs": [],
      "stateMutability": "nonpayable",
      "type": "function"
    },
    {
      "inputs": [
        {
          "internalType": "address[]",
          "name": "addresses",
          "type": "address[]"
        },
        {
          "internalType": "enum ERC721RolesAddress.RolesType[]",
          "name": "roles",
          "type": "uint8[]"
        }
      ],
      "name": "addMultipleUsersToRoles",
      "outputs": [],
      "stateMutability": "nonpayable",
      "type": "function"
    },
    {
      "inputs": [
        {
          "internalType": "address",
          "name": "_allowedAddress",
          "type": "address"
        }
      ],
      "name": "addTo725StoreList",
      "outputs": [],
      "stateMutability": "nonpayable",
      "type": "function"
    },
    {
      "inputs": [
        {
          "internalType": "address",
          "name": "_allowedAddress",
          "type": "address"
        }
      ],
      "name": "addToCreateERC20List",
      "outputs": [],
      "stateMutability": "nonpayable",
      "type": "function"
    },
    {
      "inputs": [
        {
          "internalType": "address",
          "name": "_allowedAddress",
          "type": "address"
        }
      ],
      "name": "addToMetadataList",
      "outputs": [],
      "stateMutability": "nonpayable",
      "type": "function"
    },
    {
      "inputs": [
        {
          "internalType": "address",
          "name": "to",
          "type": "address"
        },
        {
          "internalType": "uint256",
          "name": "tokenId",
          "type": "uint256"
        }
      ],
      "name": "approve",
      "outputs": [],
      "stateMutability": "nonpayable",
      "type": "function"
    },
    {
      "inputs": [
        {
          "internalType": "uint256",
          "name": "",
          "type": "uint256"
        }
      ],
      "name": "auth",
      "outputs": [
        {
          "internalType": "address",
          "name": "",
          "type": "address"
        }
      ],
      "stateMutability": "view",
      "type": "function"
    },
    {
      "inputs": [
        {
          "internalType": "address",
          "name": "owner",
          "type": "address"
        }
      ],
      "name": "balanceOf",
      "outputs": [
        {
          "internalType": "uint256",
          "name": "",
          "type": "uint256"
        }
      ],
      "stateMutability": "view",
      "type": "function"
    },
    {
      "inputs": [],
      "name": "baseURI",
      "outputs": [
        {
          "internalType": "string",
          "name": "",
          "type": "string"
        }
      ],
      "stateMutability": "view",
      "type": "function"
    },
    {
      "inputs": [],
      "name": "cleanPermissions",
      "outputs": [],
      "stateMutability": "nonpayable",
      "type": "function"
    },
    {
      "inputs": [
        {
          "internalType": "uint256",
          "name": "_templateIndex",
          "type": "uint256"
        },
        {
          "internalType": "string[]",
          "name": "strings",
          "type": "string[]"
        },
        {
          "internalType": "address[]",
          "name": "addresses",
          "type": "address[]"
        },
        {
          "internalType": "uint256[]",
          "name": "uints",
          "type": "uint256[]"
        },
        {
          "internalType": "bytes[]",
          "name": "bytess",
          "type": "bytes[]"
        }
      ],
      "name": "createERC20",
      "outputs": [
        {
          "internalType": "address",
          "name": "",
          "type": "address"
        }
      ],
      "stateMutability": "nonpayable",
      "type": "function"
    },
    {
      "inputs": [
        {
          "internalType": "uint256",
          "name": "_operation",
          "type": "uint256"
        },
        {
          "internalType": "address",
          "name": "_to",
          "type": "address"
        },
        {
          "internalType": "uint256",
          "name": "_value",
          "type": "uint256"
        },
        {
          "internalType": "bytes",
          "name": "_data",
          "type": "bytes"
        }
      ],
      "name": "executeCall",
      "outputs": [],
      "stateMutability": "payable",
      "type": "function"
    },
    {
      "inputs": [
        {
          "internalType": "uint256",
          "name": "tokenId",
          "type": "uint256"
        }
      ],
      "name": "getApproved",
      "outputs": [
        {
          "internalType": "address",
          "name": "",
          "type": "address"
        }
      ],
      "stateMutability": "view",
      "type": "function"
    },
    {
      "inputs": [
        {
          "internalType": "bytes32",
          "name": "_key",
          "type": "bytes32"
        }
      ],
      "name": "getData",
      "outputs": [
        {
          "internalType": "bytes",
          "name": "_value",
          "type": "bytes"
        }
      ],
      "stateMutability": "view",
      "type": "function"
    },
    {
      "inputs": [],
      "name": "getId",
      "outputs": [
        {
          "internalType": "uint8",
          "name": "",
          "type": "uint8"
        }
      ],
      "stateMutability": "pure",
      "type": "function"
    },
    {
      "inputs": [],
      "name": "getMetaData",
      "outputs": [
        {
          "internalType": "string",
          "name": "",
          "type": "string"
        },
        {
          "internalType": "string",
          "name": "",
          "type": "string"
        },
        {
          "internalType": "uint8",
          "name": "",
          "type": "uint8"
        },
        {
          "internalType": "bool",
          "name": "",
          "type": "bool"
        }
      ],
      "stateMutability": "view",
      "type": "function"
    },
    {
      "inputs": [
        {
          "internalType": "address",
          "name": "user",
          "type": "address"
        }
      ],
      "name": "getPermissions",
      "outputs": [
        {
          "components": [
            {
              "internalType": "bool",
              "name": "manager",
              "type": "bool"
            },
            {
              "internalType": "bool",
              "name": "deployERC20",
              "type": "bool"
            },
            {
              "internalType": "bool",
              "name": "updateMetadata",
              "type": "bool"
            },
            {
              "internalType": "bool",
              "name": "store",
              "type": "bool"
            }
          ],
          "internalType": "struct ERC721RolesAddress.Roles",
          "name": "",
          "type": "tuple"
        }
      ],
      "stateMutability": "view",
      "type": "function"
    },
    {
      "inputs": [],
      "name": "getTokensList",
      "outputs": [
        {
          "internalType": "address[]",
          "name": "",
          "type": "address[]"
        }
      ],
      "stateMutability": "view",
      "type": "function"
    },
    {
      "inputs": [],
      "name": "hasMetaData",
      "outputs": [
        {
          "internalType": "bool",
          "name": "",
          "type": "bool"
        }
      ],
      "stateMutability": "view",
      "type": "function"
    },
    {
      "inputs": [
        {
          "internalType": "address",
          "name": "owner",
          "type": "address"
        },
        {
          "internalType": "string",
          "name": "name_",
          "type": "string"
        },
        {
          "internalType": "string",
          "name": "symbol_",
          "type": "string"
        },
        {
          "internalType": "address",
          "name": "tokenFactory",
          "type": "address"
        },
        {
          "internalType": "address",
          "name": "additionalERC20Deployer",
          "type": "address"
        },
        {
          "internalType": "address",
          "name": "additionalMetaDataUpdater",
          "type": "address"
        },
        {
          "internalType": "string",
          "name": "tokenURI",
          "type": "string"
        },
        {
          "internalType": "bool",
          "name": "transferable_",
          "type": "bool"
        }
      ],
      "name": "initialize",
      "outputs": [
        {
          "internalType": "bool",
          "name": "",
          "type": "bool"
        }
      ],
      "stateMutability": "nonpayable",
      "type": "function"
    },
    {
      "inputs": [
        {
          "internalType": "address",
          "name": "owner",
          "type": "address"
        },
        {
          "internalType": "address",
          "name": "operator",
          "type": "address"
        }
      ],
      "name": "isApprovedForAll",
      "outputs": [
        {
          "internalType": "bool",
          "name": "",
          "type": "bool"
        }
      ],
      "stateMutability": "view",
      "type": "function"
    },
    {
      "inputs": [
        {
          "internalType": "address",
          "name": "datatoken",
          "type": "address"
        }
      ],
      "name": "isDeployed",
      "outputs": [
        {
          "internalType": "bool",
          "name": "",
          "type": "bool"
        }
      ],
      "stateMutability": "view",
      "type": "function"
    },
    {
      "inputs": [
        {
          "internalType": "address",
          "name": "account",
          "type": "address"
        }
      ],
      "name": "isERC20Deployer",
      "outputs": [
        {
          "internalType": "bool",
          "name": "",
          "type": "bool"
        }
      ],
      "stateMutability": "view",
      "type": "function"
    },
    {
      "inputs": [],
      "name": "isInitialized",
      "outputs": [
        {
          "internalType": "bool",
          "name": "",
          "type": "bool"
        }
      ],
      "stateMutability": "view",
      "type": "function"
    },
    {
      "inputs": [],
      "name": "metaDataDecryptorAddress",
      "outputs": [
        {
          "internalType": "string",
          "name": "",
          "type": "string"
        }
      ],
      "stateMutability": "view",
      "type": "function"
    },
    {
      "inputs": [],
      "name": "metaDataDecryptorUrl",
      "outputs": [
        {
          "internalType": "string",
          "name": "",
          "type": "string"
        }
      ],
      "stateMutability": "view",
      "type": "function"
    },
    {
      "inputs": [],
      "name": "metaDataState",
      "outputs": [
        {
          "internalType": "uint8",
          "name": "",
          "type": "uint8"
        }
      ],
      "stateMutability": "view",
      "type": "function"
    },
    {
      "inputs": [],
      "name": "name",
      "outputs": [
        {
          "internalType": "string",
          "name": "",
          "type": "string"
        }
      ],
      "stateMutability": "view",
      "type": "function"
    },
    {
      "inputs": [
        {
          "internalType": "uint256",
          "name": "tokenId",
          "type": "uint256"
        }
      ],
      "name": "ownerOf",
      "outputs": [
        {
          "internalType": "address",
          "name": "",
          "type": "address"
        }
      ],
      "stateMutability": "view",
      "type": "function"
    },
    {
      "inputs": [
        {
          "internalType": "address",
          "name": "_allowedAddress",
          "type": "address"
        }
      ],
      "name": "removeFrom725StoreList",
      "outputs": [],
      "stateMutability": "nonpayable",
      "type": "function"
    },
    {
      "inputs": [
        {
          "internalType": "address",
          "name": "_allowedAddress",
          "type": "address"
        }
      ],
      "name": "removeFromCreateERC20List",
      "outputs": [],
      "stateMutability": "nonpayable",
      "type": "function"
    },
    {
      "inputs": [
        {
          "internalType": "address",
          "name": "_allowedAddress",
          "type": "address"
        }
      ],
      "name": "removeFromMetadataList",
      "outputs": [],
      "stateMutability": "nonpayable",
      "type": "function"
    },
    {
      "inputs": [
        {
          "internalType": "address",
          "name": "_managerAddress",
          "type": "address"
        }
      ],
      "name": "removeManager",
      "outputs": [],
      "stateMutability": "nonpayable",
      "type": "function"
    },
    {
      "inputs": [
        {
          "internalType": "address",
          "name": "from",
          "type": "address"
        },
        {
          "internalType": "address",
          "name": "to",
          "type": "address"
        },
        {
          "internalType": "uint256",
          "name": "tokenId",
          "type": "uint256"
        }
      ],
      "name": "safeTransferFrom",
      "outputs": [],
      "stateMutability": "nonpayable",
      "type": "function"
    },
    {
      "inputs": [
        {
          "internalType": "address",
          "name": "operator",
          "type": "address"
        },
        {
          "internalType": "bool",
          "name": "approved",
          "type": "bool"
        }
      ],
      "name": "setApprovalForAll",
      "outputs": [],
      "stateMutability": "nonpayable",
      "type": "function"
    },
    {
      "inputs": [
        {
          "internalType": "string",
          "name": "_baseURI",
          "type": "string"
        }
      ],
      "name": "setBaseURI",
      "outputs": [],
      "stateMutability": "nonpayable",
      "type": "function"
    },
    {
      "inputs": [
        {
          "internalType": "bytes32",
          "name": "_key",
          "type": "bytes32"
        },
        {
          "internalType": "bytes",
          "name": "_value",
          "type": "bytes"
        }
      ],
      "name": "setDataERC20",
      "outputs": [],
      "stateMutability": "nonpayable",
      "type": "function"
    },
    {
      "inputs": [
        {
          "internalType": "uint8",
          "name": "_metaDataState",
          "type": "uint8"
        },
        {
          "internalType": "string",
          "name": "_metaDataDecryptorUrl",
          "type": "string"
        },
        {
          "internalType": "string",
          "name": "_metaDataDecryptorAddress",
          "type": "string"
        },
        {
          "internalType": "bytes",
          "name": "flags",
          "type": "bytes"
        },
        {
          "internalType": "bytes",
          "name": "data",
          "type": "bytes"
        },
        {
          "internalType": "bytes32",
          "name": "_metaDataHash",
          "type": "bytes32"
        },
        {
          "components": [
            {
              "internalType": "address",
              "name": "validatorAddress",
              "type": "address"
            },
            {
              "internalType": "uint8",
              "name": "v",
              "type": "uint8"
            },
            {
              "internalType": "bytes32",
              "name": "r",
              "type": "bytes32"
            },
            {
              "internalType": "bytes32",
              "name": "s",
              "type": "bytes32"
            }
          ],
          "internalType": "struct ERC721Template.metaDataProof[]",
          "name": "_metadataProofs",
          "type": "tuple[]"
        }
      ],
      "name": "setMetaData",
      "outputs": [],
      "stateMutability": "nonpayable",
      "type": "function"
    },
    {
      "inputs": [
        {
          "components": [
            {
              "internalType": "uint8",
              "name": "metaDataState",
              "type": "uint8"
            },
            {
              "internalType": "string",
              "name": "metaDataDecryptorUrl",
              "type": "string"
            },
            {
              "internalType": "string",
              "name": "metaDataDecryptorAddress",
              "type": "string"
            },
            {
              "internalType": "bytes",
              "name": "flags",
              "type": "bytes"
            },
            {
              "internalType": "bytes",
              "name": "data",
              "type": "bytes"
            },
            {
              "internalType": "bytes32",
              "name": "metaDataHash",
              "type": "bytes32"
            },
            {
              "internalType": "uint256",
              "name": "tokenId",
              "type": "uint256"
            },
            {
              "internalType": "string",
              "name": "tokenURI",
              "type": "string"
            },
            {
              "components": [
                {
                  "internalType": "address",
                  "name": "validatorAddress",
                  "type": "address"
                },
                {
                  "internalType": "uint8",
                  "name": "v",
                  "type": "uint8"
                },
                {
                  "internalType": "bytes32",
                  "name": "r",
                  "type": "bytes32"
                },
                {
                  "internalType": "bytes32",
                  "name": "s",
                  "type": "bytes32"
                }
              ],
              "internalType": "struct ERC721Template.metaDataProof[]",
              "name": "metadataProofs",
              "type": "tuple[]"
            }
          ],
          "internalType": "struct ERC721Template.metaDataAndTokenURI",
          "name": "_metaDataAndTokenURI",
          "type": "tuple"
        }
      ],
      "name": "setMetaDataAndTokenURI",
      "outputs": [],
      "stateMutability": "nonpayable",
      "type": "function"
    },
    {
      "inputs": [
        {
          "internalType": "uint8",
          "name": "_metaDataState",
          "type": "uint8"
        }
      ],
      "name": "setMetaDataState",
      "outputs": [],
      "stateMutability": "nonpayable",
      "type": "function"
    },
    {
      "inputs": [
        {
          "internalType": "bytes32",
          "name": "_key",
          "type": "bytes32"
        },
        {
          "internalType": "bytes",
          "name": "_value",
          "type": "bytes"
        }
      ],
      "name": "setNewData",
      "outputs": [],
      "stateMutability": "nonpayable",
      "type": "function"
    },
    {
      "inputs": [
        {
          "internalType": "uint256",
          "name": "tokenId",
          "type": "uint256"
        },
        {
          "internalType": "string",
          "name": "tokenURI",
          "type": "string"
        }
      ],
      "name": "setTokenURI",
      "outputs": [],
      "stateMutability": "nonpayable",
      "type": "function"
    },
    {
      "inputs": [],
      "name": "ssContract",
      "outputs": [
        {
          "internalType": "address",
          "name": "",
          "type": "address"
        }
      ],
      "stateMutability": "view",
      "type": "function"
    },
    {
      "inputs": [
        {
          "internalType": "bytes4",
          "name": "interfaceId",
          "type": "bytes4"
        }
      ],
      "name": "supportsInterface",
      "outputs": [
        {
          "internalType": "bool",
          "name": "",
          "type": "bool"
        }
      ],
      "stateMutability": "view",
      "type": "function"
    },
    {
      "inputs": [],
      "name": "symbol",
      "outputs": [
        {
          "internalType": "string",
          "name": "",
          "type": "string"
        }
      ],
      "stateMutability": "view",
      "type": "function"
    },
    {
      "inputs": [
        {
          "internalType": "uint256",
          "name": "index",
          "type": "uint256"
        }
      ],
      "name": "tokenByIndex",
      "outputs": [
        {
          "internalType": "uint256",
          "name": "",
          "type": "uint256"
        }
      ],
      "stateMutability": "view",
      "type": "function"
    },
    {
      "inputs": [
        {
          "internalType": "address",
          "name": "owner",
          "type": "address"
        },
        {
          "internalType": "uint256",
          "name": "index",
          "type": "uint256"
        }
      ],
      "name": "tokenOfOwnerByIndex",
      "outputs": [
        {
          "internalType": "uint256",
          "name": "",
          "type": "uint256"
        }
      ],
      "stateMutability": "view",
      "type": "function"
    },
    {
      "inputs": [
        {
          "internalType": "uint256",
          "name": "tokenId",
          "type": "uint256"
        }
      ],
      "name": "tokenURI",
      "outputs": [
        {
          "internalType": "string",
          "name": "",
          "type": "string"
        }
      ],
      "stateMutability": "view",
      "type": "function"
    },
    {
      "inputs": [],
      "name": "totalSupply",
      "outputs": [
        {
          "internalType": "uint256",
          "name": "",
          "type": "uint256"
        }
      ],
      "stateMutability": "view",
      "type": "function"
    },
    {
      "inputs": [
        {
          "internalType": "address",
          "name": "from",
          "type": "address"
        },
        {
          "internalType": "address",
          "name": "to",
          "type": "address"
        },
        {
          "internalType": "uint256",
          "name": "tokenId",
          "type": "uint256"
        }
      ],
      "name": "transferFrom",
      "outputs": [],
      "stateMutability": "nonpayable",
      "type": "function"
    },
    {
      "inputs": [],
      "name": "transferable",
      "outputs": [
        {
          "internalType": "bool",
          "name": "",
          "type": "bool"
        }
      ],
      "stateMutability": "view",
      "type": "function"
    },
    {
      "inputs": [],
      "name": "withdrawETH",
      "outputs": [],
      "stateMutability": "payable",
      "type": "function"
    }
  ],
  "bytecode": "0x60806040523480156200001157600080fd5b50604080518082018252600881526754656d706c61746560c01b6020808301919091528251808401909352600e83526d15195b5c1b185d1954de5b589bdb60921b9083015290620000696301ffc9a760e01b620000d1565b81516200007e9060019060208501906200018d565b508051620000949060029060208401906200018d565b506200009f62000155565b50620000b49050632260147f60e11b620000d1565b620000c6632bd57b7360e01b620000d1565b6001600d5562000270565b6001600160e01b03198082161415620001305760405162461bcd60e51b815260206004820152601c60248201527f4552433136353a20696e76616c696420696e7465726661636520696400000000604482015260640160405180910390fd5b6001600160e01b0319166000908152602081905260409020805460ff19166001179055565b620001676380ac58cd60e01b620000d1565b62000179635b5e139f60e01b620000d1565b6200018b63780e9d6360e01b620000d1565b565b8280546200019b9062000233565b90600052602060002090601f016020900481019282620001bf57600085556200020a565b82601f10620001da57805160ff19168380011785556200020a565b828001600101855582156200020a579182015b828111156200020a578251825591602001919060010190620001ed565b50620002189291506200021c565b5090565b5b808211156200021857600081556001016200021d565b600181811c908216806200024857607f821691505b602082108114156200026a57634e487b7160e01b600052602260045260246000fd5b50919050565b61542280620002806000396000f3fe6080604052600436106102de5760003560e01c80634f6ccce71161017e578063a22cb465116100d3578063ccd7d4761161008f578063e086e5ec1161006c578063e086e5ec146109d0578063e38d7cad146109d8578063e985e9c5146109f8578063fe1ec88014610a4157005b8063ccd7d47614610972578063d2786ba41461098c578063d8053ad3146109b157005b8063a22cb465146108bf578063ac18de43146108df578063b0c41ead146108ff578063c2d60e6e1461091f578063c55f81261461093f578063c87b56dd1461095257005b80636c0360eb1161013a57806390184b021161011757806390184b021461081957806392ff0d311461085257806395d89b411461086c57806396fb3eaf1461088157005b80636c0360eb146107cf57806370a08231146107e457806382cf129d1461080457005b80634f6ccce71461070d57806354f6127f1461072d57806355f804b31461074d5780635d1ca6311461076d5780636352211e1461078f57806367530a61146107af57005b80631aa3adf91161023457806342842e0e116101f0578063467c97f5116101cd578063467c97f5146106985780634a63740a146106b85780634b2ee5e9146106d85780634f189cb2146106f857005b806342842e0e14610636578063431053ac14610656578063466bca021461067657005b80631aa3adf91461057e57806323b872dd1461059e578063273e06b3146105be5780632d06177a146105de5780632f745c59146105fe578063392e53cd1461061e57005b806310c558bf1161029b57806318160ddd1161027857806318160ddd146104fb57806319a18a851461051e57806319c186e51461053e5780631a1d51e81461055e57005b806310c558bf146103de578063160a7925146103fe578063162094c4146104db57005b806301ffc9a7146102e057806306fdde031461032f578063081812fc14610351578063095ea7b3146103895780630e05662e146103a95780630e57c7e8146103be575b005b3480156102ec57600080fd5b5061031a6102fb3660046142d8565b6001600160e01b03191660009081526020819052604090205460ff1690565b60405190151581526020015b60405180910390f35b34801561033b57600080fd5b50610344610a61565b604051610326919061434d565b34801561035d57600080fd5b5061037161036c366004614360565b610af3565b6040516001600160a01b039091168152602001610326565b34801561039557600080fd5b506102de6103a436600461439e565b610b80565b3480156103b557600080fd5b50610344610c96565b3480156103ca57600080fd5b506102de6103d936600461440b565b610d24565b3480156103ea57600080fd5b506102de6103f9366004614456565b610d99565b34801561040a57600080fd5b506104a0610419366004614456565b604080516080810182526000808252602082018190529181018290526060810191909152506001600160a01b03166000908152600a60209081526040918290208251608081018452905460ff808216151583526101008204811615159383019390935262010000810483161515938201939093526301000000909204161515606082015290565b604051610326919081511515815260208083015115159082015260408083015115159082015260609182015115159181019190915260800190565b3480156104e757600080fd5b506102de6104f6366004614528565b610dd9565b34801561050757600080fd5b50610510610e67565b604051908152602001610326565b34801561052a57600080fd5b506102de61053936600461456e565b610e78565b34801561054a57600080fd5b506102de610559366004614456565b610fa9565b34801561056a57600080fd5b5061031a6105793660046145b9565b611068565b34801561058a57600080fd5b506102de6105993660046147bd565b6111ce565b3480156105aa57600080fd5b506102de6105b93660046148c4565b611223565b3480156105ca57600080fd5b506102de6105d9366004614456565b61131a565b3480156105ea57600080fd5b506102de6105f9366004614456565b611465565b34801561060a57600080fd5b5061051061061936600461439e565b6114a8565b34801561062a57600080fd5b5060105460ff1661031a565b34801561064257600080fd5b506102de6106513660046148c4565b6114d3565b34801561066257600080fd5b506102de610671366004614456565b6115cf565b34801561068257600080fd5b5061068b611704565b6040516103269190614905565b3480156106a457600080fd5b506102de6106b3366004614952565b611765565b3480156106c457600080fd5b506102de6106d3366004614456565b6117f0565b3480156106e457600080fd5b50601554610371906001600160a01b031681565b34801561070457600080fd5b506102de61182d565b34801561071957600080fd5b50610510610728366004614360565b611883565b34801561073957600080fd5b50610344610748366004614360565b611899565b34801561075957600080fd5b506102de61076836600461496d565b61193b565b34801561077957600080fd5b5060015b60405160ff9091168152602001610326565b34801561079b57600080fd5b506103716107aa366004614360565b611988565b3480156107bb57600080fd5b506102de6107ca36600461440b565b6119b0565b3480156107db57600080fd5b50610344611a20565b3480156107f057600080fd5b506105106107ff366004614456565b611a2a565b34801561081057600080fd5b50610344611ab6565b34801561082557600080fd5b5061031a610834366004614456565b6001600160a01b031660009081526016602052604090205460ff1690565b34801561085e57600080fd5b5060175461031a9060ff1681565b34801561087857600080fd5b50610344611ac3565b34801561088d57600080fd5b5061031a61089c366004614456565b6001600160a01b03166000908152600a6020526040902054610100900460ff1690565b3480156108cb57600080fd5b506102de6108da3660046149a1565b611ad2565b3480156108eb57600080fd5b506102de6108fa366004614456565b611b90565b34801561090b57600080fd5b5061037161091a366004614360565b611bd3565b34801561092b57600080fd5b506102de61093a366004614a3f565b611bfd565b6102de61094d366004614af6565b612005565b34801561095e57600080fd5b5061034461096d366004614360565b61204d565b34801561097e57600080fd5b5060135461077d9060ff1681565b34801561099857600080fd5b506109a161219b565b6040516103269493929190614b5f565b3480156109bd57600080fd5b5060105461031a90610100900460ff1681565b6102de6122eb565b3480156109e457600080fd5b506103716109f3366004614be4565b61232d565b348015610a0457600080fd5b5061031a610a13366004614cb3565b6001600160a01b03918216600090815260086020908152604080832093909416825291909152205460ff1690565b348015610a4d57600080fd5b506102de610a5c366004614456565b6124fd565b6060600e8054610a7090614cec565b80601f0160208091040260200160405190810160405280929190818152602001828054610a9c90614cec565b8015610ae95780601f10610abe57610100808354040283529160200191610ae9565b820191906000526020600020905b815481529060010190602001808311610acc57829003601f168201915b5050505050905090565b6000610afe8261262d565b610b645760405162461bcd60e51b815260206004820152602c60248201527f4552433732313a20617070726f76656420717565727920666f72206e6f6e657860448201526b34b9ba32b73a103a37b5b2b760a11b60648201526084015b60405180910390fd5b506000908152600760205260409020546001600160a01b031690565b6000610b8b82611988565b9050806001600160a01b0316836001600160a01b03161415610bf95760405162461bcd60e51b815260206004820152602160248201527f4552433732313a20617070726f76616c20746f2063757272656e74206f776e656044820152603960f91b6064820152608401610b5b565b336001600160a01b0382161480610c155750610c158133610a13565b610c875760405162461bcd60e51b815260206004820152603860248201527f4552433732313a20617070726f76652063616c6c6572206973206e6f74206f7760448201527f6e6572206e6f7220617070726f76656420666f7220616c6c00000000000000006064820152608401610b5b565b610c91838361263a565b505050565b60128054610ca390614cec565b80601f0160208091040260200160405190810160405280929190818152602001828054610ccf90614cec565b8015610d1c5780601f10610cf157610100808354040283529160200191610d1c565b820191906000526020600020905b815481529060010190602001808311610cff57829003601f168201915b505050505081565b3360009081526016602052604090205460ff16610d8e5760405162461bcd60e51b815260206004820152602260248201527f45524337323154656d706c6174653a204e4f5420455243323020436f6e74726160448201526118dd60f21b6064820152608401610b5b565b610c918383836126a8565b336000908152600a602052604090205460ff161515600114610dcd5760405162461bcd60e51b8152600401610b5b90614d27565b610dd681612701565b50565b610de282611988565b6001600160a01b0316336001600160a01b031614610e125760405162461bcd60e51b8152600401610b5b90614d5e565b610e1c8282612782565b336001600160a01b03167f6de6cd3982065cbd31e789e3109106f4d76d1c8a46e85262045cf947fb3fd4ed82844243604051610e5b9493929190614d95565b60405180910390a25050565b6000610e73600561280d565b905090565b336000908152600a602052604090205462010000900460ff16610ead5760405162461bcd60e51b8152600401610b5b90614dc4565b610f5a610ebd6020830183614952565b610eca6020840184614e05565b610ed76040860186614e05565b610ee46060880188614e05565b610ef160808a018a614e05565b60a08b0135610f046101008d018d614e4b565b808060200260200160405190810160405280939291908181526020016000905b82821015610f5057610f4160808302860136819003810190614e94565b81526020019060010190610f24565b5050505050612817565b610dd660c0820135610f6f60e0840184614e05565b8080601f016020809104026020016040519081016040528093929190818152602001838380828437600092019190915250610dd992505050565b336000908152600a602052604090205460ff161515600114610fdd5760405162461bcd60e51b8152600401610b5b90614d27565b6001600160a01b03811615610dd6576001600160a01b0381166000908152600a60205260409020805463ff0000001916630100000017815561101e82612c20565b6040805142815243602082015233916001600160a01b038516917feb09276310ed110a7e565d64966d0ff68a47112d2dd5eeb6cbd7451836ce35ee91015b60405180910390a35050565b60105460009060ff16156110d95760405162461bcd60e51b815260206004820152603260248201527f45524337323154656d706c6174653a20746f6b656e20696e7374616e636520616044820152711b1c9958591e481a5b9a5d1a585b1a5e995960721b6064820152608401610b5b565b6001600160a01b038516156110f1576110f185612cd7565b6001600160a01b038416156111095761110984612701565b60006111958c8c8c8080601f016020809104026020016040519081016040528093929190818152602001838380828437600081840152601f19601f820116905080830192505050505050508b8b8080601f0160208091040260200160405190810160405280939291908181526020018383808284376000920191909152508d92508a9150899050612d47565b905061119f612e97565b6111af632260147f60e11b612ec3565b6111bf632bd57b7360e01b612ec3565b9b9a5050505050505050505050565b336000908152600a602052604090205462010000900460ff166112035760405162461bcd60e51b8152600401610b5b90614dc4565b6112168b8b8b8b8b8b8b8b8b8b8b612817565b5050505050505050505050565b60175460ff166112455760405162461bcd60e51b8152600401610b5b90614eb0565b806001146112655760405162461bcd60e51b8152600401610b5b90614ef3565b6112cf6112ca60148054806020026020016040519081016040528092919081815260200182805480156112c157602002820191906000526020600020905b81546001600160a01b031681526001909101906020018083116112a3575b50505050505190565b612f42565b6112d7612fd3565b6112e082613084565b6001600160a01b0382166000908152600a60205260409020805463ffffff0019166301010100178155611314848484613101565b50505050565b336000908152600a602052604090205460ff1615156001148061136b5750336001600160a01b03821614801561136b5750336000908152600a60205260409020546301000000900460ff1615156001145b156113e8576001600160a01b0381166000818152600a602052604090819020805463ff000000191681559051909133917fc929b18b08ffea86a1f95e29384dbe8968f2fcbd70cfd735df3aba1cc548cbf3906113d39042904390918252602082015260400190565b60405180910390a36113e482613142565b5050565b60405162461bcd60e51b815260206004820152604660248201527f455243373231526f6c6573416464726573733a204e6f7420656e6f756768207060448201527f65726d697373696f6e7320746f2072656d6f76652066726f6d2037323553746f6064820152651c99531a5cdd60d21b608482015260a401610b5b565b61146f6001611988565b6001600160a01b0316336001600160a01b03161461149f5760405162461bcd60e51b8152600401610b5b90614d5e565b610dd681613084565b6001600160a01b03821660009081526004602052604081206114ca90836132b9565b90505b92915050565b60175460ff166114f55760405162461bcd60e51b8152600401610b5b90614eb0565b806001146115155760405162461bcd60e51b8152600401610b5b90614ef3565b6115786112ca60148054806020026020016040519081016040528092919081815260200182805480156112c1576020028201919060005260206000209081546001600160a01b031681526001909101906020018083116112a35750505050505190565b611580612fd3565b61158982613084565b6001600160a01b0382166000908152600a60209081526040808320805463ffffff00191663010101001781558151928301909152918152611314908590859085906132c5565b336000908152600a602052604090205460ff1615156001148061161f5750336001600160a01b03821614801561161f5750336000908152600a602052604090205462010000900460ff1615156001145b15611686576001600160a01b0381166000818152600a602052604090819020805462ff0000191681559051909133917f9b41e1311fa819e825bc77fa2568492112e15ea92d173f3f8ee1c8ec3c1c562b906113d39042904390918252602082015260400190565b60405162461bcd60e51b815260206004820152604760248201527f455243373231526f6c6573416464726573733a204e6f7420656e6f756768207060448201527f65726d697373696f6e7320746f2072656d6f76652066726f6d206d65746164616064820152661d18481b1a5cdd60ca1b608482015260a401610b5b565b60606014805480602002602001604051908101604052809291908181526020018280548015610ae957602002820191906000526020600020905b81546001600160a01b0316815260019091019060200180831161173e575050505050905090565b336000908152600a602052604090205462010000900460ff1661179a5760405162461bcd60e51b8152600401610b5b90614dc4565b6013805460ff191660ff831690811790915560408051918252426020830152439082015233907fa8336411cc72db0e5bdc4dff989eeb35879bafaceffb59b54b37645c3395adb99060600160405180910390a250565b336000908152600a602052604090205460ff1615156001146118245760405162461bcd60e51b8152600401610b5b90614d27565b610dd681612cd7565b6118376001611988565b6001600160a01b0316336001600160a01b0316146118675760405162461bcd60e51b8152600401610b5b90614d5e565b61186f612fd3565b61188161187c6001611988565b613084565b565b6000806118916005846132f7565b509392505050565b6000818152600c602052604090208054606091906118b690614cec565b80601f01602080910402602001604051908101604052809291908181526020018280546118e290614cec565b801561192f5780601f106119045761010080835404028352916020019161192f565b820191906000526020600020905b81548152906001019060200180831161191257829003601f168201915b50505050509050919050565b6119456001611988565b6001600160a01b0316336001600160a01b0316146119755760405162461bcd60e51b8152600401610b5b90614d5e565b80516113e490600390602084019061419b565b60006114cd826040518060600160405280602981526020016153c46029913960059190613315565b336000908152600a60205260409020546301000000900460ff16610d8e5760405162461bcd60e51b815260206004820152602160248201527f45524337323154656d706c6174653a204e4f542053544f5245205550444154456044820152602960f91b6064820152608401610b5b565b6060610e7361332c565b60006001600160a01b038216611a955760405162461bcd60e51b815260206004820152602a60248201527f4552433732313a2062616c616e636520717565727920666f7220746865207a65604482015269726f206164647265737360b01b6064820152608401610b5b565b6001600160a01b03821660009081526004602052604090206114cd9061280d565b60118054610ca390614cec565b6060600f8054610a7090614cec565b6001600160a01b038216331415611b2b5760405162461bcd60e51b815260206004820152601960248201527f4552433732313a20617070726f766520746f2063616c6c6572000000000000006044820152606401610b5b565b3360008181526008602090815260408083206001600160a01b03871680855290835292819020805460ff191686151590811790915590519081529192917f17307eab39ab6107e8899845ad3d59bd9653f200f220920489ca2b5937696c31910161105c565b611b9a6001611988565b6001600160a01b0316336001600160a01b031614611bca5760405162461bcd60e51b8152600401610b5b90614d5e565b610dd68161333b565b600b8181548110611be357600080fd5b6000918252602090912001546001600160a01b0316905081565b336000908152600a602052604090205460ff161515600114611c315760405162461bcd60e51b8152600401610b5b90614d27565b80518251148015611c43575060008151115b8015611c50575060328151105b611c915760405162461bcd60e51b8152602060048201526012602482015271496e76616c69642061727261792073697a6560701b6044820152606401610b5b565b60005b8151811015610c915760006001600160a01b0316838281518110611cba57611cba614f3f565b60200260200101516001600160a01b031614611ff3576000600a6000858481518110611ce857611ce8614f3f565b60200260200101516001600160a01b03166001600160a01b03168152602001908152602001600020905060006003811115611d2557611d25614f55565b838381518110611d3757611d37614f3f565b60200260200101516003811115611d5057611d50614f55565b1415611dcb57805460ff1916600117815583513390859084908110611d7757611d77614f3f565b60200260200101516001600160a01b03167faf8fc8b6726138c96881c895390a08e9d91a94c288f06281e7f9821c49c7155b4243604051611dc2929190918252602082015260400190565b60405180910390a35b6001838381518110611ddf57611ddf614f3f565b60200260200101516003811115611df857611df8614f55565b1415611e7557805461ff00191661010017815583513390859084908110611e2157611e21614f3f565b60200260200101516001600160a01b03167f0572d56343be407a66810f01449212e8545e14ff5049c479d34be944cdfd0d4f4243604051611e6c929190918252602082015260400190565b60405180910390a35b6002838381518110611e8957611e89614f3f565b60200260200101516003811115611ea257611ea2614f55565b1415611f2157805462ff000019166201000017815583513390859084908110611ecd57611ecd614f3f565b60200260200101516001600160a01b03167fc2a42571a74ce1442c8c44d375ba9442e7d55d94b37afeace261c83c62128fa44243604051611f18929190918252602082015260400190565b60405180910390a35b6003838381518110611f3557611f35614f3f565b60200260200101516003811115611f4e57611f4e614f55565b1415611fcf57805463ff0000001916630100000017815583513390859084908110611f7b57611f7b614f3f565b60200260200101516001600160a01b03167feb09276310ed110a7e565d64966d0ff68a47112d2dd5eeb6cbd7451836ce35ee4243604051611fc6929190918252602082015260400190565b60405180910390a35b611ff1848381518110611fe457611fe4614f3f565b6020026020010151612c20565b505b80611ffd81614f81565b915050611c94565b336000908152600a602052604090205460ff1615156001146120395760405162461bcd60e51b8152600401610b5b90614d27565b612046858585858561339b565b5050505050565b60606120588261262d565b6120bc5760405162461bcd60e51b815260206004820152602f60248201527f4552433732314d657461646174613a2055524920717565727920666f72206e6f60448201526e3732bc34b9ba32b73a103a37b5b2b760891b6064820152608401610b5b565b600082815260096020526040812080546120d590614cec565b80601f016020809104026020016040519081016040528092919081815260200182805461210190614cec565b801561214e5780601f106121235761010080835404028352916020019161214e565b820191906000526020600020905b81548152906001019060200180831161213157829003601f168201915b50505050509050600061215f61332c565b82519091501561219457808260405160200161217c929190614f9c565b60405160208183030381529060405292505050919050565b5092915050565b60608060008060116012601360009054906101000a900460ff16601060019054906101000a900460ff168380546121d190614cec565b80601f01602080910402602001604051908101604052809291908181526020018280546121fd90614cec565b801561224a5780601f1061221f5761010080835404028352916020019161224a565b820191906000526020600020905b81548152906001019060200180831161222d57829003601f168201915b5050505050935082805461225d90614cec565b80601f016020809104026020016040519081016040528092919081815260200182805461228990614cec565b80156122d65780601f106122ab576101008083540402835291602001916122d6565b820191906000526020600020905b8154815290600101906020018083116122b957829003601f168201915b50505050509250935093509350935090919293565b6122f56001611988565b6001600160a01b03166108fc479081150290604051600060405180830381858888f19350505050158015610dd6573d6000803e3d6000fd5b60006002600d5414156123825760405162461bcd60e51b815260206004820152601f60248201527f5265656e7472616e637947756172643a207265656e7472616e742063616c6c006044820152606401610b5b565b6002600d55336000908152600a6020526040902054610100900460ff166123fa5760405162461bcd60e51b815260206004820152602660248201527f45524337323154656d706c6174653a204e4f542045524332304445504c4f5945604482015265525f524f4c4560d01b6064820152608401610b5b565b601354604051630557fcfb60e41b815260009161010090046001600160a01b03169063557fcfb090612440908e908e908e908e908e908e908e908e908e90600401615115565b6020604051808303816000875af115801561245f573d6000803e3d6000fd5b505050506040513d601f19601f8201168201806040525081019061248391906151c6565b6001600160a01b0381166000818152601660205260408120805460ff191660019081179091556014805491820181559091527fce6d7b5282bd9a3661ae061feed1dbda4e52ab073b1f9285be6e155d9c38d4ec0180546001600160a01b03191690911790559150506001600d559998505050505050505050565b336000908152600a602052604090205460ff1615156001148061254d5750336001600160a01b03821614801561254d5750336000908152600a602052604090205460ff6101009091041615156001145b156125b3576001600160a01b0381166000818152600a602052604090819020805461ff00191681559051909133917f59bd33f4c27cc16a2d74450e1fa43d7896020be9aecea4bee009db9294de8997906113d39042904390918252602082015260400190565b60405162461bcd60e51b815260206004820152604360248201527f455243373231526f6c6573416464726573733a204e6f7420656e6f756768207060448201527f65726d697373696f6e7320746f2072656d6f76652066726f6d2045524332304c6064820152621a5cdd60ea1b608482015260a401610b5b565b60006114cd6005836135c4565b600081815260076020526040902080546001600160a01b0319166001600160a01b038416908117909155819061266f82611988565b6001600160a01b03167f8c5be1e5ebec7d5bd14f71427d1e84f3dd0314c0f7b2291e5b200ac8c7c3b92560405160405180910390a45050565b6000838152600c602052604090206126c190838361421f565b50827fece574603820d07bc9b91f2a932baadf4628aabcb8afba49776529c14a6104b283836040516126f49291906151e3565b60405180910390a2505050565b6001600160a01b03811615610dd6576001600160a01b0381166000908152600a60205260409020805462ff000019166201000017815561274082612c20565b6040805142815243602082015233916001600160a01b038516917fc2a42571a74ce1442c8c44d375ba9442e7d55d94b37afeace261c83c62128fa4910161105c565b61278b8261262d565b6127ee5760405162461bcd60e51b815260206004820152602e60248201527f45524337323155524953746f726167653a2055524920736574206f66206e6f6e60448201526d32bc34b9ba32b73a103a37b5b2b760911b6064820152608401610b5b565b60008281526009602090815260409091208251610c919284019061419b565b60006114cd825490565b6013805460ff191660ff8d1617905561283260118b8b61421f565b5061283f6012898961421f565b50601054610100900460ff166128b657336001600160a01b03167f5463569dcc320958360074a9ab27e809e8a6942c394fb151d139b5f7b4ecb1bd8c8c8c8a8a8a8a8a424360405161289a9a999897969594939291906151f7565b60405180910390a26010805461ff001916610100179055612908565b60135460405133917fe5c4cf86b1815151e6f453e1e133d4454ae3b0b07145db39f2e0178685deac84916128ff9160ff16908e908e908c908c908c908c908c90429043906151f7565b60405180910390a25b60328151111561294c5760405162461bcd60e51b815260206004820152600f60248201526e546f6f204d616e792050726f6f667360881b6044820152606401610b5b565b60408051808201909152601c81527f19457468657265756d205369676e6564204d6573736167653a0a333200000000602082015260005b8251811015612c115760006001600160a01b03168382815181106129a9576129a9614f3f565b6020026020010151600001516001600160a01b031614612b2b57600082856040516020016129d892919061525f565b6040516020818303038152906040528051906020012090506000600182868581518110612a0757612a07614f3f565b602002602001015160200151878681518110612a2557612a25614f3f565b602002602001015160400151888781518110612a4357612a43614f3f565b60200260200101516060015160405160008152602001604052604051612a85949392919093845260ff9290921660208401526040830152606082015260800190565b6020604051602081039080840390855afa158015612aa7573d6000803e3d6000fd5b505050602060405103519050848381518110612ac557612ac5614f3f565b6020026020010151600001516001600160a01b0316816001600160a01b031614612b285760405162461bcd60e51b815260206004820152601460248201527324b73b30b634b210383937b7b31039b4b3b732b960611b6044820152606401610b5b565b50505b828181518110612b3d57612b3d614f3f565b6020026020010151600001516001600160a01b03167f2819d8badf5cff2c9220b8ee99dacc14d67058e343d7f0c2c444d198507fe94185858481518110612b8657612b86614f3f565b602002602001015160200151868581518110612ba457612ba4614f3f565b602002602001015160400151878681518110612bc257612bc2614f3f565b602002602001015160600151604051612bf7949392919093845260ff9290921660208401526040830152606082015260800190565b60405180910390a280612c0981614f81565b915050612983565b50505050505050505050505050565b60005b600b54811015612c7c57816001600160a01b0316600b8281548110612c4a57612c4a614f3f565b6000918252602090912001546001600160a01b03161415612c6a57612c7c565b80612c7481614f81565b915050612c23565b600b548114156113e457600b80546001810182556000919091527f0175b7a638427703f0dbe7bb9bbf987a2551717b34e79f33b5b1008d1fa01db90180546001600160a01b0384166001600160a01b03199091161790555050565b6001600160a01b0381166000908152600a60205260409020805461ff001916610100178155612d0582612c20565b6040805142815243602082015233916001600160a01b038516917f0572d56343be407a66810f01449212e8545e14ff5049c479d34be944cdfd0d4f910161105c565b60006001600160a01b038716612db65760405162461bcd60e51b815260206004820152602e60248201527f45524337323154656d706c6174653a3a20496e76616c6964206d696e7465722c60448201526d20207a65726f206164647265737360901b6064820152608401610b5b565b8551612dc990600e90602089019061419b565b508451612ddd90600f90602088019061419b565b5060138054610100600160a81b0319166101006001600160a01b03871602179055604080516020810191829052600090819052612e1c9160039161419b565b5060108054600161ffff1990911681179091556017805460ff1916841515179055612e489088906135dc565b612e5187613084565b6001600160a01b0387166000908152600a60205260409020805463ffffff0019166301010100178155612e85600185612782565b505060105460ff169695505050505050565b612ea76380ac58cd60e01b612ec3565b612eb7635b5e139f60e01b612ec3565b61188163780e9d6360e01b5b6001600160e01b03198082161415612f1d5760405162461bcd60e51b815260206004820152601c60248201527f4552433136353a20696e76616c696420696e74657266616365206964000000006044820152606401610b5b565b6001600160e01b0319166000908152602081905260409020805460ff19166001179055565b60005b818110156113e45760148181548110612f6057612f60614f3f565b6000918252602082200154604080516382c03da560e01b815290516001600160a01b03909216926382c03da59260048084019382900301818387803b158015612fa857600080fd5b505af1158015612fbc573d6000803e3d6000fd5b505050508080612fcb90614f81565b915050612f45565b60005b600b5481101561303b576000600a6000600b8481548110612ff957612ff9614f3f565b60009182526020808320909101546001600160a01b031683528201929092526040019020805463ffffffff19169055508061303381614f81565b915050612fd6565b50613048600b6000614293565b6040805142815243602082015233917f712bc71db81927a76b8bf1ea346247bb0ad58f18e4e5c1bd4aa0ec6573e02a2b910160405180910390a2565b6001600160a01b03811615610dd6576001600160a01b0381166000908152600a60205260409020805460ff191660011781556130bf82612c20565b6040805142815243602082015233916001600160a01b038516917faf8fc8b6726138c96881c895390a08e9d91a94c288f06281e7f9821c49c7155b910161105c565b61310b33826135f6565b6131275760405162461bcd60e51b8152600401610b5b90615281565b610c91838383604051806020016040528060008152506132c5565b6001600160a01b0381166000908152600a60205260409020805460ff1615801561317357508054610100900460ff16155b80156131875750805462010000900460ff16155b801561319c575080546301000000900460ff16155b156113e45760005b600b548110156131fd57826001600160a01b0316600b82815481106131cb576131cb614f3f565b6000918252602090912001546001600160a01b031614156131eb576131fd565b806131f581614f81565b9150506131a4565b600b54811015610c9157600b8054613217906001906152d2565b8154811061322757613227614f3f565b600091825260209091200154600b80546001600160a01b03909216918390811061325357613253614f3f565b9060005260206000200160006101000a8154816001600160a01b0302191690836001600160a01b03160217905550600b805480613292576132926152e9565b600082815260209020810160001990810180546001600160a01b0319169055019055505050565b60006114ca83836136e0565b6132cf33836135f6565b6132eb5760405162461bcd60e51b8152600401610b5b90615281565b61131484848484613766565b60008080806133068686613799565b909450925050505b9250929050565b6000613322848484613836565b90505b9392505050565b606060038054610a7090614cec565b6001600160a01b0381166000818152600a602052604090819020805460ff191681559051909133917fb572db0e6da4924b771ed1712b980d48b5992b9a1c27aede55fbb3318c48996a906113d39042904390918252602082015260400190565b82846001600160a01b0316867f1f920dbda597d7bf95035464170fa58d0a4b57f13a1c315ace6793b9f63688b885856040516133d89291906151e3565b60405180910390a460006109c45a6133f091906152d2565b9050856134405761343a858585858080601f01602080910402602001604051908101604052809392919081815260200183838082843760009201919091525087925061389f915050565b506135bc565b60038614156134895761343a8484848080601f0160208091040260200160405190810160405280939291908181526020018383808284376000920191909152506138b792505050565b600286141561357d5760006134e084848080601f0160208091040260200160405190810160405280939291908181526020018383808284376000920191909152506134db9250602091508790506152d2565b613953565b9050600061352f85858080601f0160208091040260200160405190810160405280939291908181526020018383808284376000920182905250925061352a915060209050886152d2565b6139b1565b9050600061353e878484613abe565b6040519091506001600160a01b038216907fcf78cf0d6f3d8371e1075c69c492ab4ec5d8cf23a1a239b6a51a1d00be7ca31290600090a25050506135bc565b60405162461bcd60e51b815260206004820152601460248201527357726f6e67206f7065726174696f6e207479706560601b6044820152606401610b5b565b505050505050565b600081815260018301602052604081205415156114ca565b6113e4828260405180602001604052806000815250613bc0565b60006136018261262d565b6136625760405162461bcd60e51b815260206004820152602c60248201527f4552433732313a206f70657261746f7220717565727920666f72206e6f6e657860448201526b34b9ba32b73a103a37b5b2b760a11b6064820152608401610b5b565b600061366d83611988565b9050806001600160a01b0316846001600160a01b031614806136a85750836001600160a01b031661369d84610af3565b6001600160a01b0316145b806136d857506001600160a01b0380821660009081526008602090815260408083209388168352929052205460ff165b949350505050565b8154600090821061373e5760405162461bcd60e51b815260206004820152602260248201527f456e756d657261626c655365743a20696e646578206f7574206f6620626f756e604482015261647360f01b6064820152608401610b5b565b82600001828154811061375357613753614f3f565b9060005260206000200154905092915050565b613771848484613bf3565b61377d84848484613d74565b6113145760405162461bcd60e51b8152600401610b5b906152ff565b8154600090819083106137f95760405162461bcd60e51b815260206004820152602260248201527f456e756d657261626c654d61703a20696e646578206f7574206f6620626f756e604482015261647360f01b6064820152608401610b5b565b600084600001848154811061381057613810614f3f565b906000526020600020906002020190508060000154816001015492509250509250929050565b600082815260018401602052604081205482816138665760405162461bcd60e51b8152600401610b5b919061434d565b50846138736001836152d2565b8154811061388357613883614f3f565b9060005260206000209060020201600101549150509392505050565b6000806000845160208601878987f195945050505050565b600081516020830184f090506001600160a01b0381166139195760405162461bcd60e51b815260206004820152601960248201527f436f756c64206e6f74206465706c6f7920636f6e7472616374000000000000006044820152606401610b5b565b6040516001600160a01b038216907fcf78cf0d6f3d8371e1075c69c492ab4ec5d8cf23a1a239b6a51a1d00be7ca31290600090a292915050565b6000613960826020615351565b835110156139a85760405162461bcd60e51b8152602060048201526015602482015274746f427974657333325f6f75744f66426f756e647360581b6044820152606401610b5b565b50016020015190565b6060816139bf81601f615351565b10156139fe5760405162461bcd60e51b815260206004820152600e60248201526d736c6963655f6f766572666c6f7760901b6044820152606401610b5b565b613a088284615351565b84511015613a4c5760405162461bcd60e51b8152602060048201526011602482015270736c6963655f6f75744f66426f756e647360781b6044820152606401610b5b565b606082158015613a6b5760405191506000825260208201604052613ab5565b6040519150601f8416801560200281840101858101878315602002848b0101015b81831015613aa4578051835260209283019201613a8c565b5050858452601f01601f1916604052505b50949350505050565b60008084471015613b115760405162461bcd60e51b815260206004820152601d60248201527f437265617465323a20696e73756666696369656e742062616c616e63650000006044820152606401610b5b565b8251613b5f5760405162461bcd60e51b815260206004820181905260248201527f437265617465323a2062797465636f6465206c656e677468206973207a65726f6044820152606401610b5b565b8383516020850187f590506001600160a01b0381166133225760405162461bcd60e51b815260206004820152601960248201527f437265617465323a204661696c6564206f6e206465706c6f79000000000000006044820152606401610b5b565b613bca8383613e72565b613bd76000848484613d74565b610c915760405162461bcd60e51b8152600401610b5b906152ff565b826001600160a01b0316613c0682611988565b6001600160a01b031614613c6e5760405162461bcd60e51b815260206004820152602960248201527f4552433732313a207472616e73666572206f6620746f6b656e2074686174206960448201526839903737ba1037bbb760b91b6064820152608401610b5b565b6001600160a01b038216613cd05760405162461bcd60e51b8152602060048201526024808201527f4552433732313a207472616e7366657220746f20746865207a65726f206164646044820152637265737360e01b6064820152608401610b5b565b613cdb60008261263a565b6001600160a01b0383166000908152600460205260409020613cfd9082613f8a565b506001600160a01b0382166000908152600460205260409020613d209082613f96565b50613d2d60058284613fa2565b5080826001600160a01b0316846001600160a01b03167fddf252ad1be2c89b69c2b068fc378daa952ba7f163c4a11628f55a4df523b3ef60405160405180910390a4505050565b60006001600160a01b0384163b15613e6757604051630a85bd0160e11b81526001600160a01b0385169063150b7a0290613db8903390899088908890600401615369565b6020604051808303816000875af1925050508015613df3575060408051601f3d908101601f19168201909252613df0918101906153a6565b60015b613e4d573d808015613e21576040519150601f19603f3d011682016040523d82523d6000602084013e613e26565b606091505b508051613e455760405162461bcd60e51b8152600401610b5b906152ff565b805181602001fd5b6001600160e01b031916630a85bd0160e11b1490506136d8565b506001949350505050565b6001600160a01b038216613ec85760405162461bcd60e51b815260206004820181905260248201527f4552433732313a206d696e7420746f20746865207a65726f20616464726573736044820152606401610b5b565b613ed18161262d565b15613f1e5760405162461bcd60e51b815260206004820152601c60248201527f4552433732313a20746f6b656e20616c7265616479206d696e746564000000006044820152606401610b5b565b6001600160a01b0382166000908152600460205260409020613f409082613f96565b50613f4d60058284613fa2565b5060405181906001600160a01b038416906000907fddf252ad1be2c89b69c2b068fc378daa952ba7f163c4a11628f55a4df523b3ef908290a45050565b60006114ca8383613fb8565b60006114ca83836140ab565b600061332284846001600160a01b0385166140fa565b600081815260018301602052604081205480156140a1576000613fdc6001836152d2565b8554909150600090613ff0906001906152d2565b9050600086600001828154811061400957614009614f3f565b906000526020600020015490508087600001848154811061402c5761402c614f3f565b600091825260209091200155614043836001615351565b60008281526001890160205260409020558654879080614065576140656152e9565b600190038181906000526020600020016000905590558660010160008781526020019081526020016000206000905560019450505050506114cd565b60009150506114cd565b60008181526001830160205260408120546140f2575081546001818101845560008481526020808220909301849055845484825282860190935260409020919091556114cd565b5060006114cd565b60008281526001840160205260408120548061415f575050604080518082018252838152602080820184815286546001818101895560008981528481209551600290930290950191825591519082015586548684528188019092529290912055613325565b828561416c6001846152d2565b8154811061417c5761417c614f3f565b9060005260206000209060020201600101819055506000915050613325565b8280546141a790614cec565b90600052602060002090601f0160209004810192826141c9576000855561420f565b82601f106141e257805160ff191683800117855561420f565b8280016001018555821561420f579182015b8281111561420f5782518255916020019190600101906141f4565b5061421b9291506142ad565b5090565b82805461422b90614cec565b90600052602060002090601f01602090048101928261424d576000855561420f565b82601f106142665782800160ff1982351617855561420f565b8280016001018555821561420f579182015b8281111561420f578235825591602001919060010190614278565b5080546000825590600052602060002090810190610dd691905b5b8082111561421b57600081556001016142ae565b6001600160e01b031981168114610dd657600080fd5b6000602082840312156142ea57600080fd5b8135613325816142c2565b60005b838110156143105781810151838201526020016142f8565b838111156113145750506000910152565b600081518084526143398160208601602086016142f5565b601f01601f19169290920160200192915050565b6020815260006114ca6020830184614321565b60006020828403121561437257600080fd5b5035919050565b6001600160a01b0381168114610dd657600080fd5b803561439981614379565b919050565b600080604083850312156143b157600080fd5b82356143bc81614379565b946020939093013593505050565b60008083601f8401126143dc57600080fd5b5081356001600160401b038111156143f357600080fd5b60208301915083602082850101111561330e57600080fd5b60008060006040848603121561442057600080fd5b8335925060208401356001600160401b0381111561443d57600080fd5b614449868287016143ca565b9497909650939450505050565b60006020828403121561446857600080fd5b813561332581614379565b634e487b7160e01b600052604160045260246000fd5b604051601f8201601f191681016001600160401b03811182821017156144b1576144b1614473565b604052919050565b600082601f8301126144ca57600080fd5b81356001600160401b038111156144e3576144e3614473565b6144f6601f8201601f1916602001614489565b81815284602083860101111561450b57600080fd5b816020850160208301376000918101602001919091529392505050565b6000806040838503121561453b57600080fd5b8235915060208301356001600160401b0381111561455857600080fd5b614564858286016144b9565b9150509250929050565b60006020828403121561458057600080fd5b81356001600160401b0381111561459657600080fd5b8201610120818503121561332557600080fd5b8035801515811461439957600080fd5b6000806000806000806000806000806101008b8d0312156145d957600080fd5b6145e28b61438e565b995060208b01356001600160401b03808211156145fe57600080fd5b61460a8e838f016143ca565b909b50995060408d013591508082111561462357600080fd5b61462f8e838f016143ca565b909950975087915061464360608e0161438e565b965061465160808e0161438e565b955061465f60a08e0161438e565b945060c08d013591508082111561467557600080fd5b506146828d828e016144b9565b92505061469160e08c016145a9565b90509295989b9194979a5092959850565b803560ff8116811461439957600080fd5b60006001600160401b038211156146cc576146cc614473565b5060051b60200190565b6000608082840312156146e857600080fd5b604051608081018181106001600160401b038211171561470a5761470a614473565b604052905080823561471b81614379565b8152614729602084016146a2565b602082015260408301356040820152606083013560608201525092915050565b600082601f83011261475a57600080fd5b8135602061476f61476a836146b3565b614489565b82815260079290921b8401810191818101908684111561478e57600080fd5b8286015b848110156147b2576147a488826146d6565b835291830191608001614792565b509695505050505050565b600080600080600080600080600080600060e08c8e0312156147de57600080fd5b6147e78c6146a2565b9a506001600160401b038060208e0135111561480257600080fd5b6148128e60208f01358f016143ca565b909b50995060408d013581101561482857600080fd5b6148388e60408f01358f016143ca565b909950975060608d013581101561484e57600080fd5b61485e8e60608f01358f016143ca565b909750955060808d013581101561487457600080fd5b6148848e60808f01358f016143ca565b909550935060a08d0135925060c08d01358110156148a157600080fd5b506148b28d60c08e01358e01614749565b90509295989b509295989b9093969950565b6000806000606084860312156148d957600080fd5b83356148e481614379565b925060208401356148f481614379565b929592945050506040919091013590565b6020808252825182820181905260009190848201906040850190845b818110156149465783516001600160a01b031683529284019291840191600101614921565b50909695505050505050565b60006020828403121561496457600080fd5b6114ca826146a2565b60006020828403121561497f57600080fd5b81356001600160401b0381111561499557600080fd5b6136d8848285016144b9565b600080604083850312156149b457600080fd5b82356149bf81614379565b91506149cd602084016145a9565b90509250929050565b600082601f8301126149e757600080fd5b813560206149f761476a836146b3565b82815260059290921b84018101918181019086841115614a1657600080fd5b8286015b848110156147b257803560048110614a325760008081fd5b8352918301918301614a1a565b60008060408385031215614a5257600080fd5b82356001600160401b0380821115614a6957600080fd5b818501915085601f830112614a7d57600080fd5b81356020614a8d61476a836146b3565b82815260059290921b84018101918181019089841115614aac57600080fd5b948201945b83861015614ad3578535614ac481614379565b82529482019490820190614ab1565b96505086013592505080821115614ae957600080fd5b50614564858286016149d6565b600080600080600060808688031215614b0e57600080fd5b853594506020860135614b2081614379565b93506040860135925060608601356001600160401b03811115614b4257600080fd5b614b4e888289016143ca565b969995985093965092949392505050565b608081526000614b726080830187614321565b8281036020840152614b848187614321565b60ff959095166040840152505090151560609091015292915050565b60008083601f840112614bb257600080fd5b5081356001600160401b03811115614bc957600080fd5b6020830191508360208260051b850101111561330e57600080fd5b600080600080600080600080600060a08a8c031215614c0257600080fd5b8935985060208a01356001600160401b0380821115614c2057600080fd5b614c2c8d838e01614ba0565b909a50985060408c0135915080821115614c4557600080fd5b614c518d838e01614ba0565b909850965060608c0135915080821115614c6a57600080fd5b614c768d838e01614ba0565b909650945060808c0135915080821115614c8f57600080fd5b50614c9c8c828d01614ba0565b915080935050809150509295985092959850929598565b60008060408385031215614cc657600080fd5b8235614cd181614379565b91506020830135614ce181614379565b809150509250929050565b600181811c90821680614d0057607f821691505b60208210811415614d2157634e487b7160e01b600052602260045260246000fd5b50919050565b6020808252601f908201527f455243373231526f6c6573416464726573733a204e4f54204d414e4147455200604082015260600190565b6020808252601c908201527f45524337323154656d706c6174653a206e6f74204e46544f776e657200000000604082015260600190565b608081526000614da86080830187614321565b6020830195909552506040810192909252606090910152919050565b60208082526021908201527f45524337323154656d706c6174653a204e4f54204d455441444154415f524f4c6040820152604560f81b606082015260800190565b6000808335601e19843603018112614e1c57600080fd5b8301803591506001600160401b03821115614e3657600080fd5b60200191503681900382131561330e57600080fd5b6000808335601e19843603018112614e6257600080fd5b8301803591506001600160401b03821115614e7c57600080fd5b6020019150600781901b360382131561330e57600080fd5b600060808284031215614ea657600080fd5b6114ca83836146d6565b60208082526023908201527f45524337323154656d706c6174653a204973206e6f6e207472616e7366657261604082015262626c6560e81b606082015260800190565b6020808252602c908201527f45524337323154656d706c6174653a2043616e6e6f74207472616e736665722060408201526b1d1a1a5cc81d1bdad95b925960a21b606082015260800190565b634e487b7160e01b600052603260045260246000fd5b634e487b7160e01b600052602160045260246000fd5b634e487b7160e01b600052601160045260246000fd5b6000600019821415614f9557614f95614f6b565b5060010190565b60008351614fae8184602088016142f5565b835190830190614fc28183602088016142f5565b01949350505050565b81835281816020850137506000828201602090810191909152601f909101601f19169091010190565b6000808335601e1984360301811261500b57600080fd5b83016020810192503590506001600160401b0381111561502a57600080fd5b80360383131561330e57600080fd5b8183526000602080850194508260005b8581101561507757813561505c81614379565b6001600160a01b031687529582019590820190600101615049565b509495945050505050565b81835260006001600160fb1b0383111561509b57600080fd5b8260051b8083602087013760009401602001938452509192915050565b81835260006020808501808196508560051b810191508460005b878110156151085782840389526150e98288614ff4565b6150f4868284614fcb565b9a87019a95505050908401906001016150d2565b5091979650505050505050565b89815260a0602082018190528101889052600060c060058a901b830181019083018b835b8c8110156151765785840360bf19018352615154828f614ff4565b61515f868284614fcb565b955050506020928301929190910190600101615139565b505050828103604084015261518c81898b615039565b905082810360608401526151a1818789615082565b905082810360808401526151b68185876150b8565b9c9b505050505050505050505050565b6000602082840312156151d857600080fd5b815161332581614379565b602081526000613322602083018486614fcb565b60ff8b16815260e06020820152600061521460e083018b8d614fcb565b8281036040840152615227818a8c614fcb565b9050828103606084015261523c81888a614fcb565b6080840196909652505060a081019290925260c090910152979650505050505050565b600083516152718184602088016142f5565b9190910191825250602001919050565b60208082526031908201527f4552433732313a207472616e736665722063616c6c6572206973206e6f74206f6040820152701ddb995c881b9bdc88185c1c1c9bdd9959607a1b606082015260800190565b6000828210156152e4576152e4614f6b565b500390565b634e487b7160e01b600052603160045260246000fd5b60208082526032908201527f4552433732313a207472616e7366657220746f206e6f6e20455243373231526560408201527131b2b4bb32b91034b6b83632b6b2b73a32b960711b606082015260800190565b6000821982111561536457615364614f6b565b500190565b6001600160a01b038581168252841660208201526040810183905260806060820181905260009061539c90830184614321565b9695505050505050565b6000602082840312156153b857600080fd5b8151613325816142c256fe4552433732313a206f776e657220717565727920666f72206e6f6e6578697374656e7420746f6b656ea2646970667358221220e5753eab8e0b9f58d6c72013c18bcc10d3a7193afb668c21162f5a5a92d655dd64736f6c634300080c0033",
  "linkReferences": {},
  "deployedLinkReferences": {}
}