{
  "_format": "hh-sol-artifact-1",
  "contractName": "ERC721Template",
  "sourceName": "contracts/templates/ERC721Template.sol",
  "abi": [
    {
      "anonymous": false,
      "inputs": [
        {
          "indexed": true,
          "internalType": "address",
          "name": "user",
          "type": "address"
        },
        {
          "indexed": true,
          "internalType": "address",
          "name": "signer",
          "type": "address"
        },
        {
          "indexed": false,
          "internalType": "uint256",
          "name": "timestamp",
          "type": "uint256"
        },
        {
          "indexed": false,
          "internalType": "uint256",
          "name": "blockNumber",
          "type": "uint256"
        }
      ],
      "name": "AddedManager",
      "type": "event"
    },
    {
      "anonymous": false,
      "inputs": [
        {
          "indexed": true,
          "internalType": "address",
          "name": "user",
          "type": "address"
        },
        {
          "indexed": true,
          "internalType": "address",
          "name": "signer",
          "type": "address"
        },
        {
          "indexed": false,
          "internalType": "uint256",
          "name": "timestamp",
          "type": "uint256"
        },
        {
          "indexed": false,
          "internalType": "uint256",
          "name": "blockNumber",
          "type": "uint256"
        }
      ],
      "name": "AddedTo725StoreList",
      "type": "event"
    },
    {
      "anonymous": false,
      "inputs": [
        {
          "indexed": true,
          "internalType": "address",
          "name": "user",
          "type": "address"
        },
        {
          "indexed": true,
          "internalType": "address",
          "name": "signer",
          "type": "address"
        },
        {
          "indexed": false,
          "internalType": "uint256",
          "name": "timestamp",
          "type": "uint256"
        },
        {
          "indexed": false,
          "internalType": "uint256",
          "name": "blockNumber",
          "type": "uint256"
        }
      ],
      "name": "AddedToCreateERC20List",
      "type": "event"
    },
    {
      "anonymous": false,
      "inputs": [
        {
          "indexed": true,
          "internalType": "address",
          "name": "user",
          "type": "address"
        },
        {
          "indexed": true,
          "internalType": "address",
          "name": "signer",
          "type": "address"
        },
        {
          "indexed": false,
          "internalType": "uint256",
          "name": "timestamp",
          "type": "uint256"
        },
        {
          "indexed": false,
          "internalType": "uint256",
          "name": "blockNumber",
          "type": "uint256"
        }
      ],
      "name": "AddedToMetadataList",
      "type": "event"
    },
    {
      "anonymous": false,
      "inputs": [
        {
          "indexed": true,
          "internalType": "address",
          "name": "user",
          "type": "address"
        },
        {
          "indexed": true,
          "internalType": "address",
          "name": "signer",
          "type": "address"
        },
        {
          "indexed": false,
          "internalType": "uint256",
          "name": "timestamp",
          "type": "uint256"
        },
        {
          "indexed": false,
          "internalType": "uint256",
          "name": "blockNumber",
          "type": "uint256"
        }
      ],
      "name": "AddedV3Minter",
      "type": "event"
    },
    {
      "anonymous": false,
      "inputs": [
        {
          "indexed": true,
          "internalType": "address",
          "name": "owner",
          "type": "address"
        },
        {
          "indexed": true,
          "internalType": "address",
          "name": "approved",
          "type": "address"
        },
        {
          "indexed": true,
          "internalType": "uint256",
          "name": "tokenId",
          "type": "uint256"
        }
      ],
      "name": "Approval",
      "type": "event"
    },
    {
      "anonymous": false,
      "inputs": [
        {
          "indexed": true,
          "internalType": "address",
          "name": "owner",
          "type": "address"
        },
        {
          "indexed": true,
          "internalType": "address",
          "name": "operator",
          "type": "address"
        },
        {
          "indexed": false,
          "internalType": "bool",
          "name": "approved",
          "type": "bool"
        }
      ],
      "name": "ApprovalForAll",
      "type": "event"
    },
    {
      "anonymous": false,
      "inputs": [
        {
          "indexed": true,
          "internalType": "address",
          "name": "signer",
          "type": "address"
        },
        {
          "indexed": false,
          "internalType": "uint256",
          "name": "timestamp",
          "type": "uint256"
        },
        {
          "indexed": false,
          "internalType": "uint256",
          "name": "blockNumber",
          "type": "uint256"
        }
      ],
      "name": "CleanedPermissions",
      "type": "event"
    },
    {
      "anonymous": false,
      "inputs": [
        {
          "indexed": true,
          "internalType": "address",
          "name": "contractAddress",
          "type": "address"
        }
      ],
      "name": "ContractCreated",
      "type": "event"
    },
    {
      "anonymous": false,
      "inputs": [
        {
          "indexed": true,
          "internalType": "bytes32",
          "name": "key",
          "type": "bytes32"
        },
        {
          "indexed": false,
          "internalType": "bytes",
          "name": "value",
          "type": "bytes"
        }
      ],
      "name": "DataChanged",
      "type": "event"
    },
    {
      "anonymous": false,
      "inputs": [
        {
          "indexed": true,
          "internalType": "uint256",
          "name": "_operation",
          "type": "uint256"
        },
        {
          "indexed": true,
          "internalType": "address",
          "name": "_to",
          "type": "address"
        },
        {
          "indexed": true,
          "internalType": "uint256",
          "name": "_value",
          "type": "uint256"
        },
        {
          "indexed": false,
          "internalType": "bytes",
          "name": "_data",
          "type": "bytes"
        }
      ],
      "name": "Executed",
      "type": "event"
    },
    {
      "anonymous": false,
      "inputs": [
        {
          "indexed": true,
          "internalType": "address",
          "name": "createdBy",
          "type": "address"
        },
        {
          "indexed": false,
          "internalType": "uint8",
          "name": "state",
          "type": "uint8"
        },
        {
          "indexed": false,
          "internalType": "string",
          "name": "decryptorUrl",
          "type": "string"
        },
        {
          "indexed": false,
          "internalType": "bytes",
          "name": "flags",
          "type": "bytes"
        },
        {
          "indexed": false,
          "internalType": "bytes",
          "name": "data",
          "type": "bytes"
        },
        {
          "indexed": false,
          "internalType": "bytes",
          "name": "metaDataHash",
          "type": "bytes"
        },
        {
          "indexed": false,
          "internalType": "uint256",
          "name": "timestamp",
          "type": "uint256"
        },
        {
          "indexed": false,
          "internalType": "uint256",
          "name": "blockNumber",
          "type": "uint256"
        }
      ],
      "name": "MetadataCreated",
      "type": "event"
    },
    {
      "anonymous": false,
      "inputs": [
        {
          "indexed": true,
          "internalType": "address",
          "name": "updatedBy",
          "type": "address"
        },
        {
          "indexed": false,
          "internalType": "uint8",
          "name": "state",
          "type": "uint8"
        },
        {
          "indexed": false,
          "internalType": "string",
          "name": "decryptorUrl",
          "type": "string"
        },
        {
          "indexed": false,
          "internalType": "bytes",
          "name": "flags",
          "type": "bytes"
        },
        {
          "indexed": false,
          "internalType": "bytes",
          "name": "data",
          "type": "bytes"
        },
        {
          "indexed": false,
          "internalType": "bytes",
          "name": "metaDataHash",
          "type": "bytes"
        },
        {
          "indexed": false,
          "internalType": "uint256",
          "name": "timestamp",
          "type": "uint256"
        },
        {
          "indexed": false,
          "internalType": "uint256",
          "name": "blockNumber",
          "type": "uint256"
        }
      ],
      "name": "MetadataUpdated",
      "type": "event"
    },
    {
      "anonymous": false,
      "inputs": [
        {
          "indexed": true,
          "internalType": "address",
          "name": "user",
          "type": "address"
        },
        {
          "indexed": true,
          "internalType": "address",
          "name": "signer",
          "type": "address"
        },
        {
          "indexed": false,
          "internalType": "uint256",
          "name": "timestamp",
          "type": "uint256"
        },
        {
          "indexed": false,
          "internalType": "uint256",
          "name": "blockNumber",
          "type": "uint256"
        }
      ],
      "name": "RemovedFrom725StoreList",
      "type": "event"
    },
    {
      "anonymous": false,
      "inputs": [
        {
          "indexed": true,
          "internalType": "address",
          "name": "user",
          "type": "address"
        },
        {
          "indexed": true,
          "internalType": "address",
          "name": "signer",
          "type": "address"
        },
        {
          "indexed": false,
          "internalType": "uint256",
          "name": "timestamp",
          "type": "uint256"
        },
        {
          "indexed": false,
          "internalType": "uint256",
          "name": "blockNumber",
          "type": "uint256"
        }
      ],
      "name": "RemovedFromCreateERC20List",
      "type": "event"
    },
    {
      "anonymous": false,
      "inputs": [
        {
          "indexed": true,
          "internalType": "address",
          "name": "user",
          "type": "address"
        },
        {
          "indexed": true,
          "internalType": "address",
          "name": "signer",
          "type": "address"
        },
        {
          "indexed": false,
          "internalType": "uint256",
          "name": "timestamp",
          "type": "uint256"
        },
        {
          "indexed": false,
          "internalType": "uint256",
          "name": "blockNumber",
          "type": "uint256"
        }
      ],
      "name": "RemovedFromMetadataList",
      "type": "event"
    },
    {
      "anonymous": false,
      "inputs": [
        {
          "indexed": true,
          "internalType": "address",
          "name": "user",
          "type": "address"
        },
        {
          "indexed": true,
          "internalType": "address",
          "name": "signer",
          "type": "address"
        },
        {
          "indexed": false,
          "internalType": "uint256",
          "name": "timestamp",
          "type": "uint256"
        },
        {
          "indexed": false,
          "internalType": "uint256",
          "name": "blockNumber",
          "type": "uint256"
        }
      ],
      "name": "RemovedManager",
      "type": "event"
    },
    {
      "anonymous": false,
      "inputs": [
        {
          "indexed": true,
          "internalType": "address",
          "name": "user",
          "type": "address"
        },
        {
          "indexed": true,
          "internalType": "address",
          "name": "signer",
          "type": "address"
        },
        {
          "indexed": false,
          "internalType": "uint256",
          "name": "timestamp",
          "type": "uint256"
        },
        {
          "indexed": false,
          "internalType": "uint256",
          "name": "blockNumber",
          "type": "uint256"
        }
      ],
      "name": "RemovedV3Minter",
      "type": "event"
    },
    {
      "anonymous": false,
      "inputs": [
        {
          "indexed": true,
          "internalType": "address",
          "name": "newTokenAddress",
          "type": "address"
        },
        {
          "indexed": true,
          "internalType": "address",
          "name": "templateAddress",
          "type": "address"
        },
        {
          "indexed": true,
          "internalType": "string",
          "name": "tokenName",
          "type": "string"
        }
      ],
      "name": "TokenCreated",
      "type": "event"
    },
    {
      "anonymous": false,
      "inputs": [
        {
          "indexed": true,
          "internalType": "address",
          "name": "from",
          "type": "address"
        },
        {
          "indexed": true,
          "internalType": "address",
          "name": "to",
          "type": "address"
        },
        {
          "indexed": true,
          "internalType": "uint256",
          "name": "tokenId",
          "type": "uint256"
        }
      ],
      "name": "Transfer",
      "type": "event"
    },
    {
      "stateMutability": "payable",
      "type": "fallback"
    },
    {
      "inputs": [
        {
          "internalType": "address",
          "name": "_managerAddress",
          "type": "address"
        }
      ],
      "name": "addManager",
      "outputs": [],
      "stateMutability": "nonpayable",
      "type": "function"
    },
    {
      "inputs": [
        {
          "internalType": "address",
          "name": "_allowedAddress",
          "type": "address"
        }
      ],
      "name": "addTo725StoreList",
      "outputs": [],
      "stateMutability": "nonpayable",
      "type": "function"
    },
    {
      "inputs": [
        {
          "internalType": "address",
          "name": "_allowedAddress",
          "type": "address"
        }
      ],
      "name": "addToCreateERC20List",
      "outputs": [],
      "stateMutability": "nonpayable",
      "type": "function"
    },
    {
      "inputs": [
        {
          "internalType": "address",
          "name": "_allowedAddress",
          "type": "address"
        }
      ],
      "name": "addToMetadataList",
      "outputs": [],
      "stateMutability": "nonpayable",
      "type": "function"
    },
    {
      "inputs": [
        {
          "internalType": "address",
          "name": "to",
          "type": "address"
        },
        {
          "internalType": "uint256",
          "name": "tokenId",
          "type": "uint256"
        }
      ],
      "name": "approve",
      "outputs": [],
      "stateMutability": "nonpayable",
      "type": "function"
    },
    {
      "inputs": [
        {
          "internalType": "uint256",
          "name": "",
          "type": "uint256"
        }
      ],
      "name": "auth",
      "outputs": [
        {
          "internalType": "address",
          "name": "",
          "type": "address"
        }
      ],
      "stateMutability": "view",
      "type": "function"
    },
    {
      "inputs": [
        {
          "internalType": "address",
          "name": "owner",
          "type": "address"
        }
      ],
      "name": "balanceOf",
      "outputs": [
        {
          "internalType": "uint256",
          "name": "",
          "type": "uint256"
        }
      ],
      "stateMutability": "view",
      "type": "function"
    },
    {
      "inputs": [],
      "name": "cleanPermissions",
      "outputs": [],
      "stateMutability": "nonpayable",
      "type": "function"
    },
    {
      "inputs": [
        {
          "internalType": "uint256",
          "name": "_templateIndex",
          "type": "uint256"
        },
        {
          "internalType": "string[]",
          "name": "strings",
          "type": "string[]"
        },
        {
          "internalType": "address[]",
          "name": "addresses",
          "type": "address[]"
        },
        {
          "internalType": "uint256[]",
          "name": "uints",
          "type": "uint256[]"
        },
        {
          "internalType": "bytes[]",
          "name": "bytess",
          "type": "bytes[]"
        }
      ],
      "name": "createERC20",
      "outputs": [
        {
          "internalType": "address",
          "name": "",
          "type": "address"
        }
      ],
      "stateMutability": "nonpayable",
      "type": "function"
    },
    {
      "inputs": [
        {
          "internalType": "uint256",
          "name": "_operation",
          "type": "uint256"
        },
        {
          "internalType": "address",
          "name": "_to",
          "type": "address"
        },
        {
          "internalType": "uint256",
          "name": "_value",
          "type": "uint256"
        },
        {
          "internalType": "bytes",
          "name": "_data",
          "type": "bytes"
        }
      ],
      "name": "executeCall",
      "outputs": [],
      "stateMutability": "payable",
      "type": "function"
    },
    {
      "inputs": [
        {
          "internalType": "uint256",
          "name": "tokenId",
          "type": "uint256"
        }
      ],
      "name": "getApproved",
      "outputs": [
        {
          "internalType": "address",
          "name": "",
          "type": "address"
        }
      ],
      "stateMutability": "view",
      "type": "function"
    },
    {
      "inputs": [
        {
          "internalType": "bytes32",
          "name": "_key",
          "type": "bytes32"
        }
      ],
      "name": "getData",
      "outputs": [
        {
          "internalType": "bytes",
          "name": "_value",
          "type": "bytes"
        }
      ],
      "stateMutability": "view",
      "type": "function"
    },
    {
      "inputs": [],
      "name": "getMetaData",
      "outputs": [
        {
          "internalType": "string",
          "name": "",
          "type": "string"
        },
        {
          "internalType": "string",
          "name": "",
          "type": "string"
        },
        {
          "internalType": "uint8",
          "name": "",
          "type": "uint8"
        },
        {
          "internalType": "bool",
          "name": "",
          "type": "bool"
        }
      ],
      "stateMutability": "view",
      "type": "function"
    },
    {
      "inputs": [
        {
          "internalType": "address",
          "name": "user",
          "type": "address"
        }
      ],
      "name": "getPermissions",
      "outputs": [
        {
          "components": [
            {
              "internalType": "bool",
              "name": "manager",
              "type": "bool"
            },
            {
              "internalType": "bool",
              "name": "deployERC20",
              "type": "bool"
            },
            {
              "internalType": "bool",
              "name": "updateMetadata",
              "type": "bool"
            },
            {
              "internalType": "bool",
              "name": "store",
              "type": "bool"
            },
            {
              "internalType": "bool",
              "name": "v3Minter",
              "type": "bool"
            }
          ],
          "internalType": "struct ERC721RolesAddress.Roles",
          "name": "",
          "type": "tuple"
        }
      ],
      "stateMutability": "view",
      "type": "function"
    },
    {
      "inputs": [],
      "name": "getTokensList",
      "outputs": [
        {
          "internalType": "address[]",
          "name": "",
          "type": "address[]"
        }
      ],
      "stateMutability": "view",
      "type": "function"
    },
    {
      "inputs": [],
      "name": "hasMetaData",
      "outputs": [
        {
          "internalType": "bool",
          "name": "",
          "type": "bool"
        }
      ],
      "stateMutability": "view",
      "type": "function"
    },
    {
      "inputs": [
        {
          "internalType": "address",
          "name": "owner",
          "type": "address"
        },
        {
          "internalType": "string",
          "name": "name_",
          "type": "string"
        },
        {
          "internalType": "string",
          "name": "symbol_",
          "type": "string"
        },
        {
          "internalType": "address",
          "name": "tokenFactory",
          "type": "address"
        },
        {
          "internalType": "address",
          "name": "additionalERC20Deployer",
          "type": "address"
        },
        {
          "internalType": "string",
          "name": "baseURI",
          "type": "string"
        }
      ],
      "name": "initialize",
      "outputs": [
        {
          "internalType": "bool",
          "name": "",
          "type": "bool"
        }
      ],
      "stateMutability": "nonpayable",
      "type": "function"
    },
    {
      "inputs": [
        {
          "internalType": "address",
          "name": "owner",
          "type": "address"
        },
        {
          "internalType": "address",
          "name": "operator",
          "type": "address"
        }
      ],
      "name": "isApprovedForAll",
      "outputs": [
        {
          "internalType": "bool",
          "name": "",
          "type": "bool"
        }
      ],
      "stateMutability": "view",
      "type": "function"
    },
    {
      "inputs": [
        {
          "internalType": "address",
          "name": "datatoken",
          "type": "address"
        }
      ],
      "name": "isDeployed",
      "outputs": [
        {
          "internalType": "bool",
          "name": "",
          "type": "bool"
        }
      ],
      "stateMutability": "view",
      "type": "function"
    },
    {
      "inputs": [],
      "name": "isInitialized",
      "outputs": [
        {
          "internalType": "bool",
          "name": "",
          "type": "bool"
        }
      ],
      "stateMutability": "view",
      "type": "function"
    },
    {
      "inputs": [],
      "name": "metaDataDecryptorAddress",
      "outputs": [
        {
          "internalType": "string",
          "name": "",
          "type": "string"
        }
      ],
      "stateMutability": "view",
      "type": "function"
    },
    {
      "inputs": [],
      "name": "metaDataDecryptorUrl",
      "outputs": [
        {
          "internalType": "string",
          "name": "",
          "type": "string"
        }
      ],
      "stateMutability": "view",
      "type": "function"
    },
    {
      "inputs": [],
      "name": "metaDataState",
      "outputs": [
        {
          "internalType": "uint8",
          "name": "",
          "type": "uint8"
        }
      ],
      "stateMutability": "view",
      "type": "function"
    },
    {
      "inputs": [],
      "name": "name",
      "outputs": [
        {
          "internalType": "string",
          "name": "",
          "type": "string"
        }
      ],
      "stateMutability": "view",
      "type": "function"
    },
    {
      "inputs": [
        {
          "internalType": "uint256",
          "name": "tokenId",
          "type": "uint256"
        }
      ],
      "name": "ownerOf",
      "outputs": [
        {
          "internalType": "address",
          "name": "",
          "type": "address"
        }
      ],
      "stateMutability": "view",
      "type": "function"
    },
    {
      "inputs": [
        {
          "internalType": "address",
          "name": "_allowedAddress",
          "type": "address"
        }
      ],
      "name": "removeFrom725StoreList",
      "outputs": [],
      "stateMutability": "nonpayable",
      "type": "function"
    },
    {
      "inputs": [
        {
          "internalType": "address",
          "name": "_allowedAddress",
          "type": "address"
        }
      ],
      "name": "removeFromCreateERC20List",
      "outputs": [],
      "stateMutability": "nonpayable",
      "type": "function"
    },
    {
      "inputs": [
        {
          "internalType": "address",
          "name": "_allowedAddress",
          "type": "address"
        }
      ],
      "name": "removeFromMetadataList",
      "outputs": [],
      "stateMutability": "nonpayable",
      "type": "function"
    },
    {
      "inputs": [
        {
          "internalType": "address",
          "name": "_managerAddress",
          "type": "address"
        }
      ],
      "name": "removeManager",
      "outputs": [],
      "stateMutability": "nonpayable",
      "type": "function"
    },
    {
      "inputs": [
        {
          "internalType": "address",
          "name": "from",
          "type": "address"
        },
        {
          "internalType": "address",
          "name": "to",
          "type": "address"
        },
        {
          "internalType": "uint256",
          "name": "tokenId",
          "type": "uint256"
        }
      ],
      "name": "safeTransferFrom",
      "outputs": [],
      "stateMutability": "nonpayable",
      "type": "function"
    },
    {
      "inputs": [
        {
          "internalType": "address",
          "name": "operator",
          "type": "address"
        },
        {
          "internalType": "bool",
          "name": "approved",
          "type": "bool"
        }
      ],
      "name": "setApprovalForAll",
      "outputs": [],
      "stateMutability": "nonpayable",
      "type": "function"
    },
    {
      "inputs": [
        {
          "internalType": "string",
          "name": "_baseURI",
          "type": "string"
        }
      ],
      "name": "setBaseURI",
      "outputs": [],
      "stateMutability": "nonpayable",
      "type": "function"
    },
    {
      "inputs": [
        {
          "internalType": "bytes32",
          "name": "_key",
          "type": "bytes32"
        },
        {
          "internalType": "bytes",
          "name": "_value",
          "type": "bytes"
        }
      ],
      "name": "setDataERC20",
      "outputs": [],
      "stateMutability": "nonpayable",
      "type": "function"
    },
    {
      "inputs": [
        {
          "internalType": "uint8",
          "name": "_metaDataState",
          "type": "uint8"
        },
        {
          "internalType": "string",
          "name": "_metaDataDecryptorUrl",
          "type": "string"
        },
        {
          "internalType": "string",
          "name": "_metaDataDecryptorAddress",
          "type": "string"
        },
        {
          "internalType": "bytes",
          "name": "flags",
          "type": "bytes"
        },
        {
          "internalType": "bytes",
          "name": "data",
          "type": "bytes"
        },
        {
          "internalType": "bytes",
          "name": "_metaDataHash",
          "type": "bytes"
        }
      ],
      "name": "setMetaData",
      "outputs": [],
      "stateMutability": "nonpayable",
      "type": "function"
    },
    {
      "inputs": [
        {
          "internalType": "bytes32",
          "name": "_key",
          "type": "bytes32"
        },
        {
          "internalType": "bytes",
          "name": "_value",
          "type": "bytes"
        }
      ],
      "name": "setNewData",
      "outputs": [],
      "stateMutability": "nonpayable",
      "type": "function"
    },
    {
      "inputs": [],
      "name": "ssContract",
      "outputs": [
        {
          "internalType": "address",
          "name": "",
          "type": "address"
        }
      ],
      "stateMutability": "view",
      "type": "function"
    },
    {
      "inputs": [
        {
          "internalType": "bytes4",
          "name": "interfaceId",
          "type": "bytes4"
        }
      ],
      "name": "supportsInterface",
      "outputs": [
        {
          "internalType": "bool",
          "name": "",
          "type": "bool"
        }
      ],
      "stateMutability": "view",
      "type": "function"
    },
    {
      "inputs": [],
      "name": "symbol",
      "outputs": [
        {
          "internalType": "string",
          "name": "",
          "type": "string"
        }
      ],
      "stateMutability": "view",
      "type": "function"
    },
    {
      "inputs": [
        {
          "internalType": "uint256",
          "name": "tokenId",
          "type": "uint256"
        }
      ],
      "name": "tokenURI",
      "outputs": [
        {
          "internalType": "string",
          "name": "",
          "type": "string"
        }
      ],
      "stateMutability": "view",
      "type": "function"
    },
    {
      "inputs": [
        {
          "internalType": "address",
          "name": "from",
          "type": "address"
        },
        {
          "internalType": "address",
          "name": "to",
          "type": "address"
        },
        {
          "internalType": "uint256",
          "name": "tokenId",
          "type": "uint256"
        }
      ],
      "name": "transferFrom",
      "outputs": [],
      "stateMutability": "nonpayable",
      "type": "function"
    },
    {
      "inputs": [],
      "name": "withdrawETH",
      "outputs": [],
      "stateMutability": "payable",
      "type": "function"
    }
  ],
  "bytecode": "0x60806040523480156200001157600080fd5b50604080518082018252600881526754656d706c61746560c01b60208083019182528351808501909452600e84526d15195b5c1b185d1954de5b589bdb60921b908401528151919291620000689160009162000131565b5080516200007e90600190602084019062000131565b50620000959150632260147f60e11b9050620000ad565b620000a7632bd57b7360e01b620000ad565b62000214565b6001600160e01b031980821614156200010c5760405162461bcd60e51b815260206004820152601c60248201527f4552433136353a20696e76616c696420696e7465726661636520696400000000604482015260640160405180910390fd5b6001600160e01b0319166000908152600960205260409020805460ff19166001179055565b8280546200013f90620001d7565b90600052602060002090601f016020900481019282620001635760008555620001ae565b82601f106200017e57805160ff1916838001178555620001ae565b82800160010185558215620001ae579182015b82811115620001ae57825182559160200191906001019062000191565b50620001bc929150620001c0565b5090565b5b80821115620001bc5760008155600101620001c1565b600181811c90821680620001ec57607f821691505b602082108114156200020e57634e487b7160e01b600052602260045260246000fd5b50919050565b613d4e80620002246000396000f3fe6080604052600436106102315760003560e01c806355f804b31161012d578063ac18de43116100b0578063d2786ba411610077578063d2786ba41461079c578063d8053ad3146107c1578063e086e5ec146107e0578063e38d7cad146107e8578063e985e9c514610808578063fe1ec8801461085157005b8063ac18de43146106fd578063b0c41ead1461071d578063c55f81261461073d578063c87b56dd14610750578063ccd7d4761461077057005b806370c166d7116100f457806370c166d71461065a57806382cf129d1461067a57806390184b021461068f57806395d89b41146106c8578063a22cb465146106dd57005b806355f804b3146105ac5780635d5dea24146105cc5780636352211e146105ec57806367530a611461060c57806370a082311461062c57005b8063273e06b3116101b5578063466bca021161017c578063466bca02146105155780634a63740a146105375780634b2ee5e9146105575780634f189cb21461057757806354f6127f1461058c57005b8063273e06b31461047d5780632d06177a1461049d578063392e53cd146104bd57806342842e0e146104d5578063431053ac146104f557005b80630e57c7e8116101f95780630e57c7e8146102f757806310c558bf14610317578063160a79251461033757806319c186e51461043d57806323b872dd1461045d57005b806301ffc9a71461023357806306fdde0314610268578063081812fc1461028a578063095ea7b3146102c25780630e05662e146102e2575b005b34801561023f57600080fd5b5061025361024e3660046133d1565b610871565b60405190151581526020015b60405180910390f35b34801561027457600080fd5b5061027d6108b1565b60405161025f919061387f565b34801561029657600080fd5b506102aa6102a536600461336c565b610943565b6040516001600160a01b03909116815260200161025f565b3480156102ce57600080fd5b506102316102dd366004613340565b6109dd565b3480156102ee57600080fd5b5061027d610af3565b34801561030357600080fd5b50610231610312366004613385565b610b81565b34801561032357600080fd5b5061023161033236600461318a565b610bfb565b34801561034357600080fd5b506103f161035236600461318a565b6040805160a081018252600080825260208201819052918101829052606081018290526080810191909152506001600160a01b0316600090815260076020908152604091829020825160a081018452905460ff8082161515835261010082048116151593830193909352620100008104831615159382019390935263010000008304821615156060820152640100000000909204161515608082015290565b60405161025f9190600060a08201905082511515825260208301511515602083015260408301511515604083015260608301511515606083015260808301511515608083015292915050565b34801561044957600080fd5b5061023161045836600461318a565b610cce565b34801561046957600080fd5b506102316104783660046131fd565b610d97565b34801561048957600080fd5b5061023161049836600461318a565b610e69565b3480156104a957600080fd5b506102316104b836600461318a565b610fa2565b3480156104c957600080fd5b50600d5460ff16610253565b3480156104e157600080fd5b506102316104f03660046131fd565b610fe5565b34801561050157600080fd5b5061023161051036600461318a565b61108b565b34801561052157600080fd5b5061052a6111c0565b60405161025f919061381e565b34801561054357600080fd5b5061023161055236600461318a565b611221565b34801561056357600080fd5b506012546102aa906001600160a01b031681565b34801561058357600080fd5b506102316112e6565b34801561059857600080fd5b5061027d6105a736600461336c565b61132a565b3480156105b857600080fd5b506102316105c736600461340b565b6113cc565b3480156105d857600080fd5b506102316105e736600461357a565b61141d565b3480156105f857600080fd5b506102aa61060736600461336c565b611593565b34801561061857600080fd5b50610231610627366004613385565b61160a565b34801561063857600080fd5b5061064c61064736600461318a565b61167f565b60405190815260200161025f565b34801561066657600080fd5b50610253610675366004613271565b611706565b34801561068657600080fd5b5061027d611823565b34801561069b57600080fd5b506102536106aa36600461318a565b6001600160a01b031660009081526013602052604090205460ff1690565b3480156106d457600080fd5b5061027d611830565b3480156106e957600080fd5b506102316106f836600461323e565b61183f565b34801561070957600080fd5b5061023161071836600461318a565b6118fd565b34801561072957600080fd5b506102aa61073836600461336c565b611940565b61023161074b366004613440565b61196a565b34801561075c57600080fd5b5061027d61076b36600461336c565b6119b2565b34801561077c57600080fd5b5060105461078a9060ff1681565b60405160ff909116815260200161025f565b3480156107a857600080fd5b506107b1611a8d565b60405161025f9493929190613892565b3480156107cd57600080fd5b50600d5461025390610100900460ff1681565b610231611bdd565b3480156107f457600080fd5b506102aa6108033660046134aa565b611c1f565b34801561081457600080fd5b506102536108233660046131c4565b6001600160a01b03918216600090815260066020908152604080832093909416825291909152205460ff1690565b34801561085d57600080fd5b5061023161086c36600461318a565b611da5565b60006301ffc9a760e01b6001600160e01b0319831614806108ab57506001600160e01b0319821660009081526009602052604090205460ff165b92915050565b6060600b80546108c090613c0b565b80601f01602080910402602001604051908101604052809291908181526020018280546108ec90613c0b565b80156109395780601f1061090e57610100808354040283529160200191610939565b820191906000526020600020905b81548152906001019060200180831161091c57829003601f168201915b5050505050905090565b6000818152600360205260408120546001600160a01b03166109c15760405162461bcd60e51b815260206004820152602c60248201527f4552433732313a20617070726f76656420717565727920666f72206e6f6e657860448201526b34b9ba32b73a103a37b5b2b760a11b60648201526084015b60405180910390fd5b506000908152600560205260409020546001600160a01b031690565b60006109e882611593565b9050806001600160a01b0316836001600160a01b03161415610a565760405162461bcd60e51b815260206004820152602160248201527f4552433732313a20617070726f76616c20746f2063757272656e74206f776e656044820152603960f91b60648201526084016109b8565b336001600160a01b0382161480610a725750610a728133610823565b610ae45760405162461bcd60e51b815260206004820152603860248201527f4552433732313a20617070726f76652063616c6c6572206973206e6f74206f7760448201527f6e6572206e6f7220617070726f76656420666f7220616c6c000000000000000060648201526084016109b8565b610aee8383611ed5565b505050565b600f8054610b0090613c0b565b80601f0160208091040260200160405190810160405280929190818152602001828054610b2c90613c0b565b8015610b795780601f10610b4e57610100808354040283529160200191610b79565b820191906000526020600020905b815481529060010190602001808311610b5c57829003601f168201915b505050505081565b3360009081526013602052604090205460ff161515600114610bf05760405162461bcd60e51b815260206004820152602260248201527f45524337323154656d706c6174653a204e4f5420455243323020436f6e74726160448201526118dd60f21b60648201526084016109b8565b610aee838383611f43565b3360009081526007602052604090205460ff161515600114610c2f5760405162461bcd60e51b81526004016109b8906139f9565b6001600160a01b038116600081815260076020526040808220805462ff0000191662010000178155600880546001810182559352600080516020613cf983398151915290920180546001600160a01b0319168417905551909133917fc2a42571a74ce1442c8c44d375ba9442e7d55d94b37afeace261c83c62128fa490610cc29042904390918252602082015260400190565b60405180910390a35050565b3360009081526007602052604090205460ff161515600114610d025760405162461bcd60e51b81526004016109b8906139f9565b6001600160a01b038116600081815260076020526040808220805463ff00000019166301000000178155600880546001810182559352600080516020613cf983398151915290920180546001600160a01b0319168417905551909133917feb09276310ed110a7e565d64966d0ff68a47112d2dd5eeb6cbd7451836ce35ee90610cc29042904390918252602082015260400190565b80600114610db75760405162461bcd60e51b81526004016109b89061395c565b610e21610e1c6011805480602002602001604051908101604052809291908181526020018280548015610e1357602002820191906000526020600020905b81546001600160a01b03168152600190910190602001808311610df5575b50505050505190565b611f9c565b610e2961202d565b610e348383836120df565b610e3d82612120565b506001600160a01b03166000908152600760205260409020805463ffffff001916630101010017905550565b3360009081526007602052604090205460ff16151560011480610eba5750336001600160a01b038216148015610eba5750336000908152600760205260409020546301000000900460ff1615156001145b15610f22576001600160a01b03811660008181526007602052604090819020805463ff000000191681559051909133917fc929b18b08ffea86a1f95e29384dbe8968f2fcbd70cfd735df3aba1cc548cbf390610cc29042904390918252602082015260400190565b60405162461bcd60e51b815260206004820152604660248201527f455243373231526f6c6573416464726573733a204e6f7420656e6f756768207060448201527f65726d697373696f6e7320746f2072656d6f76652066726f6d2037323553746f6064820152651c99531a5cdd60d21b608482015260a4016109b8565b50565b610fac6001611593565b6001600160a01b0316336001600160a01b031614610fdc5760405162461bcd60e51b81526004016109b890613925565b610f9f81612120565b806001146110055760405162461bcd60e51b81526004016109b89061395c565b611068610e1c6011805480602002602001604051908101604052809291908181526020018280548015610e13576020028201919060005260206000209081546001600160a01b03168152600190910190602001808311610df55750505050505190565b61107061202d565b610e34838383604051806020016040528060008152506121b1565b3360009081526007602052604090205460ff161515600114806110db5750336001600160a01b0382161480156110db57503360009081526007602052604090205462010000900460ff1615156001145b15611142576001600160a01b03811660008181526007602052604090819020805462ff0000191681559051909133917f9b41e1311fa819e825bc77fa2568492112e15ea92d173f3f8ee1c8ec3c1c562b90610cc29042904390918252602082015260400190565b60405162461bcd60e51b815260206004820152604760248201527f455243373231526f6c6573416464726573733a204e6f7420656e6f756768207060448201527f65726d697373696f6e7320746f2072656d6f76652066726f6d206d65746164616064820152661d18481b1a5cdd60ca1b608482015260a4016109b8565b6060601180548060200260200160405190810160405280929190818152602001828054801561093957602002820191906000526020600020905b81546001600160a01b031681526001909101906020018083116111fa575050505050905090565b3360009081526007602052604090205460ff1615156001146112555760405162461bcd60e51b81526004016109b8906139f9565b6001600160a01b038116600081815260076020526040808220805461ff001916610100178155600880546001810182559352600080516020613cf983398151915290920180546001600160a01b0319168417905551909133917f0572d56343be407a66810f01449212e8545e14ff5049c479d34be944cdfd0d4f90610cc29042904390918252602082015260400190565b6112f06001611593565b6001600160a01b0316336001600160a01b0316146113205760405162461bcd60e51b81526004016109b890613925565b61132861202d565b565b6000818152600a6020526040902080546060919061134790613c0b565b80601f016020809104026020016040519081016040528092919081815260200182805461137390613c0b565b80156113c05780601f10611395576101008083540402835291602001916113c0565b820191906000526020600020905b8154815290600101906020018083116113a357829003601f168201915b50505050509050919050565b6113d66001611593565b6001600160a01b0316336001600160a01b0316146114065760405162461bcd60e51b81526004016109b890613925565b8051611419906002906020840190612f32565b5050565b3360009081526007602052604090205462010000900460ff1615156001146114915760405162461bcd60e51b815260206004820152602160248201527f45524337323154656d706c6174653a204e4f54204d455441444154415f524f4c6044820152604560f81b60648201526084016109b8565b6010805460ff191660ff8d161790556114ac600e8b8b612fb6565b506114b9600f8989612fb6565b50600d54610100900460ff1661153257336001600160a01b03167fa6105ba66a6e1cdef460b79cd6a2d14f58d1e224f5bb876fafc51535c34ab6848c8c8c8a8a8a8a8a8a42436040516115169b9a99989796959493929190613ae1565b60405180910390a2600d805461ff001916610100179055611586565b60105460405133917f4248722dac0ab49fef08643fbc510e0343175ae223ca5cc5420e118e46da71989161157d9160ff16908e908e908c908c908c908c908c908c9042904390613ae1565b60405180910390a25b5050505050505050505050565b6000818152600360205260408120546001600160a01b0316806108ab5760405162461bcd60e51b815260206004820152602960248201527f4552433732313a206f776e657220717565727920666f72206e6f6e657869737460448201526832b73a103a37b5b2b760b91b60648201526084016109b8565b336000908152600760205260409020546301000000900460ff161515600114610bf05760405162461bcd60e51b815260206004820152602160248201527f45524337323154656d706c6174653a204e4f542053544f5245205550444154456044820152602960f91b60648201526084016109b8565b60006001600160a01b0382166116ea5760405162461bcd60e51b815260206004820152602a60248201527f4552433732313a2062616c616e636520717565727920666f7220746865207a65604482015269726f206164647265737360b01b60648201526084016109b8565b506001600160a01b031660009081526004602052604090205490565b600d5460009060ff16156117775760405162461bcd60e51b815260206004820152603260248201527f45524337323154656d706c6174653a20746f6b656e20696e7374616e636520616044820152711b1c9958591e481a5b9a5d1a585b1a5e995960721b60648201526084016109b8565b60006117f18a8a8a8080601f01602080910402602001604051908101604052809392919081815260200183838082843760009201919091525050604080516020601f8e018190048102820181019092528c815292508c91508b90819084018382808284376000920191909152508b92508991506121e99050565b905080801561180857506001600160a01b03841615155b156118165761181684611255565b9998505050505050505050565b600e8054610b0090613c0b565b6060600c80546108c090613c0b565b6001600160a01b0382163314156118985760405162461bcd60e51b815260206004820152601960248201527f4552433732313a20617070726f766520746f2063616c6c65720000000000000060448201526064016109b8565b3360008181526006602090815260408083206001600160a01b03871680855290835292819020805460ff191686151590811790915590519081529192917f17307eab39ab6107e8899845ad3d59bd9653f200f220920489ca2b5937696c319101610cc2565b6119076001611593565b6001600160a01b0316336001600160a01b0316146119375760405162461bcd60e51b81526004016109b890613925565b610f9f81612311565b6008818154811061195057600080fd5b6000918252602090912001546001600160a01b0316905081565b3360009081526007602052604090205460ff16151560011461199e5760405162461bcd60e51b81526004016109b8906139f9565b6119ab8585858585612371565b5050505050565b6000818152600360205260409020546060906001600160a01b0316611a315760405162461bcd60e51b815260206004820152602f60248201527f4552433732314d657461646174613a2055524920717565727920666f72206e6f60448201526e3732bc34b9ba32b73a103a37b5b2b760891b60648201526084016109b8565b6000611a3b61259a565b90506000815111611a5b5760405180602001604052806000815250611a86565b80611a65846125a9565b604051602001611a769291906137b2565b6040516020818303038152906040525b9392505050565b606080600080600e600f601060009054906101000a900460ff16600d60019054906101000a900460ff16838054611ac390613c0b565b80601f0160208091040260200160405190810160405280929190818152602001828054611aef90613c0b565b8015611b3c5780601f10611b1157610100808354040283529160200191611b3c565b820191906000526020600020905b815481529060010190602001808311611b1f57829003601f168201915b50505050509350828054611b4f90613c0b565b80601f0160208091040260200160405190810160405280929190818152602001828054611b7b90613c0b565b8015611bc85780601f10611b9d57610100808354040283529160200191611bc8565b820191906000526020600020905b815481529060010190602001808311611bab57829003601f168201915b50505050509250935093509350935090919293565b611be76001611593565b6001600160a01b03166108fc479081150290604051600060405180830381858888f19350505050158015610f9f573d6000803e3d6000fd5b3360009081526007602052604081205460ff610100909104161515600114611c985760405162461bcd60e51b815260206004820152602660248201527f45524337323154656d706c6174653a204e4f542045524332304445504c4f5945604482015265525f524f4c4560d01b60648201526084016109b8565b601054604051630557fcfb60e41b815260009161010090046001600160a01b03169063557fcfb090611cde908e908e908e908e908e908e908e908e908e90600401613a30565b602060405180830381600087803b158015611cf857600080fd5b505af1158015611d0c573d6000803e3d6000fd5b505050506040513d601f19601f82011682018060405250810190611d3091906131a7565b6001600160a01b0381166000818152601360205260408120805460ff191660019081179091556011805491820181559091527f31ecc21a745e3968a04e9570e4425bc18fa8019c68028196b546d1669c200c680180546001600160a01b03191690911790559150509998505050505050505050565b3360009081526007602052604090205460ff16151560011480611df55750336001600160a01b038216148015611df557503360009081526007602052604090205460ff6101009091041615156001145b15611e5b576001600160a01b03811660008181526007602052604090819020805461ff00191681559051909133917f59bd33f4c27cc16a2d74450e1fa43d7896020be9aecea4bee009db9294de899790610cc29042904390918252602082015260400190565b60405162461bcd60e51b815260206004820152604360248201527f455243373231526f6c6573416464726573733a204e6f7420656e6f756768207060448201527f65726d697373696f6e7320746f2072656d6f76652066726f6d2045524332304c6064820152621a5cdd60ea1b608482015260a4016109b8565b600081815260056020526040902080546001600160a01b0319166001600160a01b0384169081179091558190611f0a82611593565b6001600160a01b03167f8c5be1e5ebec7d5bd14f71427d1e84f3dd0314c0f7b2291e5b200ac8c7c3b92560405160405180910390a45050565b6000838152600a60205260409020611f5c908383612fb6565b50827fece574603820d07bc9b91f2a932baadf4628aabcb8afba49776529c14a6104b28383604051611f8f92919061386b565b60405180910390a2505050565b60005b818110156114195760118181548110611fba57611fba613ca1565b6000918252602082200154604080516382c03da560e01b815290516001600160a01b03909216926382c03da59260048084019382900301818387803b15801561200257600080fd5b505af1158015612016573d6000803e3d6000fd5b50505050808061202590613c46565b915050611f9f565b60005b600854811015612096576000600760006008848154811061205357612053613ca1565b60009182526020808320909101546001600160a01b031683528201929092526040019020805464ffffffffff19169055508061208e81613c46565b915050612030565b506120a36008600061302a565b6040805142815243602082015233917f712bc71db81927a76b8bf1ea346247bb0ad58f18e4e5c1bd4aa0ec6573e02a2b910160405180910390a2565b6120e933826126af565b6121055760405162461bcd60e51b81526004016109b8906139a8565b610aee838383604051806020016040528060008152506121b1565b6001600160a01b038116600081815260076020526040808220805460ff191660019081178255600880549182018155909352600080516020613cf983398151915290920180546001600160a01b0319168417905551909133917faf8fc8b6726138c96881c895390a08e9d91a94c288f06281e7f9821c49c7155b90610cc29042904390918252602082015260400190565b6121bb33836126af565b6121d75760405162461bcd60e51b81526004016109b8906139a8565b6121e3848484846127a2565b50505050565b60006001600160a01b0386166122585760405162461bcd60e51b815260206004820152602e60248201527f45524337323154656d706c6174653a3a20496e76616c6964206d696e7465722c60448201526d20207a65726f206164647265737360901b60648201526084016109b8565b845161226b90600b906020880190612f32565b50835161227f90600c906020870190612f32565b5060108054610100600160a81b0319166101006001600160a01b0386160217905581516122b3906002906020850190612f32565b50600d805460ff191660019081179091556122cf9087906127d5565b6122d886612120565b505050506001600160a01b03919091166000908152600760205260409020805463ffffff001916630101010017905550600d5460ff1690565b6001600160a01b03811660008181526007602052604090819020805460ff191681559051909133917fb572db0e6da4924b771ed1712b980d48b5992b9a1c27aede55fbb3318c48996a90610cc29042904390918252602082015260400190565b82846001600160a01b0316867f1f920dbda597d7bf95035464170fa58d0a4b57f13a1c315ace6793b9f63688b885856040516123ae92919061386b565b60405180910390a460006109c45a6123c69190613bc8565b90508561241657612410858585858080601f0160208091040260200160405190810160405280939291908181526020018383808284376000920191909152508792506127ef915050565b50612592565b600386141561245f576124108484848080601f01602080910402602001604051908101604052809392919081815260200183838082843760009201919091525061280792505050565b60028614156125535760006124b684848080601f0160208091040260200160405190810160405280939291908181526020018383808284376000920191909152506124b1925060209150879050613bc8565b6128a3565b9050600061250585858080601f0160208091040260200160405190810160405280939291908181526020018383808284376000920182905250925061250091506020905088613bc8565b612901565b90506000612514878484612a0e565b6040519091506001600160a01b038216907fcf78cf0d6f3d8371e1075c69c492ab4ec5d8cf23a1a239b6a51a1d00be7ca31290600090a2505050612592565b60405162461bcd60e51b815260206004820152601460248201527357726f6e67206f7065726174696f6e207479706560601b60448201526064016109b8565b505050505050565b6060600280546108c090613c0b565b6060816125cd5750506040805180820190915260018152600360fc1b602082015290565b8160005b81156125f757806125e181613c46565b91506125f09050600a83613bb4565b91506125d1565b60008167ffffffffffffffff81111561261257612612613cb7565b6040519080825280601f01601f19166020018201604052801561263c576020820181803683370190505b5090505b84156126a757612651600183613bc8565b915061265e600a86613c61565b612669906030613b9c565b60f81b81838151811061267e5761267e613ca1565b60200101906001600160f81b031916908160001a9053506126a0600a86613bb4565b9450612640565b949350505050565b6000818152600360205260408120546001600160a01b03166127285760405162461bcd60e51b815260206004820152602c60248201527f4552433732313a206f70657261746f7220717565727920666f72206e6f6e657860448201526b34b9ba32b73a103a37b5b2b760a11b60648201526084016109b8565b600061273383611593565b9050806001600160a01b0316846001600160a01b0316148061276e5750836001600160a01b031661276384610943565b6001600160a01b0316145b806126a757506001600160a01b0380821660009081526006602090815260408083209388168352929052205460ff166126a7565b6127ad848484612b10565b6127b984848484612cb0565b6121e35760405162461bcd60e51b81526004016109b8906138d3565b611419828260405180602001604052806000815250612dbd565b6000806000845160208601878987f195945050505050565b600081516020830184f090506001600160a01b0381166128695760405162461bcd60e51b815260206004820152601960248201527f436f756c64206e6f74206465706c6f7920636f6e74726163740000000000000060448201526064016109b8565b6040516001600160a01b038216907fcf78cf0d6f3d8371e1075c69c492ab4ec5d8cf23a1a239b6a51a1d00be7ca31290600090a292915050565b60006128b0826020613b9c565b835110156128f85760405162461bcd60e51b8152602060048201526015602482015274746f427974657333325f6f75744f66426f756e647360581b60448201526064016109b8565b50016020015190565b60608161290f81601f613b9c565b101561294e5760405162461bcd60e51b815260206004820152600e60248201526d736c6963655f6f766572666c6f7760901b60448201526064016109b8565b6129588284613b9c565b8451101561299c5760405162461bcd60e51b8152602060048201526011602482015270736c6963655f6f75744f66426f756e647360781b60448201526064016109b8565b6060821580156129bb5760405191506000825260208201604052612a05565b6040519150601f8416801560200281840101858101878315602002848b0101015b818310156129f45780518352602092830192016129dc565b5050858452601f01601f1916604052505b50949350505050565b60008084471015612a615760405162461bcd60e51b815260206004820152601d60248201527f437265617465323a20696e73756666696369656e742062616c616e636500000060448201526064016109b8565b8251612aaf5760405162461bcd60e51b815260206004820181905260248201527f437265617465323a2062797465636f6465206c656e677468206973207a65726f60448201526064016109b8565b8383516020850187f590506001600160a01b0381166126a75760405162461bcd60e51b815260206004820152601960248201527f437265617465323a204661696c6564206f6e206465706c6f790000000000000060448201526064016109b8565b826001600160a01b0316612b2382611593565b6001600160a01b031614612b8b5760405162461bcd60e51b815260206004820152602960248201527f4552433732313a207472616e73666572206f6620746f6b656e2074686174206960448201526839903737ba1037bbb760b91b60648201526084016109b8565b6001600160a01b038216612bed5760405162461bcd60e51b8152602060048201526024808201527f4552433732313a207472616e7366657220746f20746865207a65726f206164646044820152637265737360e01b60648201526084016109b8565b612bf8600082611ed5565b6001600160a01b0383166000908152600460205260408120805460019290612c21908490613bc8565b90915550506001600160a01b0382166000908152600460205260408120805460019290612c4f908490613b9c565b909155505060008181526003602052604080822080546001600160a01b0319166001600160a01b0386811691821790925591518493918716917fddf252ad1be2c89b69c2b068fc378daa952ba7f163c4a11628f55a4df523b3ef91a4505050565b60006001600160a01b0384163b15612db257604051630a85bd0160e11b81526001600160a01b0385169063150b7a0290612cf49033908990889088906004016137e1565b602060405180830381600087803b158015612d0e57600080fd5b505af1925050508015612d3e575060408051601f3d908101601f19168201909252612d3b918101906133ee565b60015b612d98573d808015612d6c576040519150601f19603f3d011682016040523d82523d6000602084013e612d71565b606091505b508051612d905760405162461bcd60e51b81526004016109b8906138d3565b805181602001fd5b6001600160e01b031916630a85bd0160e11b1490506126a7565b506001949350505050565b612dc78383612df0565b612dd46000848484612cb0565b610aee5760405162461bcd60e51b81526004016109b8906138d3565b6001600160a01b038216612e465760405162461bcd60e51b815260206004820181905260248201527f4552433732313a206d696e7420746f20746865207a65726f206164647265737360448201526064016109b8565b6000818152600360205260409020546001600160a01b031615612eab5760405162461bcd60e51b815260206004820152601c60248201527f4552433732313a20746f6b656e20616c7265616479206d696e7465640000000060448201526064016109b8565b6001600160a01b0382166000908152600460205260408120805460019290612ed4908490613b9c565b909155505060008181526003602052604080822080546001600160a01b0319166001600160a01b03861690811790915590518392907fddf252ad1be2c89b69c2b068fc378daa952ba7f163c4a11628f55a4df523b3ef908290a45050565b828054612f3e90613c0b565b90600052602060002090601f016020900481019282612f605760008555612fa6565b82601f10612f7957805160ff1916838001178555612fa6565b82800160010185558215612fa6579182015b82811115612fa6578251825591602001919060010190612f8b565b50612fb2929150613044565b5090565b828054612fc290613c0b565b90600052602060002090601f016020900481019282612fe45760008555612fa6565b82601f10612ffd5782800160ff19823516178555612fa6565b82800160010185558215612fa6579182015b82811115612fa657823582559160200191906001019061300f565b5080546000825590600052602060002090810190610f9f91905b5b80821115612fb25760008155600101613045565b60008083601f84011261306b57600080fd5b50813567ffffffffffffffff81111561308357600080fd5b6020830191508360208260051b850101111561309e57600080fd5b9250929050565b60008083601f8401126130b757600080fd5b50813567ffffffffffffffff8111156130cf57600080fd5b60208301915083602082850101111561309e57600080fd5b600082601f8301126130f857600080fd5b813567ffffffffffffffff8082111561311357613113613cb7565b604051601f8301601f19908116603f0116810190828211818310171561313b5761313b613cb7565b8160405283815286602085880101111561315457600080fd5b836020870160208301376000602085830101528094505050505092915050565b803560ff8116811461318557600080fd5b919050565b60006020828403121561319c57600080fd5b8135611a8681613ccd565b6000602082840312156131b957600080fd5b8151611a8681613ccd565b600080604083850312156131d757600080fd5b82356131e281613ccd565b915060208301356131f281613ccd565b809150509250929050565b60008060006060848603121561321257600080fd5b833561321d81613ccd565b9250602084013561322d81613ccd565b929592945050506040919091013590565b6000806040838503121561325157600080fd5b823561325c81613ccd565b9150602083013580151581146131f257600080fd5b60008060008060008060008060c0898b03121561328d57600080fd5b883561329881613ccd565b9750602089013567ffffffffffffffff808211156132b557600080fd5b6132c18c838d016130a5565b909950975060408b01359150808211156132da57600080fd5b6132e68c838d016130a5565b909750955060608b013591506132fb82613ccd565b90935060808a01359061330d82613ccd565b90925060a08a0135908082111561332357600080fd5b506133308b828c016130e7565b9150509295985092959890939650565b6000806040838503121561335357600080fd5b823561335e81613ccd565b946020939093013593505050565b60006020828403121561337e57600080fd5b5035919050565b60008060006040848603121561339a57600080fd5b83359250602084013567ffffffffffffffff8111156133b857600080fd5b6133c4868287016130a5565b9497909650939450505050565b6000602082840312156133e357600080fd5b8135611a8681613ce2565b60006020828403121561340057600080fd5b8151611a8681613ce2565b60006020828403121561341d57600080fd5b813567ffffffffffffffff81111561343457600080fd5b6126a7848285016130e7565b60008060008060006080868803121561345857600080fd5b85359450602086013561346a81613ccd565b935060408601359250606086013567ffffffffffffffff81111561348d57600080fd5b613499888289016130a5565b969995985093965092949392505050565b600080600080600080600080600060a08a8c0312156134c857600080fd5b8935985060208a013567ffffffffffffffff808211156134e757600080fd5b6134f38d838e01613059565b909a50985060408c013591508082111561350c57600080fd5b6135188d838e01613059565b909850965060608c013591508082111561353157600080fd5b61353d8d838e01613059565b909650945060808c013591508082111561355657600080fd5b506135638c828d01613059565b915080935050809150509295985092959850929598565b600080600080600080600080600080600060c08c8e03121561359b57600080fd5b6135a48c613174565b9a5067ffffffffffffffff8060208e013511156135c057600080fd5b6135d08e60208f01358f016130a5565b909b50995060408d01358110156135e657600080fd5b6135f68e60408f01358f016130a5565b909950975060608d013581101561360c57600080fd5b61361c8e60608f01358f016130a5565b909750955060808d013581101561363257600080fd5b6136428e60808f01358f016130a5565b909550935060a08d013581101561365857600080fd5b506136698d60a08e01358e016130a5565b81935080925050509295989b509295989b9093969950565b8183526000602080850194508260005b858110156136bf5781356136a481613ccd565b6001600160a01b031687529582019590820190600101613691565b509495945050505050565b81835260006020808501808196508560051b810191508460005b8781101561371a5782840389526136fb8288613b56565b61370686828461375d565b9a87019a95505050908401906001016136e4565b5091979650505050505050565b81835260006001600160fb1b0383111561374057600080fd5b8260051b8083602087013760009401602001938452509192915050565b81835281816020850137506000828201602090810191909152601f909101601f19169091010190565b6000815180845261379e816020860160208601613bdf565b601f01601f19169290920160200192915050565b600083516137c4818460208801613bdf565b8351908301906137d8818360208801613bdf565b01949350505050565b6001600160a01b038581168252841660208201526040810183905260806060820181905260009061381490830184613786565b9695505050505050565b6020808252825182820181905260009190848201906040850190845b8181101561385f5783516001600160a01b03168352928401929184019160010161383a565b50909695505050505050565b6020815260006126a760208301848661375d565b602081526000611a866020830184613786565b6080815260006138a56080830187613786565b82810360208401526138b78187613786565b60ff959095166040840152505090151560609091015292915050565b60208082526032908201527f4552433732313a207472616e7366657220746f206e6f6e20455243373231526560408201527131b2b4bb32b91034b6b83632b6b2b73a32b960711b606082015260800190565b6020808252601c908201527f45524337323154656d706c6174653a206e6f74204e46544f776e657200000000604082015260600190565b6020808252602c908201527f45524337323154656d706c6174653a2043616e6e6f74207472616e736665722060408201526b1d1a1a5cc81d1bdad95b925960a21b606082015260800190565b60208082526031908201527f4552433732313a207472616e736665722063616c6c6572206973206e6f74206f6040820152701ddb995c881b9bdc88185c1c1c9bdd9959607a1b606082015260800190565b6020808252601f908201527f455243373231526f6c6573416464726573733a204e4f54204d414e4147455200604082015260600190565b89815260a0602082018190528101889052600060c060058a901b830181019083018b835b8c811015613a915785840360bf19018352613a6f828f613b56565b613a7a86828461375d565b955050506020928301929190910190600101613a54565b5050508281036040840152613aa781898b613681565b90508281036060840152613abc818789613727565b90508281036080840152613ad18185876136ca565b9c9b505050505050505050505050565b60ff8c16815260e060208201526000613afe60e083018c8e61375d565b8281036040840152613b11818b8d61375d565b90508281036060840152613b2681898b61375d565b90508281036080840152613b3b81878961375d565b60a0840195909552505060c001529998505050505050505050565b6000808335601e19843603018112613b6d57600080fd5b830160208101925035905067ffffffffffffffff811115613b8d57600080fd5b80360383131561309e57600080fd5b60008219821115613baf57613baf613c75565b500190565b600082613bc357613bc3613c8b565b500490565b600082821015613bda57613bda613c75565b500390565b60005b83811015613bfa578181015183820152602001613be2565b838111156121e35750506000910152565b600181811c90821680613c1f57607f821691505b60208210811415613c4057634e487b7160e01b600052602260045260246000fd5b50919050565b6000600019821415613c5a57613c5a613c75565b5060010190565b600082613c7057613c70613c8b565b500690565b634e487b7160e01b600052601160045260246000fd5b634e487b7160e01b600052601260045260246000fd5b634e487b7160e01b600052603260045260246000fd5b634e487b7160e01b600052604160045260246000fd5b6001600160a01b0381168114610f9f57600080fd5b6001600160e01b031981168114610f9f57600080fdfef3f7a9fe364faab93b216da50a3214154f22a0a2b415b23a84c8169e8b636ee3a264697066735822122049eb505560d6e92df40a9e7cecb863dee8f481729036d5ea8dfbd0cc5b383f6764736f6c63430008070033",
  "linkReferences": {},
  "deployedLinkReferences": {}
}