{
  "_format": "hh-sol-artifact-1",
  "contractName": "ERC721Template",
  "sourceName": "contracts/templates/ERC721Template.sol",
  "abi": [
    {
      "anonymous": false,
      "inputs": [
        {
          "indexed": true,
          "internalType": "address",
          "name": "user",
          "type": "address"
        },
        {
          "indexed": true,
          "internalType": "address",
          "name": "signer",
          "type": "address"
        },
        {
          "indexed": false,
          "internalType": "uint256",
          "name": "timestamp",
          "type": "uint256"
        },
        {
          "indexed": false,
          "internalType": "uint256",
          "name": "blockNumber",
          "type": "uint256"
        }
      ],
      "name": "AddedManager",
      "type": "event"
    },
    {
      "anonymous": false,
      "inputs": [
        {
          "indexed": true,
          "internalType": "address",
          "name": "user",
          "type": "address"
        },
        {
          "indexed": true,
          "internalType": "address",
          "name": "signer",
          "type": "address"
        },
        {
          "indexed": false,
          "internalType": "uint256",
          "name": "timestamp",
          "type": "uint256"
        },
        {
          "indexed": false,
          "internalType": "uint256",
          "name": "blockNumber",
          "type": "uint256"
        }
      ],
      "name": "AddedTo725StoreList",
      "type": "event"
    },
    {
      "anonymous": false,
      "inputs": [
        {
          "indexed": true,
          "internalType": "address",
          "name": "user",
          "type": "address"
        },
        {
          "indexed": true,
          "internalType": "address",
          "name": "signer",
          "type": "address"
        },
        {
          "indexed": false,
          "internalType": "uint256",
          "name": "timestamp",
          "type": "uint256"
        },
        {
          "indexed": false,
          "internalType": "uint256",
          "name": "blockNumber",
          "type": "uint256"
        }
      ],
      "name": "AddedToCreateERC20List",
      "type": "event"
    },
    {
      "anonymous": false,
      "inputs": [
        {
          "indexed": true,
          "internalType": "address",
          "name": "user",
          "type": "address"
        },
        {
          "indexed": true,
          "internalType": "address",
          "name": "signer",
          "type": "address"
        },
        {
          "indexed": false,
          "internalType": "uint256",
          "name": "timestamp",
          "type": "uint256"
        },
        {
          "indexed": false,
          "internalType": "uint256",
          "name": "blockNumber",
          "type": "uint256"
        }
      ],
      "name": "AddedToMetadataList",
      "type": "event"
    },
    {
      "anonymous": false,
      "inputs": [
        {
          "indexed": true,
          "internalType": "address",
          "name": "owner",
          "type": "address"
        },
        {
          "indexed": true,
          "internalType": "address",
          "name": "approved",
          "type": "address"
        },
        {
          "indexed": true,
          "internalType": "uint256",
          "name": "tokenId",
          "type": "uint256"
        }
      ],
      "name": "Approval",
      "type": "event"
    },
    {
      "anonymous": false,
      "inputs": [
        {
          "indexed": true,
          "internalType": "address",
          "name": "owner",
          "type": "address"
        },
        {
          "indexed": true,
          "internalType": "address",
          "name": "operator",
          "type": "address"
        },
        {
          "indexed": false,
          "internalType": "bool",
          "name": "approved",
          "type": "bool"
        }
      ],
      "name": "ApprovalForAll",
      "type": "event"
    },
    {
      "anonymous": false,
      "inputs": [
        {
          "indexed": true,
          "internalType": "address",
          "name": "signer",
          "type": "address"
        },
        {
          "indexed": false,
          "internalType": "uint256",
          "name": "timestamp",
          "type": "uint256"
        },
        {
          "indexed": false,
          "internalType": "uint256",
          "name": "blockNumber",
          "type": "uint256"
        }
      ],
      "name": "CleanedPermissions",
      "type": "event"
    },
    {
      "anonymous": false,
      "inputs": [
        {
          "indexed": true,
          "internalType": "address",
          "name": "contractAddress",
          "type": "address"
        }
      ],
      "name": "ContractCreated",
      "type": "event"
    },
    {
      "anonymous": false,
      "inputs": [
        {
          "indexed": true,
          "internalType": "bytes32",
          "name": "key",
          "type": "bytes32"
        },
        {
          "indexed": false,
          "internalType": "bytes",
          "name": "value",
          "type": "bytes"
        }
      ],
      "name": "DataChanged",
      "type": "event"
    },
    {
      "anonymous": false,
      "inputs": [
        {
          "indexed": true,
          "internalType": "uint256",
          "name": "_operation",
          "type": "uint256"
        },
        {
          "indexed": true,
          "internalType": "address",
          "name": "_to",
          "type": "address"
        },
        {
          "indexed": true,
          "internalType": "uint256",
          "name": "_value",
          "type": "uint256"
        },
        {
          "indexed": false,
          "internalType": "bytes",
          "name": "_data",
          "type": "bytes"
        }
      ],
      "name": "Executed",
      "type": "event"
    },
    {
      "anonymous": false,
      "inputs": [
        {
          "indexed": true,
          "internalType": "address",
          "name": "createdBy",
          "type": "address"
        },
        {
          "indexed": false,
          "internalType": "uint8",
          "name": "state",
          "type": "uint8"
        },
        {
          "indexed": false,
          "internalType": "string",
          "name": "decryptorUrl",
          "type": "string"
        },
        {
          "indexed": false,
          "internalType": "bytes",
          "name": "flags",
          "type": "bytes"
        },
        {
          "indexed": false,
          "internalType": "bytes",
          "name": "data",
          "type": "bytes"
        },
        {
          "indexed": false,
          "internalType": "bytes",
          "name": "metaDataHash",
          "type": "bytes"
        },
        {
          "indexed": false,
          "internalType": "uint256",
          "name": "timestamp",
          "type": "uint256"
        },
        {
          "indexed": false,
          "internalType": "uint256",
          "name": "blockNumber",
          "type": "uint256"
        }
      ],
      "name": "MetadataCreated",
      "type": "event"
    },
    {
      "anonymous": false,
      "inputs": [
        {
          "indexed": true,
          "internalType": "address",
          "name": "updatedBy",
          "type": "address"
        },
        {
          "indexed": false,
          "internalType": "uint8",
          "name": "state",
          "type": "uint8"
        },
        {
          "indexed": false,
          "internalType": "string",
          "name": "decryptorUrl",
          "type": "string"
        },
        {
          "indexed": false,
          "internalType": "bytes",
          "name": "flags",
          "type": "bytes"
        },
        {
          "indexed": false,
          "internalType": "bytes",
          "name": "data",
          "type": "bytes"
        },
        {
          "indexed": false,
          "internalType": "bytes",
          "name": "metaDataHash",
          "type": "bytes"
        },
        {
          "indexed": false,
          "internalType": "uint256",
          "name": "timestamp",
          "type": "uint256"
        },
        {
          "indexed": false,
          "internalType": "uint256",
          "name": "blockNumber",
          "type": "uint256"
        }
      ],
      "name": "MetadataUpdated",
      "type": "event"
    },
    {
      "anonymous": false,
      "inputs": [
        {
          "indexed": true,
          "internalType": "address",
          "name": "user",
          "type": "address"
        },
        {
          "indexed": true,
          "internalType": "address",
          "name": "signer",
          "type": "address"
        },
        {
          "indexed": false,
          "internalType": "uint256",
          "name": "timestamp",
          "type": "uint256"
        },
        {
          "indexed": false,
          "internalType": "uint256",
          "name": "blockNumber",
          "type": "uint256"
        }
      ],
      "name": "RemovedFrom725StoreList",
      "type": "event"
    },
    {
      "anonymous": false,
      "inputs": [
        {
          "indexed": true,
          "internalType": "address",
          "name": "user",
          "type": "address"
        },
        {
          "indexed": true,
          "internalType": "address",
          "name": "signer",
          "type": "address"
        },
        {
          "indexed": false,
          "internalType": "uint256",
          "name": "timestamp",
          "type": "uint256"
        },
        {
          "indexed": false,
          "internalType": "uint256",
          "name": "blockNumber",
          "type": "uint256"
        }
      ],
      "name": "RemovedFromCreateERC20List",
      "type": "event"
    },
    {
      "anonymous": false,
      "inputs": [
        {
          "indexed": true,
          "internalType": "address",
          "name": "user",
          "type": "address"
        },
        {
          "indexed": true,
          "internalType": "address",
          "name": "signer",
          "type": "address"
        },
        {
          "indexed": false,
          "internalType": "uint256",
          "name": "timestamp",
          "type": "uint256"
        },
        {
          "indexed": false,
          "internalType": "uint256",
          "name": "blockNumber",
          "type": "uint256"
        }
      ],
      "name": "RemovedFromMetadataList",
      "type": "event"
    },
    {
      "anonymous": false,
      "inputs": [
        {
          "indexed": true,
          "internalType": "address",
          "name": "user",
          "type": "address"
        },
        {
          "indexed": true,
          "internalType": "address",
          "name": "signer",
          "type": "address"
        },
        {
          "indexed": false,
          "internalType": "uint256",
          "name": "timestamp",
          "type": "uint256"
        },
        {
          "indexed": false,
          "internalType": "uint256",
          "name": "blockNumber",
          "type": "uint256"
        }
      ],
      "name": "RemovedManager",
      "type": "event"
    },
    {
      "anonymous": false,
      "inputs": [
        {
          "indexed": true,
          "internalType": "address",
          "name": "newTokenAddress",
          "type": "address"
        },
        {
          "indexed": true,
          "internalType": "address",
          "name": "templateAddress",
          "type": "address"
        },
        {
          "indexed": true,
          "internalType": "string",
          "name": "tokenName",
          "type": "string"
        }
      ],
      "name": "TokenCreated",
      "type": "event"
    },
    {
      "anonymous": false,
      "inputs": [
        {
          "indexed": true,
          "internalType": "address",
          "name": "from",
          "type": "address"
        },
        {
          "indexed": true,
          "internalType": "address",
          "name": "to",
          "type": "address"
        },
        {
          "indexed": true,
          "internalType": "uint256",
          "name": "tokenId",
          "type": "uint256"
        }
      ],
      "name": "Transfer",
      "type": "event"
    },
    {
      "stateMutability": "payable",
      "type": "fallback"
    },
    {
      "inputs": [
        {
          "internalType": "address",
          "name": "_managerAddress",
          "type": "address"
        }
      ],
      "name": "addManager",
      "outputs": [],
      "stateMutability": "nonpayable",
      "type": "function"
    },
    {
      "inputs": [
        {
          "internalType": "address",
          "name": "_allowedAddress",
          "type": "address"
        }
      ],
      "name": "addTo725StoreList",
      "outputs": [],
      "stateMutability": "nonpayable",
      "type": "function"
    },
    {
      "inputs": [
        {
          "internalType": "address",
          "name": "_allowedAddress",
          "type": "address"
        }
      ],
      "name": "addToCreateERC20List",
      "outputs": [],
      "stateMutability": "nonpayable",
      "type": "function"
    },
    {
      "inputs": [
        {
          "internalType": "address",
          "name": "_allowedAddress",
          "type": "address"
        }
      ],
      "name": "addToMetadataList",
      "outputs": [],
      "stateMutability": "nonpayable",
      "type": "function"
    },
    {
      "inputs": [
        {
          "internalType": "address",
          "name": "to",
          "type": "address"
        },
        {
          "internalType": "uint256",
          "name": "tokenId",
          "type": "uint256"
        }
      ],
      "name": "approve",
      "outputs": [],
      "stateMutability": "nonpayable",
      "type": "function"
    },
    {
      "inputs": [
        {
          "internalType": "uint256",
          "name": "",
          "type": "uint256"
        }
      ],
      "name": "auth",
      "outputs": [
        {
          "internalType": "address",
          "name": "",
          "type": "address"
        }
      ],
      "stateMutability": "view",
      "type": "function"
    },
    {
      "inputs": [
        {
          "internalType": "address",
          "name": "owner",
          "type": "address"
        }
      ],
      "name": "balanceOf",
      "outputs": [
        {
          "internalType": "uint256",
          "name": "",
          "type": "uint256"
        }
      ],
      "stateMutability": "view",
      "type": "function"
    },
    {
      "inputs": [],
      "name": "cleanPermissions",
      "outputs": [],
      "stateMutability": "nonpayable",
      "type": "function"
    },
    {
      "inputs": [
        {
          "internalType": "uint256",
          "name": "_templateIndex",
          "type": "uint256"
        },
        {
          "internalType": "string[]",
          "name": "strings",
          "type": "string[]"
        },
        {
          "internalType": "address[]",
          "name": "addresses",
          "type": "address[]"
        },
        {
          "internalType": "uint256[]",
          "name": "uints",
          "type": "uint256[]"
        },
        {
          "internalType": "bytes[]",
          "name": "bytess",
          "type": "bytes[]"
        }
      ],
      "name": "createERC20",
      "outputs": [
        {
          "internalType": "address",
          "name": "",
          "type": "address"
        }
      ],
      "stateMutability": "nonpayable",
      "type": "function"
    },
    {
      "inputs": [
        {
          "internalType": "uint256",
          "name": "_operation",
          "type": "uint256"
        },
        {
          "internalType": "address",
          "name": "_to",
          "type": "address"
        },
        {
          "internalType": "uint256",
          "name": "_value",
          "type": "uint256"
        },
        {
          "internalType": "bytes",
          "name": "_data",
          "type": "bytes"
        }
      ],
      "name": "executeCall",
      "outputs": [],
      "stateMutability": "payable",
      "type": "function"
    },
    {
      "inputs": [
        {
          "internalType": "uint256",
          "name": "tokenId",
          "type": "uint256"
        }
      ],
      "name": "getApproved",
      "outputs": [
        {
          "internalType": "address",
          "name": "",
          "type": "address"
        }
      ],
      "stateMutability": "view",
      "type": "function"
    },
    {
      "inputs": [
        {
          "internalType": "bytes32",
          "name": "_key",
          "type": "bytes32"
        }
      ],
      "name": "getData",
      "outputs": [
        {
          "internalType": "bytes",
          "name": "_value",
          "type": "bytes"
        }
      ],
      "stateMutability": "view",
      "type": "function"
    },
    {
      "inputs": [],
      "name": "getId",
      "outputs": [
        {
          "internalType": "uint8",
          "name": "",
          "type": "uint8"
        }
      ],
      "stateMutability": "pure",
      "type": "function"
    },
    {
      "inputs": [],
      "name": "getMetaData",
      "outputs": [
        {
          "internalType": "string",
          "name": "",
          "type": "string"
        },
        {
          "internalType": "string",
          "name": "",
          "type": "string"
        },
        {
          "internalType": "uint8",
          "name": "",
          "type": "uint8"
        },
        {
          "internalType": "bool",
          "name": "",
          "type": "bool"
        }
      ],
      "stateMutability": "view",
      "type": "function"
    },
    {
      "inputs": [
        {
          "internalType": "address",
          "name": "user",
          "type": "address"
        }
      ],
      "name": "getPermissions",
      "outputs": [
        {
          "components": [
            {
              "internalType": "bool",
              "name": "manager",
              "type": "bool"
            },
            {
              "internalType": "bool",
              "name": "deployERC20",
              "type": "bool"
            },
            {
              "internalType": "bool",
              "name": "updateMetadata",
              "type": "bool"
            },
            {
              "internalType": "bool",
              "name": "store",
              "type": "bool"
            }
          ],
          "internalType": "struct ERC721RolesAddress.Roles",
          "name": "",
          "type": "tuple"
        }
      ],
      "stateMutability": "view",
      "type": "function"
    },
    {
      "inputs": [],
      "name": "getTokensList",
      "outputs": [
        {
          "internalType": "address[]",
          "name": "",
          "type": "address[]"
        }
      ],
      "stateMutability": "view",
      "type": "function"
    },
    {
      "inputs": [],
      "name": "hasMetaData",
      "outputs": [
        {
          "internalType": "bool",
          "name": "",
          "type": "bool"
        }
      ],
      "stateMutability": "view",
      "type": "function"
    },
    {
      "inputs": [
        {
          "internalType": "address",
          "name": "owner",
          "type": "address"
        },
        {
          "internalType": "string",
          "name": "name_",
          "type": "string"
        },
        {
          "internalType": "string",
          "name": "symbol_",
          "type": "string"
        },
        {
          "internalType": "address",
          "name": "tokenFactory",
          "type": "address"
        },
        {
          "internalType": "address",
          "name": "additionalERC20Deployer",
          "type": "address"
        },
        {
          "internalType": "string",
          "name": "baseURI",
          "type": "string"
        }
      ],
      "name": "initialize",
      "outputs": [
        {
          "internalType": "bool",
          "name": "",
          "type": "bool"
        }
      ],
      "stateMutability": "nonpayable",
      "type": "function"
    },
    {
      "inputs": [
        {
          "internalType": "address",
          "name": "owner",
          "type": "address"
        },
        {
          "internalType": "address",
          "name": "operator",
          "type": "address"
        }
      ],
      "name": "isApprovedForAll",
      "outputs": [
        {
          "internalType": "bool",
          "name": "",
          "type": "bool"
        }
      ],
      "stateMutability": "view",
      "type": "function"
    },
    {
      "inputs": [
        {
          "internalType": "address",
          "name": "datatoken",
          "type": "address"
        }
      ],
      "name": "isDeployed",
      "outputs": [
        {
          "internalType": "bool",
          "name": "",
          "type": "bool"
        }
      ],
      "stateMutability": "view",
      "type": "function"
    },
    {
      "inputs": [
        {
          "internalType": "address",
          "name": "account",
          "type": "address"
        }
      ],
      "name": "isERC20Deployer",
      "outputs": [
        {
          "internalType": "bool",
          "name": "",
          "type": "bool"
        }
      ],
      "stateMutability": "view",
      "type": "function"
    },
    {
      "inputs": [],
      "name": "isInitialized",
      "outputs": [
        {
          "internalType": "bool",
          "name": "",
          "type": "bool"
        }
      ],
      "stateMutability": "view",
      "type": "function"
    },
    {
      "inputs": [],
      "name": "metaDataDecryptorAddress",
      "outputs": [
        {
          "internalType": "string",
          "name": "",
          "type": "string"
        }
      ],
      "stateMutability": "view",
      "type": "function"
    },
    {
      "inputs": [],
      "name": "metaDataDecryptorUrl",
      "outputs": [
        {
          "internalType": "string",
          "name": "",
          "type": "string"
        }
      ],
      "stateMutability": "view",
      "type": "function"
    },
    {
      "inputs": [],
      "name": "metaDataState",
      "outputs": [
        {
          "internalType": "uint8",
          "name": "",
          "type": "uint8"
        }
      ],
      "stateMutability": "view",
      "type": "function"
    },
    {
      "inputs": [],
      "name": "name",
      "outputs": [
        {
          "internalType": "string",
          "name": "",
          "type": "string"
        }
      ],
      "stateMutability": "view",
      "type": "function"
    },
    {
      "inputs": [
        {
          "internalType": "uint256",
          "name": "tokenId",
          "type": "uint256"
        }
      ],
      "name": "ownerOf",
      "outputs": [
        {
          "internalType": "address",
          "name": "",
          "type": "address"
        }
      ],
      "stateMutability": "view",
      "type": "function"
    },
    {
      "inputs": [
        {
          "internalType": "address",
          "name": "_allowedAddress",
          "type": "address"
        }
      ],
      "name": "removeFrom725StoreList",
      "outputs": [],
      "stateMutability": "nonpayable",
      "type": "function"
    },
    {
      "inputs": [
        {
          "internalType": "address",
          "name": "_allowedAddress",
          "type": "address"
        }
      ],
      "name": "removeFromCreateERC20List",
      "outputs": [],
      "stateMutability": "nonpayable",
      "type": "function"
    },
    {
      "inputs": [
        {
          "internalType": "address",
          "name": "_allowedAddress",
          "type": "address"
        }
      ],
      "name": "removeFromMetadataList",
      "outputs": [],
      "stateMutability": "nonpayable",
      "type": "function"
    },
    {
      "inputs": [
        {
          "internalType": "address",
          "name": "_managerAddress",
          "type": "address"
        }
      ],
      "name": "removeManager",
      "outputs": [],
      "stateMutability": "nonpayable",
      "type": "function"
    },
    {
      "inputs": [
        {
          "internalType": "address",
          "name": "from",
          "type": "address"
        },
        {
          "internalType": "address",
          "name": "to",
          "type": "address"
        },
        {
          "internalType": "uint256",
          "name": "tokenId",
          "type": "uint256"
        }
      ],
      "name": "safeTransferFrom",
      "outputs": [],
      "stateMutability": "nonpayable",
      "type": "function"
    },
    {
      "inputs": [
        {
          "internalType": "address",
          "name": "operator",
          "type": "address"
        },
        {
          "internalType": "bool",
          "name": "approved",
          "type": "bool"
        }
      ],
      "name": "setApprovalForAll",
      "outputs": [],
      "stateMutability": "nonpayable",
      "type": "function"
    },
    {
      "inputs": [
        {
          "internalType": "string",
          "name": "_baseURI",
          "type": "string"
        }
      ],
      "name": "setBaseURI",
      "outputs": [],
      "stateMutability": "nonpayable",
      "type": "function"
    },
    {
      "inputs": [
        {
          "internalType": "bytes32",
          "name": "_key",
          "type": "bytes32"
        },
        {
          "internalType": "bytes",
          "name": "_value",
          "type": "bytes"
        }
      ],
      "name": "setDataERC20",
      "outputs": [],
      "stateMutability": "nonpayable",
      "type": "function"
    },
    {
      "inputs": [
        {
          "internalType": "uint8",
          "name": "_metaDataState",
          "type": "uint8"
        },
        {
          "internalType": "string",
          "name": "_metaDataDecryptorUrl",
          "type": "string"
        },
        {
          "internalType": "string",
          "name": "_metaDataDecryptorAddress",
          "type": "string"
        },
        {
          "internalType": "bytes",
          "name": "flags",
          "type": "bytes"
        },
        {
          "internalType": "bytes",
          "name": "data",
          "type": "bytes"
        },
        {
          "internalType": "bytes",
          "name": "_metaDataHash",
          "type": "bytes"
        }
      ],
      "name": "setMetaData",
      "outputs": [],
      "stateMutability": "nonpayable",
      "type": "function"
    },
    {
      "inputs": [
        {
          "internalType": "bytes32",
          "name": "_key",
          "type": "bytes32"
        },
        {
          "internalType": "bytes",
          "name": "_value",
          "type": "bytes"
        }
      ],
      "name": "setNewData",
      "outputs": [],
      "stateMutability": "nonpayable",
      "type": "function"
    },
    {
      "inputs": [],
      "name": "ssContract",
      "outputs": [
        {
          "internalType": "address",
          "name": "",
          "type": "address"
        }
      ],
      "stateMutability": "view",
      "type": "function"
    },
    {
      "inputs": [
        {
          "internalType": "bytes4",
          "name": "interfaceId",
          "type": "bytes4"
        }
      ],
      "name": "supportsInterface",
      "outputs": [
        {
          "internalType": "bool",
          "name": "",
          "type": "bool"
        }
      ],
      "stateMutability": "view",
      "type": "function"
    },
    {
      "inputs": [],
      "name": "symbol",
      "outputs": [
        {
          "internalType": "string",
          "name": "",
          "type": "string"
        }
      ],
      "stateMutability": "view",
      "type": "function"
    },
    {
      "inputs": [
        {
          "internalType": "uint256",
          "name": "tokenId",
          "type": "uint256"
        }
      ],
      "name": "tokenURI",
      "outputs": [
        {
          "internalType": "string",
          "name": "",
          "type": "string"
        }
      ],
      "stateMutability": "view",
      "type": "function"
    },
    {
      "inputs": [
        {
          "internalType": "address",
          "name": "from",
          "type": "address"
        },
        {
          "internalType": "address",
          "name": "to",
          "type": "address"
        },
        {
          "internalType": "uint256",
          "name": "tokenId",
          "type": "uint256"
        }
      ],
      "name": "transferFrom",
      "outputs": [],
      "stateMutability": "nonpayable",
      "type": "function"
    },
    {
      "inputs": [],
      "name": "withdrawETH",
      "outputs": [],
      "stateMutability": "payable",
      "type": "function"
    }
  ],
  "bytecode": "0x60806040523480156200001157600080fd5b50604080518082018252600881526754656d706c61746560c01b60208083019182528351808501909452600e84526d15195b5c1b185d1954de5b589bdb60921b908401528151919291620000689160009162000131565b5080516200007e90600190602084019062000131565b50620000959150632260147f60e11b9050620000ad565b620000a7632bd57b7360e01b620000ad565b62000214565b6001600160e01b031980821614156200010c5760405162461bcd60e51b815260206004820152601c60248201527f4552433136353a20696e76616c696420696e7465726661636520696400000000604482015260640160405180910390fd5b6001600160e01b0319166000908152600960205260409020805460ff19166001179055565b8280546200013f90620001d7565b90600052602060002090601f016020900481019282620001635760008555620001ae565b82601f106200017e57805160ff1916838001178555620001ae565b82800160010185558215620001ae579182015b82811115620001ae57825182559160200191906001019062000191565b50620001bc929150620001c0565b5090565b5b80821115620001bc5760008155600101620001c1565b600181811c90821680620001ec57607f821691505b602082108114156200020e57634e487b7160e01b600052602260045260246000fd5b50919050565b613d8980620002246000396000f3fe6080604052600436106102475760003560e01c80635d1ca63111610138578063ac18de43116100b0578063d2786ba411610077578063d2786ba4146107d7578063d8053ad3146107fc578063e086e5ec1461081b578063e38d7cad14610823578063e985e9c514610843578063fe1ec8801461088c57005b8063ac18de431461074a578063b0c41ead1461076a578063c55f81261461078a578063c87b56dd1461079d578063ccd7d476146107bd57005b806370c166d7116100ff57806370c166d71461066957806382cf129d1461068957806390184b021461069e57806395d89b41146106d757806396fb3eaf146106ec578063a22cb4651461072a57005b80635d1ca631146105b95780635d5dea24146105db5780636352211e146105fb57806367530a611461061b57806370a082311461063b57005b8063273e06b3116101cb578063466bca0211610192578063466bca02146105025780634a63740a146105245780634b2ee5e9146105445780634f189cb21461056457806354f6127f1461057957806355f804b31461059957005b8063273e06b31461046a5780632d06177a1461048a578063392e53cd146104aa57806342842e0e146104c2578063431053ac146104e257005b80630e57c7e81161020f5780630e57c7e81461030d57806310c558bf1461032d578063160a79251461034d57806319c186e51461042a57806323b872dd1461044a57005b806301ffc9a71461024957806306fdde031461027e578063081812fc146102a0578063095ea7b3146102d85780630e05662e146102f8575b005b34801561025557600080fd5b5061026961026436600461340c565b6108ac565b60405190151581526020015b60405180910390f35b34801561028a57600080fd5b506102936108ec565b60405161027591906138ba565b3480156102ac57600080fd5b506102c06102bb3660046133a7565b61097e565b6040516001600160a01b039091168152602001610275565b3480156102e457600080fd5b506102476102f336600461337b565b610a18565b34801561030457600080fd5b50610293610b2e565b34801561031957600080fd5b506102476103283660046133c0565b610bbc565b34801561033957600080fd5b506102476103483660046131c5565b610c36565b34801561035957600080fd5b506103ef6103683660046131c5565b604080516080810182526000808252602082018190529181018290526060810191909152506001600160a01b03166000908152600760209081526040918290208251608081018452905460ff808216151583526101008204811615159383019390935262010000810483161515938201939093526301000000909204161515606082015290565b604051610275919081511515815260208083015115159082015260408083015115159082015260609182015115159181019190915260800190565b34801561043657600080fd5b506102476104453660046131c5565b610d09565b34801561045657600080fd5b50610247610465366004613238565b610dd2565b34801561047657600080fd5b506102476104853660046131c5565b610ea4565b34801561049657600080fd5b506102476104a53660046131c5565b610fdd565b3480156104b657600080fd5b50600d5460ff16610269565b3480156104ce57600080fd5b506102476104dd366004613238565b611020565b3480156104ee57600080fd5b506102476104fd3660046131c5565b6110c6565b34801561050e57600080fd5b506105176111fb565b6040516102759190613859565b34801561053057600080fd5b5061024761053f3660046131c5565b61125c565b34801561055057600080fd5b506012546102c0906001600160a01b031681565b34801561057057600080fd5b50610247611321565b34801561058557600080fd5b506102936105943660046133a7565b611365565b3480156105a557600080fd5b506102476105b4366004613446565b611407565b3480156105c557600080fd5b5060015b60405160ff9091168152602001610275565b3480156105e757600080fd5b506102476105f63660046135b5565b611458565b34801561060757600080fd5b506102c06106163660046133a7565b6115ce565b34801561062757600080fd5b506102476106363660046133c0565b611645565b34801561064757600080fd5b5061065b6106563660046131c5565b6116ba565b604051908152602001610275565b34801561067557600080fd5b506102696106843660046132ac565b611741565b34801561069557600080fd5b5061029361185e565b3480156106aa57600080fd5b506102696106b93660046131c5565b6001600160a01b031660009081526013602052604090205460ff1690565b3480156106e357600080fd5b5061029361186b565b3480156106f857600080fd5b506102696107073660046131c5565b6001600160a01b0316600090815260076020526040902054610100900460ff1690565b34801561073657600080fd5b50610247610745366004613279565b61187a565b34801561075657600080fd5b506102476107653660046131c5565b611938565b34801561077657600080fd5b506102c06107853660046133a7565b61197b565b61024761079836600461347b565b6119a5565b3480156107a957600080fd5b506102936107b83660046133a7565b6119ed565b3480156107c957600080fd5b506010546105c99060ff1681565b3480156107e357600080fd5b506107ec611ac8565b60405161027594939291906138cd565b34801561080857600080fd5b50600d5461026990610100900460ff1681565b610247611c18565b34801561082f57600080fd5b506102c061083e3660046134e5565b611c5a565b34801561084f57600080fd5b5061026961085e3660046131ff565b6001600160a01b03918216600090815260066020908152604080832093909416825291909152205460ff1690565b34801561089857600080fd5b506102476108a73660046131c5565b611de0565b60006301ffc9a760e01b6001600160e01b0319831614806108e657506001600160e01b0319821660009081526009602052604090205460ff165b92915050565b6060600b80546108fb90613c46565b80601f016020809104026020016040519081016040528092919081815260200182805461092790613c46565b80156109745780601f1061094957610100808354040283529160200191610974565b820191906000526020600020905b81548152906001019060200180831161095757829003601f168201915b5050505050905090565b6000818152600360205260408120546001600160a01b03166109fc5760405162461bcd60e51b815260206004820152602c60248201527f4552433732313a20617070726f76656420717565727920666f72206e6f6e657860448201526b34b9ba32b73a103a37b5b2b760a11b60648201526084015b60405180910390fd5b506000908152600560205260409020546001600160a01b031690565b6000610a23826115ce565b9050806001600160a01b0316836001600160a01b03161415610a915760405162461bcd60e51b815260206004820152602160248201527f4552433732313a20617070726f76616c20746f2063757272656e74206f776e656044820152603960f91b60648201526084016109f3565b336001600160a01b0382161480610aad5750610aad813361085e565b610b1f5760405162461bcd60e51b815260206004820152603860248201527f4552433732313a20617070726f76652063616c6c6572206973206e6f74206f7760448201527f6e6572206e6f7220617070726f76656420666f7220616c6c000000000000000060648201526084016109f3565b610b298383611f10565b505050565b600f8054610b3b90613c46565b80601f0160208091040260200160405190810160405280929190818152602001828054610b6790613c46565b8015610bb45780601f10610b8957610100808354040283529160200191610bb4565b820191906000526020600020905b815481529060010190602001808311610b9757829003601f168201915b505050505081565b3360009081526013602052604090205460ff161515600114610c2b5760405162461bcd60e51b815260206004820152602260248201527f45524337323154656d706c6174653a204e4f5420455243323020436f6e74726160448201526118dd60f21b60648201526084016109f3565b610b29838383611f7e565b3360009081526007602052604090205460ff161515600114610c6a5760405162461bcd60e51b81526004016109f390613a34565b6001600160a01b038116600081815260076020526040808220805462ff0000191662010000178155600880546001810182559352600080516020613d3483398151915290920180546001600160a01b0319168417905551909133917fc2a42571a74ce1442c8c44d375ba9442e7d55d94b37afeace261c83c62128fa490610cfd9042904390918252602082015260400190565b60405180910390a35050565b3360009081526007602052604090205460ff161515600114610d3d5760405162461bcd60e51b81526004016109f390613a34565b6001600160a01b038116600081815260076020526040808220805463ff00000019166301000000178155600880546001810182559352600080516020613d3483398151915290920180546001600160a01b0319168417905551909133917feb09276310ed110a7e565d64966d0ff68a47112d2dd5eeb6cbd7451836ce35ee90610cfd9042904390918252602082015260400190565b80600114610df25760405162461bcd60e51b81526004016109f390613997565b610e5c610e576011805480602002602001604051908101604052809291908181526020018280548015610e4e57602002820191906000526020600020905b81546001600160a01b03168152600190910190602001808311610e30575b50505050505190565b611fd7565b610e64612068565b610e6f838383612119565b610e788261215a565b506001600160a01b03166000908152600760205260409020805463ffffff001916630101010017905550565b3360009081526007602052604090205460ff16151560011480610ef55750336001600160a01b038216148015610ef55750336000908152600760205260409020546301000000900460ff1615156001145b15610f5d576001600160a01b03811660008181526007602052604090819020805463ff000000191681559051909133917fc929b18b08ffea86a1f95e29384dbe8968f2fcbd70cfd735df3aba1cc548cbf390610cfd9042904390918252602082015260400190565b60405162461bcd60e51b815260206004820152604660248201527f455243373231526f6c6573416464726573733a204e6f7420656e6f756768207060448201527f65726d697373696f6e7320746f2072656d6f76652066726f6d2037323553746f6064820152651c99531a5cdd60d21b608482015260a4016109f3565b50565b610fe760016115ce565b6001600160a01b0316336001600160a01b0316146110175760405162461bcd60e51b81526004016109f390613960565b610fda8161215a565b806001146110405760405162461bcd60e51b81526004016109f390613997565b6110a3610e576011805480602002602001604051908101604052809291908181526020018280548015610e4e576020028201919060005260206000209081546001600160a01b03168152600190910190602001808311610e305750505050505190565b6110ab612068565b610e6f838383604051806020016040528060008152506121eb565b3360009081526007602052604090205460ff161515600114806111165750336001600160a01b03821614801561111657503360009081526007602052604090205462010000900460ff1615156001145b1561117d576001600160a01b03811660008181526007602052604090819020805462ff0000191681559051909133917f9b41e1311fa819e825bc77fa2568492112e15ea92d173f3f8ee1c8ec3c1c562b90610cfd9042904390918252602082015260400190565b60405162461bcd60e51b815260206004820152604760248201527f455243373231526f6c6573416464726573733a204e6f7420656e6f756768207060448201527f65726d697373696f6e7320746f2072656d6f76652066726f6d206d65746164616064820152661d18481b1a5cdd60ca1b608482015260a4016109f3565b6060601180548060200260200160405190810160405280929190818152602001828054801561097457602002820191906000526020600020905b81546001600160a01b03168152600190910190602001808311611235575050505050905090565b3360009081526007602052604090205460ff1615156001146112905760405162461bcd60e51b81526004016109f390613a34565b6001600160a01b038116600081815260076020526040808220805461ff001916610100178155600880546001810182559352600080516020613d3483398151915290920180546001600160a01b0319168417905551909133917f0572d56343be407a66810f01449212e8545e14ff5049c479d34be944cdfd0d4f90610cfd9042904390918252602082015260400190565b61132b60016115ce565b6001600160a01b0316336001600160a01b03161461135b5760405162461bcd60e51b81526004016109f390613960565b611363612068565b565b6000818152600a6020526040902080546060919061138290613c46565b80601f01602080910402602001604051908101604052809291908181526020018280546113ae90613c46565b80156113fb5780601f106113d0576101008083540402835291602001916113fb565b820191906000526020600020905b8154815290600101906020018083116113de57829003601f168201915b50505050509050919050565b61141160016115ce565b6001600160a01b0316336001600160a01b0316146114415760405162461bcd60e51b81526004016109f390613960565b8051611454906002906020840190612f6d565b5050565b3360009081526007602052604090205462010000900460ff1615156001146114cc5760405162461bcd60e51b815260206004820152602160248201527f45524337323154656d706c6174653a204e4f54204d455441444154415f524f4c6044820152604560f81b60648201526084016109f3565b6010805460ff191660ff8d161790556114e7600e8b8b612ff1565b506114f4600f8989612ff1565b50600d54610100900460ff1661156d57336001600160a01b03167fa6105ba66a6e1cdef460b79cd6a2d14f58d1e224f5bb876fafc51535c34ab6848c8c8c8a8a8a8a8a8a42436040516115519b9a99989796959493929190613b1c565b60405180910390a2600d805461ff0019166101001790556115c1565b60105460405133917f4248722dac0ab49fef08643fbc510e0343175ae223ca5cc5420e118e46da7198916115b89160ff16908e908e908c908c908c908c908c908c9042904390613b1c565b60405180910390a25b5050505050505050505050565b6000818152600360205260408120546001600160a01b0316806108e65760405162461bcd60e51b815260206004820152602960248201527f4552433732313a206f776e657220717565727920666f72206e6f6e657869737460448201526832b73a103a37b5b2b760b91b60648201526084016109f3565b336000908152600760205260409020546301000000900460ff161515600114610c2b5760405162461bcd60e51b815260206004820152602160248201527f45524337323154656d706c6174653a204e4f542053544f5245205550444154456044820152602960f91b60648201526084016109f3565b60006001600160a01b0382166117255760405162461bcd60e51b815260206004820152602a60248201527f4552433732313a2062616c616e636520717565727920666f7220746865207a65604482015269726f206164647265737360b01b60648201526084016109f3565b506001600160a01b031660009081526004602052604090205490565b600d5460009060ff16156117b25760405162461bcd60e51b815260206004820152603260248201527f45524337323154656d706c6174653a20746f6b656e20696e7374616e636520616044820152711b1c9958591e481a5b9a5d1a585b1a5e995960721b60648201526084016109f3565b600061182c8a8a8a8080601f01602080910402602001604051908101604052809392919081815260200183838082843760009201919091525050604080516020601f8e018190048102820181019092528c815292508c91508b90819084018382808284376000920191909152508b92508991506122239050565b905080801561184357506001600160a01b03841615155b156118515761185184611290565b9998505050505050505050565b600e8054610b3b90613c46565b6060600c80546108fb90613c46565b6001600160a01b0382163314156118d35760405162461bcd60e51b815260206004820152601960248201527f4552433732313a20617070726f766520746f2063616c6c65720000000000000060448201526064016109f3565b3360008181526006602090815260408083206001600160a01b03871680855290835292819020805460ff191686151590811790915590519081529192917f17307eab39ab6107e8899845ad3d59bd9653f200f220920489ca2b5937696c319101610cfd565b61194260016115ce565b6001600160a01b0316336001600160a01b0316146119725760405162461bcd60e51b81526004016109f390613960565b610fda8161234c565b6008818154811061198b57600080fd5b6000918252602090912001546001600160a01b0316905081565b3360009081526007602052604090205460ff1615156001146119d95760405162461bcd60e51b81526004016109f390613a34565b6119e685858585856123ac565b5050505050565b6000818152600360205260409020546060906001600160a01b0316611a6c5760405162461bcd60e51b815260206004820152602f60248201527f4552433732314d657461646174613a2055524920717565727920666f72206e6f60448201526e3732bc34b9ba32b73a103a37b5b2b760891b60648201526084016109f3565b6000611a766125d5565b90506000815111611a965760405180602001604052806000815250611ac1565b80611aa0846125e4565b604051602001611ab19291906137ed565b6040516020818303038152906040525b9392505050565b606080600080600e600f601060009054906101000a900460ff16600d60019054906101000a900460ff16838054611afe90613c46565b80601f0160208091040260200160405190810160405280929190818152602001828054611b2a90613c46565b8015611b775780601f10611b4c57610100808354040283529160200191611b77565b820191906000526020600020905b815481529060010190602001808311611b5a57829003601f168201915b50505050509350828054611b8a90613c46565b80601f0160208091040260200160405190810160405280929190818152602001828054611bb690613c46565b8015611c035780601f10611bd857610100808354040283529160200191611c03565b820191906000526020600020905b815481529060010190602001808311611be657829003601f168201915b50505050509250935093509350935090919293565b611c2260016115ce565b6001600160a01b03166108fc479081150290604051600060405180830381858888f19350505050158015610fda573d6000803e3d6000fd5b3360009081526007602052604081205460ff610100909104161515600114611cd35760405162461bcd60e51b815260206004820152602660248201527f45524337323154656d706c6174653a204e4f542045524332304445504c4f5945604482015265525f524f4c4560d01b60648201526084016109f3565b601054604051630557fcfb60e41b815260009161010090046001600160a01b03169063557fcfb090611d19908e908e908e908e908e908e908e908e908e90600401613a6b565b602060405180830381600087803b158015611d3357600080fd5b505af1158015611d47573d6000803e3d6000fd5b505050506040513d601f19601f82011682018060405250810190611d6b91906131e2565b6001600160a01b0381166000818152601360205260408120805460ff191660019081179091556011805491820181559091527f31ecc21a745e3968a04e9570e4425bc18fa8019c68028196b546d1669c200c680180546001600160a01b03191690911790559150509998505050505050505050565b3360009081526007602052604090205460ff16151560011480611e305750336001600160a01b038216148015611e3057503360009081526007602052604090205460ff6101009091041615156001145b15611e96576001600160a01b03811660008181526007602052604090819020805461ff00191681559051909133917f59bd33f4c27cc16a2d74450e1fa43d7896020be9aecea4bee009db9294de899790610cfd9042904390918252602082015260400190565b60405162461bcd60e51b815260206004820152604360248201527f455243373231526f6c6573416464726573733a204e6f7420656e6f756768207060448201527f65726d697373696f6e7320746f2072656d6f76652066726f6d2045524332304c6064820152621a5cdd60ea1b608482015260a4016109f3565b600081815260056020526040902080546001600160a01b0319166001600160a01b0384169081179091558190611f45826115ce565b6001600160a01b03167f8c5be1e5ebec7d5bd14f71427d1e84f3dd0314c0f7b2291e5b200ac8c7c3b92560405160405180910390a45050565b6000838152600a60205260409020611f97908383612ff1565b50827fece574603820d07bc9b91f2a932baadf4628aabcb8afba49776529c14a6104b28383604051611fca9291906138a6565b60405180910390a2505050565b60005b818110156114545760118181548110611ff557611ff5613cdc565b6000918252602082200154604080516382c03da560e01b815290516001600160a01b03909216926382c03da59260048084019382900301818387803b15801561203d57600080fd5b505af1158015612051573d6000803e3d6000fd5b50505050808061206090613c81565b915050611fda565b60005b6008548110156120d0576000600760006008848154811061208e5761208e613cdc565b60009182526020808320909101546001600160a01b031683528201929092526040019020805463ffffffff1916905550806120c881613c81565b91505061206b565b506120dd60086000613065565b6040805142815243602082015233917f712bc71db81927a76b8bf1ea346247bb0ad58f18e4e5c1bd4aa0ec6573e02a2b910160405180910390a2565b61212333826126ea565b61213f5760405162461bcd60e51b81526004016109f3906139e3565b610b29838383604051806020016040528060008152506121eb565b6001600160a01b038116600081815260076020526040808220805460ff191660019081178255600880549182018155909352600080516020613d3483398151915290920180546001600160a01b0319168417905551909133917faf8fc8b6726138c96881c895390a08e9d91a94c288f06281e7f9821c49c7155b90610cfd9042904390918252602082015260400190565b6121f533836126ea565b6122115760405162461bcd60e51b81526004016109f3906139e3565b61221d848484846127dd565b50505050565b60006001600160a01b0386166122925760405162461bcd60e51b815260206004820152602e60248201527f45524337323154656d706c6174653a3a20496e76616c6964206d696e7465722c60448201526d20207a65726f206164647265737360901b60648201526084016109f3565b84516122a590600b906020880190612f6d565b5083516122b990600c906020870190612f6d565b5060108054610100600160a81b0319166101006001600160a01b0386160217905581516122ed906002906020850190612f6d565b50600d805461ffff1916600190811790915561230a908790612810565b6123138661215a565b505050506001600160a01b03919091166000908152600760205260409020805463ffffff001916630101010017905550600d5460ff1690565b6001600160a01b03811660008181526007602052604090819020805460ff191681559051909133917fb572db0e6da4924b771ed1712b980d48b5992b9a1c27aede55fbb3318c48996a90610cfd9042904390918252602082015260400190565b82846001600160a01b0316867f1f920dbda597d7bf95035464170fa58d0a4b57f13a1c315ace6793b9f63688b885856040516123e99291906138a6565b60405180910390a460006109c45a6124019190613c03565b9050856124515761244b858585858080601f01602080910402602001604051908101604052809392919081815260200183838082843760009201919091525087925061282a915050565b506125cd565b600386141561249a5761244b8484848080601f01602080910402602001604051908101604052809392919081815260200183838082843760009201919091525061284292505050565b600286141561258e5760006124f184848080601f0160208091040260200160405190810160405280939291908181526020018383808284376000920191909152506124ec925060209150879050613c03565b6128de565b9050600061254085858080601f0160208091040260200160405190810160405280939291908181526020018383808284376000920182905250925061253b91506020905088613c03565b61293c565b9050600061254f878484612a49565b6040519091506001600160a01b038216907fcf78cf0d6f3d8371e1075c69c492ab4ec5d8cf23a1a239b6a51a1d00be7ca31290600090a25050506125cd565b60405162461bcd60e51b815260206004820152601460248201527357726f6e67206f7065726174696f6e207479706560601b60448201526064016109f3565b505050505050565b6060600280546108fb90613c46565b6060816126085750506040805180820190915260018152600360fc1b602082015290565b8160005b8115612632578061261c81613c81565b915061262b9050600a83613bef565b915061260c565b60008167ffffffffffffffff81111561264d5761264d613cf2565b6040519080825280601f01601f191660200182016040528015612677576020820181803683370190505b5090505b84156126e25761268c600183613c03565b9150612699600a86613c9c565b6126a4906030613bd7565b60f81b8183815181106126b9576126b9613cdc565b60200101906001600160f81b031916908160001a9053506126db600a86613bef565b945061267b565b949350505050565b6000818152600360205260408120546001600160a01b03166127635760405162461bcd60e51b815260206004820152602c60248201527f4552433732313a206f70657261746f7220717565727920666f72206e6f6e657860448201526b34b9ba32b73a103a37b5b2b760a11b60648201526084016109f3565b600061276e836115ce565b9050806001600160a01b0316846001600160a01b031614806127a95750836001600160a01b031661279e8461097e565b6001600160a01b0316145b806126e257506001600160a01b0380821660009081526006602090815260408083209388168352929052205460ff166126e2565b6127e8848484612b4b565b6127f484848484612ceb565b61221d5760405162461bcd60e51b81526004016109f39061390e565b611454828260405180602001604052806000815250612df8565b6000806000845160208601878987f195945050505050565b600081516020830184f090506001600160a01b0381166128a45760405162461bcd60e51b815260206004820152601960248201527f436f756c64206e6f74206465706c6f7920636f6e74726163740000000000000060448201526064016109f3565b6040516001600160a01b038216907fcf78cf0d6f3d8371e1075c69c492ab4ec5d8cf23a1a239b6a51a1d00be7ca31290600090a292915050565b60006128eb826020613bd7565b835110156129335760405162461bcd60e51b8152602060048201526015602482015274746f427974657333325f6f75744f66426f756e647360581b60448201526064016109f3565b50016020015190565b60608161294a81601f613bd7565b10156129895760405162461bcd60e51b815260206004820152600e60248201526d736c6963655f6f766572666c6f7760901b60448201526064016109f3565b6129938284613bd7565b845110156129d75760405162461bcd60e51b8152602060048201526011602482015270736c6963655f6f75744f66426f756e647360781b60448201526064016109f3565b6060821580156129f65760405191506000825260208201604052612a40565b6040519150601f8416801560200281840101858101878315602002848b0101015b81831015612a2f578051835260209283019201612a17565b5050858452601f01601f1916604052505b50949350505050565b60008084471015612a9c5760405162461bcd60e51b815260206004820152601d60248201527f437265617465323a20696e73756666696369656e742062616c616e636500000060448201526064016109f3565b8251612aea5760405162461bcd60e51b815260206004820181905260248201527f437265617465323a2062797465636f6465206c656e677468206973207a65726f60448201526064016109f3565b8383516020850187f590506001600160a01b0381166126e25760405162461bcd60e51b815260206004820152601960248201527f437265617465323a204661696c6564206f6e206465706c6f790000000000000060448201526064016109f3565b826001600160a01b0316612b5e826115ce565b6001600160a01b031614612bc65760405162461bcd60e51b815260206004820152602960248201527f4552433732313a207472616e73666572206f6620746f6b656e2074686174206960448201526839903737ba1037bbb760b91b60648201526084016109f3565b6001600160a01b038216612c285760405162461bcd60e51b8152602060048201526024808201527f4552433732313a207472616e7366657220746f20746865207a65726f206164646044820152637265737360e01b60648201526084016109f3565b612c33600082611f10565b6001600160a01b0383166000908152600460205260408120805460019290612c5c908490613c03565b90915550506001600160a01b0382166000908152600460205260408120805460019290612c8a908490613bd7565b909155505060008181526003602052604080822080546001600160a01b0319166001600160a01b0386811691821790925591518493918716917fddf252ad1be2c89b69c2b068fc378daa952ba7f163c4a11628f55a4df523b3ef91a4505050565b60006001600160a01b0384163b15612ded57604051630a85bd0160e11b81526001600160a01b0385169063150b7a0290612d2f90339089908890889060040161381c565b602060405180830381600087803b158015612d4957600080fd5b505af1925050508015612d79575060408051601f3d908101601f19168201909252612d7691810190613429565b60015b612dd3573d808015612da7576040519150601f19603f3d011682016040523d82523d6000602084013e612dac565b606091505b508051612dcb5760405162461bcd60e51b81526004016109f39061390e565b805181602001fd5b6001600160e01b031916630a85bd0160e11b1490506126e2565b506001949350505050565b612e028383612e2b565b612e0f6000848484612ceb565b610b295760405162461bcd60e51b81526004016109f39061390e565b6001600160a01b038216612e815760405162461bcd60e51b815260206004820181905260248201527f4552433732313a206d696e7420746f20746865207a65726f206164647265737360448201526064016109f3565b6000818152600360205260409020546001600160a01b031615612ee65760405162461bcd60e51b815260206004820152601c60248201527f4552433732313a20746f6b656e20616c7265616479206d696e7465640000000060448201526064016109f3565b6001600160a01b0382166000908152600460205260408120805460019290612f0f908490613bd7565b909155505060008181526003602052604080822080546001600160a01b0319166001600160a01b03861690811790915590518392907fddf252ad1be2c89b69c2b068fc378daa952ba7f163c4a11628f55a4df523b3ef908290a45050565b828054612f7990613c46565b90600052602060002090601f016020900481019282612f9b5760008555612fe1565b82601f10612fb457805160ff1916838001178555612fe1565b82800160010185558215612fe1579182015b82811115612fe1578251825591602001919060010190612fc6565b50612fed92915061307f565b5090565b828054612ffd90613c46565b90600052602060002090601f01602090048101928261301f5760008555612fe1565b82601f106130385782800160ff19823516178555612fe1565b82800160010185558215612fe1579182015b82811115612fe157823582559160200191906001019061304a565b5080546000825590600052602060002090810190610fda91905b5b80821115612fed5760008155600101613080565b60008083601f8401126130a657600080fd5b50813567ffffffffffffffff8111156130be57600080fd5b6020830191508360208260051b85010111156130d957600080fd5b9250929050565b60008083601f8401126130f257600080fd5b50813567ffffffffffffffff81111561310a57600080fd5b6020830191508360208285010111156130d957600080fd5b600082601f83011261313357600080fd5b813567ffffffffffffffff8082111561314e5761314e613cf2565b604051601f8301601f19908116603f0116810190828211818310171561317657613176613cf2565b8160405283815286602085880101111561318f57600080fd5b836020870160208301376000602085830101528094505050505092915050565b803560ff811681146131c057600080fd5b919050565b6000602082840312156131d757600080fd5b8135611ac181613d08565b6000602082840312156131f457600080fd5b8151611ac181613d08565b6000806040838503121561321257600080fd5b823561321d81613d08565b9150602083013561322d81613d08565b809150509250929050565b60008060006060848603121561324d57600080fd5b833561325881613d08565b9250602084013561326881613d08565b929592945050506040919091013590565b6000806040838503121561328c57600080fd5b823561329781613d08565b91506020830135801515811461322d57600080fd5b60008060008060008060008060c0898b0312156132c857600080fd5b88356132d381613d08565b9750602089013567ffffffffffffffff808211156132f057600080fd5b6132fc8c838d016130e0565b909950975060408b013591508082111561331557600080fd5b6133218c838d016130e0565b909750955060608b0135915061333682613d08565b90935060808a01359061334882613d08565b90925060a08a0135908082111561335e57600080fd5b5061336b8b828c01613122565b9150509295985092959890939650565b6000806040838503121561338e57600080fd5b823561339981613d08565b946020939093013593505050565b6000602082840312156133b957600080fd5b5035919050565b6000806000604084860312156133d557600080fd5b83359250602084013567ffffffffffffffff8111156133f357600080fd5b6133ff868287016130e0565b9497909650939450505050565b60006020828403121561341e57600080fd5b8135611ac181613d1d565b60006020828403121561343b57600080fd5b8151611ac181613d1d565b60006020828403121561345857600080fd5b813567ffffffffffffffff81111561346f57600080fd5b6126e284828501613122565b60008060008060006080868803121561349357600080fd5b8535945060208601356134a581613d08565b935060408601359250606086013567ffffffffffffffff8111156134c857600080fd5b6134d4888289016130e0565b969995985093965092949392505050565b600080600080600080600080600060a08a8c03121561350357600080fd5b8935985060208a013567ffffffffffffffff8082111561352257600080fd5b61352e8d838e01613094565b909a50985060408c013591508082111561354757600080fd5b6135538d838e01613094565b909850965060608c013591508082111561356c57600080fd5b6135788d838e01613094565b909650945060808c013591508082111561359157600080fd5b5061359e8c828d01613094565b915080935050809150509295985092959850929598565b600080600080600080600080600080600060c08c8e0312156135d657600080fd5b6135df8c6131af565b9a5067ffffffffffffffff8060208e013511156135fb57600080fd5b61360b8e60208f01358f016130e0565b909b50995060408d013581101561362157600080fd5b6136318e60408f01358f016130e0565b909950975060608d013581101561364757600080fd5b6136578e60608f01358f016130e0565b909750955060808d013581101561366d57600080fd5b61367d8e60808f01358f016130e0565b909550935060a08d013581101561369357600080fd5b506136a48d60a08e01358e016130e0565b81935080925050509295989b509295989b9093969950565b8183526000602080850194508260005b858110156136fa5781356136df81613d08565b6001600160a01b0316875295820195908201906001016136cc565b509495945050505050565b81835260006020808501808196508560051b810191508460005b878110156137555782840389526137368288613b91565b613741868284613798565b9a87019a955050509084019060010161371f565b5091979650505050505050565b81835260006001600160fb1b0383111561377b57600080fd5b8260051b8083602087013760009401602001938452509192915050565b81835281816020850137506000828201602090810191909152601f909101601f19169091010190565b600081518084526137d9816020860160208601613c1a565b601f01601f19169290920160200192915050565b600083516137ff818460208801613c1a565b835190830190613813818360208801613c1a565b01949350505050565b6001600160a01b038581168252841660208201526040810183905260806060820181905260009061384f908301846137c1565b9695505050505050565b6020808252825182820181905260009190848201906040850190845b8181101561389a5783516001600160a01b031683529284019291840191600101613875565b50909695505050505050565b6020815260006126e2602083018486613798565b602081526000611ac160208301846137c1565b6080815260006138e060808301876137c1565b82810360208401526138f281876137c1565b60ff959095166040840152505090151560609091015292915050565b60208082526032908201527f4552433732313a207472616e7366657220746f206e6f6e20455243373231526560408201527131b2b4bb32b91034b6b83632b6b2b73a32b960711b606082015260800190565b6020808252601c908201527f45524337323154656d706c6174653a206e6f74204e46544f776e657200000000604082015260600190565b6020808252602c908201527f45524337323154656d706c6174653a2043616e6e6f74207472616e736665722060408201526b1d1a1a5cc81d1bdad95b925960a21b606082015260800190565b60208082526031908201527f4552433732313a207472616e736665722063616c6c6572206973206e6f74206f6040820152701ddb995c881b9bdc88185c1c1c9bdd9959607a1b606082015260800190565b6020808252601f908201527f455243373231526f6c6573416464726573733a204e4f54204d414e4147455200604082015260600190565b89815260a0602082018190528101889052600060c060058a901b830181019083018b835b8c811015613acc5785840360bf19018352613aaa828f613b91565b613ab5868284613798565b955050506020928301929190910190600101613a8f565b5050508281036040840152613ae281898b6136bc565b90508281036060840152613af7818789613762565b90508281036080840152613b0c818587613705565b9c9b505050505050505050505050565b60ff8c16815260e060208201526000613b3960e083018c8e613798565b8281036040840152613b4c818b8d613798565b90508281036060840152613b6181898b613798565b90508281036080840152613b76818789613798565b60a0840195909552505060c001529998505050505050505050565b6000808335601e19843603018112613ba857600080fd5b830160208101925035905067ffffffffffffffff811115613bc857600080fd5b8036038313156130d957600080fd5b60008219821115613bea57613bea613cb0565b500190565b600082613bfe57613bfe613cc6565b500490565b600082821015613c1557613c15613cb0565b500390565b60005b83811015613c35578181015183820152602001613c1d565b8381111561221d5750506000910152565b600181811c90821680613c5a57607f821691505b60208210811415613c7b57634e487b7160e01b600052602260045260246000fd5b50919050565b6000600019821415613c9557613c95613cb0565b5060010190565b600082613cab57613cab613cc6565b500690565b634e487b7160e01b600052601160045260246000fd5b634e487b7160e01b600052601260045260246000fd5b634e487b7160e01b600052603260045260246000fd5b634e487b7160e01b600052604160045260246000fd5b6001600160a01b0381168114610fda57600080fd5b6001600160e01b031981168114610fda57600080fdfef3f7a9fe364faab93b216da50a3214154f22a0a2b415b23a84c8169e8b636ee3a26469706673582212200ce0b71b1f898da78c264090ced36d3e2dd35fe433ce73a6cda5df12f983825a64736f6c63430008070033",
  "linkReferences": {},
  "deployedLinkReferences": {}
}