{
  "_format": "hh-sol-artifact-1",
  "contractName": "ERC721Template",
  "sourceName": "contracts/templates/ERC721Template.sol",
  "abi": [
    {
      "anonymous": false,
      "inputs": [
        {
          "indexed": true,
          "internalType": "address",
          "name": "user",
          "type": "address"
        },
        {
          "indexed": true,
          "internalType": "address",
          "name": "signer",
          "type": "address"
        },
        {
          "indexed": false,
          "internalType": "uint256",
          "name": "timestamp",
          "type": "uint256"
        },
        {
          "indexed": false,
          "internalType": "uint256",
          "name": "blockNumber",
          "type": "uint256"
        }
      ],
      "name": "AddedManager",
      "type": "event"
    },
    {
      "anonymous": false,
      "inputs": [
        {
          "indexed": true,
          "internalType": "address",
          "name": "user",
          "type": "address"
        },
        {
          "indexed": true,
          "internalType": "address",
          "name": "signer",
          "type": "address"
        },
        {
          "indexed": false,
          "internalType": "uint256",
          "name": "timestamp",
          "type": "uint256"
        },
        {
          "indexed": false,
          "internalType": "uint256",
          "name": "blockNumber",
          "type": "uint256"
        }
      ],
      "name": "AddedTo725StoreList",
      "type": "event"
    },
    {
      "anonymous": false,
      "inputs": [
        {
          "indexed": true,
          "internalType": "address",
          "name": "user",
          "type": "address"
        },
        {
          "indexed": true,
          "internalType": "address",
          "name": "signer",
          "type": "address"
        },
        {
          "indexed": false,
          "internalType": "uint256",
          "name": "timestamp",
          "type": "uint256"
        },
        {
          "indexed": false,
          "internalType": "uint256",
          "name": "blockNumber",
          "type": "uint256"
        }
      ],
      "name": "AddedToCreateERC20List",
      "type": "event"
    },
    {
      "anonymous": false,
      "inputs": [
        {
          "indexed": true,
          "internalType": "address",
          "name": "user",
          "type": "address"
        },
        {
          "indexed": true,
          "internalType": "address",
          "name": "signer",
          "type": "address"
        },
        {
          "indexed": false,
          "internalType": "uint256",
          "name": "timestamp",
          "type": "uint256"
        },
        {
          "indexed": false,
          "internalType": "uint256",
          "name": "blockNumber",
          "type": "uint256"
        }
      ],
      "name": "AddedToMetadataList",
      "type": "event"
    },
    {
      "anonymous": false,
      "inputs": [
        {
          "indexed": true,
          "internalType": "address",
          "name": "owner",
          "type": "address"
        },
        {
          "indexed": true,
          "internalType": "address",
          "name": "approved",
          "type": "address"
        },
        {
          "indexed": true,
          "internalType": "uint256",
          "name": "tokenId",
          "type": "uint256"
        }
      ],
      "name": "Approval",
      "type": "event"
    },
    {
      "anonymous": false,
      "inputs": [
        {
          "indexed": true,
          "internalType": "address",
          "name": "owner",
          "type": "address"
        },
        {
          "indexed": true,
          "internalType": "address",
          "name": "operator",
          "type": "address"
        },
        {
          "indexed": false,
          "internalType": "bool",
          "name": "approved",
          "type": "bool"
        }
      ],
      "name": "ApprovalForAll",
      "type": "event"
    },
    {
      "anonymous": false,
      "inputs": [
        {
          "indexed": true,
          "internalType": "address",
          "name": "signer",
          "type": "address"
        },
        {
          "indexed": false,
          "internalType": "uint256",
          "name": "timestamp",
          "type": "uint256"
        },
        {
          "indexed": false,
          "internalType": "uint256",
          "name": "blockNumber",
          "type": "uint256"
        }
      ],
      "name": "CleanedPermissions",
      "type": "event"
    },
    {
      "anonymous": false,
      "inputs": [
        {
          "indexed": true,
          "internalType": "address",
          "name": "contractAddress",
          "type": "address"
        }
      ],
      "name": "ContractCreated",
      "type": "event"
    },
    {
      "anonymous": false,
      "inputs": [
        {
          "indexed": true,
          "internalType": "bytes32",
          "name": "key",
          "type": "bytes32"
        },
        {
          "indexed": false,
          "internalType": "bytes",
          "name": "value",
          "type": "bytes"
        }
      ],
      "name": "DataChanged",
      "type": "event"
    },
    {
      "anonymous": false,
      "inputs": [
        {
          "indexed": true,
          "internalType": "uint256",
          "name": "_operation",
          "type": "uint256"
        },
        {
          "indexed": true,
          "internalType": "address",
          "name": "_to",
          "type": "address"
        },
        {
          "indexed": true,
          "internalType": "uint256",
          "name": "_value",
          "type": "uint256"
        },
        {
          "indexed": false,
          "internalType": "bytes",
          "name": "_data",
          "type": "bytes"
        }
      ],
      "name": "Executed",
      "type": "event"
    },
    {
      "anonymous": false,
      "inputs": [
        {
          "indexed": true,
          "internalType": "address",
          "name": "createdBy",
          "type": "address"
        },
        {
          "indexed": false,
          "internalType": "uint8",
          "name": "state",
          "type": "uint8"
        },
        {
          "indexed": false,
          "internalType": "string",
          "name": "decryptorUrl",
          "type": "string"
        },
        {
          "indexed": false,
          "internalType": "bytes",
          "name": "flags",
          "type": "bytes"
        },
        {
          "indexed": false,
          "internalType": "bytes",
          "name": "data",
          "type": "bytes"
        },
        {
          "indexed": false,
          "internalType": "bytes32",
          "name": "metaDataHash",
          "type": "bytes32"
        },
        {
          "indexed": false,
          "internalType": "uint256",
          "name": "timestamp",
          "type": "uint256"
        },
        {
          "indexed": false,
          "internalType": "uint256",
          "name": "blockNumber",
          "type": "uint256"
        }
      ],
      "name": "MetadataCreated",
      "type": "event"
    },
    {
      "anonymous": false,
      "inputs": [
        {
          "indexed": true,
          "internalType": "address",
          "name": "updatedBy",
          "type": "address"
        },
        {
          "indexed": false,
          "internalType": "uint8",
          "name": "state",
          "type": "uint8"
        },
        {
          "indexed": false,
          "internalType": "uint256",
          "name": "timestamp",
          "type": "uint256"
        },
        {
          "indexed": false,
          "internalType": "uint256",
          "name": "blockNumber",
          "type": "uint256"
        }
      ],
      "name": "MetadataState",
      "type": "event"
    },
    {
      "anonymous": false,
      "inputs": [
        {
          "indexed": true,
          "internalType": "address",
          "name": "updatedBy",
          "type": "address"
        },
        {
          "indexed": false,
          "internalType": "uint8",
          "name": "state",
          "type": "uint8"
        },
        {
          "indexed": false,
          "internalType": "string",
          "name": "decryptorUrl",
          "type": "string"
        },
        {
          "indexed": false,
          "internalType": "bytes",
          "name": "flags",
          "type": "bytes"
        },
        {
          "indexed": false,
          "internalType": "bytes",
          "name": "data",
          "type": "bytes"
        },
        {
          "indexed": false,
          "internalType": "bytes32",
          "name": "metaDataHash",
          "type": "bytes32"
        },
        {
          "indexed": false,
          "internalType": "uint256",
          "name": "timestamp",
          "type": "uint256"
        },
        {
          "indexed": false,
          "internalType": "uint256",
          "name": "blockNumber",
          "type": "uint256"
        }
      ],
      "name": "MetadataUpdated",
      "type": "event"
    },
    {
      "anonymous": false,
      "inputs": [
        {
          "indexed": true,
          "internalType": "address",
          "name": "validator",
          "type": "address"
        },
        {
          "indexed": false,
          "internalType": "bytes32",
          "name": "metaDataHash",
          "type": "bytes32"
        },
        {
          "indexed": false,
          "internalType": "uint8",
          "name": "v",
          "type": "uint8"
        },
        {
          "indexed": false,
          "internalType": "bytes32",
          "name": "r",
          "type": "bytes32"
        },
        {
          "indexed": false,
          "internalType": "bytes32",
          "name": "s",
          "type": "bytes32"
        }
      ],
      "name": "MetadataValidated",
      "type": "event"
    },
    {
      "anonymous": false,
      "inputs": [
        {
          "indexed": true,
          "internalType": "address",
          "name": "user",
          "type": "address"
        },
        {
          "indexed": true,
          "internalType": "address",
          "name": "signer",
          "type": "address"
        },
        {
          "indexed": false,
          "internalType": "uint256",
          "name": "timestamp",
          "type": "uint256"
        },
        {
          "indexed": false,
          "internalType": "uint256",
          "name": "blockNumber",
          "type": "uint256"
        }
      ],
      "name": "RemovedFrom725StoreList",
      "type": "event"
    },
    {
      "anonymous": false,
      "inputs": [
        {
          "indexed": true,
          "internalType": "address",
          "name": "user",
          "type": "address"
        },
        {
          "indexed": true,
          "internalType": "address",
          "name": "signer",
          "type": "address"
        },
        {
          "indexed": false,
          "internalType": "uint256",
          "name": "timestamp",
          "type": "uint256"
        },
        {
          "indexed": false,
          "internalType": "uint256",
          "name": "blockNumber",
          "type": "uint256"
        }
      ],
      "name": "RemovedFromCreateERC20List",
      "type": "event"
    },
    {
      "anonymous": false,
      "inputs": [
        {
          "indexed": true,
          "internalType": "address",
          "name": "user",
          "type": "address"
        },
        {
          "indexed": true,
          "internalType": "address",
          "name": "signer",
          "type": "address"
        },
        {
          "indexed": false,
          "internalType": "uint256",
          "name": "timestamp",
          "type": "uint256"
        },
        {
          "indexed": false,
          "internalType": "uint256",
          "name": "blockNumber",
          "type": "uint256"
        }
      ],
      "name": "RemovedFromMetadataList",
      "type": "event"
    },
    {
      "anonymous": false,
      "inputs": [
        {
          "indexed": true,
          "internalType": "address",
          "name": "user",
          "type": "address"
        },
        {
          "indexed": true,
          "internalType": "address",
          "name": "signer",
          "type": "address"
        },
        {
          "indexed": false,
          "internalType": "uint256",
          "name": "timestamp",
          "type": "uint256"
        },
        {
          "indexed": false,
          "internalType": "uint256",
          "name": "blockNumber",
          "type": "uint256"
        }
      ],
      "name": "RemovedManager",
      "type": "event"
    },
    {
      "anonymous": false,
      "inputs": [
        {
          "indexed": true,
          "internalType": "address",
          "name": "newTokenAddress",
          "type": "address"
        },
        {
          "indexed": true,
          "internalType": "address",
          "name": "templateAddress",
          "type": "address"
        },
        {
          "indexed": false,
          "internalType": "string",
          "name": "name",
          "type": "string"
        },
        {
          "indexed": false,
          "internalType": "string",
          "name": "symbol",
          "type": "string"
        },
        {
          "indexed": false,
          "internalType": "uint256",
          "name": "cap",
          "type": "uint256"
        },
        {
          "indexed": false,
          "internalType": "address",
          "name": "creator",
          "type": "address"
        }
      ],
      "name": "TokenCreated",
      "type": "event"
    },
    {
      "anonymous": false,
      "inputs": [
        {
          "indexed": true,
          "internalType": "address",
          "name": "updatedBy",
          "type": "address"
        },
        {
          "indexed": false,
          "internalType": "string",
          "name": "tokenURI",
          "type": "string"
        },
        {
          "indexed": false,
          "internalType": "uint256",
          "name": "tokenID",
          "type": "uint256"
        },
        {
          "indexed": false,
          "internalType": "uint256",
          "name": "timestamp",
          "type": "uint256"
        },
        {
          "indexed": false,
          "internalType": "uint256",
          "name": "blockNumber",
          "type": "uint256"
        }
      ],
      "name": "TokenURIUpdate",
      "type": "event"
    },
    {
      "anonymous": false,
      "inputs": [
        {
          "indexed": true,
          "internalType": "address",
          "name": "from",
          "type": "address"
        },
        {
          "indexed": true,
          "internalType": "address",
          "name": "to",
          "type": "address"
        },
        {
          "indexed": true,
          "internalType": "uint256",
          "name": "tokenId",
          "type": "uint256"
        }
      ],
      "name": "Transfer",
      "type": "event"
    },
    {
      "stateMutability": "payable",
      "type": "fallback"
    },
    {
      "inputs": [
        {
          "internalType": "address",
          "name": "_managerAddress",
          "type": "address"
        }
      ],
      "name": "addManager",
      "outputs": [],
      "stateMutability": "nonpayable",
      "type": "function"
    },
    {
      "inputs": [
        {
          "internalType": "address",
          "name": "_allowedAddress",
          "type": "address"
        }
      ],
      "name": "addTo725StoreList",
      "outputs": [],
      "stateMutability": "nonpayable",
      "type": "function"
    },
    {
      "inputs": [
        {
          "internalType": "address",
          "name": "_allowedAddress",
          "type": "address"
        }
      ],
      "name": "addToCreateERC20List",
      "outputs": [],
      "stateMutability": "nonpayable",
      "type": "function"
    },
    {
      "inputs": [
        {
          "internalType": "address",
          "name": "_allowedAddress",
          "type": "address"
        }
      ],
      "name": "addToMetadataList",
      "outputs": [],
      "stateMutability": "nonpayable",
      "type": "function"
    },
    {
      "inputs": [
        {
          "internalType": "address",
          "name": "to",
          "type": "address"
        },
        {
          "internalType": "uint256",
          "name": "tokenId",
          "type": "uint256"
        }
      ],
      "name": "approve",
      "outputs": [],
      "stateMutability": "nonpayable",
      "type": "function"
    },
    {
      "inputs": [
        {
          "internalType": "uint256",
          "name": "",
          "type": "uint256"
        }
      ],
      "name": "auth",
      "outputs": [
        {
          "internalType": "address",
          "name": "",
          "type": "address"
        }
      ],
      "stateMutability": "view",
      "type": "function"
    },
    {
      "inputs": [
        {
          "internalType": "address",
          "name": "owner",
          "type": "address"
        }
      ],
      "name": "balanceOf",
      "outputs": [
        {
          "internalType": "uint256",
          "name": "",
          "type": "uint256"
        }
      ],
      "stateMutability": "view",
      "type": "function"
    },
    {
      "inputs": [],
      "name": "cleanPermissions",
      "outputs": [],
      "stateMutability": "nonpayable",
      "type": "function"
    },
    {
      "inputs": [
        {
          "internalType": "uint256",
          "name": "_templateIndex",
          "type": "uint256"
        },
        {
          "internalType": "string[]",
          "name": "strings",
          "type": "string[]"
        },
        {
          "internalType": "address[]",
          "name": "addresses",
          "type": "address[]"
        },
        {
          "internalType": "uint256[]",
          "name": "uints",
          "type": "uint256[]"
        },
        {
          "internalType": "bytes[]",
          "name": "bytess",
          "type": "bytes[]"
        }
      ],
      "name": "createERC20",
      "outputs": [
        {
          "internalType": "address",
          "name": "",
          "type": "address"
        }
      ],
      "stateMutability": "nonpayable",
      "type": "function"
    },
    {
      "inputs": [
        {
          "internalType": "uint256",
          "name": "_operation",
          "type": "uint256"
        },
        {
          "internalType": "address",
          "name": "_to",
          "type": "address"
        },
        {
          "internalType": "uint256",
          "name": "_value",
          "type": "uint256"
        },
        {
          "internalType": "bytes",
          "name": "_data",
          "type": "bytes"
        }
      ],
      "name": "executeCall",
      "outputs": [],
      "stateMutability": "payable",
      "type": "function"
    },
    {
      "inputs": [
        {
          "internalType": "uint256",
          "name": "tokenId",
          "type": "uint256"
        }
      ],
      "name": "getApproved",
      "outputs": [
        {
          "internalType": "address",
          "name": "",
          "type": "address"
        }
      ],
      "stateMutability": "view",
      "type": "function"
    },
    {
      "inputs": [
        {
          "internalType": "bytes32",
          "name": "_key",
          "type": "bytes32"
        }
      ],
      "name": "getData",
      "outputs": [
        {
          "internalType": "bytes",
          "name": "_value",
          "type": "bytes"
        }
      ],
      "stateMutability": "view",
      "type": "function"
    },
    {
      "inputs": [],
      "name": "getId",
      "outputs": [
        {
          "internalType": "uint8",
          "name": "",
          "type": "uint8"
        }
      ],
      "stateMutability": "pure",
      "type": "function"
    },
    {
      "inputs": [],
      "name": "getMetaData",
      "outputs": [
        {
          "internalType": "string",
          "name": "",
          "type": "string"
        },
        {
          "internalType": "string",
          "name": "",
          "type": "string"
        },
        {
          "internalType": "uint8",
          "name": "",
          "type": "uint8"
        },
        {
          "internalType": "bool",
          "name": "",
          "type": "bool"
        }
      ],
      "stateMutability": "view",
      "type": "function"
    },
    {
      "inputs": [
        {
          "internalType": "address",
          "name": "user",
          "type": "address"
        }
      ],
      "name": "getPermissions",
      "outputs": [
        {
          "components": [
            {
              "internalType": "bool",
              "name": "manager",
              "type": "bool"
            },
            {
              "internalType": "bool",
              "name": "deployERC20",
              "type": "bool"
            },
            {
              "internalType": "bool",
              "name": "updateMetadata",
              "type": "bool"
            },
            {
              "internalType": "bool",
              "name": "store",
              "type": "bool"
            }
          ],
          "internalType": "struct ERC721RolesAddress.Roles",
          "name": "",
          "type": "tuple"
        }
      ],
      "stateMutability": "view",
      "type": "function"
    },
    {
      "inputs": [],
      "name": "getTokensList",
      "outputs": [
        {
          "internalType": "address[]",
          "name": "",
          "type": "address[]"
        }
      ],
      "stateMutability": "view",
      "type": "function"
    },
    {
      "inputs": [],
      "name": "hasMetaData",
      "outputs": [
        {
          "internalType": "bool",
          "name": "",
          "type": "bool"
        }
      ],
      "stateMutability": "view",
      "type": "function"
    },
    {
      "inputs": [
        {
          "internalType": "address",
          "name": "owner",
          "type": "address"
        },
        {
          "internalType": "string",
          "name": "name_",
          "type": "string"
        },
        {
          "internalType": "string",
          "name": "symbol_",
          "type": "string"
        },
        {
          "internalType": "address",
          "name": "tokenFactory",
          "type": "address"
        },
        {
          "internalType": "address",
          "name": "additionalERC20Deployer",
          "type": "address"
        },
        {
          "internalType": "string",
          "name": "tokenURI",
          "type": "string"
        }
      ],
      "name": "initialize",
      "outputs": [
        {
          "internalType": "bool",
          "name": "",
          "type": "bool"
        }
      ],
      "stateMutability": "nonpayable",
      "type": "function"
    },
    {
      "inputs": [
        {
          "internalType": "address",
          "name": "owner",
          "type": "address"
        },
        {
          "internalType": "address",
          "name": "operator",
          "type": "address"
        }
      ],
      "name": "isApprovedForAll",
      "outputs": [
        {
          "internalType": "bool",
          "name": "",
          "type": "bool"
        }
      ],
      "stateMutability": "view",
      "type": "function"
    },
    {
      "inputs": [
        {
          "internalType": "address",
          "name": "datatoken",
          "type": "address"
        }
      ],
      "name": "isDeployed",
      "outputs": [
        {
          "internalType": "bool",
          "name": "",
          "type": "bool"
        }
      ],
      "stateMutability": "view",
      "type": "function"
    },
    {
      "inputs": [
        {
          "internalType": "address",
          "name": "account",
          "type": "address"
        }
      ],
      "name": "isERC20Deployer",
      "outputs": [
        {
          "internalType": "bool",
          "name": "",
          "type": "bool"
        }
      ],
      "stateMutability": "view",
      "type": "function"
    },
    {
      "inputs": [],
      "name": "isInitialized",
      "outputs": [
        {
          "internalType": "bool",
          "name": "",
          "type": "bool"
        }
      ],
      "stateMutability": "view",
      "type": "function"
    },
    {
      "inputs": [],
      "name": "metaDataDecryptorAddress",
      "outputs": [
        {
          "internalType": "string",
          "name": "",
          "type": "string"
        }
      ],
      "stateMutability": "view",
      "type": "function"
    },
    {
      "inputs": [],
      "name": "metaDataDecryptorUrl",
      "outputs": [
        {
          "internalType": "string",
          "name": "",
          "type": "string"
        }
      ],
      "stateMutability": "view",
      "type": "function"
    },
    {
      "inputs": [],
      "name": "metaDataState",
      "outputs": [
        {
          "internalType": "uint8",
          "name": "",
          "type": "uint8"
        }
      ],
      "stateMutability": "view",
      "type": "function"
    },
    {
      "inputs": [],
      "name": "name",
      "outputs": [
        {
          "internalType": "string",
          "name": "",
          "type": "string"
        }
      ],
      "stateMutability": "view",
      "type": "function"
    },
    {
      "inputs": [
        {
          "internalType": "uint256",
          "name": "tokenId",
          "type": "uint256"
        }
      ],
      "name": "ownerOf",
      "outputs": [
        {
          "internalType": "address",
          "name": "",
          "type": "address"
        }
      ],
      "stateMutability": "view",
      "type": "function"
    },
    {
      "inputs": [
        {
          "internalType": "address",
          "name": "_allowedAddress",
          "type": "address"
        }
      ],
      "name": "removeFrom725StoreList",
      "outputs": [],
      "stateMutability": "nonpayable",
      "type": "function"
    },
    {
      "inputs": [
        {
          "internalType": "address",
          "name": "_allowedAddress",
          "type": "address"
        }
      ],
      "name": "removeFromCreateERC20List",
      "outputs": [],
      "stateMutability": "nonpayable",
      "type": "function"
    },
    {
      "inputs": [
        {
          "internalType": "address",
          "name": "_allowedAddress",
          "type": "address"
        }
      ],
      "name": "removeFromMetadataList",
      "outputs": [],
      "stateMutability": "nonpayable",
      "type": "function"
    },
    {
      "inputs": [
        {
          "internalType": "address",
          "name": "_managerAddress",
          "type": "address"
        }
      ],
      "name": "removeManager",
      "outputs": [],
      "stateMutability": "nonpayable",
      "type": "function"
    },
    {
      "inputs": [
        {
          "internalType": "address",
          "name": "from",
          "type": "address"
        },
        {
          "internalType": "address",
          "name": "to",
          "type": "address"
        },
        {
          "internalType": "uint256",
          "name": "tokenId",
          "type": "uint256"
        }
      ],
      "name": "safeTransferFrom",
      "outputs": [],
      "stateMutability": "nonpayable",
      "type": "function"
    },
    {
      "inputs": [
        {
          "internalType": "address",
          "name": "operator",
          "type": "address"
        },
        {
          "internalType": "bool",
          "name": "approved",
          "type": "bool"
        }
      ],
      "name": "setApprovalForAll",
      "outputs": [],
      "stateMutability": "nonpayable",
      "type": "function"
    },
    {
      "inputs": [
        {
          "internalType": "string",
          "name": "_baseURI",
          "type": "string"
        }
      ],
      "name": "setBaseURI",
      "outputs": [],
      "stateMutability": "nonpayable",
      "type": "function"
    },
    {
      "inputs": [
        {
          "internalType": "bytes32",
          "name": "_key",
          "type": "bytes32"
        },
        {
          "internalType": "bytes",
          "name": "_value",
          "type": "bytes"
        }
      ],
      "name": "setDataERC20",
      "outputs": [],
      "stateMutability": "nonpayable",
      "type": "function"
    },
    {
      "inputs": [
        {
          "internalType": "uint8",
          "name": "_metaDataState",
          "type": "uint8"
        },
        {
          "internalType": "string",
          "name": "_metaDataDecryptorUrl",
          "type": "string"
        },
        {
          "internalType": "string",
          "name": "_metaDataDecryptorAddress",
          "type": "string"
        },
        {
          "internalType": "bytes",
          "name": "flags",
          "type": "bytes"
        },
        {
          "internalType": "bytes",
          "name": "data",
          "type": "bytes"
        },
        {
          "internalType": "bytes32",
          "name": "_metaDataHash",
          "type": "bytes32"
        },
        {
          "components": [
            {
              "internalType": "address",
              "name": "validatorAddress",
              "type": "address"
            },
            {
              "internalType": "uint8",
              "name": "v",
              "type": "uint8"
            },
            {
              "internalType": "bytes32",
              "name": "r",
              "type": "bytes32"
            },
            {
              "internalType": "bytes32",
              "name": "s",
              "type": "bytes32"
            }
          ],
          "internalType": "struct ERC721Template.metaDataProof[]",
          "name": "_metadataProofs",
          "type": "tuple[]"
        }
      ],
      "name": "setMetaData",
      "outputs": [],
      "stateMutability": "nonpayable",
      "type": "function"
    },
    {
      "inputs": [
        {
          "internalType": "uint8",
          "name": "_metaDataState",
          "type": "uint8"
        }
      ],
      "name": "setMetaDataState",
      "outputs": [],
      "stateMutability": "nonpayable",
      "type": "function"
    },
    {
      "inputs": [
        {
          "internalType": "bytes32",
          "name": "_key",
          "type": "bytes32"
        },
        {
          "internalType": "bytes",
          "name": "_value",
          "type": "bytes"
        }
      ],
      "name": "setNewData",
      "outputs": [],
      "stateMutability": "nonpayable",
      "type": "function"
    },
    {
      "inputs": [
        {
          "internalType": "uint256",
          "name": "tokenId",
          "type": "uint256"
        },
        {
          "internalType": "string",
          "name": "tokenURI",
          "type": "string"
        }
      ],
      "name": "setTokenURI",
      "outputs": [],
      "stateMutability": "nonpayable",
      "type": "function"
    },
    {
      "inputs": [],
      "name": "ssContract",
      "outputs": [
        {
          "internalType": "address",
          "name": "",
          "type": "address"
        }
      ],
      "stateMutability": "view",
      "type": "function"
    },
    {
      "inputs": [
        {
          "internalType": "bytes4",
          "name": "interfaceId",
          "type": "bytes4"
        }
      ],
      "name": "supportsInterface",
      "outputs": [
        {
          "internalType": "bool",
          "name": "",
          "type": "bool"
        }
      ],
      "stateMutability": "view",
      "type": "function"
    },
    {
      "inputs": [],
      "name": "symbol",
      "outputs": [
        {
          "internalType": "string",
          "name": "",
          "type": "string"
        }
      ],
      "stateMutability": "view",
      "type": "function"
    },
    {
      "inputs": [
        {
          "internalType": "uint256",
          "name": "tokenId",
          "type": "uint256"
        }
      ],
      "name": "tokenURI",
      "outputs": [
        {
          "internalType": "string",
          "name": "",
          "type": "string"
        }
      ],
      "stateMutability": "view",
      "type": "function"
    },
    {
      "inputs": [
        {
          "internalType": "address",
          "name": "from",
          "type": "address"
        },
        {
          "internalType": "address",
          "name": "to",
          "type": "address"
        },
        {
          "internalType": "uint256",
          "name": "tokenId",
          "type": "uint256"
        }
      ],
      "name": "transferFrom",
      "outputs": [],
      "stateMutability": "nonpayable",
      "type": "function"
    },
    {
      "inputs": [],
      "name": "withdrawETH",
      "outputs": [],
      "stateMutability": "payable",
      "type": "function"
    }
  ],
  "bytecode": "0x60806040523480156200001157600080fd5b50604080518082018252600881526754656d706c61746560c01b60208083019182528351808501909452600e84526d15195b5c1b185d1954de5b589bdb60921b908401528151919291620000689160009162000136565b5080516200007e90600190602084019062000136565b50620000959150632260147f60e11b9050620000b2565b620000a7632bd57b7360e01b620000b2565b6001600c5562000219565b6001600160e01b03198082161415620001115760405162461bcd60e51b815260206004820152601c60248201527f4552433136353a20696e76616c696420696e7465726661636520696400000000604482015260640160405180910390fd5b6001600160e01b0319166000908152600a60205260409020805460ff19166001179055565b8280546200014490620001dc565b90600052602060002090601f016020900481019282620001685760008555620001b3565b82601f106200018357805160ff1916838001178555620001b3565b82800160010185558215620001b3579182015b82811115620001b357825182559160200191906001019062000196565b50620001c1929150620001c5565b5090565b5b80821115620001c15760008155600101620001c6565b600181811c90821680620001f157607f821691505b602082108114156200021357634e487b7160e01b600052602260045260246000fd5b50919050565b6143cc80620002296000396000f3fe60806040526004361061025d5760003560e01c806354f6127f11610143578063a22cb465116100bb578063d2786ba411610077578063d2786ba41461082d578063d8053ad314610852578063e086e5ec14610871578063e38d7cad14610879578063e985e9c514610899578063fe1ec880146108e257005b8063a22cb46514610780578063ac18de43146107a0578063b0c41ead146107c0578063c55f8126146107e0578063c87b56dd146107f3578063ccd7d4761461081357005b806370a082311161010a57806370a082311461069157806370c166d7146106bf57806382cf129d146106df57806390184b02146106f457806395d89b411461072d57806396fb3eaf1461074257005b806354f6127f146105ef57806355f804b31461060f5780635d1ca6311461062f5780636352211e1461065157806367530a611461067157005b806323b872dd116101d6578063431053ac1161019d578063431053ac14610538578063466bca0214610558578063467c97f51461057a5780634a63740a1461059a5780634b2ee5e9146105ba5780634f189cb2146105da57005b806323b872dd146104a0578063273e06b3146104c05780632d06177a146104e0578063392e53cd1461050057806342842e0e1461051857005b80630e57c7e8116102255780630e57c7e81461032357806310c558bf14610343578063160a792514610363578063162094c41461044057806319c186e5146104605780631aa3adf91461048057005b806301ffc9a71461025f57806306fdde0314610294578063081812fc146102b6578063095ea7b3146102ee5780630e05662e1461030e575b005b34801561026b57600080fd5b5061027f61027a366004613545565b610902565b60405190151581526020015b60405180910390f35b3480156102a057600080fd5b506102a9610942565b60405161028b91906135c1565b3480156102c257600080fd5b506102d66102d13660046135d4565b6109d4565b6040516001600160a01b03909116815260200161028b565b3480156102fa57600080fd5b5061025d610309366004613602565b610a6e565b34801561031a57600080fd5b506102a9610b84565b34801561032f57600080fd5b5061025d61033e366004613676565b610c12565b34801561034f57600080fd5b5061025d61035e3660046136c1565b610c87565b34801561036f57600080fd5b5061040561037e3660046136c1565b604080516080810182526000808252602082018190529181018290526060810191909152506001600160a01b03166000908152600860209081526040918290208251608081018452905460ff808216151583526101008204811615159383019390935262010000810483161515938201939093526301000000909204161515606082015290565b60405161028b919081511515815260208083015115159082015260408083015115159082015260609182015115159181019190915260800190565b34801561044c57600080fd5b5061025d61045b3660046137bb565b610d5a565b34801561046c57600080fd5b5061025d61047b3660046136c1565b610de9565b34801561048c57600080fd5b5061025d61049b3660046138de565b610eb2565b3480156104ac57600080fd5b5061025d6104bb3660046139e5565b6112f0565b3480156104cc57600080fd5b5061025d6104db3660046136c1565b6113c2565b3480156104ec57600080fd5b5061025d6104fb3660046136c1565b6114fb565b34801561050c57600080fd5b50600f5460ff1661027f565b34801561052457600080fd5b5061025d6105333660046139e5565b61153e565b34801561054457600080fd5b5061025d6105533660046136c1565b6115e4565b34801561056457600080fd5b5061056d611719565b60405161028b9190613a26565b34801561058657600080fd5b5061025d610595366004613a73565b61177a565b3480156105a657600080fd5b5061025d6105b53660046136c1565b611805565b3480156105c657600080fd5b506014546102d6906001600160a01b031681565b3480156105e657600080fd5b5061025d6118ca565b3480156105fb57600080fd5b506102a961060a3660046135d4565b61190e565b34801561061b57600080fd5b5061025d61062a366004613a8e565b6119b0565b34801561063b57600080fd5b5060015b60405160ff909116815260200161028b565b34801561065d57600080fd5b506102d661066c3660046135d4565b611a01565b34801561067d57600080fd5b5061025d61068c366004613676565b611a78565b34801561069d57600080fd5b506106b16106ac3660046136c1565b611ae8565b60405190815260200161028b565b3480156106cb57600080fd5b5061027f6106da366004613ac2565b611b6f565b3480156106eb57600080fd5b506102a9611c8c565b34801561070057600080fd5b5061027f61070f3660046136c1565b6001600160a01b031660009081526015602052604090205460ff1690565b34801561073957600080fd5b506102a9611c99565b34801561074e57600080fd5b5061027f61075d3660046136c1565b6001600160a01b0316600090815260086020526040902054610100900460ff1690565b34801561078c57600080fd5b5061025d61079b366004613b90565b611ca8565b3480156107ac57600080fd5b5061025d6107bb3660046136c1565b611d66565b3480156107cc57600080fd5b506102d66107db3660046135d4565b611da9565b61025d6107ee366004613bce565b611dd3565b3480156107ff57600080fd5b506102a961080e3660046135d4565b611e1b565b34801561081f57600080fd5b5060125461063f9060ff1681565b34801561083957600080fd5b50610842611f79565b60405161028b9493929190613c37565b34801561085e57600080fd5b50600f5461027f90610100900460ff1681565b61025d6120c9565b34801561088557600080fd5b506102d6610894366004613cbc565b61210b565b3480156108a557600080fd5b5061027f6108b4366004613d8b565b6001600160a01b03918216600090815260066020908152604080832093909416825291909152205460ff1690565b3480156108ee57600080fd5b5061025d6108fd3660046136c1565b6122db565b60006301ffc9a760e01b6001600160e01b03198316148061093c57506001600160e01b031982166000908152600a602052604090205460ff165b92915050565b6060600d805461095190613db9565b80601f016020809104026020016040519081016040528092919081815260200182805461097d90613db9565b80156109ca5780601f1061099f576101008083540402835291602001916109ca565b820191906000526020600020905b8154815290600101906020018083116109ad57829003601f168201915b5050505050905090565b6000818152600360205260408120546001600160a01b0316610a525760405162461bcd60e51b815260206004820152602c60248201527f4552433732313a20617070726f76656420717565727920666f72206e6f6e657860448201526b34b9ba32b73a103a37b5b2b760a11b60648201526084015b60405180910390fd5b506000908152600560205260409020546001600160a01b031690565b6000610a7982611a01565b9050806001600160a01b0316836001600160a01b03161415610ae75760405162461bcd60e51b815260206004820152602160248201527f4552433732313a20617070726f76616c20746f2063757272656e74206f776e656044820152603960f91b6064820152608401610a49565b336001600160a01b0382161480610b035750610b0381336108b4565b610b755760405162461bcd60e51b815260206004820152603860248201527f4552433732313a20617070726f76652063616c6c6572206973206e6f74206f7760448201527f6e6572206e6f7220617070726f76656420666f7220616c6c00000000000000006064820152608401610a49565b610b7f838361240b565b505050565b60118054610b9190613db9565b80601f0160208091040260200160405190810160405280929190818152602001828054610bbd90613db9565b8015610c0a5780601f10610bdf57610100808354040283529160200191610c0a565b820191906000526020600020905b815481529060010190602001808311610bed57829003601f168201915b505050505081565b3360009081526015602052604090205460ff16610c7c5760405162461bcd60e51b815260206004820152602260248201527f45524337323154656d706c6174653a204e4f5420455243323020436f6e74726160448201526118dd60f21b6064820152608401610a49565b610b7f838383612479565b3360009081526008602052604090205460ff161515600114610cbb5760405162461bcd60e51b8152600401610a4990613df4565b6001600160a01b038116600081815260086020526040808220805462ff000019166201000017815560098054600181018255935260008051602061437783398151915290920180546001600160a01b0319168417905551909133917fc2a42571a74ce1442c8c44d375ba9442e7d55d94b37afeace261c83c62128fa490610d4e9042904390918252602082015260400190565b60405180910390a35050565b610d646001611a01565b6001600160a01b0316336001600160a01b031614610d945760405162461bcd60e51b8152600401610a4990613e2b565b610d9e82826124d2565b336001600160a01b03167f6de6cd3982065cbd31e789e3109106f4d76d1c8a46e85262045cf947fb3fd4ed82844243604051610ddd9493929190613e62565b60405180910390a25050565b3360009081526008602052604090205460ff161515600114610e1d5760405162461bcd60e51b8152600401610a4990613df4565b6001600160a01b038116600081815260086020526040808220805463ff0000001916630100000017815560098054600181018255935260008051602061437783398151915290920180546001600160a01b0319168417905551909133917feb09276310ed110a7e565d64966d0ff68a47112d2dd5eeb6cbd7451836ce35ee90610d4e9042904390918252602082015260400190565b3360009081526008602052604090205462010000900460ff16610ee75760405162461bcd60e51b8152600401610a4990613e91565b6012805460ff191660ff8d16179055610f0260108b8b613408565b50610f0f60118989613408565b50600f54610100900460ff16610f8657336001600160a01b03167f5463569dcc320958360074a9ab27e809e8a6942c394fb151d139b5f7b4ecb1bd8c8c8c8a8a8a8a8a4243604051610f6a9a99989796959493929190613efb565b60405180910390a2600f805461ff001916610100179055610fd8565b60125460405133917fe5c4cf86b1815151e6f453e1e133d4454ae3b0b07145db39f2e0178685deac8491610fcf9160ff16908e908e908c908c908c908c908c9042904390613efb565b60405180910390a25b60328151111561101c5760405162461bcd60e51b815260206004820152600f60248201526e546f6f204d616e792050726f6f667360881b6044820152606401610a49565b60408051808201909152601c81527f19457468657265756d205369676e6564204d6573736167653a0a333200000000602082015260005b82518110156112e15760006001600160a01b031683828151811061107957611079613f63565b6020026020010151600001516001600160a01b0316146111fb57600082856040516020016110a8929190613f79565b60405160208183030381529060405280519060200120905060006001828685815181106110d7576110d7613f63565b6020026020010151602001518786815181106110f5576110f5613f63565b60200260200101516040015188878151811061111357611113613f63565b60200260200101516060015160405160008152602001604052604051611155949392919093845260ff9290921660208401526040830152606082015260800190565b6020604051602081039080840390855afa158015611177573d6000803e3d6000fd5b50505060206040510351905084838151811061119557611195613f63565b6020026020010151600001516001600160a01b0316816001600160a01b0316146111f85760405162461bcd60e51b815260206004820152601460248201527324b73b30b634b210383937b7b31039b4b3b732b960611b6044820152606401610a49565b50505b82818151811061120d5761120d613f63565b6020026020010151600001516001600160a01b03167f2819d8badf5cff2c9220b8ee99dacc14d67058e343d7f0c2c444d198507fe9418585848151811061125657611256613f63565b60200260200101516020015186858151811061127457611274613f63565b60200260200101516040015187868151811061129257611292613f63565b6020026020010151606001516040516112c7949392919093845260ff9290921660208401526040830152606082015260800190565b60405180910390a2806112d981613fb1565b915050611053565b50505050505050505050505050565b806001146113105760405162461bcd60e51b8152600401610a4990613fcc565b61137a611375601380548060200260200160405190810160405280929190818152602001828054801561136c57602002820191906000526020600020905b81546001600160a01b0316815260019091019060200180831161134e575b50505050505190565b61256c565b6113826125fd565b61138d8383836126ae565b611396826126ef565b506001600160a01b03166000908152600860205260409020805463ffffff001916630101010017905550565b3360009081526008602052604090205460ff161515600114806114135750336001600160a01b0382161480156114135750336000908152600860205260409020546301000000900460ff1615156001145b1561147b576001600160a01b03811660008181526008602052604090819020805463ff000000191681559051909133917fc929b18b08ffea86a1f95e29384dbe8968f2fcbd70cfd735df3aba1cc548cbf390610d4e9042904390918252602082015260400190565b60405162461bcd60e51b815260206004820152604660248201527f455243373231526f6c6573416464726573733a204e6f7420656e6f756768207060448201527f65726d697373696f6e7320746f2072656d6f76652066726f6d2037323553746f6064820152651c99531a5cdd60d21b608482015260a401610a49565b50565b6115056001611a01565b6001600160a01b0316336001600160a01b0316146115355760405162461bcd60e51b8152600401610a4990613e2b565b6114f8816126ef565b8060011461155e5760405162461bcd60e51b8152600401610a4990613fcc565b6115c1611375601380548060200260200160405190810160405280929190818152602001828054801561136c576020028201919060005260206000209081546001600160a01b0316815260019091019060200180831161134e5750505050505190565b6115c96125fd565b61138d83838360405180602001604052806000815250612780565b3360009081526008602052604090205460ff161515600114806116345750336001600160a01b03821614801561163457503360009081526008602052604090205462010000900460ff1615156001145b1561169b576001600160a01b03811660008181526008602052604090819020805462ff0000191681559051909133917f9b41e1311fa819e825bc77fa2568492112e15ea92d173f3f8ee1c8ec3c1c562b90610d4e9042904390918252602082015260400190565b60405162461bcd60e51b815260206004820152604760248201527f455243373231526f6c6573416464726573733a204e6f7420656e6f756768207060448201527f65726d697373696f6e7320746f2072656d6f76652066726f6d206d65746164616064820152661d18481b1a5cdd60ca1b608482015260a401610a49565b606060138054806020026020016040519081016040528092919081815260200182805480156109ca57602002820191906000526020600020905b81546001600160a01b03168152600190910190602001808311611753575050505050905090565b3360009081526008602052604090205462010000900460ff166117af5760405162461bcd60e51b8152600401610a4990613e91565b6012805460ff191660ff831690811790915560408051918252426020830152439082015233907fa8336411cc72db0e5bdc4dff989eeb35879bafaceffb59b54b37645c3395adb99060600160405180910390a250565b3360009081526008602052604090205460ff1615156001146118395760405162461bcd60e51b8152600401610a4990613df4565b6001600160a01b038116600081815260086020526040808220805461ff00191661010017815560098054600181018255935260008051602061437783398151915290920180546001600160a01b0319168417905551909133917f0572d56343be407a66810f01449212e8545e14ff5049c479d34be944cdfd0d4f90610d4e9042904390918252602082015260400190565b6118d46001611a01565b6001600160a01b0316336001600160a01b0316146119045760405162461bcd60e51b8152600401610a4990613e2b565b61190c6125fd565b565b6000818152600b6020526040902080546060919061192b90613db9565b80601f016020809104026020016040519081016040528092919081815260200182805461195790613db9565b80156119a45780601f10611979576101008083540402835291602001916119a4565b820191906000526020600020905b81548152906001019060200180831161198757829003601f168201915b50505050509050919050565b6119ba6001611a01565b6001600160a01b0316336001600160a01b0316146119ea5760405162461bcd60e51b8152600401610a4990613e2b565b80516119fd90600290602084019061348c565b5050565b6000818152600360205260408120546001600160a01b03168061093c5760405162461bcd60e51b815260206004820152602960248201527f4552433732313a206f776e657220717565727920666f72206e6f6e657869737460448201526832b73a103a37b5b2b760b91b6064820152608401610a49565b336000908152600860205260409020546301000000900460ff16610c7c5760405162461bcd60e51b815260206004820152602160248201527f45524337323154656d706c6174653a204e4f542053544f5245205550444154456044820152602960f91b6064820152608401610a49565b60006001600160a01b038216611b535760405162461bcd60e51b815260206004820152602a60248201527f4552433732313a2062616c616e636520717565727920666f7220746865207a65604482015269726f206164647265737360b01b6064820152608401610a49565b506001600160a01b031660009081526004602052604090205490565b600f5460009060ff1615611be05760405162461bcd60e51b815260206004820152603260248201527f45524337323154656d706c6174653a20746f6b656e20696e7374616e636520616044820152711b1c9958591e481a5b9a5d1a585b1a5e995960721b6064820152608401610a49565b6000611c5a8a8a8a8080601f01602080910402602001604051908101604052809392919081815260200183838082843760009201919091525050604080516020601f8e018190048102820181019092528c815292508c91508b90819084018382808284376000920191909152508b92508991506127b89050565b9050808015611c7157506001600160a01b03841615155b15611c7f57611c7f84611839565b9998505050505050505050565b60108054610b9190613db9565b6060600e805461095190613db9565b6001600160a01b038216331415611d015760405162461bcd60e51b815260206004820152601960248201527f4552433732313a20617070726f766520746f2063616c6c6572000000000000006044820152606401610a49565b3360008181526006602090815260408083206001600160a01b03871680855290835292819020805460ff191686151590811790915590519081529192917f17307eab39ab6107e8899845ad3d59bd9653f200f220920489ca2b5937696c319101610d4e565b611d706001611a01565b6001600160a01b0316336001600160a01b031614611da05760405162461bcd60e51b8152600401610a4990613e2b565b6114f8816128f8565b60098181548110611db957600080fd5b6000918252602090912001546001600160a01b0316905081565b3360009081526008602052604090205460ff161515600114611e075760405162461bcd60e51b8152600401610a4990613df4565b611e148585858585612958565b5050505050565b6000818152600360205260409020546060906001600160a01b0316611e9a5760405162461bcd60e51b815260206004820152602f60248201527f4552433732314d657461646174613a2055524920717565727920666f72206e6f60448201526e3732bc34b9ba32b73a103a37b5b2b760891b6064820152608401610a49565b60008281526007602052604081208054611eb390613db9565b80601f0160208091040260200160405190810160405280929190818152602001828054611edf90613db9565b8015611f2c5780601f10611f0157610100808354040283529160200191611f2c565b820191906000526020600020905b815481529060010190602001808311611f0f57829003601f168201915b505050505090506000611f3d612b81565b825190915015611f72578082604051602001611f5a929190614018565b60405160208183030381529060405292505050919050565b5092915050565b60608060008060106011601260009054906101000a900460ff16600f60019054906101000a900460ff16838054611faf90613db9565b80601f0160208091040260200160405190810160405280929190818152602001828054611fdb90613db9565b80156120285780601f10611ffd57610100808354040283529160200191612028565b820191906000526020600020905b81548152906001019060200180831161200b57829003601f168201915b5050505050935082805461203b90613db9565b80601f016020809104026020016040519081016040528092919081815260200182805461206790613db9565b80156120b45780601f10612089576101008083540402835291602001916120b4565b820191906000526020600020905b81548152906001019060200180831161209757829003601f168201915b50505050509250935093509350935090919293565b6120d36001611a01565b6001600160a01b03166108fc479081150290604051600060405180830381858888f193505050501580156114f8573d6000803e3d6000fd5b60006002600c5414156121605760405162461bcd60e51b815260206004820152601f60248201527f5265656e7472616e637947756172643a207265656e7472616e742063616c6c006044820152606401610a49565b6002600c5533600090815260086020526040902054610100900460ff166121d85760405162461bcd60e51b815260206004820152602660248201527f45524337323154656d706c6174653a204e4f542045524332304445504c4f5945604482015265525f524f4c4560d01b6064820152608401610a49565b601254604051630557fcfb60e41b815260009161010090046001600160a01b03169063557fcfb09061221e908e908e908e908e908e908e908e908e908e90600401614168565b6020604051808303816000875af115801561223d573d6000803e3d6000fd5b505050506040513d601f19601f820116820180604052508101906122619190614219565b6001600160a01b0381166000818152601560205260408120805460ff191660019081179091556013805491820181559091527f66de8ffda797e3de9c05e8fc57b3bf0ec28a930d40b0d285d93c06501cf6a0900180546001600160a01b03191690911790559150506001600c559998505050505050505050565b3360009081526008602052604090205460ff1615156001148061232b5750336001600160a01b03821614801561232b57503360009081526008602052604090205460ff6101009091041615156001145b15612391576001600160a01b03811660008181526008602052604090819020805461ff00191681559051909133917f59bd33f4c27cc16a2d74450e1fa43d7896020be9aecea4bee009db9294de899790610d4e9042904390918252602082015260400190565b60405162461bcd60e51b815260206004820152604360248201527f455243373231526f6c6573416464726573733a204e6f7420656e6f756768207060448201527f65726d697373696f6e7320746f2072656d6f76652066726f6d2045524332304c6064820152621a5cdd60ea1b608482015260a401610a49565b600081815260056020526040902080546001600160a01b0319166001600160a01b038416908117909155819061244082611a01565b6001600160a01b03167f8c5be1e5ebec7d5bd14f71427d1e84f3dd0314c0f7b2291e5b200ac8c7c3b92560405160405180910390a45050565b6000838152600b60205260409020612492908383613408565b50827fece574603820d07bc9b91f2a932baadf4628aabcb8afba49776529c14a6104b283836040516124c5929190614236565b60405180910390a2505050565b6000828152600360205260409020546001600160a01b031661254d5760405162461bcd60e51b815260206004820152602e60248201527f45524337323155524953746f726167653a2055524920736574206f66206e6f6e60448201526d32bc34b9ba32b73a103a37b5b2b760911b6064820152608401610a49565b60008281526007602090815260409091208251610b7f9284019061348c565b60005b818110156119fd576013818154811061258a5761258a613f63565b6000918252602082200154604080516382c03da560e01b815290516001600160a01b03909216926382c03da59260048084019382900301818387803b1580156125d257600080fd5b505af11580156125e6573d6000803e3d6000fd5b5050505080806125f590613fb1565b91505061256f565b60005b600954811015612665576000600860006009848154811061262357612623613f63565b60009182526020808320909101546001600160a01b031683528201929092526040019020805463ffffffff19169055508061265d81613fb1565b915050612600565b5061267260096000613500565b6040805142815243602082015233917f712bc71db81927a76b8bf1ea346247bb0ad58f18e4e5c1bd4aa0ec6573e02a2b910160405180910390a2565b6126b83382612b90565b6126d45760405162461bcd60e51b8152600401610a499061424a565b610b7f83838360405180602001604052806000815250612780565b6001600160a01b038116600081815260086020526040808220805460ff19166001908117825560098054918201815590935260008051602061437783398151915290920180546001600160a01b0319168417905551909133917faf8fc8b6726138c96881c895390a08e9d91a94c288f06281e7f9821c49c7155b90610d4e9042904390918252602082015260400190565b61278a3383612b90565b6127a65760405162461bcd60e51b8152600401610a499061424a565b6127b284848484612c87565b50505050565b60006001600160a01b0386166128275760405162461bcd60e51b815260206004820152602e60248201527f45524337323154656d706c6174653a3a20496e76616c6964206d696e7465722c60448201526d20207a65726f206164647265737360901b6064820152608401610a49565b845161283a90600d90602088019061348c565b50835161284e90600e90602087019061348c565b5060128054610100600160a81b0319166101006001600160a01b0386160217905560408051602081019182905260009081905261288d9160029161348c565b50600f805461ffff191660019081179091556128aa908790612cba565b6128b3866126ef565b6001600160a01b0386166000908152600860205260409020805463ffffff00191663010101001781556128e76001846124d2565b5050600f5460ff1695945050505050565b6001600160a01b03811660008181526008602052604090819020805460ff191681559051909133917fb572db0e6da4924b771ed1712b980d48b5992b9a1c27aede55fbb3318c48996a90610d4e9042904390918252602082015260400190565b82846001600160a01b0316867f1f920dbda597d7bf95035464170fa58d0a4b57f13a1c315ace6793b9f63688b88585604051612995929190614236565b60405180910390a460006109c45a6129ad919061429b565b9050856129fd576129f7858585858080601f016020809104026020016040519081016040528093929190818152602001838380828437600092019190915250879250612cd4915050565b50612b79565b6003861415612a46576129f78484848080601f016020809104026020016040519081016040528093929190818152602001838380828437600092019190915250612cec92505050565b6002861415612b3a576000612a9d84848080601f016020809104026020016040519081016040528093929190818152602001838380828437600092019190915250612a9892506020915087905061429b565b612d88565b90506000612aec85858080601f01602080910402602001604051908101604052809392919081815260200183838082843760009201829052509250612ae79150602090508861429b565b612de6565b90506000612afb878484612ef3565b6040519091506001600160a01b038216907fcf78cf0d6f3d8371e1075c69c492ab4ec5d8cf23a1a239b6a51a1d00be7ca31290600090a2505050612b79565b60405162461bcd60e51b815260206004820152601460248201527357726f6e67206f7065726174696f6e207479706560601b6044820152606401610a49565b505050505050565b60606002805461095190613db9565b6000818152600360205260408120546001600160a01b0316612c095760405162461bcd60e51b815260206004820152602c60248201527f4552433732313a206f70657261746f7220717565727920666f72206e6f6e657860448201526b34b9ba32b73a103a37b5b2b760a11b6064820152608401610a49565b6000612c1483611a01565b9050806001600160a01b0316846001600160a01b03161480612c4f5750836001600160a01b0316612c44846109d4565b6001600160a01b0316145b80612c7f57506001600160a01b0380821660009081526006602090815260408083209388168352929052205460ff165b949350505050565b612c92848484612ff5565b612c9e84848484613195565b6127b25760405162461bcd60e51b8152600401610a49906142b2565b6119fd828260405180602001604052806000815250613293565b6000806000845160208601878987f195945050505050565b600081516020830184f090506001600160a01b038116612d4e5760405162461bcd60e51b815260206004820152601960248201527f436f756c64206e6f74206465706c6f7920636f6e7472616374000000000000006044820152606401610a49565b6040516001600160a01b038216907fcf78cf0d6f3d8371e1075c69c492ab4ec5d8cf23a1a239b6a51a1d00be7ca31290600090a292915050565b6000612d95826020614304565b83511015612ddd5760405162461bcd60e51b8152602060048201526015602482015274746f427974657333325f6f75744f66426f756e647360581b6044820152606401610a49565b50016020015190565b606081612df481601f614304565b1015612e335760405162461bcd60e51b815260206004820152600e60248201526d736c6963655f6f766572666c6f7760901b6044820152606401610a49565b612e3d8284614304565b84511015612e815760405162461bcd60e51b8152602060048201526011602482015270736c6963655f6f75744f66426f756e647360781b6044820152606401610a49565b606082158015612ea05760405191506000825260208201604052612eea565b6040519150601f8416801560200281840101858101878315602002848b0101015b81831015612ed9578051835260209283019201612ec1565b5050858452601f01601f1916604052505b50949350505050565b60008084471015612f465760405162461bcd60e51b815260206004820152601d60248201527f437265617465323a20696e73756666696369656e742062616c616e63650000006044820152606401610a49565b8251612f945760405162461bcd60e51b815260206004820181905260248201527f437265617465323a2062797465636f6465206c656e677468206973207a65726f6044820152606401610a49565b8383516020850187f590506001600160a01b038116612c7f5760405162461bcd60e51b815260206004820152601960248201527f437265617465323a204661696c6564206f6e206465706c6f79000000000000006044820152606401610a49565b826001600160a01b031661300882611a01565b6001600160a01b0316146130705760405162461bcd60e51b815260206004820152602960248201527f4552433732313a207472616e73666572206f6620746f6b656e2074686174206960448201526839903737ba1037bbb760b91b6064820152608401610a49565b6001600160a01b0382166130d25760405162461bcd60e51b8152602060048201526024808201527f4552433732313a207472616e7366657220746f20746865207a65726f206164646044820152637265737360e01b6064820152608401610a49565b6130dd60008261240b565b6001600160a01b038316600090815260046020526040812080546001929061310690849061429b565b90915550506001600160a01b0382166000908152600460205260408120805460019290613134908490614304565b909155505060008181526003602052604080822080546001600160a01b0319166001600160a01b0386811691821790925591518493918716917fddf252ad1be2c89b69c2b068fc378daa952ba7f163c4a11628f55a4df523b3ef91a4505050565b60006001600160a01b0384163b1561328857604051630a85bd0160e11b81526001600160a01b0385169063150b7a02906131d990339089908890889060040161431c565b6020604051808303816000875af1925050508015613214575060408051601f3d908101601f1916820190925261321191810190614359565b60015b61326e573d808015613242576040519150601f19603f3d011682016040523d82523d6000602084013e613247565b606091505b5080516132665760405162461bcd60e51b8152600401610a49906142b2565b805181602001fd5b6001600160e01b031916630a85bd0160e11b149050612c7f565b506001949350505050565b61329d83836132c6565b6132aa6000848484613195565b610b7f5760405162461bcd60e51b8152600401610a49906142b2565b6001600160a01b03821661331c5760405162461bcd60e51b815260206004820181905260248201527f4552433732313a206d696e7420746f20746865207a65726f20616464726573736044820152606401610a49565b6000818152600360205260409020546001600160a01b0316156133815760405162461bcd60e51b815260206004820152601c60248201527f4552433732313a20746f6b656e20616c7265616479206d696e746564000000006044820152606401610a49565b6001600160a01b03821660009081526004602052604081208054600192906133aa908490614304565b909155505060008181526003602052604080822080546001600160a01b0319166001600160a01b03861690811790915590518392907fddf252ad1be2c89b69c2b068fc378daa952ba7f163c4a11628f55a4df523b3ef908290a45050565b82805461341490613db9565b90600052602060002090601f016020900481019282613436576000855561347c565b82601f1061344f5782800160ff1982351617855561347c565b8280016001018555821561347c579182015b8281111561347c578235825591602001919060010190613461565b5061348892915061351a565b5090565b82805461349890613db9565b90600052602060002090601f0160209004810192826134ba576000855561347c565b82601f106134d357805160ff191683800117855561347c565b8280016001018555821561347c579182015b8281111561347c5782518255916020019190600101906134e5565b50805460008255906000526020600020908101906114f891905b5b80821115613488576000815560010161351b565b6001600160e01b0319811681146114f857600080fd5b60006020828403121561355757600080fd5b81356135628161352f565b9392505050565b60005b8381101561358457818101518382015260200161356c565b838111156127b25750506000910152565b600081518084526135ad816020860160208601613569565b601f01601f19169290920160200192915050565b6020815260006135626020830184613595565b6000602082840312156135e657600080fd5b5035919050565b6001600160a01b03811681146114f857600080fd5b6000806040838503121561361557600080fd5b8235613620816135ed565b946020939093013593505050565b60008083601f84011261364057600080fd5b5081356001600160401b0381111561365757600080fd5b60208301915083602082850101111561366f57600080fd5b9250929050565b60008060006040848603121561368b57600080fd5b8335925060208401356001600160401b038111156136a857600080fd5b6136b48682870161362e565b9497909650939450505050565b6000602082840312156136d357600080fd5b8135613562816135ed565b634e487b7160e01b600052604160045260246000fd5b604051608081016001600160401b0381118282101715613716576137166136de565b60405290565b604051601f8201601f191681016001600160401b0381118282101715613744576137446136de565b604052919050565b600082601f83011261375d57600080fd5b81356001600160401b03811115613776576137766136de565b613789601f8201601f191660200161371c565b81815284602083860101111561379e57600080fd5b816020850160208301376000918101602001919091529392505050565b600080604083850312156137ce57600080fd5b8235915060208301356001600160401b038111156137eb57600080fd5b6137f78582860161374c565b9150509250929050565b803560ff8116811461381257600080fd5b919050565b600082601f83011261382857600080fd5b813560206001600160401b03821115613843576138436136de565b613851818360051b0161371c565b82815260079290921b8401810191818101908684111561387057600080fd5b8286015b848110156138d3576080818903121561388d5760008081fd5b6138956136f4565b81356138a0816135ed565b81526138ad828601613801565b818601526040828101359082015260608083013590820152835291830191608001613874565b509695505050505050565b600080600080600080600080600080600060e08c8e0312156138ff57600080fd5b6139088c613801565b9a506001600160401b038060208e0135111561392357600080fd5b6139338e60208f01358f0161362e565b909b50995060408d013581101561394957600080fd5b6139598e60408f01358f0161362e565b909950975060608d013581101561396f57600080fd5b61397f8e60608f01358f0161362e565b909750955060808d013581101561399557600080fd5b6139a58e60808f01358f0161362e565b909550935060a08d0135925060c08d01358110156139c257600080fd5b506139d38d60c08e01358e01613817565b90509295989b509295989b9093969950565b6000806000606084860312156139fa57600080fd5b8335613a05816135ed565b92506020840135613a15816135ed565b929592945050506040919091013590565b6020808252825182820181905260009190848201906040850190845b81811015613a675783516001600160a01b031683529284019291840191600101613a42565b50909695505050505050565b600060208284031215613a8557600080fd5b61356282613801565b600060208284031215613aa057600080fd5b81356001600160401b03811115613ab657600080fd5b612c7f8482850161374c565b60008060008060008060008060c0898b031215613ade57600080fd5b8835613ae9816135ed565b975060208901356001600160401b0380821115613b0557600080fd5b613b118c838d0161362e565b909950975060408b0135915080821115613b2a57600080fd5b613b368c838d0161362e565b909750955060608b01359150613b4b826135ed565b90935060808a013590613b5d826135ed565b90925060a08a01359080821115613b7357600080fd5b50613b808b828c0161374c565b9150509295985092959890939650565b60008060408385031215613ba357600080fd5b8235613bae816135ed565b915060208301358015158114613bc357600080fd5b809150509250929050565b600080600080600060808688031215613be657600080fd5b853594506020860135613bf8816135ed565b93506040860135925060608601356001600160401b03811115613c1a57600080fd5b613c268882890161362e565b969995985093965092949392505050565b608081526000613c4a6080830187613595565b8281036020840152613c5c8187613595565b60ff959095166040840152505090151560609091015292915050565b60008083601f840112613c8a57600080fd5b5081356001600160401b03811115613ca157600080fd5b6020830191508360208260051b850101111561366f57600080fd5b600080600080600080600080600060a08a8c031215613cda57600080fd5b8935985060208a01356001600160401b0380821115613cf857600080fd5b613d048d838e01613c78565b909a50985060408c0135915080821115613d1d57600080fd5b613d298d838e01613c78565b909850965060608c0135915080821115613d4257600080fd5b613d4e8d838e01613c78565b909650945060808c0135915080821115613d6757600080fd5b50613d748c828d01613c78565b915080935050809150509295985092959850929598565b60008060408385031215613d9e57600080fd5b8235613da9816135ed565b91506020830135613bc3816135ed565b600181811c90821680613dcd57607f821691505b60208210811415613dee57634e487b7160e01b600052602260045260246000fd5b50919050565b6020808252601f908201527f455243373231526f6c6573416464726573733a204e4f54204d414e4147455200604082015260600190565b6020808252601c908201527f45524337323154656d706c6174653a206e6f74204e46544f776e657200000000604082015260600190565b608081526000613e756080830187613595565b6020830195909552506040810192909252606090910152919050565b60208082526021908201527f45524337323154656d706c6174653a204e4f54204d455441444154415f524f4c6040820152604560f81b606082015260800190565b81835281816020850137506000828201602090810191909152601f909101601f19169091010190565b60ff8b16815260e060208201526000613f1860e083018b8d613ed2565b8281036040840152613f2b818a8c613ed2565b90508281036060840152613f4081888a613ed2565b6080840196909652505060a081019290925260c090910152979650505050505050565b634e487b7160e01b600052603260045260246000fd5b60008351613f8b818460208801613569565b9190910191825250602001919050565b634e487b7160e01b600052601160045260246000fd5b6000600019821415613fc557613fc5613f9b565b5060010190565b6020808252602c908201527f45524337323154656d706c6174653a2043616e6e6f74207472616e736665722060408201526b1d1a1a5cc81d1bdad95b925960a21b606082015260800190565b6000835161402a818460208801613569565b83519083019061403e818360208801613569565b01949350505050565b6000808335601e1984360301811261405e57600080fd5b83016020810192503590506001600160401b0381111561407d57600080fd5b80360383131561366f57600080fd5b8183526000602080850194508260005b858110156140ca5781356140af816135ed565b6001600160a01b03168752958201959082019060010161409c565b509495945050505050565b81835260006001600160fb1b038311156140ee57600080fd5b8260051b8083602087013760009401602001938452509192915050565b81835260006020808501808196508560051b810191508460005b8781101561415b57828403895261413c8288614047565b614147868284613ed2565b9a87019a9550505090840190600101614125565b5091979650505050505050565b89815260a0602082018190528101889052600060c060058a901b830181019083018b835b8c8110156141c95785840360bf190183526141a7828f614047565b6141b2868284613ed2565b95505050602092830192919091019060010161418c565b50505082810360408401526141df81898b61408c565b905082810360608401526141f48187896140d5565b9050828103608084015261420981858761410b565b9c9b505050505050505050505050565b60006020828403121561422b57600080fd5b8151613562816135ed565b602081526000612c7f602083018486613ed2565b60208082526031908201527f4552433732313a207472616e736665722063616c6c6572206973206e6f74206f6040820152701ddb995c881b9bdc88185c1c1c9bdd9959607a1b606082015260800190565b6000828210156142ad576142ad613f9b565b500390565b60208082526032908201527f4552433732313a207472616e7366657220746f206e6f6e20455243373231526560408201527131b2b4bb32b91034b6b83632b6b2b73a32b960711b606082015260800190565b6000821982111561431757614317613f9b565b500190565b6001600160a01b038581168252841660208201526040810183905260806060820181905260009061434f90830184613595565b9695505050505050565b60006020828403121561436b57600080fd5b81516135628161352f56fe6e1540171b6c0c960b71a7020d9f60077f6af931a8bbf590da0223dacf75c7afa26469706673582212206d0bc2d2cba31628d81338472b8edc29d561d59a0f52686f6ad9fb78da838a2264736f6c634300080a0033",
  "linkReferences": {},
  "deployedLinkReferences": {}
}