{
  "_format": "hh-sol-artifact-1",
  "contractName": "V3Metadata",
  "sourceName": "contracts/v3/V3MetaData.sol",
  "abi": [
    {
      "constant": false,
      "inputs": [
        {
          "name": "dataToken",
          "type": "address"
        },
        {
          "name": "flags",
          "type": "bytes"
        },
        {
          "name": "data",
          "type": "bytes"
        }
      ],
      "name": "create",
      "outputs": [],
      "payable": false,
      "stateMutability": "nonpayable",
      "type": "function"
    },
    {
      "constant": false,
      "inputs": [
        {
          "name": "dataToken",
          "type": "address"
        },
        {
          "name": "flags",
          "type": "bytes"
        },
        {
          "name": "data",
          "type": "bytes"
        }
      ],
      "name": "update",
      "outputs": [],
      "payable": false,
      "stateMutability": "nonpayable",
      "type": "function"
    },
    {
      "anonymous": false,
      "inputs": [
        {
          "indexed": true,
          "name": "dataToken",
          "type": "address"
        },
        {
          "indexed": true,
          "name": "createdBy",
          "type": "address"
        },
        {
          "indexed": false,
          "name": "flags",
          "type": "bytes"
        },
        {
          "indexed": false,
          "name": "data",
          "type": "bytes"
        }
      ],
      "name": "MetadataCreated",
      "type": "event"
    },
    {
      "anonymous": false,
      "inputs": [
        {
          "indexed": true,
          "name": "dataToken",
          "type": "address"
        },
        {
          "indexed": true,
          "name": "updatedBy",
          "type": "address"
        },
        {
          "indexed": false,
          "name": "flags",
          "type": "bytes"
        },
        {
          "indexed": false,
          "name": "data",
          "type": "bytes"
        }
      ],
      "name": "MetadataUpdated",
      "type": "event"
    }
  ],
  "bytecode": "0x608060405234801561001057600080fd5b506104f2806100206000396000f3fe608060405234801561001057600080fd5b50600436106100365760003560e01c8063827438141461003b578063f89b1f361461010b575b600080fd5b6101096004803603606081101561005157600080fd5b6001600160a01b038235169190810190604081016020820135600160201b81111561007b57600080fd5b82018360208201111561008d57600080fd5b803590602001918460018302840111600160201b831117156100ae57600080fd5b919390929091602081019035600160201b8111156100cb57600080fd5b8201836020820111156100dd57600080fd5b803590602001918460018302840111600160201b831117156100fe57600080fd5b5090925090506101d9565b005b6101096004803603606081101561012157600080fd5b6001600160a01b038235169190810190604081016020820135600160201b81111561014b57600080fd5b82018360208201111561015d57600080fd5b803590602001918460018302840111600160201b8311171561017e57600080fd5b919390929091602081019035600160201b81111561019b57600080fd5b8201836020820111156101ad57600080fd5b803590602001918460018302840111600160201b831117156101ce57600080fd5b50909250905061033e565b846000819050336001600160a01b0316816001600160a01b031663075461726040518163ffffffff1660e01b815260040160206040518083038186803b15801561022257600080fd5b505afa158015610236573d6000803e3d6000fd5b505050506040513d602081101561024c57600080fd5b50516001600160a01b03161461029657604051600160e51b62461bcd0281526004018080602001828103825260228152602001806104a56022913960400191505060405180910390fd5b336001600160a01b0316876001600160a01b03167ee7283fcf5726344ed567dc39b1822ff824bc90f96c137b622781d3570b81ef888888886040518080602001806020018381038352878782818152602001925080828437600083820152601f01601f191690910184810383528581526020019050858580828437600083820152604051601f909101601f19169092018290039850909650505050505050a350505050505050565b846000819050336001600160a01b0316816001600160a01b031663075461726040518163ffffffff1660e01b815260040160206040518083038186803b15801561038757600080fd5b505afa15801561039b573d6000803e3d6000fd5b505050506040513d60208110156103b157600080fd5b50516001600160a01b0316146103fb57604051600160e51b62461bcd0281526004018080602001828103825260228152602001806104a56022913960400191505060405180910390fd5b336001600160a01b0316876001600160a01b03167fb8c028de5d50845d8e50bbc36728f4e9d523e16a1a431a299e8b216c7b2f5584888888886040518080602001806020018381038352878782818152602001925080828437600083820152601f01601f191690910184810383528581526020019050858580828437600083820152604051601f909101601f19169092018290039850909650505050505050a35050505050505056fe4d657461646174613a20496e76616c69642044617461546f6b656e204d696e746572a165627a7a723058209d1a075a58f506224295fdabf6fa91652c771792b92e50824eb28e56ffa997ab0029",
  "linkReferences": {},
  "deployedLinkReferences": {}
}