{
  "_format": "hh-sol-artifact-1",
  "contractName": "ERC20TemplateEnterprise",
  "sourceName": "contracts/templates/ERC20TemplateEnterprise.sol",
  "abi": [
    {
      "anonymous": false,
      "inputs": [
        {
          "indexed": true,
          "internalType": "address",
          "name": "user",
          "type": "address"
        },
        {
          "indexed": true,
          "internalType": "address",
          "name": "signer",
          "type": "address"
        },
        {
          "indexed": false,
          "internalType": "uint256",
          "name": "timestamp",
          "type": "uint256"
        },
        {
          "indexed": false,
          "internalType": "uint256",
          "name": "blockNumber",
          "type": "uint256"
        }
      ],
      "name": "AddedMinter",
      "type": "event"
    },
    {
      "anonymous": false,
      "inputs": [
        {
          "indexed": true,
          "internalType": "address",
          "name": "user",
          "type": "address"
        },
        {
          "indexed": true,
          "internalType": "address",
          "name": "signer",
          "type": "address"
        },
        {
          "indexed": false,
          "internalType": "uint256",
          "name": "timestamp",
          "type": "uint256"
        },
        {
          "indexed": false,
          "internalType": "uint256",
          "name": "blockNumber",
          "type": "uint256"
        }
      ],
      "name": "AddedPaymentManager",
      "type": "event"
    },
    {
      "anonymous": false,
      "inputs": [
        {
          "indexed": true,
          "internalType": "address",
          "name": "owner",
          "type": "address"
        },
        {
          "indexed": true,
          "internalType": "address",
          "name": "spender",
          "type": "address"
        },
        {
          "indexed": false,
          "internalType": "uint256",
          "name": "value",
          "type": "uint256"
        }
      ],
      "name": "Approval",
      "type": "event"
    },
    {
      "anonymous": false,
      "inputs": [
        {
          "indexed": false,
          "internalType": "address",
          "name": "buyer",
          "type": "address"
        },
        {
          "indexed": false,
          "internalType": "uint256",
          "name": "baseTokenAmount",
          "type": "uint256"
        },
        {
          "indexed": false,
          "internalType": "uint256",
          "name": "marketFeeAmount",
          "type": "uint256"
        }
      ],
      "name": "BuyAndOrder",
      "type": "event"
    },
    {
      "anonymous": false,
      "inputs": [
        {
          "indexed": true,
          "internalType": "address",
          "name": "signer",
          "type": "address"
        },
        {
          "indexed": false,
          "internalType": "uint256",
          "name": "timestamp",
          "type": "uint256"
        },
        {
          "indexed": false,
          "internalType": "uint256",
          "name": "blockNumber",
          "type": "uint256"
        }
      ],
      "name": "CleanedPermissions",
      "type": "event"
    },
    {
      "anonymous": false,
      "inputs": [
        {
          "indexed": false,
          "internalType": "address",
          "name": "currentMinter",
          "type": "address"
        },
        {
          "indexed": false,
          "internalType": "address",
          "name": "newMinter",
          "type": "address"
        }
      ],
      "name": "MinterApproved",
      "type": "event"
    },
    {
      "anonymous": false,
      "inputs": [
        {
          "indexed": false,
          "internalType": "address",
          "name": "currentMinter",
          "type": "address"
        },
        {
          "indexed": false,
          "internalType": "address",
          "name": "newMinter",
          "type": "address"
        }
      ],
      "name": "MinterProposed",
      "type": "event"
    },
    {
      "anonymous": false,
      "inputs": [
        {
          "indexed": false,
          "internalType": "address",
          "name": "dispenserContract",
          "type": "address"
        }
      ],
      "name": "NewDispenser",
      "type": "event"
    },
    {
      "anonymous": false,
      "inputs": [
        {
          "indexed": false,
          "internalType": "bytes32",
          "name": "exchangeId",
          "type": "bytes32"
        },
        {
          "indexed": true,
          "internalType": "address",
          "name": "owner",
          "type": "address"
        },
        {
          "indexed": false,
          "internalType": "address",
          "name": "exchangeContract",
          "type": "address"
        },
        {
          "indexed": true,
          "internalType": "address",
          "name": "basetoken",
          "type": "address"
        }
      ],
      "name": "NewFixedRate",
      "type": "event"
    },
    {
      "anonymous": false,
      "inputs": [
        {
          "indexed": true,
          "internalType": "address",
          "name": "caller",
          "type": "address"
        },
        {
          "indexed": true,
          "internalType": "address",
          "name": "_newPaymentCollector",
          "type": "address"
        },
        {
          "indexed": false,
          "internalType": "uint256",
          "name": "timestamp",
          "type": "uint256"
        },
        {
          "indexed": false,
          "internalType": "uint256",
          "name": "blockNumber",
          "type": "uint256"
        }
      ],
      "name": "NewPaymentCollector",
      "type": "event"
    },
    {
      "anonymous": false,
      "inputs": [
        {
          "indexed": true,
          "internalType": "address",
          "name": "consumer",
          "type": "address"
        },
        {
          "indexed": false,
          "internalType": "address",
          "name": "payer",
          "type": "address"
        },
        {
          "indexed": false,
          "internalType": "uint256",
          "name": "amount",
          "type": "uint256"
        },
        {
          "indexed": false,
          "internalType": "uint256",
          "name": "serviceIndex",
          "type": "uint256"
        },
        {
          "indexed": false,
          "internalType": "uint256",
          "name": "timestamp",
          "type": "uint256"
        },
        {
          "indexed": true,
          "internalType": "address",
          "name": "publishMarketAddress",
          "type": "address"
        },
        {
          "indexed": false,
          "internalType": "uint256",
          "name": "blockNumber",
          "type": "uint256"
        }
      ],
      "name": "OrderStarted",
      "type": "event"
    },
    {
      "anonymous": false,
      "inputs": [
        {
          "indexed": true,
          "internalType": "address",
          "name": "providerFeeAddress",
          "type": "address"
        },
        {
          "indexed": true,
          "internalType": "address",
          "name": "providerFeeToken",
          "type": "address"
        },
        {
          "indexed": false,
          "internalType": "uint256",
          "name": "providerFeeAmount",
          "type": "uint256"
        },
        {
          "indexed": false,
          "internalType": "bytes",
          "name": "providerData",
          "type": "bytes"
        },
        {
          "indexed": false,
          "internalType": "uint8",
          "name": "v",
          "type": "uint8"
        },
        {
          "indexed": false,
          "internalType": "bytes32",
          "name": "r",
          "type": "bytes32"
        },
        {
          "indexed": false,
          "internalType": "bytes32",
          "name": "s",
          "type": "bytes32"
        }
      ],
      "name": "ProviderFees",
      "type": "event"
    },
    {
      "anonymous": false,
      "inputs": [
        {
          "indexed": true,
          "internalType": "address",
          "name": "PublishMarketFeeAddress",
          "type": "address"
        },
        {
          "indexed": true,
          "internalType": "address",
          "name": "PublishMarketFeeToken",
          "type": "address"
        },
        {
          "indexed": false,
          "internalType": "uint256",
          "name": "PublishMarketFeeAmount",
          "type": "uint256"
        }
      ],
      "name": "PublishMarketFees",
      "type": "event"
    },
    {
      "anonymous": false,
      "inputs": [
        {
          "indexed": false,
          "internalType": "address",
          "name": "caller",
          "type": "address"
        },
        {
          "indexed": false,
          "internalType": "address",
          "name": "PublishMarketFeeAddress",
          "type": "address"
        },
        {
          "indexed": false,
          "internalType": "address",
          "name": "PublishMarketFeeToken",
          "type": "address"
        },
        {
          "indexed": false,
          "internalType": "uint256",
          "name": "PublishMarketFeeAmount",
          "type": "uint256"
        }
      ],
      "name": "PublishMarketFeesChanged",
      "type": "event"
    },
    {
      "anonymous": false,
      "inputs": [
        {
          "indexed": true,
          "internalType": "address",
          "name": "user",
          "type": "address"
        },
        {
          "indexed": true,
          "internalType": "address",
          "name": "signer",
          "type": "address"
        },
        {
          "indexed": false,
          "internalType": "uint256",
          "name": "timestamp",
          "type": "uint256"
        },
        {
          "indexed": false,
          "internalType": "uint256",
          "name": "blockNumber",
          "type": "uint256"
        }
      ],
      "name": "RemovedMinter",
      "type": "event"
    },
    {
      "anonymous": false,
      "inputs": [
        {
          "indexed": true,
          "internalType": "address",
          "name": "user",
          "type": "address"
        },
        {
          "indexed": true,
          "internalType": "address",
          "name": "signer",
          "type": "address"
        },
        {
          "indexed": false,
          "internalType": "uint256",
          "name": "timestamp",
          "type": "uint256"
        },
        {
          "indexed": false,
          "internalType": "uint256",
          "name": "blockNumber",
          "type": "uint256"
        }
      ],
      "name": "RemovedPaymentManager",
      "type": "event"
    },
    {
      "anonymous": false,
      "inputs": [
        {
          "indexed": true,
          "internalType": "address",
          "name": "from",
          "type": "address"
        },
        {
          "indexed": true,
          "internalType": "address",
          "name": "to",
          "type": "address"
        },
        {
          "indexed": false,
          "internalType": "uint256",
          "name": "value",
          "type": "uint256"
        }
      ],
      "name": "Transfer",
      "type": "event"
    },
    {
      "stateMutability": "payable",
      "type": "fallback"
    },
    {
      "inputs": [],
      "name": "BASE",
      "outputs": [
        {
          "internalType": "uint256",
          "name": "",
          "type": "uint256"
        }
      ],
      "stateMutability": "view",
      "type": "function"
    },
    {
      "inputs": [],
      "name": "BASE_COMMUNITY_FEE_PERCENTAGE",
      "outputs": [
        {
          "internalType": "uint256",
          "name": "",
          "type": "uint256"
        }
      ],
      "stateMutability": "view",
      "type": "function"
    },
    {
      "inputs": [],
      "name": "DOMAIN_SEPARATOR",
      "outputs": [
        {
          "internalType": "bytes32",
          "name": "",
          "type": "bytes32"
        }
      ],
      "stateMutability": "view",
      "type": "function"
    },
    {
      "inputs": [],
      "name": "PERMIT_TYPEHASH",
      "outputs": [
        {
          "internalType": "bytes32",
          "name": "",
          "type": "bytes32"
        }
      ],
      "stateMutability": "view",
      "type": "function"
    },
    {
      "inputs": [
        {
          "internalType": "address",
          "name": "_minter",
          "type": "address"
        }
      ],
      "name": "addMinter",
      "outputs": [],
      "stateMutability": "nonpayable",
      "type": "function"
    },
    {
      "inputs": [
        {
          "internalType": "address",
          "name": "_paymentManager",
          "type": "address"
        }
      ],
      "name": "addPaymentManager",
      "outputs": [],
      "stateMutability": "nonpayable",
      "type": "function"
    },
    {
      "inputs": [
        {
          "internalType": "address",
          "name": "owner",
          "type": "address"
        },
        {
          "internalType": "address",
          "name": "spender",
          "type": "address"
        }
      ],
      "name": "allowance",
      "outputs": [
        {
          "internalType": "uint256",
          "name": "",
          "type": "uint256"
        }
      ],
      "stateMutability": "view",
      "type": "function"
    },
    {
      "inputs": [
        {
          "internalType": "address",
          "name": "spender",
          "type": "address"
        },
        {
          "internalType": "uint256",
          "name": "amount",
          "type": "uint256"
        }
      ],
      "name": "approve",
      "outputs": [
        {
          "internalType": "bool",
          "name": "",
          "type": "bool"
        }
      ],
      "stateMutability": "nonpayable",
      "type": "function"
    },
    {
      "inputs": [
        {
          "internalType": "uint256",
          "name": "",
          "type": "uint256"
        }
      ],
      "name": "authERC20",
      "outputs": [
        {
          "internalType": "address",
          "name": "",
          "type": "address"
        }
      ],
      "stateMutability": "view",
      "type": "function"
    },
    {
      "inputs": [
        {
          "internalType": "address",
          "name": "account",
          "type": "address"
        }
      ],
      "name": "balanceOf",
      "outputs": [
        {
          "internalType": "uint256",
          "name": "",
          "type": "uint256"
        }
      ],
      "stateMutability": "view",
      "type": "function"
    },
    {
      "inputs": [
        {
          "internalType": "uint256",
          "name": "amount",
          "type": "uint256"
        }
      ],
      "name": "burn",
      "outputs": [],
      "stateMutability": "nonpayable",
      "type": "function"
    },
    {
      "inputs": [
        {
          "internalType": "address",
          "name": "account",
          "type": "address"
        },
        {
          "internalType": "uint256",
          "name": "amount",
          "type": "uint256"
        }
      ],
      "name": "burnFrom",
      "outputs": [],
      "stateMutability": "nonpayable",
      "type": "function"
    },
    {
      "inputs": [
        {
          "components": [
            {
              "internalType": "address",
              "name": "consumer",
              "type": "address"
            },
            {
              "internalType": "uint256",
              "name": "serviceIndex",
              "type": "uint256"
            },
            {
              "internalType": "address",
              "name": "providerFeeAddress",
              "type": "address"
            },
            {
              "internalType": "address",
              "name": "providerFeeToken",
              "type": "address"
            },
            {
              "internalType": "uint256",
              "name": "providerFeeAmount",
              "type": "uint256"
            },
            {
              "internalType": "uint8",
              "name": "v",
              "type": "uint8"
            },
            {
              "internalType": "bytes32",
              "name": "r",
              "type": "bytes32"
            },
            {
              "internalType": "bytes32",
              "name": "s",
              "type": "bytes32"
            },
            {
              "internalType": "bytes",
              "name": "providerData",
              "type": "bytes"
            }
          ],
          "internalType": "struct ERC20TemplateEnterprise.OrderParams",
          "name": "_orderParams",
          "type": "tuple"
        },
        {
          "internalType": "address",
          "name": "dispenserContract",
          "type": "address"
        }
      ],
      "name": "buyFromDispenserAndOrder",
      "outputs": [],
      "stateMutability": "nonpayable",
      "type": "function"
    },
    {
      "inputs": [
        {
          "components": [
            {
              "internalType": "address",
              "name": "consumer",
              "type": "address"
            },
            {
              "internalType": "uint256",
              "name": "serviceIndex",
              "type": "uint256"
            },
            {
              "internalType": "address",
              "name": "providerFeeAddress",
              "type": "address"
            },
            {
              "internalType": "address",
              "name": "providerFeeToken",
              "type": "address"
            },
            {
              "internalType": "uint256",
              "name": "providerFeeAmount",
              "type": "uint256"
            },
            {
              "internalType": "uint8",
              "name": "v",
              "type": "uint8"
            },
            {
              "internalType": "bytes32",
              "name": "r",
              "type": "bytes32"
            },
            {
              "internalType": "bytes32",
              "name": "s",
              "type": "bytes32"
            },
            {
              "internalType": "bytes",
              "name": "providerData",
              "type": "bytes"
            }
          ],
          "internalType": "struct ERC20TemplateEnterprise.OrderParams",
          "name": "_orderParams",
          "type": "tuple"
        },
        {
          "components": [
            {
              "internalType": "address",
              "name": "exchangeContract",
              "type": "address"
            },
            {
              "internalType": "bytes32",
              "name": "exchangeId",
              "type": "bytes32"
            },
            {
              "internalType": "uint256",
              "name": "maxBaseTokenAmount",
              "type": "uint256"
            },
            {
              "internalType": "uint256",
              "name": "swapMarketFee",
              "type": "uint256"
            },
            {
              "internalType": "address",
              "name": "marketFeeAddress",
              "type": "address"
            }
          ],
          "internalType": "struct ERC20TemplateEnterprise.FreParams",
          "name": "_freParams",
          "type": "tuple"
        }
      ],
      "name": "buyFromFreAndOrder",
      "outputs": [],
      "stateMutability": "nonpayable",
      "type": "function"
    },
    {
      "inputs": [],
      "name": "cap",
      "outputs": [
        {
          "internalType": "uint256",
          "name": "",
          "type": "uint256"
        }
      ],
      "stateMutability": "view",
      "type": "function"
    },
    {
      "inputs": [],
      "name": "cleanFrom721",
      "outputs": [],
      "stateMutability": "nonpayable",
      "type": "function"
    },
    {
      "inputs": [],
      "name": "cleanPermissions",
      "outputs": [],
      "stateMutability": "nonpayable",
      "type": "function"
    },
    {
      "inputs": [
        {
          "internalType": "address",
          "name": "_dispenser",
          "type": "address"
        },
        {
          "internalType": "uint256",
          "name": "maxTokens",
          "type": "uint256"
        },
        {
          "internalType": "uint256",
          "name": "maxBalance",
          "type": "uint256"
        },
        {
          "internalType": "bool",
          "name": "withMint",
          "type": "bool"
        },
        {
          "internalType": "address",
          "name": "allowedSwapper",
          "type": "address"
        }
      ],
      "name": "createDispenser",
      "outputs": [],
      "stateMutability": "nonpayable",
      "type": "function"
    },
    {
      "inputs": [
        {
          "internalType": "address",
          "name": "fixedPriceAddress",
          "type": "address"
        },
        {
          "internalType": "address[]",
          "name": "addresses",
          "type": "address[]"
        },
        {
          "internalType": "uint256[]",
          "name": "uints",
          "type": "uint256[]"
        }
      ],
      "name": "createFixedRate",
      "outputs": [
        {
          "internalType": "bytes32",
          "name": "exchangeId",
          "type": "bytes32"
        }
      ],
      "stateMutability": "nonpayable",
      "type": "function"
    },
    {
      "inputs": [],
      "name": "decimals",
      "outputs": [
        {
          "internalType": "uint8",
          "name": "",
          "type": "uint8"
        }
      ],
      "stateMutability": "pure",
      "type": "function"
    },
    {
      "inputs": [
        {
          "internalType": "address",
          "name": "spender",
          "type": "address"
        },
        {
          "internalType": "uint256",
          "name": "subtractedValue",
          "type": "uint256"
        }
      ],
      "name": "decreaseAllowance",
      "outputs": [
        {
          "internalType": "bool",
          "name": "",
          "type": "bool"
        }
      ],
      "stateMutability": "nonpayable",
      "type": "function"
    },
    {
      "inputs": [],
      "name": "getDispensers",
      "outputs": [
        {
          "internalType": "address[]",
          "name": "",
          "type": "address[]"
        }
      ],
      "stateMutability": "view",
      "type": "function"
    },
    {
      "inputs": [],
      "name": "getERC721Address",
      "outputs": [
        {
          "internalType": "address",
          "name": "",
          "type": "address"
        }
      ],
      "stateMutability": "view",
      "type": "function"
    },
    {
      "inputs": [],
      "name": "getFixedRates",
      "outputs": [
        {
          "components": [
            {
              "internalType": "address",
              "name": "contractAddress",
              "type": "address"
            },
            {
              "internalType": "bytes32",
              "name": "id",
              "type": "bytes32"
            }
          ],
          "internalType": "struct ERC20TemplateEnterprise.fixedRate[]",
          "name": "",
          "type": "tuple[]"
        }
      ],
      "stateMutability": "view",
      "type": "function"
    },
    {
      "inputs": [],
      "name": "getId",
      "outputs": [
        {
          "internalType": "uint8",
          "name": "",
          "type": "uint8"
        }
      ],
      "stateMutability": "pure",
      "type": "function"
    },
    {
      "inputs": [],
      "name": "getPaymentCollector",
      "outputs": [
        {
          "internalType": "address",
          "name": "",
          "type": "address"
        }
      ],
      "stateMutability": "view",
      "type": "function"
    },
    {
      "inputs": [
        {
          "internalType": "address",
          "name": "user",
          "type": "address"
        }
      ],
      "name": "getPermissions",
      "outputs": [
        {
          "components": [
            {
              "internalType": "bool",
              "name": "minter",
              "type": "bool"
            },
            {
              "internalType": "bool",
              "name": "paymentManager",
              "type": "bool"
            }
          ],
          "internalType": "struct ERC20Roles.RolesERC20",
          "name": "",
          "type": "tuple"
        }
      ],
      "stateMutability": "view",
      "type": "function"
    },
    {
      "inputs": [],
      "name": "getPublishingMarketFee",
      "outputs": [
        {
          "internalType": "address",
          "name": "",
          "type": "address"
        },
        {
          "internalType": "address",
          "name": "",
          "type": "address"
        },
        {
          "internalType": "uint256",
          "name": "",
          "type": "uint256"
        }
      ],
      "stateMutability": "view",
      "type": "function"
    },
    {
      "inputs": [
        {
          "internalType": "address",
          "name": "spender",
          "type": "address"
        },
        {
          "internalType": "uint256",
          "name": "addedValue",
          "type": "uint256"
        }
      ],
      "name": "increaseAllowance",
      "outputs": [
        {
          "internalType": "bool",
          "name": "",
          "type": "bool"
        }
      ],
      "stateMutability": "nonpayable",
      "type": "function"
    },
    {
      "inputs": [
        {
          "internalType": "string[]",
          "name": "strings_",
          "type": "string[]"
        },
        {
          "internalType": "address[]",
          "name": "addresses_",
          "type": "address[]"
        },
        {
          "internalType": "address[]",
          "name": "factoryAddresses_",
          "type": "address[]"
        },
        {
          "internalType": "uint256[]",
          "name": "uints_",
          "type": "uint256[]"
        },
        {
          "internalType": "bytes[]",
          "name": "bytes_",
          "type": "bytes[]"
        }
      ],
      "name": "initialize",
      "outputs": [
        {
          "internalType": "bool",
          "name": "",
          "type": "bool"
        }
      ],
      "stateMutability": "nonpayable",
      "type": "function"
    },
    {
      "inputs": [
        {
          "internalType": "address",
          "name": "user",
          "type": "address"
        }
      ],
      "name": "isERC20Deployer",
      "outputs": [
        {
          "internalType": "bool",
          "name": "deployer",
          "type": "bool"
        }
      ],
      "stateMutability": "nonpayable",
      "type": "function"
    },
    {
      "inputs": [],
      "name": "isInitialized",
      "outputs": [
        {
          "internalType": "bool",
          "name": "",
          "type": "bool"
        }
      ],
      "stateMutability": "view",
      "type": "function"
    },
    {
      "inputs": [
        {
          "internalType": "address",
          "name": "account",
          "type": "address"
        }
      ],
      "name": "isMinter",
      "outputs": [
        {
          "internalType": "bool",
          "name": "",
          "type": "bool"
        }
      ],
      "stateMutability": "view",
      "type": "function"
    },
    {
      "inputs": [
        {
          "internalType": "address",
          "name": "account",
          "type": "address"
        },
        {
          "internalType": "uint256",
          "name": "value",
          "type": "uint256"
        }
      ],
      "name": "mint",
      "outputs": [],
      "stateMutability": "nonpayable",
      "type": "function"
    },
    {
      "inputs": [],
      "name": "name",
      "outputs": [
        {
          "internalType": "string",
          "name": "",
          "type": "string"
        }
      ],
      "stateMutability": "view",
      "type": "function"
    },
    {
      "inputs": [
        {
          "internalType": "address",
          "name": "",
          "type": "address"
        }
      ],
      "name": "nonces",
      "outputs": [
        {
          "internalType": "uint256",
          "name": "",
          "type": "uint256"
        }
      ],
      "stateMutability": "view",
      "type": "function"
    },
    {
      "inputs": [
        {
          "internalType": "address",
          "name": "",
          "type": "address"
        }
      ],
      "name": "permissions",
      "outputs": [
        {
          "internalType": "bool",
          "name": "minter",
          "type": "bool"
        },
        {
          "internalType": "bool",
          "name": "paymentManager",
          "type": "bool"
        }
      ],
      "stateMutability": "view",
      "type": "function"
    },
    {
      "inputs": [
        {
          "internalType": "address",
          "name": "owner",
          "type": "address"
        },
        {
          "internalType": "address",
          "name": "spender",
          "type": "address"
        },
        {
          "internalType": "uint256",
          "name": "value",
          "type": "uint256"
        },
        {
          "internalType": "uint256",
          "name": "deadline",
          "type": "uint256"
        },
        {
          "internalType": "uint8",
          "name": "v",
          "type": "uint8"
        },
        {
          "internalType": "bytes32",
          "name": "r",
          "type": "bytes32"
        },
        {
          "internalType": "bytes32",
          "name": "s",
          "type": "bytes32"
        }
      ],
      "name": "permit",
      "outputs": [],
      "stateMutability": "nonpayable",
      "type": "function"
    },
    {
      "inputs": [
        {
          "internalType": "address",
          "name": "_minter",
          "type": "address"
        }
      ],
      "name": "removeMinter",
      "outputs": [],
      "stateMutability": "nonpayable",
      "type": "function"
    },
    {
      "inputs": [
        {
          "internalType": "address",
          "name": "_paymentManager",
          "type": "address"
        }
      ],
      "name": "removePaymentManager",
      "outputs": [],
      "stateMutability": "nonpayable",
      "type": "function"
    },
    {
      "inputs": [],
      "name": "router",
      "outputs": [
        {
          "internalType": "address",
          "name": "",
          "type": "address"
        }
      ],
      "stateMutability": "view",
      "type": "function"
    },
    {
      "inputs": [
        {
          "internalType": "bytes",
          "name": "_value",
          "type": "bytes"
        }
      ],
      "name": "setData",
      "outputs": [],
      "stateMutability": "nonpayable",
      "type": "function"
    },
    {
      "inputs": [
        {
          "internalType": "address",
          "name": "_newPaymentCollector",
          "type": "address"
        }
      ],
      "name": "setPaymentCollector",
      "outputs": [],
      "stateMutability": "nonpayable",
      "type": "function"
    },
    {
      "inputs": [
        {
          "internalType": "address",
          "name": "_publishMarketFeeAddress",
          "type": "address"
        },
        {
          "internalType": "address",
          "name": "_publishMarketFeeToken",
          "type": "address"
        },
        {
          "internalType": "uint256",
          "name": "_publishMarketFeeAmount",
          "type": "uint256"
        }
      ],
      "name": "setPublishingMarketFee",
      "outputs": [],
      "stateMutability": "nonpayable",
      "type": "function"
    },
    {
      "inputs": [
        {
          "internalType": "address",
          "name": "consumer",
          "type": "address"
        },
        {
          "internalType": "uint256",
          "name": "serviceIndex",
          "type": "uint256"
        },
        {
          "internalType": "address",
          "name": "providerFeeAddress",
          "type": "address"
        },
        {
          "internalType": "address",
          "name": "providerFeeToken",
          "type": "address"
        },
        {
          "internalType": "uint256",
          "name": "providerFeeAmount",
          "type": "uint256"
        },
        {
          "internalType": "uint8",
          "name": "v",
          "type": "uint8"
        },
        {
          "internalType": "bytes32",
          "name": "r",
          "type": "bytes32"
        },
        {
          "internalType": "bytes32",
          "name": "s",
          "type": "bytes32"
        },
        {
          "internalType": "bytes",
          "name": "providerData",
          "type": "bytes"
        }
      ],
      "name": "startOrder",
      "outputs": [],
      "stateMutability": "nonpayable",
      "type": "function"
    },
    {
      "inputs": [],
      "name": "symbol",
      "outputs": [
        {
          "internalType": "string",
          "name": "",
          "type": "string"
        }
      ],
      "stateMutability": "view",
      "type": "function"
    },
    {
      "inputs": [],
      "name": "totalSupply",
      "outputs": [
        {
          "internalType": "uint256",
          "name": "",
          "type": "uint256"
        }
      ],
      "stateMutability": "view",
      "type": "function"
    },
    {
      "inputs": [
        {
          "internalType": "address",
          "name": "recipient",
          "type": "address"
        },
        {
          "internalType": "uint256",
          "name": "amount",
          "type": "uint256"
        }
      ],
      "name": "transfer",
      "outputs": [
        {
          "internalType": "bool",
          "name": "",
          "type": "bool"
        }
      ],
      "stateMutability": "nonpayable",
      "type": "function"
    },
    {
      "inputs": [
        {
          "internalType": "address",
          "name": "sender",
          "type": "address"
        },
        {
          "internalType": "address",
          "name": "recipient",
          "type": "address"
        },
        {
          "internalType": "uint256",
          "name": "amount",
          "type": "uint256"
        }
      ],
      "name": "transferFrom",
      "outputs": [
        {
          "internalType": "bool",
          "name": "",
          "type": "bool"
        }
      ],
      "stateMutability": "nonpayable",
      "type": "function"
    },
    {
      "inputs": [],
      "name": "withdrawETH",
      "outputs": [],
      "stateMutability": "payable",
      "type": "function"
    }
  ],
  "bytecode": "0x6080604052600a805460ff60a01b191690553480156200001e57600080fd5b5060408051808201825260048152631d195cdd60e21b60208083019182528351808501909452600a8452691d195cdd14de5b589bdb60b21b9084015281519192916200006d916003916200008c565b508051620000839060049060208401906200008c565b5050506200016f565b8280546200009a9062000132565b90600052602060002090601f016020900481019282620000be576000855562000109565b82601f10620000d957805160ff191683800117855562000109565b8280016001018555821562000109579182015b8281111562000109578251825591602001919060010190620000ec565b50620001179291506200011b565b5090565b5b808211156200011757600081556001016200011c565b600181811c908216806200014757607f821691505b602082108114156200016957634e487b7160e01b600052602260045260246000fd5b50919050565b614991806200017f6000396000f3fe6080604052600436106102ad5760003560e01c806370a0823111610166578063aa271e1a116100d3578063dd62ed3e1161008f578063ec342ad01161006c578063ec342ad01461095a578063ee88ade114610976578063ef867ff414610996578063f887ea40146109b657005b8063dd62ed3e146108f7578063e086e5ec1461093d578063e487c2e81461094557005b8063aa271e1a14610829578063aa492ef914610862578063ab62f0e114610882578063b2263a5d146108a2578063b3998be0146108b7578063d505accf146108d757005b806395d89b411161012257806395d89b411461077457806396fb3eaf14610789578063983b2d56146107a95780639b4f44b6146107c9578063a457c2d7146107e9578063a9059cbb1461080957005b806370a082311461069a57806379cc6790146106d05780637dda231e146106f05780637ecebe001461071257806382c03da51461073f5780638b96412b1461075457005b8063313ce5671161021c57806340c10f19116101d85780634f189cb2116101b55780634f189cb21461063157806357a3a31b1461064657806357ad5ff6146106665780635d1ca6311461068657005b806340c10f19146105cf57806342966c68146105ef57806347ac7d551461060f57005b8063313ce56714610507578063355274ea146105295780633644e5151461053e578063392e53cd146105545780633950935114610573578063397b37431461059357005b806318636d3c1161026b57806318636d3c14610433578063191c918a1461045357806323b872dd1461047357806325b00243146104935780633092afd5146104b357806330adf81f146104d357005b80627ffb78146102af57806301e88208146102e657806306fdde0314610336578063095ea7b314610358578063160a79251461038857806318160ddd14610414575b005b3480156102bb57600080fd5b50600b546001600160a01b03165b6040516001600160a01b0390911681526020015b60405180910390f35b3480156102f257600080fd5b5061031f610301366004613a44565b60056020526000908152604090205460ff8082169161010090041682565b6040805192151583529015156020830152016102dd565b34801561034257600080fd5b5061034b6109d6565b6040516102dd9190613ab9565b34801561036457600080fd5b50610378610373366004613acc565b610a68565b60405190151581526020016102dd565b34801561039457600080fd5b506103f56103a3366004613a44565b6040805180820190915260008082526020820152506001600160a01b031660009081526005602090815260409182902082518084019093525460ff808216151584526101009091041615159082015290565b60408051825115158152602092830151151592810192909252016102dd565b34801561042057600080fd5b506002545b6040519081526020016102dd565b34801561043f57600080fd5b506102ad61044e366004613cc7565b610a7e565b34801561045f57600080fd5b506102ad61046e366004613d26565b610b8f565b34801561047f57600080fd5b5061037861048e366004613d85565b610d34565b34801561049f57600080fd5b506102ad6104ae366004613a44565b610de0565b3480156104bf57600080fd5b506102ad6104ce366004613a44565b610e7a565b3480156104df57600080fd5b506104257f6e71edae12b1b97f4d1f60370fef10105fa2faae0126114a169c64845d6126c981565b34801561051357600080fd5b5060125b60405160ff90911681526020016102dd565b34801561053557600080fd5b50600954610425565b34801561054a57600080fd5b5061042560105481565b34801561056057600080fd5b50600a54600160a01b900460ff16610378565b34801561057f57600080fd5b5061037861058e366004613acc565b610f11565b34801561059f57600080fd5b50600d54600e54600f54604080516001600160a01b039485168152939092166020840152908201526060016102dd565b3480156105db57600080fd5b506102ad6105ea366004613acc565b610f4d565b3480156105fb57600080fd5b506102ad61060a366004613dc6565b61101e565b34801561061b57600080fd5b50610624611028565b6040516102dd9190613e23565b34801561063d57600080fd5b506102ad611089565b34801561065257600080fd5b506102ad610661366004613a44565b611170565b34801561067257600080fd5b506102ad610681366004613d85565b6112b2565b34801561069257600080fd5b506002610517565b3480156106a657600080fd5b506104256106b5366004613a44565b6001600160a01b031660009081526020819052604090205490565b3480156106dc57600080fd5b506102ad6106eb366004613acc565b611406565b3480156106fc57600080fd5b50610705611487565b6040516102dd9190613e36565b34801561071e57600080fd5b5061042561072d366004613a44565b60116020526000908152604090205481565b34801561074b57600080fd5b506102ad6114fc565b34801561076057600080fd5b5061042561076f366004613f1c565b611556565b34801561078057600080fd5b5061034b6117dc565b34801561079557600080fd5b506103786107a4366004613a44565b6117eb565b3480156107b557600080fd5b506102ad6107c4366004613a44565b611866565b3480156107d557600080fd5b506102ad6107e4366004613ff1565b6118fd565b3480156107f557600080fd5b50610378610804366004613acc565b611919565b34801561081557600080fd5b50610378610824366004613acc565b6119b2565b34801561083557600080fd5b50610378610844366004613a44565b6001600160a01b031660009081526005602052604090205460ff1690565b34801561086e57600080fd5b506102ad61087d366004613a44565b6119bf565b34801561088e57600080fd5b506102ad61089d36600461409d565b611a56565b3480156108ae57600080fd5b50610425611b87565b3480156108c357600080fd5b506103786108d2366004614159565b611b9d565b3480156108e357600080fd5b506102ad6108f2366004614249565b611cd7565b34801561090357600080fd5b506104256109123660046142b7565b6001600160a01b03918216600090815260016020908152604080832093909416825291909152205490565b6102ad611ede565b34801561095157600080fd5b506102c9611f1e565b34801561096657600080fd5b50610425670de0b6b3a764000081565b34801561098257600080fd5b506102ad6109913660046142e5565b611fb3565b3480156109a257600080fd5b506102c96109b1366004613dc6565b612391565b3480156109c257600080fd5b506012546102c9906001600160a01b031681565b6060600780546109e590614387565b80601f0160208091040260200160405190810160405280929190818152602001828054610a1190614387565b8015610a5e5780601f10610a3357610100808354040283529160200191610a5e565b820191906000526020600020905b815481529060010190602001808311610a4157829003601f168201915b5050505050905090565b6000610a753384846123bb565b50600192915050565b604051631d746d8360e01b8152306004820152670de0b6b3a764000060248201819052336044830152906001600160a01b03831690631d746d8390606401600060405180830381600087803b158015610ad657600080fd5b505af1158015610aea573d6000803e3d6000fd5b50503360009081526020819052604090205483925090501015610b545760405162461bcd60e51b815260206004820152601f60248201527f556e61626c6520746f206765742044542066726f6d2044697370656e7365720060448201526064015b60405180910390fd5b610b8a836000015184602001518560400151866060015187608001518860a001518960c001518a60e001518b61010001516124df565b505050565b600b5460405163160a792560e01b81523360048201526001600160a01b039091169063160a7925906024016080604051808303816000875af1158015610bd9573d6000803e3d6000fd5b505050506040513d601f19601f82011682018060405250810190610bfd91906143c2565b60200151610c1d5760405162461bcd60e51b8152600401610b4b90614446565b601254604051636b14d00560e11b81526001600160a01b0387811660048301523060248301819052604483018890526064830187905233608484015260a48301529091169063d629a00a9060c401600060405180830381600087803b158015610c8557600080fd5b505af1158015610c99573d6000803e3d6000fd5b505050508115610cac57610cac8561290f565b601480546001810182556000919091527fce6d7b5282bd9a3661ae061feed1dbda4e52ab073b1f9285be6e155d9c38d4ec0180546001600160a01b0319166001600160a01b0387169081179091556040519081527fa31ffd41531537eb31bfd827a3f5372b5f62bf4dd8579e5354b280dc58490e709060200160405180910390a15050505050565b6000610d41848484612a11565b6001600160a01b038416600090815260016020908152604080832033845290915290205482811015610dc65760405162461bcd60e51b815260206004820152602860248201527f45524332303a207472616e7366657220616d6f756e74206578636565647320616044820152676c6c6f77616e636560c01b6064820152608401610b4b565b610dd385338584036123bb565b60019150505b9392505050565b600b5460405163160a792560e01b81523360048201526001600160a01b039091169063160a7925906024016080604051808303816000875af1158015610e2a573d6000803e3d6000fd5b505050506040513d601f19601f82011682018060405250810190610e4e91906143c2565b60200151610e6e5760405162461bcd60e51b8152600401610b4b90614446565b610e7781612be1565b50565b600b5460405163160a792560e01b81523360048201526001600160a01b039091169063160a7925906024016080604051808303816000875af1158015610ec4573d6000803e3d6000fd5b505050506040513d601f19601f82011682018060405250810190610ee891906143c2565b60200151610f085760405162461bcd60e51b8152600401610b4b90614446565b610e7781612c42565b3360008181526001602090815260408083206001600160a01b03871684529091528120549091610a75918590610f48908690614491565b6123bb565b3360009081526005602052604090205460ff16610fac5760405162461bcd60e51b815260206004820152601960248201527f455243323054656d706c6174653a204e4f54204d494e544552000000000000006044820152606401610b4b565b600954610fc282610fbc60025490565b90612ca2565b11156110105760405162461bcd60e51b815260206004820152601f60248201527f44617461546f6b656e54656d706c6174653a20636170206578636565646564006044820152606401610b4b565b61101a8282612cae565b5050565b610e773382612d8d565b60606014805480602002602001604051908101604052809291908181526020018280548015610a5e57602002820191906000526020600020905b81546001600160a01b03168152600190910190602001808311611062575050505050905090565b600b546040516331a9108f60e11b8152600160048201526001600160a01b0390911690636352211e90602401602060405180830381865afa1580156110d2573d6000803e3d6000fd5b505050506040513d601f19601f820116820180604052508101906110f691906144a9565b6001600160a01b0316336001600160a01b0316146111565760405162461bcd60e51b815260206004820152601b60248201527f455243323054656d706c6174653a206e6f74204e46544f776e657200000000006044820152606401610b4b565b61115e612edb565b600c80546001600160a01b0319169055565b33600090815260056020526040902054610100900460ff16806112015750600b5460405163160a792560e01b81523360048201526001600160a01b039091169063160a7925906024016080604051808303816000875af11580156111d8573d6000803e3d6000fd5b505050506040513d601f19601f820116820180604052508101906111fc91906143c2565b602001515b6112615760405162461bcd60e51b815260206004820152602b60248201527f455243323054656d706c6174653a204e4f54205041594d454e54204d414e414760448201526a22a91037b91027aba722a960a91b6064820152608401610b4b565b61126a81612f8a565b604080514281524360208201526001600160a01b0383169133917f4d7694d695c57cc54947177c8e8a0e61aae664e9223492a798c32fadfc6419cc910160405180910390a350565b600d546001600160a01b0316331461131f5760405162461bcd60e51b815260206004820152602a60248201527f455243323054656d706c6174653a206e6f74207075626c6973684d61726b65746044820152694665654164647265737360b01b6064820152608401610b4b565b6001600160a01b0383166113865760405162461bcd60e51b815260206004820152602860248201527f496e76616c6964205f7075626c6973684d61726b657446656541646472657373604482015267206164647265737360c01b6064820152608401610b4b565b600d80546001600160a01b038581166001600160a01b03199283168117909355600e8054918616919092168117909155600f839055604080513381526020810193909352820152606081018290527fe0b85b6f04fa914cf57f6401c5672a83a32b1c388d194c3d78e17f2897d46f439060800160405180910390a1505050565b60006114128333610912565b9050818110156114705760405162461bcd60e51b8152602060048201526024808201527f45524332303a206275726e20616d6f756e74206578636565647320616c6c6f77604482015263616e636560e01b6064820152608401610b4b565b61147d83338484036123bb565b610b8a8383612d8d565b60606013805480602002602001604051908101604052809291908181526020016000905b828210156114f3576000848152602090819020604080518082019091526002850290910180546001600160a01b031682526001908101548284015290835290920191016114ab565b50505050905090565b600b546001600160a01b031633146111565760405162461bcd60e51b815260206004820152601f60248201527f455243323054656d706c6174653a204e4f542037323120436f6e7472616374006044820152606401610b4b565b600b5460405163160a792560e01b81523360048201526000916001600160a01b03169063160a7925906024016080604051808303816000875af11580156115a1573d6000803e3d6000fd5b505050506040513d601f19601f820116820180604052508101906115c591906143c2565b602001516115e55760405162461bcd60e51b8152600401610b4b90614446565b30836003815181106115f9576115f96144c6565b6001600160a01b039283166020918202929092010152601254604051638244937560e01b815291169063824493759061163a908790879087906004016144dc565b6020604051808303816000875af1158015611659573d6000803e3d6000fd5b505050506040513d601f19601f8201168201806040525081019061167d9190614542565b9050600082600481518110611694576116946144c6565b602002602001015111156116ab576116ab8461290f565b826000815181106116be576116be6144c6565b60200260200101516001600160a01b0316836001815181106116e2576116e26144c6565b60200260200101516001600160a01b03167fb3fac3ae95956dbac74e63ba8dac94081832395c8788e3049c900a7732f3480583876040516117369291909182526001600160a01b0316602082015260400190565b60405180910390a3604080518082019091526001600160a01b039485168152602081018281526013805460018101825560009190915291517f66de8ffda797e3de9c05e8fc57b3bf0ec28a930d40b0d285d93c06501cf6a090600290930292830180546001600160a01b031916919097161790955593517f66de8ffda797e3de9c05e8fc57b3bf0ec28a930d40b0d285d93c06501cf6a091909401939093555090919050565b6060600880546109e590614387565b600b5460405163160a792560e01b81526001600160a01b038381166004830152600092169063160a7925906024016080604051808303816000875af1158015611838573d6000803e3d6000fd5b505050506040513d601f19601f8201168201806040525081019061185c91906143c2565b6020015192915050565b600b5460405163160a792560e01b81523360048201526001600160a01b039091169063160a7925906024016080604051808303816000875af11580156118b0573d6000803e3d6000fd5b505050506040513d601f19601f820116820180604052508101906118d491906143c2565b602001516118f45760405162461bcd60e51b8152600401610b4b90614446565b610e778161290f565b61190e8989898989898989896124df565b505050505050505050565b3360009081526001602090815260408083206001600160a01b03861684529091528120548281101561199b5760405162461bcd60e51b815260206004820152602560248201527f45524332303a2064656372656173656420616c6c6f77616e63652062656c6f77604482015264207a65726f60d81b6064820152608401610b4b565b6119a833858584036123bb565b5060019392505050565b6000610a75338484612a11565b600b5460405163160a792560e01b81523360048201526001600160a01b039091169063160a7925906024016080604051808303816000875af1158015611a09573d6000803e3d6000fd5b505050506040513d601f19601f82011682018060405250810190611a2d91906143c2565b60200151611a4d5760405162461bcd60e51b8152600401610b4b90614446565b610e7781612fac565b600b5460405163160a792560e01b81523360048201526001600160a01b039091169063160a7925906024016080604051808303816000875af1158015611aa0573d6000803e3d6000fd5b505050506040513d601f19601f82011682018060405250810190611ac491906143c2565b60200151611ae45760405162461bcd60e51b8152600401610b4b90614446565b6040516bffffffffffffffffffffffff193060601b16602082015260009060340160408051601f19818403018152908290528051602090910120600b546301caf8fd60e31b83529092506001600160a01b031690630e57c7e890611b509084908790879060040161455b565b600060405180830381600087803b158015611b6a57600080fd5b505af1158015611b7e573d6000803e3d6000fd5b50505050505050565b611b9a6064670de0b6b3a7640000614591565b81565b600a54600090600160a01b900460ff1615611c145760405162461bcd60e51b815260206004820152603160248201527f455243323054656d706c6174653a20746f6b656e20696e7374616e636520616c6044820152701c9958591e481a5b9a5d1a585b1a5e9959607a1b6064820152608401610b4b565b611cc8611c218b8d6145b3565b8a8a8080602002602001604051908101604052809392919081815260200183836020028082843760009201919091525050604080516020808e0282810182019093528d82529093508d92508c91829185019084908082843760009201919091525050604080516020808d0282810182019093528c82529093508c92508b918291850190849080828437600092019190915250611cc392508991508a905061463a565b6130ba565b9b9a5050505050505050505050565b43841015611d1a5760405162461bcd60e51b815260206004820152601060248201526f115490cc8c11150e881156141254915160821b6044820152606401610b4b565b6010546001600160a01b038816600090815260116020526040812080549192917f6e71edae12b1b97f4d1f60370fef10105fa2faae0126114a169c64845d6126c9918b918b918b919087611d6d836146a1565b909155506040805160208101969096526001600160a01b0394851690860152929091166060840152608083015260a082015260c0810187905260e00160405160208183030381529060405280519060200120604051602001611de692919061190160f01b81526002810192909252602282015260420190565b60408051601f198184030181528282528051602091820120600080855291840180845281905260ff88169284019290925260608301869052608083018590529092509060019060a0016020604051602081039080840390855afa158015611e51573d6000803e3d6000fd5b5050604051601f1901519150506001600160a01b03811615801590611e875750886001600160a01b0316816001600160a01b0316145b611ed35760405162461bcd60e51b815260206004820152601a60248201527f455243323044543a20494e56414c49445f5349474e41545552450000000000006044820152606401610b4b565b61190e8989896123bb565b611ee6611f1e565b6001600160a01b03166108fc479081150290604051600060405180830381858888f19350505050158015610e77573d6000803e3d6000fd5b600c546000906001600160a01b0316611fa357600b546040516331a9108f60e11b8152600160048201526001600160a01b0390911690636352211e90602401602060405180830381865afa158015611f7a573d6000803e3d6000fd5b505050506040513d601f19601f82011682018060405250810190611f9e91906144a9565b905090565b50600c546001600160a01b031690565b80516020820151604051634c87087d60e01b815260009283926001600160a01b0390911691634c87087d91611fee9160040190815260200190565b61018060405180830381865afa15801561200c573d6000803e3d6000fd5b505050506040513d601f19601f8201168201806040525081019061203091906146bc565b5050505050505050935050925050306001600160a01b0316826001600160a01b0316146120af5760405162461bcd60e51b815260206004820152602760248201527f5468697320466978656452617465206973206e6f742070726f766964696e67206044820152661d1a1a5cc8111560ca1b6064820152608401610b4b565b8251602084015160405163c99733a760e01b81526004810191909152670de0b6b3a7640000602482015260009182916001600160a01b039091169063c99733a790604401608060405180830381865afa158015612110573d6000803e3d6000fd5b505050506040513d601f19601f820116820180604052508101906121349190614779565b505091509150846040015182111561219e5760405162461bcd60e51b815260206004820152602760248201527f46697865645261746545786368616e67653a20546f6f206d616e79206261736560448201526620746f6b656e7360c81b6064820152608401610b4b565b6000670de0b6b3a76400008660600151836121b991906147af565b6121c39190614591565b90506121cf8184614491565b92506121e66001600160a01b0385163330866135b9565b85516121fd906001600160a01b0386169085613624565b8551602087015160405163412dae6b60e11b81526004810191909152670de0b6b3a76400006024820152604481018590526001600160a01b039091169063825b5cd690606401600060405180830381600087803b15801561225d57600080fd5b505af1158015612271573d6000803e3d6000fd5b505030600090815260208190526040902054670de0b6b3a76400009250905010156122de5760405162461bcd60e51b815260206004820152601f60248201527f556e61626c6520746f206275792044542066726f6d20466978656452617465006044820152606401610b4b565b6122f13033670de0b6b3a7640000612a11565b6123278760000151886020015189604001518a606001518b608001518c60a001518d60c001518e60e001518f61010001516124df565b8015612347576080860151612347906001600160a01b03861690836136d6565b60408051338152602081018590529081018290527fe89458a7527f4bf466ab18794ab8b1ca208b478483a1a87bcf0d976d421b4aff9060600160405180910390a150505050505050565b600681815481106123a157600080fd5b6000918252602090912001546001600160a01b0316905081565b6001600160a01b03831661241d5760405162461bcd60e51b8152602060048201526024808201527f45524332303a20617070726f76652066726f6d20746865207a65726f206164646044820152637265737360e01b6064820152608401610b4b565b6001600160a01b03821661247e5760405162461bcd60e51b815260206004820152602260248201527f45524332303a20617070726f766520746f20746865207a65726f206164647265604482015261737360f01b6064820152608401610b4b565b6001600160a01b0383811660008181526001602090815260408083209487168084529482529182902085905590518481527f8c5be1e5ebec7d5bd14f71427d1e84f3dd0314c0f7b2291e5b200ac8c7c3b925910160405180910390a3505050565b33600090815260208190526040812054670de0b6b3a764000091908211156125575760405162461bcd60e51b815260206004820152602560248201527f4e6f7420656e6f756768204461746120546f6b656e7320746f2073746172742060448201526427b93232b960d91b6064820152608401610b4b565b600d5460408051338152602081018590529081018c90524260608201524360808201526001600160a01b03918216918d16907fe1c4fa794edfa8f619b8257a077398950357b9c6398528f94480307352f9afcc9060a00160405180910390a36000600f541180156125d25750600e546001600160a01b031615155b80156125e85750600d546001600160a01b031615155b1561271357600f54600e5461260c916001600160a01b0390911690339030906135b9565b600f5461261a906064613706565b600d54600f54919250612650916001600160a01b039091169061263d9084613712565b600e546001600160a01b031691906136d6565b600e54600d54600f546001600160a01b0392831692909116907ff666b31c81334b6085802ba4149907fa724689d43bc31df6de1a51291ddc55b4906126959085613712565b60405190815260200160405180910390a3801561271357600a54600e546126c9916001600160a01b039182169116836136d6565b600e54600a546040518381526001600160a01b0392831692909116907ff666b31c81334b6085802ba4149907fa724689d43bc31df6de1a51291ddc55b49060200160405180910390a35b60006040518060400160405280601c81526020017f19457468657265756d205369676e6564204d6573736167653a0a3332000000008152509050600081858c8c8c60405160200161276794939291906147ce565b6040516020818303038152906040528051906020012060405160200161278e929190614814565b60408051601f198184030181528282528051602091820120600080855291840180845281905260ff8c1692840192909252606083018a9052608083018990529092509060019060a0016020604051602081039080840390855afa1580156127f9573d6000803e3d6000fd5b5050506020604051035190508b6001600160a01b0316816001600160a01b03161461285d5760405162461bcd60e51b8152602060048201526014602482015273496e76616c69642070726f76696465722066656560601b6044820152606401610b4b565b8a6001600160a01b03168c6001600160a01b03167f144fc6ed7d0a617ba44a01131b1f724d0370297a3640b6201f343e081ada64468c898d8d8d6040516128a8959493929190614836565b60405180910390a360008a1180156128c857506001600160a01b038b1615155b80156128dc57506001600160a01b038c1615155b156128f6576128f66001600160a01b038c16338e8d6135b9565b6128ff8561101e565b5050505050505050505050505050565b6001600160a01b0381166000908152600560205260409020805460ff16156129795760405162461bcd60e51b815260206004820152601d60248201527f4552433230526f6c65733a2020414c52454144592041204d494e5445520000006044820152606401610b4b565b8054600160ff19909116811782556006805491820181556000527ff652222313e28459528d920b65115c16c04f3efc82aaedc97be59f3f377c0d3f0180546001600160a01b0319166001600160a01b038416908117909155604080514281524360208201523392917f4f7e100eb1ee13e903798bd0d6aa854152e07eb05544f392b9409c12935c809591015b60405180910390a35050565b6001600160a01b038316612a755760405162461bcd60e51b815260206004820152602560248201527f45524332303a207472616e736665722066726f6d20746865207a65726f206164604482015264647265737360d81b6064820152608401610b4b565b6001600160a01b038216612ad75760405162461bcd60e51b815260206004820152602360248201527f45524332303a207472616e7366657220746f20746865207a65726f206164647260448201526265737360e81b6064820152608401610b4b565b6001600160a01b03831660009081526020819052604090205481811015612b4f5760405162461bcd60e51b815260206004820152602660248201527f45524332303a207472616e7366657220616d6f756e7420657863656564732062604482015265616c616e636560d01b6064820152608401610b4b565b6001600160a01b03808516600090815260208190526040808220858503905591851681529081208054849290612b86908490614491565b92505081905550826001600160a01b0316846001600160a01b03167fddf252ad1be2c89b69c2b068fc378daa952ba7f163c4a11628f55a4df523b3ef84604051612bd291815260200190565b60405180910390a35b50505050565b6001600160a01b03811660008181526005602052604090819020805461ff00191681559051909133917faee911eec8b2df8f3ae0464841541b1e5f339519bd5cf51889fe8b07fecff65890612a059042904390918252602082015260400190565b6001600160a01b03811660008181526005602052604090819020805460ff191681559051909133917fefa2735987005aaa89c050c0ff8cc9ae7d9079d19382081c429130f98c52d48090612a059042904390918252602082015260400190565b6000610dd98284614491565b6001600160a01b038216612d045760405162461bcd60e51b815260206004820152601f60248201527f45524332303a206d696e7420746f20746865207a65726f2061646472657373006044820152606401610b4b565b8060026000828254612d169190614491565b90915550506001600160a01b03821660009081526020819052604081208054839290612d43908490614491565b90915550506040518181526001600160a01b038316906000907fddf252ad1be2c89b69c2b068fc378daa952ba7f163c4a11628f55a4df523b3ef9060200160405180910390a35050565b6001600160a01b038216612ded5760405162461bcd60e51b815260206004820152602160248201527f45524332303a206275726e2066726f6d20746865207a65726f206164647265736044820152607360f81b6064820152608401610b4b565b6001600160a01b03821660009081526020819052604090205481811015612e615760405162461bcd60e51b815260206004820152602260248201527f45524332303a206275726e20616d6f756e7420657863656564732062616c616e604482015261636560f01b6064820152608401610b4b565b6001600160a01b0383166000908152602081905260408120838303905560028054849290612e9090849061486f565b90915550506040518281526000906001600160a01b038516907fddf252ad1be2c89b69c2b068fc378daa952ba7f163c4a11628f55a4df523b3ef9060200160405180910390a3505050565b60005b600654811015612f415760006005600060068481548110612f0157612f016144c6565b60009182526020808320909101546001600160a01b031683528201929092526040019020805461ffff191690555080612f39816146a1565b915050612ede565b50612f4e60066000613968565b6040805142815243602082015233917f712bc71db81927a76b8bf1ea346247bb0ad58f18e4e5c1bd4aa0ec6573e02a2b910160405180910390a2565b600c80546001600160a01b0319166001600160a01b0392909216919091179055565b6001600160a01b03811660009081526005602052604090208054610100900460ff16156130265760405162461bcd60e51b815260206004820152602260248201527f4552433230526f6c65733a2020414c5245414459204120464545204d414e414760448201526122a960f11b6064820152608401610b4b565b805461ff001916610100178155600680546001810182556000919091527ff652222313e28459528d920b65115c16c04f3efc82aaedc97be59f3f377c0d3f0180546001600160a01b0384166001600160a01b03199091168117909155604080514281524360208201523392917fb17da2e9910b4ba5754e8872385ba315a238bafb5ae221fc85093c33432c40a79101612a05565b600080846000815181106130d0576130d06144c6565b602002602001015190506000856001815181106130ef576130ef6144c6565b6020026020010151905060006001600160a01b0316826001600160a01b031614156131715760405162461bcd60e51b815260206004820152602c60248201527f455243323054656d706c6174653a20496e76616c6964206d696e7465722c202060448201526b7a65726f206164647265737360a01b6064820152608401610b4b565b6001600160a01b0381166131ed5760405162461bcd60e51b815260206004820152603c60248201527f455243323054656d706c6174653a20496e76616c696420636f6d6d756e69747960448201527f2066656520636f6c6c6563746f722c207a65726f2061646472657373000000006064820152608401610b4b565b84600081518110613200576132006144c6565b6020026020010151600014156132645760405162461bcd60e51b8152602060048201526024808201527f44617461546f6b656e54656d706c6174653a20496e76616c6964206361702076604482015263616c756560e01b6064820152608401610b4b565b84600081518110613277576132776144c6565b602002602001015160098190555087600081518110613298576132986144c6565b6020026020010151600790805190602001906132b5929190613986565b50876001815181106132c9576132c96144c6565b6020026020010151600890805190602001906132e6929190613986565b50600b80546001600160a01b0319166001600160a01b038416179055855186906002908110613317576133176144c6565b6020908102919091010151601280546001600160a01b039283166001600160a01b0319909116179055600a80546001600160a81b03191691831691909117600160a01b1790558651613381908890600090613374576133746144c6565b602002602001015161290f565b60006001600160a01b03168760018151811061339f5761339f6144c6565b60200260200101516001600160a01b031614613449576133d8876001815181106133cb576133cb6144c6565b6020026020010151612f8a565b866001815181106133eb576133eb6144c6565b60200260200101516001600160a01b0316336001600160a01b03167f4d7694d695c57cc54947177c8e8a0e61aae664e9223492a798c32fadfc6419cc4243604051613440929190918252602082015260400190565b60405180910390a35b8660028151811061345c5761345c6144c6565b6020026020010151600d60006101000a8154816001600160a01b0302191690836001600160a01b031602179055508660038151811061349d5761349d6144c6565b6020026020010151600e60006101000a8154816001600160a01b0302191690836001600160a01b03160217905550846001815181106134de576134de6144c6565b6020026020010151600f8190555060004690507f8b73c3c69bb8fe3d512ecc4cf759cc79239f7b179b0ffacaa9a75d522b39400f60076040516135219190614886565b60408051918290038220828201825260018352603160f81b6020938401528151928301939093528101919091527fc89efdaa54c0f20c7adf612882df0950f5a951637e0307cdcb4c672f298b8bc66060820152608081018290523060a082015260c00160408051808303601f1901815291905280516020909101206010555050600a54600160a01b900460ff16979650505050505050565b6040516001600160a01b0380851660248301528316604482015260648101829052612bdb9085906323b872dd60e01b906084015b60408051601f198184030181529190526020810180516001600160e01b03166001600160e01b03199093169290921790915261371e565b604051636eb1769f60e11b81523060048201526001600160a01b038381166024830152600091839186169063dd62ed3e90604401602060405180830381865afa158015613675573d6000803e3d6000fd5b505050506040513d601f19601f820116820180604052508101906136999190614542565b6136a39190614491565b6040516001600160a01b038516602482015260448101829052909150612bdb90859063095ea7b360e01b906064016135ed565b6040516001600160a01b038316602482015260448101829052610b8a90849063a9059cbb60e01b906064016135ed565b6000610dd98284614591565b6000610dd9828461486f565b6000613773826040518060400160405280602081526020017f5361666545524332303a206c6f772d6c6576656c2063616c6c206661696c6564815250856001600160a01b03166137f09092919063ffffffff16565b805190915015610b8a57808060200190518101906137919190614922565b610b8a5760405162461bcd60e51b815260206004820152602a60248201527f5361666545524332303a204552433230206f7065726174696f6e20646964206e6044820152691bdd081cdd58d8d9595960b21b6064820152608401610b4b565b60606137ff8484600085613807565b949350505050565b6060824710156138685760405162461bcd60e51b815260206004820152602660248201527f416464726573733a20696e73756666696369656e742062616c616e636520666f6044820152651c8818d85b1b60d21b6064820152608401610b4b565b843b6138b65760405162461bcd60e51b815260206004820152601d60248201527f416464726573733a2063616c6c20746f206e6f6e2d636f6e74726163740000006044820152606401610b4b565b600080866001600160a01b031685876040516138d2919061493f565b60006040518083038185875af1925050503d806000811461390f576040519150601f19603f3d011682016040523d82523d6000602084013e613914565b606091505b509150915061392482828661392f565b979650505050505050565b6060831561393e575081610dd9565b82511561394e5782518084602001fd5b8160405162461bcd60e51b8152600401610b4b9190613ab9565b5080546000825590600052602060002090810190610e779190613a0a565b82805461399290614387565b90600052602060002090601f0160209004810192826139b457600085556139fa565b82601f106139cd57805160ff19168380011785556139fa565b828001600101855582156139fa579182015b828111156139fa5782518255916020019190600101906139df565b50613a06929150613a0a565b5090565b5b80821115613a065760008155600101613a0b565b6001600160a01b0381168114610e7757600080fd5b8035613a3f81613a1f565b919050565b600060208284031215613a5657600080fd5b8135610dd981613a1f565b60005b83811015613a7c578181015183820152602001613a64565b83811115612bdb5750506000910152565b60008151808452613aa5816020860160208601613a61565b601f01601f19169290920160200192915050565b602081526000610dd96020830184613a8d565b60008060408385031215613adf57600080fd5b8235613aea81613a1f565b946020939093013593505050565b634e487b7160e01b600052604160045260246000fd5b60405161012081016001600160401b0381118282101715613b3157613b31613af8565b60405290565b60405160a081016001600160401b0381118282101715613b3157613b31613af8565b604051601f8201601f191681016001600160401b0381118282101715613b8157613b81613af8565b604052919050565b803560ff81168114613a3f57600080fd5b60006001600160401b03831115613bb357613bb3613af8565b613bc6601f8401601f1916602001613b59565b9050828152838383011115613bda57600080fd5b828260208301376000602084830101529392505050565b600082601f830112613c0257600080fd5b610dd983833560208501613b9a565b60006101208284031215613c2457600080fd5b613c2c613b0e565b9050613c3782613a34565b815260208201356020820152613c4f60408301613a34565b6040820152613c6060608301613a34565b606082015260808201356080820152613c7b60a08301613b89565b60a082015260c082013560c082015260e082013560e0820152610100808301356001600160401b03811115613caf57600080fd5b613cbb85828601613bf1565b82840152505092915050565b60008060408385031215613cda57600080fd5b82356001600160401b03811115613cf057600080fd5b613cfc85828601613c11565b9250506020830135613d0d81613a1f565b809150509250929050565b8015158114610e7757600080fd5b600080600080600060a08688031215613d3e57600080fd5b8535613d4981613a1f565b945060208601359350604086013592506060860135613d6781613d18565b91506080860135613d7781613a1f565b809150509295509295909350565b600080600060608486031215613d9a57600080fd5b8335613da581613a1f565b92506020840135613db581613a1f565b929592945050506040919091013590565b600060208284031215613dd857600080fd5b5035919050565b600081518084526020808501945080840160005b83811015613e185781516001600160a01b031687529582019590820190600101613df3565b509495945050505050565b602081526000610dd96020830184613ddf565b602080825282518282018190526000919060409081850190868401855b82811015613e8157815180516001600160a01b03168552860151868501529284019290850190600101613e53565b5091979650505050505050565b60006001600160401b03821115613ea757613ea7613af8565b5060051b60200190565b600082601f830112613ec257600080fd5b81356020613ed7613ed283613e8e565b613b59565b82815260059290921b84018101918181019086841115613ef657600080fd5b8286015b84811015613f115780358352918301918301613efa565b509695505050505050565b600080600060608486031215613f3157600080fd5b8335613f3c81613a1f565b92506020848101356001600160401b0380821115613f5957600080fd5b818701915087601f830112613f6d57600080fd5b8135613f7b613ed282613e8e565b81815260059190911b8301840190848101908a831115613f9a57600080fd5b938501935b82851015613fc1578435613fb281613a1f565b82529385019390850190613f9f565b965050506040870135925080831115613fd957600080fd5b5050613fe786828701613eb1565b9150509250925092565b60008060008060008060008060006101208a8c03121561401057600080fd5b893561401b81613a1f565b985060208a0135975060408a013561403281613a1f565b965060608a013561404281613a1f565b955060808a0135945061405760a08b01613b89565b935060c08a0135925060e08a013591506101008a01356001600160401b0381111561408157600080fd5b61408d8c828d01613bf1565b9150509295985092959850929598565b600080602083850312156140b057600080fd5b82356001600160401b03808211156140c757600080fd5b818501915085601f8301126140db57600080fd5b8135818111156140ea57600080fd5b8660208285010111156140fc57600080fd5b60209290920196919550909350505050565b60008083601f84011261412057600080fd5b5081356001600160401b0381111561413757600080fd5b6020830191508360208260051b850101111561415257600080fd5b9250929050565b60008060008060008060008060008060a08b8d03121561417857600080fd5b8a356001600160401b038082111561418f57600080fd5b61419b8e838f0161410e565b909c509a5060208d01359150808211156141b457600080fd5b6141c08e838f0161410e565b909a50985060408d01359150808211156141d957600080fd5b6141e58e838f0161410e565b909850965060608d01359150808211156141fe57600080fd5b61420a8e838f0161410e565b909650945060808d013591508082111561422357600080fd5b506142308d828e0161410e565b915080935050809150509295989b9194979a5092959850565b600080600080600080600060e0888a03121561426457600080fd5b873561426f81613a1f565b9650602088013561427f81613a1f565b9550604088013594506060880135935061429b60808901613b89565b925060a0880135915060c0880135905092959891949750929550565b600080604083850312156142ca57600080fd5b82356142d581613a1f565b91506020830135613d0d81613a1f565b60008082840360c08112156142f957600080fd5b83356001600160401b0381111561430f57600080fd5b61431b86828701613c11565b93505060a0601f198201121561433057600080fd5b50614339613b37565b602084013561434781613a1f565b8082525060408401356020820152606084013560408201526080840135606082015260a084013561437781613a1f565b6080820152919491935090915050565b600181811c9082168061439b57607f821691505b602082108114156143bc57634e487b7160e01b600052602260045260246000fd5b50919050565b6000608082840312156143d457600080fd5b604051608081018181106001600160401b03821117156143f6576143f6613af8565b604052825161440481613d18565b8152602083015161441481613d18565b6020820152604083015161442781613d18565b6040820152606083015161443a81613d18565b60608201529392505050565b6020808252818101527f455243323054656d706c6174653a204e4f54204445504c4f59455220524f4c45604082015260600190565b634e487b7160e01b600052601160045260246000fd5b600082198211156144a4576144a461447b565b500190565b6000602082840312156144bb57600080fd5b8151610dd981613a1f565b634e487b7160e01b600052603260045260246000fd5b6001600160a01b03841681526060602080830182905260009161450190840186613ddf565b838103604085015284518082528286019183019060005b8181101561453457835183529284019291840191600101614518565b509098975050505050505050565b60006020828403121561455457600080fd5b5051919050565b83815260406020820152816040820152818360608301376000818301606090810191909152601f909201601f1916010192915050565b6000826145ae57634e487b7160e01b600052601260045260246000fd5b500490565b60006145c1613ed284613e8e565b80848252602080830192508560051b8501368111156145df57600080fd5b855b8181101561462e5780356001600160401b038111156146005760008081fd5b870136601f8201126146125760008081fd5b614620368235868401613b9a565b8652509382019382016145e1565b50919695505050505050565b6000614648613ed284613e8e565b80848252602080830192508560051b85013681111561466657600080fd5b855b8181101561462e5780356001600160401b038111156146875760008081fd5b61469336828a01613bf1565b865250938201938201614668565b60006000198214156146b5576146b561447b565b5060010190565b6000806000806000806000806000806000806101808d8f0312156146df57600080fd5b8c516146ea81613a1f565b60208e0151909c506146fb81613a1f565b60408e015160608f0151919c509a5061471381613a1f565b8099505060808d0151975060a08d0151965060c08d015161473381613d18565b8096505060e08d015194506101008d015193506101208d015192506101408d015191506101608d015161476581613d18565b809150509295989b509295989b509295989b565b6000806000806080858703121561478f57600080fd5b505082516020840151604085015160609095015191969095509092509050565b60008160001904831182151516156147c9576147c961447b565b500290565b600085516147e0818460208a01613a61565b6bffffffffffffffffffffffff19606096871b8116919093019081529390941b166014830152602882015260480192915050565b60008351614826818460208801613a61565b9190910191825250602001919050565b85815260a06020820152600061484f60a0830187613a8d565b60ff95909516604083015250606081019290925260809091015292915050565b6000828210156148815761488161447b565b500390565b600080835481600182811c9150808316806148a257607f831692505b60208084108214156148c257634e487b7160e01b86526022600452602486fd5b8180156148d657600181146148e757614914565b60ff19861689528489019650614914565b60008a81526020902060005b8681101561490c5781548b8201529085019083016148f3565b505084890196505b509498975050505050505050565b60006020828403121561493457600080fd5b8151610dd981613d18565b60008251614951818460208701613a61565b919091019291505056fea26469706673582212209d550f82bd8422284ffae0c5e88fb0f3607a97fcfd89a0a1103436d1e5ae421864736f6c634300080a0033",
  "linkReferences": {},
  "deployedLinkReferences": {}
}