{
  "_format": "hh-sol-artifact-1",
  "contractName": "ERC20TemplateEnterprise",
  "sourceName": "contracts/templates/ERC20TemplateEnterprise.sol",
  "abi": [
    {
      "anonymous": false,
      "inputs": [
        {
          "indexed": true,
          "internalType": "address",
          "name": "user",
          "type": "address"
        },
        {
          "indexed": true,
          "internalType": "address",
          "name": "signer",
          "type": "address"
        },
        {
          "indexed": false,
          "internalType": "uint256",
          "name": "timestamp",
          "type": "uint256"
        },
        {
          "indexed": false,
          "internalType": "uint256",
          "name": "blockNumber",
          "type": "uint256"
        }
      ],
      "name": "AddedMinter",
      "type": "event"
    },
    {
      "anonymous": false,
      "inputs": [
        {
          "indexed": true,
          "internalType": "address",
          "name": "user",
          "type": "address"
        },
        {
          "indexed": true,
          "internalType": "address",
          "name": "signer",
          "type": "address"
        },
        {
          "indexed": false,
          "internalType": "uint256",
          "name": "timestamp",
          "type": "uint256"
        },
        {
          "indexed": false,
          "internalType": "uint256",
          "name": "blockNumber",
          "type": "uint256"
        }
      ],
      "name": "AddedPaymentManager",
      "type": "event"
    },
    {
      "anonymous": false,
      "inputs": [
        {
          "indexed": true,
          "internalType": "address",
          "name": "owner",
          "type": "address"
        },
        {
          "indexed": true,
          "internalType": "address",
          "name": "spender",
          "type": "address"
        },
        {
          "indexed": false,
          "internalType": "uint256",
          "name": "value",
          "type": "uint256"
        }
      ],
      "name": "Approval",
      "type": "event"
    },
    {
      "anonymous": false,
      "inputs": [
        {
          "indexed": true,
          "internalType": "address",
          "name": "signer",
          "type": "address"
        },
        {
          "indexed": false,
          "internalType": "uint256",
          "name": "timestamp",
          "type": "uint256"
        },
        {
          "indexed": false,
          "internalType": "uint256",
          "name": "blockNumber",
          "type": "uint256"
        }
      ],
      "name": "CleanedPermissions",
      "type": "event"
    },
    {
      "anonymous": false,
      "inputs": [
        {
          "indexed": true,
          "internalType": "address",
          "name": "consumeFeeAddress",
          "type": "address"
        },
        {
          "indexed": true,
          "internalType": "address",
          "name": "consumeFeeToken",
          "type": "address"
        },
        {
          "indexed": false,
          "internalType": "uint256",
          "name": "consumeFeeAmount",
          "type": "uint256"
        }
      ],
      "name": "ConsumeMarketFees",
      "type": "event"
    },
    {
      "anonymous": false,
      "inputs": [
        {
          "indexed": false,
          "internalType": "address",
          "name": "currentMinter",
          "type": "address"
        },
        {
          "indexed": false,
          "internalType": "address",
          "name": "newMinter",
          "type": "address"
        }
      ],
      "name": "MinterApproved",
      "type": "event"
    },
    {
      "anonymous": false,
      "inputs": [
        {
          "indexed": false,
          "internalType": "address",
          "name": "currentMinter",
          "type": "address"
        },
        {
          "indexed": false,
          "internalType": "address",
          "name": "newMinter",
          "type": "address"
        }
      ],
      "name": "MinterProposed",
      "type": "event"
    },
    {
      "anonymous": false,
      "inputs": [
        {
          "indexed": false,
          "internalType": "bytes32",
          "name": "exchangeId",
          "type": "bytes32"
        },
        {
          "indexed": false,
          "internalType": "address",
          "name": "owner",
          "type": "address"
        }
      ],
      "name": "NewFixedRate",
      "type": "event"
    },
    {
      "anonymous": false,
      "inputs": [
        {
          "indexed": true,
          "internalType": "address",
          "name": "caller",
          "type": "address"
        },
        {
          "indexed": true,
          "internalType": "address",
          "name": "_newPaymentCollector",
          "type": "address"
        },
        {
          "indexed": false,
          "internalType": "uint256",
          "name": "timestamp",
          "type": "uint256"
        },
        {
          "indexed": false,
          "internalType": "uint256",
          "name": "blockNumber",
          "type": "uint256"
        }
      ],
      "name": "NewPaymentCollector",
      "type": "event"
    },
    {
      "anonymous": false,
      "inputs": [
        {
          "indexed": false,
          "internalType": "address",
          "name": "poolAddress",
          "type": "address"
        },
        {
          "indexed": false,
          "internalType": "address",
          "name": "ssContract",
          "type": "address"
        },
        {
          "indexed": false,
          "internalType": "address",
          "name": "basetokenAddress",
          "type": "address"
        }
      ],
      "name": "NewPool",
      "type": "event"
    },
    {
      "anonymous": false,
      "inputs": [
        {
          "indexed": true,
          "internalType": "address",
          "name": "consumer",
          "type": "address"
        },
        {
          "indexed": false,
          "internalType": "address",
          "name": "payer",
          "type": "address"
        },
        {
          "indexed": false,
          "internalType": "uint256",
          "name": "amount",
          "type": "uint256"
        },
        {
          "indexed": false,
          "internalType": "uint256",
          "name": "serviceIndex",
          "type": "uint256"
        },
        {
          "indexed": false,
          "internalType": "uint256",
          "name": "timestamp",
          "type": "uint256"
        },
        {
          "indexed": true,
          "internalType": "address",
          "name": "publishMarketAddress",
          "type": "address"
        },
        {
          "indexed": true,
          "internalType": "address",
          "name": "consumeFeeMarketAddress",
          "type": "address"
        },
        {
          "indexed": false,
          "internalType": "uint256",
          "name": "blockNumber",
          "type": "uint256"
        }
      ],
      "name": "OrderStarted",
      "type": "event"
    },
    {
      "anonymous": false,
      "inputs": [
        {
          "indexed": true,
          "internalType": "address",
          "name": "PublishMarketFeeAddress",
          "type": "address"
        },
        {
          "indexed": true,
          "internalType": "address",
          "name": "PublishMarketFeeToken",
          "type": "address"
        },
        {
          "indexed": false,
          "internalType": "uint256",
          "name": "PublishMarketFeeAmount",
          "type": "uint256"
        }
      ],
      "name": "PublishMarketFees",
      "type": "event"
    },
    {
      "anonymous": false,
      "inputs": [
        {
          "indexed": false,
          "internalType": "address",
          "name": "caller",
          "type": "address"
        },
        {
          "indexed": false,
          "internalType": "address",
          "name": "PublishMarketFeeAddress",
          "type": "address"
        },
        {
          "indexed": false,
          "internalType": "address",
          "name": "PublishMarketFeeToken",
          "type": "address"
        },
        {
          "indexed": false,
          "internalType": "uint256",
          "name": "PublishMarketFeeAmount",
          "type": "uint256"
        }
      ],
      "name": "PublishMarketFeesChanged",
      "type": "event"
    },
    {
      "anonymous": false,
      "inputs": [
        {
          "indexed": true,
          "internalType": "address",
          "name": "user",
          "type": "address"
        },
        {
          "indexed": true,
          "internalType": "address",
          "name": "signer",
          "type": "address"
        },
        {
          "indexed": false,
          "internalType": "uint256",
          "name": "timestamp",
          "type": "uint256"
        },
        {
          "indexed": false,
          "internalType": "uint256",
          "name": "blockNumber",
          "type": "uint256"
        }
      ],
      "name": "RemovedMinter",
      "type": "event"
    },
    {
      "anonymous": false,
      "inputs": [
        {
          "indexed": true,
          "internalType": "address",
          "name": "user",
          "type": "address"
        },
        {
          "indexed": true,
          "internalType": "address",
          "name": "signer",
          "type": "address"
        },
        {
          "indexed": false,
          "internalType": "uint256",
          "name": "timestamp",
          "type": "uint256"
        },
        {
          "indexed": false,
          "internalType": "uint256",
          "name": "blockNumber",
          "type": "uint256"
        }
      ],
      "name": "RemovedPaymentManager",
      "type": "event"
    },
    {
      "anonymous": false,
      "inputs": [
        {
          "indexed": true,
          "internalType": "address",
          "name": "from",
          "type": "address"
        },
        {
          "indexed": true,
          "internalType": "address",
          "name": "to",
          "type": "address"
        },
        {
          "indexed": false,
          "internalType": "uint256",
          "name": "value",
          "type": "uint256"
        }
      ],
      "name": "Transfer",
      "type": "event"
    },
    {
      "stateMutability": "payable",
      "type": "fallback"
    },
    {
      "inputs": [],
      "name": "BASE",
      "outputs": [
        {
          "internalType": "uint256",
          "name": "",
          "type": "uint256"
        }
      ],
      "stateMutability": "view",
      "type": "function"
    },
    {
      "inputs": [],
      "name": "BASE_COMMUNITY_FEE_PERCENTAGE",
      "outputs": [
        {
          "internalType": "uint256",
          "name": "",
          "type": "uint256"
        }
      ],
      "stateMutability": "view",
      "type": "function"
    },
    {
      "inputs": [],
      "name": "DOMAIN_SEPARATOR",
      "outputs": [
        {
          "internalType": "bytes32",
          "name": "",
          "type": "bytes32"
        }
      ],
      "stateMutability": "view",
      "type": "function"
    },
    {
      "inputs": [],
      "name": "PERMIT_TYPEHASH",
      "outputs": [
        {
          "internalType": "bytes32",
          "name": "",
          "type": "bytes32"
        }
      ],
      "stateMutability": "view",
      "type": "function"
    },
    {
      "inputs": [
        {
          "internalType": "address",
          "name": "_minter",
          "type": "address"
        }
      ],
      "name": "addMinter",
      "outputs": [],
      "stateMutability": "nonpayable",
      "type": "function"
    },
    {
      "inputs": [
        {
          "internalType": "address",
          "name": "_paymentManager",
          "type": "address"
        }
      ],
      "name": "addPaymentManager",
      "outputs": [],
      "stateMutability": "nonpayable",
      "type": "function"
    },
    {
      "inputs": [
        {
          "internalType": "address",
          "name": "owner",
          "type": "address"
        },
        {
          "internalType": "address",
          "name": "spender",
          "type": "address"
        }
      ],
      "name": "allowance",
      "outputs": [
        {
          "internalType": "uint256",
          "name": "",
          "type": "uint256"
        }
      ],
      "stateMutability": "view",
      "type": "function"
    },
    {
      "inputs": [
        {
          "internalType": "address",
          "name": "spender",
          "type": "address"
        },
        {
          "internalType": "uint256",
          "name": "amount",
          "type": "uint256"
        }
      ],
      "name": "approve",
      "outputs": [
        {
          "internalType": "bool",
          "name": "",
          "type": "bool"
        }
      ],
      "stateMutability": "nonpayable",
      "type": "function"
    },
    {
      "inputs": [
        {
          "internalType": "uint256",
          "name": "",
          "type": "uint256"
        }
      ],
      "name": "authERC20",
      "outputs": [
        {
          "internalType": "address",
          "name": "",
          "type": "address"
        }
      ],
      "stateMutability": "view",
      "type": "function"
    },
    {
      "inputs": [
        {
          "internalType": "address",
          "name": "account",
          "type": "address"
        }
      ],
      "name": "balanceOf",
      "outputs": [
        {
          "internalType": "uint256",
          "name": "",
          "type": "uint256"
        }
      ],
      "stateMutability": "view",
      "type": "function"
    },
    {
      "inputs": [
        {
          "internalType": "uint256",
          "name": "amount",
          "type": "uint256"
        }
      ],
      "name": "burn",
      "outputs": [],
      "stateMutability": "nonpayable",
      "type": "function"
    },
    {
      "inputs": [
        {
          "internalType": "address",
          "name": "account",
          "type": "address"
        },
        {
          "internalType": "uint256",
          "name": "amount",
          "type": "uint256"
        }
      ],
      "name": "burnFrom",
      "outputs": [],
      "stateMutability": "nonpayable",
      "type": "function"
    },
    {
      "inputs": [
        {
          "components": [
            {
              "internalType": "address",
              "name": "consumer",
              "type": "address"
            },
            {
              "internalType": "uint256",
              "name": "amount",
              "type": "uint256"
            },
            {
              "internalType": "uint256",
              "name": "serviceIndex",
              "type": "uint256"
            },
            {
              "internalType": "address",
              "name": "consumeFeeAddress",
              "type": "address"
            },
            {
              "internalType": "address",
              "name": "consumeFeeToken",
              "type": "address"
            },
            {
              "internalType": "uint256",
              "name": "consumeFeeAmount",
              "type": "uint256"
            }
          ],
          "internalType": "struct ERC20TemplateEnterprise.OrderParams",
          "name": "_orderParams",
          "type": "tuple"
        },
        {
          "internalType": "address",
          "name": "dispenserContract",
          "type": "address"
        }
      ],
      "name": "buyFromDispenserAndOrder",
      "outputs": [],
      "stateMutability": "nonpayable",
      "type": "function"
    },
    {
      "inputs": [
        {
          "components": [
            {
              "internalType": "address",
              "name": "consumer",
              "type": "address"
            },
            {
              "internalType": "uint256",
              "name": "amount",
              "type": "uint256"
            },
            {
              "internalType": "uint256",
              "name": "serviceIndex",
              "type": "uint256"
            },
            {
              "internalType": "address",
              "name": "consumeFeeAddress",
              "type": "address"
            },
            {
              "internalType": "address",
              "name": "consumeFeeToken",
              "type": "address"
            },
            {
              "internalType": "uint256",
              "name": "consumeFeeAmount",
              "type": "uint256"
            }
          ],
          "internalType": "struct ERC20TemplateEnterprise.OrderParams",
          "name": "_orderParams",
          "type": "tuple"
        },
        {
          "components": [
            {
              "internalType": "address",
              "name": "exchangeContract",
              "type": "address"
            },
            {
              "internalType": "bytes32",
              "name": "exchangeId",
              "type": "bytes32"
            },
            {
              "internalType": "uint256",
              "name": "maxBaseTokenAmount",
              "type": "uint256"
            }
          ],
          "internalType": "struct ERC20TemplateEnterprise.FreParams",
          "name": "_freParams",
          "type": "tuple"
        }
      ],
      "name": "buyFromFreAndOrder",
      "outputs": [],
      "stateMutability": "nonpayable",
      "type": "function"
    },
    {
      "inputs": [],
      "name": "cap",
      "outputs": [
        {
          "internalType": "uint256",
          "name": "",
          "type": "uint256"
        }
      ],
      "stateMutability": "view",
      "type": "function"
    },
    {
      "inputs": [],
      "name": "cleanFrom721",
      "outputs": [],
      "stateMutability": "nonpayable",
      "type": "function"
    },
    {
      "inputs": [],
      "name": "cleanPermissions",
      "outputs": [],
      "stateMutability": "nonpayable",
      "type": "function"
    },
    {
      "inputs": [
        {
          "internalType": "address",
          "name": "_dispenser",
          "type": "address"
        },
        {
          "internalType": "uint256",
          "name": "maxTokens",
          "type": "uint256"
        },
        {
          "internalType": "uint256",
          "name": "maxBalance",
          "type": "uint256"
        },
        {
          "internalType": "bool",
          "name": "withMint",
          "type": "bool"
        }
      ],
      "name": "createDispenser",
      "outputs": [],
      "stateMutability": "nonpayable",
      "type": "function"
    },
    {
      "inputs": [
        {
          "internalType": "address",
          "name": "fixedPriceAddress",
          "type": "address"
        },
        {
          "internalType": "address[]",
          "name": "addresses",
          "type": "address[]"
        },
        {
          "internalType": "uint256[]",
          "name": "uints",
          "type": "uint256[]"
        }
      ],
      "name": "createFixedRate",
      "outputs": [
        {
          "internalType": "bytes32",
          "name": "exchangeId",
          "type": "bytes32"
        }
      ],
      "stateMutability": "nonpayable",
      "type": "function"
    },
    {
      "inputs": [],
      "name": "decimals",
      "outputs": [
        {
          "internalType": "uint8",
          "name": "",
          "type": "uint8"
        }
      ],
      "stateMutability": "pure",
      "type": "function"
    },
    {
      "inputs": [
        {
          "internalType": "address",
          "name": "spender",
          "type": "address"
        },
        {
          "internalType": "uint256",
          "name": "subtractedValue",
          "type": "uint256"
        }
      ],
      "name": "decreaseAllowance",
      "outputs": [
        {
          "internalType": "bool",
          "name": "",
          "type": "bool"
        }
      ],
      "stateMutability": "nonpayable",
      "type": "function"
    },
    {
      "inputs": [],
      "name": "getERC721Address",
      "outputs": [
        {
          "internalType": "address",
          "name": "",
          "type": "address"
        }
      ],
      "stateMutability": "view",
      "type": "function"
    },
    {
      "inputs": [],
      "name": "getId",
      "outputs": [
        {
          "internalType": "uint8",
          "name": "",
          "type": "uint8"
        }
      ],
      "stateMutability": "pure",
      "type": "function"
    },
    {
      "inputs": [],
      "name": "getPaymentCollector",
      "outputs": [
        {
          "internalType": "address",
          "name": "",
          "type": "address"
        }
      ],
      "stateMutability": "view",
      "type": "function"
    },
    {
      "inputs": [],
      "name": "getPublishingMarketFee",
      "outputs": [
        {
          "internalType": "address",
          "name": "",
          "type": "address"
        },
        {
          "internalType": "address",
          "name": "",
          "type": "address"
        },
        {
          "internalType": "uint256",
          "name": "",
          "type": "uint256"
        }
      ],
      "stateMutability": "view",
      "type": "function"
    },
    {
      "inputs": [
        {
          "internalType": "address",
          "name": "spender",
          "type": "address"
        },
        {
          "internalType": "uint256",
          "name": "addedValue",
          "type": "uint256"
        }
      ],
      "name": "increaseAllowance",
      "outputs": [
        {
          "internalType": "bool",
          "name": "",
          "type": "bool"
        }
      ],
      "stateMutability": "nonpayable",
      "type": "function"
    },
    {
      "inputs": [
        {
          "internalType": "string[]",
          "name": "strings_",
          "type": "string[]"
        },
        {
          "internalType": "address[]",
          "name": "addresses_",
          "type": "address[]"
        },
        {
          "internalType": "address[]",
          "name": "factoryAddresses_",
          "type": "address[]"
        },
        {
          "internalType": "uint256[]",
          "name": "uints_",
          "type": "uint256[]"
        },
        {
          "internalType": "bytes[]",
          "name": "bytes_",
          "type": "bytes[]"
        }
      ],
      "name": "initialize",
      "outputs": [
        {
          "internalType": "bool",
          "name": "",
          "type": "bool"
        }
      ],
      "stateMutability": "nonpayable",
      "type": "function"
    },
    {
      "inputs": [],
      "name": "isInitialized",
      "outputs": [
        {
          "internalType": "bool",
          "name": "",
          "type": "bool"
        }
      ],
      "stateMutability": "view",
      "type": "function"
    },
    {
      "inputs": [
        {
          "internalType": "address",
          "name": "account",
          "type": "address"
        }
      ],
      "name": "isMinter",
      "outputs": [
        {
          "internalType": "bool",
          "name": "",
          "type": "bool"
        }
      ],
      "stateMutability": "view",
      "type": "function"
    },
    {
      "inputs": [
        {
          "internalType": "address",
          "name": "account",
          "type": "address"
        },
        {
          "internalType": "uint256",
          "name": "value",
          "type": "uint256"
        }
      ],
      "name": "mint",
      "outputs": [],
      "stateMutability": "nonpayable",
      "type": "function"
    },
    {
      "inputs": [],
      "name": "name",
      "outputs": [
        {
          "internalType": "string",
          "name": "",
          "type": "string"
        }
      ],
      "stateMutability": "view",
      "type": "function"
    },
    {
      "inputs": [
        {
          "internalType": "address",
          "name": "",
          "type": "address"
        }
      ],
      "name": "nonces",
      "outputs": [
        {
          "internalType": "uint256",
          "name": "",
          "type": "uint256"
        }
      ],
      "stateMutability": "view",
      "type": "function"
    },
    {
      "inputs": [
        {
          "internalType": "address",
          "name": "",
          "type": "address"
        }
      ],
      "name": "permissions",
      "outputs": [
        {
          "internalType": "bool",
          "name": "minter",
          "type": "bool"
        },
        {
          "internalType": "bool",
          "name": "paymentManager",
          "type": "bool"
        }
      ],
      "stateMutability": "view",
      "type": "function"
    },
    {
      "inputs": [
        {
          "internalType": "address",
          "name": "owner",
          "type": "address"
        },
        {
          "internalType": "address",
          "name": "spender",
          "type": "address"
        },
        {
          "internalType": "uint256",
          "name": "value",
          "type": "uint256"
        },
        {
          "internalType": "uint256",
          "name": "deadline",
          "type": "uint256"
        },
        {
          "internalType": "uint8",
          "name": "v",
          "type": "uint8"
        },
        {
          "internalType": "bytes32",
          "name": "r",
          "type": "bytes32"
        },
        {
          "internalType": "bytes32",
          "name": "s",
          "type": "bytes32"
        }
      ],
      "name": "permit",
      "outputs": [],
      "stateMutability": "nonpayable",
      "type": "function"
    },
    {
      "inputs": [
        {
          "internalType": "address",
          "name": "_minter",
          "type": "address"
        }
      ],
      "name": "removeMinter",
      "outputs": [],
      "stateMutability": "nonpayable",
      "type": "function"
    },
    {
      "inputs": [
        {
          "internalType": "address",
          "name": "_paymentManager",
          "type": "address"
        }
      ],
      "name": "removePaymentManager",
      "outputs": [],
      "stateMutability": "nonpayable",
      "type": "function"
    },
    {
      "inputs": [],
      "name": "router",
      "outputs": [
        {
          "internalType": "address",
          "name": "",
          "type": "address"
        }
      ],
      "stateMutability": "view",
      "type": "function"
    },
    {
      "inputs": [
        {
          "internalType": "bytes",
          "name": "_value",
          "type": "bytes"
        }
      ],
      "name": "setData",
      "outputs": [],
      "stateMutability": "nonpayable",
      "type": "function"
    },
    {
      "inputs": [
        {
          "internalType": "address",
          "name": "_newPaymentCollector",
          "type": "address"
        }
      ],
      "name": "setPaymentCollector",
      "outputs": [],
      "stateMutability": "nonpayable",
      "type": "function"
    },
    {
      "inputs": [
        {
          "internalType": "address",
          "name": "_publishMarketFeeAddress",
          "type": "address"
        },
        {
          "internalType": "address",
          "name": "_publishMarketFeeToken",
          "type": "address"
        },
        {
          "internalType": "uint256",
          "name": "_publishMarketFeeAmount",
          "type": "uint256"
        }
      ],
      "name": "setPublishingMarketFee",
      "outputs": [],
      "stateMutability": "nonpayable",
      "type": "function"
    },
    {
      "inputs": [
        {
          "internalType": "address",
          "name": "consumer",
          "type": "address"
        },
        {
          "internalType": "uint256",
          "name": "amount",
          "type": "uint256"
        },
        {
          "internalType": "uint256",
          "name": "serviceIndex",
          "type": "uint256"
        },
        {
          "internalType": "address",
          "name": "consumeFeeAddress",
          "type": "address"
        },
        {
          "internalType": "address",
          "name": "consumeFeeToken",
          "type": "address"
        },
        {
          "internalType": "uint256",
          "name": "consumeFeeAmount",
          "type": "uint256"
        }
      ],
      "name": "startOrder",
      "outputs": [],
      "stateMutability": "nonpayable",
      "type": "function"
    },
    {
      "inputs": [],
      "name": "symbol",
      "outputs": [
        {
          "internalType": "string",
          "name": "",
          "type": "string"
        }
      ],
      "stateMutability": "view",
      "type": "function"
    },
    {
      "inputs": [],
      "name": "totalSupply",
      "outputs": [
        {
          "internalType": "uint256",
          "name": "",
          "type": "uint256"
        }
      ],
      "stateMutability": "view",
      "type": "function"
    },
    {
      "inputs": [
        {
          "internalType": "address",
          "name": "recipient",
          "type": "address"
        },
        {
          "internalType": "uint256",
          "name": "amount",
          "type": "uint256"
        }
      ],
      "name": "transfer",
      "outputs": [
        {
          "internalType": "bool",
          "name": "",
          "type": "bool"
        }
      ],
      "stateMutability": "nonpayable",
      "type": "function"
    },
    {
      "inputs": [
        {
          "internalType": "address",
          "name": "sender",
          "type": "address"
        },
        {
          "internalType": "address",
          "name": "recipient",
          "type": "address"
        },
        {
          "internalType": "uint256",
          "name": "amount",
          "type": "uint256"
        }
      ],
      "name": "transferFrom",
      "outputs": [
        {
          "internalType": "bool",
          "name": "",
          "type": "bool"
        }
      ],
      "stateMutability": "nonpayable",
      "type": "function"
    },
    {
      "inputs": [],
      "name": "withdrawETH",
      "outputs": [],
      "stateMutability": "payable",
      "type": "function"
    }
  ],
  "bytecode": "0x6080604052600a805460ff60a01b191690553480156200001e57600080fd5b5060408051808201825260048152631d195cdd60e21b60208083019182528351808501909452600a8452691d195cdd14de5b589bdb60b21b9084015281519192916200006d916003916200008c565b508051620000839060049060208401906200008c565b5050506200016f565b8280546200009a9062000132565b90600052602060002090601f016020900481019282620000be576000855562000109565b82601f10620000d957805160ff191683800117855562000109565b8280016001018555821562000109579182015b8281111562000109578251825591602001919060010190620000ec565b50620001179291506200011b565b5090565b5b808211156200011757600081556001016200011c565b600181811c908216806200014757607f821691505b602082108114156200016957634e487b7160e01b600052602260045260246000fd5b50919050565b61430b806200017f6000396000f3fe6080604052600436106102675760003560e01c806379cc679011610143578063b2263a5d116100bb578063e487c2e811610077578063e487c2e8146107ef578063ec342ad014610804578063ef867ff414610820578063f887ea4014610840578063f94bb42114610860578063fda9dae71461088057005b8063b2263a5d1461072c578063b3998be014610741578063c3d3cf4d14610761578063d505accf14610781578063dd62ed3e146107a1578063e086e5ec146107e757005b8063983b2d561161010a578063983b2d5614610653578063a457c2d714610673578063a9059cbb14610693578063aa271e1a146106b3578063aa492ef9146106ec578063ab62f0e11461070c57005b806379cc6790146105bc5780637ecebe00146105dc57806382c03da5146106095780638b96412b1461061e57806395d89b411461063e57005b80633644e515116101e157806342966c681161019d57806342966c68146104fd5780634f189cb21461051d57806357a3a31b1461053257806357ad5ff6146105525780635d1ca6311461057257806370a082311461058657005b80633644e5151461042c5780633830285014610442578063392e53cd146104625780633950935114610481578063397b3743146104a157806340c10f19146104dd57005b806323b872dd1161023057806323b872dd1461036157806325b00243146103815780633092afd5146103a157806330adf81f146103c1578063313ce567146103f5578063355274ea1461041757005b80627ffb781461026957806301e88208146102a057806306fdde03146102f0578063095ea7b31461031257806318160ddd14610342575b005b34801561027557600080fd5b50600b546001600160a01b03165b6040516001600160a01b0390911681526020015b60405180910390f35b3480156102ac57600080fd5b506102d96102bb36600461360f565b60056020526000908152604090205460ff8082169161010090041682565b604080519215158352901515602083015201610297565b3480156102fc57600080fd5b506103056108a0565b6040516102979190613658565b34801561031e57600080fd5b5061033261032d36600461368b565b610932565b6040519015158152602001610297565b34801561034e57600080fd5b506002545b604051908152602001610297565b34801561036d57600080fd5b5061033261037c3660046136b7565b610948565b34801561038d57600080fd5b5061026761039c36600461360f565b6109f9565b3480156103ad57600080fd5b506102676103bc36600461360f565b610a93565b3480156103cd57600080fd5b506103537f6e71edae12b1b97f4d1f60370fef10105fa2faae0126114a169c64845d6126c981565b34801561040157600080fd5b5060125b60405160ff9091168152602001610297565b34801561042357600080fd5b50600954610353565b34801561043857600080fd5b5061035360105481565b34801561044e57600080fd5b5061026761045d3660046137d4565b610b2a565b34801561046e57600080fd5b50600a54600160a01b900460ff16610332565b34801561048d57600080fd5b5061033261049c36600461368b565b610c32565b3480156104ad57600080fd5b50600d54600e54600f54604080516001600160a01b03948516815293909216602084015290820152606001610297565b3480156104e957600080fd5b506102676104f836600461368b565b610c6e565b34801561050957600080fd5b5061026761051836600461380c565b610d3b565b34801561052957600080fd5b50610267610d45565b34801561053e57600080fd5b5061026761054d36600461360f565b610e2c565b34801561055e57600080fd5b5061026761056d3660046136b7565b610f6e565b34801561057e57600080fd5b506002610405565b34801561059257600080fd5b506103536105a136600461360f565b6001600160a01b031660009081526020819052604090205490565b3480156105c857600080fd5b506102676105d736600461368b565b6110c2565b3480156105e857600080fd5b506103536105f736600461360f565b60116020526000908152604090205481565b34801561061557600080fd5b50610267611148565b34801561062a57600080fd5b506103536106393660046138b4565b6111a2565b34801561064a57600080fd5b50610305611363565b34801561065f57600080fd5b5061026761066e36600461360f565b611372565b34801561067f57600080fd5b5061033261068e36600461368b565b611409565b34801561069f57600080fd5b506103326106ae36600461368b565b6114a2565b3480156106bf57600080fd5b506103326106ce36600461360f565b6001600160a01b031660009081526005602052604090205460ff1690565b3480156106f857600080fd5b5061026761070736600461360f565b6114af565b34801561071857600080fd5b5061026761072736600461398a565b611546565b34801561073857600080fd5b50610353611677565b34801561074d57600080fd5b5061033261075c366004613a48565b61168d565b34801561076d57600080fd5b5061026761077c366004613b39565b6117c7565b34801561078d57600080fd5b5061026761079c366004613bc0565b611afc565b3480156107ad57600080fd5b506103536107bc366004613c37565b6001600160a01b03918216600090815260016020908152604080832093909416825291909152205490565b610267611d0e565b3480156107fb57600080fd5b50610283611d4e565b34801561081057600080fd5b50610353670de0b6b3a764000081565b34801561082c57600080fd5b5061028361083b36600461380c565b611de3565b34801561084c57600080fd5b50601254610283906001600160a01b031681565b34801561086c57600080fd5b5061026761087b366004613c73565b611e0d565b34801561088c57600080fd5b5061026761089b366004613cbd565b611f30565b6060600780546108af90613d24565b80601f01602080910402602001604051908101604052809291908181526020018280546108db90613d24565b80156109285780601f106108fd57610100808354040283529160200191610928565b820191906000526020600020905b81548152906001019060200180831161090b57829003601f168201915b5050505050905090565b600061093f338484611f46565b50600192915050565b600061095584848461206a565b6001600160a01b0384166000908152600160209081526040808320338452909152902054828110156109df5760405162461bcd60e51b815260206004820152602860248201527f45524332303a207472616e7366657220616d6f756e74206578636565647320616044820152676c6c6f77616e636560c01b60648201526084015b60405180910390fd5b6109ec8533858403611f46565b60019150505b9392505050565b600b5460405163160a792560e01b81523360048201526001600160a01b039091169063160a7925906024016080604051808303816000875af1158015610a43573d6000803e3d6000fd5b505050506040513d601f19601f82011682018060405250810190610a679190613d5f565b60200151610a875760405162461bcd60e51b81526004016109d690613de4565b610a9081612238565b50565b600b5460405163160a792560e01b81523360048201526001600160a01b039091169063160a7925906024016080604051808303816000875af1158015610add573d6000803e3d6000fd5b505050506040513d601f19601f82011682018060405250810190610b019190613d5f565b60200151610b215760405162461bcd60e51b81526004016109d690613de4565b610a90816122a5565b6020820151604051631d746d8360e01b815230600482015260248101919091523360448201526001600160a01b03821690631d746d8390606401600060405180830381600087803b158015610b7e57600080fd5b505af1158015610b92573d6000803e3d6000fd5b505050508160200151610bba336001600160a01b031660009081526020819052604090205490565b1015610c085760405162461bcd60e51b815260206004820152601f60248201527f556e61626c6520746f206765742044542066726f6d2044697370656e7365720060448201526064016109d6565b610c2e826000015183602001518460400151856060015186608001518760a00151612305565b5050565b3360008181526001602090815260408083206001600160a01b0387168452909152812054909161093f918590610c69908690613e2f565b611f46565b3360009081526005602052604090205460ff16610ccd5760405162461bcd60e51b815260206004820152601960248201527f455243323054656d706c6174653a204e4f54204d494e5445520000000000000060448201526064016109d6565b600954610ce382610cdd60025490565b90612783565b1115610d315760405162461bcd60e51b815260206004820152601f60248201527f44617461546f6b656e54656d706c6174653a206361702065786365656465640060448201526064016109d6565b610c2e828261278f565b610a90338261286e565b600b546040516331a9108f60e11b8152600160048201526001600160a01b0390911690636352211e90602401602060405180830381865afa158015610d8e573d6000803e3d6000fd5b505050506040513d601f19601f82011682018060405250810190610db29190613e47565b6001600160a01b0316336001600160a01b031614610e125760405162461bcd60e51b815260206004820152601b60248201527f455243323054656d706c6174653a206e6f74204e46544f776e6572000000000060448201526064016109d6565b610e1a6129bc565b600c80546001600160a01b0319169055565b33600090815260056020526040902054610100900460ff1680610ebd5750600b5460405163160a792560e01b81523360048201526001600160a01b039091169063160a7925906024016080604051808303816000875af1158015610e94573d6000803e3d6000fd5b505050506040513d601f19601f82011682018060405250810190610eb89190613d5f565b602001515b610f1d5760405162461bcd60e51b815260206004820152602b60248201527f455243323054656d706c6174653a204e4f54205041594d454e54204d414e414760448201526a22a91037b91027aba722a960a91b60648201526084016109d6565b610f2681612a6b565b604080514281524360208201526001600160a01b0383169133917f4d7694d695c57cc54947177c8e8a0e61aae664e9223492a798c32fadfc6419cc910160405180910390a350565b600d546001600160a01b03163314610fdb5760405162461bcd60e51b815260206004820152602a60248201527f455243323054656d706c6174653a206e6f74207075626c6973684d61726b65746044820152694665654164647265737360b01b60648201526084016109d6565b6001600160a01b0383166110425760405162461bcd60e51b815260206004820152602860248201527f496e76616c6964205f7075626c6973684d61726b657446656541646472657373604482015267206164647265737360c01b60648201526084016109d6565b600d80546001600160a01b038581166001600160a01b03199283168117909355600e8054918616919092168117909155600f839055604080513381526020810193909352820152606081018290527fe0b85b6f04fa914cf57f6401c5672a83a32b1c388d194c3d78e17f2897d46f439060800160405180910390a1505050565b60006110ce83336107bc565b90508181101561112c5760405162461bcd60e51b8152602060048201526024808201527f45524332303a206275726e20616d6f756e74206578636565647320616c6c6f77604482015263616e636560e01b60648201526084016109d6565b6111398333848403611f46565b611143838361286e565b505050565b600b546001600160a01b03163314610e125760405162461bcd60e51b815260206004820152601f60248201527f455243323054656d706c6174653a204e4f542037323120436f6e74726163740060448201526064016109d6565b600b5460405163160a792560e01b81523360048201526000916001600160a01b03169063160a7925906024016080604051808303816000875af11580156111ed573d6000803e3d6000fd5b505050506040513d601f19601f820116820180604052508101906112119190613d5f565b602001516112315760405162461bcd60e51b81526004016109d690613de4565b308360038151811061124557611245613e64565b6001600160a01b039283166020918202929092010152601254604051638244937560e01b815291169063824493759061128690879087908790600401613e7a565b6020604051808303816000875af11580156112a5573d6000803e3d6000fd5b505050506040513d601f19601f820116820180604052508101906112c99190613f0e565b90506000826004815181106112e0576112e0613e64565b602002602001015111156112f7576112f784612a8d565b7f195d202f33578769e120c3041341554af3193e67ee004175095bc9c06e6e6165818460008151811061132c5761132c613e64565b60200260200101516040516113549291909182526001600160a01b0316602082015260400190565b60405180910390a19392505050565b6060600880546108af90613d24565b600b5460405163160a792560e01b81523360048201526001600160a01b039091169063160a7925906024016080604051808303816000875af11580156113bc573d6000803e3d6000fd5b505050506040513d601f19601f820116820180604052508101906113e09190613d5f565b602001516114005760405162461bcd60e51b81526004016109d690613de4565b610a9081612a8d565b3360009081526001602090815260408083206001600160a01b03861684529091528120548281101561148b5760405162461bcd60e51b815260206004820152602560248201527f45524332303a2064656372656173656420616c6c6f77616e63652062656c6f77604482015264207a65726f60d81b60648201526084016109d6565b6114983385858403611f46565b5060019392505050565b600061093f33848461206a565b600b5460405163160a792560e01b81523360048201526001600160a01b039091169063160a7925906024016080604051808303816000875af11580156114f9573d6000803e3d6000fd5b505050506040513d601f19601f8201168201806040525081019061151d9190613d5f565b6020015161153d5760405162461bcd60e51b81526004016109d690613de4565b610a9081612b87565b600b5460405163160a792560e01b81523360048201526001600160a01b039091169063160a7925906024016080604051808303816000875af1158015611590573d6000803e3d6000fd5b505050506040513d601f19601f820116820180604052508101906115b49190613d5f565b602001516115d45760405162461bcd60e51b81526004016109d690613de4565b6040516bffffffffffffffffffffffff193060601b16602082015260009060340160408051601f19818403018152908290528051602090910120600b546301caf8fd60e31b83529092506001600160a01b031690630e57c7e89061164090849087908790600401613f27565b600060405180830381600087803b15801561165a57600080fd5b505af115801561166e573d6000803e3d6000fd5b50505050505050565b61168a6064670de0b6b3a7640000613f5d565b81565b600a54600090600160a01b900460ff16156117045760405162461bcd60e51b815260206004820152603160248201527f455243323054656d706c6174653a20746f6b656e20696e7374616e636520616c6044820152701c9958591e481a5b9a5d1a585b1a5e9959607a1b60648201526084016109d6565b6117b86117118b8d613fd7565b8a8a8080602002602001604051908101604052809392919081815260200183836020028082843760009201919091525050604080516020808e0282810182019093528d82529093508d92508c91829185019084908082843760009201919091525050604080516020808d0282810182019093528c82529093508c92508b9182918501908490808284376000920191909152506117b392508991508a905061405f565b612c95565b9b9a5050505050505050505050565b80516020820151604051634c87087d60e01b815260009283926001600160a01b0390911691634c87087d916118029160040190815260200190565b61018060405180830381865afa158015611820573d6000803e3d6000fd5b505050506040513d601f19601f8201168201806040525081019061184491906140db565b5050505050505050935050925050306001600160a01b0316826001600160a01b0316146118c35760405162461bcd60e51b815260206004820152602760248201527f5468697320466978656452617465206973206e6f742070726f766964696e67206044820152661d1a1a5cc8111560ca1b60648201526084016109d6565b82516020808501519086015160405163c99733a760e01b81526000936001600160a01b03169263c99733a79261190492600401918252602082015260400190565b608060405180830381865afa158015611921573d6000803e3d6000fd5b505050506040513d601f19601f820116820180604052508101906119459190614198565b505050905083604001518111156119ae5760405162461bcd60e51b815260206004820152602760248201527f46697865645261746545786368616e67653a20546f6f206d616e79206261736560448201526620746f6b656e7360c81b60648201526084016109d6565b6119c36001600160a01b038316333084613194565b83516119da906001600160a01b03841690836131ff565b83516020808601519087015160405163412dae6b60e11b815260048101929092526024820152604481018390526001600160a01b039091169063825b5cd690606401600060405180830381600087803b158015611a3657600080fd5b505af1158015611a4a573d6000803e3d6000fd5b505050508460200151611a72306001600160a01b031660009081526020819052604090205490565b1015611ac05760405162461bcd60e51b815260206004820152601f60248201527f556e61626c6520746f206275792044542066726f6d204669786564526174650060448201526064016109d6565b611acf3033876020015161206a565b611af5856000015186602001518760400151886060015189608001518a60a00151612305565b5050505050565b43841015611b3f5760405162461bcd60e51b815260206004820152601060248201526f115490cc8c11150e881156141254915160821b60448201526064016109d6565b6010546001600160a01b038816600090815260116020526040812080549192917f6e71edae12b1b97f4d1f60370fef10105fa2faae0126114a169c64845d6126c9918b918b918b919087611b92836141ce565b909155506040805160208101969096526001600160a01b0394851690860152929091166060840152608083015260a082015260c0810187905260e00160405160208183030381529060405280519060200120604051602001611c0b92919061190160f01b81526002810192909252602282015260420190565b60408051601f198184030181528282528051602091820120600080855291840180845281905260ff88169284019290925260608301869052608083018590529092509060019060a0016020604051602081039080840390855afa158015611c76573d6000803e3d6000fd5b5050604051601f1901519150506001600160a01b03811615801590611cac5750886001600160a01b0316816001600160a01b0316145b611cf85760405162461bcd60e51b815260206004820152601a60248201527f455243323044543a20494e56414c49445f5349474e415455524500000000000060448201526064016109d6565b611d03898989611f46565b505050505050505050565b611d16611d4e565b6001600160a01b03166108fc479081150290604051600060405180830381858888f19350505050158015610a90573d6000803e3d6000fd5b600c546000906001600160a01b0316611dd357600b546040516331a9108f60e11b8152600160048201526001600160a01b0390911690636352211e90602401602060405180830381865afa158015611daa573d6000803e3d6000fd5b505050506040513d601f19601f82011682018060405250810190611dce9190613e47565b905090565b50600c546001600160a01b031690565b60068181548110611df357600080fd5b6000918252602090912001546001600160a01b0316905081565b600b5460405163160a792560e01b81523360048201526001600160a01b039091169063160a7925906024016080604051808303816000875af1158015611e57573d6000803e3d6000fd5b505050506040513d601f19601f82011682018060405250810190611e7b9190613d5f565b60200151611e9b5760405162461bcd60e51b81526004016109d690613de4565b601254604051636b14d00560e11b81526001600160a01b0386811660048301523060248301819052604483018790526064830186905233608484015260a48301529091169063d629a00a9060c401600060405180830381600087803b158015611f0357600080fd5b505af1158015611f17573d6000803e3d6000fd5b505050508015611f2a57611f2a84612a8d565b50505050565b611f3e868686868686612305565b505050505050565b6001600160a01b038316611fa85760405162461bcd60e51b8152602060048201526024808201527f45524332303a20617070726f76652066726f6d20746865207a65726f206164646044820152637265737360e01b60648201526084016109d6565b6001600160a01b0382166120095760405162461bcd60e51b815260206004820152602260248201527f45524332303a20617070726f766520746f20746865207a65726f206164647265604482015261737360f01b60648201526084016109d6565b6001600160a01b0383811660008181526001602090815260408083209487168084529482529182902085905590518481527f8c5be1e5ebec7d5bd14f71427d1e84f3dd0314c0f7b2291e5b200ac8c7c3b925910160405180910390a3505050565b6001600160a01b0383166120ce5760405162461bcd60e51b815260206004820152602560248201527f45524332303a207472616e736665722066726f6d20746865207a65726f206164604482015264647265737360d81b60648201526084016109d6565b6001600160a01b0382166121305760405162461bcd60e51b815260206004820152602360248201527f45524332303a207472616e7366657220746f20746865207a65726f206164647260448201526265737360e81b60648201526084016109d6565b6001600160a01b038316600090815260208190526040902054818110156121a85760405162461bcd60e51b815260206004820152602660248201527f45524332303a207472616e7366657220616d6f756e7420657863656564732062604482015265616c616e636560d01b60648201526084016109d6565b6001600160a01b038085166000908152602081905260408082208585039055918516815290812080548492906121df908490613e2f565b92505081905550826001600160a01b0316846001600160a01b03167fddf252ad1be2c89b69c2b068fc378daa952ba7f163c4a11628f55a4df523b3ef8460405161222b91815260200190565b60405180910390a3611f2a565b6001600160a01b03811660008181526005602052604090819020805461ff00191681559051909133917faee911eec8b2df8f3ae0464841541b1e5f339519bd5cf51889fe8b07fecff658906122999042904390918252602082015260400190565b60405180910390a35050565b6001600160a01b03811660008181526005602052604090819020805460ff191681559051909133917fefa2735987005aaa89c050c0ff8cc9ae7d9079d19382081c429130f98c52d480906122999042904390918252602082015260400190565b3360009081526020819052604081205481908711156123745760405162461bcd60e51b815260206004820152602560248201527f4e6f7420656e6f756768204461746120546f6b656e7320746f2073746172742060448201526427b93232b960d91b60648201526084016109d6565b600d5460408051338152602081018a90529081018890524260608201524360808201526001600160a01b0387811692811691908b16907fb07adb6a34680ecbbc7935971c45a07b9baf67ce5dc57332d51e3a5745c9e9639060a00160405180910390a46000600f541180156123f35750600e546001600160a01b031615155b80156124095750600d546001600160a01b031615155b156124c857600f54600e5461242d916001600160a01b039091169033903090613194565b600f5461243b9060646132b1565b600d54600f54919250612471916001600160a01b039091169061245e90846132bd565b600e546001600160a01b031691906132c9565b600e54600d54600f546001600160a01b0392831692909116907ff666b31c81334b6085802ba4149907fa724689d43bc31df6de1a51291ddc55b4906124b690856132bd565b60405190815260200160405180910390a35b6000831180156124e057506001600160a01b03841615155b80156124f457506001600160a01b03851615155b156125855761250e6001600160a01b038516333086613194565b6125198360646132b1565b915061253a8561252985856132bd565b6001600160a01b03871691906132c9565b6001600160a01b038085169086167f504f65f39bc14c176feeffb7a6f6f46cf702ca4dcc8e6197b5a4c741dd94f3d161257386866132bd565b60405190815260200160405180910390a35b6000811180156125955750600082115b80156125ae5750600e546001600160a01b038581169116145b80156125c257506001600160a01b03841615155b1561266e57600a546125e1906001600160a01b03166125298385612783565b600a546040518281526001600160a01b038681169216907ff666b31c81334b6085802ba4149907fa724689d43bc31df6de1a51291ddc55b49060200160405180910390a3600a546040518381526001600160a01b038681169216907f504f65f39bc14c176feeffb7a6f6f46cf702ca4dcc8e6197b5a4c741dd94f3d19060200160405180910390a3612770565b6000811180156126885750600e546001600160a01b031615155b156126f457600a54600e546126aa916001600160a01b039182169116836132c9565b600e54600a546040518381526001600160a01b0392831692909116907ff666b31c81334b6085802ba4149907fa724689d43bc31df6de1a51291ddc55b49060200160405180910390a35b60008211801561270c57506001600160a01b03841615155b1561277057600a5461272b906001600160a01b038681169116846132c9565b600a546040518381526001600160a01b038681169216907f504f65f39bc14c176feeffb7a6f6f46cf702ca4dcc8e6197b5a4c741dd94f3d19060200160405180910390a35b61277987610d3b565b5050505050505050565b60006109f28284613e2f565b6001600160a01b0382166127e55760405162461bcd60e51b815260206004820152601f60248201527f45524332303a206d696e7420746f20746865207a65726f20616464726573730060448201526064016109d6565b80600260008282546127f79190613e2f565b90915550506001600160a01b03821660009081526020819052604081208054839290612824908490613e2f565b90915550506040518181526001600160a01b038316906000907fddf252ad1be2c89b69c2b068fc378daa952ba7f163c4a11628f55a4df523b3ef9060200160405180910390a35050565b6001600160a01b0382166128ce5760405162461bcd60e51b815260206004820152602160248201527f45524332303a206275726e2066726f6d20746865207a65726f206164647265736044820152607360f81b60648201526084016109d6565b6001600160a01b038216600090815260208190526040902054818110156129425760405162461bcd60e51b815260206004820152602260248201527f45524332303a206275726e20616d6f756e7420657863656564732062616c616e604482015261636560f01b60648201526084016109d6565b6001600160a01b03831660009081526020819052604081208383039055600280548492906129719084906141e9565b90915550506040518281526000906001600160a01b038516907fddf252ad1be2c89b69c2b068fc378daa952ba7f163c4a11628f55a4df523b3ef9060200160405180910390a3505050565b60005b600654811015612a2257600060056000600684815481106129e2576129e2613e64565b60009182526020808320909101546001600160a01b031683528201929092526040019020805461ffff191690555080612a1a816141ce565b9150506129bf565b50612a2f60066000613543565b6040805142815243602082015233917f712bc71db81927a76b8bf1ea346247bb0ad58f18e4e5c1bd4aa0ec6573e02a2b910160405180910390a2565b600c80546001600160a01b0319166001600160a01b0392909216919091179055565b6001600160a01b0381166000908152600560205260409020805460ff1615612af75760405162461bcd60e51b815260206004820152601d60248201527f4552433230526f6c65733a2020414c52454144592041204d494e54455200000060448201526064016109d6565b8054600160ff19909116811782556006805491820181556000527ff652222313e28459528d920b65115c16c04f3efc82aaedc97be59f3f377c0d3f0180546001600160a01b0319166001600160a01b038416908117909155604080514281524360208201523392917f4f7e100eb1ee13e903798bd0d6aa854152e07eb05544f392b9409c12935c80959101612299565b6001600160a01b03811660009081526005602052604090208054610100900460ff1615612c015760405162461bcd60e51b815260206004820152602260248201527f4552433230526f6c65733a2020414c5245414459204120464545204d414e414760448201526122a960f11b60648201526084016109d6565b805461ff001916610100178155600680546001810182556000919091527ff652222313e28459528d920b65115c16c04f3efc82aaedc97be59f3f377c0d3f0180546001600160a01b0384166001600160a01b03199091168117909155604080514281524360208201523392917fb17da2e9910b4ba5754e8872385ba315a238bafb5ae221fc85093c33432c40a79101612299565b60008084600081518110612cab57612cab613e64565b60200260200101519050600085600181518110612cca57612cca613e64565b6020026020010151905060006001600160a01b0316826001600160a01b03161415612d4c5760405162461bcd60e51b815260206004820152602c60248201527f455243323054656d706c6174653a20496e76616c6964206d696e7465722c202060448201526b7a65726f206164647265737360a01b60648201526084016109d6565b6001600160a01b038116612dc85760405162461bcd60e51b815260206004820152603c60248201527f455243323054656d706c6174653a20496e76616c696420636f6d6d756e69747960448201527f2066656520636f6c6c6563746f722c207a65726f20616464726573730000000060648201526084016109d6565b84600081518110612ddb57612ddb613e64565b602002602001015160001415612e3f5760405162461bcd60e51b8152602060048201526024808201527f44617461546f6b656e54656d706c6174653a20496e76616c6964206361702076604482015263616c756560e01b60648201526084016109d6565b84600081518110612e5257612e52613e64565b602002602001015160098190555087600081518110612e7357612e73613e64565b602002602001015160079080519060200190612e90929190613561565b5087600181518110612ea457612ea4613e64565b602002602001015160089080519060200190612ec1929190613561565b50600b80546001600160a01b0319166001600160a01b038416179055855186906002908110612ef257612ef2613e64565b6020908102919091010151601280546001600160a01b039283166001600160a01b0319909116179055600a80546001600160a81b03191691831691909117600160a01b1790558651612f5c908890600090612f4f57612f4f613e64565b6020026020010151612a8d565b60006001600160a01b031687600181518110612f7a57612f7a613e64565b60200260200101516001600160a01b03161461302457612fb387600181518110612fa657612fa6613e64565b6020026020010151612a6b565b86600181518110612fc657612fc6613e64565b60200260200101516001600160a01b0316336001600160a01b03167f4d7694d695c57cc54947177c8e8a0e61aae664e9223492a798c32fadfc6419cc424360405161301b929190918252602082015260400190565b60405180910390a35b8660028151811061303757613037613e64565b6020026020010151600d60006101000a8154816001600160a01b0302191690836001600160a01b031602179055508660038151811061307857613078613e64565b6020026020010151600e60006101000a8154816001600160a01b0302191690836001600160a01b03160217905550846001815181106130b9576130b9613e64565b6020026020010151600f8190555060004690507f8b73c3c69bb8fe3d512ecc4cf759cc79239f7b179b0ffacaa9a75d522b39400f60076040516130fc9190614200565b60408051918290038220828201825260018352603160f81b6020938401528151928301939093528101919091527fc89efdaa54c0f20c7adf612882df0950f5a951637e0307cdcb4c672f298b8bc66060820152608081018290523060a082015260c00160408051808303601f1901815291905280516020909101206010555050600a54600160a01b900460ff16979650505050505050565b6040516001600160a01b0380851660248301528316604482015260648101829052611f2a9085906323b872dd60e01b906084015b60408051601f198184030181529190526020810180516001600160e01b03166001600160e01b0319909316929092179091526132f9565b604051636eb1769f60e11b81523060048201526001600160a01b038381166024830152600091839186169063dd62ed3e90604401602060405180830381865afa158015613250573d6000803e3d6000fd5b505050506040513d601f19601f820116820180604052508101906132749190613f0e565b61327e9190613e2f565b6040516001600160a01b038516602482015260448101829052909150611f2a90859063095ea7b360e01b906064016131c8565b60006109f28284613f5d565b60006109f282846141e9565b6040516001600160a01b03831660248201526044810182905261114390849063a9059cbb60e01b906064016131c8565b600061334e826040518060400160405280602081526020017f5361666545524332303a206c6f772d6c6576656c2063616c6c206661696c6564815250856001600160a01b03166133cb9092919063ffffffff16565b805190915015611143578080602001905181019061336c919061429c565b6111435760405162461bcd60e51b815260206004820152602a60248201527f5361666545524332303a204552433230206f7065726174696f6e20646964206e6044820152691bdd081cdd58d8d9595960b21b60648201526084016109d6565b60606133da84846000856133e2565b949350505050565b6060824710156134435760405162461bcd60e51b815260206004820152602660248201527f416464726573733a20696e73756666696369656e742062616c616e636520666f6044820152651c8818d85b1b60d21b60648201526084016109d6565b843b6134915760405162461bcd60e51b815260206004820152601d60248201527f416464726573733a2063616c6c20746f206e6f6e2d636f6e747261637400000060448201526064016109d6565b600080866001600160a01b031685876040516134ad91906142b9565b60006040518083038185875af1925050503d80600081146134ea576040519150601f19603f3d011682016040523d82523d6000602084013e6134ef565b606091505b50915091506134ff82828661350a565b979650505050505050565b606083156135195750816109f2565b8251156135295782518084602001fd5b8160405162461bcd60e51b81526004016109d69190613658565b5080546000825590600052602060002090810190610a9091906135e5565b82805461356d90613d24565b90600052602060002090601f01602090048101928261358f57600085556135d5565b82601f106135a857805160ff19168380011785556135d5565b828001600101855582156135d5579182015b828111156135d55782518255916020019190600101906135ba565b506135e19291506135e5565b5090565b5b808211156135e157600081556001016135e6565b6001600160a01b0381168114610a9057600080fd5b60006020828403121561362157600080fd5b81356109f2816135fa565b60005b8381101561364757818101518382015260200161362f565b83811115611f2a5750506000910152565b602081526000825180602084015261367781604085016020870161362c565b601f01601f19169190910160400192915050565b6000806040838503121561369e57600080fd5b82356136a9816135fa565b946020939093013593505050565b6000806000606084860312156136cc57600080fd5b83356136d7816135fa565b925060208401356136e7816135fa565b929592945050506040919091013590565b634e487b7160e01b600052604160045260246000fd5b604051601f8201601f1916810167ffffffffffffffff81118282101715613737576137376136f8565b604052919050565b600060c0828403121561375157600080fd5b60405160c0810181811067ffffffffffffffff82111715613774576137746136f8565b6040529050808235613785816135fa565b80825250602083013560208201526040830135604082015260608301356137ab816135fa565b606082015260808301356137be816135fa565b608082015260a092830135920191909152919050565b60008060e083850312156137e757600080fd5b6137f1848461373f565b915060c0830135613801816135fa565b809150509250929050565b60006020828403121561381e57600080fd5b5035919050565b600067ffffffffffffffff82111561383f5761383f6136f8565b5060051b60200190565b600082601f83011261385a57600080fd5b8135602061386f61386a83613825565b61370e565b82815260059290921b8401810191818101908684111561388e57600080fd5b8286015b848110156138a95780358352918301918301613892565b509695505050505050565b6000806000606084860312156138c957600080fd5b83356138d4816135fa565b925060208481013567ffffffffffffffff808211156138f257600080fd5b818701915087601f83011261390657600080fd5b813561391461386a82613825565b81815260059190911b8301840190848101908a83111561393357600080fd5b938501935b8285101561395a57843561394b816135fa565b82529385019390850190613938565b96505050604087013592508083111561397257600080fd5b505061398086828701613849565b9150509250925092565b6000806020838503121561399d57600080fd5b823567ffffffffffffffff808211156139b557600080fd5b818501915085601f8301126139c957600080fd5b8135818111156139d857600080fd5b8660208285010111156139ea57600080fd5b60209290920196919550909350505050565b60008083601f840112613a0e57600080fd5b50813567ffffffffffffffff811115613a2657600080fd5b6020830191508360208260051b8501011115613a4157600080fd5b9250929050565b60008060008060008060008060008060a08b8d031215613a6757600080fd5b8a3567ffffffffffffffff80821115613a7f57600080fd5b613a8b8e838f016139fc565b909c509a5060208d0135915080821115613aa457600080fd5b613ab08e838f016139fc565b909a50985060408d0135915080821115613ac957600080fd5b613ad58e838f016139fc565b909850965060608d0135915080821115613aee57600080fd5b613afa8e838f016139fc565b909650945060808d0135915080821115613b1357600080fd5b50613b208d828e016139fc565b915080935050809150509295989b9194979a5092959850565b600080828403610120811215613b4e57600080fd5b613b58858561373f565b9250606060bf1982011215613b6c57600080fd5b506040516060810181811067ffffffffffffffff82111715613b9057613b906136f8565b60405260c0840135613ba1816135fa565b815260e084013560208201526101009093013560408401525092909150565b600080600080600080600060e0888a031215613bdb57600080fd5b8735613be6816135fa565b96506020880135613bf6816135fa565b95506040880135945060608801359350608088013560ff81168114613c1a57600080fd5b9699959850939692959460a0840135945060c09093013592915050565b60008060408385031215613c4a57600080fd5b8235613c55816135fa565b91506020830135613801816135fa565b8015158114610a9057600080fd5b60008060008060808587031215613c8957600080fd5b8435613c94816135fa565b935060208501359250604085013591506060850135613cb281613c65565b939692955090935050565b60008060008060008060c08789031215613cd657600080fd5b8635613ce1816135fa565b955060208701359450604087013593506060870135613cff816135fa565b92506080870135613d0f816135fa565b8092505060a087013590509295509295509295565b600181811c90821680613d3857607f821691505b60208210811415613d5957634e487b7160e01b600052602260045260246000fd5b50919050565b600060808284031215613d7157600080fd5b6040516080810181811067ffffffffffffffff82111715613d9457613d946136f8565b6040528251613da281613c65565b81526020830151613db281613c65565b60208201526040830151613dc581613c65565b60408201526060830151613dd881613c65565b60608201529392505050565b6020808252818101527f455243323054656d706c6174653a204e4f54204445504c4f59455220524f4c45604082015260600190565b634e487b7160e01b600052601160045260246000fd5b60008219821115613e4257613e42613e19565b500190565b600060208284031215613e5957600080fd5b81516109f2816135fa565b634e487b7160e01b600052603260045260246000fd5b6001600160a01b038481168252606060208084018290528551918401829052600092868201929091906080860190855b81811015613ec8578551851683529483019491830191600101613eaa565b5050858103604087015286518082529082019350915080860160005b83811015613f0057815185529382019390820190600101613ee4565b509298975050505050505050565b600060208284031215613f2057600080fd5b5051919050565b83815260406020820152816040820152818360608301376000818301606090810191909152601f909201601f1916010192915050565b600082613f7a57634e487b7160e01b600052601260045260246000fd5b500490565b600067ffffffffffffffff831115613f9957613f996136f8565b613fac601f8401601f191660200161370e565b9050828152838383011115613fc057600080fd5b828260208301376000602084830101529392505050565b6000613fe561386a84613825565b80848252602080830192508560051b85013681111561400357600080fd5b855b8181101561405357803567ffffffffffffffff8111156140255760008081fd5b870136601f8201126140375760008081fd5b614045368235868401613f7f565b865250938201938201614005565b50919695505050505050565b600061406d61386a84613825565b80848252602080830192508560051b85013681111561408b57600080fd5b855b8181101561405357803567ffffffffffffffff8111156140ad5760008081fd5b870136601f8201126140bf5760008081fd5b6140cd368235868401613f7f565b86525093820193820161408d565b6000806000806000806000806000806000806101808d8f0312156140fe57600080fd5b8c51614109816135fa565b60208e0151909c5061411a816135fa565b60408e015160608f0151919c509a50614132816135fa565b8099505060808d0151975060a08d0151965060c08d015161415281613c65565b8096505060e08d015194506101008d015193506101208d015192506101408d015191506101608d015161418481613c65565b809150509295989b509295989b509295989b565b600080600080608085870312156141ae57600080fd5b505082516020840151604085015160609095015191969095509092509050565b60006000198214156141e2576141e2613e19565b5060010190565b6000828210156141fb576141fb613e19565b500390565b600080835481600182811c91508083168061421c57607f831692505b602080841082141561423c57634e487b7160e01b86526022600452602486fd5b81801561425057600181146142615761428e565b60ff1986168952848901965061428e565b60008a81526020902060005b868110156142865781548b82015290850190830161426d565b505084890196505b509498975050505050505050565b6000602082840312156142ae57600080fd5b81516109f281613c65565b600082516142cb81846020870161362c565b919091019291505056fea26469706673582212202c4ca8e1f5b3d14ff86fea67d0c1245496f8980a8619844cceb6e89b7a81db8264736f6c634300080a0033",
  "linkReferences": {},
  "deployedLinkReferences": {}
}