{
  "_format": "hh-sol-artifact-1",
  "contractName": "ERC20TemplateEnterprise",
  "sourceName": "contracts/templates/ERC20TemplateEnterprise.sol",
  "abi": [
    {
      "anonymous": false,
      "inputs": [
        {
          "indexed": true,
          "internalType": "address",
          "name": "user",
          "type": "address"
        },
        {
          "indexed": true,
          "internalType": "address",
          "name": "signer",
          "type": "address"
        },
        {
          "indexed": false,
          "internalType": "uint256",
          "name": "timestamp",
          "type": "uint256"
        },
        {
          "indexed": false,
          "internalType": "uint256",
          "name": "blockNumber",
          "type": "uint256"
        }
      ],
      "name": "AddedMinter",
      "type": "event"
    },
    {
      "anonymous": false,
      "inputs": [
        {
          "indexed": true,
          "internalType": "address",
          "name": "user",
          "type": "address"
        },
        {
          "indexed": true,
          "internalType": "address",
          "name": "signer",
          "type": "address"
        },
        {
          "indexed": false,
          "internalType": "uint256",
          "name": "timestamp",
          "type": "uint256"
        },
        {
          "indexed": false,
          "internalType": "uint256",
          "name": "blockNumber",
          "type": "uint256"
        }
      ],
      "name": "AddedPaymentManager",
      "type": "event"
    },
    {
      "anonymous": false,
      "inputs": [
        {
          "indexed": true,
          "internalType": "address",
          "name": "owner",
          "type": "address"
        },
        {
          "indexed": true,
          "internalType": "address",
          "name": "spender",
          "type": "address"
        },
        {
          "indexed": false,
          "internalType": "uint256",
          "name": "value",
          "type": "uint256"
        }
      ],
      "name": "Approval",
      "type": "event"
    },
    {
      "anonymous": false,
      "inputs": [
        {
          "indexed": false,
          "internalType": "address",
          "name": "buyer",
          "type": "address"
        },
        {
          "indexed": false,
          "internalType": "uint256",
          "name": "baseTokenAmount",
          "type": "uint256"
        },
        {
          "indexed": false,
          "internalType": "uint256",
          "name": "marketFeeAmount",
          "type": "uint256"
        }
      ],
      "name": "BuyAndOrder",
      "type": "event"
    },
    {
      "anonymous": false,
      "inputs": [
        {
          "indexed": true,
          "internalType": "address",
          "name": "signer",
          "type": "address"
        },
        {
          "indexed": false,
          "internalType": "uint256",
          "name": "timestamp",
          "type": "uint256"
        },
        {
          "indexed": false,
          "internalType": "uint256",
          "name": "blockNumber",
          "type": "uint256"
        }
      ],
      "name": "CleanedPermissions",
      "type": "event"
    },
    {
      "anonymous": false,
      "inputs": [
        {
          "indexed": false,
          "internalType": "address",
          "name": "currentMinter",
          "type": "address"
        },
        {
          "indexed": false,
          "internalType": "address",
          "name": "newMinter",
          "type": "address"
        }
      ],
      "name": "MinterApproved",
      "type": "event"
    },
    {
      "anonymous": false,
      "inputs": [
        {
          "indexed": false,
          "internalType": "address",
          "name": "currentMinter",
          "type": "address"
        },
        {
          "indexed": false,
          "internalType": "address",
          "name": "newMinter",
          "type": "address"
        }
      ],
      "name": "MinterProposed",
      "type": "event"
    },
    {
      "anonymous": false,
      "inputs": [
        {
          "indexed": false,
          "internalType": "bytes32",
          "name": "exchangeId",
          "type": "bytes32"
        },
        {
          "indexed": false,
          "internalType": "address",
          "name": "owner",
          "type": "address"
        }
      ],
      "name": "NewFixedRate",
      "type": "event"
    },
    {
      "anonymous": false,
      "inputs": [
        {
          "indexed": true,
          "internalType": "address",
          "name": "caller",
          "type": "address"
        },
        {
          "indexed": true,
          "internalType": "address",
          "name": "_newPaymentCollector",
          "type": "address"
        },
        {
          "indexed": false,
          "internalType": "uint256",
          "name": "timestamp",
          "type": "uint256"
        },
        {
          "indexed": false,
          "internalType": "uint256",
          "name": "blockNumber",
          "type": "uint256"
        }
      ],
      "name": "NewPaymentCollector",
      "type": "event"
    },
    {
      "anonymous": false,
      "inputs": [
        {
          "indexed": false,
          "internalType": "address",
          "name": "poolAddress",
          "type": "address"
        },
        {
          "indexed": false,
          "internalType": "address",
          "name": "ssContract",
          "type": "address"
        },
        {
          "indexed": false,
          "internalType": "address",
          "name": "basetokenAddress",
          "type": "address"
        }
      ],
      "name": "NewPool",
      "type": "event"
    },
    {
      "anonymous": false,
      "inputs": [
        {
          "indexed": true,
          "internalType": "address",
          "name": "consumer",
          "type": "address"
        },
        {
          "indexed": false,
          "internalType": "address",
          "name": "payer",
          "type": "address"
        },
        {
          "indexed": false,
          "internalType": "uint256",
          "name": "amount",
          "type": "uint256"
        },
        {
          "indexed": false,
          "internalType": "uint256",
          "name": "serviceIndex",
          "type": "uint256"
        },
        {
          "indexed": false,
          "internalType": "uint256",
          "name": "timestamp",
          "type": "uint256"
        },
        {
          "indexed": true,
          "internalType": "address",
          "name": "publishMarketAddress",
          "type": "address"
        },
        {
          "indexed": false,
          "internalType": "uint256",
          "name": "blockNumber",
          "type": "uint256"
        }
      ],
      "name": "OrderStarted",
      "type": "event"
    },
    {
      "anonymous": false,
      "inputs": [
        {
          "indexed": true,
          "internalType": "address",
          "name": "providerFeeAddress",
          "type": "address"
        },
        {
          "indexed": true,
          "internalType": "address",
          "name": "providerFeeToken",
          "type": "address"
        },
        {
          "indexed": false,
          "internalType": "uint256",
          "name": "providerFeeAmount",
          "type": "uint256"
        }
      ],
      "name": "ProviderFees",
      "type": "event"
    },
    {
      "anonymous": false,
      "inputs": [
        {
          "indexed": true,
          "internalType": "address",
          "name": "PublishMarketFeeAddress",
          "type": "address"
        },
        {
          "indexed": true,
          "internalType": "address",
          "name": "PublishMarketFeeToken",
          "type": "address"
        },
        {
          "indexed": false,
          "internalType": "uint256",
          "name": "PublishMarketFeeAmount",
          "type": "uint256"
        }
      ],
      "name": "PublishMarketFees",
      "type": "event"
    },
    {
      "anonymous": false,
      "inputs": [
        {
          "indexed": false,
          "internalType": "address",
          "name": "caller",
          "type": "address"
        },
        {
          "indexed": false,
          "internalType": "address",
          "name": "PublishMarketFeeAddress",
          "type": "address"
        },
        {
          "indexed": false,
          "internalType": "address",
          "name": "PublishMarketFeeToken",
          "type": "address"
        },
        {
          "indexed": false,
          "internalType": "uint256",
          "name": "PublishMarketFeeAmount",
          "type": "uint256"
        }
      ],
      "name": "PublishMarketFeesChanged",
      "type": "event"
    },
    {
      "anonymous": false,
      "inputs": [
        {
          "indexed": true,
          "internalType": "address",
          "name": "user",
          "type": "address"
        },
        {
          "indexed": true,
          "internalType": "address",
          "name": "signer",
          "type": "address"
        },
        {
          "indexed": false,
          "internalType": "uint256",
          "name": "timestamp",
          "type": "uint256"
        },
        {
          "indexed": false,
          "internalType": "uint256",
          "name": "blockNumber",
          "type": "uint256"
        }
      ],
      "name": "RemovedMinter",
      "type": "event"
    },
    {
      "anonymous": false,
      "inputs": [
        {
          "indexed": true,
          "internalType": "address",
          "name": "user",
          "type": "address"
        },
        {
          "indexed": true,
          "internalType": "address",
          "name": "signer",
          "type": "address"
        },
        {
          "indexed": false,
          "internalType": "uint256",
          "name": "timestamp",
          "type": "uint256"
        },
        {
          "indexed": false,
          "internalType": "uint256",
          "name": "blockNumber",
          "type": "uint256"
        }
      ],
      "name": "RemovedPaymentManager",
      "type": "event"
    },
    {
      "anonymous": false,
      "inputs": [
        {
          "indexed": true,
          "internalType": "address",
          "name": "from",
          "type": "address"
        },
        {
          "indexed": true,
          "internalType": "address",
          "name": "to",
          "type": "address"
        },
        {
          "indexed": false,
          "internalType": "uint256",
          "name": "value",
          "type": "uint256"
        }
      ],
      "name": "Transfer",
      "type": "event"
    },
    {
      "stateMutability": "payable",
      "type": "fallback"
    },
    {
      "inputs": [],
      "name": "BASE",
      "outputs": [
        {
          "internalType": "uint256",
          "name": "",
          "type": "uint256"
        }
      ],
      "stateMutability": "view",
      "type": "function"
    },
    {
      "inputs": [],
      "name": "BASE_COMMUNITY_FEE_PERCENTAGE",
      "outputs": [
        {
          "internalType": "uint256",
          "name": "",
          "type": "uint256"
        }
      ],
      "stateMutability": "view",
      "type": "function"
    },
    {
      "inputs": [],
      "name": "DOMAIN_SEPARATOR",
      "outputs": [
        {
          "internalType": "bytes32",
          "name": "",
          "type": "bytes32"
        }
      ],
      "stateMutability": "view",
      "type": "function"
    },
    {
      "inputs": [],
      "name": "PERMIT_TYPEHASH",
      "outputs": [
        {
          "internalType": "bytes32",
          "name": "",
          "type": "bytes32"
        }
      ],
      "stateMutability": "view",
      "type": "function"
    },
    {
      "inputs": [
        {
          "internalType": "address",
          "name": "_minter",
          "type": "address"
        }
      ],
      "name": "addMinter",
      "outputs": [],
      "stateMutability": "nonpayable",
      "type": "function"
    },
    {
      "inputs": [
        {
          "internalType": "address",
          "name": "_paymentManager",
          "type": "address"
        }
      ],
      "name": "addPaymentManager",
      "outputs": [],
      "stateMutability": "nonpayable",
      "type": "function"
    },
    {
      "inputs": [
        {
          "internalType": "address",
          "name": "owner",
          "type": "address"
        },
        {
          "internalType": "address",
          "name": "spender",
          "type": "address"
        }
      ],
      "name": "allowance",
      "outputs": [
        {
          "internalType": "uint256",
          "name": "",
          "type": "uint256"
        }
      ],
      "stateMutability": "view",
      "type": "function"
    },
    {
      "inputs": [
        {
          "internalType": "address",
          "name": "spender",
          "type": "address"
        },
        {
          "internalType": "uint256",
          "name": "amount",
          "type": "uint256"
        }
      ],
      "name": "approve",
      "outputs": [
        {
          "internalType": "bool",
          "name": "",
          "type": "bool"
        }
      ],
      "stateMutability": "nonpayable",
      "type": "function"
    },
    {
      "inputs": [
        {
          "internalType": "uint256",
          "name": "",
          "type": "uint256"
        }
      ],
      "name": "authERC20",
      "outputs": [
        {
          "internalType": "address",
          "name": "",
          "type": "address"
        }
      ],
      "stateMutability": "view",
      "type": "function"
    },
    {
      "inputs": [
        {
          "internalType": "address",
          "name": "account",
          "type": "address"
        }
      ],
      "name": "balanceOf",
      "outputs": [
        {
          "internalType": "uint256",
          "name": "",
          "type": "uint256"
        }
      ],
      "stateMutability": "view",
      "type": "function"
    },
    {
      "inputs": [
        {
          "internalType": "uint256",
          "name": "amount",
          "type": "uint256"
        }
      ],
      "name": "burn",
      "outputs": [],
      "stateMutability": "nonpayable",
      "type": "function"
    },
    {
      "inputs": [
        {
          "internalType": "address",
          "name": "account",
          "type": "address"
        },
        {
          "internalType": "uint256",
          "name": "amount",
          "type": "uint256"
        }
      ],
      "name": "burnFrom",
      "outputs": [],
      "stateMutability": "nonpayable",
      "type": "function"
    },
    {
      "inputs": [
        {
          "components": [
            {
              "internalType": "address",
              "name": "consumer",
              "type": "address"
            },
            {
              "internalType": "uint256",
              "name": "amount",
              "type": "uint256"
            },
            {
              "internalType": "uint256",
              "name": "serviceIndex",
              "type": "uint256"
            },
            {
              "internalType": "address",
              "name": "providerFeeAddress",
              "type": "address"
            },
            {
              "internalType": "address",
              "name": "providerFeeToken",
              "type": "address"
            },
            {
              "internalType": "uint256",
              "name": "providerFeeAmount",
              "type": "uint256"
            }
          ],
          "internalType": "struct ERC20TemplateEnterprise.OrderParams",
          "name": "_orderParams",
          "type": "tuple"
        },
        {
          "internalType": "address",
          "name": "dispenserContract",
          "type": "address"
        }
      ],
      "name": "buyFromDispenserAndOrder",
      "outputs": [],
      "stateMutability": "nonpayable",
      "type": "function"
    },
    {
      "inputs": [
        {
          "components": [
            {
              "internalType": "address",
              "name": "consumer",
              "type": "address"
            },
            {
              "internalType": "uint256",
              "name": "amount",
              "type": "uint256"
            },
            {
              "internalType": "uint256",
              "name": "serviceIndex",
              "type": "uint256"
            },
            {
              "internalType": "address",
              "name": "providerFeeAddress",
              "type": "address"
            },
            {
              "internalType": "address",
              "name": "providerFeeToken",
              "type": "address"
            },
            {
              "internalType": "uint256",
              "name": "providerFeeAmount",
              "type": "uint256"
            }
          ],
          "internalType": "struct ERC20TemplateEnterprise.OrderParams",
          "name": "_orderParams",
          "type": "tuple"
        },
        {
          "components": [
            {
              "internalType": "address",
              "name": "exchangeContract",
              "type": "address"
            },
            {
              "internalType": "bytes32",
              "name": "exchangeId",
              "type": "bytes32"
            },
            {
              "internalType": "uint256",
              "name": "maxBaseTokenAmount",
              "type": "uint256"
            },
            {
              "internalType": "uint256",
              "name": "swapMarketFee",
              "type": "uint256"
            },
            {
              "internalType": "address",
              "name": "marketFeeAddress",
              "type": "address"
            }
          ],
          "internalType": "struct ERC20TemplateEnterprise.FreParams",
          "name": "_freParams",
          "type": "tuple"
        }
      ],
      "name": "buyFromFreAndOrder",
      "outputs": [],
      "stateMutability": "nonpayable",
      "type": "function"
    },
    {
      "inputs": [],
      "name": "cap",
      "outputs": [
        {
          "internalType": "uint256",
          "name": "",
          "type": "uint256"
        }
      ],
      "stateMutability": "view",
      "type": "function"
    },
    {
      "inputs": [],
      "name": "cleanFrom721",
      "outputs": [],
      "stateMutability": "nonpayable",
      "type": "function"
    },
    {
      "inputs": [],
      "name": "cleanPermissions",
      "outputs": [],
      "stateMutability": "nonpayable",
      "type": "function"
    },
    {
      "inputs": [
        {
          "internalType": "address",
          "name": "_dispenser",
          "type": "address"
        },
        {
          "internalType": "uint256",
          "name": "maxTokens",
          "type": "uint256"
        },
        {
          "internalType": "uint256",
          "name": "maxBalance",
          "type": "uint256"
        },
        {
          "internalType": "bool",
          "name": "withMint",
          "type": "bool"
        }
      ],
      "name": "createDispenser",
      "outputs": [],
      "stateMutability": "nonpayable",
      "type": "function"
    },
    {
      "inputs": [
        {
          "internalType": "address",
          "name": "fixedPriceAddress",
          "type": "address"
        },
        {
          "internalType": "address[]",
          "name": "addresses",
          "type": "address[]"
        },
        {
          "internalType": "uint256[]",
          "name": "uints",
          "type": "uint256[]"
        }
      ],
      "name": "createFixedRate",
      "outputs": [
        {
          "internalType": "bytes32",
          "name": "exchangeId",
          "type": "bytes32"
        }
      ],
      "stateMutability": "nonpayable",
      "type": "function"
    },
    {
      "inputs": [],
      "name": "decimals",
      "outputs": [
        {
          "internalType": "uint8",
          "name": "",
          "type": "uint8"
        }
      ],
      "stateMutability": "pure",
      "type": "function"
    },
    {
      "inputs": [
        {
          "internalType": "address",
          "name": "spender",
          "type": "address"
        },
        {
          "internalType": "uint256",
          "name": "subtractedValue",
          "type": "uint256"
        }
      ],
      "name": "decreaseAllowance",
      "outputs": [
        {
          "internalType": "bool",
          "name": "",
          "type": "bool"
        }
      ],
      "stateMutability": "nonpayable",
      "type": "function"
    },
    {
      "inputs": [],
      "name": "getERC721Address",
      "outputs": [
        {
          "internalType": "address",
          "name": "",
          "type": "address"
        }
      ],
      "stateMutability": "view",
      "type": "function"
    },
    {
      "inputs": [],
      "name": "getId",
      "outputs": [
        {
          "internalType": "uint8",
          "name": "",
          "type": "uint8"
        }
      ],
      "stateMutability": "pure",
      "type": "function"
    },
    {
      "inputs": [],
      "name": "getPaymentCollector",
      "outputs": [
        {
          "internalType": "address",
          "name": "",
          "type": "address"
        }
      ],
      "stateMutability": "view",
      "type": "function"
    },
    {
      "inputs": [],
      "name": "getPublishingMarketFee",
      "outputs": [
        {
          "internalType": "address",
          "name": "",
          "type": "address"
        },
        {
          "internalType": "address",
          "name": "",
          "type": "address"
        },
        {
          "internalType": "uint256",
          "name": "",
          "type": "uint256"
        }
      ],
      "stateMutability": "view",
      "type": "function"
    },
    {
      "inputs": [
        {
          "internalType": "address",
          "name": "spender",
          "type": "address"
        },
        {
          "internalType": "uint256",
          "name": "addedValue",
          "type": "uint256"
        }
      ],
      "name": "increaseAllowance",
      "outputs": [
        {
          "internalType": "bool",
          "name": "",
          "type": "bool"
        }
      ],
      "stateMutability": "nonpayable",
      "type": "function"
    },
    {
      "inputs": [
        {
          "internalType": "string[]",
          "name": "strings_",
          "type": "string[]"
        },
        {
          "internalType": "address[]",
          "name": "addresses_",
          "type": "address[]"
        },
        {
          "internalType": "address[]",
          "name": "factoryAddresses_",
          "type": "address[]"
        },
        {
          "internalType": "uint256[]",
          "name": "uints_",
          "type": "uint256[]"
        },
        {
          "internalType": "bytes[]",
          "name": "bytes_",
          "type": "bytes[]"
        }
      ],
      "name": "initialize",
      "outputs": [
        {
          "internalType": "bool",
          "name": "",
          "type": "bool"
        }
      ],
      "stateMutability": "nonpayable",
      "type": "function"
    },
    {
      "inputs": [
        {
          "internalType": "address",
          "name": "user",
          "type": "address"
        }
      ],
      "name": "isERC20Deployer",
      "outputs": [
        {
          "internalType": "bool",
          "name": "deployer",
          "type": "bool"
        }
      ],
      "stateMutability": "nonpayable",
      "type": "function"
    },
    {
      "inputs": [],
      "name": "isInitialized",
      "outputs": [
        {
          "internalType": "bool",
          "name": "",
          "type": "bool"
        }
      ],
      "stateMutability": "view",
      "type": "function"
    },
    {
      "inputs": [
        {
          "internalType": "address",
          "name": "account",
          "type": "address"
        }
      ],
      "name": "isMinter",
      "outputs": [
        {
          "internalType": "bool",
          "name": "",
          "type": "bool"
        }
      ],
      "stateMutability": "view",
      "type": "function"
    },
    {
      "inputs": [
        {
          "internalType": "address",
          "name": "account",
          "type": "address"
        },
        {
          "internalType": "uint256",
          "name": "value",
          "type": "uint256"
        }
      ],
      "name": "mint",
      "outputs": [],
      "stateMutability": "nonpayable",
      "type": "function"
    },
    {
      "inputs": [],
      "name": "name",
      "outputs": [
        {
          "internalType": "string",
          "name": "",
          "type": "string"
        }
      ],
      "stateMutability": "view",
      "type": "function"
    },
    {
      "inputs": [
        {
          "internalType": "address",
          "name": "",
          "type": "address"
        }
      ],
      "name": "nonces",
      "outputs": [
        {
          "internalType": "uint256",
          "name": "",
          "type": "uint256"
        }
      ],
      "stateMutability": "view",
      "type": "function"
    },
    {
      "inputs": [
        {
          "internalType": "address",
          "name": "",
          "type": "address"
        }
      ],
      "name": "permissions",
      "outputs": [
        {
          "internalType": "bool",
          "name": "minter",
          "type": "bool"
        },
        {
          "internalType": "bool",
          "name": "paymentManager",
          "type": "bool"
        }
      ],
      "stateMutability": "view",
      "type": "function"
    },
    {
      "inputs": [
        {
          "internalType": "address",
          "name": "owner",
          "type": "address"
        },
        {
          "internalType": "address",
          "name": "spender",
          "type": "address"
        },
        {
          "internalType": "uint256",
          "name": "value",
          "type": "uint256"
        },
        {
          "internalType": "uint256",
          "name": "deadline",
          "type": "uint256"
        },
        {
          "internalType": "uint8",
          "name": "v",
          "type": "uint8"
        },
        {
          "internalType": "bytes32",
          "name": "r",
          "type": "bytes32"
        },
        {
          "internalType": "bytes32",
          "name": "s",
          "type": "bytes32"
        }
      ],
      "name": "permit",
      "outputs": [],
      "stateMutability": "nonpayable",
      "type": "function"
    },
    {
      "inputs": [
        {
          "internalType": "address",
          "name": "_minter",
          "type": "address"
        }
      ],
      "name": "removeMinter",
      "outputs": [],
      "stateMutability": "nonpayable",
      "type": "function"
    },
    {
      "inputs": [
        {
          "internalType": "address",
          "name": "_paymentManager",
          "type": "address"
        }
      ],
      "name": "removePaymentManager",
      "outputs": [],
      "stateMutability": "nonpayable",
      "type": "function"
    },
    {
      "inputs": [],
      "name": "router",
      "outputs": [
        {
          "internalType": "address",
          "name": "",
          "type": "address"
        }
      ],
      "stateMutability": "view",
      "type": "function"
    },
    {
      "inputs": [
        {
          "internalType": "bytes",
          "name": "_value",
          "type": "bytes"
        }
      ],
      "name": "setData",
      "outputs": [],
      "stateMutability": "nonpayable",
      "type": "function"
    },
    {
      "inputs": [
        {
          "internalType": "address",
          "name": "_newPaymentCollector",
          "type": "address"
        }
      ],
      "name": "setPaymentCollector",
      "outputs": [],
      "stateMutability": "nonpayable",
      "type": "function"
    },
    {
      "inputs": [
        {
          "internalType": "address",
          "name": "_publishMarketFeeAddress",
          "type": "address"
        },
        {
          "internalType": "address",
          "name": "_publishMarketFeeToken",
          "type": "address"
        },
        {
          "internalType": "uint256",
          "name": "_publishMarketFeeAmount",
          "type": "uint256"
        }
      ],
      "name": "setPublishingMarketFee",
      "outputs": [],
      "stateMutability": "nonpayable",
      "type": "function"
    },
    {
      "inputs": [
        {
          "internalType": "address",
          "name": "consumer",
          "type": "address"
        },
        {
          "internalType": "uint256",
          "name": "amount",
          "type": "uint256"
        },
        {
          "internalType": "uint256",
          "name": "serviceIndex",
          "type": "uint256"
        },
        {
          "internalType": "address",
          "name": "providerFeeAddress",
          "type": "address"
        },
        {
          "internalType": "address",
          "name": "providerFeeToken",
          "type": "address"
        },
        {
          "internalType": "uint256",
          "name": "providerFeeAmount",
          "type": "uint256"
        }
      ],
      "name": "startOrder",
      "outputs": [],
      "stateMutability": "nonpayable",
      "type": "function"
    },
    {
      "inputs": [],
      "name": "symbol",
      "outputs": [
        {
          "internalType": "string",
          "name": "",
          "type": "string"
        }
      ],
      "stateMutability": "view",
      "type": "function"
    },
    {
      "inputs": [],
      "name": "totalSupply",
      "outputs": [
        {
          "internalType": "uint256",
          "name": "",
          "type": "uint256"
        }
      ],
      "stateMutability": "view",
      "type": "function"
    },
    {
      "inputs": [
        {
          "internalType": "address",
          "name": "recipient",
          "type": "address"
        },
        {
          "internalType": "uint256",
          "name": "amount",
          "type": "uint256"
        }
      ],
      "name": "transfer",
      "outputs": [
        {
          "internalType": "bool",
          "name": "",
          "type": "bool"
        }
      ],
      "stateMutability": "nonpayable",
      "type": "function"
    },
    {
      "inputs": [
        {
          "internalType": "address",
          "name": "sender",
          "type": "address"
        },
        {
          "internalType": "address",
          "name": "recipient",
          "type": "address"
        },
        {
          "internalType": "uint256",
          "name": "amount",
          "type": "uint256"
        }
      ],
      "name": "transferFrom",
      "outputs": [
        {
          "internalType": "bool",
          "name": "",
          "type": "bool"
        }
      ],
      "stateMutability": "nonpayable",
      "type": "function"
    },
    {
      "inputs": [],
      "name": "withdrawETH",
      "outputs": [],
      "stateMutability": "payable",
      "type": "function"
    }
  ],
  "bytecode": "0x6080604052600a805460ff60a01b191690553480156200001e57600080fd5b5060408051808201825260048152631d195cdd60e21b60208083019182528351808501909452600a8452691d195cdd14de5b589bdb60b21b9084015281519192916200006d916003916200008c565b508051620000839060049060208401906200008c565b5050506200016f565b8280546200009a9062000132565b90600052602060002090601f016020900481019282620000be576000855562000109565b82601f10620000d957805160ff191683800117855562000109565b8280016001018555821562000109579182015b8281111562000109578251825591602001919060010190620000ec565b50620001179291506200011b565b5090565b5b808211156200011757600081556001016200011c565b600181811c908216806200014757607f821691505b602082108114156200016957634e487b7160e01b600052602260045260246000fd5b50919050565b6142e4806200017f6000396000f3fe6080604052600436106102725760003560e01c806370a082311161014e578063ab62f0e1116100bb578063e487c2e811610077578063e487c2e81461081a578063ec342ad01461082f578063ef867ff41461084b578063f887ea401461086b578063f94bb4211461088b578063fda9dae7146108ab57005b8063ab62f0e114610757578063b2263a5d14610777578063b3998be01461078c578063d505accf146107ac578063dd62ed3e146107cc578063e086e5ec1461081257005b806396fb3eaf1161010a57806396fb3eaf1461067e578063983b2d561461069e578063a457c2d7146106be578063a9059cbb146106de578063aa271e1a146106fe578063aa492ef91461073757005b806370a08231146105b157806379cc6790146105e75780637ecebe001461060757806382c03da5146106345780638b96412b1461064957806395d89b411461066957005b8063355274ea116101ec57806340c10f19116101a857806340c10f191461050857806342966c68146105285780634f189cb21461054857806357a3a31b1461055d57806357ad5ff61461057d5780635d1ca6311461059d57005b8063355274ea146104425780633644e51514610457578063383028501461046d578063392e53cd1461048d57806339509351146104ac578063397b3743146104cc57005b80631d069feb1161023b5780631d069feb1461036c57806323b872dd1461038c57806325b00243146103ac5780633092afd5146103cc57806330adf81f146103ec578063313ce5671461042057005b80627ffb781461027457806301e88208146102ab57806306fdde03146102fb578063095ea7b31461031d57806318160ddd1461034d575b005b34801561028057600080fd5b50600b546001600160a01b03165b6040516001600160a01b0390911681526020015b60405180910390f35b3480156102b757600080fd5b506102e46102c63660046135a7565b60056020526000908152604090205460ff8082169161010090041682565b6040805192151583529015156020830152016102a2565b34801561030757600080fd5b506103106108cb565b6040516102a291906135f0565b34801561032957600080fd5b5061033d610338366004613623565b61095d565b60405190151581526020016102a2565b34801561035957600080fd5b506002545b6040519081526020016102a2565b34801561037857600080fd5b5061027261038736600461372b565b610973565b34801561039857600080fd5b5061033d6103a73660046137d4565b610d43565b3480156103b857600080fd5b506102726103c73660046135a7565b610def565b3480156103d857600080fd5b506102726103e73660046135a7565b610e89565b3480156103f857600080fd5b5061035e7f6e71edae12b1b97f4d1f60370fef10105fa2faae0126114a169c64845d6126c981565b34801561042c57600080fd5b5060125b60405160ff90911681526020016102a2565b34801561044e57600080fd5b5060095461035e565b34801561046357600080fd5b5061035e60105481565b34801561047957600080fd5b50610272610488366004613815565b610f20565b34801561049957600080fd5b50600a54600160a01b900460ff1661033d565b3480156104b857600080fd5b5061033d6104c7366004613623565b611028565b3480156104d857600080fd5b50600d54600e54600f54604080516001600160a01b039485168152939092166020840152908201526060016102a2565b34801561051457600080fd5b50610272610523366004613623565b611064565b34801561053457600080fd5b5061027261054336600461384d565b611131565b34801561055457600080fd5b5061027261113b565b34801561056957600080fd5b506102726105783660046135a7565b611222565b34801561058957600080fd5b506102726105983660046137d4565b611364565b3480156105a957600080fd5b506002610430565b3480156105bd57600080fd5b5061035e6105cc3660046135a7565b6001600160a01b031660009081526020819052604090205490565b3480156105f357600080fd5b50610272610602366004613623565b6114b8565b34801561061357600080fd5b5061035e6106223660046135a7565b60116020526000908152604090205481565b34801561064057600080fd5b5061027261153e565b34801561065557600080fd5b5061035e6106643660046138f5565b611598565b34801561067557600080fd5b50610310611759565b34801561068a57600080fd5b5061033d6106993660046135a7565b611768565b3480156106aa57600080fd5b506102726106b93660046135a7565b6117e3565b3480156106ca57600080fd5b5061033d6106d9366004613623565b61187a565b3480156106ea57600080fd5b5061033d6106f9366004613623565b611913565b34801561070a57600080fd5b5061033d6107193660046135a7565b6001600160a01b031660009081526005602052604090205460ff1690565b34801561074357600080fd5b506102726107523660046135a7565b611920565b34801561076357600080fd5b506102726107723660046139cb565b6119b7565b34801561078357600080fd5b5061035e611ae8565b34801561079857600080fd5b5061033d6107a7366004613a89565b611afe565b3480156107b857600080fd5b506102726107c7366004613b7a565b611c38565b3480156107d857600080fd5b5061035e6107e7366004613bf1565b6001600160a01b03918216600090815260016020908152604080832093909416825291909152205490565b610272611e4a565b34801561082657600080fd5b5061028e611e8a565b34801561083b57600080fd5b5061035e670de0b6b3a764000081565b34801561085757600080fd5b5061028e61086636600461384d565b611f1f565b34801561087757600080fd5b5060125461028e906001600160a01b031681565b34801561089757600080fd5b506102726108a6366004613c2d565b611f49565b3480156108b757600080fd5b506102726108c6366004613c77565b61206c565b6060600780546108da90613cde565b80601f016020809104026020016040519081016040528092919081815260200182805461090690613cde565b80156109535780601f1061092857610100808354040283529160200191610953565b820191906000526020600020905b81548152906001019060200180831161093657829003601f168201915b5050505050905090565b600061096a338484612082565b50600192915050565b80516020820151604051634c87087d60e01b815260009283926001600160a01b0390911691634c87087d916109ae9160040190815260200190565b61018060405180830381865afa1580156109cc573d6000803e3d6000fd5b505050506040513d601f19601f820116820180604052508101906109f09190613d19565b5050505050505050935050925050306001600160a01b0316826001600160a01b031614610a745760405162461bcd60e51b815260206004820152602760248201527f5468697320466978656452617465206973206e6f742070726f766964696e67206044820152661d1a1a5cc8111560ca1b60648201526084015b60405180910390fd5b82516020808501519086015160405163c99733a760e01b81526004810192909252602482015260009182916001600160a01b039091169063c99733a790604401608060405180830381865afa158015610ad1573d6000803e3d6000fd5b505050506040513d601f19601f82011682018060405250810190610af59190613dd6565b5050915091508460400151821115610b5f5760405162461bcd60e51b815260206004820152602760248201527f46697865645261746545786368616e67653a20546f6f206d616e79206261736560448201526620746f6b656e7360c81b6064820152608401610a6b565b6000670de0b6b3a7640000866060015183610b7a9190613e22565b610b849190613e41565b9050610b908184613e63565b9250610ba76001600160a01b0385163330866121a6565b8551610bbe906001600160a01b0386169085612211565b85516020808801519089015160405163412dae6b60e11b815260048101929092526024820152604481018590526001600160a01b039091169063825b5cd690606401600060405180830381600087803b158015610c1a57600080fd5b505af1158015610c2e573d6000803e3d6000fd5b505050508660200151610c56306001600160a01b031660009081526020819052604090205490565b1015610ca45760405162461bcd60e51b815260206004820152601f60248201527f556e61626c6520746f206275792044542066726f6d20466978656452617465006044820152606401610a6b565b610cb3303389602001516122c3565b610cd98760000151886020015189604001518a606001518b608001518c60a00151612491565b8015610cf9576080860151610cf9906001600160a01b038616908361276b565b60408051338152602081018590529081018290527fe89458a7527f4bf466ab18794ab8b1ca208b478483a1a87bcf0d976d421b4aff9060600160405180910390a150505050505050565b6000610d508484846122c3565b6001600160a01b038416600090815260016020908152604080832033845290915290205482811015610dd55760405162461bcd60e51b815260206004820152602860248201527f45524332303a207472616e7366657220616d6f756e74206578636565647320616044820152676c6c6f77616e636560c01b6064820152608401610a6b565b610de28533858403612082565b60019150505b9392505050565b600b5460405163160a792560e01b81523360048201526001600160a01b039091169063160a7925906024016080604051808303816000875af1158015610e39573d6000803e3d6000fd5b505050506040513d601f19601f82011682018060405250810190610e5d9190613e7b565b60200151610e7d5760405162461bcd60e51b8152600401610a6b90613f00565b610e868161279b565b50565b600b5460405163160a792560e01b81523360048201526001600160a01b039091169063160a7925906024016080604051808303816000875af1158015610ed3573d6000803e3d6000fd5b505050506040513d601f19601f82011682018060405250810190610ef79190613e7b565b60200151610f175760405162461bcd60e51b8152600401610a6b90613f00565b610e8681612808565b6020820151604051631d746d8360e01b815230600482015260248101919091523360448201526001600160a01b03821690631d746d8390606401600060405180830381600087803b158015610f7457600080fd5b505af1158015610f88573d6000803e3d6000fd5b505050508160200151610fb0336001600160a01b031660009081526020819052604090205490565b1015610ffe5760405162461bcd60e51b815260206004820152601f60248201527f556e61626c6520746f206765742044542066726f6d2044697370656e736572006044820152606401610a6b565b611024826000015183602001518460400151856060015186608001518760a00151612491565b5050565b3360008181526001602090815260408083206001600160a01b0387168452909152812054909161096a91859061105f908690613e63565b612082565b3360009081526005602052604090205460ff166110c35760405162461bcd60e51b815260206004820152601960248201527f455243323054656d706c6174653a204e4f54204d494e544552000000000000006044820152606401610a6b565b6009546110d9826110d360025490565b90612868565b11156111275760405162461bcd60e51b815260206004820152601f60248201527f44617461546f6b656e54656d706c6174653a20636170206578636565646564006044820152606401610a6b565b6110248282612874565b610e863382612953565b600b546040516331a9108f60e11b8152600160048201526001600160a01b0390911690636352211e90602401602060405180830381865afa158015611184573d6000803e3d6000fd5b505050506040513d601f19601f820116820180604052508101906111a89190613f35565b6001600160a01b0316336001600160a01b0316146112085760405162461bcd60e51b815260206004820152601b60248201527f455243323054656d706c6174653a206e6f74204e46544f776e657200000000006044820152606401610a6b565b611210612aa1565b600c80546001600160a01b0319169055565b33600090815260056020526040902054610100900460ff16806112b35750600b5460405163160a792560e01b81523360048201526001600160a01b039091169063160a7925906024016080604051808303816000875af115801561128a573d6000803e3d6000fd5b505050506040513d601f19601f820116820180604052508101906112ae9190613e7b565b602001515b6113135760405162461bcd60e51b815260206004820152602b60248201527f455243323054656d706c6174653a204e4f54205041594d454e54204d414e414760448201526a22a91037b91027aba722a960a91b6064820152608401610a6b565b61131c81612b50565b604080514281524360208201526001600160a01b0383169133917f4d7694d695c57cc54947177c8e8a0e61aae664e9223492a798c32fadfc6419cc910160405180910390a350565b600d546001600160a01b031633146113d15760405162461bcd60e51b815260206004820152602a60248201527f455243323054656d706c6174653a206e6f74207075626c6973684d61726b65746044820152694665654164647265737360b01b6064820152608401610a6b565b6001600160a01b0383166114385760405162461bcd60e51b815260206004820152602860248201527f496e76616c6964205f7075626c6973684d61726b657446656541646472657373604482015267206164647265737360c01b6064820152608401610a6b565b600d80546001600160a01b038581166001600160a01b03199283168117909355600e8054918616919092168117909155600f839055604080513381526020810193909352820152606081018290527fe0b85b6f04fa914cf57f6401c5672a83a32b1c388d194c3d78e17f2897d46f439060800160405180910390a1505050565b60006114c483336107e7565b9050818110156115225760405162461bcd60e51b8152602060048201526024808201527f45524332303a206275726e20616d6f756e74206578636565647320616c6c6f77604482015263616e636560e01b6064820152608401610a6b565b61152f8333848403612082565b6115398383612953565b505050565b600b546001600160a01b031633146112085760405162461bcd60e51b815260206004820152601f60248201527f455243323054656d706c6174653a204e4f542037323120436f6e7472616374006044820152606401610a6b565b600b5460405163160a792560e01b81523360048201526000916001600160a01b03169063160a7925906024016080604051808303816000875af11580156115e3573d6000803e3d6000fd5b505050506040513d601f19601f820116820180604052508101906116079190613e7b565b602001516116275760405162461bcd60e51b8152600401610a6b90613f00565b308360038151811061163b5761163b613f52565b6001600160a01b039283166020918202929092010152601254604051638244937560e01b815291169063824493759061167c90879087908790600401613f68565b6020604051808303816000875af115801561169b573d6000803e3d6000fd5b505050506040513d601f19601f820116820180604052508101906116bf9190613ffc565b90506000826004815181106116d6576116d6613f52565b602002602001015111156116ed576116ed84612b72565b7f195d202f33578769e120c3041341554af3193e67ee004175095bc9c06e6e6165818460008151811061172257611722613f52565b602002602001015160405161174a9291909182526001600160a01b0316602082015260400190565b60405180910390a19392505050565b6060600880546108da90613cde565b600b5460405163160a792560e01b81526001600160a01b038381166004830152600092169063160a7925906024016080604051808303816000875af11580156117b5573d6000803e3d6000fd5b505050506040513d601f19601f820116820180604052508101906117d99190613e7b565b6020015192915050565b600b5460405163160a792560e01b81523360048201526001600160a01b039091169063160a7925906024016080604051808303816000875af115801561182d573d6000803e3d6000fd5b505050506040513d601f19601f820116820180604052508101906118519190613e7b565b602001516118715760405162461bcd60e51b8152600401610a6b90613f00565b610e8681612b72565b3360009081526001602090815260408083206001600160a01b0386168452909152812054828110156118fc5760405162461bcd60e51b815260206004820152602560248201527f45524332303a2064656372656173656420616c6c6f77616e63652062656c6f77604482015264207a65726f60d81b6064820152608401610a6b565b6119093385858403612082565b5060019392505050565b600061096a3384846122c3565b600b5460405163160a792560e01b81523360048201526001600160a01b039091169063160a7925906024016080604051808303816000875af115801561196a573d6000803e3d6000fd5b505050506040513d601f19601f8201168201806040525081019061198e9190613e7b565b602001516119ae5760405162461bcd60e51b8152600401610a6b90613f00565b610e8681612c6c565b600b5460405163160a792560e01b81523360048201526001600160a01b039091169063160a7925906024016080604051808303816000875af1158015611a01573d6000803e3d6000fd5b505050506040513d601f19601f82011682018060405250810190611a259190613e7b565b60200151611a455760405162461bcd60e51b8152600401610a6b90613f00565b6040516bffffffffffffffffffffffff193060601b16602082015260009060340160408051601f19818403018152908290528051602090910120600b546301caf8fd60e31b83529092506001600160a01b031690630e57c7e890611ab190849087908790600401614015565b600060405180830381600087803b158015611acb57600080fd5b505af1158015611adf573d6000803e3d6000fd5b50505050505050565b611afb6064670de0b6b3a7640000613e41565b81565b600a54600090600160a01b900460ff1615611b755760405162461bcd60e51b815260206004820152603160248201527f455243323054656d706c6174653a20746f6b656e20696e7374616e636520616c6044820152701c9958591e481a5b9a5d1a585b1a5e9959607a1b6064820152608401610a6b565b611c29611b828b8d6140a3565b8a8a8080602002602001604051908101604052809392919081815260200183836020028082843760009201919091525050604080516020808e0282810182019093528d82529093508d92508c91829185019084908082843760009201919091525050604080516020808d0282810182019093528c82529093508c92508b918291850190849080828437600092019190915250611c2492508991508a905061412b565b612d7a565b9b9a5050505050505050505050565b43841015611c7b5760405162461bcd60e51b815260206004820152601060248201526f115490cc8c11150e881156141254915160821b6044820152606401610a6b565b6010546001600160a01b038816600090815260116020526040812080549192917f6e71edae12b1b97f4d1f60370fef10105fa2faae0126114a169c64845d6126c9918b918b918b919087611cce836141a7565b909155506040805160208101969096526001600160a01b0394851690860152929091166060840152608083015260a082015260c0810187905260e00160405160208183030381529060405280519060200120604051602001611d4792919061190160f01b81526002810192909252602282015260420190565b60408051601f198184030181528282528051602091820120600080855291840180845281905260ff88169284019290925260608301869052608083018590529092509060019060a0016020604051602081039080840390855afa158015611db2573d6000803e3d6000fd5b5050604051601f1901519150506001600160a01b03811615801590611de85750886001600160a01b0316816001600160a01b0316145b611e345760405162461bcd60e51b815260206004820152601a60248201527f455243323044543a20494e56414c49445f5349474e41545552450000000000006044820152606401610a6b565b611e3f898989612082565b505050505050505050565b611e52611e8a565b6001600160a01b03166108fc479081150290604051600060405180830381858888f19350505050158015610e86573d6000803e3d6000fd5b600c546000906001600160a01b0316611f0f57600b546040516331a9108f60e11b8152600160048201526001600160a01b0390911690636352211e90602401602060405180830381865afa158015611ee6573d6000803e3d6000fd5b505050506040513d601f19601f82011682018060405250810190611f0a9190613f35565b905090565b50600c546001600160a01b031690565b60068181548110611f2f57600080fd5b6000918252602090912001546001600160a01b0316905081565b600b5460405163160a792560e01b81523360048201526001600160a01b039091169063160a7925906024016080604051808303816000875af1158015611f93573d6000803e3d6000fd5b505050506040513d601f19601f82011682018060405250810190611fb79190613e7b565b60200151611fd75760405162461bcd60e51b8152600401610a6b90613f00565b601254604051636b14d00560e11b81526001600160a01b0386811660048301523060248301819052604483018790526064830186905233608484015260a48301529091169063d629a00a9060c401600060405180830381600087803b15801561203f57600080fd5b505af1158015612053573d6000803e3d6000fd5b5050505080156120665761206684612b72565b50505050565b61207a868686868686612491565b505050505050565b6001600160a01b0383166120e45760405162461bcd60e51b8152602060048201526024808201527f45524332303a20617070726f76652066726f6d20746865207a65726f206164646044820152637265737360e01b6064820152608401610a6b565b6001600160a01b0382166121455760405162461bcd60e51b815260206004820152602260248201527f45524332303a20617070726f766520746f20746865207a65726f206164647265604482015261737360f01b6064820152608401610a6b565b6001600160a01b0383811660008181526001602090815260408083209487168084529482529182902085905590518481527f8c5be1e5ebec7d5bd14f71427d1e84f3dd0314c0f7b2291e5b200ac8c7c3b925910160405180910390a3505050565b6040516001600160a01b03808516602483015283166044820152606481018290526120669085906323b872dd60e01b906084015b60408051601f198184030181529190526020810180516001600160e01b03166001600160e01b031990931692909217909152613279565b604051636eb1769f60e11b81523060048201526001600160a01b038381166024830152600091839186169063dd62ed3e90604401602060405180830381865afa158015612262573d6000803e3d6000fd5b505050506040513d601f19601f820116820180604052508101906122869190613ffc565b6122909190613e63565b6040516001600160a01b03851660248201526044810182905290915061206690859063095ea7b360e01b906064016121da565b6001600160a01b0383166123275760405162461bcd60e51b815260206004820152602560248201527f45524332303a207472616e736665722066726f6d20746865207a65726f206164604482015264647265737360d81b6064820152608401610a6b565b6001600160a01b0382166123895760405162461bcd60e51b815260206004820152602360248201527f45524332303a207472616e7366657220746f20746865207a65726f206164647260448201526265737360e81b6064820152608401610a6b565b6001600160a01b038316600090815260208190526040902054818110156124015760405162461bcd60e51b815260206004820152602660248201527f45524332303a207472616e7366657220616d6f756e7420657863656564732062604482015265616c616e636560d01b6064820152608401610a6b565b6001600160a01b03808516600090815260208190526040808220858503905591851681529081208054849290612438908490613e63565b92505081905550826001600160a01b0316846001600160a01b03167fddf252ad1be2c89b69c2b068fc378daa952ba7f163c4a11628f55a4df523b3ef8460405161248491815260200190565b60405180910390a3612066565b336000908152602081905260408120548611156124fe5760405162461bcd60e51b815260206004820152602560248201527f4e6f7420656e6f756768204461746120546f6b656e7320746f2073746172742060448201526427b93232b960d91b6064820152608401610a6b565b600d5460408051338152602081018990529081018790524260608201524360808201526001600160a01b03918216918916907fe1c4fa794edfa8f619b8257a077398950357b9c6398528f94480307352f9afcc9060a00160405180910390a36000600f541180156125795750600e546001600160a01b031615155b801561258f5750600d546001600160a01b031615155b156126ba57600f54600e546125b3916001600160a01b0390911690339030906121a6565b600f546125c190606461334b565b600d54600f549192506125f7916001600160a01b03909116906125e49084613357565b600e546001600160a01b0316919061276b565b600e54600d54600f546001600160a01b0392831692909116907ff666b31c81334b6085802ba4149907fa724689d43bc31df6de1a51291ddc55b49061263c9085613357565b60405190815260200160405180910390a380156126ba57600a54600e54612670916001600160a01b0391821691168361276b565b600e54600a546040518381526001600160a01b0392831692909116907ff666b31c81334b6085802ba4149907fa724689d43bc31df6de1a51291ddc55b49060200160405180910390a35b6000821180156126d257506001600160a01b03831615155b80156126e657506001600160a01b03841615155b15612762576127006001600160a01b0384163330856121a6565b6127146001600160a01b038416858461276b565b826001600160a01b0316846001600160a01b03167f1c540397cffcfd0fa041ec7e0d246506db42327dc3346fe1951185dc734569e48460405161275991815260200190565b60405180910390a35b611adf86611131565b6040516001600160a01b03831660248201526044810182905261153990849063a9059cbb60e01b906064016121da565b6001600160a01b03811660008181526005602052604090819020805461ff00191681559051909133917faee911eec8b2df8f3ae0464841541b1e5f339519bd5cf51889fe8b07fecff658906127fc9042904390918252602082015260400190565b60405180910390a35050565b6001600160a01b03811660008181526005602052604090819020805460ff191681559051909133917fefa2735987005aaa89c050c0ff8cc9ae7d9079d19382081c429130f98c52d480906127fc9042904390918252602082015260400190565b6000610de88284613e63565b6001600160a01b0382166128ca5760405162461bcd60e51b815260206004820152601f60248201527f45524332303a206d696e7420746f20746865207a65726f2061646472657373006044820152606401610a6b565b80600260008282546128dc9190613e63565b90915550506001600160a01b03821660009081526020819052604081208054839290612909908490613e63565b90915550506040518181526001600160a01b038316906000907fddf252ad1be2c89b69c2b068fc378daa952ba7f163c4a11628f55a4df523b3ef9060200160405180910390a35050565b6001600160a01b0382166129b35760405162461bcd60e51b815260206004820152602160248201527f45524332303a206275726e2066726f6d20746865207a65726f206164647265736044820152607360f81b6064820152608401610a6b565b6001600160a01b03821660009081526020819052604090205481811015612a275760405162461bcd60e51b815260206004820152602260248201527f45524332303a206275726e20616d6f756e7420657863656564732062616c616e604482015261636560f01b6064820152608401610a6b565b6001600160a01b0383166000908152602081905260408120838303905560028054849290612a569084906141c2565b90915550506040518281526000906001600160a01b038516907fddf252ad1be2c89b69c2b068fc378daa952ba7f163c4a11628f55a4df523b3ef9060200160405180910390a3505050565b60005b600654811015612b075760006005600060068481548110612ac757612ac7613f52565b60009182526020808320909101546001600160a01b031683528201929092526040019020805461ffff191690555080612aff816141a7565b915050612aa4565b50612b14600660006134db565b6040805142815243602082015233917f712bc71db81927a76b8bf1ea346247bb0ad58f18e4e5c1bd4aa0ec6573e02a2b910160405180910390a2565b600c80546001600160a01b0319166001600160a01b0392909216919091179055565b6001600160a01b0381166000908152600560205260409020805460ff1615612bdc5760405162461bcd60e51b815260206004820152601d60248201527f4552433230526f6c65733a2020414c52454144592041204d494e5445520000006044820152606401610a6b565b8054600160ff19909116811782556006805491820181556000527ff652222313e28459528d920b65115c16c04f3efc82aaedc97be59f3f377c0d3f0180546001600160a01b0319166001600160a01b038416908117909155604080514281524360208201523392917f4f7e100eb1ee13e903798bd0d6aa854152e07eb05544f392b9409c12935c809591016127fc565b6001600160a01b03811660009081526005602052604090208054610100900460ff1615612ce65760405162461bcd60e51b815260206004820152602260248201527f4552433230526f6c65733a2020414c5245414459204120464545204d414e414760448201526122a960f11b6064820152608401610a6b565b805461ff001916610100178155600680546001810182556000919091527ff652222313e28459528d920b65115c16c04f3efc82aaedc97be59f3f377c0d3f0180546001600160a01b0384166001600160a01b03199091168117909155604080514281524360208201523392917fb17da2e9910b4ba5754e8872385ba315a238bafb5ae221fc85093c33432c40a791016127fc565b60008084600081518110612d9057612d90613f52565b60200260200101519050600085600181518110612daf57612daf613f52565b6020026020010151905060006001600160a01b0316826001600160a01b03161415612e315760405162461bcd60e51b815260206004820152602c60248201527f455243323054656d706c6174653a20496e76616c6964206d696e7465722c202060448201526b7a65726f206164647265737360a01b6064820152608401610a6b565b6001600160a01b038116612ead5760405162461bcd60e51b815260206004820152603c60248201527f455243323054656d706c6174653a20496e76616c696420636f6d6d756e69747960448201527f2066656520636f6c6c6563746f722c207a65726f2061646472657373000000006064820152608401610a6b565b84600081518110612ec057612ec0613f52565b602002602001015160001415612f245760405162461bcd60e51b8152602060048201526024808201527f44617461546f6b656e54656d706c6174653a20496e76616c6964206361702076604482015263616c756560e01b6064820152608401610a6b565b84600081518110612f3757612f37613f52565b602002602001015160098190555087600081518110612f5857612f58613f52565b602002602001015160079080519060200190612f759291906134f9565b5087600181518110612f8957612f89613f52565b602002602001015160089080519060200190612fa69291906134f9565b50600b80546001600160a01b0319166001600160a01b038416179055855186906002908110612fd757612fd7613f52565b6020908102919091010151601280546001600160a01b039283166001600160a01b0319909116179055600a80546001600160a81b03191691831691909117600160a01b179055865161304190889060009061303457613034613f52565b6020026020010151612b72565b60006001600160a01b03168760018151811061305f5761305f613f52565b60200260200101516001600160a01b031614613109576130988760018151811061308b5761308b613f52565b6020026020010151612b50565b866001815181106130ab576130ab613f52565b60200260200101516001600160a01b0316336001600160a01b03167f4d7694d695c57cc54947177c8e8a0e61aae664e9223492a798c32fadfc6419cc4243604051613100929190918252602082015260400190565b60405180910390a35b8660028151811061311c5761311c613f52565b6020026020010151600d60006101000a8154816001600160a01b0302191690836001600160a01b031602179055508660038151811061315d5761315d613f52565b6020026020010151600e60006101000a8154816001600160a01b0302191690836001600160a01b031602179055508460018151811061319e5761319e613f52565b6020026020010151600f8190555060004690507f8b73c3c69bb8fe3d512ecc4cf759cc79239f7b179b0ffacaa9a75d522b39400f60076040516131e191906141d9565b60408051918290038220828201825260018352603160f81b6020938401528151928301939093528101919091527fc89efdaa54c0f20c7adf612882df0950f5a951637e0307cdcb4c672f298b8bc66060820152608081018290523060a082015260c00160408051808303601f1901815291905280516020909101206010555050600a54600160a01b900460ff16979650505050505050565b60006132ce826040518060400160405280602081526020017f5361666545524332303a206c6f772d6c6576656c2063616c6c206661696c6564815250856001600160a01b03166133639092919063ffffffff16565b80519091501561153957808060200190518101906132ec9190614275565b6115395760405162461bcd60e51b815260206004820152602a60248201527f5361666545524332303a204552433230206f7065726174696f6e20646964206e6044820152691bdd081cdd58d8d9595960b21b6064820152608401610a6b565b6000610de88284613e41565b6000610de882846141c2565b6060613372848460008561337a565b949350505050565b6060824710156133db5760405162461bcd60e51b815260206004820152602660248201527f416464726573733a20696e73756666696369656e742062616c616e636520666f6044820152651c8818d85b1b60d21b6064820152608401610a6b565b843b6134295760405162461bcd60e51b815260206004820152601d60248201527f416464726573733a2063616c6c20746f206e6f6e2d636f6e74726163740000006044820152606401610a6b565b600080866001600160a01b031685876040516134459190614292565b60006040518083038185875af1925050503d8060008114613482576040519150601f19603f3d011682016040523d82523d6000602084013e613487565b606091505b50915091506134978282866134a2565b979650505050505050565b606083156134b1575081610de8565b8251156134c15782518084602001fd5b8160405162461bcd60e51b8152600401610a6b91906135f0565b5080546000825590600052602060002090810190610e86919061357d565b82805461350590613cde565b90600052602060002090601f016020900481019282613527576000855561356d565b82601f1061354057805160ff191683800117855561356d565b8280016001018555821561356d579182015b8281111561356d578251825591602001919060010190613552565b5061357992915061357d565b5090565b5b80821115613579576000815560010161357e565b6001600160a01b0381168114610e8657600080fd5b6000602082840312156135b957600080fd5b8135610de881613592565b60005b838110156135df5781810151838201526020016135c7565b838111156120665750506000910152565b602081526000825180602084015261360f8160408501602087016135c4565b601f01601f19169190910160400192915050565b6000806040838503121561363657600080fd5b823561364181613592565b946020939093013593505050565b634e487b7160e01b600052604160045260246000fd5b604051601f8201601f1916810167ffffffffffffffff8111828210171561368e5761368e61364f565b604052919050565b600060c082840312156136a857600080fd5b60405160c0810181811067ffffffffffffffff821117156136cb576136cb61364f565b60405290508082356136dc81613592565b808252506020830135602082015260408301356040820152606083013561370281613592565b6060820152608083013561371581613592565b608082015260a092830135920191909152919050565b60008082840361016081121561374057600080fd5b61374a8585613696565b925060a060bf198201121561375e57600080fd5b5060405160a0810181811067ffffffffffffffff821117156137825761378261364f565b60405260c084013561379381613592565b815260e08401356020820152610100840135604082015261012084013560608201526101408401356137c481613592565b6080820152919491935090915050565b6000806000606084860312156137e957600080fd5b83356137f481613592565b9250602084013561380481613592565b929592945050506040919091013590565b60008060e0838503121561382857600080fd5b6138328484613696565b915060c083013561384281613592565b809150509250929050565b60006020828403121561385f57600080fd5b5035919050565b600067ffffffffffffffff8211156138805761388061364f565b5060051b60200190565b600082601f83011261389b57600080fd5b813560206138b06138ab83613866565b613665565b82815260059290921b840181019181810190868411156138cf57600080fd5b8286015b848110156138ea57803583529183019183016138d3565b509695505050505050565b60008060006060848603121561390a57600080fd5b833561391581613592565b925060208481013567ffffffffffffffff8082111561393357600080fd5b818701915087601f83011261394757600080fd5b81356139556138ab82613866565b81815260059190911b8301840190848101908a83111561397457600080fd5b938501935b8285101561399b57843561398c81613592565b82529385019390850190613979565b9650505060408701359250808311156139b357600080fd5b50506139c18682870161388a565b9150509250925092565b600080602083850312156139de57600080fd5b823567ffffffffffffffff808211156139f657600080fd5b818501915085601f830112613a0a57600080fd5b813581811115613a1957600080fd5b866020828501011115613a2b57600080fd5b60209290920196919550909350505050565b60008083601f840112613a4f57600080fd5b50813567ffffffffffffffff811115613a6757600080fd5b6020830191508360208260051b8501011115613a8257600080fd5b9250929050565b60008060008060008060008060008060a08b8d031215613aa857600080fd5b8a3567ffffffffffffffff80821115613ac057600080fd5b613acc8e838f01613a3d565b909c509a5060208d0135915080821115613ae557600080fd5b613af18e838f01613a3d565b909a50985060408d0135915080821115613b0a57600080fd5b613b168e838f01613a3d565b909850965060608d0135915080821115613b2f57600080fd5b613b3b8e838f01613a3d565b909650945060808d0135915080821115613b5457600080fd5b50613b618d828e01613a3d565b915080935050809150509295989b9194979a5092959850565b600080600080600080600060e0888a031215613b9557600080fd5b8735613ba081613592565b96506020880135613bb081613592565b95506040880135945060608801359350608088013560ff81168114613bd457600080fd5b9699959850939692959460a0840135945060c09093013592915050565b60008060408385031215613c0457600080fd5b8235613c0f81613592565b9150602083013561384281613592565b8015158114610e8657600080fd5b60008060008060808587031215613c4357600080fd5b8435613c4e81613592565b935060208501359250604085013591506060850135613c6c81613c1f565b939692955090935050565b60008060008060008060c08789031215613c9057600080fd5b8635613c9b81613592565b955060208701359450604087013593506060870135613cb981613592565b92506080870135613cc981613592565b8092505060a087013590509295509295509295565b600181811c90821680613cf257607f821691505b60208210811415613d1357634e487b7160e01b600052602260045260246000fd5b50919050565b6000806000806000806000806000806000806101808d8f031215613d3c57600080fd5b8c51613d4781613592565b60208e0151909c50613d5881613592565b60408e015160608f0151919c509a50613d7081613592565b8099505060808d0151975060a08d0151965060c08d0151613d9081613c1f565b8096505060e08d015194506101008d015193506101208d015192506101408d015191506101608d0151613dc281613c1f565b809150509295989b509295989b509295989b565b60008060008060808587031215613dec57600080fd5b505082516020840151604085015160609095015191969095509092509050565b634e487b7160e01b600052601160045260246000fd5b6000816000190483118215151615613e3c57613e3c613e0c565b500290565b600082613e5e57634e487b7160e01b600052601260045260246000fd5b500490565b60008219821115613e7657613e76613e0c565b500190565b600060808284031215613e8d57600080fd5b6040516080810181811067ffffffffffffffff82111715613eb057613eb061364f565b6040528251613ebe81613c1f565b81526020830151613ece81613c1f565b60208201526040830151613ee181613c1f565b60408201526060830151613ef481613c1f565b60608201529392505050565b6020808252818101527f455243323054656d706c6174653a204e4f54204445504c4f59455220524f4c45604082015260600190565b600060208284031215613f4757600080fd5b8151610de881613592565b634e487b7160e01b600052603260045260246000fd5b6001600160a01b038481168252606060208084018290528551918401829052600092868201929091906080860190855b81811015613fb6578551851683529483019491830191600101613f98565b5050858103604087015286518082529082019350915080860160005b83811015613fee57815185529382019390820190600101613fd2565b509298975050505050505050565b60006020828403121561400e57600080fd5b5051919050565b83815260406020820152816040820152818360608301376000818301606090810191909152601f909201601f1916010192915050565b600067ffffffffffffffff8311156140655761406561364f565b614078601f8401601f1916602001613665565b905082815283838301111561408c57600080fd5b828260208301376000602084830101529392505050565b60006140b16138ab84613866565b80848252602080830192508560051b8501368111156140cf57600080fd5b855b8181101561411f57803567ffffffffffffffff8111156140f15760008081fd5b870136601f8201126141035760008081fd5b61411136823586840161404b565b8652509382019382016140d1565b50919695505050505050565b60006141396138ab84613866565b80848252602080830192508560051b85013681111561415757600080fd5b855b8181101561411f57803567ffffffffffffffff8111156141795760008081fd5b870136601f82011261418b5760008081fd5b61419936823586840161404b565b865250938201938201614159565b60006000198214156141bb576141bb613e0c565b5060010190565b6000828210156141d4576141d4613e0c565b500390565b600080835481600182811c9150808316806141f557607f831692505b602080841082141561421557634e487b7160e01b86526022600452602486fd5b818015614229576001811461423a57614267565b60ff19861689528489019650614267565b60008a81526020902060005b8681101561425f5781548b820152908501908301614246565b505084890196505b509498975050505050505050565b60006020828403121561428757600080fd5b8151610de881613c1f565b600082516142a48184602087016135c4565b919091019291505056fea264697066735822122001e3e2334938b764df94b55d65c3fb287b802442eb1c1e554e56878c3c22e93c64736f6c634300080a0033",
  "linkReferences": {},
  "deployedLinkReferences": {}
}