{
  "_format": "hh-sol-artifact-1",
  "contractName": "ERC20TemplateEnterprise",
  "sourceName": "contracts/templates/ERC20TemplateEnterprise.sol",
  "abi": [
    {
      "anonymous": false,
      "inputs": [
        {
          "indexed": true,
          "internalType": "address",
          "name": "user",
          "type": "address"
        },
        {
          "indexed": true,
          "internalType": "address",
          "name": "signer",
          "type": "address"
        },
        {
          "indexed": false,
          "internalType": "uint256",
          "name": "timestamp",
          "type": "uint256"
        },
        {
          "indexed": false,
          "internalType": "uint256",
          "name": "blockNumber",
          "type": "uint256"
        }
      ],
      "name": "AddedMinter",
      "type": "event"
    },
    {
      "anonymous": false,
      "inputs": [
        {
          "indexed": true,
          "internalType": "address",
          "name": "user",
          "type": "address"
        },
        {
          "indexed": true,
          "internalType": "address",
          "name": "signer",
          "type": "address"
        },
        {
          "indexed": false,
          "internalType": "uint256",
          "name": "timestamp",
          "type": "uint256"
        },
        {
          "indexed": false,
          "internalType": "uint256",
          "name": "blockNumber",
          "type": "uint256"
        }
      ],
      "name": "AddedPaymentManager",
      "type": "event"
    },
    {
      "anonymous": false,
      "inputs": [
        {
          "indexed": true,
          "internalType": "address",
          "name": "owner",
          "type": "address"
        },
        {
          "indexed": true,
          "internalType": "address",
          "name": "spender",
          "type": "address"
        },
        {
          "indexed": false,
          "internalType": "uint256",
          "name": "value",
          "type": "uint256"
        }
      ],
      "name": "Approval",
      "type": "event"
    },
    {
      "anonymous": false,
      "inputs": [
        {
          "indexed": false,
          "internalType": "address",
          "name": "buyer",
          "type": "address"
        },
        {
          "indexed": false,
          "internalType": "uint256",
          "name": "baseTokenAmount",
          "type": "uint256"
        },
        {
          "indexed": false,
          "internalType": "uint256",
          "name": "marketFeeAmount",
          "type": "uint256"
        }
      ],
      "name": "BuyAndOrder",
      "type": "event"
    },
    {
      "anonymous": false,
      "inputs": [
        {
          "indexed": true,
          "internalType": "address",
          "name": "signer",
          "type": "address"
        },
        {
          "indexed": false,
          "internalType": "uint256",
          "name": "timestamp",
          "type": "uint256"
        },
        {
          "indexed": false,
          "internalType": "uint256",
          "name": "blockNumber",
          "type": "uint256"
        }
      ],
      "name": "CleanedPermissions",
      "type": "event"
    },
    {
      "anonymous": false,
      "inputs": [
        {
          "indexed": false,
          "internalType": "address",
          "name": "currentMinter",
          "type": "address"
        },
        {
          "indexed": false,
          "internalType": "address",
          "name": "newMinter",
          "type": "address"
        }
      ],
      "name": "MinterApproved",
      "type": "event"
    },
    {
      "anonymous": false,
      "inputs": [
        {
          "indexed": false,
          "internalType": "address",
          "name": "currentMinter",
          "type": "address"
        },
        {
          "indexed": false,
          "internalType": "address",
          "name": "newMinter",
          "type": "address"
        }
      ],
      "name": "MinterProposed",
      "type": "event"
    },
    {
      "anonymous": false,
      "inputs": [
        {
          "indexed": false,
          "internalType": "address",
          "name": "dispenserContract",
          "type": "address"
        }
      ],
      "name": "NewDispenser",
      "type": "event"
    },
    {
      "anonymous": false,
      "inputs": [
        {
          "indexed": false,
          "internalType": "bytes32",
          "name": "exchangeId",
          "type": "bytes32"
        },
        {
          "indexed": true,
          "internalType": "address",
          "name": "owner",
          "type": "address"
        },
        {
          "indexed": false,
          "internalType": "address",
          "name": "exchangeContract",
          "type": "address"
        },
        {
          "indexed": true,
          "internalType": "address",
          "name": "baseToken",
          "type": "address"
        }
      ],
      "name": "NewFixedRate",
      "type": "event"
    },
    {
      "anonymous": false,
      "inputs": [
        {
          "indexed": true,
          "internalType": "address",
          "name": "caller",
          "type": "address"
        },
        {
          "indexed": true,
          "internalType": "address",
          "name": "_newPaymentCollector",
          "type": "address"
        },
        {
          "indexed": false,
          "internalType": "uint256",
          "name": "timestamp",
          "type": "uint256"
        },
        {
          "indexed": false,
          "internalType": "uint256",
          "name": "blockNumber",
          "type": "uint256"
        }
      ],
      "name": "NewPaymentCollector",
      "type": "event"
    },
    {
      "anonymous": false,
      "inputs": [
        {
          "indexed": false,
          "internalType": "bytes32",
          "name": "orderTxId",
          "type": "bytes32"
        },
        {
          "indexed": false,
          "internalType": "address",
          "name": "caller",
          "type": "address"
        },
        {
          "indexed": false,
          "internalType": "uint256",
          "name": "timestamp",
          "type": "uint256"
        },
        {
          "indexed": false,
          "internalType": "uint256",
          "name": "number",
          "type": "uint256"
        }
      ],
      "name": "OrderReused",
      "type": "event"
    },
    {
      "anonymous": false,
      "inputs": [
        {
          "indexed": true,
          "internalType": "address",
          "name": "consumer",
          "type": "address"
        },
        {
          "indexed": false,
          "internalType": "address",
          "name": "payer",
          "type": "address"
        },
        {
          "indexed": false,
          "internalType": "uint256",
          "name": "amount",
          "type": "uint256"
        },
        {
          "indexed": false,
          "internalType": "uint256",
          "name": "serviceIndex",
          "type": "uint256"
        },
        {
          "indexed": false,
          "internalType": "uint256",
          "name": "timestamp",
          "type": "uint256"
        },
        {
          "indexed": true,
          "internalType": "address",
          "name": "publishMarketAddress",
          "type": "address"
        },
        {
          "indexed": false,
          "internalType": "uint256",
          "name": "blockNumber",
          "type": "uint256"
        }
      ],
      "name": "OrderStarted",
      "type": "event"
    },
    {
      "anonymous": false,
      "inputs": [
        {
          "indexed": true,
          "internalType": "address",
          "name": "providerFeeAddress",
          "type": "address"
        },
        {
          "indexed": true,
          "internalType": "address",
          "name": "providerFeeToken",
          "type": "address"
        },
        {
          "indexed": false,
          "internalType": "uint256",
          "name": "providerFeeAmount",
          "type": "uint256"
        },
        {
          "indexed": false,
          "internalType": "bytes",
          "name": "providerData",
          "type": "bytes"
        },
        {
          "indexed": false,
          "internalType": "uint8",
          "name": "v",
          "type": "uint8"
        },
        {
          "indexed": false,
          "internalType": "bytes32",
          "name": "r",
          "type": "bytes32"
        },
        {
          "indexed": false,
          "internalType": "bytes32",
          "name": "s",
          "type": "bytes32"
        },
        {
          "indexed": false,
          "internalType": "uint256",
          "name": "validUntil",
          "type": "uint256"
        }
      ],
      "name": "ProviderFees",
      "type": "event"
    },
    {
      "anonymous": false,
      "inputs": [
        {
          "indexed": true,
          "internalType": "address",
          "name": "PublishMarketFeeAddress",
          "type": "address"
        },
        {
          "indexed": true,
          "internalType": "address",
          "name": "PublishMarketFeeToken",
          "type": "address"
        },
        {
          "indexed": false,
          "internalType": "uint256",
          "name": "PublishMarketFeeAmount",
          "type": "uint256"
        }
      ],
      "name": "PublishMarketFees",
      "type": "event"
    },
    {
      "anonymous": false,
      "inputs": [
        {
          "indexed": false,
          "internalType": "address",
          "name": "caller",
          "type": "address"
        },
        {
          "indexed": false,
          "internalType": "address",
          "name": "PublishMarketFeeAddress",
          "type": "address"
        },
        {
          "indexed": false,
          "internalType": "address",
          "name": "PublishMarketFeeToken",
          "type": "address"
        },
        {
          "indexed": false,
          "internalType": "uint256",
          "name": "PublishMarketFeeAmount",
          "type": "uint256"
        }
      ],
      "name": "PublishMarketFeesChanged",
      "type": "event"
    },
    {
      "anonymous": false,
      "inputs": [
        {
          "indexed": true,
          "internalType": "address",
          "name": "user",
          "type": "address"
        },
        {
          "indexed": true,
          "internalType": "address",
          "name": "signer",
          "type": "address"
        },
        {
          "indexed": false,
          "internalType": "uint256",
          "name": "timestamp",
          "type": "uint256"
        },
        {
          "indexed": false,
          "internalType": "uint256",
          "name": "blockNumber",
          "type": "uint256"
        }
      ],
      "name": "RemovedMinter",
      "type": "event"
    },
    {
      "anonymous": false,
      "inputs": [
        {
          "indexed": true,
          "internalType": "address",
          "name": "user",
          "type": "address"
        },
        {
          "indexed": true,
          "internalType": "address",
          "name": "signer",
          "type": "address"
        },
        {
          "indexed": false,
          "internalType": "uint256",
          "name": "timestamp",
          "type": "uint256"
        },
        {
          "indexed": false,
          "internalType": "uint256",
          "name": "blockNumber",
          "type": "uint256"
        }
      ],
      "name": "RemovedPaymentManager",
      "type": "event"
    },
    {
      "anonymous": false,
      "inputs": [
        {
          "indexed": true,
          "internalType": "address",
          "name": "from",
          "type": "address"
        },
        {
          "indexed": true,
          "internalType": "address",
          "name": "to",
          "type": "address"
        },
        {
          "indexed": false,
          "internalType": "uint256",
          "name": "value",
          "type": "uint256"
        }
      ],
      "name": "Transfer",
      "type": "event"
    },
    {
      "stateMutability": "payable",
      "type": "fallback"
    },
    {
      "inputs": [],
      "name": "BASE",
      "outputs": [
        {
          "internalType": "uint256",
          "name": "",
          "type": "uint256"
        }
      ],
      "stateMutability": "view",
      "type": "function"
    },
    {
      "inputs": [],
      "name": "BASE_COMMUNITY_FEE_PERCENTAGE",
      "outputs": [
        {
          "internalType": "uint256",
          "name": "",
          "type": "uint256"
        }
      ],
      "stateMutability": "view",
      "type": "function"
    },
    {
      "inputs": [],
      "name": "DOMAIN_SEPARATOR",
      "outputs": [
        {
          "internalType": "bytes32",
          "name": "",
          "type": "bytes32"
        }
      ],
      "stateMutability": "view",
      "type": "function"
    },
    {
      "inputs": [],
      "name": "PERMIT_TYPEHASH",
      "outputs": [
        {
          "internalType": "bytes32",
          "name": "",
          "type": "bytes32"
        }
      ],
      "stateMutability": "view",
      "type": "function"
    },
    {
      "inputs": [
        {
          "internalType": "address",
          "name": "_minter",
          "type": "address"
        }
      ],
      "name": "addMinter",
      "outputs": [],
      "stateMutability": "nonpayable",
      "type": "function"
    },
    {
      "inputs": [
        {
          "internalType": "address",
          "name": "_paymentManager",
          "type": "address"
        }
      ],
      "name": "addPaymentManager",
      "outputs": [],
      "stateMutability": "nonpayable",
      "type": "function"
    },
    {
      "inputs": [
        {
          "internalType": "address",
          "name": "owner",
          "type": "address"
        },
        {
          "internalType": "address",
          "name": "spender",
          "type": "address"
        }
      ],
      "name": "allowance",
      "outputs": [
        {
          "internalType": "uint256",
          "name": "",
          "type": "uint256"
        }
      ],
      "stateMutability": "view",
      "type": "function"
    },
    {
      "inputs": [
        {
          "internalType": "address",
          "name": "spender",
          "type": "address"
        },
        {
          "internalType": "uint256",
          "name": "amount",
          "type": "uint256"
        }
      ],
      "name": "approve",
      "outputs": [
        {
          "internalType": "bool",
          "name": "",
          "type": "bool"
        }
      ],
      "stateMutability": "nonpayable",
      "type": "function"
    },
    {
      "inputs": [
        {
          "internalType": "uint256",
          "name": "",
          "type": "uint256"
        }
      ],
      "name": "authERC20",
      "outputs": [
        {
          "internalType": "address",
          "name": "",
          "type": "address"
        }
      ],
      "stateMutability": "view",
      "type": "function"
    },
    {
      "inputs": [
        {
          "internalType": "address",
          "name": "account",
          "type": "address"
        }
      ],
      "name": "balanceOf",
      "outputs": [
        {
          "internalType": "uint256",
          "name": "",
          "type": "uint256"
        }
      ],
      "stateMutability": "view",
      "type": "function"
    },
    {
      "inputs": [
        {
          "internalType": "uint256",
          "name": "amount",
          "type": "uint256"
        }
      ],
      "name": "burn",
      "outputs": [],
      "stateMutability": "nonpayable",
      "type": "function"
    },
    {
      "inputs": [
        {
          "internalType": "address",
          "name": "account",
          "type": "address"
        },
        {
          "internalType": "uint256",
          "name": "amount",
          "type": "uint256"
        }
      ],
      "name": "burnFrom",
      "outputs": [],
      "stateMutability": "nonpayable",
      "type": "function"
    },
    {
      "inputs": [
        {
          "components": [
            {
              "internalType": "address",
              "name": "consumer",
              "type": "address"
            },
            {
              "internalType": "uint256",
              "name": "serviceIndex",
              "type": "uint256"
            },
            {
              "components": [
                {
                  "internalType": "address",
                  "name": "providerFeeAddress",
                  "type": "address"
                },
                {
                  "internalType": "address",
                  "name": "providerFeeToken",
                  "type": "address"
                },
                {
                  "internalType": "uint256",
                  "name": "providerFeeAmount",
                  "type": "uint256"
                },
                {
                  "internalType": "uint8",
                  "name": "v",
                  "type": "uint8"
                },
                {
                  "internalType": "bytes32",
                  "name": "r",
                  "type": "bytes32"
                },
                {
                  "internalType": "bytes32",
                  "name": "s",
                  "type": "bytes32"
                },
                {
                  "internalType": "uint256",
                  "name": "validUntil",
                  "type": "uint256"
                },
                {
                  "internalType": "bytes",
                  "name": "providerData",
                  "type": "bytes"
                }
              ],
              "internalType": "struct ERC20TemplateEnterprise.providerFees",
              "name": "_providerFees",
              "type": "tuple"
            }
          ],
          "internalType": "struct ERC20TemplateEnterprise.OrderParams",
          "name": "_orderParams",
          "type": "tuple"
        },
        {
          "internalType": "address",
          "name": "dispenserContract",
          "type": "address"
        }
      ],
      "name": "buyFromDispenserAndOrder",
      "outputs": [],
      "stateMutability": "nonpayable",
      "type": "function"
    },
    {
      "inputs": [
        {
          "components": [
            {
              "internalType": "address",
              "name": "consumer",
              "type": "address"
            },
            {
              "internalType": "uint256",
              "name": "serviceIndex",
              "type": "uint256"
            },
            {
              "components": [
                {
                  "internalType": "address",
                  "name": "providerFeeAddress",
                  "type": "address"
                },
                {
                  "internalType": "address",
                  "name": "providerFeeToken",
                  "type": "address"
                },
                {
                  "internalType": "uint256",
                  "name": "providerFeeAmount",
                  "type": "uint256"
                },
                {
                  "internalType": "uint8",
                  "name": "v",
                  "type": "uint8"
                },
                {
                  "internalType": "bytes32",
                  "name": "r",
                  "type": "bytes32"
                },
                {
                  "internalType": "bytes32",
                  "name": "s",
                  "type": "bytes32"
                },
                {
                  "internalType": "uint256",
                  "name": "validUntil",
                  "type": "uint256"
                },
                {
                  "internalType": "bytes",
                  "name": "providerData",
                  "type": "bytes"
                }
              ],
              "internalType": "struct ERC20TemplateEnterprise.providerFees",
              "name": "_providerFees",
              "type": "tuple"
            }
          ],
          "internalType": "struct ERC20TemplateEnterprise.OrderParams",
          "name": "_orderParams",
          "type": "tuple"
        },
        {
          "components": [
            {
              "internalType": "address",
              "name": "exchangeContract",
              "type": "address"
            },
            {
              "internalType": "bytes32",
              "name": "exchangeId",
              "type": "bytes32"
            },
            {
              "internalType": "uint256",
              "name": "maxBaseTokenAmount",
              "type": "uint256"
            },
            {
              "internalType": "uint256",
              "name": "swapMarketFee",
              "type": "uint256"
            },
            {
              "internalType": "address",
              "name": "marketFeeAddress",
              "type": "address"
            }
          ],
          "internalType": "struct ERC20TemplateEnterprise.FreParams",
          "name": "_freParams",
          "type": "tuple"
        }
      ],
      "name": "buyFromFreAndOrder",
      "outputs": [],
      "stateMutability": "nonpayable",
      "type": "function"
    },
    {
      "inputs": [],
      "name": "cap",
      "outputs": [
        {
          "internalType": "uint256",
          "name": "",
          "type": "uint256"
        }
      ],
      "stateMutability": "view",
      "type": "function"
    },
    {
      "inputs": [],
      "name": "cleanFrom721",
      "outputs": [],
      "stateMutability": "nonpayable",
      "type": "function"
    },
    {
      "inputs": [],
      "name": "cleanPermissions",
      "outputs": [],
      "stateMutability": "nonpayable",
      "type": "function"
    },
    {
      "inputs": [
        {
          "internalType": "address",
          "name": "_dispenser",
          "type": "address"
        },
        {
          "internalType": "uint256",
          "name": "maxTokens",
          "type": "uint256"
        },
        {
          "internalType": "uint256",
          "name": "maxBalance",
          "type": "uint256"
        },
        {
          "internalType": "bool",
          "name": "withMint",
          "type": "bool"
        },
        {
          "internalType": "address",
          "name": "allowedSwapper",
          "type": "address"
        }
      ],
      "name": "createDispenser",
      "outputs": [],
      "stateMutability": "nonpayable",
      "type": "function"
    },
    {
      "inputs": [
        {
          "internalType": "address",
          "name": "fixedPriceAddress",
          "type": "address"
        },
        {
          "internalType": "address[]",
          "name": "addresses",
          "type": "address[]"
        },
        {
          "internalType": "uint256[]",
          "name": "uints",
          "type": "uint256[]"
        }
      ],
      "name": "createFixedRate",
      "outputs": [
        {
          "internalType": "bytes32",
          "name": "exchangeId",
          "type": "bytes32"
        }
      ],
      "stateMutability": "nonpayable",
      "type": "function"
    },
    {
      "inputs": [],
      "name": "decimals",
      "outputs": [
        {
          "internalType": "uint8",
          "name": "",
          "type": "uint8"
        }
      ],
      "stateMutability": "pure",
      "type": "function"
    },
    {
      "inputs": [
        {
          "internalType": "address",
          "name": "spender",
          "type": "address"
        },
        {
          "internalType": "uint256",
          "name": "subtractedValue",
          "type": "uint256"
        }
      ],
      "name": "decreaseAllowance",
      "outputs": [
        {
          "internalType": "bool",
          "name": "",
          "type": "bool"
        }
      ],
      "stateMutability": "nonpayable",
      "type": "function"
    },
    {
      "inputs": [],
      "name": "getDispensers",
      "outputs": [
        {
          "internalType": "address[]",
          "name": "",
          "type": "address[]"
        }
      ],
      "stateMutability": "view",
      "type": "function"
    },
    {
      "inputs": [],
      "name": "getERC721Address",
      "outputs": [
        {
          "internalType": "address",
          "name": "",
          "type": "address"
        }
      ],
      "stateMutability": "view",
      "type": "function"
    },
    {
      "inputs": [],
      "name": "getFixedRates",
      "outputs": [
        {
          "components": [
            {
              "internalType": "address",
              "name": "contractAddress",
              "type": "address"
            },
            {
              "internalType": "bytes32",
              "name": "id",
              "type": "bytes32"
            }
          ],
          "internalType": "struct ERC20TemplateEnterprise.fixedRate[]",
          "name": "",
          "type": "tuple[]"
        }
      ],
      "stateMutability": "view",
      "type": "function"
    },
    {
      "inputs": [],
      "name": "getId",
      "outputs": [
        {
          "internalType": "uint8",
          "name": "",
          "type": "uint8"
        }
      ],
      "stateMutability": "pure",
      "type": "function"
    },
    {
      "inputs": [],
      "name": "getPaymentCollector",
      "outputs": [
        {
          "internalType": "address",
          "name": "",
          "type": "address"
        }
      ],
      "stateMutability": "view",
      "type": "function"
    },
    {
      "inputs": [
        {
          "internalType": "address",
          "name": "user",
          "type": "address"
        }
      ],
      "name": "getPermissions",
      "outputs": [
        {
          "components": [
            {
              "internalType": "bool",
              "name": "minter",
              "type": "bool"
            },
            {
              "internalType": "bool",
              "name": "paymentManager",
              "type": "bool"
            }
          ],
          "internalType": "struct ERC20Roles.RolesERC20",
          "name": "",
          "type": "tuple"
        }
      ],
      "stateMutability": "view",
      "type": "function"
    },
    {
      "inputs": [],
      "name": "getPublishingMarketFee",
      "outputs": [
        {
          "internalType": "address",
          "name": "",
          "type": "address"
        },
        {
          "internalType": "address",
          "name": "",
          "type": "address"
        },
        {
          "internalType": "uint256",
          "name": "",
          "type": "uint256"
        }
      ],
      "stateMutability": "view",
      "type": "function"
    },
    {
      "inputs": [
        {
          "internalType": "address",
          "name": "spender",
          "type": "address"
        },
        {
          "internalType": "uint256",
          "name": "addedValue",
          "type": "uint256"
        }
      ],
      "name": "increaseAllowance",
      "outputs": [
        {
          "internalType": "bool",
          "name": "",
          "type": "bool"
        }
      ],
      "stateMutability": "nonpayable",
      "type": "function"
    },
    {
      "inputs": [
        {
          "internalType": "string[]",
          "name": "strings_",
          "type": "string[]"
        },
        {
          "internalType": "address[]",
          "name": "addresses_",
          "type": "address[]"
        },
        {
          "internalType": "address[]",
          "name": "factoryAddresses_",
          "type": "address[]"
        },
        {
          "internalType": "uint256[]",
          "name": "uints_",
          "type": "uint256[]"
        },
        {
          "internalType": "bytes[]",
          "name": "bytes_",
          "type": "bytes[]"
        }
      ],
      "name": "initialize",
      "outputs": [
        {
          "internalType": "bool",
          "name": "",
          "type": "bool"
        }
      ],
      "stateMutability": "nonpayable",
      "type": "function"
    },
    {
      "inputs": [
        {
          "internalType": "address",
          "name": "user",
          "type": "address"
        }
      ],
      "name": "isERC20Deployer",
      "outputs": [
        {
          "internalType": "bool",
          "name": "deployer",
          "type": "bool"
        }
      ],
      "stateMutability": "nonpayable",
      "type": "function"
    },
    {
      "inputs": [],
      "name": "isInitialized",
      "outputs": [
        {
          "internalType": "bool",
          "name": "",
          "type": "bool"
        }
      ],
      "stateMutability": "view",
      "type": "function"
    },
    {
      "inputs": [
        {
          "internalType": "address",
          "name": "account",
          "type": "address"
        }
      ],
      "name": "isMinter",
      "outputs": [
        {
          "internalType": "bool",
          "name": "",
          "type": "bool"
        }
      ],
      "stateMutability": "view",
      "type": "function"
    },
    {
      "inputs": [
        {
          "internalType": "address",
          "name": "account",
          "type": "address"
        },
        {
          "internalType": "uint256",
          "name": "value",
          "type": "uint256"
        }
      ],
      "name": "mint",
      "outputs": [],
      "stateMutability": "nonpayable",
      "type": "function"
    },
    {
      "inputs": [],
      "name": "name",
      "outputs": [
        {
          "internalType": "string",
          "name": "",
          "type": "string"
        }
      ],
      "stateMutability": "view",
      "type": "function"
    },
    {
      "inputs": [
        {
          "internalType": "address",
          "name": "",
          "type": "address"
        }
      ],
      "name": "nonces",
      "outputs": [
        {
          "internalType": "uint256",
          "name": "",
          "type": "uint256"
        }
      ],
      "stateMutability": "view",
      "type": "function"
    },
    {
      "inputs": [
        {
          "internalType": "address",
          "name": "",
          "type": "address"
        }
      ],
      "name": "permissions",
      "outputs": [
        {
          "internalType": "bool",
          "name": "minter",
          "type": "bool"
        },
        {
          "internalType": "bool",
          "name": "paymentManager",
          "type": "bool"
        }
      ],
      "stateMutability": "view",
      "type": "function"
    },
    {
      "inputs": [
        {
          "internalType": "address",
          "name": "owner",
          "type": "address"
        },
        {
          "internalType": "address",
          "name": "spender",
          "type": "address"
        },
        {
          "internalType": "uint256",
          "name": "value",
          "type": "uint256"
        },
        {
          "internalType": "uint256",
          "name": "deadline",
          "type": "uint256"
        },
        {
          "internalType": "uint8",
          "name": "v",
          "type": "uint8"
        },
        {
          "internalType": "bytes32",
          "name": "r",
          "type": "bytes32"
        },
        {
          "internalType": "bytes32",
          "name": "s",
          "type": "bytes32"
        }
      ],
      "name": "permit",
      "outputs": [],
      "stateMutability": "nonpayable",
      "type": "function"
    },
    {
      "inputs": [
        {
          "internalType": "address",
          "name": "_minter",
          "type": "address"
        }
      ],
      "name": "removeMinter",
      "outputs": [],
      "stateMutability": "nonpayable",
      "type": "function"
    },
    {
      "inputs": [
        {
          "internalType": "address",
          "name": "_paymentManager",
          "type": "address"
        }
      ],
      "name": "removePaymentManager",
      "outputs": [],
      "stateMutability": "nonpayable",
      "type": "function"
    },
    {
      "inputs": [
        {
          "internalType": "bytes32",
          "name": "orderTxId",
          "type": "bytes32"
        },
        {
          "components": [
            {
              "internalType": "address",
              "name": "providerFeeAddress",
              "type": "address"
            },
            {
              "internalType": "address",
              "name": "providerFeeToken",
              "type": "address"
            },
            {
              "internalType": "uint256",
              "name": "providerFeeAmount",
              "type": "uint256"
            },
            {
              "internalType": "uint8",
              "name": "v",
              "type": "uint8"
            },
            {
              "internalType": "bytes32",
              "name": "r",
              "type": "bytes32"
            },
            {
              "internalType": "bytes32",
              "name": "s",
              "type": "bytes32"
            },
            {
              "internalType": "uint256",
              "name": "validUntil",
              "type": "uint256"
            },
            {
              "internalType": "bytes",
              "name": "providerData",
              "type": "bytes"
            }
          ],
          "internalType": "struct ERC20TemplateEnterprise.providerFees",
          "name": "_providerFees",
          "type": "tuple"
        }
      ],
      "name": "reuseOrder",
      "outputs": [],
      "stateMutability": "nonpayable",
      "type": "function"
    },
    {
      "inputs": [],
      "name": "router",
      "outputs": [
        {
          "internalType": "address",
          "name": "",
          "type": "address"
        }
      ],
      "stateMutability": "view",
      "type": "function"
    },
    {
      "inputs": [
        {
          "internalType": "bytes",
          "name": "_value",
          "type": "bytes"
        }
      ],
      "name": "setData",
      "outputs": [],
      "stateMutability": "nonpayable",
      "type": "function"
    },
    {
      "inputs": [
        {
          "internalType": "address",
          "name": "_newPaymentCollector",
          "type": "address"
        }
      ],
      "name": "setPaymentCollector",
      "outputs": [],
      "stateMutability": "nonpayable",
      "type": "function"
    },
    {
      "inputs": [
        {
          "internalType": "address",
          "name": "_publishMarketFeeAddress",
          "type": "address"
        },
        {
          "internalType": "address",
          "name": "_publishMarketFeeToken",
          "type": "address"
        },
        {
          "internalType": "uint256",
          "name": "_publishMarketFeeAmount",
          "type": "uint256"
        }
      ],
      "name": "setPublishingMarketFee",
      "outputs": [],
      "stateMutability": "nonpayable",
      "type": "function"
    },
    {
      "inputs": [
        {
          "internalType": "address",
          "name": "consumer",
          "type": "address"
        },
        {
          "internalType": "uint256",
          "name": "serviceIndex",
          "type": "uint256"
        },
        {
          "components": [
            {
              "internalType": "address",
              "name": "providerFeeAddress",
              "type": "address"
            },
            {
              "internalType": "address",
              "name": "providerFeeToken",
              "type": "address"
            },
            {
              "internalType": "uint256",
              "name": "providerFeeAmount",
              "type": "uint256"
            },
            {
              "internalType": "uint8",
              "name": "v",
              "type": "uint8"
            },
            {
              "internalType": "bytes32",
              "name": "r",
              "type": "bytes32"
            },
            {
              "internalType": "bytes32",
              "name": "s",
              "type": "bytes32"
            },
            {
              "internalType": "uint256",
              "name": "validUntil",
              "type": "uint256"
            },
            {
              "internalType": "bytes",
              "name": "providerData",
              "type": "bytes"
            }
          ],
          "internalType": "struct ERC20TemplateEnterprise.providerFees",
          "name": "_providerFees",
          "type": "tuple"
        }
      ],
      "name": "startOrder",
      "outputs": [],
      "stateMutability": "nonpayable",
      "type": "function"
    },
    {
      "inputs": [],
      "name": "symbol",
      "outputs": [
        {
          "internalType": "string",
          "name": "",
          "type": "string"
        }
      ],
      "stateMutability": "view",
      "type": "function"
    },
    {
      "inputs": [],
      "name": "totalSupply",
      "outputs": [
        {
          "internalType": "uint256",
          "name": "",
          "type": "uint256"
        }
      ],
      "stateMutability": "view",
      "type": "function"
    },
    {
      "inputs": [
        {
          "internalType": "address",
          "name": "recipient",
          "type": "address"
        },
        {
          "internalType": "uint256",
          "name": "amount",
          "type": "uint256"
        }
      ],
      "name": "transfer",
      "outputs": [
        {
          "internalType": "bool",
          "name": "",
          "type": "bool"
        }
      ],
      "stateMutability": "nonpayable",
      "type": "function"
    },
    {
      "inputs": [
        {
          "internalType": "address",
          "name": "sender",
          "type": "address"
        },
        {
          "internalType": "address",
          "name": "recipient",
          "type": "address"
        },
        {
          "internalType": "uint256",
          "name": "amount",
          "type": "uint256"
        }
      ],
      "name": "transferFrom",
      "outputs": [
        {
          "internalType": "bool",
          "name": "",
          "type": "bool"
        }
      ],
      "stateMutability": "nonpayable",
      "type": "function"
    },
    {
      "inputs": [],
      "name": "withdrawETH",
      "outputs": [],
      "stateMutability": "payable",
      "type": "function"
    }
  ],
  "bytecode": "0x6080604052600b805460ff60a01b191690553480156200001e57600080fd5b5060408051808201825260048152631d195cdd60e21b60208083019182528351808501909452600a8452691d195cdd14de5b589bdb60b21b9084015281519192916200006d9160039162000091565b5080516200008390600490602084019062000091565b505060016007555062000174565b8280546200009f9062000137565b90600052602060002090601f016020900481019282620000c357600085556200010e565b82601f10620000de57805160ff19168380011785556200010e565b828001600101855582156200010e579182015b828111156200010e578251825591602001919060010190620000f1565b506200011c92915062000120565b5090565b5b808211156200011c576000815560010162000121565b600181811c908216806200014c57607f821691505b602082108114156200016e57634e487b7160e01b600052602260045260246000fd5b50919050565b614b0980620001846000396000f3fe6080604052600436106102c55760003560e01c806357ad5ff61161017e578063aa271e1a116100d3578063dd62ed3e1161008f578063e89b86651161006c578063e89b866514610992578063ec342ad0146109b2578063ef867ff4146109ce578063f887ea40146109ee57005b8063dd62ed3e1461092f578063e086e5ec14610975578063e487c2e81461097d57005b8063aa271e1a14610861578063aa492ef91461089a578063ab62f0e1146108ba578063b2263a5d146108da578063b3998be0146108ef578063d505accf1461090f57005b806382c03da51161013a57806396fb3eaf1161011757806396fb3eaf146107e1578063983b2d5614610801578063a457c2d714610821578063a9059cbb1461084157005b806382c03da5146107975780638b96412b146107ac57806395d89b41146107cc57005b806357ad5ff6146106be5780635d1ca631146106de57806370a08231146106f257806379cc6790146107285780637dda231e146107485780637ecebe001461076a57005b8063313ce5671161023457806339509351116101f057806342966c68116101cd57806342966c681461064757806347ac7d55146106675780634f189cb21461068957806357a3a31b1461069e57005b806339509351146105cb578063397b3743146105eb57806340c10f191461062757005b8063313ce5671461051f578063355274ea14610541578063361fef4914610556578063363bdb46146105765780633644e51514610596578063392e53cd146105ac57005b806318160ddd1161028357806318160ddd1461044c578063191c918a1461046b57806323b872dd1461048b57806325b00243146104ab5780633092afd5146104cb57806330adf81f146104eb57005b80627ffb78146102c757806301e88208146102fe5780630269ae111461034e57806306fdde031461036e578063095ea7b314610390578063160a7925146103c0575b005b3480156102d357600080fd5b50600c546001600160a01b03165b6040516001600160a01b0390911681526020015b60405180910390f35b34801561030a57600080fd5b50610337610319366004613c46565b60056020526000908152604090205460ff8082169161010090041682565b6040805192151583529015156020830152016102f5565b34801561035a57600080fd5b506102c5610369366004613c7b565b610a0e565b34801561037a57600080fd5b50610383610e32565b6040516102f59190613d00565b34801561039c57600080fd5b506103b06103ab366004613d33565b610ec4565b60405190151581526020016102f5565b3480156103cc57600080fd5b5061042d6103db366004613c46565b6040805180820190915260008082526020820152506001600160a01b031660009081526005602090815260409182902082518084019093525460ff808216151584526101009091041615159082015290565b60408051825115158152602092830151151592810192909252016102f5565b34801561045857600080fd5b506002545b6040519081526020016102f5565b34801561047757600080fd5b506102c5610486366004613d6d565b610eda565b34801561049757600080fd5b506103b06104a6366004613dcc565b6110ac565b3480156104b757600080fd5b506102c56104c6366004613c46565b611158565b3480156104d757600080fd5b506102c56104e6366004613c46565b6111f2565b3480156104f757600080fd5b5061045d7f6e71edae12b1b97f4d1f60370fef10105fa2faae0126114a169c64845d6126c981565b34801561052b57600080fd5b5060125b60405160ff90911681526020016102f5565b34801561054d57600080fd5b50600a5461045d565b34801561056257600080fd5b506102c5610571366004613e20565b611289565b34801561058257600080fd5b506102c5610591366004613e66565b6112da565b3480156105a257600080fd5b5061045d60115481565b3480156105b857600080fd5b50600b54600160a01b900460ff166103b0565b3480156105d757600080fd5b506103b06105e6366004613d33565b611525565b3480156105f757600080fd5b50600e54600f54601054604080516001600160a01b039485168152939092166020840152908201526060016102f5565b34801561063357600080fd5b506102c5610642366004613d33565b611561565b34801561065357600080fd5b506102c5610662366004613ebe565b61162e565b34801561067357600080fd5b5061067c611638565b6040516102f59190613f1b565b34801561069557600080fd5b506102c5611699565b3480156106aa57600080fd5b506102c56106b9366004613c46565b611780565b3480156106ca57600080fd5b506102c56106d9366004613dcc565b6118c2565b3480156106ea57600080fd5b50600261052f565b3480156106fe57600080fd5b5061045d61070d366004613c46565b6001600160a01b031660009081526020819052604090205490565b34801561073457600080fd5b506102c5610743366004613d33565b611a16565b34801561075457600080fd5b5061075d611a9c565b6040516102f59190613f2e565b34801561077657600080fd5b5061045d610785366004613c46565b60126020526000908152604090205481565b3480156107a357600080fd5b506102c5611b11565b3480156107b857600080fd5b5061045d6107c736600461405a565b611b6b565b3480156107d857600080fd5b50610383611e1f565b3480156107ed57600080fd5b506103b06107fc366004613c46565b611e2e565b34801561080d57600080fd5b506102c561081c366004613c46565b611ea9565b34801561082d57600080fd5b506103b061083c366004613d33565b611f40565b34801561084d57600080fd5b506103b061085c366004613d33565b611fd9565b34801561086d57600080fd5b506103b061087c366004613c46565b6001600160a01b031660009081526005602052604090205460ff1690565b3480156108a657600080fd5b506102c56108b5366004613c46565b611fe6565b3480156108c657600080fd5b506102c56108d5366004614125565b61207d565b3480156108e657600080fd5b5061045d6121ae565b3480156108fb57600080fd5b506103b061090a3660046141e1565b6121c4565b34801561091b57600080fd5b506102c561092a3660046142e7565b6122fe565b34801561093b57600080fd5b5061045d61094a366004614355565b6001600160a01b03918216600090815260016020908152604080832093909416825291909152205490565b6102c5612510565b34801561098957600080fd5b506102e1612550565b34801561099e57600080fd5b506102c56109ad36600461438e565b6125e5565b3480156109be57600080fd5b5061045d670de0b6b3a764000081565b3480156109da57600080fd5b506102e16109e9366004613ebe565b61270a565b3480156109fa57600080fd5b506013546102e1906001600160a01b031681565b60026007541415610a3a5760405162461bcd60e51b8152600401610a31906143d4565b60405180910390fd5b6002600755600080610a4f6020840184613c46565b604051634c87087d60e01b8152602085013560048201526001600160a01b039190911690634c87087d9060240161018060405180830381865afa158015610a9a573d6000803e3d6000fd5b505050506040513d601f19601f82011682018060405250810190610abe919061440b565b5050505050505050935050925050306001600160a01b0316826001600160a01b031614610b3d5760405162461bcd60e51b815260206004820152602760248201527f5468697320466978656452617465206973206e6f742070726f766964696e67206044820152661d1a1a5cc8111560ca1b6064820152608401610a31565b600080610b4d6020860186613c46565b60405163c99733a760e01b815260208701356004820152670de0b6b3a764000060248201526001600160a01b03919091169063c99733a790604401608060405180830381865afa158015610ba5573d6000803e3d6000fd5b505050506040513d601f19601f82011682018060405250810190610bc991906144c8565b5050915091508460400135821115610c335760405162461bcd60e51b815260206004820152602760248201527f46697865645261746545786368616e67653a20546f6f206d616e79206261736560448201526620746f6b656e7360c81b6064820152608401610a31565b6000670de0b6b3a7640000610c4c606088013584614514565b610c569190614533565b9050610c628184614555565b9250610c796001600160a01b038516333086612734565b610c9a610c896020880188613c46565b6001600160a01b03861690856127a5565b610ca76020870187613c46565b60405163412dae6b60e11b815260208801356004820152670de0b6b3a76400006024820152604481018590526001600160a01b03919091169063825b5cd690606401600060405180830381600087803b158015610d0357600080fd5b505af1158015610d17573d6000803e3d6000fd5b505030600090815260208190526040902054670de0b6b3a7640000925090501015610d845760405162461bcd60e51b815260206004820152601f60248201527f556e61626c6520746f206275792044542066726f6d20466978656452617465006044820152606401610a31565b610d973033670de0b6b3a7640000612857565b610db9610da76020890189613c46565b602089013561059160408b018b61456d565b8015610de357610de3610dd260a0880160808901613c46565b6001600160a01b0386169083612a25565b60408051338152602081018590529081018290527fe89458a7527f4bf466ab18794ab8b1ca208b478483a1a87bcf0d976d421b4aff9060600160405180910390a1505060016007555050505050565b606060088054610e419061458d565b80601f0160208091040260200160405190810160405280929190818152602001828054610e6d9061458d565b8015610eba5780601f10610e8f57610100808354040283529160200191610eba565b820191906000526020600020905b815481529060010190602001808311610e9d57829003601f168201915b5050505050905090565b6000610ed1338484612a55565b50600192915050565b600c5460405163160a792560e01b81523360048201526001600160a01b039091169063160a7925906024016080604051808303816000875af1158015610f24573d6000803e3d6000fd5b505050506040513d601f19601f82011682018060405250810190610f4891906145c2565b60200151610f685760405162461bcd60e51b8152600401610a3190614646565b60026007541415610f8b5760405162461bcd60e51b8152600401610a31906143d4565b6002600755601354604051636b14d00560e11b81526001600160a01b0387811660048301523060248301819052604483018890526064830187905233608484015260a48301529091169063d629a00a9060c401600060405180830381600087803b158015610ff857600080fd5b505af115801561100c573d6000803e3d6000fd5b50505050811561101f5761101f85612b79565b601580546001810182556000919091527f55f448fdea98c4d29eb340757ef0a66cd03dbb9538908a6a81d96026b71ec4750180546001600160a01b0319166001600160a01b0387169081179091556040519081527fa31ffd41531537eb31bfd827a3f5372b5f62bf4dd8579e5354b280dc58490e709060200160405180910390a150506001600755505050565b60006110b9848484612857565b6001600160a01b03841660009081526001602090815260408083203384529091529020548281101561113e5760405162461bcd60e51b815260206004820152602860248201527f45524332303a207472616e7366657220616d6f756e74206578636565647320616044820152676c6c6f77616e636560c01b6064820152608401610a31565b61114b8533858403612a55565b60019150505b9392505050565b600c5460405163160a792560e01b81523360048201526001600160a01b039091169063160a7925906024016080604051808303816000875af11580156111a2573d6000803e3d6000fd5b505050506040513d601f19601f820116820180604052508101906111c691906145c2565b602001516111e65760405162461bcd60e51b8152600401610a3190614646565b6111ef81612c7b565b50565b600c5460405163160a792560e01b81523360048201526001600160a01b039091169063160a7925906024016080604051808303816000875af115801561123c573d6000803e3d6000fd5b505050506040513d601f19601f8201168201806040525081019061126091906145c2565b602001516112805760405162461bcd60e51b8152600401610a3190614646565b6111ef81612cdc565b60408051838152336020820152428183015243606082015290517f526e31449ea46e2aecf9b480c8d7dfa191348ef74ffdf75b445a6ab726daa6ff9181900360800190a16112d681612d3c565b5050565b33600090815260208190526040812054670de0b6b3a764000091908211156113505760405162461bcd60e51b8152602060048201526024808201527f4e6f7420656e6f7567682064617461746f6b656e7320746f207374617274204f604482015263393232b960e11b6064820152608401610a31565b600e5460408051338152602081018590529081018690524260608201524360808201526001600160a01b03918216918716907fe1c4fa794edfa8f619b8257a077398950357b9c6398528f94480307352f9afcc9060a00160405180910390a360006010541180156113cb5750600f546001600160a01b031615155b80156113e15750600e546001600160a01b031615155b1561150c57601054600f54611405916001600160a01b039091169033903090612734565b601054611413906064613001565b600e54601054919250611449916001600160a01b0390911690611436908461300d565b600f546001600160a01b03169190612a25565b600f54600e546010546001600160a01b0392831692909116907ff666b31c81334b6085802ba4149907fa724689d43bc31df6de1a51291ddc55b49061148e908561300d565b60405190815260200160405180910390a3801561150c57600b54600f546114c2916001600160a01b03918216911683612a25565b600f54600b546040518381526001600160a01b0392831692909116907ff666b31c81334b6085802ba4149907fa724689d43bc31df6de1a51291ddc55b49060200160405180910390a35b61151583612d3c565b61151e8261162e565b5050505050565b3360008181526001602090815260408083206001600160a01b03871684529091528120549091610ed191859061155c908690614555565b612a55565b3360009081526005602052604090205460ff166115c05760405162461bcd60e51b815260206004820152601960248201527f455243323054656d706c6174653a204e4f54204d494e544552000000000000006044820152606401610a31565b600a546115d6826115d060025490565b90613019565b11156116245760405162461bcd60e51b815260206004820152601f60248201527f44617461746f6b656e54656d706c6174653a20636170206578636565646564006044820152606401610a31565b6112d68282613025565b6111ef3382613104565b60606015805480602002602001604051908101604052809291908181526020018280548015610eba57602002820191906000526020600020905b81546001600160a01b03168152600190910190602001808311611672575050505050905090565b600c546040516331a9108f60e11b8152600160048201526001600160a01b0390911690636352211e90602401602060405180830381865afa1580156116e2573d6000803e3d6000fd5b505050506040513d601f19601f82011682018060405250810190611706919061467b565b6001600160a01b0316336001600160a01b0316146117665760405162461bcd60e51b815260206004820152601b60248201527f455243323054656d706c6174653a206e6f74204e46544f776e657200000000006044820152606401610a31565b61176e613252565b600d80546001600160a01b0319169055565b33600090815260056020526040902054610100900460ff16806118115750600c5460405163160a792560e01b81523360048201526001600160a01b039091169063160a7925906024016080604051808303816000875af11580156117e8573d6000803e3d6000fd5b505050506040513d601f19601f8201168201806040525081019061180c91906145c2565b602001515b6118715760405162461bcd60e51b815260206004820152602b60248201527f455243323054656d706c6174653a204e4f54205041594d454e54204d414e414760448201526a22a91037b91027aba722a960a91b6064820152608401610a31565b61187a81613301565b604080514281524360208201526001600160a01b0383169133917f4d7694d695c57cc54947177c8e8a0e61aae664e9223492a798c32fadfc6419cc910160405180910390a350565b600e546001600160a01b0316331461192f5760405162461bcd60e51b815260206004820152602a60248201527f455243323054656d706c6174653a206e6f74207075626c6973684d61726b65746044820152694665654164647265737360b01b6064820152608401610a31565b6001600160a01b0383166119965760405162461bcd60e51b815260206004820152602860248201527f496e76616c6964205f7075626c6973684d61726b657446656541646472657373604482015267206164647265737360c01b6064820152608401610a31565b600e80546001600160a01b038581166001600160a01b03199283168117909355600f80549186169190921681179091556010839055604080513381526020810193909352820152606081018290527fe0b85b6f04fa914cf57f6401c5672a83a32b1c388d194c3d78e17f2897d46f439060800160405180910390a1505050565b6000611a22833361094a565b905081811015611a805760405162461bcd60e51b8152602060048201526024808201527f45524332303a206275726e20616d6f756e74206578636565647320616c6c6f77604482015263616e636560e01b6064820152608401610a31565b611a8d8333848403612a55565b611a978383613104565b505050565b60606014805480602002602001604051908101604052809291908181526020016000905b82821015611b08576000848152602090819020604080518082019091526002850290910180546001600160a01b03168252600190810154828401529083529092019101611ac0565b50505050905090565b600c546001600160a01b031633146117665760405162461bcd60e51b815260206004820152601f60248201527f455243323054656d706c6174653a204e4f542037323120436f6e7472616374006044820152606401610a31565b600c5460405163160a792560e01b81523360048201526000916001600160a01b03169063160a7925906024016080604051808303816000875af1158015611bb6573d6000803e3d6000fd5b505050506040513d601f19601f82011682018060405250810190611bda91906145c2565b60200151611bfa5760405162461bcd60e51b8152600401610a3190614646565b60026007541415611c1d5760405162461bcd60e51b8152600401610a31906143d4565b60026007819055503083600381518110611c3957611c39614698565b6001600160a01b039283166020918202929092010152601354604051638244937560e01b8152911690638244937590611c7a908790879087906004016146ae565b6020604051808303816000875af1158015611c99573d6000803e3d6000fd5b505050506040513d601f19601f82011682018060405250810190611cbd9190614714565b9050600082600481518110611cd457611cd4614698565b60200260200101511115611ceb57611ceb84612b79565b82600081518110611cfe57611cfe614698565b60200260200101516001600160a01b031683600181518110611d2257611d22614698565b60200260200101516001600160a01b03167fb3fac3ae95956dbac74e63ba8dac94081832395c8788e3049c900a7732f348058387604051611d769291909182526001600160a01b0316602082015260400190565b60405180910390a3604080518082019091526001600160a01b03948516815260208101828152601480546001808201835560009290925292517fce6d7b5282bd9a3661ae061feed1dbda4e52ab073b1f9285be6e155d9c38d4ec600290940293840180546001600160a01b0319169190981617909655517fce6d7b5282bd9a3661ae061feed1dbda4e52ab073b1f9285be6e155d9c38d4ed909101556007939093555090919050565b606060098054610e419061458d565b600c5460405163160a792560e01b81526001600160a01b038381166004830152600092169063160a7925906024016080604051808303816000875af1158015611e7b573d6000803e3d6000fd5b505050506040513d601f19601f82011682018060405250810190611e9f91906145c2565b6020015192915050565b600c5460405163160a792560e01b81523360048201526001600160a01b039091169063160a7925906024016080604051808303816000875af1158015611ef3573d6000803e3d6000fd5b505050506040513d601f19601f82011682018060405250810190611f1791906145c2565b60200151611f375760405162461bcd60e51b8152600401610a3190614646565b6111ef81612b79565b3360009081526001602090815260408083206001600160a01b038616845290915281205482811015611fc25760405162461bcd60e51b815260206004820152602560248201527f45524332303a2064656372656173656420616c6c6f77616e63652062656c6f77604482015264207a65726f60d81b6064820152608401610a31565b611fcf3385858403612a55565b5060019392505050565b6000610ed1338484612857565b600c5460405163160a792560e01b81523360048201526001600160a01b039091169063160a7925906024016080604051808303816000875af1158015612030573d6000803e3d6000fd5b505050506040513d601f19601f8201168201806040525081019061205491906145c2565b602001516120745760405162461bcd60e51b8152600401610a3190614646565b6111ef81613323565b600c5460405163160a792560e01b81523360048201526001600160a01b039091169063160a7925906024016080604051808303816000875af11580156120c7573d6000803e3d6000fd5b505050506040513d601f19601f820116820180604052508101906120eb91906145c2565b6020015161210b5760405162461bcd60e51b8152600401610a3190614646565b6040516bffffffffffffffffffffffff193060601b16602082015260009060340160408051601f19818403018152908290528051602090910120600c546301caf8fd60e31b83529092506001600160a01b031690630e57c7e89061217790849087908790600401614756565b600060405180830381600087803b15801561219157600080fd5b505af11580156121a5573d6000803e3d6000fd5b50505050505050565b6121c16064670de0b6b3a7640000614533565b81565b600b54600090600160a01b900460ff161561223b5760405162461bcd60e51b815260206004820152603160248201527f455243323054656d706c6174653a20746f6b656e20696e7374616e636520616c6044820152701c9958591e481a5b9a5d1a585b1a5e9959607a1b6064820152608401610a31565b6122ef6122488b8d6147d0565b8a8a8080602002602001604051908101604052809392919081815260200183836020028082843760009201919091525050604080516020808e0282810182019093528d82529093508d92508c91829185019084908082843760009201919091525050604080516020808d0282810182019093528c82529093508c92508b9182918501908490808284376000920191909152506122ea92508991508a9050614857565b613431565b9b9a5050505050505050505050565b438410156123415760405162461bcd60e51b815260206004820152601060248201526f115490cc8c11150e881156141254915160821b6044820152606401610a31565b6011546001600160a01b038816600090815260126020526040812080549192917f6e71edae12b1b97f4d1f60370fef10105fa2faae0126114a169c64845d6126c9918b918b918b919087612394836148d2565b909155506040805160208101969096526001600160a01b0394851690860152929091166060840152608083015260a082015260c0810187905260e0016040516020818303038152906040528051906020012060405160200161240d92919061190160f01b81526002810192909252602282015260420190565b60408051601f198184030181528282528051602091820120600080855291840180845281905260ff88169284019290925260608301869052608083018590529092509060019060a0016020604051602081039080840390855afa158015612478573d6000803e3d6000fd5b5050604051601f1901519150506001600160a01b038116158015906124ae5750886001600160a01b0316816001600160a01b0316145b6124fa5760405162461bcd60e51b815260206004820152601a60248201527f455243323044543a20494e56414c49445f5349474e41545552450000000000006044820152606401610a31565b612505898989612a55565b505050505050505050565b612518612550565b6001600160a01b03166108fc479081150290604051600060405180830381858888f193505050501580156111ef573d6000803e3d6000fd5b600d546000906001600160a01b03166125d557600c546040516331a9108f60e11b8152600160048201526001600160a01b0390911690636352211e90602401602060405180830381865afa1580156125ac573d6000803e3d6000fd5b505050506040513d601f19601f820116820180604052508101906125d0919061467b565b905090565b50600d546001600160a01b031690565b600260075414156126085760405162461bcd60e51b8152600401610a31906143d4565b6002600755604051631d746d8360e01b8152306004820152670de0b6b3a764000060248201819052336044830152906001600160a01b03831690631d746d8390606401600060405180830381600087803b15801561266557600080fd5b505af1158015612679573d6000803e3d6000fd5b505033600090815260208190526040902054839250905010156126de5760405162461bcd60e51b815260206004820152601f60248201527f556e61626c6520746f206765742044542066726f6d2044697370656e736572006044820152606401610a31565b6127006126ee6020850185613c46565b6020850135610591604087018761456d565b5050600160075550565b6006818154811061271a57600080fd5b6000918252602090912001546001600160a01b0316905081565b6040516001600160a01b038085166024830152831660448201526064810182905261279f9085906323b872dd60e01b906084015b60408051601f198184030181529190526020810180516001600160e01b03166001600160e01b031990931692909217909152613930565b50505050565b604051636eb1769f60e11b81523060048201526001600160a01b038381166024830152600091839186169063dd62ed3e90604401602060405180830381865afa1580156127f6573d6000803e3d6000fd5b505050506040513d601f19601f8201168201806040525081019061281a9190614714565b6128249190614555565b6040516001600160a01b03851660248201526044810182905290915061279f90859063095ea7b360e01b90606401612768565b6001600160a01b0383166128bb5760405162461bcd60e51b815260206004820152602560248201527f45524332303a207472616e736665722066726f6d20746865207a65726f206164604482015264647265737360d81b6064820152608401610a31565b6001600160a01b03821661291d5760405162461bcd60e51b815260206004820152602360248201527f45524332303a207472616e7366657220746f20746865207a65726f206164647260448201526265737360e81b6064820152608401610a31565b6001600160a01b038316600090815260208190526040902054818110156129955760405162461bcd60e51b815260206004820152602660248201527f45524332303a207472616e7366657220616d6f756e7420657863656564732062604482015265616c616e636560d01b6064820152608401610a31565b6001600160a01b038085166000908152602081905260408082208585039055918516815290812080548492906129cc908490614555565b92505081905550826001600160a01b0316846001600160a01b03167fddf252ad1be2c89b69c2b068fc378daa952ba7f163c4a11628f55a4df523b3ef84604051612a1891815260200190565b60405180910390a361279f565b6040516001600160a01b038316602482015260448101829052611a9790849063a9059cbb60e01b90606401612768565b6001600160a01b038316612ab75760405162461bcd60e51b8152602060048201526024808201527f45524332303a20617070726f76652066726f6d20746865207a65726f206164646044820152637265737360e01b6064820152608401610a31565b6001600160a01b038216612b185760405162461bcd60e51b815260206004820152602260248201527f45524332303a20617070726f766520746f20746865207a65726f206164647265604482015261737360f01b6064820152608401610a31565b6001600160a01b0383811660008181526001602090815260408083209487168084529482529182902085905590518481527f8c5be1e5ebec7d5bd14f71427d1e84f3dd0314c0f7b2291e5b200ac8c7c3b925910160405180910390a3505050565b6001600160a01b0381166000908152600560205260409020805460ff1615612be35760405162461bcd60e51b815260206004820152601d60248201527f4552433230526f6c65733a2020414c52454144592041204d494e5445520000006044820152606401610a31565b8054600160ff19909116811782556006805491820181556000527ff652222313e28459528d920b65115c16c04f3efc82aaedc97be59f3f377c0d3f0180546001600160a01b0319166001600160a01b038416908117909155604080514281524360208201523392917f4f7e100eb1ee13e903798bd0d6aa854152e07eb05544f392b9409c12935c809591015b60405180910390a35050565b6001600160a01b03811660008181526005602052604090819020805461ff00191681559051909133917faee911eec8b2df8f3ae0464841541b1e5f339519bd5cf51889fe8b07fecff65890612c6f9042904390918252602082015260400190565b6001600160a01b03811660008181526005602052604090819020805460ff191681559051909133917fefa2735987005aaa89c050c0ff8cc9ae7d9079d19382081c429130f98c52d48090612c6f9042904390918252602082015260400190565b60408051808201909152601c81527f19457468657265756d205369676e6564204d6573736167653a0a3332000000006020820152600081612d8060e08501856148ed565b612d8d6020870187613c46565b612d9d6040880160208901613c46565b87604001358860c00135604051602001612dbc96959493929190614933565b60405160208183030381529060405280519060200120604051602001612de3929190614971565b60408051601f19818403018152919052805160209091012090506000600182612e126080870160608801614993565b6040805160008152602081018083529390935260ff90911690820152608080870135606083015260a08088013591830191909152016020604051602081039080840390855afa158015612e69573d6000803e3d6000fd5b5050604051601f1901519150612e8490506020850185613c46565b6001600160a01b0316816001600160a01b031614612edb5760405162461bcd60e51b8152602060048201526014602482015273496e76616c69642070726f76696465722066656560601b6044820152606401610a31565b612eeb6040850160208601613c46565b6001600160a01b0316612f016020860186613c46565b6001600160a01b03167f22bdc88918efde2160206f0b5314bae23de0ae7fd1e9e7853d53178e32355a876040870135612f3d60e08901896148ed565b612f4d60808b0160608c01614993565b8a608001358b60a001358c60c00135604051612f6f97969594939291906149ae565b60405180910390a360008460400135118015612fa457506000612f986040860160208701613c46565b6001600160a01b031614155b8015612fc657506000612fba6020860186613c46565b6001600160a01b031614155b1561279f5761279f33612fdc6020870187613c46565b60408701803590612ff09060208a01613c46565b6001600160a01b0316929190612734565b60006111518284614533565b600061115182846149f1565b60006111518284614555565b6001600160a01b03821661307b5760405162461bcd60e51b815260206004820152601f60248201527f45524332303a206d696e7420746f20746865207a65726f2061646472657373006044820152606401610a31565b806002600082825461308d9190614555565b90915550506001600160a01b038216600090815260208190526040812080548392906130ba908490614555565b90915550506040518181526001600160a01b038316906000907fddf252ad1be2c89b69c2b068fc378daa952ba7f163c4a11628f55a4df523b3ef9060200160405180910390a35050565b6001600160a01b0382166131645760405162461bcd60e51b815260206004820152602160248201527f45524332303a206275726e2066726f6d20746865207a65726f206164647265736044820152607360f81b6064820152608401610a31565b6001600160a01b038216600090815260208190526040902054818110156131d85760405162461bcd60e51b815260206004820152602260248201527f45524332303a206275726e20616d6f756e7420657863656564732062616c616e604482015261636560f01b6064820152608401610a31565b6001600160a01b03831660009081526020819052604081208383039055600280548492906132079084906149f1565b90915550506040518281526000906001600160a01b038516907fddf252ad1be2c89b69c2b068fc378daa952ba7f163c4a11628f55a4df523b3ef9060200160405180910390a3505050565b60005b6006548110156132b8576000600560006006848154811061327857613278614698565b60009182526020808320909101546001600160a01b031683528201929092526040019020805461ffff1916905550806132b0816148d2565b915050613255565b506132c560066000613b7a565b6040805142815243602082015233917f712bc71db81927a76b8bf1ea346247bb0ad58f18e4e5c1bd4aa0ec6573e02a2b910160405180910390a2565b600d80546001600160a01b0319166001600160a01b0392909216919091179055565b6001600160a01b03811660009081526005602052604090208054610100900460ff161561339d5760405162461bcd60e51b815260206004820152602260248201527f4552433230526f6c65733a2020414c5245414459204120464545204d414e414760448201526122a960f11b6064820152608401610a31565b805461ff001916610100178155600680546001810182556000919091527ff652222313e28459528d920b65115c16c04f3efc82aaedc97be59f3f377c0d3f0180546001600160a01b0384166001600160a01b03199091168117909155604080514281524360208201523392917fb17da2e9910b4ba5754e8872385ba315a238bafb5ae221fc85093c33432c40a79101612c6f565b6000808460008151811061344757613447614698565b6020026020010151905060008560018151811061346657613466614698565b6020026020010151905060006001600160a01b0316826001600160a01b031614156134e85760405162461bcd60e51b815260206004820152602c60248201527f455243323054656d706c6174653a20496e76616c6964206d696e7465722c202060448201526b7a65726f206164647265737360a01b6064820152608401610a31565b6001600160a01b0381166135645760405162461bcd60e51b815260206004820152603c60248201527f455243323054656d706c6174653a20496e76616c696420636f6d6d756e69747960448201527f2066656520636f6c6c6563746f722c207a65726f2061646472657373000000006064820152608401610a31565b8460008151811061357757613577614698565b6020026020010151600014156135db5760405162461bcd60e51b8152602060048201526024808201527f44617461746f6b656e54656d706c6174653a20496e76616c6964206361702076604482015263616c756560e01b6064820152608401610a31565b846000815181106135ee576135ee614698565b6020026020010151600a819055508760008151811061360f5761360f614698565b60200260200101516008908051906020019061362c929190613b98565b508760018151811061364057613640614698565b60200260200101516009908051906020019061365d929190613b98565b50600c80546001600160a01b0319166001600160a01b03841617905585518690600290811061368e5761368e614698565b6020908102919091010151601380546001600160a01b039283166001600160a01b0319909116179055600b80546001600160a81b03191691831691909117600160a01b17905586516136f89088906000906136eb576136eb614698565b6020026020010151612b79565b60006001600160a01b03168760018151811061371657613716614698565b60200260200101516001600160a01b0316146137c05761374f8760018151811061374257613742614698565b6020026020010151613301565b8660018151811061376257613762614698565b60200260200101516001600160a01b0316336001600160a01b03167f4d7694d695c57cc54947177c8e8a0e61aae664e9223492a798c32fadfc6419cc42436040516137b7929190918252602082015260400190565b60405180910390a35b866002815181106137d3576137d3614698565b6020026020010151600e60006101000a8154816001600160a01b0302191690836001600160a01b031602179055508660038151811061381457613814614698565b6020026020010151600f60006101000a8154816001600160a01b0302191690836001600160a01b031602179055508460018151811061385557613855614698565b602002602001015160108190555060004690507f8b73c3c69bb8fe3d512ecc4cf759cc79239f7b179b0ffacaa9a75d522b39400f60086040516138989190614a08565b60408051918290038220828201825260018352603160f81b6020938401528151928301939093528101919091527fc89efdaa54c0f20c7adf612882df0950f5a951637e0307cdcb4c672f298b8bc66060820152608081018290523060a082015260c00160408051808303601f1901815291905280516020909101206011555050600b54600160a01b900460ff16979650505050505050565b6000613985826040518060400160405280602081526020017f5361666545524332303a206c6f772d6c6576656c2063616c6c206661696c6564815250856001600160a01b0316613a029092919063ffffffff16565b805190915015611a9757808060200190518101906139a39190614aa4565b611a975760405162461bcd60e51b815260206004820152602a60248201527f5361666545524332303a204552433230206f7065726174696f6e20646964206e6044820152691bdd081cdd58d8d9595960b21b6064820152608401610a31565b6060613a118484600085613a19565b949350505050565b606082471015613a7a5760405162461bcd60e51b815260206004820152602660248201527f416464726573733a20696e73756666696369656e742062616c616e636520666f6044820152651c8818d85b1b60d21b6064820152608401610a31565b843b613ac85760405162461bcd60e51b815260206004820152601d60248201527f416464726573733a2063616c6c20746f206e6f6e2d636f6e74726163740000006044820152606401610a31565b600080866001600160a01b03168587604051613ae49190614ac1565b60006040518083038185875af1925050503d8060008114613b21576040519150601f19603f3d011682016040523d82523d6000602084013e613b26565b606091505b5091509150613b36828286613b41565b979650505050505050565b60608315613b50575081611151565b825115613b605782518084602001fd5b8160405162461bcd60e51b8152600401610a319190613d00565b50805460008255906000526020600020908101906111ef9190613c1c565b828054613ba49061458d565b90600052602060002090601f016020900481019282613bc65760008555613c0c565b82601f10613bdf57805160ff1916838001178555613c0c565b82800160010185558215613c0c579182015b82811115613c0c578251825591602001919060010190613bf1565b50613c18929150613c1c565b5090565b5b80821115613c185760008155600101613c1d565b6001600160a01b03811681146111ef57600080fd5b600060208284031215613c5857600080fd5b813561115181613c31565b600060608284031215613c7557600080fd5b50919050565b60008082840360c0811215613c8f57600080fd5b83356001600160401b03811115613ca557600080fd5b613cb186828701613c63565b93505060a0601f1982011215613cc657600080fd5b506020830190509250929050565b60005b83811015613cef578181015183820152602001613cd7565b8381111561279f5750506000910152565b6020815260008251806020840152613d1f816040850160208701613cd4565b601f01601f19169190910160400192915050565b60008060408385031215613d4657600080fd5b8235613d5181613c31565b946020939093013593505050565b80151581146111ef57600080fd5b600080600080600060a08688031215613d8557600080fd5b8535613d9081613c31565b945060208601359350604086013592506060860135613dae81613d5f565b91506080860135613dbe81613c31565b809150509295509295909350565b600080600060608486031215613de157600080fd5b8335613dec81613c31565b92506020840135613dfc81613c31565b929592945050506040919091013590565b60006101008284031215613c7557600080fd5b60008060408385031215613e3357600080fd5b8235915060208301356001600160401b03811115613e5057600080fd5b613e5c85828601613e0d565b9150509250929050565b600080600060608486031215613e7b57600080fd5b8335613e8681613c31565b92506020840135915060408401356001600160401b03811115613ea857600080fd5b613eb486828701613e0d565b9150509250925092565b600060208284031215613ed057600080fd5b5035919050565b600081518084526020808501945080840160005b83811015613f105781516001600160a01b031687529582019590820190600101613eeb565b509495945050505050565b6020815260006111516020830184613ed7565b602080825282518282018190526000919060409081850190868401855b82811015613f7957815180516001600160a01b03168552860151868501529284019290850190600101613f4b565b5091979650505050505050565b634e487b7160e01b600052604160045260246000fd5b604051601f8201601f191681016001600160401b0381118282101715613fc457613fc4613f86565b604052919050565b60006001600160401b03821115613fe557613fe5613f86565b5060051b60200190565b600082601f83011261400057600080fd5b8135602061401561401083613fcc565b613f9c565b82815260059290921b8401810191818101908684111561403457600080fd5b8286015b8481101561404f5780358352918301918301614038565b509695505050505050565b60008060006060848603121561406f57600080fd5b833561407a81613c31565b92506020848101356001600160401b038082111561409757600080fd5b818701915087601f8301126140ab57600080fd5b81356140b961401082613fcc565b81815260059190911b8301840190848101908a8311156140d857600080fd5b938501935b828510156140ff5784356140f081613c31565b825293850193908501906140dd565b96505050604087013592508083111561411757600080fd5b5050613eb486828701613fef565b6000806020838503121561413857600080fd5b82356001600160401b038082111561414f57600080fd5b818501915085601f83011261416357600080fd5b81358181111561417257600080fd5b86602082850101111561418457600080fd5b60209290920196919550909350505050565b60008083601f8401126141a857600080fd5b5081356001600160401b038111156141bf57600080fd5b6020830191508360208260051b85010111156141da57600080fd5b9250929050565b60008060008060008060008060008060a08b8d03121561420057600080fd5b8a356001600160401b038082111561421757600080fd5b6142238e838f01614196565b909c509a5060208d013591508082111561423c57600080fd5b6142488e838f01614196565b909a50985060408d013591508082111561426157600080fd5b61426d8e838f01614196565b909850965060608d013591508082111561428657600080fd5b6142928e838f01614196565b909650945060808d01359150808211156142ab57600080fd5b506142b88d828e01614196565b915080935050809150509295989b9194979a5092959850565b803560ff811681146142e257600080fd5b919050565b600080600080600080600060e0888a03121561430257600080fd5b873561430d81613c31565b9650602088013561431d81613c31565b95506040880135945060608801359350614339608089016142d1565b925060a0880135915060c0880135905092959891949750929550565b6000806040838503121561436857600080fd5b823561437381613c31565b9150602083013561438381613c31565b809150509250929050565b600080604083850312156143a157600080fd5b82356001600160401b038111156143b757600080fd5b6143c385828601613c63565b925050602083013561438381613c31565b6020808252601f908201527f5265656e7472616e637947756172643a207265656e7472616e742063616c6c00604082015260600190565b6000806000806000806000806000806000806101808d8f03121561442e57600080fd5b8c5161443981613c31565b60208e0151909c5061444a81613c31565b60408e015160608f0151919c509a5061446281613c31565b8099505060808d0151975060a08d0151965060c08d015161448281613d5f565b8096505060e08d015194506101008d015193506101208d015192506101408d015191506101608d01516144b481613d5f565b809150509295989b509295989b509295989b565b600080600080608085870312156144de57600080fd5b505082516020840151604085015160609095015191969095509092509050565b634e487b7160e01b600052601160045260246000fd5b600081600019048311821515161561452e5761452e6144fe565b500290565b60008261455057634e487b7160e01b600052601260045260246000fd5b500490565b60008219821115614568576145686144fe565b500190565b6000823560fe1983360301811261458357600080fd5b9190910192915050565b600181811c908216806145a157607f821691505b60208210811415613c7557634e487b7160e01b600052602260045260246000fd5b6000608082840312156145d457600080fd5b604051608081018181106001600160401b03821117156145f6576145f6613f86565b604052825161460481613d5f565b8152602083015161461481613d5f565b6020820152604083015161462781613d5f565b6040820152606083015161463a81613d5f565b60608201529392505050565b6020808252818101527f455243323054656d706c6174653a204e4f54204445504c4f59455220524f4c45604082015260600190565b60006020828403121561468d57600080fd5b815161115181613c31565b634e487b7160e01b600052603260045260246000fd5b6001600160a01b0384168152606060208083018290526000916146d390840186613ed7565b838103604085015284518082528286019183019060005b81811015614706578351835292840192918401916001016146ea565b509098975050505050505050565b60006020828403121561472657600080fd5b5051919050565b81835281816020850137506000828201602090810191909152601f909101601f19169091010190565b83815260406020820152600061477060408301848661472d565b95945050505050565b60006001600160401b0383111561479257614792613f86565b6147a5601f8401601f1916602001613f9c565b90508281528383830111156147b957600080fd5b828260208301376000602084830101529392505050565b60006147de61401084613fcc565b80848252602080830192508560051b8501368111156147fc57600080fd5b855b8181101561484b5780356001600160401b0381111561481d5760008081fd5b870136601f82011261482f5760008081fd5b61483d368235868401614779565b8652509382019382016147fe565b50919695505050505050565b600061486561401084613fcc565b80848252602080830192508560051b85013681111561488357600080fd5b855b8181101561484b5780356001600160401b038111156148a45760008081fd5b870136601f8201126148b65760008081fd5b6148c4368235868401614779565b865250938201938201614885565b60006000198214156148e6576148e66144fe565b5060010190565b6000808335601e1984360301811261490457600080fd5b8301803591506001600160401b0382111561491e57600080fd5b6020019150368190038213156141da57600080fd5b858782376bffffffffffffffffffffffff19606095861b8116969091019586529290931b909116601484015260288301526048820152606801919050565b60008351614983818460208801613cd4565b9190910191825250602001919050565b6000602082840312156149a557600080fd5b611151826142d1565b87815260c0602082015260006149c860c08301888a61472d565b905060ff861660408301528460608301528360808301528260a083015298975050505050505050565b600082821015614a0357614a036144fe565b500390565b600080835481600182811c915080831680614a2457607f831692505b6020808410821415614a4457634e487b7160e01b86526022600452602486fd5b818015614a585760018114614a6957614a96565b60ff19861689528489019650614a96565b60008a81526020902060005b86811015614a8e5781548b820152908501908301614a75565b505084890196505b509498975050505050505050565b600060208284031215614ab657600080fd5b815161115181613d5f565b60008251614583818460208701613cd456fea26469706673582212208521975ed9a34318e9438328e255ab45da8dc5e577c22d2895bb1135c6d6fa8064736f6c634300080a0033",
  "linkReferences": {},
  "deployedLinkReferences": {}
}