{
  "_format": "hh-sol-artifact-1",
  "contractName": "ERC20TemplateEnterprise",
  "sourceName": "contracts/templates/ERC20TemplateEnterprise.sol",
  "abi": [
    {
      "anonymous": false,
      "inputs": [
        {
          "indexed": true,
          "internalType": "address",
          "name": "user",
          "type": "address"
        },
        {
          "indexed": true,
          "internalType": "address",
          "name": "signer",
          "type": "address"
        },
        {
          "indexed": false,
          "internalType": "uint256",
          "name": "timestamp",
          "type": "uint256"
        },
        {
          "indexed": false,
          "internalType": "uint256",
          "name": "blockNumber",
          "type": "uint256"
        }
      ],
      "name": "AddedFeeManager",
      "type": "event"
    },
    {
      "anonymous": false,
      "inputs": [
        {
          "indexed": true,
          "internalType": "address",
          "name": "user",
          "type": "address"
        },
        {
          "indexed": true,
          "internalType": "address",
          "name": "signer",
          "type": "address"
        },
        {
          "indexed": false,
          "internalType": "uint256",
          "name": "timestamp",
          "type": "uint256"
        },
        {
          "indexed": false,
          "internalType": "uint256",
          "name": "blockNumber",
          "type": "uint256"
        }
      ],
      "name": "AddedMinter",
      "type": "event"
    },
    {
      "anonymous": false,
      "inputs": [
        {
          "indexed": true,
          "internalType": "address",
          "name": "owner",
          "type": "address"
        },
        {
          "indexed": true,
          "internalType": "address",
          "name": "spender",
          "type": "address"
        },
        {
          "indexed": false,
          "internalType": "uint256",
          "name": "value",
          "type": "uint256"
        }
      ],
      "name": "Approval",
      "type": "event"
    },
    {
      "anonymous": false,
      "inputs": [
        {
          "indexed": true,
          "internalType": "address",
          "name": "signer",
          "type": "address"
        },
        {
          "indexed": false,
          "internalType": "uint256",
          "name": "timestamp",
          "type": "uint256"
        },
        {
          "indexed": false,
          "internalType": "uint256",
          "name": "blockNumber",
          "type": "uint256"
        }
      ],
      "name": "CleanedPermissions",
      "type": "event"
    },
    {
      "anonymous": false,
      "inputs": [
        {
          "indexed": false,
          "internalType": "address",
          "name": "currentMinter",
          "type": "address"
        },
        {
          "indexed": false,
          "internalType": "address",
          "name": "newMinter",
          "type": "address"
        }
      ],
      "name": "MinterApproved",
      "type": "event"
    },
    {
      "anonymous": false,
      "inputs": [
        {
          "indexed": false,
          "internalType": "address",
          "name": "currentMinter",
          "type": "address"
        },
        {
          "indexed": false,
          "internalType": "address",
          "name": "newMinter",
          "type": "address"
        }
      ],
      "name": "MinterProposed",
      "type": "event"
    },
    {
      "anonymous": false,
      "inputs": [
        {
          "indexed": false,
          "internalType": "bytes32",
          "name": "exchangeId",
          "type": "bytes32"
        },
        {
          "indexed": false,
          "internalType": "address",
          "name": "owner",
          "type": "address"
        }
      ],
      "name": "NewFixedRate",
      "type": "event"
    },
    {
      "anonymous": false,
      "inputs": [
        {
          "indexed": false,
          "internalType": "address",
          "name": "poolAddress",
          "type": "address"
        },
        {
          "indexed": false,
          "internalType": "address",
          "name": "ssContract",
          "type": "address"
        },
        {
          "indexed": false,
          "internalType": "address",
          "name": "basetokenAddress",
          "type": "address"
        }
      ],
      "name": "NewPool",
      "type": "event"
    },
    {
      "anonymous": false,
      "inputs": [
        {
          "indexed": true,
          "internalType": "address",
          "name": "consumer",
          "type": "address"
        },
        {
          "indexed": false,
          "internalType": "address",
          "name": "payer",
          "type": "address"
        },
        {
          "indexed": false,
          "internalType": "uint256",
          "name": "amount",
          "type": "uint256"
        },
        {
          "indexed": false,
          "internalType": "uint256",
          "name": "serviceId",
          "type": "uint256"
        },
        {
          "indexed": false,
          "internalType": "uint256",
          "name": "timestamp",
          "type": "uint256"
        },
        {
          "indexed": true,
          "internalType": "address",
          "name": "publishMarketAddress",
          "type": "address"
        },
        {
          "indexed": true,
          "internalType": "address",
          "name": "consumeFeeMarketAddress",
          "type": "address"
        },
        {
          "indexed": false,
          "internalType": "uint256",
          "name": "blockNumber",
          "type": "uint256"
        }
      ],
      "name": "OrderStarted",
      "type": "event"
    },
    {
      "anonymous": false,
      "inputs": [
        {
          "indexed": true,
          "internalType": "address",
          "name": "user",
          "type": "address"
        },
        {
          "indexed": true,
          "internalType": "address",
          "name": "signer",
          "type": "address"
        },
        {
          "indexed": false,
          "internalType": "uint256",
          "name": "timestamp",
          "type": "uint256"
        },
        {
          "indexed": false,
          "internalType": "uint256",
          "name": "blockNumber",
          "type": "uint256"
        }
      ],
      "name": "RemovedFeeManager",
      "type": "event"
    },
    {
      "anonymous": false,
      "inputs": [
        {
          "indexed": true,
          "internalType": "address",
          "name": "user",
          "type": "address"
        },
        {
          "indexed": true,
          "internalType": "address",
          "name": "signer",
          "type": "address"
        },
        {
          "indexed": false,
          "internalType": "uint256",
          "name": "timestamp",
          "type": "uint256"
        },
        {
          "indexed": false,
          "internalType": "uint256",
          "name": "blockNumber",
          "type": "uint256"
        }
      ],
      "name": "RemovedMinter",
      "type": "event"
    },
    {
      "anonymous": false,
      "inputs": [
        {
          "indexed": true,
          "internalType": "address",
          "name": "from",
          "type": "address"
        },
        {
          "indexed": true,
          "internalType": "address",
          "name": "to",
          "type": "address"
        },
        {
          "indexed": false,
          "internalType": "uint256",
          "name": "value",
          "type": "uint256"
        }
      ],
      "name": "Transfer",
      "type": "event"
    },
    {
      "stateMutability": "payable",
      "type": "fallback"
    },
    {
      "inputs": [],
      "name": "BASE",
      "outputs": [
        {
          "internalType": "uint256",
          "name": "",
          "type": "uint256"
        }
      ],
      "stateMutability": "view",
      "type": "function"
    },
    {
      "inputs": [],
      "name": "BASE_COMMUNITY_FEE_PERCENTAGE",
      "outputs": [
        {
          "internalType": "uint256",
          "name": "",
          "type": "uint256"
        }
      ],
      "stateMutability": "view",
      "type": "function"
    },
    {
      "inputs": [],
      "name": "DOMAIN_SEPARATOR",
      "outputs": [
        {
          "internalType": "bytes32",
          "name": "",
          "type": "bytes32"
        }
      ],
      "stateMutability": "view",
      "type": "function"
    },
    {
      "inputs": [],
      "name": "PERMIT_TYPEHASH",
      "outputs": [
        {
          "internalType": "bytes32",
          "name": "",
          "type": "bytes32"
        }
      ],
      "stateMutability": "view",
      "type": "function"
    },
    {
      "inputs": [
        {
          "internalType": "address",
          "name": "_feeManager",
          "type": "address"
        }
      ],
      "name": "addFeeManager",
      "outputs": [],
      "stateMutability": "nonpayable",
      "type": "function"
    },
    {
      "inputs": [
        {
          "internalType": "address",
          "name": "_minter",
          "type": "address"
        }
      ],
      "name": "addMinter",
      "outputs": [],
      "stateMutability": "nonpayable",
      "type": "function"
    },
    {
      "inputs": [
        {
          "internalType": "address",
          "name": "owner",
          "type": "address"
        },
        {
          "internalType": "address",
          "name": "spender",
          "type": "address"
        }
      ],
      "name": "allowance",
      "outputs": [
        {
          "internalType": "uint256",
          "name": "",
          "type": "uint256"
        }
      ],
      "stateMutability": "view",
      "type": "function"
    },
    {
      "inputs": [
        {
          "internalType": "address",
          "name": "spender",
          "type": "address"
        },
        {
          "internalType": "uint256",
          "name": "amount",
          "type": "uint256"
        }
      ],
      "name": "approve",
      "outputs": [
        {
          "internalType": "bool",
          "name": "",
          "type": "bool"
        }
      ],
      "stateMutability": "nonpayable",
      "type": "function"
    },
    {
      "inputs": [
        {
          "internalType": "uint256",
          "name": "",
          "type": "uint256"
        }
      ],
      "name": "authERC20",
      "outputs": [
        {
          "internalType": "address",
          "name": "",
          "type": "address"
        }
      ],
      "stateMutability": "view",
      "type": "function"
    },
    {
      "inputs": [
        {
          "internalType": "address",
          "name": "account",
          "type": "address"
        }
      ],
      "name": "balanceOf",
      "outputs": [
        {
          "internalType": "uint256",
          "name": "",
          "type": "uint256"
        }
      ],
      "stateMutability": "view",
      "type": "function"
    },
    {
      "inputs": [
        {
          "internalType": "uint256",
          "name": "amount",
          "type": "uint256"
        }
      ],
      "name": "burn",
      "outputs": [],
      "stateMutability": "nonpayable",
      "type": "function"
    },
    {
      "inputs": [
        {
          "internalType": "address",
          "name": "account",
          "type": "address"
        },
        {
          "internalType": "uint256",
          "name": "amount",
          "type": "uint256"
        }
      ],
      "name": "burnFrom",
      "outputs": [],
      "stateMutability": "nonpayable",
      "type": "function"
    },
    {
      "inputs": [
        {
          "components": [
            {
              "internalType": "address",
              "name": "consumer",
              "type": "address"
            },
            {
              "internalType": "uint256",
              "name": "amount",
              "type": "uint256"
            },
            {
              "internalType": "uint256",
              "name": "serviceId",
              "type": "uint256"
            },
            {
              "internalType": "address",
              "name": "consumeFeeAddress",
              "type": "address"
            },
            {
              "internalType": "address",
              "name": "consumeFeeToken",
              "type": "address"
            },
            {
              "internalType": "uint256",
              "name": "consumeFeeAmount",
              "type": "uint256"
            }
          ],
          "internalType": "struct ERC20TemplateEnterprise.OrderParams",
          "name": "_orderParams",
          "type": "tuple"
        },
        {
          "internalType": "address",
          "name": "dispenserContract",
          "type": "address"
        }
      ],
      "name": "buyFromDispenserAndOrder",
      "outputs": [],
      "stateMutability": "nonpayable",
      "type": "function"
    },
    {
      "inputs": [
        {
          "components": [
            {
              "internalType": "address",
              "name": "consumer",
              "type": "address"
            },
            {
              "internalType": "uint256",
              "name": "amount",
              "type": "uint256"
            },
            {
              "internalType": "uint256",
              "name": "serviceId",
              "type": "uint256"
            },
            {
              "internalType": "address",
              "name": "consumeFeeAddress",
              "type": "address"
            },
            {
              "internalType": "address",
              "name": "consumeFeeToken",
              "type": "address"
            },
            {
              "internalType": "uint256",
              "name": "consumeFeeAmount",
              "type": "uint256"
            }
          ],
          "internalType": "struct ERC20TemplateEnterprise.OrderParams",
          "name": "_orderParams",
          "type": "tuple"
        },
        {
          "components": [
            {
              "internalType": "address",
              "name": "exchangeContract",
              "type": "address"
            },
            {
              "internalType": "bytes32",
              "name": "exchangeId",
              "type": "bytes32"
            },
            {
              "internalType": "uint256",
              "name": "maxBaseTokenAmount",
              "type": "uint256"
            }
          ],
          "internalType": "struct ERC20TemplateEnterprise.FreParams",
          "name": "_freParams",
          "type": "tuple"
        }
      ],
      "name": "buyFromFreAndOrder",
      "outputs": [],
      "stateMutability": "nonpayable",
      "type": "function"
    },
    {
      "inputs": [],
      "name": "cap",
      "outputs": [
        {
          "internalType": "uint256",
          "name": "",
          "type": "uint256"
        }
      ],
      "stateMutability": "view",
      "type": "function"
    },
    {
      "inputs": [],
      "name": "cleanFrom721",
      "outputs": [],
      "stateMutability": "nonpayable",
      "type": "function"
    },
    {
      "inputs": [],
      "name": "cleanPermissions",
      "outputs": [],
      "stateMutability": "nonpayable",
      "type": "function"
    },
    {
      "inputs": [
        {
          "internalType": "address",
          "name": "_dispenser",
          "type": "address"
        },
        {
          "internalType": "uint256",
          "name": "maxTokens",
          "type": "uint256"
        },
        {
          "internalType": "uint256",
          "name": "maxBalance",
          "type": "uint256"
        },
        {
          "internalType": "bool",
          "name": "withMint",
          "type": "bool"
        }
      ],
      "name": "createDispenser",
      "outputs": [],
      "stateMutability": "nonpayable",
      "type": "function"
    },
    {
      "inputs": [
        {
          "internalType": "address",
          "name": "fixedPriceAddress",
          "type": "address"
        },
        {
          "internalType": "address[]",
          "name": "addresses",
          "type": "address[]"
        },
        {
          "internalType": "uint256[]",
          "name": "uints",
          "type": "uint256[]"
        }
      ],
      "name": "createFixedRate",
      "outputs": [
        {
          "internalType": "bytes32",
          "name": "exchangeId",
          "type": "bytes32"
        }
      ],
      "stateMutability": "nonpayable",
      "type": "function"
    },
    {
      "inputs": [],
      "name": "decimals",
      "outputs": [
        {
          "internalType": "uint8",
          "name": "",
          "type": "uint8"
        }
      ],
      "stateMutability": "pure",
      "type": "function"
    },
    {
      "inputs": [
        {
          "internalType": "address",
          "name": "spender",
          "type": "address"
        },
        {
          "internalType": "uint256",
          "name": "subtractedValue",
          "type": "uint256"
        }
      ],
      "name": "decreaseAllowance",
      "outputs": [
        {
          "internalType": "bool",
          "name": "",
          "type": "bool"
        }
      ],
      "stateMutability": "nonpayable",
      "type": "function"
    },
    {
      "inputs": [],
      "name": "getERC721Address",
      "outputs": [
        {
          "internalType": "address",
          "name": "",
          "type": "address"
        }
      ],
      "stateMutability": "view",
      "type": "function"
    },
    {
      "inputs": [],
      "name": "getFeeCollector",
      "outputs": [
        {
          "internalType": "address",
          "name": "",
          "type": "address"
        }
      ],
      "stateMutability": "view",
      "type": "function"
    },
    {
      "inputs": [],
      "name": "getId",
      "outputs": [
        {
          "internalType": "uint8",
          "name": "",
          "type": "uint8"
        }
      ],
      "stateMutability": "pure",
      "type": "function"
    },
    {
      "inputs": [],
      "name": "getPublishingMarketFee",
      "outputs": [
        {
          "internalType": "address",
          "name": "",
          "type": "address"
        },
        {
          "internalType": "address",
          "name": "",
          "type": "address"
        },
        {
          "internalType": "uint256",
          "name": "",
          "type": "uint256"
        }
      ],
      "stateMutability": "view",
      "type": "function"
    },
    {
      "inputs": [
        {
          "internalType": "address",
          "name": "spender",
          "type": "address"
        },
        {
          "internalType": "uint256",
          "name": "addedValue",
          "type": "uint256"
        }
      ],
      "name": "increaseAllowance",
      "outputs": [
        {
          "internalType": "bool",
          "name": "",
          "type": "bool"
        }
      ],
      "stateMutability": "nonpayable",
      "type": "function"
    },
    {
      "inputs": [
        {
          "internalType": "string[]",
          "name": "strings_",
          "type": "string[]"
        },
        {
          "internalType": "address[]",
          "name": "addresses_",
          "type": "address[]"
        },
        {
          "internalType": "address[]",
          "name": "factoryAddresses_",
          "type": "address[]"
        },
        {
          "internalType": "uint256[]",
          "name": "uints_",
          "type": "uint256[]"
        },
        {
          "internalType": "bytes[]",
          "name": "bytes_",
          "type": "bytes[]"
        }
      ],
      "name": "initialize",
      "outputs": [
        {
          "internalType": "bool",
          "name": "",
          "type": "bool"
        }
      ],
      "stateMutability": "nonpayable",
      "type": "function"
    },
    {
      "inputs": [],
      "name": "isInitialized",
      "outputs": [
        {
          "internalType": "bool",
          "name": "",
          "type": "bool"
        }
      ],
      "stateMutability": "view",
      "type": "function"
    },
    {
      "inputs": [
        {
          "internalType": "address",
          "name": "account",
          "type": "address"
        }
      ],
      "name": "isMinter",
      "outputs": [
        {
          "internalType": "bool",
          "name": "",
          "type": "bool"
        }
      ],
      "stateMutability": "view",
      "type": "function"
    },
    {
      "inputs": [
        {
          "internalType": "address",
          "name": "account",
          "type": "address"
        },
        {
          "internalType": "uint256",
          "name": "value",
          "type": "uint256"
        }
      ],
      "name": "mint",
      "outputs": [],
      "stateMutability": "nonpayable",
      "type": "function"
    },
    {
      "inputs": [],
      "name": "name",
      "outputs": [
        {
          "internalType": "string",
          "name": "",
          "type": "string"
        }
      ],
      "stateMutability": "view",
      "type": "function"
    },
    {
      "inputs": [
        {
          "internalType": "address",
          "name": "",
          "type": "address"
        }
      ],
      "name": "nonces",
      "outputs": [
        {
          "internalType": "uint256",
          "name": "",
          "type": "uint256"
        }
      ],
      "stateMutability": "view",
      "type": "function"
    },
    {
      "inputs": [
        {
          "internalType": "address",
          "name": "",
          "type": "address"
        }
      ],
      "name": "permissions",
      "outputs": [
        {
          "internalType": "bool",
          "name": "minter",
          "type": "bool"
        },
        {
          "internalType": "bool",
          "name": "feeManager",
          "type": "bool"
        }
      ],
      "stateMutability": "view",
      "type": "function"
    },
    {
      "inputs": [
        {
          "internalType": "address",
          "name": "owner",
          "type": "address"
        },
        {
          "internalType": "address",
          "name": "spender",
          "type": "address"
        },
        {
          "internalType": "uint256",
          "name": "value",
          "type": "uint256"
        },
        {
          "internalType": "uint256",
          "name": "deadline",
          "type": "uint256"
        },
        {
          "internalType": "uint8",
          "name": "v",
          "type": "uint8"
        },
        {
          "internalType": "bytes32",
          "name": "r",
          "type": "bytes32"
        },
        {
          "internalType": "bytes32",
          "name": "s",
          "type": "bytes32"
        }
      ],
      "name": "permit",
      "outputs": [],
      "stateMutability": "nonpayable",
      "type": "function"
    },
    {
      "inputs": [
        {
          "internalType": "address",
          "name": "_feeManager",
          "type": "address"
        }
      ],
      "name": "removeFeeManager",
      "outputs": [],
      "stateMutability": "nonpayable",
      "type": "function"
    },
    {
      "inputs": [
        {
          "internalType": "address",
          "name": "_minter",
          "type": "address"
        }
      ],
      "name": "removeMinter",
      "outputs": [],
      "stateMutability": "nonpayable",
      "type": "function"
    },
    {
      "inputs": [],
      "name": "router",
      "outputs": [
        {
          "internalType": "address",
          "name": "",
          "type": "address"
        }
      ],
      "stateMutability": "view",
      "type": "function"
    },
    {
      "inputs": [
        {
          "internalType": "bytes",
          "name": "_value",
          "type": "bytes"
        }
      ],
      "name": "setData",
      "outputs": [],
      "stateMutability": "nonpayable",
      "type": "function"
    },
    {
      "inputs": [
        {
          "internalType": "address",
          "name": "_newFeeCollector",
          "type": "address"
        }
      ],
      "name": "setFeeCollector",
      "outputs": [],
      "stateMutability": "nonpayable",
      "type": "function"
    },
    {
      "inputs": [
        {
          "internalType": "address",
          "name": "_publishMarketFeeAddress",
          "type": "address"
        },
        {
          "internalType": "address",
          "name": "_publishMarketFeeToken",
          "type": "address"
        },
        {
          "internalType": "uint256",
          "name": "_publishMarketFeeAmount",
          "type": "uint256"
        }
      ],
      "name": "setPublishingMarketFee",
      "outputs": [],
      "stateMutability": "nonpayable",
      "type": "function"
    },
    {
      "inputs": [
        {
          "internalType": "address",
          "name": "consumer",
          "type": "address"
        },
        {
          "internalType": "uint256",
          "name": "amount",
          "type": "uint256"
        },
        {
          "internalType": "uint256",
          "name": "serviceId",
          "type": "uint256"
        },
        {
          "internalType": "address",
          "name": "consumeFeeAddress",
          "type": "address"
        },
        {
          "internalType": "address",
          "name": "consumeFeeToken",
          "type": "address"
        },
        {
          "internalType": "uint256",
          "name": "consumeFeeAmount",
          "type": "uint256"
        }
      ],
      "name": "startOrder",
      "outputs": [],
      "stateMutability": "nonpayable",
      "type": "function"
    },
    {
      "inputs": [],
      "name": "symbol",
      "outputs": [
        {
          "internalType": "string",
          "name": "",
          "type": "string"
        }
      ],
      "stateMutability": "view",
      "type": "function"
    },
    {
      "inputs": [],
      "name": "totalSupply",
      "outputs": [
        {
          "internalType": "uint256",
          "name": "",
          "type": "uint256"
        }
      ],
      "stateMutability": "view",
      "type": "function"
    },
    {
      "inputs": [
        {
          "internalType": "address",
          "name": "recipient",
          "type": "address"
        },
        {
          "internalType": "uint256",
          "name": "amount",
          "type": "uint256"
        }
      ],
      "name": "transfer",
      "outputs": [
        {
          "internalType": "bool",
          "name": "",
          "type": "bool"
        }
      ],
      "stateMutability": "nonpayable",
      "type": "function"
    },
    {
      "inputs": [
        {
          "internalType": "address",
          "name": "sender",
          "type": "address"
        },
        {
          "internalType": "address",
          "name": "recipient",
          "type": "address"
        },
        {
          "internalType": "uint256",
          "name": "amount",
          "type": "uint256"
        }
      ],
      "name": "transferFrom",
      "outputs": [
        {
          "internalType": "bool",
          "name": "",
          "type": "bool"
        }
      ],
      "stateMutability": "nonpayable",
      "type": "function"
    },
    {
      "inputs": [],
      "name": "withdrawETH",
      "outputs": [],
      "stateMutability": "payable",
      "type": "function"
    }
  ],
  "bytecode": "0x6080604052600a805460ff60a01b191690553480156200001e57600080fd5b5060408051808201825260048152631d195cdd60e21b60208083019182528351808501909452600a8452691d195cdd14de5b589bdb60b21b9084015281519192916200006d916003916200008c565b508051620000839060049060208401906200008c565b5050506200016f565b8280546200009a9062000132565b90600052602060002090601f016020900481019282620000be576000855562000109565b82601f10620000d957805160ff191683800117855562000109565b8280016001018555821562000109579182015b8281111562000109578251825591602001919060010190620000ec565b50620001179291506200011b565b5090565b5b808211156200011757600081556001016200011c565b600181811c908216806200014757607f821691505b602082108114156200016957634e487b7160e01b600052602260045260246000fd5b50919050565b61432e806200017f6000396000f3fe6080604052600436106102675760003560e01c806379cc679011610143578063ab62f0e1116100bb578063e086e5ec11610077578063e086e5ec146107f1578063ec342ad0146107f9578063ef867ff414610815578063f887ea4014610835578063f94bb42114610855578063fda9dae71461087557005b8063ab62f0e114610716578063b2263a5d14610736578063b3998be01461074b578063c3d3cf4d1461076b578063d505accf1461078b578063dd62ed3e146107ab57005b806395d89b411161010a57806395d89b4114610648578063983b2d561461065d578063a42dce801461067d578063a457c2d71461069d578063a9059cbb146106bd578063aa271e1a146106dd57005b806379cc6790146105a65780637ecebe00146105c65780638115c9cc146105f357806382c03da5146106135780638b96412b1461062857005b8063355274ea116101e157806340c10f191161019d57806340c10f19146104e757806342966c68146105075780634f189cb21461052757806357ad5ff61461053c5780635d1ca6311461055c57806370a082311461057057005b8063355274ea1461042c5780633644e515146104415780633830285014610457578063392e53cd146104775780633950935114610496578063397b3743146104b657005b806318160ddd1161023057806318160ddd146103575780631f2d32c31461037657806323b872dd146103965780633092afd5146103b657806330adf81f146103d6578063313ce5671461040a57005b80627ffb781461026957806301e88208146102a057806306fdde03146102f0578063095ea7b31461031257806312fde4b714610342575b005b34801561027557600080fd5b50600b546001600160a01b03165b6040516001600160a01b0390911681526020015b60405180910390f35b3480156102ac57600080fd5b506102d96102bb3660046137b4565b60056020526000908152604090205460ff8082169161010090041682565b604080519215158352901515602083015201610297565b3480156102fc57600080fd5b50610305610895565b6040516102979190614001565b34801561031e57600080fd5b5061033261032d366004613a79565b610927565b6040519015158152602001610297565b34801561034e57600080fd5b5061028361093d565b34801561036357600080fd5b506002545b604051908152602001610297565b34801561038257600080fd5b506102676103913660046137b4565b6109e1565b3480156103a257600080fd5b506103326103b1366004613827565b610a98565b3480156103c257600080fd5b506102676103d13660046137b4565b610b42565b3480156103e257600080fd5b506103687f6e71edae12b1b97f4d1f60370fef10105fa2faae0126114a169c64845d6126c981565b34801561041657600080fd5b5060125b60405160ff9091168152602001610297565b34801561043857600080fd5b50600954610368565b34801561044d57600080fd5b5061036860105481565b34801561046357600080fd5b50610267610472366004613cef565b610bed565b34801561048357600080fd5b50600a54600160a01b900460ff16610332565b3480156104a257600080fd5b506103326104b1366004613a79565b610cf5565b3480156104c257600080fd5b50600d54600e54600f54604051610297936001600160a01b0390811693169190613f13565b3480156104f357600080fd5b50610267610502366004613a79565b610d31565b34801561051357600080fd5b50610267610522366004613e28565b610e03565b34801561053357600080fd5b50610267610e0d565b34801561054857600080fd5b50610267610557366004613827565b610f03565b34801561056857600080fd5b50600261041a565b34801561057c57600080fd5b5061036861058b3660046137b4565b6001600160a01b031660009081526020819052604090205490565b3480156105b257600080fd5b506102676105c1366004613a79565b610fa5565b3480156105d257600080fd5b506103686105e13660046137b4565b60116020526000908152604090205481565b3480156105ff57600080fd5b5061026761060e3660046137b4565b61102b565b34801561061f57600080fd5b506102676110d6565b34801561063457600080fd5b5061036861064336600461399c565b611130565b34801561065457600080fd5b50610305611314565b34801561066957600080fd5b506102676106783660046137b4565b611323565b34801561068957600080fd5b506102676106983660046137b4565b6113ce565b3480156106a957600080fd5b506103326106b8366004613a79565b61145a565b3480156106c957600080fd5b506103326106d8366004613a79565b6114f3565b3480156106e957600080fd5b506103326106f83660046137b4565b6001600160a01b031660009081526005602052604090205460ff1690565b34801561072257600080fd5b50610267610731366004613c7d565b611500565b34801561074257600080fd5b50610368611645565b34801561075757600080fd5b50610332610766366004613b56565b61165b565b34801561077757600080fd5b50610267610786366004613d1c565b611795565b34801561079757600080fd5b506102676107a6366004613925565b611c1b565b3480156107b757600080fd5b506103686107c63660046137ee565b6001600160a01b03918216600090815260016020908152604080832093909416825291909152205490565b610267611e2d565b34801561080557600080fd5b50610368670de0b6b3a764000081565b34801561082157600080fd5b50610283610830366004613e28565b611e6d565b34801561084157600080fd5b50601254610283906001600160a01b031681565b34801561086157600080fd5b50610267610870366004613b0c565b611e97565b34801561088157600080fd5b50610267610890366004613aa5565b611fd3565b6060600780546108a49061423d565b80601f01602080910402602001604051908101604052809291908181526020018280546108d09061423d565b801561091d5780601f106108f25761010080835404028352916020019161091d565b820191906000526020600020905b81548152906001019060200180831161090057829003601f168201915b5050505050905090565b6000610934338484611fe9565b50600192915050565b600c546000906001600160a01b03166109d157600b546040516331a9108f60e11b8152600160048201526001600160a01b0390911690636352211e9060240160206040518083038186803b15801561099457600080fd5b505afa1580156109a8573d6000803e3d6000fd5b505050506040513d601f19601f820116820180604052508101906109cc91906137d1565b905090565b50600c546001600160a01b031690565b600b5460405163160a792560e01b81523360048201526001600160a01b039091169063160a792590602401608060405180830381600087803b158015610a2657600080fd5b505af1158015610a3a573d6000803e3d6000fd5b505050506040513d601f19601f82011682018060405250810190610a5e9190613da3565b602001511515600114610a8c5760405162461bcd60e51b8152600401610a8390614056565b60405180910390fd5b610a958161210d565b50565b6000610aa5848484612223565b6001600160a01b038416600090815260016020908152604080832033845290915290205482811015610b2a5760405162461bcd60e51b815260206004820152602860248201527f45524332303a207472616e7366657220616d6f756e74206578636565647320616044820152676c6c6f77616e636560c01b6064820152608401610a83565b610b378533858403611fe9565b506001949350505050565b600b5460405163160a792560e01b81523360048201526001600160a01b039091169063160a792590602401608060405180830381600087803b158015610b8757600080fd5b505af1158015610b9b573d6000803e3d6000fd5b505050506040513d601f19601f82011682018060405250810190610bbf9190613da3565b602001511515600114610be45760405162461bcd60e51b8152600401610a8390614056565b610a95816123f1565b6020820151604051631d746d8360e01b815230600482015260248101919091523360448201526001600160a01b03821690631d746d8390606401600060405180830381600087803b158015610c4157600080fd5b505af1158015610c55573d6000803e3d6000fd5b505050508160200151610c7d336001600160a01b031660009081526020819052604090205490565b1015610ccb5760405162461bcd60e51b815260206004820152601f60248201527f556e61626c6520746f206765742044542066726f6d2044697370656e736572006044820152606401610a83565b610cf1826000015183602001518460400151856060015186608001518760a00151612451565b5050565b3360008181526001602090815260408083206001600160a01b03871684529091528120549091610934918590610d2c9086906140e0565b611fe9565b3360009081526005602052604090205460ff161515600114610d955760405162461bcd60e51b815260206004820152601960248201527f455243323054656d706c6174653a204e4f54204d494e544552000000000000006044820152606401610a83565b600954610dab82610da560025490565b90612c96565b1115610df95760405162461bcd60e51b815260206004820152601f60248201527f44617461546f6b656e54656d706c6174653a20636170206578636565646564006044820152606401610a83565b610cf18282612ca9565b610a953382612d88565b600b546040516331a9108f60e11b8152600160048201526001600160a01b0390911690636352211e9060240160206040518083038186803b158015610e5157600080fd5b505afa158015610e65573d6000803e3d6000fd5b505050506040513d601f19601f82011682018060405250810190610e8991906137d1565b6001600160a01b0316336001600160a01b031614610ee95760405162461bcd60e51b815260206004820152601b60248201527f455243323054656d706c6174653a206e6f74204e46544f776e657200000000006044820152606401610a83565b610ef1612ed6565b600c80546001600160a01b0319169055565b600d546001600160a01b03163314610f705760405162461bcd60e51b815260206004820152602a60248201527f455243323054656d706c6174653a206e6f74207075626c6973684d61726b65746044820152694665654164647265737360b01b6064820152608401610a83565b600d80546001600160a01b039485166001600160a01b031991821617909155600e805493909416921691909117909155600f55565b6000610fb183336107c6565b90508181101561100f5760405162461bcd60e51b8152602060048201526024808201527f45524332303a206275726e20616d6f756e74206578636565647320616c6c6f77604482015263616e636560e01b6064820152608401610a83565b61101c8333848403611fe9565b6110268383612d88565b505050565b600b5460405163160a792560e01b81523360048201526001600160a01b039091169063160a792590602401608060405180830381600087803b15801561107057600080fd5b505af1158015611084573d6000803e3d6000fd5b505050506040513d601f19601f820116820180604052508101906110a89190613da3565b6020015115156001146110cd5760405162461bcd60e51b8152600401610a8390614056565b610a9581612f85565b600b546001600160a01b03163314610ee95760405162461bcd60e51b815260206004820152601f60248201527f455243323054656d706c6174653a204e4f542037323120436f6e7472616374006044820152606401610a83565b600b5460405163160a792560e01b81523360048201526000916001600160a01b03169063160a792590602401608060405180830381600087803b15801561117657600080fd5b505af115801561118a573d6000803e3d6000fd5b505050506040513d601f19601f820116820180604052508101906111ae9190613da3565b6020015115156001146111d35760405162461bcd60e51b8152600401610a8390614056565b30836003815181106111e7576111e76142a9565b6001600160a01b039283166020918202929092010152601254604051638244937560e01b815291169063824493759061122890879087908790600401613f37565b602060405180830381600087803b15801561124257600080fd5b505af1158015611256573d6000803e3d6000fd5b505050506040513d601f19601f8201168201806040525081019061127a9190613c64565b9050600082600481518110611291576112916142a9565b602002602001015111156112a8576112a884612fe6565b7f195d202f33578769e120c3041341554af3193e67ee004175095bc9c06e6e616581846000815181106112dd576112dd6142a9565b60200260200101516040516113059291909182526001600160a01b0316602082015260400190565b60405180910390a19392505050565b6060600880546108a49061423d565b600b5460405163160a792560e01b81523360048201526001600160a01b039091169063160a792590602401608060405180830381600087803b15801561136857600080fd5b505af115801561137c573d6000803e3d6000fd5b505050506040513d601f19601f820116820180604052508101906113a09190613da3565b6020015115156001146113c55760405162461bcd60e51b8152600401610a8390614056565b610a9581612fe6565b3360009081526005602052604090205460ff6101009091041615156001146114385760405162461bcd60e51b815260206004820152601e60248201527f455243323054656d706c6174653a204e4f5420464545204d414e4147455200006044820152606401610a83565b600c80546001600160a01b0319166001600160a01b0392909216919091179055565b3360009081526001602090815260408083206001600160a01b0386168452909152812054828110156114dc5760405162461bcd60e51b815260206004820152602560248201527f45524332303a2064656372656173656420616c6c6f77616e63652062656c6f77604482015264207a65726f60d81b6064820152608401610a83565b6114e93385858403611fe9565b5060019392505050565b6000610934338484612223565b600b5460405163160a792560e01b81523360048201526001600160a01b039091169063160a792590602401608060405180830381600087803b15801561154557600080fd5b505af1158015611559573d6000803e3d6000fd5b505050506040513d601f19601f8201168201806040525081019061157d9190613da3565b6020015115156001146115a25760405162461bcd60e51b8152600401610a8390614056565b6040516bffffffffffffffffffffffff193060601b16602082015260009060340160408051601f19818403018152908290528051602090910120600b546301caf8fd60e31b83529092506001600160a01b031690630e57c7e89061160e90849087908790600401613fcb565b600060405180830381600087803b15801561162857600080fd5b505af115801561163c573d6000803e3d6000fd5b50505050505050565b6116586064670de0b6b3a76400006140f8565b81565b600a54600090600160a01b900460ff16156116d25760405162461bcd60e51b815260206004820152603160248201527f455243323054656d706c6174653a20746f6b656e20696e7374616e636520616c6044820152701c9958591e481a5b9a5d1a585b1a5e9959607a1b6064820152608401610a83565b6117866116df8b8d6141bd565b8a8a8080602002602001604051908101604052809392919081815260200183836020028082843760009201919091525050604080516020808e0282810182019093528d82529093508d92508c91829185019084908082843760009201919091525050604080516020808d0282810182019093528c82529093508c92508b91829185019084908082843760009201919091525061178192508991508a9050614131565b6130e0565b9b9a5050505050505050505050565b80516020820151604051634c87087d60e01b815260009283926001600160a01b0390911691634c87087d916117d09160040190815260200190565b6101806040518083038186803b1580156117e957600080fd5b505afa1580156117fd573d6000803e3d6000fd5b505050506040513d601f19601f820116820180604052508101906118219190613868565b5050505050505050935050925050306001600160a01b0316826001600160a01b0316146118a05760405162461bcd60e51b815260206004820152602760248201527f5468697320466978656452617465206973206e6f742070726f766964696e67206044820152661d1a1a5cc8111560ca1b6064820152608401610a83565b82516020808501519086015160405163c99733a760e01b81526000936001600160a01b03169263c99733a7926118e192600401918252602082015260400190565b60806040518083038186803b1580156118f957600080fd5b505afa15801561190d573d6000803e3d6000fd5b505050506040513d601f19601f820116820180604052508101906119319190613e41565b5050509050836040015181111561199a5760405162461bcd60e51b815260206004820152602760248201527f46697865645261746545786368616e67653a20546f6f206d616e79206261736560448201526620746f6b656e7360c81b6064820152608401610a83565b6040516323b872dd60e01b81526001600160a01b038316906323b872dd906119ca90339030908690600401613f13565b602060405180830381600087803b1580156119e457600080fd5b505af11580156119f8573d6000803e3d6000fd5b505050506040513d601f19601f82011682018060405250810190611a1c9190613c47565b611a735760405162461bcd60e51b815260206004820152602260248201527f4661696c656420746f207472616e736665722062617365546f6b656e416d6f756044820152611b9d60f21b6064820152608401610a83565b835160405163095ea7b360e01b81526001600160a01b039182166004820152602481018390529083169063095ea7b390604401602060405180830381600087803b158015611ac057600080fd5b505af1158015611ad4573d6000803e3d6000fd5b505050506040513d601f19601f82011682018060405250810190611af89190613c47565b5083516020808601519087015160405163412dae6b60e11b815260048101929092526024820152604481018390526001600160a01b039091169063825b5cd690606401600060405180830381600087803b158015611b5557600080fd5b505af1158015611b69573d6000803e3d6000fd5b505050508460200151611b91306001600160a01b031660009081526020819052604090205490565b1015611bdf5760405162461bcd60e51b815260206004820152601f60248201527f556e61626c6520746f206275792044542066726f6d20466978656452617465006044820152606401610a83565b611bee30338760200151612223565b611c14856000015186602001518760400151886060015189608001518a60a00151612451565b5050505050565b42841015611c5e5760405162461bcd60e51b815260206004820152601060248201526f115490cc8c11150e881156141254915160821b6044820152606401610a83565b6010546001600160a01b038816600090815260116020526040812080549192917f6e71edae12b1b97f4d1f60370fef10105fa2faae0126114a169c64845d6126c9918b918b918b919087611cb183614278565b909155506040805160208101969096526001600160a01b0394851690860152929091166060840152608083015260a082015260c0810187905260e00160405160208183030381529060405280519060200120604051602001611d2a92919061190160f01b81526002810192909252602282015260420190565b60408051601f198184030181528282528051602091820120600080855291840180845281905260ff88169284019290925260608301869052608083018590529092509060019060a0016020604051602081039080840390855afa158015611d95573d6000803e3d6000fd5b5050604051601f1901519150506001600160a01b03811615801590611dcb5750886001600160a01b0316816001600160a01b0316145b611e175760405162461bcd60e51b815260206004820152601a60248201527f455243323044543a20494e56414c49445f5349474e41545552450000000000006044820152606401610a83565b611e22898989611fe9565b505050505050505050565b611e3561093d565b6001600160a01b03166108fc479081150290604051600060405180830381858888f19350505050158015610a95573d6000803e3d6000fd5b60068181548110611e7d57600080fd5b6000918252602090912001546001600160a01b0316905081565b600b5460405163160a792560e01b81523360048201526001600160a01b039091169063160a792590602401608060405180830381600087803b158015611edc57600080fd5b505af1158015611ef0573d6000803e3d6000fd5b505050506040513d601f19601f82011682018060405250810190611f149190613da3565b602001511515600114611f395760405162461bcd60e51b8152600401610a8390614056565b601254604051636b14d00560e11b81526001600160a01b0386811660048301523060248301819052604483018790526064830186905233608484015260a48301529091169063d629a00a9060c401600060405180830381600087803b158015611fa157600080fd5b505af1158015611fb5573d6000803e3d6000fd5b5050505080151560011415611fcd57611fcd84612fe6565b50505050565b611fe1868686868686612451565b505050505050565b6001600160a01b03831661204b5760405162461bcd60e51b8152602060048201526024808201527f45524332303a20617070726f76652066726f6d20746865207a65726f206164646044820152637265737360e01b6064820152608401610a83565b6001600160a01b0382166120ac5760405162461bcd60e51b815260206004820152602260248201527f45524332303a20617070726f766520746f20746865207a65726f206164647265604482015261737360f01b6064820152608401610a83565b6001600160a01b0383811660008181526001602090815260408083209487168084529482529182902085905590518481527f8c5be1e5ebec7d5bd14f71427d1e84f3dd0314c0f7b2291e5b200ac8c7c3b925910160405180910390a3505050565b6001600160a01b03811660009081526005602052604090208054610100900460ff16156121875760405162461bcd60e51b815260206004820152602260248201527f4552433230526f6c65733a2020414c5245414459204120464545204d414e414760448201526122a960f11b6064820152608401610a83565b805461ff001916610100178155600680546001810182556000919091527ff652222313e28459528d920b65115c16c04f3efc82aaedc97be59f3f377c0d3f0180546001600160a01b0384166001600160a01b03199091168117909155604080514281524360208201523392917f5b0831b6bc7ca878cadad8a6b96869b9db121df456a859f03261d13f4d08204b91015b60405180910390a35050565b6001600160a01b0383166122875760405162461bcd60e51b815260206004820152602560248201527f45524332303a207472616e736665722066726f6d20746865207a65726f206164604482015264647265737360d81b6064820152608401610a83565b6001600160a01b0382166122e95760405162461bcd60e51b815260206004820152602360248201527f45524332303a207472616e7366657220746f20746865207a65726f206164647260448201526265737360e81b6064820152608401610a83565b6001600160a01b038316600090815260208190526040902054818110156123615760405162461bcd60e51b815260206004820152602660248201527f45524332303a207472616e7366657220616d6f756e7420657863656564732062604482015265616c616e636560d01b6064820152608401610a83565b6001600160a01b038085166000908152602081905260408082208585039055918516815290812080548492906123989084906140e0565b92505081905550826001600160a01b0316846001600160a01b03167fddf252ad1be2c89b69c2b068fc378daa952ba7f163c4a11628f55a4df523b3ef846040516123e491815260200190565b60405180910390a3611fcd565b6001600160a01b03811660008181526005602052604090819020805460ff191681559051909133917fefa2735987005aaa89c050c0ff8cc9ae7d9079d19382081c429130f98c52d480906122179042904390918252602082015260400190565b3360009081526020819052604081205481908711156124c05760405162461bcd60e51b815260206004820152602560248201527f4e6f7420656e6f756768204461746120546f6b656e7320746f2073746172742060448201526427b93232b960d91b6064820152608401610a83565b6000600f541180156124dc5750600e546001600160a01b031615155b80156124f25750600d546001600160a01b031615155b156126f457600e54600f546040516323b872dd60e01b81526001600160a01b03909216916323b872dd9161252c9133913091600401613f13565b602060405180830381600087803b15801561254657600080fd5b505af115801561255a573d6000803e3d6000fd5b505050506040513d601f19601f8201168201806040525081019061257e9190613c47565b6125d65760405162461bcd60e51b815260206004820152602360248201527f4661696c656420746f207472616e73666572207075626c6973684d61726b657460448201526246656560e81b6064820152608401610a83565b600f546125e490606461353a565b600e54600d54600f549293506001600160a01b039182169263a9059cbb92909116906126109085613546565b6040516001600160e01b031960e085901b1681526001600160a01b0390921660048301526024820152604401602060405180830381600087803b15801561265657600080fd5b505af115801561266a573d6000803e3d6000fd5b505050506040513d601f19601f8201168201806040525081019061268e9190613c47565b6126f45760405162461bcd60e51b815260206004820152603160248201527f4661696c656420746f207472616e736665722066656520746f207075626c6973604482015270684d61726b65744665654164647265737360781b6064820152608401610a83565b60008311801561270c57506001600160a01b03841615155b801561272057506001600160a01b03851615155b156128f8576040516323b872dd60e01b81526001600160a01b038516906323b872dd9061275590339030908890600401613f13565b602060405180830381600087803b15801561276f57600080fd5b505af1158015612783573d6000803e3d6000fd5b505050506040513d601f19601f820116820180604052508101906127a79190613c47565b6127f35760405162461bcd60e51b815260206004820152601d60248201527f4661696c656420746f207472616e7366657220636f6e73756d654665650000006044820152606401610a83565b6127fe83606461353a565b91506001600160a01b03841663a9059cbb8661281a8686613546565b6040516001600160e01b031960e085901b1681526001600160a01b0390921660048301526024820152604401602060405180830381600087803b15801561286057600080fd5b505af1158015612874573d6000803e3d6000fd5b505050506040513d601f19601f820116820180604052508101906128989190613c47565b6128f85760405162461bcd60e51b815260206004820152602b60248201527f4661696c656420746f207472616e736665722066656520746f20636f6e73756d60448201526a654665654164647265737360a81b6064820152608401610a83565b6000811180156129085750600082115b80156129215750600e546001600160a01b038581169116145b15612a2157600a546001600160a01b038086169163a9059cbb91166129468486612c96565b6040516001600160e01b031960e085901b1681526001600160a01b0390921660048301526024820152604401602060405180830381600087803b15801561298c57600080fd5b505af11580156129a0573d6000803e3d6000fd5b505050506040513d601f19601f820116820180604052508101906129c49190613c47565b612a1c5760405162461bcd60e51b815260206004820152602360248201527f4661696c656420746f207472616e7366657220626f7468206665657320746f2060448201526227a82360e91b6064820152608401610a83565b612c20565b600081118015612a3b5750600e546001600160a01b031615155b15612b2357600e54600a5460405163a9059cbb60e01b81526001600160a01b0391821660048201526024810184905291169063a9059cbb90604401602060405180830381600087803b158015612a9057600080fd5b505af1158015612aa4573d6000803e3d6000fd5b505050506040513d601f19601f82011682018060405250810190612ac89190613c47565b612b235760405162461bcd60e51b815260206004820152602660248201527f4661696c656420746f207472616e73666572207075626c6973682066656573206044820152653a379027a82360d11b6064820152608401610a83565b600082118015612b3b57506001600160a01b03841615155b15612c2057600a5460405163a9059cbb60e01b81526001600160a01b039182166004820152602481018490529085169063a9059cbb90604401602060405180830381600087803b158015612b8e57600080fd5b505af1158015612ba2573d6000803e3d6000fd5b505050506040513d601f19601f82011682018060405250810190612bc69190613c47565b612c205760405162461bcd60e51b815260206004820152602560248201527f4661696c656420746f207472616e7366657220636f6e73756d65206665652074604482015264379027a82360d91b6064820152608401610a83565b612c2987610e03565b600d5460408051338152602081018a90529081018890524260608201524360808201526001600160a01b0387811692811691908b16907fb07adb6a34680ecbbc7935971c45a07b9baf67ce5dc57332d51e3a5745c9e9639060a00160405180910390a45050505050505050565b6000612ca282846140e0565b9392505050565b6001600160a01b038216612cff5760405162461bcd60e51b815260206004820152601f60248201527f45524332303a206d696e7420746f20746865207a65726f2061646472657373006044820152606401610a83565b8060026000828254612d1191906140e0565b90915550506001600160a01b03821660009081526020819052604081208054839290612d3e9084906140e0565b90915550506040518181526001600160a01b038316906000907fddf252ad1be2c89b69c2b068fc378daa952ba7f163c4a11628f55a4df523b3ef9060200160405180910390a35050565b6001600160a01b038216612de85760405162461bcd60e51b815260206004820152602160248201527f45524332303a206275726e2066726f6d20746865207a65726f206164647265736044820152607360f81b6064820152608401610a83565b6001600160a01b03821660009081526020819052604090205481811015612e5c5760405162461bcd60e51b815260206004820152602260248201527f45524332303a206275726e20616d6f756e7420657863656564732062616c616e604482015261636560f01b6064820152608401610a83565b6001600160a01b0383166000908152602081905260408120838303905560028054849290612e8b90849061411a565b90915550506040518281526000906001600160a01b038516907fddf252ad1be2c89b69c2b068fc378daa952ba7f163c4a11628f55a4df523b3ef9060200160405180910390a3505050565b60005b600654811015612f3c5760006005600060068481548110612efc57612efc6142a9565b60009182526020808320909101546001600160a01b031683528201929092526040019020805461ffff191690555080612f3481614278565b915050612ed9565b50612f4960066000613552565b6040805142815243602082015233917f712bc71db81927a76b8bf1ea346247bb0ad58f18e4e5c1bd4aa0ec6573e02a2b910160405180910390a2565b6001600160a01b03811660008181526005602052604090819020805461ff00191681559051909133917fc6148ac08e050e2098c5d953dffbbf54d7eae1a56b8d894015268bfc2dff5b6a906122179042904390918252602082015260400190565b6001600160a01b0381166000908152600560205260409020805460ff16156130505760405162461bcd60e51b815260206004820152601d60248201527f4552433230526f6c65733a2020414c52454144592041204d494e5445520000006044820152606401610a83565b8054600160ff19909116811782556006805491820181556000527ff652222313e28459528d920b65115c16c04f3efc82aaedc97be59f3f377c0d3f0180546001600160a01b0319166001600160a01b038416908117909155604080514281524360208201523392917f4f7e100eb1ee13e903798bd0d6aa854152e07eb05544f392b9409c12935c80959101612217565b600080846000815181106130f6576130f66142a9565b60200260200101519050600085600181518110613115576131156142a9565b6020026020010151905060006001600160a01b0316826001600160a01b031614156131975760405162461bcd60e51b815260206004820152602c60248201527f455243323054656d706c6174653a20496e76616c6964206d696e7465722c202060448201526b7a65726f206164647265737360a01b6064820152608401610a83565b6001600160a01b0381166132135760405162461bcd60e51b815260206004820152603c60248201527f455243323054656d706c6174653a20496e76616c696420636f6d6d756e69747960448201527f2066656520636f6c6c6563746f722c207a65726f2061646472657373000000006064820152608401610a83565b84600081518110613226576132266142a9565b60200260200101516000141561328a5760405162461bcd60e51b8152602060048201526024808201527f44617461546f6b656e54656d706c6174653a20496e76616c6964206361702076604482015263616c756560e01b6064820152608401610a83565b8460008151811061329d5761329d6142a9565b6020026020010151600981905550876000815181106132be576132be6142a9565b6020026020010151600790805190602001906132db929190613570565b50876001815181106132ef576132ef6142a9565b60200260200101516008908051906020019061330c929190613570565b50600b80546001600160a01b0319166001600160a01b03841617905585518690600290811061333d5761333d6142a9565b6020908102919091010151601280546001600160a01b039283166001600160a01b0319909116179055600a80546001600160a81b03191691831691909117600160a01b17905586516133a790889060009061339a5761339a6142a9565b6020026020010151612fe6565b6133ca876001815181106133bd576133bd6142a9565b602002602001015161210d565b866002815181106133dd576133dd6142a9565b6020026020010151600d60006101000a8154816001600160a01b0302191690836001600160a01b031602179055508660038151811061341e5761341e6142a9565b6020026020010151600e60006101000a8154816001600160a01b0302191690836001600160a01b031602179055508460018151811061345f5761345f6142a9565b6020026020010151600f8190555060004690507f8b73c3c69bb8fe3d512ecc4cf759cc79239f7b179b0ffacaa9a75d522b39400f60076040516134a29190613e77565b60408051918290038220828201825260018352603160f81b6020938401528151928301939093528101919091527fc89efdaa54c0f20c7adf612882df0950f5a951637e0307cdcb4c672f298b8bc66060820152608081018290523060a082015260c00160408051808303601f1901815291905280516020909101206010555050600a54600160a01b900460ff16979650505050505050565b6000612ca282846140f8565b6000612ca2828461411a565b5080546000825590600052602060002090810190610a9591906135f4565b82805461357c9061423d565b90600052602060002090601f01602090048101928261359e57600085556135e4565b82601f106135b757805160ff19168380011785556135e4565b828001600101855582156135e4579182015b828111156135e45782518255916020019190600101906135c9565b506135f09291506135f4565b5090565b5b808211156135f057600081556001016135f5565b600067ffffffffffffffff831115613623576136236142bf565b613636601f8401601f191660200161408b565b905082815283838301111561364a57600080fd5b828260208301376000602084830101529392505050565b60008083601f84011261367357600080fd5b50813567ffffffffffffffff81111561368b57600080fd5b6020830191508360208260051b85010111156136a657600080fd5b9250929050565b600082601f8301126136be57600080fd5b813560206136d36136ce836140bc565b61408b565b80838252828201915082860187848660051b89010111156136f357600080fd5b60005b85811015613712578135845292840192908401906001016136f6565b5090979650505050505050565b600060c0828403121561373157600080fd5b60405160c0810181811067ffffffffffffffff82111715613754576137546142bf565b6040529050808235613765816142d5565b808252506020830135602082015260408301356040820152606083013561378b816142d5565b6060820152608083013561379e816142d5565b608082015260a092830135920191909152919050565b6000602082840312156137c657600080fd5b8135612ca2816142d5565b6000602082840312156137e357600080fd5b8151612ca2816142d5565b6000806040838503121561380157600080fd5b823561380c816142d5565b9150602083013561381c816142d5565b809150509250929050565b60008060006060848603121561383c57600080fd5b8335613847816142d5565b92506020840135613857816142d5565b929592945050506040919091013590565b6000806000806000806000806000806000806101808d8f03121561388b57600080fd5b8c51613896816142d5565b60208e0151909c506138a7816142d5565b60408e015160608f0151919c509a506138bf816142d5565b8099505060808d0151975060a08d0151965060c08d01516138df816142ea565b8096505060e08d015194506101008d015193506101208d015192506101408d015191506101608d0151613911816142ea565b809150509295989b509295989b509295989b565b600080600080600080600060e0888a03121561394057600080fd5b873561394b816142d5565b9650602088013561395b816142d5565b95506040880135945060608801359350608088013560ff8116811461397f57600080fd5b9699959850939692959460a0840135945060c09093013592915050565b6000806000606084860312156139b157600080fd5b83356139bc816142d5565b925060208481013567ffffffffffffffff808211156139da57600080fd5b818701915087601f8301126139ee57600080fd5b81356139fc6136ce826140bc565b8082825285820191508585018b878560051b8801011115613a1c57600080fd5b600095505b83861015613a48578035613a34816142d5565b835260019590950194918601918601613a21565b50965050506040870135925080831115613a6157600080fd5b5050613a6f868287016136ad565b9150509250925092565b60008060408385031215613a8c57600080fd5b8235613a97816142d5565b946020939093013593505050565b60008060008060008060c08789031215613abe57600080fd5b8635613ac9816142d5565b955060208701359450604087013593506060870135613ae7816142d5565b92506080870135613af7816142d5565b8092505060a087013590509295509295509295565b60008060008060808587031215613b2257600080fd5b8435613b2d816142d5565b935060208501359250604085013591506060850135613b4b816142ea565b939692955090935050565b60008060008060008060008060008060a08b8d031215613b7557600080fd5b8a3567ffffffffffffffff80821115613b8d57600080fd5b613b998e838f01613661565b909c509a5060208d0135915080821115613bb257600080fd5b613bbe8e838f01613661565b909a50985060408d0135915080821115613bd757600080fd5b613be38e838f01613661565b909850965060608d0135915080821115613bfc57600080fd5b613c088e838f01613661565b909650945060808d0135915080821115613c2157600080fd5b50613c2e8d828e01613661565b915080935050809150509295989b9194979a5092959850565b600060208284031215613c5957600080fd5b8151612ca2816142ea565b600060208284031215613c7657600080fd5b5051919050565b60008060208385031215613c9057600080fd5b823567ffffffffffffffff80821115613ca857600080fd5b818501915085601f830112613cbc57600080fd5b813581811115613ccb57600080fd5b866020828501011115613cdd57600080fd5b60209290920196919550909350505050565b60008060e08385031215613d0257600080fd5b613d0c848461371f565b915060c083013561381c816142d5565b600080828403610120811215613d3157600080fd5b613d3b858561371f565b9250606060bf1982011215613d4f57600080fd5b506040516060810181811067ffffffffffffffff82111715613d7357613d736142bf565b60405260c0840135613d84816142d5565b815260e084013560208201526101009093013560408401525092909150565b600060808284031215613db557600080fd5b6040516080810181811067ffffffffffffffff82111715613dd857613dd86142bf565b6040528251613de6816142ea565b81526020830151613df6816142ea565b60208201526040830151613e09816142ea565b60408201526060830151613e1c816142ea565b60608201529392505050565b600060208284031215613e3a57600080fd5b5035919050565b60008060008060808587031215613e5757600080fd5b505082516020840151604085015160609095015191969095509092509050565b600080835481600182811c915080831680613e9357607f831692505b6020808410821415613eb357634e487b7160e01b86526022600452602486fd5b818015613ec75760018114613ed857613f05565b60ff19861689528489019650613f05565b60008a81526020902060005b86811015613efd5781548b820152908501908301613ee4565b505084890196505b509498975050505050505050565b6001600160a01b039384168152919092166020820152604081019190915260600190565b6001600160a01b038481168252606060208084018290528551918401829052600092868201929091906080860190855b81811015613f85578551851683529483019491830191600101613f67565b5050858103604087015286518082529082019350915080860160005b83811015613fbd57815185529382019390820190600101613fa1565b509298975050505050505050565b83815260406020820152816040820152818360608301376000818301606090810191909152601f909201601f1916010192915050565b600060208083528351808285015260005b8181101561402e57858101830151858201604001528201614012565b81811115614040576000604083870101525b50601f01601f1916929092016040019392505050565b6020808252818101527f455243323054656d706c6174653a204e4f54204445504c4f59455220524f4c45604082015260600190565b604051601f8201601f1916810167ffffffffffffffff811182821017156140b4576140b46142bf565b604052919050565b600067ffffffffffffffff8211156140d6576140d66142bf565b5060051b60200190565b600082198211156140f3576140f3614293565b500190565b60008261411557634e487b7160e01b600052601260045260246000fd5b500490565b60008282101561412c5761412c614293565b500390565b600061413f6136ce846140bc565b808482526020808301925084368760051b8701111561415d57600080fd5b60005b878110156141b157813567ffffffffffffffff81111561417f57600080fd5b870136601f82011261419057600080fd5b61419e368235868401613609565b8652509382019390820190600101614160565b50919695505050505050565b60006141cb6136ce846140bc565b808482526020808301925084368760051b870111156141e957600080fd5b60005b878110156141b157813567ffffffffffffffff81111561420b57600080fd5b870136601f82011261421c57600080fd5b61422a368235868401613609565b86525093820193908201906001016141ec565b600181811c9082168061425157607f821691505b6020821081141561427257634e487b7160e01b600052602260045260246000fd5b50919050565b600060001982141561428c5761428c614293565b5060010190565b634e487b7160e01b600052601160045260246000fd5b634e487b7160e01b600052603260045260246000fd5b634e487b7160e01b600052604160045260246000fd5b6001600160a01b0381168114610a9557600080fd5b8015158114610a9557600080fdfea26469706673582212204f83b81458a55f8f79bf358b2fd2a08d10dd7de9fbb0f50a3d04cf6963cae32c64736f6c63430008070033",
  "linkReferences": {},
  "deployedLinkReferences": {}
}