{
  "_format": "hh-sol-artifact-1",
  "contractName": "ERC20TemplateEnterprise",
  "sourceName": "contracts/templates/ERC20TemplateEnterprise.sol",
  "abi": [
    {
      "anonymous": false,
      "inputs": [
        {
          "indexed": true,
          "internalType": "address",
          "name": "user",
          "type": "address"
        },
        {
          "indexed": true,
          "internalType": "address",
          "name": "signer",
          "type": "address"
        },
        {
          "indexed": false,
          "internalType": "uint256",
          "name": "timestamp",
          "type": "uint256"
        },
        {
          "indexed": false,
          "internalType": "uint256",
          "name": "blockNumber",
          "type": "uint256"
        }
      ],
      "name": "AddedMinter",
      "type": "event"
    },
    {
      "anonymous": false,
      "inputs": [
        {
          "indexed": true,
          "internalType": "address",
          "name": "user",
          "type": "address"
        },
        {
          "indexed": true,
          "internalType": "address",
          "name": "signer",
          "type": "address"
        },
        {
          "indexed": false,
          "internalType": "uint256",
          "name": "timestamp",
          "type": "uint256"
        },
        {
          "indexed": false,
          "internalType": "uint256",
          "name": "blockNumber",
          "type": "uint256"
        }
      ],
      "name": "AddedPaymentManager",
      "type": "event"
    },
    {
      "anonymous": false,
      "inputs": [
        {
          "indexed": true,
          "internalType": "address",
          "name": "owner",
          "type": "address"
        },
        {
          "indexed": true,
          "internalType": "address",
          "name": "spender",
          "type": "address"
        },
        {
          "indexed": false,
          "internalType": "uint256",
          "name": "value",
          "type": "uint256"
        }
      ],
      "name": "Approval",
      "type": "event"
    },
    {
      "anonymous": false,
      "inputs": [
        {
          "indexed": false,
          "internalType": "address",
          "name": "buyer",
          "type": "address"
        },
        {
          "indexed": false,
          "internalType": "uint256",
          "name": "baseTokenAmount",
          "type": "uint256"
        },
        {
          "indexed": false,
          "internalType": "uint256",
          "name": "marketFeeAmount",
          "type": "uint256"
        }
      ],
      "name": "BuyAndOrder",
      "type": "event"
    },
    {
      "anonymous": false,
      "inputs": [
        {
          "indexed": true,
          "internalType": "address",
          "name": "signer",
          "type": "address"
        },
        {
          "indexed": false,
          "internalType": "uint256",
          "name": "timestamp",
          "type": "uint256"
        },
        {
          "indexed": false,
          "internalType": "uint256",
          "name": "blockNumber",
          "type": "uint256"
        }
      ],
      "name": "CleanedPermissions",
      "type": "event"
    },
    {
      "anonymous": false,
      "inputs": [
        {
          "indexed": false,
          "internalType": "address",
          "name": "currentMinter",
          "type": "address"
        },
        {
          "indexed": false,
          "internalType": "address",
          "name": "newMinter",
          "type": "address"
        }
      ],
      "name": "MinterApproved",
      "type": "event"
    },
    {
      "anonymous": false,
      "inputs": [
        {
          "indexed": false,
          "internalType": "address",
          "name": "currentMinter",
          "type": "address"
        },
        {
          "indexed": false,
          "internalType": "address",
          "name": "newMinter",
          "type": "address"
        }
      ],
      "name": "MinterProposed",
      "type": "event"
    },
    {
      "anonymous": false,
      "inputs": [
        {
          "indexed": false,
          "internalType": "bytes32",
          "name": "exchangeId",
          "type": "bytes32"
        },
        {
          "indexed": false,
          "internalType": "address",
          "name": "owner",
          "type": "address"
        }
      ],
      "name": "NewFixedRate",
      "type": "event"
    },
    {
      "anonymous": false,
      "inputs": [
        {
          "indexed": true,
          "internalType": "address",
          "name": "caller",
          "type": "address"
        },
        {
          "indexed": true,
          "internalType": "address",
          "name": "_newPaymentCollector",
          "type": "address"
        },
        {
          "indexed": false,
          "internalType": "uint256",
          "name": "timestamp",
          "type": "uint256"
        },
        {
          "indexed": false,
          "internalType": "uint256",
          "name": "blockNumber",
          "type": "uint256"
        }
      ],
      "name": "NewPaymentCollector",
      "type": "event"
    },
    {
      "anonymous": false,
      "inputs": [
        {
          "indexed": false,
          "internalType": "address",
          "name": "poolAddress",
          "type": "address"
        },
        {
          "indexed": false,
          "internalType": "address",
          "name": "ssContract",
          "type": "address"
        },
        {
          "indexed": false,
          "internalType": "address",
          "name": "basetokenAddress",
          "type": "address"
        }
      ],
      "name": "NewPool",
      "type": "event"
    },
    {
      "anonymous": false,
      "inputs": [
        {
          "indexed": true,
          "internalType": "address",
          "name": "consumer",
          "type": "address"
        },
        {
          "indexed": false,
          "internalType": "address",
          "name": "payer",
          "type": "address"
        },
        {
          "indexed": false,
          "internalType": "uint256",
          "name": "amount",
          "type": "uint256"
        },
        {
          "indexed": false,
          "internalType": "uint256",
          "name": "serviceIndex",
          "type": "uint256"
        },
        {
          "indexed": false,
          "internalType": "uint256",
          "name": "timestamp",
          "type": "uint256"
        },
        {
          "indexed": true,
          "internalType": "address",
          "name": "publishMarketAddress",
          "type": "address"
        },
        {
          "indexed": false,
          "internalType": "uint256",
          "name": "blockNumber",
          "type": "uint256"
        }
      ],
      "name": "OrderStarted",
      "type": "event"
    },
    {
      "anonymous": false,
      "inputs": [
        {
          "indexed": true,
          "internalType": "address",
          "name": "providerFeeAddress",
          "type": "address"
        },
        {
          "indexed": true,
          "internalType": "address",
          "name": "providerFeeToken",
          "type": "address"
        },
        {
          "indexed": false,
          "internalType": "uint256",
          "name": "providerFeeAmount",
          "type": "uint256"
        },
        {
          "indexed": false,
          "internalType": "bytes",
          "name": "providerData",
          "type": "bytes"
        },
        {
          "indexed": false,
          "internalType": "uint8",
          "name": "v",
          "type": "uint8"
        },
        {
          "indexed": false,
          "internalType": "bytes32",
          "name": "r",
          "type": "bytes32"
        },
        {
          "indexed": false,
          "internalType": "bytes32",
          "name": "s",
          "type": "bytes32"
        }
      ],
      "name": "ProviderFees",
      "type": "event"
    },
    {
      "anonymous": false,
      "inputs": [
        {
          "indexed": true,
          "internalType": "address",
          "name": "PublishMarketFeeAddress",
          "type": "address"
        },
        {
          "indexed": true,
          "internalType": "address",
          "name": "PublishMarketFeeToken",
          "type": "address"
        },
        {
          "indexed": false,
          "internalType": "uint256",
          "name": "PublishMarketFeeAmount",
          "type": "uint256"
        }
      ],
      "name": "PublishMarketFees",
      "type": "event"
    },
    {
      "anonymous": false,
      "inputs": [
        {
          "indexed": false,
          "internalType": "address",
          "name": "caller",
          "type": "address"
        },
        {
          "indexed": false,
          "internalType": "address",
          "name": "PublishMarketFeeAddress",
          "type": "address"
        },
        {
          "indexed": false,
          "internalType": "address",
          "name": "PublishMarketFeeToken",
          "type": "address"
        },
        {
          "indexed": false,
          "internalType": "uint256",
          "name": "PublishMarketFeeAmount",
          "type": "uint256"
        }
      ],
      "name": "PublishMarketFeesChanged",
      "type": "event"
    },
    {
      "anonymous": false,
      "inputs": [
        {
          "indexed": true,
          "internalType": "address",
          "name": "user",
          "type": "address"
        },
        {
          "indexed": true,
          "internalType": "address",
          "name": "signer",
          "type": "address"
        },
        {
          "indexed": false,
          "internalType": "uint256",
          "name": "timestamp",
          "type": "uint256"
        },
        {
          "indexed": false,
          "internalType": "uint256",
          "name": "blockNumber",
          "type": "uint256"
        }
      ],
      "name": "RemovedMinter",
      "type": "event"
    },
    {
      "anonymous": false,
      "inputs": [
        {
          "indexed": true,
          "internalType": "address",
          "name": "user",
          "type": "address"
        },
        {
          "indexed": true,
          "internalType": "address",
          "name": "signer",
          "type": "address"
        },
        {
          "indexed": false,
          "internalType": "uint256",
          "name": "timestamp",
          "type": "uint256"
        },
        {
          "indexed": false,
          "internalType": "uint256",
          "name": "blockNumber",
          "type": "uint256"
        }
      ],
      "name": "RemovedPaymentManager",
      "type": "event"
    },
    {
      "anonymous": false,
      "inputs": [
        {
          "indexed": true,
          "internalType": "address",
          "name": "from",
          "type": "address"
        },
        {
          "indexed": true,
          "internalType": "address",
          "name": "to",
          "type": "address"
        },
        {
          "indexed": false,
          "internalType": "uint256",
          "name": "value",
          "type": "uint256"
        }
      ],
      "name": "Transfer",
      "type": "event"
    },
    {
      "stateMutability": "payable",
      "type": "fallback"
    },
    {
      "inputs": [],
      "name": "BASE",
      "outputs": [
        {
          "internalType": "uint256",
          "name": "",
          "type": "uint256"
        }
      ],
      "stateMutability": "view",
      "type": "function"
    },
    {
      "inputs": [],
      "name": "BASE_COMMUNITY_FEE_PERCENTAGE",
      "outputs": [
        {
          "internalType": "uint256",
          "name": "",
          "type": "uint256"
        }
      ],
      "stateMutability": "view",
      "type": "function"
    },
    {
      "inputs": [],
      "name": "DOMAIN_SEPARATOR",
      "outputs": [
        {
          "internalType": "bytes32",
          "name": "",
          "type": "bytes32"
        }
      ],
      "stateMutability": "view",
      "type": "function"
    },
    {
      "inputs": [],
      "name": "PERMIT_TYPEHASH",
      "outputs": [
        {
          "internalType": "bytes32",
          "name": "",
          "type": "bytes32"
        }
      ],
      "stateMutability": "view",
      "type": "function"
    },
    {
      "inputs": [
        {
          "internalType": "address",
          "name": "_minter",
          "type": "address"
        }
      ],
      "name": "addMinter",
      "outputs": [],
      "stateMutability": "nonpayable",
      "type": "function"
    },
    {
      "inputs": [
        {
          "internalType": "address",
          "name": "_paymentManager",
          "type": "address"
        }
      ],
      "name": "addPaymentManager",
      "outputs": [],
      "stateMutability": "nonpayable",
      "type": "function"
    },
    {
      "inputs": [
        {
          "internalType": "address",
          "name": "owner",
          "type": "address"
        },
        {
          "internalType": "address",
          "name": "spender",
          "type": "address"
        }
      ],
      "name": "allowance",
      "outputs": [
        {
          "internalType": "uint256",
          "name": "",
          "type": "uint256"
        }
      ],
      "stateMutability": "view",
      "type": "function"
    },
    {
      "inputs": [
        {
          "internalType": "address",
          "name": "spender",
          "type": "address"
        },
        {
          "internalType": "uint256",
          "name": "amount",
          "type": "uint256"
        }
      ],
      "name": "approve",
      "outputs": [
        {
          "internalType": "bool",
          "name": "",
          "type": "bool"
        }
      ],
      "stateMutability": "nonpayable",
      "type": "function"
    },
    {
      "inputs": [
        {
          "internalType": "uint256",
          "name": "",
          "type": "uint256"
        }
      ],
      "name": "authERC20",
      "outputs": [
        {
          "internalType": "address",
          "name": "",
          "type": "address"
        }
      ],
      "stateMutability": "view",
      "type": "function"
    },
    {
      "inputs": [
        {
          "internalType": "address",
          "name": "account",
          "type": "address"
        }
      ],
      "name": "balanceOf",
      "outputs": [
        {
          "internalType": "uint256",
          "name": "",
          "type": "uint256"
        }
      ],
      "stateMutability": "view",
      "type": "function"
    },
    {
      "inputs": [
        {
          "internalType": "uint256",
          "name": "amount",
          "type": "uint256"
        }
      ],
      "name": "burn",
      "outputs": [],
      "stateMutability": "nonpayable",
      "type": "function"
    },
    {
      "inputs": [
        {
          "internalType": "address",
          "name": "account",
          "type": "address"
        },
        {
          "internalType": "uint256",
          "name": "amount",
          "type": "uint256"
        }
      ],
      "name": "burnFrom",
      "outputs": [],
      "stateMutability": "nonpayable",
      "type": "function"
    },
    {
      "inputs": [
        {
          "components": [
            {
              "internalType": "address",
              "name": "consumer",
              "type": "address"
            },
            {
              "internalType": "uint256",
              "name": "serviceIndex",
              "type": "uint256"
            },
            {
              "internalType": "address",
              "name": "providerFeeAddress",
              "type": "address"
            },
            {
              "internalType": "address",
              "name": "providerFeeToken",
              "type": "address"
            },
            {
              "internalType": "uint256",
              "name": "providerFeeAmount",
              "type": "uint256"
            },
            {
              "internalType": "uint8",
              "name": "v",
              "type": "uint8"
            },
            {
              "internalType": "bytes32",
              "name": "r",
              "type": "bytes32"
            },
            {
              "internalType": "bytes32",
              "name": "s",
              "type": "bytes32"
            },
            {
              "internalType": "bytes",
              "name": "providerData",
              "type": "bytes"
            }
          ],
          "internalType": "struct ERC20TemplateEnterprise.OrderParams",
          "name": "_orderParams",
          "type": "tuple"
        },
        {
          "internalType": "address",
          "name": "dispenserContract",
          "type": "address"
        }
      ],
      "name": "buyFromDispenserAndOrder",
      "outputs": [],
      "stateMutability": "nonpayable",
      "type": "function"
    },
    {
      "inputs": [
        {
          "components": [
            {
              "internalType": "address",
              "name": "consumer",
              "type": "address"
            },
            {
              "internalType": "uint256",
              "name": "serviceIndex",
              "type": "uint256"
            },
            {
              "internalType": "address",
              "name": "providerFeeAddress",
              "type": "address"
            },
            {
              "internalType": "address",
              "name": "providerFeeToken",
              "type": "address"
            },
            {
              "internalType": "uint256",
              "name": "providerFeeAmount",
              "type": "uint256"
            },
            {
              "internalType": "uint8",
              "name": "v",
              "type": "uint8"
            },
            {
              "internalType": "bytes32",
              "name": "r",
              "type": "bytes32"
            },
            {
              "internalType": "bytes32",
              "name": "s",
              "type": "bytes32"
            },
            {
              "internalType": "bytes",
              "name": "providerData",
              "type": "bytes"
            }
          ],
          "internalType": "struct ERC20TemplateEnterprise.OrderParams",
          "name": "_orderParams",
          "type": "tuple"
        },
        {
          "components": [
            {
              "internalType": "address",
              "name": "exchangeContract",
              "type": "address"
            },
            {
              "internalType": "bytes32",
              "name": "exchangeId",
              "type": "bytes32"
            },
            {
              "internalType": "uint256",
              "name": "maxBaseTokenAmount",
              "type": "uint256"
            },
            {
              "internalType": "uint256",
              "name": "swapMarketFee",
              "type": "uint256"
            },
            {
              "internalType": "address",
              "name": "marketFeeAddress",
              "type": "address"
            }
          ],
          "internalType": "struct ERC20TemplateEnterprise.FreParams",
          "name": "_freParams",
          "type": "tuple"
        }
      ],
      "name": "buyFromFreAndOrder",
      "outputs": [],
      "stateMutability": "nonpayable",
      "type": "function"
    },
    {
      "inputs": [],
      "name": "cap",
      "outputs": [
        {
          "internalType": "uint256",
          "name": "",
          "type": "uint256"
        }
      ],
      "stateMutability": "view",
      "type": "function"
    },
    {
      "inputs": [],
      "name": "cleanFrom721",
      "outputs": [],
      "stateMutability": "nonpayable",
      "type": "function"
    },
    {
      "inputs": [],
      "name": "cleanPermissions",
      "outputs": [],
      "stateMutability": "nonpayable",
      "type": "function"
    },
    {
      "inputs": [
        {
          "internalType": "address",
          "name": "_dispenser",
          "type": "address"
        },
        {
          "internalType": "uint256",
          "name": "maxTokens",
          "type": "uint256"
        },
        {
          "internalType": "uint256",
          "name": "maxBalance",
          "type": "uint256"
        },
        {
          "internalType": "bool",
          "name": "withMint",
          "type": "bool"
        },
        {
          "internalType": "address",
          "name": "allowedSwapper",
          "type": "address"
        }
      ],
      "name": "createDispenser",
      "outputs": [],
      "stateMutability": "nonpayable",
      "type": "function"
    },
    {
      "inputs": [
        {
          "internalType": "address",
          "name": "fixedPriceAddress",
          "type": "address"
        },
        {
          "internalType": "address[]",
          "name": "addresses",
          "type": "address[]"
        },
        {
          "internalType": "uint256[]",
          "name": "uints",
          "type": "uint256[]"
        }
      ],
      "name": "createFixedRate",
      "outputs": [
        {
          "internalType": "bytes32",
          "name": "exchangeId",
          "type": "bytes32"
        }
      ],
      "stateMutability": "nonpayable",
      "type": "function"
    },
    {
      "inputs": [],
      "name": "decimals",
      "outputs": [
        {
          "internalType": "uint8",
          "name": "",
          "type": "uint8"
        }
      ],
      "stateMutability": "pure",
      "type": "function"
    },
    {
      "inputs": [
        {
          "internalType": "address",
          "name": "spender",
          "type": "address"
        },
        {
          "internalType": "uint256",
          "name": "subtractedValue",
          "type": "uint256"
        }
      ],
      "name": "decreaseAllowance",
      "outputs": [
        {
          "internalType": "bool",
          "name": "",
          "type": "bool"
        }
      ],
      "stateMutability": "nonpayable",
      "type": "function"
    },
    {
      "inputs": [],
      "name": "getERC721Address",
      "outputs": [
        {
          "internalType": "address",
          "name": "",
          "type": "address"
        }
      ],
      "stateMutability": "view",
      "type": "function"
    },
    {
      "inputs": [],
      "name": "getId",
      "outputs": [
        {
          "internalType": "uint8",
          "name": "",
          "type": "uint8"
        }
      ],
      "stateMutability": "pure",
      "type": "function"
    },
    {
      "inputs": [],
      "name": "getPaymentCollector",
      "outputs": [
        {
          "internalType": "address",
          "name": "",
          "type": "address"
        }
      ],
      "stateMutability": "view",
      "type": "function"
    },
    {
      "inputs": [
        {
          "internalType": "address",
          "name": "user",
          "type": "address"
        }
      ],
      "name": "getPermissions",
      "outputs": [
        {
          "components": [
            {
              "internalType": "bool",
              "name": "minter",
              "type": "bool"
            },
            {
              "internalType": "bool",
              "name": "paymentManager",
              "type": "bool"
            }
          ],
          "internalType": "struct ERC20Roles.RolesERC20",
          "name": "",
          "type": "tuple"
        }
      ],
      "stateMutability": "view",
      "type": "function"
    },
    {
      "inputs": [],
      "name": "getPublishingMarketFee",
      "outputs": [
        {
          "internalType": "address",
          "name": "",
          "type": "address"
        },
        {
          "internalType": "address",
          "name": "",
          "type": "address"
        },
        {
          "internalType": "uint256",
          "name": "",
          "type": "uint256"
        }
      ],
      "stateMutability": "view",
      "type": "function"
    },
    {
      "inputs": [
        {
          "internalType": "address",
          "name": "spender",
          "type": "address"
        },
        {
          "internalType": "uint256",
          "name": "addedValue",
          "type": "uint256"
        }
      ],
      "name": "increaseAllowance",
      "outputs": [
        {
          "internalType": "bool",
          "name": "",
          "type": "bool"
        }
      ],
      "stateMutability": "nonpayable",
      "type": "function"
    },
    {
      "inputs": [
        {
          "internalType": "string[]",
          "name": "strings_",
          "type": "string[]"
        },
        {
          "internalType": "address[]",
          "name": "addresses_",
          "type": "address[]"
        },
        {
          "internalType": "address[]",
          "name": "factoryAddresses_",
          "type": "address[]"
        },
        {
          "internalType": "uint256[]",
          "name": "uints_",
          "type": "uint256[]"
        },
        {
          "internalType": "bytes[]",
          "name": "bytes_",
          "type": "bytes[]"
        }
      ],
      "name": "initialize",
      "outputs": [
        {
          "internalType": "bool",
          "name": "",
          "type": "bool"
        }
      ],
      "stateMutability": "nonpayable",
      "type": "function"
    },
    {
      "inputs": [
        {
          "internalType": "address",
          "name": "user",
          "type": "address"
        }
      ],
      "name": "isERC20Deployer",
      "outputs": [
        {
          "internalType": "bool",
          "name": "deployer",
          "type": "bool"
        }
      ],
      "stateMutability": "nonpayable",
      "type": "function"
    },
    {
      "inputs": [],
      "name": "isInitialized",
      "outputs": [
        {
          "internalType": "bool",
          "name": "",
          "type": "bool"
        }
      ],
      "stateMutability": "view",
      "type": "function"
    },
    {
      "inputs": [
        {
          "internalType": "address",
          "name": "account",
          "type": "address"
        }
      ],
      "name": "isMinter",
      "outputs": [
        {
          "internalType": "bool",
          "name": "",
          "type": "bool"
        }
      ],
      "stateMutability": "view",
      "type": "function"
    },
    {
      "inputs": [
        {
          "internalType": "address",
          "name": "account",
          "type": "address"
        },
        {
          "internalType": "uint256",
          "name": "value",
          "type": "uint256"
        }
      ],
      "name": "mint",
      "outputs": [],
      "stateMutability": "nonpayable",
      "type": "function"
    },
    {
      "inputs": [],
      "name": "name",
      "outputs": [
        {
          "internalType": "string",
          "name": "",
          "type": "string"
        }
      ],
      "stateMutability": "view",
      "type": "function"
    },
    {
      "inputs": [
        {
          "internalType": "address",
          "name": "",
          "type": "address"
        }
      ],
      "name": "nonces",
      "outputs": [
        {
          "internalType": "uint256",
          "name": "",
          "type": "uint256"
        }
      ],
      "stateMutability": "view",
      "type": "function"
    },
    {
      "inputs": [
        {
          "internalType": "address",
          "name": "",
          "type": "address"
        }
      ],
      "name": "permissions",
      "outputs": [
        {
          "internalType": "bool",
          "name": "minter",
          "type": "bool"
        },
        {
          "internalType": "bool",
          "name": "paymentManager",
          "type": "bool"
        }
      ],
      "stateMutability": "view",
      "type": "function"
    },
    {
      "inputs": [
        {
          "internalType": "address",
          "name": "owner",
          "type": "address"
        },
        {
          "internalType": "address",
          "name": "spender",
          "type": "address"
        },
        {
          "internalType": "uint256",
          "name": "value",
          "type": "uint256"
        },
        {
          "internalType": "uint256",
          "name": "deadline",
          "type": "uint256"
        },
        {
          "internalType": "uint8",
          "name": "v",
          "type": "uint8"
        },
        {
          "internalType": "bytes32",
          "name": "r",
          "type": "bytes32"
        },
        {
          "internalType": "bytes32",
          "name": "s",
          "type": "bytes32"
        }
      ],
      "name": "permit",
      "outputs": [],
      "stateMutability": "nonpayable",
      "type": "function"
    },
    {
      "inputs": [
        {
          "internalType": "address",
          "name": "_minter",
          "type": "address"
        }
      ],
      "name": "removeMinter",
      "outputs": [],
      "stateMutability": "nonpayable",
      "type": "function"
    },
    {
      "inputs": [
        {
          "internalType": "address",
          "name": "_paymentManager",
          "type": "address"
        }
      ],
      "name": "removePaymentManager",
      "outputs": [],
      "stateMutability": "nonpayable",
      "type": "function"
    },
    {
      "inputs": [],
      "name": "router",
      "outputs": [
        {
          "internalType": "address",
          "name": "",
          "type": "address"
        }
      ],
      "stateMutability": "view",
      "type": "function"
    },
    {
      "inputs": [
        {
          "internalType": "bytes",
          "name": "_value",
          "type": "bytes"
        }
      ],
      "name": "setData",
      "outputs": [],
      "stateMutability": "nonpayable",
      "type": "function"
    },
    {
      "inputs": [
        {
          "internalType": "address",
          "name": "_newPaymentCollector",
          "type": "address"
        }
      ],
      "name": "setPaymentCollector",
      "outputs": [],
      "stateMutability": "nonpayable",
      "type": "function"
    },
    {
      "inputs": [
        {
          "internalType": "address",
          "name": "_publishMarketFeeAddress",
          "type": "address"
        },
        {
          "internalType": "address",
          "name": "_publishMarketFeeToken",
          "type": "address"
        },
        {
          "internalType": "uint256",
          "name": "_publishMarketFeeAmount",
          "type": "uint256"
        }
      ],
      "name": "setPublishingMarketFee",
      "outputs": [],
      "stateMutability": "nonpayable",
      "type": "function"
    },
    {
      "inputs": [
        {
          "internalType": "address",
          "name": "consumer",
          "type": "address"
        },
        {
          "internalType": "uint256",
          "name": "serviceIndex",
          "type": "uint256"
        },
        {
          "internalType": "address",
          "name": "providerFeeAddress",
          "type": "address"
        },
        {
          "internalType": "address",
          "name": "providerFeeToken",
          "type": "address"
        },
        {
          "internalType": "uint256",
          "name": "providerFeeAmount",
          "type": "uint256"
        },
        {
          "internalType": "uint8",
          "name": "v",
          "type": "uint8"
        },
        {
          "internalType": "bytes32",
          "name": "r",
          "type": "bytes32"
        },
        {
          "internalType": "bytes32",
          "name": "s",
          "type": "bytes32"
        },
        {
          "internalType": "bytes",
          "name": "providerData",
          "type": "bytes"
        }
      ],
      "name": "startOrder",
      "outputs": [],
      "stateMutability": "nonpayable",
      "type": "function"
    },
    {
      "inputs": [],
      "name": "symbol",
      "outputs": [
        {
          "internalType": "string",
          "name": "",
          "type": "string"
        }
      ],
      "stateMutability": "view",
      "type": "function"
    },
    {
      "inputs": [],
      "name": "totalSupply",
      "outputs": [
        {
          "internalType": "uint256",
          "name": "",
          "type": "uint256"
        }
      ],
      "stateMutability": "view",
      "type": "function"
    },
    {
      "inputs": [
        {
          "internalType": "address",
          "name": "recipient",
          "type": "address"
        },
        {
          "internalType": "uint256",
          "name": "amount",
          "type": "uint256"
        }
      ],
      "name": "transfer",
      "outputs": [
        {
          "internalType": "bool",
          "name": "",
          "type": "bool"
        }
      ],
      "stateMutability": "nonpayable",
      "type": "function"
    },
    {
      "inputs": [
        {
          "internalType": "address",
          "name": "sender",
          "type": "address"
        },
        {
          "internalType": "address",
          "name": "recipient",
          "type": "address"
        },
        {
          "internalType": "uint256",
          "name": "amount",
          "type": "uint256"
        }
      ],
      "name": "transferFrom",
      "outputs": [
        {
          "internalType": "bool",
          "name": "",
          "type": "bool"
        }
      ],
      "stateMutability": "nonpayable",
      "type": "function"
    },
    {
      "inputs": [],
      "name": "withdrawETH",
      "outputs": [],
      "stateMutability": "payable",
      "type": "function"
    }
  ],
  "bytecode": "0x6080604052600a805460ff60a01b191690553480156200001e57600080fd5b5060408051808201825260048152631d195cdd60e21b60208083019182528351808501909452600a8452691d195cdd14de5b589bdb60b21b9084015281519192916200006d916003916200008c565b508051620000839060049060208401906200008c565b5050506200016f565b8280546200009a9062000132565b90600052602060002090601f016020900481019282620000be576000855562000109565b82601f10620000d957805160ff191683800117855562000109565b8280016001018555821562000109579182015b8281111562000109578251825591602001919060010190620000ec565b50620001179291506200011b565b5090565b5b808211156200011757600081556001016200011c565b600181811c908216806200014757607f821691505b602082108114156200016957634e487b7160e01b600052602260045260246000fd5b50919050565b614680806200017f6000396000f3fe60806040526004361061027d5760003560e01c806370a082311161014e578063aa492ef9116100bb578063e086e5ec11610077578063e086e5ec146108c9578063e487c2e8146108d1578063ec342ad0146108e6578063ee88ade114610902578063ef867ff414610922578063f887ea401461094257005b8063aa492ef9146107ee578063ab62f0e11461080e578063b2263a5d1461082e578063b3998be014610843578063d505accf14610863578063dd62ed3e1461088357005b806396fb3eaf1161010a57806396fb3eaf14610715578063983b2d56146107355780639b4f44b614610755578063a457c2d714610775578063a9059cbb14610795578063aa271e1a146107b557005b806370a082311461064857806379cc67901461067e5780637ecebe001461069e57806382c03da5146106cb5780638b96412b146106e057806395d89b411461070057005b8063313ce567116101ec57806340c10f19116101a857806340c10f191461059f57806342966c68146105bf5780634f189cb2146105df57806357a3a31b146105f457806357ad5ff6146106145780635d1ca6311461063457005b8063313ce567146104d7578063355274ea146104f95780633644e5151461050e578063392e53cd146105245780633950935114610543578063397b37431461056357005b806318636d3c1161023b57806318636d3c14610403578063191c918a1461042357806323b872dd1461044357806325b00243146104635780633092afd51461048357806330adf81f146104a357005b80627ffb781461027f57806301e88208146102b657806306fdde0314610306578063095ea7b314610328578063160a79251461035857806318160ddd146103e4575b005b34801561028b57600080fd5b50600b546001600160a01b03165b6040516001600160a01b0390911681526020015b60405180910390f35b3480156102c257600080fd5b506102ef6102d13660046137b4565b60056020526000908152604090205460ff8082169161010090041682565b6040805192151583529015156020830152016102ad565b34801561031257600080fd5b5061031b610962565b6040516102ad9190613829565b34801561033457600080fd5b5061034861034336600461383c565b6109f4565b60405190151581526020016102ad565b34801561036457600080fd5b506103c56103733660046137b4565b6040805180820190915260008082526020820152506001600160a01b031660009081526005602090815260409182902082518084019093525460ff808216151584526101009091041615159082015290565b60408051825115158152602092830151151592810192909252016102ad565b3480156103f057600080fd5b506002545b6040519081526020016102ad565b34801561040f57600080fd5b5061027d61041e366004613a37565b610a0a565b34801561042f57600080fd5b5061027d61043e366004613a96565b610b1b565b34801561044f57600080fd5b5061034861045e366004613af5565b610c3f565b34801561046f57600080fd5b5061027d61047e3660046137b4565b610ceb565b34801561048f57600080fd5b5061027d61049e3660046137b4565b610d85565b3480156104af57600080fd5b506103f57f6e71edae12b1b97f4d1f60370fef10105fa2faae0126114a169c64845d6126c981565b3480156104e357600080fd5b5060125b60405160ff90911681526020016102ad565b34801561050557600080fd5b506009546103f5565b34801561051a57600080fd5b506103f560105481565b34801561053057600080fd5b50600a54600160a01b900460ff16610348565b34801561054f57600080fd5b5061034861055e36600461383c565b610e1c565b34801561056f57600080fd5b50600d54600e54600f54604080516001600160a01b039485168152939092166020840152908201526060016102ad565b3480156105ab57600080fd5b5061027d6105ba36600461383c565b610e58565b3480156105cb57600080fd5b5061027d6105da366004613b36565b610f29565b3480156105eb57600080fd5b5061027d610f33565b34801561060057600080fd5b5061027d61060f3660046137b4565b61101a565b34801561062057600080fd5b5061027d61062f366004613af5565b61115c565b34801561064057600080fd5b5060026104e7565b34801561065457600080fd5b506103f56106633660046137b4565b6001600160a01b031660009081526020819052604090205490565b34801561068a57600080fd5b5061027d61069936600461383c565b6112b0565b3480156106aa57600080fd5b506103f56106b93660046137b4565b60116020526000908152604090205481565b3480156106d757600080fd5b5061027d611331565b3480156106ec57600080fd5b506103f56106fb366004613bdd565b61138b565b34801561070c57600080fd5b5061031b61154c565b34801561072157600080fd5b506103486107303660046137b4565b61155b565b34801561074157600080fd5b5061027d6107503660046137b4565b6115d6565b34801561076157600080fd5b5061027d610770366004613cb2565b61166d565b34801561078157600080fd5b5061034861079036600461383c565b611689565b3480156107a157600080fd5b506103486107b036600461383c565b611722565b3480156107c157600080fd5b506103486107d03660046137b4565b6001600160a01b031660009081526005602052604090205460ff1690565b3480156107fa57600080fd5b5061027d6108093660046137b4565b61172f565b34801561081a57600080fd5b5061027d610829366004613d5e565b6117c6565b34801561083a57600080fd5b506103f56118f7565b34801561084f57600080fd5b5061034861085e366004613e1a565b61190d565b34801561086f57600080fd5b5061027d61087e366004613f0a565b611a47565b34801561088f57600080fd5b506103f561089e366004613f78565b6001600160a01b03918216600090815260016020908152604080832093909416825291909152205490565b61027d611c4e565b3480156108dd57600080fd5b50610299611c8e565b3480156108f257600080fd5b506103f5670de0b6b3a764000081565b34801561090e57600080fd5b5061027d61091d366004613fa6565b611d23565b34801561092e57600080fd5b5061029961093d366004613b36565b612101565b34801561094e57600080fd5b50601254610299906001600160a01b031681565b60606007805461097190614048565b80601f016020809104026020016040519081016040528092919081815260200182805461099d90614048565b80156109ea5780601f106109bf576101008083540402835291602001916109ea565b820191906000526020600020905b8154815290600101906020018083116109cd57829003601f168201915b5050505050905090565b6000610a0133848461212b565b50600192915050565b604051631d746d8360e01b8152306004820152670de0b6b3a764000060248201819052336044830152906001600160a01b03831690631d746d8390606401600060405180830381600087803b158015610a6257600080fd5b505af1158015610a76573d6000803e3d6000fd5b50503360009081526020819052604090205483925090501015610ae05760405162461bcd60e51b815260206004820152601f60248201527f556e61626c6520746f206765742044542066726f6d2044697370656e7365720060448201526064015b60405180910390fd5b610b16836000015184602001518560400151866060015187608001518860a001518960c001518a60e001518b610100015161224f565b505050565b600b5460405163160a792560e01b81523360048201526001600160a01b039091169063160a7925906024016080604051808303816000875af1158015610b65573d6000803e3d6000fd5b505050506040513d601f19601f82011682018060405250810190610b899190614083565b60200151610ba95760405162461bcd60e51b8152600401610ad790614107565b601254604051636b14d00560e11b81526001600160a01b0387811660048301523060248301819052604483018890526064830187905233608484015260a48301529091169063d629a00a9060c401600060405180830381600087803b158015610c1157600080fd5b505af1158015610c25573d6000803e3d6000fd5b505050508115610c3857610c388561267f565b5050505050565b6000610c4c848484612781565b6001600160a01b038416600090815260016020908152604080832033845290915290205482811015610cd15760405162461bcd60e51b815260206004820152602860248201527f45524332303a207472616e7366657220616d6f756e74206578636565647320616044820152676c6c6f77616e636560c01b6064820152608401610ad7565b610cde853385840361212b565b60019150505b9392505050565b600b5460405163160a792560e01b81523360048201526001600160a01b039091169063160a7925906024016080604051808303816000875af1158015610d35573d6000803e3d6000fd5b505050506040513d601f19601f82011682018060405250810190610d599190614083565b60200151610d795760405162461bcd60e51b8152600401610ad790614107565b610d8281612951565b50565b600b5460405163160a792560e01b81523360048201526001600160a01b039091169063160a7925906024016080604051808303816000875af1158015610dcf573d6000803e3d6000fd5b505050506040513d601f19601f82011682018060405250810190610df39190614083565b60200151610e135760405162461bcd60e51b8152600401610ad790614107565b610d82816129b2565b3360008181526001602090815260408083206001600160a01b03871684529091528120549091610a01918590610e53908690614152565b61212b565b3360009081526005602052604090205460ff16610eb75760405162461bcd60e51b815260206004820152601960248201527f455243323054656d706c6174653a204e4f54204d494e544552000000000000006044820152606401610ad7565b600954610ecd82610ec760025490565b90612a12565b1115610f1b5760405162461bcd60e51b815260206004820152601f60248201527f44617461546f6b656e54656d706c6174653a20636170206578636565646564006044820152606401610ad7565b610f258282612a1e565b5050565b610d823382612afd565b600b546040516331a9108f60e11b8152600160048201526001600160a01b0390911690636352211e90602401602060405180830381865afa158015610f7c573d6000803e3d6000fd5b505050506040513d601f19601f82011682018060405250810190610fa0919061416a565b6001600160a01b0316336001600160a01b0316146110005760405162461bcd60e51b815260206004820152601b60248201527f455243323054656d706c6174653a206e6f74204e46544f776e657200000000006044820152606401610ad7565b611008612c4b565b600c80546001600160a01b0319169055565b33600090815260056020526040902054610100900460ff16806110ab5750600b5460405163160a792560e01b81523360048201526001600160a01b039091169063160a7925906024016080604051808303816000875af1158015611082573d6000803e3d6000fd5b505050506040513d601f19601f820116820180604052508101906110a69190614083565b602001515b61110b5760405162461bcd60e51b815260206004820152602b60248201527f455243323054656d706c6174653a204e4f54205041594d454e54204d414e414760448201526a22a91037b91027aba722a960a91b6064820152608401610ad7565b61111481612cfa565b604080514281524360208201526001600160a01b0383169133917f4d7694d695c57cc54947177c8e8a0e61aae664e9223492a798c32fadfc6419cc910160405180910390a350565b600d546001600160a01b031633146111c95760405162461bcd60e51b815260206004820152602a60248201527f455243323054656d706c6174653a206e6f74207075626c6973684d61726b65746044820152694665654164647265737360b01b6064820152608401610ad7565b6001600160a01b0383166112305760405162461bcd60e51b815260206004820152602860248201527f496e76616c6964205f7075626c6973684d61726b657446656541646472657373604482015267206164647265737360c01b6064820152608401610ad7565b600d80546001600160a01b038581166001600160a01b03199283168117909355600e8054918616919092168117909155600f839055604080513381526020810193909352820152606081018290527fe0b85b6f04fa914cf57f6401c5672a83a32b1c388d194c3d78e17f2897d46f439060800160405180910390a1505050565b60006112bc833361089e565b90508181101561131a5760405162461bcd60e51b8152602060048201526024808201527f45524332303a206275726e20616d6f756e74206578636565647320616c6c6f77604482015263616e636560e01b6064820152608401610ad7565b611327833384840361212b565b610b168383612afd565b600b546001600160a01b031633146110005760405162461bcd60e51b815260206004820152601f60248201527f455243323054656d706c6174653a204e4f542037323120436f6e7472616374006044820152606401610ad7565b600b5460405163160a792560e01b81523360048201526000916001600160a01b03169063160a7925906024016080604051808303816000875af11580156113d6573d6000803e3d6000fd5b505050506040513d601f19601f820116820180604052508101906113fa9190614083565b6020015161141a5760405162461bcd60e51b8152600401610ad790614107565b308360038151811061142e5761142e614187565b6001600160a01b039283166020918202929092010152601254604051638244937560e01b815291169063824493759061146f9087908790879060040161419d565b6020604051808303816000875af115801561148e573d6000803e3d6000fd5b505050506040513d601f19601f820116820180604052508101906114b29190614231565b90506000826004815181106114c9576114c9614187565b602002602001015111156114e0576114e08461267f565b7f195d202f33578769e120c3041341554af3193e67ee004175095bc9c06e6e6165818460008151811061151557611515614187565b602002602001015160405161153d9291909182526001600160a01b0316602082015260400190565b60405180910390a19392505050565b60606008805461097190614048565b600b5460405163160a792560e01b81526001600160a01b038381166004830152600092169063160a7925906024016080604051808303816000875af11580156115a8573d6000803e3d6000fd5b505050506040513d601f19601f820116820180604052508101906115cc9190614083565b6020015192915050565b600b5460405163160a792560e01b81523360048201526001600160a01b039091169063160a7925906024016080604051808303816000875af1158015611620573d6000803e3d6000fd5b505050506040513d601f19601f820116820180604052508101906116449190614083565b602001516116645760405162461bcd60e51b8152600401610ad790614107565b610d828161267f565b61167e89898989898989898961224f565b505050505050505050565b3360009081526001602090815260408083206001600160a01b03861684529091528120548281101561170b5760405162461bcd60e51b815260206004820152602560248201527f45524332303a2064656372656173656420616c6c6f77616e63652062656c6f77604482015264207a65726f60d81b6064820152608401610ad7565b611718338585840361212b565b5060019392505050565b6000610a01338484612781565b600b5460405163160a792560e01b81523360048201526001600160a01b039091169063160a7925906024016080604051808303816000875af1158015611779573d6000803e3d6000fd5b505050506040513d601f19601f8201168201806040525081019061179d9190614083565b602001516117bd5760405162461bcd60e51b8152600401610ad790614107565b610d8281612d1c565b600b5460405163160a792560e01b81523360048201526001600160a01b039091169063160a7925906024016080604051808303816000875af1158015611810573d6000803e3d6000fd5b505050506040513d601f19601f820116820180604052508101906118349190614083565b602001516118545760405162461bcd60e51b8152600401610ad790614107565b6040516bffffffffffffffffffffffff193060601b16602082015260009060340160408051601f19818403018152908290528051602090910120600b546301caf8fd60e31b83529092506001600160a01b031690630e57c7e8906118c09084908790879060040161424a565b600060405180830381600087803b1580156118da57600080fd5b505af11580156118ee573d6000803e3d6000fd5b50505050505050565b61190a6064670de0b6b3a7640000614280565b81565b600a54600090600160a01b900460ff16156119845760405162461bcd60e51b815260206004820152603160248201527f455243323054656d706c6174653a20746f6b656e20696e7374616e636520616c6044820152701c9958591e481a5b9a5d1a585b1a5e9959607a1b6064820152608401610ad7565b611a386119918b8d6142a2565b8a8a8080602002602001604051908101604052809392919081815260200183836020028082843760009201919091525050604080516020808e0282810182019093528d82529093508d92508c91829185019084908082843760009201919091525050604080516020808d0282810182019093528c82529093508c92508b918291850190849080828437600092019190915250611a3392508991508a9050614329565b612e2a565b9b9a5050505050505050505050565b43841015611a8a5760405162461bcd60e51b815260206004820152601060248201526f115490cc8c11150e881156141254915160821b6044820152606401610ad7565b6010546001600160a01b038816600090815260116020526040812080549192917f6e71edae12b1b97f4d1f60370fef10105fa2faae0126114a169c64845d6126c9918b918b918b919087611add83614390565b909155506040805160208101969096526001600160a01b0394851690860152929091166060840152608083015260a082015260c0810187905260e00160405160208183030381529060405280519060200120604051602001611b5692919061190160f01b81526002810192909252602282015260420190565b60408051601f198184030181528282528051602091820120600080855291840180845281905260ff88169284019290925260608301869052608083018590529092509060019060a0016020604051602081039080840390855afa158015611bc1573d6000803e3d6000fd5b5050604051601f1901519150506001600160a01b03811615801590611bf75750886001600160a01b0316816001600160a01b0316145b611c435760405162461bcd60e51b815260206004820152601a60248201527f455243323044543a20494e56414c49445f5349474e41545552450000000000006044820152606401610ad7565b61167e89898961212b565b611c56611c8e565b6001600160a01b03166108fc479081150290604051600060405180830381858888f19350505050158015610d82573d6000803e3d6000fd5b600c546000906001600160a01b0316611d1357600b546040516331a9108f60e11b8152600160048201526001600160a01b0390911690636352211e90602401602060405180830381865afa158015611cea573d6000803e3d6000fd5b505050506040513d601f19601f82011682018060405250810190611d0e919061416a565b905090565b50600c546001600160a01b031690565b80516020820151604051634c87087d60e01b815260009283926001600160a01b0390911691634c87087d91611d5e9160040190815260200190565b61018060405180830381865afa158015611d7c573d6000803e3d6000fd5b505050506040513d601f19601f82011682018060405250810190611da091906143ab565b5050505050505050935050925050306001600160a01b0316826001600160a01b031614611e1f5760405162461bcd60e51b815260206004820152602760248201527f5468697320466978656452617465206973206e6f742070726f766964696e67206044820152661d1a1a5cc8111560ca1b6064820152608401610ad7565b8251602084015160405163c99733a760e01b81526004810191909152670de0b6b3a7640000602482015260009182916001600160a01b039091169063c99733a790604401608060405180830381865afa158015611e80573d6000803e3d6000fd5b505050506040513d601f19601f82011682018060405250810190611ea49190614468565b5050915091508460400151821115611f0e5760405162461bcd60e51b815260206004820152602760248201527f46697865645261746545786368616e67653a20546f6f206d616e79206261736560448201526620746f6b656e7360c81b6064820152608401610ad7565b6000670de0b6b3a7640000866060015183611f29919061449e565b611f339190614280565b9050611f3f8184614152565b9250611f566001600160a01b038516333086613329565b8551611f6d906001600160a01b0386169085613394565b8551602087015160405163412dae6b60e11b81526004810191909152670de0b6b3a76400006024820152604481018590526001600160a01b039091169063825b5cd690606401600060405180830381600087803b158015611fcd57600080fd5b505af1158015611fe1573d6000803e3d6000fd5b505030600090815260208190526040902054670de0b6b3a764000092509050101561204e5760405162461bcd60e51b815260206004820152601f60248201527f556e61626c6520746f206275792044542066726f6d20466978656452617465006044820152606401610ad7565b6120613033670de0b6b3a7640000612781565b6120978760000151886020015189604001518a606001518b608001518c60a001518d60c001518e60e001518f610100015161224f565b80156120b75760808601516120b7906001600160a01b0386169083613446565b60408051338152602081018590529081018290527fe89458a7527f4bf466ab18794ab8b1ca208b478483a1a87bcf0d976d421b4aff9060600160405180910390a150505050505050565b6006818154811061211157600080fd5b6000918252602090912001546001600160a01b0316905081565b6001600160a01b03831661218d5760405162461bcd60e51b8152602060048201526024808201527f45524332303a20617070726f76652066726f6d20746865207a65726f206164646044820152637265737360e01b6064820152608401610ad7565b6001600160a01b0382166121ee5760405162461bcd60e51b815260206004820152602260248201527f45524332303a20617070726f766520746f20746865207a65726f206164647265604482015261737360f01b6064820152608401610ad7565b6001600160a01b0383811660008181526001602090815260408083209487168084529482529182902085905590518481527f8c5be1e5ebec7d5bd14f71427d1e84f3dd0314c0f7b2291e5b200ac8c7c3b925910160405180910390a3505050565b33600090815260208190526040812054670de0b6b3a764000091908211156122c75760405162461bcd60e51b815260206004820152602560248201527f4e6f7420656e6f756768204461746120546f6b656e7320746f2073746172742060448201526427b93232b960d91b6064820152608401610ad7565b600d5460408051338152602081018590529081018c90524260608201524360808201526001600160a01b03918216918d16907fe1c4fa794edfa8f619b8257a077398950357b9c6398528f94480307352f9afcc9060a00160405180910390a36000600f541180156123425750600e546001600160a01b031615155b80156123585750600d546001600160a01b031615155b1561248357600f54600e5461237c916001600160a01b039091169033903090613329565b600f5461238a906064613476565b600d54600f549192506123c0916001600160a01b03909116906123ad9084613482565b600e546001600160a01b03169190613446565b600e54600d54600f546001600160a01b0392831692909116907ff666b31c81334b6085802ba4149907fa724689d43bc31df6de1a51291ddc55b4906124059085613482565b60405190815260200160405180910390a3801561248357600a54600e54612439916001600160a01b03918216911683613446565b600e54600a546040518381526001600160a01b0392831692909116907ff666b31c81334b6085802ba4149907fa724689d43bc31df6de1a51291ddc55b49060200160405180910390a35b60006040518060400160405280601c81526020017f19457468657265756d205369676e6564204d6573736167653a0a3332000000008152509050600081858c8c8c6040516020016124d794939291906144bd565b604051602081830303815290604052805190602001206040516020016124fe929190614503565b60408051601f198184030181528282528051602091820120600080855291840180845281905260ff8c1692840192909252606083018a9052608083018990529092509060019060a0016020604051602081039080840390855afa158015612569573d6000803e3d6000fd5b5050506020604051035190508b6001600160a01b0316816001600160a01b0316146125cd5760405162461bcd60e51b8152602060048201526014602482015273496e76616c69642070726f76696465722066656560601b6044820152606401610ad7565b8a6001600160a01b03168c6001600160a01b03167f144fc6ed7d0a617ba44a01131b1f724d0370297a3640b6201f343e081ada64468c898d8d8d604051612618959493929190614525565b60405180910390a360008a11801561263857506001600160a01b038b1615155b801561264c57506001600160a01b038c1615155b15612666576126666001600160a01b038c16338e8d613329565b61266f85610f29565b5050505050505050505050505050565b6001600160a01b0381166000908152600560205260409020805460ff16156126e95760405162461bcd60e51b815260206004820152601d60248201527f4552433230526f6c65733a2020414c52454144592041204d494e5445520000006044820152606401610ad7565b8054600160ff19909116811782556006805491820181556000527ff652222313e28459528d920b65115c16c04f3efc82aaedc97be59f3f377c0d3f0180546001600160a01b0319166001600160a01b038416908117909155604080514281524360208201523392917f4f7e100eb1ee13e903798bd0d6aa854152e07eb05544f392b9409c12935c809591015b60405180910390a35050565b6001600160a01b0383166127e55760405162461bcd60e51b815260206004820152602560248201527f45524332303a207472616e736665722066726f6d20746865207a65726f206164604482015264647265737360d81b6064820152608401610ad7565b6001600160a01b0382166128475760405162461bcd60e51b815260206004820152602360248201527f45524332303a207472616e7366657220746f20746865207a65726f206164647260448201526265737360e81b6064820152608401610ad7565b6001600160a01b038316600090815260208190526040902054818110156128bf5760405162461bcd60e51b815260206004820152602660248201527f45524332303a207472616e7366657220616d6f756e7420657863656564732062604482015265616c616e636560d01b6064820152608401610ad7565b6001600160a01b038085166000908152602081905260408082208585039055918516815290812080548492906128f6908490614152565b92505081905550826001600160a01b0316846001600160a01b03167fddf252ad1be2c89b69c2b068fc378daa952ba7f163c4a11628f55a4df523b3ef8460405161294291815260200190565b60405180910390a35b50505050565b6001600160a01b03811660008181526005602052604090819020805461ff00191681559051909133917faee911eec8b2df8f3ae0464841541b1e5f339519bd5cf51889fe8b07fecff658906127759042904390918252602082015260400190565b6001600160a01b03811660008181526005602052604090819020805460ff191681559051909133917fefa2735987005aaa89c050c0ff8cc9ae7d9079d19382081c429130f98c52d480906127759042904390918252602082015260400190565b6000610ce48284614152565b6001600160a01b038216612a745760405162461bcd60e51b815260206004820152601f60248201527f45524332303a206d696e7420746f20746865207a65726f2061646472657373006044820152606401610ad7565b8060026000828254612a869190614152565b90915550506001600160a01b03821660009081526020819052604081208054839290612ab3908490614152565b90915550506040518181526001600160a01b038316906000907fddf252ad1be2c89b69c2b068fc378daa952ba7f163c4a11628f55a4df523b3ef9060200160405180910390a35050565b6001600160a01b038216612b5d5760405162461bcd60e51b815260206004820152602160248201527f45524332303a206275726e2066726f6d20746865207a65726f206164647265736044820152607360f81b6064820152608401610ad7565b6001600160a01b03821660009081526020819052604090205481811015612bd15760405162461bcd60e51b815260206004820152602260248201527f45524332303a206275726e20616d6f756e7420657863656564732062616c616e604482015261636560f01b6064820152608401610ad7565b6001600160a01b0383166000908152602081905260408120838303905560028054849290612c0090849061455e565b90915550506040518281526000906001600160a01b038516907fddf252ad1be2c89b69c2b068fc378daa952ba7f163c4a11628f55a4df523b3ef9060200160405180910390a3505050565b60005b600654811015612cb15760006005600060068481548110612c7157612c71614187565b60009182526020808320909101546001600160a01b031683528201929092526040019020805461ffff191690555080612ca981614390565b915050612c4e565b50612cbe600660006136d8565b6040805142815243602082015233917f712bc71db81927a76b8bf1ea346247bb0ad58f18e4e5c1bd4aa0ec6573e02a2b910160405180910390a2565b600c80546001600160a01b0319166001600160a01b0392909216919091179055565b6001600160a01b03811660009081526005602052604090208054610100900460ff1615612d965760405162461bcd60e51b815260206004820152602260248201527f4552433230526f6c65733a2020414c5245414459204120464545204d414e414760448201526122a960f11b6064820152608401610ad7565b805461ff001916610100178155600680546001810182556000919091527ff652222313e28459528d920b65115c16c04f3efc82aaedc97be59f3f377c0d3f0180546001600160a01b0384166001600160a01b03199091168117909155604080514281524360208201523392917fb17da2e9910b4ba5754e8872385ba315a238bafb5ae221fc85093c33432c40a79101612775565b60008084600081518110612e4057612e40614187565b60200260200101519050600085600181518110612e5f57612e5f614187565b6020026020010151905060006001600160a01b0316826001600160a01b03161415612ee15760405162461bcd60e51b815260206004820152602c60248201527f455243323054656d706c6174653a20496e76616c6964206d696e7465722c202060448201526b7a65726f206164647265737360a01b6064820152608401610ad7565b6001600160a01b038116612f5d5760405162461bcd60e51b815260206004820152603c60248201527f455243323054656d706c6174653a20496e76616c696420636f6d6d756e69747960448201527f2066656520636f6c6c6563746f722c207a65726f2061646472657373000000006064820152608401610ad7565b84600081518110612f7057612f70614187565b602002602001015160001415612fd45760405162461bcd60e51b8152602060048201526024808201527f44617461546f6b656e54656d706c6174653a20496e76616c6964206361702076604482015263616c756560e01b6064820152608401610ad7565b84600081518110612fe757612fe7614187565b60200260200101516009819055508760008151811061300857613008614187565b6020026020010151600790805190602001906130259291906136f6565b508760018151811061303957613039614187565b6020026020010151600890805190602001906130569291906136f6565b50600b80546001600160a01b0319166001600160a01b03841617905585518690600290811061308757613087614187565b6020908102919091010151601280546001600160a01b039283166001600160a01b0319909116179055600a80546001600160a81b03191691831691909117600160a01b17905586516130f19088906000906130e4576130e4614187565b602002602001015161267f565b60006001600160a01b03168760018151811061310f5761310f614187565b60200260200101516001600160a01b0316146131b9576131488760018151811061313b5761313b614187565b6020026020010151612cfa565b8660018151811061315b5761315b614187565b60200260200101516001600160a01b0316336001600160a01b03167f4d7694d695c57cc54947177c8e8a0e61aae664e9223492a798c32fadfc6419cc42436040516131b0929190918252602082015260400190565b60405180910390a35b866002815181106131cc576131cc614187565b6020026020010151600d60006101000a8154816001600160a01b0302191690836001600160a01b031602179055508660038151811061320d5761320d614187565b6020026020010151600e60006101000a8154816001600160a01b0302191690836001600160a01b031602179055508460018151811061324e5761324e614187565b6020026020010151600f8190555060004690507f8b73c3c69bb8fe3d512ecc4cf759cc79239f7b179b0ffacaa9a75d522b39400f60076040516132919190614575565b60408051918290038220828201825260018352603160f81b6020938401528151928301939093528101919091527fc89efdaa54c0f20c7adf612882df0950f5a951637e0307cdcb4c672f298b8bc66060820152608081018290523060a082015260c00160408051808303601f1901815291905280516020909101206010555050600a54600160a01b900460ff16979650505050505050565b6040516001600160a01b038085166024830152831660448201526064810182905261294b9085906323b872dd60e01b906084015b60408051601f198184030181529190526020810180516001600160e01b03166001600160e01b03199093169290921790915261348e565b604051636eb1769f60e11b81523060048201526001600160a01b038381166024830152600091839186169063dd62ed3e90604401602060405180830381865afa1580156133e5573d6000803e3d6000fd5b505050506040513d601f19601f820116820180604052508101906134099190614231565b6134139190614152565b6040516001600160a01b03851660248201526044810182905290915061294b90859063095ea7b360e01b9060640161335d565b6040516001600160a01b038316602482015260448101829052610b1690849063a9059cbb60e01b9060640161335d565b6000610ce48284614280565b6000610ce4828461455e565b60006134e3826040518060400160405280602081526020017f5361666545524332303a206c6f772d6c6576656c2063616c6c206661696c6564815250856001600160a01b03166135609092919063ffffffff16565b805190915015610b1657808060200190518101906135019190614611565b610b165760405162461bcd60e51b815260206004820152602a60248201527f5361666545524332303a204552433230206f7065726174696f6e20646964206e6044820152691bdd081cdd58d8d9595960b21b6064820152608401610ad7565b606061356f8484600085613577565b949350505050565b6060824710156135d85760405162461bcd60e51b815260206004820152602660248201527f416464726573733a20696e73756666696369656e742062616c616e636520666f6044820152651c8818d85b1b60d21b6064820152608401610ad7565b843b6136265760405162461bcd60e51b815260206004820152601d60248201527f416464726573733a2063616c6c20746f206e6f6e2d636f6e74726163740000006044820152606401610ad7565b600080866001600160a01b03168587604051613642919061462e565b60006040518083038185875af1925050503d806000811461367f576040519150601f19603f3d011682016040523d82523d6000602084013e613684565b606091505b509150915061369482828661369f565b979650505050505050565b606083156136ae575081610ce4565b8251156136be5782518084602001fd5b8160405162461bcd60e51b8152600401610ad79190613829565b5080546000825590600052602060002090810190610d82919061377a565b82805461370290614048565b90600052602060002090601f016020900481019282613724576000855561376a565b82601f1061373d57805160ff191683800117855561376a565b8280016001018555821561376a579182015b8281111561376a57825182559160200191906001019061374f565b5061377692915061377a565b5090565b5b80821115613776576000815560010161377b565b6001600160a01b0381168114610d8257600080fd5b80356137af8161378f565b919050565b6000602082840312156137c657600080fd5b8135610ce48161378f565b60005b838110156137ec5781810151838201526020016137d4565b8381111561294b5750506000910152565b600081518084526138158160208601602086016137d1565b601f01601f19169290920160200192915050565b602081526000610ce460208301846137fd565b6000806040838503121561384f57600080fd5b823561385a8161378f565b946020939093013593505050565b634e487b7160e01b600052604160045260246000fd5b60405161012081016001600160401b03811182821017156138a1576138a1613868565b60405290565b60405160a081016001600160401b03811182821017156138a1576138a1613868565b604051601f8201601f191681016001600160401b03811182821017156138f1576138f1613868565b604052919050565b803560ff811681146137af57600080fd5b60006001600160401b0383111561392357613923613868565b613936601f8401601f19166020016138c9565b905082815283838301111561394a57600080fd5b828260208301376000602084830101529392505050565b600082601f83011261397257600080fd5b610ce48383356020850161390a565b6000610120828403121561399457600080fd5b61399c61387e565b90506139a7826137a4565b8152602082013560208201526139bf604083016137a4565b60408201526139d0606083016137a4565b6060820152608082013560808201526139eb60a083016138f9565b60a082015260c082013560c082015260e082013560e0820152610100808301356001600160401b03811115613a1f57600080fd5b613a2b85828601613961565b82840152505092915050565b60008060408385031215613a4a57600080fd5b82356001600160401b03811115613a6057600080fd5b613a6c85828601613981565b9250506020830135613a7d8161378f565b809150509250929050565b8015158114610d8257600080fd5b600080600080600060a08688031215613aae57600080fd5b8535613ab98161378f565b945060208601359350604086013592506060860135613ad781613a88565b91506080860135613ae78161378f565b809150509295509295909350565b600080600060608486031215613b0a57600080fd5b8335613b158161378f565b92506020840135613b258161378f565b929592945050506040919091013590565b600060208284031215613b4857600080fd5b5035919050565b60006001600160401b03821115613b6857613b68613868565b5060051b60200190565b600082601f830112613b8357600080fd5b81356020613b98613b9383613b4f565b6138c9565b82815260059290921b84018101918181019086841115613bb757600080fd5b8286015b84811015613bd25780358352918301918301613bbb565b509695505050505050565b600080600060608486031215613bf257600080fd5b8335613bfd8161378f565b92506020848101356001600160401b0380821115613c1a57600080fd5b818701915087601f830112613c2e57600080fd5b8135613c3c613b9382613b4f565b81815260059190911b8301840190848101908a831115613c5b57600080fd5b938501935b82851015613c82578435613c738161378f565b82529385019390850190613c60565b965050506040870135925080831115613c9a57600080fd5b5050613ca886828701613b72565b9150509250925092565b60008060008060008060008060006101208a8c031215613cd157600080fd5b8935613cdc8161378f565b985060208a0135975060408a0135613cf38161378f565b965060608a0135613d038161378f565b955060808a01359450613d1860a08b016138f9565b935060c08a0135925060e08a013591506101008a01356001600160401b03811115613d4257600080fd5b613d4e8c828d01613961565b9150509295985092959850929598565b60008060208385031215613d7157600080fd5b82356001600160401b0380821115613d8857600080fd5b818501915085601f830112613d9c57600080fd5b813581811115613dab57600080fd5b866020828501011115613dbd57600080fd5b60209290920196919550909350505050565b60008083601f840112613de157600080fd5b5081356001600160401b03811115613df857600080fd5b6020830191508360208260051b8501011115613e1357600080fd5b9250929050565b60008060008060008060008060008060a08b8d031215613e3957600080fd5b8a356001600160401b0380821115613e5057600080fd5b613e5c8e838f01613dcf565b909c509a5060208d0135915080821115613e7557600080fd5b613e818e838f01613dcf565b909a50985060408d0135915080821115613e9a57600080fd5b613ea68e838f01613dcf565b909850965060608d0135915080821115613ebf57600080fd5b613ecb8e838f01613dcf565b909650945060808d0135915080821115613ee457600080fd5b50613ef18d828e01613dcf565b915080935050809150509295989b9194979a5092959850565b600080600080600080600060e0888a031215613f2557600080fd5b8735613f308161378f565b96506020880135613f408161378f565b95506040880135945060608801359350613f5c608089016138f9565b925060a0880135915060c0880135905092959891949750929550565b60008060408385031215613f8b57600080fd5b8235613f968161378f565b91506020830135613a7d8161378f565b60008082840360c0811215613fba57600080fd5b83356001600160401b03811115613fd057600080fd5b613fdc86828701613981565b93505060a0601f1982011215613ff157600080fd5b50613ffa6138a7565b60208401356140088161378f565b8082525060408401356020820152606084013560408201526080840135606082015260a08401356140388161378f565b6080820152919491935090915050565b600181811c9082168061405c57607f821691505b6020821081141561407d57634e487b7160e01b600052602260045260246000fd5b50919050565b60006080828403121561409557600080fd5b604051608081018181106001600160401b03821117156140b7576140b7613868565b60405282516140c581613a88565b815260208301516140d581613a88565b602082015260408301516140e881613a88565b604082015260608301516140fb81613a88565b60608201529392505050565b6020808252818101527f455243323054656d706c6174653a204e4f54204445504c4f59455220524f4c45604082015260600190565b634e487b7160e01b600052601160045260246000fd5b600082198211156141655761416561413c565b500190565b60006020828403121561417c57600080fd5b8151610ce48161378f565b634e487b7160e01b600052603260045260246000fd5b6001600160a01b038481168252606060208084018290528551918401829052600092868201929091906080860190855b818110156141eb5785518516835294830194918301916001016141cd565b5050858103604087015286518082529082019350915080860160005b8381101561422357815185529382019390820190600101614207565b509298975050505050505050565b60006020828403121561424357600080fd5b5051919050565b83815260406020820152816040820152818360608301376000818301606090810191909152601f909201601f1916010192915050565b60008261429d57634e487b7160e01b600052601260045260246000fd5b500490565b60006142b0613b9384613b4f565b80848252602080830192508560051b8501368111156142ce57600080fd5b855b8181101561431d5780356001600160401b038111156142ef5760008081fd5b870136601f8201126143015760008081fd5b61430f36823586840161390a565b8652509382019382016142d0565b50919695505050505050565b6000614337613b9384613b4f565b80848252602080830192508560051b85013681111561435557600080fd5b855b8181101561431d5780356001600160401b038111156143765760008081fd5b61438236828a01613961565b865250938201938201614357565b60006000198214156143a4576143a461413c565b5060010190565b6000806000806000806000806000806000806101808d8f0312156143ce57600080fd5b8c516143d98161378f565b60208e0151909c506143ea8161378f565b60408e015160608f0151919c509a506144028161378f565b8099505060808d0151975060a08d0151965060c08d015161442281613a88565b8096505060e08d015194506101008d015193506101208d015192506101408d015191506101608d015161445481613a88565b809150509295989b509295989b509295989b565b6000806000806080858703121561447e57600080fd5b505082516020840151604085015160609095015191969095509092509050565b60008160001904831182151516156144b8576144b861413c565b500290565b600085516144cf818460208a016137d1565b6bffffffffffffffffffffffff19606096871b8116919093019081529390941b166014830152602882015260480192915050565b600083516145158184602088016137d1565b9190910191825250602001919050565b85815260a06020820152600061453e60a08301876137fd565b60ff95909516604083015250606081019290925260809091015292915050565b6000828210156145705761457061413c565b500390565b600080835481600182811c91508083168061459157607f831692505b60208084108214156145b157634e487b7160e01b86526022600452602486fd5b8180156145c557600181146145d657614603565b60ff19861689528489019650614603565b60008a81526020902060005b868110156145fb5781548b8201529085019083016145e2565b505084890196505b509498975050505050505050565b60006020828403121561462357600080fd5b8151610ce481613a88565b600082516146408184602087016137d1565b919091019291505056fea2646970667358221220e699977a632305500789a54d95895f0d61fc856504b03a9419a04049ee9031d464736f6c634300080a0033",
  "linkReferences": {},
  "deployedLinkReferences": {}
}