{
  "_format": "hh-sol-artifact-1",
  "contractName": "ERC721",
  "sourceName": "contracts/utils/ERC721/ERC721.sol",
  "abi": [
    {
      "inputs": [
        {
          "internalType": "string",
          "name": "name_",
          "type": "string"
        },
        {
          "internalType": "string",
          "name": "symbol_",
          "type": "string"
        }
      ],
      "stateMutability": "nonpayable",
      "type": "constructor"
    },
    {
      "anonymous": false,
      "inputs": [
        {
          "indexed": true,
          "internalType": "address",
          "name": "owner",
          "type": "address"
        },
        {
          "indexed": true,
          "internalType": "address",
          "name": "approved",
          "type": "address"
        },
        {
          "indexed": true,
          "internalType": "uint256",
          "name": "tokenId",
          "type": "uint256"
        }
      ],
      "name": "Approval",
      "type": "event"
    },
    {
      "anonymous": false,
      "inputs": [
        {
          "indexed": true,
          "internalType": "address",
          "name": "owner",
          "type": "address"
        },
        {
          "indexed": true,
          "internalType": "address",
          "name": "operator",
          "type": "address"
        },
        {
          "indexed": false,
          "internalType": "bool",
          "name": "approved",
          "type": "bool"
        }
      ],
      "name": "ApprovalForAll",
      "type": "event"
    },
    {
      "anonymous": false,
      "inputs": [
        {
          "indexed": true,
          "internalType": "address",
          "name": "from",
          "type": "address"
        },
        {
          "indexed": true,
          "internalType": "address",
          "name": "to",
          "type": "address"
        },
        {
          "indexed": true,
          "internalType": "uint256",
          "name": "tokenId",
          "type": "uint256"
        }
      ],
      "name": "Transfer",
      "type": "event"
    },
    {
      "inputs": [
        {
          "internalType": "address",
          "name": "to",
          "type": "address"
        },
        {
          "internalType": "uint256",
          "name": "tokenId",
          "type": "uint256"
        }
      ],
      "name": "approve",
      "outputs": [],
      "stateMutability": "nonpayable",
      "type": "function"
    },
    {
      "inputs": [
        {
          "internalType": "address",
          "name": "owner",
          "type": "address"
        }
      ],
      "name": "balanceOf",
      "outputs": [
        {
          "internalType": "uint256",
          "name": "",
          "type": "uint256"
        }
      ],
      "stateMutability": "view",
      "type": "function"
    },
    {
      "inputs": [],
      "name": "baseURI",
      "outputs": [
        {
          "internalType": "string",
          "name": "",
          "type": "string"
        }
      ],
      "stateMutability": "view",
      "type": "function"
    },
    {
      "inputs": [
        {
          "internalType": "uint256",
          "name": "tokenId",
          "type": "uint256"
        }
      ],
      "name": "getApproved",
      "outputs": [
        {
          "internalType": "address",
          "name": "",
          "type": "address"
        }
      ],
      "stateMutability": "view",
      "type": "function"
    },
    {
      "inputs": [
        {
          "internalType": "address",
          "name": "owner",
          "type": "address"
        },
        {
          "internalType": "address",
          "name": "operator",
          "type": "address"
        }
      ],
      "name": "isApprovedForAll",
      "outputs": [
        {
          "internalType": "bool",
          "name": "",
          "type": "bool"
        }
      ],
      "stateMutability": "view",
      "type": "function"
    },
    {
      "inputs": [],
      "name": "name",
      "outputs": [
        {
          "internalType": "string",
          "name": "",
          "type": "string"
        }
      ],
      "stateMutability": "view",
      "type": "function"
    },
    {
      "inputs": [
        {
          "internalType": "uint256",
          "name": "tokenId",
          "type": "uint256"
        }
      ],
      "name": "ownerOf",
      "outputs": [
        {
          "internalType": "address",
          "name": "",
          "type": "address"
        }
      ],
      "stateMutability": "view",
      "type": "function"
    },
    {
      "inputs": [
        {
          "internalType": "address",
          "name": "operator",
          "type": "address"
        },
        {
          "internalType": "bool",
          "name": "approved",
          "type": "bool"
        }
      ],
      "name": "setApprovalForAll",
      "outputs": [],
      "stateMutability": "nonpayable",
      "type": "function"
    },
    {
      "inputs": [
        {
          "internalType": "bytes4",
          "name": "interfaceId",
          "type": "bytes4"
        }
      ],
      "name": "supportsInterface",
      "outputs": [
        {
          "internalType": "bool",
          "name": "",
          "type": "bool"
        }
      ],
      "stateMutability": "view",
      "type": "function"
    },
    {
      "inputs": [],
      "name": "symbol",
      "outputs": [
        {
          "internalType": "string",
          "name": "",
          "type": "string"
        }
      ],
      "stateMutability": "view",
      "type": "function"
    },
    {
      "inputs": [
        {
          "internalType": "uint256",
          "name": "index",
          "type": "uint256"
        }
      ],
      "name": "tokenByIndex",
      "outputs": [
        {
          "internalType": "uint256",
          "name": "",
          "type": "uint256"
        }
      ],
      "stateMutability": "view",
      "type": "function"
    },
    {
      "inputs": [
        {
          "internalType": "address",
          "name": "owner",
          "type": "address"
        },
        {
          "internalType": "uint256",
          "name": "index",
          "type": "uint256"
        }
      ],
      "name": "tokenOfOwnerByIndex",
      "outputs": [
        {
          "internalType": "uint256",
          "name": "",
          "type": "uint256"
        }
      ],
      "stateMutability": "view",
      "type": "function"
    },
    {
      "inputs": [
        {
          "internalType": "uint256",
          "name": "tokenId",
          "type": "uint256"
        }
      ],
      "name": "tokenURI",
      "outputs": [
        {
          "internalType": "string",
          "name": "",
          "type": "string"
        }
      ],
      "stateMutability": "view",
      "type": "function"
    },
    {
      "inputs": [],
      "name": "totalSupply",
      "outputs": [
        {
          "internalType": "uint256",
          "name": "",
          "type": "uint256"
        }
      ],
      "stateMutability": "view",
      "type": "function"
    }
  ],
  "bytecode": "0x60806040523480156200001157600080fd5b506040516200101e3803806200101e8339810160408190526200003491620002b3565b620000466301ffc9a760e01b62000084565b81516200005b90600190602085019062000140565b5080516200007190600290602084019062000140565b506200007c62000108565b50506200035a565b6001600160e01b03198082161415620000e35760405162461bcd60e51b815260206004820152601c60248201527f4552433136353a20696e76616c696420696e7465726661636520696400000000604482015260640160405180910390fd5b6001600160e01b0319166000908152602081905260409020805460ff19166001179055565b6200011a6380ac58cd60e01b62000084565b6200012c635b5e139f60e01b62000084565b6200013e63780e9d6360e01b62000084565b565b8280546200014e906200031d565b90600052602060002090601f016020900481019282620001725760008555620001bd565b82601f106200018d57805160ff1916838001178555620001bd565b82800160010185558215620001bd579182015b82811115620001bd578251825591602001919060010190620001a0565b50620001cb929150620001cf565b5090565b5b80821115620001cb5760008155600101620001d0565b634e487b7160e01b600052604160045260246000fd5b600082601f8301126200020e57600080fd5b81516001600160401b03808211156200022b576200022b620001e6565b604051601f8301601f19908116603f01168101908282118183101715620002565762000256620001e6565b816040528381526020925086838588010111156200027357600080fd5b600091505b8382101562000297578582018301518183018401529082019062000278565b83821115620002a95760008385830101525b9695505050505050565b60008060408385031215620002c757600080fd5b82516001600160401b0380821115620002df57600080fd5b620002ed86838701620001fc565b935060208501519150808211156200030457600080fd5b506200031385828601620001fc565b9150509250929050565b600181811c908216806200033257607f821691505b602082108114156200035457634e487b7160e01b600052602260045260246000fd5b50919050565b610cb4806200036a6000396000f3fe608060405234801561001057600080fd5b50600436106100ea5760003560e01c80636352211e1161008c57806395d89b411161006657806395d89b41146101f0578063a22cb465146101f8578063c87b56dd1461020b578063e985e9c51461021e57600080fd5b80636352211e146101c25780636c0360eb146101d557806370a08231146101dd57600080fd5b8063095ea7b3116100c8578063095ea7b31461017157806318160ddd146101865780632f745c591461019c5780634f6ccce7146101af57600080fd5b806301ffc9a7146100ef57806306fdde0314610131578063081812fc14610146575b600080fd5b61011c6100fd366004610a3a565b6001600160e01b03191660009081526020819052604090205460ff1690565b60405190151581526020015b60405180910390f35b61013961025a565b6040516101289190610a94565b610159610154366004610ac7565b6102ec565b6040516001600160a01b039091168152602001610128565b61018461017f366004610afc565b610379565b005b61018e61048f565b604051908152602001610128565b61018e6101aa366004610afc565b6104a0565b61018e6101bd366004610ac7565b6104c9565b6101596101d0366004610ac7565b6104df565b61013961050d565b61018e6101eb366004610b26565b610517565b6101396105a3565b610184610206366004610b41565b6105b2565b610139610219366004610ac7565b610677565b61011c61022c366004610b7d565b6001600160a01b03918216600090815260086020908152604080832093909416825291909152205460ff1690565b60606001805461026990610bb0565b80601f016020809104026020016040519081016040528092919081815260200182805461029590610bb0565b80156102e25780601f106102b7576101008083540402835291602001916102e2565b820191906000526020600020905b8154815290600101906020018083116102c557829003601f168201915b5050505050905090565b60006102f7826107c5565b61035d5760405162461bcd60e51b815260206004820152602c60248201527f4552433732313a20617070726f76656420717565727920666f72206e6f6e657860448201526b34b9ba32b73a103a37b5b2b760a11b60648201526084015b60405180910390fd5b506000908152600760205260409020546001600160a01b031690565b6000610384826104df565b9050806001600160a01b0316836001600160a01b031614156103f25760405162461bcd60e51b815260206004820152602160248201527f4552433732313a20617070726f76616c20746f2063757272656e74206f776e656044820152603960f91b6064820152608401610354565b336001600160a01b038216148061040e575061040e813361022c565b6104805760405162461bcd60e51b815260206004820152603860248201527f4552433732313a20617070726f76652063616c6c6572206973206e6f74206f7760448201527f6e6572206e6f7220617070726f76656420666f7220616c6c00000000000000006064820152608401610354565b61048a83836107d2565b505050565b600061049b6005610840565b905090565b6001600160a01b03821660009081526004602052604081206104c2908361084a565b9392505050565b6000806104d7600584610856565b509392505050565b600061050782604051806060016040528060298152602001610c566029913960059190610872565b92915050565b606061049b610887565b60006001600160a01b0382166105825760405162461bcd60e51b815260206004820152602a60248201527f4552433732313a2062616c616e636520717565727920666f7220746865207a65604482015269726f206164647265737360b01b6064820152608401610354565b6001600160a01b038216600090815260046020526040902061050790610840565b60606002805461026990610bb0565b6001600160a01b03821633141561060b5760405162461bcd60e51b815260206004820152601960248201527f4552433732313a20617070726f766520746f2063616c6c6572000000000000006044820152606401610354565b3360008181526008602090815260408083206001600160a01b03871680855290835292819020805460ff191686151590811790915590519081529192917f17307eab39ab6107e8899845ad3d59bd9653f200f220920489ca2b5937696c31910160405180910390a35050565b6060610682826107c5565b6106e65760405162461bcd60e51b815260206004820152602f60248201527f4552433732314d657461646174613a2055524920717565727920666f72206e6f60448201526e3732bc34b9ba32b73a103a37b5b2b760891b6064820152608401610354565b600082815260096020526040812080546106ff90610bb0565b80601f016020809104026020016040519081016040528092919081815260200182805461072b90610bb0565b80156107785780601f1061074d57610100808354040283529160200191610778565b820191906000526020600020905b81548152906001019060200180831161075b57829003601f168201915b505050505090506000610789610887565b8251909150156107be5780826040516020016107a6929190610beb565b60405160208183030381529060405292505050919050565b5092915050565b6000610507600583610896565b600081815260076020526040902080546001600160a01b0319166001600160a01b0384169081179091558190610807826104df565b6001600160a01b03167f8c5be1e5ebec7d5bd14f71427d1e84f3dd0314c0f7b2291e5b200ac8c7c3b92560405160405180910390a45050565b6000610507825490565b60006104c283836108ae565b60008080806108658686610934565b9097909650945050505050565b600061087f8484846109d1565b949350505050565b60606003805461026990610bb0565b600081815260018301602052604081205415156104c2565b8154600090821061090c5760405162461bcd60e51b815260206004820152602260248201527f456e756d657261626c655365743a20696e646578206f7574206f6620626f756e604482015261647360f01b6064820152608401610354565b82600001828154811061092157610921610c1a565b9060005260206000200154905092915050565b8154600090819083106109945760405162461bcd60e51b815260206004820152602260248201527f456e756d657261626c654d61703a20696e646578206f7574206f6620626f756e604482015261647360f01b6064820152608401610354565b60008460000184815481106109ab576109ab610c1a565b906000526020600020906002020190508060000154816001015492509250509250929050565b60008281526001840160205260408120548281610a015760405162461bcd60e51b81526004016103549190610a94565b5084610a0e600183610c30565b81548110610a1e57610a1e610c1a565b9060005260206000209060020201600101549150509392505050565b600060208284031215610a4c57600080fd5b81356001600160e01b0319811681146104c257600080fd5b60005b83811015610a7f578181015183820152602001610a67565b83811115610a8e576000848401525b50505050565b6020815260008251806020840152610ab3816040850160208701610a64565b601f01601f19169190910160400192915050565b600060208284031215610ad957600080fd5b5035919050565b80356001600160a01b0381168114610af757600080fd5b919050565b60008060408385031215610b0f57600080fd5b610b1883610ae0565b946020939093013593505050565b600060208284031215610b3857600080fd5b6104c282610ae0565b60008060408385031215610b5457600080fd5b610b5d83610ae0565b915060208301358015158114610b7257600080fd5b809150509250929050565b60008060408385031215610b9057600080fd5b610b9983610ae0565b9150610ba760208401610ae0565b90509250929050565b600181811c90821680610bc457607f821691505b60208210811415610be557634e487b7160e01b600052602260045260246000fd5b50919050565b60008351610bfd818460208801610a64565b835190830190610c11818360208801610a64565b01949350505050565b634e487b7160e01b600052603260045260246000fd5b600082821015610c5057634e487b7160e01b600052601160045260246000fd5b50039056fe4552433732313a206f776e657220717565727920666f72206e6f6e6578697374656e7420746f6b656ea26469706673582212206a893d71aeec74925f0db88d95f990c0afb4b718e29288b6e638bb92bd6c2ad464736f6c634300080c0033",
  "linkReferences": {},
  "deployedLinkReferences": {}
}