{
  "_format": "hh-sol-artifact-1",
  "contractName": "FactoryRouter",
  "sourceName": "contracts/pools/FactoryRouter.sol",
  "abi": [
    {
      "inputs": [
        {
          "internalType": "address",
          "name": "_routerOwner",
          "type": "address"
        },
        {
          "internalType": "address",
          "name": "_oceanToken",
          "type": "address"
        },
        {
          "internalType": "address",
          "name": "_bpoolTemplate",
          "type": "address"
        },
        {
          "internalType": "address",
          "name": "_opcCollector",
          "type": "address"
        },
        {
          "internalType": "address[]",
          "name": "_preCreatedPools",
          "type": "address[]"
        }
      ],
      "stateMutability": "nonpayable",
      "type": "constructor"
    },
    {
      "anonymous": false,
      "inputs": [
        {
          "indexed": true,
          "internalType": "address",
          "name": "newBPoolAddress",
          "type": "address"
        },
        {
          "indexed": true,
          "internalType": "address",
          "name": "registeredBy",
          "type": "address"
        },
        {
          "indexed": true,
          "internalType": "address",
          "name": "datatokenAddress",
          "type": "address"
        },
        {
          "indexed": false,
          "internalType": "address",
          "name": "baseTokenAddress",
          "type": "address"
        },
        {
          "indexed": false,
          "internalType": "address",
          "name": "bpoolTemplateAddress",
          "type": "address"
        },
        {
          "indexed": false,
          "internalType": "address",
          "name": "ssAddress",
          "type": "address"
        }
      ],
      "name": "BPoolCreated",
      "type": "event"
    },
    {
      "anonymous": false,
      "inputs": [
        {
          "indexed": true,
          "internalType": "address",
          "name": "caller",
          "type": "address"
        },
        {
          "indexed": true,
          "internalType": "address",
          "name": "contractAddress",
          "type": "address"
        }
      ],
      "name": "DispenserContractAdded",
      "type": "event"
    },
    {
      "anonymous": false,
      "inputs": [
        {
          "indexed": true,
          "internalType": "address",
          "name": "caller",
          "type": "address"
        },
        {
          "indexed": true,
          "internalType": "address",
          "name": "contractAddress",
          "type": "address"
        }
      ],
      "name": "DispenserContractRemoved",
      "type": "event"
    },
    {
      "anonymous": false,
      "inputs": [
        {
          "indexed": true,
          "internalType": "address",
          "name": "caller",
          "type": "address"
        },
        {
          "indexed": true,
          "internalType": "address",
          "name": "contractAddress",
          "type": "address"
        }
      ],
      "name": "FactoryContractChanged",
      "type": "event"
    },
    {
      "anonymous": false,
      "inputs": [
        {
          "indexed": true,
          "internalType": "address",
          "name": "caller",
          "type": "address"
        },
        {
          "indexed": true,
          "internalType": "address",
          "name": "contractAddress",
          "type": "address"
        }
      ],
      "name": "FixedRateContractAdded",
      "type": "event"
    },
    {
      "anonymous": false,
      "inputs": [
        {
          "indexed": true,
          "internalType": "address",
          "name": "caller",
          "type": "address"
        },
        {
          "indexed": true,
          "internalType": "address",
          "name": "contractAddress",
          "type": "address"
        }
      ],
      "name": "FixedRateContractRemoved",
      "type": "event"
    },
    {
      "anonymous": false,
      "inputs": [
        {
          "indexed": false,
          "internalType": "address",
          "name": "instance",
          "type": "address"
        }
      ],
      "name": "InstanceDeployed",
      "type": "event"
    },
    {
      "anonymous": false,
      "inputs": [
        {
          "indexed": true,
          "internalType": "address",
          "name": "poolAddress",
          "type": "address"
        },
        {
          "indexed": false,
          "internalType": "bool",
          "name": "isOcean",
          "type": "bool"
        }
      ],
      "name": "NewPool",
      "type": "event"
    },
    {
      "anonymous": false,
      "inputs": [
        {
          "indexed": true,
          "internalType": "address",
          "name": "caller",
          "type": "address"
        },
        {
          "indexed": false,
          "internalType": "uint256",
          "name": "newSwapOceanFee",
          "type": "uint256"
        },
        {
          "indexed": false,
          "internalType": "uint256",
          "name": "newSwapNonOceanFee",
          "type": "uint256"
        },
        {
          "indexed": false,
          "internalType": "uint256",
          "name": "newConsumeFee",
          "type": "uint256"
        },
        {
          "indexed": false,
          "internalType": "uint256",
          "name": "newProviderFee",
          "type": "uint256"
        }
      ],
      "name": "OPCFeeChanged",
      "type": "event"
    },
    {
      "anonymous": false,
      "inputs": [
        {
          "indexed": true,
          "internalType": "address",
          "name": "caller",
          "type": "address"
        },
        {
          "indexed": true,
          "internalType": "address",
          "name": "contractAddress",
          "type": "address"
        }
      ],
      "name": "PoolTemplateAdded",
      "type": "event"
    },
    {
      "anonymous": false,
      "inputs": [
        {
          "indexed": true,
          "internalType": "address",
          "name": "caller",
          "type": "address"
        },
        {
          "indexed": true,
          "internalType": "address",
          "name": "contractAddress",
          "type": "address"
        }
      ],
      "name": "PoolTemplateRemoved",
      "type": "event"
    },
    {
      "anonymous": false,
      "inputs": [
        {
          "indexed": true,
          "internalType": "address",
          "name": "caller",
          "type": "address"
        },
        {
          "indexed": true,
          "internalType": "address",
          "name": "newRouter",
          "type": "address"
        }
      ],
      "name": "RouterChanged",
      "type": "event"
    },
    {
      "anonymous": false,
      "inputs": [
        {
          "indexed": true,
          "internalType": "address",
          "name": "caller",
          "type": "address"
        },
        {
          "indexed": true,
          "internalType": "address",
          "name": "contractAddress",
          "type": "address"
        }
      ],
      "name": "SSContractAdded",
      "type": "event"
    },
    {
      "anonymous": false,
      "inputs": [
        {
          "indexed": true,
          "internalType": "address",
          "name": "caller",
          "type": "address"
        },
        {
          "indexed": true,
          "internalType": "address",
          "name": "contractAddress",
          "type": "address"
        }
      ],
      "name": "SSContractRemoved",
      "type": "event"
    },
    {
      "anonymous": false,
      "inputs": [
        {
          "indexed": true,
          "internalType": "address",
          "name": "caller",
          "type": "address"
        },
        {
          "indexed": true,
          "internalType": "address",
          "name": "token",
          "type": "address"
        }
      ],
      "name": "TokenAdded",
      "type": "event"
    },
    {
      "anonymous": false,
      "inputs": [
        {
          "indexed": true,
          "internalType": "address",
          "name": "caller",
          "type": "address"
        },
        {
          "indexed": true,
          "internalType": "address",
          "name": "token",
          "type": "address"
        }
      ],
      "name": "TokenRemoved",
      "type": "event"
    },
    {
      "anonymous": false,
      "inputs": [
        {
          "indexed": true,
          "internalType": "address",
          "name": "caller",
          "type": "address"
        },
        {
          "indexed": false,
          "internalType": "uint256",
          "name": "minVestingPeriodInBlocks",
          "type": "uint256"
        }
      ],
      "name": "VestingPeriodChanges",
      "type": "event"
    },
    {
      "inputs": [],
      "name": "BONE",
      "outputs": [
        {
          "internalType": "uint256",
          "name": "",
          "type": "uint256"
        }
      ],
      "stateMutability": "view",
      "type": "function"
    },
    {
      "inputs": [],
      "name": "BPOW_PRECISION",
      "outputs": [
        {
          "internalType": "uint256",
          "name": "",
          "type": "uint256"
        }
      ],
      "stateMutability": "view",
      "type": "function"
    },
    {
      "inputs": [],
      "name": "EXIT_FEE",
      "outputs": [
        {
          "internalType": "uint256",
          "name": "",
          "type": "uint256"
        }
      ],
      "stateMutability": "view",
      "type": "function"
    },
    {
      "inputs": [],
      "name": "INIT_POOL_SUPPLY",
      "outputs": [
        {
          "internalType": "uint256",
          "name": "",
          "type": "uint256"
        }
      ],
      "stateMutability": "view",
      "type": "function"
    },
    {
      "inputs": [],
      "name": "MAX_BOUND_TOKENS",
      "outputs": [
        {
          "internalType": "uint256",
          "name": "",
          "type": "uint256"
        }
      ],
      "stateMutability": "view",
      "type": "function"
    },
    {
      "inputs": [],
      "name": "MAX_BPOW_BASE",
      "outputs": [
        {
          "internalType": "uint256",
          "name": "",
          "type": "uint256"
        }
      ],
      "stateMutability": "view",
      "type": "function"
    },
    {
      "inputs": [],
      "name": "MAX_FEE",
      "outputs": [
        {
          "internalType": "uint256",
          "name": "",
          "type": "uint256"
        }
      ],
      "stateMutability": "view",
      "type": "function"
    },
    {
      "inputs": [],
      "name": "MAX_IN_RATIO",
      "outputs": [
        {
          "internalType": "uint256",
          "name": "",
          "type": "uint256"
        }
      ],
      "stateMutability": "view",
      "type": "function"
    },
    {
      "inputs": [],
      "name": "MAX_OUT_RATIO",
      "outputs": [
        {
          "internalType": "uint256",
          "name": "",
          "type": "uint256"
        }
      ],
      "stateMutability": "view",
      "type": "function"
    },
    {
      "inputs": [],
      "name": "MAX_TOTAL_WEIGHT",
      "outputs": [
        {
          "internalType": "uint256",
          "name": "",
          "type": "uint256"
        }
      ],
      "stateMutability": "view",
      "type": "function"
    },
    {
      "inputs": [],
      "name": "MAX_WEIGHT",
      "outputs": [
        {
          "internalType": "uint256",
          "name": "",
          "type": "uint256"
        }
      ],
      "stateMutability": "view",
      "type": "function"
    },
    {
      "inputs": [],
      "name": "MIN_BALANCE",
      "outputs": [
        {
          "internalType": "uint256",
          "name": "",
          "type": "uint256"
        }
      ],
      "stateMutability": "view",
      "type": "function"
    },
    {
      "inputs": [],
      "name": "MIN_BOUND_TOKENS",
      "outputs": [
        {
          "internalType": "uint256",
          "name": "",
          "type": "uint256"
        }
      ],
      "stateMutability": "view",
      "type": "function"
    },
    {
      "inputs": [],
      "name": "MIN_BPOW_BASE",
      "outputs": [
        {
          "internalType": "uint256",
          "name": "",
          "type": "uint256"
        }
      ],
      "stateMutability": "view",
      "type": "function"
    },
    {
      "inputs": [],
      "name": "MIN_FEE",
      "outputs": [
        {
          "internalType": "uint256",
          "name": "",
          "type": "uint256"
        }
      ],
      "stateMutability": "view",
      "type": "function"
    },
    {
      "inputs": [],
      "name": "MIN_WEIGHT",
      "outputs": [
        {
          "internalType": "uint256",
          "name": "",
          "type": "uint256"
        }
      ],
      "stateMutability": "view",
      "type": "function"
    },
    {
      "inputs": [
        {
          "internalType": "address",
          "name": "tokenAddress",
          "type": "address"
        }
      ],
      "name": "addApprovedToken",
      "outputs": [],
      "stateMutability": "nonpayable",
      "type": "function"
    },
    {
      "inputs": [
        {
          "internalType": "address",
          "name": "_dispenser",
          "type": "address"
        }
      ],
      "name": "addDispenserContract",
      "outputs": [],
      "stateMutability": "nonpayable",
      "type": "function"
    },
    {
      "inputs": [
        {
          "internalType": "address",
          "name": "_factory",
          "type": "address"
        }
      ],
      "name": "addFactory",
      "outputs": [],
      "stateMutability": "nonpayable",
      "type": "function"
    },
    {
      "inputs": [
        {
          "internalType": "address",
          "name": "_fixedRate",
          "type": "address"
        }
      ],
      "name": "addFixedRateContract",
      "outputs": [],
      "stateMutability": "nonpayable",
      "type": "function"
    },
    {
      "inputs": [
        {
          "internalType": "address",
          "name": "poolTemplate",
          "type": "address"
        }
      ],
      "name": "addPoolTemplate",
      "outputs": [],
      "stateMutability": "nonpayable",
      "type": "function"
    },
    {
      "inputs": [
        {
          "internalType": "address",
          "name": "_ssContract",
          "type": "address"
        }
      ],
      "name": "addSSContract",
      "outputs": [],
      "stateMutability": "nonpayable",
      "type": "function"
    },
    {
      "inputs": [
        {
          "internalType": "uint256",
          "name": "",
          "type": "uint256"
        }
      ],
      "name": "approvedTokens",
      "outputs": [
        {
          "internalType": "address",
          "name": "",
          "type": "address"
        }
      ],
      "stateMutability": "view",
      "type": "function"
    },
    {
      "inputs": [
        {
          "components": [
            {
              "internalType": "bytes32",
              "name": "exchangeIds",
              "type": "bytes32"
            },
            {
              "internalType": "address",
              "name": "source",
              "type": "address"
            },
            {
              "internalType": "enum FactoryRouter.operationType",
              "name": "operation",
              "type": "uint8"
            },
            {
              "internalType": "address",
              "name": "tokenIn",
              "type": "address"
            },
            {
              "internalType": "uint256",
              "name": "amountsIn",
              "type": "uint256"
            },
            {
              "internalType": "address",
              "name": "tokenOut",
              "type": "address"
            },
            {
              "internalType": "uint256",
              "name": "amountsOut",
              "type": "uint256"
            },
            {
              "internalType": "uint256",
              "name": "maxPrice",
              "type": "uint256"
            },
            {
              "internalType": "uint256",
              "name": "swapMarketFee",
              "type": "uint256"
            },
            {
              "internalType": "address",
              "name": "marketFeeAddress",
              "type": "address"
            }
          ],
          "internalType": "struct FactoryRouter.Operations[]",
          "name": "_operations",
          "type": "tuple[]"
        }
      ],
      "name": "buyDTBatch",
      "outputs": [],
      "stateMutability": "nonpayable",
      "type": "function"
    },
    {
      "inputs": [
        {
          "internalType": "address",
          "name": "_routerOwner",
          "type": "address"
        }
      ],
      "name": "changeRouterOwner",
      "outputs": [],
      "stateMutability": "nonpayable",
      "type": "function"
    },
    {
      "inputs": [],
      "name": "consumeFee",
      "outputs": [
        {
          "internalType": "uint256",
          "name": "",
          "type": "uint256"
        }
      ],
      "stateMutability": "view",
      "type": "function"
    },
    {
      "inputs": [
        {
          "internalType": "address",
          "name": "_dispenser",
          "type": "address"
        },
        {
          "internalType": "address",
          "name": "datatoken",
          "type": "address"
        },
        {
          "internalType": "uint256",
          "name": "maxTokens",
          "type": "uint256"
        },
        {
          "internalType": "uint256",
          "name": "maxBalance",
          "type": "uint256"
        },
        {
          "internalType": "address",
          "name": "owner",
          "type": "address"
        },
        {
          "internalType": "address",
          "name": "allowedSwapper",
          "type": "address"
        }
      ],
      "name": "deployDispenser",
      "outputs": [],
      "stateMutability": "nonpayable",
      "type": "function"
    },
    {
      "inputs": [
        {
          "internalType": "address",
          "name": "fixedPriceAddress",
          "type": "address"
        },
        {
          "internalType": "address[]",
          "name": "addresses",
          "type": "address[]"
        },
        {
          "internalType": "uint256[]",
          "name": "uints",
          "type": "uint256[]"
        }
      ],
      "name": "deployFixedRate",
      "outputs": [
        {
          "internalType": "bytes32",
          "name": "exchangeId",
          "type": "bytes32"
        }
      ],
      "stateMutability": "nonpayable",
      "type": "function"
    },
    {
      "inputs": [
        {
          "internalType": "address[2]",
          "name": "tokens",
          "type": "address[2]"
        },
        {
          "internalType": "uint256[]",
          "name": "ssParams",
          "type": "uint256[]"
        },
        {
          "internalType": "uint256[]",
          "name": "swapFees",
          "type": "uint256[]"
        },
        {
          "internalType": "address[]",
          "name": "addresses",
          "type": "address[]"
        }
      ],
      "name": "deployPool",
      "outputs": [
        {
          "internalType": "address",
          "name": "",
          "type": "address"
        }
      ],
      "stateMutability": "nonpayable",
      "type": "function"
    },
    {
      "inputs": [
        {
          "internalType": "uint256",
          "name": "",
          "type": "uint256"
        }
      ],
      "name": "dispensers",
      "outputs": [
        {
          "internalType": "address",
          "name": "",
          "type": "address"
        }
      ],
      "stateMutability": "view",
      "type": "function"
    },
    {
      "inputs": [],
      "name": "factory",
      "outputs": [
        {
          "internalType": "address",
          "name": "",
          "type": "address"
        }
      ],
      "stateMutability": "view",
      "type": "function"
    },
    {
      "inputs": [],
      "name": "fixedRate",
      "outputs": [
        {
          "internalType": "address",
          "name": "",
          "type": "address"
        }
      ],
      "stateMutability": "view",
      "type": "function"
    },
    {
      "inputs": [
        {
          "internalType": "uint256",
          "name": "",
          "type": "uint256"
        }
      ],
      "name": "fixedrates",
      "outputs": [
        {
          "internalType": "address",
          "name": "",
          "type": "address"
        }
      ],
      "stateMutability": "view",
      "type": "function"
    },
    {
      "inputs": [],
      "name": "getApprovedTokens",
      "outputs": [
        {
          "internalType": "address[]",
          "name": "",
          "type": "address[]"
        }
      ],
      "stateMutability": "view",
      "type": "function"
    },
    {
      "inputs": [],
      "name": "getDispensersContracts",
      "outputs": [
        {
          "internalType": "address[]",
          "name": "",
          "type": "address[]"
        }
      ],
      "stateMutability": "view",
      "type": "function"
    },
    {
      "inputs": [],
      "name": "getFixedRatesContracts",
      "outputs": [
        {
          "internalType": "address[]",
          "name": "",
          "type": "address[]"
        }
      ],
      "stateMutability": "view",
      "type": "function"
    },
    {
      "inputs": [],
      "name": "getMinVestingPeriod",
      "outputs": [
        {
          "internalType": "uint256",
          "name": "",
          "type": "uint256"
        }
      ],
      "stateMutability": "view",
      "type": "function"
    },
    {
      "inputs": [],
      "name": "getOPCConsumeFee",
      "outputs": [
        {
          "internalType": "uint256",
          "name": "",
          "type": "uint256"
        }
      ],
      "stateMutability": "view",
      "type": "function"
    },
    {
      "inputs": [
        {
          "internalType": "address",
          "name": "baseToken",
          "type": "address"
        }
      ],
      "name": "getOPCFee",
      "outputs": [
        {
          "internalType": "uint256",
          "name": "",
          "type": "uint256"
        }
      ],
      "stateMutability": "view",
      "type": "function"
    },
    {
      "inputs": [],
      "name": "getOPCFees",
      "outputs": [
        {
          "internalType": "uint256",
          "name": "",
          "type": "uint256"
        },
        {
          "internalType": "uint256",
          "name": "",
          "type": "uint256"
        }
      ],
      "stateMutability": "view",
      "type": "function"
    },
    {
      "inputs": [],
      "name": "getOPCProviderFee",
      "outputs": [
        {
          "internalType": "uint256",
          "name": "",
          "type": "uint256"
        }
      ],
      "stateMutability": "view",
      "type": "function"
    },
    {
      "inputs": [],
      "name": "getPoolTemplates",
      "outputs": [
        {
          "internalType": "address[]",
          "name": "",
          "type": "address[]"
        }
      ],
      "stateMutability": "view",
      "type": "function"
    },
    {
      "inputs": [],
      "name": "getSSContracts",
      "outputs": [
        {
          "internalType": "address[]",
          "name": "",
          "type": "address[]"
        }
      ],
      "stateMutability": "view",
      "type": "function"
    },
    {
      "inputs": [
        {
          "internalType": "address",
          "name": "tokenAddress",
          "type": "address"
        }
      ],
      "name": "isApprovedToken",
      "outputs": [
        {
          "internalType": "bool",
          "name": "",
          "type": "bool"
        }
      ],
      "stateMutability": "view",
      "type": "function"
    },
    {
      "inputs": [
        {
          "internalType": "address",
          "name": "_dispenser",
          "type": "address"
        }
      ],
      "name": "isDispenserContract",
      "outputs": [
        {
          "internalType": "bool",
          "name": "",
          "type": "bool"
        }
      ],
      "stateMutability": "view",
      "type": "function"
    },
    {
      "inputs": [
        {
          "internalType": "address",
          "name": "_fixedRate",
          "type": "address"
        }
      ],
      "name": "isFixedRateContract",
      "outputs": [
        {
          "internalType": "bool",
          "name": "",
          "type": "bool"
        }
      ],
      "stateMutability": "view",
      "type": "function"
    },
    {
      "inputs": [
        {
          "internalType": "address",
          "name": "poolTemplate",
          "type": "address"
        }
      ],
      "name": "isPoolTemplate",
      "outputs": [
        {
          "internalType": "bool",
          "name": "",
          "type": "bool"
        }
      ],
      "stateMutability": "view",
      "type": "function"
    },
    {
      "inputs": [
        {
          "internalType": "address",
          "name": "_ssContract",
          "type": "address"
        }
      ],
      "name": "isSSContract",
      "outputs": [
        {
          "internalType": "bool",
          "name": "",
          "type": "bool"
        }
      ],
      "stateMutability": "view",
      "type": "function"
    },
    {
      "inputs": [],
      "name": "minVestingPeriodInBlocks",
      "outputs": [
        {
          "internalType": "uint256",
          "name": "",
          "type": "uint256"
        }
      ],
      "stateMutability": "view",
      "type": "function"
    },
    {
      "inputs": [],
      "name": "opcCollector",
      "outputs": [
        {
          "internalType": "address",
          "name": "",
          "type": "address"
        }
      ],
      "stateMutability": "view",
      "type": "function"
    },
    {
      "inputs": [
        {
          "internalType": "uint256",
          "name": "",
          "type": "uint256"
        }
      ],
      "name": "poolTemplates",
      "outputs": [
        {
          "internalType": "address",
          "name": "",
          "type": "address"
        }
      ],
      "stateMutability": "view",
      "type": "function"
    },
    {
      "inputs": [],
      "name": "providerFee",
      "outputs": [
        {
          "internalType": "uint256",
          "name": "",
          "type": "uint256"
        }
      ],
      "stateMutability": "view",
      "type": "function"
    },
    {
      "inputs": [
        {
          "internalType": "address",
          "name": "tokenAddress",
          "type": "address"
        }
      ],
      "name": "removeApprovedToken",
      "outputs": [],
      "stateMutability": "nonpayable",
      "type": "function"
    },
    {
      "inputs": [
        {
          "internalType": "address",
          "name": "_dispenser",
          "type": "address"
        }
      ],
      "name": "removeDispenserContract",
      "outputs": [],
      "stateMutability": "nonpayable",
      "type": "function"
    },
    {
      "inputs": [
        {
          "internalType": "address",
          "name": "_fixedRate",
          "type": "address"
        }
      ],
      "name": "removeFixedRateContract",
      "outputs": [],
      "stateMutability": "nonpayable",
      "type": "function"
    },
    {
      "inputs": [
        {
          "internalType": "address",
          "name": "poolTemplate",
          "type": "address"
        }
      ],
      "name": "removePoolTemplate",
      "outputs": [],
      "stateMutability": "nonpayable",
      "type": "function"
    },
    {
      "inputs": [
        {
          "internalType": "address",
          "name": "_ssContract",
          "type": "address"
        }
      ],
      "name": "removeSSContract",
      "outputs": [],
      "stateMutability": "nonpayable",
      "type": "function"
    },
    {
      "inputs": [],
      "name": "routerOwner",
      "outputs": [
        {
          "internalType": "address",
          "name": "",
          "type": "address"
        }
      ],
      "stateMutability": "view",
      "type": "function"
    },
    {
      "inputs": [
        {
          "internalType": "uint256",
          "name": "",
          "type": "uint256"
        }
      ],
      "name": "ssContracts",
      "outputs": [
        {
          "internalType": "address",
          "name": "",
          "type": "address"
        }
      ],
      "stateMutability": "view",
      "type": "function"
    },
    {
      "inputs": [
        {
          "components": [
            {
              "internalType": "address",
              "name": "poolAddress",
              "type": "address"
            },
            {
              "internalType": "uint256",
              "name": "tokenAmountIn",
              "type": "uint256"
            },
            {
              "internalType": "uint256",
              "name": "minPoolAmountOut",
              "type": "uint256"
            }
          ],
          "internalType": "struct FactoryRouter.Stakes[]",
          "name": "_stakes",
          "type": "tuple[]"
        }
      ],
      "name": "stakeBatch",
      "outputs": [],
      "stateMutability": "nonpayable",
      "type": "function"
    },
    {
      "inputs": [],
      "name": "swapNonOceanFee",
      "outputs": [
        {
          "internalType": "uint256",
          "name": "",
          "type": "uint256"
        }
      ],
      "stateMutability": "view",
      "type": "function"
    },
    {
      "inputs": [],
      "name": "swapOceanFee",
      "outputs": [
        {
          "internalType": "uint256",
          "name": "",
          "type": "uint256"
        }
      ],
      "stateMutability": "view",
      "type": "function"
    },
    {
      "inputs": [
        {
          "internalType": "uint256",
          "name": "_newPeriod",
          "type": "uint256"
        }
      ],
      "name": "updateMinVestingPeriod",
      "outputs": [],
      "stateMutability": "nonpayable",
      "type": "function"
    },
    {
      "inputs": [
        {
          "internalType": "uint256",
          "name": "_newSwapOceanFee",
          "type": "uint256"
        },
        {
          "internalType": "uint256",
          "name": "_newSwapNonOceanFee",
          "type": "uint256"
        },
        {
          "internalType": "uint256",
          "name": "_newConsumeFee",
          "type": "uint256"
        },
        {
          "internalType": "uint256",
          "name": "_newProviderFee",
          "type": "uint256"
        }
      ],
      "name": "updateOPCFee",
      "outputs": [],
      "stateMutability": "nonpayable",
      "type": "function"
    }
  ],
  "bytecode": "0x60806040526225049060055566038d7ea4c6800060065566071afd498d0000600755666a94d74f43000060085560006009553480156200003e57600080fd5b5060405162004d8238038062004d8283398101604081905262000061916200060f565b8282826001600160a01b038316620000d65760405162461bcd60e51b815260206004820152602d60248201527f42466163746f72793a20696e76616c69642062706f6f6c2074656d706c61746560448201526c207a65726f206164647265737360981b60648201526084015b60405180910390fd5b6001600160a01b0382166200012e5760405162461bcd60e51b815260206004820152601660248201527f42466163746f72793a207a65726f2061646472657373000000000000000000006044820152606401620000cd565b600080546001600160a01b0319166001600160a01b03841617905562000154836200037f565b805115620002035760005b8151811015620002015760006001600160a01b0316336001600160a01b03168383815181106200019357620001936200072f565b602090810291909101810151604080516000808252938101849052908101929092526001600160a01b0316907fbb6121447d29a04cc37bfd93cdf6a9dd08229f2d941116c1528f04698c4e790e9060600160405180910390a480620001f88162000745565b9150506200015f565b505b5050506001600160a01b0385166200026a5760405162461bcd60e51b815260206004820152602360248201527f466163746f7279526f757465723a20496e76616c696420726f75746572206f776044820152623732b960e91b6064820152608401620000cd565b6001600160a01b038216620002ce5760405162461bcd60e51b815260206004820152602360248201527f466163746f7279526f757465723a20496e76616c6964206f7063436f6c6c65636044820152623a37b960e91b6064820152608401620000cd565b6001600160a01b038416620003395760405162461bcd60e51b815260206004820152602a60248201527f466163746f7279526f757465723a20496e76616c6964204f6365616e20546f6b604482015269656e206164647265737360b01b6064820152608401620000cd565b600280546001600160a01b038088166001600160a01b0319928316179092556000805492851692909116919091179055620003748462000476565b50505050506200076f565b6001600160a01b038116620003eb5760405162461bcd60e51b815260206004820152602b60248201527f466163746f7279526f757465723a20496e76616c696420706f6f6c54656d706c60448201526a617465206164647265737360a81b6064820152608401620000cd565b620003f68162000501565b620004735760018054808201825560009182527fb10e2d527612073b26eecdfd717e6a320cf44b4afac2b0732d9fcbe2b7fa0cf60180546001600160a01b0319166001600160a01b038416908117909155604051909133917fc3674c32cbec94fe266aab7ef71f65b9bf77e1ed501d4f2bece8752f5352e9ac9190a35b50565b620004818162000573565b6200047357600a805460018101825560009182527fc65a7bb8d6351c1cf70c95a316cc6a92839c986682d98bc35f958f4883f9d2a80180546001600160a01b0319166001600160a01b038416908117909155604051909133917fdffbd9ded1c09446f09377de547142dcce7dc541c8b0b028142b1eba7026b9e79190a350565b6000805b6001548110156200056a57826001600160a01b0316600182815481106200053057620005306200072f565b6000918252602090912001546001600160a01b03161415620005555750600192915050565b80620005618162000745565b91505062000505565b50600092915050565b6000805b600a548110156200056a57826001600160a01b0316600a8281548110620005a257620005a26200072f565b6000918252602090912001546001600160a01b03161415620005c75750600192915050565b80620005d38162000745565b91505062000577565b80516001600160a01b0381168114620005f457600080fd5b919050565b634e487b7160e01b600052604160045260246000fd5b600080600080600060a086880312156200062857600080fd5b6200063386620005dc565b9450602062000644818801620005dc565b94506200065460408801620005dc565b93506200066460608801620005dc565b60808801519093506001600160401b03808211156200068257600080fd5b818901915089601f8301126200069757600080fd5b815181811115620006ac57620006ac620005f9565b8060051b604051601f19603f83011681018181108582111715620006d457620006d4620005f9565b60405291825284820192508381018501918c831115620006f357600080fd5b938501935b828510156200071c576200070c85620005dc565b84529385019392850192620006f8565b8096505050505050509295509295909350565b634e487b7160e01b600052603260045260246000fd5b60006000198214156200076857634e487b7160e01b600052601160045260246000fd5b5060010190565b614603806200077f6000396000f3fe608060405234801561001057600080fd5b50600436106103d05760003560e01c8063867378c5116101ff578063c6580d121161011a578063e193faad116100ad578063ec0930211161007c578063ec0930211461075b578063ecdda58814610763578063ee3bc63514610776578063fca24bc61461078957600080fd5b8063e193faad1461072c578063e2bdeefa1461073f578063e4a28a5214610405578063e525f99c1461074857600080fd5b8063d629a00a116100e9578063d629a00a146106e2578063dce2d0df146106f5578063de9a95a714610710578063e183fb3f1461072357600080fd5b8063c6580d12146106b5578063c6e983d9146106bd578063cb870cbf146106c6578063cd10534b146106cf57600080fd5b8063b8421e2b11610192578063bfa04b8511610161578063bfa04b851461067c578063c07c00fe1461068f578063c36596a614610496578063c45a0155146106a257600080fd5b8063b8421e2b14610651578063ba019dab14610664578063bc063e1a1461066c578063bc694ea21461067457600080fd5b8063b0e0d136116101ce578063b0e0d13614610623578063b19aaac61461062b578063b66806fb1461063e578063b7b800a41461062357600080fd5b8063867378c5146105f85780639381cd2b14610600578063992e2a92146106085780639f2c010a1461061057600080fd5b806350cbbe76116102ef5780637521aff911610282578063802d142211610251578063802d1422146105ac57806382449375146105bf5780638552730a146105d2578063858ab596146105e557600080fd5b80637521aff91461057657806376c7a3c7146105895780637cbf85bf146105915780637d28354d146105a457600080fd5b80636c45e881116102be5780636c45e881146105405780636c9fb612146105485780636cdf90a11461055b578063737e5ca01461056e57600080fd5b806350cbbe761461050a578063510f34651461051d5780635705987a146105255780636afc0c5f1461053857600080fd5b8063218b538211610367578063335b7fa211610336578063335b7fa2146104d357806346104ea8146104e6578063475030c0146104ee57806347e14094146104f757600080fd5b8063218b538214610496578063241c7a6d146104a557806329ce1ec5146104ad5780632d5ad3d5146104c057600080fd5b806316592614116103a3578063165926141461045357806316d9cb3d14610468578063189d00ca1461047b5780631dafede01461048357600080fd5b806303814238146103d557806309a3bbe41461040557806315c25dd51461041b57806315d4c9eb1461043e575b600080fd5b6000546103e8906001600160a01b031681565b6040516001600160a01b0390911681526020015b60405180910390f35b61040d61079c565b6040519081526020016103fc565b61042e610429366004613b98565b6107b2565b60405190151581526020016103fc565b61044661081c565b6040516103fc9190613bb5565b610466610461366004613b98565b61087e565b005b610466610476366004613b98565b610a26565b61040d610aff565b6103e8610491366004613c02565b610b16565b61040d670de0b6b3a764000081565b610446610b40565b6104666104bb366004613b98565b610ba0565b61042e6104ce366004613b98565b610ccb565b6103e86104e1366004613c02565b610d2c565b610446610d3c565b61040d60055481565b610466610505366004613b98565b610d9c565b6103e8610518366004613c02565b610f3a565b60055461040d565b610466610533366004613b98565b610f4a565b61044661112b565b60095461040d565b610466610556366004613b98565b61118b565b61042e610569366004613b98565b611263565b6104466112c4565b610466610584366004613c02565b611324565b61040d61138b565b6103e861059f366004613c02565b61139f565b60085461040d565b6004546103e8906001600160a01b031681565b61040d6105cd366004613c67565b6113af565b6002546103e8906001600160a01b031681565b6104666105f3366004613cea565b611521565b61040d611925565b61040d61193c565b61040d61194f565b61046661061e366004613b98565b61196d565b61040d600281565b610466610639366004613b98565b611b0b565b6103e861064c366004613c02565b611b3e565b61040d61065f366004613b98565b611b4e565b61040d600181565b61040d611b73565b61040d611b86565b61046661068a366004613d5f565b611ba5565b61042e61069d366004613b98565b611c33565b6003546103e8906001600160a01b031681565b61040d600081565b61040d60095481565b61040d60075481565b6104666106dd366004613b98565b611c94565b6104666106f0366004613d91565b611cc7565b600654600754604080519283526020830191909152016103fc565b61046661071e366004613b98565b611e37565b61040d60065481565b61046661073a366004613b98565b611f0f565b61040d60085481565b610466610756366004613b98565b611f42565b61040d61200e565b610466610771366004613e01565b612021565b6103e8610784366004613e65565b612bc3565b61042e610797366004613b98565b612f65565b6107af670de0b6b3a76400006032613f2b565b81565b6000805b600b5481101561081357826001600160a01b0316600b82815481106107dd576107dd613f4a565b6000918252602090912001546001600160a01b031614156108015750600192915050565b8061080b81613f60565b9150506107b6565b50600092915050565b6060600d80548060200260200160405190810160405280929190818152602001828054801561087457602002820191906000526020600020905b81546001600160a01b03168152600190910190602001808311610856575b5050505050905090565b6002546001600160a01b031633146108b15760405162461bcd60e51b81526004016108a890613f7b565b60405180910390fd5b6001600160a01b0381166108d75760405162461bcd60e51b81526004016108a890613fab565b60005b600d5481101561093357816001600160a01b0316600d828154811061090157610901613f4a565b6000918252602090912001546001600160a01b0316141561092157610933565b8061092b81613f60565b9150506108da565b600d54811015610a2257600d805461094d90600190613ff4565b8154811061095d5761095d613f4a565b600091825260209091200154600d80546001600160a01b03909216918390811061098957610989613f4a565b9060005260206000200160006101000a8154816001600160a01b0302191690836001600160a01b03160217905550600d8054806109c8576109c861400b565b600082815260208120820160001990810180546001600160a01b03191690559091019091556040516001600160a01b0384169133917f63fe522dcdc5f006279afe8840a87398bb3d0dbb906b848866195859621908b39190a35b5050565b6002546001600160a01b03163314610a505760405162461bcd60e51b81526004016108a890613f7b565b6001600160a01b038116610a765760405162461bcd60e51b81526004016108a890614021565b610a7f81611263565b610afc57600c805460018101825560009182527fdf6966c971051c3d54ec59162606531493a51404a002842f56009d7e5cf4a8c70180546001600160a01b0319166001600160a01b038416908117909155604051909133917f45ccb9b9d6b112eb7a38daf6a23bda8b4c8449d5cf64a034975a5beb8cdd37b39190a35b50565b6107af6402540be400670de0b6b3a764000061406a565b600a8181548110610b2657600080fd5b6000918252602090912001546001600160a01b0316905081565b60606001805480602002602001604051908101604052809291908181526020018280548015610874576020028201919060005260206000209081546001600160a01b03168152600190910190602001808311610856575050505050905090565b6002546001600160a01b03163314610bca5760405162461bcd60e51b81526004016108a890613f7b565b6001600160a01b038116610c305760405162461bcd60e51b815260206004820152602760248201527f466163746f7279526f757465723a20496e76616c6964205f666163746f7279206044820152666164647265737360c81b60648201526084016108a8565b6003546001600160a01b031615610c7f5760405162461bcd60e51b8152602060048201526013602482015272119050d513d49648105314915051164814d155606a1b60448201526064016108a8565b600380546001600160a01b0319166001600160a01b03831690811790915560405133907f1f869f1ddaa0e2e3652252b3394c05c805f54a0d5f7fb6975f785ae4f91e587190600090a350565b6000805b600a5481101561081357826001600160a01b0316600a8281548110610cf657610cf6613f4a565b6000918252602090912001546001600160a01b03161415610d1a5750600192915050565b80610d2481613f60565b915050610ccf565b600d8181548110610b2657600080fd5b6060600c805480602002602001604051908101604052809291908181526020018280548015610874576020028201919060005260206000209081546001600160a01b03168152600190910190602001808311610856575050505050905090565b6002546001600160a01b03163314610dc65760405162461bcd60e51b81526004016108a890613f7b565b6001600160a01b038116610dec5760405162461bcd60e51b81526004016108a89061408c565b60005b600b54811015610e4857816001600160a01b0316600b8281548110610e1657610e16613f4a565b6000918252602090912001546001600160a01b03161415610e3657610e48565b80610e4081613f60565b915050610def565b600b54811015610a2257600b8054610e6290600190613ff4565b81548110610e7257610e72613f4a565b600091825260209091200154600b80546001600160a01b039092169183908110610e9e57610e9e613f4a565b9060005260206000200160006101000a8154816001600160a01b0302191690836001600160a01b03160217905550600b805480610edd57610edd61400b565b600082815260208120820160001990810180546001600160a01b03191690559091019091556040516001600160a01b0384169133917f7df5d17d768be6563796784637c80bc9204e2af0bc4ba8630f5aa2fed96ea4879190a35050565b60018181548110610b2657600080fd5b6002546001600160a01b03163314610f745760405162461bcd60e51b81526004016108a890613f7b565b6001600160a01b038116610fdd5760405162461bcd60e51b815260206004820152602a60248201527f466163746f7279526f757465723a20496e76616c6964204f6365616e20546f6b604482015269656e206164647265737360b01b60648201526084016108a8565b60005b600a5481101561103957816001600160a01b0316600a828154811061100757611007613f4a565b6000918252602090912001546001600160a01b0316141561102757611039565b8061103181613f60565b915050610fe0565b600a54811015610a2257600a805461105390600190613ff4565b8154811061106357611063613f4a565b600091825260209091200154600a80546001600160a01b03909216918390811061108f5761108f613f4a565b9060005260206000200160006101000a8154816001600160a01b0302191690836001600160a01b03160217905550600a8054806110ce576110ce61400b565b600082815260208120820160001990810180546001600160a01b03191690559091019091556040516001600160a01b0384169133917fbbe55b1ff108e23e5ff1a6f5d36946eec15ec0ca0ded2bfed4cdcf697ca904609190a35050565b6060600a805480602002602001604051908101604052809291908181526020018280548015610874576020028201919060005260206000209081546001600160a01b03168152600190910190602001808311610856575050505050905090565b6002546001600160a01b031633146111b55760405162461bcd60e51b81526004016108a890613f7b565b6001600160a01b0381166111db5760405162461bcd60e51b81526004016108a89061408c565b6111e4816107b2565b610afc57600b805460018101825560009182527f0175b7a638427703f0dbe7bb9bbf987a2551717b34e79f33b5b1008d1fa01db90180546001600160a01b0319166001600160a01b038416908117909155604051909133917fcef3ce01f85c030161b431114e41e463297b68f169c1013c526b1cbc5747e5449190a350565b6000805b600c5481101561081357826001600160a01b0316600c828154811061128e5761128e613f4a565b6000918252602090912001546001600160a01b031614156112b25750600192915050565b806112bc81613f60565b915050611267565b6060600b805480602002602001604051908101604052809291908181526020018280548015610874576020028201919060005260206000209081546001600160a01b03168152600190910190602001808311610856575050505050905090565b6002546001600160a01b0316331461134e5760405162461bcd60e51b81526004016108a890613f7b565b600581905560405181815233907f5ee73342e684c0b848562c301fa2dc6b0146b266cfa12d4219fb04b316f7a4759060200160405180910390a250565b6107af612710670de0b6b3a764000061406a565b600b8181548110610b2657600080fd5b60035460405163226e761560e01b81523360048201526000916001600160a01b03169063226e761590602401602060405180830381865afa1580156113f8573d6000803e3d6000fd5b505050506040513d601f19601f8201168201806040525081019061141c91906140e6565b6114385760405162461bcd60e51b81526004016108a890614101565b61144186611263565b6114a05760405162461bcd60e51b815260206004820152602a60248201527f464143544f525920524f555445523a20496e76616c696420466978656450726960448201526918d950dbdb9d1c9858dd60b21b60648201526084016108a8565b60405163012c327560e01b81526001600160a01b0387169063012c3275906114d4903390899089908990899060040161414c565b6020604051808303816000875af11580156114f3573d6000803e3d6000fd5b505050506040513d601f19601f8201168201806040525081019061151791906141db565b9695505050505050565b60328111156115425760405162461bcd60e51b81526004016108a8906141f4565b60005b8181101561192057600083838381811061156157611561613f4a565b6115779260206060909202019081019150613b98565b6001600160a01b0316634df947d06040518163ffffffff1660e01b8152600401602060405180830381865afa1580156115b4573d6000803e3d6000fd5b505050506040513d601f19601f820116820180604052508101906115d89190614236565b90506116018133308787878181106115f2576115f2613f4a565b90506060020160200135612fc6565b600084848481811061161557611615613f4a565b61162b9260206060909202019081019150613b98565b6040516370a0823160e01b81523060048201526001600160a01b0391909116906370a0823190602401602060405180830381865afa158015611671573d6000803e3d6000fd5b505050506040513d601f19601f8201168201806040525081019061169591906141db565b90506116f78585858181106116ac576116ac613f4a565b6116c29260206060909202019081019150613b98565b8686868181106116d4576116d4613f4a565b90506060020160200135846001600160a01b03166131149092919063ffffffff16565b600085858581811061170b5761170b613f4a565b6117219260206060909202019081019150613b98565b6001600160a01b0316638329ab3387878781811061174157611741613f4a565b9050606002016020013588888881811061175d5761175d613f4a565b905060600201604001356040518363ffffffff1660e01b815260040161178d929190918252602082015260400190565b6020604051808303816000875af11580156117ac573d6000803e3d6000fd5b505050506040513d601f19601f820116820180604052508101906117d091906141db565b90508585858181106117e4576117e4613f4a565b9050606002016040013581101561182d5760405162461bcd60e51b815260206004820152600d60248201526c04e4f5420454e4f554748204c5609c1b60448201526064016108a8565b600086868681811061184157611841613f4a565b6118579260206060909202019081019150613b98565b6040516370a0823160e01b81523060048201526001600160a01b0391909116906370a0823190602401602060405180830381865afa15801561189d573d6000803e3d6000fd5b505050506040513d601f19601f820116820180604052508101906118c191906141db565b9050611909336118d183866131ff565b8989898181106118e3576118e3613f4a565b6118f99260206060909202019081019150613b98565b6001600160a01b03169190613212565b50505050808061191890613f60565b915050611545565b505050565b6107af64e8d4a51000670de0b6b3a764000061406a565b6107af670de0b6b3a76400006064613f2b565b6119626003670de0b6b3a764000061406a565b6107af906001614253565b6002546001600160a01b031633146119975760405162461bcd60e51b81526004016108a890613f7b565b6001600160a01b0381166119bd5760405162461bcd60e51b81526004016108a890614021565b60005b600c54811015611a1957816001600160a01b0316600c82815481106119e7576119e7613f4a565b6000918252602090912001546001600160a01b03161415611a0757611a19565b80611a1181613f60565b9150506119c0565b600c54811015610a2257600c8054611a3390600190613ff4565b81548110611a4357611a43613f4a565b600091825260209091200154600c80546001600160a01b039092169183908110611a6f57611a6f613f4a565b9060005260206000200160006101000a8154816001600160a01b0302191690836001600160a01b03160217905550600c805480611aae57611aae61400b565b600082815260208120820160001990810180546001600160a01b03191690559091019091556040516001600160a01b0384169133917ff1ec0697329a2e8de8cf055335547acc40fbace8712fc77aeea1ea2afbcf7e3b9190a35050565b6002546001600160a01b03163314611b355760405162461bcd60e51b81526004016108a890613f7b565b610afc81613242565b600c8181548110610b2657600080fd5b6000611b5982610ccb565b15611b6657505060065490565b505060075490565b919050565b6107af600a670de0b6b3a764000061406a565b6001611b9b670de0b6b3a76400006002613f2b565b6107af9190613ff4565b6002546001600160a01b03163314611bcf5760405162461bcd60e51b81526004016108a890613f7b565b600684905560078390556008829055600981905560408051858152602081018590529081018390526060810182905233907fe6171cf0506862c0a0185f8c21dca979859d4eb63186eff63f1b3dd14926be7b9060800160405180910390a250505050565b6000805b60015481101561081357826001600160a01b031660018281548110611c5e57611c5e613f4a565b6000918252602090912001546001600160a01b03161415611c825750600192915050565b80611c8c81613f60565b915050611c37565b6002546001600160a01b03163314611cbe5760405162461bcd60e51b81526004016108a890613f7b565b610afc81613333565b60035460405163226e761560e01b81523360048201526001600160a01b039091169063226e761590602401602060405180830381865afa158015611d0f573d6000803e3d6000fd5b505050506040513d601f19601f82011682018060405250810190611d3391906140e6565b611d4f5760405162461bcd60e51b81526004016108a890614101565b611d5886612f65565b611db65760405162461bcd60e51b815260206004820152602960248201527f464143544f525920524f555445523a20496e76616c69642044697370656e73656044820152681c90dbdb9d1c9858dd60ba1b60648201526084016108a8565b6040516324ce291760e01b81526001600160a01b0386811660048301526024820186905260448201859052838116606483015282811660848301528716906324ce29179060a401600060405180830381600087803b158015611e1757600080fd5b505af1158015611e2b573d6000803e3d6000fd5b50505050505050505050565b6002546001600160a01b03163314611e615760405162461bcd60e51b81526004016108a890613f7b565b6001600160a01b038116611e875760405162461bcd60e51b81526004016108a890613fab565b611e9081612f65565b610afc57600d805460018101825560009182527fd7b6990105719101dabeb77144f2a3385c8033acd3af97e9423a695e81ad1eb50180546001600160a01b0319166001600160a01b038416908117909155604051909133917f78be9d87a7b2c8707b044dbf5b04c3f747b692c55ec34dcd1d7357736478789c9190a350565b6002546001600160a01b03163314611f395760405162461bcd60e51b81526004016108a890613f7b565b610afc816133bb565b6002546001600160a01b03163314611f6c5760405162461bcd60e51b81526004016108a890613f7b565b6001600160a01b038116611fc25760405162461bcd60e51b815260206004820152601860248201527f496e76616c6964206e657720726f75746572206f776e6572000000000000000060448201526064016108a8565b600280546001600160a01b0319166001600160a01b03831690811790915560405133907fc736654a613824c69968e0ec25ac1a428ccd49e15c28e97b5dfd2c6059757e2a90600090a350565b6107af6002670de0b6b3a764000061406a565b60328111156120425760405162461bcd60e51b81526004016108a8906141f4565b60005b81811015611920576000604051806060016040528085858581811061206c5761206c613f4a565b9050610140020160600160208101906120859190613b98565b6001600160a01b031681526020018585858181106120a5576120a5613f4a565b9050610140020160a00160208101906120be9190613b98565b6001600160a01b031681526020018585858181106120de576120de613f4a565b905061014002016101200160208101906120f89190613b98565b6001600160a01b03166001600160a01b031681525090506000604051806080016040528086868681811061212e5761212e613f4a565b9050610140020160800135815260200186868681811061215057612150613f4a565b9050610140020160c00135815260200186868681811061217257612172613f4a565b9050610140020160e00135815260200186868681811061219457612194613f4a565b9050610140020161010001358152509050600060038111156121b8576121b861426b565b8585858181106121ca576121ca613f4a565b9050610140020160400160208101906121e39190614281565b60038111156121f4576121f461426b565b14156123a75761224c85858581811061220f5761220f613f4a565b9050610140020160600160208101906122289190613b98565b333088888881811061223c5761223c613f4a565b9050610140020160800135612fc6565b6122d285858581811061226157612261613f4a565b90506101400201602001602081019061227a9190613b98565b86868681811061228c5761228c613f4a565b90506101400201608001358787878181106122a9576122a9613f4a565b9050610140020160600160208101906122c29190613b98565b6001600160a01b03169190613114565b60008585858181106122e6576122e6613f4a565b9050610140020160200160208101906122ff9190613b98565b6001600160a01b031663c421a3fc84846040518363ffffffff1660e01b815260040161232c9291906142a2565b60408051808303816000875af115801561234a573d6000803e3d6000fd5b505050506040513d601f19601f8201168201806040525081019061236e9190614307565b5090506123a1338288888881811061238857612388613f4a565b9050610140020160a00160208101906118f99190613b98565b50612bae565b60018585858181106123bb576123bb613f4a565b9050610140020160400160208101906123d49190614281565b60038111156123e5576123e561426b565b14156126d75760008585858181106123ff576123ff613f4a565b9050610140020160200160208101906124189190613b98565b6001600160a01b031663caa0114887878781811061243857612438613f4a565b9050610140020160600160208101906124519190613b98565b88888881811061246357612463613f4a565b9050610140020160a001602081019061247c9190613b98565b89898981811061248e5761248e613f4a565b9050610140020160c001358a8a8a8181106124ab576124ab613f4a565b6040516001600160e01b031960e089901b1681526001600160a01b039687166004820152959094166024860152506044840191909152610100610140909202010135606482015260840160a060405180830381865afa158015612512573d6000803e3d6000fd5b505050506040513d601f19601f82011682018060405250810190612536919061432b565b5092935061257692508891508790508681811061255557612555613f4a565b90506101400201606001602081019061256e9190613b98565b333084612fc6565b6125b786868681811061258b5761258b613f4a565b9050610140020160200160208101906125a49190613b98565b828888888181106122a9576122a9613f4a565b60008686868181106125cb576125cb613f4a565b9050610140020160200160208101906125e49190613b98565b6001600160a01b031663c98a59cf85856040518363ffffffff1660e01b81526004016126119291906142a2565b60408051808303816000875af115801561262f573d6000803e3d6000fd5b505050506040513d601f19601f820116820180604052508101906126539190614307565b50835190915081111561269d5760405162461bcd60e51b81526020600482015260126024820152712a27a79026a0a72c902a27a5a2a7299024a760711b60448201526064016108a8565b6126d0338888888181106126b3576126b3613f4a565b9050610140020160c0013589898981811061238857612388613f4a565b5050612bae565b60028585858181106126eb576126eb613f4a565b9050610140020160400160208101906127049190614281565b60038111156127155761271561426b565b1415612ac557600085858581811061272f5761272f613f4a565b9050610140020160200160208101906127489190613b98565b6001600160a01b0316634c87087d87878781811061276857612768613f4a565b90506101400201600001356040518263ffffffff1660e01b815260040161279191815260200190565b61018060405180830381865afa1580156127af573d6000803e3d6000fd5b505050506040513d601f19601f820116820180604052508101906127d3919061436b565b5050505050505050505091505060008686868181106127f4576127f4613f4a565b90506101400201602001602081019061280d9190613b98565b6001600160a01b031663dd1bc96a88888881811061282d5761282d613f4a565b905061014002016000013589898981811061284a5761284a613f4a565b9050610140020160c001358a8a8a81811061286757612867613f4a565b6040516001600160e01b031960e088901b16815260048101959095526024850193909352506101006101409092020101356044820152606401608060405180830381865afa1580156128bd573d6000803e3d6000fd5b505050506040513d601f19601f820116820180604052508101906128e1919061441f565b50505090506128fb87878781811061255557612555613f4a565b61293c87878781811061291057612910613f4a565b9050610140020160200160208101906129299190613b98565b828989898181106122a9576122a9613f4a565b86868681811061294e5761294e613f4a565b9050610140020160200160208101906129679190613b98565b6001600160a01b03166368c4b7e988888881811061298757612987613f4a565b90506101400201600001358989898181106129a4576129a4613f4a565b9050610140020160c001358a8a8a8181106129c1576129c1613f4a565b90506101400201608001358b8b8b8181106129de576129de613f4a565b905061014002016101200160208101906129f89190613b98565b8c8c8c818110612a0a57612a0a613f4a565b6040516001600160e01b031960e08a901b168152600481019790975260248701959095525060448501929092526001600160a01b03166064840152610100610140909202010135608482015260a401600060405180830381600087803b158015612a7357600080fd5b505af1158015612a87573d6000803e3d6000fd5b505050506126d033888888818110612aa157612aa1613f4a565b9050610140020160c00135846001600160a01b03166132129092919063ffffffff16565b848484818110612ad757612ad7613f4a565b905061014002016020016020810190612af09190613b98565b6001600160a01b0316631d746d83868686818110612b1057612b10613f4a565b9050610140020160a0016020810190612b299190613b98565b878787818110612b3b57612b3b613f4a565b60405160e086901b6001600160e01b03191681526001600160a01b03949094166004850152610140029190910160c00135602483015250336044820152606401600060405180830381600087803b158015612b9557600080fd5b505af1158015612ba9573d6000803e3d6000fd5b505050505b50508080612bbb90613f60565b915050612045565b60035460405163226e761560e01b81523360048201526000916001600160a01b03169063226e761590602401602060405180830381865afa158015612c0c573d6000803e3d6000fd5b505050506040513d601f19601f82011682018060405250810190612c3091906140e6565b612c4c5760405162461bcd60e51b81526004016108a890614101565b612c7783836000818110612c6257612c62613f4a565b90506020020160208101906104299190613b98565b612cce5760405162461bcd60e51b815260206004820152602260248201527f464143544f525920524f555445523a20696e76616c6964207373436f6e74726160448201526118dd60f21b60648201526084016108a8565b600087876001818110612ce357612ce3613f4a565b9050602002013511612d285760405162461bcd60e51b815260206004820152600e60248201526d57726f6e6720646563696d616c7360901b60448201526064016108a8565b612daa612d3b60408a0160208b01613b98565b84846002818110612d4e57612d4e613f4a565b9050602002016020810190612d639190613b98565b85856000818110612d7657612d76613f4a565b9050602002016020810190612d8b9190613b98565b8a8a6004818110612d9e57612d9e613f4a565b90506020020135612fc6565b604080518082018252600091612e6d91908b90600290839083908082843760009201919091525050604080516020808d0282810182019093528c82529092508c918c9182919085019084908082843760009201919091525050604080516020808d0282810182019093528c82529093508c92508b91829185019084908082843760009201919091525050604080516020808c0282810182019093528b82529093508b92508a91829185019084908082843760009201919091525061352a92505050565b90506001600160a01b038116612ebd5760405162461bcd60e51b8152602060048201526015602482015274119052531151081513c81111541313d6481413d3d3605a1b60448201526064016108a8565b612ed06104ce60408b0160208c01613b98565b15612f1957604051600181526001600160a01b038216907f90279d7790471e260411db76079630dfaa838fc987d29ae7aa7dc1bcd773ef2e9060200160405180910390a2612f59565b604051600081526001600160a01b038216907f90279d7790471e260411db76079630dfaa838fc987d29ae7aa7dc1bcd773ef2e9060200160405180910390a25b98975050505050505050565b6000805b600d5481101561081357826001600160a01b0316600d8281548110612f9057612f90613f4a565b6000918252602090912001546001600160a01b03161415612fb45750600192915050565b80612fbe81613f60565b915050612f69565b6040516370a0823160e01b81526001600160a01b038381166004830152600091908616906370a0823190602401602060405180830381865afa158015613010573d6000803e3d6000fd5b505050506040513d601f19601f8201168201806040525081019061303491906141db565b905061304b6001600160a01b038616858585613865565b613055818361389d565b6040516370a0823160e01b81526001600160a01b0385811660048301528716906370a0823190602401602060405180830381865afa15801561309b573d6000803e3d6000fd5b505050506040513d601f19601f820116820180604052508101906130bf91906141db565b101561310d5760405162461bcd60e51b815260206004820152601a60248201527f5472616e7366657220616d6f756e7420697320746f6f206c6f7700000000000060448201526064016108a8565b5050505050565b604051636eb1769f60e11b81523060048201526001600160a01b038381166024830152600091839186169063dd62ed3e90604401602060405180830381865afa158015613165573d6000803e3d6000fd5b505050506040513d601f19601f8201168201806040525081019061318991906141db565b6131939190614253565b6040516001600160a01b0385166024820152604481018290529091506131f990859063095ea7b360e01b906064015b60408051601f198184030181529190526020810180516001600160e01b03166001600160e01b0319909316929092179091526138a9565b50505050565b600061320b8284613ff4565b9392505050565b6040516001600160a01b03831660248201526044810182905261192090849063a9059cbb60e01b906064016131c2565b6001600160a01b0381166132ac5760405162461bcd60e51b815260206004820152602b60248201527f466163746f7279526f757465723a20496e76616c696420706f6f6c54656d706c60448201526a617465206164647265737360a81b60648201526084016108a8565b6132b581611c33565b610afc5760018054808201825560009182527fb10e2d527612073b26eecdfd717e6a320cf44b4afac2b0732d9fcbe2b7fa0cf60180546001600160a01b0319166001600160a01b038416908117909155604051909133917fc3674c32cbec94fe266aab7ef71f65b9bf77e1ed501d4f2bece8752f5352e9ac9190a350565b61333c81610ccb565b610afc57600a805460018101825560009182527fc65a7bb8d6351c1cf70c95a316cc6a92839c986682d98bc35f958f4883f9d2a80180546001600160a01b0319166001600160a01b038416908117909155604051909133917fdffbd9ded1c09446f09377de547142dcce7dc541c8b0b028142b1eba7026b9e79190a350565b60005b60015481101561341757816001600160a01b0316600182815481106133e5576133e5613f4a565b6000918252602090912001546001600160a01b0316141561340557613417565b8061340f81613f60565b9150506133be565b600154811015610a2257805b600180546134319190613ff4565b8110156134bb5760016134448282614253565b8154811061345457613454613f4a565b600091825260209091200154600180546001600160a01b03909216918390811061348057613480613f4a565b600091825260209091200180546001600160a01b0319166001600160a01b0392909216919091179055806134b381613f60565b915050613423565b5060018054806134cd576134cd61400b565b600082815260208120820160001990810180546001600160a01b03191690559091019091556040516001600160a01b0384169133917fc73fd5d40669565e257cbcd153784617ef26acfcc9fead31e68c0dce3ce82fb29190a35050565b600061354f8260058151811061354257613542613f4a565b6020026020010151611c33565b61359b5760405162461bcd60e51b815260206004820152601d60248201527f42466163746f72793a2057726f6e6720506f6f6c2054656d706c61746500000060448201526064016108a8565b60006040518060400160405280846004815181106135bb576135bb613f4a565b6020908102919091018101516001600160a01b03908116835260005416910152835190915061360490849060059081106135f7576135f7613f4a565b602002602001015161397b565b91506001600160a01b0382166136685760405162461bcd60e51b8152602060048201526024808201527f42466163746f72793a20696e76616c69642062706f6f6c207a65726f206164646044820152637265737360e01b60648201526084016108a8565b6000829050806001600160a01b031663c070a6d88560008151811061368f5761368f613f4a565b602002602001015130886000808d896040518863ffffffff1660e01b81526004016136c097969594939291906144bc565b6020604051808303816000875af11580156136df573d6000803e3d6000fd5b505050506040513d601f19601f8201168201806040525081019061370391906140e6565b6137465760405162461bcd60e51b815260206004820152601460248201527311549497d253925512505312569157d09413d3d360621b60448201526064016108a8565b8360008151811061375957613759613f4a565b60200260200101516001600160a01b03166383b87e5a8860006002811061378257613782613f4a565b6020020151896001602002015186886003815181106137a3576137a3613f4a565b60200260200101518b6040518663ffffffff1660e01b81526004016137cc959493929190614516565b6020604051808303816000875af11580156137eb573d6000803e3d6000fd5b505050506040513d601f19601f8201168201806040525081019061380f91906140e6565b61385b5760405162461bcd60e51b815260206004820152601a60248201527f4552525f494e495449414c495a455f534944455354414b494e4700000000000060448201526064016108a8565b5050949350505050565b6040516001600160a01b03808516602483015283166044820152606481018290526131f99085906323b872dd60e01b906084016131c2565b600061320b8284614253565b60006138fe826040518060400160405280602081526020017f5361666545524332303a206c6f772d6c6576656c2063616c6c206661696c6564815250856001600160a01b0316613a0b9092919063ffffffff16565b805190915015611920578080602001905181019061391c91906140e6565b6119205760405162461bcd60e51b815260206004820152602a60248201527f5361666545524332303a204552433230206f7065726174696f6e20646964206e6044820152691bdd081cdd58d8d9595960b21b60648201526084016108a8565b6000808260601b9050604051733d602d80600a3d3981f3363d3d373d3d3d363d7360601b81528160148201526e5af43d82803e903d91602b57fd5bf360881b60288201526037816000f06040516001600160a01b03821681529093507f117c72e6c25f0a072e36e148df71468ce2f3dbe7defec5b2c257a6e3eb65278c915060200160405180910390a150919050565b6060613a1a8484600085613a22565b949350505050565b606082471015613a835760405162461bcd60e51b815260206004820152602660248201527f416464726573733a20696e73756666696369656e742062616c616e636520666f6044820152651c8818d85b1b60d21b60648201526084016108a8565b843b613ad15760405162461bcd60e51b815260206004820152601d60248201527f416464726573733a2063616c6c20746f206e6f6e2d636f6e747261637400000060448201526064016108a8565b600080866001600160a01b03168587604051613aed919061457e565b60006040518083038185875af1925050503d8060008114613b2a576040519150601f19603f3d011682016040523d82523d6000602084013e613b2f565b606091505b5091509150613b3f828286613b4a565b979650505050505050565b60608315613b5957508161320b565b825115613b695782518084602001fd5b8160405162461bcd60e51b81526004016108a8919061459a565b6001600160a01b0381168114610afc57600080fd5b600060208284031215613baa57600080fd5b813561320b81613b83565b6020808252825182820181905260009190848201906040850190845b81811015613bf65783516001600160a01b031683529284019291840191600101613bd1565b50909695505050505050565b600060208284031215613c1457600080fd5b5035919050565b60008083601f840112613c2d57600080fd5b50813567ffffffffffffffff811115613c4557600080fd5b6020830191508360208260051b8501011115613c6057600080fd5b9250929050565b600080600080600060608688031215613c7f57600080fd5b8535613c8a81613b83565b9450602086013567ffffffffffffffff80821115613ca757600080fd5b613cb389838a01613c1b565b90965094506040880135915080821115613ccc57600080fd5b50613cd988828901613c1b565b969995985093965092949392505050565b60008060208385031215613cfd57600080fd5b823567ffffffffffffffff80821115613d1557600080fd5b818501915085601f830112613d2957600080fd5b813581811115613d3857600080fd5b866020606083028501011115613d4d57600080fd5b60209290920196919550909350505050565b60008060008060808587031215613d7557600080fd5b5050823594602084013594506040840135936060013592509050565b60008060008060008060c08789031215613daa57600080fd5b8635613db581613b83565b95506020870135613dc581613b83565b945060408701359350606087013592506080870135613de381613b83565b915060a0870135613df381613b83565b809150509295509295509295565b60008060208385031215613e1457600080fd5b823567ffffffffffffffff80821115613e2c57600080fd5b818501915085601f830112613e4057600080fd5b813581811115613e4f57600080fd5b86602061014083028501011115613d4d57600080fd5b600080600080600080600060a0888a031215613e8057600080fd5b6040880189811115613e9157600080fd5b8897503567ffffffffffffffff80821115613eab57600080fd5b613eb78b838c01613c1b565b909850965060608a0135915080821115613ed057600080fd5b613edc8b838c01613c1b565b909650945060808a0135915080821115613ef557600080fd5b50613f028a828b01613c1b565b989b979a50959850939692959293505050565b634e487b7160e01b600052601160045260246000fd5b6000816000190483118215151615613f4557613f45613f15565b500290565b634e487b7160e01b600052603260045260246000fd5b6000600019821415613f7457613f74613f15565b5060010190565b60208082526016908201527527b1b2b0b72937baba32b91d102727aa1027aba722a960511b604082015260600190565b60208082526029908201527f466163746f7279526f757465723a20496e76616c6964205f64697370656e736560408201526872206164647265737360b81b606082015260800190565b60008282101561400657614006613f15565b500390565b634e487b7160e01b600052603160045260246000fd5b60208082526029908201527f466163746f7279526f757465723a20496e76616c6964205f666978656452617460408201526865206164647265737360b81b606082015260800190565b60008261408757634e487b7160e01b600052601260045260246000fd5b500490565b6020808252602a908201527f466163746f7279526f757465723a20496e76616c6964205f7373436f6e7472616040820152696374206164647265737360b01b606082015260800190565b80518015158114611b6e57600080fd5b6000602082840312156140f857600080fd5b61320b826140d6565b6020808252602b908201527f464143544f525920524f555445523a204e4f54204f524947494e414c2045524360408201526a32302054454d504c41544560a81b606082015260800190565b6001600160a01b03868116825260606020808401829052908301869052600091879160808501845b8981101561419b57843561418781613b83565b841682529382019390820190600101614174565b5085810360408701528681526001600160fb1b038711156141bb57600080fd5b8660051b9350838883830137600093010191825250979650505050505050565b6000602082840312156141ed57600080fd5b5051919050565b60208082526022908201527f466163746f7279526f757465723a20546f6f204d616e79204f7065726174696f6040820152616e7360f01b606082015260800190565b60006020828403121561424857600080fd5b815161320b81613b83565b6000821982111561426657614266613f15565b500190565b634e487b7160e01b600052602160045260246000fd5b60006020828403121561429357600080fd5b81356004811061320b57600080fd5b60e08101818460005b60038110156142d35781516001600160a01b03168352602092830192909101906001016142ab565b505050606082018360005b60048110156142fd5781518352602092830192909101906001016142de565b5050509392505050565b6000806040838503121561431a57600080fd5b505080516020909101519092909150565b600080600080600060a0868803121561434357600080fd5b5050835160208501516040860151606087015160809097015192989197509594509092509050565b6000806000806000806000806000806000806101808d8f03121561438e57600080fd5b8c5161439981613b83565b60208e0151909c506143aa81613b83565b60408e015160608f0151919c509a506143c281613b83565b60808e015160a08f0151919a50985096506143df60c08e016140d6565b955060e08d015194506101008d015193506101208d015192506101408d0151915061440d6101608e016140d6565b90509295989b509295989b509295989b565b6000806000806080858703121561443557600080fd5b505082516020840151604085015160609095015191969095509092509050565b600081518084526020808501945080840160005b8381101561448557815187529582019590820190600101614469565b509495945050505050565b8060005b60028110156131f95781516001600160a01b0316845260209384019390910190600101614494565b6001600160a01b03888116825287166020820152610120604082018190526000906144e983820189614455565b9150508515156060830152841515608083015261450960a0830185614490565b612f5960e0830184614490565b6001600160a01b038681168252858116602083015284811660408301528316606082015260a060808201819052600090613b3f90830184614455565b60005b8381101561456d578181015183820152602001614555565b838111156131f95750506000910152565b60008251614590818460208701614552565b9190910192915050565b60208152600082518060208401526145b9816040850160208701614552565b601f01601f1916919091016040019291505056fea2646970667358221220d30eb6f10ed28446b588c1580e75eed331deca50df96708bd5d2f0df41290b2364736f6c634300080c0033",
  "linkReferences": {},
  "deployedLinkReferences": {}
}