{
  "_format": "hh-sol-artifact-1",
  "contractName": "FactoryRouter",
  "sourceName": "contracts/pools/FactoryRouter.sol",
  "abi": [
    {
      "inputs": [
        {
          "internalType": "address",
          "name": "_routerOwner",
          "type": "address"
        },
        {
          "internalType": "address",
          "name": "_oceanToken",
          "type": "address"
        },
        {
          "internalType": "address",
          "name": "_bpoolTemplate",
          "type": "address"
        },
        {
          "internalType": "address",
          "name": "_opfCollector",
          "type": "address"
        },
        {
          "internalType": "address[]",
          "name": "_preCreatedPools",
          "type": "address[]"
        }
      ],
      "stateMutability": "nonpayable",
      "type": "constructor"
    },
    {
      "anonymous": false,
      "inputs": [
        {
          "indexed": true,
          "internalType": "address",
          "name": "newBPoolAddress",
          "type": "address"
        },
        {
          "indexed": true,
          "internalType": "address",
          "name": "registeredBy",
          "type": "address"
        },
        {
          "indexed": true,
          "internalType": "address",
          "name": "datatokenAddress",
          "type": "address"
        },
        {
          "indexed": false,
          "internalType": "address",
          "name": "baseTokenAddress",
          "type": "address"
        },
        {
          "indexed": false,
          "internalType": "address",
          "name": "bpoolTemplateAddress",
          "type": "address"
        },
        {
          "indexed": false,
          "internalType": "address",
          "name": "ssAddress",
          "type": "address"
        }
      ],
      "name": "BPoolCreated",
      "type": "event"
    },
    {
      "anonymous": false,
      "inputs": [
        {
          "indexed": true,
          "internalType": "address",
          "name": "caller",
          "type": "address"
        },
        {
          "indexed": true,
          "internalType": "address",
          "name": "contractAddress",
          "type": "address"
        }
      ],
      "name": "DispenserContractAdded",
      "type": "event"
    },
    {
      "anonymous": false,
      "inputs": [
        {
          "indexed": true,
          "internalType": "address",
          "name": "caller",
          "type": "address"
        },
        {
          "indexed": true,
          "internalType": "address",
          "name": "contractAddress",
          "type": "address"
        }
      ],
      "name": "DispenserContractRemoved",
      "type": "event"
    },
    {
      "anonymous": false,
      "inputs": [
        {
          "indexed": true,
          "internalType": "address",
          "name": "caller",
          "type": "address"
        },
        {
          "indexed": true,
          "internalType": "address",
          "name": "contractAddress",
          "type": "address"
        }
      ],
      "name": "FactoryContractChanged",
      "type": "event"
    },
    {
      "anonymous": false,
      "inputs": [
        {
          "indexed": true,
          "internalType": "address",
          "name": "caller",
          "type": "address"
        },
        {
          "indexed": true,
          "internalType": "address",
          "name": "contractAddress",
          "type": "address"
        }
      ],
      "name": "FixedRateContractAdded",
      "type": "event"
    },
    {
      "anonymous": false,
      "inputs": [
        {
          "indexed": true,
          "internalType": "address",
          "name": "caller",
          "type": "address"
        },
        {
          "indexed": true,
          "internalType": "address",
          "name": "contractAddress",
          "type": "address"
        }
      ],
      "name": "FixedRateContractRemoved",
      "type": "event"
    },
    {
      "anonymous": false,
      "inputs": [
        {
          "indexed": false,
          "internalType": "address",
          "name": "instance",
          "type": "address"
        }
      ],
      "name": "InstanceDeployed",
      "type": "event"
    },
    {
      "anonymous": false,
      "inputs": [
        {
          "indexed": true,
          "internalType": "address",
          "name": "poolAddress",
          "type": "address"
        },
        {
          "indexed": false,
          "internalType": "bool",
          "name": "isOcean",
          "type": "bool"
        }
      ],
      "name": "NewPool",
      "type": "event"
    },
    {
      "anonymous": false,
      "inputs": [
        {
          "indexed": true,
          "internalType": "address",
          "name": "caller",
          "type": "address"
        },
        {
          "indexed": false,
          "internalType": "uint256",
          "name": "newSwapOceanFee",
          "type": "uint256"
        },
        {
          "indexed": false,
          "internalType": "uint256",
          "name": "newSwapNonOceanFee",
          "type": "uint256"
        }
      ],
      "name": "OPFFeeChanged",
      "type": "event"
    },
    {
      "anonymous": false,
      "inputs": [
        {
          "indexed": true,
          "internalType": "address",
          "name": "caller",
          "type": "address"
        },
        {
          "indexed": true,
          "internalType": "address",
          "name": "contractAddress",
          "type": "address"
        }
      ],
      "name": "PoolTemplateAdded",
      "type": "event"
    },
    {
      "anonymous": false,
      "inputs": [
        {
          "indexed": true,
          "internalType": "address",
          "name": "caller",
          "type": "address"
        },
        {
          "indexed": true,
          "internalType": "address",
          "name": "contractAddress",
          "type": "address"
        }
      ],
      "name": "PoolTemplateRemoved",
      "type": "event"
    },
    {
      "anonymous": false,
      "inputs": [
        {
          "indexed": true,
          "internalType": "address",
          "name": "caller",
          "type": "address"
        },
        {
          "indexed": true,
          "internalType": "address",
          "name": "newRouter",
          "type": "address"
        }
      ],
      "name": "RouterChanged",
      "type": "event"
    },
    {
      "anonymous": false,
      "inputs": [
        {
          "indexed": true,
          "internalType": "address",
          "name": "caller",
          "type": "address"
        },
        {
          "indexed": true,
          "internalType": "address",
          "name": "contractAddress",
          "type": "address"
        }
      ],
      "name": "SSContractAdded",
      "type": "event"
    },
    {
      "anonymous": false,
      "inputs": [
        {
          "indexed": true,
          "internalType": "address",
          "name": "caller",
          "type": "address"
        },
        {
          "indexed": true,
          "internalType": "address",
          "name": "contractAddress",
          "type": "address"
        }
      ],
      "name": "SSContractRemoved",
      "type": "event"
    },
    {
      "anonymous": false,
      "inputs": [
        {
          "indexed": true,
          "internalType": "address",
          "name": "caller",
          "type": "address"
        },
        {
          "indexed": true,
          "internalType": "address",
          "name": "token",
          "type": "address"
        }
      ],
      "name": "TokenAdded",
      "type": "event"
    },
    {
      "anonymous": false,
      "inputs": [
        {
          "indexed": true,
          "internalType": "address",
          "name": "caller",
          "type": "address"
        },
        {
          "indexed": true,
          "internalType": "address",
          "name": "token",
          "type": "address"
        }
      ],
      "name": "TokenRemoved",
      "type": "event"
    },
    {
      "anonymous": false,
      "inputs": [
        {
          "indexed": true,
          "internalType": "address",
          "name": "caller",
          "type": "address"
        },
        {
          "indexed": false,
          "internalType": "uint256",
          "name": "minVestingPeriodInBlocks",
          "type": "uint256"
        }
      ],
      "name": "VestingPeriodChanges",
      "type": "event"
    },
    {
      "inputs": [],
      "name": "BONE",
      "outputs": [
        {
          "internalType": "uint256",
          "name": "",
          "type": "uint256"
        }
      ],
      "stateMutability": "view",
      "type": "function"
    },
    {
      "inputs": [],
      "name": "BPOW_PRECISION",
      "outputs": [
        {
          "internalType": "uint256",
          "name": "",
          "type": "uint256"
        }
      ],
      "stateMutability": "view",
      "type": "function"
    },
    {
      "inputs": [],
      "name": "EXIT_FEE",
      "outputs": [
        {
          "internalType": "uint256",
          "name": "",
          "type": "uint256"
        }
      ],
      "stateMutability": "view",
      "type": "function"
    },
    {
      "inputs": [],
      "name": "INIT_POOL_SUPPLY",
      "outputs": [
        {
          "internalType": "uint256",
          "name": "",
          "type": "uint256"
        }
      ],
      "stateMutability": "view",
      "type": "function"
    },
    {
      "inputs": [],
      "name": "MAX_BOUND_TOKENS",
      "outputs": [
        {
          "internalType": "uint256",
          "name": "",
          "type": "uint256"
        }
      ],
      "stateMutability": "view",
      "type": "function"
    },
    {
      "inputs": [],
      "name": "MAX_BPOW_BASE",
      "outputs": [
        {
          "internalType": "uint256",
          "name": "",
          "type": "uint256"
        }
      ],
      "stateMutability": "view",
      "type": "function"
    },
    {
      "inputs": [],
      "name": "MAX_FEE",
      "outputs": [
        {
          "internalType": "uint256",
          "name": "",
          "type": "uint256"
        }
      ],
      "stateMutability": "view",
      "type": "function"
    },
    {
      "inputs": [],
      "name": "MAX_IN_RATIO",
      "outputs": [
        {
          "internalType": "uint256",
          "name": "",
          "type": "uint256"
        }
      ],
      "stateMutability": "view",
      "type": "function"
    },
    {
      "inputs": [],
      "name": "MAX_OUT_RATIO",
      "outputs": [
        {
          "internalType": "uint256",
          "name": "",
          "type": "uint256"
        }
      ],
      "stateMutability": "view",
      "type": "function"
    },
    {
      "inputs": [],
      "name": "MAX_TOTAL_WEIGHT",
      "outputs": [
        {
          "internalType": "uint256",
          "name": "",
          "type": "uint256"
        }
      ],
      "stateMutability": "view",
      "type": "function"
    },
    {
      "inputs": [],
      "name": "MAX_WEIGHT",
      "outputs": [
        {
          "internalType": "uint256",
          "name": "",
          "type": "uint256"
        }
      ],
      "stateMutability": "view",
      "type": "function"
    },
    {
      "inputs": [],
      "name": "MIN_BALANCE",
      "outputs": [
        {
          "internalType": "uint256",
          "name": "",
          "type": "uint256"
        }
      ],
      "stateMutability": "view",
      "type": "function"
    },
    {
      "inputs": [],
      "name": "MIN_BOUND_TOKENS",
      "outputs": [
        {
          "internalType": "uint256",
          "name": "",
          "type": "uint256"
        }
      ],
      "stateMutability": "view",
      "type": "function"
    },
    {
      "inputs": [],
      "name": "MIN_BPOW_BASE",
      "outputs": [
        {
          "internalType": "uint256",
          "name": "",
          "type": "uint256"
        }
      ],
      "stateMutability": "view",
      "type": "function"
    },
    {
      "inputs": [],
      "name": "MIN_FEE",
      "outputs": [
        {
          "internalType": "uint256",
          "name": "",
          "type": "uint256"
        }
      ],
      "stateMutability": "view",
      "type": "function"
    },
    {
      "inputs": [],
      "name": "MIN_WEIGHT",
      "outputs": [
        {
          "internalType": "uint256",
          "name": "",
          "type": "uint256"
        }
      ],
      "stateMutability": "view",
      "type": "function"
    },
    {
      "inputs": [
        {
          "internalType": "address",
          "name": "_dispenser",
          "type": "address"
        }
      ],
      "name": "addDispenserContract",
      "outputs": [],
      "stateMutability": "nonpayable",
      "type": "function"
    },
    {
      "inputs": [
        {
          "internalType": "address",
          "name": "_factory",
          "type": "address"
        }
      ],
      "name": "addFactory",
      "outputs": [],
      "stateMutability": "nonpayable",
      "type": "function"
    },
    {
      "inputs": [
        {
          "internalType": "address",
          "name": "_fixedRate",
          "type": "address"
        }
      ],
      "name": "addFixedRateContract",
      "outputs": [],
      "stateMutability": "nonpayable",
      "type": "function"
    },
    {
      "inputs": [
        {
          "internalType": "address",
          "name": "oceanTokenAddress",
          "type": "address"
        }
      ],
      "name": "addOceanToken",
      "outputs": [],
      "stateMutability": "nonpayable",
      "type": "function"
    },
    {
      "inputs": [
        {
          "internalType": "address",
          "name": "poolTemplate",
          "type": "address"
        }
      ],
      "name": "addPoolTemplate",
      "outputs": [],
      "stateMutability": "nonpayable",
      "type": "function"
    },
    {
      "inputs": [
        {
          "internalType": "address",
          "name": "_ssContract",
          "type": "address"
        }
      ],
      "name": "addSSContract",
      "outputs": [],
      "stateMutability": "nonpayable",
      "type": "function"
    },
    {
      "inputs": [
        {
          "components": [
            {
              "internalType": "bytes32",
              "name": "exchangeIds",
              "type": "bytes32"
            },
            {
              "internalType": "address",
              "name": "source",
              "type": "address"
            },
            {
              "internalType": "enum FactoryRouter.operationType",
              "name": "operation",
              "type": "uint8"
            },
            {
              "internalType": "address",
              "name": "tokenIn",
              "type": "address"
            },
            {
              "internalType": "uint256",
              "name": "amountsIn",
              "type": "uint256"
            },
            {
              "internalType": "address",
              "name": "tokenOut",
              "type": "address"
            },
            {
              "internalType": "uint256",
              "name": "amountsOut",
              "type": "uint256"
            },
            {
              "internalType": "uint256",
              "name": "maxPrice",
              "type": "uint256"
            },
            {
              "internalType": "uint256",
              "name": "swapMarketFee",
              "type": "uint256"
            },
            {
              "internalType": "address",
              "name": "marketFeeAddress",
              "type": "address"
            }
          ],
          "internalType": "struct FactoryRouter.Operations[]",
          "name": "_operations",
          "type": "tuple[]"
        }
      ],
      "name": "buyDTBatch",
      "outputs": [],
      "stateMutability": "nonpayable",
      "type": "function"
    },
    {
      "inputs": [
        {
          "internalType": "address",
          "name": "_routerOwner",
          "type": "address"
        }
      ],
      "name": "changeRouterOwner",
      "outputs": [],
      "stateMutability": "nonpayable",
      "type": "function"
    },
    {
      "inputs": [
        {
          "internalType": "address",
          "name": "_dispenser",
          "type": "address"
        },
        {
          "internalType": "address",
          "name": "datatoken",
          "type": "address"
        },
        {
          "internalType": "uint256",
          "name": "maxTokens",
          "type": "uint256"
        },
        {
          "internalType": "uint256",
          "name": "maxBalance",
          "type": "uint256"
        },
        {
          "internalType": "address",
          "name": "owner",
          "type": "address"
        },
        {
          "internalType": "address",
          "name": "allowedSwapper",
          "type": "address"
        }
      ],
      "name": "deployDispenser",
      "outputs": [],
      "stateMutability": "nonpayable",
      "type": "function"
    },
    {
      "inputs": [
        {
          "internalType": "address",
          "name": "fixedPriceAddress",
          "type": "address"
        },
        {
          "internalType": "address[]",
          "name": "addresses",
          "type": "address[]"
        },
        {
          "internalType": "uint256[]",
          "name": "uints",
          "type": "uint256[]"
        }
      ],
      "name": "deployFixedRate",
      "outputs": [
        {
          "internalType": "bytes32",
          "name": "exchangeId",
          "type": "bytes32"
        }
      ],
      "stateMutability": "nonpayable",
      "type": "function"
    },
    {
      "inputs": [
        {
          "internalType": "address[2]",
          "name": "tokens",
          "type": "address[2]"
        },
        {
          "internalType": "uint256[]",
          "name": "ssParams",
          "type": "uint256[]"
        },
        {
          "internalType": "uint256[]",
          "name": "swapFees",
          "type": "uint256[]"
        },
        {
          "internalType": "address[]",
          "name": "addresses",
          "type": "address[]"
        }
      ],
      "name": "deployPool",
      "outputs": [
        {
          "internalType": "address",
          "name": "",
          "type": "address"
        }
      ],
      "stateMutability": "nonpayable",
      "type": "function"
    },
    {
      "inputs": [
        {
          "internalType": "uint256",
          "name": "",
          "type": "uint256"
        }
      ],
      "name": "dispensers",
      "outputs": [
        {
          "internalType": "address",
          "name": "",
          "type": "address"
        }
      ],
      "stateMutability": "view",
      "type": "function"
    },
    {
      "inputs": [],
      "name": "factory",
      "outputs": [
        {
          "internalType": "address",
          "name": "",
          "type": "address"
        }
      ],
      "stateMutability": "view",
      "type": "function"
    },
    {
      "inputs": [],
      "name": "fixedRate",
      "outputs": [
        {
          "internalType": "address",
          "name": "",
          "type": "address"
        }
      ],
      "stateMutability": "view",
      "type": "function"
    },
    {
      "inputs": [
        {
          "internalType": "uint256",
          "name": "",
          "type": "uint256"
        }
      ],
      "name": "fixedrates",
      "outputs": [
        {
          "internalType": "address",
          "name": "",
          "type": "address"
        }
      ],
      "stateMutability": "view",
      "type": "function"
    },
    {
      "inputs": [],
      "name": "getDispensersContracts",
      "outputs": [
        {
          "internalType": "address[]",
          "name": "",
          "type": "address[]"
        }
      ],
      "stateMutability": "view",
      "type": "function"
    },
    {
      "inputs": [],
      "name": "getFixedRatesContracts",
      "outputs": [
        {
          "internalType": "address[]",
          "name": "",
          "type": "address[]"
        }
      ],
      "stateMutability": "view",
      "type": "function"
    },
    {
      "inputs": [],
      "name": "getMinVestingPeriod",
      "outputs": [
        {
          "internalType": "uint256",
          "name": "",
          "type": "uint256"
        }
      ],
      "stateMutability": "view",
      "type": "function"
    },
    {
      "inputs": [
        {
          "internalType": "address",
          "name": "baseToken",
          "type": "address"
        }
      ],
      "name": "getOPFFee",
      "outputs": [
        {
          "internalType": "uint256",
          "name": "",
          "type": "uint256"
        }
      ],
      "stateMutability": "view",
      "type": "function"
    },
    {
      "inputs": [],
      "name": "getOPFFees",
      "outputs": [
        {
          "internalType": "uint256",
          "name": "",
          "type": "uint256"
        },
        {
          "internalType": "uint256",
          "name": "",
          "type": "uint256"
        }
      ],
      "stateMutability": "view",
      "type": "function"
    },
    {
      "inputs": [],
      "name": "getOceanTokens",
      "outputs": [
        {
          "internalType": "address[]",
          "name": "",
          "type": "address[]"
        }
      ],
      "stateMutability": "view",
      "type": "function"
    },
    {
      "inputs": [],
      "name": "getPoolTemplates",
      "outputs": [
        {
          "internalType": "address[]",
          "name": "",
          "type": "address[]"
        }
      ],
      "stateMutability": "view",
      "type": "function"
    },
    {
      "inputs": [],
      "name": "getSSContracts",
      "outputs": [
        {
          "internalType": "address[]",
          "name": "",
          "type": "address[]"
        }
      ],
      "stateMutability": "view",
      "type": "function"
    },
    {
      "inputs": [
        {
          "internalType": "address",
          "name": "_dispenser",
          "type": "address"
        }
      ],
      "name": "isDispenserContract",
      "outputs": [
        {
          "internalType": "bool",
          "name": "",
          "type": "bool"
        }
      ],
      "stateMutability": "view",
      "type": "function"
    },
    {
      "inputs": [
        {
          "internalType": "address",
          "name": "_fixedRate",
          "type": "address"
        }
      ],
      "name": "isFixedRateContract",
      "outputs": [
        {
          "internalType": "bool",
          "name": "",
          "type": "bool"
        }
      ],
      "stateMutability": "view",
      "type": "function"
    },
    {
      "inputs": [
        {
          "internalType": "address",
          "name": "oceanTokenAddress",
          "type": "address"
        }
      ],
      "name": "isOceanToken",
      "outputs": [
        {
          "internalType": "bool",
          "name": "",
          "type": "bool"
        }
      ],
      "stateMutability": "view",
      "type": "function"
    },
    {
      "inputs": [
        {
          "internalType": "address",
          "name": "poolTemplate",
          "type": "address"
        }
      ],
      "name": "isPoolTemplate",
      "outputs": [
        {
          "internalType": "bool",
          "name": "",
          "type": "bool"
        }
      ],
      "stateMutability": "view",
      "type": "function"
    },
    {
      "inputs": [
        {
          "internalType": "address",
          "name": "_ssContract",
          "type": "address"
        }
      ],
      "name": "isSSContract",
      "outputs": [
        {
          "internalType": "bool",
          "name": "",
          "type": "bool"
        }
      ],
      "stateMutability": "view",
      "type": "function"
    },
    {
      "inputs": [],
      "name": "minVestingPeriodInBlocks",
      "outputs": [
        {
          "internalType": "uint256",
          "name": "",
          "type": "uint256"
        }
      ],
      "stateMutability": "view",
      "type": "function"
    },
    {
      "inputs": [
        {
          "internalType": "uint256",
          "name": "",
          "type": "uint256"
        }
      ],
      "name": "oceanTokens",
      "outputs": [
        {
          "internalType": "address",
          "name": "",
          "type": "address"
        }
      ],
      "stateMutability": "view",
      "type": "function"
    },
    {
      "inputs": [],
      "name": "opfCollector",
      "outputs": [
        {
          "internalType": "address",
          "name": "",
          "type": "address"
        }
      ],
      "stateMutability": "view",
      "type": "function"
    },
    {
      "inputs": [
        {
          "internalType": "uint256",
          "name": "",
          "type": "uint256"
        }
      ],
      "name": "poolTemplates",
      "outputs": [
        {
          "internalType": "address",
          "name": "",
          "type": "address"
        }
      ],
      "stateMutability": "view",
      "type": "function"
    },
    {
      "inputs": [
        {
          "internalType": "address",
          "name": "_dispenser",
          "type": "address"
        }
      ],
      "name": "removeDispenserContract",
      "outputs": [],
      "stateMutability": "nonpayable",
      "type": "function"
    },
    {
      "inputs": [
        {
          "internalType": "address",
          "name": "_fixedRate",
          "type": "address"
        }
      ],
      "name": "removeFixedRateContract",
      "outputs": [],
      "stateMutability": "nonpayable",
      "type": "function"
    },
    {
      "inputs": [
        {
          "internalType": "address",
          "name": "oceanTokenAddress",
          "type": "address"
        }
      ],
      "name": "removeOceanToken",
      "outputs": [],
      "stateMutability": "nonpayable",
      "type": "function"
    },
    {
      "inputs": [
        {
          "internalType": "address",
          "name": "poolTemplate",
          "type": "address"
        }
      ],
      "name": "removePoolTemplate",
      "outputs": [],
      "stateMutability": "nonpayable",
      "type": "function"
    },
    {
      "inputs": [
        {
          "internalType": "address",
          "name": "_ssContract",
          "type": "address"
        }
      ],
      "name": "removeSSContract",
      "outputs": [],
      "stateMutability": "nonpayable",
      "type": "function"
    },
    {
      "inputs": [],
      "name": "routerOwner",
      "outputs": [
        {
          "internalType": "address",
          "name": "",
          "type": "address"
        }
      ],
      "stateMutability": "view",
      "type": "function"
    },
    {
      "inputs": [
        {
          "internalType": "uint256",
          "name": "",
          "type": "uint256"
        }
      ],
      "name": "ssContracts",
      "outputs": [
        {
          "internalType": "address",
          "name": "",
          "type": "address"
        }
      ],
      "stateMutability": "view",
      "type": "function"
    },
    {
      "inputs": [],
      "name": "swapNonOceanFee",
      "outputs": [
        {
          "internalType": "uint256",
          "name": "",
          "type": "uint256"
        }
      ],
      "stateMutability": "view",
      "type": "function"
    },
    {
      "inputs": [],
      "name": "swapOceanFee",
      "outputs": [
        {
          "internalType": "uint256",
          "name": "",
          "type": "uint256"
        }
      ],
      "stateMutability": "view",
      "type": "function"
    },
    {
      "inputs": [
        {
          "internalType": "uint256",
          "name": "_newPeriod",
          "type": "uint256"
        }
      ],
      "name": "updateMinVestingPeriod",
      "outputs": [],
      "stateMutability": "nonpayable",
      "type": "function"
    },
    {
      "inputs": [
        {
          "internalType": "uint256",
          "name": "_newSwapOceanFee",
          "type": "uint256"
        },
        {
          "internalType": "uint256",
          "name": "_newSwapNonOceanFee",
          "type": "uint256"
        }
      ],
      "name": "updateOPFFee",
      "outputs": [],
      "stateMutability": "nonpayable",
      "type": "function"
    }
  ],
  "bytecode": "0x608060405262250490600555600060065566038d7ea4c680006007553480156200002857600080fd5b5060405162004638380380620046388339810160408190526200004b91620005f9565b8282826001600160a01b038316620000c05760405162461bcd60e51b815260206004820152602d60248201527f42466163746f72793a20696e76616c69642062706f6f6c2074656d706c61746560448201526c207a65726f206164647265737360981b60648201526084015b60405180910390fd5b6001600160a01b038216620001185760405162461bcd60e51b815260206004820152601660248201527f42466163746f72793a207a65726f2061646472657373000000000000000000006044820152606401620000b7565b600080546001600160a01b0319166001600160a01b0384161790556200013e8362000369565b805115620001ed5760005b8151811015620001eb5760006001600160a01b0316336001600160a01b03168383815181106200017d576200017d62000719565b602090810291909101810151604080516000808252938101849052908101929092526001600160a01b0316907fbb6121447d29a04cc37bfd93cdf6a9dd08229f2d941116c1528f04698c4e790e9060600160405180910390a480620001e2816200072f565b91505062000149565b505b5050506001600160a01b038516620002545760405162461bcd60e51b815260206004820152602360248201527f466163746f7279526f757465723a20496e76616c696420726f75746572206f776044820152623732b960e91b6064820152608401620000b7565b6001600160a01b038216620002b85760405162461bcd60e51b815260206004820152602360248201527f466163746f7279526f757465723a20496e76616c6964206f7066436f6c6c65636044820152623a37b960e91b6064820152608401620000b7565b6001600160a01b038416620003235760405162461bcd60e51b815260206004820152602a60248201527f466163746f7279526f757465723a20496e76616c6964204f6365616e20546f6b604482015269656e206164647265737360b01b6064820152608401620000b7565b600280546001600160a01b038088166001600160a01b03199283161790925560008054928516929091169190911790556200035e8462000460565b505050505062000759565b6001600160a01b038116620003d55760405162461bcd60e51b815260206004820152602b60248201527f466163746f7279526f757465723a20496e76616c696420706f6f6c54656d706c60448201526a617465206164647265737360a81b6064820152608401620000b7565b620003e081620004eb565b6200045d5760018054808201825560009182527fb10e2d527612073b26eecdfd717e6a320cf44b4afac2b0732d9fcbe2b7fa0cf60180546001600160a01b0319166001600160a01b038416908117909155604051909133917fc3674c32cbec94fe266aab7ef71f65b9bf77e1ed501d4f2bece8752f5352e9ac9190a35b50565b6200046b816200055d565b6200045d576008805460018101825560009182527ff3f7a9fe364faab93b216da50a3214154f22a0a2b415b23a84c8169e8b636ee30180546001600160a01b0319166001600160a01b038416908117909155604051909133917fdffbd9ded1c09446f09377de547142dcce7dc541c8b0b028142b1eba7026b9e79190a350565b6000805b6001548110156200055457826001600160a01b0316600182815481106200051a576200051a62000719565b6000918252602090912001546001600160a01b031614156200053f5750600192915050565b806200054b816200072f565b915050620004ef565b50600092915050565b6000805b6008548110156200055457826001600160a01b0316600882815481106200058c576200058c62000719565b6000918252602090912001546001600160a01b03161415620005b15750600192915050565b80620005bd816200072f565b91505062000561565b80516001600160a01b0381168114620005de57600080fd5b919050565b634e487b7160e01b600052604160045260246000fd5b600080600080600060a086880312156200061257600080fd5b6200061d86620005c6565b945060206200062e818801620005c6565b94506200063e60408801620005c6565b93506200064e60608801620005c6565b60808801519093506001600160401b03808211156200066c57600080fd5b818901915089601f8301126200068157600080fd5b815181811115620006965762000696620005e3565b8060051b604051601f19603f83011681018181108582111715620006be57620006be620005e3565b60405291825284820192508381018501918c831115620006dd57600080fd5b938501935b828510156200070657620006f685620005c6565b84529385019392850192620006e2565b8096505050505050509295509295909350565b634e487b7160e01b600052603260045260246000fd5b60006000198214156200075257634e487b7160e01b600052601160045260246000fd5b5060010190565b613ecf80620007696000396000f3fe608060405234801561001057600080fd5b50600436106103995760003560e01c80639381cd2b116101e9578063c45a01551161010f578063e4a28a52116100ad578063ee3bc6351161007c578063ee3bc635146106e4578063f8154aee146106f7578063fca24bc61461070a578063fdaa59bf1461071d57600080fd5b8063e4a28a52146103b3578063e525f99c146106b6578063ec093021146106c9578063ecdda588146106d157600080fd5b8063d629a00a116100e9578063d629a00a14610674578063de9a95a714610687578063e183fb3f1461069a578063e193faad146106a357600080fd5b8063c45a015514610650578063c6580d1214610663578063cb870cbf1461066b57600080fd5b8063b19aaac611610187578063bc063e1a11610156578063bc063e1a1461062d578063bc694ea214610635578063c07c00fe1461063d578063c36596a61461046257600080fd5b8063b19aaac6146105ff578063b66806fb14610612578063b7b800a4146105f7578063ba019dab1461062557600080fd5b80639cdfa6ad116101c35780639cdfa6ad146105be5780639f2c010a146105d1578063a28f78f1146105e4578063b0e0d136146105f757600080fd5b80639381cd2b146105a6578063992e2a92146105ae5780639bc01b3c146105b657600080fd5b8063475030c0116102ce5780637521aff91161026c578063802d14221161023b578063802d14221461056557806382449375146105785780638552730a1461058b578063867378c51461059e57600080fd5b80637521aff91461052457806376c7a3c71461053757806378f112bd1461053f5780637cbf85bf1461055257600080fd5b8063510f3465116102a8578063510f3465146104ee5780636c9fb612146104f65780636cdf90a114610509578063737e5ca01461051c57600080fd5b8063475030c0146104bf57806347e14094146104c857806350cbbe76146104db57600080fd5b8063189d00ca1161033b578063241c7a6d11610315578063241c7a6d1461047157806329ce1ec514610479578063335b7fa21461048c57806346104ea8146104b757600080fd5b8063189d00ca1461043f57806319d3b62414610447578063218b53821461046257600080fd5b806315c25dd51161037757806315c25dd5146103f157806315d4c9eb14610404578063165926141461041957806316d9cb3d1461042c57600080fd5b80630318ad661461039e57806309a3bbe4146103b35780631184e8d9146103ce575b600080fd5b6103b16103ac36600461356a565b610730565b005b6103bb61076f565b6040519081526020015b60405180910390f35b6103e16103dc36600461356a565b610785565b60405190151581526020016103c5565b6103e16103ff36600461356a565b6107ef565b61040c610850565b6040516103c59190613587565b6103b161042736600461356a565b6108b2565b6103b161043a36600461356a565b610a74565b6103bb610b4c565b600654600754604080519283526020830191909152016103c5565b6103bb670de0b6b3a764000081565b61040c610b63565b6103b161048736600461356a565b610bc3565b61049f61049a3660046135d4565b610cee565b6040516001600160a01b0390911681526020016103c5565b61040c610d18565b6103bb60055481565b6103b16104d636600461356a565b610d78565b61049f6104e93660046135d4565b610f39565b6005546103bb565b6103b161050436600461356a565b610f49565b6103e161051736600461356a565b611021565b61040c611082565b6103b16105323660046135d4565b6110e2565b6103bb611149565b6103b161054d3660046135ed565b61115e565b61049f6105603660046135d4565b6111d1565b60045461049f906001600160a01b031681565b6103bb61058636600461365b565b6111e1565b60025461049f906001600160a01b031681565b6103bb611353565b6103bb61136a565b6103bb61137d565b61040c61139b565b6103b16105cc36600461356a565b6113fb565b6103b16105df36600461356a565b6115ff565b60005461049f906001600160a01b031681565b6103bb600281565b6103b161060d36600461356a565b6117c0565b61049f6106203660046135d4565b6117f3565b6103bb600181565b6103bb611803565b6103bb611816565b6103e161064b36600461356a565b611835565b60035461049f906001600160a01b031681565b6103bb600081565b6103bb60075481565b6103b16106823660046136de565b611896565b6103b161069536600461356a565b611a06565b6103bb60065481565b6103b16106b136600461356a565b611ade565b6103b16106c436600461356a565b611b11565b6103bb611bdd565b6103b16106df36600461374e565b611bf0565b61049f6106f23660046137c4565b6126fc565b6103bb61070536600461356a565b612ab8565b6103e161071836600461356a565b612add565b61049f61072b3660046135d4565b612b3e565b6002546001600160a01b031633146107635760405162461bcd60e51b815260040161075a90613874565b60405180910390fd5b61076c81612b4e565b50565b610782670de0b6b3a764000060326138ba565b81565b6000805b6008548110156107e657826001600160a01b0316600882815481106107b0576107b06138d9565b6000918252602090912001546001600160a01b031614156107d45750600192915050565b806107de816138ef565b915050610789565b50600092915050565b6000805b6009548110156107e657826001600160a01b03166009828154811061081a5761081a6138d9565b6000918252602090912001546001600160a01b0316141561083e5750600192915050565b80610848816138ef565b9150506107f3565b6060600b8054806020026020016040519081016040528092919081815260200182805480156108a857602002820191906000526020600020905b81546001600160a01b0316815260019091019060200180831161088a575b5050505050905090565b6002546001600160a01b031633146108dc5760405162461bcd60e51b815260040161075a90613874565b6001600160a01b0381166109025760405162461bcd60e51b815260040161075a9061390a565b60005b600b5481101561095e57816001600160a01b0316600b828154811061092c5761092c6138d9565b6000918252602090912001546001600160a01b0316141561094c5761095e565b80610956816138ef565b915050610905565b600b54811015610a7057805b600b5461097990600190613953565b811015610a0457600b61098d82600161396a565b8154811061099d5761099d6138d9565b600091825260209091200154600b80546001600160a01b0390921691839081106109c9576109c96138d9565b600091825260209091200180546001600160a01b0319166001600160a01b0392909216919091179055806109fc816138ef565b91505061096a565b50600b805480610a1657610a16613982565b600082815260208120820160001990810180546001600160a01b03191690559091019091556040516001600160a01b0384169133917f63fe522dcdc5f006279afe8840a87398bb3d0dbb906b848866195859621908b39190a35b5050565b6002546001600160a01b03163314610a9e5760405162461bcd60e51b815260040161075a90613874565b6001600160a01b038116610ac45760405162461bcd60e51b815260040161075a90613998565b610acd81611021565b61076c57600a805460018101825560009182527fc65a7bb8d6351c1cf70c95a316cc6a92839c986682d98bc35f958f4883f9d2a80180546001600160a01b0319166001600160a01b038416908117909155604051909133917f45ccb9b9d6b112eb7a38daf6a23bda8b4c8449d5cf64a034975a5beb8cdd37b39190a350565b6107826402540be400670de0b6b3a76400006139e1565b606060018054806020026020016040519081016040528092919081815260200182805480156108a8576020028201919060005260206000209081546001600160a01b0316815260019091019060200180831161088a575050505050905090565b6002546001600160a01b03163314610bed5760405162461bcd60e51b815260040161075a90613874565b6001600160a01b038116610c535760405162461bcd60e51b815260206004820152602760248201527f466163746f7279526f757465723a20496e76616c6964205f666163746f7279206044820152666164647265737360c81b606482015260840161075a565b6003546001600160a01b031615610ca25760405162461bcd60e51b8152602060048201526013602482015272119050d513d49648105314915051164814d155606a1b604482015260640161075a565b600380546001600160a01b0319166001600160a01b03831690811790915560405133907f1f869f1ddaa0e2e3652252b3394c05c805f54a0d5f7fb6975f785ae4f91e587190600090a350565b600b8181548110610cfe57600080fd5b6000918252602090912001546001600160a01b0316905081565b6060600a8054806020026020016040519081016040528092919081815260200182805480156108a8576020028201919060005260206000209081546001600160a01b0316815260019091019060200180831161088a575050505050905090565b6002546001600160a01b03163314610da25760405162461bcd60e51b815260040161075a90613874565b6001600160a01b038116610dc85760405162461bcd60e51b815260040161075a90613a03565b60005b600954811015610e2457816001600160a01b031660098281548110610df257610df26138d9565b6000918252602090912001546001600160a01b03161415610e1257610e24565b80610e1c816138ef565b915050610dcb565b600954811015610a7057805b600954610e3f90600190613953565b811015610eca576009610e5382600161396a565b81548110610e6357610e636138d9565b600091825260209091200154600980546001600160a01b039092169183908110610e8f57610e8f6138d9565b600091825260209091200180546001600160a01b0319166001600160a01b039290921691909117905580610ec2816138ef565b915050610e30565b506009805480610edc57610edc613982565b600082815260208120820160001990810180546001600160a01b03191690559091019091556040516001600160a01b0384169133917f7df5d17d768be6563796784637c80bc9204e2af0bc4ba8630f5aa2fed96ea4879190a35050565b60018181548110610cfe57600080fd5b6002546001600160a01b03163314610f735760405162461bcd60e51b815260040161075a90613874565b6001600160a01b038116610f995760405162461bcd60e51b815260040161075a90613a03565b610fa2816107ef565b61076c576009805460018101825560009182527f6e1540171b6c0c960b71a7020d9f60077f6af931a8bbf590da0223dacf75c7af0180546001600160a01b0319166001600160a01b038416908117909155604051909133917fcef3ce01f85c030161b431114e41e463297b68f169c1013c526b1cbc5747e5449190a350565b6000805b600a548110156107e657826001600160a01b0316600a828154811061104c5761104c6138d9565b6000918252602090912001546001600160a01b031614156110705750600192915050565b8061107a816138ef565b915050611025565b606060098054806020026020016040519081016040528092919081815260200182805480156108a8576020028201919060005260206000209081546001600160a01b0316815260019091019060200180831161088a575050505050905090565b6002546001600160a01b0316331461110c5760405162461bcd60e51b815260040161075a90613874565b600581905560405181815233907f5ee73342e684c0b848562c301fa2dc6b0146b266cfa12d4219fb04b316f7a4759060200160405180910390a250565b610782620f4240670de0b6b3a76400006139e1565b6002546001600160a01b031633146111885760405162461bcd60e51b815260040161075a90613874565b60068290556007819055604080518381526020810183905233917f9e21deb6d5348e6305b5ffc69a58ca07205ebd49dc9b73053d4b031094b52e11910160405180910390a25050565b60098181548110610cfe57600080fd5b60035460405163226e761560e01b81523360048201526000916001600160a01b03169063226e761590602401602060405180830381865afa15801561122a573d6000803e3d6000fd5b505050506040513d601f19601f8201168201806040525081019061124e9190613a5d565b61126a5760405162461bcd60e51b815260040161075a90613a78565b61127386611021565b6112d25760405162461bcd60e51b815260206004820152602a60248201527f464143544f525920524f555445523a20496e76616c696420466978656450726960448201526918d950dbdb9d1c9858dd60b21b606482015260840161075a565b60405163012c327560e01b81526001600160a01b0387169063012c3275906113069033908990899089908990600401613ac3565b6020604051808303816000875af1158015611325573d6000803e3d6000fd5b505050506040513d601f19601f820116820180604052508101906113499190613b52565b9695505050505050565b61078264e8d4a51000670de0b6b3a76400006139e1565b610782670de0b6b3a764000060646138ba565b6113906003670de0b6b3a76400006139e1565b61078290600161396a565b606060088054806020026020016040519081016040528092919081815260200182805480156108a8576020028201919060005260206000209081546001600160a01b0316815260019091019060200180831161088a575050505050905090565b6002546001600160a01b031633146114255760405162461bcd60e51b815260040161075a90613874565b6001600160a01b03811661148e5760405162461bcd60e51b815260206004820152602a60248201527f466163746f7279526f757465723a20496e76616c6964204f6365616e20546f6b604482015269656e206164647265737360b01b606482015260840161075a565b60005b6008548110156114ea57816001600160a01b0316600882815481106114b8576114b86138d9565b6000918252602090912001546001600160a01b031614156114d8576114ea565b806114e2816138ef565b915050611491565b600854811015610a7057805b60085461150590600190613953565b81101561159057600861151982600161396a565b81548110611529576115296138d9565b600091825260209091200154600880546001600160a01b039092169183908110611555576115556138d9565b600091825260209091200180546001600160a01b0319166001600160a01b039290921691909117905580611588816138ef565b9150506114f6565b5060088054806115a2576115a2613982565b600082815260208120820160001990810180546001600160a01b03191690559091019091556040516001600160a01b0384169133917fbbe55b1ff108e23e5ff1a6f5d36946eec15ec0ca0ded2bfed4cdcf697ca904609190a35050565b6002546001600160a01b031633146116295760405162461bcd60e51b815260040161075a90613874565b6001600160a01b03811661164f5760405162461bcd60e51b815260040161075a90613998565b60005b600a548110156116ab57816001600160a01b0316600a8281548110611679576116796138d9565b6000918252602090912001546001600160a01b03161415611699576116ab565b806116a3816138ef565b915050611652565b600a54811015610a7057805b600a546116c690600190613953565b81101561175157600a6116da82600161396a565b815481106116ea576116ea6138d9565b600091825260209091200154600a80546001600160a01b039092169183908110611716576117166138d9565b600091825260209091200180546001600160a01b0319166001600160a01b039290921691909117905580611749816138ef565b9150506116b7565b50600a80548061176357611763613982565b600082815260208120820160001990810180546001600160a01b03191690559091019091556040516001600160a01b0384169133917ff1ec0697329a2e8de8cf055335547acc40fbace8712fc77aeea1ea2afbcf7e3b9190a35050565b6002546001600160a01b031633146117ea5760405162461bcd60e51b815260040161075a90613874565b61076c81612bd6565b600a8181548110610cfe57600080fd5b610782600a670de0b6b3a76400006139e1565b600161182b670de0b6b3a764000060026138ba565b6107829190613953565b6000805b6001548110156107e657826001600160a01b031660018281548110611860576118606138d9565b6000918252602090912001546001600160a01b031614156118845750600192915050565b8061188e816138ef565b915050611839565b60035460405163226e761560e01b81523360048201526001600160a01b039091169063226e761590602401602060405180830381865afa1580156118de573d6000803e3d6000fd5b505050506040513d601f19601f820116820180604052508101906119029190613a5d565b61191e5760405162461bcd60e51b815260040161075a90613a78565b61192786612add565b6119855760405162461bcd60e51b815260206004820152602960248201527f464143544f525920524f555445523a20496e76616c69642044697370656e73656044820152681c90dbdb9d1c9858dd60ba1b606482015260840161075a565b6040516324ce291760e01b81526001600160a01b0386811660048301526024820186905260448201859052838116606483015282811660848301528716906324ce29179060a401600060405180830381600087803b1580156119e657600080fd5b505af11580156119fa573d6000803e3d6000fd5b50505050505050505050565b6002546001600160a01b03163314611a305760405162461bcd60e51b815260040161075a90613874565b6001600160a01b038116611a565760405162461bcd60e51b815260040161075a9061390a565b611a5f81612add565b61076c57600b805460018101825560009182527f0175b7a638427703f0dbe7bb9bbf987a2551717b34e79f33b5b1008d1fa01db90180546001600160a01b0319166001600160a01b038416908117909155604051909133917f78be9d87a7b2c8707b044dbf5b04c3f747b692c55ec34dcd1d7357736478789c9190a350565b6002546001600160a01b03163314611b085760405162461bcd60e51b815260040161075a90613874565b61076c81612cc7565b6002546001600160a01b03163314611b3b5760405162461bcd60e51b815260040161075a90613874565b6001600160a01b038116611b915760405162461bcd60e51b815260206004820152601860248201527f496e76616c6964206e657720726f75746572206f776e65720000000000000000604482015260640161075a565b600280546001600160a01b0319166001600160a01b03831690811790915560405133907fc736654a613824c69968e0ec25ac1a428ccd49e15c28e97b5dfd2c6059757e2a90600090a350565b6107826002670de0b6b3a76400006139e1565b6032811115611c4c5760405162461bcd60e51b815260206004820152602260248201527f466163746f7279526f757465723a20546f6f204d616e79204f7065726174696f6044820152616e7360f01b606482015260840161075a565b60005b818110156126f75760006040518060600160405280858585818110611c7657611c766138d9565b905061014002016060016020810190611c8f919061356a565b6001600160a01b03168152602001858585818110611caf57611caf6138d9565b9050610140020160a0016020810190611cc8919061356a565b6001600160a01b03168152602001858585818110611ce857611ce86138d9565b90506101400201610120016020810190611d02919061356a565b6001600160a01b03166001600160a01b0316815250905060006040518060800160405280868686818110611d3857611d386138d9565b90506101400201608001358152602001868686818110611d5a57611d5a6138d9565b9050610140020160c001358152602001868686818110611d7c57611d7c6138d9565b9050610140020160e001358152602001868686818110611d9e57611d9e6138d9565b905061014002016101000135815250905060006003811115611dc257611dc2613b6b565b858585818110611dd457611dd46138d9565b905061014002016040016020810190611ded9190613b81565b6003811115611dfe57611dfe613b6b565b1415611fcd57611e623330878787818110611e1b57611e1b6138d9565b9050610140020160800135888888818110611e3857611e386138d9565b905061014002016060016020810190611e51919061356a565b6001600160a01b0316929190612e36565b611ee8858585818110611e7757611e776138d9565b905061014002016020016020810190611e90919061356a565b868686818110611ea257611ea26138d9565b9050610140020160800135878787818110611ebf57611ebf6138d9565b905061014002016060016020810190611ed8919061356a565b6001600160a01b03169190612ea7565b6000858585818110611efc57611efc6138d9565b905061014002016020016020810190611f15919061356a565b6001600160a01b031663c421a3fc84846040518363ffffffff1660e01b8152600401611f42929190613ba2565b60408051808303816000875af1158015611f60573d6000803e3d6000fd5b505050506040513d601f19601f82011682018060405250810190611f849190613c07565b509050611fc73382888888818110611f9e57611f9e6138d9565b9050610140020160a0016020810190611fb7919061356a565b6001600160a01b03169190612f59565b506126e2565b6001858585818110611fe157611fe16138d9565b905061014002016040016020810190611ffa9190613b81565b600381111561200b5761200b613b6b565b1415612286576000858585818110612025576120256138d9565b90506101400201602001602081019061203e919061356a565b6001600160a01b031663caa0114887878781811061205e5761205e6138d9565b905061014002016060016020810190612077919061356a565b888888818110612089576120896138d9565b9050610140020160a00160208101906120a2919061356a565b8989898181106120b4576120b46138d9565b9050610140020160c001358a8a8a8181106120d1576120d16138d9565b6040516001600160e01b031960e089901b1681526001600160a01b0396871660048201529590941660248601525060448401919091526101006101409092020101356064820152608401602060405180830381865afa158015612138573d6000803e3d6000fd5b505050506040513d601f19601f8201168201806040525081019061215c9190613b52565b9050612176333083898989818110611e3857611e386138d9565b6121b786868681811061218b5761218b6138d9565b9050610140020160200160208101906121a4919061356a565b82888888818110611ebf57611ebf6138d9565b8585858181106121c9576121c96138d9565b9050610140020160200160208101906121e2919061356a565b6001600160a01b031663c98a59cf84846040518363ffffffff1660e01b815260040161220f929190613ba2565b60408051808303816000875af115801561222d573d6000803e3d6000fd5b505050506040513d601f19601f820116820180604052508101906122519190613c07565b5050611fc733878787818110612269576122696138d9565b9050610140020160c00135888888818110611f9e57611f9e6138d9565b600285858581811061229a5761229a6138d9565b9050610140020160400160208101906122b39190613b81565b60038111156122c4576122c4613b6b565b14156125f95760008585858181106122de576122de6138d9565b9050610140020160200160208101906122f7919061356a565b6001600160a01b0316634c87087d878787818110612317576123176138d9565b90506101400201600001356040518263ffffffff1660e01b815260040161234091815260200190565b61018060405180830381865afa15801561235e573d6000803e3d6000fd5b505050506040513d601f19601f820116820180604052508101906123829190613c2b565b5050505050505050505091505060008686868181106123a3576123a36138d9565b9050610140020160200160208101906123bc919061356a565b6001600160a01b031663c99733a78888888181106123dc576123dc6138d9565b90506101400201600001358989898181106123f9576123f96138d9565b9050610140020160c001356040518363ffffffff1660e01b815260040161242a929190918252602082015260400190565b608060405180830381865afa158015612447573d6000803e3d6000fd5b505050506040513d601f19601f8201168201806040525081019061246b9190613cdf565b50505090506124883330838a8a8a818110611e3857611e386138d9565b6124c987878781811061249d5761249d6138d9565b9050610140020160200160208101906124b6919061356a565b82898989818110611ebf57611ebf6138d9565b8686868181106124db576124db6138d9565b9050610140020160200160208101906124f4919061356a565b6001600160a01b031663825b5cd6888888818110612514576125146138d9565b9050610140020160000135898989818110612531576125316138d9565b9050610140020160c001358a8a8a81811061254e5761254e6138d9565b6040516001600160e01b031960e088901b168152600481019590955260248501939093525060806101409092020101356044820152606401600060405180830381600087803b1580156125a057600080fd5b505af11580156125b4573d6000803e3d6000fd5b505050506125f2338888888181106125ce576125ce6138d9565b9050610140020160c00135846001600160a01b0316612f599092919063ffffffff16565b50506126e2565b84848481811061260b5761260b6138d9565b905061014002016020016020810190612624919061356a565b6001600160a01b0316631d746d83868686818110612644576126446138d9565b9050610140020160a001602081019061265d919061356a565b87878781811061266f5761266f6138d9565b60405160e086901b6001600160e01b03191681526001600160a01b03949094166004850152610140029190910160c00135602483015250336044820152606401600060405180830381600087803b1580156126c957600080fd5b505af11580156126dd573d6000803e3d6000fd5b505050505b505080806126ef906138ef565b915050611c4f565b505050565b60035460405163226e761560e01b81523360048201526000916001600160a01b03169063226e761590602401602060405180830381865afa158015612745573d6000803e3d6000fd5b505050506040513d601f19601f820116820180604052508101906127699190613a5d565b6127855760405162461bcd60e51b815260040161075a90613a78565b6127b08383600081811061279b5761279b6138d9565b90506020020160208101906103ff919061356a565b6128075760405162461bcd60e51b815260206004820152602260248201527f464143544f525920524f555445523a20696e76616c6964207373436f6e74726160448201526118dd60f21b606482015260840161075a565b60008787600181811061281c5761281c6138d9565b90506020020135116128615760405162461bcd60e51b815260206004820152600e60248201526d57726f6e6720646563696d616c7360901b604482015260640161075a565b600061287360408a0160208b0161356a565b90506128fc8484600281811061288b5761288b6138d9565b90506020020160208101906128a0919061356a565b858560008181106128b3576128b36138d9565b90506020020160208101906128c8919061356a565b8a8a60048181106128db576128db6138d9565b90506020020135846001600160a01b0316612e36909392919063ffffffff16565b6040805180820182526000916129bf91908c90600290839083908082843760009201919091525050604080516020808e0282810182019093528d82529092508d918d9182919085019084908082843760009201919091525050604080516020808e0282810182019093528d82529093508d92508c91829185019084908082843760009201919091525050604080516020808d0282810182019093528c82529093508c92508b918291850190849080828437600092019190915250612f8992505050565b90506001600160a01b038116612a0f5760405162461bcd60e51b8152602060048201526015602482015274119052531151081513c81111541313d6481413d3d3605a1b604482015260640161075a565b612a226103dc60408c0160208d0161356a565b15612a6b57604051600181526001600160a01b038216907f90279d7790471e260411db76079630dfaa838fc987d29ae7aa7dc1bcd773ef2e9060200160405180910390a2612aab565b604051600081526001600160a01b038216907f90279d7790471e260411db76079630dfaa838fc987d29ae7aa7dc1bcd773ef2e9060200160405180910390a25b9998505050505050505050565b6000612ac382610785565b15612ad057505060065490565b505060075490565b919050565b6000805b600b548110156107e657826001600160a01b0316600b8281548110612b0857612b086138d9565b6000918252602090912001546001600160a01b03161415612b2c5750600192915050565b80612b36816138ef565b915050612ae1565b60088181548110610cfe57600080fd5b612b5781610785565b61076c576008805460018101825560009182527ff3f7a9fe364faab93b216da50a3214154f22a0a2b415b23a84c8169e8b636ee30180546001600160a01b0319166001600160a01b038416908117909155604051909133917fdffbd9ded1c09446f09377de547142dcce7dc541c8b0b028142b1eba7026b9e79190a350565b6001600160a01b038116612c405760405162461bcd60e51b815260206004820152602b60248201527f466163746f7279526f757465723a20496e76616c696420706f6f6c54656d706c60448201526a617465206164647265737360a81b606482015260840161075a565b612c4981611835565b61076c5760018054808201825560009182527fb10e2d527612073b26eecdfd717e6a320cf44b4afac2b0732d9fcbe2b7fa0cf60180546001600160a01b0319166001600160a01b038416908117909155604051909133917fc3674c32cbec94fe266aab7ef71f65b9bf77e1ed501d4f2bece8752f5352e9ac9190a350565b60005b600154811015612d2357816001600160a01b031660018281548110612cf157612cf16138d9565b6000918252602090912001546001600160a01b03161415612d1157612d23565b80612d1b816138ef565b915050612cca565b600154811015610a7057805b60018054612d3d9190613953565b811015612dc7576001612d50828261396a565b81548110612d6057612d606138d9565b600091825260209091200154600180546001600160a01b039092169183908110612d8c57612d8c6138d9565b600091825260209091200180546001600160a01b0319166001600160a01b039290921691909117905580612dbf816138ef565b915050612d2f565b506001805480612dd957612dd9613982565b600082815260208120820160001990810180546001600160a01b03191690559091019091556040516001600160a01b0384169133917fc73fd5d40669565e257cbcd153784617ef26acfcc9fead31e68c0dce3ce82fb29190a35050565b6040516001600160a01b0380851660248301528316604482015260648101829052612ea19085906323b872dd60e01b906084015b60408051601f198184030181529190526020810180516001600160e01b03166001600160e01b031990931692909217909152613279565b50505050565b604051636eb1769f60e11b81523060048201526001600160a01b038381166024830152600091839186169063dd62ed3e90604401602060405180830381865afa158015612ef8573d6000803e3d6000fd5b505050506040513d601f19601f82011682018060405250810190612f1c9190613b52565b612f26919061396a565b6040516001600160a01b038516602482015260448101829052909150612ea190859063095ea7b360e01b90606401612e6a565b6040516001600160a01b0383166024820152604481018290526126f790849063a9059cbb60e01b90606401612e6a565b6000612fae82600581518110612fa157612fa16138d9565b6020026020010151611835565b612ffa5760405162461bcd60e51b815260206004820152601d60248201527f42466163746f72793a2057726f6e6720506f6f6c2054656d706c617465000000604482015260640161075a565b600060405180604001604052808460048151811061301a5761301a6138d9565b6020908102919091018101516001600160a01b0390811683526000541691015283519091506130639084906005908110613056576130566138d9565b602002602001015161334b565b91506001600160a01b0382166130c75760405162461bcd60e51b8152602060048201526024808201527f42466163746f72793a20696e76616c69642062706f6f6c207a65726f206164646044820152637265737360e01b606482015260840161075a565b6000829050806001600160a01b031663c070a6d8856000815181106130ee576130ee6138d9565b602002602001015130886000808d896040518863ffffffff1660e01b815260040161311f9796959493929190613d7c565b6020604051808303816000875af115801561313e573d6000803e3d6000fd5b505050506040513d601f19601f820116820180604052508101906131629190613a5d565b6131a55760405162461bcd60e51b815260206004820152601460248201527311549497d253925512505312569157d09413d3d360621b604482015260640161075a565b836000815181106131b8576131b86138d9565b60200260200101516001600160a01b03166383b87e5a886000600281106131e1576131e16138d9565b602002015189600160200201518688600381518110613202576132026138d9565b60200260200101518b6040518663ffffffff1660e01b815260040161322b959493929190613de2565b6020604051808303816000875af115801561324a573d6000803e3d6000fd5b505050506040513d601f19601f8201168201806040525081019061326e9190613a5d565b505050949350505050565b60006132ce826040518060400160405280602081526020017f5361666545524332303a206c6f772d6c6576656c2063616c6c206661696c6564815250856001600160a01b03166133db9092919063ffffffff16565b8051909150156126f757808060200190518101906132ec9190613a5d565b6126f75760405162461bcd60e51b815260206004820152602a60248201527f5361666545524332303a204552433230206f7065726174696f6e20646964206e6044820152691bdd081cdd58d8d9595960b21b606482015260840161075a565b6000808260601b9050604051733d602d80600a3d3981f3363d3d373d3d3d363d7360601b81528160148201526e5af43d82803e903d91602b57fd5bf360881b60288201526037816000f06040516001600160a01b03821681529093507f117c72e6c25f0a072e36e148df71468ce2f3dbe7defec5b2c257a6e3eb65278c915060200160405180910390a150919050565b60606133ea84846000856133f4565b90505b9392505050565b6060824710156134555760405162461bcd60e51b815260206004820152602660248201527f416464726573733a20696e73756666696369656e742062616c616e636520666f6044820152651c8818d85b1b60d21b606482015260840161075a565b843b6134a35760405162461bcd60e51b815260206004820152601d60248201527f416464726573733a2063616c6c20746f206e6f6e2d636f6e7472616374000000604482015260640161075a565b600080866001600160a01b031685876040516134bf9190613e4a565b60006040518083038185875af1925050503d80600081146134fc576040519150601f19603f3d011682016040523d82523d6000602084013e613501565b606091505b509150915061351182828661351c565b979650505050505050565b6060831561352b5750816133ed565b82511561353b5782518084602001fd5b8160405162461bcd60e51b815260040161075a9190613e66565b6001600160a01b038116811461076c57600080fd5b60006020828403121561357c57600080fd5b81356133ed81613555565b6020808252825182820181905260009190848201906040850190845b818110156135c85783516001600160a01b0316835292840192918401916001016135a3565b50909695505050505050565b6000602082840312156135e657600080fd5b5035919050565b6000806040838503121561360057600080fd5b50508035926020909101359150565b60008083601f84011261362157600080fd5b50813567ffffffffffffffff81111561363957600080fd5b6020830191508360208260051b850101111561365457600080fd5b9250929050565b60008060008060006060868803121561367357600080fd5b853561367e81613555565b9450602086013567ffffffffffffffff8082111561369b57600080fd5b6136a789838a0161360f565b909650945060408801359150808211156136c057600080fd5b506136cd8882890161360f565b969995985093965092949392505050565b60008060008060008060c087890312156136f757600080fd5b863561370281613555565b9550602087013561371281613555565b94506040870135935060608701359250608087013561373081613555565b915060a087013561374081613555565b809150509295509295509295565b6000806020838503121561376157600080fd5b823567ffffffffffffffff8082111561377957600080fd5b818501915085601f83011261378d57600080fd5b81358181111561379c57600080fd5b866020610140830285010111156137b257600080fd5b60209290920196919550909350505050565b600080600080600080600060a0888a0312156137df57600080fd5b60408801898111156137f057600080fd5b8897503567ffffffffffffffff8082111561380a57600080fd5b6138168b838c0161360f565b909850965060608a013591508082111561382f57600080fd5b61383b8b838c0161360f565b909650945060808a013591508082111561385457600080fd5b506138618a828b0161360f565b989b979a50959850939692959293505050565b60208082526016908201527527b1b2b0b72937baba32b91d102727aa1027aba722a960511b604082015260600190565b634e487b7160e01b600052601160045260246000fd5b60008160001904831182151516156138d4576138d46138a4565b500290565b634e487b7160e01b600052603260045260246000fd5b6000600019821415613903576139036138a4565b5060010190565b60208082526029908201527f466163746f7279526f757465723a20496e76616c6964205f64697370656e736560408201526872206164647265737360b81b606082015260800190565b600082821015613965576139656138a4565b500390565b6000821982111561397d5761397d6138a4565b500190565b634e487b7160e01b600052603160045260246000fd5b60208082526029908201527f466163746f7279526f757465723a20496e76616c6964205f666978656452617460408201526865206164647265737360b81b606082015260800190565b6000826139fe57634e487b7160e01b600052601260045260246000fd5b500490565b6020808252602a908201527f466163746f7279526f757465723a20496e76616c6964205f7373436f6e7472616040820152696374206164647265737360b01b606082015260800190565b80518015158114612ad857600080fd5b600060208284031215613a6f57600080fd5b6133ed82613a4d565b6020808252602b908201527f464143544f525920524f555445523a204e4f54204f524947494e414c2045524360408201526a32302054454d504c41544560a81b606082015260800190565b6001600160a01b03868116825260606020808401829052908301869052600091879160808501845b89811015613b12578435613afe81613555565b841682529382019390820190600101613aeb565b5085810360408701528681526001600160fb1b03871115613b3257600080fd5b8660051b9350838883830137600093010191825250979650505050505050565b600060208284031215613b6457600080fd5b5051919050565b634e487b7160e01b600052602160045260246000fd5b600060208284031215613b9357600080fd5b8135600481106133ed57600080fd5b60e08101818460005b6003811015613bd35781516001600160a01b0316835260209283019290910190600101613bab565b505050606082018360005b6004811015613bfd578151835260209283019290910190600101613bde565b5050509392505050565b60008060408385031215613c1a57600080fd5b505080516020909101519092909150565b6000806000806000806000806000806000806101808d8f031215613c4e57600080fd5b8c51613c5981613555565b60208e0151909c50613c6a81613555565b60408e015160608f0151919c509a50613c8281613555565b60808e015160a08f0151919a5098509650613c9f60c08e01613a4d565b955060e08d015194506101008d015193506101208d015192506101408d01519150613ccd6101608e01613a4d565b90509295989b509295989b509295989b565b60008060008060808587031215613cf557600080fd5b505082516020840151604085015160609095015191969095509092509050565b600081518084526020808501945080840160005b83811015613d4557815187529582019590820190600101613d29565b509495945050505050565b8060005b6002811015612ea15781516001600160a01b0316845260209384019390910190600101613d54565b6001600160a01b0388811682528716602082015261012060408201819052600090613da983820189613d15565b91505085151560608301528415156080830152613dc960a0830185613d50565b613dd660e0830184613d50565b98975050505050505050565b6001600160a01b038681168252858116602083015284811660408301528316606082015260a06080820181905260009061351190830184613d15565b60005b83811015613e39578181015183820152602001613e21565b83811115612ea15750506000910152565b60008251613e5c818460208701613e1e565b9190910192915050565b6020815260008251806020840152613e85816040850160208701613e1e565b601f01601f1916919091016040019291505056fea264697066735822122009758ac5e1ad9b984a0371ba6db7b3f2d145809c378b8a7d2737e4ff8464400e64736f6c634300080a0033",
  "linkReferences": {},
  "deployedLinkReferences": {}
}