{
  "_format": "hh-sol-artifact-1",
  "contractName": "FactoryRouter",
  "sourceName": "contracts/pools/FactoryRouter.sol",
  "abi": [
    {
      "inputs": [
        {
          "internalType": "address",
          "name": "_routerOwner",
          "type": "address"
        },
        {
          "internalType": "address",
          "name": "_oceanToken",
          "type": "address"
        },
        {
          "internalType": "address",
          "name": "_bpoolTemplate",
          "type": "address"
        },
        {
          "internalType": "address",
          "name": "_opfCollector",
          "type": "address"
        },
        {
          "internalType": "address[]",
          "name": "_preCreatedPools",
          "type": "address[]"
        }
      ],
      "stateMutability": "nonpayable",
      "type": "constructor"
    },
    {
      "anonymous": false,
      "inputs": [
        {
          "indexed": true,
          "internalType": "address",
          "name": "newBPoolAddress",
          "type": "address"
        },
        {
          "indexed": true,
          "internalType": "address",
          "name": "registeredBy",
          "type": "address"
        },
        {
          "indexed": true,
          "internalType": "address",
          "name": "datatokenAddress",
          "type": "address"
        },
        {
          "indexed": false,
          "internalType": "address",
          "name": "basetokenAddress",
          "type": "address"
        },
        {
          "indexed": false,
          "internalType": "address",
          "name": "bpoolTemplateAddress",
          "type": "address"
        },
        {
          "indexed": false,
          "internalType": "address",
          "name": "ssAddress",
          "type": "address"
        }
      ],
      "name": "BPoolCreated",
      "type": "event"
    },
    {
      "anonymous": false,
      "inputs": [
        {
          "indexed": true,
          "internalType": "address",
          "name": "caller",
          "type": "address"
        },
        {
          "indexed": true,
          "internalType": "address",
          "name": "contractAddress",
          "type": "address"
        }
      ],
      "name": "DispenserContractAdded",
      "type": "event"
    },
    {
      "anonymous": false,
      "inputs": [
        {
          "indexed": true,
          "internalType": "address",
          "name": "caller",
          "type": "address"
        },
        {
          "indexed": true,
          "internalType": "address",
          "name": "contractAddress",
          "type": "address"
        }
      ],
      "name": "DispenserContractRemoved",
      "type": "event"
    },
    {
      "anonymous": false,
      "inputs": [
        {
          "indexed": true,
          "internalType": "address",
          "name": "caller",
          "type": "address"
        },
        {
          "indexed": true,
          "internalType": "address",
          "name": "contractAddress",
          "type": "address"
        }
      ],
      "name": "FactoryContractChanged",
      "type": "event"
    },
    {
      "anonymous": false,
      "inputs": [
        {
          "indexed": true,
          "internalType": "address",
          "name": "caller",
          "type": "address"
        },
        {
          "indexed": true,
          "internalType": "address",
          "name": "contractAddress",
          "type": "address"
        }
      ],
      "name": "FixedRateContractAdded",
      "type": "event"
    },
    {
      "anonymous": false,
      "inputs": [
        {
          "indexed": true,
          "internalType": "address",
          "name": "caller",
          "type": "address"
        },
        {
          "indexed": true,
          "internalType": "address",
          "name": "contractAddress",
          "type": "address"
        }
      ],
      "name": "FixedRateContractRemoved",
      "type": "event"
    },
    {
      "anonymous": false,
      "inputs": [
        {
          "indexed": false,
          "internalType": "address",
          "name": "instance",
          "type": "address"
        }
      ],
      "name": "InstanceDeployed",
      "type": "event"
    },
    {
      "anonymous": false,
      "inputs": [
        {
          "indexed": true,
          "internalType": "address",
          "name": "poolAddress",
          "type": "address"
        },
        {
          "indexed": false,
          "internalType": "bool",
          "name": "isOcean",
          "type": "bool"
        }
      ],
      "name": "NewPool",
      "type": "event"
    },
    {
      "anonymous": false,
      "inputs": [
        {
          "indexed": true,
          "internalType": "address",
          "name": "caller",
          "type": "address"
        },
        {
          "indexed": false,
          "internalType": "uint256",
          "name": "newFee",
          "type": "uint256"
        }
      ],
      "name": "OPFFeeChanged",
      "type": "event"
    },
    {
      "anonymous": false,
      "inputs": [
        {
          "indexed": true,
          "internalType": "address",
          "name": "caller",
          "type": "address"
        },
        {
          "indexed": true,
          "internalType": "address",
          "name": "contractAddress",
          "type": "address"
        }
      ],
      "name": "PoolTemplateAdded",
      "type": "event"
    },
    {
      "anonymous": false,
      "inputs": [
        {
          "indexed": true,
          "internalType": "address",
          "name": "caller",
          "type": "address"
        },
        {
          "indexed": true,
          "internalType": "address",
          "name": "contractAddress",
          "type": "address"
        }
      ],
      "name": "PoolTemplateRemoved",
      "type": "event"
    },
    {
      "anonymous": false,
      "inputs": [
        {
          "indexed": true,
          "internalType": "address",
          "name": "caller",
          "type": "address"
        },
        {
          "indexed": true,
          "internalType": "address",
          "name": "newRouter",
          "type": "address"
        }
      ],
      "name": "RouterChanged",
      "type": "event"
    },
    {
      "anonymous": false,
      "inputs": [
        {
          "indexed": true,
          "internalType": "address",
          "name": "caller",
          "type": "address"
        },
        {
          "indexed": true,
          "internalType": "address",
          "name": "contractAddress",
          "type": "address"
        }
      ],
      "name": "SSContractAdded",
      "type": "event"
    },
    {
      "anonymous": false,
      "inputs": [
        {
          "indexed": true,
          "internalType": "address",
          "name": "caller",
          "type": "address"
        },
        {
          "indexed": true,
          "internalType": "address",
          "name": "contractAddress",
          "type": "address"
        }
      ],
      "name": "SSContractRemoved",
      "type": "event"
    },
    {
      "anonymous": false,
      "inputs": [
        {
          "indexed": true,
          "internalType": "address",
          "name": "caller",
          "type": "address"
        },
        {
          "indexed": true,
          "internalType": "address",
          "name": "token",
          "type": "address"
        }
      ],
      "name": "TokenAdded",
      "type": "event"
    },
    {
      "anonymous": false,
      "inputs": [
        {
          "indexed": true,
          "internalType": "address",
          "name": "caller",
          "type": "address"
        },
        {
          "indexed": true,
          "internalType": "address",
          "name": "token",
          "type": "address"
        }
      ],
      "name": "TokenRemoved",
      "type": "event"
    },
    {
      "inputs": [],
      "name": "BONE",
      "outputs": [
        {
          "internalType": "uint256",
          "name": "",
          "type": "uint256"
        }
      ],
      "stateMutability": "view",
      "type": "function"
    },
    {
      "inputs": [],
      "name": "BPOW_PRECISION",
      "outputs": [
        {
          "internalType": "uint256",
          "name": "",
          "type": "uint256"
        }
      ],
      "stateMutability": "view",
      "type": "function"
    },
    {
      "inputs": [],
      "name": "EXIT_FEE",
      "outputs": [
        {
          "internalType": "uint256",
          "name": "",
          "type": "uint256"
        }
      ],
      "stateMutability": "view",
      "type": "function"
    },
    {
      "inputs": [],
      "name": "INIT_POOL_SUPPLY",
      "outputs": [
        {
          "internalType": "uint256",
          "name": "",
          "type": "uint256"
        }
      ],
      "stateMutability": "view",
      "type": "function"
    },
    {
      "inputs": [],
      "name": "MAX_BOUND_TOKENS",
      "outputs": [
        {
          "internalType": "uint256",
          "name": "",
          "type": "uint256"
        }
      ],
      "stateMutability": "view",
      "type": "function"
    },
    {
      "inputs": [],
      "name": "MAX_BPOW_BASE",
      "outputs": [
        {
          "internalType": "uint256",
          "name": "",
          "type": "uint256"
        }
      ],
      "stateMutability": "view",
      "type": "function"
    },
    {
      "inputs": [],
      "name": "MAX_FEE",
      "outputs": [
        {
          "internalType": "uint256",
          "name": "",
          "type": "uint256"
        }
      ],
      "stateMutability": "view",
      "type": "function"
    },
    {
      "inputs": [],
      "name": "MAX_IN_RATIO",
      "outputs": [
        {
          "internalType": "uint256",
          "name": "",
          "type": "uint256"
        }
      ],
      "stateMutability": "view",
      "type": "function"
    },
    {
      "inputs": [],
      "name": "MAX_OUT_RATIO",
      "outputs": [
        {
          "internalType": "uint256",
          "name": "",
          "type": "uint256"
        }
      ],
      "stateMutability": "view",
      "type": "function"
    },
    {
      "inputs": [],
      "name": "MAX_TOTAL_WEIGHT",
      "outputs": [
        {
          "internalType": "uint256",
          "name": "",
          "type": "uint256"
        }
      ],
      "stateMutability": "view",
      "type": "function"
    },
    {
      "inputs": [],
      "name": "MAX_WEIGHT",
      "outputs": [
        {
          "internalType": "uint256",
          "name": "",
          "type": "uint256"
        }
      ],
      "stateMutability": "view",
      "type": "function"
    },
    {
      "inputs": [],
      "name": "MIN_BALANCE",
      "outputs": [
        {
          "internalType": "uint256",
          "name": "",
          "type": "uint256"
        }
      ],
      "stateMutability": "view",
      "type": "function"
    },
    {
      "inputs": [],
      "name": "MIN_BOUND_TOKENS",
      "outputs": [
        {
          "internalType": "uint256",
          "name": "",
          "type": "uint256"
        }
      ],
      "stateMutability": "view",
      "type": "function"
    },
    {
      "inputs": [],
      "name": "MIN_BPOW_BASE",
      "outputs": [
        {
          "internalType": "uint256",
          "name": "",
          "type": "uint256"
        }
      ],
      "stateMutability": "view",
      "type": "function"
    },
    {
      "inputs": [],
      "name": "MIN_FEE",
      "outputs": [
        {
          "internalType": "uint256",
          "name": "",
          "type": "uint256"
        }
      ],
      "stateMutability": "view",
      "type": "function"
    },
    {
      "inputs": [],
      "name": "MIN_WEIGHT",
      "outputs": [
        {
          "internalType": "uint256",
          "name": "",
          "type": "uint256"
        }
      ],
      "stateMutability": "view",
      "type": "function"
    },
    {
      "inputs": [
        {
          "internalType": "address",
          "name": "_dispenser",
          "type": "address"
        }
      ],
      "name": "addDispenserContract",
      "outputs": [],
      "stateMutability": "nonpayable",
      "type": "function"
    },
    {
      "inputs": [
        {
          "internalType": "address",
          "name": "_factory",
          "type": "address"
        }
      ],
      "name": "addFactory",
      "outputs": [],
      "stateMutability": "nonpayable",
      "type": "function"
    },
    {
      "inputs": [
        {
          "internalType": "address",
          "name": "_fixedRate",
          "type": "address"
        }
      ],
      "name": "addFixedRateContract",
      "outputs": [],
      "stateMutability": "nonpayable",
      "type": "function"
    },
    {
      "inputs": [
        {
          "internalType": "address",
          "name": "oceanTokenAddress",
          "type": "address"
        }
      ],
      "name": "addOceanToken",
      "outputs": [],
      "stateMutability": "nonpayable",
      "type": "function"
    },
    {
      "inputs": [
        {
          "internalType": "address",
          "name": "poolTemplate",
          "type": "address"
        }
      ],
      "name": "addPoolTemplate",
      "outputs": [],
      "stateMutability": "nonpayable",
      "type": "function"
    },
    {
      "inputs": [
        {
          "internalType": "address",
          "name": "_ssContract",
          "type": "address"
        }
      ],
      "name": "addSSContract",
      "outputs": [],
      "stateMutability": "nonpayable",
      "type": "function"
    },
    {
      "inputs": [
        {
          "components": [
            {
              "internalType": "bytes32",
              "name": "exchangeIds",
              "type": "bytes32"
            },
            {
              "internalType": "address",
              "name": "source",
              "type": "address"
            },
            {
              "internalType": "enum FactoryRouter.operationType",
              "name": "operation",
              "type": "uint8"
            },
            {
              "internalType": "address",
              "name": "tokenIn",
              "type": "address"
            },
            {
              "internalType": "uint256",
              "name": "amountsIn",
              "type": "uint256"
            },
            {
              "internalType": "address",
              "name": "tokenOut",
              "type": "address"
            },
            {
              "internalType": "uint256",
              "name": "amountsOut",
              "type": "uint256"
            },
            {
              "internalType": "uint256",
              "name": "maxPrice",
              "type": "uint256"
            },
            {
              "internalType": "uint256",
              "name": "swapMarketFee",
              "type": "uint256"
            },
            {
              "internalType": "address",
              "name": "marketFeeAddress",
              "type": "address"
            }
          ],
          "internalType": "struct FactoryRouter.Operations[]",
          "name": "_operations",
          "type": "tuple[]"
        }
      ],
      "name": "buyDTBatch",
      "outputs": [],
      "stateMutability": "nonpayable",
      "type": "function"
    },
    {
      "inputs": [
        {
          "internalType": "address",
          "name": "_routerOwner",
          "type": "address"
        }
      ],
      "name": "changeRouterOwner",
      "outputs": [],
      "stateMutability": "nonpayable",
      "type": "function"
    },
    {
      "inputs": [
        {
          "internalType": "address",
          "name": "_dispenser",
          "type": "address"
        },
        {
          "internalType": "address",
          "name": "datatoken",
          "type": "address"
        },
        {
          "internalType": "uint256",
          "name": "maxTokens",
          "type": "uint256"
        },
        {
          "internalType": "uint256",
          "name": "maxBalance",
          "type": "uint256"
        },
        {
          "internalType": "address",
          "name": "owner",
          "type": "address"
        },
        {
          "internalType": "address",
          "name": "allowedSwapper",
          "type": "address"
        }
      ],
      "name": "deployDispenser",
      "outputs": [],
      "stateMutability": "nonpayable",
      "type": "function"
    },
    {
      "inputs": [
        {
          "internalType": "address",
          "name": "fixedPriceAddress",
          "type": "address"
        },
        {
          "internalType": "address[]",
          "name": "addresses",
          "type": "address[]"
        },
        {
          "internalType": "uint256[]",
          "name": "uints",
          "type": "uint256[]"
        }
      ],
      "name": "deployFixedRate",
      "outputs": [
        {
          "internalType": "bytes32",
          "name": "exchangeId",
          "type": "bytes32"
        }
      ],
      "stateMutability": "nonpayable",
      "type": "function"
    },
    {
      "inputs": [
        {
          "internalType": "address[2]",
          "name": "tokens",
          "type": "address[2]"
        },
        {
          "internalType": "uint256[]",
          "name": "ssParams",
          "type": "uint256[]"
        },
        {
          "internalType": "uint256[]",
          "name": "swapFees",
          "type": "uint256[]"
        },
        {
          "internalType": "address[]",
          "name": "addresses",
          "type": "address[]"
        }
      ],
      "name": "deployPool",
      "outputs": [
        {
          "internalType": "address",
          "name": "",
          "type": "address"
        }
      ],
      "stateMutability": "nonpayable",
      "type": "function"
    },
    {
      "inputs": [
        {
          "internalType": "address",
          "name": "",
          "type": "address"
        }
      ],
      "name": "dispenser",
      "outputs": [
        {
          "internalType": "bool",
          "name": "",
          "type": "bool"
        }
      ],
      "stateMutability": "view",
      "type": "function"
    },
    {
      "inputs": [],
      "name": "factory",
      "outputs": [
        {
          "internalType": "address",
          "name": "",
          "type": "address"
        }
      ],
      "stateMutability": "view",
      "type": "function"
    },
    {
      "inputs": [
        {
          "internalType": "address",
          "name": "",
          "type": "address"
        }
      ],
      "name": "fixedPrice",
      "outputs": [
        {
          "internalType": "bool",
          "name": "",
          "type": "bool"
        }
      ],
      "stateMutability": "view",
      "type": "function"
    },
    {
      "inputs": [],
      "name": "fixedRate",
      "outputs": [
        {
          "internalType": "address",
          "name": "",
          "type": "address"
        }
      ],
      "stateMutability": "view",
      "type": "function"
    },
    {
      "inputs": [
        {
          "internalType": "address",
          "name": "baseToken",
          "type": "address"
        }
      ],
      "name": "getOPFFee",
      "outputs": [
        {
          "internalType": "uint256",
          "name": "",
          "type": "uint256"
        }
      ],
      "stateMutability": "view",
      "type": "function"
    },
    {
      "inputs": [
        {
          "internalType": "address",
          "name": "poolTemplate",
          "type": "address"
        }
      ],
      "name": "isPoolTemplate",
      "outputs": [
        {
          "internalType": "bool",
          "name": "",
          "type": "bool"
        }
      ],
      "stateMutability": "view",
      "type": "function"
    },
    {
      "inputs": [
        {
          "internalType": "address",
          "name": "",
          "type": "address"
        }
      ],
      "name": "oceanTokens",
      "outputs": [
        {
          "internalType": "bool",
          "name": "",
          "type": "bool"
        }
      ],
      "stateMutability": "view",
      "type": "function"
    },
    {
      "inputs": [],
      "name": "opfCollector",
      "outputs": [
        {
          "internalType": "address",
          "name": "",
          "type": "address"
        }
      ],
      "stateMutability": "view",
      "type": "function"
    },
    {
      "inputs": [
        {
          "internalType": "address",
          "name": "_dispenser",
          "type": "address"
        }
      ],
      "name": "removeDispenserContract",
      "outputs": [],
      "stateMutability": "nonpayable",
      "type": "function"
    },
    {
      "inputs": [
        {
          "internalType": "address",
          "name": "_fixedRate",
          "type": "address"
        }
      ],
      "name": "removeFixedRateContract",
      "outputs": [],
      "stateMutability": "nonpayable",
      "type": "function"
    },
    {
      "inputs": [
        {
          "internalType": "address",
          "name": "oceanTokenAddress",
          "type": "address"
        }
      ],
      "name": "removeOceanToken",
      "outputs": [],
      "stateMutability": "nonpayable",
      "type": "function"
    },
    {
      "inputs": [
        {
          "internalType": "address",
          "name": "poolTemplate",
          "type": "address"
        }
      ],
      "name": "removePoolTemplate",
      "outputs": [],
      "stateMutability": "nonpayable",
      "type": "function"
    },
    {
      "inputs": [
        {
          "internalType": "address",
          "name": "_ssContract",
          "type": "address"
        }
      ],
      "name": "removeSSContract",
      "outputs": [],
      "stateMutability": "nonpayable",
      "type": "function"
    },
    {
      "inputs": [],
      "name": "routerOwner",
      "outputs": [
        {
          "internalType": "address",
          "name": "",
          "type": "address"
        }
      ],
      "stateMutability": "view",
      "type": "function"
    },
    {
      "inputs": [
        {
          "internalType": "address",
          "name": "",
          "type": "address"
        }
      ],
      "name": "ssContracts",
      "outputs": [
        {
          "internalType": "bool",
          "name": "",
          "type": "bool"
        }
      ],
      "stateMutability": "view",
      "type": "function"
    },
    {
      "inputs": [],
      "name": "swapOceanFee",
      "outputs": [
        {
          "internalType": "uint256",
          "name": "",
          "type": "uint256"
        }
      ],
      "stateMutability": "view",
      "type": "function"
    },
    {
      "inputs": [
        {
          "internalType": "uint256",
          "name": "_newSwapOceanFee",
          "type": "uint256"
        }
      ],
      "name": "updateOPFFee",
      "outputs": [],
      "stateMutability": "nonpayable",
      "type": "function"
    }
  ],
  "bytecode": "0x608060405266038d7ea4c680006005553480156200001c57600080fd5b506040516200369a3803806200369a8339810160408190526200003f91620003bc565b8282826001600160a01b038316620000b45760405162461bcd60e51b815260206004820152602d60248201527f42466163746f72793a20696e76616c69642062706f6f6c2074656d706c61746560448201526c207a65726f206164647265737360981b60648201526084015b60405180910390fd5b6001600160a01b0382166200010c5760405162461bcd60e51b815260206004820152601660248201527f42466163746f72793a207a65726f2061646472657373000000000000000000006044820152606401620000ab565b600080546001600160a01b0319166001600160a01b03841617905562000153836001600160a01b03166000908152600160208190526040909120805460ff19169091179055565b805115620002025760005b8151811015620002005760006001600160a01b0316336001600160a01b0316838381518110620001925762000192620004dc565b602090810291909101810151604080516000808252938101849052908101929092526001600160a01b0316907fbb6121447d29a04cc37bfd93cdf6a9dd08229f2d941116c1528f04698c4e790e9060600160405180910390a480620001f781620004f2565b9150506200015e565b505b5050506001600160a01b038516620002695760405162461bcd60e51b815260206004820152602360248201527f466163746f7279526f757465723a20496e76616c696420726f75746572206f776044820152623732b960e91b6064820152608401620000ab565b6001600160a01b038216620002cd5760405162461bcd60e51b815260206004820152602360248201527f466163746f7279526f757465723a20496e76616c6964206f7066436f6c6c65636044820152623a37b960e91b6064820152608401620000ab565b6001600160a01b038416620003385760405162461bcd60e51b815260206004820152602a60248201527f466163746f7279526f757465723a20496e76616c6964204f6365616e20546f6b604482015269656e206164647265737360b01b6064820152608401620000ab565b50600280546001600160a01b03199081166001600160a01b039687161790915560008054909116918516919091178155919092168152600660205260409020805460ff19166001179055506200051c565b80516001600160a01b0381168114620003a157600080fd5b919050565b634e487b7160e01b600052604160045260246000fd5b600080600080600060a08688031215620003d557600080fd5b620003e08662000389565b94506020620003f181880162000389565b9450620004016040880162000389565b9350620004116060880162000389565b60808801519093506001600160401b03808211156200042f57600080fd5b818901915089601f8301126200044457600080fd5b815181811115620004595762000459620003a6565b8060051b604051601f19603f83011681018181108582111715620004815762000481620003a6565b60405291825284820192508381018501918c831115620004a057600080fd5b938501935b82851015620004c957620004b98562000389565b84529385019392850192620004a5565b8096505050505050509295509295909350565b634e487b7160e01b600052603260045260246000fd5b60006000198214156200051557634e487b7160e01b600052601160045260246000fd5b5060010190565b61316e806200052c6000396000f3fe608060405234801561001057600080fd5b50600436106102745760003560e01c8063b19aaac611610151578063d86850cc116100c3578063e525f99c11610087578063e525f99c14610511578063ec09302114610524578063ecdda5881461052c578063ee3bc6351461053f578063ee661f6714610552578063f8154aee1461057557600080fd5b8063d86850cc146104bf578063de9a95a7146104e2578063e183fb3f146104f5578063e193faad146104fe578063e4a28a521461028e57600080fd5b8063c07c00fe11610115578063c07c00fe14610452578063c1c436a51461047e578063c36596a6146102d7578063c45a015514610491578063c6580d12146104a4578063d629a00a146104ac57600080fd5b8063b19aaac614610427578063b7b800a41461041f578063ba019dab1461043a578063bc063e1a14610442578063bc694ea21461044a57600080fd5b8063802d1422116101ea578063992e2a92116101ae578063992e2a92146103bb5780639cdfa6ad146103c35780639f2c010a146103d65780639f587d4d146103e9578063a28f78f11461040c578063b0e0d1361461041f57600080fd5b8063802d14221461035a57806382449375146103855780638552730a14610398578063867378c5146103ab5780639381cd2b146103b357600080fd5b8063218b53821161023c578063218b5382146102d757806329ce1ec5146102e657806347e14094146102f95780636c9fb6121461030c57806376c7a3c71461031f57806379463a0e1461032757600080fd5b80630318ad661461027957806309a3bbe41461028e57806316592614146102a957806316d9cb3d146102bc578063189d00ca146102cf575b600080fd5b61028c610287366004612844565b610588565b005b61029661062e565b6040519081526020015b60405180910390f35b61028c6102b7366004612844565b610644565b61028c6102ca366004612844565b6106de565b61029661077b565b610296670de0b6b3a764000081565b61028c6102f4366004612844565b610792565b61028c610307366004612844565b6108bd565b61028c61031a366004612844565b610957565b6102966109f4565b61034a610335366004612844565b60066020526000908152604090205460ff1681565b60405190151581526020016102a0565b60045461036d906001600160a01b031681565b6040516001600160a01b0390911681526020016102a0565b6102966103933660046128ad565b610a09565b60025461036d906001600160a01b031681565b610296610b8e565b610296610ba5565b610296610bb8565b61028c6103d1366004612844565b610bd6565b61028c6103e4366004612844565b610c70565b61034a6103f7366004612844565b60086020526000908152604090205460ff1681565b60005461036d906001600160a01b031681565b610296600281565b61028c610435366004612844565b610d0a565b610296600181565b610296610d98565b610296610dab565b61034a610460366004612844565b6001600160a01b031660009081526001602052604090205460ff1690565b61028c61048c366004612930565b610dca565b60035461036d906001600160a01b031681565b610296600081565b61028c6104ba366004612949565b610e31565b61034a6104cd366004612844565b60096020526000908152604090205460ff1681565b61028c6104f0366004612844565b610fb4565b61029660055481565b61028c61050c366004612844565b611051565b61028c61051f366004612844565b6110d9565b6102966111a5565b61028c61053a3660046129b9565b6111b8565b61036d61054d366004612a2f565b611cc4565b61034a610560366004612844565b60076020526000908152604090205460ff1681565b610296610583366004612844565b6120bc565b6002546001600160a01b031633146105bb5760405162461bcd60e51b81526004016105b290612adf565b60405180910390fd5b6001600160a01b0381166105e15760405162461bcd60e51b81526004016105b290612b0f565b6001600160a01b038116600081815260066020526040808220805460ff191660011790555133917fdffbd9ded1c09446f09377de547142dcce7dc541c8b0b028142b1eba7026b9e791a350565b610641670de0b6b3a76400006032612b6f565b81565b6002546001600160a01b0316331461066e5760405162461bcd60e51b81526004016105b290612adf565b6001600160a01b0381166106945760405162461bcd60e51b81526004016105b290612b8e565b6001600160a01b038116600081815260096020526040808220805460ff191690555133917f63fe522dcdc5f006279afe8840a87398bb3d0dbb906b848866195859621908b391a350565b6002546001600160a01b031633146107085760405162461bcd60e51b81526004016105b290612adf565b6001600160a01b03811661072e5760405162461bcd60e51b81526004016105b290612bd7565b6001600160a01b038116600081815260086020526040808220805460ff191660011790555133917f45ccb9b9d6b112eb7a38daf6a23bda8b4c8449d5cf64a034975a5beb8cdd37b391a350565b6106416402540be400670de0b6b3a7640000612c20565b6002546001600160a01b031633146107bc5760405162461bcd60e51b81526004016105b290612adf565b6001600160a01b0381166108225760405162461bcd60e51b815260206004820152602760248201527f466163746f7279526f757465723a20496e76616c6964205f666163746f7279206044820152666164647265737360c81b60648201526084016105b2565b6003546001600160a01b0316156108715760405162461bcd60e51b8152602060048201526013602482015272119050d513d49648105314915051164814d155606a1b60448201526064016105b2565b600380546001600160a01b0319166001600160a01b03831690811790915560405133907f1f869f1ddaa0e2e3652252b3394c05c805f54a0d5f7fb6975f785ae4f91e587190600090a350565b6002546001600160a01b031633146108e75760405162461bcd60e51b81526004016105b290612adf565b6001600160a01b03811661090d5760405162461bcd60e51b81526004016105b290612c42565b6001600160a01b038116600081815260076020526040808220805460ff191690555133917f7df5d17d768be6563796784637c80bc9204e2af0bc4ba8630f5aa2fed96ea48791a350565b6002546001600160a01b031633146109815760405162461bcd60e51b81526004016105b290612adf565b6001600160a01b0381166109a75760405162461bcd60e51b81526004016105b290612c42565b6001600160a01b038116600081815260076020526040808220805460ff191660011790555133917fcef3ce01f85c030161b431114e41e463297b68f169c1013c526b1cbc5747e54491a350565b610641620f4240670de0b6b3a7640000612c20565b60035460405163226e761560e01b81523360048201526000916001600160a01b03169063226e761590602401602060405180830381865afa158015610a52573d6000803e3d6000fd5b505050506040513d601f19601f82011682018060405250810190610a769190612c9c565b610a925760405162461bcd60e51b81526004016105b290612cb7565b6001600160a01b03861660009081526008602052604090205460ff16610b0d5760405162461bcd60e51b815260206004820152602a60248201527f464143544f525920524f555445523a20496e76616c696420466978656450726960448201526918d950dbdb9d1c9858dd60b21b60648201526084016105b2565b60405163012c327560e01b81526001600160a01b0387169063012c327590610b419033908990899089908990600401612d02565b6020604051808303816000875af1158015610b60573d6000803e3d6000fd5b505050506040513d601f19601f82011682018060405250810190610b849190612d91565b9695505050505050565b61064164e8d4a51000670de0b6b3a7640000612c20565b610641670de0b6b3a76400006064612b6f565b610bcb6003670de0b6b3a7640000612c20565b610641906001612daa565b6002546001600160a01b03163314610c005760405162461bcd60e51b81526004016105b290612adf565b6001600160a01b038116610c265760405162461bcd60e51b81526004016105b290612b0f565b6001600160a01b038116600081815260066020526040808220805460ff191690555133917fbbe55b1ff108e23e5ff1a6f5d36946eec15ec0ca0ded2bfed4cdcf697ca9046091a350565b6002546001600160a01b03163314610c9a5760405162461bcd60e51b81526004016105b290612adf565b6001600160a01b038116610cc05760405162461bcd60e51b81526004016105b290612bd7565b6001600160a01b038116600081815260086020526040808220805460ff191690555133917ff1ec0697329a2e8de8cf055335547acc40fbace8712fc77aeea1ea2afbcf7e3b91a350565b6002546001600160a01b03163314610d345760405162461bcd60e51b81526004016105b290612adf565b610d5f816001600160a01b03166000908152600160208190526040909120805460ff19169091179055565b6040516001600160a01b0382169033907fc3674c32cbec94fe266aab7ef71f65b9bf77e1ed501d4f2bece8752f5352e9ac90600090a350565b610641600a670de0b6b3a7640000612c20565b6001610dc0670de0b6b3a76400006002612b6f565b6106419190612dc2565b6002546001600160a01b03163314610df45760405162461bcd60e51b81526004016105b290612adf565b600581905560405181815233907faacba7241fc949e401522d9591e2686bc54ecd5c340c571e85c45fdb57dc87389060200160405180910390a250565b60035460405163226e761560e01b81523360048201526001600160a01b039091169063226e761590602401602060405180830381865afa158015610e79573d6000803e3d6000fd5b505050506040513d601f19601f82011682018060405250810190610e9d9190612c9c565b610eb95760405162461bcd60e51b81526004016105b290612cb7565b6001600160a01b03861660009081526009602052604090205460ff16610f335760405162461bcd60e51b815260206004820152602960248201527f464143544f525920524f555445523a20496e76616c69642044697370656e73656044820152681c90dbdb9d1c9858dd60ba1b60648201526084016105b2565b6040516324ce291760e01b81526001600160a01b0386811660048301526024820186905260448201859052838116606483015282811660848301528716906324ce29179060a401600060405180830381600087803b158015610f9457600080fd5b505af1158015610fa8573d6000803e3d6000fd5b50505050505050505050565b6002546001600160a01b03163314610fde5760405162461bcd60e51b81526004016105b290612adf565b6001600160a01b0381166110045760405162461bcd60e51b81526004016105b290612b8e565b6001600160a01b038116600081815260096020526040808220805460ff191660011790555133917f78be9d87a7b2c8707b044dbf5b04c3f747b692c55ec34dcd1d7357736478789c91a350565b6002546001600160a01b0316331461107b5760405162461bcd60e51b81526004016105b290612adf565b6110a0816001600160a01b03166000908152600160205260409020805460ff19169055565b6040516001600160a01b0382169033907fc73fd5d40669565e257cbcd153784617ef26acfcc9fead31e68c0dce3ce82fb290600090a350565b6002546001600160a01b031633146111035760405162461bcd60e51b81526004016105b290612adf565b6001600160a01b0381166111595760405162461bcd60e51b815260206004820152601860248201527f496e76616c6964206e657720726f75746572206f776e6572000000000000000060448201526064016105b2565b600280546001600160a01b0319166001600160a01b03831690811790915560405133907fc736654a613824c69968e0ec25ac1a428ccd49e15c28e97b5dfd2c6059757e2a90600090a350565b6106416002670de0b6b3a7640000612c20565b60328111156112145760405162461bcd60e51b815260206004820152602260248201527f466163746f7279526f757465723a20546f6f204d616e79204f7065726174696f6044820152616e7360f01b60648201526084016105b2565b60005b81811015611cbf576000604051806060016040528085858581811061123e5761123e612dd9565b9050610140020160600160208101906112579190612844565b6001600160a01b0316815260200185858581811061127757611277612dd9565b9050610140020160a00160208101906112909190612844565b6001600160a01b031681526020018585858181106112b0576112b0612dd9565b905061014002016101200160208101906112ca9190612844565b6001600160a01b03166001600160a01b031681525090506000604051806080016040528086868681811061130057611300612dd9565b9050610140020160800135815260200186868681811061132257611322612dd9565b9050610140020160c00135815260200186868681811061134457611344612dd9565b9050610140020160e00135815260200186868681811061136657611366612dd9565b90506101400201610100013581525090506000600381111561138a5761138a612def565b85858581811061139c5761139c612dd9565b9050610140020160400160208101906113b59190612e05565b60038111156113c6576113c6612def565b14156115955761142a33308787878181106113e3576113e3612dd9565b905061014002016080013588888881811061140057611400612dd9565b9050610140020160600160208101906114199190612844565b6001600160a01b03169291906120f2565b6114b085858581811061143f5761143f612dd9565b9050610140020160200160208101906114589190612844565b86868681811061146a5761146a612dd9565b905061014002016080013587878781811061148757611487612dd9565b9050610140020160600160208101906114a09190612844565b6001600160a01b03169190612163565b60008585858181106114c4576114c4612dd9565b9050610140020160200160208101906114dd9190612844565b6001600160a01b031663c421a3fc84846040518363ffffffff1660e01b815260040161150a929190612e26565b60408051808303816000875af1158015611528573d6000803e3d6000fd5b505050506040513d601f19601f8201168201806040525081019061154c9190612e8b565b50905061158f338288888881811061156657611566612dd9565b9050610140020160a001602081019061157f9190612844565b6001600160a01b03169190612215565b50611caa565b60018585858181106115a9576115a9612dd9565b9050610140020160400160208101906115c29190612e05565b60038111156115d3576115d3612def565b141561184e5760008585858181106115ed576115ed612dd9565b9050610140020160200160208101906116069190612844565b6001600160a01b031663caa0114887878781811061162657611626612dd9565b90506101400201606001602081019061163f9190612844565b88888881811061165157611651612dd9565b9050610140020160a001602081019061166a9190612844565b89898981811061167c5761167c612dd9565b9050610140020160c001358a8a8a81811061169957611699612dd9565b6040516001600160e01b031960e089901b1681526001600160a01b0396871660048201529590941660248601525060448401919091526101006101409092020101356064820152608401602060405180830381865afa158015611700573d6000803e3d6000fd5b505050506040513d601f19601f820116820180604052508101906117249190612d91565b905061173e33308389898981811061140057611400612dd9565b61177f86868681811061175357611753612dd9565b90506101400201602001602081019061176c9190612844565b8288888881811061148757611487612dd9565b85858581811061179157611791612dd9565b9050610140020160200160208101906117aa9190612844565b6001600160a01b031663c98a59cf84846040518363ffffffff1660e01b81526004016117d7929190612e26565b60408051808303816000875af11580156117f5573d6000803e3d6000fd5b505050506040513d601f19601f820116820180604052508101906118199190612e8b565b505061158f3387878781811061183157611831612dd9565b9050610140020160c0013588888881811061156657611566612dd9565b600285858581811061186257611862612dd9565b90506101400201604001602081019061187b9190612e05565b600381111561188c5761188c612def565b1415611bc15760008585858181106118a6576118a6612dd9565b9050610140020160200160208101906118bf9190612844565b6001600160a01b0316634c87087d8787878181106118df576118df612dd9565b90506101400201600001356040518263ffffffff1660e01b815260040161190891815260200190565b61018060405180830381865afa158015611926573d6000803e3d6000fd5b505050506040513d601f19601f8201168201806040525081019061194a9190612eaf565b50505050505050505050915050600086868681811061196b5761196b612dd9565b9050610140020160200160208101906119849190612844565b6001600160a01b031663c99733a78888888181106119a4576119a4612dd9565b90506101400201600001358989898181106119c1576119c1612dd9565b9050610140020160c001356040518363ffffffff1660e01b81526004016119f2929190918252602082015260400190565b608060405180830381865afa158015611a0f573d6000803e3d6000fd5b505050506040513d601f19601f82011682018060405250810190611a339190612f63565b5050509050611a503330838a8a8a81811061140057611400612dd9565b611a91878787818110611a6557611a65612dd9565b905061014002016020016020810190611a7e9190612844565b8289898981811061148757611487612dd9565b868686818110611aa357611aa3612dd9565b905061014002016020016020810190611abc9190612844565b6001600160a01b031663825b5cd6888888818110611adc57611adc612dd9565b9050610140020160000135898989818110611af957611af9612dd9565b9050610140020160c001358a8a8a818110611b1657611b16612dd9565b6040516001600160e01b031960e088901b168152600481019590955260248501939093525060806101409092020101356044820152606401600060405180830381600087803b158015611b6857600080fd5b505af1158015611b7c573d6000803e3d6000fd5b50505050611bba33888888818110611b9657611b96612dd9565b9050610140020160c00135846001600160a01b03166122159092919063ffffffff16565b5050611caa565b848484818110611bd357611bd3612dd9565b905061014002016020016020810190611bec9190612844565b6001600160a01b0316631d746d83868686818110611c0c57611c0c612dd9565b9050610140020160a0016020810190611c259190612844565b878787818110611c3757611c37612dd9565b60405160e086901b6001600160e01b03191681526001600160a01b03949094166004850152610140029190910160c00135602483015250336044820152606401600060405180830381600087803b158015611c9157600080fd5b505af1158015611ca5573d6000803e3d6000fd5b505050505b50508080611cb790612f99565b915050611217565b505050565b60035460405163226e761560e01b81523360048201526000916001600160a01b03169063226e761590602401602060405180830381865afa158015611d0d573d6000803e3d6000fd5b505050506040513d601f19601f82011682018060405250810190611d319190612c9c565b611d4d5760405162461bcd60e51b81526004016105b290612cb7565b6007600084846000818110611d6457611d64612dd9565b9050602002016020810190611d799190612844565b6001600160a01b0316815260208101919091526040016000205460ff16611ded5760405162461bcd60e51b815260206004820152602260248201527f464143544f525920524f555445523a20696e76616c6964207373436f6e74726160448201526118dd60f21b60648201526084016105b2565b600087876001818110611e0257611e02612dd9565b9050602002013511611e475760405162461bcd60e51b815260206004820152600e60248201526d57726f6e6720646563696d616c7360901b60448201526064016105b2565b6000611e5960408a0160208b01612844565b9050611ee284846002818110611e7157611e71612dd9565b9050602002016020810190611e869190612844565b85856000818110611e9957611e99612dd9565b9050602002016020810190611eae9190612844565b8a8a6004818110611ec157611ec1612dd9565b90506020020135846001600160a01b03166120f2909392919063ffffffff16565b604080518082018252600091611fa591908c90600290839083908082843760009201919091525050604080516020808e0282810182019093528d82529092508d918d9182919085019084908082843760009201919091525050604080516020808e0282810182019093528d82529093508d92508c91829185019084908082843760009201919091525050604080516020808d0282810182019093528c82529093508c92508b91829185019084908082843760009201919091525061224592505050565b90506001600160a01b038116611ff55760405162461bcd60e51b8152602060048201526015602482015274119052531151081513c81111541313d6481413d3d3605a1b60448201526064016105b2565b6006600061200960408d0160208e01612844565b6001600160a01b0316815260208101919091526040016000205460ff161561206f57604051600181526001600160a01b038216907f90279d7790471e260411db76079630dfaa838fc987d29ae7aa7dc1bcd773ef2e9060200160405180910390a26120af565b604051600081526001600160a01b038216907f90279d7790471e260411db76079630dfaa838fc987d29ae7aa7dc1bcd773ef2e9060200160405180910390a25b9998505050505050505050565b6001600160a01b03811660009081526006602052604081205460ff16156120e557506000919050565b505060055490565b919050565b6040516001600160a01b038085166024830152831660448201526064810182905261215d9085906323b872dd60e01b906084015b60408051601f198184030181529190526020810180516001600160e01b03166001600160e01b031990931692909217909152612550565b50505050565b604051636eb1769f60e11b81523060048201526001600160a01b038381166024830152600091839186169063dd62ed3e90604401602060405180830381865afa1580156121b4573d6000803e3d6000fd5b505050506040513d601f19601f820116820180604052508101906121d89190612d91565b6121e29190612daa565b6040516001600160a01b03851660248201526044810182905290915061215d90859063095ea7b360e01b90606401612126565b6040516001600160a01b038316602482015260448101829052611cbf90849063a9059cbb60e01b90606401612126565b6000600160008360058151811061225e5761225e612dd9565b6020908102919091018101516001600160a01b031682528101919091526040016000205460ff166122d15760405162461bcd60e51b815260206004820152601d60248201527f42466163746f72793a2057726f6e6720506f6f6c2054656d706c61746500000060448201526064016105b2565b60006040518060400160405280846004815181106122f1576122f1612dd9565b6020908102919091018101516001600160a01b03908116835260005416910152835190915061233a908490600590811061232d5761232d612dd9565b6020026020010151612622565b91506001600160a01b03821661239e5760405162461bcd60e51b8152602060048201526024808201527f42466163746f72793a20696e76616c69642062706f6f6c207a65726f206164646044820152637265737360e01b60648201526084016105b2565b6000829050806001600160a01b031663c070a6d8856000815181106123c5576123c5612dd9565b602002602001015130886000808d896040518863ffffffff1660e01b81526004016123f6979695949392919061301b565b6020604051808303816000875af1158015612415573d6000803e3d6000fd5b505050506040513d601f19601f820116820180604052508101906124399190612c9c565b61247c5760405162461bcd60e51b815260206004820152601460248201527311549497d253925512505312569157d09413d3d360621b60448201526064016105b2565b8360008151811061248f5761248f612dd9565b60200260200101516001600160a01b03166353f0c3b4886000600281106124b8576124b8612dd9565b6020020151896001602002015186886003815181106124d9576124d9612dd9565b60200260200101518b6040518663ffffffff1660e01b8152600401612502959493929190613081565b6020604051808303816000875af1158015612521573d6000803e3d6000fd5b505050506040513d601f19601f820116820180604052508101906125459190612c9c565b505050949350505050565b60006125a5826040518060400160405280602081526020017f5361666545524332303a206c6f772d6c6576656c2063616c6c206661696c6564815250856001600160a01b03166126b29092919063ffffffff16565b805190915015611cbf57808060200190518101906125c39190612c9c565b611cbf5760405162461bcd60e51b815260206004820152602a60248201527f5361666545524332303a204552433230206f7065726174696f6e20646964206e6044820152691bdd081cdd58d8d9595960b21b60648201526084016105b2565b6000808260601b9050604051733d602d80600a3d3981f3363d3d373d3d3d363d7360601b81528160148201526e5af43d82803e903d91602b57fd5bf360881b60288201526037816000f06040516001600160a01b03821681529093507f117c72e6c25f0a072e36e148df71468ce2f3dbe7defec5b2c257a6e3eb65278c915060200160405180910390a150919050565b60606126c184846000856126cb565b90505b9392505050565b60608247101561272c5760405162461bcd60e51b815260206004820152602660248201527f416464726573733a20696e73756666696369656e742062616c616e636520666f6044820152651c8818d85b1b60d21b60648201526084016105b2565b843b61277a5760405162461bcd60e51b815260206004820152601d60248201527f416464726573733a2063616c6c20746f206e6f6e2d636f6e747261637400000060448201526064016105b2565b600080866001600160a01b0316858760405161279691906130e9565b60006040518083038185875af1925050503d80600081146127d3576040519150601f19603f3d011682016040523d82523d6000602084013e6127d8565b606091505b50915091506127e88282866127f3565b979650505050505050565b606083156128025750816126c4565b8251156128125782518084602001fd5b8160405162461bcd60e51b81526004016105b29190613105565b6001600160a01b038116811461284157600080fd5b50565b60006020828403121561285657600080fd5b81356126c48161282c565b60008083601f84011261287357600080fd5b50813567ffffffffffffffff81111561288b57600080fd5b6020830191508360208260051b85010111156128a657600080fd5b9250929050565b6000806000806000606086880312156128c557600080fd5b85356128d08161282c565b9450602086013567ffffffffffffffff808211156128ed57600080fd5b6128f989838a01612861565b9096509450604088013591508082111561291257600080fd5b5061291f88828901612861565b969995985093965092949392505050565b60006020828403121561294257600080fd5b5035919050565b60008060008060008060c0878903121561296257600080fd5b863561296d8161282c565b9550602087013561297d8161282c565b94506040870135935060608701359250608087013561299b8161282c565b915060a08701356129ab8161282c565b809150509295509295509295565b600080602083850312156129cc57600080fd5b823567ffffffffffffffff808211156129e457600080fd5b818501915085601f8301126129f857600080fd5b813581811115612a0757600080fd5b86602061014083028501011115612a1d57600080fd5b60209290920196919550909350505050565b600080600080600080600060a0888a031215612a4a57600080fd5b6040880189811115612a5b57600080fd5b8897503567ffffffffffffffff80821115612a7557600080fd5b612a818b838c01612861565b909850965060608a0135915080821115612a9a57600080fd5b612aa68b838c01612861565b909650945060808a0135915080821115612abf57600080fd5b50612acc8a828b01612861565b989b979a50959850939692959293505050565b60208082526016908201527527b1b2b0b72937baba32b91d102727aa1027aba722a960511b604082015260600190565b6020808252602a908201527f466163746f7279526f757465723a20496e76616c6964204f6365616e20546f6b604082015269656e206164647265737360b01b606082015260800190565b634e487b7160e01b600052601160045260246000fd5b6000816000190483118215151615612b8957612b89612b59565b500290565b60208082526029908201527f466163746f7279526f757465723a20496e76616c6964205f64697370656e736560408201526872206164647265737360b81b606082015260800190565b60208082526029908201527f466163746f7279526f757465723a20496e76616c6964205f666978656452617460408201526865206164647265737360b81b606082015260800190565b600082612c3d57634e487b7160e01b600052601260045260246000fd5b500490565b6020808252602a908201527f466163746f7279526f757465723a20496e76616c6964205f7373436f6e7472616040820152696374206164647265737360b01b606082015260800190565b805180151581146120ed57600080fd5b600060208284031215612cae57600080fd5b6126c482612c8c565b6020808252602b908201527f464143544f525920524f555445523a204e4f54204f524947494e414c2045524360408201526a32302054454d504c41544560a81b606082015260800190565b6001600160a01b03868116825260606020808401829052908301869052600091879160808501845b89811015612d51578435612d3d8161282c565b841682529382019390820190600101612d2a565b5085810360408701528681526001600160fb1b03871115612d7157600080fd5b8660051b9350838883830137600093010191825250979650505050505050565b600060208284031215612da357600080fd5b5051919050565b60008219821115612dbd57612dbd612b59565b500190565b600082821015612dd457612dd4612b59565b500390565b634e487b7160e01b600052603260045260246000fd5b634e487b7160e01b600052602160045260246000fd5b600060208284031215612e1757600080fd5b8135600481106126c457600080fd5b60e08101818460005b6003811015612e575781516001600160a01b0316835260209283019290910190600101612e2f565b505050606082018360005b6004811015612e81578151835260209283019290910190600101612e62565b5050509392505050565b60008060408385031215612e9e57600080fd5b505080516020909101519092909150565b6000806000806000806000806000806000806101808d8f031215612ed257600080fd5b8c51612edd8161282c565b60208e0151909c50612eee8161282c565b60408e015160608f0151919c509a50612f068161282c565b60808e015160a08f0151919a5098509650612f2360c08e01612c8c565b955060e08d015194506101008d015193506101208d015192506101408d01519150612f516101608e01612c8c565b90509295989b509295989b509295989b565b60008060008060808587031215612f7957600080fd5b505082516020840151604085015160609095015191969095509092509050565b6000600019821415612fad57612fad612b59565b5060010190565b600081518084526020808501945080840160005b83811015612fe457815187529582019590820190600101612fc8565b509495945050505050565b8060005b600281101561215d5781516001600160a01b0316845260209384019390910190600101612ff3565b6001600160a01b038881168252871660208201526101206040820181905260009061304883820189612fb4565b9150508515156060830152841515608083015261306860a0830185612fef565b61307560e0830184612fef565b98975050505050505050565b6001600160a01b038681168252858116602083015284811660408301528316606082015260a0608082018190526000906127e890830184612fb4565b60005b838110156130d85781810151838201526020016130c0565b8381111561215d5750506000910152565b600082516130fb8184602087016130bd565b9190910192915050565b60208152600082518060208401526131248160408501602087016130bd565b601f01601f1916919091016040019291505056fea2646970667358221220ce2d7833bf1f1217d379dd680ba9e505dd815bfe88070670cc4e0ea6b50384eb64736f6c634300080a0033",
  "linkReferences": {},
  "deployedLinkReferences": {}
}