{
  "_format": "hh-sol-artifact-1",
  "contractName": "FactoryRouter",
  "sourceName": "contracts/pools/FactoryRouter.sol",
  "abi": [
    {
      "inputs": [
        {
          "internalType": "address",
          "name": "_routerOwner",
          "type": "address"
        },
        {
          "internalType": "address",
          "name": "_oceanToken",
          "type": "address"
        },
        {
          "internalType": "address",
          "name": "_bpoolTemplate",
          "type": "address"
        },
        {
          "internalType": "address",
          "name": "_opcCollector",
          "type": "address"
        },
        {
          "internalType": "address[]",
          "name": "_preCreatedPools",
          "type": "address[]"
        }
      ],
      "stateMutability": "nonpayable",
      "type": "constructor"
    },
    {
      "anonymous": false,
      "inputs": [
        {
          "indexed": true,
          "internalType": "address",
          "name": "newBPoolAddress",
          "type": "address"
        },
        {
          "indexed": true,
          "internalType": "address",
          "name": "registeredBy",
          "type": "address"
        },
        {
          "indexed": true,
          "internalType": "address",
          "name": "datatokenAddress",
          "type": "address"
        },
        {
          "indexed": false,
          "internalType": "address",
          "name": "baseTokenAddress",
          "type": "address"
        },
        {
          "indexed": false,
          "internalType": "address",
          "name": "bpoolTemplateAddress",
          "type": "address"
        },
        {
          "indexed": false,
          "internalType": "address",
          "name": "ssAddress",
          "type": "address"
        }
      ],
      "name": "BPoolCreated",
      "type": "event"
    },
    {
      "anonymous": false,
      "inputs": [
        {
          "indexed": true,
          "internalType": "address",
          "name": "caller",
          "type": "address"
        },
        {
          "indexed": true,
          "internalType": "address",
          "name": "contractAddress",
          "type": "address"
        }
      ],
      "name": "DispenserContractAdded",
      "type": "event"
    },
    {
      "anonymous": false,
      "inputs": [
        {
          "indexed": true,
          "internalType": "address",
          "name": "caller",
          "type": "address"
        },
        {
          "indexed": true,
          "internalType": "address",
          "name": "contractAddress",
          "type": "address"
        }
      ],
      "name": "DispenserContractRemoved",
      "type": "event"
    },
    {
      "anonymous": false,
      "inputs": [
        {
          "indexed": true,
          "internalType": "address",
          "name": "caller",
          "type": "address"
        },
        {
          "indexed": true,
          "internalType": "address",
          "name": "contractAddress",
          "type": "address"
        }
      ],
      "name": "FactoryContractChanged",
      "type": "event"
    },
    {
      "anonymous": false,
      "inputs": [
        {
          "indexed": true,
          "internalType": "address",
          "name": "caller",
          "type": "address"
        },
        {
          "indexed": true,
          "internalType": "address",
          "name": "contractAddress",
          "type": "address"
        }
      ],
      "name": "FixedRateContractAdded",
      "type": "event"
    },
    {
      "anonymous": false,
      "inputs": [
        {
          "indexed": true,
          "internalType": "address",
          "name": "caller",
          "type": "address"
        },
        {
          "indexed": true,
          "internalType": "address",
          "name": "contractAddress",
          "type": "address"
        }
      ],
      "name": "FixedRateContractRemoved",
      "type": "event"
    },
    {
      "anonymous": false,
      "inputs": [
        {
          "indexed": false,
          "internalType": "address",
          "name": "instance",
          "type": "address"
        }
      ],
      "name": "InstanceDeployed",
      "type": "event"
    },
    {
      "anonymous": false,
      "inputs": [
        {
          "indexed": true,
          "internalType": "address",
          "name": "poolAddress",
          "type": "address"
        },
        {
          "indexed": false,
          "internalType": "bool",
          "name": "isOcean",
          "type": "bool"
        }
      ],
      "name": "NewPool",
      "type": "event"
    },
    {
      "anonymous": false,
      "inputs": [
        {
          "indexed": true,
          "internalType": "address",
          "name": "caller",
          "type": "address"
        },
        {
          "indexed": false,
          "internalType": "uint256",
          "name": "newSwapOceanFee",
          "type": "uint256"
        },
        {
          "indexed": false,
          "internalType": "uint256",
          "name": "newSwapNonOceanFee",
          "type": "uint256"
        },
        {
          "indexed": false,
          "internalType": "uint256",
          "name": "newConsumeFee",
          "type": "uint256"
        },
        {
          "indexed": false,
          "internalType": "uint256",
          "name": "newProviderFee",
          "type": "uint256"
        }
      ],
      "name": "OPCFeeChanged",
      "type": "event"
    },
    {
      "anonymous": false,
      "inputs": [
        {
          "indexed": true,
          "internalType": "address",
          "name": "caller",
          "type": "address"
        },
        {
          "indexed": true,
          "internalType": "address",
          "name": "contractAddress",
          "type": "address"
        }
      ],
      "name": "PoolTemplateAdded",
      "type": "event"
    },
    {
      "anonymous": false,
      "inputs": [
        {
          "indexed": true,
          "internalType": "address",
          "name": "caller",
          "type": "address"
        },
        {
          "indexed": true,
          "internalType": "address",
          "name": "contractAddress",
          "type": "address"
        }
      ],
      "name": "PoolTemplateRemoved",
      "type": "event"
    },
    {
      "anonymous": false,
      "inputs": [
        {
          "indexed": true,
          "internalType": "address",
          "name": "caller",
          "type": "address"
        },
        {
          "indexed": true,
          "internalType": "address",
          "name": "newRouter",
          "type": "address"
        }
      ],
      "name": "RouterChanged",
      "type": "event"
    },
    {
      "anonymous": false,
      "inputs": [
        {
          "indexed": true,
          "internalType": "address",
          "name": "caller",
          "type": "address"
        },
        {
          "indexed": true,
          "internalType": "address",
          "name": "contractAddress",
          "type": "address"
        }
      ],
      "name": "SSContractAdded",
      "type": "event"
    },
    {
      "anonymous": false,
      "inputs": [
        {
          "indexed": true,
          "internalType": "address",
          "name": "caller",
          "type": "address"
        },
        {
          "indexed": true,
          "internalType": "address",
          "name": "contractAddress",
          "type": "address"
        }
      ],
      "name": "SSContractRemoved",
      "type": "event"
    },
    {
      "anonymous": false,
      "inputs": [
        {
          "indexed": true,
          "internalType": "address",
          "name": "caller",
          "type": "address"
        },
        {
          "indexed": true,
          "internalType": "address",
          "name": "token",
          "type": "address"
        }
      ],
      "name": "TokenAdded",
      "type": "event"
    },
    {
      "anonymous": false,
      "inputs": [
        {
          "indexed": true,
          "internalType": "address",
          "name": "caller",
          "type": "address"
        },
        {
          "indexed": true,
          "internalType": "address",
          "name": "token",
          "type": "address"
        }
      ],
      "name": "TokenRemoved",
      "type": "event"
    },
    {
      "anonymous": false,
      "inputs": [
        {
          "indexed": true,
          "internalType": "address",
          "name": "caller",
          "type": "address"
        },
        {
          "indexed": false,
          "internalType": "uint256",
          "name": "minVestingPeriodInBlocks",
          "type": "uint256"
        }
      ],
      "name": "VestingPeriodChanges",
      "type": "event"
    },
    {
      "inputs": [],
      "name": "BONE",
      "outputs": [
        {
          "internalType": "uint256",
          "name": "",
          "type": "uint256"
        }
      ],
      "stateMutability": "view",
      "type": "function"
    },
    {
      "inputs": [],
      "name": "BPOW_PRECISION",
      "outputs": [
        {
          "internalType": "uint256",
          "name": "",
          "type": "uint256"
        }
      ],
      "stateMutability": "view",
      "type": "function"
    },
    {
      "inputs": [],
      "name": "EXIT_FEE",
      "outputs": [
        {
          "internalType": "uint256",
          "name": "",
          "type": "uint256"
        }
      ],
      "stateMutability": "view",
      "type": "function"
    },
    {
      "inputs": [],
      "name": "INIT_POOL_SUPPLY",
      "outputs": [
        {
          "internalType": "uint256",
          "name": "",
          "type": "uint256"
        }
      ],
      "stateMutability": "view",
      "type": "function"
    },
    {
      "inputs": [],
      "name": "MAX_BOUND_TOKENS",
      "outputs": [
        {
          "internalType": "uint256",
          "name": "",
          "type": "uint256"
        }
      ],
      "stateMutability": "view",
      "type": "function"
    },
    {
      "inputs": [],
      "name": "MAX_BPOW_BASE",
      "outputs": [
        {
          "internalType": "uint256",
          "name": "",
          "type": "uint256"
        }
      ],
      "stateMutability": "view",
      "type": "function"
    },
    {
      "inputs": [],
      "name": "MAX_FEE",
      "outputs": [
        {
          "internalType": "uint256",
          "name": "",
          "type": "uint256"
        }
      ],
      "stateMutability": "view",
      "type": "function"
    },
    {
      "inputs": [],
      "name": "MAX_IN_RATIO",
      "outputs": [
        {
          "internalType": "uint256",
          "name": "",
          "type": "uint256"
        }
      ],
      "stateMutability": "view",
      "type": "function"
    },
    {
      "inputs": [],
      "name": "MAX_OUT_RATIO",
      "outputs": [
        {
          "internalType": "uint256",
          "name": "",
          "type": "uint256"
        }
      ],
      "stateMutability": "view",
      "type": "function"
    },
    {
      "inputs": [],
      "name": "MAX_TOTAL_WEIGHT",
      "outputs": [
        {
          "internalType": "uint256",
          "name": "",
          "type": "uint256"
        }
      ],
      "stateMutability": "view",
      "type": "function"
    },
    {
      "inputs": [],
      "name": "MAX_WEIGHT",
      "outputs": [
        {
          "internalType": "uint256",
          "name": "",
          "type": "uint256"
        }
      ],
      "stateMutability": "view",
      "type": "function"
    },
    {
      "inputs": [],
      "name": "MIN_BALANCE",
      "outputs": [
        {
          "internalType": "uint256",
          "name": "",
          "type": "uint256"
        }
      ],
      "stateMutability": "view",
      "type": "function"
    },
    {
      "inputs": [],
      "name": "MIN_BOUND_TOKENS",
      "outputs": [
        {
          "internalType": "uint256",
          "name": "",
          "type": "uint256"
        }
      ],
      "stateMutability": "view",
      "type": "function"
    },
    {
      "inputs": [],
      "name": "MIN_BPOW_BASE",
      "outputs": [
        {
          "internalType": "uint256",
          "name": "",
          "type": "uint256"
        }
      ],
      "stateMutability": "view",
      "type": "function"
    },
    {
      "inputs": [],
      "name": "MIN_FEE",
      "outputs": [
        {
          "internalType": "uint256",
          "name": "",
          "type": "uint256"
        }
      ],
      "stateMutability": "view",
      "type": "function"
    },
    {
      "inputs": [],
      "name": "MIN_WEIGHT",
      "outputs": [
        {
          "internalType": "uint256",
          "name": "",
          "type": "uint256"
        }
      ],
      "stateMutability": "view",
      "type": "function"
    },
    {
      "inputs": [
        {
          "internalType": "address",
          "name": "_dispenser",
          "type": "address"
        }
      ],
      "name": "addDispenserContract",
      "outputs": [],
      "stateMutability": "nonpayable",
      "type": "function"
    },
    {
      "inputs": [
        {
          "internalType": "address",
          "name": "_factory",
          "type": "address"
        }
      ],
      "name": "addFactory",
      "outputs": [],
      "stateMutability": "nonpayable",
      "type": "function"
    },
    {
      "inputs": [
        {
          "internalType": "address",
          "name": "_fixedRate",
          "type": "address"
        }
      ],
      "name": "addFixedRateContract",
      "outputs": [],
      "stateMutability": "nonpayable",
      "type": "function"
    },
    {
      "inputs": [
        {
          "internalType": "address",
          "name": "oceanTokenAddress",
          "type": "address"
        }
      ],
      "name": "addOceanToken",
      "outputs": [],
      "stateMutability": "nonpayable",
      "type": "function"
    },
    {
      "inputs": [
        {
          "internalType": "address",
          "name": "poolTemplate",
          "type": "address"
        }
      ],
      "name": "addPoolTemplate",
      "outputs": [],
      "stateMutability": "nonpayable",
      "type": "function"
    },
    {
      "inputs": [
        {
          "internalType": "address",
          "name": "_ssContract",
          "type": "address"
        }
      ],
      "name": "addSSContract",
      "outputs": [],
      "stateMutability": "nonpayable",
      "type": "function"
    },
    {
      "inputs": [
        {
          "components": [
            {
              "internalType": "bytes32",
              "name": "exchangeIds",
              "type": "bytes32"
            },
            {
              "internalType": "address",
              "name": "source",
              "type": "address"
            },
            {
              "internalType": "enum FactoryRouter.operationType",
              "name": "operation",
              "type": "uint8"
            },
            {
              "internalType": "address",
              "name": "tokenIn",
              "type": "address"
            },
            {
              "internalType": "uint256",
              "name": "amountsIn",
              "type": "uint256"
            },
            {
              "internalType": "address",
              "name": "tokenOut",
              "type": "address"
            },
            {
              "internalType": "uint256",
              "name": "amountsOut",
              "type": "uint256"
            },
            {
              "internalType": "uint256",
              "name": "maxPrice",
              "type": "uint256"
            },
            {
              "internalType": "uint256",
              "name": "swapMarketFee",
              "type": "uint256"
            },
            {
              "internalType": "address",
              "name": "marketFeeAddress",
              "type": "address"
            }
          ],
          "internalType": "struct FactoryRouter.Operations[]",
          "name": "_operations",
          "type": "tuple[]"
        }
      ],
      "name": "buyDTBatch",
      "outputs": [],
      "stateMutability": "nonpayable",
      "type": "function"
    },
    {
      "inputs": [
        {
          "internalType": "address",
          "name": "_routerOwner",
          "type": "address"
        }
      ],
      "name": "changeRouterOwner",
      "outputs": [],
      "stateMutability": "nonpayable",
      "type": "function"
    },
    {
      "inputs": [],
      "name": "consumeFee",
      "outputs": [
        {
          "internalType": "uint256",
          "name": "",
          "type": "uint256"
        }
      ],
      "stateMutability": "view",
      "type": "function"
    },
    {
      "inputs": [
        {
          "internalType": "address",
          "name": "_dispenser",
          "type": "address"
        },
        {
          "internalType": "address",
          "name": "datatoken",
          "type": "address"
        },
        {
          "internalType": "uint256",
          "name": "maxTokens",
          "type": "uint256"
        },
        {
          "internalType": "uint256",
          "name": "maxBalance",
          "type": "uint256"
        },
        {
          "internalType": "address",
          "name": "owner",
          "type": "address"
        },
        {
          "internalType": "address",
          "name": "allowedSwapper",
          "type": "address"
        }
      ],
      "name": "deployDispenser",
      "outputs": [],
      "stateMutability": "nonpayable",
      "type": "function"
    },
    {
      "inputs": [
        {
          "internalType": "address",
          "name": "fixedPriceAddress",
          "type": "address"
        },
        {
          "internalType": "address[]",
          "name": "addresses",
          "type": "address[]"
        },
        {
          "internalType": "uint256[]",
          "name": "uints",
          "type": "uint256[]"
        }
      ],
      "name": "deployFixedRate",
      "outputs": [
        {
          "internalType": "bytes32",
          "name": "exchangeId",
          "type": "bytes32"
        }
      ],
      "stateMutability": "nonpayable",
      "type": "function"
    },
    {
      "inputs": [
        {
          "internalType": "address[2]",
          "name": "tokens",
          "type": "address[2]"
        },
        {
          "internalType": "uint256[]",
          "name": "ssParams",
          "type": "uint256[]"
        },
        {
          "internalType": "uint256[]",
          "name": "swapFees",
          "type": "uint256[]"
        },
        {
          "internalType": "address[]",
          "name": "addresses",
          "type": "address[]"
        }
      ],
      "name": "deployPool",
      "outputs": [
        {
          "internalType": "address",
          "name": "",
          "type": "address"
        }
      ],
      "stateMutability": "nonpayable",
      "type": "function"
    },
    {
      "inputs": [
        {
          "internalType": "uint256",
          "name": "",
          "type": "uint256"
        }
      ],
      "name": "dispensers",
      "outputs": [
        {
          "internalType": "address",
          "name": "",
          "type": "address"
        }
      ],
      "stateMutability": "view",
      "type": "function"
    },
    {
      "inputs": [],
      "name": "factory",
      "outputs": [
        {
          "internalType": "address",
          "name": "",
          "type": "address"
        }
      ],
      "stateMutability": "view",
      "type": "function"
    },
    {
      "inputs": [],
      "name": "fixedRate",
      "outputs": [
        {
          "internalType": "address",
          "name": "",
          "type": "address"
        }
      ],
      "stateMutability": "view",
      "type": "function"
    },
    {
      "inputs": [
        {
          "internalType": "uint256",
          "name": "",
          "type": "uint256"
        }
      ],
      "name": "fixedrates",
      "outputs": [
        {
          "internalType": "address",
          "name": "",
          "type": "address"
        }
      ],
      "stateMutability": "view",
      "type": "function"
    },
    {
      "inputs": [],
      "name": "getDispensersContracts",
      "outputs": [
        {
          "internalType": "address[]",
          "name": "",
          "type": "address[]"
        }
      ],
      "stateMutability": "view",
      "type": "function"
    },
    {
      "inputs": [],
      "name": "getFixedRatesContracts",
      "outputs": [
        {
          "internalType": "address[]",
          "name": "",
          "type": "address[]"
        }
      ],
      "stateMutability": "view",
      "type": "function"
    },
    {
      "inputs": [],
      "name": "getMinVestingPeriod",
      "outputs": [
        {
          "internalType": "uint256",
          "name": "",
          "type": "uint256"
        }
      ],
      "stateMutability": "view",
      "type": "function"
    },
    {
      "inputs": [],
      "name": "getOPCConsumeFee",
      "outputs": [
        {
          "internalType": "uint256",
          "name": "",
          "type": "uint256"
        }
      ],
      "stateMutability": "view",
      "type": "function"
    },
    {
      "inputs": [
        {
          "internalType": "address",
          "name": "baseToken",
          "type": "address"
        }
      ],
      "name": "getOPCFee",
      "outputs": [
        {
          "internalType": "uint256",
          "name": "",
          "type": "uint256"
        }
      ],
      "stateMutability": "view",
      "type": "function"
    },
    {
      "inputs": [],
      "name": "getOPCFees",
      "outputs": [
        {
          "internalType": "uint256",
          "name": "",
          "type": "uint256"
        },
        {
          "internalType": "uint256",
          "name": "",
          "type": "uint256"
        }
      ],
      "stateMutability": "view",
      "type": "function"
    },
    {
      "inputs": [],
      "name": "getOPCProviderFee",
      "outputs": [
        {
          "internalType": "uint256",
          "name": "",
          "type": "uint256"
        }
      ],
      "stateMutability": "view",
      "type": "function"
    },
    {
      "inputs": [],
      "name": "getOceanTokens",
      "outputs": [
        {
          "internalType": "address[]",
          "name": "",
          "type": "address[]"
        }
      ],
      "stateMutability": "view",
      "type": "function"
    },
    {
      "inputs": [],
      "name": "getPoolTemplates",
      "outputs": [
        {
          "internalType": "address[]",
          "name": "",
          "type": "address[]"
        }
      ],
      "stateMutability": "view",
      "type": "function"
    },
    {
      "inputs": [],
      "name": "getSSContracts",
      "outputs": [
        {
          "internalType": "address[]",
          "name": "",
          "type": "address[]"
        }
      ],
      "stateMutability": "view",
      "type": "function"
    },
    {
      "inputs": [
        {
          "internalType": "address",
          "name": "_dispenser",
          "type": "address"
        }
      ],
      "name": "isDispenserContract",
      "outputs": [
        {
          "internalType": "bool",
          "name": "",
          "type": "bool"
        }
      ],
      "stateMutability": "view",
      "type": "function"
    },
    {
      "inputs": [
        {
          "internalType": "address",
          "name": "_fixedRate",
          "type": "address"
        }
      ],
      "name": "isFixedRateContract",
      "outputs": [
        {
          "internalType": "bool",
          "name": "",
          "type": "bool"
        }
      ],
      "stateMutability": "view",
      "type": "function"
    },
    {
      "inputs": [
        {
          "internalType": "address",
          "name": "oceanTokenAddress",
          "type": "address"
        }
      ],
      "name": "isOceanToken",
      "outputs": [
        {
          "internalType": "bool",
          "name": "",
          "type": "bool"
        }
      ],
      "stateMutability": "view",
      "type": "function"
    },
    {
      "inputs": [
        {
          "internalType": "address",
          "name": "poolTemplate",
          "type": "address"
        }
      ],
      "name": "isPoolTemplate",
      "outputs": [
        {
          "internalType": "bool",
          "name": "",
          "type": "bool"
        }
      ],
      "stateMutability": "view",
      "type": "function"
    },
    {
      "inputs": [
        {
          "internalType": "address",
          "name": "_ssContract",
          "type": "address"
        }
      ],
      "name": "isSSContract",
      "outputs": [
        {
          "internalType": "bool",
          "name": "",
          "type": "bool"
        }
      ],
      "stateMutability": "view",
      "type": "function"
    },
    {
      "inputs": [],
      "name": "minVestingPeriodInBlocks",
      "outputs": [
        {
          "internalType": "uint256",
          "name": "",
          "type": "uint256"
        }
      ],
      "stateMutability": "view",
      "type": "function"
    },
    {
      "inputs": [
        {
          "internalType": "uint256",
          "name": "",
          "type": "uint256"
        }
      ],
      "name": "oceanTokens",
      "outputs": [
        {
          "internalType": "address",
          "name": "",
          "type": "address"
        }
      ],
      "stateMutability": "view",
      "type": "function"
    },
    {
      "inputs": [],
      "name": "opcCollector",
      "outputs": [
        {
          "internalType": "address",
          "name": "",
          "type": "address"
        }
      ],
      "stateMutability": "view",
      "type": "function"
    },
    {
      "inputs": [
        {
          "internalType": "uint256",
          "name": "",
          "type": "uint256"
        }
      ],
      "name": "poolTemplates",
      "outputs": [
        {
          "internalType": "address",
          "name": "",
          "type": "address"
        }
      ],
      "stateMutability": "view",
      "type": "function"
    },
    {
      "inputs": [],
      "name": "providerFee",
      "outputs": [
        {
          "internalType": "uint256",
          "name": "",
          "type": "uint256"
        }
      ],
      "stateMutability": "view",
      "type": "function"
    },
    {
      "inputs": [
        {
          "internalType": "address",
          "name": "_dispenser",
          "type": "address"
        }
      ],
      "name": "removeDispenserContract",
      "outputs": [],
      "stateMutability": "nonpayable",
      "type": "function"
    },
    {
      "inputs": [
        {
          "internalType": "address",
          "name": "_fixedRate",
          "type": "address"
        }
      ],
      "name": "removeFixedRateContract",
      "outputs": [],
      "stateMutability": "nonpayable",
      "type": "function"
    },
    {
      "inputs": [
        {
          "internalType": "address",
          "name": "oceanTokenAddress",
          "type": "address"
        }
      ],
      "name": "removeOceanToken",
      "outputs": [],
      "stateMutability": "nonpayable",
      "type": "function"
    },
    {
      "inputs": [
        {
          "internalType": "address",
          "name": "poolTemplate",
          "type": "address"
        }
      ],
      "name": "removePoolTemplate",
      "outputs": [],
      "stateMutability": "nonpayable",
      "type": "function"
    },
    {
      "inputs": [
        {
          "internalType": "address",
          "name": "_ssContract",
          "type": "address"
        }
      ],
      "name": "removeSSContract",
      "outputs": [],
      "stateMutability": "nonpayable",
      "type": "function"
    },
    {
      "inputs": [],
      "name": "routerOwner",
      "outputs": [
        {
          "internalType": "address",
          "name": "",
          "type": "address"
        }
      ],
      "stateMutability": "view",
      "type": "function"
    },
    {
      "inputs": [
        {
          "internalType": "uint256",
          "name": "",
          "type": "uint256"
        }
      ],
      "name": "ssContracts",
      "outputs": [
        {
          "internalType": "address",
          "name": "",
          "type": "address"
        }
      ],
      "stateMutability": "view",
      "type": "function"
    },
    {
      "inputs": [],
      "name": "swapNonOceanFee",
      "outputs": [
        {
          "internalType": "uint256",
          "name": "",
          "type": "uint256"
        }
      ],
      "stateMutability": "view",
      "type": "function"
    },
    {
      "inputs": [],
      "name": "swapOceanFee",
      "outputs": [
        {
          "internalType": "uint256",
          "name": "",
          "type": "uint256"
        }
      ],
      "stateMutability": "view",
      "type": "function"
    },
    {
      "inputs": [
        {
          "internalType": "uint256",
          "name": "_newPeriod",
          "type": "uint256"
        }
      ],
      "name": "updateMinVestingPeriod",
      "outputs": [],
      "stateMutability": "nonpayable",
      "type": "function"
    },
    {
      "inputs": [
        {
          "internalType": "uint256",
          "name": "_newSwapOceanFee",
          "type": "uint256"
        },
        {
          "internalType": "uint256",
          "name": "_newSwapNonOceanFee",
          "type": "uint256"
        },
        {
          "internalType": "uint256",
          "name": "_newConsumeFee",
          "type": "uint256"
        },
        {
          "internalType": "uint256",
          "name": "_newProviderFee",
          "type": "uint256"
        }
      ],
      "name": "updateOPCFee",
      "outputs": [],
      "stateMutability": "nonpayable",
      "type": "function"
    }
  ],
  "bytecode": "0x608060405262250490600555600060065566038d7ea4c68000600755662386f26fc1000060085560006009553480156200003857600080fd5b50604051620046c1380380620046c18339810160408190526200005b9162000609565b8282826001600160a01b038316620000d05760405162461bcd60e51b815260206004820152602d60248201527f42466163746f72793a20696e76616c69642062706f6f6c2074656d706c61746560448201526c207a65726f206164647265737360981b60648201526084015b60405180910390fd5b6001600160a01b038216620001285760405162461bcd60e51b815260206004820152601660248201527f42466163746f72793a207a65726f2061646472657373000000000000000000006044820152606401620000c7565b600080546001600160a01b0319166001600160a01b0384161790556200014e8362000379565b805115620001fd5760005b8151811015620001fb5760006001600160a01b0316336001600160a01b03168383815181106200018d576200018d62000729565b602090810291909101810151604080516000808252938101849052908101929092526001600160a01b0316907fbb6121447d29a04cc37bfd93cdf6a9dd08229f2d941116c1528f04698c4e790e9060600160405180910390a480620001f2816200073f565b91505062000159565b505b5050506001600160a01b038516620002645760405162461bcd60e51b815260206004820152602360248201527f466163746f7279526f757465723a20496e76616c696420726f75746572206f776044820152623732b960e91b6064820152608401620000c7565b6001600160a01b038216620002c85760405162461bcd60e51b815260206004820152602360248201527f466163746f7279526f757465723a20496e76616c6964206f7063436f6c6c65636044820152623a37b960e91b6064820152608401620000c7565b6001600160a01b038416620003335760405162461bcd60e51b815260206004820152602a60248201527f466163746f7279526f757465723a20496e76616c6964204f6365616e20546f6b604482015269656e206164647265737360b01b6064820152608401620000c7565b600280546001600160a01b038088166001600160a01b03199283161790925560008054928516929091169190911790556200036e8462000470565b505050505062000769565b6001600160a01b038116620003e55760405162461bcd60e51b815260206004820152602b60248201527f466163746f7279526f757465723a20496e76616c696420706f6f6c54656d706c60448201526a617465206164647265737360a81b6064820152608401620000c7565b620003f081620004fb565b6200046d5760018054808201825560009182527fb10e2d527612073b26eecdfd717e6a320cf44b4afac2b0732d9fcbe2b7fa0cf60180546001600160a01b0319166001600160a01b038416908117909155604051909133917fc3674c32cbec94fe266aab7ef71f65b9bf77e1ed501d4f2bece8752f5352e9ac9190a35b50565b6200047b816200056d565b6200046d57600a805460018101825560009182527fc65a7bb8d6351c1cf70c95a316cc6a92839c986682d98bc35f958f4883f9d2a80180546001600160a01b0319166001600160a01b038416908117909155604051909133917fdffbd9ded1c09446f09377de547142dcce7dc541c8b0b028142b1eba7026b9e79190a350565b6000805b6001548110156200056457826001600160a01b0316600182815481106200052a576200052a62000729565b6000918252602090912001546001600160a01b031614156200054f5750600192915050565b806200055b816200073f565b915050620004ff565b50600092915050565b6000805b600a548110156200056457826001600160a01b0316600a82815481106200059c576200059c62000729565b6000918252602090912001546001600160a01b03161415620005c15750600192915050565b80620005cd816200073f565b91505062000571565b80516001600160a01b0381168114620005ee57600080fd5b919050565b634e487b7160e01b600052604160045260246000fd5b600080600080600060a086880312156200062257600080fd5b6200062d86620005d6565b945060206200063e818801620005d6565b94506200064e60408801620005d6565b93506200065e60608801620005d6565b60808801519093506001600160401b03808211156200067c57600080fd5b818901915089601f8301126200069157600080fd5b815181811115620006a657620006a6620005f3565b8060051b604051601f19603f83011681018181108582111715620006ce57620006ce620005f3565b60405291825284820192508381018501918c831115620006ed57600080fd5b938501935b8285101562000716576200070685620005d6565b84529385019392850192620006f2565b8096505050505050509295509295909350565b634e487b7160e01b600052603260045260246000fd5b60006000198214156200076257634e487b7160e01b600052601160045260246000fd5b5060010190565b613f4880620007796000396000f3fe608060405234801561001057600080fd5b50600436106103c55760003560e01c8063992e2a92116101ff578063c6580d121161011a578063e2bdeefa116100ad578063ecdda5881161007c578063ecdda58814610732578063ee3bc63514610745578063fca24bc614610758578063fdaa59bf1461076b57600080fd5b8063e2bdeefa1461070e578063e4a28a521461040f578063e525f99c14610717578063ec0930211461072a57600080fd5b8063dce2d0df116100e9578063dce2d0df146106c4578063de9a95a7146106df578063e183fb3f146106f2578063e193faad146106fb57600080fd5b8063c6580d1214610697578063c6e983d91461069f578063cb870cbf146106a8578063d629a00a146106b157600080fd5b8063b8421e2b11610192578063bfa04b8511610161578063bfa04b851461065e578063c07c00fe14610671578063c36596a61461049e578063c45a01551461068457600080fd5b8063b8421e2b14610633578063ba019dab14610646578063bc063e1a1461064e578063bc694ea21461065657600080fd5b8063b0e0d136116101ce578063b0e0d13614610605578063b19aaac61461060d578063b66806fb14610620578063b7b800a41461060557600080fd5b8063992e2a92146105cf5780639bc01b3c146105d75780639cdfa6ad146105df5780639f2c010a146105f257600080fd5b806347e14094116102ef57806376c7a3c711610282578063824493751161025157806382449375146105995780638552730a146105ac578063867378c5146105bf5780639381cd2b146105c757600080fd5b806376c7a3c7146105635780637cbf85bf1461056b5780637d28354d1461057e578063802d14221461058657600080fd5b80636c9fb612116102be5780636c9fb612146105225780636cdf90a114610535578063737e5ca0146105485780637521aff91461055057600080fd5b806347e14094146104ec57806350cbbe76146104ff578063510f3465146105125780636c45e8811461051a57600080fd5b806316d9cb3d1161036757806329ce1ec51161033657806329ce1ec5146104b5578063335b7fa2146104c857806346104ea8146104db578063475030c0146104e357600080fd5b806316d9cb3d14610483578063189d00ca14610496578063218b53821461049e578063241c7a6d146104ad57600080fd5b80631184e8d9116103a35780631184e8d91461042557806315c25dd51461044857806315d4c9eb1461045b578063165926141461047057600080fd5b80630318ad66146103ca57806303814238146103df57806309a3bbe41461040f575b600080fd5b6103dd6103d83660046135d3565b61077e565b005b6000546103f2906001600160a01b031681565b6040516001600160a01b0390911681526020015b60405180910390f35b6104176107bd565b604051908152602001610406565b6104386104333660046135d3565b6107d3565b6040519015158152602001610406565b6104386104563660046135d3565b61083d565b61046361089e565b60405161040691906135f0565b6103dd61047e3660046135d3565b610900565b6103dd6104913660046135d3565b610ac2565b610417610b9a565b610417670de0b6b3a764000081565b610463610bb1565b6103dd6104c33660046135d3565b610c11565b6103f26104d636600461363d565b610d3c565b610463610d66565b61041760055481565b6103dd6104fa3660046135d3565b610dc6565b6103f261050d36600461363d565b610f87565b600554610417565b600954610417565b6103dd6105303660046135d3565b610f97565b6104386105433660046135d3565b61106f565b6104636110d0565b6103dd61055e36600461363d565b611130565b610417611197565b6103f261057936600461363d565b6111ac565b600854610417565b6004546103f2906001600160a01b031681565b6104176105a73660046136a2565b6111bc565b6002546103f2906001600160a01b031681565b61041761132e565b610417611345565b610417611358565b610463611376565b6103dd6105ed3660046135d3565b6113d6565b6103dd6106003660046135d3565b6115da565b610417600281565b6103dd61061b3660046135d3565b61179b565b6103f261062e36600461363d565b6117ce565b6104176106413660046135d3565b6117de565b610417600181565b610417611803565b610417611816565b6103dd61066c366004613725565b611835565b61043861067f3660046135d3565b6118c3565b6003546103f2906001600160a01b031681565b610417600081565b61041760095481565b61041760075481565b6103dd6106bf366004613757565b611924565b60065460075460408051928352602083019190915201610406565b6103dd6106ed3660046135d3565b611a94565b61041760065481565b6103dd6107093660046135d3565b611b6c565b61041760085481565b6103dd6107253660046135d3565b611b9f565b610417611c6b565b6103dd6107403660046137c7565b611c7e565b6103f261075336600461383d565b61278a565b6104386107663660046135d3565b612b46565b6103f261077936600461363d565b612ba7565b6002546001600160a01b031633146107b15760405162461bcd60e51b81526004016107a8906138ed565b60405180910390fd5b6107ba81612bb7565b50565b6107d0670de0b6b3a76400006032613933565b81565b6000805b600a5481101561083457826001600160a01b0316600a82815481106107fe576107fe613952565b6000918252602090912001546001600160a01b031614156108225750600192915050565b8061082c81613968565b9150506107d7565b50600092915050565b6000805b600b5481101561083457826001600160a01b0316600b828154811061086857610868613952565b6000918252602090912001546001600160a01b0316141561088c5750600192915050565b8061089681613968565b915050610841565b6060600d8054806020026020016040519081016040528092919081815260200182805480156108f657602002820191906000526020600020905b81546001600160a01b031681526001909101906020018083116108d8575b5050505050905090565b6002546001600160a01b0316331461092a5760405162461bcd60e51b81526004016107a8906138ed565b6001600160a01b0381166109505760405162461bcd60e51b81526004016107a890613983565b60005b600d548110156109ac57816001600160a01b0316600d828154811061097a5761097a613952565b6000918252602090912001546001600160a01b0316141561099a576109ac565b806109a481613968565b915050610953565b600d54811015610abe57805b600d546109c7906001906139cc565b811015610a5257600d6109db8260016139e3565b815481106109eb576109eb613952565b600091825260209091200154600d80546001600160a01b039092169183908110610a1757610a17613952565b600091825260209091200180546001600160a01b0319166001600160a01b039290921691909117905580610a4a81613968565b9150506109b8565b50600d805480610a6457610a646139fb565b600082815260208120820160001990810180546001600160a01b03191690559091019091556040516001600160a01b0384169133917f63fe522dcdc5f006279afe8840a87398bb3d0dbb906b848866195859621908b39190a35b5050565b6002546001600160a01b03163314610aec5760405162461bcd60e51b81526004016107a8906138ed565b6001600160a01b038116610b125760405162461bcd60e51b81526004016107a890613a11565b610b1b8161106f565b6107ba57600c805460018101825560009182527fdf6966c971051c3d54ec59162606531493a51404a002842f56009d7e5cf4a8c70180546001600160a01b0319166001600160a01b038416908117909155604051909133917f45ccb9b9d6b112eb7a38daf6a23bda8b4c8449d5cf64a034975a5beb8cdd37b39190a350565b6107d06402540be400670de0b6b3a7640000613a5a565b606060018054806020026020016040519081016040528092919081815260200182805480156108f6576020028201919060005260206000209081546001600160a01b031681526001909101906020018083116108d8575050505050905090565b6002546001600160a01b03163314610c3b5760405162461bcd60e51b81526004016107a8906138ed565b6001600160a01b038116610ca15760405162461bcd60e51b815260206004820152602760248201527f466163746f7279526f757465723a20496e76616c6964205f666163746f7279206044820152666164647265737360c81b60648201526084016107a8565b6003546001600160a01b031615610cf05760405162461bcd60e51b8152602060048201526013602482015272119050d513d49648105314915051164814d155606a1b60448201526064016107a8565b600380546001600160a01b0319166001600160a01b03831690811790915560405133907f1f869f1ddaa0e2e3652252b3394c05c805f54a0d5f7fb6975f785ae4f91e587190600090a350565b600d8181548110610d4c57600080fd5b6000918252602090912001546001600160a01b0316905081565b6060600c8054806020026020016040519081016040528092919081815260200182805480156108f6576020028201919060005260206000209081546001600160a01b031681526001909101906020018083116108d8575050505050905090565b6002546001600160a01b03163314610df05760405162461bcd60e51b81526004016107a8906138ed565b6001600160a01b038116610e165760405162461bcd60e51b81526004016107a890613a7c565b60005b600b54811015610e7257816001600160a01b0316600b8281548110610e4057610e40613952565b6000918252602090912001546001600160a01b03161415610e6057610e72565b80610e6a81613968565b915050610e19565b600b54811015610abe57805b600b54610e8d906001906139cc565b811015610f1857600b610ea18260016139e3565b81548110610eb157610eb1613952565b600091825260209091200154600b80546001600160a01b039092169183908110610edd57610edd613952565b600091825260209091200180546001600160a01b0319166001600160a01b039290921691909117905580610f1081613968565b915050610e7e565b50600b805480610f2a57610f2a6139fb565b600082815260208120820160001990810180546001600160a01b03191690559091019091556040516001600160a01b0384169133917f7df5d17d768be6563796784637c80bc9204e2af0bc4ba8630f5aa2fed96ea4879190a35050565b60018181548110610d4c57600080fd5b6002546001600160a01b03163314610fc15760405162461bcd60e51b81526004016107a8906138ed565b6001600160a01b038116610fe75760405162461bcd60e51b81526004016107a890613a7c565b610ff08161083d565b6107ba57600b805460018101825560009182527f0175b7a638427703f0dbe7bb9bbf987a2551717b34e79f33b5b1008d1fa01db90180546001600160a01b0319166001600160a01b038416908117909155604051909133917fcef3ce01f85c030161b431114e41e463297b68f169c1013c526b1cbc5747e5449190a350565b6000805b600c5481101561083457826001600160a01b0316600c828154811061109a5761109a613952565b6000918252602090912001546001600160a01b031614156110be5750600192915050565b806110c881613968565b915050611073565b6060600b8054806020026020016040519081016040528092919081815260200182805480156108f6576020028201919060005260206000209081546001600160a01b031681526001909101906020018083116108d8575050505050905090565b6002546001600160a01b0316331461115a5760405162461bcd60e51b81526004016107a8906138ed565b600581905560405181815233907f5ee73342e684c0b848562c301fa2dc6b0146b266cfa12d4219fb04b316f7a4759060200160405180910390a250565b6107d0620f4240670de0b6b3a7640000613a5a565b600b8181548110610d4c57600080fd5b60035460405163226e761560e01b81523360048201526000916001600160a01b03169063226e761590602401602060405180830381865afa158015611205573d6000803e3d6000fd5b505050506040513d601f19601f820116820180604052508101906112299190613ad6565b6112455760405162461bcd60e51b81526004016107a890613af1565b61124e8661106f565b6112ad5760405162461bcd60e51b815260206004820152602a60248201527f464143544f525920524f555445523a20496e76616c696420466978656450726960448201526918d950dbdb9d1c9858dd60b21b60648201526084016107a8565b60405163012c327560e01b81526001600160a01b0387169063012c3275906112e19033908990899089908990600401613b3c565b6020604051808303816000875af1158015611300573d6000803e3d6000fd5b505050506040513d601f19601f820116820180604052508101906113249190613bcb565b9695505050505050565b6107d064e8d4a51000670de0b6b3a7640000613a5a565b6107d0670de0b6b3a76400006064613933565b61136b6003670de0b6b3a7640000613a5a565b6107d09060016139e3565b6060600a8054806020026020016040519081016040528092919081815260200182805480156108f6576020028201919060005260206000209081546001600160a01b031681526001909101906020018083116108d8575050505050905090565b6002546001600160a01b031633146114005760405162461bcd60e51b81526004016107a8906138ed565b6001600160a01b0381166114695760405162461bcd60e51b815260206004820152602a60248201527f466163746f7279526f757465723a20496e76616c6964204f6365616e20546f6b604482015269656e206164647265737360b01b60648201526084016107a8565b60005b600a548110156114c557816001600160a01b0316600a828154811061149357611493613952565b6000918252602090912001546001600160a01b031614156114b3576114c5565b806114bd81613968565b91505061146c565b600a54811015610abe57805b600a546114e0906001906139cc565b81101561156b57600a6114f48260016139e3565b8154811061150457611504613952565b600091825260209091200154600a80546001600160a01b03909216918390811061153057611530613952565b600091825260209091200180546001600160a01b0319166001600160a01b03929092169190911790558061156381613968565b9150506114d1565b50600a80548061157d5761157d6139fb565b600082815260208120820160001990810180546001600160a01b03191690559091019091556040516001600160a01b0384169133917fbbe55b1ff108e23e5ff1a6f5d36946eec15ec0ca0ded2bfed4cdcf697ca904609190a35050565b6002546001600160a01b031633146116045760405162461bcd60e51b81526004016107a8906138ed565b6001600160a01b03811661162a5760405162461bcd60e51b81526004016107a890613a11565b60005b600c5481101561168657816001600160a01b0316600c828154811061165457611654613952565b6000918252602090912001546001600160a01b0316141561167457611686565b8061167e81613968565b91505061162d565b600c54811015610abe57805b600c546116a1906001906139cc565b81101561172c57600c6116b58260016139e3565b815481106116c5576116c5613952565b600091825260209091200154600c80546001600160a01b0390921691839081106116f1576116f1613952565b600091825260209091200180546001600160a01b0319166001600160a01b03929092169190911790558061172481613968565b915050611692565b50600c80548061173e5761173e6139fb565b600082815260208120820160001990810180546001600160a01b03191690559091019091556040516001600160a01b0384169133917ff1ec0697329a2e8de8cf055335547acc40fbace8712fc77aeea1ea2afbcf7e3b9190a35050565b6002546001600160a01b031633146117c55760405162461bcd60e51b81526004016107a8906138ed565b6107ba81612c3f565b600c8181548110610d4c57600080fd5b60006117e9826107d3565b156117f657505060065490565b505060075490565b919050565b6107d0600a670de0b6b3a7640000613a5a565b600161182b670de0b6b3a76400006002613933565b6107d091906139cc565b6002546001600160a01b0316331461185f5760405162461bcd60e51b81526004016107a8906138ed565b600684905560078390556008829055600981905560408051858152602081018590529081018390526060810182905233907fe6171cf0506862c0a0185f8c21dca979859d4eb63186eff63f1b3dd14926be7b9060800160405180910390a250505050565b6000805b60015481101561083457826001600160a01b0316600182815481106118ee576118ee613952565b6000918252602090912001546001600160a01b031614156119125750600192915050565b8061191c81613968565b9150506118c7565b60035460405163226e761560e01b81523360048201526001600160a01b039091169063226e761590602401602060405180830381865afa15801561196c573d6000803e3d6000fd5b505050506040513d601f19601f820116820180604052508101906119909190613ad6565b6119ac5760405162461bcd60e51b81526004016107a890613af1565b6119b586612b46565b611a135760405162461bcd60e51b815260206004820152602960248201527f464143544f525920524f555445523a20496e76616c69642044697370656e73656044820152681c90dbdb9d1c9858dd60ba1b60648201526084016107a8565b6040516324ce291760e01b81526001600160a01b0386811660048301526024820186905260448201859052838116606483015282811660848301528716906324ce29179060a401600060405180830381600087803b158015611a7457600080fd5b505af1158015611a88573d6000803e3d6000fd5b50505050505050505050565b6002546001600160a01b03163314611abe5760405162461bcd60e51b81526004016107a8906138ed565b6001600160a01b038116611ae45760405162461bcd60e51b81526004016107a890613983565b611aed81612b46565b6107ba57600d805460018101825560009182527fd7b6990105719101dabeb77144f2a3385c8033acd3af97e9423a695e81ad1eb50180546001600160a01b0319166001600160a01b038416908117909155604051909133917f78be9d87a7b2c8707b044dbf5b04c3f747b692c55ec34dcd1d7357736478789c9190a350565b6002546001600160a01b03163314611b965760405162461bcd60e51b81526004016107a8906138ed565b6107ba81612d30565b6002546001600160a01b03163314611bc95760405162461bcd60e51b81526004016107a8906138ed565b6001600160a01b038116611c1f5760405162461bcd60e51b815260206004820152601860248201527f496e76616c6964206e657720726f75746572206f776e6572000000000000000060448201526064016107a8565b600280546001600160a01b0319166001600160a01b03831690811790915560405133907fc736654a613824c69968e0ec25ac1a428ccd49e15c28e97b5dfd2c6059757e2a90600090a350565b6107d06002670de0b6b3a7640000613a5a565b6032811115611cda5760405162461bcd60e51b815260206004820152602260248201527f466163746f7279526f757465723a20546f6f204d616e79204f7065726174696f6044820152616e7360f01b60648201526084016107a8565b60005b818110156127855760006040518060600160405280858585818110611d0457611d04613952565b905061014002016060016020810190611d1d91906135d3565b6001600160a01b03168152602001858585818110611d3d57611d3d613952565b9050610140020160a0016020810190611d5691906135d3565b6001600160a01b03168152602001858585818110611d7657611d76613952565b90506101400201610120016020810190611d9091906135d3565b6001600160a01b03166001600160a01b0316815250905060006040518060800160405280868686818110611dc657611dc6613952565b90506101400201608001358152602001868686818110611de857611de8613952565b9050610140020160c001358152602001868686818110611e0a57611e0a613952565b9050610140020160e001358152602001868686818110611e2c57611e2c613952565b905061014002016101000135815250905060006003811115611e5057611e50613be4565b858585818110611e6257611e62613952565b905061014002016040016020810190611e7b9190613bfa565b6003811115611e8c57611e8c613be4565b141561205b57611ef03330878787818110611ea957611ea9613952565b9050610140020160800135888888818110611ec657611ec6613952565b905061014002016060016020810190611edf91906135d3565b6001600160a01b0316929190612e9f565b611f76858585818110611f0557611f05613952565b905061014002016020016020810190611f1e91906135d3565b868686818110611f3057611f30613952565b9050610140020160800135878787818110611f4d57611f4d613952565b905061014002016060016020810190611f6691906135d3565b6001600160a01b03169190612f10565b6000858585818110611f8a57611f8a613952565b905061014002016020016020810190611fa391906135d3565b6001600160a01b031663c421a3fc84846040518363ffffffff1660e01b8152600401611fd0929190613c1b565b60408051808303816000875af1158015611fee573d6000803e3d6000fd5b505050506040513d601f19601f820116820180604052508101906120129190613c80565b509050612055338288888881811061202c5761202c613952565b9050610140020160a001602081019061204591906135d3565b6001600160a01b03169190612fc2565b50612770565b600185858581811061206f5761206f613952565b9050610140020160400160208101906120889190613bfa565b600381111561209957612099613be4565b14156123145760008585858181106120b3576120b3613952565b9050610140020160200160208101906120cc91906135d3565b6001600160a01b031663caa011488787878181106120ec576120ec613952565b90506101400201606001602081019061210591906135d3565b88888881811061211757612117613952565b9050610140020160a001602081019061213091906135d3565b89898981811061214257612142613952565b9050610140020160c001358a8a8a81811061215f5761215f613952565b6040516001600160e01b031960e089901b1681526001600160a01b0396871660048201529590941660248601525060448401919091526101006101409092020101356064820152608401602060405180830381865afa1580156121c6573d6000803e3d6000fd5b505050506040513d601f19601f820116820180604052508101906121ea9190613bcb565b9050612204333083898989818110611ec657611ec6613952565b61224586868681811061221957612219613952565b90506101400201602001602081019061223291906135d3565b82888888818110611f4d57611f4d613952565b85858581811061225757612257613952565b90506101400201602001602081019061227091906135d3565b6001600160a01b031663c98a59cf84846040518363ffffffff1660e01b815260040161229d929190613c1b565b60408051808303816000875af11580156122bb573d6000803e3d6000fd5b505050506040513d601f19601f820116820180604052508101906122df9190613c80565b5050612055338787878181106122f7576122f7613952565b9050610140020160c0013588888881811061202c5761202c613952565b600285858581811061232857612328613952565b9050610140020160400160208101906123419190613bfa565b600381111561235257612352613be4565b141561268757600085858581811061236c5761236c613952565b90506101400201602001602081019061238591906135d3565b6001600160a01b0316634c87087d8787878181106123a5576123a5613952565b90506101400201600001356040518263ffffffff1660e01b81526004016123ce91815260200190565b61018060405180830381865afa1580156123ec573d6000803e3d6000fd5b505050506040513d601f19601f820116820180604052508101906124109190613ca4565b50505050505050505050915050600086868681811061243157612431613952565b90506101400201602001602081019061244a91906135d3565b6001600160a01b031663c99733a788888881811061246a5761246a613952565b905061014002016000013589898981811061248757612487613952565b9050610140020160c001356040518363ffffffff1660e01b81526004016124b8929190918252602082015260400190565b608060405180830381865afa1580156124d5573d6000803e3d6000fd5b505050506040513d601f19601f820116820180604052508101906124f99190613d58565b50505090506125163330838a8a8a818110611ec657611ec6613952565b61255787878781811061252b5761252b613952565b90506101400201602001602081019061254491906135d3565b82898989818110611f4d57611f4d613952565b86868681811061256957612569613952565b90506101400201602001602081019061258291906135d3565b6001600160a01b031663825b5cd68888888181106125a2576125a2613952565b90506101400201600001358989898181106125bf576125bf613952565b9050610140020160c001358a8a8a8181106125dc576125dc613952565b6040516001600160e01b031960e088901b168152600481019590955260248501939093525060806101409092020101356044820152606401600060405180830381600087803b15801561262e57600080fd5b505af1158015612642573d6000803e3d6000fd5b505050506126803388888881811061265c5761265c613952565b9050610140020160c00135846001600160a01b0316612fc29092919063ffffffff16565b5050612770565b84848481811061269957612699613952565b9050610140020160200160208101906126b291906135d3565b6001600160a01b0316631d746d838686868181106126d2576126d2613952565b9050610140020160a00160208101906126eb91906135d3565b8787878181106126fd576126fd613952565b60405160e086901b6001600160e01b03191681526001600160a01b03949094166004850152610140029190910160c00135602483015250336044820152606401600060405180830381600087803b15801561275757600080fd5b505af115801561276b573d6000803e3d6000fd5b505050505b5050808061277d90613968565b915050611cdd565b505050565b60035460405163226e761560e01b81523360048201526000916001600160a01b03169063226e761590602401602060405180830381865afa1580156127d3573d6000803e3d6000fd5b505050506040513d601f19601f820116820180604052508101906127f79190613ad6565b6128135760405162461bcd60e51b81526004016107a890613af1565b61283e8383600081811061282957612829613952565b905060200201602081019061045691906135d3565b6128955760405162461bcd60e51b815260206004820152602260248201527f464143544f525920524f555445523a20696e76616c6964207373436f6e74726160448201526118dd60f21b60648201526084016107a8565b6000878760018181106128aa576128aa613952565b90506020020135116128ef5760405162461bcd60e51b815260206004820152600e60248201526d57726f6e6720646563696d616c7360901b60448201526064016107a8565b600061290160408a0160208b016135d3565b905061298a8484600281811061291957612919613952565b905060200201602081019061292e91906135d3565b8585600081811061294157612941613952565b905060200201602081019061295691906135d3565b8a8a600481811061296957612969613952565b90506020020135846001600160a01b0316612e9f909392919063ffffffff16565b604080518082018252600091612a4d91908c90600290839083908082843760009201919091525050604080516020808e0282810182019093528d82529092508d918d9182919085019084908082843760009201919091525050604080516020808e0282810182019093528d82529093508d92508c91829185019084908082843760009201919091525050604080516020808d0282810182019093528c82529093508c92508b918291850190849080828437600092019190915250612ff292505050565b90506001600160a01b038116612a9d5760405162461bcd60e51b8152602060048201526015602482015274119052531151081513c81111541313d6481413d3d3605a1b60448201526064016107a8565b612ab061043360408c0160208d016135d3565b15612af957604051600181526001600160a01b038216907f90279d7790471e260411db76079630dfaa838fc987d29ae7aa7dc1bcd773ef2e9060200160405180910390a2612b39565b604051600081526001600160a01b038216907f90279d7790471e260411db76079630dfaa838fc987d29ae7aa7dc1bcd773ef2e9060200160405180910390a25b9998505050505050505050565b6000805b600d5481101561083457826001600160a01b0316600d8281548110612b7157612b71613952565b6000918252602090912001546001600160a01b03161415612b955750600192915050565b80612b9f81613968565b915050612b4a565b600a8181548110610d4c57600080fd5b612bc0816107d3565b6107ba57600a805460018101825560009182527fc65a7bb8d6351c1cf70c95a316cc6a92839c986682d98bc35f958f4883f9d2a80180546001600160a01b0319166001600160a01b038416908117909155604051909133917fdffbd9ded1c09446f09377de547142dcce7dc541c8b0b028142b1eba7026b9e79190a350565b6001600160a01b038116612ca95760405162461bcd60e51b815260206004820152602b60248201527f466163746f7279526f757465723a20496e76616c696420706f6f6c54656d706c60448201526a617465206164647265737360a81b60648201526084016107a8565b612cb2816118c3565b6107ba5760018054808201825560009182527fb10e2d527612073b26eecdfd717e6a320cf44b4afac2b0732d9fcbe2b7fa0cf60180546001600160a01b0319166001600160a01b038416908117909155604051909133917fc3674c32cbec94fe266aab7ef71f65b9bf77e1ed501d4f2bece8752f5352e9ac9190a350565b60005b600154811015612d8c57816001600160a01b031660018281548110612d5a57612d5a613952565b6000918252602090912001546001600160a01b03161415612d7a57612d8c565b80612d8481613968565b915050612d33565b600154811015610abe57805b60018054612da691906139cc565b811015612e30576001612db982826139e3565b81548110612dc957612dc9613952565b600091825260209091200154600180546001600160a01b039092169183908110612df557612df5613952565b600091825260209091200180546001600160a01b0319166001600160a01b039290921691909117905580612e2881613968565b915050612d98565b506001805480612e4257612e426139fb565b600082815260208120820160001990810180546001600160a01b03191690559091019091556040516001600160a01b0384169133917fc73fd5d40669565e257cbcd153784617ef26acfcc9fead31e68c0dce3ce82fb29190a35050565b6040516001600160a01b0380851660248301528316604482015260648101829052612f0a9085906323b872dd60e01b906084015b60408051601f198184030181529190526020810180516001600160e01b03166001600160e01b0319909316929092179091526132e2565b50505050565b604051636eb1769f60e11b81523060048201526001600160a01b038381166024830152600091839186169063dd62ed3e90604401602060405180830381865afa158015612f61573d6000803e3d6000fd5b505050506040513d601f19601f82011682018060405250810190612f859190613bcb565b612f8f91906139e3565b6040516001600160a01b038516602482015260448101829052909150612f0a90859063095ea7b360e01b90606401612ed3565b6040516001600160a01b03831660248201526044810182905261278590849063a9059cbb60e01b90606401612ed3565b60006130178260058151811061300a5761300a613952565b60200260200101516118c3565b6130635760405162461bcd60e51b815260206004820152601d60248201527f42466163746f72793a2057726f6e6720506f6f6c2054656d706c61746500000060448201526064016107a8565b600060405180604001604052808460048151811061308357613083613952565b6020908102919091018101516001600160a01b0390811683526000541691015283519091506130cc90849060059081106130bf576130bf613952565b60200260200101516133b4565b91506001600160a01b0382166131305760405162461bcd60e51b8152602060048201526024808201527f42466163746f72793a20696e76616c69642062706f6f6c207a65726f206164646044820152637265737360e01b60648201526084016107a8565b6000829050806001600160a01b031663c070a6d88560008151811061315757613157613952565b602002602001015130886000808d896040518863ffffffff1660e01b81526004016131889796959493929190613df5565b6020604051808303816000875af11580156131a7573d6000803e3d6000fd5b505050506040513d601f19601f820116820180604052508101906131cb9190613ad6565b61320e5760405162461bcd60e51b815260206004820152601460248201527311549497d253925512505312569157d09413d3d360621b60448201526064016107a8565b8360008151811061322157613221613952565b60200260200101516001600160a01b03166383b87e5a8860006002811061324a5761324a613952565b60200201518960016020020151868860038151811061326b5761326b613952565b60200260200101518b6040518663ffffffff1660e01b8152600401613294959493929190613e5b565b6020604051808303816000875af11580156132b3573d6000803e3d6000fd5b505050506040513d601f19601f820116820180604052508101906132d79190613ad6565b505050949350505050565b6000613337826040518060400160405280602081526020017f5361666545524332303a206c6f772d6c6576656c2063616c6c206661696c6564815250856001600160a01b03166134449092919063ffffffff16565b80519091501561278557808060200190518101906133559190613ad6565b6127855760405162461bcd60e51b815260206004820152602a60248201527f5361666545524332303a204552433230206f7065726174696f6e20646964206e6044820152691bdd081cdd58d8d9595960b21b60648201526084016107a8565b6000808260601b9050604051733d602d80600a3d3981f3363d3d373d3d3d363d7360601b81528160148201526e5af43d82803e903d91602b57fd5bf360881b60288201526037816000f06040516001600160a01b03821681529093507f117c72e6c25f0a072e36e148df71468ce2f3dbe7defec5b2c257a6e3eb65278c915060200160405180910390a150919050565b6060613453848460008561345d565b90505b9392505050565b6060824710156134be5760405162461bcd60e51b815260206004820152602660248201527f416464726573733a20696e73756666696369656e742062616c616e636520666f6044820152651c8818d85b1b60d21b60648201526084016107a8565b843b61350c5760405162461bcd60e51b815260206004820152601d60248201527f416464726573733a2063616c6c20746f206e6f6e2d636f6e747261637400000060448201526064016107a8565b600080866001600160a01b031685876040516135289190613ec3565b60006040518083038185875af1925050503d8060008114613565576040519150601f19603f3d011682016040523d82523d6000602084013e61356a565b606091505b509150915061357a828286613585565b979650505050505050565b60608315613594575081613456565b8251156135a45782518084602001fd5b8160405162461bcd60e51b81526004016107a89190613edf565b6001600160a01b03811681146107ba57600080fd5b6000602082840312156135e557600080fd5b8135613456816135be565b6020808252825182820181905260009190848201906040850190845b818110156136315783516001600160a01b03168352928401929184019160010161360c565b50909695505050505050565b60006020828403121561364f57600080fd5b5035919050565b60008083601f84011261366857600080fd5b50813567ffffffffffffffff81111561368057600080fd5b6020830191508360208260051b850101111561369b57600080fd5b9250929050565b6000806000806000606086880312156136ba57600080fd5b85356136c5816135be565b9450602086013567ffffffffffffffff808211156136e257600080fd5b6136ee89838a01613656565b9096509450604088013591508082111561370757600080fd5b5061371488828901613656565b969995985093965092949392505050565b6000806000806080858703121561373b57600080fd5b5050823594602084013594506040840135936060013592509050565b60008060008060008060c0878903121561377057600080fd5b863561377b816135be565b9550602087013561378b816135be565b9450604087013593506060870135925060808701356137a9816135be565b915060a08701356137b9816135be565b809150509295509295509295565b600080602083850312156137da57600080fd5b823567ffffffffffffffff808211156137f257600080fd5b818501915085601f83011261380657600080fd5b81358181111561381557600080fd5b8660206101408302850101111561382b57600080fd5b60209290920196919550909350505050565b600080600080600080600060a0888a03121561385857600080fd5b604088018981111561386957600080fd5b8897503567ffffffffffffffff8082111561388357600080fd5b61388f8b838c01613656565b909850965060608a01359150808211156138a857600080fd5b6138b48b838c01613656565b909650945060808a01359150808211156138cd57600080fd5b506138da8a828b01613656565b989b979a50959850939692959293505050565b60208082526016908201527527b1b2b0b72937baba32b91d102727aa1027aba722a960511b604082015260600190565b634e487b7160e01b600052601160045260246000fd5b600081600019048311821515161561394d5761394d61391d565b500290565b634e487b7160e01b600052603260045260246000fd5b600060001982141561397c5761397c61391d565b5060010190565b60208082526029908201527f466163746f7279526f757465723a20496e76616c6964205f64697370656e736560408201526872206164647265737360b81b606082015260800190565b6000828210156139de576139de61391d565b500390565b600082198211156139f6576139f661391d565b500190565b634e487b7160e01b600052603160045260246000fd5b60208082526029908201527f466163746f7279526f757465723a20496e76616c6964205f666978656452617460408201526865206164647265737360b81b606082015260800190565b600082613a7757634e487b7160e01b600052601260045260246000fd5b500490565b6020808252602a908201527f466163746f7279526f757465723a20496e76616c6964205f7373436f6e7472616040820152696374206164647265737360b01b606082015260800190565b805180151581146117fe57600080fd5b600060208284031215613ae857600080fd5b61345682613ac6565b6020808252602b908201527f464143544f525920524f555445523a204e4f54204f524947494e414c2045524360408201526a32302054454d504c41544560a81b606082015260800190565b6001600160a01b03868116825260606020808401829052908301869052600091879160808501845b89811015613b8b578435613b77816135be565b841682529382019390820190600101613b64565b5085810360408701528681526001600160fb1b03871115613bab57600080fd5b8660051b9350838883830137600093010191825250979650505050505050565b600060208284031215613bdd57600080fd5b5051919050565b634e487b7160e01b600052602160045260246000fd5b600060208284031215613c0c57600080fd5b81356004811061345657600080fd5b60e08101818460005b6003811015613c4c5781516001600160a01b0316835260209283019290910190600101613c24565b505050606082018360005b6004811015613c76578151835260209283019290910190600101613c57565b5050509392505050565b60008060408385031215613c9357600080fd5b505080516020909101519092909150565b6000806000806000806000806000806000806101808d8f031215613cc757600080fd5b8c51613cd2816135be565b60208e0151909c50613ce3816135be565b60408e015160608f0151919c509a50613cfb816135be565b60808e015160a08f0151919a5098509650613d1860c08e01613ac6565b955060e08d015194506101008d015193506101208d015192506101408d01519150613d466101608e01613ac6565b90509295989b509295989b509295989b565b60008060008060808587031215613d6e57600080fd5b505082516020840151604085015160609095015191969095509092509050565b600081518084526020808501945080840160005b83811015613dbe57815187529582019590820190600101613da2565b509495945050505050565b8060005b6002811015612f0a5781516001600160a01b0316845260209384019390910190600101613dcd565b6001600160a01b0388811682528716602082015261012060408201819052600090613e2283820189613d8e565b91505085151560608301528415156080830152613e4260a0830185613dc9565b613e4f60e0830184613dc9565b98975050505050505050565b6001600160a01b038681168252858116602083015284811660408301528316606082015260a06080820181905260009061357a90830184613d8e565b60005b83811015613eb2578181015183820152602001613e9a565b83811115612f0a5750506000910152565b60008251613ed5818460208701613e97565b9190910192915050565b6020815260008251806020840152613efe816040850160208701613e97565b601f01601f1916919091016040019291505056fea26469706673582212201b6a3a4f25a36e842f9c585c4d52dd992864ee2912fe8429fd64dfa0fbd9063c64736f6c634300080a0033",
  "linkReferences": {},
  "deployedLinkReferences": {}
}