{
  "_format": "hh-sol-artifact-1",
  "contractName": "ERC721RolesAddress",
  "sourceName": "contracts/utils/ERC721RolesAddress.sol",
  "abi": [
    {
      "anonymous": false,
      "inputs": [
        {
          "indexed": true,
          "internalType": "address",
          "name": "user",
          "type": "address"
        },
        {
          "indexed": true,
          "internalType": "address",
          "name": "signer",
          "type": "address"
        },
        {
          "indexed": false,
          "internalType": "uint256",
          "name": "timestamp",
          "type": "uint256"
        },
        {
          "indexed": false,
          "internalType": "uint256",
          "name": "blockNumber",
          "type": "uint256"
        }
      ],
      "name": "AddedManager",
      "type": "event"
    },
    {
      "anonymous": false,
      "inputs": [
        {
          "indexed": true,
          "internalType": "address",
          "name": "user",
          "type": "address"
        },
        {
          "indexed": true,
          "internalType": "address",
          "name": "signer",
          "type": "address"
        },
        {
          "indexed": false,
          "internalType": "uint256",
          "name": "timestamp",
          "type": "uint256"
        },
        {
          "indexed": false,
          "internalType": "uint256",
          "name": "blockNumber",
          "type": "uint256"
        }
      ],
      "name": "AddedTo725StoreList",
      "type": "event"
    },
    {
      "anonymous": false,
      "inputs": [
        {
          "indexed": true,
          "internalType": "address",
          "name": "user",
          "type": "address"
        },
        {
          "indexed": true,
          "internalType": "address",
          "name": "signer",
          "type": "address"
        },
        {
          "indexed": false,
          "internalType": "uint256",
          "name": "timestamp",
          "type": "uint256"
        },
        {
          "indexed": false,
          "internalType": "uint256",
          "name": "blockNumber",
          "type": "uint256"
        }
      ],
      "name": "AddedToCreateERC20List",
      "type": "event"
    },
    {
      "anonymous": false,
      "inputs": [
        {
          "indexed": true,
          "internalType": "address",
          "name": "user",
          "type": "address"
        },
        {
          "indexed": true,
          "internalType": "address",
          "name": "signer",
          "type": "address"
        },
        {
          "indexed": false,
          "internalType": "uint256",
          "name": "timestamp",
          "type": "uint256"
        },
        {
          "indexed": false,
          "internalType": "uint256",
          "name": "blockNumber",
          "type": "uint256"
        }
      ],
      "name": "AddedToMetadataList",
      "type": "event"
    },
    {
      "anonymous": false,
      "inputs": [
        {
          "indexed": true,
          "internalType": "address",
          "name": "signer",
          "type": "address"
        },
        {
          "indexed": false,
          "internalType": "uint256",
          "name": "timestamp",
          "type": "uint256"
        },
        {
          "indexed": false,
          "internalType": "uint256",
          "name": "blockNumber",
          "type": "uint256"
        }
      ],
      "name": "CleanedPermissions",
      "type": "event"
    },
    {
      "anonymous": false,
      "inputs": [
        {
          "indexed": true,
          "internalType": "address",
          "name": "user",
          "type": "address"
        },
        {
          "indexed": true,
          "internalType": "address",
          "name": "signer",
          "type": "address"
        },
        {
          "indexed": false,
          "internalType": "uint256",
          "name": "timestamp",
          "type": "uint256"
        },
        {
          "indexed": false,
          "internalType": "uint256",
          "name": "blockNumber",
          "type": "uint256"
        }
      ],
      "name": "RemovedFrom725StoreList",
      "type": "event"
    },
    {
      "anonymous": false,
      "inputs": [
        {
          "indexed": true,
          "internalType": "address",
          "name": "user",
          "type": "address"
        },
        {
          "indexed": true,
          "internalType": "address",
          "name": "signer",
          "type": "address"
        },
        {
          "indexed": false,
          "internalType": "uint256",
          "name": "timestamp",
          "type": "uint256"
        },
        {
          "indexed": false,
          "internalType": "uint256",
          "name": "blockNumber",
          "type": "uint256"
        }
      ],
      "name": "RemovedFromCreateERC20List",
      "type": "event"
    },
    {
      "anonymous": false,
      "inputs": [
        {
          "indexed": true,
          "internalType": "address",
          "name": "user",
          "type": "address"
        },
        {
          "indexed": true,
          "internalType": "address",
          "name": "signer",
          "type": "address"
        },
        {
          "indexed": false,
          "internalType": "uint256",
          "name": "timestamp",
          "type": "uint256"
        },
        {
          "indexed": false,
          "internalType": "uint256",
          "name": "blockNumber",
          "type": "uint256"
        }
      ],
      "name": "RemovedFromMetadataList",
      "type": "event"
    },
    {
      "anonymous": false,
      "inputs": [
        {
          "indexed": true,
          "internalType": "address",
          "name": "user",
          "type": "address"
        },
        {
          "indexed": true,
          "internalType": "address",
          "name": "signer",
          "type": "address"
        },
        {
          "indexed": false,
          "internalType": "uint256",
          "name": "timestamp",
          "type": "uint256"
        },
        {
          "indexed": false,
          "internalType": "uint256",
          "name": "blockNumber",
          "type": "uint256"
        }
      ],
      "name": "RemovedManager",
      "type": "event"
    },
    {
      "inputs": [
        {
          "internalType": "address[]",
          "name": "addresses",
          "type": "address[]"
        },
        {
          "internalType": "enum ERC721RolesAddress.RolesType[]",
          "name": "roles",
          "type": "uint8[]"
        }
      ],
      "name": "addMultipleUsersToRoles",
      "outputs": [],
      "stateMutability": "nonpayable",
      "type": "function"
    },
    {
      "inputs": [
        {
          "internalType": "address",
          "name": "_allowedAddress",
          "type": "address"
        }
      ],
      "name": "addTo725StoreList",
      "outputs": [],
      "stateMutability": "nonpayable",
      "type": "function"
    },
    {
      "inputs": [
        {
          "internalType": "address",
          "name": "_allowedAddress",
          "type": "address"
        }
      ],
      "name": "addToCreateERC20List",
      "outputs": [],
      "stateMutability": "nonpayable",
      "type": "function"
    },
    {
      "inputs": [
        {
          "internalType": "address",
          "name": "_allowedAddress",
          "type": "address"
        }
      ],
      "name": "addToMetadataList",
      "outputs": [],
      "stateMutability": "nonpayable",
      "type": "function"
    },
    {
      "inputs": [
        {
          "internalType": "uint256",
          "name": "",
          "type": "uint256"
        }
      ],
      "name": "auth",
      "outputs": [
        {
          "internalType": "address",
          "name": "",
          "type": "address"
        }
      ],
      "stateMutability": "view",
      "type": "function"
    },
    {
      "inputs": [
        {
          "internalType": "address",
          "name": "user",
          "type": "address"
        }
      ],
      "name": "getPermissions",
      "outputs": [
        {
          "components": [
            {
              "internalType": "bool",
              "name": "manager",
              "type": "bool"
            },
            {
              "internalType": "bool",
              "name": "deployERC20",
              "type": "bool"
            },
            {
              "internalType": "bool",
              "name": "updateMetadata",
              "type": "bool"
            },
            {
              "internalType": "bool",
              "name": "store",
              "type": "bool"
            }
          ],
          "internalType": "struct ERC721RolesAddress.Roles",
          "name": "",
          "type": "tuple"
        }
      ],
      "stateMutability": "view",
      "type": "function"
    },
    {
      "inputs": [
        {
          "internalType": "address",
          "name": "_allowedAddress",
          "type": "address"
        }
      ],
      "name": "removeFrom725StoreList",
      "outputs": [],
      "stateMutability": "nonpayable",
      "type": "function"
    },
    {
      "inputs": [
        {
          "internalType": "address",
          "name": "_allowedAddress",
          "type": "address"
        }
      ],
      "name": "removeFromCreateERC20List",
      "outputs": [],
      "stateMutability": "nonpayable",
      "type": "function"
    },
    {
      "inputs": [
        {
          "internalType": "address",
          "name": "_allowedAddress",
          "type": "address"
        }
      ],
      "name": "removeFromMetadataList",
      "outputs": [],
      "stateMutability": "nonpayable",
      "type": "function"
    }
  ],
  "bytecode": "0x608060405234801561001057600080fd5b50611149806100206000396000f3fe608060405234801561001057600080fd5b50600436106100935760003560e01c8063431053ac11610066578063431053ac146101aa5780634a63740a146101bd578063b0c41ead146101d0578063c2d60e6e146101fb578063fe1ec8801461020e57600080fd5b806310c558bf14610098578063160a7925146100ad57806319c186e514610184578063273e06b314610197575b600080fd5b6100ab6100a6366004610e73565b610221565b005b6101406100bb366004610e73565b604080516080810182526000808252602082018190529181018290526060810191909152506001600160a01b0316600090815260208181526040918290208251608081018452905460ff808216151583526101008204811615159383019390935262010000810483161515938201939093526301000000909204161515606082015290565b60405161017b919081511515815260208083015115159082015260408083015115159082015260609182015115159181019190915260800190565b60405180910390f35b6100ab610192366004610e73565b61026a565b6100ab6101a5366004610e73565b610329565b6100ab6101b8366004610e73565b61046c565b6100ab6101cb366004610e73565b61059d565b6101e36101de366004610e95565b6105da565b6040516001600160a01b03909116815260200161017b565b6100ab610209366004610f92565b610604565b6100ab61021c366004610e73565b610a10565b3360009081526020819052604090205460ff16151560011461025e5760405162461bcd60e51b815260040161025590611052565b60405180910390fd5b61026781610b3c565b50565b3360009081526020819052604090205460ff16151560011461029e5760405162461bcd60e51b815260040161025590611052565b6001600160a01b03811615610267576001600160a01b0381166000908152602081905260409020805463ff000000191663010000001781556102df82610bbd565b6040805142815243602082015233916001600160a01b038516917feb09276310ed110a7e565d64966d0ff68a47112d2dd5eeb6cbd7451836ce35ee91015b60405180910390a35050565b3360009081526020819052604090205460ff1615156001148061037a5750336001600160a01b03821614801561037a5750336000908152602081905260409020546301000000900460ff1615156001145b156103ef576001600160a01b03811660008181526020818152604091829020805463ff000000191681558251428152439281019290925292339290917fc929b18b08ffea86a1f95e29384dbe8968f2fcbd70cfd735df3aba1cc548cbf391015b60405180910390a36103eb82610c71565b5050565b60405162461bcd60e51b815260206004820152604660248201527f455243373231526f6c6573416464726573733a204e6f7420656e6f756768207060448201527f65726d697373696f6e7320746f2072656d6f76652066726f6d2037323553746f6064820152651c99531a5cdd60d21b608482015260a401610255565b3360009081526020819052604090205460ff161515600114806104bc5750336001600160a01b0382161480156104bc57503360009081526020819052604090205462010000900460ff1615156001145b1561051f576001600160a01b03811660008181526020818152604091829020805462ff0000191681558251428152439281019290925292339290917f9b41e1311fa819e825bc77fa2568492112e15ea92d173f3f8ee1c8ec3c1c562b91016103da565b60405162461bcd60e51b815260206004820152604760248201527f455243373231526f6c6573416464726573733a204e6f7420656e6f756768207060448201527f65726d697373696f6e7320746f2072656d6f76652066726f6d206d65746164616064820152661d18481b1a5cdd60ca1b608482015260a401610255565b3360009081526020819052604090205460ff1615156001146105d15760405162461bcd60e51b815260040161025590611052565b61026781610de7565b600181815481106105ea57600080fd5b6000918252602090912001546001600160a01b0316905081565b3360009081526020819052604090205460ff1615156001146106385760405162461bcd60e51b815260040161025590611052565b8051825114801561064a575060008151115b8015610657575060328151105b6106985760405162461bcd60e51b8152602060048201526012602482015271496e76616c69642061727261792073697a6560701b6044820152606401610255565b60005b8151811015610a0b5760006001600160a01b03168382815181106106c1576106c1611089565b60200260200101516001600160a01b0316146109f95760008060008584815181106106ee576106ee611089565b60200260200101516001600160a01b03166001600160a01b0316815260200190815260200160002090506000600381111561072b5761072b61109f565b83838151811061073d5761073d611089565b602002602001015160038111156107565761075661109f565b14156107d157805460ff191660011781558351339085908490811061077d5761077d611089565b60200260200101516001600160a01b03167faf8fc8b6726138c96881c895390a08e9d91a94c288f06281e7f9821c49c7155b42436040516107c8929190918252602082015260400190565b60405180910390a35b60018383815181106107e5576107e5611089565b602002602001015160038111156107fe576107fe61109f565b141561087b57805461ff0019166101001781558351339085908490811061082757610827611089565b60200260200101516001600160a01b03167f0572d56343be407a66810f01449212e8545e14ff5049c479d34be944cdfd0d4f4243604051610872929190918252602082015260400190565b60405180910390a35b600283838151811061088f5761088f611089565b602002602001015160038111156108a8576108a861109f565b141561092757805462ff0000191662010000178155835133908590849081106108d3576108d3611089565b60200260200101516001600160a01b03167fc2a42571a74ce1442c8c44d375ba9442e7d55d94b37afeace261c83c62128fa4424360405161091e929190918252602082015260400190565b60405180910390a35b600383838151811061093b5761093b611089565b602002602001015160038111156109545761095461109f565b14156109d557805463ff000000191663010000001781558351339085908490811061098157610981611089565b60200260200101516001600160a01b03167feb09276310ed110a7e565d64966d0ff68a47112d2dd5eeb6cbd7451836ce35ee42436040516109cc929190918252602082015260400190565b60405180910390a35b6109f78483815181106109ea576109ea611089565b6020026020010151610bbd565b505b80610a03816110cb565b91505061069b565b505050565b3360009081526020819052604090205460ff16151560011480610a605750336001600160a01b038216148015610a6057503360009081526020819052604090205460ff6101009091041615156001145b15610ac2576001600160a01b03811660008181526020818152604091829020805461ff00191681558251428152439281019290925292339290917f59bd33f4c27cc16a2d74450e1fa43d7896020be9aecea4bee009db9294de899791016103da565b60405162461bcd60e51b815260206004820152604360248201527f455243373231526f6c6573416464726573733a204e6f7420656e6f756768207060448201527f65726d697373696f6e7320746f2072656d6f76652066726f6d2045524332304c6064820152621a5cdd60ea1b608482015260a401610255565b6001600160a01b03811615610267576001600160a01b0381166000908152602081905260409020805462ff0000191662010000178155610b7b82610bbd565b6040805142815243602082015233916001600160a01b038516917fc2a42571a74ce1442c8c44d375ba9442e7d55d94b37afeace261c83c62128fa4910161031d565b60005b600154811015610c1957816001600160a01b031660018281548110610be757610be7611089565b6000918252602090912001546001600160a01b03161415610c0757610c19565b80610c11816110cb565b915050610bc0565b6001548114156103eb576001805480820182556000919091527fb10e2d527612073b26eecdfd717e6a320cf44b4afac2b0732d9fcbe2b7fa0cf60180546001600160a01b0319166001600160a01b0384161790555050565b6001600160a01b0381166000908152602081905260409020805460ff16158015610ca257508054610100900460ff16155b8015610cb65750805462010000900460ff16155b8015610ccb575080546301000000900460ff16155b156103eb5760005b600154811015610d2c57826001600160a01b031660018281548110610cfa57610cfa611089565b6000918252602090912001546001600160a01b03161415610d1a57610d2c565b80610d24816110cb565b915050610cd3565b600154811015610a0b5760018054610d459082906110e6565b81548110610d5557610d55611089565b600091825260209091200154600180546001600160a01b039092169183908110610d8157610d81611089565b9060005260206000200160006101000a8154816001600160a01b0302191690836001600160a01b031602179055506001805480610dc057610dc06110fd565b600082815260209020810160001990810180546001600160a01b0319169055019055505050565b6001600160a01b0381166000908152602081905260409020805461ff001916610100178155610e1582610bbd565b6040805142815243602082015233916001600160a01b038516917f0572d56343be407a66810f01449212e8545e14ff5049c479d34be944cdfd0d4f910161031d565b80356001600160a01b0381168114610e6e57600080fd5b919050565b600060208284031215610e8557600080fd5b610e8e82610e57565b9392505050565b600060208284031215610ea757600080fd5b5035919050565b634e487b7160e01b600052604160045260246000fd5b604051601f8201601f1916810167ffffffffffffffff81118282101715610eed57610eed610eae565b604052919050565b600067ffffffffffffffff821115610f0f57610f0f610eae565b5060051b60200190565b600082601f830112610f2a57600080fd5b81356020610f3f610f3a83610ef5565b610ec4565b82815260059290921b84018101918181019086841115610f5e57600080fd5b8286015b84811015610f8757803560048110610f7a5760008081fd5b8352918301918301610f62565b509695505050505050565b60008060408385031215610fa557600080fd5b823567ffffffffffffffff80821115610fbd57600080fd5b818501915085601f830112610fd157600080fd5b81356020610fe1610f3a83610ef5565b82815260059290921b8401810191818101908984111561100057600080fd5b948201945b838610156110255761101686610e57565b82529482019490820190611005565b9650508601359250508082111561103b57600080fd5b5061104885828601610f19565b9150509250929050565b6020808252601f908201527f455243373231526f6c6573416464726573733a204e4f54204d414e4147455200604082015260600190565b634e487b7160e01b600052603260045260246000fd5b634e487b7160e01b600052602160045260246000fd5b634e487b7160e01b600052601160045260246000fd5b60006000198214156110df576110df6110b5565b5060010190565b6000828210156110f8576110f86110b5565b500390565b634e487b7160e01b600052603160045260246000fdfea26469706673582212202a3bd180353c124e33e17905ff419ec047177c1bc659904429e1c0a38380c35c64736f6c634300080c0033",
  "linkReferences": {},
  "deployedLinkReferences": {}
}