{
  "_format": "hh-sol-artifact-1",
  "contractName": "ERC721Factory",
  "sourceName": "contracts/ERC721Factory.sol",
  "abi": [
    {
      "inputs": [
        {
          "internalType": "address",
          "name": "_template721",
          "type": "address"
        },
        {
          "internalType": "address",
          "name": "_template",
          "type": "address"
        },
        {
          "internalType": "address",
          "name": "_collector",
          "type": "address"
        },
        {
          "internalType": "address",
          "name": "_router",
          "type": "address"
        }
      ],
      "stateMutability": "nonpayable",
      "type": "constructor"
    },
    {
      "anonymous": false,
      "inputs": [
        {
          "indexed": true,
          "internalType": "address",
          "name": "datatokenAddress",
          "type": "address"
        },
        {
          "indexed": true,
          "internalType": "address",
          "name": "owner",
          "type": "address"
        },
        {
          "indexed": false,
          "internalType": "uint256",
          "name": "maxTokens",
          "type": "uint256"
        },
        {
          "indexed": false,
          "internalType": "uint256",
          "name": "maxBalance",
          "type": "uint256"
        },
        {
          "indexed": false,
          "internalType": "address",
          "name": "allowedSwapper",
          "type": "address"
        }
      ],
      "name": "DispenserCreated",
      "type": "event"
    },
    {
      "anonymous": false,
      "inputs": [
        {
          "indexed": false,
          "internalType": "address",
          "name": "instance",
          "type": "address"
        }
      ],
      "name": "InstanceDeployed",
      "type": "event"
    },
    {
      "anonymous": false,
      "inputs": [
        {
          "indexed": true,
          "internalType": "address",
          "name": "newTokenAddress",
          "type": "address"
        },
        {
          "indexed": true,
          "internalType": "address",
          "name": "templateAddress",
          "type": "address"
        },
        {
          "indexed": false,
          "internalType": "string",
          "name": "tokenName",
          "type": "string"
        },
        {
          "indexed": false,
          "internalType": "address",
          "name": "admin",
          "type": "address"
        },
        {
          "indexed": false,
          "internalType": "string",
          "name": "symbol",
          "type": "string"
        },
        {
          "indexed": false,
          "internalType": "string",
          "name": "tokenURI",
          "type": "string"
        }
      ],
      "name": "NFTCreated",
      "type": "event"
    },
    {
      "anonymous": false,
      "inputs": [
        {
          "indexed": false,
          "internalType": "address",
          "name": "dispenserContract",
          "type": "address"
        }
      ],
      "name": "NewDispenser",
      "type": "event"
    },
    {
      "anonymous": false,
      "inputs": [
        {
          "indexed": false,
          "internalType": "bytes32",
          "name": "exchangeId",
          "type": "bytes32"
        },
        {
          "indexed": true,
          "internalType": "address",
          "name": "owner",
          "type": "address"
        },
        {
          "indexed": false,
          "internalType": "address",
          "name": "exchangeContract",
          "type": "address"
        },
        {
          "indexed": true,
          "internalType": "address",
          "name": "baseToken",
          "type": "address"
        }
      ],
      "name": "NewFixedRate",
      "type": "event"
    },
    {
      "anonymous": false,
      "inputs": [
        {
          "indexed": false,
          "internalType": "address",
          "name": "poolAddress",
          "type": "address"
        },
        {
          "indexed": false,
          "internalType": "address",
          "name": "ssContract",
          "type": "address"
        },
        {
          "indexed": false,
          "internalType": "address",
          "name": "baseTokenAddress",
          "type": "address"
        }
      ],
      "name": "NewPool",
      "type": "event"
    },
    {
      "anonymous": false,
      "inputs": [
        {
          "indexed": true,
          "internalType": "address",
          "name": "previousOwner",
          "type": "address"
        },
        {
          "indexed": true,
          "internalType": "address",
          "name": "newOwner",
          "type": "address"
        }
      ],
      "name": "OwnershipTransferred",
      "type": "event"
    },
    {
      "anonymous": false,
      "inputs": [
        {
          "indexed": true,
          "internalType": "address",
          "name": "_templateAddress",
          "type": "address"
        },
        {
          "indexed": true,
          "internalType": "uint256",
          "name": "nftTemplateCount",
          "type": "uint256"
        }
      ],
      "name": "Template20Added",
      "type": "event"
    },
    {
      "anonymous": false,
      "inputs": [
        {
          "indexed": true,
          "internalType": "address",
          "name": "_templateAddress",
          "type": "address"
        },
        {
          "indexed": true,
          "internalType": "uint256",
          "name": "nftTemplateCount",
          "type": "uint256"
        }
      ],
      "name": "Template721Added",
      "type": "event"
    },
    {
      "anonymous": false,
      "inputs": [
        {
          "indexed": true,
          "internalType": "address",
          "name": "newTokenAddress",
          "type": "address"
        },
        {
          "indexed": true,
          "internalType": "address",
          "name": "templateAddress",
          "type": "address"
        },
        {
          "indexed": false,
          "internalType": "string",
          "name": "name",
          "type": "string"
        },
        {
          "indexed": false,
          "internalType": "string",
          "name": "symbol",
          "type": "string"
        },
        {
          "indexed": false,
          "internalType": "uint256",
          "name": "cap",
          "type": "uint256"
        },
        {
          "indexed": false,
          "internalType": "address",
          "name": "creator",
          "type": "address"
        }
      ],
      "name": "TokenCreated",
      "type": "event"
    },
    {
      "inputs": [
        {
          "internalType": "address",
          "name": "_templateAddress",
          "type": "address"
        }
      ],
      "name": "add721TokenTemplate",
      "outputs": [
        {
          "internalType": "uint256",
          "name": "",
          "type": "uint256"
        }
      ],
      "stateMutability": "nonpayable",
      "type": "function"
    },
    {
      "inputs": [
        {
          "internalType": "address",
          "name": "_templateAddress",
          "type": "address"
        }
      ],
      "name": "addTokenTemplate",
      "outputs": [
        {
          "internalType": "uint256",
          "name": "",
          "type": "uint256"
        }
      ],
      "stateMutability": "nonpayable",
      "type": "function"
    },
    {
      "inputs": [
        {
          "components": [
            {
              "internalType": "string",
              "name": "name",
              "type": "string"
            },
            {
              "internalType": "string",
              "name": "symbol",
              "type": "string"
            },
            {
              "internalType": "uint256",
              "name": "templateIndex",
              "type": "uint256"
            },
            {
              "internalType": "string",
              "name": "tokenURI",
              "type": "string"
            }
          ],
          "internalType": "struct ERC721Factory.NftCreateData",
          "name": "_NftCreateData",
          "type": "tuple"
        },
        {
          "components": [
            {
              "internalType": "uint256",
              "name": "templateIndex",
              "type": "uint256"
            },
            {
              "internalType": "string[]",
              "name": "strings",
              "type": "string[]"
            },
            {
              "internalType": "address[]",
              "name": "addresses",
              "type": "address[]"
            },
            {
              "internalType": "uint256[]",
              "name": "uints",
              "type": "uint256[]"
            },
            {
              "internalType": "bytes[]",
              "name": "bytess",
              "type": "bytes[]"
            }
          ],
          "internalType": "struct ERC721Factory.ErcCreateData",
          "name": "_ErcCreateData",
          "type": "tuple"
        },
        {
          "components": [
            {
              "internalType": "address",
              "name": "dispenserAddress",
              "type": "address"
            },
            {
              "internalType": "uint256",
              "name": "maxTokens",
              "type": "uint256"
            },
            {
              "internalType": "uint256",
              "name": "maxBalance",
              "type": "uint256"
            },
            {
              "internalType": "bool",
              "name": "withMint",
              "type": "bool"
            },
            {
              "internalType": "address",
              "name": "allowedSwapper",
              "type": "address"
            }
          ],
          "internalType": "struct ERC721Factory.DispenserData",
          "name": "_DispenserData",
          "type": "tuple"
        }
      ],
      "name": "createNftErcWithDispenser",
      "outputs": [
        {
          "internalType": "address",
          "name": "erc721Address",
          "type": "address"
        },
        {
          "internalType": "address",
          "name": "erc20Address",
          "type": "address"
        }
      ],
      "stateMutability": "nonpayable",
      "type": "function"
    },
    {
      "inputs": [
        {
          "components": [
            {
              "internalType": "string",
              "name": "name",
              "type": "string"
            },
            {
              "internalType": "string",
              "name": "symbol",
              "type": "string"
            },
            {
              "internalType": "uint256",
              "name": "templateIndex",
              "type": "uint256"
            },
            {
              "internalType": "string",
              "name": "tokenURI",
              "type": "string"
            }
          ],
          "internalType": "struct ERC721Factory.NftCreateData",
          "name": "_NftCreateData",
          "type": "tuple"
        },
        {
          "components": [
            {
              "internalType": "uint256",
              "name": "templateIndex",
              "type": "uint256"
            },
            {
              "internalType": "string[]",
              "name": "strings",
              "type": "string[]"
            },
            {
              "internalType": "address[]",
              "name": "addresses",
              "type": "address[]"
            },
            {
              "internalType": "uint256[]",
              "name": "uints",
              "type": "uint256[]"
            },
            {
              "internalType": "bytes[]",
              "name": "bytess",
              "type": "bytes[]"
            }
          ],
          "internalType": "struct ERC721Factory.ErcCreateData",
          "name": "_ErcCreateData",
          "type": "tuple"
        },
        {
          "components": [
            {
              "internalType": "address",
              "name": "fixedPriceAddress",
              "type": "address"
            },
            {
              "internalType": "address[]",
              "name": "addresses",
              "type": "address[]"
            },
            {
              "internalType": "uint256[]",
              "name": "uints",
              "type": "uint256[]"
            }
          ],
          "internalType": "struct ERC721Factory.FixedData",
          "name": "_FixedData",
          "type": "tuple"
        }
      ],
      "name": "createNftErcWithFixedRate",
      "outputs": [
        {
          "internalType": "address",
          "name": "erc721Address",
          "type": "address"
        },
        {
          "internalType": "address",
          "name": "erc20Address",
          "type": "address"
        },
        {
          "internalType": "bytes32",
          "name": "exchangeId",
          "type": "bytes32"
        }
      ],
      "stateMutability": "nonpayable",
      "type": "function"
    },
    {
      "inputs": [
        {
          "components": [
            {
              "internalType": "string",
              "name": "name",
              "type": "string"
            },
            {
              "internalType": "string",
              "name": "symbol",
              "type": "string"
            },
            {
              "internalType": "uint256",
              "name": "templateIndex",
              "type": "uint256"
            },
            {
              "internalType": "string",
              "name": "tokenURI",
              "type": "string"
            }
          ],
          "internalType": "struct ERC721Factory.NftCreateData",
          "name": "_NftCreateData",
          "type": "tuple"
        },
        {
          "components": [
            {
              "internalType": "uint256",
              "name": "templateIndex",
              "type": "uint256"
            },
            {
              "internalType": "string[]",
              "name": "strings",
              "type": "string[]"
            },
            {
              "internalType": "address[]",
              "name": "addresses",
              "type": "address[]"
            },
            {
              "internalType": "uint256[]",
              "name": "uints",
              "type": "uint256[]"
            },
            {
              "internalType": "bytes[]",
              "name": "bytess",
              "type": "bytes[]"
            }
          ],
          "internalType": "struct ERC721Factory.ErcCreateData",
          "name": "_ErcCreateData",
          "type": "tuple"
        },
        {
          "components": [
            {
              "internalType": "address[]",
              "name": "addresses",
              "type": "address[]"
            },
            {
              "internalType": "uint256[]",
              "name": "ssParams",
              "type": "uint256[]"
            },
            {
              "internalType": "uint256[]",
              "name": "swapFees",
              "type": "uint256[]"
            }
          ],
          "internalType": "struct ERC721Factory.PoolData",
          "name": "_PoolData",
          "type": "tuple"
        }
      ],
      "name": "createNftErcWithPool",
      "outputs": [
        {
          "internalType": "address",
          "name": "erc721Address",
          "type": "address"
        },
        {
          "internalType": "address",
          "name": "erc20Address",
          "type": "address"
        },
        {
          "internalType": "address",
          "name": "poolAddress",
          "type": "address"
        }
      ],
      "stateMutability": "nonpayable",
      "type": "function"
    },
    {
      "inputs": [
        {
          "components": [
            {
              "internalType": "string",
              "name": "name",
              "type": "string"
            },
            {
              "internalType": "string",
              "name": "symbol",
              "type": "string"
            },
            {
              "internalType": "uint256",
              "name": "templateIndex",
              "type": "uint256"
            },
            {
              "internalType": "string",
              "name": "tokenURI",
              "type": "string"
            }
          ],
          "internalType": "struct ERC721Factory.NftCreateData",
          "name": "_NftCreateData",
          "type": "tuple"
        },
        {
          "components": [
            {
              "internalType": "uint256",
              "name": "templateIndex",
              "type": "uint256"
            },
            {
              "internalType": "string[]",
              "name": "strings",
              "type": "string[]"
            },
            {
              "internalType": "address[]",
              "name": "addresses",
              "type": "address[]"
            },
            {
              "internalType": "uint256[]",
              "name": "uints",
              "type": "uint256[]"
            },
            {
              "internalType": "bytes[]",
              "name": "bytess",
              "type": "bytes[]"
            }
          ],
          "internalType": "struct ERC721Factory.ErcCreateData",
          "name": "_ErcCreateData",
          "type": "tuple"
        }
      ],
      "name": "createNftWithErc",
      "outputs": [
        {
          "internalType": "address",
          "name": "erc721Address",
          "type": "address"
        },
        {
          "internalType": "address",
          "name": "erc20Address",
          "type": "address"
        }
      ],
      "stateMutability": "nonpayable",
      "type": "function"
    },
    {
      "inputs": [
        {
          "internalType": "uint256",
          "name": "_templateIndex",
          "type": "uint256"
        },
        {
          "internalType": "string[]",
          "name": "strings",
          "type": "string[]"
        },
        {
          "internalType": "address[]",
          "name": "addresses",
          "type": "address[]"
        },
        {
          "internalType": "uint256[]",
          "name": "uints",
          "type": "uint256[]"
        },
        {
          "internalType": "bytes[]",
          "name": "bytess",
          "type": "bytes[]"
        }
      ],
      "name": "createToken",
      "outputs": [
        {
          "internalType": "address",
          "name": "token",
          "type": "address"
        }
      ],
      "stateMutability": "nonpayable",
      "type": "function"
    },
    {
      "inputs": [
        {
          "internalType": "string",
          "name": "name",
          "type": "string"
        },
        {
          "internalType": "string",
          "name": "symbol",
          "type": "string"
        },
        {
          "internalType": "uint256",
          "name": "_templateIndex",
          "type": "uint256"
        },
        {
          "internalType": "address",
          "name": "additionalERC20Deployer",
          "type": "address"
        },
        {
          "internalType": "string",
          "name": "tokenURI",
          "type": "string"
        }
      ],
      "name": "deployERC721Contract",
      "outputs": [
        {
          "internalType": "address",
          "name": "token",
          "type": "address"
        }
      ],
      "stateMutability": "nonpayable",
      "type": "function"
    },
    {
      "inputs": [
        {
          "internalType": "uint256",
          "name": "_index",
          "type": "uint256"
        }
      ],
      "name": "disable721TokenTemplate",
      "outputs": [],
      "stateMutability": "nonpayable",
      "type": "function"
    },
    {
      "inputs": [
        {
          "internalType": "uint256",
          "name": "_index",
          "type": "uint256"
        }
      ],
      "name": "disableTokenTemplate",
      "outputs": [],
      "stateMutability": "nonpayable",
      "type": "function"
    },
    {
      "inputs": [
        {
          "internalType": "address",
          "name": "",
          "type": "address"
        }
      ],
      "name": "erc20List",
      "outputs": [
        {
          "internalType": "bool",
          "name": "",
          "type": "bool"
        }
      ],
      "stateMutability": "view",
      "type": "function"
    },
    {
      "inputs": [
        {
          "internalType": "address",
          "name": "",
          "type": "address"
        }
      ],
      "name": "erc721List",
      "outputs": [
        {
          "internalType": "address",
          "name": "",
          "type": "address"
        }
      ],
      "stateMutability": "view",
      "type": "function"
    },
    {
      "inputs": [],
      "name": "getCurrentNFTCount",
      "outputs": [
        {
          "internalType": "uint256",
          "name": "",
          "type": "uint256"
        }
      ],
      "stateMutability": "view",
      "type": "function"
    },
    {
      "inputs": [],
      "name": "getCurrentNFTTemplateCount",
      "outputs": [
        {
          "internalType": "uint256",
          "name": "",
          "type": "uint256"
        }
      ],
      "stateMutability": "view",
      "type": "function"
    },
    {
      "inputs": [],
      "name": "getCurrentTemplateCount",
      "outputs": [
        {
          "internalType": "uint256",
          "name": "",
          "type": "uint256"
        }
      ],
      "stateMutability": "view",
      "type": "function"
    },
    {
      "inputs": [],
      "name": "getCurrentTokenCount",
      "outputs": [
        {
          "internalType": "uint256",
          "name": "",
          "type": "uint256"
        }
      ],
      "stateMutability": "view",
      "type": "function"
    },
    {
      "inputs": [
        {
          "internalType": "uint256",
          "name": "_index",
          "type": "uint256"
        }
      ],
      "name": "getNFTTemplate",
      "outputs": [
        {
          "components": [
            {
              "internalType": "address",
              "name": "templateAddress",
              "type": "address"
            },
            {
              "internalType": "bool",
              "name": "isActive",
              "type": "bool"
            }
          ],
          "internalType": "struct ERC721Factory.Template",
          "name": "",
          "type": "tuple"
        }
      ],
      "stateMutability": "view",
      "type": "function"
    },
    {
      "inputs": [
        {
          "internalType": "uint256",
          "name": "_index",
          "type": "uint256"
        }
      ],
      "name": "getTokenTemplate",
      "outputs": [
        {
          "components": [
            {
              "internalType": "address",
              "name": "templateAddress",
              "type": "address"
            },
            {
              "internalType": "bool",
              "name": "isActive",
              "type": "bool"
            }
          ],
          "internalType": "struct ERC721Factory.Template",
          "name": "",
          "type": "tuple"
        }
      ],
      "stateMutability": "view",
      "type": "function"
    },
    {
      "inputs": [
        {
          "internalType": "uint256",
          "name": "",
          "type": "uint256"
        }
      ],
      "name": "nftTemplateList",
      "outputs": [
        {
          "internalType": "address",
          "name": "templateAddress",
          "type": "address"
        },
        {
          "internalType": "bool",
          "name": "isActive",
          "type": "bool"
        }
      ],
      "stateMutability": "view",
      "type": "function"
    },
    {
      "inputs": [],
      "name": "owner",
      "outputs": [
        {
          "internalType": "address",
          "name": "",
          "type": "address"
        }
      ],
      "stateMutability": "view",
      "type": "function"
    },
    {
      "inputs": [
        {
          "internalType": "uint256",
          "name": "_index",
          "type": "uint256"
        }
      ],
      "name": "reactivate721TokenTemplate",
      "outputs": [],
      "stateMutability": "nonpayable",
      "type": "function"
    },
    {
      "inputs": [
        {
          "internalType": "uint256",
          "name": "_index",
          "type": "uint256"
        }
      ],
      "name": "reactivateTokenTemplate",
      "outputs": [],
      "stateMutability": "nonpayable",
      "type": "function"
    },
    {
      "inputs": [],
      "name": "renounceOwnership",
      "outputs": [],
      "stateMutability": "nonpayable",
      "type": "function"
    },
    {
      "inputs": [
        {
          "components": [
            {
              "internalType": "address",
              "name": "tokenAddress",
              "type": "address"
            },
            {
              "internalType": "bytes32",
              "name": "orderTxId",
              "type": "bytes32"
            },
            {
              "components": [
                {
                  "internalType": "address",
                  "name": "providerFeeAddress",
                  "type": "address"
                },
                {
                  "internalType": "address",
                  "name": "providerFeeToken",
                  "type": "address"
                },
                {
                  "internalType": "uint256",
                  "name": "providerFeeAmount",
                  "type": "uint256"
                },
                {
                  "internalType": "uint8",
                  "name": "v",
                  "type": "uint8"
                },
                {
                  "internalType": "bytes32",
                  "name": "r",
                  "type": "bytes32"
                },
                {
                  "internalType": "bytes32",
                  "name": "s",
                  "type": "bytes32"
                },
                {
                  "internalType": "uint256",
                  "name": "validUntil",
                  "type": "uint256"
                },
                {
                  "internalType": "bytes",
                  "name": "providerData",
                  "type": "bytes"
                }
              ],
              "internalType": "struct IERC20Template.providerFees",
              "name": "_providerFees",
              "type": "tuple"
            }
          ],
          "internalType": "struct ERC721Factory.reuseTokenOrder[]",
          "name": "orders",
          "type": "tuple[]"
        }
      ],
      "name": "reuseMultipleTokenOrder",
      "outputs": [],
      "stateMutability": "nonpayable",
      "type": "function"
    },
    {
      "inputs": [],
      "name": "router",
      "outputs": [
        {
          "internalType": "address",
          "name": "",
          "type": "address"
        }
      ],
      "stateMutability": "view",
      "type": "function"
    },
    {
      "inputs": [
        {
          "components": [
            {
              "internalType": "address",
              "name": "tokenAddress",
              "type": "address"
            },
            {
              "internalType": "address",
              "name": "consumer",
              "type": "address"
            },
            {
              "internalType": "uint256",
              "name": "serviceIndex",
              "type": "uint256"
            },
            {
              "components": [
                {
                  "internalType": "address",
                  "name": "providerFeeAddress",
                  "type": "address"
                },
                {
                  "internalType": "address",
                  "name": "providerFeeToken",
                  "type": "address"
                },
                {
                  "internalType": "uint256",
                  "name": "providerFeeAmount",
                  "type": "uint256"
                },
                {
                  "internalType": "uint8",
                  "name": "v",
                  "type": "uint8"
                },
                {
                  "internalType": "bytes32",
                  "name": "r",
                  "type": "bytes32"
                },
                {
                  "internalType": "bytes32",
                  "name": "s",
                  "type": "bytes32"
                },
                {
                  "internalType": "uint256",
                  "name": "validUntil",
                  "type": "uint256"
                },
                {
                  "internalType": "bytes",
                  "name": "providerData",
                  "type": "bytes"
                }
              ],
              "internalType": "struct IERC20Template.providerFees",
              "name": "_providerFees",
              "type": "tuple"
            }
          ],
          "internalType": "struct ERC721Factory.tokenOrder[]",
          "name": "orders",
          "type": "tuple[]"
        }
      ],
      "name": "startMultipleTokenOrder",
      "outputs": [],
      "stateMutability": "nonpayable",
      "type": "function"
    },
    {
      "inputs": [],
      "name": "templateCount",
      "outputs": [
        {
          "internalType": "uint256",
          "name": "",
          "type": "uint256"
        }
      ],
      "stateMutability": "view",
      "type": "function"
    },
    {
      "inputs": [
        {
          "internalType": "uint256",
          "name": "",
          "type": "uint256"
        }
      ],
      "name": "templateList",
      "outputs": [
        {
          "internalType": "address",
          "name": "templateAddress",
          "type": "address"
        },
        {
          "internalType": "bool",
          "name": "isActive",
          "type": "bool"
        }
      ],
      "stateMutability": "view",
      "type": "function"
    },
    {
      "inputs": [
        {
          "internalType": "address",
          "name": "newOwner",
          "type": "address"
        }
      ],
      "name": "transferOwnership",
      "outputs": [],
      "stateMutability": "nonpayable",
      "type": "function"
    }
  ],
  "bytecode": "0x60806040526000600a553480156200001657600080fd5b5060405162004132380380620041328339810160408190526200003991620005ab565b6200004433620001be565b600180556001600160a01b038316158015906200006957506001600160a01b03821615155b80156200007e57506001600160a01b03841615155b620001065760405162461bcd60e51b815260206004820152604760248201527f4552433732314454466163746f72793a20496e76616c69642074656d706c617460448201527f6520746f6b656e2f636f6d6d756e6974792066656520636f6c6c6563746f72206064820152666164647265737360c81b608482015260a4015b60405180910390fd5b6001600160a01b0381166200016e5760405162461bcd60e51b815260206004820152602760248201527f4552433732314454466163746f72793a20496e76616c696420726f75746572206044820152666164647265737360c81b6064820152608401620000fd565b62000179846200020e565b506200018583620003d1565b50600c80546001600160a01b039283166001600160a01b03199182161790915560028054939092169216919091179055506200062f9050565b600080546001600160a01b038381166001600160a01b0319831681178455604051919092169283917f8be0079c531659141344cd1fd0a4f28419497f9722a3daafe3b4186f6b6457e09190a35050565b600080546001600160a01b031633146200025a5760405162461bcd60e51b81526020600482018190526024820152600080516020620041128339815191526044820152606401620000fd565b6001600160a01b038216620002d85760405162461bcd60e51b815260206004820152603760248201527f4552433732314454466163746f72793a204552433732312074656d706c61746560448201527f2061646472657373283029204e4f5420414c4c4f5745440000000000000000006064820152608401620000fd565b813b620003285760405162461bcd60e51b815260206004820152601b60248201527f455243373231466163746f72793a204e4f5420434f4e545241435400000000006044820152606401620000fd565b6001600560008282546200033d919062000608565b90915550506040805180820182526001600160a01b038085168083526001602080850191825260058054600090815260069092528682208651815494511515600160a01b026001600160a81b03199095169616959095179290921790935554935192939290917fc0167b92c8eb4a2bad2c05e0134f076fba5d3cd54671a3e8edf13d2e61443bd991a350506005545b919050565b600080546001600160a01b031633146200041d5760405162461bcd60e51b81526020600482018190526024820152600080516020620041128339815191526044820152606401620000fd565b6001600160a01b0382166200049b5760405162461bcd60e51b815260206004820152603460248201527f4552433230466163746f72793a204552433732312074656d706c61746520616460448201527f6472657373283029204e4f5420414c4c4f5745440000000000000000000000006064820152608401620000fd565b813b620004eb5760405162461bcd60e51b815260206004820152601a60248201527f4552433230466163746f72793a204e4f5420434f4e54524143540000000000006044820152606401620000fd565b6001600b600082825462000500919062000608565b90915550506040805180820182526001600160a01b0380851680835260016020808501918252600b8054600090815260079092528682208651815494511515600160a01b026001600160a81b03199095169616959095179290921790935554935192939290917fdcd16da87b60cea6dbd55a83f73b8a4bf9a54655db58ae0f35b82a2373fc150d91a35050600b54919050565b80516001600160a01b0381168114620003cc57600080fd5b60008060008060808587031215620005c257600080fd5b620005cd8562000593565b9350620005dd6020860162000593565b9250620005ed6040860162000593565b9150620005fd6060860162000593565b905092959194509250565b600082198211156200062a57634e487b7160e01b600052601160045260246000fd5b500190565b613ad3806200063f6000396000f3fe608060405234801561001057600080fd5b50600436106101cf5760003560e01c80638989886911610104578063bbf8d71f116100a2578063e5fc01f011610071578063e5fc01f01461051d578063f2fde38b14610525578063f887ea4014610538578063fd024d6a1461054b57600080fd5b8063bbf8d71f14610492578063c6cf868a146104a5578063ca4abc69146104ad578063e3491099146104ea57600080fd5b806394051699116100de578063940516991461040957806395c603051461043e578063a33ef2a614610446578063b9cd22641461045957600080fd5b806389898869146103d25780638da5cb5b146103e55780638f6051af146103f657600080fd5b80635c70598211610171578063732752141161014b57806373275214146103455780637b20bccf14610358578063809d81051461036b57806382c442041461037e57600080fd5b80635c7059821461030c578063715018a61461031457806372f670f01461031c57600080fd5b80632515422e116101ad5780632515422e1461025a57806326705c3c1461026d5780633315efd114610284578063557fcfb0146102e157600080fd5b8063042ab9b3146101d45780630ffda88714610212578063226e761514610227575b600080fd5b6101e76101e23660046128d1565b61055e565b6040805182516001600160a01b03168152602092830151151592810192909252015b60405180910390f35b6102256102203660046128d1565b6105e5565b005b61024a61023536600461290a565b60096020526000908152604090205460ff1681565b6040519015158152602001610209565b610225610268366004612b20565b61062a565b610276600b5481565b604051908152602001610209565b6101e76102923660046128d1565b6040805180820190915260008082526020820152506000908152600660209081526040918290208251808401909352546001600160a01b0381168352600160a01b900460ff1615159082015290565b6102f46102ef366004612d6f565b61090b565b6040516001600160a01b039091168152602001610209565b600354610276565b6102256109ac565b6102f461032a36600461290a565b6008602052600090815260409020546001600160a01b031681565b610225610353366004612e97565b6109e2565b61027661036636600461290a565b610e24565b6102256103793660046128d1565b610fb7565b6103b361038c3660046128d1565b6006602052600090815260409020546001600160a01b03811690600160a01b900460ff1682565b604080516001600160a01b039093168352901515602083015201610209565b6102f46103e0366004612fa1565b611029565b6000546001600160a01b03166102f4565b61027661040436600461290a565b6112fa565b6103b36104173660046128d1565b6007602052600090815260409020546001600160a01b03811690600160a01b900460ff1682565b600b54610276565b6102256104543660046128d1565b611495565b61046c610467366004613076565b61150d565b604080516001600160a01b03948516815293909216602084015290820152606001610209565b6102256104a03660046128d1565b6117be565b600a54610276565b6104c06104bb366004613076565b61187a565b604080516001600160a01b0394851681529284166020840152921691810191909152606001610209565b6104fd6104f83660046130fd565b611ae2565b604080516001600160a01b03938416815292909116602083015201610209565b600554610276565b61022561053336600461290a565b611cba565b600c546102f4906001600160a01b031681565b6104fd610559366004613160565b611d55565b60408051808201909152600080825260208201526000828152600760209081526040918290208251808401909352546001600160a01b0381168352600160a01b900460ff16151590820152600b5483118015906105ba57508215155b6105df5760405162461bcd60e51b81526004016105d6906131d4565b60405180910390fd5b92915050565b6000546001600160a01b0316331461060f5760405162461bcd60e51b81526004016105d69061321d565b6000908152600760205260409020805460ff60a01b19169055565b6002600154141561064d5760405162461bcd60e51b81526004016105d690613252565b60026001558051603210156106a45760405162461bcd60e51b815260206004820152601e60248201527f455243373231466163746f72793a20546f6f204d616e79204f7264657273000060448201526064016105d6565b60005b81518110156109035760008282815181106106c4576106c4613289565b60200260200101516040015160400151118015610715575060006001600160a01b03168282815181106106f9576106f9613289565b602002602001015160400151602001516001600160a01b031614155b8015610755575060006001600160a01b031682828151811061073957610739613289565b602002602001015160400151600001516001600160a01b031614155b15610839576107bc333084848151811061077157610771613289565b6020026020010151604001516040015185858151811061079357610793613289565b602002602001015160400151602001516001600160a01b0316611feb909392919063ffffffff16565b6108398282815181106107d1576107d1613289565b6020026020010151600001518383815181106107ef576107ef613289565b6020026020010151604001516040015184848151811061081157610811613289565b602002602001015160400151602001516001600160a01b031661205c9092919063ffffffff16565b81818151811061084b5761084b613289565b6020026020010151600001516001600160a01b031663361fef4983838151811061087757610877613289565b60200260200101516020015184848151811061089557610895613289565b6020026020010151604001516040518363ffffffff1660e01b81526004016108be92919061336b565b600060405180830381600087803b1580156108d857600080fd5b505af11580156108ec573d6000803e3d6000fd5b5050505080806108fb9061339a565b9150506106a7565b505060018055565b3360008181526008602052604081205490916001600160a01b03909116146109945760405162461bcd60e51b815260206004820152603660248201527f455243373231466163746f72793a204f4e4c592045524337323120494e5354416044820152754e43452046524f4d20455243373231464143544f525960501b60648201526084016105d6565b6109a286868686863361210e565b9695505050505050565b6000546001600160a01b031633146109d65760405162461bcd60e51b81526004016105d69061321d565b6109e060006123f3565b565b60026001541415610a055760405162461bcd60e51b81526004016105d690613252565b6002600155805160321015610a5c5760405162461bcd60e51b815260206004820152601e60248201527f455243373231466163746f72793a20546f6f204d616e79204f7264657273000060448201526064016105d6565b60005b8151811015610903576000806000848481518110610a7f57610a7f613289565b6020026020010151600001516001600160a01b031663397b37436040518163ffffffff1660e01b8152600401606060405180830381865afa158015610ac8573d6000803e3d6000fd5b505050506040513d601f19601f82011682018060405250810190610aec91906133b5565b925092509250600081118015610b0a57506001600160a01b03821615155b8015610b1e57506001600160a01b03831615155b15610b6a57610b386001600160a01b038316333084611feb565b610b6a858581518110610b4d57610b4d613289565b6020908102919091010151516001600160a01b038416908361205c565b6000858581518110610b7e57610b7e613289565b60200260200101516060015160400151118015610bcf575060006001600160a01b0316858581518110610bb357610bb3613289565b602002602001015160600151602001516001600160a01b031614155b8015610c0f575060006001600160a01b0316858581518110610bf357610bf3613289565b602002602001015160600151600001516001600160a01b031614155b15610cf357610c763330878781518110610c2b57610c2b613289565b60200260200101516060015160400151888881518110610c4d57610c4d613289565b602002602001015160600151602001516001600160a01b0316611feb909392919063ffffffff16565b610cf3858581518110610c8b57610c8b613289565b602002602001015160000151868681518110610ca957610ca9613289565b60200260200101516060015160400151878781518110610ccb57610ccb613289565b602002602001015160600151602001516001600160a01b031661205c9092919063ffffffff16565b610d383330670de0b6b3a7640000888881518110610d1357610d13613289565b6020026020010151600001516001600160a01b0316611feb909392919063ffffffff16565b848481518110610d4a57610d4a613289565b6020026020010151600001516001600160a01b031663363bdb46868681518110610d7657610d76613289565b602002602001015160200151878781518110610d9457610d94613289565b602002602001015160400151888881518110610db257610db2613289565b6020026020010151606001516040518463ffffffff1660e01b8152600401610ddc939291906133f8565b600060405180830381600087803b158015610df657600080fd5b505af1158015610e0a573d6000803e3d6000fd5b505050505050508080610e1c9061339a565b915050610a5f565b600080546001600160a01b03163314610e4f5760405162461bcd60e51b81526004016105d69061321d565b6001600160a01b038216610ec25760405162461bcd60e51b815260206004820152603460248201527f4552433230466163746f72793a204552433732312074656d706c617465206164604482015273191c995cdcca0c0a481393d50810531313d5d15160621b60648201526084016105d6565b813b610f105760405162461bcd60e51b815260206004820152601a60248201527f4552433230466163746f72793a204e4f5420434f4e545241435400000000000060448201526064016105d6565b6001600b6000828254610f23919061341f565b90915550506040805180820182526001600160a01b0380851680835260016020808501918252600b8054600090815260079092528682208651815494511515600160a01b026001600160a81b03199095169616959095179290921790935554935192939290917fdcd16da87b60cea6dbd55a83f73b8a4bf9a54655db58ae0f35b82a2373fc150d91a35050600b545b919050565b6000546001600160a01b03163314610fe15760405162461bcd60e51b81526004016105d69061321d565b6005548111158015610ff257508015155b61100e5760405162461bcd60e51b81526004016105d690613437565b6000908152600660205260409020805460ff60a01b19169055565b6000600554841115801561103c57508315155b6110585760405162461bcd60e51b81526004016105d690613437565b6000848152600660209081526040918290208251808401909352546001600160a01b0381168352600160a01b900460ff1615159082018190526110f45760405162461bcd60e51b815260206004820152602e60248201527f4552433732314454466163746f72793a20455243373231546f6b656e2054656d60448201526d1c1b185d1948191a5cd8589b195960921b60648201526084016105d6565b80516110ff90612443565b91506001600160a01b03821661117f576040805162461bcd60e51b81526020600482015260248101919091527f4552433732314454466163746f72793a204661696c656420746f20706572666f60448201527f726d206d696e696d616c206465706c6f79206f662061206e657720746f6b656e60648201526084016105d6565b6001600160a01b0382166000818152600860205260409081902080546001600160a01b03191683179055516370c166d760e01b81528391906370c166d7906111d59033908c908c9030908c908c90600401613483565b6020604051808303816000875af11580156111f4573d6000803e3d6000fd5b505050506040513d601f19601f8201168201806040525081019061121891906134f7565b6112815760405162461bcd60e51b815260206004820152603460248201527f4552433732314454466163746f72793a20556e61626c6520746f20696e697469604482015273616c697a6520746f6b656e20696e7374616e636560601b60648201526084016105d6565b81600001516001600160a01b0316836001600160a01b03167f46f5e3cee761854fc3892024ae7aa2c832007dff583603ce093f177ebd9c4c968a338b896040516112ce9493929190613514565b60405180910390a36001600360008282546112e9919061341f565b909155509298975050505050505050565b600080546001600160a01b031633146113255760405162461bcd60e51b81526004016105d69061321d565b6001600160a01b0382166113a15760405162461bcd60e51b815260206004820152603760248201527f4552433732314454466163746f72793a204552433732312074656d706c61746560448201527f2061646472657373283029204e4f5420414c4c4f57454400000000000000000060648201526084016105d6565b813b6113ef5760405162461bcd60e51b815260206004820152601b60248201527f455243373231466163746f72793a204e4f5420434f4e5452414354000000000060448201526064016105d6565b600160056000828254611402919061341f565b90915550506040805180820182526001600160a01b038085168083526001602080850191825260058054600090815260069092528682208651815494511515600160a01b026001600160a81b03199095169616959095179290921790935554935192939290917fc0167b92c8eb4a2bad2c05e0134f076fba5d3cd54671a3e8edf13d2e61443bd991a35050600554919050565b6000546001600160a01b031633146114bf5760405162461bcd60e51b81526004016105d69061321d565b60055481111580156114d057508015155b6114ec5760405162461bcd60e51b81526004016105d690613437565b6000908152600660205260409020805460ff60a01b1916600160a01b179055565b6000806000600260015414156115355760405162461bcd60e51b81526004016105d690613252565b600260015561160a611547878061355c565b8080601f01602080910402602001604051908101604052809392919081815260200183838082843760009201919091525061158992505050602089018961355c565b8080601f0160208091040260200160405190810160405280939291908181526020018383808284376000920191909152505050506040890135306115d060608c018c61355c565b8080601f01602080910402602001604051908101604052809392919081815260200183838082843760009201919091525061102992505050565b92506001600160a01b03831663e38d7cad863561162a60208901896135a9565b61163760408b018b6135a9565b61164460608d018d6135a9565b61165160808f018f6135a9565b6040518a63ffffffff1660e01b81526004016116759998979695949392919061373c565b6020604051808303816000875af1158015611694573d6000803e3d6000fd5b505050506040513d601f19601f820116820180604052508101906116b891906137ed565b91506001600160a01b038216638b96412b6116d6602087018761290a565b6116e360208801886135a9565b6116f060408a018a6135a9565b6040518663ffffffff1660e01b815260040161171095949392919061380a565b6020604051808303816000875af115801561172f573d6000803e3d6000fd5b505050506040513d601f19601f82011682018060405250810190611753919061384e565b6040516301fc3d9160e71b81523060048201529091506001600160a01b0384169063fe1ec88090602401600060405180830381600087803b15801561179757600080fd5b505af11580156117ab573d6000803e3d6000fd5b5050600180555092969195509350915050565b6000546001600160a01b031633146117e85760405162461bcd60e51b81526004016105d69061321d565b600b5481111580156117f957508015155b6118595760405162461bcd60e51b815260206004820152602b60248201527f45524332304454466163746f72793a2054656d706c61746520696e646578206460448201526a1bd95cdb9d08195e1a5cdd60aa1b60648201526084016105d6565b6000908152600760205260409020805460ff60a01b1916600160a01b179055565b6000806000600260015414156118a25760405162461bcd60e51b81526004016105d690613252565b600260015561191533306118b960208801886135a9565b60048181106118ca576118ca613289565b602002919091013590506118de88806135a9565b60018181106118ef576118ef613289565b9050602002016020810190611904919061290a565b6001600160a01b0316929190611feb565b611922611547878061355c565b92506001600160a01b03831663e38d7cad863561194260208901896135a9565b61194f60408b018b6135a9565b61195c60608d018d6135a9565b61196960808f018f6135a9565b6040518a63ffffffff1660e01b815260040161198d9998979695949392919061373c565b6020604051808303816000875af11580156119ac573d6000803e3d6000fd5b505050506040513d601f19601f820116820180604052508101906119d091906137ed565b600c54909250611a4b906001600160a01b03166119f060208701876135a9565b6004818110611a0157611a01613289565b60200291909101359050611a1587806135a9565b6001818110611a2657611a26613289565b9050602002016020810190611a3b919061290a565b6001600160a01b0316919061205c565b6001600160a01b038216635bfe4da0611a6760208701876135a9565b611a7460408901896135a9565b611a7e8a806135a9565b6040518763ffffffff1660e01b8152600401611a9f96959493929190613867565b6020604051808303816000875af1158015611abe573d6000803e3d6000fd5b505050506040513d601f19601f8201168201806040525081019061175391906137ed565b60008060026001541415611b085760405162461bcd60e51b81526004016105d690613252565b6002600155611ba3611b1a858061355c565b8080601f016020809104026020016040519081016040528093929190818152602001838380828437600092019190915250611b5c92505050602087018761355c565b8080601f0160208091040260200160405190810160405280939291908181526020018383808284376000920191909152505050506040870135306115d060608a018a61355c565b91506001600160a01b03821663e38d7cad8435611bc360208701876135a9565b611bd060408901896135a9565b611bdd60608b018b6135a9565b611bea60808d018d6135a9565b6040518a63ffffffff1660e01b8152600401611c0e9998979695949392919061373c565b6020604051808303816000875af1158015611c2d573d6000803e3d6000fd5b505050506040513d601f19601f82011682018060405250810190611c5191906137ed565b6040516301fc3d9160e71b81523060048201529091506001600160a01b0383169063fe1ec88090602401600060405180830381600087803b158015611c9557600080fd5b505af1158015611ca9573d6000803e3d6000fd5b505060018055509194909350915050565b6000546001600160a01b03163314611ce45760405162461bcd60e51b81526004016105d69061321d565b6001600160a01b038116611d495760405162461bcd60e51b815260206004820152602660248201527f4f776e61626c653a206e6577206f776e657220697320746865207a65726f206160448201526564647265737360d01b60648201526084016105d6565b611d52816123f3565b50565b60008060026001541415611d7b5760405162461bcd60e51b81526004016105d690613252565b6002600155611e16611d8d868061355c565b8080601f016020809104026020016040519081016040528093929190818152602001838380828437600092019190915250611dcf92505050602088018861355c565b8080601f0160208091040260200160405190810160405280939291908181526020018383808284376000920191909152505050506040880135306115d060608b018b61355c565b91506001600160a01b03821663e38d7cad8535611e3660208801886135a9565b611e4360408a018a6135a9565b611e5060608c018c6135a9565b611e5d60808e018e6135a9565b6040518a63ffffffff1660e01b8152600401611e819998979695949392919061373c565b6020604051808303816000875af1158015611ea0573d6000803e3d6000fd5b505050506040513d601f19601f82011682018060405250810190611ec491906137ed565b90506001600160a01b03811663191c918a611ee2602086018661290a565b60208601356040870135611efc6080890160608a016138b0565b611f0c60a08a0160808b0161290a565b60405160e087901b6001600160e01b03191681526001600160a01b0395861660048201526024810194909452604484019290925215156064830152909116608482015260a401600060405180830381600087803b158015611f6c57600080fd5b505af1158015611f80573d6000803e3d6000fd5b50506040516301fc3d9160e71b81523060048201526001600160a01b038516925063fe1ec8809150602401600060405180830381600087803b158015611fc557600080fd5b505af1158015611fd9573d6000803e3d6000fd5b50506001805550919590945092505050565b6040516001600160a01b03808516602483015283166044820152606481018290526120569085906323b872dd60e01b906084015b60408051601f198184030181529190526020810180516001600160e01b03166001600160e01b0319909316929092179091526124d3565b50505050565b604051636eb1769f60e11b81523060048201526001600160a01b038381166024830152600091839186169063dd62ed3e90604401602060405180830381865afa1580156120ad573d6000803e3d6000fd5b505050506040513d601f19601f820116820180604052508101906120d1919061384e565b6120db919061341f565b6040516001600160a01b03851660248201526044810182905290915061205690859063095ea7b360e01b9060640161201f565b60008360008151811061212357612123613289565b6020026020010151600014156121895760405162461bcd60e51b815260206004820152602560248201527f4552433230466163746f72793a207a65726f20636170206973206e6f7420616c6044820152641b1bddd95960da1b60648201526084016105d6565b600b54871115801561219a57508615155b6121b65760405162461bcd60e51b81526004016105d6906131d4565b6000878152600760209081526040918290208251808401909352546001600160a01b0381168352600160a01b900460ff16151590820181905261224f5760405162461bcd60e51b815260206004820152602b60248201527f4552433230466163746f72793a20455243373231546f6b656e2054656d706c6160448201526a1d1948191a5cd8589b195960aa1b60648201526084016105d6565b805161225a90612443565b6001600160a01b0381166000818152600960205260409020805460ff191660011790559092506122f25760405162461bcd60e51b815260206004820152603e60248201527f455243373231466163746f72793a204661696c656420746f20706572666f726d60448201527f206d696e696d616c206465706c6f79206f662061206e657720746f6b656e000060648201526084016105d6565b80600001516001600160a01b0316826001600160a01b03167f567699dbf7c5f63a51a42fd451f5e065bca0dfc723adf2cc498bbb7cfb780b908960008151811061233e5761233e613289565b60200260200101518a60018151811061235957612359613289565b60200260200101518960008151811061237457612374613289565b60200260200101518860405161238d94939291906138cd565b60405180910390a36001600a60008282546123a8919061341f565b90915550506040805160a081018252888152602081018890529081018690526001600160a01b0384166080820152606081018590526123e783826125aa565b50509695505050505050565b600080546001600160a01b038381166001600160a01b0319831681178455604051919092169283917f8be0079c531659141344cd1fd0a4f28419497f9722a3daafe3b4186f6b6457e09190a35050565b6000808260601b9050604051733d602d80600a3d3981f3363d3d373d3d3d363d7360601b81528160148201526e5af43d82803e903d91602b57fd5bf360881b60288201526037816000f06040516001600160a01b03821681529093507f117c72e6c25f0a072e36e148df71468ce2f3dbe7defec5b2c257a6e3eb65278c915060200160405180910390a150919050565b6000612528826040518060400160405280602081526020017f5361666545524332303a206c6f772d6c6576656c2063616c6c206661696c6564815250856001600160a01b03166127579092919063ffffffff16565b8051909150156125a5578080602001905181019061254691906134f7565b6125a55760405162461bcd60e51b815260206004820152602a60248201527f5361666545524332303a204552433230206f7065726174696f6e20646964206e6044820152691bdd081cdd58d8d9595960b21b60648201526084016105d6565b505050565b60408051600380825260808201909252839160009190602082016060803683370190505090508260800151816000815181106125e8576125e8613289565b6001600160a01b03928316602091820292909201015260025482519116908290600190811061261957612619613289565b6001600160a01b039283166020918202929092010152600c5482519116908290600290811061264a5761264a613289565b60200260200101906001600160a01b031690816001600160a01b031681525050816001600160a01b031663b3998be08460000151856020015184876040015188606001516040518663ffffffff1660e01b81526004016126ae9594939291906139c5565b6020604051808303816000875af11580156126cd573d6000803e3d6000fd5b505050506040513d601f19601f820116820180604052508101906126f191906134f7565b6120565760405162461bcd60e51b815260206004820152603160248201527f4552433230466163746f72793a20556e61626c6520746f20696e697469616c696044820152707a6520746f6b656e20696e7374616e636560781b60648201526084016105d6565b60606127668484600085612770565b90505b9392505050565b6060824710156127d15760405162461bcd60e51b815260206004820152602660248201527f416464726573733a20696e73756666696369656e742062616c616e636520666f6044820152651c8818d85b1b60d21b60648201526084016105d6565b843b61281f5760405162461bcd60e51b815260206004820152601d60248201527f416464726573733a2063616c6c20746f206e6f6e2d636f6e747261637400000060448201526064016105d6565b600080866001600160a01b0316858760405161283b9190613a6e565b60006040518083038185875af1925050503d8060008114612878576040519150601f19603f3d011682016040523d82523d6000602084013e61287d565b606091505b509150915061288d828286612898565b979650505050505050565b606083156128a7575081612769565b8251156128b75782518084602001fd5b8160405162461bcd60e51b81526004016105d69190613a8a565b6000602082840312156128e357600080fd5b5035919050565b6001600160a01b0381168114611d5257600080fd5b8035610fb2816128ea565b60006020828403121561291c57600080fd5b8135612769816128ea565b634e487b7160e01b600052604160045260246000fd5b60405161010081016001600160401b038111828210171561296057612960612927565b60405290565b604051606081016001600160401b038111828210171561296057612960612927565b604051608081016001600160401b038111828210171561296057612960612927565b604051601f8201601f191681016001600160401b03811182821017156129d2576129d2612927565b604052919050565b60006001600160401b038211156129f3576129f3612927565b5060051b60200190565b803560ff81168114610fb257600080fd5b600082601f830112612a1f57600080fd5b81356001600160401b03811115612a3857612a38612927565b612a4b601f8201601f19166020016129aa565b818152846020838601011115612a6057600080fd5b816020850160208301376000918101602001919091529392505050565b60006101008284031215612a9057600080fd5b612a9861293d565b9050612aa3826128ff565b8152612ab1602083016128ff565b602082015260408201356040820152612acc606083016129fd565b60608201526080820135608082015260a082013560a082015260c082013560c082015260e08201356001600160401b03811115612b0857600080fd5b612b1484828501612a0e565b60e08301525092915050565b60006020808385031215612b3357600080fd5b82356001600160401b0380821115612b4a57600080fd5b818501915085601f830112612b5e57600080fd5b8135612b71612b6c826129da565b6129aa565b81815260059190911b83018401908481019088831115612b9057600080fd5b8585015b83811015612c1957803585811115612bac5760008081fd5b86016060818c03601f1901811315612bc45760008081fd5b612bcc612966565b89830135612bd9816128ea565b81526040838101358b830152918301359188831115612bf85760008081fd5b612c068e8c85870101612a7d565b9082015285525050918601918601612b94565b5098975050505050505050565b600082601f830112612c3757600080fd5b81356020612c47612b6c836129da565b82815260059290921b84018101918181019086841115612c6657600080fd5b8286015b84811015612c8a578035612c7d816128ea565b8352918301918301612c6a565b509695505050505050565b600082601f830112612ca657600080fd5b81356020612cb6612b6c836129da565b82815260059290921b84018101918181019086841115612cd557600080fd5b8286015b84811015612c8a5780358352918301918301612cd9565b600082601f830112612d0157600080fd5b81356020612d11612b6c836129da565b82815260059290921b84018101918181019086841115612d3057600080fd5b8286015b84811015612c8a5780356001600160401b03811115612d535760008081fd5b612d618986838b0101612a0e565b845250918301918301612d34565b600080600080600060a08688031215612d8757600080fd5b853594506020808701356001600160401b0380821115612da657600080fd5b818901915089601f830112612dba57600080fd5b8135612dc8612b6c826129da565b81815260059190911b8301840190848101908c831115612de757600080fd5b8585015b83811015612e1f57803585811115612e035760008081fd5b612e118f89838a0101612a0e565b845250918601918601612deb565b50985050506040890135925080831115612e3857600080fd5b612e448a848b01612c26565b95506060890135925080831115612e5a57600080fd5b612e668a848b01612c95565b94506080890135925080831115612e7c57600080fd5b5050612e8a88828901612cf0565b9150509295509295909350565b60006020808385031215612eaa57600080fd5b82356001600160401b0380821115612ec157600080fd5b818501915085601f830112612ed557600080fd5b8135612ee3612b6c826129da565b81815260059190911b83018401908481019088831115612f0257600080fd5b8585015b83811015612c1957803585811115612f1e5760008081fd5b86016080818c03601f1901811315612f365760008081fd5b612f3e612988565b89830135612f4b816128ea565b8152604083810135612f5c816128ea565b828c015260608481013582840152928401359289841115612f7f57600091508182fd5b612f8d8f8d86880101612a7d565b908301525085525050918601918601612f06565b600080600080600060a08688031215612fb957600080fd5b85356001600160401b0380821115612fd057600080fd5b612fdc89838a01612a0e565b96506020880135915080821115612ff257600080fd5b612ffe89838a01612a0e565b95506040880135945060608801359150613017826128ea565b9092506080870135908082111561302d57600080fd5b50612e8a88828901612a0e565b60006080828403121561304c57600080fd5b50919050565b600060a0828403121561304c57600080fd5b60006060828403121561304c57600080fd5b60008060006060848603121561308b57600080fd5b83356001600160401b03808211156130a257600080fd5b6130ae8783880161303a565b945060208601359150808211156130c457600080fd5b6130d087838801613052565b935060408601359150808211156130e657600080fd5b506130f386828701613064565b9150509250925092565b6000806040838503121561311057600080fd5b82356001600160401b038082111561312757600080fd5b6131338683870161303a565b9350602085013591508082111561314957600080fd5b5061315685828601613052565b9150509250929050565b600080600060e0848603121561317557600080fd5b83356001600160401b038082111561318c57600080fd5b6131988783880161303a565b945060208601359150808211156131ae57600080fd5b506131bb86828701613052565b9250506131cb8560408601613052565b90509250925092565b60208082526029908201527f4552433230466163746f72793a2054656d706c61746520696e64657820646f656040820152681cdb9d08195e1a5cdd60ba1b606082015260800190565b6020808252818101527f4f776e61626c653a2063616c6c6572206973206e6f7420746865206f776e6572604082015260600190565b6020808252601f908201527f5265656e7472616e637947756172643a207265656e7472616e742063616c6c00604082015260600190565b634e487b7160e01b600052603260045260246000fd5b60005b838110156132ba5781810151838201526020016132a2565b838111156120565750506000910152565b600081518084526132e381602086016020860161329f565b601f01601f19169290920160200192915050565b600061010060018060a01b03808451168552806020850151166020860152506040830151604085015260ff60608401511660608501526080830151608085015260a083015160a085015260c083015160c085015260e08301518160e0860152613362828601826132cb565b95945050505050565b82815260406020820152600061276660408301846132f7565b634e487b7160e01b600052601160045260246000fd5b60006000198214156133ae576133ae613384565b5060010190565b6000806000606084860312156133ca57600080fd5b83516133d5816128ea565b60208501519093506133e6816128ea565b80925050604084015190509250925092565b60018060a01b038416815282602082015260606040820152600061336260608301846132f7565b6000821982111561343257613432613384565b500190565b6020808252602c908201527f4552433732314454466163746f72793a2054656d706c61746520696e6465782060408201526b191bd95cdb9d08195e1a5cdd60a21b606082015260800190565b600060018060a01b03808916835260c060208401526134a560c08401896132cb565b83810360408501526134b781896132cb565b90508187166060850152818616608085015283810360a08501526134db81866132cb565b9a9950505050505050505050565b8015158114611d5257600080fd5b60006020828403121561350957600080fd5b8151612769816134e9565b60808152600061352760808301876132cb565b6001600160a01b0386166020840152828103604084015261354881866132cb565b9050828103606084015261288d81856132cb565b6000808335601e1984360301811261357357600080fd5b8301803591506001600160401b0382111561358d57600080fd5b6020019150368190038213156135a257600080fd5b9250929050565b6000808335601e198436030181126135c057600080fd5b8301803591506001600160401b038211156135da57600080fd5b6020019150600581901b36038213156135a257600080fd5b81835281816020850137506000828201602090810191909152601f909101601f19169091010190565b6000808335601e1984360301811261363257600080fd5b83016020810192503590506001600160401b0381111561365157600080fd5b8036038313156135a257600080fd5b8183526000602080850194508260005b8581101561369e578135613683816128ea565b6001600160a01b031687529582019590820190600101613670565b509495945050505050565b81835260006001600160fb1b038311156136c257600080fd5b8260051b8083602087013760009401602001938452509192915050565b81835260006020808501808196508560051b810191508460005b8781101561372f578284038952613710828861361b565b61371b8682846135f2565b9a87019a95505050908401906001016136f9565b5091979650505050505050565b89815260a0602082018190528101889052600060c060058a901b830181019083018b835b8c81101561379d5785840360bf1901835261377b828f61361b565b6137868682846135f2565b955050506020928301929190910190600101613760565b50505082810360408401526137b381898b613660565b905082810360608401526137c88187896136a9565b905082810360808401526137dd8185876136df565b9c9b505050505050505050505050565b6000602082840312156137ff57600080fd5b8151612769816128ea565b6001600160a01b038616815260606020820181905260009061382f9083018688613660565b82810360408401526138428185876136a9565b98975050505050505050565b60006020828403121561386057600080fd5b5051919050565b60608152600061387b60608301888a6136a9565b828103602084015261388e8187896136a9565b905082810360408401526138a3818587613660565b9998505050505050505050565b6000602082840312156138c257600080fd5b8135612769816134e9565b6080815260006138e060808301876132cb565b82810360208401526138f281876132cb565b604084019590955250506001600160a01b039190911660609091015292915050565b600081518084526020808501945080840160005b8381101561369e5781516001600160a01b031687529582019590820190600101613928565b600081518084526020808501945080840160005b8381101561369e57815187529582019590820190600101613961565b600081518084526020808501808196508360051b8101915082860160005b8581101561372f5782840389526139b38483516132cb565b9885019893509084019060010161399b565b600060a0820160a0835280885180835260c08501915060c08160051b86010192506020808b0160005b83811015613a1c5760bf19888703018552613a0a8683516132cb565b955093820193908201906001016139ee565b505085840381870152505050613a328188613914565b90508281036040840152613a468187613914565b90508281036060840152613a5a818661394d565b90508281036080840152613842818561397d565b60008251613a8081846020870161329f565b9190910192915050565b60208152600061276960208301846132cb56fea2646970667358221220079986fff89a500d5297223fcc55bfe9114fa00e5f814524bf37d37f5d60ae9d64736f6c634300080a00334f776e61626c653a2063616c6c6572206973206e6f7420746865206f776e6572",
  "linkReferences": {},
  "deployedLinkReferences": {}
}