{
  "_format": "hh-sol-artifact-1",
  "contractName": "ERC721Factory",
  "sourceName": "contracts/ERC721Factory.sol",
  "abi": [
    {
      "inputs": [
        {
          "internalType": "address",
          "name": "_template721",
          "type": "address"
        },
        {
          "internalType": "address",
          "name": "_template",
          "type": "address"
        },
        {
          "internalType": "address",
          "name": "_collector",
          "type": "address"
        },
        {
          "internalType": "address",
          "name": "_router",
          "type": "address"
        }
      ],
      "stateMutability": "nonpayable",
      "type": "constructor"
    },
    {
      "anonymous": false,
      "inputs": [
        {
          "indexed": true,
          "internalType": "address",
          "name": "datatokenAddress",
          "type": "address"
        },
        {
          "indexed": true,
          "internalType": "address",
          "name": "owner",
          "type": "address"
        },
        {
          "indexed": false,
          "internalType": "uint256",
          "name": "maxTokens",
          "type": "uint256"
        },
        {
          "indexed": false,
          "internalType": "uint256",
          "name": "maxBalance",
          "type": "uint256"
        },
        {
          "indexed": false,
          "internalType": "address",
          "name": "allowedSwapper",
          "type": "address"
        }
      ],
      "name": "DispenserCreated",
      "type": "event"
    },
    {
      "anonymous": false,
      "inputs": [
        {
          "indexed": false,
          "internalType": "address",
          "name": "instance",
          "type": "address"
        }
      ],
      "name": "InstanceDeployed",
      "type": "event"
    },
    {
      "anonymous": false,
      "inputs": [
        {
          "indexed": false,
          "internalType": "address",
          "name": "newTokenAddress",
          "type": "address"
        },
        {
          "indexed": true,
          "internalType": "address",
          "name": "templateAddress",
          "type": "address"
        },
        {
          "indexed": false,
          "internalType": "string",
          "name": "tokenName",
          "type": "string"
        },
        {
          "indexed": true,
          "internalType": "address",
          "name": "admin",
          "type": "address"
        },
        {
          "indexed": false,
          "internalType": "string",
          "name": "symbol",
          "type": "string"
        },
        {
          "indexed": false,
          "internalType": "string",
          "name": "tokenURI",
          "type": "string"
        },
        {
          "indexed": false,
          "internalType": "bool",
          "name": "transferable",
          "type": "bool"
        },
        {
          "indexed": true,
          "internalType": "address",
          "name": "creator",
          "type": "address"
        }
      ],
      "name": "NFTCreated",
      "type": "event"
    },
    {
      "anonymous": false,
      "inputs": [
        {
          "indexed": false,
          "internalType": "address",
          "name": "dispenserContract",
          "type": "address"
        }
      ],
      "name": "NewDispenser",
      "type": "event"
    },
    {
      "anonymous": false,
      "inputs": [
        {
          "indexed": false,
          "internalType": "bytes32",
          "name": "exchangeId",
          "type": "bytes32"
        },
        {
          "indexed": true,
          "internalType": "address",
          "name": "owner",
          "type": "address"
        },
        {
          "indexed": false,
          "internalType": "address",
          "name": "exchangeContract",
          "type": "address"
        },
        {
          "indexed": true,
          "internalType": "address",
          "name": "baseToken",
          "type": "address"
        }
      ],
      "name": "NewFixedRate",
      "type": "event"
    },
    {
      "anonymous": false,
      "inputs": [
        {
          "indexed": false,
          "internalType": "address",
          "name": "poolAddress",
          "type": "address"
        },
        {
          "indexed": false,
          "internalType": "address",
          "name": "ssContract",
          "type": "address"
        },
        {
          "indexed": false,
          "internalType": "address",
          "name": "baseTokenAddress",
          "type": "address"
        }
      ],
      "name": "NewPool",
      "type": "event"
    },
    {
      "anonymous": false,
      "inputs": [
        {
          "indexed": true,
          "internalType": "address",
          "name": "previousOwner",
          "type": "address"
        },
        {
          "indexed": true,
          "internalType": "address",
          "name": "newOwner",
          "type": "address"
        }
      ],
      "name": "OwnershipTransferred",
      "type": "event"
    },
    {
      "anonymous": false,
      "inputs": [
        {
          "indexed": true,
          "internalType": "address",
          "name": "_templateAddress",
          "type": "address"
        },
        {
          "indexed": true,
          "internalType": "uint256",
          "name": "nftTemplateCount",
          "type": "uint256"
        }
      ],
      "name": "Template20Added",
      "type": "event"
    },
    {
      "anonymous": false,
      "inputs": [
        {
          "indexed": true,
          "internalType": "address",
          "name": "_templateAddress",
          "type": "address"
        },
        {
          "indexed": true,
          "internalType": "uint256",
          "name": "nftTemplateCount",
          "type": "uint256"
        }
      ],
      "name": "Template721Added",
      "type": "event"
    },
    {
      "anonymous": false,
      "inputs": [
        {
          "indexed": true,
          "internalType": "address",
          "name": "newTokenAddress",
          "type": "address"
        },
        {
          "indexed": true,
          "internalType": "address",
          "name": "templateAddress",
          "type": "address"
        },
        {
          "indexed": false,
          "internalType": "string",
          "name": "name",
          "type": "string"
        },
        {
          "indexed": false,
          "internalType": "string",
          "name": "symbol",
          "type": "string"
        },
        {
          "indexed": false,
          "internalType": "uint256",
          "name": "cap",
          "type": "uint256"
        },
        {
          "indexed": false,
          "internalType": "address",
          "name": "creator",
          "type": "address"
        }
      ],
      "name": "TokenCreated",
      "type": "event"
    },
    {
      "anonymous": false,
      "inputs": [
        {
          "indexed": true,
          "internalType": "address",
          "name": "from",
          "type": "address"
        },
        {
          "indexed": true,
          "internalType": "address",
          "name": "to",
          "type": "address"
        },
        {
          "indexed": true,
          "internalType": "uint256",
          "name": "tokenId",
          "type": "uint256"
        }
      ],
      "name": "Transfer",
      "type": "event"
    },
    {
      "inputs": [
        {
          "internalType": "address",
          "name": "_templateAddress",
          "type": "address"
        }
      ],
      "name": "add721TokenTemplate",
      "outputs": [
        {
          "internalType": "uint256",
          "name": "",
          "type": "uint256"
        }
      ],
      "stateMutability": "nonpayable",
      "type": "function"
    },
    {
      "inputs": [
        {
          "internalType": "address",
          "name": "_templateAddress",
          "type": "address"
        }
      ],
      "name": "addTokenTemplate",
      "outputs": [
        {
          "internalType": "uint256",
          "name": "",
          "type": "uint256"
        }
      ],
      "stateMutability": "nonpayable",
      "type": "function"
    },
    {
      "inputs": [
        {
          "components": [
            {
              "internalType": "string",
              "name": "name",
              "type": "string"
            },
            {
              "internalType": "string",
              "name": "symbol",
              "type": "string"
            },
            {
              "internalType": "uint256",
              "name": "templateIndex",
              "type": "uint256"
            },
            {
              "internalType": "string",
              "name": "tokenURI",
              "type": "string"
            },
            {
              "internalType": "bool",
              "name": "transferable",
              "type": "bool"
            },
            {
              "internalType": "address",
              "name": "owner",
              "type": "address"
            }
          ],
          "internalType": "struct ERC721Factory.NftCreateData",
          "name": "_NftCreateData",
          "type": "tuple"
        },
        {
          "components": [
            {
              "internalType": "uint256",
              "name": "templateIndex",
              "type": "uint256"
            },
            {
              "internalType": "string[]",
              "name": "strings",
              "type": "string[]"
            },
            {
              "internalType": "address[]",
              "name": "addresses",
              "type": "address[]"
            },
            {
              "internalType": "uint256[]",
              "name": "uints",
              "type": "uint256[]"
            },
            {
              "internalType": "bytes[]",
              "name": "bytess",
              "type": "bytes[]"
            }
          ],
          "internalType": "struct ERC721Factory.ErcCreateData",
          "name": "_ErcCreateData",
          "type": "tuple"
        }
      ],
      "name": "createNftWithErc20",
      "outputs": [
        {
          "internalType": "address",
          "name": "erc721Address",
          "type": "address"
        },
        {
          "internalType": "address",
          "name": "erc20Address",
          "type": "address"
        }
      ],
      "stateMutability": "nonpayable",
      "type": "function"
    },
    {
      "inputs": [
        {
          "components": [
            {
              "internalType": "string",
              "name": "name",
              "type": "string"
            },
            {
              "internalType": "string",
              "name": "symbol",
              "type": "string"
            },
            {
              "internalType": "uint256",
              "name": "templateIndex",
              "type": "uint256"
            },
            {
              "internalType": "string",
              "name": "tokenURI",
              "type": "string"
            },
            {
              "internalType": "bool",
              "name": "transferable",
              "type": "bool"
            },
            {
              "internalType": "address",
              "name": "owner",
              "type": "address"
            }
          ],
          "internalType": "struct ERC721Factory.NftCreateData",
          "name": "_NftCreateData",
          "type": "tuple"
        },
        {
          "components": [
            {
              "internalType": "uint256",
              "name": "templateIndex",
              "type": "uint256"
            },
            {
              "internalType": "string[]",
              "name": "strings",
              "type": "string[]"
            },
            {
              "internalType": "address[]",
              "name": "addresses",
              "type": "address[]"
            },
            {
              "internalType": "uint256[]",
              "name": "uints",
              "type": "uint256[]"
            },
            {
              "internalType": "bytes[]",
              "name": "bytess",
              "type": "bytes[]"
            }
          ],
          "internalType": "struct ERC721Factory.ErcCreateData",
          "name": "_ErcCreateData",
          "type": "tuple"
        },
        {
          "components": [
            {
              "internalType": "address",
              "name": "dispenserAddress",
              "type": "address"
            },
            {
              "internalType": "uint256",
              "name": "maxTokens",
              "type": "uint256"
            },
            {
              "internalType": "uint256",
              "name": "maxBalance",
              "type": "uint256"
            },
            {
              "internalType": "bool",
              "name": "withMint",
              "type": "bool"
            },
            {
              "internalType": "address",
              "name": "allowedSwapper",
              "type": "address"
            }
          ],
          "internalType": "struct ERC721Factory.DispenserData",
          "name": "_DispenserData",
          "type": "tuple"
        }
      ],
      "name": "createNftWithErc20WithDispenser",
      "outputs": [
        {
          "internalType": "address",
          "name": "erc721Address",
          "type": "address"
        },
        {
          "internalType": "address",
          "name": "erc20Address",
          "type": "address"
        }
      ],
      "stateMutability": "nonpayable",
      "type": "function"
    },
    {
      "inputs": [
        {
          "components": [
            {
              "internalType": "string",
              "name": "name",
              "type": "string"
            },
            {
              "internalType": "string",
              "name": "symbol",
              "type": "string"
            },
            {
              "internalType": "uint256",
              "name": "templateIndex",
              "type": "uint256"
            },
            {
              "internalType": "string",
              "name": "tokenURI",
              "type": "string"
            },
            {
              "internalType": "bool",
              "name": "transferable",
              "type": "bool"
            },
            {
              "internalType": "address",
              "name": "owner",
              "type": "address"
            }
          ],
          "internalType": "struct ERC721Factory.NftCreateData",
          "name": "_NftCreateData",
          "type": "tuple"
        },
        {
          "components": [
            {
              "internalType": "uint256",
              "name": "templateIndex",
              "type": "uint256"
            },
            {
              "internalType": "string[]",
              "name": "strings",
              "type": "string[]"
            },
            {
              "internalType": "address[]",
              "name": "addresses",
              "type": "address[]"
            },
            {
              "internalType": "uint256[]",
              "name": "uints",
              "type": "uint256[]"
            },
            {
              "internalType": "bytes[]",
              "name": "bytess",
              "type": "bytes[]"
            }
          ],
          "internalType": "struct ERC721Factory.ErcCreateData",
          "name": "_ErcCreateData",
          "type": "tuple"
        },
        {
          "components": [
            {
              "internalType": "address",
              "name": "fixedPriceAddress",
              "type": "address"
            },
            {
              "internalType": "address[]",
              "name": "addresses",
              "type": "address[]"
            },
            {
              "internalType": "uint256[]",
              "name": "uints",
              "type": "uint256[]"
            }
          ],
          "internalType": "struct ERC721Factory.FixedData",
          "name": "_FixedData",
          "type": "tuple"
        }
      ],
      "name": "createNftWithErc20WithFixedRate",
      "outputs": [
        {
          "internalType": "address",
          "name": "erc721Address",
          "type": "address"
        },
        {
          "internalType": "address",
          "name": "erc20Address",
          "type": "address"
        },
        {
          "internalType": "bytes32",
          "name": "exchangeId",
          "type": "bytes32"
        }
      ],
      "stateMutability": "nonpayable",
      "type": "function"
    },
    {
      "inputs": [
        {
          "components": [
            {
              "internalType": "string",
              "name": "name",
              "type": "string"
            },
            {
              "internalType": "string",
              "name": "symbol",
              "type": "string"
            },
            {
              "internalType": "uint256",
              "name": "templateIndex",
              "type": "uint256"
            },
            {
              "internalType": "string",
              "name": "tokenURI",
              "type": "string"
            },
            {
              "internalType": "bool",
              "name": "transferable",
              "type": "bool"
            },
            {
              "internalType": "address",
              "name": "owner",
              "type": "address"
            }
          ],
          "internalType": "struct ERC721Factory.NftCreateData",
          "name": "_NftCreateData",
          "type": "tuple"
        },
        {
          "components": [
            {
              "internalType": "uint256",
              "name": "templateIndex",
              "type": "uint256"
            },
            {
              "internalType": "string[]",
              "name": "strings",
              "type": "string[]"
            },
            {
              "internalType": "address[]",
              "name": "addresses",
              "type": "address[]"
            },
            {
              "internalType": "uint256[]",
              "name": "uints",
              "type": "uint256[]"
            },
            {
              "internalType": "bytes[]",
              "name": "bytess",
              "type": "bytes[]"
            }
          ],
          "internalType": "struct ERC721Factory.ErcCreateData",
          "name": "_ErcCreateData",
          "type": "tuple"
        },
        {
          "components": [
            {
              "internalType": "uint256[]",
              "name": "ssParams",
              "type": "uint256[]"
            },
            {
              "internalType": "uint256[]",
              "name": "swapFees",
              "type": "uint256[]"
            },
            {
              "internalType": "address[]",
              "name": "addresses",
              "type": "address[]"
            }
          ],
          "internalType": "struct ERC721Factory.PoolData",
          "name": "_PoolData",
          "type": "tuple"
        }
      ],
      "name": "createNftWithErc20WithPool",
      "outputs": [
        {
          "internalType": "address",
          "name": "erc721Address",
          "type": "address"
        },
        {
          "internalType": "address",
          "name": "erc20Address",
          "type": "address"
        },
        {
          "internalType": "address",
          "name": "poolAddress",
          "type": "address"
        }
      ],
      "stateMutability": "nonpayable",
      "type": "function"
    },
    {
      "inputs": [
        {
          "components": [
            {
              "internalType": "string",
              "name": "name",
              "type": "string"
            },
            {
              "internalType": "string",
              "name": "symbol",
              "type": "string"
            },
            {
              "internalType": "uint256",
              "name": "templateIndex",
              "type": "uint256"
            },
            {
              "internalType": "string",
              "name": "tokenURI",
              "type": "string"
            },
            {
              "internalType": "bool",
              "name": "transferable",
              "type": "bool"
            },
            {
              "internalType": "address",
              "name": "owner",
              "type": "address"
            }
          ],
          "internalType": "struct ERC721Factory.NftCreateData",
          "name": "_NftCreateData",
          "type": "tuple"
        },
        {
          "components": [
            {
              "internalType": "uint8",
              "name": "_metaDataState",
              "type": "uint8"
            },
            {
              "internalType": "string",
              "name": "_metaDataDecryptorUrl",
              "type": "string"
            },
            {
              "internalType": "string",
              "name": "_metaDataDecryptorAddress",
              "type": "string"
            },
            {
              "internalType": "bytes",
              "name": "flags",
              "type": "bytes"
            },
            {
              "internalType": "bytes",
              "name": "data",
              "type": "bytes"
            },
            {
              "internalType": "bytes32",
              "name": "_metaDataHash",
              "type": "bytes32"
            },
            {
              "components": [
                {
                  "internalType": "address",
                  "name": "validatorAddress",
                  "type": "address"
                },
                {
                  "internalType": "uint8",
                  "name": "v",
                  "type": "uint8"
                },
                {
                  "internalType": "bytes32",
                  "name": "r",
                  "type": "bytes32"
                },
                {
                  "internalType": "bytes32",
                  "name": "s",
                  "type": "bytes32"
                }
              ],
              "internalType": "struct IERC721Template.metaDataProof[]",
              "name": "_metadataProofs",
              "type": "tuple[]"
            }
          ],
          "internalType": "struct ERC721Factory.MetaData",
          "name": "_MetaData",
          "type": "tuple"
        }
      ],
      "name": "createNftWithMetaData",
      "outputs": [
        {
          "internalType": "address",
          "name": "erc721Address",
          "type": "address"
        }
      ],
      "stateMutability": "nonpayable",
      "type": "function"
    },
    {
      "inputs": [
        {
          "internalType": "uint256",
          "name": "_templateIndex",
          "type": "uint256"
        },
        {
          "internalType": "string[]",
          "name": "strings",
          "type": "string[]"
        },
        {
          "internalType": "address[]",
          "name": "addresses",
          "type": "address[]"
        },
        {
          "internalType": "uint256[]",
          "name": "uints",
          "type": "uint256[]"
        },
        {
          "internalType": "bytes[]",
          "name": "bytess",
          "type": "bytes[]"
        }
      ],
      "name": "createToken",
      "outputs": [
        {
          "internalType": "address",
          "name": "token",
          "type": "address"
        }
      ],
      "stateMutability": "nonpayable",
      "type": "function"
    },
    {
      "inputs": [
        {
          "internalType": "string",
          "name": "name",
          "type": "string"
        },
        {
          "internalType": "string",
          "name": "symbol",
          "type": "string"
        },
        {
          "internalType": "uint256",
          "name": "_templateIndex",
          "type": "uint256"
        },
        {
          "internalType": "address",
          "name": "additionalERC20Deployer",
          "type": "address"
        },
        {
          "internalType": "address",
          "name": "additionalMetaDataUpdater",
          "type": "address"
        },
        {
          "internalType": "string",
          "name": "tokenURI",
          "type": "string"
        },
        {
          "internalType": "bool",
          "name": "transferable",
          "type": "bool"
        },
        {
          "internalType": "address",
          "name": "owner",
          "type": "address"
        }
      ],
      "name": "deployERC721Contract",
      "outputs": [
        {
          "internalType": "address",
          "name": "token",
          "type": "address"
        }
      ],
      "stateMutability": "nonpayable",
      "type": "function"
    },
    {
      "inputs": [
        {
          "internalType": "uint256",
          "name": "_index",
          "type": "uint256"
        }
      ],
      "name": "disable721TokenTemplate",
      "outputs": [],
      "stateMutability": "nonpayable",
      "type": "function"
    },
    {
      "inputs": [
        {
          "internalType": "uint256",
          "name": "_index",
          "type": "uint256"
        }
      ],
      "name": "disableTokenTemplate",
      "outputs": [],
      "stateMutability": "nonpayable",
      "type": "function"
    },
    {
      "inputs": [
        {
          "internalType": "address",
          "name": "",
          "type": "address"
        }
      ],
      "name": "erc20List",
      "outputs": [
        {
          "internalType": "bool",
          "name": "",
          "type": "bool"
        }
      ],
      "stateMutability": "view",
      "type": "function"
    },
    {
      "inputs": [
        {
          "internalType": "address",
          "name": "",
          "type": "address"
        }
      ],
      "name": "erc721List",
      "outputs": [
        {
          "internalType": "address",
          "name": "",
          "type": "address"
        }
      ],
      "stateMutability": "view",
      "type": "function"
    },
    {
      "inputs": [],
      "name": "getCurrentNFTCount",
      "outputs": [
        {
          "internalType": "uint256",
          "name": "",
          "type": "uint256"
        }
      ],
      "stateMutability": "view",
      "type": "function"
    },
    {
      "inputs": [],
      "name": "getCurrentNFTTemplateCount",
      "outputs": [
        {
          "internalType": "uint256",
          "name": "",
          "type": "uint256"
        }
      ],
      "stateMutability": "view",
      "type": "function"
    },
    {
      "inputs": [],
      "name": "getCurrentTemplateCount",
      "outputs": [
        {
          "internalType": "uint256",
          "name": "",
          "type": "uint256"
        }
      ],
      "stateMutability": "view",
      "type": "function"
    },
    {
      "inputs": [],
      "name": "getCurrentTokenCount",
      "outputs": [
        {
          "internalType": "uint256",
          "name": "",
          "type": "uint256"
        }
      ],
      "stateMutability": "view",
      "type": "function"
    },
    {
      "inputs": [
        {
          "internalType": "uint256",
          "name": "_index",
          "type": "uint256"
        }
      ],
      "name": "getNFTTemplate",
      "outputs": [
        {
          "components": [
            {
              "internalType": "address",
              "name": "templateAddress",
              "type": "address"
            },
            {
              "internalType": "bool",
              "name": "isActive",
              "type": "bool"
            }
          ],
          "internalType": "struct ERC721Factory.Template",
          "name": "",
          "type": "tuple"
        }
      ],
      "stateMutability": "view",
      "type": "function"
    },
    {
      "inputs": [
        {
          "internalType": "uint256",
          "name": "_index",
          "type": "uint256"
        }
      ],
      "name": "getTokenTemplate",
      "outputs": [
        {
          "components": [
            {
              "internalType": "address",
              "name": "templateAddress",
              "type": "address"
            },
            {
              "internalType": "bool",
              "name": "isActive",
              "type": "bool"
            }
          ],
          "internalType": "struct ERC721Factory.Template",
          "name": "",
          "type": "tuple"
        }
      ],
      "stateMutability": "view",
      "type": "function"
    },
    {
      "inputs": [
        {
          "internalType": "uint256",
          "name": "",
          "type": "uint256"
        }
      ],
      "name": "nftTemplateList",
      "outputs": [
        {
          "internalType": "address",
          "name": "templateAddress",
          "type": "address"
        },
        {
          "internalType": "bool",
          "name": "isActive",
          "type": "bool"
        }
      ],
      "stateMutability": "view",
      "type": "function"
    },
    {
      "inputs": [],
      "name": "owner",
      "outputs": [
        {
          "internalType": "address",
          "name": "",
          "type": "address"
        }
      ],
      "stateMutability": "view",
      "type": "function"
    },
    {
      "inputs": [
        {
          "internalType": "uint256",
          "name": "_index",
          "type": "uint256"
        }
      ],
      "name": "reactivate721TokenTemplate",
      "outputs": [],
      "stateMutability": "nonpayable",
      "type": "function"
    },
    {
      "inputs": [
        {
          "internalType": "uint256",
          "name": "_index",
          "type": "uint256"
        }
      ],
      "name": "reactivateTokenTemplate",
      "outputs": [],
      "stateMutability": "nonpayable",
      "type": "function"
    },
    {
      "inputs": [],
      "name": "renounceOwnership",
      "outputs": [],
      "stateMutability": "nonpayable",
      "type": "function"
    },
    {
      "inputs": [
        {
          "components": [
            {
              "internalType": "address",
              "name": "tokenAddress",
              "type": "address"
            },
            {
              "internalType": "bytes32",
              "name": "orderTxId",
              "type": "bytes32"
            },
            {
              "components": [
                {
                  "internalType": "address",
                  "name": "providerFeeAddress",
                  "type": "address"
                },
                {
                  "internalType": "address",
                  "name": "providerFeeToken",
                  "type": "address"
                },
                {
                  "internalType": "uint256",
                  "name": "providerFeeAmount",
                  "type": "uint256"
                },
                {
                  "internalType": "uint8",
                  "name": "v",
                  "type": "uint8"
                },
                {
                  "internalType": "bytes32",
                  "name": "r",
                  "type": "bytes32"
                },
                {
                  "internalType": "bytes32",
                  "name": "s",
                  "type": "bytes32"
                },
                {
                  "internalType": "uint256",
                  "name": "validUntil",
                  "type": "uint256"
                },
                {
                  "internalType": "bytes",
                  "name": "providerData",
                  "type": "bytes"
                }
              ],
              "internalType": "struct IERC20Template.providerFee",
              "name": "_providerFee",
              "type": "tuple"
            }
          ],
          "internalType": "struct ERC721Factory.reuseTokenOrder[]",
          "name": "orders",
          "type": "tuple[]"
        }
      ],
      "name": "reuseMultipleTokenOrder",
      "outputs": [],
      "stateMutability": "nonpayable",
      "type": "function"
    },
    {
      "inputs": [],
      "name": "router",
      "outputs": [
        {
          "internalType": "address",
          "name": "",
          "type": "address"
        }
      ],
      "stateMutability": "view",
      "type": "function"
    },
    {
      "inputs": [
        {
          "components": [
            {
              "internalType": "address",
              "name": "tokenAddress",
              "type": "address"
            },
            {
              "internalType": "address",
              "name": "consumer",
              "type": "address"
            },
            {
              "internalType": "uint256",
              "name": "serviceIndex",
              "type": "uint256"
            },
            {
              "components": [
                {
                  "internalType": "address",
                  "name": "providerFeeAddress",
                  "type": "address"
                },
                {
                  "internalType": "address",
                  "name": "providerFeeToken",
                  "type": "address"
                },
                {
                  "internalType": "uint256",
                  "name": "providerFeeAmount",
                  "type": "uint256"
                },
                {
                  "internalType": "uint8",
                  "name": "v",
                  "type": "uint8"
                },
                {
                  "internalType": "bytes32",
                  "name": "r",
                  "type": "bytes32"
                },
                {
                  "internalType": "bytes32",
                  "name": "s",
                  "type": "bytes32"
                },
                {
                  "internalType": "uint256",
                  "name": "validUntil",
                  "type": "uint256"
                },
                {
                  "internalType": "bytes",
                  "name": "providerData",
                  "type": "bytes"
                }
              ],
              "internalType": "struct IERC20Template.providerFee",
              "name": "_providerFee",
              "type": "tuple"
            },
            {
              "components": [
                {
                  "internalType": "address",
                  "name": "consumeMarketFeeAddress",
                  "type": "address"
                },
                {
                  "internalType": "address",
                  "name": "consumeMarketFeeToken",
                  "type": "address"
                },
                {
                  "internalType": "uint256",
                  "name": "consumeMarketFeeAmount",
                  "type": "uint256"
                }
              ],
              "internalType": "struct IERC20Template.consumeMarketFee",
              "name": "_consumeMarketFee",
              "type": "tuple"
            }
          ],
          "internalType": "struct ERC721Factory.tokenOrder[]",
          "name": "orders",
          "type": "tuple[]"
        }
      ],
      "name": "startMultipleTokenOrder",
      "outputs": [],
      "stateMutability": "nonpayable",
      "type": "function"
    },
    {
      "inputs": [],
      "name": "templateCount",
      "outputs": [
        {
          "internalType": "uint256",
          "name": "",
          "type": "uint256"
        }
      ],
      "stateMutability": "view",
      "type": "function"
    },
    {
      "inputs": [
        {
          "internalType": "uint256",
          "name": "",
          "type": "uint256"
        }
      ],
      "name": "templateList",
      "outputs": [
        {
          "internalType": "address",
          "name": "templateAddress",
          "type": "address"
        },
        {
          "internalType": "bool",
          "name": "isActive",
          "type": "bool"
        }
      ],
      "stateMutability": "view",
      "type": "function"
    },
    {
      "inputs": [
        {
          "internalType": "address",
          "name": "newOwner",
          "type": "address"
        }
      ],
      "name": "transferOwnership",
      "outputs": [],
      "stateMutability": "nonpayable",
      "type": "function"
    }
  ],
  "bytecode": "0x60806040526000600a553480156200001657600080fd5b5060405162004a0d38038062004a0d8339810160408190526200003991620005ab565b6200004433620001be565b600180556001600160a01b038316158015906200006957506001600160a01b03821615155b80156200007e57506001600160a01b03841615155b620001065760405162461bcd60e51b815260206004820152604760248201527f4552433732314454466163746f72793a20496e76616c69642074656d706c617460448201527f6520746f6b656e2f636f6d6d756e6974792066656520636f6c6c6563746f72206064820152666164647265737360c81b608482015260a4015b60405180910390fd5b6001600160a01b0381166200016e5760405162461bcd60e51b815260206004820152602760248201527f4552433732314454466163746f72793a20496e76616c696420726f75746572206044820152666164647265737360c81b6064820152608401620000fd565b62000179846200020e565b506200018583620003d1565b50600c80546001600160a01b039283166001600160a01b03199182161790915560028054939092169216919091179055506200062f9050565b600080546001600160a01b038381166001600160a01b0319831681178455604051919092169283917f8be0079c531659141344cd1fd0a4f28419497f9722a3daafe3b4186f6b6457e09190a35050565b600080546001600160a01b031633146200025a5760405162461bcd60e51b81526020600482018190526024820152600080516020620049ed8339815191526044820152606401620000fd565b6001600160a01b038216620002d85760405162461bcd60e51b815260206004820152603760248201527f4552433732314454466163746f72793a204552433732312074656d706c61746560448201527f2061646472657373283029204e4f5420414c4c4f5745440000000000000000006064820152608401620000fd565b813b620003285760405162461bcd60e51b815260206004820152601b60248201527f455243373231466163746f72793a204e4f5420434f4e545241435400000000006044820152606401620000fd565b6001600560008282546200033d919062000608565b90915550506040805180820182526001600160a01b038085168083526001602080850191825260058054600090815260069092528682208651815494511515600160a01b026001600160a81b03199095169616959095179290921790935554935192939290917fc0167b92c8eb4a2bad2c05e0134f076fba5d3cd54671a3e8edf13d2e61443bd991a350506005545b919050565b600080546001600160a01b031633146200041d5760405162461bcd60e51b81526020600482018190526024820152600080516020620049ed8339815191526044820152606401620000fd565b6001600160a01b0382166200049b5760405162461bcd60e51b815260206004820152603460248201527f4552433230466163746f72793a204552433732312074656d706c61746520616460448201527f6472657373283029204e4f5420414c4c4f5745440000000000000000000000006064820152608401620000fd565b813b620004eb5760405162461bcd60e51b815260206004820152601a60248201527f4552433230466163746f72793a204e4f5420434f4e54524143540000000000006044820152606401620000fd565b6001600b600082825462000500919062000608565b90915550506040805180820182526001600160a01b0380851680835260016020808501918252600b8054600090815260079092528682208651815494511515600160a01b026001600160a81b03199095169616959095179290921790935554935192939290917fdcd16da87b60cea6dbd55a83f73b8a4bf9a54655db58ae0f35b82a2373fc150d91a35050600b54919050565b80516001600160a01b0381168114620003cc57600080fd5b60008060008060808587031215620005c257600080fd5b620005cd8562000593565b9350620005dd6020860162000593565b9250620005ed6040860162000593565b9150620005fd6060860162000593565b905092959194509250565b600082198211156200062a57634e487b7160e01b600052601160045260246000fd5b500190565b6143ae806200063f6000396000f3fe608060405234801561001057600080fd5b50600436106101da5760003560e01c806382c4420411610104578063aa897ddc116100a2578063e5fc01f011610071578063e5fc01f01461053b578063f2fde38b14610543578063f86b2bcf14610556578063f887ea401461056957600080fd5b8063aa897ddc146104b4578063bbf8d71f146104e7578063c6cf868a146104fa578063d282aa861461050257600080fd5b806394051699116100de578063940516991461045157806394be0e881461048657806395c6030514610499578063a33ef2a6146104a157600080fd5b806382c44204146103d95780638da5cb5b1461042d5780638f6051af1461043e57600080fd5b80633315efd11161017c578063715018a61161014b578063715018a61461038257806372f670f01461038a5780637b20bccf146103b3578063809d8105146103c657600080fd5b80633315efd1146102cd57806350447fd51461032a578063557fcfb0146103675780635c7059821461037a57600080fd5b80632515422e116101b85780632515422e1461026557806326705c3c1461027857806326f200661461028f5780633147c798146102ba57600080fd5b8063042ab9b3146101df5780630ffda8871461021d578063226e761514610232575b600080fd5b6101f26101ed366004612f11565b61057c565b6040805182516001600160a01b03168152602092830151151592810192909252015b60405180910390f35b61023061022b366004612f11565b610603565b005b610255610240366004612f4a565b60096020526000908152604090205460ff1681565b6040519015158152602001610214565b610230610273366004613160565b610648565b610281600b5481565b604051908152602001610214565b6102a261029d36600461327e565b610915565b6040516001600160a01b039091168152602001610214565b6102a26102c8366004613301565b610b4d565b6101f26102db366004612f11565b6040805180820190915260008082526020820152506000908152600660209081526040918290208251808401909352546001600160a01b0381168352600160a01b900460ff1615159082015290565b61033d6103383660046133f9565b610e9b565b604080516001600160a01b0394851681529284166020840152921691810191909152606001610214565b6102a26103753660046135c9565b611242565b600354610281565b6102306112e3565b6102a2610398366004612f4a565b6008602052600090815260409020546001600160a01b031681565b6102816103c1366004612f4a565b611319565b6102306103d4366004612f11565b6114ac565b61040e6103e7366004612f11565b6006602052600090815260409020546001600160a01b03811690600160a01b900460ff1682565b604080516001600160a01b039093168352901515602083015201610214565b6000546001600160a01b03166102a2565b61028161044c366004612f4a565b61151e565b61040e61045f366004612f11565b6007602052600090815260409020546001600160a01b03811690600160a01b900460ff1682565b6102306104943660046136f1565b6116b9565b600b54610281565b6102306104af366004612f11565b611c5e565b6104c76104c2366004613843565b611cd6565b604080516001600160a01b03938416815292909116602083015201610214565b6102306104f5366004612f11565b611fc3565b600a54610281565b6105156105103660046133f9565b61207f565b604080516001600160a01b03948516815293909216602084015290820152606001610214565b600554610281565b610230610551366004612f4a565b612202565b6104c76105643660046138b7565b61229d565b600c546102a2906001600160a01b031681565b60408051808201909152600080825260208201526000828152600760209081526040918290208251808401909352546001600160a01b0381168352600160a01b900460ff16151590820152600b5483118015906105d857508215155b6105fd5760405162461bcd60e51b81526004016105f49061391a565b60405180910390fd5b92915050565b6000546001600160a01b0316331461062d5760405162461bcd60e51b81526004016105f490613963565b6000908152600760205260409020805460ff60a01b19169055565b6002600154141561066b5760405162461bcd60e51b81526004016105f490613998565b60026001558051603210156106c25760405162461bcd60e51b815260206004820152601e60248201527f455243373231466163746f72793a20546f6f204d616e79204f7264657273000060448201526064016105f4565b60005b815181101561090d5760008282815181106106e2576106e26139cf565b60200260200101516040015160400151118015610733575060006001600160a01b0316828281518110610717576107176139cf565b602002602001015160400151602001516001600160a01b031614155b8015610773575060006001600160a01b0316828281518110610757576107576139cf565b602002602001015160400151600001516001600160a01b031614155b15610843576107c682828151811061078d5761078d6139cf565b6020026020010151604001516020015133308585815181106107b1576107b16139cf565b602002602001015160400151604001516124cc565b6108438282815181106107db576107db6139cf565b6020026020010151600001518383815181106107f9576107f96139cf565b6020026020010151604001516040015184848151811061081b5761081b6139cf565b602002602001015160400151602001516001600160a01b031661261a9092919063ffffffff16565b818181518110610855576108556139cf565b6020026020010151600001516001600160a01b031663361fef49838381518110610881576108816139cf565b60200260200101516020015184848151811061089f5761089f6139cf565b6020026020010151604001516040518363ffffffff1660e01b81526004016108c8929190613ab1565b600060405180830381600087803b1580156108e257600080fd5b505af11580156108f6573d6000803e3d6000fd5b50505050808061090590613ae0565b9150506106c5565b505060018055565b60006002600154141561093a5760405162461bcd60e51b81526004016105f490613998565b6002600155610a2c61094c8480613afb565b8080601f01602080910402602001604051908101604052809392919081815260200183838082843760009201919091525061098e925050506020860186613afb565b8080601f016020809104026020016040519081016040528093929190818152602001838380828437600092018290525060408a0135935091503090506109d760608a018a613afb565b8080601f016020809104026020016040519081016040528093929190818152602001838380828437600092019190915250610a1c9250505060a08b0160808c01613b48565b6102c860c08c0160a08d01612f4a565b90506001600160a01b038116631aa3adf9610a4a6020850185613b65565b610a576020860186613afb565b610a646040880188613afb565b610a7160608a018a613afb565b610a7e60808c018c613afb565b60a08d0135610a9060c08f018f613b80565b6040518d63ffffffff1660e01b8152600401610ab79c9b9a99989796959493929190613bf2565b600060405180830381600087803b158015610ad157600080fd5b505af1158015610ae5573d6000803e3d6000fd5b50506040516310c414eb60e21b81523060048201526001600160a01b038416925063431053ac9150602401600060405180830381600087803b158015610b2a57600080fd5b505af1158015610b3e573d6000803e3d6000fd5b50506001805550909392505050565b60006005548711158015610b6057508615155b610b7c5760405162461bcd60e51b81526004016105f490613cd6565b6000878152600660209081526040918290208251808401909352546001600160a01b0381168352600160a01b900460ff161515908201819052610c185760405162461bcd60e51b815260206004820152602e60248201527f4552433732314454466163746f72793a20455243373231546f6b656e2054656d60448201526d1c1b185d1948191a5cd8589b195960921b60648201526084016105f4565b6001600160a01b038316610c825760405162461bcd60e51b815260206004820152602b60248201527f4552433732314454466163746f72793a20616464726573732830292063616e6e60448201526a37ba1031329037bbb732b960a91b60648201526084016105f4565b8051610c8d90612705565b91506001600160a01b038216610d0d576040805162461bcd60e51b81526020600482015260248101919091527f4552433732314454466163746f72793a204661696c656420746f20706572666f60448201527f726d206d696e696d616c206465706c6f79206f662061206e657720746f6b656e60648201526084016105f4565b6001600160a01b0382166000818152600860205260409081902080546001600160a01b0319168317905551630343aa3d60e31b8152839190631a1d51e890610d679087908f908f9030908f908f908f908f90600401613d22565b6020604051808303816000875af1158015610d86573d6000803e3d6000fd5b505050506040513d601f19601f82011682018060405250810190610daa9190613da0565b610e135760405162461bcd60e51b815260206004820152603460248201527f4552433732314454466163746f72793a20556e61626c6520746f20696e697469604482015273616c697a6520746f6b656e20696e7374616e636560601b60648201526084016105f4565b336001600160a01b0316846001600160a01b031683600001516001600160a01b03167f8125264ec1d174cb383ea0646ea1e6921ca3b0aba20370c8e18389e7c2d6a571868f8f8c8c604051610e6c959493929190613dbd565b60405180910390a4600160036000828254610e879190613e1c565b90915550929b9a5050505050505050505050565b600080600060026001541415610ec35760405162461bcd60e51b81526004016105f490613998565b6002600155610f27610ed86040860186613e34565b6001818110610ee957610ee96139cf565b9050602002016020810190610efe9190612f4a565b3330610f0a8880613e34565b6004818110610f1b57610f1b6139cf565b905060200201356124cc565b611017610f348780613afb565b8080601f016020809104026020016040519081016040528093929190818152602001838380828437600092019190915250610f76925050506020890189613afb565b8080601f016020809104026020016040519081016040528093929190818152602001838380828437600092018290525060408d013593503092509050610fbf60608d018d613afb565b8080601f0160208091040260200160405190810160405280939291908181526020018383808284376000920191909152506110049250505060a08e0160808f01613b48565b8d60a00160208101906102c89190612f4a565b92506001600160a01b03831663e38d7cad86356110376020890189613e34565b61104460408b018b613e34565b61105160608d018d613e34565b61105e60808f018f613e34565b6040518a63ffffffff1660e01b815260040161108299989796959493929190613f9e565b6020604051808303816000875af11580156110a1573d6000803e3d6000fd5b505050506040513d601f19601f820116820180604052508101906110c5919061404f565b600c54909250611140906001600160a01b03166110e28680613e34565b60048181106110f3576110f36139cf565b9050602002013586806040019061110a9190613e34565b600181811061111b5761111b6139cf565b90506020020160208101906111309190612f4a565b6001600160a01b0316919061261a565b6001600160a01b038216635bfe4da06111598680613e34565b6111666020890189613e34565b61117360408b018b613e34565b6040518763ffffffff1660e01b81526004016111949695949392919061406c565b6020604051808303816000875af11580156111b3573d6000803e3d6000fd5b505050506040513d601f19601f820116820180604052508101906111d7919061404f565b6040516301fc3d9160e71b81523060048201529091506001600160a01b0384169063fe1ec88090602401600060405180830381600087803b15801561121b57600080fd5b505af115801561122f573d6000803e3d6000fd5b5050600180555092969195509350915050565b3360008181526008602052604081205490916001600160a01b03909116146112cb5760405162461bcd60e51b815260206004820152603660248201527f455243373231466163746f72793a204f4e4c592045524337323120494e5354416044820152754e43452046524f4d20455243373231464143544f525960501b60648201526084016105f4565b6112d9868686868633612795565b9695505050505050565b6000546001600160a01b0316331461130d5760405162461bcd60e51b81526004016105f490613963565b6113176000612a7a565b565b600080546001600160a01b031633146113445760405162461bcd60e51b81526004016105f490613963565b6001600160a01b0382166113b75760405162461bcd60e51b815260206004820152603460248201527f4552433230466163746f72793a204552433732312074656d706c617465206164604482015273191c995cdcca0c0a481393d50810531313d5d15160621b60648201526084016105f4565b813b6114055760405162461bcd60e51b815260206004820152601a60248201527f4552433230466163746f72793a204e4f5420434f4e545241435400000000000060448201526064016105f4565b6001600b60008282546114189190613e1c565b90915550506040805180820182526001600160a01b0380851680835260016020808501918252600b8054600090815260079092528682208651815494511515600160a01b026001600160a81b03199095169616959095179290921790935554935192939290917fdcd16da87b60cea6dbd55a83f73b8a4bf9a54655db58ae0f35b82a2373fc150d91a35050600b545b919050565b6000546001600160a01b031633146114d65760405162461bcd60e51b81526004016105f490613963565b60055481111580156114e757508015155b6115035760405162461bcd60e51b81526004016105f490613cd6565b6000908152600660205260409020805460ff60a01b19169055565b600080546001600160a01b031633146115495760405162461bcd60e51b81526004016105f490613963565b6001600160a01b0382166115c55760405162461bcd60e51b815260206004820152603760248201527f4552433732314454466163746f72793a204552433732312074656d706c61746560448201527f2061646472657373283029204e4f5420414c4c4f57454400000000000000000060648201526084016105f4565b813b6116135760405162461bcd60e51b815260206004820152601b60248201527f455243373231466163746f72793a204e4f5420434f4e5452414354000000000060448201526064016105f4565b6001600560008282546116269190613e1c565b90915550506040805180820182526001600160a01b038085168083526001602080850191825260058054600090815260069092528682208651815494511515600160a01b026001600160a81b03199095169616959095179290921790935554935192939290917fc0167b92c8eb4a2bad2c05e0134f076fba5d3cd54671a3e8edf13d2e61443bd991a35050600554919050565b600260015414156116dc5760405162461bcd60e51b81526004016105f490613998565b60026001558051603210156117335760405162461bcd60e51b815260206004820152601e60248201527f455243373231466163746f72793a20546f6f204d616e79204f7264657273000060448201526064016105f4565b60005b815181101561090d576000806000848481518110611756576117566139cf565b6020026020010151600001516001600160a01b031663397b37436040518163ffffffff1660e01b8152600401606060405180830381865afa15801561179f573d6000803e3d6000fd5b505050506040513d601f19601f820116820180604052508101906117c391906140b5565b9250925092506000811180156117e157506001600160a01b03821615155b80156117f557506001600160a01b03831615155b1561183857611806823330846124cc565b61183885858151811061181b5761181b6139cf565b6020908102919091010151516001600160a01b038416908361261a565b600085858151811061184c5761184c6139cf565b6020026020010151608001516040015111801561189d575060006001600160a01b0316858581518110611881576118816139cf565b602002602001015160800151600001516001600160a01b031614155b80156118dd575060006001600160a01b03168585815181106118c1576118c16139cf565b602002602001015160800151602001516001600160a01b031614155b156119ad576119308585815181106118f7576118f76139cf565b60200260200101516080015160200151333088888151811061191b5761191b6139cf565b602002602001015160800151604001516124cc565b6119ad858581518110611945576119456139cf565b602002602001015160000151868681518110611963576119636139cf565b60200260200101516080015160400151878781518110611985576119856139cf565b602002602001015160800151602001516001600160a01b031661261a9092919063ffffffff16565b60008585815181106119c1576119c16139cf565b60200260200101516060015160400151118015611a12575060006001600160a01b03168585815181106119f6576119f66139cf565b602002602001015160600151602001516001600160a01b031614155b8015611a52575060006001600160a01b0316858581518110611a3657611a366139cf565b602002602001015160600151600001516001600160a01b031614155b15611b2257611aa5858581518110611a6c57611a6c6139cf565b602002602001015160600151602001513330888881518110611a9057611a906139cf565b602002602001015160600151604001516124cc565b611b22858581518110611aba57611aba6139cf565b602002602001015160000151868681518110611ad857611ad86139cf565b60200260200101516060015160400151878781518110611afa57611afa6139cf565b602002602001015160600151602001516001600160a01b031661261a9092919063ffffffff16565b611b53858581518110611b3757611b376139cf565b6020026020010151600001513330670de0b6b3a76400006124cc565b848481518110611b6557611b656139cf565b6020026020010151600001516001600160a01b03166379d9d7f3868681518110611b9157611b916139cf565b602002602001015160200151878781518110611baf57611baf6139cf565b602002602001015160400151888881518110611bcd57611bcd6139cf565b602002602001015160600151898981518110611beb57611beb6139cf565b6020026020010151608001516040518563ffffffff1660e01b8152600401611c1694939291906140f8565b600060405180830381600087803b158015611c3057600080fd5b505af1158015611c44573d6000803e3d6000fd5b505050505050508080611c5690613ae0565b915050611736565b6000546001600160a01b03163314611c885760405162461bcd60e51b81526004016105f490613963565b6005548111158015611c9957508015155b611cb55760405162461bcd60e51b81526004016105f490613cd6565b6000908152600660205260409020805460ff60a01b1916600160a01b179055565b60008060026001541415611cfc5760405162461bcd60e51b81526004016105f490613998565b6002600155611dee611d0e8680613afb565b8080601f016020809104026020016040519081016040528093929190818152602001838380828437600092019190915250611d50925050506020880188613afb565b8080601f016020809104026020016040519081016040528093929190818152602001838380828437600092018290525060408c013593503092509050611d9960608c018c613afb565b8080601f016020809104026020016040519081016040528093929190818152602001838380828437600092019190915250611dde9250505060a08d0160808e01613b48565b6102c860c08e0160a08f01612f4a565b91506001600160a01b03821663e38d7cad8535611e0e6020880188613e34565b611e1b60408a018a613e34565b611e2860608c018c613e34565b611e3560808e018e613e34565b6040518a63ffffffff1660e01b8152600401611e5999989796959493929190613f9e565b6020604051808303816000875af1158015611e78573d6000803e3d6000fd5b505050506040513d601f19601f82011682018060405250810190611e9c919061404f565b90506001600160a01b03811663191c918a611eba6020860186612f4a565b60208601356040870135611ed46080890160608a01613b48565b611ee460a08a0160808b01612f4a565b60405160e087901b6001600160e01b03191681526001600160a01b0395861660048201526024810194909452604484019290925215156064830152909116608482015260a401600060405180830381600087803b158015611f4457600080fd5b505af1158015611f58573d6000803e3d6000fd5b50506040516301fc3d9160e71b81523060048201526001600160a01b038516925063fe1ec8809150602401600060405180830381600087803b158015611f9d57600080fd5b505af1158015611fb1573d6000803e3d6000fd5b50506001805550919590945092505050565b6000546001600160a01b03163314611fed5760405162461bcd60e51b81526004016105f490613963565b600b548111158015611ffe57508015155b61205e5760405162461bcd60e51b815260206004820152602b60248201527f45524332304454466163746f72793a2054656d706c61746520696e646578206460448201526a1bd95cdb9d08195e1a5cdd60aa1b60648201526084016105f4565b6000908152600760205260409020805460ff60a01b1916600160a01b179055565b6000806000600260015414156120a75760405162461bcd60e51b81526004016105f490613998565b60026001556120b9610f348780613afb565b92506001600160a01b03831663e38d7cad86356120d96020890189613e34565b6120e660408b018b613e34565b6120f360608d018d613e34565b61210060808f018f613e34565b6040518a63ffffffff1660e01b815260040161212499989796959493929190613f9e565b6020604051808303816000875af1158015612143573d6000803e3d6000fd5b505050506040513d601f19601f82011682018060405250810190612167919061404f565b91506001600160a01b038216638b96412b6121856020870187612f4a565b6121926020880188613e34565b61219f60408a018a613e34565b6040518663ffffffff1660e01b81526004016121bf95949392919061414b565b6020604051808303816000875af11580156121de573d6000803e3d6000fd5b505050506040513d601f19601f820116820180604052508101906111d7919061418f565b6000546001600160a01b0316331461222c5760405162461bcd60e51b81526004016105f490613963565b6001600160a01b0381166122915760405162461bcd60e51b815260206004820152602660248201527f4f776e61626c653a206e6577206f776e657220697320746865207a65726f206160448201526564647265737360d01b60648201526084016105f4565b61229a81612a7a565b50565b600080600260015414156122c35760405162461bcd60e51b81526004016105f490613998565b60026001556123b56122d58580613afb565b8080601f016020809104026020016040519081016040528093929190818152602001838380828437600092019190915250612317925050506020870187613afb565b8080601f016020809104026020016040519081016040528093929190818152602001838380828437600092018290525060408b01359350309250905061236060608b018b613afb565b8080601f0160208091040260200160405190810160405280939291908181526020018383808284376000920191909152506123a59250505060a08c0160808d01613b48565b6102c860c08d0160a08e01612f4a565b91506001600160a01b03821663e38d7cad84356123d56020870187613e34565b6123e26040890189613e34565b6123ef60608b018b613e34565b6123fc60808d018d613e34565b6040518a63ffffffff1660e01b815260040161242099989796959493929190613f9e565b6020604051808303816000875af115801561243f573d6000803e3d6000fd5b505050506040513d601f19601f82011682018060405250810190612463919061404f565b6040516301fc3d9160e71b81523060048201529091506001600160a01b0383169063fe1ec88090602401600060405180830381600087803b1580156124a757600080fd5b505af11580156124bb573d6000803e3d6000fd5b505060018055509194909350915050565b6040516370a0823160e01b81526001600160a01b038381166004830152600091908616906370a0823190602401602060405180830381865afa158015612516573d6000803e3d6000fd5b505050506040513d601f19601f8201168201806040525081019061253a919061418f565b90506125516001600160a01b038616858585612aca565b61255b8183612b02565b6040516370a0823160e01b81526001600160a01b0385811660048301528716906370a0823190602401602060405180830381865afa1580156125a1573d6000803e3d6000fd5b505050506040513d601f19601f820116820180604052508101906125c5919061418f565b10156126135760405162461bcd60e51b815260206004820152601a60248201527f5472616e7366657220616d6f756e7420697320746f6f206c6f7700000000000060448201526064016105f4565b5050505050565b604051636eb1769f60e11b81523060048201526001600160a01b038381166024830152600091839186169063dd62ed3e90604401602060405180830381865afa15801561266b573d6000803e3d6000fd5b505050506040513d601f19601f8201168201806040525081019061268f919061418f565b6126999190613e1c565b6040516001600160a01b0385166024820152604481018290529091506126ff90859063095ea7b360e01b906064015b60408051601f198184030181529190526020810180516001600160e01b03166001600160e01b031990931692909217909152612b15565b50505050565b6000808260601b9050604051733d602d80600a3d3981f3363d3d373d3d3d363d7360601b81528160148201526e5af43d82803e903d91602b57fd5bf360881b60288201526037816000f06040516001600160a01b03821681529093507f117c72e6c25f0a072e36e148df71468ce2f3dbe7defec5b2c257a6e3eb65278c915060200160405180910390a150919050565b6000836000815181106127aa576127aa6139cf565b6020026020010151600014156128105760405162461bcd60e51b815260206004820152602560248201527f4552433230466163746f72793a207a65726f20636170206973206e6f7420616c6044820152641b1bddd95960da1b60648201526084016105f4565b600b54871115801561282157508615155b61283d5760405162461bcd60e51b81526004016105f49061391a565b6000878152600760209081526040918290208251808401909352546001600160a01b0381168352600160a01b900460ff1615159082018190526128d65760405162461bcd60e51b815260206004820152602b60248201527f4552433230466163746f72793a20455243373231546f6b656e2054656d706c6160448201526a1d1948191a5cd8589b195960aa1b60648201526084016105f4565b80516128e190612705565b6001600160a01b0381166000818152600960205260409020805460ff191660011790559092506129795760405162461bcd60e51b815260206004820152603e60248201527f455243373231466163746f72793a204661696c656420746f20706572666f726d60448201527f206d696e696d616c206465706c6f79206f662061206e657720746f6b656e000060648201526084016105f4565b80600001516001600160a01b0316826001600160a01b03167f567699dbf7c5f63a51a42fd451f5e065bca0dfc723adf2cc498bbb7cfb780b90896000815181106129c5576129c56139cf565b60200260200101518a6001815181106129e0576129e06139cf565b6020026020010151896000815181106129fb576129fb6139cf565b602002602001015188604051612a1494939291906141a8565b60405180910390a36001600a6000828254612a2f9190613e1c565b90915550506040805160a08101825288815260208101889052908101869052606081018590526001600160a01b0384166080820152612a6e8382612bec565b50509695505050505050565b600080546001600160a01b038381166001600160a01b0319831681178455604051919092169283917f8be0079c531659141344cd1fd0a4f28419497f9722a3daafe3b4186f6b6457e09190a35050565b6040516001600160a01b03808516602483015283166044820152606481018290526126ff9085906323b872dd60e01b906084016126c8565b6000612b0e8284613e1c565b9392505050565b6000612b6a826040518060400160405280602081526020017f5361666545524332303a206c6f772d6c6576656c2063616c6c206661696c6564815250856001600160a01b0316612d999092919063ffffffff16565b805190915015612be75780806020019051810190612b889190613da0565b612be75760405162461bcd60e51b815260206004820152602a60248201527f5361666545524332303a204552433230206f7065726174696f6e20646964206e6044820152691bdd081cdd58d8d9595960b21b60648201526084016105f4565b505050565b6040805160038082526080820190925283916000919060208201606080368337019050509050826080015181600081518110612c2a57612c2a6139cf565b6001600160a01b039283166020918202929092010152600254825191169082906001908110612c5b57612c5b6139cf565b6001600160a01b039283166020918202929092010152600c54825191169082906002908110612c8c57612c8c6139cf565b60200260200101906001600160a01b031690816001600160a01b031681525050816001600160a01b031663b3998be08460000151856020015184876040015188606001516040518663ffffffff1660e01b8152600401612cf09594939291906142a0565b6020604051808303816000875af1158015612d0f573d6000803e3d6000fd5b505050506040513d601f19601f82011682018060405250810190612d339190613da0565b6126ff5760405162461bcd60e51b815260206004820152603160248201527f4552433230466163746f72793a20556e61626c6520746f20696e697469616c696044820152707a6520746f6b656e20696e7374616e636560781b60648201526084016105f4565b6060612da88484600085612db0565b949350505050565b606082471015612e115760405162461bcd60e51b815260206004820152602660248201527f416464726573733a20696e73756666696369656e742062616c616e636520666f6044820152651c8818d85b1b60d21b60648201526084016105f4565b843b612e5f5760405162461bcd60e51b815260206004820152601d60248201527f416464726573733a2063616c6c20746f206e6f6e2d636f6e747261637400000060448201526064016105f4565b600080866001600160a01b03168587604051612e7b9190614349565b60006040518083038185875af1925050503d8060008114612eb8576040519150601f19603f3d011682016040523d82523d6000602084013e612ebd565b606091505b5091509150612ecd828286612ed8565b979650505050505050565b60608315612ee7575081612b0e565b825115612ef75782518084602001fd5b8160405162461bcd60e51b81526004016105f49190614365565b600060208284031215612f2357600080fd5b5035919050565b6001600160a01b038116811461229a57600080fd5b80356114a781612f2a565b600060208284031215612f5c57600080fd5b8135612b0e81612f2a565b634e487b7160e01b600052604160045260246000fd5b60405161010081016001600160401b0381118282101715612fa057612fa0612f67565b60405290565b604051606081016001600160401b0381118282101715612fa057612fa0612f67565b60405160a081016001600160401b0381118282101715612fa057612fa0612f67565b604051601f8201601f191681016001600160401b038111828210171561301257613012612f67565b604052919050565b60006001600160401b0382111561303357613033612f67565b5060051b60200190565b803560ff811681146114a757600080fd5b600082601f83011261305f57600080fd5b81356001600160401b0381111561307857613078612f67565b61308b601f8201601f1916602001612fea565b8181528460208386010111156130a057600080fd5b816020850160208301376000918101602001919091529392505050565b600061010082840312156130d057600080fd5b6130d8612f7d565b90506130e382612f3f565b81526130f160208301612f3f565b60208201526040820135604082015261310c6060830161303d565b60608201526080820135608082015260a082013560a082015260c082013560c082015260e08201356001600160401b0381111561314857600080fd5b6131548482850161304e565b60e08301525092915050565b6000602080838503121561317357600080fd5b82356001600160401b038082111561318a57600080fd5b818501915085601f83011261319e57600080fd5b81356131b16131ac8261301a565b612fea565b81815260059190911b830184019084810190888311156131d057600080fd5b8585015b83811015613259578035858111156131ec5760008081fd5b86016060818c03601f19018113156132045760008081fd5b61320c612fa6565b8983013561321981612f2a565b81526040838101358b8301529183013591888311156132385760008081fd5b6132468e8c858701016130bd565b90820152855250509186019186016131d4565b5098975050505050505050565b600060c0828403121561327857600080fd5b50919050565b6000806040838503121561329157600080fd5b82356001600160401b03808211156132a857600080fd5b6132b486838701613266565b935060208501359150808211156132ca57600080fd5b50830160e081860312156132dd57600080fd5b809150509250929050565b801515811461229a57600080fd5b80356114a7816132e8565b600080600080600080600080610100898b03121561331e57600080fd5b88356001600160401b038082111561333557600080fd5b6133418c838d0161304e565b995060208b013591508082111561335757600080fd5b6133638c838d0161304e565b985060408b0135975061337860608c01612f3f565b965061338660808c01612f3f565b955060a08b013591508082111561339c57600080fd5b506133a98b828c0161304e565b9350506133b860c08a016132f6565b91506133c660e08a01612f3f565b90509295985092959890939650565b600060a0828403121561327857600080fd5b60006060828403121561327857600080fd5b60008060006060848603121561340e57600080fd5b83356001600160401b038082111561342557600080fd5b61343187838801613266565b9450602086013591508082111561344757600080fd5b613453878388016133d5565b9350604086013591508082111561346957600080fd5b50613476868287016133e7565b9150509250925092565b600082601f83011261349157600080fd5b813560206134a16131ac8361301a565b82815260059290921b840181019181810190868411156134c057600080fd5b8286015b848110156134e45780356134d781612f2a565b83529183019183016134c4565b509695505050505050565b600082601f83011261350057600080fd5b813560206135106131ac8361301a565b82815260059290921b8401810191818101908684111561352f57600080fd5b8286015b848110156134e45780358352918301918301613533565b600082601f83011261355b57600080fd5b8135602061356b6131ac8361301a565b82815260059290921b8401810191818101908684111561358a57600080fd5b8286015b848110156134e45780356001600160401b038111156135ad5760008081fd5b6135bb8986838b010161304e565b84525091830191830161358e565b600080600080600060a086880312156135e157600080fd5b853594506020808701356001600160401b038082111561360057600080fd5b818901915089601f83011261361457600080fd5b81356136226131ac8261301a565b81815260059190911b8301840190848101908c83111561364157600080fd5b8585015b838110156136795780358581111561365d5760008081fd5b61366b8f89838a010161304e565b845250918601918601613645565b5098505050604089013592508083111561369257600080fd5b61369e8a848b01613480565b955060608901359250808311156136b457600080fd5b6136c08a848b016134ef565b945060808901359250808311156136d657600080fd5b50506136e48882890161354a565b9150509295509295909350565b6000602080838503121561370457600080fd5b82356001600160401b038082111561371b57600080fd5b818501915085601f83011261372f57600080fd5b813561373d6131ac8261301a565b81815260059190911b8301840190848101908883111561375c57600080fd5b8585015b838110156132595780358581111561377757600080fd5b8601808b0360e0601f198201121561378e57600080fd5b613796612fc8565b898301356137a381612f2a565b815260408301356137b381612f2a565b818b015260608381013560408301526080840135898111156137d457600080fd5b6137e28f8d838801016130bd565b828401525080609f19840112156137f857600080fd5b50613801612fa6565b915060a083013561381181612f2a565b825260c083013561382181612f2a565b828b015260e09290920135604082015260808201528352918601918601613760565b600080600060e0848603121561385857600080fd5b83356001600160401b038082111561386f57600080fd5b61387b87838801613266565b9450602086013591508082111561389157600080fd5b5061389e868287016133d5565b9250506138ae85604086016133d5565b90509250925092565b600080604083850312156138ca57600080fd5b82356001600160401b03808211156138e157600080fd5b6138ed86838701613266565b9350602085013591508082111561390357600080fd5b50613910858286016133d5565b9150509250929050565b60208082526029908201527f4552433230466163746f72793a2054656d706c61746520696e64657820646f656040820152681cdb9d08195e1a5cdd60ba1b606082015260800190565b6020808252818101527f4f776e61626c653a2063616c6c6572206973206e6f7420746865206f776e6572604082015260600190565b6020808252601f908201527f5265656e7472616e637947756172643a207265656e7472616e742063616c6c00604082015260600190565b634e487b7160e01b600052603260045260246000fd5b60005b83811015613a005781810151838201526020016139e8565b838111156126ff5750506000910152565b60008151808452613a298160208601602086016139e5565b601f01601f19169290920160200192915050565b600061010060018060a01b03808451168552806020850151166020860152506040830151604085015260ff60608401511660608501526080830151608085015260a083015160a085015260c083015160c085015260e08301518160e0860152613aa882860182613a11565b95945050505050565b828152604060208201526000612da86040830184613a3d565b634e487b7160e01b600052601160045260246000fd5b6000600019821415613af457613af4613aca565b5060010190565b6000808335601e19843603018112613b1257600080fd5b8301803591506001600160401b03821115613b2c57600080fd5b602001915036819003821315613b4157600080fd5b9250929050565b600060208284031215613b5a57600080fd5b8135612b0e816132e8565b600060208284031215613b7757600080fd5b612b0e8261303d565b6000808335601e19843603018112613b9757600080fd5b8301803591506001600160401b03821115613bb157600080fd5b6020019150600781901b3603821315613b4157600080fd5b81835281816020850137506000828201602090810191909152601f909101601f19169091010190565b60ff8d16815260e060208201526000613c0f60e083018d8f613bc9565b604083820381850152613c23828d8f613bc9565b9150606084830381860152613c39838c8e613bc9565b9250608085840381870152613c4f848b8d613bc9565b60a087018a905286810360c088015287815288945060200160005b88811015613cbc578535613c7d81612f2a565b6001600160a01b0316825260ff613c966020880161303d565b166020830152858501358583015283860135848301529482019490820190600101613c6a565b5080955050505050509d9c50505050505050505050505050565b6020808252602c908201527f4552433732314454466163746f72793a2054656d706c61746520696e6465782060408201526b191bd95cdb9d08195e1a5cdd60a21b606082015260800190565b6001600160a01b03898116825261010060208301819052600091613d488483018c613a11565b91508382036040850152613d5c828b613a11565b8982166060860152888216608086015290871660a085015283810360c08501529050613d888186613a11565b91505082151560e08301529998505050505050505050565b600060208284031215613db257600080fd5b8151612b0e816132e8565b6001600160a01b038616815260a060208201819052600090613de190830187613a11565b8281036040840152613df38187613a11565b90508281036060840152613e078186613a11565b91505082151560808301529695505050505050565b60008219821115613e2f57613e2f613aca565b500190565b6000808335601e19843603018112613e4b57600080fd5b8301803591506001600160401b03821115613e6557600080fd5b6020019150600581901b3603821315613b4157600080fd5b6000808335601e19843603018112613e9457600080fd5b83016020810192503590506001600160401b03811115613eb357600080fd5b803603831315613b4157600080fd5b8183526000602080850194508260005b85811015613f00578135613ee581612f2a565b6001600160a01b031687529582019590820190600101613ed2565b509495945050505050565b81835260006001600160fb1b03831115613f2457600080fd5b8260051b8083602087013760009401602001938452509192915050565b81835260006020808501808196508560051b810191508460005b87811015613f91578284038952613f728288613e7d565b613f7d868284613bc9565b9a87019a9550505090840190600101613f5b565b5091979650505050505050565b89815260a0602082018190528101889052600060c060058a901b830181019083018b835b8c811015613fff5785840360bf19018352613fdd828f613e7d565b613fe8868284613bc9565b955050506020928301929190910190600101613fc2565b505050828103604084015261401581898b613ec2565b9050828103606084015261402a818789613f0b565b9050828103608084015261403f818587613f41565b9c9b505050505050505050505050565b60006020828403121561406157600080fd5b8151612b0e81612f2a565b60608152600061408060608301888a613f0b565b8281036020840152614093818789613f0b565b905082810360408401526140a8818587613ec2565b9998505050505050505050565b6000806000606084860312156140ca57600080fd5b83516140d581612f2a565b60208501519093506140e681612f2a565b80925050604084015190509250925092565b600060018060a01b03808716835285602084015260c0604084015261412060c0840186613a3d565b915080845116606084015280602085015116608084015250604083015160a083015295945050505050565b6001600160a01b03861681526060602082018190526000906141709083018688613ec2565b8281036040840152614183818587613f0b565b98975050505050505050565b6000602082840312156141a157600080fd5b5051919050565b6080815260006141bb6080830187613a11565b82810360208401526141cd8187613a11565b604084019590955250506001600160a01b039190911660609091015292915050565b600081518084526020808501945080840160005b83811015613f005781516001600160a01b031687529582019590820190600101614203565b600081518084526020808501945080840160005b83811015613f005781518752958201959082019060010161423c565b600081518084526020808501808196508360051b8101915082860160005b85811015613f9157828403895261428e848351613a11565b98850198935090840190600101614276565b600060a0820160a0835280885180835260c08501915060c08160051b86010192506020808b0160005b838110156142f75760bf198887030185526142e5868351613a11565b955093820193908201906001016142c9565b50508584038187015250505061430d81886141ef565b9050828103604084015261432181876141ef565b905082810360608401526143358186614228565b905082810360808401526141838185614258565b6000825161435b8184602087016139e5565b9190910192915050565b602081526000612b0e6020830184613a1156fea264697066735822122051f221b59ed0f920c16aabc7915faf98f194163d9247fced7de13bc98aa0490d64736f6c634300080c00334f776e61626c653a2063616c6c6572206973206e6f7420746865206f776e6572",
  "linkReferences": {},
  "deployedLinkReferences": {}
}