{
  "_format": "hh-sol-artifact-1",
  "contractName": "ERC721Factory",
  "sourceName": "contracts/ERC721Factory.sol",
  "abi": [
    {
      "inputs": [
        {
          "internalType": "address",
          "name": "_template721",
          "type": "address"
        },
        {
          "internalType": "address",
          "name": "_template",
          "type": "address"
        },
        {
          "internalType": "address",
          "name": "_collector",
          "type": "address"
        },
        {
          "internalType": "address",
          "name": "_router",
          "type": "address"
        }
      ],
      "stateMutability": "nonpayable",
      "type": "constructor"
    },
    {
      "anonymous": false,
      "inputs": [
        {
          "indexed": false,
          "internalType": "address",
          "name": "instance",
          "type": "address"
        }
      ],
      "name": "InstanceDeployed",
      "type": "event"
    },
    {
      "anonymous": false,
      "inputs": [
        {
          "indexed": true,
          "internalType": "address",
          "name": "newTokenAddress",
          "type": "address"
        },
        {
          "indexed": true,
          "internalType": "address",
          "name": "templateAddress",
          "type": "address"
        },
        {
          "indexed": true,
          "internalType": "string",
          "name": "tokenName",
          "type": "string"
        },
        {
          "indexed": false,
          "internalType": "address",
          "name": "admin",
          "type": "address"
        }
      ],
      "name": "NFTCreated",
      "type": "event"
    },
    {
      "anonymous": false,
      "inputs": [
        {
          "indexed": false,
          "internalType": "bytes32",
          "name": "exchangeId",
          "type": "bytes32"
        },
        {
          "indexed": false,
          "internalType": "address",
          "name": "owner",
          "type": "address"
        }
      ],
      "name": "NewFixedRate",
      "type": "event"
    },
    {
      "anonymous": false,
      "inputs": [
        {
          "indexed": false,
          "internalType": "address",
          "name": "poolAddress",
          "type": "address"
        },
        {
          "indexed": false,
          "internalType": "address",
          "name": "ssContract",
          "type": "address"
        },
        {
          "indexed": false,
          "internalType": "address",
          "name": "basetokenAddress",
          "type": "address"
        }
      ],
      "name": "NewPool",
      "type": "event"
    },
    {
      "anonymous": false,
      "inputs": [
        {
          "indexed": true,
          "internalType": "address",
          "name": "previousOwner",
          "type": "address"
        },
        {
          "indexed": true,
          "internalType": "address",
          "name": "newOwner",
          "type": "address"
        }
      ],
      "name": "OwnershipTransferred",
      "type": "event"
    },
    {
      "anonymous": false,
      "inputs": [
        {
          "indexed": true,
          "internalType": "address",
          "name": "newTokenAddress",
          "type": "address"
        },
        {
          "indexed": true,
          "internalType": "address",
          "name": "templateAddress",
          "type": "address"
        },
        {
          "indexed": true,
          "internalType": "string",
          "name": "tokenName",
          "type": "string"
        }
      ],
      "name": "TokenCreated",
      "type": "event"
    },
    {
      "inputs": [
        {
          "internalType": "address",
          "name": "_templateAddress",
          "type": "address"
        }
      ],
      "name": "add721TokenTemplate",
      "outputs": [
        {
          "internalType": "uint256",
          "name": "",
          "type": "uint256"
        }
      ],
      "stateMutability": "nonpayable",
      "type": "function"
    },
    {
      "inputs": [
        {
          "internalType": "address",
          "name": "_templateAddress",
          "type": "address"
        }
      ],
      "name": "addTokenTemplate",
      "outputs": [
        {
          "internalType": "uint256",
          "name": "",
          "type": "uint256"
        }
      ],
      "stateMutability": "nonpayable",
      "type": "function"
    },
    {
      "inputs": [
        {
          "components": [
            {
              "internalType": "string",
              "name": "name",
              "type": "string"
            },
            {
              "internalType": "string",
              "name": "symbol",
              "type": "string"
            },
            {
              "internalType": "uint256",
              "name": "templateIndex",
              "type": "uint256"
            },
            {
              "internalType": "string",
              "name": "baseURI",
              "type": "string"
            }
          ],
          "internalType": "struct ERC721Factory.NftCreateData",
          "name": "_NftCreateData",
          "type": "tuple"
        },
        {
          "components": [
            {
              "internalType": "uint256",
              "name": "templateIndex",
              "type": "uint256"
            },
            {
              "internalType": "string[]",
              "name": "strings",
              "type": "string[]"
            },
            {
              "internalType": "address[]",
              "name": "addresses",
              "type": "address[]"
            },
            {
              "internalType": "uint256[]",
              "name": "uints",
              "type": "uint256[]"
            },
            {
              "internalType": "bytes[]",
              "name": "bytess",
              "type": "bytes[]"
            }
          ],
          "internalType": "struct ERC721Factory.ErcCreateData",
          "name": "_ErcCreateData",
          "type": "tuple"
        },
        {
          "components": [
            {
              "internalType": "address",
              "name": "fixedPriceAddress",
              "type": "address"
            },
            {
              "internalType": "address[]",
              "name": "addresses",
              "type": "address[]"
            },
            {
              "internalType": "uint256[]",
              "name": "uints",
              "type": "uint256[]"
            }
          ],
          "internalType": "struct ERC721Factory.FixedData",
          "name": "_FixedData",
          "type": "tuple"
        }
      ],
      "name": "createNftErcWithFixedRate",
      "outputs": [
        {
          "internalType": "address",
          "name": "erc721Address",
          "type": "address"
        },
        {
          "internalType": "address",
          "name": "erc20Address",
          "type": "address"
        },
        {
          "internalType": "bytes32",
          "name": "exchangeId",
          "type": "bytes32"
        }
      ],
      "stateMutability": "nonpayable",
      "type": "function"
    },
    {
      "inputs": [
        {
          "components": [
            {
              "internalType": "string",
              "name": "name",
              "type": "string"
            },
            {
              "internalType": "string",
              "name": "symbol",
              "type": "string"
            },
            {
              "internalType": "uint256",
              "name": "templateIndex",
              "type": "uint256"
            },
            {
              "internalType": "string",
              "name": "baseURI",
              "type": "string"
            }
          ],
          "internalType": "struct ERC721Factory.NftCreateData",
          "name": "_NftCreateData",
          "type": "tuple"
        },
        {
          "components": [
            {
              "internalType": "uint256",
              "name": "templateIndex",
              "type": "uint256"
            },
            {
              "internalType": "string[]",
              "name": "strings",
              "type": "string[]"
            },
            {
              "internalType": "address[]",
              "name": "addresses",
              "type": "address[]"
            },
            {
              "internalType": "uint256[]",
              "name": "uints",
              "type": "uint256[]"
            },
            {
              "internalType": "bytes[]",
              "name": "bytess",
              "type": "bytes[]"
            }
          ],
          "internalType": "struct ERC721Factory.ErcCreateData",
          "name": "_ErcCreateData",
          "type": "tuple"
        },
        {
          "components": [
            {
              "internalType": "address[]",
              "name": "addresses",
              "type": "address[]"
            },
            {
              "internalType": "uint256[]",
              "name": "ssParams",
              "type": "uint256[]"
            },
            {
              "internalType": "uint256[]",
              "name": "swapFees",
              "type": "uint256[]"
            }
          ],
          "internalType": "struct ERC721Factory.PoolData",
          "name": "_PoolData",
          "type": "tuple"
        }
      ],
      "name": "createNftErcWithPool",
      "outputs": [
        {
          "internalType": "address",
          "name": "erc721Address",
          "type": "address"
        },
        {
          "internalType": "address",
          "name": "erc20Address",
          "type": "address"
        },
        {
          "internalType": "address",
          "name": "poolAddress",
          "type": "address"
        }
      ],
      "stateMutability": "nonpayable",
      "type": "function"
    },
    {
      "inputs": [
        {
          "components": [
            {
              "internalType": "string",
              "name": "name",
              "type": "string"
            },
            {
              "internalType": "string",
              "name": "symbol",
              "type": "string"
            },
            {
              "internalType": "uint256",
              "name": "templateIndex",
              "type": "uint256"
            },
            {
              "internalType": "string",
              "name": "baseURI",
              "type": "string"
            }
          ],
          "internalType": "struct ERC721Factory.NftCreateData",
          "name": "_NftCreateData",
          "type": "tuple"
        },
        {
          "components": [
            {
              "internalType": "uint256",
              "name": "templateIndex",
              "type": "uint256"
            },
            {
              "internalType": "string[]",
              "name": "strings",
              "type": "string[]"
            },
            {
              "internalType": "address[]",
              "name": "addresses",
              "type": "address[]"
            },
            {
              "internalType": "uint256[]",
              "name": "uints",
              "type": "uint256[]"
            },
            {
              "internalType": "bytes[]",
              "name": "bytess",
              "type": "bytes[]"
            }
          ],
          "internalType": "struct ERC721Factory.ErcCreateData",
          "name": "_ErcCreateData",
          "type": "tuple"
        }
      ],
      "name": "createNftWithErc",
      "outputs": [
        {
          "internalType": "address",
          "name": "erc721Address",
          "type": "address"
        },
        {
          "internalType": "address",
          "name": "erc20Address",
          "type": "address"
        }
      ],
      "stateMutability": "nonpayable",
      "type": "function"
    },
    {
      "inputs": [
        {
          "internalType": "uint256",
          "name": "_templateIndex",
          "type": "uint256"
        },
        {
          "internalType": "string[]",
          "name": "strings",
          "type": "string[]"
        },
        {
          "internalType": "address[]",
          "name": "addresses",
          "type": "address[]"
        },
        {
          "internalType": "uint256[]",
          "name": "uints",
          "type": "uint256[]"
        },
        {
          "internalType": "bytes[]",
          "name": "bytess",
          "type": "bytes[]"
        }
      ],
      "name": "createToken",
      "outputs": [
        {
          "internalType": "address",
          "name": "token",
          "type": "address"
        }
      ],
      "stateMutability": "nonpayable",
      "type": "function"
    },
    {
      "inputs": [
        {
          "internalType": "string",
          "name": "name",
          "type": "string"
        },
        {
          "internalType": "string",
          "name": "symbol",
          "type": "string"
        },
        {
          "internalType": "uint256",
          "name": "_templateIndex",
          "type": "uint256"
        },
        {
          "internalType": "address",
          "name": "additionalERC20Deployer",
          "type": "address"
        },
        {
          "internalType": "string",
          "name": "baseURI",
          "type": "string"
        }
      ],
      "name": "deployERC721Contract",
      "outputs": [
        {
          "internalType": "address",
          "name": "token",
          "type": "address"
        }
      ],
      "stateMutability": "nonpayable",
      "type": "function"
    },
    {
      "inputs": [
        {
          "internalType": "uint256",
          "name": "_index",
          "type": "uint256"
        }
      ],
      "name": "disable721TokenTemplate",
      "outputs": [],
      "stateMutability": "nonpayable",
      "type": "function"
    },
    {
      "inputs": [
        {
          "internalType": "uint256",
          "name": "_index",
          "type": "uint256"
        }
      ],
      "name": "disableTokenTemplate",
      "outputs": [],
      "stateMutability": "nonpayable",
      "type": "function"
    },
    {
      "inputs": [
        {
          "internalType": "address",
          "name": "",
          "type": "address"
        }
      ],
      "name": "erc20List",
      "outputs": [
        {
          "internalType": "bool",
          "name": "",
          "type": "bool"
        }
      ],
      "stateMutability": "view",
      "type": "function"
    },
    {
      "inputs": [
        {
          "internalType": "address",
          "name": "",
          "type": "address"
        }
      ],
      "name": "erc721List",
      "outputs": [
        {
          "internalType": "address",
          "name": "",
          "type": "address"
        }
      ],
      "stateMutability": "view",
      "type": "function"
    },
    {
      "inputs": [],
      "name": "getCurrentNFTCount",
      "outputs": [
        {
          "internalType": "uint256",
          "name": "",
          "type": "uint256"
        }
      ],
      "stateMutability": "view",
      "type": "function"
    },
    {
      "inputs": [],
      "name": "getCurrentNFTTemplateCount",
      "outputs": [
        {
          "internalType": "uint256",
          "name": "",
          "type": "uint256"
        }
      ],
      "stateMutability": "view",
      "type": "function"
    },
    {
      "inputs": [],
      "name": "getCurrentTemplateCount",
      "outputs": [
        {
          "internalType": "uint256",
          "name": "",
          "type": "uint256"
        }
      ],
      "stateMutability": "view",
      "type": "function"
    },
    {
      "inputs": [],
      "name": "getCurrentTokenCount",
      "outputs": [
        {
          "internalType": "uint256",
          "name": "",
          "type": "uint256"
        }
      ],
      "stateMutability": "view",
      "type": "function"
    },
    {
      "inputs": [
        {
          "internalType": "uint256",
          "name": "_index",
          "type": "uint256"
        }
      ],
      "name": "getNFTTemplate",
      "outputs": [
        {
          "components": [
            {
              "internalType": "address",
              "name": "templateAddress",
              "type": "address"
            },
            {
              "internalType": "bool",
              "name": "isActive",
              "type": "bool"
            }
          ],
          "internalType": "struct ERC721Factory.Template",
          "name": "",
          "type": "tuple"
        }
      ],
      "stateMutability": "view",
      "type": "function"
    },
    {
      "inputs": [
        {
          "internalType": "uint256",
          "name": "_index",
          "type": "uint256"
        }
      ],
      "name": "getTokenTemplate",
      "outputs": [
        {
          "components": [
            {
              "internalType": "address",
              "name": "templateAddress",
              "type": "address"
            },
            {
              "internalType": "bool",
              "name": "isActive",
              "type": "bool"
            }
          ],
          "internalType": "struct ERC721Factory.Template",
          "name": "",
          "type": "tuple"
        }
      ],
      "stateMutability": "view",
      "type": "function"
    },
    {
      "inputs": [
        {
          "internalType": "uint256",
          "name": "",
          "type": "uint256"
        }
      ],
      "name": "nftTemplateList",
      "outputs": [
        {
          "internalType": "address",
          "name": "templateAddress",
          "type": "address"
        },
        {
          "internalType": "bool",
          "name": "isActive",
          "type": "bool"
        }
      ],
      "stateMutability": "view",
      "type": "function"
    },
    {
      "inputs": [],
      "name": "owner",
      "outputs": [
        {
          "internalType": "address",
          "name": "",
          "type": "address"
        }
      ],
      "stateMutability": "view",
      "type": "function"
    },
    {
      "inputs": [
        {
          "internalType": "uint256",
          "name": "_index",
          "type": "uint256"
        }
      ],
      "name": "reactivate721TokenTemplate",
      "outputs": [],
      "stateMutability": "nonpayable",
      "type": "function"
    },
    {
      "inputs": [
        {
          "internalType": "uint256",
          "name": "_index",
          "type": "uint256"
        }
      ],
      "name": "reactivateTokenTemplate",
      "outputs": [],
      "stateMutability": "nonpayable",
      "type": "function"
    },
    {
      "inputs": [],
      "name": "renounceOwnership",
      "outputs": [],
      "stateMutability": "nonpayable",
      "type": "function"
    },
    {
      "inputs": [],
      "name": "router",
      "outputs": [
        {
          "internalType": "address",
          "name": "",
          "type": "address"
        }
      ],
      "stateMutability": "view",
      "type": "function"
    },
    {
      "inputs": [
        {
          "components": [
            {
              "internalType": "address",
              "name": "tokenAddress",
              "type": "address"
            },
            {
              "internalType": "address",
              "name": "consumer",
              "type": "address"
            },
            {
              "internalType": "uint256",
              "name": "amount",
              "type": "uint256"
            },
            {
              "internalType": "uint256",
              "name": "serviceId",
              "type": "uint256"
            },
            {
              "internalType": "address",
              "name": "consumeFeeAddress",
              "type": "address"
            },
            {
              "internalType": "address",
              "name": "consumeFeeToken",
              "type": "address"
            },
            {
              "internalType": "uint256",
              "name": "consumeFeeAmount",
              "type": "uint256"
            }
          ],
          "internalType": "struct ERC721Factory.tokenOrder[]",
          "name": "orders",
          "type": "tuple[]"
        }
      ],
      "name": "startMultipleTokenOrder",
      "outputs": [],
      "stateMutability": "nonpayable",
      "type": "function"
    },
    {
      "inputs": [],
      "name": "templateCount",
      "outputs": [
        {
          "internalType": "uint256",
          "name": "",
          "type": "uint256"
        }
      ],
      "stateMutability": "view",
      "type": "function"
    },
    {
      "inputs": [
        {
          "internalType": "uint256",
          "name": "",
          "type": "uint256"
        }
      ],
      "name": "templateList",
      "outputs": [
        {
          "internalType": "address",
          "name": "templateAddress",
          "type": "address"
        },
        {
          "internalType": "bool",
          "name": "isActive",
          "type": "bool"
        }
      ],
      "stateMutability": "view",
      "type": "function"
    },
    {
      "inputs": [
        {
          "internalType": "address",
          "name": "newOwner",
          "type": "address"
        }
      ],
      "name": "transferOwnership",
      "outputs": [],
      "stateMutability": "nonpayable",
      "type": "function"
    }
  ],
  "bytecode": "0x608060405260006009553480156200001657600080fd5b506040516200347d3803806200347d8339810160408190526200003991620004db565b620000443362000152565b6001600160a01b038316158015906200006557506001600160a01b03821615155b80156200007a57506001600160a01b03841615155b620001025760405162461bcd60e51b815260206004820152604760248201527f4552433732314454466163746f72793a20496e76616c69642074656d706c617460448201527f6520746f6b656e2f636f6d6d756e6974792066656520636f6c6c6563746f72206064820152666164647265737360c81b608482015260a4015b60405180910390fd5b6200010d84620001a2565b50620001198362000333565b50600b80546001600160a01b039283166001600160a01b03199182161790915560018054939092169216919091179055506200055f9050565b600080546001600160a01b038381166001600160a01b0319831681178455604051919092169283917f8be0079c531659141344cd1fd0a4f28419497f9722a3daafe3b4186f6b6457e09190a35050565b600080546001600160a01b03163314620001ee5760405162461bcd60e51b815260206004820181905260248201526000805160206200345d8339815191526044820152606401620000f9565b6001600160a01b0382166200026c5760405162461bcd60e51b815260206004820152603760248201527f4552433732314454466163746f72793a204552433732312074656d706c61746560448201527f2061646472657373283029204e4f5420414c4c4f5745440000000000000000006064820152608401620000f9565b813b620002bc5760405162461bcd60e51b815260206004820152601b60248201527f455243373231466163746f72793a204e4f5420434f4e545241435400000000006044820152606401620000f9565b600160046000828254620002d1919062000538565b90915550506040805180820182526001600160a01b0380851682526001602080840191825260048054600090815260059092529490209251835491511515600160a01b026001600160a81b03199092169216919091171790555490505b919050565b600080546001600160a01b031633146200037f5760405162461bcd60e51b815260206004820181905260248201526000805160206200345d8339815191526044820152606401620000f9565b6001600160a01b038216620003fd5760405162461bcd60e51b815260206004820152603460248201527f4552433230466163746f72793a204552433732312074656d706c61746520616460448201527f6472657373283029204e4f5420414c4c4f5745440000000000000000000000006064820152608401620000f9565b813b6200044d5760405162461bcd60e51b815260206004820152601a60248201527f4552433230466163746f72793a204e4f5420434f4e54524143540000000000006044820152606401620000f9565b6001600a600082825462000462919062000538565b90915550506040805180820182526001600160a01b03808516825260016020808401918252600a8054600090815260069092529490209251835491511515600160a01b026001600160a81b0319909216921691909117179055549050919050565b80516001600160a01b03811681146200032e57600080fd5b60008060008060808587031215620004f257600080fd5b620004fd85620004c3565b93506200050d60208601620004c3565b92506200051d60408601620004c3565b91506200052d60608601620004c3565b905092959194509250565b600082198211156200055a57634e487b7160e01b600052601160045260246000fd5b500190565b612eee806200056f6000396000f3fe608060405234801561001057600080fd5b50600436106101a95760003560e01c806389898869116100f9578063bbf8d71f11610097578063e349109911610071578063e34910991461049a578063e5fc01f0146104cd578063f2fde38b146104d5578063f887ea40146104e857600080fd5b8063bbf8d71f14610442578063c6cf868a14610455578063ca4abc691461045d57600080fd5b806394051699116100d357806394051699146103d057806395c6030514610405578063a33ef2a61461040d578063b9cd22641461042057600080fd5b806389898869146103995780638da5cb5b146103ac5780638f6051af146103bd57600080fd5b80635c7059821161016657806372f670f01161014057806372f670f0146102f65780637b20bccf1461031f578063809d81051461033257806382c442041461034557600080fd5b80635c705982146102d35780636bbd2f3f146102db578063715018a6146102ee57600080fd5b8063042ab9b3146101ae5780630ffda887146101ec578063226e76151461020157806326705c3c146102345780633315efd11461024b578063557fcfb0146102a8575b600080fd5b6101c16101bc3660046127ef565b6104fb565b6040805182516001600160a01b03168152602092830151151592810192909252015b60405180910390f35b6101ff6101fa3660046127ef565b610582565b005b61022461020f366004612499565b60086020526000908152604090205460ff1681565b60405190151581526020016101e3565b61023d600a5481565b6040519081526020016101e3565b6101c16102593660046127ef565b6040805180820190915260008082526020820152506000908152600560209081526040918290208251808401909352546001600160a01b0381168352600160a01b900460ff1615159082015290565b6102bb6102b6366004612808565b6105c7565b6040516001600160a01b0390911681526020016101e3565b60025461023d565b6101ff6102e9366004612516565b610668565b6101ff610dd6565b6102bb610304366004612499565b6007602052600090815260409020546001600160a01b031681565b61023d61032d366004612499565b610e0c565b6101ff6103403660046127ef565b610f6c565b61037a6103533660046127ef565b6005602052600090815260409020546001600160a01b03811690600160a01b900460ff1682565b604080516001600160a01b0390931683529015156020830152016101e3565b6102bb6103a736600461265f565b610fde565b6000546001600160a01b03166102bb565b61023d6103cb366004612499565b6112c6565b61037a6103de3660046127ef565b6006602052600090815260409020546001600160a01b03811690600160a01b900460ff1682565b600a5461023d565b6101ff61041b3660046127ef565b61142f565b61043361042e366004612768565b6114a7565b6040516101e393929190612a4d565b6101ff6104503660046127ef565b6116e7565b60095461023d565b61047061046b366004612768565b6117a3565b604080516001600160a01b03948516815292841660208401529216918101919091526060016101e3565b6104ad6104a8366004612705565b611a99565b604080516001600160a01b039384168152929091166020830152016101e3565b60045461023d565b6101ff6104e3366004612499565b611bf3565b600b546102bb906001600160a01b031681565b60408051808201909152600080825260208201526000828152600660209081526040918290208251808401909352546001600160a01b0381168352600160a01b900460ff16151590820152600a54831180159061055757508215155b61057c5760405162461bcd60e51b815260040161057390612c0d565b60405180910390fd5b92915050565b6000546001600160a01b031633146105ac5760405162461bcd60e51b815260040161057390612ca2565b6000908152600660205260409020805460ff60a01b19169055565b3360008181526007602052604081205490916001600160a01b03909116146106505760405162461bcd60e51b815260206004820152603660248201527f455243373231466163746f72793a204f4e4c592045524337323120494e5354416044820152754e43452046524f4d20455243373231464143544f525960501b6064820152608401610573565b61065e868686868633611c8e565b9695505050505050565b805160005b81811015610dd157600080600085848151811061068c5761068c612e77565b6020026020010151600001516001600160a01b031663397b37436040518163ffffffff1660e01b815260040160606040518083038186803b1580156106d057600080fd5b505afa1580156106e4573d6000803e3d6000fd5b505050506040513d601f19601f8201168201806040525081019061070891906124d3565b92509250925060008111801561072657506001600160a01b03821615155b801561073a57506001600160a01b03831615155b156108bc576040516323b872dd60e01b81526001600160a01b038316906323b872dd9061076f90339030908690600401612a4d565b602060405180830381600087803b15801561078957600080fd5b505af115801561079d573d6000803e3d6000fd5b505050506040513d601f19601f820116820180604052508101906107c19190612624565b61080d5760405162461bcd60e51b815260206004820152601d60248201527f4661696c656420746f207472616e73666572207075626c6973684665650000006044820152606401610573565b816001600160a01b031663095ea7b387868151811061082e5761082e612e77565b6020908102919091010151516040516001600160e01b031960e084901b1681526001600160a01b03909116600482015260248101849052604401602060405180830381600087803b15801561088257600080fd5b505af1158015610896573d6000803e3d6000fd5b505050506040513d601f19601f820116820180604052508101906108ba9190612624565b505b60008685815181106108d0576108d0612e77565b602002602001015160c00151118015610919575060006001600160a01b031686858151811061090157610901612e77565b602002602001015160a001516001600160a01b031614155b8015610955575060006001600160a01b031686858151811061093d5761093d612e77565b6020026020010151608001516001600160a01b031614155b15610b4f5785848151811061096c5761096c612e77565b602002602001015160a001516001600160a01b03166323b872dd333089888151811061099a5761099a612e77565b602002602001015160c001516040518463ffffffff1660e01b81526004016109c493929190612a4d565b602060405180830381600087803b1580156109de57600080fd5b505af11580156109f2573d6000803e3d6000fd5b505050506040513d601f19601f82011682018060405250810190610a169190612624565b610a625760405162461bcd60e51b815260206004820152601d60248201527f4661696c656420746f207472616e7366657220636f6e73756d654665650000006044820152606401610573565b858481518110610a7457610a74612e77565b602002602001015160a001516001600160a01b031663095ea7b3878681518110610aa057610aa0612e77565b602002602001015160000151888781518110610abe57610abe612e77565b602002602001015160c001516040518363ffffffff1660e01b8152600401610afb9291906001600160a01b03929092168252602082015260400190565b602060405180830381600087803b158015610b1557600080fd5b505af1158015610b29573d6000803e3d6000fd5b505050506040513d601f19601f82011682018060405250810190610b4d9190612624565b505b858481518110610b6157610b61612e77565b6020026020010151600001516001600160a01b03166323b872dd3330898881518110610b8f57610b8f612e77565b6020026020010151604001516040518463ffffffff1660e01b8152600401610bb993929190612a4d565b602060405180830381600087803b158015610bd357600080fd5b505af1158015610be7573d6000803e3d6000fd5b505050506040513d601f19601f82011682018060405250810190610c0b9190612624565b610c575760405162461bcd60e51b815260206004820152601c60248201527f4661696c656420746f207472616e736665722064617461746f6b656e000000006044820152606401610573565b858481518110610c6957610c69612e77565b6020026020010151600001516001600160a01b031663fda9dae7878681518110610c9557610c95612e77565b602002602001015160200151888781518110610cb357610cb3612e77565b602002602001015160400151898881518110610cd157610cd1612e77565b6020026020010151606001518a8981518110610cef57610cef612e77565b6020026020010151608001518b8a81518110610d0d57610d0d612e77565b602002602001015160a001518c8b81518110610d2b57610d2b612e77565b602090810291909101015160c0015160405160e088901b6001600160e01b03191681526001600160a01b039687166004820152602481019590955260448501939093529084166064840152909216608482015260a481019190915260c401600060405180830381600087803b158015610da357600080fd5b505af1158015610db7573d6000803e3d6000fd5b505050505050508080610dc990612e46565b91505061066d565b505050565b6000546001600160a01b03163314610e005760405162461bcd60e51b815260040161057390612ca2565b610e0a6000611f3d565b565b600080546001600160a01b03163314610e375760405162461bcd60e51b815260040161057390612ca2565b6001600160a01b038216610eaa5760405162461bcd60e51b815260206004820152603460248201527f4552433230466163746f72793a204552433732312074656d706c617465206164604482015273191c995cdcca0c0a481393d50810531313d5d15160621b6064820152608401610573565b813b610ef85760405162461bcd60e51b815260206004820152601a60248201527f4552433230466163746f72793a204e4f5420434f4e54524143540000000000006044820152606401610573565b6001600a6000828254610f0b9190612de8565b90915550506040805180820182526001600160a01b03808516825260016020808401918252600a8054600090815260069092529490209251835491511515600160a01b026001600160a81b0319909216921691909117179055549050919050565b6000546001600160a01b03163314610f965760405162461bcd60e51b815260040161057390612ca2565b6004548111158015610fa757508015155b610fc35760405162461bcd60e51b815260040161057390612c56565b6000908152600560205260409020805460ff60a01b19169055565b60006004548411158015610ff157508315155b61100d5760405162461bcd60e51b815260040161057390612c56565b6000848152600560209081526040918290208251808401909352546001600160a01b0381168352600160a01b900460ff1615159082018190526001146110ac5760405162461bcd60e51b815260206004820152602e60248201527f4552433732314454466163746f72793a20455243373231546f6b656e2054656d60448201526d1c1b185d1948191a5cd8589b195960921b6064820152608401610573565b80516110b790611f8d565b91506001600160a01b038216611137576040805162461bcd60e51b81526020600482015260248101919091527f4552433732314454466163746f72793a204661696c656420746f20706572666f60448201527f726d206d696e696d616c206465706c6f79206f662061206e657720746f6b656e6064820152608401610573565b6001600160a01b0382166000818152600760205260409081902080546001600160a01b03191683179055516370c166d760e01b81528391906370c166d79061118d9033908c908c9030908c908c90600401612ab5565b602060405180830381600087803b1580156111a757600080fd5b505af11580156111bb573d6000803e3d6000fd5b505050506040513d601f19601f820116820180604052508101906111df9190612624565b6112485760405162461bcd60e51b815260206004820152603460248201527f4552433732314454466163746f72793a20556e61626c6520746f20696e697469604482015273616c697a6520746f6b656e20696e7374616e636560601b6064820152608401610573565b876040516112569190612a31565b604051908190038120835133835290916001600160a01b03918216918616907fab79f3a133194dac43d8f36c89aabc54656acb3d2a780060ac9006812e4655659060200160405180910390a46001600260008282546112b59190612de8565b909155509298975050505050505050565b600080546001600160a01b031633146112f15760405162461bcd60e51b815260040161057390612ca2565b6001600160a01b03821661136d5760405162461bcd60e51b815260206004820152603760248201527f4552433732314454466163746f72793a204552433732312074656d706c61746560448201527f2061646472657373283029204e4f5420414c4c4f5745440000000000000000006064820152608401610573565b813b6113bb5760405162461bcd60e51b815260206004820152601b60248201527f455243373231466163746f72793a204e4f5420434f4e545241435400000000006044820152606401610573565b6001600460008282546113ce9190612de8565b90915550506040805180820182526001600160a01b0380851682526001602080840191825260048054600090815260059092529490209251835491511515600160a01b026001600160a81b0319909216921691909117179055549050919050565b6000546001600160a01b031633146114595760405162461bcd60e51b815260040161057390612ca2565b600454811115801561146a57508015155b6114865760405162461bcd60e51b815260040161057390612c56565b6000908152600560205260409020805460ff60a01b1916600160a01b179055565b6000808061157b6114b88780612d27565b8080601f0160208091040260200160405190810160405280939291908181526020018383808284376000920191909152506114fa925050506020890189612d27565b8080601f01602080910402602001604051908101604052809392919081815260200183838082843760009201919091525050505060408901353061154160608c018c612d27565b8080601f016020809104026020016040519081016040528093929190818152602001838380828437600092019190915250610fde92505050565b9250611632853561158f6020880188612cd7565b61159891612e0d565b6115a56040890189612cd7565b808060200260200160405190810160405280939291908181526020018383602002808284376000920191909152506115e49250505060608a018a612cd7565b808060200260200160405190810160405280939291908181526020018383602002808284376000920191909152506116239250505060808b018b612cd7565b61162c91612e00565b88611c8e565b91506001600160a01b038216638b96412b6116506020870187612499565b61165d6020880188612cd7565b61166a60408a018a612cd7565b6040518663ffffffff1660e01b815260040161168a959493929190612a71565b602060405180830381600087803b1580156116a457600080fd5b505af11580156116b8573d6000803e3d6000fd5b505050506040513d601f19601f820116820180604052508101906116dc9190612646565b905093509350939050565b6000546001600160a01b031633146117115760405162461bcd60e51b815260040161057390612ca2565b600a54811115801561172257508015155b6117825760405162461bcd60e51b815260206004820152602b60248201527f45524332304454466163746f72793a2054656d706c61746520696e646578206460448201526a1bd95cdb9d08195e1a5cdd60aa1b6064820152608401610573565b6000908152600660205260409020805460ff60a01b1916600160a01b179055565b600080806117b18480612cd7565b60018181106117c2576117c2612e77565b90506020020160208101906117d79190612499565b6001600160a01b03166323b872dd33306117f46020890189612cd7565b600481811061180557611805612e77565b905060200201356040518463ffffffff1660e01b815260040161182a93929190612a4d565b602060405180830381600087803b15801561184457600080fd5b505af1158015611858573d6000803e3d6000fd5b505050506040513d601f19601f8201168201806040525081019061187c9190612624565b6118e45760405162461bcd60e51b815260206004820152603360248201527f4661696c656420746f207472616e7366657220696e697469616c20706f6f6c2060448201527262617365746f6b656e206c697175696469747960681b6064820152608401610573565b6118f16114b88780612d27565b9250611905853561158f6020880188612cd7565b91506119118480612cd7565b600181811061192257611922612e77565b90506020020160208101906119379190612499565b600b546001600160a01b039182169163095ea7b3911661195a6020880188612cd7565b600481811061196b5761196b612e77565b6040516001600160e01b031960e087901b1681526001600160a01b0390941660048501526020029190910135602483015250604401602060405180830381600087803b1580156119ba57600080fd5b505af11580156119ce573d6000803e3d6000fd5b505050506040513d601f19601f820116820180604052508101906119f29190612624565b506001600160a01b038216635bfe4da0611a0f6020870187612cd7565b611a1c6040890189612cd7565b611a268a80612cd7565b6040518763ffffffff1660e01b8152600401611a4796959493929190612bc4565b602060405180830381600087803b158015611a6157600080fd5b505af1158015611a75573d6000803e3d6000fd5b505050506040513d601f19601f820116820180604052508101906116dc91906124b6565b600080611b33611aa98580612d27565b8080601f016020809104026020016040519081016040528093929190818152602001838380828437600092019190915250611aeb925050506020870187612d27565b8080601f016020809104026020016040519081016040528093929190818152602001838380828437600092018290525060408b013593509150611541905060608a018a612d27565b9150611bea8335611b476020860186612cd7565b611b5091612e0d565b611b5d6040870187612cd7565b80806020026020016040519081016040528093929190818152602001838360200280828437600092019190915250611b9c925050506060880188612cd7565b80806020026020016040519081016040528093929190818152602001838360200280828437600092019190915250611bdb925050506080890189612cd7565b611be491612e00565b87611c8e565b90509250929050565b6000546001600160a01b03163314611c1d5760405162461bcd60e51b815260040161057390612ca2565b6001600160a01b038116611c825760405162461bcd60e51b815260206004820152602660248201527f4f776e61626c653a206e6577206f776e657220697320746865207a65726f206160448201526564647265737360d01b6064820152608401610573565b611c8b81611f3d565b50565b600083600081518110611ca357611ca3612e77565b602002602001015160001415611d095760405162461bcd60e51b815260206004820152602560248201527f4552433230466163746f72793a207a65726f20636170206973206e6f7420616c6044820152641b1bddd95960da1b6064820152608401610573565b600a548711158015611d1a57508615155b611d365760405162461bcd60e51b815260040161057390612c0d565b6000878152600660209081526040918290208251808401909352546001600160a01b0381168352600160a01b900460ff161515908201819052600114611dd25760405162461bcd60e51b815260206004820152602b60248201527f4552433230466163746f72793a20455243373231546f6b656e2054656d706c6160448201526a1d1948191a5cd8589b195960aa1b6064820152608401610573565b8051611ddd90611f8d565b6001600160a01b0381166000818152600860205260409020805460ff19166001179055909250611e755760405162461bcd60e51b815260206004820152603e60248201527f455243373231466163746f72793a204661696c656420746f20706572666f726d60448201527f206d696e696d616c206465706c6f79206f662061206e657720746f6b656e00006064820152608401610573565b86600081518110611e8857611e88612e77565b6020026020010151604051611e9d9190612a31565b604051908190038120825190916001600160a01b03918216918516907fb51c8cbe199ffe8b0d1d39b62d473569750653cb18b165f77ae423b3900180ad90600090a4600160096000828254611ef29190612de8565b90915550506040805160a081018252888152602081018890529081018690526001600160a01b038416608082015260608101859052611f31838261201d565b50509695505050505050565b600080546001600160a01b038381166001600160a01b0319831681178455604051919092169283917f8be0079c531659141344cd1fd0a4f28419497f9722a3daafe3b4186f6b6457e09190a35050565b6000808260601b9050604051733d602d80600a3d3981f3363d3d373d3d3d363d7360601b81528160148201526e5af43d82803e903d91602b57fd5bf360881b60288201526037816000f06040516001600160a01b03821681529093507f117c72e6c25f0a072e36e148df71468ce2f3dbe7defec5b2c257a6e3eb65278c915060200160405180910390a150919050565b604080516003808252608082019092528391600091906020820160608036833701905050905082608001518160008151811061205b5761205b612e77565b6001600160a01b039283166020918202929092010152600180548351921691839190811061208b5761208b612e77565b6001600160a01b039283166020918202929092010152600b548251911690829060029081106120bc576120bc612e77565b60200260200101906001600160a01b031690816001600160a01b031681525050816001600160a01b031663b3998be08460000151856020015184876040015188606001516040518663ffffffff1660e01b8152600401612120959493929190612b1b565b602060405180830381600087803b15801561213a57600080fd5b505af115801561214e573d6000803e3d6000fd5b505050506040513d601f19601f820116820180604052508101906121729190612624565b6121d85760405162461bcd60e51b815260206004820152603160248201527f4552433230466163746f72793a20556e61626c6520746f20696e697469616c696044820152707a6520746f6b656e20696e7374616e636560781b6064820152608401610573565b50505050565b60006121f16121ec84612dc5565b612d95565b9050808382526020808301915083868660051b8601111561221157600080fd5b60005b868110156122645781356001600160401b0381111561223257600080fd5b8601601f8101891361224357600080fd5b6122518982358684016122e9565b8552509282019290820190600101612214565b505050509392505050565b600061227d6121ec84612dc5565b9050808382526020808301915083868660051b8601111561229d57600080fd5b6000805b878110156122dd5782356001600160401b038111156122be578283fd5b6122ca8a828a0161243d565b86525093830193918301916001016122a1565b50505050509392505050565b60006001600160401b0383111561230257612302612e8d565b612315601f8401601f1916602001612d95565b905082815283838301111561232957600080fd5b828260208301376000602084830101529392505050565b600082601f83011261235157600080fd5b813560206123616121ec83612dc5565b80838252828201915082860187848660051b890101111561238157600080fd5b60005b858110156123a957813561239781612ea3565b84529284019290840190600101612384565b5090979650505050505050565b600082601f8301126123c757600080fd5b6123d6838335602085016121de565b9392505050565b600082601f8301126123ee57600080fd5b813560206123fe6121ec83612dc5565b80838252828201915082860187848660051b890101111561241e57600080fd5b60005b858110156123a957813584529284019290840190600101612421565b600082601f83011261244e57600080fd5b6123d6838335602085016122e9565b600060a0828403121561246f57600080fd5b50919050565b60006060828403121561246f57600080fd5b60006080828403121561246f57600080fd5b6000602082840312156124ab57600080fd5b81356123d681612ea3565b6000602082840312156124c857600080fd5b81516123d681612ea3565b6000806000606084860312156124e857600080fd5b83516124f381612ea3565b602085015190935061250481612ea3565b80925050604084015190509250925092565b6000602080838503121561252957600080fd5b82356001600160401b0381111561253f57600080fd5b8301601f8101851361255057600080fd5b803561255e6121ec82612dc5565b8181528381019083850160e0808502860187018a101561257d57600080fd5b60009550855b858110156126155781838c031215612599578687fd5b6125a1612d6d565b83356125ac81612ea3565b8152838901356125bb81612ea3565b818a015260408481013590820152606080850135908201526080808501356125e281612ea3565b9082015260a0848101356125f581612ea3565b9082015260c0848101359082015285529387019391810191600101612583565b50919998505050505050505050565b60006020828403121561263657600080fd5b815180151581146123d657600080fd5b60006020828403121561265857600080fd5b5051919050565b600080600080600060a0868803121561267757600080fd5b85356001600160401b038082111561268e57600080fd5b61269a89838a0161243d565b965060208801359150808211156126b057600080fd5b6126bc89838a0161243d565b955060408801359450606088013591506126d582612ea3565b909250608087013590808211156126eb57600080fd5b506126f88882890161243d565b9150509295509295909350565b6000806040838503121561271857600080fd5b82356001600160401b038082111561272f57600080fd5b61273b86838701612487565b9350602085013591508082111561275157600080fd5b5061275e8582860161245d565b9150509250929050565b60008060006060848603121561277d57600080fd5b83356001600160401b038082111561279457600080fd5b6127a087838801612487565b945060208601359150808211156127b657600080fd5b6127c28783880161245d565b935060408601359150808211156127d857600080fd5b506127e586828701612475565b9150509250925092565b60006020828403121561280157600080fd5b5035919050565b600080600080600060a0868803121561282057600080fd5b8535945060208601356001600160401b038082111561283e57600080fd5b818801915088601f83011261285257600080fd5b6128618983356020850161226f565b9550604088013591508082111561287757600080fd5b61288389838a01612340565b9450606088013591508082111561289957600080fd5b6128a589838a016123dd565b935060808801359150808211156128bb57600080fd5b506126f8888289016123b6565b8183526000602080850194508260005b858110156129065781356128eb81612ea3565b6001600160a01b0316875295820195908201906001016128d8565b509495945050505050565b600081518084526020808501945080840160005b838110156129065781516001600160a01b031687529582019590820190600101612925565b600081518084526020808501808196508360051b8101915082860160005b85811015612992578284038952612980848351612a05565b98850198935090840190600101612968565b5091979650505050505050565b81835260006001600160fb1b038311156129b857600080fd5b8260051b8083602087013760009401602001938452509192915050565b600081518084526020808501945080840160005b83811015612906578151875295820195908201906001016129e9565b60008151808452612a1d816020860160208601612e1a565b601f01601f19169290920160200192915050565b60008251612a43818460208701612e1a565b9190910192915050565b6001600160a01b039384168152919092166020820152604081019190915260600190565b6001600160a01b0386168152606060208201819052600090612a9690830186886128c8565b8281036040840152612aa981858761299f565b98975050505050505050565b600060018060a01b03808916835260c06020840152612ad760c0840189612a05565b8381036040850152612ae98189612a05565b90508187166060850152818616608085015283810360a0850152612b0d8186612a05565b9a9950505050505050505050565b600060a0820160a0835280885180835260c08501915060c08160051b86010192506020808b0160005b83811015612b725760bf19888703018552612b60868351612a05565b95509382019390820190600101612b44565b505085840381870152505050612b888188612911565b90508281036040840152612b9c8187612911565b90508281036060840152612bb081866129d5565b90508281036080840152612aa9818561294a565b606081526000612bd860608301888a61299f565b8281036020840152612beb81878961299f565b90508281036040840152612c008185876128c8565b9998505050505050505050565b60208082526029908201527f4552433230466163746f72793a2054656d706c61746520696e64657820646f656040820152681cdb9d08195e1a5cdd60ba1b606082015260800190565b6020808252602c908201527f4552433732314454466163746f72793a2054656d706c61746520696e6465782060408201526b191bd95cdb9d08195e1a5cdd60a21b606082015260800190565b6020808252818101527f4f776e61626c653a2063616c6c6572206973206e6f7420746865206f776e6572604082015260600190565b6000808335601e19843603018112612cee57600080fd5b8301803591506001600160401b03821115612d0857600080fd5b6020019150600581901b3603821315612d2057600080fd5b9250929050565b6000808335601e19843603018112612d3e57600080fd5b8301803591506001600160401b03821115612d5857600080fd5b602001915036819003821315612d2057600080fd5b60405160e081016001600160401b0381118282101715612d8f57612d8f612e8d565b60405290565b604051601f8201601f191681016001600160401b0381118282101715612dbd57612dbd612e8d565b604052919050565b60006001600160401b03821115612dde57612dde612e8d565b5060051b60200190565b60008219821115612dfb57612dfb612e61565b500190565b60006123d63684846121de565b60006123d636848461226f565b60005b83811015612e35578181015183820152602001612e1d565b838111156121d85750506000910152565b6000600019821415612e5a57612e5a612e61565b5060010190565b634e487b7160e01b600052601160045260246000fd5b634e487b7160e01b600052603260045260246000fd5b634e487b7160e01b600052604160045260246000fd5b6001600160a01b0381168114611c8b57600080fdfea2646970667358221220f4e35d77ef2f1f602d7b8cdc9dbd97160e7848ce8e1ea762eb5030db0331e96064736f6c634300080700334f776e61626c653a2063616c6c6572206973206e6f7420746865206f776e6572",
  "linkReferences": {},
  "deployedLinkReferences": {}
}