{
  "_format": "hh-sol-artifact-1",
  "contractName": "ERC20Template",
  "sourceName": "contracts/templates/ERC20Template.sol",
  "abi": [
    {
      "anonymous": false,
      "inputs": [
        {
          "indexed": true,
          "internalType": "address",
          "name": "user",
          "type": "address"
        },
        {
          "indexed": true,
          "internalType": "address",
          "name": "signer",
          "type": "address"
        },
        {
          "indexed": false,
          "internalType": "uint256",
          "name": "timestamp",
          "type": "uint256"
        },
        {
          "indexed": false,
          "internalType": "uint256",
          "name": "blockNumber",
          "type": "uint256"
        }
      ],
      "name": "AddedFeeManager",
      "type": "event"
    },
    {
      "anonymous": false,
      "inputs": [
        {
          "indexed": true,
          "internalType": "address",
          "name": "user",
          "type": "address"
        },
        {
          "indexed": true,
          "internalType": "address",
          "name": "signer",
          "type": "address"
        },
        {
          "indexed": false,
          "internalType": "uint256",
          "name": "timestamp",
          "type": "uint256"
        },
        {
          "indexed": false,
          "internalType": "uint256",
          "name": "blockNumber",
          "type": "uint256"
        }
      ],
      "name": "AddedMinter",
      "type": "event"
    },
    {
      "anonymous": false,
      "inputs": [
        {
          "indexed": true,
          "internalType": "address",
          "name": "owner",
          "type": "address"
        },
        {
          "indexed": true,
          "internalType": "address",
          "name": "spender",
          "type": "address"
        },
        {
          "indexed": false,
          "internalType": "uint256",
          "name": "value",
          "type": "uint256"
        }
      ],
      "name": "Approval",
      "type": "event"
    },
    {
      "anonymous": false,
      "inputs": [
        {
          "indexed": true,
          "internalType": "address",
          "name": "signer",
          "type": "address"
        },
        {
          "indexed": false,
          "internalType": "uint256",
          "name": "timestamp",
          "type": "uint256"
        },
        {
          "indexed": false,
          "internalType": "uint256",
          "name": "blockNumber",
          "type": "uint256"
        }
      ],
      "name": "CleanedPermissions",
      "type": "event"
    },
    {
      "anonymous": false,
      "inputs": [
        {
          "indexed": false,
          "internalType": "address",
          "name": "currentMinter",
          "type": "address"
        },
        {
          "indexed": false,
          "internalType": "address",
          "name": "newMinter",
          "type": "address"
        }
      ],
      "name": "MinterApproved",
      "type": "event"
    },
    {
      "anonymous": false,
      "inputs": [
        {
          "indexed": false,
          "internalType": "address",
          "name": "currentMinter",
          "type": "address"
        },
        {
          "indexed": false,
          "internalType": "address",
          "name": "newMinter",
          "type": "address"
        }
      ],
      "name": "MinterProposed",
      "type": "event"
    },
    {
      "anonymous": false,
      "inputs": [
        {
          "indexed": false,
          "internalType": "bytes32",
          "name": "exchangeId",
          "type": "bytes32"
        },
        {
          "indexed": false,
          "internalType": "address",
          "name": "owner",
          "type": "address"
        }
      ],
      "name": "NewFixedRate",
      "type": "event"
    },
    {
      "anonymous": false,
      "inputs": [
        {
          "indexed": false,
          "internalType": "address",
          "name": "poolAddress",
          "type": "address"
        },
        {
          "indexed": false,
          "internalType": "address",
          "name": "ssContract",
          "type": "address"
        },
        {
          "indexed": false,
          "internalType": "address",
          "name": "basetokenAddress",
          "type": "address"
        }
      ],
      "name": "NewPool",
      "type": "event"
    },
    {
      "anonymous": false,
      "inputs": [
        {
          "indexed": true,
          "internalType": "address",
          "name": "consumer",
          "type": "address"
        },
        {
          "indexed": false,
          "internalType": "address",
          "name": "payer",
          "type": "address"
        },
        {
          "indexed": false,
          "internalType": "uint256",
          "name": "amount",
          "type": "uint256"
        },
        {
          "indexed": false,
          "internalType": "uint256",
          "name": "serviceId",
          "type": "uint256"
        },
        {
          "indexed": false,
          "internalType": "uint256",
          "name": "timestamp",
          "type": "uint256"
        },
        {
          "indexed": true,
          "internalType": "address",
          "name": "publishMarketAddress",
          "type": "address"
        },
        {
          "indexed": true,
          "internalType": "address",
          "name": "consumeFeeMarketAddress",
          "type": "address"
        },
        {
          "indexed": false,
          "internalType": "uint256",
          "name": "blockNumber",
          "type": "uint256"
        }
      ],
      "name": "OrderStarted",
      "type": "event"
    },
    {
      "anonymous": false,
      "inputs": [
        {
          "indexed": true,
          "internalType": "address",
          "name": "user",
          "type": "address"
        },
        {
          "indexed": true,
          "internalType": "address",
          "name": "signer",
          "type": "address"
        },
        {
          "indexed": false,
          "internalType": "uint256",
          "name": "timestamp",
          "type": "uint256"
        },
        {
          "indexed": false,
          "internalType": "uint256",
          "name": "blockNumber",
          "type": "uint256"
        }
      ],
      "name": "RemovedFeeManager",
      "type": "event"
    },
    {
      "anonymous": false,
      "inputs": [
        {
          "indexed": true,
          "internalType": "address",
          "name": "user",
          "type": "address"
        },
        {
          "indexed": true,
          "internalType": "address",
          "name": "signer",
          "type": "address"
        },
        {
          "indexed": false,
          "internalType": "uint256",
          "name": "timestamp",
          "type": "uint256"
        },
        {
          "indexed": false,
          "internalType": "uint256",
          "name": "blockNumber",
          "type": "uint256"
        }
      ],
      "name": "RemovedMinter",
      "type": "event"
    },
    {
      "anonymous": false,
      "inputs": [
        {
          "indexed": true,
          "internalType": "address",
          "name": "from",
          "type": "address"
        },
        {
          "indexed": true,
          "internalType": "address",
          "name": "to",
          "type": "address"
        },
        {
          "indexed": false,
          "internalType": "uint256",
          "name": "value",
          "type": "uint256"
        }
      ],
      "name": "Transfer",
      "type": "event"
    },
    {
      "stateMutability": "payable",
      "type": "fallback"
    },
    {
      "inputs": [],
      "name": "BASE",
      "outputs": [
        {
          "internalType": "uint256",
          "name": "",
          "type": "uint256"
        }
      ],
      "stateMutability": "view",
      "type": "function"
    },
    {
      "inputs": [],
      "name": "BASE_COMMUNITY_FEE_PERCENTAGE",
      "outputs": [
        {
          "internalType": "uint256",
          "name": "",
          "type": "uint256"
        }
      ],
      "stateMutability": "view",
      "type": "function"
    },
    {
      "inputs": [],
      "name": "DOMAIN_SEPARATOR",
      "outputs": [
        {
          "internalType": "bytes32",
          "name": "",
          "type": "bytes32"
        }
      ],
      "stateMutability": "view",
      "type": "function"
    },
    {
      "inputs": [],
      "name": "PERMIT_TYPEHASH",
      "outputs": [
        {
          "internalType": "bytes32",
          "name": "",
          "type": "bytes32"
        }
      ],
      "stateMutability": "view",
      "type": "function"
    },
    {
      "inputs": [
        {
          "internalType": "address",
          "name": "_feeManager",
          "type": "address"
        }
      ],
      "name": "addFeeManager",
      "outputs": [],
      "stateMutability": "nonpayable",
      "type": "function"
    },
    {
      "inputs": [
        {
          "internalType": "address",
          "name": "_minter",
          "type": "address"
        }
      ],
      "name": "addMinter",
      "outputs": [],
      "stateMutability": "nonpayable",
      "type": "function"
    },
    {
      "inputs": [
        {
          "internalType": "address",
          "name": "owner",
          "type": "address"
        },
        {
          "internalType": "address",
          "name": "spender",
          "type": "address"
        }
      ],
      "name": "allowance",
      "outputs": [
        {
          "internalType": "uint256",
          "name": "",
          "type": "uint256"
        }
      ],
      "stateMutability": "view",
      "type": "function"
    },
    {
      "inputs": [
        {
          "internalType": "address",
          "name": "spender",
          "type": "address"
        },
        {
          "internalType": "uint256",
          "name": "amount",
          "type": "uint256"
        }
      ],
      "name": "approve",
      "outputs": [
        {
          "internalType": "bool",
          "name": "",
          "type": "bool"
        }
      ],
      "stateMutability": "nonpayable",
      "type": "function"
    },
    {
      "inputs": [
        {
          "internalType": "uint256",
          "name": "",
          "type": "uint256"
        }
      ],
      "name": "authERC20",
      "outputs": [
        {
          "internalType": "address",
          "name": "",
          "type": "address"
        }
      ],
      "stateMutability": "view",
      "type": "function"
    },
    {
      "inputs": [
        {
          "internalType": "address",
          "name": "account",
          "type": "address"
        }
      ],
      "name": "balanceOf",
      "outputs": [
        {
          "internalType": "uint256",
          "name": "",
          "type": "uint256"
        }
      ],
      "stateMutability": "view",
      "type": "function"
    },
    {
      "inputs": [
        {
          "internalType": "uint256",
          "name": "amount",
          "type": "uint256"
        }
      ],
      "name": "burn",
      "outputs": [],
      "stateMutability": "nonpayable",
      "type": "function"
    },
    {
      "inputs": [
        {
          "internalType": "address",
          "name": "account",
          "type": "address"
        },
        {
          "internalType": "uint256",
          "name": "amount",
          "type": "uint256"
        }
      ],
      "name": "burnFrom",
      "outputs": [],
      "stateMutability": "nonpayable",
      "type": "function"
    },
    {
      "inputs": [],
      "name": "cap",
      "outputs": [
        {
          "internalType": "uint256",
          "name": "",
          "type": "uint256"
        }
      ],
      "stateMutability": "view",
      "type": "function"
    },
    {
      "inputs": [],
      "name": "cleanFrom721",
      "outputs": [],
      "stateMutability": "nonpayable",
      "type": "function"
    },
    {
      "inputs": [],
      "name": "cleanPermissions",
      "outputs": [],
      "stateMutability": "nonpayable",
      "type": "function"
    },
    {
      "inputs": [
        {
          "internalType": "address",
          "name": "_dispenser",
          "type": "address"
        },
        {
          "internalType": "uint256",
          "name": "maxTokens",
          "type": "uint256"
        },
        {
          "internalType": "uint256",
          "name": "maxBalance",
          "type": "uint256"
        },
        {
          "internalType": "bool",
          "name": "withMint",
          "type": "bool"
        },
        {
          "internalType": "address",
          "name": "allowedSwapper",
          "type": "address"
        }
      ],
      "name": "createDispenser",
      "outputs": [],
      "stateMutability": "nonpayable",
      "type": "function"
    },
    {
      "inputs": [
        {
          "internalType": "address",
          "name": "fixedPriceAddress",
          "type": "address"
        },
        {
          "internalType": "address[]",
          "name": "addresses",
          "type": "address[]"
        },
        {
          "internalType": "uint256[]",
          "name": "uints",
          "type": "uint256[]"
        }
      ],
      "name": "createFixedRate",
      "outputs": [
        {
          "internalType": "bytes32",
          "name": "exchangeId",
          "type": "bytes32"
        }
      ],
      "stateMutability": "nonpayable",
      "type": "function"
    },
    {
      "inputs": [],
      "name": "decimals",
      "outputs": [
        {
          "internalType": "uint8",
          "name": "",
          "type": "uint8"
        }
      ],
      "stateMutability": "pure",
      "type": "function"
    },
    {
      "inputs": [
        {
          "internalType": "address",
          "name": "spender",
          "type": "address"
        },
        {
          "internalType": "uint256",
          "name": "subtractedValue",
          "type": "uint256"
        }
      ],
      "name": "decreaseAllowance",
      "outputs": [
        {
          "internalType": "bool",
          "name": "",
          "type": "bool"
        }
      ],
      "stateMutability": "nonpayable",
      "type": "function"
    },
    {
      "inputs": [
        {
          "internalType": "uint256[]",
          "name": "ssParams",
          "type": "uint256[]"
        },
        {
          "internalType": "uint256[]",
          "name": "swapFees",
          "type": "uint256[]"
        },
        {
          "internalType": "address[]",
          "name": "addresses",
          "type": "address[]"
        }
      ],
      "name": "deployPool",
      "outputs": [
        {
          "internalType": "address",
          "name": "pool",
          "type": "address"
        }
      ],
      "stateMutability": "nonpayable",
      "type": "function"
    },
    {
      "inputs": [],
      "name": "getERC721Address",
      "outputs": [
        {
          "internalType": "address",
          "name": "",
          "type": "address"
        }
      ],
      "stateMutability": "view",
      "type": "function"
    },
    {
      "inputs": [],
      "name": "getFeeCollector",
      "outputs": [
        {
          "internalType": "address",
          "name": "",
          "type": "address"
        }
      ],
      "stateMutability": "view",
      "type": "function"
    },
    {
      "inputs": [],
      "name": "getId",
      "outputs": [
        {
          "internalType": "uint8",
          "name": "",
          "type": "uint8"
        }
      ],
      "stateMutability": "pure",
      "type": "function"
    },
    {
      "inputs": [],
      "name": "getPublishingMarketFee",
      "outputs": [
        {
          "internalType": "address",
          "name": "",
          "type": "address"
        },
        {
          "internalType": "address",
          "name": "",
          "type": "address"
        },
        {
          "internalType": "uint256",
          "name": "",
          "type": "uint256"
        }
      ],
      "stateMutability": "view",
      "type": "function"
    },
    {
      "inputs": [
        {
          "internalType": "address",
          "name": "spender",
          "type": "address"
        },
        {
          "internalType": "uint256",
          "name": "addedValue",
          "type": "uint256"
        }
      ],
      "name": "increaseAllowance",
      "outputs": [
        {
          "internalType": "bool",
          "name": "",
          "type": "bool"
        }
      ],
      "stateMutability": "nonpayable",
      "type": "function"
    },
    {
      "inputs": [
        {
          "internalType": "string[]",
          "name": "strings_",
          "type": "string[]"
        },
        {
          "internalType": "address[]",
          "name": "addresses_",
          "type": "address[]"
        },
        {
          "internalType": "address[]",
          "name": "factoryAddresses_",
          "type": "address[]"
        },
        {
          "internalType": "uint256[]",
          "name": "uints_",
          "type": "uint256[]"
        },
        {
          "internalType": "bytes[]",
          "name": "bytes_",
          "type": "bytes[]"
        }
      ],
      "name": "initialize",
      "outputs": [
        {
          "internalType": "bool",
          "name": "",
          "type": "bool"
        }
      ],
      "stateMutability": "nonpayable",
      "type": "function"
    },
    {
      "inputs": [],
      "name": "isInitialized",
      "outputs": [
        {
          "internalType": "bool",
          "name": "",
          "type": "bool"
        }
      ],
      "stateMutability": "view",
      "type": "function"
    },
    {
      "inputs": [
        {
          "internalType": "address",
          "name": "account",
          "type": "address"
        }
      ],
      "name": "isMinter",
      "outputs": [
        {
          "internalType": "bool",
          "name": "",
          "type": "bool"
        }
      ],
      "stateMutability": "view",
      "type": "function"
    },
    {
      "inputs": [
        {
          "internalType": "address",
          "name": "account",
          "type": "address"
        },
        {
          "internalType": "uint256",
          "name": "value",
          "type": "uint256"
        }
      ],
      "name": "mint",
      "outputs": [],
      "stateMutability": "nonpayable",
      "type": "function"
    },
    {
      "inputs": [],
      "name": "name",
      "outputs": [
        {
          "internalType": "string",
          "name": "",
          "type": "string"
        }
      ],
      "stateMutability": "view",
      "type": "function"
    },
    {
      "inputs": [
        {
          "internalType": "address",
          "name": "",
          "type": "address"
        }
      ],
      "name": "nonces",
      "outputs": [
        {
          "internalType": "uint256",
          "name": "",
          "type": "uint256"
        }
      ],
      "stateMutability": "view",
      "type": "function"
    },
    {
      "inputs": [
        {
          "internalType": "address",
          "name": "",
          "type": "address"
        }
      ],
      "name": "permissions",
      "outputs": [
        {
          "internalType": "bool",
          "name": "minter",
          "type": "bool"
        },
        {
          "internalType": "bool",
          "name": "feeManager",
          "type": "bool"
        }
      ],
      "stateMutability": "view",
      "type": "function"
    },
    {
      "inputs": [
        {
          "internalType": "address",
          "name": "owner",
          "type": "address"
        },
        {
          "internalType": "address",
          "name": "spender",
          "type": "address"
        },
        {
          "internalType": "uint256",
          "name": "value",
          "type": "uint256"
        },
        {
          "internalType": "uint256",
          "name": "deadline",
          "type": "uint256"
        },
        {
          "internalType": "uint8",
          "name": "v",
          "type": "uint8"
        },
        {
          "internalType": "bytes32",
          "name": "r",
          "type": "bytes32"
        },
        {
          "internalType": "bytes32",
          "name": "s",
          "type": "bytes32"
        }
      ],
      "name": "permit",
      "outputs": [],
      "stateMutability": "nonpayable",
      "type": "function"
    },
    {
      "inputs": [
        {
          "internalType": "address",
          "name": "_feeManager",
          "type": "address"
        }
      ],
      "name": "removeFeeManager",
      "outputs": [],
      "stateMutability": "nonpayable",
      "type": "function"
    },
    {
      "inputs": [
        {
          "internalType": "address",
          "name": "_minter",
          "type": "address"
        }
      ],
      "name": "removeMinter",
      "outputs": [],
      "stateMutability": "nonpayable",
      "type": "function"
    },
    {
      "inputs": [],
      "name": "router",
      "outputs": [
        {
          "internalType": "address",
          "name": "",
          "type": "address"
        }
      ],
      "stateMutability": "view",
      "type": "function"
    },
    {
      "inputs": [
        {
          "internalType": "bytes",
          "name": "_value",
          "type": "bytes"
        }
      ],
      "name": "setData",
      "outputs": [],
      "stateMutability": "nonpayable",
      "type": "function"
    },
    {
      "inputs": [
        {
          "internalType": "address",
          "name": "_newFeeCollector",
          "type": "address"
        }
      ],
      "name": "setFeeCollector",
      "outputs": [],
      "stateMutability": "nonpayable",
      "type": "function"
    },
    {
      "inputs": [
        {
          "internalType": "address",
          "name": "_publishMarketFeeAddress",
          "type": "address"
        },
        {
          "internalType": "address",
          "name": "_publishMarketFeeToken",
          "type": "address"
        },
        {
          "internalType": "uint256",
          "name": "_publishMarketFeeAmount",
          "type": "uint256"
        }
      ],
      "name": "setPublishingMarketFee",
      "outputs": [],
      "stateMutability": "nonpayable",
      "type": "function"
    },
    {
      "inputs": [
        {
          "internalType": "address",
          "name": "consumer",
          "type": "address"
        },
        {
          "internalType": "uint256",
          "name": "amount",
          "type": "uint256"
        },
        {
          "internalType": "uint256",
          "name": "serviceId",
          "type": "uint256"
        },
        {
          "internalType": "address",
          "name": "consumeFeeAddress",
          "type": "address"
        },
        {
          "internalType": "address",
          "name": "consumeFeeToken",
          "type": "address"
        },
        {
          "internalType": "uint256",
          "name": "consumeFeeAmount",
          "type": "uint256"
        }
      ],
      "name": "startOrder",
      "outputs": [],
      "stateMutability": "nonpayable",
      "type": "function"
    },
    {
      "inputs": [],
      "name": "symbol",
      "outputs": [
        {
          "internalType": "string",
          "name": "",
          "type": "string"
        }
      ],
      "stateMutability": "view",
      "type": "function"
    },
    {
      "inputs": [],
      "name": "totalSupply",
      "outputs": [
        {
          "internalType": "uint256",
          "name": "",
          "type": "uint256"
        }
      ],
      "stateMutability": "view",
      "type": "function"
    },
    {
      "inputs": [
        {
          "internalType": "address",
          "name": "recipient",
          "type": "address"
        },
        {
          "internalType": "uint256",
          "name": "amount",
          "type": "uint256"
        }
      ],
      "name": "transfer",
      "outputs": [
        {
          "internalType": "bool",
          "name": "",
          "type": "bool"
        }
      ],
      "stateMutability": "nonpayable",
      "type": "function"
    },
    {
      "inputs": [
        {
          "internalType": "address",
          "name": "sender",
          "type": "address"
        },
        {
          "internalType": "address",
          "name": "recipient",
          "type": "address"
        },
        {
          "internalType": "uint256",
          "name": "amount",
          "type": "uint256"
        }
      ],
      "name": "transferFrom",
      "outputs": [
        {
          "internalType": "bool",
          "name": "",
          "type": "bool"
        }
      ],
      "stateMutability": "nonpayable",
      "type": "function"
    },
    {
      "inputs": [],
      "name": "withdrawETH",
      "outputs": [],
      "stateMutability": "payable",
      "type": "function"
    }
  ],
  "bytecode": "0x6080604052600a805460ff60a01b191690553480156200001e57600080fd5b5060408051808201825260048152631d195cdd60e21b60208083019182528351808501909452600a8452691d195cdd14de5b589bdb60b21b9084015281519192916200006d916003916200008c565b508051620000839060049060208401906200008c565b5050506200016f565b8280546200009a9062000132565b90600052602060002090601f016020900481019282620000be576000855562000109565b82601f10620000d957805160ff191683800117855562000109565b8280016001018555821562000109579182015b8281111562000109578251825591602001919060010190620000ec565b50620001179291506200011b565b5090565b5b808211156200011757600081556001016200011c565b600181811c908216806200014757607f821691505b602082108114156200016957634e487b7160e01b600052602260045260246000fd5b50919050565b613f2b806200017f6000396000f3fe60806040526004361061025c5760003560e01c80635d1ca63111610143578063a9059cbb116100bb578063dd62ed3e11610077578063dd62ed3e146107ab578063e086e5ec146107f1578063ec342ad0146107f9578063ef867ff414610815578063f887ea4014610835578063fda9dae71461085557005b8063a9059cbb146106dd578063aa271e1a146106fd578063ab62f0e114610736578063b2263a5d14610756578063b3998be01461076b578063d505accf1461078b57005b806382c03da51161010a57806382c03da5146106335780638b96412b1461064857806395d89b4114610668578063983b2d561461067d578063a42dce801461069d578063a457c2d7146106bd57005b80635d1ca6311461057c57806370a082311461059057806379cc6790146105c65780637ecebe00146105e65780638115c9cc1461061357005b8063313ce567116101d6578063397b37431161019d578063397b3743146104ab57806340c10f19146104e757806342966c68146105075780634f189cb21461052757806357ad5ff61461053c5780635bfe4da01461055c57005b8063313ce5671461041f578063355274ea146104415780633644e51514610456578063392e53cd1461046c578063395093511461048b57005b806318160ddd1161022557806318160ddd1461034c578063191c918a1461036b5780631f2d32c31461038b57806323b872dd146103ab5780633092afd5146103cb57806330adf81f146103eb57005b80627ffb781461025e57806301e882081461029557806306fdde03146102e5578063095ea7b31461030757806312fde4b714610337575b005b34801561026a57600080fd5b50600b546001600160a01b03165b6040516001600160a01b0390911681526020015b60405180910390f35b3480156102a157600080fd5b506102ce6102b03660046134ba565b60056020526000908152604090205460ff8082169161010090041682565b60408051921515835290151560208301520161028c565b3480156102f157600080fd5b506102fa610875565b60405161028c9190613bfe565b34801561031357600080fd5b5061032761032236600461365b565b610907565b604051901515815260200161028c565b34801561034357600080fd5b5061027861091d565b34801561035857600080fd5b506002545b60405190815260200161028c565b34801561037757600080fd5b5061025c6103863660046136ee565b6109c1565b34801561039757600080fd5b5061025c6103a63660046134ba565b610b08565b3480156103b757600080fd5b506103276103c636600461352d565b610bb6565b3480156103d757600080fd5b5061025c6103e63660046134ba565b610c60565b3480156103f757600080fd5b5061035d7f6e71edae12b1b97f4d1f60370fef10105fa2faae0126114a169c64845d6126c981565b34801561042b57600080fd5b5060125b60405160ff909116815260200161028c565b34801561044d57600080fd5b5060095461035d565b34801561046257600080fd5b5061035d60105481565b34801561047857600080fd5b50600a54600160a01b900460ff16610327565b34801561049757600080fd5b506103276104a636600461365b565b610d0b565b3480156104b757600080fd5b50600d54600e54600f54604080516001600160a01b0394851681529390921660208401529082015260600161028c565b3480156104f357600080fd5b5061025c61050236600461365b565b610d47565b34801561051357600080fd5b5061025c6105223660046139e9565b610e1d565b34801561053357600080fd5b5061025c610e27565b34801561054857600080fd5b5061025c61055736600461352d565b610f1d565b34801561056857600080fd5b5061027861057736600461383e565b610fbf565b34801561058857600080fd5b50600161042f565b34801561059c57600080fd5b5061035d6105ab3660046134ba565b6001600160a01b031660009081526020819052604090205490565b3480156105d257600080fd5b5061025c6105e136600461365b565b6112c8565b3480156105f257600080fd5b5061035d6106013660046134ba565b60116020526000908152604090205481565b34801561061f57600080fd5b5061025c61062e3660046134ba565b61134e565b34801561063f57600080fd5b5061025c6113f9565b34801561065457600080fd5b5061035d6106633660046135e5565b611453565b34801561067457600080fd5b506102fa611616565b34801561068957600080fd5b5061025c6106983660046134ba565b611625565b3480156106a957600080fd5b5061025c6106b83660046134ba565b6116d0565b3480156106c957600080fd5b506103276106d836600461365b565b61175c565b3480156106e957600080fd5b506103276106f836600461365b565b6117f5565b34801561070957600080fd5b506103276107183660046134ba565b6001600160a01b031660009081526005602052604090205460ff1690565b34801561074257600080fd5b5061025c6107513660046138f2565b611802565b34801561076257600080fd5b5061035d611947565b34801561077757600080fd5b5061032761078636600461374d565b61195d565b34801561079757600080fd5b5061025c6107a636600461356e565b611a97565b3480156107b757600080fd5b5061035d6107c63660046134f4565b6001600160a01b03918216600090815260016020908152604080832093909416825291909152205490565b61025c611ca9565b34801561080557600080fd5b5061035d670de0b6b3a764000081565b34801561082157600080fd5b506102786108303660046139e9565b611ce9565b34801561084157600080fd5b50601254610278906001600160a01b031681565b34801561086157600080fd5b5061025c610870366004613687565b611d13565b60606007805461088490613e3a565b80601f01602080910402602001604051908101604052809291908181526020018280546108b090613e3a565b80156108fd5780601f106108d2576101008083540402835291602001916108fd565b820191906000526020600020905b8154815290600101906020018083116108e057829003601f168201915b5050505050905090565b600061091433848461256c565b50600192915050565b600c546000906001600160a01b03166109b157600b546040516331a9108f60e11b8152600160048201526001600160a01b0390911690636352211e9060240160206040518083038186803b15801561097457600080fd5b505afa158015610988573d6000803e3d6000fd5b505050506040513d601f19601f820116820180604052508101906109ac91906134d7565b905090565b50600c546001600160a01b031690565b600b5460405163160a792560e01b81523360048201526001600160a01b039091169063160a792590602401608060405180830381600087803b158015610a0657600080fd5b505af1158015610a1a573d6000803e3d6000fd5b505050506040513d601f19601f82011682018060405250810190610a3e9190613964565b602001511515600114610a6c5760405162461bcd60e51b8152600401610a6390613c53565b60405180910390fd5b601254604051636b14d00560e11b81526001600160a01b038781166004830152306024830152604482018790526064820186905233608483015283811660a48301529091169063d629a00a9060c401600060405180830381600087803b158015610ad557600080fd5b505af1158015610ae9573d6000803e3d6000fd5b5050505081151560011415610b0157610b0185612690565b5050505050565b600b5460405163160a792560e01b81523360048201526001600160a01b039091169063160a792590602401608060405180830381600087803b158015610b4d57600080fd5b505af1158015610b61573d6000803e3d6000fd5b505050506040513d601f19601f82011682018060405250810190610b859190613964565b602001511515600114610baa5760405162461bcd60e51b8152600401610a6390613c53565b610bb381612792565b50565b6000610bc38484846128a0565b6001600160a01b038416600090815260016020908152604080832033845290915290205482811015610c485760405162461bcd60e51b815260206004820152602860248201527f45524332303a207472616e7366657220616d6f756e74206578636565647320616044820152676c6c6f77616e636560c01b6064820152608401610a63565b610c55853385840361256c565b506001949350505050565b600b5460405163160a792560e01b81523360048201526001600160a01b039091169063160a792590602401608060405180830381600087803b158015610ca557600080fd5b505af1158015610cb9573d6000803e3d6000fd5b505050506040513d601f19601f82011682018060405250810190610cdd9190613964565b602001511515600114610d025760405162461bcd60e51b8152600401610a6390613c53565b610bb381612a6f565b3360008181526001602090815260408083206001600160a01b03871684529091528120549091610914918590610d42908690613cdd565b61256c565b3360009081526005602052604090205460ff161515600114610dab5760405162461bcd60e51b815260206004820152601960248201527f455243323054656d706c6174653a204e4f54204d494e544552000000000000006044820152606401610a63565b600954610dc182610dbb60025490565b90612acf565b1115610e0f5760405162461bcd60e51b815260206004820152601f60248201527f44617461546f6b656e54656d706c6174653a20636170206578636565646564006044820152606401610a63565b610e198282612ae2565b5050565b610bb33382612bc1565b600b546040516331a9108f60e11b8152600160048201526001600160a01b0390911690636352211e9060240160206040518083038186803b158015610e6b57600080fd5b505afa158015610e7f573d6000803e3d6000fd5b505050506040513d601f19601f82011682018060405250810190610ea391906134d7565b6001600160a01b0316336001600160a01b031614610f035760405162461bcd60e51b815260206004820152601b60248201527f455243323054656d706c6174653a206e6f74204e46544f776e657200000000006044820152606401610a63565b610f0b612d0f565b600c80546001600160a01b0319169055565b600d546001600160a01b03163314610f8a5760405162461bcd60e51b815260206004820152602a60248201527f455243323054656d706c6174653a206e6f74207075626c6973684d61726b65746044820152694665654164647265737360b01b6064820152608401610a63565b600d80546001600160a01b039485166001600160a01b031991821617909155600e805493909416921691909117909155600f55565b600b5460405163160a792560e01b81523360048201526000916001600160a01b03169063160a792590602401608060405180830381600087803b15801561100557600080fd5b505af1158015611019573d6000803e3d6000fd5b505050506040513d601f19601f8201168201806040525081019061103d9190613964565b6020015115156001146110625760405162461bcd60e51b8152600401610a6390613c53565b600254156110be5760405162461bcd60e51b8152602060048201526024808201527f455243323054656d706c6174653a20746f6b656e7320616c7265616479206d696044820152631b9d195960e21b6064820152608401610a63565b6110e1826000815181106110d4576110d4613ea6565b6020026020010151612690565b62250490846003815181106110f8576110f8613ea6565b60200260200101511161115f5760405162461bcd60e51b815260206004820152602960248201527f455243323054656d706c6174653a206d696e696d756d20626c6f636b73206e6f6044820152681d081c995858da195960ba1b6064820152608401610a63565b60006040518060400160405280306001600160a01b03166001600160a01b031681526020018460018151811061119757611197613ea6565b60209081029190910101516001600160a01b0390811690915260125460405163ee3bc63560e01b8152929350169063ee3bc635906111df908490899089908990600401613b52565b602060405180830381600087803b1580156111f957600080fd5b505af115801561120d573d6000803e3d6000fd5b505050506040513d601f19601f8201168201806040525081019061123191906134d7565b91507fd02da1bec30f7f750aa0a131745dfb9ce96767c45a192dc26409f5d690e0b967828460008151811061126857611268613ea6565b60200260200101518560018151811061128357611283613ea6565b60200260200101516040516112b8939291906001600160a01b0393841681529183166020830152909116604082015260600190565b60405180910390a1509392505050565b60006112d483336107c6565b9050818110156113325760405162461bcd60e51b8152602060048201526024808201527f45524332303a206275726e20616d6f756e74206578636565647320616c6c6f77604482015263616e636560e01b6064820152608401610a63565b61133f833384840361256c565b6113498383612bc1565b505050565b600b5460405163160a792560e01b81523360048201526001600160a01b039091169063160a792590602401608060405180830381600087803b15801561139357600080fd5b505af11580156113a7573d6000803e3d6000fd5b505050506040513d601f19601f820116820180604052508101906113cb9190613964565b6020015115156001146113f05760405162461bcd60e51b8152600401610a6390613c53565b610bb381612dbe565b600b546001600160a01b03163314610f035760405162461bcd60e51b815260206004820152601f60248201527f455243323054656d706c6174653a204e4f542037323120436f6e7472616374006044820152606401610a63565b600b5460405163160a792560e01b81523360048201526000916001600160a01b03169063160a792590602401608060405180830381600087803b15801561149957600080fd5b505af11580156114ad573d6000803e3d6000fd5b505050506040513d601f19601f820116820180604052508101906114d19190613964565b6020015115156001146114f65760405162461bcd60e51b8152600401610a6390613c53565b601254604051638244937560e01b81526001600160a01b039091169063824493759061152a90879087908790600401613b12565b602060405180830381600087803b15801561154457600080fd5b505af1158015611558573d6000803e3d6000fd5b505050506040513d601f19601f8201168201806040525081019061157c91906138d9565b905060008260048151811061159357611593613ea6565b602002602001015111156115aa576115aa84612690565b7f195d202f33578769e120c3041341554af3193e67ee004175095bc9c06e6e616581846000815181106115df576115df613ea6565b60200260200101516040516116079291909182526001600160a01b0316602082015260400190565b60405180910390a19392505050565b60606008805461088490613e3a565b600b5460405163160a792560e01b81523360048201526001600160a01b039091169063160a792590602401608060405180830381600087803b15801561166a57600080fd5b505af115801561167e573d6000803e3d6000fd5b505050506040513d601f19601f820116820180604052508101906116a29190613964565b6020015115156001146116c75760405162461bcd60e51b8152600401610a6390613c53565b610bb381612690565b3360009081526005602052604090205460ff61010090910416151560011461173a5760405162461bcd60e51b815260206004820152601e60248201527f455243323054656d706c6174653a204e4f5420464545204d414e4147455200006044820152606401610a63565b600c80546001600160a01b0319166001600160a01b0392909216919091179055565b3360009081526001602090815260408083206001600160a01b0386168452909152812054828110156117de5760405162461bcd60e51b815260206004820152602560248201527f45524332303a2064656372656173656420616c6c6f77616e63652062656c6f77604482015264207a65726f60d81b6064820152608401610a63565b6117eb338585840361256c565b5060019392505050565b60006109143384846128a0565b600b5460405163160a792560e01b81523360048201526001600160a01b039091169063160a792590602401608060405180830381600087803b15801561184757600080fd5b505af115801561185b573d6000803e3d6000fd5b505050506040513d601f19601f8201168201806040525081019061187f9190613964565b6020015115156001146118a45760405162461bcd60e51b8152600401610a6390613c53565b6040516bffffffffffffffffffffffff193060601b16602082015260009060340160408051601f19818403018152908290528051602090910120600b546301caf8fd60e31b83529092506001600160a01b031690630e57c7e89061191090849087908790600401613bc8565b600060405180830381600087803b15801561192a57600080fd5b505af115801561193e573d6000803e3d6000fd5b50505050505050565b61195a6064670de0b6b3a7640000613cf5565b81565b600a54600090600160a01b900460ff16156119d45760405162461bcd60e51b815260206004820152603160248201527f455243323054656d706c6174653a20746f6b656e20696e7374616e636520616c6044820152701c9958591e481a5b9a5d1a585b1a5e9959607a1b6064820152608401610a63565b611a886119e18b8d613dba565b8a8a8080602002602001604051908101604052809392919081815260200183836020028082843760009201919091525050604080516020808e0282810182019093528d82529093508d92508c91829185019084908082843760009201919091525050604080516020808d0282810182019093528c82529093508c92508b918291850190849080828437600092019190915250611a8392508991508a9050613d2e565b612e1f565b9b9a5050505050505050505050565b42841015611ada5760405162461bcd60e51b815260206004820152601060248201526f115490cc8c11150e881156141254915160821b6044820152606401610a63565b6010546001600160a01b038816600090815260116020526040812080549192917f6e71edae12b1b97f4d1f60370fef10105fa2faae0126114a169c64845d6126c9918b918b918b919087611b2d83613e75565b909155506040805160208101969096526001600160a01b0394851690860152929091166060840152608083015260a082015260c0810187905260e00160405160208183030381529060405280519060200120604051602001611ba692919061190160f01b81526002810192909252602282015260420190565b60408051601f198184030181528282528051602091820120600080855291840180845281905260ff88169284019290925260608301869052608083018590529092509060019060a0016020604051602081039080840390855afa158015611c11573d6000803e3d6000fd5b5050604051601f1901519150506001600160a01b03811615801590611c475750886001600160a01b0316816001600160a01b0316145b611c935760405162461bcd60e51b815260206004820152601a60248201527f455243323044543a20494e56414c49445f5349474e41545552450000000000006044820152606401610a63565b611c9e89898961256c565b505050505050505050565b611cb161091d565b6001600160a01b03166108fc479081150290604051600060405180830381858888f19350505050158015610bb3573d6000803e3d6000fd5b60068181548110611cf957600080fd5b6000918252602090912001546001600160a01b0316905081565b336000908152602081905260408120548190871115611d825760405162461bcd60e51b815260206004820152602560248201527f4e6f7420656e6f756768204461746120546f6b656e7320746f2073746172742060448201526427b93232b960d91b6064820152608401610a63565b6000600f54118015611d9e5750600e546001600160a01b031615155b8015611db45750600d546001600160a01b031615155b15611fbd57600e54600f546040516323b872dd60e01b815233600482015230602482015260448101919091526001600160a01b03909116906323b872dd90606401602060405180830381600087803b158015611e0f57600080fd5b505af1158015611e23573d6000803e3d6000fd5b505050506040513d601f19601f82011682018060405250810190611e4791906138bc565b611e9f5760405162461bcd60e51b815260206004820152602360248201527f4661696c656420746f207472616e73666572207075626c6973684d61726b657460448201526246656560e81b6064820152608401610a63565b600f54611ead90606461326c565b600e54600d54600f549293506001600160a01b039182169263a9059cbb9290911690611ed99085613278565b6040516001600160e01b031960e085901b1681526001600160a01b0390921660048301526024820152604401602060405180830381600087803b158015611f1f57600080fd5b505af1158015611f33573d6000803e3d6000fd5b505050506040513d601f19601f82011682018060405250810190611f5791906138bc565b611fbd5760405162461bcd60e51b815260206004820152603160248201527f4661696c656420746f207472616e736665722066656520746f207075626c6973604482015270684d61726b65744665654164647265737360781b6064820152608401610a63565b600083118015611fd557506001600160a01b03841615155b8015611fe957506001600160a01b03851615155b156121c5576040516323b872dd60e01b8152336004820152306024820152604481018490526001600160a01b038516906323b872dd90606401602060405180830381600087803b15801561203c57600080fd5b505af1158015612050573d6000803e3d6000fd5b505050506040513d601f19601f8201168201806040525081019061207491906138bc565b6120c05760405162461bcd60e51b815260206004820152601d60248201527f4661696c656420746f207472616e7366657220636f6e73756d654665650000006044820152606401610a63565b6120cb83606461326c565b91506001600160a01b03841663a9059cbb866120e78686613278565b6040516001600160e01b031960e085901b1681526001600160a01b0390921660048301526024820152604401602060405180830381600087803b15801561212d57600080fd5b505af1158015612141573d6000803e3d6000fd5b505050506040513d601f19601f8201168201806040525081019061216591906138bc565b6121c55760405162461bcd60e51b815260206004820152602b60248201527f4661696c656420746f207472616e736665722066656520746f20636f6e73756d60448201526a654665654164647265737360a81b6064820152608401610a63565b6000811180156121d55750600082115b80156121ee5750600e546001600160a01b038581169116145b156122ee57600a546001600160a01b038086169163a9059cbb91166122138486612acf565b6040516001600160e01b031960e085901b1681526001600160a01b0390921660048301526024820152604401602060405180830381600087803b15801561225957600080fd5b505af115801561226d573d6000803e3d6000fd5b505050506040513d601f19601f8201168201806040525081019061229191906138bc565b6122e95760405162461bcd60e51b815260206004820152602360248201527f4661696c656420746f207472616e7366657220626f7468206665657320746f2060448201526227a82360e91b6064820152608401610a63565b6124ed565b6000811180156123085750600e546001600160a01b031615155b156123f057600e54600a5460405163a9059cbb60e01b81526001600160a01b0391821660048201526024810184905291169063a9059cbb90604401602060405180830381600087803b15801561235d57600080fd5b505af1158015612371573d6000803e3d6000fd5b505050506040513d601f19601f8201168201806040525081019061239591906138bc565b6123f05760405162461bcd60e51b815260206004820152602660248201527f4661696c656420746f207472616e73666572207075626c6973682066656573206044820152653a379027a82360d11b6064820152608401610a63565b60008211801561240857506001600160a01b03841615155b156124ed57600a5460405163a9059cbb60e01b81526001600160a01b039182166004820152602481018490529085169063a9059cbb90604401602060405180830381600087803b15801561245b57600080fd5b505af115801561246f573d6000803e3d6000fd5b505050506040513d601f19601f8201168201806040525081019061249391906138bc565b6124ed5760405162461bcd60e51b815260206004820152602560248201527f4661696c656420746f207472616e7366657220636f6e73756d65206665652074604482015264379027a82360d91b6064820152608401610a63565b6124fe6124f861091d565b886117f5565b50600d5460408051338152602081018a90529081018890524260608201524360808201526001600160a01b0387811692811691908b16907fb07adb6a34680ecbbc7935971c45a07b9baf67ce5dc57332d51e3a5745c9e9639060a00160405180910390a45050505050505050565b6001600160a01b0383166125ce5760405162461bcd60e51b8152602060048201526024808201527f45524332303a20617070726f76652066726f6d20746865207a65726f206164646044820152637265737360e01b6064820152608401610a63565b6001600160a01b03821661262f5760405162461bcd60e51b815260206004820152602260248201527f45524332303a20617070726f766520746f20746865207a65726f206164647265604482015261737360f01b6064820152608401610a63565b6001600160a01b0383811660008181526001602090815260408083209487168084529482529182902085905590518481527f8c5be1e5ebec7d5bd14f71427d1e84f3dd0314c0f7b2291e5b200ac8c7c3b925910160405180910390a3505050565b6001600160a01b0381166000908152600560205260409020805460ff16156126fa5760405162461bcd60e51b815260206004820152601d60248201527f4552433230526f6c65733a2020414c52454144592041204d494e5445520000006044820152606401610a63565b8054600160ff19909116811782556006805491820181556000527ff652222313e28459528d920b65115c16c04f3efc82aaedc97be59f3f377c0d3f0180546001600160a01b0319166001600160a01b038416908117909155604080514281524360208201523392917f4f7e100eb1ee13e903798bd0d6aa854152e07eb05544f392b9409c12935c809591015b60405180910390a35050565b6001600160a01b03811660009081526005602052604090208054610100900460ff161561280c5760405162461bcd60e51b815260206004820152602260248201527f4552433230526f6c65733a2020414c5245414459204120464545204d414e414760448201526122a960f11b6064820152608401610a63565b805461ff001916610100178155600680546001810182556000919091527ff652222313e28459528d920b65115c16c04f3efc82aaedc97be59f3f377c0d3f0180546001600160a01b0384166001600160a01b03199091168117909155604080514281524360208201523392917f5b0831b6bc7ca878cadad8a6b96869b9db121df456a859f03261d13f4d08204b9101612786565b6001600160a01b0383166129045760405162461bcd60e51b815260206004820152602560248201527f45524332303a207472616e736665722066726f6d20746865207a65726f206164604482015264647265737360d81b6064820152608401610a63565b6001600160a01b0382166129665760405162461bcd60e51b815260206004820152602360248201527f45524332303a207472616e7366657220746f20746865207a65726f206164647260448201526265737360e81b6064820152608401610a63565b6001600160a01b038316600090815260208190526040902054818110156129de5760405162461bcd60e51b815260206004820152602660248201527f45524332303a207472616e7366657220616d6f756e7420657863656564732062604482015265616c616e636560d01b6064820152608401610a63565b6001600160a01b03808516600090815260208190526040808220858503905591851681529081208054849290612a15908490613cdd565b92505081905550826001600160a01b0316846001600160a01b03167fddf252ad1be2c89b69c2b068fc378daa952ba7f163c4a11628f55a4df523b3ef84604051612a6191815260200190565b60405180910390a350505050565b6001600160a01b03811660008181526005602052604090819020805460ff191681559051909133917fefa2735987005aaa89c050c0ff8cc9ae7d9079d19382081c429130f98c52d480906127869042904390918252602082015260400190565b6000612adb8284613cdd565b9392505050565b6001600160a01b038216612b385760405162461bcd60e51b815260206004820152601f60248201527f45524332303a206d696e7420746f20746865207a65726f2061646472657373006044820152606401610a63565b8060026000828254612b4a9190613cdd565b90915550506001600160a01b03821660009081526020819052604081208054839290612b77908490613cdd565b90915550506040518181526001600160a01b038316906000907fddf252ad1be2c89b69c2b068fc378daa952ba7f163c4a11628f55a4df523b3ef9060200160405180910390a35050565b6001600160a01b038216612c215760405162461bcd60e51b815260206004820152602160248201527f45524332303a206275726e2066726f6d20746865207a65726f206164647265736044820152607360f81b6064820152608401610a63565b6001600160a01b03821660009081526020819052604090205481811015612c955760405162461bcd60e51b815260206004820152602260248201527f45524332303a206275726e20616d6f756e7420657863656564732062616c616e604482015261636560f01b6064820152608401610a63565b6001600160a01b0383166000908152602081905260408120838303905560028054849290612cc4908490613d17565b90915550506040518281526000906001600160a01b038516907fddf252ad1be2c89b69c2b068fc378daa952ba7f163c4a11628f55a4df523b3ef9060200160405180910390a3505050565b60005b600654811015612d755760006005600060068481548110612d3557612d35613ea6565b60009182526020808320909101546001600160a01b031683528201929092526040019020805461ffff191690555080612d6d81613e75565b915050612d12565b50612d8260066000613284565b6040805142815243602082015233917f712bc71db81927a76b8bf1ea346247bb0ad58f18e4e5c1bd4aa0ec6573e02a2b910160405180910390a2565b6001600160a01b03811660008181526005602052604090819020805461ff00191681559051909133917fc6148ac08e050e2098c5d953dffbbf54d7eae1a56b8d894015268bfc2dff5b6a906127869042904390918252602082015260400190565b60008084600081518110612e3557612e35613ea6565b60200260200101519050600085600181518110612e5457612e54613ea6565b6020026020010151905060006001600160a01b0316826001600160a01b03161415612ed65760405162461bcd60e51b815260206004820152602c60248201527f455243323054656d706c6174653a20496e76616c6964206d696e7465722c202060448201526b7a65726f206164647265737360a01b6064820152608401610a63565b6001600160a01b038116612f525760405162461bcd60e51b815260206004820152603c60248201527f455243323054656d706c6174653a20496e76616c696420636f6d6d756e69747960448201527f2066656520636f6c6c6563746f722c207a65726f2061646472657373000000006064820152608401610a63565b84600081518110612f6557612f65613ea6565b602002602001015160001415612fc95760405162461bcd60e51b8152602060048201526024808201527f44617461546f6b656e54656d706c6174653a20496e76616c6964206361702076604482015263616c756560e01b6064820152608401610a63565b84600081518110612fdc57612fdc613ea6565b602002602001015160098190555087600081518110612ffd57612ffd613ea6565b60200260200101516007908051906020019061301a9291906132a2565b508760018151811061302e5761302e613ea6565b60200260200101516008908051906020019061304b9291906132a2565b50600b80546001600160a01b0319166001600160a01b03841617905585518690600290811061307c5761307c613ea6565b6020908102919091010151601280546001600160a01b039283166001600160a01b0319909116179055600a80546001600160a81b03191691831691909117600160a01b17905586516130d99088906000906110d4576110d4613ea6565b6130fc876001815181106130ef576130ef613ea6565b6020026020010151612792565b8660028151811061310f5761310f613ea6565b6020026020010151600d60006101000a8154816001600160a01b0302191690836001600160a01b031602179055508660038151811061315057613150613ea6565b6020026020010151600e60006101000a8154816001600160a01b0302191690836001600160a01b031602179055508460018151811061319157613191613ea6565b6020026020010151600f8190555060004690507f8b73c3c69bb8fe3d512ecc4cf759cc79239f7b179b0ffacaa9a75d522b39400f60076040516131d49190613a76565b60408051918290038220828201825260018352603160f81b6020938401528151928301939093528101919091527fc89efdaa54c0f20c7adf612882df0950f5a951637e0307cdcb4c672f298b8bc66060820152608081018290523060a082015260c00160408051808303601f1901815291905280516020909101206010555050600a54600160a01b900460ff16979650505050505050565b6000612adb8284613cf5565b6000612adb8284613d17565b5080546000825590600052602060002090810190610bb39190613326565b8280546132ae90613e3a565b90600052602060002090601f0160209004810192826132d05760008555613316565b82601f106132e957805160ff1916838001178555613316565b82800160010185558215613316579182015b828111156133165782518255916020019190600101906132fb565b50613322929150613326565b5090565b5b808211156133225760008155600101613327565b600067ffffffffffffffff83111561335557613355613ebc565b613368601f8401601f1916602001613c88565b905082815283838301111561337c57600080fd5b828260208301376000602084830101529392505050565b60008083601f8401126133a557600080fd5b50813567ffffffffffffffff8111156133bd57600080fd5b6020830191508360208260051b85010111156133d857600080fd5b9250929050565b600082601f8301126133f057600080fd5b8135602061340561340083613cb9565b613c88565b80838252828201915082860187848660051b890101111561342557600080fd5b60005b8581101561344d57813561343b81613ed2565b84529284019290840190600101613428565b5090979650505050505050565b600082601f83011261346b57600080fd5b8135602061347b61340083613cb9565b80838252828201915082860187848660051b890101111561349b57600080fd5b60005b8581101561344d5781358452928401929084019060010161349e565b6000602082840312156134cc57600080fd5b8135612adb81613ed2565b6000602082840312156134e957600080fd5b8151612adb81613ed2565b6000806040838503121561350757600080fd5b823561351281613ed2565b9150602083013561352281613ed2565b809150509250929050565b60008060006060848603121561354257600080fd5b833561354d81613ed2565b9250602084013561355d81613ed2565b929592945050506040919091013590565b600080600080600080600060e0888a03121561358957600080fd5b873561359481613ed2565b965060208801356135a481613ed2565b95506040880135945060608801359350608088013560ff811681146135c857600080fd5b9699959850939692959460a0840135945060c09093013592915050565b6000806000606084860312156135fa57600080fd5b833561360581613ed2565b9250602084013567ffffffffffffffff8082111561362257600080fd5b61362e878388016133df565b9350604086013591508082111561364457600080fd5b506136518682870161345a565b9150509250925092565b6000806040838503121561366e57600080fd5b823561367981613ed2565b946020939093013593505050565b60008060008060008060c087890312156136a057600080fd5b86356136ab81613ed2565b9550602087013594506040870135935060608701356136c981613ed2565b925060808701356136d981613ed2565b8092505060a087013590509295509295509295565b600080600080600060a0868803121561370657600080fd5b853561371181613ed2565b94506020860135935060408601359250606086013561372f81613ee7565b9150608086013561373f81613ed2565b809150509295509295909350565b60008060008060008060008060008060a08b8d03121561376c57600080fd5b8a3567ffffffffffffffff8082111561378457600080fd5b6137908e838f01613393565b909c509a5060208d01359150808211156137a957600080fd5b6137b58e838f01613393565b909a50985060408d01359150808211156137ce57600080fd5b6137da8e838f01613393565b909850965060608d01359150808211156137f357600080fd5b6137ff8e838f01613393565b909650945060808d013591508082111561381857600080fd5b506138258d828e01613393565b915080935050809150509295989b9194979a5092959850565b60008060006060848603121561385357600080fd5b833567ffffffffffffffff8082111561386b57600080fd5b6138778783880161345a565b9450602086013591508082111561388d57600080fd5b6138998783880161345a565b935060408601359150808211156138af57600080fd5b50613651868287016133df565b6000602082840312156138ce57600080fd5b8151612adb81613ee7565b6000602082840312156138eb57600080fd5b5051919050565b6000806020838503121561390557600080fd5b823567ffffffffffffffff8082111561391d57600080fd5b818501915085601f83011261393157600080fd5b81358181111561394057600080fd5b86602082850101111561395257600080fd5b60209290920196919550909350505050565b60006080828403121561397657600080fd5b6040516080810181811067ffffffffffffffff8211171561399957613999613ebc565b60405282516139a781613ee7565b815260208301516139b781613ee7565b602082015260408301516139ca81613ee7565b604082015260608301516139dd81613ee7565b60608201529392505050565b6000602082840312156139fb57600080fd5b5035919050565b600081518084526020808501945080840160005b83811015613a3b5781516001600160a01b031687529582019590820190600101613a16565b509495945050505050565b600081518084526020808501945080840160005b83811015613a3b57815187529582019590820190600101613a5a565b600080835481600182811c915080831680613a9257607f831692505b6020808410821415613ab257634e487b7160e01b86526022600452602486fd5b818015613ac65760018114613ad757613b04565b60ff19861689528489019650613b04565b60008a81526020902060005b86811015613afc5781548b820152908501908301613ae3565b505084890196505b509498975050505050505050565b6001600160a01b0384168152606060208201819052600090613b3690830185613a02565b8281036040840152613b488185613a46565b9695505050505050565b60008186825b6002811015613b805781516001600160a01b0316835260209283019290910190600101613b58565b50505060a06040830152613b9760a0830186613a46565b8281036060840152613ba98186613a46565b90508281036080840152613bbd8185613a02565b979650505050505050565b83815260406020820152816040820152818360608301376000818301606090810191909152601f909201601f1916010192915050565b600060208083528351808285015260005b81811015613c2b57858101830151858201604001528201613c0f565b81811115613c3d576000604083870101525b50601f01601f1916929092016040019392505050565b6020808252818101527f455243323054656d706c6174653a204e4f54204445504c4f59455220524f4c45604082015260600190565b604051601f8201601f1916810167ffffffffffffffff81118282101715613cb157613cb1613ebc565b604052919050565b600067ffffffffffffffff821115613cd357613cd3613ebc565b5060051b60200190565b60008219821115613cf057613cf0613e90565b500190565b600082613d1257634e487b7160e01b600052601260045260246000fd5b500490565b600082821015613d2957613d29613e90565b500390565b6000613d3c61340084613cb9565b808482526020808301925084368760051b87011115613d5a57600080fd5b60005b87811015613dae57813567ffffffffffffffff811115613d7c57600080fd5b870136601f820112613d8d57600080fd5b613d9b36823586840161333b565b8652509382019390820190600101613d5d565b50919695505050505050565b6000613dc861340084613cb9565b808482526020808301925084368760051b87011115613de657600080fd5b60005b87811015613dae57813567ffffffffffffffff811115613e0857600080fd5b870136601f820112613e1957600080fd5b613e2736823586840161333b565b8652509382019390820190600101613de9565b600181811c90821680613e4e57607f821691505b60208210811415613e6f57634e487b7160e01b600052602260045260246000fd5b50919050565b6000600019821415613e8957613e89613e90565b5060010190565b634e487b7160e01b600052601160045260246000fd5b634e487b7160e01b600052603260045260246000fd5b634e487b7160e01b600052604160045260246000fd5b6001600160a01b0381168114610bb357600080fd5b8015158114610bb357600080fdfea26469706673582212208b4a126bd1d57f0cf780b4e7dc515eeb3f25cec74fd6035c24aaf54e77121c9664736f6c63430008070033",
  "linkReferences": {},
  "deployedLinkReferences": {}
}