{
  "_format": "hh-sol-artifact-1",
  "contractName": "ERC20Template",
  "sourceName": "contracts/templates/ERC20Template.sol",
  "abi": [
    {
      "anonymous": false,
      "inputs": [
        {
          "indexed": true,
          "internalType": "address",
          "name": "user",
          "type": "address"
        },
        {
          "indexed": true,
          "internalType": "address",
          "name": "signer",
          "type": "address"
        },
        {
          "indexed": false,
          "internalType": "uint256",
          "name": "timestamp",
          "type": "uint256"
        },
        {
          "indexed": false,
          "internalType": "uint256",
          "name": "blockNumber",
          "type": "uint256"
        }
      ],
      "name": "AddedMinter",
      "type": "event"
    },
    {
      "anonymous": false,
      "inputs": [
        {
          "indexed": true,
          "internalType": "address",
          "name": "user",
          "type": "address"
        },
        {
          "indexed": true,
          "internalType": "address",
          "name": "signer",
          "type": "address"
        },
        {
          "indexed": false,
          "internalType": "uint256",
          "name": "timestamp",
          "type": "uint256"
        },
        {
          "indexed": false,
          "internalType": "uint256",
          "name": "blockNumber",
          "type": "uint256"
        }
      ],
      "name": "AddedPaymentManager",
      "type": "event"
    },
    {
      "anonymous": false,
      "inputs": [
        {
          "indexed": true,
          "internalType": "address",
          "name": "owner",
          "type": "address"
        },
        {
          "indexed": true,
          "internalType": "address",
          "name": "spender",
          "type": "address"
        },
        {
          "indexed": false,
          "internalType": "uint256",
          "name": "value",
          "type": "uint256"
        }
      ],
      "name": "Approval",
      "type": "event"
    },
    {
      "anonymous": false,
      "inputs": [
        {
          "indexed": true,
          "internalType": "address",
          "name": "signer",
          "type": "address"
        },
        {
          "indexed": false,
          "internalType": "uint256",
          "name": "timestamp",
          "type": "uint256"
        },
        {
          "indexed": false,
          "internalType": "uint256",
          "name": "blockNumber",
          "type": "uint256"
        }
      ],
      "name": "CleanedPermissions",
      "type": "event"
    },
    {
      "anonymous": false,
      "inputs": [
        {
          "indexed": false,
          "internalType": "address",
          "name": "currentMinter",
          "type": "address"
        },
        {
          "indexed": false,
          "internalType": "address",
          "name": "newMinter",
          "type": "address"
        }
      ],
      "name": "MinterApproved",
      "type": "event"
    },
    {
      "anonymous": false,
      "inputs": [
        {
          "indexed": false,
          "internalType": "address",
          "name": "currentMinter",
          "type": "address"
        },
        {
          "indexed": false,
          "internalType": "address",
          "name": "newMinter",
          "type": "address"
        }
      ],
      "name": "MinterProposed",
      "type": "event"
    },
    {
      "anonymous": false,
      "inputs": [
        {
          "indexed": false,
          "internalType": "address",
          "name": "dispenserContract",
          "type": "address"
        }
      ],
      "name": "NewDispenser",
      "type": "event"
    },
    {
      "anonymous": false,
      "inputs": [
        {
          "indexed": false,
          "internalType": "bytes32",
          "name": "exchangeId",
          "type": "bytes32"
        },
        {
          "indexed": true,
          "internalType": "address",
          "name": "owner",
          "type": "address"
        },
        {
          "indexed": false,
          "internalType": "address",
          "name": "exchangeContract",
          "type": "address"
        },
        {
          "indexed": true,
          "internalType": "address",
          "name": "baseToken",
          "type": "address"
        }
      ],
      "name": "NewFixedRate",
      "type": "event"
    },
    {
      "anonymous": false,
      "inputs": [
        {
          "indexed": true,
          "internalType": "address",
          "name": "caller",
          "type": "address"
        },
        {
          "indexed": true,
          "internalType": "address",
          "name": "_newPaymentCollector",
          "type": "address"
        },
        {
          "indexed": false,
          "internalType": "uint256",
          "name": "timestamp",
          "type": "uint256"
        },
        {
          "indexed": false,
          "internalType": "uint256",
          "name": "blockNumber",
          "type": "uint256"
        }
      ],
      "name": "NewPaymentCollector",
      "type": "event"
    },
    {
      "anonymous": false,
      "inputs": [
        {
          "indexed": false,
          "internalType": "address",
          "name": "poolAddress",
          "type": "address"
        },
        {
          "indexed": false,
          "internalType": "address",
          "name": "ssContract",
          "type": "address"
        },
        {
          "indexed": false,
          "internalType": "address",
          "name": "baseTokenAddress",
          "type": "address"
        }
      ],
      "name": "NewPool",
      "type": "event"
    },
    {
      "anonymous": false,
      "inputs": [
        {
          "indexed": false,
          "internalType": "bytes32",
          "name": "orderTxId",
          "type": "bytes32"
        },
        {
          "indexed": false,
          "internalType": "address",
          "name": "caller",
          "type": "address"
        },
        {
          "indexed": false,
          "internalType": "uint256",
          "name": "timestamp",
          "type": "uint256"
        },
        {
          "indexed": false,
          "internalType": "uint256",
          "name": "number",
          "type": "uint256"
        }
      ],
      "name": "OrderReused",
      "type": "event"
    },
    {
      "anonymous": false,
      "inputs": [
        {
          "indexed": true,
          "internalType": "address",
          "name": "consumer",
          "type": "address"
        },
        {
          "indexed": false,
          "internalType": "address",
          "name": "payer",
          "type": "address"
        },
        {
          "indexed": false,
          "internalType": "uint256",
          "name": "amount",
          "type": "uint256"
        },
        {
          "indexed": false,
          "internalType": "uint256",
          "name": "serviceIndex",
          "type": "uint256"
        },
        {
          "indexed": false,
          "internalType": "uint256",
          "name": "timestamp",
          "type": "uint256"
        },
        {
          "indexed": true,
          "internalType": "address",
          "name": "publishMarketAddress",
          "type": "address"
        },
        {
          "indexed": false,
          "internalType": "uint256",
          "name": "blockNumber",
          "type": "uint256"
        }
      ],
      "name": "OrderStarted",
      "type": "event"
    },
    {
      "anonymous": false,
      "inputs": [
        {
          "indexed": true,
          "internalType": "address",
          "name": "providerFeeAddress",
          "type": "address"
        },
        {
          "indexed": true,
          "internalType": "address",
          "name": "providerFeeToken",
          "type": "address"
        },
        {
          "indexed": false,
          "internalType": "uint256",
          "name": "providerFeeAmount",
          "type": "uint256"
        },
        {
          "indexed": false,
          "internalType": "bytes",
          "name": "providerData",
          "type": "bytes"
        },
        {
          "indexed": false,
          "internalType": "uint8",
          "name": "v",
          "type": "uint8"
        },
        {
          "indexed": false,
          "internalType": "bytes32",
          "name": "r",
          "type": "bytes32"
        },
        {
          "indexed": false,
          "internalType": "bytes32",
          "name": "s",
          "type": "bytes32"
        },
        {
          "indexed": false,
          "internalType": "uint256",
          "name": "validUntil",
          "type": "uint256"
        }
      ],
      "name": "ProviderFees",
      "type": "event"
    },
    {
      "anonymous": false,
      "inputs": [
        {
          "indexed": true,
          "internalType": "address",
          "name": "PublishMarketFeeAddress",
          "type": "address"
        },
        {
          "indexed": true,
          "internalType": "address",
          "name": "PublishMarketFeeToken",
          "type": "address"
        },
        {
          "indexed": false,
          "internalType": "uint256",
          "name": "PublishMarketFeeAmount",
          "type": "uint256"
        }
      ],
      "name": "PublishMarketFees",
      "type": "event"
    },
    {
      "anonymous": false,
      "inputs": [
        {
          "indexed": false,
          "internalType": "address",
          "name": "caller",
          "type": "address"
        },
        {
          "indexed": false,
          "internalType": "address",
          "name": "PublishMarketFeeAddress",
          "type": "address"
        },
        {
          "indexed": false,
          "internalType": "address",
          "name": "PublishMarketFeeToken",
          "type": "address"
        },
        {
          "indexed": false,
          "internalType": "uint256",
          "name": "PublishMarketFeeAmount",
          "type": "uint256"
        }
      ],
      "name": "PublishMarketFeesChanged",
      "type": "event"
    },
    {
      "anonymous": false,
      "inputs": [
        {
          "indexed": true,
          "internalType": "address",
          "name": "user",
          "type": "address"
        },
        {
          "indexed": true,
          "internalType": "address",
          "name": "signer",
          "type": "address"
        },
        {
          "indexed": false,
          "internalType": "uint256",
          "name": "timestamp",
          "type": "uint256"
        },
        {
          "indexed": false,
          "internalType": "uint256",
          "name": "blockNumber",
          "type": "uint256"
        }
      ],
      "name": "RemovedMinter",
      "type": "event"
    },
    {
      "anonymous": false,
      "inputs": [
        {
          "indexed": true,
          "internalType": "address",
          "name": "user",
          "type": "address"
        },
        {
          "indexed": true,
          "internalType": "address",
          "name": "signer",
          "type": "address"
        },
        {
          "indexed": false,
          "internalType": "uint256",
          "name": "timestamp",
          "type": "uint256"
        },
        {
          "indexed": false,
          "internalType": "uint256",
          "name": "blockNumber",
          "type": "uint256"
        }
      ],
      "name": "RemovedPaymentManager",
      "type": "event"
    },
    {
      "anonymous": false,
      "inputs": [
        {
          "indexed": true,
          "internalType": "address",
          "name": "from",
          "type": "address"
        },
        {
          "indexed": true,
          "internalType": "address",
          "name": "to",
          "type": "address"
        },
        {
          "indexed": false,
          "internalType": "uint256",
          "name": "value",
          "type": "uint256"
        }
      ],
      "name": "Transfer",
      "type": "event"
    },
    {
      "stateMutability": "payable",
      "type": "fallback"
    },
    {
      "inputs": [],
      "name": "BASE",
      "outputs": [
        {
          "internalType": "uint256",
          "name": "",
          "type": "uint256"
        }
      ],
      "stateMutability": "view",
      "type": "function"
    },
    {
      "inputs": [],
      "name": "BASE_COMMUNITY_FEE_PERCENTAGE",
      "outputs": [
        {
          "internalType": "uint256",
          "name": "",
          "type": "uint256"
        }
      ],
      "stateMutability": "view",
      "type": "function"
    },
    {
      "inputs": [],
      "name": "DOMAIN_SEPARATOR",
      "outputs": [
        {
          "internalType": "bytes32",
          "name": "",
          "type": "bytes32"
        }
      ],
      "stateMutability": "view",
      "type": "function"
    },
    {
      "inputs": [],
      "name": "PERMIT_TYPEHASH",
      "outputs": [
        {
          "internalType": "bytes32",
          "name": "",
          "type": "bytes32"
        }
      ],
      "stateMutability": "view",
      "type": "function"
    },
    {
      "inputs": [
        {
          "internalType": "address",
          "name": "_minter",
          "type": "address"
        }
      ],
      "name": "addMinter",
      "outputs": [],
      "stateMutability": "nonpayable",
      "type": "function"
    },
    {
      "inputs": [
        {
          "internalType": "address",
          "name": "_paymentManager",
          "type": "address"
        }
      ],
      "name": "addPaymentManager",
      "outputs": [],
      "stateMutability": "nonpayable",
      "type": "function"
    },
    {
      "inputs": [
        {
          "internalType": "address",
          "name": "owner",
          "type": "address"
        },
        {
          "internalType": "address",
          "name": "spender",
          "type": "address"
        }
      ],
      "name": "allowance",
      "outputs": [
        {
          "internalType": "uint256",
          "name": "",
          "type": "uint256"
        }
      ],
      "stateMutability": "view",
      "type": "function"
    },
    {
      "inputs": [
        {
          "internalType": "address",
          "name": "spender",
          "type": "address"
        },
        {
          "internalType": "uint256",
          "name": "amount",
          "type": "uint256"
        }
      ],
      "name": "approve",
      "outputs": [
        {
          "internalType": "bool",
          "name": "",
          "type": "bool"
        }
      ],
      "stateMutability": "nonpayable",
      "type": "function"
    },
    {
      "inputs": [
        {
          "internalType": "uint256",
          "name": "",
          "type": "uint256"
        }
      ],
      "name": "authERC20",
      "outputs": [
        {
          "internalType": "address",
          "name": "",
          "type": "address"
        }
      ],
      "stateMutability": "view",
      "type": "function"
    },
    {
      "inputs": [
        {
          "internalType": "address",
          "name": "account",
          "type": "address"
        }
      ],
      "name": "balanceOf",
      "outputs": [
        {
          "internalType": "uint256",
          "name": "",
          "type": "uint256"
        }
      ],
      "stateMutability": "view",
      "type": "function"
    },
    {
      "inputs": [
        {
          "internalType": "uint256",
          "name": "amount",
          "type": "uint256"
        }
      ],
      "name": "burn",
      "outputs": [],
      "stateMutability": "nonpayable",
      "type": "function"
    },
    {
      "inputs": [
        {
          "internalType": "address",
          "name": "account",
          "type": "address"
        },
        {
          "internalType": "uint256",
          "name": "amount",
          "type": "uint256"
        }
      ],
      "name": "burnFrom",
      "outputs": [],
      "stateMutability": "nonpayable",
      "type": "function"
    },
    {
      "inputs": [],
      "name": "cap",
      "outputs": [
        {
          "internalType": "uint256",
          "name": "",
          "type": "uint256"
        }
      ],
      "stateMutability": "view",
      "type": "function"
    },
    {
      "inputs": [],
      "name": "cleanFrom721",
      "outputs": [],
      "stateMutability": "nonpayable",
      "type": "function"
    },
    {
      "inputs": [],
      "name": "cleanPermissions",
      "outputs": [],
      "stateMutability": "nonpayable",
      "type": "function"
    },
    {
      "inputs": [
        {
          "internalType": "address",
          "name": "_dispenser",
          "type": "address"
        },
        {
          "internalType": "uint256",
          "name": "maxTokens",
          "type": "uint256"
        },
        {
          "internalType": "uint256",
          "name": "maxBalance",
          "type": "uint256"
        },
        {
          "internalType": "bool",
          "name": "withMint",
          "type": "bool"
        },
        {
          "internalType": "address",
          "name": "allowedSwapper",
          "type": "address"
        }
      ],
      "name": "createDispenser",
      "outputs": [],
      "stateMutability": "nonpayable",
      "type": "function"
    },
    {
      "inputs": [
        {
          "internalType": "address",
          "name": "fixedPriceAddress",
          "type": "address"
        },
        {
          "internalType": "address[]",
          "name": "addresses",
          "type": "address[]"
        },
        {
          "internalType": "uint256[]",
          "name": "uints",
          "type": "uint256[]"
        }
      ],
      "name": "createFixedRate",
      "outputs": [
        {
          "internalType": "bytes32",
          "name": "exchangeId",
          "type": "bytes32"
        }
      ],
      "stateMutability": "nonpayable",
      "type": "function"
    },
    {
      "inputs": [],
      "name": "decimals",
      "outputs": [
        {
          "internalType": "uint8",
          "name": "",
          "type": "uint8"
        }
      ],
      "stateMutability": "pure",
      "type": "function"
    },
    {
      "inputs": [
        {
          "internalType": "address",
          "name": "spender",
          "type": "address"
        },
        {
          "internalType": "uint256",
          "name": "subtractedValue",
          "type": "uint256"
        }
      ],
      "name": "decreaseAllowance",
      "outputs": [
        {
          "internalType": "bool",
          "name": "",
          "type": "bool"
        }
      ],
      "stateMutability": "nonpayable",
      "type": "function"
    },
    {
      "inputs": [
        {
          "internalType": "uint256[]",
          "name": "ssParams",
          "type": "uint256[]"
        },
        {
          "internalType": "uint256[]",
          "name": "swapFees",
          "type": "uint256[]"
        },
        {
          "internalType": "address[]",
          "name": "addresses",
          "type": "address[]"
        }
      ],
      "name": "deployPool",
      "outputs": [
        {
          "internalType": "address",
          "name": "pool",
          "type": "address"
        }
      ],
      "stateMutability": "nonpayable",
      "type": "function"
    },
    {
      "inputs": [],
      "name": "getDispensers",
      "outputs": [
        {
          "internalType": "address[]",
          "name": "",
          "type": "address[]"
        }
      ],
      "stateMutability": "view",
      "type": "function"
    },
    {
      "inputs": [],
      "name": "getERC721Address",
      "outputs": [
        {
          "internalType": "address",
          "name": "",
          "type": "address"
        }
      ],
      "stateMutability": "view",
      "type": "function"
    },
    {
      "inputs": [],
      "name": "getFixedRates",
      "outputs": [
        {
          "components": [
            {
              "internalType": "address",
              "name": "contractAddress",
              "type": "address"
            },
            {
              "internalType": "bytes32",
              "name": "id",
              "type": "bytes32"
            }
          ],
          "internalType": "struct ERC20Template.fixedRate[]",
          "name": "",
          "type": "tuple[]"
        }
      ],
      "stateMutability": "view",
      "type": "function"
    },
    {
      "inputs": [],
      "name": "getId",
      "outputs": [
        {
          "internalType": "uint8",
          "name": "",
          "type": "uint8"
        }
      ],
      "stateMutability": "pure",
      "type": "function"
    },
    {
      "inputs": [],
      "name": "getPaymentCollector",
      "outputs": [
        {
          "internalType": "address",
          "name": "",
          "type": "address"
        }
      ],
      "stateMutability": "view",
      "type": "function"
    },
    {
      "inputs": [
        {
          "internalType": "address",
          "name": "user",
          "type": "address"
        }
      ],
      "name": "getPermissions",
      "outputs": [
        {
          "components": [
            {
              "internalType": "bool",
              "name": "minter",
              "type": "bool"
            },
            {
              "internalType": "bool",
              "name": "paymentManager",
              "type": "bool"
            }
          ],
          "internalType": "struct ERC20Roles.RolesERC20",
          "name": "",
          "type": "tuple"
        }
      ],
      "stateMutability": "view",
      "type": "function"
    },
    {
      "inputs": [],
      "name": "getPools",
      "outputs": [
        {
          "internalType": "address[]",
          "name": "",
          "type": "address[]"
        }
      ],
      "stateMutability": "view",
      "type": "function"
    },
    {
      "inputs": [],
      "name": "getPublishingMarketFee",
      "outputs": [
        {
          "internalType": "address",
          "name": "",
          "type": "address"
        },
        {
          "internalType": "address",
          "name": "",
          "type": "address"
        },
        {
          "internalType": "uint256",
          "name": "",
          "type": "uint256"
        }
      ],
      "stateMutability": "view",
      "type": "function"
    },
    {
      "inputs": [
        {
          "internalType": "address",
          "name": "spender",
          "type": "address"
        },
        {
          "internalType": "uint256",
          "name": "addedValue",
          "type": "uint256"
        }
      ],
      "name": "increaseAllowance",
      "outputs": [
        {
          "internalType": "bool",
          "name": "",
          "type": "bool"
        }
      ],
      "stateMutability": "nonpayable",
      "type": "function"
    },
    {
      "inputs": [
        {
          "internalType": "string[]",
          "name": "strings_",
          "type": "string[]"
        },
        {
          "internalType": "address[]",
          "name": "addresses_",
          "type": "address[]"
        },
        {
          "internalType": "address[]",
          "name": "factoryAddresses_",
          "type": "address[]"
        },
        {
          "internalType": "uint256[]",
          "name": "uints_",
          "type": "uint256[]"
        },
        {
          "internalType": "bytes[]",
          "name": "bytes_",
          "type": "bytes[]"
        }
      ],
      "name": "initialize",
      "outputs": [
        {
          "internalType": "bool",
          "name": "",
          "type": "bool"
        }
      ],
      "stateMutability": "nonpayable",
      "type": "function"
    },
    {
      "inputs": [
        {
          "internalType": "address",
          "name": "user",
          "type": "address"
        }
      ],
      "name": "isERC20Deployer",
      "outputs": [
        {
          "internalType": "bool",
          "name": "deployer",
          "type": "bool"
        }
      ],
      "stateMutability": "nonpayable",
      "type": "function"
    },
    {
      "inputs": [],
      "name": "isInitialized",
      "outputs": [
        {
          "internalType": "bool",
          "name": "",
          "type": "bool"
        }
      ],
      "stateMutability": "view",
      "type": "function"
    },
    {
      "inputs": [
        {
          "internalType": "address",
          "name": "account",
          "type": "address"
        }
      ],
      "name": "isMinter",
      "outputs": [
        {
          "internalType": "bool",
          "name": "",
          "type": "bool"
        }
      ],
      "stateMutability": "view",
      "type": "function"
    },
    {
      "inputs": [
        {
          "internalType": "address",
          "name": "account",
          "type": "address"
        },
        {
          "internalType": "uint256",
          "name": "value",
          "type": "uint256"
        }
      ],
      "name": "mint",
      "outputs": [],
      "stateMutability": "nonpayable",
      "type": "function"
    },
    {
      "inputs": [],
      "name": "name",
      "outputs": [
        {
          "internalType": "string",
          "name": "",
          "type": "string"
        }
      ],
      "stateMutability": "view",
      "type": "function"
    },
    {
      "inputs": [
        {
          "internalType": "address",
          "name": "",
          "type": "address"
        }
      ],
      "name": "nonces",
      "outputs": [
        {
          "internalType": "uint256",
          "name": "",
          "type": "uint256"
        }
      ],
      "stateMutability": "view",
      "type": "function"
    },
    {
      "inputs": [
        {
          "internalType": "address",
          "name": "",
          "type": "address"
        }
      ],
      "name": "permissions",
      "outputs": [
        {
          "internalType": "bool",
          "name": "minter",
          "type": "bool"
        },
        {
          "internalType": "bool",
          "name": "paymentManager",
          "type": "bool"
        }
      ],
      "stateMutability": "view",
      "type": "function"
    },
    {
      "inputs": [
        {
          "internalType": "address",
          "name": "owner",
          "type": "address"
        },
        {
          "internalType": "address",
          "name": "spender",
          "type": "address"
        },
        {
          "internalType": "uint256",
          "name": "value",
          "type": "uint256"
        },
        {
          "internalType": "uint256",
          "name": "deadline",
          "type": "uint256"
        },
        {
          "internalType": "uint8",
          "name": "v",
          "type": "uint8"
        },
        {
          "internalType": "bytes32",
          "name": "r",
          "type": "bytes32"
        },
        {
          "internalType": "bytes32",
          "name": "s",
          "type": "bytes32"
        }
      ],
      "name": "permit",
      "outputs": [],
      "stateMutability": "nonpayable",
      "type": "function"
    },
    {
      "inputs": [
        {
          "internalType": "address",
          "name": "_minter",
          "type": "address"
        }
      ],
      "name": "removeMinter",
      "outputs": [],
      "stateMutability": "nonpayable",
      "type": "function"
    },
    {
      "inputs": [
        {
          "internalType": "address",
          "name": "_paymentManager",
          "type": "address"
        }
      ],
      "name": "removePaymentManager",
      "outputs": [],
      "stateMutability": "nonpayable",
      "type": "function"
    },
    {
      "inputs": [
        {
          "internalType": "bytes32",
          "name": "orderTxId",
          "type": "bytes32"
        },
        {
          "components": [
            {
              "internalType": "address",
              "name": "providerFeeAddress",
              "type": "address"
            },
            {
              "internalType": "address",
              "name": "providerFeeToken",
              "type": "address"
            },
            {
              "internalType": "uint256",
              "name": "providerFeeAmount",
              "type": "uint256"
            },
            {
              "internalType": "uint8",
              "name": "v",
              "type": "uint8"
            },
            {
              "internalType": "bytes32",
              "name": "r",
              "type": "bytes32"
            },
            {
              "internalType": "bytes32",
              "name": "s",
              "type": "bytes32"
            },
            {
              "internalType": "uint256",
              "name": "validUntil",
              "type": "uint256"
            },
            {
              "internalType": "bytes",
              "name": "providerData",
              "type": "bytes"
            }
          ],
          "internalType": "struct ERC20Template.providerFees",
          "name": "_providerFees",
          "type": "tuple"
        }
      ],
      "name": "reuseOrder",
      "outputs": [],
      "stateMutability": "nonpayable",
      "type": "function"
    },
    {
      "inputs": [],
      "name": "router",
      "outputs": [
        {
          "internalType": "address",
          "name": "",
          "type": "address"
        }
      ],
      "stateMutability": "view",
      "type": "function"
    },
    {
      "inputs": [
        {
          "internalType": "bytes",
          "name": "_value",
          "type": "bytes"
        }
      ],
      "name": "setData",
      "outputs": [],
      "stateMutability": "nonpayable",
      "type": "function"
    },
    {
      "inputs": [
        {
          "internalType": "address",
          "name": "_newPaymentCollector",
          "type": "address"
        }
      ],
      "name": "setPaymentCollector",
      "outputs": [],
      "stateMutability": "nonpayable",
      "type": "function"
    },
    {
      "inputs": [
        {
          "internalType": "address",
          "name": "_publishMarketFeeAddress",
          "type": "address"
        },
        {
          "internalType": "address",
          "name": "_publishMarketFeeToken",
          "type": "address"
        },
        {
          "internalType": "uint256",
          "name": "_publishMarketFeeAmount",
          "type": "uint256"
        }
      ],
      "name": "setPublishingMarketFee",
      "outputs": [],
      "stateMutability": "nonpayable",
      "type": "function"
    },
    {
      "inputs": [
        {
          "internalType": "address",
          "name": "consumer",
          "type": "address"
        },
        {
          "internalType": "uint256",
          "name": "serviceIndex",
          "type": "uint256"
        },
        {
          "components": [
            {
              "internalType": "address",
              "name": "providerFeeAddress",
              "type": "address"
            },
            {
              "internalType": "address",
              "name": "providerFeeToken",
              "type": "address"
            },
            {
              "internalType": "uint256",
              "name": "providerFeeAmount",
              "type": "uint256"
            },
            {
              "internalType": "uint8",
              "name": "v",
              "type": "uint8"
            },
            {
              "internalType": "bytes32",
              "name": "r",
              "type": "bytes32"
            },
            {
              "internalType": "bytes32",
              "name": "s",
              "type": "bytes32"
            },
            {
              "internalType": "uint256",
              "name": "validUntil",
              "type": "uint256"
            },
            {
              "internalType": "bytes",
              "name": "providerData",
              "type": "bytes"
            }
          ],
          "internalType": "struct ERC20Template.providerFees",
          "name": "_providerFees",
          "type": "tuple"
        }
      ],
      "name": "startOrder",
      "outputs": [],
      "stateMutability": "nonpayable",
      "type": "function"
    },
    {
      "inputs": [],
      "name": "symbol",
      "outputs": [
        {
          "internalType": "string",
          "name": "",
          "type": "string"
        }
      ],
      "stateMutability": "view",
      "type": "function"
    },
    {
      "inputs": [],
      "name": "totalSupply",
      "outputs": [
        {
          "internalType": "uint256",
          "name": "",
          "type": "uint256"
        }
      ],
      "stateMutability": "view",
      "type": "function"
    },
    {
      "inputs": [
        {
          "internalType": "address",
          "name": "recipient",
          "type": "address"
        },
        {
          "internalType": "uint256",
          "name": "amount",
          "type": "uint256"
        }
      ],
      "name": "transfer",
      "outputs": [
        {
          "internalType": "bool",
          "name": "",
          "type": "bool"
        }
      ],
      "stateMutability": "nonpayable",
      "type": "function"
    },
    {
      "inputs": [
        {
          "internalType": "address",
          "name": "sender",
          "type": "address"
        },
        {
          "internalType": "address",
          "name": "recipient",
          "type": "address"
        },
        {
          "internalType": "uint256",
          "name": "amount",
          "type": "uint256"
        }
      ],
      "name": "transferFrom",
      "outputs": [
        {
          "internalType": "bool",
          "name": "",
          "type": "bool"
        }
      ],
      "stateMutability": "nonpayable",
      "type": "function"
    },
    {
      "inputs": [],
      "name": "withdrawETH",
      "outputs": [],
      "stateMutability": "payable",
      "type": "function"
    }
  ],
  "bytecode": "0x6080604052600b805460ff60a01b191690553480156200001e57600080fd5b5060408051808201825260048152631d195cdd60e21b60208083019182528351808501909452600a8452691d195cdd14de5b589bdb60b21b9084015281519192916200006d9160039162000091565b5080516200008390600490602084019062000091565b505060016007555062000174565b8280546200009f9062000137565b90600052602060002090601f016020900481019282620000c357600085556200010e565b82601f10620000de57805160ff19168380011785556200010e565b828001600101855582156200010e579182015b828111156200010e578251825591602001919060010190620000f1565b506200011c92915062000120565b5090565b5b808211156200011c576000815560010162000121565b600181811c908216806200014c57607f821691505b602082108114156200016e57634e487b7160e01b600052602260045260246000fd5b50919050565b61490880620001846000396000f3fe6080604052600436106102c55760003560e01c80635bfe4da01161017e578063a9059cbb116100d3578063d505accf1161008f578063e487c2e81161006c578063e487c2e814610992578063ec342ad0146109a7578063ef867ff4146109c3578063f887ea40146109e357005b8063d505accf14610924578063dd62ed3e14610944578063e086e5ec1461098a57005b8063a9059cbb14610856578063aa271e1a14610876578063aa492ef9146108af578063ab62f0e1146108cf578063b2263a5d146108ef578063b3998be01461090457005b80637ecebe001161013a57806395d89b411161011757806395d89b41146107e157806396fb3eaf146107f6578063983b2d5614610816578063a457c2d71461083657005b80637ecebe001461077f57806382c03da5146107ac5780638b96412b146107c157005b80635bfe4da0146106be5780635d1ca631146106de578063673a2a1f146106f257806370a082311461070757806379cc67901461073d5780637dda231e1461075d57005b8063355274ea11610234578063397b3743116101f057806347ac7d55116101cd57806347ac7d55146106475780634f189cb21461066957806357a3a31b1461067e57806357ad5ff61461069e57005b8063397b3743146105cb57806340c10f191461060757806342966c681461062757005b8063355274ea14610521578063361fef4914610536578063363bdb46146105565780633644e51514610576578063392e53cd1461058c57806339509351146105ab57005b8063191c918a11610283578063191c918a1461044b57806323b872dd1461046b57806325b002431461048b5780633092afd5146104ab57806330adf81f146104cb578063313ce567146104ff57005b80627ffb78146102c757806301e88208146102fe57806306fdde031461034e578063095ea7b314610370578063160a7925146103a057806318160ddd1461042c575b005b3480156102d357600080fd5b50600c546001600160a01b03165b6040516001600160a01b0390911681526020015b60405180910390f35b34801561030a57600080fd5b50610337610319366004613b28565b60056020526000908152604090205460ff8082169161010090041682565b6040805192151583529015156020830152016102f5565b34801561035a57600080fd5b50610363610a03565b6040516102f59190613b71565b34801561037c57600080fd5b5061039061038b366004613ba4565b610a95565b60405190151581526020016102f5565b3480156103ac57600080fd5b5061040d6103bb366004613b28565b6040805180820190915260008082526020820152506001600160a01b031660009081526005602090815260409182902082518084019093525460ff808216151584526101009091041615159082015290565b60408051825115158152602092830151151592810192909252016102f5565b34801561043857600080fd5b506002545b6040519081526020016102f5565b34801561045757600080fd5b506102c5610466366004613bde565b610aab565b34801561047757600080fd5b50610390610486366004613c3d565b610c87565b34801561049757600080fd5b506102c56104a6366004613b28565b610d33565b3480156104b757600080fd5b506102c56104c6366004613b28565b610dcd565b3480156104d757600080fd5b5061043d7f6e71edae12b1b97f4d1f60370fef10105fa2faae0126114a169c64845d6126c981565b34801561050b57600080fd5b5060125b60405160ff90911681526020016102f5565b34801561052d57600080fd5b50600a5461043d565b34801561054257600080fd5b506102c5610551366004613c97565b610e64565b34801561056257600080fd5b506102c5610571366004613cdd565b610ee2565b34801561058257600080fd5b5061043d60115481565b34801561059857600080fd5b50600b54600160a01b900460ff16610390565b3480156105b757600080fd5b506103906105c6366004613ba4565b6111ae565b3480156105d757600080fd5b50600e54600f54601054604080516001600160a01b039485168152939092166020840152908201526060016102f5565b34801561061357600080fd5b506102c5610622366004613ba4565b6111ea565b34801561063357600080fd5b506102c5610642366004613d35565b6112bb565b34801561065357600080fd5b5061065c6112c5565b6040516102f59190613d92565b34801561067557600080fd5b506102c5611326565b34801561068a57600080fd5b506102c5610699366004613b28565b61140d565b3480156106aa57600080fd5b506102c56106b9366004613c3d565b61154f565b3480156106ca57600080fd5b506102e16106d9366004613edd565b6116a3565b3480156106ea57600080fd5b50600161050f565b3480156106fe57600080fd5b5061065c611aa8565b34801561071357600080fd5b5061043d610722366004613b28565b6001600160a01b031660009081526020819052604090205490565b34801561074957600080fd5b506102c5610758366004613ba4565b611b08565b34801561076957600080fd5b50610772611b8e565b6040516102f59190613f5a565b34801561078b57600080fd5b5061043d61079a366004613b28565b60126020526000908152604090205481565b3480156107b857600080fd5b506102c5611c03565b3480156107cd57600080fd5b5061043d6107dc366004613fb2565b611c5d565b3480156107ed57600080fd5b50610363611eed565b34801561080257600080fd5b50610390610811366004613b28565b611efc565b34801561082257600080fd5b506102c5610831366004613b28565b611f77565b34801561084257600080fd5b50610390610851366004613ba4565b61200e565b34801561086257600080fd5b50610390610871366004613ba4565b6120a7565b34801561088257600080fd5b50610390610891366004613b28565b6001600160a01b031660009081526005602052604090205460ff1690565b3480156108bb57600080fd5b506102c56108ca366004613b28565b6120b4565b3480156108db57600080fd5b506102c56108ea36600461401d565b61214b565b3480156108fb57600080fd5b5061043d61227c565b34801561091057600080fd5b5061039061091f3660046140d9565b612292565b34801561093057600080fd5b506102c561093f3660046141df565b6123cc565b34801561095057600080fd5b5061043d61095f36600461424d565b6001600160a01b03918216600090815260016020908152604080832093909416825291909152205490565b6102c56125de565b34801561099e57600080fd5b506102e161261e565b3480156109b357600080fd5b5061043d670de0b6b3a764000081565b3480156109cf57600080fd5b506102e16109de366004613d35565b6126b3565b3480156109ef57600080fd5b506013546102e1906001600160a01b031681565b606060088054610a1290614286565b80601f0160208091040260200160405190810160405280929190818152602001828054610a3e90614286565b8015610a8b5780601f10610a6057610100808354040283529160200191610a8b565b820191906000526020600020905b815481529060010190602001808311610a6e57829003601f168201915b5050505050905090565b6000610aa23384846126dd565b50600192915050565b600c5460405163160a792560e01b81523360048201526001600160a01b039091169063160a7925906024016080604051808303816000875af1158015610af5573d6000803e3d6000fd5b505050506040513d601f19601f82011682018060405250810190610b1991906142bb565b60200151610b425760405162461bcd60e51b8152600401610b399061433f565b60405180910390fd5b60026007541415610b655760405162461bcd60e51b8152600401610b3990614374565b6002600755601354604051636b14d00560e11b81526001600160a01b038781166004830152306024830152604482018790526064820186905233608483015283811660a48301529091169063d629a00a9060c401600060405180830381600087803b158015610bd357600080fd5b505af1158015610be7573d6000803e3d6000fd5b505050508115610bfa57610bfa85612801565b601680546001810182556000919091527fd833147d7dc355ba459fc788f669e58cfaf9dc25ddcd0702e87d69c7b51242890180546001600160a01b0319166001600160a01b0387169081179091556040519081527fa31ffd41531537eb31bfd827a3f5372b5f62bf4dd8579e5354b280dc58490e709060200160405180910390a150506001600755505050565b6000610c94848484612903565b6001600160a01b038416600090815260016020908152604080832033845290915290205482811015610d195760405162461bcd60e51b815260206004820152602860248201527f45524332303a207472616e7366657220616d6f756e74206578636565647320616044820152676c6c6f77616e636560c01b6064820152608401610b39565b610d2685338584036126dd565b60019150505b9392505050565b600c5460405163160a792560e01b81523360048201526001600160a01b039091169063160a7925906024016080604051808303816000875af1158015610d7d573d6000803e3d6000fd5b505050506040513d601f19601f82011682018060405250810190610da191906142bb565b60200151610dc15760405162461bcd60e51b8152600401610b399061433f565b610dca81612ad3565b50565b600c5460405163160a792560e01b81523360048201526001600160a01b039091169063160a7925906024016080604051808303816000875af1158015610e17573d6000803e3d6000fd5b505050506040513d601f19601f82011682018060405250810190610e3b91906142bb565b60200151610e5b5760405162461bcd60e51b8152600401610b399061433f565b610dca81612b34565b60026007541415610e875760405162461bcd60e51b8152600401610b3990614374565b600260075560408051838152336020820152428183015243606082015290517f526e31449ea46e2aecf9b480c8d7dfa191348ef74ffdf75b445a6ab726daa6ff9181900360800190a1610ed981612b94565b50506001600755565b60026007541415610f055760405162461bcd60e51b8152600401610b3990614374565b600260075533600090815260208190526040812054670de0b6b3a76400009190821115610f805760405162461bcd60e51b8152602060048201526024808201527f4e6f7420656e6f7567682064617461746f6b656e7320746f207374617274204f604482015263393232b960e11b6064820152608401610b39565b600e5460408051338152602081018590529081018690524260608201524360808201526001600160a01b03918216918716907fe1c4fa794edfa8f619b8257a077398950357b9c6398528f94480307352f9afcc9060a00160405180910390a36000601054118015610ffb5750600f546001600160a01b031615155b80156110115750600e546001600160a01b031615155b1561113c57601054600f54611035916001600160a01b039091169033903090612e55565b601054611043906064612ec0565b600e54601054919250611079916001600160a01b03909116906110669084612ecc565b600f546001600160a01b03169190612ed8565b600f54600e546010546001600160a01b0392831692909116907ff666b31c81334b6085802ba4149907fa724689d43bc31df6de1a51291ddc55b4906110be9085612ecc565b60405190815260200160405180910390a3801561113c57600b54600f546110f2916001600160a01b03918216911683612ed8565b600f54600b546040518381526001600160a01b0392831692909116907ff666b31c81334b6085802ba4149907fa724689d43bc31df6de1a51291ddc55b49060200160405180910390a35b61114583612b94565b61115661115061261e565b836120a7565b6111a25760405162461bcd60e51b815260206004820152601e60248201527f4661696c656420746f2073656e6420445420746f207075626c697368657200006044820152606401610b39565b50506001600755505050565b3360008181526001602090815260408083206001600160a01b03871684529091528120549091610aa29185906111e59086906143c1565b6126dd565b3360009081526005602052604090205460ff166112495760405162461bcd60e51b815260206004820152601960248201527f455243323054656d706c6174653a204e4f54204d494e544552000000000000006044820152606401610b39565b600a5461125f8261125960025490565b90612f08565b11156112ad5760405162461bcd60e51b815260206004820152601f60248201527f44617461746f6b656e54656d706c6174653a20636170206578636565646564006044820152606401610b39565b6112b78282612f14565b5050565b610dca3382612ff3565b60606016805480602002602001604051908101604052809291908181526020018280548015610a8b57602002820191906000526020600020905b81546001600160a01b031681526001909101906020018083116112ff575050505050905090565b600c546040516331a9108f60e11b8152600160048201526001600160a01b0390911690636352211e90602401602060405180830381865afa15801561136f573d6000803e3d6000fd5b505050506040513d601f19601f8201168201806040525081019061139391906143d9565b6001600160a01b0316336001600160a01b0316146113f35760405162461bcd60e51b815260206004820152601b60248201527f455243323054656d706c6174653a206e6f74204e46544f776e657200000000006044820152606401610b39565b6113fb613141565b600d80546001600160a01b0319169055565b33600090815260056020526040902054610100900460ff168061149e5750600c5460405163160a792560e01b81523360048201526001600160a01b039091169063160a7925906024016080604051808303816000875af1158015611475573d6000803e3d6000fd5b505050506040513d601f19601f8201168201806040525081019061149991906142bb565b602001515b6114fe5760405162461bcd60e51b815260206004820152602b60248201527f455243323054656d706c6174653a204e4f54205041594d454e54204d414e414760448201526a22a91037b91027aba722a960a91b6064820152608401610b39565b611507816131f0565b604080514281524360208201526001600160a01b0383169133917f4d7694d695c57cc54947177c8e8a0e61aae664e9223492a798c32fadfc6419cc910160405180910390a350565b600e546001600160a01b031633146115bc5760405162461bcd60e51b815260206004820152602a60248201527f455243323054656d706c6174653a206e6f74207075626c6973684d61726b65746044820152694665654164647265737360b01b6064820152608401610b39565b6001600160a01b0383166116235760405162461bcd60e51b815260206004820152602860248201527f496e76616c6964205f7075626c6973684d61726b657446656541646472657373604482015267206164647265737360c01b6064820152608401610b39565b600e80546001600160a01b038581166001600160a01b03199283168117909355600f80549186169190921681179091556010839055604080513381526020810193909352820152606081018290527fe0b85b6f04fa914cf57f6401c5672a83a32b1c388d194c3d78e17f2897d46f439060800160405180910390a1505050565b600c5460405163160a792560e01b81523360048201526000916001600160a01b03169063160a7925906024016080604051808303816000875af11580156116ee573d6000803e3d6000fd5b505050506040513d601f19601f8201168201806040525081019061171291906142bb565b602001516117325760405162461bcd60e51b8152600401610b399061433f565b600260075414156117555760405162461bcd60e51b8152600401610b3990614374565b600260075561176360025490565b156117bc5760405162461bcd60e51b8152602060048201526024808201527f455243323054656d706c6174653a20746f6b656e7320616c7265616479206d696044820152631b9d195960e21b6064820152608401610b39565b6117df826000815181106117d2576117d26143f6565b6020026020010151612801565b601360009054906101000a90046001600160a01b03166001600160a01b031663510f34656040518163ffffffff1660e01b8152600401602060405180830381865afa158015611832573d6000803e3d6000fd5b505050506040513d601f19601f82011682018060405250810190611856919061440c565b84600381518110611869576118696143f6565b602002602001015110156118ff5760405162461bcd60e51b815260206004820152605160248201527f455243323054656d706c6174653a2056657374696e6720706572696f6420746f60448201527f6f206c6f772e2053656520466163746f7279526f757465722e6d696e56657374606482015270696e67506572696f64496e426c6f636b7360781b608482015260a401610b39565b60006040518060400160405280306001600160a01b03166001600160a01b0316815260200184600181518110611937576119376143f6565b60209081029190910101516001600160a01b0390811690915260135460405163ee3bc63560e01b8152929350169063ee3bc6359061197f908490899089908990600401614455565b6020604051808303816000875af115801561199e573d6000803e3d6000fd5b505050506040513d601f19601f820116820180604052508101906119c291906143d9565b6014805460018101825560009182527fce6d7b5282bd9a3661ae061feed1dbda4e52ab073b1f9285be6e155d9c38d4ec0180546001600160a01b0319166001600160a01b03841617905584519193507fd02da1bec30f7f750aa0a131745dfb9ce96767c45a192dc26409f5d690e0b9679184918691611a4357611a436143f6565b602002602001015185600181518110611a5e57611a5e6143f6565b6020026020010151604051611a93939291906001600160a01b0393841681529183166020830152909116604082015260600190565b60405180910390a15060016007559392505050565b60606014805480602002602001604051908101604052809291908181526020018280548015610a8b576020028201919060005260206000209081546001600160a01b031681526001909101906020018083116112ff575050505050905090565b6000611b14833361095f565b905081811015611b725760405162461bcd60e51b8152602060048201526024808201527f45524332303a206275726e20616d6f756e74206578636565647320616c6c6f77604482015263616e636560e01b6064820152608401610b39565b611b7f83338484036126dd565b611b898383612ff3565b505050565b60606015805480602002602001604051908101604052809291908181526020016000905b82821015611bfa576000848152602090819020604080518082019091526002850290910180546001600160a01b03168252600190810154828401529083529092019101611bb2565b50505050905090565b600c546001600160a01b031633146113f35760405162461bcd60e51b815260206004820152601f60248201527f455243323054656d706c6174653a204e4f542037323120436f6e7472616374006044820152606401610b39565b600c5460405163160a792560e01b81523360048201526000916001600160a01b03169063160a7925906024016080604051808303816000875af1158015611ca8573d6000803e3d6000fd5b505050506040513d601f19601f82011682018060405250810190611ccc91906142bb565b60200151611cec5760405162461bcd60e51b8152600401610b399061433f565b60026007541415611d0f5760405162461bcd60e51b8152600401610b3990614374565b6002600755601354604051638244937560e01b81526001600160a01b0390911690638244937590611d48908790879087906004016144c0565b6020604051808303816000875af1158015611d67573d6000803e3d6000fd5b505050506040513d601f19601f82011682018060405250810190611d8b919061440c565b9050600082600481518110611da257611da26143f6565b60200260200101511115611db957611db984612801565b82600081518110611dcc57611dcc6143f6565b60200260200101516001600160a01b031683600181518110611df057611df06143f6565b60200260200101516001600160a01b03167fb3fac3ae95956dbac74e63ba8dac94081832395c8788e3049c900a7732f348058387604051611e449291909182526001600160a01b0316602082015260400190565b60405180910390a3604080518082019091526001600160a01b03948516815260208101828152601580546001808201835560009290925292517f55f448fdea98c4d29eb340757ef0a66cd03dbb9538908a6a81d96026b71ec475600290940293840180546001600160a01b0319169190981617909655517f55f448fdea98c4d29eb340757ef0a66cd03dbb9538908a6a81d96026b71ec476909101556007939093555090919050565b606060098054610a1290614286565b600c5460405163160a792560e01b81526001600160a01b038381166004830152600092169063160a7925906024016080604051808303816000875af1158015611f49573d6000803e3d6000fd5b505050506040513d601f19601f82011682018060405250810190611f6d91906142bb565b6020015192915050565b600c5460405163160a792560e01b81523360048201526001600160a01b039091169063160a7925906024016080604051808303816000875af1158015611fc1573d6000803e3d6000fd5b505050506040513d601f19601f82011682018060405250810190611fe591906142bb565b602001516120055760405162461bcd60e51b8152600401610b399061433f565b610dca81612801565b3360009081526001602090815260408083206001600160a01b0386168452909152812054828110156120905760405162461bcd60e51b815260206004820152602560248201527f45524332303a2064656372656173656420616c6c6f77616e63652062656c6f77604482015264207a65726f60d81b6064820152608401610b39565b61209d33858584036126dd565b5060019392505050565b6000610aa2338484612903565b600c5460405163160a792560e01b81523360048201526001600160a01b039091169063160a7925906024016080604051808303816000875af11580156120fe573d6000803e3d6000fd5b505050506040513d601f19601f8201168201806040525081019061212291906142bb565b602001516121425760405162461bcd60e51b8152600401610b399061433f565b610dca81613212565b600c5460405163160a792560e01b81523360048201526001600160a01b039091169063160a7925906024016080604051808303816000875af1158015612195573d6000803e3d6000fd5b505050506040513d601f19601f820116820180604052508101906121b991906142bb565b602001516121d95760405162461bcd60e51b8152600401610b399061433f565b6040516bffffffffffffffffffffffff193060601b16602082015260009060340160408051601f19818403018152908290528051602090910120600c546301caf8fd60e31b83529092506001600160a01b031690630e57c7e89061224590849087908790600401614529565b600060405180830381600087803b15801561225f57600080fd5b505af1158015612273573d6000803e3d6000fd5b50505050505050565b61228f6064670de0b6b3a764000061454c565b81565b600b54600090600160a01b900460ff16156123095760405162461bcd60e51b815260206004820152603160248201527f455243323054656d706c6174653a20746f6b656e20696e7374616e636520616c6044820152701c9958591e481a5b9a5d1a585b1a5e9959607a1b6064820152608401610b39565b6123bd6123168b8d6145c5565b8a8a8080602002602001604051908101604052809392919081815260200183836020028082843760009201919091525050604080516020808e0282810182019093528d82529093508d92508c91829185019084908082843760009201919091525050604080516020808d0282810182019093528c82529093508c92508b9182918501908490808284376000920191909152506123b892508991508a905061464c565b613320565b9b9a5050505050505050505050565b4384101561240f5760405162461bcd60e51b815260206004820152601060248201526f115490cc8c11150e881156141254915160821b6044820152606401610b39565b6011546001600160a01b038816600090815260126020526040812080549192917f6e71edae12b1b97f4d1f60370fef10105fa2faae0126114a169c64845d6126c9918b918b918b919087612462836146c7565b909155506040805160208101969096526001600160a01b0394851690860152929091166060840152608083015260a082015260c0810187905260e001604051602081830303815290604052805190602001206040516020016124db92919061190160f01b81526002810192909252602282015260420190565b60408051601f198184030181528282528051602091820120600080855291840180845281905260ff88169284019290925260608301869052608083018590529092509060019060a0016020604051602081039080840390855afa158015612546573d6000803e3d6000fd5b5050604051601f1901519150506001600160a01b0381161580159061257c5750886001600160a01b0316816001600160a01b0316145b6125c85760405162461bcd60e51b815260206004820152601a60248201527f455243323044543a20494e56414c49445f5349474e41545552450000000000006044820152606401610b39565b6125d38989896126dd565b505050505050505050565b6125e661261e565b6001600160a01b03166108fc479081150290604051600060405180830381858888f19350505050158015610dca573d6000803e3d6000fd5b600d546000906001600160a01b03166126a357600c546040516331a9108f60e11b8152600160048201526001600160a01b0390911690636352211e90602401602060405180830381865afa15801561267a573d6000803e3d6000fd5b505050506040513d601f19601f8201168201806040525081019061269e91906143d9565b905090565b50600d546001600160a01b031690565b600681815481106126c357600080fd5b6000918252602090912001546001600160a01b0316905081565b6001600160a01b03831661273f5760405162461bcd60e51b8152602060048201526024808201527f45524332303a20617070726f76652066726f6d20746865207a65726f206164646044820152637265737360e01b6064820152608401610b39565b6001600160a01b0382166127a05760405162461bcd60e51b815260206004820152602260248201527f45524332303a20617070726f766520746f20746865207a65726f206164647265604482015261737360f01b6064820152608401610b39565b6001600160a01b0383811660008181526001602090815260408083209487168084529482529182902085905590518481527f8c5be1e5ebec7d5bd14f71427d1e84f3dd0314c0f7b2291e5b200ac8c7c3b925910160405180910390a3505050565b6001600160a01b0381166000908152600560205260409020805460ff161561286b5760405162461bcd60e51b815260206004820152601d60248201527f4552433230526f6c65733a2020414c52454144592041204d494e5445520000006044820152606401610b39565b8054600160ff19909116811782556006805491820181556000527ff652222313e28459528d920b65115c16c04f3efc82aaedc97be59f3f377c0d3f0180546001600160a01b0319166001600160a01b038416908117909155604080514281524360208201523392917f4f7e100eb1ee13e903798bd0d6aa854152e07eb05544f392b9409c12935c809591015b60405180910390a35050565b6001600160a01b0383166129675760405162461bcd60e51b815260206004820152602560248201527f45524332303a207472616e736665722066726f6d20746865207a65726f206164604482015264647265737360d81b6064820152608401610b39565b6001600160a01b0382166129c95760405162461bcd60e51b815260206004820152602360248201527f45524332303a207472616e7366657220746f20746865207a65726f206164647260448201526265737360e81b6064820152608401610b39565b6001600160a01b03831660009081526020819052604090205481811015612a415760405162461bcd60e51b815260206004820152602660248201527f45524332303a207472616e7366657220616d6f756e7420657863656564732062604482015265616c616e636560d01b6064820152608401610b39565b6001600160a01b03808516600090815260208190526040808220858503905591851681529081208054849290612a789084906143c1565b92505081905550826001600160a01b0316846001600160a01b03167fddf252ad1be2c89b69c2b068fc378daa952ba7f163c4a11628f55a4df523b3ef84604051612ac491815260200190565b60405180910390a35b50505050565b6001600160a01b03811660008181526005602052604090819020805461ff00191681559051909133917faee911eec8b2df8f3ae0464841541b1e5f339519bd5cf51889fe8b07fecff658906128f79042904390918252602082015260400190565b6001600160a01b03811660008181526005602052604090819020805460ff191681559051909133917fefa2735987005aaa89c050c0ff8cc9ae7d9079d19382081c429130f98c52d480906128f79042904390918252602082015260400190565b60408051808201909152601c81527f19457468657265756d205369676e6564204d6573736167653a0a3332000000006020820152600081612bd860e08501856146e2565b612be56020870187613b28565b612bf56040880160208901613b28565b87604001358860c00135604051602001612c1496959493929190614728565b60405160208183030381529060405280519060200120604051602001612c3b929190614766565b60408051601f19818403018152919052805160209091012090506000600182612c6a6080870160608801614788565b6040805160008152602081018083529390935260ff90911690820152608080870135606083015260a08088013591830191909152016020604051602081039080840390855afa158015612cc1573d6000803e3d6000fd5b5050604051601f1901519150612cdc90506020850185613b28565b6001600160a01b0316816001600160a01b031614612d335760405162461bcd60e51b8152602060048201526014602482015273496e76616c69642070726f76696465722066656560601b6044820152606401610b39565b612d436040850160208601613b28565b6001600160a01b0316612d596020860186613b28565b6001600160a01b03167f22bdc88918efde2160206f0b5314bae23de0ae7fd1e9e7853d53178e32355a876040870135612d9560e08901896146e2565b612da560808b0160608c01614788565b8a608001358b60a001358c60c00135604051612dc797969594939291906147a3565b60405180910390a360008460400135118015612dfc57506000612df06040860160208701613b28565b6001600160a01b031614155b8015612e1e57506000612e126020860186613b28565b6001600160a01b031614155b15612acd57612acd33612e346020870187613b28565b60408701803590612e489060208a01613b28565b6001600160a01b03169291905b6040516001600160a01b0380851660248301528316604482015260648101829052612acd9085906323b872dd60e01b906084015b60408051601f198184030181529190526020810180516001600160e01b03166001600160e01b031990931692909217909152613812565b6000610d2c828461454c565b6000610d2c82846147e6565b6040516001600160a01b038316602482015260448101829052611b8990849063a9059cbb60e01b90606401612e89565b6000610d2c82846143c1565b6001600160a01b038216612f6a5760405162461bcd60e51b815260206004820152601f60248201527f45524332303a206d696e7420746f20746865207a65726f2061646472657373006044820152606401610b39565b8060026000828254612f7c91906143c1565b90915550506001600160a01b03821660009081526020819052604081208054839290612fa99084906143c1565b90915550506040518181526001600160a01b038316906000907fddf252ad1be2c89b69c2b068fc378daa952ba7f163c4a11628f55a4df523b3ef9060200160405180910390a35050565b6001600160a01b0382166130535760405162461bcd60e51b815260206004820152602160248201527f45524332303a206275726e2066726f6d20746865207a65726f206164647265736044820152607360f81b6064820152608401610b39565b6001600160a01b038216600090815260208190526040902054818110156130c75760405162461bcd60e51b815260206004820152602260248201527f45524332303a206275726e20616d6f756e7420657863656564732062616c616e604482015261636560f01b6064820152608401610b39565b6001600160a01b03831660009081526020819052604081208383039055600280548492906130f69084906147e6565b90915550506040518281526000906001600160a01b038516907fddf252ad1be2c89b69c2b068fc378daa952ba7f163c4a11628f55a4df523b3ef9060200160405180910390a3505050565b60005b6006548110156131a75760006005600060068481548110613167576131676143f6565b60009182526020808320909101546001600160a01b031683528201929092526040019020805461ffff19169055508061319f816146c7565b915050613144565b506131b460066000613a5c565b6040805142815243602082015233917f712bc71db81927a76b8bf1ea346247bb0ad58f18e4e5c1bd4aa0ec6573e02a2b910160405180910390a2565b600d80546001600160a01b0319166001600160a01b0392909216919091179055565b6001600160a01b03811660009081526005602052604090208054610100900460ff161561328c5760405162461bcd60e51b815260206004820152602260248201527f4552433230526f6c65733a2020414c5245414459204120464545204d414e414760448201526122a960f11b6064820152608401610b39565b805461ff001916610100178155600680546001810182556000919091527ff652222313e28459528d920b65115c16c04f3efc82aaedc97be59f3f377c0d3f0180546001600160a01b0384166001600160a01b03199091168117909155604080514281524360208201523392917fb17da2e9910b4ba5754e8872385ba315a238bafb5ae221fc85093c33432c40a791016128f7565b60008084600081518110613336576133366143f6565b60200260200101519050600085600181518110613355576133556143f6565b6020026020010151905060006001600160a01b0316826001600160a01b031614156133d75760405162461bcd60e51b815260206004820152602c60248201527f455243323054656d706c6174653a20496e76616c6964206d696e7465722c202060448201526b7a65726f206164647265737360a01b6064820152608401610b39565b6001600160a01b0381166134535760405162461bcd60e51b815260206004820152603c60248201527f455243323054656d706c6174653a20496e76616c696420636f6d6d756e69747960448201527f2066656520636f6c6c6563746f722c207a65726f2061646472657373000000006064820152608401610b39565b84600081518110613466576134666143f6565b6020026020010151600014156134ca5760405162461bcd60e51b8152602060048201526024808201527f44617461746f6b656e54656d706c6174653a20496e76616c6964206361702076604482015263616c756560e01b6064820152608401610b39565b846000815181106134dd576134dd6143f6565b6020026020010151600a81905550876000815181106134fe576134fe6143f6565b60200260200101516008908051906020019061351b929190613a7a565b508760018151811061352f5761352f6143f6565b60200260200101516009908051906020019061354c929190613a7a565b50600c80546001600160a01b0319166001600160a01b03841617905585518690600290811061357d5761357d6143f6565b6020908102919091010151601380546001600160a01b039283166001600160a01b0319909116179055600b80546001600160a81b03191691831691909117600160a01b17905586516135da9088906000906117d2576117d26143f6565b60006001600160a01b0316876001815181106135f8576135f86143f6565b60200260200101516001600160a01b0316146136a25761363187600181518110613624576136246143f6565b60200260200101516131f0565b86600181518110613644576136446143f6565b60200260200101516001600160a01b0316336001600160a01b03167f4d7694d695c57cc54947177c8e8a0e61aae664e9223492a798c32fadfc6419cc4243604051613699929190918252602082015260400190565b60405180910390a35b866002815181106136b5576136b56143f6565b6020026020010151600e60006101000a8154816001600160a01b0302191690836001600160a01b03160217905550866003815181106136f6576136f66143f6565b6020026020010151600f60006101000a8154816001600160a01b0302191690836001600160a01b0316021790555084600181518110613737576137376143f6565b602002602001015160108190555060004690507f8b73c3c69bb8fe3d512ecc4cf759cc79239f7b179b0ffacaa9a75d522b39400f600860405161377a91906147fd565b60408051918290038220828201825260018352603160f81b6020938401528151928301939093528101919091527fc89efdaa54c0f20c7adf612882df0950f5a951637e0307cdcb4c672f298b8bc66060820152608081018290523060a082015260c00160408051808303601f1901815291905280516020909101206011555050600b54600160a01b900460ff16979650505050505050565b6000613867826040518060400160405280602081526020017f5361666545524332303a206c6f772d6c6576656c2063616c6c206661696c6564815250856001600160a01b03166138e49092919063ffffffff16565b805190915015611b8957808060200190518101906138859190614899565b611b895760405162461bcd60e51b815260206004820152602a60248201527f5361666545524332303a204552433230206f7065726174696f6e20646964206e6044820152691bdd081cdd58d8d9595960b21b6064820152608401610b39565b60606138f384846000856138fb565b949350505050565b60608247101561395c5760405162461bcd60e51b815260206004820152602660248201527f416464726573733a20696e73756666696369656e742062616c616e636520666f6044820152651c8818d85b1b60d21b6064820152608401610b39565b843b6139aa5760405162461bcd60e51b815260206004820152601d60248201527f416464726573733a2063616c6c20746f206e6f6e2d636f6e74726163740000006044820152606401610b39565b600080866001600160a01b031685876040516139c691906148b6565b60006040518083038185875af1925050503d8060008114613a03576040519150601f19603f3d011682016040523d82523d6000602084013e613a08565b606091505b5091509150613a18828286613a23565b979650505050505050565b60608315613a32575081610d2c565b825115613a425782518084602001fd5b8160405162461bcd60e51b8152600401610b399190613b71565b5080546000825590600052602060002090810190610dca9190613afe565b828054613a8690614286565b90600052602060002090601f016020900481019282613aa85760008555613aee565b82601f10613ac157805160ff1916838001178555613aee565b82800160010185558215613aee579182015b82811115613aee578251825591602001919060010190613ad3565b50613afa929150613afe565b5090565b5b80821115613afa5760008155600101613aff565b6001600160a01b0381168114610dca57600080fd5b600060208284031215613b3a57600080fd5b8135610d2c81613b13565b60005b83811015613b60578181015183820152602001613b48565b83811115612acd5750506000910152565b6020815260008251806020840152613b90816040850160208701613b45565b601f01601f19169190910160400192915050565b60008060408385031215613bb757600080fd5b8235613bc281613b13565b946020939093013593505050565b8015158114610dca57600080fd5b600080600080600060a08688031215613bf657600080fd5b8535613c0181613b13565b945060208601359350604086013592506060860135613c1f81613bd0565b91506080860135613c2f81613b13565b809150509295509295909350565b600080600060608486031215613c5257600080fd5b8335613c5d81613b13565b92506020840135613c6d81613b13565b929592945050506040919091013590565b60006101008284031215613c9157600080fd5b50919050565b60008060408385031215613caa57600080fd5b8235915060208301356001600160401b03811115613cc757600080fd5b613cd385828601613c7e565b9150509250929050565b600080600060608486031215613cf257600080fd5b8335613cfd81613b13565b92506020840135915060408401356001600160401b03811115613d1f57600080fd5b613d2b86828701613c7e565b9150509250925092565b600060208284031215613d4757600080fd5b5035919050565b600081518084526020808501945080840160005b83811015613d875781516001600160a01b031687529582019590820190600101613d62565b509495945050505050565b602081526000610d2c6020830184613d4e565b634e487b7160e01b600052604160045260246000fd5b604051601f8201601f191681016001600160401b0381118282101715613de357613de3613da5565b604052919050565b60006001600160401b03821115613e0457613e04613da5565b5060051b60200190565b600082601f830112613e1f57600080fd5b81356020613e34613e2f83613deb565b613dbb565b82815260059290921b84018101918181019086841115613e5357600080fd5b8286015b84811015613e6e5780358352918301918301613e57565b509695505050505050565b600082601f830112613e8a57600080fd5b81356020613e9a613e2f83613deb565b82815260059290921b84018101918181019086841115613eb957600080fd5b8286015b84811015613e6e578035613ed081613b13565b8352918301918301613ebd565b600080600060608486031215613ef257600080fd5b83356001600160401b0380821115613f0957600080fd5b613f1587838801613e0e565b94506020860135915080821115613f2b57600080fd5b613f3787838801613e0e565b93506040860135915080821115613f4d57600080fd5b50613d2b86828701613e79565b602080825282518282018190526000919060409081850190868401855b82811015613fa557815180516001600160a01b03168552860151868501529284019290850190600101613f77565b5091979650505050505050565b600080600060608486031215613fc757600080fd5b8335613fd281613b13565b925060208401356001600160401b0380821115613fee57600080fd5b613ffa87838801613e79565b9350604086013591508082111561401057600080fd5b50613d2b86828701613e0e565b6000806020838503121561403057600080fd5b82356001600160401b038082111561404757600080fd5b818501915085601f83011261405b57600080fd5b81358181111561406a57600080fd5b86602082850101111561407c57600080fd5b60209290920196919550909350505050565b60008083601f8401126140a057600080fd5b5081356001600160401b038111156140b757600080fd5b6020830191508360208260051b85010111156140d257600080fd5b9250929050565b60008060008060008060008060008060a08b8d0312156140f857600080fd5b8a356001600160401b038082111561410f57600080fd5b61411b8e838f0161408e565b909c509a5060208d013591508082111561413457600080fd5b6141408e838f0161408e565b909a50985060408d013591508082111561415957600080fd5b6141658e838f0161408e565b909850965060608d013591508082111561417e57600080fd5b61418a8e838f0161408e565b909650945060808d01359150808211156141a357600080fd5b506141b08d828e0161408e565b915080935050809150509295989b9194979a5092959850565b803560ff811681146141da57600080fd5b919050565b600080600080600080600060e0888a0312156141fa57600080fd5b873561420581613b13565b9650602088013561421581613b13565b95506040880135945060608801359350614231608089016141c9565b925060a0880135915060c0880135905092959891949750929550565b6000806040838503121561426057600080fd5b823561426b81613b13565b9150602083013561427b81613b13565b809150509250929050565b600181811c9082168061429a57607f821691505b60208210811415613c9157634e487b7160e01b600052602260045260246000fd5b6000608082840312156142cd57600080fd5b604051608081018181106001600160401b03821117156142ef576142ef613da5565b60405282516142fd81613bd0565b8152602083015161430d81613bd0565b6020820152604083015161432081613bd0565b6040820152606083015161433381613bd0565b60608201529392505050565b6020808252818101527f455243323054656d706c6174653a204e4f54204445504c4f59455220524f4c45604082015260600190565b6020808252601f908201527f5265656e7472616e637947756172643a207265656e7472616e742063616c6c00604082015260600190565b634e487b7160e01b600052601160045260246000fd5b600082198211156143d4576143d46143ab565b500190565b6000602082840312156143eb57600080fd5b8151610d2c81613b13565b634e487b7160e01b600052603260045260246000fd5b60006020828403121561441e57600080fd5b5051919050565b600081518084526020808501945080840160005b83811015613d8757815187529582019590820190600101614439565b60008186825b60028110156144835781516001600160a01b031683526020928301929091019060010161445b565b50505060a0604083015261449a60a0830186614425565b82810360608401526144ac8186614425565b90508281036080840152613a188185613d4e565b6001600160a01b03841681526060602082018190526000906144e490830185613d4e565b82810360408401526144f68185614425565b9695505050505050565b81835281816020850137506000828201602090810191909152601f909101601f19169091010190565b838152604060208201526000614543604083018486614500565b95945050505050565b60008261456957634e487b7160e01b600052601260045260246000fd5b500490565b60006001600160401b0383111561458757614587613da5565b61459a601f8401601f1916602001613dbb565b90508281528383830111156145ae57600080fd5b828260208301376000602084830101529392505050565b60006145d3613e2f84613deb565b80848252602080830192508560051b8501368111156145f157600080fd5b855b818110156146405780356001600160401b038111156146125760008081fd5b870136601f8201126146245760008081fd5b61463236823586840161456e565b8652509382019382016145f3565b50919695505050505050565b600061465a613e2f84613deb565b80848252602080830192508560051b85013681111561467857600080fd5b855b818110156146405780356001600160401b038111156146995760008081fd5b870136601f8201126146ab5760008081fd5b6146b936823586840161456e565b86525093820193820161467a565b60006000198214156146db576146db6143ab565b5060010190565b6000808335601e198436030181126146f957600080fd5b8301803591506001600160401b0382111561471357600080fd5b6020019150368190038213156140d257600080fd5b858782376bffffffffffffffffffffffff19606095861b8116969091019586529290931b909116601484015260288301526048820152606801919050565b60008351614778818460208801613b45565b9190910191825250602001919050565b60006020828403121561479a57600080fd5b610d2c826141c9565b87815260c0602082015260006147bd60c08301888a614500565b905060ff861660408301528460608301528360808301528260a083015298975050505050505050565b6000828210156147f8576147f86143ab565b500390565b600080835481600182811c91508083168061481957607f831692505b602080841082141561483957634e487b7160e01b86526022600452602486fd5b81801561484d576001811461485e5761488b565b60ff1986168952848901965061488b565b60008a81526020902060005b868110156148835781548b82015290850190830161486a565b505084890196505b509498975050505050505050565b6000602082840312156148ab57600080fd5b8151610d2c81613bd0565b600082516148c8818460208701613b45565b919091019291505056fea26469706673582212209e9218461f4a5c4a250bf694a6f583e8c0030a6725e24829788fa867b139b25b64736f6c634300080a0033",
  "linkReferences": {},
  "deployedLinkReferences": {}
}