{
  "_format": "hh-sol-artifact-1",
  "contractName": "ERC20Template",
  "sourceName": "contracts/templates/ERC20Template.sol",
  "abi": [
    {
      "anonymous": false,
      "inputs": [
        {
          "indexed": true,
          "internalType": "address",
          "name": "user",
          "type": "address"
        },
        {
          "indexed": true,
          "internalType": "address",
          "name": "signer",
          "type": "address"
        },
        {
          "indexed": false,
          "internalType": "uint256",
          "name": "timestamp",
          "type": "uint256"
        },
        {
          "indexed": false,
          "internalType": "uint256",
          "name": "blockNumber",
          "type": "uint256"
        }
      ],
      "name": "AddedMinter",
      "type": "event"
    },
    {
      "anonymous": false,
      "inputs": [
        {
          "indexed": true,
          "internalType": "address",
          "name": "user",
          "type": "address"
        },
        {
          "indexed": true,
          "internalType": "address",
          "name": "signer",
          "type": "address"
        },
        {
          "indexed": false,
          "internalType": "uint256",
          "name": "timestamp",
          "type": "uint256"
        },
        {
          "indexed": false,
          "internalType": "uint256",
          "name": "blockNumber",
          "type": "uint256"
        }
      ],
      "name": "AddedPaymentManager",
      "type": "event"
    },
    {
      "anonymous": false,
      "inputs": [
        {
          "indexed": true,
          "internalType": "address",
          "name": "owner",
          "type": "address"
        },
        {
          "indexed": true,
          "internalType": "address",
          "name": "spender",
          "type": "address"
        },
        {
          "indexed": false,
          "internalType": "uint256",
          "name": "value",
          "type": "uint256"
        }
      ],
      "name": "Approval",
      "type": "event"
    },
    {
      "anonymous": false,
      "inputs": [
        {
          "indexed": true,
          "internalType": "address",
          "name": "signer",
          "type": "address"
        },
        {
          "indexed": false,
          "internalType": "uint256",
          "name": "timestamp",
          "type": "uint256"
        },
        {
          "indexed": false,
          "internalType": "uint256",
          "name": "blockNumber",
          "type": "uint256"
        }
      ],
      "name": "CleanedPermissions",
      "type": "event"
    },
    {
      "anonymous": false,
      "inputs": [
        {
          "indexed": false,
          "internalType": "address",
          "name": "currentMinter",
          "type": "address"
        },
        {
          "indexed": false,
          "internalType": "address",
          "name": "newMinter",
          "type": "address"
        }
      ],
      "name": "MinterApproved",
      "type": "event"
    },
    {
      "anonymous": false,
      "inputs": [
        {
          "indexed": false,
          "internalType": "address",
          "name": "currentMinter",
          "type": "address"
        },
        {
          "indexed": false,
          "internalType": "address",
          "name": "newMinter",
          "type": "address"
        }
      ],
      "name": "MinterProposed",
      "type": "event"
    },
    {
      "anonymous": false,
      "inputs": [
        {
          "indexed": false,
          "internalType": "bytes32",
          "name": "exchangeId",
          "type": "bytes32"
        },
        {
          "indexed": false,
          "internalType": "address",
          "name": "owner",
          "type": "address"
        }
      ],
      "name": "NewFixedRate",
      "type": "event"
    },
    {
      "anonymous": false,
      "inputs": [
        {
          "indexed": true,
          "internalType": "address",
          "name": "caller",
          "type": "address"
        },
        {
          "indexed": true,
          "internalType": "address",
          "name": "_newPaymentCollector",
          "type": "address"
        },
        {
          "indexed": false,
          "internalType": "uint256",
          "name": "timestamp",
          "type": "uint256"
        },
        {
          "indexed": false,
          "internalType": "uint256",
          "name": "blockNumber",
          "type": "uint256"
        }
      ],
      "name": "NewPaymentCollector",
      "type": "event"
    },
    {
      "anonymous": false,
      "inputs": [
        {
          "indexed": false,
          "internalType": "address",
          "name": "poolAddress",
          "type": "address"
        },
        {
          "indexed": false,
          "internalType": "address",
          "name": "ssContract",
          "type": "address"
        },
        {
          "indexed": false,
          "internalType": "address",
          "name": "basetokenAddress",
          "type": "address"
        }
      ],
      "name": "NewPool",
      "type": "event"
    },
    {
      "anonymous": false,
      "inputs": [
        {
          "indexed": true,
          "internalType": "address",
          "name": "consumer",
          "type": "address"
        },
        {
          "indexed": false,
          "internalType": "address",
          "name": "payer",
          "type": "address"
        },
        {
          "indexed": false,
          "internalType": "uint256",
          "name": "amount",
          "type": "uint256"
        },
        {
          "indexed": false,
          "internalType": "uint256",
          "name": "serviceIndex",
          "type": "uint256"
        },
        {
          "indexed": false,
          "internalType": "uint256",
          "name": "timestamp",
          "type": "uint256"
        },
        {
          "indexed": true,
          "internalType": "address",
          "name": "publishMarketAddress",
          "type": "address"
        },
        {
          "indexed": false,
          "internalType": "uint256",
          "name": "blockNumber",
          "type": "uint256"
        }
      ],
      "name": "OrderStarted",
      "type": "event"
    },
    {
      "anonymous": false,
      "inputs": [
        {
          "indexed": true,
          "internalType": "address",
          "name": "providerFeeAddress",
          "type": "address"
        },
        {
          "indexed": true,
          "internalType": "address",
          "name": "providerFeeToken",
          "type": "address"
        },
        {
          "indexed": false,
          "internalType": "uint256",
          "name": "providerFeeAmount",
          "type": "uint256"
        }
      ],
      "name": "ProviderFees",
      "type": "event"
    },
    {
      "anonymous": false,
      "inputs": [
        {
          "indexed": true,
          "internalType": "address",
          "name": "PublishMarketFeeAddress",
          "type": "address"
        },
        {
          "indexed": true,
          "internalType": "address",
          "name": "PublishMarketFeeToken",
          "type": "address"
        },
        {
          "indexed": false,
          "internalType": "uint256",
          "name": "PublishMarketFeeAmount",
          "type": "uint256"
        }
      ],
      "name": "PublishMarketFees",
      "type": "event"
    },
    {
      "anonymous": false,
      "inputs": [
        {
          "indexed": false,
          "internalType": "address",
          "name": "caller",
          "type": "address"
        },
        {
          "indexed": false,
          "internalType": "address",
          "name": "PublishMarketFeeAddress",
          "type": "address"
        },
        {
          "indexed": false,
          "internalType": "address",
          "name": "PublishMarketFeeToken",
          "type": "address"
        },
        {
          "indexed": false,
          "internalType": "uint256",
          "name": "PublishMarketFeeAmount",
          "type": "uint256"
        }
      ],
      "name": "PublishMarketFeesChanged",
      "type": "event"
    },
    {
      "anonymous": false,
      "inputs": [
        {
          "indexed": true,
          "internalType": "address",
          "name": "user",
          "type": "address"
        },
        {
          "indexed": true,
          "internalType": "address",
          "name": "signer",
          "type": "address"
        },
        {
          "indexed": false,
          "internalType": "uint256",
          "name": "timestamp",
          "type": "uint256"
        },
        {
          "indexed": false,
          "internalType": "uint256",
          "name": "blockNumber",
          "type": "uint256"
        }
      ],
      "name": "RemovedMinter",
      "type": "event"
    },
    {
      "anonymous": false,
      "inputs": [
        {
          "indexed": true,
          "internalType": "address",
          "name": "user",
          "type": "address"
        },
        {
          "indexed": true,
          "internalType": "address",
          "name": "signer",
          "type": "address"
        },
        {
          "indexed": false,
          "internalType": "uint256",
          "name": "timestamp",
          "type": "uint256"
        },
        {
          "indexed": false,
          "internalType": "uint256",
          "name": "blockNumber",
          "type": "uint256"
        }
      ],
      "name": "RemovedPaymentManager",
      "type": "event"
    },
    {
      "anonymous": false,
      "inputs": [
        {
          "indexed": true,
          "internalType": "address",
          "name": "from",
          "type": "address"
        },
        {
          "indexed": true,
          "internalType": "address",
          "name": "to",
          "type": "address"
        },
        {
          "indexed": false,
          "internalType": "uint256",
          "name": "value",
          "type": "uint256"
        }
      ],
      "name": "Transfer",
      "type": "event"
    },
    {
      "stateMutability": "payable",
      "type": "fallback"
    },
    {
      "inputs": [],
      "name": "BASE",
      "outputs": [
        {
          "internalType": "uint256",
          "name": "",
          "type": "uint256"
        }
      ],
      "stateMutability": "view",
      "type": "function"
    },
    {
      "inputs": [],
      "name": "BASE_COMMUNITY_FEE_PERCENTAGE",
      "outputs": [
        {
          "internalType": "uint256",
          "name": "",
          "type": "uint256"
        }
      ],
      "stateMutability": "view",
      "type": "function"
    },
    {
      "inputs": [],
      "name": "DOMAIN_SEPARATOR",
      "outputs": [
        {
          "internalType": "bytes32",
          "name": "",
          "type": "bytes32"
        }
      ],
      "stateMutability": "view",
      "type": "function"
    },
    {
      "inputs": [],
      "name": "PERMIT_TYPEHASH",
      "outputs": [
        {
          "internalType": "bytes32",
          "name": "",
          "type": "bytes32"
        }
      ],
      "stateMutability": "view",
      "type": "function"
    },
    {
      "inputs": [
        {
          "internalType": "address",
          "name": "_minter",
          "type": "address"
        }
      ],
      "name": "addMinter",
      "outputs": [],
      "stateMutability": "nonpayable",
      "type": "function"
    },
    {
      "inputs": [
        {
          "internalType": "address",
          "name": "_paymentManager",
          "type": "address"
        }
      ],
      "name": "addPaymentManager",
      "outputs": [],
      "stateMutability": "nonpayable",
      "type": "function"
    },
    {
      "inputs": [
        {
          "internalType": "address",
          "name": "owner",
          "type": "address"
        },
        {
          "internalType": "address",
          "name": "spender",
          "type": "address"
        }
      ],
      "name": "allowance",
      "outputs": [
        {
          "internalType": "uint256",
          "name": "",
          "type": "uint256"
        }
      ],
      "stateMutability": "view",
      "type": "function"
    },
    {
      "inputs": [
        {
          "internalType": "address",
          "name": "spender",
          "type": "address"
        },
        {
          "internalType": "uint256",
          "name": "amount",
          "type": "uint256"
        }
      ],
      "name": "approve",
      "outputs": [
        {
          "internalType": "bool",
          "name": "",
          "type": "bool"
        }
      ],
      "stateMutability": "nonpayable",
      "type": "function"
    },
    {
      "inputs": [
        {
          "internalType": "uint256",
          "name": "",
          "type": "uint256"
        }
      ],
      "name": "authERC20",
      "outputs": [
        {
          "internalType": "address",
          "name": "",
          "type": "address"
        }
      ],
      "stateMutability": "view",
      "type": "function"
    },
    {
      "inputs": [
        {
          "internalType": "address",
          "name": "account",
          "type": "address"
        }
      ],
      "name": "balanceOf",
      "outputs": [
        {
          "internalType": "uint256",
          "name": "",
          "type": "uint256"
        }
      ],
      "stateMutability": "view",
      "type": "function"
    },
    {
      "inputs": [
        {
          "internalType": "uint256",
          "name": "amount",
          "type": "uint256"
        }
      ],
      "name": "burn",
      "outputs": [],
      "stateMutability": "nonpayable",
      "type": "function"
    },
    {
      "inputs": [
        {
          "internalType": "address",
          "name": "account",
          "type": "address"
        },
        {
          "internalType": "uint256",
          "name": "amount",
          "type": "uint256"
        }
      ],
      "name": "burnFrom",
      "outputs": [],
      "stateMutability": "nonpayable",
      "type": "function"
    },
    {
      "inputs": [],
      "name": "cap",
      "outputs": [
        {
          "internalType": "uint256",
          "name": "",
          "type": "uint256"
        }
      ],
      "stateMutability": "view",
      "type": "function"
    },
    {
      "inputs": [],
      "name": "cleanFrom721",
      "outputs": [],
      "stateMutability": "nonpayable",
      "type": "function"
    },
    {
      "inputs": [],
      "name": "cleanPermissions",
      "outputs": [],
      "stateMutability": "nonpayable",
      "type": "function"
    },
    {
      "inputs": [
        {
          "internalType": "address",
          "name": "_dispenser",
          "type": "address"
        },
        {
          "internalType": "uint256",
          "name": "maxTokens",
          "type": "uint256"
        },
        {
          "internalType": "uint256",
          "name": "maxBalance",
          "type": "uint256"
        },
        {
          "internalType": "bool",
          "name": "withMint",
          "type": "bool"
        },
        {
          "internalType": "address",
          "name": "allowedSwapper",
          "type": "address"
        }
      ],
      "name": "createDispenser",
      "outputs": [],
      "stateMutability": "nonpayable",
      "type": "function"
    },
    {
      "inputs": [
        {
          "internalType": "address",
          "name": "fixedPriceAddress",
          "type": "address"
        },
        {
          "internalType": "address[]",
          "name": "addresses",
          "type": "address[]"
        },
        {
          "internalType": "uint256[]",
          "name": "uints",
          "type": "uint256[]"
        }
      ],
      "name": "createFixedRate",
      "outputs": [
        {
          "internalType": "bytes32",
          "name": "exchangeId",
          "type": "bytes32"
        }
      ],
      "stateMutability": "nonpayable",
      "type": "function"
    },
    {
      "inputs": [],
      "name": "decimals",
      "outputs": [
        {
          "internalType": "uint8",
          "name": "",
          "type": "uint8"
        }
      ],
      "stateMutability": "pure",
      "type": "function"
    },
    {
      "inputs": [
        {
          "internalType": "address",
          "name": "spender",
          "type": "address"
        },
        {
          "internalType": "uint256",
          "name": "subtractedValue",
          "type": "uint256"
        }
      ],
      "name": "decreaseAllowance",
      "outputs": [
        {
          "internalType": "bool",
          "name": "",
          "type": "bool"
        }
      ],
      "stateMutability": "nonpayable",
      "type": "function"
    },
    {
      "inputs": [
        {
          "internalType": "uint256[]",
          "name": "ssParams",
          "type": "uint256[]"
        },
        {
          "internalType": "uint256[]",
          "name": "swapFees",
          "type": "uint256[]"
        },
        {
          "internalType": "address[]",
          "name": "addresses",
          "type": "address[]"
        }
      ],
      "name": "deployPool",
      "outputs": [
        {
          "internalType": "address",
          "name": "pool",
          "type": "address"
        }
      ],
      "stateMutability": "nonpayable",
      "type": "function"
    },
    {
      "inputs": [],
      "name": "getERC721Address",
      "outputs": [
        {
          "internalType": "address",
          "name": "",
          "type": "address"
        }
      ],
      "stateMutability": "view",
      "type": "function"
    },
    {
      "inputs": [],
      "name": "getId",
      "outputs": [
        {
          "internalType": "uint8",
          "name": "",
          "type": "uint8"
        }
      ],
      "stateMutability": "pure",
      "type": "function"
    },
    {
      "inputs": [],
      "name": "getPaymentCollector",
      "outputs": [
        {
          "internalType": "address",
          "name": "",
          "type": "address"
        }
      ],
      "stateMutability": "view",
      "type": "function"
    },
    {
      "inputs": [],
      "name": "getPublishingMarketFee",
      "outputs": [
        {
          "internalType": "address",
          "name": "",
          "type": "address"
        },
        {
          "internalType": "address",
          "name": "",
          "type": "address"
        },
        {
          "internalType": "uint256",
          "name": "",
          "type": "uint256"
        }
      ],
      "stateMutability": "view",
      "type": "function"
    },
    {
      "inputs": [
        {
          "internalType": "address",
          "name": "spender",
          "type": "address"
        },
        {
          "internalType": "uint256",
          "name": "addedValue",
          "type": "uint256"
        }
      ],
      "name": "increaseAllowance",
      "outputs": [
        {
          "internalType": "bool",
          "name": "",
          "type": "bool"
        }
      ],
      "stateMutability": "nonpayable",
      "type": "function"
    },
    {
      "inputs": [
        {
          "internalType": "string[]",
          "name": "strings_",
          "type": "string[]"
        },
        {
          "internalType": "address[]",
          "name": "addresses_",
          "type": "address[]"
        },
        {
          "internalType": "address[]",
          "name": "factoryAddresses_",
          "type": "address[]"
        },
        {
          "internalType": "uint256[]",
          "name": "uints_",
          "type": "uint256[]"
        },
        {
          "internalType": "bytes[]",
          "name": "bytes_",
          "type": "bytes[]"
        }
      ],
      "name": "initialize",
      "outputs": [
        {
          "internalType": "bool",
          "name": "",
          "type": "bool"
        }
      ],
      "stateMutability": "nonpayable",
      "type": "function"
    },
    {
      "inputs": [
        {
          "internalType": "address",
          "name": "user",
          "type": "address"
        }
      ],
      "name": "isERC20Deployer",
      "outputs": [
        {
          "internalType": "bool",
          "name": "deployer",
          "type": "bool"
        }
      ],
      "stateMutability": "nonpayable",
      "type": "function"
    },
    {
      "inputs": [],
      "name": "isInitialized",
      "outputs": [
        {
          "internalType": "bool",
          "name": "",
          "type": "bool"
        }
      ],
      "stateMutability": "view",
      "type": "function"
    },
    {
      "inputs": [
        {
          "internalType": "address",
          "name": "account",
          "type": "address"
        }
      ],
      "name": "isMinter",
      "outputs": [
        {
          "internalType": "bool",
          "name": "",
          "type": "bool"
        }
      ],
      "stateMutability": "view",
      "type": "function"
    },
    {
      "inputs": [
        {
          "internalType": "address",
          "name": "account",
          "type": "address"
        },
        {
          "internalType": "uint256",
          "name": "value",
          "type": "uint256"
        }
      ],
      "name": "mint",
      "outputs": [],
      "stateMutability": "nonpayable",
      "type": "function"
    },
    {
      "inputs": [],
      "name": "name",
      "outputs": [
        {
          "internalType": "string",
          "name": "",
          "type": "string"
        }
      ],
      "stateMutability": "view",
      "type": "function"
    },
    {
      "inputs": [
        {
          "internalType": "address",
          "name": "",
          "type": "address"
        }
      ],
      "name": "nonces",
      "outputs": [
        {
          "internalType": "uint256",
          "name": "",
          "type": "uint256"
        }
      ],
      "stateMutability": "view",
      "type": "function"
    },
    {
      "inputs": [
        {
          "internalType": "address",
          "name": "",
          "type": "address"
        }
      ],
      "name": "permissions",
      "outputs": [
        {
          "internalType": "bool",
          "name": "minter",
          "type": "bool"
        },
        {
          "internalType": "bool",
          "name": "paymentManager",
          "type": "bool"
        }
      ],
      "stateMutability": "view",
      "type": "function"
    },
    {
      "inputs": [
        {
          "internalType": "address",
          "name": "owner",
          "type": "address"
        },
        {
          "internalType": "address",
          "name": "spender",
          "type": "address"
        },
        {
          "internalType": "uint256",
          "name": "value",
          "type": "uint256"
        },
        {
          "internalType": "uint256",
          "name": "deadline",
          "type": "uint256"
        },
        {
          "internalType": "uint8",
          "name": "v",
          "type": "uint8"
        },
        {
          "internalType": "bytes32",
          "name": "r",
          "type": "bytes32"
        },
        {
          "internalType": "bytes32",
          "name": "s",
          "type": "bytes32"
        }
      ],
      "name": "permit",
      "outputs": [],
      "stateMutability": "nonpayable",
      "type": "function"
    },
    {
      "inputs": [
        {
          "internalType": "address",
          "name": "_minter",
          "type": "address"
        }
      ],
      "name": "removeMinter",
      "outputs": [],
      "stateMutability": "nonpayable",
      "type": "function"
    },
    {
      "inputs": [
        {
          "internalType": "address",
          "name": "_paymentManager",
          "type": "address"
        }
      ],
      "name": "removePaymentManager",
      "outputs": [],
      "stateMutability": "nonpayable",
      "type": "function"
    },
    {
      "inputs": [],
      "name": "router",
      "outputs": [
        {
          "internalType": "address",
          "name": "",
          "type": "address"
        }
      ],
      "stateMutability": "view",
      "type": "function"
    },
    {
      "inputs": [
        {
          "internalType": "bytes",
          "name": "_value",
          "type": "bytes"
        }
      ],
      "name": "setData",
      "outputs": [],
      "stateMutability": "nonpayable",
      "type": "function"
    },
    {
      "inputs": [
        {
          "internalType": "address",
          "name": "_newPaymentCollector",
          "type": "address"
        }
      ],
      "name": "setPaymentCollector",
      "outputs": [],
      "stateMutability": "nonpayable",
      "type": "function"
    },
    {
      "inputs": [
        {
          "internalType": "address",
          "name": "_publishMarketFeeAddress",
          "type": "address"
        },
        {
          "internalType": "address",
          "name": "_publishMarketFeeToken",
          "type": "address"
        },
        {
          "internalType": "uint256",
          "name": "_publishMarketFeeAmount",
          "type": "uint256"
        }
      ],
      "name": "setPublishingMarketFee",
      "outputs": [],
      "stateMutability": "nonpayable",
      "type": "function"
    },
    {
      "inputs": [
        {
          "internalType": "address",
          "name": "consumer",
          "type": "address"
        },
        {
          "internalType": "uint256",
          "name": "amount",
          "type": "uint256"
        },
        {
          "internalType": "uint256",
          "name": "serviceIndex",
          "type": "uint256"
        },
        {
          "internalType": "address",
          "name": "providerFeeAddress",
          "type": "address"
        },
        {
          "internalType": "address",
          "name": "providerFeeToken",
          "type": "address"
        },
        {
          "internalType": "uint256",
          "name": "providerFeeAmount",
          "type": "uint256"
        }
      ],
      "name": "startOrder",
      "outputs": [],
      "stateMutability": "nonpayable",
      "type": "function"
    },
    {
      "inputs": [],
      "name": "symbol",
      "outputs": [
        {
          "internalType": "string",
          "name": "",
          "type": "string"
        }
      ],
      "stateMutability": "view",
      "type": "function"
    },
    {
      "inputs": [],
      "name": "totalSupply",
      "outputs": [
        {
          "internalType": "uint256",
          "name": "",
          "type": "uint256"
        }
      ],
      "stateMutability": "view",
      "type": "function"
    },
    {
      "inputs": [
        {
          "internalType": "address",
          "name": "recipient",
          "type": "address"
        },
        {
          "internalType": "uint256",
          "name": "amount",
          "type": "uint256"
        }
      ],
      "name": "transfer",
      "outputs": [
        {
          "internalType": "bool",
          "name": "",
          "type": "bool"
        }
      ],
      "stateMutability": "nonpayable",
      "type": "function"
    },
    {
      "inputs": [
        {
          "internalType": "address",
          "name": "sender",
          "type": "address"
        },
        {
          "internalType": "address",
          "name": "recipient",
          "type": "address"
        },
        {
          "internalType": "uint256",
          "name": "amount",
          "type": "uint256"
        }
      ],
      "name": "transferFrom",
      "outputs": [
        {
          "internalType": "bool",
          "name": "",
          "type": "bool"
        }
      ],
      "stateMutability": "nonpayable",
      "type": "function"
    },
    {
      "inputs": [],
      "name": "withdrawETH",
      "outputs": [],
      "stateMutability": "payable",
      "type": "function"
    }
  ],
  "bytecode": "0x6080604052600b805460ff60a01b191690553480156200001e57600080fd5b5060408051808201825260048152631d195cdd60e21b60208083019182528351808501909452600a8452691d195cdd14de5b589bdb60b21b9084015281519192916200006d9160039162000091565b5080516200008390600490602084019062000091565b505060016007555062000174565b8280546200009f9062000137565b90600052602060002090601f016020900481019282620000c357600085556200010e565b82601f10620000de57805160ff19168380011785556200010e565b828001600101855582156200010e579182015b828111156200010e578251825591602001919060010190620000f1565b506200011c92915062000120565b5090565b5b808211156200011c576000815560010162000121565b600181811c908216806200014c57607f821691505b602082108114156200016e57634e487b7160e01b600052602260045260246000fd5b50919050565b613f9e80620001846000396000f3fe6080604052600436106102675760003560e01c806370a0823111610143578063aa492ef9116100bb578063e086e5ec11610077578063e086e5ec14610807578063e487c2e81461080f578063ec342ad014610824578063ef867ff414610840578063f887ea4014610860578063fda9dae71461088057005b8063aa492ef91461072c578063ab62f0e11461074c578063b2263a5d1461076c578063b3998be014610781578063d505accf146107a1578063dd62ed3e146107c157005b806395d89b411161010a57806395d89b411461065e57806396fb3eaf14610673578063983b2d5614610693578063a457c2d7146106b3578063a9059cbb146106d3578063aa271e1a146106f357005b806370a08231146105a657806379cc6790146105dc5780637ecebe00146105fc57806382c03da5146106295780638b96412b1461063e57005b8063355274ea116101e157806342966c681161019d57806342966c68146104fd5780634f189cb21461051d57806357a3a31b1461053257806357ad5ff6146105525780635bfe4da0146105725780635d1ca6311461059257005b8063355274ea146104375780633644e5151461044c578063392e53cd146104625780633950935114610481578063397b3743146104a157806340c10f19146104dd57005b8063191c918a11610230578063191c918a1461036157806323b872dd1461038157806325b00243146103a15780633092afd5146103c157806330adf81f146103e1578063313ce5671461041557005b80627ffb781461026957806301e88208146102a057806306fdde03146102f0578063095ea7b31461031257806318160ddd14610342575b005b34801561027557600080fd5b50600c546001600160a01b03165b6040516001600160a01b0390911681526020015b60405180910390f35b3480156102ac57600080fd5b506102d96102bb366004613385565b60056020526000908152604090205460ff8082169161010090041682565b604080519215158352901515602083015201610297565b3480156102fc57600080fd5b506103056108a0565b60405161029791906133ce565b34801561031e57600080fd5b5061033261032d366004613401565b610932565b6040519015158152602001610297565b34801561034e57600080fd5b506002545b604051908152602001610297565b34801561036d57600080fd5b5061026761037c36600461343b565b610948565b34801561038d57600080fd5b5061033261039c36600461349a565b610aa3565b3480156103ad57600080fd5b506102676103bc366004613385565b610b4f565b3480156103cd57600080fd5b506102676103dc366004613385565b610be9565b3480156103ed57600080fd5b506103537f6e71edae12b1b97f4d1f60370fef10105fa2faae0126114a169c64845d6126c981565b34801561042157600080fd5b5060125b60405160ff9091168152602001610297565b34801561044357600080fd5b50600a54610353565b34801561045857600080fd5b5061035360115481565b34801561046e57600080fd5b50600b54600160a01b900460ff16610332565b34801561048d57600080fd5b5061033261049c366004613401565b610c80565b3480156104ad57600080fd5b50600e54600f54601054604080516001600160a01b03948516815293909216602084015290820152606001610297565b3480156104e957600080fd5b506102676104f8366004613401565b610cbc565b34801561050957600080fd5b506102676105183660046134db565b610d8d565b34801561052957600080fd5b50610267610d97565b34801561053e57600080fd5b5061026761054d366004613385565b610e7e565b34801561055e57600080fd5b5061026761056d36600461349a565b610fc0565b34801561057e57600080fd5b5061028361058d36600461362e565b611114565b34801561059e57600080fd5b506001610425565b3480156105b257600080fd5b506103536105c1366004613385565b6001600160a01b031660009081526020819052604090205490565b3480156105e857600080fd5b506102676105f7366004613401565b6113fa565b34801561060857600080fd5b50610353610617366004613385565b60126020526000908152604090205481565b34801561063557600080fd5b50610267611480565b34801561064a57600080fd5b506103536106593660046136b6565b6114da565b34801561066a57600080fd5b506103056116a7565b34801561067f57600080fd5b5061033261068e366004613385565b6116b6565b34801561069f57600080fd5b506102676106ae366004613385565b611731565b3480156106bf57600080fd5b506103326106ce366004613401565b6117c8565b3480156106df57600080fd5b506103326106ee366004613401565b611861565b3480156106ff57600080fd5b5061033261070e366004613385565b6001600160a01b031660009081526005602052604090205460ff1690565b34801561073857600080fd5b50610267610747366004613385565b61186e565b34801561075857600080fd5b50610267610767366004613722565b611905565b34801561077857600080fd5b50610353611a36565b34801561078d57600080fd5b5061033261079c3660046137e0565b611a4c565b3480156107ad57600080fd5b506102676107bc3660046138d1565b611b86565b3480156107cd57600080fd5b506103536107dc366004613948565b6001600160a01b03918216600090815260016020908152604080832093909416825291909152205490565b610267611d98565b34801561081b57600080fd5b50610283611dd8565b34801561083057600080fd5b50610353670de0b6b3a764000081565b34801561084c57600080fd5b5061028361085b3660046134db565b611e6d565b34801561086c57600080fd5b50601354610283906001600160a01b031681565b34801561088c57600080fd5b5061026761089b366004613981565b611e97565b6060600880546108af906139e8565b80601f01602080910402602001604051908101604052809291908181526020018280546108db906139e8565b80156109285780601f106108fd57610100808354040283529160200191610928565b820191906000526020600020905b81548152906001019060200180831161090b57829003601f168201915b5050505050905090565b600061093f3384846121fb565b50600192915050565b600c5460405163160a792560e01b81523360048201526001600160a01b039091169063160a7925906024016080604051808303816000875af1158015610992573d6000803e3d6000fd5b505050506040513d601f19601f820116820180604052508101906109b69190613a23565b602001516109df5760405162461bcd60e51b81526004016109d690613aa8565b60405180910390fd5b60026007541415610a025760405162461bcd60e51b81526004016109d690613add565b6002600755601354604051636b14d00560e11b81526001600160a01b038781166004830152306024830152604482018790526064820186905233608483015283811660a48301529091169063d629a00a9060c401600060405180830381600087803b158015610a7057600080fd5b505af1158015610a84573d6000803e3d6000fd5b505050508115610a9757610a978561231f565b50506001600755505050565b6000610ab0848484612421565b6001600160a01b038416600090815260016020908152604080832033845290915290205482811015610b355760405162461bcd60e51b815260206004820152602860248201527f45524332303a207472616e7366657220616d6f756e74206578636565647320616044820152676c6c6f77616e636560c01b60648201526084016109d6565b610b4285338584036121fb565b60019150505b9392505050565b600c5460405163160a792560e01b81523360048201526001600160a01b039091169063160a7925906024016080604051808303816000875af1158015610b99573d6000803e3d6000fd5b505050506040513d601f19601f82011682018060405250810190610bbd9190613a23565b60200151610bdd5760405162461bcd60e51b81526004016109d690613aa8565b610be6816125f1565b50565b600c5460405163160a792560e01b81523360048201526001600160a01b039091169063160a7925906024016080604051808303816000875af1158015610c33573d6000803e3d6000fd5b505050506040513d601f19601f82011682018060405250810190610c579190613a23565b60200151610c775760405162461bcd60e51b81526004016109d690613aa8565b610be681612652565b3360008181526001602090815260408083206001600160a01b0387168452909152812054909161093f918590610cb7908690613b2a565b6121fb565b3360009081526005602052604090205460ff16610d1b5760405162461bcd60e51b815260206004820152601960248201527f455243323054656d706c6174653a204e4f54204d494e5445520000000000000060448201526064016109d6565b600a54610d3182610d2b60025490565b906126b2565b1115610d7f5760405162461bcd60e51b815260206004820152601f60248201527f44617461546f6b656e54656d706c6174653a206361702065786365656465640060448201526064016109d6565b610d8982826126be565b5050565b610be6338261279d565b600c546040516331a9108f60e11b8152600160048201526001600160a01b0390911690636352211e90602401602060405180830381865afa158015610de0573d6000803e3d6000fd5b505050506040513d601f19601f82011682018060405250810190610e049190613b42565b6001600160a01b0316336001600160a01b031614610e645760405162461bcd60e51b815260206004820152601b60248201527f455243323054656d706c6174653a206e6f74204e46544f776e6572000000000060448201526064016109d6565b610e6c6128eb565b600d80546001600160a01b0319169055565b33600090815260056020526040902054610100900460ff1680610f0f5750600c5460405163160a792560e01b81523360048201526001600160a01b039091169063160a7925906024016080604051808303816000875af1158015610ee6573d6000803e3d6000fd5b505050506040513d601f19601f82011682018060405250810190610f0a9190613a23565b602001515b610f6f5760405162461bcd60e51b815260206004820152602b60248201527f455243323054656d706c6174653a204e4f54205041594d454e54204d414e414760448201526a22a91037b91027aba722a960a91b60648201526084016109d6565b610f788161299a565b604080514281524360208201526001600160a01b0383169133917f4d7694d695c57cc54947177c8e8a0e61aae664e9223492a798c32fadfc6419cc910160405180910390a350565b600e546001600160a01b0316331461102d5760405162461bcd60e51b815260206004820152602a60248201527f455243323054656d706c6174653a206e6f74207075626c6973684d61726b65746044820152694665654164647265737360b01b60648201526084016109d6565b6001600160a01b0383166110945760405162461bcd60e51b815260206004820152602860248201527f496e76616c6964205f7075626c6973684d61726b657446656541646472657373604482015267206164647265737360c01b60648201526084016109d6565b600e80546001600160a01b038581166001600160a01b03199283168117909355600f80549186169190921681179091556010839055604080513381526020810193909352820152606081018290527fe0b85b6f04fa914cf57f6401c5672a83a32b1c388d194c3d78e17f2897d46f439060800160405180910390a1505050565b600c5460405163160a792560e01b81523360048201526000916001600160a01b03169063160a7925906024016080604051808303816000875af115801561115f573d6000803e3d6000fd5b505050506040513d601f19601f820116820180604052508101906111839190613a23565b602001516111a35760405162461bcd60e51b81526004016109d690613aa8565b600254156111ff5760405162461bcd60e51b8152602060048201526024808201527f455243323054656d706c6174653a20746f6b656e7320616c7265616479206d696044820152631b9d195960e21b60648201526084016109d6565b6112228260008151811061121557611215613b5f565b602002602001015161231f565b622504908460038151811061123957611239613b5f565b6020026020010151116112a05760405162461bcd60e51b815260206004820152602960248201527f455243323054656d706c6174653a206d696e696d756d20626c6f636b73206e6f6044820152681d081c995858da195960ba1b60648201526084016109d6565b60006040518060400160405280306001600160a01b03166001600160a01b03168152602001846001815181106112d8576112d8613b5f565b60209081029190910101516001600160a01b0390811690915260135460405163ee3bc63560e01b8152929350169063ee3bc63590611320908490899089908990600401613be9565b6020604051808303816000875af115801561133f573d6000803e3d6000fd5b505050506040513d601f19601f820116820180604052508101906113639190613b42565b91507fd02da1bec30f7f750aa0a131745dfb9ce96767c45a192dc26409f5d690e0b967828460008151811061139a5761139a613b5f565b6020026020010151856001815181106113b5576113b5613b5f565b60200260200101516040516113ea939291906001600160a01b0393841681529183166020830152909116604082015260600190565b60405180910390a1509392505050565b600061140683336107dc565b9050818110156114645760405162461bcd60e51b8152602060048201526024808201527f45524332303a206275726e20616d6f756e74206578636565647320616c6c6f77604482015263616e636560e01b60648201526084016109d6565b61147183338484036121fb565b61147b838361279d565b505050565b600c546001600160a01b03163314610e645760405162461bcd60e51b815260206004820152601f60248201527f455243323054656d706c6174653a204e4f542037323120436f6e74726163740060448201526064016109d6565b600c5460405163160a792560e01b81523360048201526000916001600160a01b03169063160a7925906024016080604051808303816000875af1158015611525573d6000803e3d6000fd5b505050506040513d601f19601f820116820180604052508101906115499190613a23565b602001516115695760405162461bcd60e51b81526004016109d690613aa8565b6002600754141561158c5760405162461bcd60e51b81526004016109d690613add565b6002600755601354604051638244937560e01b81526001600160a01b03909116906382449375906115c590879087908790600401613c54565b6020604051808303816000875af11580156115e4573d6000803e3d6000fd5b505050506040513d601f19601f820116820180604052508101906116089190613c94565b905060008260048151811061161f5761161f613b5f565b60200260200101511115611636576116368461231f565b7f195d202f33578769e120c3041341554af3193e67ee004175095bc9c06e6e6165818460008151811061166b5761166b613b5f565b60200260200101516040516116939291909182526001600160a01b0316602082015260400190565b60405180910390a160016007559392505050565b6060600980546108af906139e8565b600c5460405163160a792560e01b81526001600160a01b038381166004830152600092169063160a7925906024016080604051808303816000875af1158015611703573d6000803e3d6000fd5b505050506040513d601f19601f820116820180604052508101906117279190613a23565b6020015192915050565b600c5460405163160a792560e01b81523360048201526001600160a01b039091169063160a7925906024016080604051808303816000875af115801561177b573d6000803e3d6000fd5b505050506040513d601f19601f8201168201806040525081019061179f9190613a23565b602001516117bf5760405162461bcd60e51b81526004016109d690613aa8565b610be68161231f565b3360009081526001602090815260408083206001600160a01b03861684529091528120548281101561184a5760405162461bcd60e51b815260206004820152602560248201527f45524332303a2064656372656173656420616c6c6f77616e63652062656c6f77604482015264207a65726f60d81b60648201526084016109d6565b61185733858584036121fb565b5060019392505050565b600061093f338484612421565b600c5460405163160a792560e01b81523360048201526001600160a01b039091169063160a7925906024016080604051808303816000875af11580156118b8573d6000803e3d6000fd5b505050506040513d601f19601f820116820180604052508101906118dc9190613a23565b602001516118fc5760405162461bcd60e51b81526004016109d690613aa8565b610be6816129bc565b600c5460405163160a792560e01b81523360048201526001600160a01b039091169063160a7925906024016080604051808303816000875af115801561194f573d6000803e3d6000fd5b505050506040513d601f19601f820116820180604052508101906119739190613a23565b602001516119935760405162461bcd60e51b81526004016109d690613aa8565b6040516bffffffffffffffffffffffff193060601b16602082015260009060340160408051601f19818403018152908290528051602090910120600c546301caf8fd60e31b83529092506001600160a01b031690630e57c7e8906119ff90849087908790600401613cad565b600060405180830381600087803b158015611a1957600080fd5b505af1158015611a2d573d6000803e3d6000fd5b50505050505050565b611a496064670de0b6b3a7640000613ce3565b81565b600b54600090600160a01b900460ff1615611ac35760405162461bcd60e51b815260206004820152603160248201527f455243323054656d706c6174653a20746f6b656e20696e7374616e636520616c6044820152701c9958591e481a5b9a5d1a585b1a5e9959607a1b60648201526084016109d6565b611b77611ad08b8d613d5d565b8a8a8080602002602001604051908101604052809392919081815260200183836020028082843760009201919091525050604080516020808e0282810182019093528d82529093508d92508c91829185019084908082843760009201919091525050604080516020808d0282810182019093528c82529093508c92508b918291850190849080828437600092019190915250611b7292508991508a9050613de5565b612aca565b9b9a5050505050505050505050565b43841015611bc95760405162461bcd60e51b815260206004820152601060248201526f115490cc8c11150e881156141254915160821b60448201526064016109d6565b6011546001600160a01b038816600090815260126020526040812080549192917f6e71edae12b1b97f4d1f60370fef10105fa2faae0126114a169c64845d6126c9918b918b918b919087611c1c83613e61565b909155506040805160208101969096526001600160a01b0394851690860152929091166060840152608083015260a082015260c0810187905260e00160405160208183030381529060405280519060200120604051602001611c9592919061190160f01b81526002810192909252602282015260420190565b60408051601f198184030181528282528051602091820120600080855291840180845281905260ff88169284019290925260608301869052608083018590529092509060019060a0016020604051602081039080840390855afa158015611d00573d6000803e3d6000fd5b5050604051601f1901519150506001600160a01b03811615801590611d365750886001600160a01b0316816001600160a01b0316145b611d825760405162461bcd60e51b815260206004820152601a60248201527f455243323044543a20494e56414c49445f5349474e415455524500000000000060448201526064016109d6565b611d8d8989896121fb565b505050505050505050565b611da0611dd8565b6001600160a01b03166108fc479081150290604051600060405180830381858888f19350505050158015610be6573d6000803e3d6000fd5b600d546000906001600160a01b0316611e5d57600c546040516331a9108f60e11b8152600160048201526001600160a01b0390911690636352211e90602401602060405180830381865afa158015611e34573d6000803e3d6000fd5b505050506040513d601f19601f82011682018060405250810190611e589190613b42565b905090565b50600d546001600160a01b031690565b60068181548110611e7d57600080fd5b6000918252602090912001546001600160a01b0316905081565b60026007541415611eba5760405162461bcd60e51b81526004016109d690613add565b600260075533600090815260208190526040812054861115611f2c5760405162461bcd60e51b815260206004820152602560248201527f4e6f7420656e6f756768204461746120546f6b656e7320746f2073746172742060448201526427b93232b960d91b60648201526084016109d6565b600e5460408051338152602081018990529081018790524260608201524360808201526001600160a01b03918216918916907fe1c4fa794edfa8f619b8257a077398950357b9c6398528f94480307352f9afcc9060a00160405180910390a36000601054118015611fa75750600f546001600160a01b031615155b8015611fbd5750600e546001600160a01b031615155b156120e857601054600f54611fe1916001600160a01b039091169033903090612fbc565b601054611fef906064613027565b600e54601054919250612025916001600160a01b03909116906120129084613033565b600f546001600160a01b0316919061303f565b600f54600e546010546001600160a01b0392831692909116907ff666b31c81334b6085802ba4149907fa724689d43bc31df6de1a51291ddc55b49061206a9085613033565b60405190815260200160405180910390a380156120e857600b54600f5461209e916001600160a01b0391821691168361303f565b600f54600b546040518381526001600160a01b0392831692909116907ff666b31c81334b6085802ba4149907fa724689d43bc31df6de1a51291ddc55b49060200160405180910390a35b60008211801561210057506001600160a01b03831615155b801561211457506001600160a01b03841615155b156121905761212e6001600160a01b038416333085612fbc565b6121426001600160a01b038416858461303f565b826001600160a01b0316846001600160a01b03167f1c540397cffcfd0fa041ec7e0d246506db42327dc3346fe1951185dc734569e48460405161218791815260200190565b60405180910390a35b6121a161219b611dd8565b87611861565b6121ed5760405162461bcd60e51b815260206004820152601e60248201527f4661696c656420746f2073656e6420445420746f207075626c6973686572000060448201526064016109d6565b505060016007555050505050565b6001600160a01b03831661225d5760405162461bcd60e51b8152602060048201526024808201527f45524332303a20617070726f76652066726f6d20746865207a65726f206164646044820152637265737360e01b60648201526084016109d6565b6001600160a01b0382166122be5760405162461bcd60e51b815260206004820152602260248201527f45524332303a20617070726f766520746f20746865207a65726f206164647265604482015261737360f01b60648201526084016109d6565b6001600160a01b0383811660008181526001602090815260408083209487168084529482529182902085905590518481527f8c5be1e5ebec7d5bd14f71427d1e84f3dd0314c0f7b2291e5b200ac8c7c3b925910160405180910390a3505050565b6001600160a01b0381166000908152600560205260409020805460ff16156123895760405162461bcd60e51b815260206004820152601d60248201527f4552433230526f6c65733a2020414c52454144592041204d494e54455200000060448201526064016109d6565b8054600160ff19909116811782556006805491820181556000527ff652222313e28459528d920b65115c16c04f3efc82aaedc97be59f3f377c0d3f0180546001600160a01b0319166001600160a01b038416908117909155604080514281524360208201523392917f4f7e100eb1ee13e903798bd0d6aa854152e07eb05544f392b9409c12935c809591015b60405180910390a35050565b6001600160a01b0383166124855760405162461bcd60e51b815260206004820152602560248201527f45524332303a207472616e736665722066726f6d20746865207a65726f206164604482015264647265737360d81b60648201526084016109d6565b6001600160a01b0382166124e75760405162461bcd60e51b815260206004820152602360248201527f45524332303a207472616e7366657220746f20746865207a65726f206164647260448201526265737360e81b60648201526084016109d6565b6001600160a01b0383166000908152602081905260409020548181101561255f5760405162461bcd60e51b815260206004820152602660248201527f45524332303a207472616e7366657220616d6f756e7420657863656564732062604482015265616c616e636560d01b60648201526084016109d6565b6001600160a01b03808516600090815260208190526040808220858503905591851681529081208054849290612596908490613b2a565b92505081905550826001600160a01b0316846001600160a01b03167fddf252ad1be2c89b69c2b068fc378daa952ba7f163c4a11628f55a4df523b3ef846040516125e291815260200190565b60405180910390a35b50505050565b6001600160a01b03811660008181526005602052604090819020805461ff00191681559051909133917faee911eec8b2df8f3ae0464841541b1e5f339519bd5cf51889fe8b07fecff658906124159042904390918252602082015260400190565b6001600160a01b03811660008181526005602052604090819020805460ff191681559051909133917fefa2735987005aaa89c050c0ff8cc9ae7d9079d19382081c429130f98c52d480906124159042904390918252602082015260400190565b6000610b488284613b2a565b6001600160a01b0382166127145760405162461bcd60e51b815260206004820152601f60248201527f45524332303a206d696e7420746f20746865207a65726f20616464726573730060448201526064016109d6565b80600260008282546127269190613b2a565b90915550506001600160a01b03821660009081526020819052604081208054839290612753908490613b2a565b90915550506040518181526001600160a01b038316906000907fddf252ad1be2c89b69c2b068fc378daa952ba7f163c4a11628f55a4df523b3ef9060200160405180910390a35050565b6001600160a01b0382166127fd5760405162461bcd60e51b815260206004820152602160248201527f45524332303a206275726e2066726f6d20746865207a65726f206164647265736044820152607360f81b60648201526084016109d6565b6001600160a01b038216600090815260208190526040902054818110156128715760405162461bcd60e51b815260206004820152602260248201527f45524332303a206275726e20616d6f756e7420657863656564732062616c616e604482015261636560f01b60648201526084016109d6565b6001600160a01b03831660009081526020819052604081208383039055600280548492906128a0908490613e7c565b90915550506040518281526000906001600160a01b038516907fddf252ad1be2c89b69c2b068fc378daa952ba7f163c4a11628f55a4df523b3ef9060200160405180910390a3505050565b60005b600654811015612951576000600560006006848154811061291157612911613b5f565b60009182526020808320909101546001600160a01b031683528201929092526040019020805461ffff19169055508061294981613e61565b9150506128ee565b5061295e600660006132b9565b6040805142815243602082015233917f712bc71db81927a76b8bf1ea346247bb0ad58f18e4e5c1bd4aa0ec6573e02a2b910160405180910390a2565b600d80546001600160a01b0319166001600160a01b0392909216919091179055565b6001600160a01b03811660009081526005602052604090208054610100900460ff1615612a365760405162461bcd60e51b815260206004820152602260248201527f4552433230526f6c65733a2020414c5245414459204120464545204d414e414760448201526122a960f11b60648201526084016109d6565b805461ff001916610100178155600680546001810182556000919091527ff652222313e28459528d920b65115c16c04f3efc82aaedc97be59f3f377c0d3f0180546001600160a01b0384166001600160a01b03199091168117909155604080514281524360208201523392917fb17da2e9910b4ba5754e8872385ba315a238bafb5ae221fc85093c33432c40a79101612415565b60008084600081518110612ae057612ae0613b5f565b60200260200101519050600085600181518110612aff57612aff613b5f565b6020026020010151905060006001600160a01b0316826001600160a01b03161415612b815760405162461bcd60e51b815260206004820152602c60248201527f455243323054656d706c6174653a20496e76616c6964206d696e7465722c202060448201526b7a65726f206164647265737360a01b60648201526084016109d6565b6001600160a01b038116612bfd5760405162461bcd60e51b815260206004820152603c60248201527f455243323054656d706c6174653a20496e76616c696420636f6d6d756e69747960448201527f2066656520636f6c6c6563746f722c207a65726f20616464726573730000000060648201526084016109d6565b84600081518110612c1057612c10613b5f565b602002602001015160001415612c745760405162461bcd60e51b8152602060048201526024808201527f44617461546f6b656e54656d706c6174653a20496e76616c6964206361702076604482015263616c756560e01b60648201526084016109d6565b84600081518110612c8757612c87613b5f565b6020026020010151600a8190555087600081518110612ca857612ca8613b5f565b602002602001015160089080519060200190612cc59291906132d7565b5087600181518110612cd957612cd9613b5f565b602002602001015160099080519060200190612cf69291906132d7565b50600c80546001600160a01b0319166001600160a01b038416179055855186906002908110612d2757612d27613b5f565b6020908102919091010151601380546001600160a01b039283166001600160a01b0319909116179055600b80546001600160a81b03191691831691909117600160a01b1790558651612d8490889060009061121557611215613b5f565b60006001600160a01b031687600181518110612da257612da2613b5f565b60200260200101516001600160a01b031614612e4c57612ddb87600181518110612dce57612dce613b5f565b602002602001015161299a565b86600181518110612dee57612dee613b5f565b60200260200101516001600160a01b0316336001600160a01b03167f4d7694d695c57cc54947177c8e8a0e61aae664e9223492a798c32fadfc6419cc4243604051612e43929190918252602082015260400190565b60405180910390a35b86600281518110612e5f57612e5f613b5f565b6020026020010151600e60006101000a8154816001600160a01b0302191690836001600160a01b0316021790555086600381518110612ea057612ea0613b5f565b6020026020010151600f60006101000a8154816001600160a01b0302191690836001600160a01b0316021790555084600181518110612ee157612ee1613b5f565b602002602001015160108190555060004690507f8b73c3c69bb8fe3d512ecc4cf759cc79239f7b179b0ffacaa9a75d522b39400f6008604051612f249190613e93565b60408051918290038220828201825260018352603160f81b6020938401528151928301939093528101919091527fc89efdaa54c0f20c7adf612882df0950f5a951637e0307cdcb4c672f298b8bc66060820152608081018290523060a082015260c00160408051808303601f1901815291905280516020909101206011555050600b54600160a01b900460ff16979650505050505050565b6040516001600160a01b03808516602483015283166044820152606481018290526125eb9085906323b872dd60e01b906084015b60408051601f198184030181529190526020810180516001600160e01b03166001600160e01b03199093169290921790915261306f565b6000610b488284613ce3565b6000610b488284613e7c565b6040516001600160a01b03831660248201526044810182905261147b90849063a9059cbb60e01b90606401612ff0565b60006130c4826040518060400160405280602081526020017f5361666545524332303a206c6f772d6c6576656c2063616c6c206661696c6564815250856001600160a01b03166131419092919063ffffffff16565b80519091501561147b57808060200190518101906130e29190613f2f565b61147b5760405162461bcd60e51b815260206004820152602a60248201527f5361666545524332303a204552433230206f7065726174696f6e20646964206e6044820152691bdd081cdd58d8d9595960b21b60648201526084016109d6565b60606131508484600085613158565b949350505050565b6060824710156131b95760405162461bcd60e51b815260206004820152602660248201527f416464726573733a20696e73756666696369656e742062616c616e636520666f6044820152651c8818d85b1b60d21b60648201526084016109d6565b843b6132075760405162461bcd60e51b815260206004820152601d60248201527f416464726573733a2063616c6c20746f206e6f6e2d636f6e747261637400000060448201526064016109d6565b600080866001600160a01b031685876040516132239190613f4c565b60006040518083038185875af1925050503d8060008114613260576040519150601f19603f3d011682016040523d82523d6000602084013e613265565b606091505b5091509150613275828286613280565b979650505050505050565b6060831561328f575081610b48565b82511561329f5782518084602001fd5b8160405162461bcd60e51b81526004016109d691906133ce565b5080546000825590600052602060002090810190610be6919061335b565b8280546132e3906139e8565b90600052602060002090601f016020900481019282613305576000855561334b565b82601f1061331e57805160ff191683800117855561334b565b8280016001018555821561334b579182015b8281111561334b578251825591602001919060010190613330565b5061335792915061335b565b5090565b5b80821115613357576000815560010161335c565b6001600160a01b0381168114610be657600080fd5b60006020828403121561339757600080fd5b8135610b4881613370565b60005b838110156133bd5781810151838201526020016133a5565b838111156125eb5750506000910152565b60208152600082518060208401526133ed8160408501602087016133a2565b601f01601f19169190910160400192915050565b6000806040838503121561341457600080fd5b823561341f81613370565b946020939093013593505050565b8015158114610be657600080fd5b600080600080600060a0868803121561345357600080fd5b853561345e81613370565b94506020860135935060408601359250606086013561347c8161342d565b9150608086013561348c81613370565b809150509295509295909350565b6000806000606084860312156134af57600080fd5b83356134ba81613370565b925060208401356134ca81613370565b929592945050506040919091013590565b6000602082840312156134ed57600080fd5b5035919050565b634e487b7160e01b600052604160045260246000fd5b604051601f8201601f1916810167ffffffffffffffff81118282101715613533576135336134f4565b604052919050565b600067ffffffffffffffff821115613555576135556134f4565b5060051b60200190565b600082601f83011261357057600080fd5b813560206135856135808361353b565b61350a565b82815260059290921b840181019181810190868411156135a457600080fd5b8286015b848110156135bf57803583529183019183016135a8565b509695505050505050565b600082601f8301126135db57600080fd5b813560206135eb6135808361353b565b82815260059290921b8401810191818101908684111561360a57600080fd5b8286015b848110156135bf57803561362181613370565b835291830191830161360e565b60008060006060848603121561364357600080fd5b833567ffffffffffffffff8082111561365b57600080fd5b6136678783880161355f565b9450602086013591508082111561367d57600080fd5b6136898783880161355f565b9350604086013591508082111561369f57600080fd5b506136ac868287016135ca565b9150509250925092565b6000806000606084860312156136cb57600080fd5b83356136d681613370565b9250602084013567ffffffffffffffff808211156136f357600080fd5b6136ff878388016135ca565b9350604086013591508082111561371557600080fd5b506136ac8682870161355f565b6000806020838503121561373557600080fd5b823567ffffffffffffffff8082111561374d57600080fd5b818501915085601f83011261376157600080fd5b81358181111561377057600080fd5b86602082850101111561378257600080fd5b60209290920196919550909350505050565b60008083601f8401126137a657600080fd5b50813567ffffffffffffffff8111156137be57600080fd5b6020830191508360208260051b85010111156137d957600080fd5b9250929050565b60008060008060008060008060008060a08b8d0312156137ff57600080fd5b8a3567ffffffffffffffff8082111561381757600080fd5b6138238e838f01613794565b909c509a5060208d013591508082111561383c57600080fd5b6138488e838f01613794565b909a50985060408d013591508082111561386157600080fd5b61386d8e838f01613794565b909850965060608d013591508082111561388657600080fd5b6138928e838f01613794565b909650945060808d01359150808211156138ab57600080fd5b506138b88d828e01613794565b915080935050809150509295989b9194979a5092959850565b600080600080600080600060e0888a0312156138ec57600080fd5b87356138f781613370565b9650602088013561390781613370565b95506040880135945060608801359350608088013560ff8116811461392b57600080fd5b9699959850939692959460a0840135945060c09093013592915050565b6000806040838503121561395b57600080fd5b823561396681613370565b9150602083013561397681613370565b809150509250929050565b60008060008060008060c0878903121561399a57600080fd5b86356139a581613370565b9550602087013594506040870135935060608701356139c381613370565b925060808701356139d381613370565b8092505060a087013590509295509295509295565b600181811c908216806139fc57607f821691505b60208210811415613a1d57634e487b7160e01b600052602260045260246000fd5b50919050565b600060808284031215613a3557600080fd5b6040516080810181811067ffffffffffffffff82111715613a5857613a586134f4565b6040528251613a668161342d565b81526020830151613a768161342d565b60208201526040830151613a898161342d565b60408201526060830151613a9c8161342d565b60608201529392505050565b6020808252818101527f455243323054656d706c6174653a204e4f54204445504c4f59455220524f4c45604082015260600190565b6020808252601f908201527f5265656e7472616e637947756172643a207265656e7472616e742063616c6c00604082015260600190565b634e487b7160e01b600052601160045260246000fd5b60008219821115613b3d57613b3d613b14565b500190565b600060208284031215613b5457600080fd5b8151610b4881613370565b634e487b7160e01b600052603260045260246000fd5b600081518084526020808501945080840160005b83811015613ba557815187529582019590820190600101613b89565b509495945050505050565b600081518084526020808501945080840160005b83811015613ba55781516001600160a01b031687529582019590820190600101613bc4565b60008186825b6002811015613c175781516001600160a01b0316835260209283019290910190600101613bef565b50505060a06040830152613c2e60a0830186613b75565b8281036060840152613c408186613b75565b905082810360808401526132758185613bb0565b6001600160a01b0384168152606060208201819052600090613c7890830185613bb0565b8281036040840152613c8a8185613b75565b9695505050505050565b600060208284031215613ca657600080fd5b5051919050565b83815260406020820152816040820152818360608301376000818301606090810191909152601f909201601f1916010192915050565b600082613d0057634e487b7160e01b600052601260045260246000fd5b500490565b600067ffffffffffffffff831115613d1f57613d1f6134f4565b613d32601f8401601f191660200161350a565b9050828152838383011115613d4657600080fd5b828260208301376000602084830101529392505050565b6000613d6b6135808461353b565b80848252602080830192508560051b850136811115613d8957600080fd5b855b81811015613dd957803567ffffffffffffffff811115613dab5760008081fd5b870136601f820112613dbd5760008081fd5b613dcb368235868401613d05565b865250938201938201613d8b565b50919695505050505050565b6000613df36135808461353b565b80848252602080830192508560051b850136811115613e1157600080fd5b855b81811015613dd957803567ffffffffffffffff811115613e335760008081fd5b870136601f820112613e455760008081fd5b613e53368235868401613d05565b865250938201938201613e13565b6000600019821415613e7557613e75613b14565b5060010190565b600082821015613e8e57613e8e613b14565b500390565b600080835481600182811c915080831680613eaf57607f831692505b6020808410821415613ecf57634e487b7160e01b86526022600452602486fd5b818015613ee35760018114613ef457613f21565b60ff19861689528489019650613f21565b60008a81526020902060005b86811015613f195781548b820152908501908301613f00565b505084890196505b509498975050505050505050565b600060208284031215613f4157600080fd5b8151610b488161342d565b60008251613f5e8184602087016133a2565b919091019291505056fea26469706673582212202fbc2d81800b968a676e7dae96b920b7184215ae2b2063bfaaddcb71c9876f4f64736f6c634300080a0033",
  "linkReferences": {},
  "deployedLinkReferences": {}
}