{
  "_format": "hh-sol-artifact-1",
  "contractName": "ERC20Template",
  "sourceName": "contracts/templates/ERC20Template.sol",
  "abi": [
    {
      "anonymous": false,
      "inputs": [
        {
          "indexed": true,
          "internalType": "address",
          "name": "user",
          "type": "address"
        },
        {
          "indexed": true,
          "internalType": "address",
          "name": "signer",
          "type": "address"
        },
        {
          "indexed": false,
          "internalType": "uint256",
          "name": "timestamp",
          "type": "uint256"
        },
        {
          "indexed": false,
          "internalType": "uint256",
          "name": "blockNumber",
          "type": "uint256"
        }
      ],
      "name": "AddedMinter",
      "type": "event"
    },
    {
      "anonymous": false,
      "inputs": [
        {
          "indexed": true,
          "internalType": "address",
          "name": "user",
          "type": "address"
        },
        {
          "indexed": true,
          "internalType": "address",
          "name": "signer",
          "type": "address"
        },
        {
          "indexed": false,
          "internalType": "uint256",
          "name": "timestamp",
          "type": "uint256"
        },
        {
          "indexed": false,
          "internalType": "uint256",
          "name": "blockNumber",
          "type": "uint256"
        }
      ],
      "name": "AddedPaymentManager",
      "type": "event"
    },
    {
      "anonymous": false,
      "inputs": [
        {
          "indexed": true,
          "internalType": "address",
          "name": "owner",
          "type": "address"
        },
        {
          "indexed": true,
          "internalType": "address",
          "name": "spender",
          "type": "address"
        },
        {
          "indexed": false,
          "internalType": "uint256",
          "name": "value",
          "type": "uint256"
        }
      ],
      "name": "Approval",
      "type": "event"
    },
    {
      "anonymous": false,
      "inputs": [
        {
          "indexed": true,
          "internalType": "address",
          "name": "signer",
          "type": "address"
        },
        {
          "indexed": false,
          "internalType": "uint256",
          "name": "timestamp",
          "type": "uint256"
        },
        {
          "indexed": false,
          "internalType": "uint256",
          "name": "blockNumber",
          "type": "uint256"
        }
      ],
      "name": "CleanedPermissions",
      "type": "event"
    },
    {
      "anonymous": false,
      "inputs": [
        {
          "indexed": true,
          "internalType": "address",
          "name": "consumeMarketFeeAddress",
          "type": "address"
        },
        {
          "indexed": true,
          "internalType": "address",
          "name": "consumeMarketFeeToken",
          "type": "address"
        },
        {
          "indexed": false,
          "internalType": "uint256",
          "name": "consumeMarketFeeAmount",
          "type": "uint256"
        }
      ],
      "name": "ConsumeMarketFee",
      "type": "event"
    },
    {
      "anonymous": false,
      "inputs": [
        {
          "indexed": false,
          "internalType": "address",
          "name": "currentMinter",
          "type": "address"
        },
        {
          "indexed": false,
          "internalType": "address",
          "name": "newMinter",
          "type": "address"
        }
      ],
      "name": "MinterApproved",
      "type": "event"
    },
    {
      "anonymous": false,
      "inputs": [
        {
          "indexed": false,
          "internalType": "address",
          "name": "currentMinter",
          "type": "address"
        },
        {
          "indexed": false,
          "internalType": "address",
          "name": "newMinter",
          "type": "address"
        }
      ],
      "name": "MinterProposed",
      "type": "event"
    },
    {
      "anonymous": false,
      "inputs": [
        {
          "indexed": false,
          "internalType": "address",
          "name": "dispenserContract",
          "type": "address"
        }
      ],
      "name": "NewDispenser",
      "type": "event"
    },
    {
      "anonymous": false,
      "inputs": [
        {
          "indexed": false,
          "internalType": "bytes32",
          "name": "exchangeId",
          "type": "bytes32"
        },
        {
          "indexed": true,
          "internalType": "address",
          "name": "owner",
          "type": "address"
        },
        {
          "indexed": false,
          "internalType": "address",
          "name": "exchangeContract",
          "type": "address"
        },
        {
          "indexed": true,
          "internalType": "address",
          "name": "baseToken",
          "type": "address"
        }
      ],
      "name": "NewFixedRate",
      "type": "event"
    },
    {
      "anonymous": false,
      "inputs": [
        {
          "indexed": true,
          "internalType": "address",
          "name": "caller",
          "type": "address"
        },
        {
          "indexed": true,
          "internalType": "address",
          "name": "_newPaymentCollector",
          "type": "address"
        },
        {
          "indexed": false,
          "internalType": "uint256",
          "name": "timestamp",
          "type": "uint256"
        },
        {
          "indexed": false,
          "internalType": "uint256",
          "name": "blockNumber",
          "type": "uint256"
        }
      ],
      "name": "NewPaymentCollector",
      "type": "event"
    },
    {
      "anonymous": false,
      "inputs": [
        {
          "indexed": false,
          "internalType": "address",
          "name": "poolAddress",
          "type": "address"
        },
        {
          "indexed": false,
          "internalType": "address",
          "name": "ssContract",
          "type": "address"
        },
        {
          "indexed": false,
          "internalType": "address",
          "name": "baseTokenAddress",
          "type": "address"
        }
      ],
      "name": "NewPool",
      "type": "event"
    },
    {
      "anonymous": false,
      "inputs": [
        {
          "indexed": true,
          "internalType": "address",
          "name": "providerAddress",
          "type": "address"
        },
        {
          "indexed": true,
          "internalType": "address",
          "name": "consumerAddress",
          "type": "address"
        },
        {
          "indexed": false,
          "internalType": "bytes32",
          "name": "orderTxId",
          "type": "bytes32"
        },
        {
          "indexed": false,
          "internalType": "bytes",
          "name": "providerData",
          "type": "bytes"
        },
        {
          "indexed": false,
          "internalType": "bytes",
          "name": "providerSignature",
          "type": "bytes"
        },
        {
          "indexed": false,
          "internalType": "bytes",
          "name": "consumerData",
          "type": "bytes"
        },
        {
          "indexed": false,
          "internalType": "bytes",
          "name": "consumerSignature",
          "type": "bytes"
        },
        {
          "indexed": false,
          "internalType": "uint256",
          "name": "timestamp",
          "type": "uint256"
        },
        {
          "indexed": false,
          "internalType": "uint256",
          "name": "blockNumber",
          "type": "uint256"
        }
      ],
      "name": "OrderExecuted",
      "type": "event"
    },
    {
      "anonymous": false,
      "inputs": [
        {
          "indexed": false,
          "internalType": "bytes32",
          "name": "orderTxId",
          "type": "bytes32"
        },
        {
          "indexed": false,
          "internalType": "address",
          "name": "caller",
          "type": "address"
        },
        {
          "indexed": false,
          "internalType": "uint256",
          "name": "timestamp",
          "type": "uint256"
        },
        {
          "indexed": false,
          "internalType": "uint256",
          "name": "number",
          "type": "uint256"
        }
      ],
      "name": "OrderReused",
      "type": "event"
    },
    {
      "anonymous": false,
      "inputs": [
        {
          "indexed": true,
          "internalType": "address",
          "name": "consumer",
          "type": "address"
        },
        {
          "indexed": false,
          "internalType": "address",
          "name": "payer",
          "type": "address"
        },
        {
          "indexed": false,
          "internalType": "uint256",
          "name": "amount",
          "type": "uint256"
        },
        {
          "indexed": false,
          "internalType": "uint256",
          "name": "serviceIndex",
          "type": "uint256"
        },
        {
          "indexed": false,
          "internalType": "uint256",
          "name": "timestamp",
          "type": "uint256"
        },
        {
          "indexed": true,
          "internalType": "address",
          "name": "publishMarketAddress",
          "type": "address"
        },
        {
          "indexed": false,
          "internalType": "uint256",
          "name": "blockNumber",
          "type": "uint256"
        }
      ],
      "name": "OrderStarted",
      "type": "event"
    },
    {
      "anonymous": false,
      "inputs": [
        {
          "indexed": true,
          "internalType": "address",
          "name": "providerFeeAddress",
          "type": "address"
        },
        {
          "indexed": true,
          "internalType": "address",
          "name": "providerFeeToken",
          "type": "address"
        },
        {
          "indexed": false,
          "internalType": "uint256",
          "name": "providerFeeAmount",
          "type": "uint256"
        },
        {
          "indexed": false,
          "internalType": "bytes",
          "name": "providerData",
          "type": "bytes"
        },
        {
          "indexed": false,
          "internalType": "uint8",
          "name": "v",
          "type": "uint8"
        },
        {
          "indexed": false,
          "internalType": "bytes32",
          "name": "r",
          "type": "bytes32"
        },
        {
          "indexed": false,
          "internalType": "bytes32",
          "name": "s",
          "type": "bytes32"
        },
        {
          "indexed": false,
          "internalType": "uint256",
          "name": "validUntil",
          "type": "uint256"
        }
      ],
      "name": "ProviderFee",
      "type": "event"
    },
    {
      "anonymous": false,
      "inputs": [
        {
          "indexed": true,
          "internalType": "address",
          "name": "PublishMarketFeeAddress",
          "type": "address"
        },
        {
          "indexed": true,
          "internalType": "address",
          "name": "PublishMarketFeeToken",
          "type": "address"
        },
        {
          "indexed": false,
          "internalType": "uint256",
          "name": "PublishMarketFeeAmount",
          "type": "uint256"
        }
      ],
      "name": "PublishMarketFee",
      "type": "event"
    },
    {
      "anonymous": false,
      "inputs": [
        {
          "indexed": false,
          "internalType": "address",
          "name": "caller",
          "type": "address"
        },
        {
          "indexed": false,
          "internalType": "address",
          "name": "PublishMarketFeeAddress",
          "type": "address"
        },
        {
          "indexed": false,
          "internalType": "address",
          "name": "PublishMarketFeeToken",
          "type": "address"
        },
        {
          "indexed": false,
          "internalType": "uint256",
          "name": "PublishMarketFeeAmount",
          "type": "uint256"
        }
      ],
      "name": "PublishMarketFeeChanged",
      "type": "event"
    },
    {
      "anonymous": false,
      "inputs": [
        {
          "indexed": true,
          "internalType": "address",
          "name": "user",
          "type": "address"
        },
        {
          "indexed": true,
          "internalType": "address",
          "name": "signer",
          "type": "address"
        },
        {
          "indexed": false,
          "internalType": "uint256",
          "name": "timestamp",
          "type": "uint256"
        },
        {
          "indexed": false,
          "internalType": "uint256",
          "name": "blockNumber",
          "type": "uint256"
        }
      ],
      "name": "RemovedMinter",
      "type": "event"
    },
    {
      "anonymous": false,
      "inputs": [
        {
          "indexed": true,
          "internalType": "address",
          "name": "user",
          "type": "address"
        },
        {
          "indexed": true,
          "internalType": "address",
          "name": "signer",
          "type": "address"
        },
        {
          "indexed": false,
          "internalType": "uint256",
          "name": "timestamp",
          "type": "uint256"
        },
        {
          "indexed": false,
          "internalType": "uint256",
          "name": "blockNumber",
          "type": "uint256"
        }
      ],
      "name": "RemovedPaymentManager",
      "type": "event"
    },
    {
      "anonymous": false,
      "inputs": [
        {
          "indexed": true,
          "internalType": "address",
          "name": "from",
          "type": "address"
        },
        {
          "indexed": true,
          "internalType": "address",
          "name": "to",
          "type": "address"
        },
        {
          "indexed": false,
          "internalType": "uint256",
          "name": "value",
          "type": "uint256"
        }
      ],
      "name": "Transfer",
      "type": "event"
    },
    {
      "anonymous": false,
      "inputs": [
        {
          "indexed": true,
          "internalType": "address",
          "name": "datatokenAddress",
          "type": "address"
        },
        {
          "indexed": true,
          "internalType": "address",
          "name": "publisherAddress",
          "type": "address"
        },
        {
          "indexed": false,
          "internalType": "uint256",
          "name": "vestingEndBlock",
          "type": "uint256"
        },
        {
          "indexed": false,
          "internalType": "uint256",
          "name": "totalVestingAmount",
          "type": "uint256"
        }
      ],
      "name": "VestingCreated",
      "type": "event"
    },
    {
      "stateMutability": "payable",
      "type": "fallback"
    },
    {
      "inputs": [],
      "name": "BASE",
      "outputs": [
        {
          "internalType": "uint256",
          "name": "",
          "type": "uint256"
        }
      ],
      "stateMutability": "view",
      "type": "function"
    },
    {
      "inputs": [],
      "name": "DOMAIN_SEPARATOR",
      "outputs": [
        {
          "internalType": "bytes32",
          "name": "",
          "type": "bytes32"
        }
      ],
      "stateMutability": "view",
      "type": "function"
    },
    {
      "inputs": [],
      "name": "PERMIT_TYPEHASH",
      "outputs": [
        {
          "internalType": "bytes32",
          "name": "",
          "type": "bytes32"
        }
      ],
      "stateMutability": "view",
      "type": "function"
    },
    {
      "inputs": [
        {
          "internalType": "address",
          "name": "_minter",
          "type": "address"
        }
      ],
      "name": "addMinter",
      "outputs": [],
      "stateMutability": "nonpayable",
      "type": "function"
    },
    {
      "inputs": [
        {
          "internalType": "address",
          "name": "_paymentManager",
          "type": "address"
        }
      ],
      "name": "addPaymentManager",
      "outputs": [],
      "stateMutability": "nonpayable",
      "type": "function"
    },
    {
      "inputs": [
        {
          "internalType": "address",
          "name": "owner",
          "type": "address"
        },
        {
          "internalType": "address",
          "name": "spender",
          "type": "address"
        }
      ],
      "name": "allowance",
      "outputs": [
        {
          "internalType": "uint256",
          "name": "",
          "type": "uint256"
        }
      ],
      "stateMutability": "view",
      "type": "function"
    },
    {
      "inputs": [
        {
          "internalType": "address",
          "name": "spender",
          "type": "address"
        },
        {
          "internalType": "uint256",
          "name": "amount",
          "type": "uint256"
        }
      ],
      "name": "approve",
      "outputs": [
        {
          "internalType": "bool",
          "name": "",
          "type": "bool"
        }
      ],
      "stateMutability": "nonpayable",
      "type": "function"
    },
    {
      "inputs": [
        {
          "internalType": "uint256",
          "name": "",
          "type": "uint256"
        }
      ],
      "name": "authERC20",
      "outputs": [
        {
          "internalType": "address",
          "name": "",
          "type": "address"
        }
      ],
      "stateMutability": "view",
      "type": "function"
    },
    {
      "inputs": [
        {
          "internalType": "address",
          "name": "account",
          "type": "address"
        }
      ],
      "name": "balanceOf",
      "outputs": [
        {
          "internalType": "uint256",
          "name": "",
          "type": "uint256"
        }
      ],
      "stateMutability": "view",
      "type": "function"
    },
    {
      "inputs": [
        {
          "internalType": "uint256",
          "name": "amount",
          "type": "uint256"
        }
      ],
      "name": "burn",
      "outputs": [],
      "stateMutability": "nonpayable",
      "type": "function"
    },
    {
      "inputs": [
        {
          "internalType": "address",
          "name": "account",
          "type": "address"
        },
        {
          "internalType": "uint256",
          "name": "amount",
          "type": "uint256"
        }
      ],
      "name": "burnFrom",
      "outputs": [],
      "stateMutability": "nonpayable",
      "type": "function"
    },
    {
      "inputs": [],
      "name": "cap",
      "outputs": [
        {
          "internalType": "uint256",
          "name": "",
          "type": "uint256"
        }
      ],
      "stateMutability": "view",
      "type": "function"
    },
    {
      "inputs": [],
      "name": "cleanFrom721",
      "outputs": [],
      "stateMutability": "nonpayable",
      "type": "function"
    },
    {
      "inputs": [],
      "name": "cleanPermissions",
      "outputs": [],
      "stateMutability": "nonpayable",
      "type": "function"
    },
    {
      "inputs": [
        {
          "internalType": "address",
          "name": "_dispenser",
          "type": "address"
        },
        {
          "internalType": "uint256",
          "name": "maxTokens",
          "type": "uint256"
        },
        {
          "internalType": "uint256",
          "name": "maxBalance",
          "type": "uint256"
        },
        {
          "internalType": "bool",
          "name": "withMint",
          "type": "bool"
        },
        {
          "internalType": "address",
          "name": "allowedSwapper",
          "type": "address"
        }
      ],
      "name": "createDispenser",
      "outputs": [],
      "stateMutability": "nonpayable",
      "type": "function"
    },
    {
      "inputs": [
        {
          "internalType": "address",
          "name": "fixedPriceAddress",
          "type": "address"
        },
        {
          "internalType": "address[]",
          "name": "addresses",
          "type": "address[]"
        },
        {
          "internalType": "uint256[]",
          "name": "uints",
          "type": "uint256[]"
        }
      ],
      "name": "createFixedRate",
      "outputs": [
        {
          "internalType": "bytes32",
          "name": "exchangeId",
          "type": "bytes32"
        }
      ],
      "stateMutability": "nonpayable",
      "type": "function"
    },
    {
      "inputs": [],
      "name": "decimals",
      "outputs": [
        {
          "internalType": "uint8",
          "name": "",
          "type": "uint8"
        }
      ],
      "stateMutability": "pure",
      "type": "function"
    },
    {
      "inputs": [
        {
          "internalType": "address",
          "name": "spender",
          "type": "address"
        },
        {
          "internalType": "uint256",
          "name": "subtractedValue",
          "type": "uint256"
        }
      ],
      "name": "decreaseAllowance",
      "outputs": [
        {
          "internalType": "bool",
          "name": "",
          "type": "bool"
        }
      ],
      "stateMutability": "nonpayable",
      "type": "function"
    },
    {
      "inputs": [
        {
          "internalType": "uint256[]",
          "name": "ssParams",
          "type": "uint256[]"
        },
        {
          "internalType": "uint256[]",
          "name": "swapFees",
          "type": "uint256[]"
        },
        {
          "internalType": "address[]",
          "name": "addresses",
          "type": "address[]"
        }
      ],
      "name": "deployPool",
      "outputs": [
        {
          "internalType": "address",
          "name": "pool",
          "type": "address"
        }
      ],
      "stateMutability": "nonpayable",
      "type": "function"
    },
    {
      "inputs": [],
      "name": "getDispensers",
      "outputs": [
        {
          "internalType": "address[]",
          "name": "",
          "type": "address[]"
        }
      ],
      "stateMutability": "view",
      "type": "function"
    },
    {
      "inputs": [],
      "name": "getERC721Address",
      "outputs": [
        {
          "internalType": "address",
          "name": "",
          "type": "address"
        }
      ],
      "stateMutability": "view",
      "type": "function"
    },
    {
      "inputs": [],
      "name": "getFixedRates",
      "outputs": [
        {
          "components": [
            {
              "internalType": "address",
              "name": "contractAddress",
              "type": "address"
            },
            {
              "internalType": "bytes32",
              "name": "id",
              "type": "bytes32"
            }
          ],
          "internalType": "struct ERC20Template.fixedRate[]",
          "name": "",
          "type": "tuple[]"
        }
      ],
      "stateMutability": "view",
      "type": "function"
    },
    {
      "inputs": [],
      "name": "getId",
      "outputs": [
        {
          "internalType": "uint8",
          "name": "",
          "type": "uint8"
        }
      ],
      "stateMutability": "pure",
      "type": "function"
    },
    {
      "inputs": [],
      "name": "getPaymentCollector",
      "outputs": [
        {
          "internalType": "address",
          "name": "",
          "type": "address"
        }
      ],
      "stateMutability": "view",
      "type": "function"
    },
    {
      "inputs": [
        {
          "internalType": "address",
          "name": "user",
          "type": "address"
        }
      ],
      "name": "getPermissions",
      "outputs": [
        {
          "components": [
            {
              "internalType": "bool",
              "name": "minter",
              "type": "bool"
            },
            {
              "internalType": "bool",
              "name": "paymentManager",
              "type": "bool"
            }
          ],
          "internalType": "struct ERC20Roles.RolesERC20",
          "name": "",
          "type": "tuple"
        }
      ],
      "stateMutability": "view",
      "type": "function"
    },
    {
      "inputs": [],
      "name": "getPools",
      "outputs": [
        {
          "internalType": "address[]",
          "name": "",
          "type": "address[]"
        }
      ],
      "stateMutability": "view",
      "type": "function"
    },
    {
      "inputs": [],
      "name": "getPublishingMarketFee",
      "outputs": [
        {
          "internalType": "address",
          "name": "",
          "type": "address"
        },
        {
          "internalType": "address",
          "name": "",
          "type": "address"
        },
        {
          "internalType": "uint256",
          "name": "",
          "type": "uint256"
        }
      ],
      "stateMutability": "view",
      "type": "function"
    },
    {
      "inputs": [
        {
          "internalType": "address",
          "name": "spender",
          "type": "address"
        },
        {
          "internalType": "uint256",
          "name": "addedValue",
          "type": "uint256"
        }
      ],
      "name": "increaseAllowance",
      "outputs": [
        {
          "internalType": "bool",
          "name": "",
          "type": "bool"
        }
      ],
      "stateMutability": "nonpayable",
      "type": "function"
    },
    {
      "inputs": [
        {
          "internalType": "string[]",
          "name": "strings_",
          "type": "string[]"
        },
        {
          "internalType": "address[]",
          "name": "addresses_",
          "type": "address[]"
        },
        {
          "internalType": "address[]",
          "name": "factoryAddresses_",
          "type": "address[]"
        },
        {
          "internalType": "uint256[]",
          "name": "uints_",
          "type": "uint256[]"
        },
        {
          "internalType": "bytes[]",
          "name": "bytes_",
          "type": "bytes[]"
        }
      ],
      "name": "initialize",
      "outputs": [
        {
          "internalType": "bool",
          "name": "",
          "type": "bool"
        }
      ],
      "stateMutability": "nonpayable",
      "type": "function"
    },
    {
      "inputs": [
        {
          "internalType": "address",
          "name": "user",
          "type": "address"
        }
      ],
      "name": "isERC20Deployer",
      "outputs": [
        {
          "internalType": "bool",
          "name": "",
          "type": "bool"
        }
      ],
      "stateMutability": "view",
      "type": "function"
    },
    {
      "inputs": [],
      "name": "isInitialized",
      "outputs": [
        {
          "internalType": "bool",
          "name": "",
          "type": "bool"
        }
      ],
      "stateMutability": "view",
      "type": "function"
    },
    {
      "inputs": [
        {
          "internalType": "address",
          "name": "account",
          "type": "address"
        }
      ],
      "name": "isMinter",
      "outputs": [
        {
          "internalType": "bool",
          "name": "",
          "type": "bool"
        }
      ],
      "stateMutability": "view",
      "type": "function"
    },
    {
      "inputs": [
        {
          "internalType": "address",
          "name": "account",
          "type": "address"
        },
        {
          "internalType": "uint256",
          "name": "value",
          "type": "uint256"
        }
      ],
      "name": "mint",
      "outputs": [],
      "stateMutability": "nonpayable",
      "type": "function"
    },
    {
      "inputs": [],
      "name": "name",
      "outputs": [
        {
          "internalType": "string",
          "name": "",
          "type": "string"
        }
      ],
      "stateMutability": "view",
      "type": "function"
    },
    {
      "inputs": [
        {
          "internalType": "address",
          "name": "",
          "type": "address"
        }
      ],
      "name": "nonces",
      "outputs": [
        {
          "internalType": "uint256",
          "name": "",
          "type": "uint256"
        }
      ],
      "stateMutability": "view",
      "type": "function"
    },
    {
      "inputs": [
        {
          "internalType": "bytes32",
          "name": "orderTxId",
          "type": "bytes32"
        },
        {
          "internalType": "bytes",
          "name": "providerData",
          "type": "bytes"
        },
        {
          "internalType": "bytes",
          "name": "providerSignature",
          "type": "bytes"
        },
        {
          "internalType": "bytes",
          "name": "consumerData",
          "type": "bytes"
        },
        {
          "internalType": "bytes",
          "name": "consumerSignature",
          "type": "bytes"
        },
        {
          "internalType": "address",
          "name": "consumerAddress",
          "type": "address"
        }
      ],
      "name": "orderExecuted",
      "outputs": [],
      "stateMutability": "nonpayable",
      "type": "function"
    },
    {
      "inputs": [
        {
          "internalType": "address",
          "name": "",
          "type": "address"
        }
      ],
      "name": "permissions",
      "outputs": [
        {
          "internalType": "bool",
          "name": "minter",
          "type": "bool"
        },
        {
          "internalType": "bool",
          "name": "paymentManager",
          "type": "bool"
        }
      ],
      "stateMutability": "view",
      "type": "function"
    },
    {
      "inputs": [
        {
          "internalType": "address",
          "name": "owner",
          "type": "address"
        },
        {
          "internalType": "address",
          "name": "spender",
          "type": "address"
        },
        {
          "internalType": "uint256",
          "name": "value",
          "type": "uint256"
        },
        {
          "internalType": "uint256",
          "name": "deadline",
          "type": "uint256"
        },
        {
          "internalType": "uint8",
          "name": "v",
          "type": "uint8"
        },
        {
          "internalType": "bytes32",
          "name": "r",
          "type": "bytes32"
        },
        {
          "internalType": "bytes32",
          "name": "s",
          "type": "bytes32"
        }
      ],
      "name": "permit",
      "outputs": [],
      "stateMutability": "nonpayable",
      "type": "function"
    },
    {
      "inputs": [
        {
          "internalType": "address",
          "name": "_minter",
          "type": "address"
        }
      ],
      "name": "removeMinter",
      "outputs": [],
      "stateMutability": "nonpayable",
      "type": "function"
    },
    {
      "inputs": [
        {
          "internalType": "address",
          "name": "_paymentManager",
          "type": "address"
        }
      ],
      "name": "removePaymentManager",
      "outputs": [],
      "stateMutability": "nonpayable",
      "type": "function"
    },
    {
      "inputs": [
        {
          "internalType": "bytes32",
          "name": "orderTxId",
          "type": "bytes32"
        },
        {
          "components": [
            {
              "internalType": "address",
              "name": "providerFeeAddress",
              "type": "address"
            },
            {
              "internalType": "address",
              "name": "providerFeeToken",
              "type": "address"
            },
            {
              "internalType": "uint256",
              "name": "providerFeeAmount",
              "type": "uint256"
            },
            {
              "internalType": "uint8",
              "name": "v",
              "type": "uint8"
            },
            {
              "internalType": "bytes32",
              "name": "r",
              "type": "bytes32"
            },
            {
              "internalType": "bytes32",
              "name": "s",
              "type": "bytes32"
            },
            {
              "internalType": "uint256",
              "name": "validUntil",
              "type": "uint256"
            },
            {
              "internalType": "bytes",
              "name": "providerData",
              "type": "bytes"
            }
          ],
          "internalType": "struct ERC20Template.providerFee",
          "name": "_providerFee",
          "type": "tuple"
        }
      ],
      "name": "reuseOrder",
      "outputs": [],
      "stateMutability": "nonpayable",
      "type": "function"
    },
    {
      "inputs": [],
      "name": "router",
      "outputs": [
        {
          "internalType": "address",
          "name": "",
          "type": "address"
        }
      ],
      "stateMutability": "view",
      "type": "function"
    },
    {
      "inputs": [
        {
          "internalType": "bytes",
          "name": "_value",
          "type": "bytes"
        }
      ],
      "name": "setData",
      "outputs": [],
      "stateMutability": "nonpayable",
      "type": "function"
    },
    {
      "inputs": [
        {
          "internalType": "address",
          "name": "_newPaymentCollector",
          "type": "address"
        }
      ],
      "name": "setPaymentCollector",
      "outputs": [],
      "stateMutability": "nonpayable",
      "type": "function"
    },
    {
      "inputs": [
        {
          "internalType": "address",
          "name": "_publishMarketFeeAddress",
          "type": "address"
        },
        {
          "internalType": "address",
          "name": "_publishMarketFeeToken",
          "type": "address"
        },
        {
          "internalType": "uint256",
          "name": "_publishMarketFeeAmount",
          "type": "uint256"
        }
      ],
      "name": "setPublishingMarketFee",
      "outputs": [],
      "stateMutability": "nonpayable",
      "type": "function"
    },
    {
      "inputs": [
        {
          "internalType": "address",
          "name": "consumer",
          "type": "address"
        },
        {
          "internalType": "uint256",
          "name": "serviceIndex",
          "type": "uint256"
        },
        {
          "components": [
            {
              "internalType": "address",
              "name": "providerFeeAddress",
              "type": "address"
            },
            {
              "internalType": "address",
              "name": "providerFeeToken",
              "type": "address"
            },
            {
              "internalType": "uint256",
              "name": "providerFeeAmount",
              "type": "uint256"
            },
            {
              "internalType": "uint8",
              "name": "v",
              "type": "uint8"
            },
            {
              "internalType": "bytes32",
              "name": "r",
              "type": "bytes32"
            },
            {
              "internalType": "bytes32",
              "name": "s",
              "type": "bytes32"
            },
            {
              "internalType": "uint256",
              "name": "validUntil",
              "type": "uint256"
            },
            {
              "internalType": "bytes",
              "name": "providerData",
              "type": "bytes"
            }
          ],
          "internalType": "struct ERC20Template.providerFee",
          "name": "_providerFee",
          "type": "tuple"
        },
        {
          "components": [
            {
              "internalType": "address",
              "name": "consumeMarketFeeAddress",
              "type": "address"
            },
            {
              "internalType": "address",
              "name": "consumeMarketFeeToken",
              "type": "address"
            },
            {
              "internalType": "uint256",
              "name": "consumeMarketFeeAmount",
              "type": "uint256"
            }
          ],
          "internalType": "struct ERC20Template.consumeMarketFee",
          "name": "_consumeMarketFee",
          "type": "tuple"
        }
      ],
      "name": "startOrder",
      "outputs": [],
      "stateMutability": "nonpayable",
      "type": "function"
    },
    {
      "inputs": [],
      "name": "symbol",
      "outputs": [
        {
          "internalType": "string",
          "name": "",
          "type": "string"
        }
      ],
      "stateMutability": "view",
      "type": "function"
    },
    {
      "inputs": [],
      "name": "totalSupply",
      "outputs": [
        {
          "internalType": "uint256",
          "name": "",
          "type": "uint256"
        }
      ],
      "stateMutability": "view",
      "type": "function"
    },
    {
      "inputs": [
        {
          "internalType": "address",
          "name": "to",
          "type": "address"
        },
        {
          "internalType": "uint256",
          "name": "amount",
          "type": "uint256"
        }
      ],
      "name": "transfer",
      "outputs": [
        {
          "internalType": "bool",
          "name": "",
          "type": "bool"
        }
      ],
      "stateMutability": "nonpayable",
      "type": "function"
    },
    {
      "inputs": [
        {
          "internalType": "address",
          "name": "from",
          "type": "address"
        },
        {
          "internalType": "address",
          "name": "to",
          "type": "address"
        },
        {
          "internalType": "uint256",
          "name": "amount",
          "type": "uint256"
        }
      ],
      "name": "transferFrom",
      "outputs": [
        {
          "internalType": "bool",
          "name": "",
          "type": "bool"
        }
      ],
      "stateMutability": "nonpayable",
      "type": "function"
    },
    {
      "inputs": [],
      "name": "withdrawETH",
      "outputs": [],
      "stateMutability": "payable",
      "type": "function"
    }
  ],
  "bytecode": "0x6080604052600b805460ff60a01b191690553480156200001e57600080fd5b5060408051808201825260048152631d195cdd60e21b60208083019182528351808501909452600a8452691d195cdd14de5b589bdb60b21b9084015281519192916200006d9160039162000091565b5080516200008390600490602084019062000091565b505060016007555062000174565b8280546200009f9062000137565b90600052602060002090601f016020900481019282620000c357600085556200010e565b82601f10620000de57805160ff19168380011785556200010e565b828001600101855582156200010e579182015b828111156200010e578251825591602001919060010190620000f1565b506200011c92915062000120565b5090565b5b808211156200011c576000815560010162000121565b600181811c908216806200014c57607f821691505b602082108114156200016e57634e487b7160e01b600052602260045260246000fd5b50919050565b615d9480620001846000396000f3fe6080604052600436106102c55760003560e01c80635d1ca6311161017e578063a457c2d7116100d3578063d505accf1161008f578063e487c2e81161006c578063e487c2e81461099d578063ec342ad0146109b2578063ef867ff4146109ce578063f887ea40146109ee57005b8063d505accf1461092f578063dd62ed3e1461094f578063e086e5ec1461099557005b8063a457c2d714610856578063a9059cbb14610876578063aa271e1a14610896578063aa492ef9146108cf578063ab62f0e1146108ef578063b3998be01461090f57005b80637ecebe001161013a5780638b96412b116101175780638b96412b146107e157806395d89b411461080157806396fb3eaf14610816578063983b2d561461083657005b80637ecebe001461077f57806382c03da5146107ac57806389208f0f146107c157005b80635d1ca631146106be578063673a2a1f146106d257806370a08231146106e757806379cc67901461071d57806379d9d7f31461073d5780637dda231e1461075d57005b8063355274ea1161023457806340c10f19116101f05780634f189cb2116101cd5780634f189cb21461064957806357a3a31b1461065e57806357ad5ff61461067e5780635bfe4da01461069e57005b806340c10f19146105e757806342966c681461060757806347ac7d551461062757005b8063355274ea14610521578063361fef49146105365780633644e51514610556578063392e53cd1461056c578063395093511461058b578063397b3743146105ab57005b8063191c918a11610283578063191c918a1461044b57806323b872dd1461046b57806325b002431461048b5780633092afd5146104ab57806330adf81f146104cb578063313ce567146104ff57005b80627ffb78146102c757806301e88208146102fe57806306fdde031461034e578063095ea7b314610370578063160a7925146103a057806318160ddd1461042c575b005b3480156102d357600080fd5b50600c546001600160a01b03165b6040516001600160a01b0390911681526020015b60405180910390f35b34801561030a57600080fd5b50610337610319366004614cf3565b60056020526000908152604090205460ff8082169161010090041682565b6040805192151583529015156020830152016102f5565b34801561035a57600080fd5b50610363610a0e565b6040516102f59190614d3c565b34801561037c57600080fd5b5061039061038b366004614d6f565b610aa0565b60405190151581526020016102f5565b3480156103ac57600080fd5b5061040d6103bb366004614cf3565b6040805180820190915260008082526020820152506001600160a01b031660009081526005602090815260409182902082518084019093525460ff808216151584526101009091041615159082015290565b60408051825115158152602092830151151592810192909252016102f5565b34801561043857600080fd5b506002545b6040519081526020016102f5565b34801561045757600080fd5b506102c5610466366004614da9565b610aba565b34801561047757600080fd5b50610390610486366004614e08565b610d12565b34801561049757600080fd5b506102c56104a6366004614cf3565b610d38565b3480156104b757600080fd5b506102c56104c6366004614cf3565b610e4e565b3480156104d757600080fd5b5061043d7f6e71edae12b1b97f4d1f60370fef10105fa2faae0126114a169c64845d6126c981565b34801561050b57600080fd5b5060125b60405160ff90911681526020016102f5565b34801561052d57600080fd5b50600a5461043d565b34801561054257600080fd5b506102c5610551366004614e62565b610f61565b34801561056257600080fd5b5061043d60115481565b34801561057857600080fd5b50600b54600160a01b900460ff16610390565b34801561059757600080fd5b506103906105a6366004614d6f565b610fdf565b3480156105b757600080fd5b50600e54600f54601054604080516001600160a01b039485168152939092166020840152908201526060016102f5565b3480156105f357600080fd5b506102c5610602366004614d6f565b61101e565b34801561061357600080fd5b506102c5610622366004614ea8565b6110ef565b34801561063357600080fd5b5061063c6110f9565b6040516102f59190614f05565b34801561065557600080fd5b506102c561115a565b34801561066a57600080fd5b506102c5610679366004614cf3565b611231565b34801561068a57600080fd5b506102c5610699366004614e08565b6113ef565b3480156106aa57600080fd5b506102e16106b9366004615050565b6115a8565b3480156106ca57600080fd5b50600161050f565b3480156106de57600080fd5b5061063c611a29565b3480156106f357600080fd5b5061043d610702366004614cf3565b6001600160a01b031660009081526020819052604090205490565b34801561072957600080fd5b506102c5610738366004614d6f565b611a89565b34801561074957600080fd5b506102c56107583660046150d7565b611a9e565b34801561076957600080fd5b50610772611e76565b6040516102f5919061514a565b34801561078b57600080fd5b5061043d61079a366004614cf3565b60126020526000908152604090205481565b3480156107b857600080fd5b506102c5611eeb565b3480156107cd57600080fd5b506102c56107dc3660046151ea565b611f45565b3480156107ed57600080fd5b5061043d6107fc3660046152c7565b612232565b34801561080d57600080fd5b5061036361253e565b34801561082257600080fd5b50610390610831366004614cf3565b61254d565b34801561084257600080fd5b506102c5610851366004614cf3565b6125c6565b34801561086257600080fd5b50610390610871366004614d6f565b6126d9565b34801561088257600080fd5b50610390610891366004614d6f565b612776565b3480156108a257600080fd5b506103906108b1366004614cf3565b6001600160a01b031660009081526005602052604090205460ff1690565b3480156108db57600080fd5b506102c56108ea366004614cf3565b612784565b3480156108fb57600080fd5b506102c561090a366004615332565b612897565b34801561091b57600080fd5b5061039061092a3660046153b7565b612a44565b34801561093b57600080fd5b506102c561094a3660046154b8565b612b7e565b34801561095b57600080fd5b5061043d61096a366004615526565b6001600160a01b03918216600090815260016020908152604080832093909416825291909152205490565b6102c5612d90565b3480156109a957600080fd5b506102e1612dd0565b3480156109be57600080fd5b5061043d670de0b6b3a764000081565b3480156109da57600080fd5b506102e16109e9366004614ea8565b612e65565b3480156109fa57600080fd5b506013546102e1906001600160a01b031681565b606060088054610a1d9061555f565b80601f0160208091040260200160405190810160405280929190818152602001828054610a499061555f565b8015610a965780601f10610a6b57610100808354040283529160200191610a96565b820191906000526020600020905b815481529060010190602001808311610a7957829003601f168201915b5050505050905090565b600033610aae818585612e8f565b60019150505b92915050565b600c5460405163160a792560e01b81523360048201526001600160a01b039091169063160a792590602401608060405180830381865afa158015610b02573d6000803e3d6000fd5b505050506040513d601f19601f82011682018060405250810190610b269190615594565b6020015180610ba85750600c546040516331a9108f60e11b81526001600482015233916001600160a01b031690636352211e90602401602060405180830381865afa158015610b79573d6000803e3d6000fd5b505050506040513d601f19601f82011682018060405250810190610b9d9190615618565b6001600160a01b0316145b610bcd5760405162461bcd60e51b8152600401610bc490615635565b60405180910390fd5b60026007541415610bf05760405162461bcd60e51b8152600401610bc49061566a565b6002600755601354604051636b14d00560e11b81526001600160a01b038781166004830152306024830152604482018790526064820186905233608483015283811660a48301529091169063d629a00a9060c401600060405180830381600087803b158015610c5e57600080fd5b505af1158015610c72573d6000803e3d6000fd5b505050508115610c8557610c8585612fb4565b601680546001810182556000919091527fd833147d7dc355ba459fc788f669e58cfaf9dc25ddcd0702e87d69c7b51242890180546001600160a01b0319166001600160a01b0387169081179091556040519081527fa31ffd41531537eb31bfd827a3f5372b5f62bf4dd8579e5354b280dc58490e709060200160405180910390a150506001600755505050565b600033610d2085828561308b565b610d2b85858561311d565b60019150505b9392505050565b600c5460405163160a792560e01b81523360048201526001600160a01b039091169063160a792590602401608060405180830381865afa158015610d80573d6000803e3d6000fd5b505050506040513d601f19601f82011682018060405250810190610da49190615594565b6020015180610e265750600c546040516331a9108f60e11b81526001600482015233916001600160a01b031690636352211e90602401602060405180830381865afa158015610df7573d6000803e3d6000fd5b505050506040513d601f19601f82011682018060405250810190610e1b9190615618565b6001600160a01b0316145b610e425760405162461bcd60e51b8152600401610bc490615635565b610e4b816132eb565b50565b600c5460405163160a792560e01b81523360048201526001600160a01b039091169063160a792590602401608060405180830381865afa158015610e96573d6000803e3d6000fd5b505050506040513d601f19601f82011682018060405250810190610eba9190615594565b6020015180610f3c5750600c546040516331a9108f60e11b81526001600482015233916001600160a01b031690636352211e90602401602060405180830381865afa158015610f0d573d6000803e3d6000fd5b505050506040513d601f19601f82011682018060405250810190610f319190615618565b6001600160a01b0316145b610f585760405162461bcd60e51b8152600401610bc490615635565b610e4b8161335d565b60026007541415610f845760405162461bcd60e51b8152600401610bc49061566a565b600260075560408051838152336020820152428183015243606082015290517f526e31449ea46e2aecf9b480c8d7dfa191348ef74ffdf75b445a6ab726daa6ff9181900360800190a1610fd6816133bd565b50506001600755565b3360008181526001602090815260408083206001600160a01b0387168452909152812054909190610aae90829086906110199087906156b7565b612e8f565b3360009081526005602052604090205460ff1661107d5760405162461bcd60e51b815260206004820152601960248201527f455243323054656d706c6174653a204e4f54204d494e544552000000000000006044820152606401610bc4565b600a546110938261108d60025490565b90613770565b11156110e15760405162461bcd60e51b815260206004820152601f60248201527f44617461746f6b656e54656d706c6174653a20636170206578636565646564006044820152606401610bc4565b6110eb828261377c565b5050565b610e4b338261385b565b60606016805480602002602001604051908101604052809291908181526020018280548015610a9657602002820191906000526020600020905b81546001600160a01b03168152600190910190602001808311611133575050505050905090565b600c546040516331a9108f60e11b8152600160048201526001600160a01b0390911690636352211e90602401602060405180830381865afa1580156111a3573d6000803e3d6000fd5b505050506040513d601f19601f820116820180604052508101906111c79190615618565b6001600160a01b0316336001600160a01b0316146112275760405162461bcd60e51b815260206004820152601b60248201527f455243323054656d706c6174653a206e6f74204e46544f776e657200000000006044820152606401610bc4565b61122f6139a6565b565b33600090815260056020526040902054610100900460ff16806112c05750600c5460405163160a792560e01b81523360048201526001600160a01b039091169063160a792590602401608060405180830381865afa158015611297573d6000803e3d6000fd5b505050506040513d601f19601f820116820180604052508101906112bb9190615594565b602001515b8061133e5750600c546040516331a9108f60e11b81526001600482015233916001600160a01b031690636352211e90602401602060405180830381865afa15801561130f573d6000803e3d6000fd5b505050506040513d601f19601f820116820180604052508101906113339190615618565b6001600160a01b0316145b61139e5760405162461bcd60e51b815260206004820152602b60248201527f455243323054656d706c6174653a204e4f54205041594d454e54204d414e414760448201526a22a91037b91027aba722a960a91b6064820152608401610bc4565b6113a781613e74565b604080514281524360208201526001600160a01b0383169133917f4d7694d695c57cc54947177c8e8a0e61aae664e9223492a798c32fadfc6419cc910160405180910390a350565b600e546001600160a01b0316331461145c5760405162461bcd60e51b815260206004820152602a60248201527f455243323054656d706c6174653a206e6f74207075626c6973684d61726b65746044820152694665654164647265737360b01b6064820152608401610bc4565b6001600160a01b0383166114c35760405162461bcd60e51b815260206004820152602860248201527f496e76616c6964205f7075626c6973684d61726b657446656541646472657373604482015267206164647265737360c01b6064820152608401610bc4565b6001600160a01b0382166115285760405162461bcd60e51b815260206004820152602660248201527f496e76616c6964205f7075626c6973684d61726b6574466565546f6b656e206160448201526564647265737360d01b6064820152608401610bc4565b600e80546001600160a01b038581166001600160a01b03199283168117909355600f80549186169190921681179091556010839055604080513381526020810193909352820152606081018290527f02ab4b3fc023109c2d0da394bda239166c833f63c42b71b67ed4b836dca0ddfe9060800160405180910390a1505050565b600c5460405163160a792560e01b81523360048201526000916001600160a01b03169063160a792590602401608060405180830381865afa1580156115f1573d6000803e3d6000fd5b505050506040513d601f19601f820116820180604052508101906116159190615594565b60200151806116975750600c546040516331a9108f60e11b81526001600482015233916001600160a01b031690636352211e90602401602060405180830381865afa158015611668573d6000803e3d6000fd5b505050506040513d601f19601f8201168201806040525081019061168c9190615618565b6001600160a01b0316145b6116b35760405162461bcd60e51b8152600401610bc490615635565b600260075414156116d65760405162461bcd60e51b8152600401610bc49061566a565b60026007556116e460025490565b1561173d5760405162461bcd60e51b8152602060048201526024808201527f455243323054656d706c6174653a20746f6b656e7320616c7265616479206d696044820152631b9d195960e21b6064820152608401610bc4565b61176082600081518110611753576117536156cf565b6020026020010151612fb4565b601360009054906101000a90046001600160a01b03166001600160a01b031663510f34656040518163ffffffff1660e01b8152600401602060405180830381865afa1580156117b3573d6000803e3d6000fd5b505050506040513d601f19601f820116820180604052508101906117d791906156e5565b846003815181106117ea576117ea6156cf565b602002602001015110156118805760405162461bcd60e51b815260206004820152605160248201527f455243323054656d706c6174653a2056657374696e6720706572696f6420746f60448201527f6f206c6f772e2053656520466163746f7279526f757465722e6d696e56657374606482015270696e67506572696f64496e426c6f636b7360781b608482015260a401610bc4565b60006040518060400160405280306001600160a01b03166001600160a01b03168152602001846001815181106118b8576118b86156cf565b60209081029190910101516001600160a01b0390811690915260135460405163ee3bc63560e01b8152929350169063ee3bc6359061190090849089908990899060040161572e565b6020604051808303816000875af115801561191f573d6000803e3d6000fd5b505050506040513d601f19601f820116820180604052508101906119439190615618565b6014805460018101825560009182527fce6d7b5282bd9a3661ae061feed1dbda4e52ab073b1f9285be6e155d9c38d4ec0180546001600160a01b0319166001600160a01b03841617905584519193507fd02da1bec30f7f750aa0a131745dfb9ce96767c45a192dc26409f5d690e0b96791849186916119c4576119c46156cf565b6020026020010151856001815181106119df576119df6156cf565b6020026020010151604051611a14939291906001600160a01b0393841681529183166020830152909116604082015260600190565b60405180910390a15060016007559392505050565b60606014805480602002602001604051908101604052809291908181526020018280548015610a96576020028201919060005260206000209081546001600160a01b03168152600190910190602001808311611133575050505050905090565b611a9482338361308b565b6110eb828261385b565b60026007541415611ac15760405162461bcd60e51b8152600401610bc49061566a565b600260075533600090815260208190526040902054670de0b6b3a764000090811115611b3b5760405162461bcd60e51b8152602060048201526024808201527f4e6f7420656e6f7567682064617461746f6b656e7320746f207374617274204f604482015263393232b960e11b6064820152608401610bc4565b600e5460408051338152602081018490529081018690524260608201524360808201526001600160a01b03918216918716907fe1c4fa794edfa8f619b8257a077398950357b9c6398528f94480307352f9afcc9060a00160405180910390a36000601054118015611bb65750600f546001600160a01b031615155b8015611bcc5750600e546001600160a01b031615155b15611c4157600f54600e54601054611bf4926001600160a01b03908116923392911690613e96565b600f54600e546010546040519081526001600160a01b0392831692909116907f4049a448ac6f0284a98d2cb9199e73605944ea5bec901a037f88c84703de82b29060200160405180910390a35b60008260400135118015611c6e57506000611c626040840160208501614cf3565b6001600160a01b031614155b8015611c9057506000611c846020840184614cf3565b6001600160a01b031614155b15611d2d57611cc0611ca86040840160208501614cf3565b33611cb66020860186614cf3565b8560400135613e96565b611cd06040830160208401614cf3565b6001600160a01b0316611ce66020840184614cf3565b6001600160a01b03167f6d11837f46cc09b011cf4aae09fcade046c020aac088090ae4f77ff67b7079728460400135604051611d2491815260200190565b60405180910390a35b611d36836133bd565b60135460408051637d28354d60e01b815290516000926001600160a01b031691637d28354d9160048083019260209291908290030181865afa158015611d80573d6000803e3d6000fd5b505050506040513d601f19601f82011682018060405250810190611da491906156e5565b9050611dbb611db1612dd0565b6108918484613fe4565b611e075760405162461bcd60e51b815260206004820152601e60248201527f4661696c656420746f2073656e6420445420746f207075626c697368657200006044820152606401610bc4565b600b54611e1d906001600160a01b031682612776565b611e695760405162461bcd60e51b815260206004820152601860248201527f4661696c656420746f2073656e6420445420746f204f504300000000000000006044820152606401610bc4565b5050600160075550505050565b60606015805480602002602001604051908101604052809291908181526020016000905b82821015611ee2576000848152602090819020604080518082019091526002850290910180546001600160a01b03168252600190810154828401529083529092019101611e9a565b50505050905090565b600c546001600160a01b031633146112275760405162461bcd60e51b815260206004820152601f60248201527f455243323054656d706c6174653a204e4f542037323120436f6e7472616374006044820152606401610bc4565b336001600160a01b0382161415611f9e5760405162461bcd60e51b815260206004820152601f60248201527f50726f76696465722063616e6e6f742062652074686520636f6e73756d6572006044820152606401610bc4565b60006040518060400160405280601c81526020017f19457468657265756d205369676e6564204d6573736167653a0a33320000000081525090506000818c8c8c604051602001611ff093929190615799565b604051602081830303815290604052805190602001206040516020016120179291906157b3565b604051602081830303815290604052805190602001209050336001600160a01b0316612079828b8b8080601f016020809104026020016040519081016040528093929190818152602001838380828437600092019190915250613ff092505050565b6001600160a01b0316146120cf5760405162461bcd60e51b815260206004820152601f60248201527f50726f7669646572207369676e617475726520636865636b206661696c6564006044820152606401610bc4565b60008288886040516020016120e59291906157d5565b6040516020818303038152906040528051906020012060405160200161210c9291906157b3565b604051602081830303815290604052805190602001209050836001600160a01b031661216e8288888080601f016020809104026020016040519081016040528093929190818152602001838380828437600092019190915250613ff092505050565b6001600160a01b0316146121c45760405162461bcd60e51b815260206004820152601f60248201527f436f6e73756d6572207369676e617475726520636865636b206661696c6564006044820152606401610bc4565b836001600160a01b0316336001600160a01b03167fc9a10280e9c735c63092fa5431e6acb3ed342e08b69a083e5e676994eb7070f98f8f8f8f8f8f8f8f8f424360405161221b9b9a9998979695949392919061580e565b60405180910390a350505050505050505050505050565b600c5460405163160a792560e01b81523360048201526000916001600160a01b03169063160a792590602401608060405180830381865afa15801561227b573d6000803e3d6000fd5b505050506040513d601f19601f8201168201806040525081019061229f9190615594565b60200151806123215750600c546040516331a9108f60e11b81526001600482015233916001600160a01b031690636352211e90602401602060405180830381865afa1580156122f2573d6000803e3d6000fd5b505050506040513d601f19601f820116820180604052508101906123169190615618565b6001600160a01b0316145b61233d5760405162461bcd60e51b8152600401610bc490615635565b600260075414156123605760405162461bcd60e51b8152600401610bc49061566a565b6002600755601354604051638244937560e01b81526001600160a01b039091169063824493759061239990879087908790600401615880565b6020604051808303816000875af11580156123b8573d6000803e3d6000fd5b505050506040513d601f19601f820116820180604052508101906123dc91906156e5565b90506000826004815181106123f3576123f36156cf565b6020026020010151111561240a5761240a84612fb4565b8260008151811061241d5761241d6156cf565b60200260200101516001600160a01b031683600181518110612441576124416156cf565b60200260200101516001600160a01b03167fb3fac3ae95956dbac74e63ba8dac94081832395c8788e3049c900a7732f3480583876040516124959291909182526001600160a01b0316602082015260400190565b60405180910390a3604080518082019091526001600160a01b03948516815260208101828152601580546001808201835560009290925292517f55f448fdea98c4d29eb340757ef0a66cd03dbb9538908a6a81d96026b71ec475600290940293840180546001600160a01b0319169190981617909655517f55f448fdea98c4d29eb340757ef0a66cd03dbb9538908a6a81d96026b71ec476909101556007939093555090919050565b606060098054610a1d9061555f565b600c5460405163160a792560e01b81526001600160a01b038381166004830152600092169063160a792590602401608060405180830381865afa158015612598573d6000803e3d6000fd5b505050506040513d601f19601f820116820180604052508101906125bc9190615594565b6020015192915050565b600c5460405163160a792560e01b81523360048201526001600160a01b039091169063160a792590602401608060405180830381865afa15801561260e573d6000803e3d6000fd5b505050506040513d601f19601f820116820180604052508101906126329190615594565b60200151806126b45750600c546040516331a9108f60e11b81526001600482015233916001600160a01b031690636352211e90602401602060405180830381865afa158015612685573d6000803e3d6000fd5b505050506040513d601f19601f820116820180604052508101906126a99190615618565b6001600160a01b0316145b6126d05760405162461bcd60e51b8152600401610bc490615635565b610e4b81612fb4565b3360008181526001602090815260408083206001600160a01b03871684529091528120549091908381101561275e5760405162461bcd60e51b815260206004820152602560248201527f45524332303a2064656372656173656420616c6c6f77616e63652062656c6f77604482015264207a65726f60d81b6064820152608401610bc4565b61276b8286868403612e8f565b506001949350505050565b600033610aae81858561311d565b600c5460405163160a792560e01b81523360048201526001600160a01b039091169063160a792590602401608060405180830381865afa1580156127cc573d6000803e3d6000fd5b505050506040513d601f19601f820116820180604052508101906127f09190615594565b60200151806128725750600c546040516331a9108f60e11b81526001600482015233916001600160a01b031690636352211e90602401602060405180830381865afa158015612843573d6000803e3d6000fd5b505050506040513d601f19601f820116820180604052508101906128679190615618565b6001600160a01b0316145b61288e5760405162461bcd60e51b8152600401610bc490615635565b610e4b816140c8565b600c5460405163160a792560e01b81523360048201526001600160a01b039091169063160a792590602401608060405180830381865afa1580156128df573d6000803e3d6000fd5b505050506040513d601f19601f820116820180604052508101906129039190615594565b60200151806129855750600c546040516331a9108f60e11b81526001600482015233916001600160a01b031690636352211e90602401602060405180830381865afa158015612956573d6000803e3d6000fd5b505050506040513d601f19601f8201168201806040525081019061297a9190615618565b6001600160a01b0316145b6129a15760405162461bcd60e51b8152600401610bc490615635565b6040516bffffffffffffffffffffffff193060601b16602082015260009060340160408051601f19818403018152908290528051602090910120600c546301caf8fd60e31b83529092506001600160a01b031690630e57c7e890612a0d908490879087906004016158c0565b600060405180830381600087803b158015612a2757600080fd5b505af1158015612a3b573d6000803e3d6000fd5b50505050505050565b600b54600090600160a01b900460ff1615612abb5760405162461bcd60e51b815260206004820152603160248201527f455243323054656d706c6174653a20746f6b656e20696e7374616e636520616c6044820152701c9958591e481a5b9a5d1a585b1a5e9959607a1b6064820152608401610bc4565b612b6f612ac88b8d61593a565b8a8a8080602002602001604051908101604052809392919081815260200183836020028082843760009201919091525050604080516020808e0282810182019093528d82529093508d92508c91829185019084908082843760009201919091525050604080516020808d0282810182019093528c82529093508c92508b918291850190849080828437600092019190915250612b6a92508991508a90506159c1565b6141a9565b9b9a5050505050505050505050565b43841015612bc15760405162461bcd60e51b815260206004820152601060248201526f115490cc8c11150e881156141254915160821b6044820152606401610bc4565b6011546001600160a01b038816600090815260126020526040812080549192917f6e71edae12b1b97f4d1f60370fef10105fa2faae0126114a169c64845d6126c9918b918b918b919087612c1483615a3c565b909155506040805160208101969096526001600160a01b0394851690860152929091166060840152608083015260a082015260c0810187905260e00160405160208183030381529060405280519060200120604051602001612c8d92919061190160f01b81526002810192909252602282015260420190565b60408051601f198184030181528282528051602091820120600080855291840180845281905260ff88169284019290925260608301869052608083018590529092509060019060a0016020604051602081039080840390855afa158015612cf8573d6000803e3d6000fd5b5050604051601f1901519150506001600160a01b03811615801590612d2e5750886001600160a01b0316816001600160a01b0316145b612d7a5760405162461bcd60e51b815260206004820152601a60248201527f455243323044543a20494e56414c49445f5349474e41545552450000000000006044820152606401610bc4565b612d85898989612e8f565b505050505050505050565b612d98612dd0565b6001600160a01b03166108fc479081150290604051600060405180830381858888f19350505050158015610e4b573d6000803e3d6000fd5b600d546000906001600160a01b0316612e5557600c546040516331a9108f60e11b8152600160048201526001600160a01b0390911690636352211e90602401602060405180830381865afa158015612e2c573d6000803e3d6000fd5b505050506040513d601f19601f82011682018060405250810190612e509190615618565b905090565b50600d546001600160a01b031690565b60068181548110612e7557600080fd5b6000918252602090912001546001600160a01b0316905081565b6001600160a01b038316612ef15760405162461bcd60e51b8152602060048201526024808201527f45524332303a20617070726f76652066726f6d20746865207a65726f206164646044820152637265737360e01b6064820152608401610bc4565b6001600160a01b038216612f525760405162461bcd60e51b815260206004820152602260248201527f45524332303a20617070726f766520746f20746865207a65726f206164647265604482015261737360f01b6064820152608401610bc4565b6001600160a01b0383811660008181526001602090815260408083209487168084529482529182902085905590518481527f8c5be1e5ebec7d5bd14f71427d1e84f3dd0314c0f7b2291e5b200ac8c7c3b92591015b60405180910390a3505050565b6001600160a01b03811615610e4b576001600160a01b0381166000908152600560205260409020805460ff161561302d5760405162461bcd60e51b815260206004820152601d60248201527f4552433230526f6c65733a2020414c52454144592041204d494e5445520000006044820152606401610bc4565b805460ff1916600117815561304182614661565b6040805142815243602082015233916001600160a01b038516917f4f7e100eb1ee13e903798bd0d6aa854152e07eb05544f392b9409c12935c809591015b60405180910390a35050565b6001600160a01b038381166000908152600160209081526040808320938616835292905220546000198114613117578181101561310a5760405162461bcd60e51b815260206004820152601d60248201527f45524332303a20696e73756666696369656e7420616c6c6f77616e63650000006044820152606401610bc4565b6131178484848403612e8f565b50505050565b6001600160a01b0383166131815760405162461bcd60e51b815260206004820152602560248201527f45524332303a207472616e736665722066726f6d20746865207a65726f206164604482015264647265737360d81b6064820152608401610bc4565b6001600160a01b0382166131e35760405162461bcd60e51b815260206004820152602360248201527f45524332303a207472616e7366657220746f20746865207a65726f206164647260448201526265737360e81b6064820152608401610bc4565b6001600160a01b0383166000908152602081905260409020548181101561325b5760405162461bcd60e51b815260206004820152602660248201527f45524332303a207472616e7366657220616d6f756e7420657863656564732062604482015265616c616e636560d01b6064820152608401610bc4565b6001600160a01b038085166000908152602081905260408082208585039055918516815290812080548492906132929084906156b7565b92505081905550826001600160a01b0316846001600160a01b03167fddf252ad1be2c89b69c2b068fc378daa952ba7f163c4a11628f55a4df523b3ef846040516132de91815260200190565b60405180910390a3613117565b6001600160a01b03811660008181526005602052604090819020805461ff00191681559051909133917faee911eec8b2df8f3ae0464841541b1e5f339519bd5cf51889fe8b07fecff6589061334c9042904390918252602082015260400190565b60405180910390a36110eb82614718565b6001600160a01b03811660008181526005602052604090819020805460ff191681559051909133917fefa2735987005aaa89c050c0ff8cc9ae7d9079d19382081c429130f98c52d4809061334c9042904390918252602082015260400190565b60408051808201909152601c81527f19457468657265756d205369676e6564204d6573736167653a0a333200000000602082015260008161340160e0850185615a57565b61340e6020870187614cf3565b61341e6040880160208901614cf3565b87604001358860c0013560405160200161343d96959493929190615a9d565b604051602081830303815290604052805190602001206040516020016134649291906157b3565b60408051601f198184030181529190528051602090910120905060006001826134936080870160608801615adb565b6040805160008152602081018083529390935260ff90911690820152608080870135606083015260a08088013591830191909152016020604051602081039080840390855afa1580156134ea573d6000803e3d6000fd5b5050604051601f190151915061350590506020850185614cf3565b6001600160a01b0316816001600160a01b03161461355c5760405162461bcd60e51b8152602060048201526014602482015273496e76616c69642070726f76696465722066656560601b6044820152606401610bc4565b61356c6040850160208601614cf3565b6001600160a01b03166135826020860186614cf3565b6001600160a01b03167ff8ed11cdaaf10eca2b6c941fb802cb8682afe86cac1eb93f70d0780fa062c54460408701356135be60e0890189615a57565b6135ce60808b0160608c01615adb565b8a608001358b60a001358c60c001356040516135f09796959493929190615af6565b60405180910390a360008460400135118015613625575060006136196040860160208701614cf3565b6001600160a01b031614155b80156136475750600061363b6020860186614cf3565b6001600160a01b031614155b156131175760135460408051636c45e88160e01b815290516000926001600160a01b031691636c45e8819160048083019260209291908290030181865afa158015613696573d6000803e3d6000fd5b505050506040513d601f19601f820116820180604052508101906136ba91906156e5565b9050600081156136e7576136e4670de0b6b3a76400006136de604089013585614866565b90614872565b90505b60006136f7604088013583613fe4565b905061371861370c6040890160208a01614cf3565b33308a60400135613e96565b6137496137286020890189614cf3565b8261373960408b0160208c01614cf3565b6001600160a01b0316919061487e565b8115612a3b57600b54612a3b906001600160a01b03168361373960408b0160208c01614cf3565b6000610d3182846156b7565b6001600160a01b0382166137d25760405162461bcd60e51b815260206004820152601f60248201527f45524332303a206d696e7420746f20746865207a65726f2061646472657373006044820152606401610bc4565b80600260008282546137e491906156b7565b90915550506001600160a01b038216600090815260208190526040812080548392906138119084906156b7565b90915550506040518181526001600160a01b038316906000907fddf252ad1be2c89b69c2b068fc378daa952ba7f163c4a11628f55a4df523b3ef9060200160405180910390a35050565b6001600160a01b0382166138bb5760405162461bcd60e51b815260206004820152602160248201527f45524332303a206275726e2066726f6d20746865207a65726f206164647265736044820152607360f81b6064820152608401610bc4565b6001600160a01b0382166000908152602081905260409020548181101561392f5760405162461bcd60e51b815260206004820152602260248201527f45524332303a206275726e20616d6f756e7420657863656564732062616c616e604482015261636560f01b6064820152608401610bc4565b6001600160a01b038316600090815260208190526040812083830390556002805484929061395e908490615b39565b90915550506040518281526000906001600160a01b038516907fddf252ad1be2c89b69c2b068fc378daa952ba7f163c4a11628f55a4df523b3ef90602001612fa7565b505050565b6016546015546000916139b8916156b7565b9050600080826001600160401b038111156139d5576139d5614f18565b6040519080825280602002602001820160405280156139fe578160200160208202803683370190505b50905060005b601554811015613ce457600060158281548110613a2357613a236156cf565b60009182526020822060029091020154601580546001600160a01b039092169350829182918591634c87087d919088908110613a6157613a616156cf565b9060005260206000209060020201600101546040518263ffffffff1660e01b8152600401613a9191815260200190565b61018060405180830381865afa158015613aaf573d6000803e3d6000fd5b505050506040513d601f19601f82011682018060405250810190613ad39190615b50565b9b509b509b505050505050505050506000821115613b7957836001600160a01b031663f32f947660158781548110613b0d57613b0d6156cf565b906000526020600020906002020160010154846040518363ffffffff1660e01b8152600401613b46929190918252602082015260400190565b600060405180830381600087803b158015613b6057600080fd5b505af1158015613b74573d6000803e3d6000fd5b505050505b8215613c0d57836001600160a01b031663c612e48a60158781548110613ba157613ba16156cf565b906000526020600020906002020160010154856040518363ffffffff1660e01b8152600401613bda929190918252602082015260400190565b600060405180830381600087803b158015613bf457600080fd5b505af1158015613c08573d6000803e3d6000fd5b505050505b613c5060158681548110613c2357613c236156cf565b600091825260208083206002909202909101546001600160a01b0316825260059052604090205460ff1690565b8015613c5e57506001811515145b15613ccd5760158581548110613c7657613c766156cf565b600091825260209091206002909102015486516001600160a01b0390911690879089908110613ca757613ca76156cf565b6001600160a01b039092166020928302919091019091015286613cc981615a3c565b9750505b505050508080613cdc90615a3c565b915050613a04565b5060005b601654811015613e295760168181548110613d0557613d056156cf565b60009182526020909120015460405163f9bfaa7d60e01b81523060048201526001600160a01b039091169063f9bfaa7d90602401600060405180830381600087803b158015613d5357600080fd5b505af1158015613d67573d6000803e3d6000fd5b50505050613da960168281548110613d8157613d816156cf565b60009182526020808320909101546001600160a01b0316825260059052604090205460ff1690565b15613e175760168181548110613dc157613dc16156cf565b9060005260206000200160009054906101000a90046001600160a01b0316828481518110613df157613df16156cf565b6001600160a01b039092166020928302919091019091015282613e1381615a3c565b9350505b80613e2181615a3c565b915050613ce8565b613e316148e1565b50600d80546001600160a01b031916905560005b8281101561311757613e62828281518110611753576117536156cf565b80613e6c81615a3c565b915050613e45565b600d80546001600160a01b0319166001600160a01b0392909216919091179055565b6040516370a0823160e01b81526001600160a01b038381166004830152600091908616906370a0823190602401602060405180830381865afa158015613ee0573d6000803e3d6000fd5b505050506040513d601f19601f82011682018060405250810190613f0491906156e5565b9050613f1b6001600160a01b038616858585614990565b613f258183613770565b6040516370a0823160e01b81526001600160a01b0385811660048301528716906370a0823190602401602060405180830381865afa158015613f6b573d6000803e3d6000fd5b505050506040513d601f19601f82011682018060405250810190613f8f91906156e5565b1015613fdd5760405162461bcd60e51b815260206004820152601a60248201527f5472616e7366657220616d6f756e7420697320746f6f206c6f770000000000006044820152606401610bc4565b5050505050565b6000610d318284615b39565b600080600080845160411461400b5760009350505050610ab4565b50505060208201516040830151604184015160ff16601b81101561403757614034601b82615c0d565b90505b8060ff16601b1415801561404f57508060ff16601c14155b156140605760009350505050610ab4565b60408051600081526020810180835288905260ff831691810191909152606081018490526080810183905260019060a0016020604051602081039080840390855afa1580156140b3573d6000803e3d6000fd5b5050604051601f190151979650505050505050565b6001600160a01b03811615610e4b576001600160a01b03811660009081526005602052604090208054610100900460ff16156141515760405162461bcd60e51b815260206004820152602260248201527f4552433230526f6c65733a2020414c5245414459204120464545204d414e414760448201526122a960f11b6064820152608401610bc4565b805461ff00191661010017815561416782614661565b6040805142815243602082015233916001600160a01b038516917fb17da2e9910b4ba5754e8872385ba315a238bafb5ae221fc85093c33432c40a7910161307f565b600080846000815181106141bf576141bf6156cf565b602002602001015190506000856001815181106141de576141de6156cf565b6020026020010151905060006001600160a01b0316826001600160a01b031614156142605760405162461bcd60e51b815260206004820152602c60248201527f455243323054656d706c6174653a20496e76616c6964206d696e7465722c202060448201526b7a65726f206164647265737360a01b6064820152608401610bc4565b6001600160a01b0381166142dc5760405162461bcd60e51b815260206004820152603c60248201527f455243323054656d706c6174653a20496e76616c696420636f6d6d756e69747960448201527f2066656520636f6c6c6563746f722c207a65726f2061646472657373000000006064820152608401610bc4565b600019600a55875188906000906142f5576142f56156cf565b602002602001015160089080519060200190614312929190614c1b565b5087600181518110614326576143266156cf565b602002602001015160099080519060200190614343929190614c1b565b50600c80546001600160a01b0319166001600160a01b038416179055855186906002908110614374576143746156cf565b6020908102919091010151601380546001600160a01b039283166001600160a01b0319909116179055600b80546001600160a81b03191691831691909117600160a01b17905586516143d1908890600090611753576117536156cf565b60006001600160a01b0316876001815181106143ef576143ef6156cf565b60200260200101516001600160a01b031614614499576144288760018151811061441b5761441b6156cf565b6020026020010151613e74565b8660018151811061443b5761443b6156cf565b60200260200101516001600160a01b0316336001600160a01b03167f4d7694d695c57cc54947177c8e8a0e61aae664e9223492a798c32fadfc6419cc4243604051614490929190918252602082015260400190565b60405180910390a35b866002815181106144ac576144ac6156cf565b6020026020010151600e60006101000a8154816001600160a01b0302191690836001600160a01b03160217905550866003815181106144ed576144ed6156cf565b6020026020010151600f60006101000a8154816001600160a01b0302191690836001600160a01b031602179055508460018151811061452e5761452e6156cf565b6020908102919091018101516010819055600e54600f54604080513381526001600160a01b039384169581019590955291169083015260608201527f02ab4b3fc023109c2d0da394bda239166c833f63c42b71b67ed4b836dca0ddfe9060800160405180910390a160405146907f8b73c3c69bb8fe3d512ecc4cf759cc79239f7b179b0ffacaa9a75d522b39400f906145c990600890615c32565b60408051918290038220828201825260018352603160f81b6020938401528151928301939093528101919091527fc89efdaa54c0f20c7adf612882df0950f5a951637e0307cdcb4c672f298b8bc66060820152608081018290523060a082015260c00160408051808303601f1901815291905280516020909101206011555050600b54600160a01b900460ff16979650505050505050565b60005b6006548110156146bd57816001600160a01b03166006828154811061468b5761468b6156cf565b6000918252602090912001546001600160a01b031614156146ab576146bd565b806146b581615a3c565b915050614664565b6006548114156110eb57600680546001810182556000919091527ff652222313e28459528d920b65115c16c04f3efc82aaedc97be59f3f377c0d3f0180546001600160a01b0384166001600160a01b03199091161790555050565b6001600160a01b0381166000908152600560205260409020805460ff1615801561474957508054610100900460ff16155b156110eb5760005b6006548110156147aa57826001600160a01b031660068281548110614778576147786156cf565b6000918252602090912001546001600160a01b03161415614798576147aa565b806147a281615a3c565b915050614751565b6006548110156139a157600680546147c490600190615b39565b815481106147d4576147d46156cf565b600091825260209091200154600680546001600160a01b039092169183908110614800576148006156cf565b9060005260206000200160006101000a8154816001600160a01b0302191690836001600160a01b03160217905550600680548061483f5761483f615cce565b600082815260209020810160001990810180546001600160a01b0319169055019055505050565b6000610d318284615ce4565b6000610d318284615d03565b6040516001600160a01b0383166024820152604481018290526139a190849063a9059cbb60e01b906064015b60408051601f198184030181529190526020810180516001600160e01b03166001600160e01b0319909316929092179091526149c8565b60005b6006548110156149475760006005600060068481548110614907576149076156cf565b60009182526020808320909101546001600160a01b031683528201929092526040019020805461ffff19169055508061493f81615a3c565b9150506148e4565b5061495460066000614c9f565b6040805142815243602082015233917f712bc71db81927a76b8bf1ea346247bb0ad58f18e4e5c1bd4aa0ec6573e02a2b910160405180910390a2565b6040516001600160a01b03808516602483015283166044820152606481018290526131179085906323b872dd60e01b906084016148aa565b6000614a1d826040518060400160405280602081526020017f5361666545524332303a206c6f772d6c6576656c2063616c6c206661696c6564815250856001600160a01b0316614a9a9092919063ffffffff16565b8051909150156139a15780806020019051810190614a3b9190615d25565b6139a15760405162461bcd60e51b815260206004820152602a60248201527f5361666545524332303a204552433230206f7065726174696f6e20646964206e6044820152691bdd081cdd58d8d9595960b21b6064820152608401610bc4565b6060614aa98484600085614ab1565b949350505050565b606082471015614b125760405162461bcd60e51b815260206004820152602660248201527f416464726573733a20696e73756666696369656e742062616c616e636520666f6044820152651c8818d85b1b60d21b6064820152608401610bc4565b6001600160a01b0385163b614b695760405162461bcd60e51b815260206004820152601d60248201527f416464726573733a2063616c6c20746f206e6f6e2d636f6e74726163740000006044820152606401610bc4565b600080866001600160a01b03168587604051614b859190615d42565b60006040518083038185875af1925050503d8060008114614bc2576040519150601f19603f3d011682016040523d82523d6000602084013e614bc7565b606091505b5091509150614bd7828286614be2565b979650505050505050565b60608315614bf1575081610d31565b825115614c015782518084602001fd5b8160405162461bcd60e51b8152600401610bc49190614d3c565b828054614c279061555f565b90600052602060002090601f016020900481019282614c495760008555614c8f565b82601f10614c6257805160ff1916838001178555614c8f565b82800160010185558215614c8f579182015b82811115614c8f578251825591602001919060010190614c74565b50614c9b929150614cb9565b5090565b5080546000825590600052602060002090810190610e4b91905b5b80821115614c9b5760008155600101614cba565b6001600160a01b0381168114610e4b57600080fd5b8035614cee81614cce565b919050565b600060208284031215614d0557600080fd5b8135610d3181614cce565b60005b83811015614d2b578181015183820152602001614d13565b838111156131175750506000910152565b6020815260008251806020840152614d5b816040850160208701614d10565b601f01601f19169190910160400192915050565b60008060408385031215614d8257600080fd5b8235614d8d81614cce565b946020939093013593505050565b8015158114610e4b57600080fd5b600080600080600060a08688031215614dc157600080fd5b8535614dcc81614cce565b945060208601359350604086013592506060860135614dea81614d9b565b91506080860135614dfa81614cce565b809150509295509295909350565b600080600060608486031215614e1d57600080fd5b8335614e2881614cce565b92506020840135614e3881614cce565b929592945050506040919091013590565b60006101008284031215614e5c57600080fd5b50919050565b60008060408385031215614e7557600080fd5b8235915060208301356001600160401b03811115614e9257600080fd5b614e9e85828601614e49565b9150509250929050565b600060208284031215614eba57600080fd5b5035919050565b600081518084526020808501945080840160005b83811015614efa5781516001600160a01b031687529582019590820190600101614ed5565b509495945050505050565b602081526000610d316020830184614ec1565b634e487b7160e01b600052604160045260246000fd5b604051601f8201601f191681016001600160401b0381118282101715614f5657614f56614f18565b604052919050565b60006001600160401b03821115614f7757614f77614f18565b5060051b60200190565b600082601f830112614f9257600080fd5b81356020614fa7614fa283614f5e565b614f2e565b82815260059290921b84018101918181019086841115614fc657600080fd5b8286015b84811015614fe15780358352918301918301614fca565b509695505050505050565b600082601f830112614ffd57600080fd5b8135602061500d614fa283614f5e565b82815260059290921b8401810191818101908684111561502c57600080fd5b8286015b84811015614fe157803561504381614cce565b8352918301918301615030565b60008060006060848603121561506557600080fd5b83356001600160401b038082111561507c57600080fd5b61508887838801614f81565b9450602086013591508082111561509e57600080fd5b6150aa87838801614f81565b935060408601359150808211156150c057600080fd5b506150cd86828701614fec565b9150509250925092565b60008060008084860360c08112156150ee57600080fd5b85356150f981614cce565b94506020860135935060408601356001600160401b0381111561511b57600080fd5b61512788828901614e49565b9350506060605f198201121561513c57600080fd5b509295919450926060019150565b602080825282518282018190526000919060409081850190868401855b8281101561519557815180516001600160a01b03168552860151868501529284019290850190600101615167565b5091979650505050505050565b60008083601f8401126151b457600080fd5b5081356001600160401b038111156151cb57600080fd5b6020830191508360208285010111156151e357600080fd5b9250929050565b60008060008060008060008060008060c08b8d03121561520957600080fd5b8a35995060208b01356001600160401b038082111561522757600080fd5b6152338e838f016151a2565b909b50995060408d013591508082111561524c57600080fd5b6152588e838f016151a2565b909950975060608d013591508082111561527157600080fd5b61527d8e838f016151a2565b909750955060808d013591508082111561529657600080fd5b506152a38d828e016151a2565b90945092506152b6905060a08c01614ce3565b90509295989b9194979a5092959850565b6000806000606084860312156152dc57600080fd5b83356152e781614cce565b925060208401356001600160401b038082111561530357600080fd5b61530f87838801614fec565b9350604086013591508082111561532557600080fd5b506150cd86828701614f81565b6000806020838503121561534557600080fd5b82356001600160401b0381111561535b57600080fd5b615367858286016151a2565b90969095509350505050565b60008083601f84011261538557600080fd5b5081356001600160401b0381111561539c57600080fd5b6020830191508360208260051b85010111156151e357600080fd5b60008060008060008060008060008060a08b8d0312156153d657600080fd5b8a356001600160401b03808211156153ed57600080fd5b6153f98e838f01615373565b909c509a5060208d013591508082111561541257600080fd5b61541e8e838f01615373565b909a50985060408d013591508082111561543757600080fd5b6154438e838f01615373565b909850965060608d013591508082111561545c57600080fd5b6154688e838f01615373565b909650945060808d013591508082111561548157600080fd5b5061548e8d828e01615373565b915080935050809150509295989b9194979a5092959850565b803560ff81168114614cee57600080fd5b600080600080600080600060e0888a0312156154d357600080fd5b87356154de81614cce565b965060208801356154ee81614cce565b9550604088013594506060880135935061550a608089016154a7565b925060a0880135915060c0880135905092959891949750929550565b6000806040838503121561553957600080fd5b823561554481614cce565b9150602083013561555481614cce565b809150509250929050565b600181811c9082168061557357607f821691505b60208210811415614e5c57634e487b7160e01b600052602260045260246000fd5b6000608082840312156155a657600080fd5b604051608081018181106001600160401b03821117156155c8576155c8614f18565b60405282516155d681614d9b565b815260208301516155e681614d9b565b602082015260408301516155f981614d9b565b6040820152606083015161560c81614d9b565b60608201529392505050565b60006020828403121561562a57600080fd5b8151610d3181614cce565b6020808252818101527f455243323054656d706c6174653a204e4f54204445504c4f59455220524f4c45604082015260600190565b6020808252601f908201527f5265656e7472616e637947756172643a207265656e7472616e742063616c6c00604082015260600190565b634e487b7160e01b600052601160045260246000fd5b600082198211156156ca576156ca6156a1565b500190565b634e487b7160e01b600052603260045260246000fd5b6000602082840312156156f757600080fd5b5051919050565b600081518084526020808501945080840160005b83811015614efa57815187529582019590820190600101615712565b60008186825b600281101561575c5781516001600160a01b0316835260209283019290910190600101615734565b50505060a0604083015261577360a08301866156fe565b828103606084015261578581866156fe565b90508281036080840152614bd78185614ec1565b838152818360208301376000910160200190815292915050565b600083516157c5818460208801614d10565b9190910191825250602001919050565b8183823760009101908152919050565b81835281816020850137506000828201602090810191909152601f909101601f19169091010190565b8b815260e06020820152600061582860e083018c8e6157e5565b828103604084015261583b818b8d6157e5565b9050828103606084015261585081898b6157e5565b905082810360808401526158658187896157e5565b60a0840195909552505060c001529998505050505050505050565b6001600160a01b03841681526060602082018190526000906158a490830185614ec1565b82810360408401526158b681856156fe565b9695505050505050565b8381526040602082015260006158da6040830184866157e5565b95945050505050565b60006001600160401b038311156158fc576158fc614f18565b61590f601f8401601f1916602001614f2e565b905082815283838301111561592357600080fd5b828260208301376000602084830101529392505050565b6000615948614fa284614f5e565b80848252602080830192508560051b85013681111561596657600080fd5b855b818110156159b55780356001600160401b038111156159875760008081fd5b870136601f8201126159995760008081fd5b6159a73682358684016158e3565b865250938201938201615968565b50919695505050505050565b60006159cf614fa284614f5e565b80848252602080830192508560051b8501368111156159ed57600080fd5b855b818110156159b55780356001600160401b03811115615a0e5760008081fd5b870136601f820112615a205760008081fd5b615a2e3682358684016158e3565b8652509382019382016159ef565b6000600019821415615a5057615a506156a1565b5060010190565b6000808335601e19843603018112615a6e57600080fd5b8301803591506001600160401b03821115615a8857600080fd5b6020019150368190038213156151e357600080fd5b858782376bffffffffffffffffffffffff19606095861b8116969091019586529290931b909116601484015260288301526048820152606801919050565b600060208284031215615aed57600080fd5b610d31826154a7565b87815260c060208201526000615b1060c08301888a6157e5565b905060ff861660408301528460608301528360808301528260a083015298975050505050505050565b600082821015615b4b57615b4b6156a1565b500390565b6000806000806000806000806000806000806101808d8f031215615b7357600080fd5b8c51615b7e81614cce565b60208e0151909c50615b8f81614cce565b60408e015160608f0151919c509a50615ba781614cce565b8099505060808d0151975060a08d0151965060c08d0151615bc781614d9b565b8096505060e08d015194506101008d015193506101208d015192506101408d015191506101608d0151615bf981614d9b565b809150509295989b509295989b509295989b565b600060ff821660ff84168060ff03821115615c2a57615c2a6156a1565b019392505050565b600080835481600182811c915080831680615c4e57607f831692505b6020808410821415615c6e57634e487b7160e01b86526022600452602486fd5b818015615c825760018114615c9357615cc0565b60ff19861689528489019650615cc0565b60008a81526020902060005b86811015615cb85781548b820152908501908301615c9f565b505084890196505b509498975050505050505050565b634e487b7160e01b600052603160045260246000fd5b6000816000190483118215151615615cfe57615cfe6156a1565b500290565b600082615d2057634e487b7160e01b600052601260045260246000fd5b500490565b600060208284031215615d3757600080fd5b8151610d3181614d9b565b60008251615d54818460208701614d10565b919091019291505056fea26469706673582212202675234a5faa7970f3187d9a90161cf9bf36fbb6c50b81fe107269d761bde67864736f6c634300080c0033",
  "linkReferences": {},
  "deployedLinkReferences": {}
}