{
  "_format": "hh-sol-artifact-1",
  "contractName": "ERC20Template",
  "sourceName": "contracts/templates/ERC20Template.sol",
  "abi": [
    {
      "anonymous": false,
      "inputs": [
        {
          "indexed": true,
          "internalType": "address",
          "name": "user",
          "type": "address"
        },
        {
          "indexed": true,
          "internalType": "address",
          "name": "signer",
          "type": "address"
        },
        {
          "indexed": false,
          "internalType": "uint256",
          "name": "timestamp",
          "type": "uint256"
        },
        {
          "indexed": false,
          "internalType": "uint256",
          "name": "blockNumber",
          "type": "uint256"
        }
      ],
      "name": "AddedMinter",
      "type": "event"
    },
    {
      "anonymous": false,
      "inputs": [
        {
          "indexed": true,
          "internalType": "address",
          "name": "user",
          "type": "address"
        },
        {
          "indexed": true,
          "internalType": "address",
          "name": "signer",
          "type": "address"
        },
        {
          "indexed": false,
          "internalType": "uint256",
          "name": "timestamp",
          "type": "uint256"
        },
        {
          "indexed": false,
          "internalType": "uint256",
          "name": "blockNumber",
          "type": "uint256"
        }
      ],
      "name": "AddedPaymentManager",
      "type": "event"
    },
    {
      "anonymous": false,
      "inputs": [
        {
          "indexed": true,
          "internalType": "address",
          "name": "owner",
          "type": "address"
        },
        {
          "indexed": true,
          "internalType": "address",
          "name": "spender",
          "type": "address"
        },
        {
          "indexed": false,
          "internalType": "uint256",
          "name": "value",
          "type": "uint256"
        }
      ],
      "name": "Approval",
      "type": "event"
    },
    {
      "anonymous": false,
      "inputs": [
        {
          "indexed": true,
          "internalType": "address",
          "name": "signer",
          "type": "address"
        },
        {
          "indexed": false,
          "internalType": "uint256",
          "name": "timestamp",
          "type": "uint256"
        },
        {
          "indexed": false,
          "internalType": "uint256",
          "name": "blockNumber",
          "type": "uint256"
        }
      ],
      "name": "CleanedPermissions",
      "type": "event"
    },
    {
      "anonymous": false,
      "inputs": [
        {
          "indexed": false,
          "internalType": "address",
          "name": "currentMinter",
          "type": "address"
        },
        {
          "indexed": false,
          "internalType": "address",
          "name": "newMinter",
          "type": "address"
        }
      ],
      "name": "MinterApproved",
      "type": "event"
    },
    {
      "anonymous": false,
      "inputs": [
        {
          "indexed": false,
          "internalType": "address",
          "name": "currentMinter",
          "type": "address"
        },
        {
          "indexed": false,
          "internalType": "address",
          "name": "newMinter",
          "type": "address"
        }
      ],
      "name": "MinterProposed",
      "type": "event"
    },
    {
      "anonymous": false,
      "inputs": [
        {
          "indexed": false,
          "internalType": "address",
          "name": "dispenserContract",
          "type": "address"
        }
      ],
      "name": "NewDispenser",
      "type": "event"
    },
    {
      "anonymous": false,
      "inputs": [
        {
          "indexed": false,
          "internalType": "bytes32",
          "name": "exchangeId",
          "type": "bytes32"
        },
        {
          "indexed": true,
          "internalType": "address",
          "name": "owner",
          "type": "address"
        },
        {
          "indexed": false,
          "internalType": "address",
          "name": "exchangeContract",
          "type": "address"
        },
        {
          "indexed": true,
          "internalType": "address",
          "name": "baseToken",
          "type": "address"
        }
      ],
      "name": "NewFixedRate",
      "type": "event"
    },
    {
      "anonymous": false,
      "inputs": [
        {
          "indexed": true,
          "internalType": "address",
          "name": "caller",
          "type": "address"
        },
        {
          "indexed": true,
          "internalType": "address",
          "name": "_newPaymentCollector",
          "type": "address"
        },
        {
          "indexed": false,
          "internalType": "uint256",
          "name": "timestamp",
          "type": "uint256"
        },
        {
          "indexed": false,
          "internalType": "uint256",
          "name": "blockNumber",
          "type": "uint256"
        }
      ],
      "name": "NewPaymentCollector",
      "type": "event"
    },
    {
      "anonymous": false,
      "inputs": [
        {
          "indexed": false,
          "internalType": "address",
          "name": "poolAddress",
          "type": "address"
        },
        {
          "indexed": false,
          "internalType": "address",
          "name": "ssContract",
          "type": "address"
        },
        {
          "indexed": false,
          "internalType": "address",
          "name": "baseTokenAddress",
          "type": "address"
        }
      ],
      "name": "NewPool",
      "type": "event"
    },
    {
      "anonymous": false,
      "inputs": [
        {
          "indexed": true,
          "internalType": "address",
          "name": "consumer",
          "type": "address"
        },
        {
          "indexed": false,
          "internalType": "address",
          "name": "payer",
          "type": "address"
        },
        {
          "indexed": false,
          "internalType": "uint256",
          "name": "amount",
          "type": "uint256"
        },
        {
          "indexed": false,
          "internalType": "uint256",
          "name": "serviceIndex",
          "type": "uint256"
        },
        {
          "indexed": false,
          "internalType": "uint256",
          "name": "timestamp",
          "type": "uint256"
        },
        {
          "indexed": true,
          "internalType": "address",
          "name": "publishMarketAddress",
          "type": "address"
        },
        {
          "indexed": false,
          "internalType": "uint256",
          "name": "blockNumber",
          "type": "uint256"
        }
      ],
      "name": "OrderStarted",
      "type": "event"
    },
    {
      "anonymous": false,
      "inputs": [
        {
          "indexed": true,
          "internalType": "address",
          "name": "providerFeeAddress",
          "type": "address"
        },
        {
          "indexed": true,
          "internalType": "address",
          "name": "providerFeeToken",
          "type": "address"
        },
        {
          "indexed": false,
          "internalType": "uint256",
          "name": "providerFeeAmount",
          "type": "uint256"
        },
        {
          "indexed": false,
          "internalType": "bytes",
          "name": "providerData",
          "type": "bytes"
        },
        {
          "indexed": false,
          "internalType": "uint8",
          "name": "v",
          "type": "uint8"
        },
        {
          "indexed": false,
          "internalType": "bytes32",
          "name": "r",
          "type": "bytes32"
        },
        {
          "indexed": false,
          "internalType": "bytes32",
          "name": "s",
          "type": "bytes32"
        }
      ],
      "name": "ProviderFees",
      "type": "event"
    },
    {
      "anonymous": false,
      "inputs": [
        {
          "indexed": true,
          "internalType": "address",
          "name": "PublishMarketFeeAddress",
          "type": "address"
        },
        {
          "indexed": true,
          "internalType": "address",
          "name": "PublishMarketFeeToken",
          "type": "address"
        },
        {
          "indexed": false,
          "internalType": "uint256",
          "name": "PublishMarketFeeAmount",
          "type": "uint256"
        }
      ],
      "name": "PublishMarketFees",
      "type": "event"
    },
    {
      "anonymous": false,
      "inputs": [
        {
          "indexed": false,
          "internalType": "address",
          "name": "caller",
          "type": "address"
        },
        {
          "indexed": false,
          "internalType": "address",
          "name": "PublishMarketFeeAddress",
          "type": "address"
        },
        {
          "indexed": false,
          "internalType": "address",
          "name": "PublishMarketFeeToken",
          "type": "address"
        },
        {
          "indexed": false,
          "internalType": "uint256",
          "name": "PublishMarketFeeAmount",
          "type": "uint256"
        }
      ],
      "name": "PublishMarketFeesChanged",
      "type": "event"
    },
    {
      "anonymous": false,
      "inputs": [
        {
          "indexed": true,
          "internalType": "address",
          "name": "user",
          "type": "address"
        },
        {
          "indexed": true,
          "internalType": "address",
          "name": "signer",
          "type": "address"
        },
        {
          "indexed": false,
          "internalType": "uint256",
          "name": "timestamp",
          "type": "uint256"
        },
        {
          "indexed": false,
          "internalType": "uint256",
          "name": "blockNumber",
          "type": "uint256"
        }
      ],
      "name": "RemovedMinter",
      "type": "event"
    },
    {
      "anonymous": false,
      "inputs": [
        {
          "indexed": true,
          "internalType": "address",
          "name": "user",
          "type": "address"
        },
        {
          "indexed": true,
          "internalType": "address",
          "name": "signer",
          "type": "address"
        },
        {
          "indexed": false,
          "internalType": "uint256",
          "name": "timestamp",
          "type": "uint256"
        },
        {
          "indexed": false,
          "internalType": "uint256",
          "name": "blockNumber",
          "type": "uint256"
        }
      ],
      "name": "RemovedPaymentManager",
      "type": "event"
    },
    {
      "anonymous": false,
      "inputs": [
        {
          "indexed": true,
          "internalType": "address",
          "name": "from",
          "type": "address"
        },
        {
          "indexed": true,
          "internalType": "address",
          "name": "to",
          "type": "address"
        },
        {
          "indexed": false,
          "internalType": "uint256",
          "name": "value",
          "type": "uint256"
        }
      ],
      "name": "Transfer",
      "type": "event"
    },
    {
      "stateMutability": "payable",
      "type": "fallback"
    },
    {
      "inputs": [],
      "name": "BASE",
      "outputs": [
        {
          "internalType": "uint256",
          "name": "",
          "type": "uint256"
        }
      ],
      "stateMutability": "view",
      "type": "function"
    },
    {
      "inputs": [],
      "name": "BASE_COMMUNITY_FEE_PERCENTAGE",
      "outputs": [
        {
          "internalType": "uint256",
          "name": "",
          "type": "uint256"
        }
      ],
      "stateMutability": "view",
      "type": "function"
    },
    {
      "inputs": [],
      "name": "DOMAIN_SEPARATOR",
      "outputs": [
        {
          "internalType": "bytes32",
          "name": "",
          "type": "bytes32"
        }
      ],
      "stateMutability": "view",
      "type": "function"
    },
    {
      "inputs": [],
      "name": "PERMIT_TYPEHASH",
      "outputs": [
        {
          "internalType": "bytes32",
          "name": "",
          "type": "bytes32"
        }
      ],
      "stateMutability": "view",
      "type": "function"
    },
    {
      "inputs": [
        {
          "internalType": "address",
          "name": "_minter",
          "type": "address"
        }
      ],
      "name": "addMinter",
      "outputs": [],
      "stateMutability": "nonpayable",
      "type": "function"
    },
    {
      "inputs": [
        {
          "internalType": "address",
          "name": "_paymentManager",
          "type": "address"
        }
      ],
      "name": "addPaymentManager",
      "outputs": [],
      "stateMutability": "nonpayable",
      "type": "function"
    },
    {
      "inputs": [
        {
          "internalType": "address",
          "name": "owner",
          "type": "address"
        },
        {
          "internalType": "address",
          "name": "spender",
          "type": "address"
        }
      ],
      "name": "allowance",
      "outputs": [
        {
          "internalType": "uint256",
          "name": "",
          "type": "uint256"
        }
      ],
      "stateMutability": "view",
      "type": "function"
    },
    {
      "inputs": [
        {
          "internalType": "address",
          "name": "spender",
          "type": "address"
        },
        {
          "internalType": "uint256",
          "name": "amount",
          "type": "uint256"
        }
      ],
      "name": "approve",
      "outputs": [
        {
          "internalType": "bool",
          "name": "",
          "type": "bool"
        }
      ],
      "stateMutability": "nonpayable",
      "type": "function"
    },
    {
      "inputs": [
        {
          "internalType": "uint256",
          "name": "",
          "type": "uint256"
        }
      ],
      "name": "authERC20",
      "outputs": [
        {
          "internalType": "address",
          "name": "",
          "type": "address"
        }
      ],
      "stateMutability": "view",
      "type": "function"
    },
    {
      "inputs": [
        {
          "internalType": "address",
          "name": "account",
          "type": "address"
        }
      ],
      "name": "balanceOf",
      "outputs": [
        {
          "internalType": "uint256",
          "name": "",
          "type": "uint256"
        }
      ],
      "stateMutability": "view",
      "type": "function"
    },
    {
      "inputs": [
        {
          "internalType": "uint256",
          "name": "amount",
          "type": "uint256"
        }
      ],
      "name": "burn",
      "outputs": [],
      "stateMutability": "nonpayable",
      "type": "function"
    },
    {
      "inputs": [
        {
          "internalType": "address",
          "name": "account",
          "type": "address"
        },
        {
          "internalType": "uint256",
          "name": "amount",
          "type": "uint256"
        }
      ],
      "name": "burnFrom",
      "outputs": [],
      "stateMutability": "nonpayable",
      "type": "function"
    },
    {
      "inputs": [],
      "name": "cap",
      "outputs": [
        {
          "internalType": "uint256",
          "name": "",
          "type": "uint256"
        }
      ],
      "stateMutability": "view",
      "type": "function"
    },
    {
      "inputs": [],
      "name": "cleanFrom721",
      "outputs": [],
      "stateMutability": "nonpayable",
      "type": "function"
    },
    {
      "inputs": [],
      "name": "cleanPermissions",
      "outputs": [],
      "stateMutability": "nonpayable",
      "type": "function"
    },
    {
      "inputs": [
        {
          "internalType": "address",
          "name": "_dispenser",
          "type": "address"
        },
        {
          "internalType": "uint256",
          "name": "maxTokens",
          "type": "uint256"
        },
        {
          "internalType": "uint256",
          "name": "maxBalance",
          "type": "uint256"
        },
        {
          "internalType": "bool",
          "name": "withMint",
          "type": "bool"
        },
        {
          "internalType": "address",
          "name": "allowedSwapper",
          "type": "address"
        }
      ],
      "name": "createDispenser",
      "outputs": [],
      "stateMutability": "nonpayable",
      "type": "function"
    },
    {
      "inputs": [
        {
          "internalType": "address",
          "name": "fixedPriceAddress",
          "type": "address"
        },
        {
          "internalType": "address[]",
          "name": "addresses",
          "type": "address[]"
        },
        {
          "internalType": "uint256[]",
          "name": "uints",
          "type": "uint256[]"
        }
      ],
      "name": "createFixedRate",
      "outputs": [
        {
          "internalType": "bytes32",
          "name": "exchangeId",
          "type": "bytes32"
        }
      ],
      "stateMutability": "nonpayable",
      "type": "function"
    },
    {
      "inputs": [],
      "name": "decimals",
      "outputs": [
        {
          "internalType": "uint8",
          "name": "",
          "type": "uint8"
        }
      ],
      "stateMutability": "pure",
      "type": "function"
    },
    {
      "inputs": [
        {
          "internalType": "address",
          "name": "spender",
          "type": "address"
        },
        {
          "internalType": "uint256",
          "name": "subtractedValue",
          "type": "uint256"
        }
      ],
      "name": "decreaseAllowance",
      "outputs": [
        {
          "internalType": "bool",
          "name": "",
          "type": "bool"
        }
      ],
      "stateMutability": "nonpayable",
      "type": "function"
    },
    {
      "inputs": [
        {
          "internalType": "uint256[]",
          "name": "ssParams",
          "type": "uint256[]"
        },
        {
          "internalType": "uint256[]",
          "name": "swapFees",
          "type": "uint256[]"
        },
        {
          "internalType": "address[]",
          "name": "addresses",
          "type": "address[]"
        }
      ],
      "name": "deployPool",
      "outputs": [
        {
          "internalType": "address",
          "name": "pool",
          "type": "address"
        }
      ],
      "stateMutability": "nonpayable",
      "type": "function"
    },
    {
      "inputs": [],
      "name": "getDispensers",
      "outputs": [
        {
          "internalType": "address[]",
          "name": "",
          "type": "address[]"
        }
      ],
      "stateMutability": "view",
      "type": "function"
    },
    {
      "inputs": [],
      "name": "getERC721Address",
      "outputs": [
        {
          "internalType": "address",
          "name": "",
          "type": "address"
        }
      ],
      "stateMutability": "view",
      "type": "function"
    },
    {
      "inputs": [],
      "name": "getFixedRates",
      "outputs": [
        {
          "components": [
            {
              "internalType": "address",
              "name": "contractAddress",
              "type": "address"
            },
            {
              "internalType": "bytes32",
              "name": "id",
              "type": "bytes32"
            }
          ],
          "internalType": "struct ERC20Template.fixedRate[]",
          "name": "",
          "type": "tuple[]"
        }
      ],
      "stateMutability": "view",
      "type": "function"
    },
    {
      "inputs": [],
      "name": "getId",
      "outputs": [
        {
          "internalType": "uint8",
          "name": "",
          "type": "uint8"
        }
      ],
      "stateMutability": "pure",
      "type": "function"
    },
    {
      "inputs": [],
      "name": "getPaymentCollector",
      "outputs": [
        {
          "internalType": "address",
          "name": "",
          "type": "address"
        }
      ],
      "stateMutability": "view",
      "type": "function"
    },
    {
      "inputs": [
        {
          "internalType": "address",
          "name": "user",
          "type": "address"
        }
      ],
      "name": "getPermissions",
      "outputs": [
        {
          "components": [
            {
              "internalType": "bool",
              "name": "minter",
              "type": "bool"
            },
            {
              "internalType": "bool",
              "name": "paymentManager",
              "type": "bool"
            }
          ],
          "internalType": "struct ERC20Roles.RolesERC20",
          "name": "",
          "type": "tuple"
        }
      ],
      "stateMutability": "view",
      "type": "function"
    },
    {
      "inputs": [],
      "name": "getPools",
      "outputs": [
        {
          "internalType": "address[]",
          "name": "",
          "type": "address[]"
        }
      ],
      "stateMutability": "view",
      "type": "function"
    },
    {
      "inputs": [],
      "name": "getPublishingMarketFee",
      "outputs": [
        {
          "internalType": "address",
          "name": "",
          "type": "address"
        },
        {
          "internalType": "address",
          "name": "",
          "type": "address"
        },
        {
          "internalType": "uint256",
          "name": "",
          "type": "uint256"
        }
      ],
      "stateMutability": "view",
      "type": "function"
    },
    {
      "inputs": [
        {
          "internalType": "address",
          "name": "spender",
          "type": "address"
        },
        {
          "internalType": "uint256",
          "name": "addedValue",
          "type": "uint256"
        }
      ],
      "name": "increaseAllowance",
      "outputs": [
        {
          "internalType": "bool",
          "name": "",
          "type": "bool"
        }
      ],
      "stateMutability": "nonpayable",
      "type": "function"
    },
    {
      "inputs": [
        {
          "internalType": "string[]",
          "name": "strings_",
          "type": "string[]"
        },
        {
          "internalType": "address[]",
          "name": "addresses_",
          "type": "address[]"
        },
        {
          "internalType": "address[]",
          "name": "factoryAddresses_",
          "type": "address[]"
        },
        {
          "internalType": "uint256[]",
          "name": "uints_",
          "type": "uint256[]"
        },
        {
          "internalType": "bytes[]",
          "name": "bytes_",
          "type": "bytes[]"
        }
      ],
      "name": "initialize",
      "outputs": [
        {
          "internalType": "bool",
          "name": "",
          "type": "bool"
        }
      ],
      "stateMutability": "nonpayable",
      "type": "function"
    },
    {
      "inputs": [
        {
          "internalType": "address",
          "name": "user",
          "type": "address"
        }
      ],
      "name": "isERC20Deployer",
      "outputs": [
        {
          "internalType": "bool",
          "name": "deployer",
          "type": "bool"
        }
      ],
      "stateMutability": "nonpayable",
      "type": "function"
    },
    {
      "inputs": [],
      "name": "isInitialized",
      "outputs": [
        {
          "internalType": "bool",
          "name": "",
          "type": "bool"
        }
      ],
      "stateMutability": "view",
      "type": "function"
    },
    {
      "inputs": [
        {
          "internalType": "address",
          "name": "account",
          "type": "address"
        }
      ],
      "name": "isMinter",
      "outputs": [
        {
          "internalType": "bool",
          "name": "",
          "type": "bool"
        }
      ],
      "stateMutability": "view",
      "type": "function"
    },
    {
      "inputs": [
        {
          "internalType": "address",
          "name": "account",
          "type": "address"
        },
        {
          "internalType": "uint256",
          "name": "value",
          "type": "uint256"
        }
      ],
      "name": "mint",
      "outputs": [],
      "stateMutability": "nonpayable",
      "type": "function"
    },
    {
      "inputs": [],
      "name": "name",
      "outputs": [
        {
          "internalType": "string",
          "name": "",
          "type": "string"
        }
      ],
      "stateMutability": "view",
      "type": "function"
    },
    {
      "inputs": [
        {
          "internalType": "address",
          "name": "",
          "type": "address"
        }
      ],
      "name": "nonces",
      "outputs": [
        {
          "internalType": "uint256",
          "name": "",
          "type": "uint256"
        }
      ],
      "stateMutability": "view",
      "type": "function"
    },
    {
      "inputs": [
        {
          "internalType": "address",
          "name": "",
          "type": "address"
        }
      ],
      "name": "permissions",
      "outputs": [
        {
          "internalType": "bool",
          "name": "minter",
          "type": "bool"
        },
        {
          "internalType": "bool",
          "name": "paymentManager",
          "type": "bool"
        }
      ],
      "stateMutability": "view",
      "type": "function"
    },
    {
      "inputs": [
        {
          "internalType": "address",
          "name": "owner",
          "type": "address"
        },
        {
          "internalType": "address",
          "name": "spender",
          "type": "address"
        },
        {
          "internalType": "uint256",
          "name": "value",
          "type": "uint256"
        },
        {
          "internalType": "uint256",
          "name": "deadline",
          "type": "uint256"
        },
        {
          "internalType": "uint8",
          "name": "v",
          "type": "uint8"
        },
        {
          "internalType": "bytes32",
          "name": "r",
          "type": "bytes32"
        },
        {
          "internalType": "bytes32",
          "name": "s",
          "type": "bytes32"
        }
      ],
      "name": "permit",
      "outputs": [],
      "stateMutability": "nonpayable",
      "type": "function"
    },
    {
      "inputs": [
        {
          "internalType": "address",
          "name": "_minter",
          "type": "address"
        }
      ],
      "name": "removeMinter",
      "outputs": [],
      "stateMutability": "nonpayable",
      "type": "function"
    },
    {
      "inputs": [
        {
          "internalType": "address",
          "name": "_paymentManager",
          "type": "address"
        }
      ],
      "name": "removePaymentManager",
      "outputs": [],
      "stateMutability": "nonpayable",
      "type": "function"
    },
    {
      "inputs": [],
      "name": "router",
      "outputs": [
        {
          "internalType": "address",
          "name": "",
          "type": "address"
        }
      ],
      "stateMutability": "view",
      "type": "function"
    },
    {
      "inputs": [
        {
          "internalType": "bytes",
          "name": "_value",
          "type": "bytes"
        }
      ],
      "name": "setData",
      "outputs": [],
      "stateMutability": "nonpayable",
      "type": "function"
    },
    {
      "inputs": [
        {
          "internalType": "address",
          "name": "_newPaymentCollector",
          "type": "address"
        }
      ],
      "name": "setPaymentCollector",
      "outputs": [],
      "stateMutability": "nonpayable",
      "type": "function"
    },
    {
      "inputs": [
        {
          "internalType": "address",
          "name": "_publishMarketFeeAddress",
          "type": "address"
        },
        {
          "internalType": "address",
          "name": "_publishMarketFeeToken",
          "type": "address"
        },
        {
          "internalType": "uint256",
          "name": "_publishMarketFeeAmount",
          "type": "uint256"
        }
      ],
      "name": "setPublishingMarketFee",
      "outputs": [],
      "stateMutability": "nonpayable",
      "type": "function"
    },
    {
      "inputs": [
        {
          "internalType": "address",
          "name": "consumer",
          "type": "address"
        },
        {
          "internalType": "uint256",
          "name": "serviceIndex",
          "type": "uint256"
        },
        {
          "internalType": "address",
          "name": "providerFeeAddress",
          "type": "address"
        },
        {
          "internalType": "address",
          "name": "providerFeeToken",
          "type": "address"
        },
        {
          "internalType": "uint256",
          "name": "providerFeeAmount",
          "type": "uint256"
        },
        {
          "internalType": "uint8",
          "name": "v",
          "type": "uint8"
        },
        {
          "internalType": "bytes32",
          "name": "r",
          "type": "bytes32"
        },
        {
          "internalType": "bytes32",
          "name": "s",
          "type": "bytes32"
        },
        {
          "internalType": "bytes",
          "name": "providerData",
          "type": "bytes"
        }
      ],
      "name": "startOrder",
      "outputs": [],
      "stateMutability": "nonpayable",
      "type": "function"
    },
    {
      "inputs": [],
      "name": "symbol",
      "outputs": [
        {
          "internalType": "string",
          "name": "",
          "type": "string"
        }
      ],
      "stateMutability": "view",
      "type": "function"
    },
    {
      "inputs": [],
      "name": "totalSupply",
      "outputs": [
        {
          "internalType": "uint256",
          "name": "",
          "type": "uint256"
        }
      ],
      "stateMutability": "view",
      "type": "function"
    },
    {
      "inputs": [
        {
          "internalType": "address",
          "name": "recipient",
          "type": "address"
        },
        {
          "internalType": "uint256",
          "name": "amount",
          "type": "uint256"
        }
      ],
      "name": "transfer",
      "outputs": [
        {
          "internalType": "bool",
          "name": "",
          "type": "bool"
        }
      ],
      "stateMutability": "nonpayable",
      "type": "function"
    },
    {
      "inputs": [
        {
          "internalType": "address",
          "name": "sender",
          "type": "address"
        },
        {
          "internalType": "address",
          "name": "recipient",
          "type": "address"
        },
        {
          "internalType": "uint256",
          "name": "amount",
          "type": "uint256"
        }
      ],
      "name": "transferFrom",
      "outputs": [
        {
          "internalType": "bool",
          "name": "",
          "type": "bool"
        }
      ],
      "stateMutability": "nonpayable",
      "type": "function"
    },
    {
      "inputs": [],
      "name": "withdrawETH",
      "outputs": [],
      "stateMutability": "payable",
      "type": "function"
    }
  ],
  "bytecode": "0x6080604052600b805460ff60a01b191690553480156200001e57600080fd5b5060408051808201825260048152631d195cdd60e21b60208083019182528351808501909452600a8452691d195cdd14de5b589bdb60b21b9084015281519192916200006d9160039162000091565b5080516200008390600490602084019062000091565b505060016007555062000174565b8280546200009f9062000137565b90600052602060002090601f016020900481019282620000c357600085556200010e565b82601f10620000de57805160ff19168380011785556200010e565b828001600101855582156200010e579182015b828111156200010e578251825591602001919060010190620000f1565b506200011c92915062000120565b5090565b5b808211156200011c576000815560010162000121565b600181811c908216806200014c57607f821691505b602082108114156200016e57634e487b7160e01b600052602260045260246000fd5b50919050565b6146f180620001846000396000f3fe6080604052600436106102ad5760003560e01c8063673a2a1f11610166578063a9059cbb116100d3578063d505accf1161008f578063e487c2e81161006c578063e487c2e81461095a578063ec342ad01461096f578063ef867ff41461098b578063f887ea40146109ab57005b8063d505accf146108ec578063dd62ed3e1461090c578063e086e5ec1461095257005b8063a9059cbb1461081e578063aa271e1a1461083e578063aa492ef914610877578063ab62f0e114610897578063b2263a5d146108b7578063b3998be0146108cc57005b80638b96412b116101225780638b96412b1461076957806395d89b411461078957806396fb3eaf1461079e578063983b2d56146107be5780639b4f44b6146107de578063a457c2d7146107fe57005b8063673a2a1f1461069a57806370a08231146106af57806379cc6790146106e55780637dda231e146107055780637ecebe001461072757806382c03da51461075457005b8063355274ea1161021c57806342966c68116101d857806357a3a31b116101b557806357a3a31b1461062657806357ad5ff6146106465780635bfe4da0146106665780635d1ca6311461068657005b806342966c68146105cf57806347ac7d55146105ef5780634f189cb21461061157005b8063355274ea146105095780633644e5151461051e578063392e53cd146105345780633950935114610553578063397b37431461057357806340c10f19146105af57005b8063191c918a1161026b578063191c918a1461043357806323b872dd1461045357806325b00243146104735780633092afd51461049357806330adf81f146104b3578063313ce567146104e757005b80627ffb78146102af57806301e88208146102e657806306fdde0314610336578063095ea7b314610358578063160a79251461038857806318160ddd14610414575b005b3480156102bb57600080fd5b50600c546001600160a01b03165b6040516001600160a01b0390911681526020015b60405180910390f35b3480156102f257600080fd5b5061031f610301366004613961565b60056020526000908152604090205460ff8082169161010090041682565b6040805192151583529015156020830152016102dd565b34801561034257600080fd5b5061034b6109cb565b6040516102dd91906139d6565b34801561036457600080fd5b506103786103733660046139e9565b610a5d565b60405190151581526020016102dd565b34801561039457600080fd5b506103f56103a3366004613961565b6040805180820190915260008082526020820152506001600160a01b031660009081526005602090815260409182902082518084019093525460ff808216151584526101009091041615159082015290565b60408051825115158152602092830151151592810192909252016102dd565b34801561042057600080fd5b506002545b6040519081526020016102dd565b34801561043f57600080fd5b506102ad61044e366004613a23565b610a73565b34801561045f57600080fd5b5061037861046e366004613a82565b610c4f565b34801561047f57600080fd5b506102ad61048e366004613961565b610cfb565b34801561049f57600080fd5b506102ad6104ae366004613961565b610d95565b3480156104bf57600080fd5b506104257f6e71edae12b1b97f4d1f60370fef10105fa2faae0126114a169c64845d6126c981565b3480156104f357600080fd5b5060125b60405160ff90911681526020016102dd565b34801561051557600080fd5b50600a54610425565b34801561052a57600080fd5b5061042560115481565b34801561054057600080fd5b50600b54600160a01b900460ff16610378565b34801561055f57600080fd5b5061037861056e3660046139e9565b610e2c565b34801561057f57600080fd5b50600e54600f54601054604080516001600160a01b039485168152939092166020840152908201526060016102dd565b3480156105bb57600080fd5b506102ad6105ca3660046139e9565b610e68565b3480156105db57600080fd5b506102ad6105ea366004613ac3565b610f39565b3480156105fb57600080fd5b50610604610f43565b6040516102dd9190613b20565b34801561061d57600080fd5b506102ad610fa4565b34801561063257600080fd5b506102ad610641366004613961565b61108b565b34801561065257600080fd5b506102ad610661366004613a82565b6111cd565b34801561067257600080fd5b506102c9610681366004613c6d565b611321565b34801561069257600080fd5b5060016104f7565b3480156106a657600080fd5b506106046116f3565b3480156106bb57600080fd5b506104256106ca366004613961565b6001600160a01b031660009081526020819052604090205490565b3480156106f157600080fd5b506102ad6107003660046139e9565b611753565b34801561071157600080fd5b5061071a6117d9565b6040516102dd9190613cf5565b34801561073357600080fd5b50610425610742366004613961565b60126020526000908152604090205481565b34801561076057600080fd5b506102ad61184e565b34801561077557600080fd5b50610425610784366004613d4d565b6118a8565b34801561079557600080fd5b5061034b611b38565b3480156107aa57600080fd5b506103786107b9366004613961565b611b47565b3480156107ca57600080fd5b506102ad6107d9366004613961565b611bc2565b3480156107ea57600080fd5b506102ad6107f9366004613e47565b611c59565b34801561080a57600080fd5b506103786108193660046139e9565b612108565b34801561082a57600080fd5b506103786108393660046139e9565b6121a1565b34801561084a57600080fd5b50610378610859366004613961565b6001600160a01b031660009081526005602052604090205460ff1690565b34801561088357600080fd5b506102ad610892366004613961565b6121ae565b3480156108a357600080fd5b506102ad6108b2366004613ef4565b612245565b3480156108c357600080fd5b50610425612376565b3480156108d857600080fd5b506103786108e7366004613fb2565b61238c565b3480156108f857600080fd5b506102ad6109073660046140a3565b6124c6565b34801561091857600080fd5b50610425610927366004614111565b6001600160a01b03918216600090815260016020908152604080832093909416825291909152205490565b6102ad6126d8565b34801561096657600080fd5b506102c9612718565b34801561097b57600080fd5b50610425670de0b6b3a764000081565b34801561099757600080fd5b506102c96109a6366004613ac3565b6127ad565b3480156109b757600080fd5b506013546102c9906001600160a01b031681565b6060600880546109da9061414a565b80601f0160208091040260200160405190810160405280929190818152602001828054610a069061414a565b8015610a535780601f10610a2857610100808354040283529160200191610a53565b820191906000526020600020905b815481529060010190602001808311610a3657829003601f168201915b5050505050905090565b6000610a6a3384846127d7565b50600192915050565b600c5460405163160a792560e01b81523360048201526001600160a01b039091169063160a7925906024016080604051808303816000875af1158015610abd573d6000803e3d6000fd5b505050506040513d601f19601f82011682018060405250810190610ae19190614185565b60200151610b0a5760405162461bcd60e51b8152600401610b019061420a565b60405180910390fd5b60026007541415610b2d5760405162461bcd60e51b8152600401610b019061423f565b6002600755601354604051636b14d00560e11b81526001600160a01b038781166004830152306024830152604482018790526064820186905233608483015283811660a48301529091169063d629a00a9060c401600060405180830381600087803b158015610b9b57600080fd5b505af1158015610baf573d6000803e3d6000fd5b505050508115610bc257610bc2856128fb565b601680546001810182556000919091527fd833147d7dc355ba459fc788f669e58cfaf9dc25ddcd0702e87d69c7b51242890180546001600160a01b0319166001600160a01b0387169081179091556040519081527fa31ffd41531537eb31bfd827a3f5372b5f62bf4dd8579e5354b280dc58490e709060200160405180910390a150506001600755505050565b6000610c5c8484846129fd565b6001600160a01b038416600090815260016020908152604080832033845290915290205482811015610ce15760405162461bcd60e51b815260206004820152602860248201527f45524332303a207472616e7366657220616d6f756e74206578636565647320616044820152676c6c6f77616e636560c01b6064820152608401610b01565b610cee85338584036127d7565b60019150505b9392505050565b600c5460405163160a792560e01b81523360048201526001600160a01b039091169063160a7925906024016080604051808303816000875af1158015610d45573d6000803e3d6000fd5b505050506040513d601f19601f82011682018060405250810190610d699190614185565b60200151610d895760405162461bcd60e51b8152600401610b019061420a565b610d9281612bcd565b50565b600c5460405163160a792560e01b81523360048201526001600160a01b039091169063160a7925906024016080604051808303816000875af1158015610ddf573d6000803e3d6000fd5b505050506040513d601f19601f82011682018060405250810190610e039190614185565b60200151610e235760405162461bcd60e51b8152600401610b019061420a565b610d9281612c2e565b3360008181526001602090815260408083206001600160a01b03871684529091528120549091610a6a918590610e6390869061428c565b6127d7565b3360009081526005602052604090205460ff16610ec75760405162461bcd60e51b815260206004820152601960248201527f455243323054656d706c6174653a204e4f54204d494e544552000000000000006044820152606401610b01565b600a54610edd82610ed760025490565b90612c8e565b1115610f2b5760405162461bcd60e51b815260206004820152601f60248201527f44617461746f6b656e54656d706c6174653a20636170206578636565646564006044820152606401610b01565b610f358282612c9a565b5050565b610d923382612d79565b60606016805480602002602001604051908101604052809291908181526020018280548015610a5357602002820191906000526020600020905b81546001600160a01b03168152600190910190602001808311610f7d575050505050905090565b600c546040516331a9108f60e11b8152600160048201526001600160a01b0390911690636352211e90602401602060405180830381865afa158015610fed573d6000803e3d6000fd5b505050506040513d601f19601f8201168201806040525081019061101191906142a4565b6001600160a01b0316336001600160a01b0316146110715760405162461bcd60e51b815260206004820152601b60248201527f455243323054656d706c6174653a206e6f74204e46544f776e657200000000006044820152606401610b01565b611079612ec7565b600d80546001600160a01b0319169055565b33600090815260056020526040902054610100900460ff168061111c5750600c5460405163160a792560e01b81523360048201526001600160a01b039091169063160a7925906024016080604051808303816000875af11580156110f3573d6000803e3d6000fd5b505050506040513d601f19601f820116820180604052508101906111179190614185565b602001515b61117c5760405162461bcd60e51b815260206004820152602b60248201527f455243323054656d706c6174653a204e4f54205041594d454e54204d414e414760448201526a22a91037b91027aba722a960a91b6064820152608401610b01565b61118581612f76565b604080514281524360208201526001600160a01b0383169133917f4d7694d695c57cc54947177c8e8a0e61aae664e9223492a798c32fadfc6419cc910160405180910390a350565b600e546001600160a01b0316331461123a5760405162461bcd60e51b815260206004820152602a60248201527f455243323054656d706c6174653a206e6f74207075626c6973684d61726b65746044820152694665654164647265737360b01b6064820152608401610b01565b6001600160a01b0383166112a15760405162461bcd60e51b815260206004820152602860248201527f496e76616c6964205f7075626c6973684d61726b657446656541646472657373604482015267206164647265737360c01b6064820152608401610b01565b600e80546001600160a01b038581166001600160a01b03199283168117909355600f80549186169190921681179091556010839055604080513381526020810193909352820152606081018290527fe0b85b6f04fa914cf57f6401c5672a83a32b1c388d194c3d78e17f2897d46f439060800160405180910390a1505050565b600c5460405163160a792560e01b81523360048201526000916001600160a01b03169063160a7925906024016080604051808303816000875af115801561136c573d6000803e3d6000fd5b505050506040513d601f19601f820116820180604052508101906113909190614185565b602001516113b05760405162461bcd60e51b8152600401610b019061420a565b6002541561140c5760405162461bcd60e51b8152602060048201526024808201527f455243323054656d706c6174653a20746f6b656e7320616c7265616479206d696044820152631b9d195960e21b6064820152608401610b01565b61142f82600081518110611422576114226142c1565b60200260200101516128fb565b601360009054906101000a90046001600160a01b03166001600160a01b031663510f34656040518163ffffffff1660e01b8152600401602060405180830381865afa158015611482573d6000803e3d6000fd5b505050506040513d601f19601f820116820180604052508101906114a691906142d7565b846003815181106114b9576114b96142c1565b6020026020010151101561154f5760405162461bcd60e51b815260206004820152605160248201527f455243323054656d706c6174653a2056657374696e6720706572696f6420746f60448201527f6f206c6f772e2053656520466163746f7279526f757465722e6d696e56657374606482015270696e67506572696f64496e426c6f636b7360781b608482015260a401610b01565b60006040518060400160405280306001600160a01b03166001600160a01b0316815260200184600181518110611587576115876142c1565b60209081029190910101516001600160a01b0390811690915260135460405163ee3bc63560e01b8152929350169063ee3bc635906115cf908490899089908990600401614320565b6020604051808303816000875af11580156115ee573d6000803e3d6000fd5b505050506040513d601f19601f8201168201806040525081019061161291906142a4565b6014805460018101825560009182527fce6d7b5282bd9a3661ae061feed1dbda4e52ab073b1f9285be6e155d9c38d4ec0180546001600160a01b0319166001600160a01b03841617905584519193507fd02da1bec30f7f750aa0a131745dfb9ce96767c45a192dc26409f5d690e0b9679184918691611693576116936142c1565b6020026020010151856001815181106116ae576116ae6142c1565b60200260200101516040516116e3939291906001600160a01b0393841681529183166020830152909116604082015260600190565b60405180910390a1509392505050565b60606014805480602002602001604051908101604052809291908181526020018280548015610a53576020028201919060005260206000209081546001600160a01b03168152600190910190602001808311610f7d575050505050905090565b600061175f8333610927565b9050818110156117bd5760405162461bcd60e51b8152602060048201526024808201527f45524332303a206275726e20616d6f756e74206578636565647320616c6c6f77604482015263616e636560e01b6064820152608401610b01565b6117ca83338484036127d7565b6117d48383612d79565b505050565b60606015805480602002602001604051908101604052809291908181526020016000905b82821015611845576000848152602090819020604080518082019091526002850290910180546001600160a01b031682526001908101548284015290835290920191016117fd565b50505050905090565b600c546001600160a01b031633146110715760405162461bcd60e51b815260206004820152601f60248201527f455243323054656d706c6174653a204e4f542037323120436f6e7472616374006044820152606401610b01565b600c5460405163160a792560e01b81523360048201526000916001600160a01b03169063160a7925906024016080604051808303816000875af11580156118f3573d6000803e3d6000fd5b505050506040513d601f19601f820116820180604052508101906119179190614185565b602001516119375760405162461bcd60e51b8152600401610b019061420a565b6002600754141561195a5760405162461bcd60e51b8152600401610b019061423f565b6002600755601354604051638244937560e01b81526001600160a01b03909116906382449375906119939087908790879060040161438b565b6020604051808303816000875af11580156119b2573d6000803e3d6000fd5b505050506040513d601f19601f820116820180604052508101906119d691906142d7565b90506000826004815181106119ed576119ed6142c1565b60200260200101511115611a0457611a04846128fb565b82600081518110611a1757611a176142c1565b60200260200101516001600160a01b031683600181518110611a3b57611a3b6142c1565b60200260200101516001600160a01b03167fb3fac3ae95956dbac74e63ba8dac94081832395c8788e3049c900a7732f348058387604051611a8f9291909182526001600160a01b0316602082015260400190565b60405180910390a3604080518082019091526001600160a01b03948516815260208101828152601580546001808201835560009290925292517f55f448fdea98c4d29eb340757ef0a66cd03dbb9538908a6a81d96026b71ec475600290940293840180546001600160a01b0319169190981617909655517f55f448fdea98c4d29eb340757ef0a66cd03dbb9538908a6a81d96026b71ec476909101556007939093555090919050565b6060600980546109da9061414a565b600c5460405163160a792560e01b81526001600160a01b038381166004830152600092169063160a7925906024016080604051808303816000875af1158015611b94573d6000803e3d6000fd5b505050506040513d601f19601f82011682018060405250810190611bb89190614185565b6020015192915050565b600c5460405163160a792560e01b81523360048201526001600160a01b039091169063160a7925906024016080604051808303816000875af1158015611c0c573d6000803e3d6000fd5b505050506040513d601f19601f82011682018060405250810190611c309190614185565b60200151611c505760405162461bcd60e51b8152600401610b019061420a565b610d92816128fb565b60026007541415611c7c5760405162461bcd60e51b8152600401610b019061423f565b600260075533600090815260208190526040812054670de0b6b3a76400009190821115611cf75760405162461bcd60e51b8152602060048201526024808201527f4e6f7420656e6f7567682064617461746f6b656e7320746f207374617274204f604482015263393232b960e11b6064820152608401610b01565b600e5460408051338152602081018590529081018c90524260608201524360808201526001600160a01b03918216918d16907fe1c4fa794edfa8f619b8257a077398950357b9c6398528f94480307352f9afcc9060a00160405180910390a36000601054118015611d725750600f546001600160a01b031615155b8015611d885750600e546001600160a01b031615155b15611eb357601054600f54611dac916001600160a01b039091169033903090612f98565b601054611dba906064613003565b600e54601054919250611df0916001600160a01b0390911690611ddd908461300f565b600f546001600160a01b0316919061301b565b600f54600e546010546001600160a01b0392831692909116907ff666b31c81334b6085802ba4149907fa724689d43bc31df6de1a51291ddc55b490611e35908561300f565b60405190815260200160405180910390a38015611eb357600b54600f54611e69916001600160a01b0391821691168361301b565b600f54600b546040518381526001600160a01b0392831692909116907ff666b31c81334b6085802ba4149907fa724689d43bc31df6de1a51291ddc55b49060200160405180910390a35b60006040518060400160405280601c81526020017f19457468657265756d205369676e6564204d6573736167653a0a3332000000008152509050600081858c8c8c604051602001611f0794939291906143cb565b60405160208183030381529060405280519060200120604051602001611f2e929190614411565b60408051601f198184030181528282528051602091820120600080855291840180845281905260ff8c1692840192909252606083018a9052608083018990529092509060019060a0016020604051602081039080840390855afa158015611f99573d6000803e3d6000fd5b5050506020604051035190508b6001600160a01b0316816001600160a01b031614611ffd5760405162461bcd60e51b8152602060048201526014602482015273496e76616c69642070726f76696465722066656560601b6044820152606401610b01565b8a6001600160a01b03168c6001600160a01b03167f144fc6ed7d0a617ba44a01131b1f724d0370297a3640b6201f343e081ada64468c898d8d8d604051612048959493929190614433565b60405180910390a360008a11801561206857506001600160a01b038b1615155b801561207c57506001600160a01b038c1615155b15612096576120966001600160a01b038c16338e8d612f98565b6120a76120a1612718565b866121a1565b6120f35760405162461bcd60e51b815260206004820152601e60248201527f4661696c656420746f2073656e6420445420746f207075626c697368657200006044820152606401610b01565b50506001600755505050505050505050505050565b3360009081526001602090815260408083206001600160a01b03861684529091528120548281101561218a5760405162461bcd60e51b815260206004820152602560248201527f45524332303a2064656372656173656420616c6c6f77616e63652062656c6f77604482015264207a65726f60d81b6064820152608401610b01565b61219733858584036127d7565b5060019392505050565b6000610a6a3384846129fd565b600c5460405163160a792560e01b81523360048201526001600160a01b039091169063160a7925906024016080604051808303816000875af11580156121f8573d6000803e3d6000fd5b505050506040513d601f19601f8201168201806040525081019061221c9190614185565b6020015161223c5760405162461bcd60e51b8152600401610b019061420a565b610d928161304b565b600c5460405163160a792560e01b81523360048201526001600160a01b039091169063160a7925906024016080604051808303816000875af115801561228f573d6000803e3d6000fd5b505050506040513d601f19601f820116820180604052508101906122b39190614185565b602001516122d35760405162461bcd60e51b8152600401610b019061420a565b6040516bffffffffffffffffffffffff193060601b16602082015260009060340160408051601f19818403018152908290528051602090910120600c546301caf8fd60e31b83529092506001600160a01b031690630e57c7e89061233f9084908790879060040161446c565b600060405180830381600087803b15801561235957600080fd5b505af115801561236d573d6000803e3d6000fd5b50505050505050565b6123896064670de0b6b3a76400006144a2565b81565b600b54600090600160a01b900460ff16156124035760405162461bcd60e51b815260206004820152603160248201527f455243323054656d706c6174653a20746f6b656e20696e7374616e636520616c6044820152701c9958591e481a5b9a5d1a585b1a5e9959607a1b6064820152608401610b01565b6124b76124108b8d6144c4565b8a8a8080602002602001604051908101604052809392919081815260200183836020028082843760009201919091525050604080516020808e0282810182019093528d82529093508d92508c91829185019084908082843760009201919091525050604080516020808d0282810182019093528c82529093508c92508b9182918501908490808284376000920191909152506124b292508991508a905061454c565b613159565b9b9a5050505050505050505050565b438410156125095760405162461bcd60e51b815260206004820152601060248201526f115490cc8c11150e881156141254915160821b6044820152606401610b01565b6011546001600160a01b038816600090815260126020526040812080549192917f6e71edae12b1b97f4d1f60370fef10105fa2faae0126114a169c64845d6126c9918b918b918b91908761255c836145b4565b909155506040805160208101969096526001600160a01b0394851690860152929091166060840152608083015260a082015260c0810187905260e001604051602081830303815290604052805190602001206040516020016125d592919061190160f01b81526002810192909252602282015260420190565b60408051601f198184030181528282528051602091820120600080855291840180845281905260ff88169284019290925260608301869052608083018590529092509060019060a0016020604051602081039080840390855afa158015612640573d6000803e3d6000fd5b5050604051601f1901519150506001600160a01b038116158015906126765750886001600160a01b0316816001600160a01b0316145b6126c25760405162461bcd60e51b815260206004820152601a60248201527f455243323044543a20494e56414c49445f5349474e41545552450000000000006044820152606401610b01565b6126cd8989896127d7565b505050505050505050565b6126e0612718565b6001600160a01b03166108fc479081150290604051600060405180830381858888f19350505050158015610d92573d6000803e3d6000fd5b600d546000906001600160a01b031661279d57600c546040516331a9108f60e11b8152600160048201526001600160a01b0390911690636352211e90602401602060405180830381865afa158015612774573d6000803e3d6000fd5b505050506040513d601f19601f8201168201806040525081019061279891906142a4565b905090565b50600d546001600160a01b031690565b600681815481106127bd57600080fd5b6000918252602090912001546001600160a01b0316905081565b6001600160a01b0383166128395760405162461bcd60e51b8152602060048201526024808201527f45524332303a20617070726f76652066726f6d20746865207a65726f206164646044820152637265737360e01b6064820152608401610b01565b6001600160a01b03821661289a5760405162461bcd60e51b815260206004820152602260248201527f45524332303a20617070726f766520746f20746865207a65726f206164647265604482015261737360f01b6064820152608401610b01565b6001600160a01b0383811660008181526001602090815260408083209487168084529482529182902085905590518481527f8c5be1e5ebec7d5bd14f71427d1e84f3dd0314c0f7b2291e5b200ac8c7c3b925910160405180910390a3505050565b6001600160a01b0381166000908152600560205260409020805460ff16156129655760405162461bcd60e51b815260206004820152601d60248201527f4552433230526f6c65733a2020414c52454144592041204d494e5445520000006044820152606401610b01565b8054600160ff19909116811782556006805491820181556000527ff652222313e28459528d920b65115c16c04f3efc82aaedc97be59f3f377c0d3f0180546001600160a01b0319166001600160a01b038416908117909155604080514281524360208201523392917f4f7e100eb1ee13e903798bd0d6aa854152e07eb05544f392b9409c12935c809591015b60405180910390a35050565b6001600160a01b038316612a615760405162461bcd60e51b815260206004820152602560248201527f45524332303a207472616e736665722066726f6d20746865207a65726f206164604482015264647265737360d81b6064820152608401610b01565b6001600160a01b038216612ac35760405162461bcd60e51b815260206004820152602360248201527f45524332303a207472616e7366657220746f20746865207a65726f206164647260448201526265737360e81b6064820152608401610b01565b6001600160a01b03831660009081526020819052604090205481811015612b3b5760405162461bcd60e51b815260206004820152602660248201527f45524332303a207472616e7366657220616d6f756e7420657863656564732062604482015265616c616e636560d01b6064820152608401610b01565b6001600160a01b03808516600090815260208190526040808220858503905591851681529081208054849290612b7290849061428c565b92505081905550826001600160a01b0316846001600160a01b03167fddf252ad1be2c89b69c2b068fc378daa952ba7f163c4a11628f55a4df523b3ef84604051612bbe91815260200190565b60405180910390a35b50505050565b6001600160a01b03811660008181526005602052604090819020805461ff00191681559051909133917faee911eec8b2df8f3ae0464841541b1e5f339519bd5cf51889fe8b07fecff658906129f19042904390918252602082015260400190565b6001600160a01b03811660008181526005602052604090819020805460ff191681559051909133917fefa2735987005aaa89c050c0ff8cc9ae7d9079d19382081c429130f98c52d480906129f19042904390918252602082015260400190565b6000610cf4828461428c565b6001600160a01b038216612cf05760405162461bcd60e51b815260206004820152601f60248201527f45524332303a206d696e7420746f20746865207a65726f2061646472657373006044820152606401610b01565b8060026000828254612d02919061428c565b90915550506001600160a01b03821660009081526020819052604081208054839290612d2f90849061428c565b90915550506040518181526001600160a01b038316906000907fddf252ad1be2c89b69c2b068fc378daa952ba7f163c4a11628f55a4df523b3ef9060200160405180910390a35050565b6001600160a01b038216612dd95760405162461bcd60e51b815260206004820152602160248201527f45524332303a206275726e2066726f6d20746865207a65726f206164647265736044820152607360f81b6064820152608401610b01565b6001600160a01b03821660009081526020819052604090205481811015612e4d5760405162461bcd60e51b815260206004820152602260248201527f45524332303a206275726e20616d6f756e7420657863656564732062616c616e604482015261636560f01b6064820152608401610b01565b6001600160a01b0383166000908152602081905260408120838303905560028054849290612e7c9084906145cf565b90915550506040518281526000906001600160a01b038516907fddf252ad1be2c89b69c2b068fc378daa952ba7f163c4a11628f55a4df523b3ef9060200160405180910390a3505050565b60005b600654811015612f2d5760006005600060068481548110612eed57612eed6142c1565b60009182526020808320909101546001600160a01b031683528201929092526040019020805461ffff191690555080612f25816145b4565b915050612eca565b50612f3a60066000613895565b6040805142815243602082015233917f712bc71db81927a76b8bf1ea346247bb0ad58f18e4e5c1bd4aa0ec6573e02a2b910160405180910390a2565b600d80546001600160a01b0319166001600160a01b0392909216919091179055565b6040516001600160a01b0380851660248301528316604482015260648101829052612bc79085906323b872dd60e01b906084015b60408051601f198184030181529190526020810180516001600160e01b03166001600160e01b03199093169290921790915261364b565b6000610cf482846144a2565b6000610cf482846145cf565b6040516001600160a01b0383166024820152604481018290526117d490849063a9059cbb60e01b90606401612fcc565b6001600160a01b03811660009081526005602052604090208054610100900460ff16156130c55760405162461bcd60e51b815260206004820152602260248201527f4552433230526f6c65733a2020414c5245414459204120464545204d414e414760448201526122a960f11b6064820152608401610b01565b805461ff001916610100178155600680546001810182556000919091527ff652222313e28459528d920b65115c16c04f3efc82aaedc97be59f3f377c0d3f0180546001600160a01b0384166001600160a01b03199091168117909155604080514281524360208201523392917fb17da2e9910b4ba5754e8872385ba315a238bafb5ae221fc85093c33432c40a791016129f1565b6000808460008151811061316f5761316f6142c1565b6020026020010151905060008560018151811061318e5761318e6142c1565b6020026020010151905060006001600160a01b0316826001600160a01b031614156132105760405162461bcd60e51b815260206004820152602c60248201527f455243323054656d706c6174653a20496e76616c6964206d696e7465722c202060448201526b7a65726f206164647265737360a01b6064820152608401610b01565b6001600160a01b03811661328c5760405162461bcd60e51b815260206004820152603c60248201527f455243323054656d706c6174653a20496e76616c696420636f6d6d756e69747960448201527f2066656520636f6c6c6563746f722c207a65726f2061646472657373000000006064820152608401610b01565b8460008151811061329f5761329f6142c1565b6020026020010151600014156133035760405162461bcd60e51b8152602060048201526024808201527f44617461746f6b656e54656d706c6174653a20496e76616c6964206361702076604482015263616c756560e01b6064820152608401610b01565b84600081518110613316576133166142c1565b6020026020010151600a8190555087600081518110613337576133376142c1565b6020026020010151600890805190602001906133549291906138b3565b5087600181518110613368576133686142c1565b6020026020010151600990805190602001906133859291906138b3565b50600c80546001600160a01b0319166001600160a01b0384161790558551869060029081106133b6576133b66142c1565b6020908102919091010151601380546001600160a01b039283166001600160a01b0319909116179055600b80546001600160a81b03191691831691909117600160a01b1790558651613413908890600090611422576114226142c1565b60006001600160a01b031687600181518110613431576134316142c1565b60200260200101516001600160a01b0316146134db5761346a8760018151811061345d5761345d6142c1565b6020026020010151612f76565b8660018151811061347d5761347d6142c1565b60200260200101516001600160a01b0316336001600160a01b03167f4d7694d695c57cc54947177c8e8a0e61aae664e9223492a798c32fadfc6419cc42436040516134d2929190918252602082015260400190565b60405180910390a35b866002815181106134ee576134ee6142c1565b6020026020010151600e60006101000a8154816001600160a01b0302191690836001600160a01b031602179055508660038151811061352f5761352f6142c1565b6020026020010151600f60006101000a8154816001600160a01b0302191690836001600160a01b0316021790555084600181518110613570576135706142c1565b602002602001015160108190555060004690507f8b73c3c69bb8fe3d512ecc4cf759cc79239f7b179b0ffacaa9a75d522b39400f60086040516135b391906145e6565b60408051918290038220828201825260018352603160f81b6020938401528151928301939093528101919091527fc89efdaa54c0f20c7adf612882df0950f5a951637e0307cdcb4c672f298b8bc66060820152608081018290523060a082015260c00160408051808303601f1901815291905280516020909101206011555050600b54600160a01b900460ff16979650505050505050565b60006136a0826040518060400160405280602081526020017f5361666545524332303a206c6f772d6c6576656c2063616c6c206661696c6564815250856001600160a01b031661371d9092919063ffffffff16565b8051909150156117d457808060200190518101906136be9190614682565b6117d45760405162461bcd60e51b815260206004820152602a60248201527f5361666545524332303a204552433230206f7065726174696f6e20646964206e6044820152691bdd081cdd58d8d9595960b21b6064820152608401610b01565b606061372c8484600085613734565b949350505050565b6060824710156137955760405162461bcd60e51b815260206004820152602660248201527f416464726573733a20696e73756666696369656e742062616c616e636520666f6044820152651c8818d85b1b60d21b6064820152608401610b01565b843b6137e35760405162461bcd60e51b815260206004820152601d60248201527f416464726573733a2063616c6c20746f206e6f6e2d636f6e74726163740000006044820152606401610b01565b600080866001600160a01b031685876040516137ff919061469f565b60006040518083038185875af1925050503d806000811461383c576040519150601f19603f3d011682016040523d82523d6000602084013e613841565b606091505b509150915061385182828661385c565b979650505050505050565b6060831561386b575081610cf4565b82511561387b5782518084602001fd5b8160405162461bcd60e51b8152600401610b0191906139d6565b5080546000825590600052602060002090810190610d929190613937565b8280546138bf9061414a565b90600052602060002090601f0160209004810192826138e15760008555613927565b82601f106138fa57805160ff1916838001178555613927565b82800160010185558215613927579182015b8281111561392757825182559160200191906001019061390c565b50613933929150613937565b5090565b5b808211156139335760008155600101613938565b6001600160a01b0381168114610d9257600080fd5b60006020828403121561397357600080fd5b8135610cf48161394c565b60005b83811015613999578181015183820152602001613981565b83811115612bc75750506000910152565b600081518084526139c281602086016020860161397e565b601f01601f19169290920160200192915050565b602081526000610cf460208301846139aa565b600080604083850312156139fc57600080fd5b8235613a078161394c565b946020939093013593505050565b8015158114610d9257600080fd5b600080600080600060a08688031215613a3b57600080fd5b8535613a468161394c565b945060208601359350604086013592506060860135613a6481613a15565b91506080860135613a748161394c565b809150509295509295909350565b600080600060608486031215613a9757600080fd5b8335613aa28161394c565b92506020840135613ab28161394c565b929592945050506040919091013590565b600060208284031215613ad557600080fd5b5035919050565b600081518084526020808501945080840160005b83811015613b155781516001600160a01b031687529582019590820190600101613af0565b509495945050505050565b602081526000610cf46020830184613adc565b634e487b7160e01b600052604160045260246000fd5b604051601f8201601f1916810167ffffffffffffffff81118282101715613b7257613b72613b33565b604052919050565b600067ffffffffffffffff821115613b9457613b94613b33565b5060051b60200190565b600082601f830112613baf57600080fd5b81356020613bc4613bbf83613b7a565b613b49565b82815260059290921b84018101918181019086841115613be357600080fd5b8286015b84811015613bfe5780358352918301918301613be7565b509695505050505050565b600082601f830112613c1a57600080fd5b81356020613c2a613bbf83613b7a565b82815260059290921b84018101918181019086841115613c4957600080fd5b8286015b84811015613bfe578035613c608161394c565b8352918301918301613c4d565b600080600060608486031215613c8257600080fd5b833567ffffffffffffffff80821115613c9a57600080fd5b613ca687838801613b9e565b94506020860135915080821115613cbc57600080fd5b613cc887838801613b9e565b93506040860135915080821115613cde57600080fd5b50613ceb86828701613c09565b9150509250925092565b602080825282518282018190526000919060409081850190868401855b82811015613d4057815180516001600160a01b03168552860151868501529284019290850190600101613d12565b5091979650505050505050565b600080600060608486031215613d6257600080fd5b8335613d6d8161394c565b9250602084013567ffffffffffffffff80821115613d8a57600080fd5b613d9687838801613c09565b93506040860135915080821115613dac57600080fd5b50613ceb86828701613b9e565b803560ff81168114613dca57600080fd5b919050565b600067ffffffffffffffff831115613de957613de9613b33565b613dfc601f8401601f1916602001613b49565b9050828152838383011115613e1057600080fd5b828260208301376000602084830101529392505050565b600082601f830112613e3857600080fd5b610cf483833560208501613dcf565b60008060008060008060008060006101208a8c031215613e6657600080fd5b8935613e718161394c565b985060208a0135975060408a0135613e888161394c565b965060608a0135613e988161394c565b955060808a01359450613ead60a08b01613db9565b935060c08a0135925060e08a013591506101008a013567ffffffffffffffff811115613ed857600080fd5b613ee48c828d01613e27565b9150509295985092959850929598565b60008060208385031215613f0757600080fd5b823567ffffffffffffffff80821115613f1f57600080fd5b818501915085601f830112613f3357600080fd5b813581811115613f4257600080fd5b866020828501011115613f5457600080fd5b60209290920196919550909350505050565b60008083601f840112613f7857600080fd5b50813567ffffffffffffffff811115613f9057600080fd5b6020830191508360208260051b8501011115613fab57600080fd5b9250929050565b60008060008060008060008060008060a08b8d031215613fd157600080fd5b8a3567ffffffffffffffff80821115613fe957600080fd5b613ff58e838f01613f66565b909c509a5060208d013591508082111561400e57600080fd5b61401a8e838f01613f66565b909a50985060408d013591508082111561403357600080fd5b61403f8e838f01613f66565b909850965060608d013591508082111561405857600080fd5b6140648e838f01613f66565b909650945060808d013591508082111561407d57600080fd5b5061408a8d828e01613f66565b915080935050809150509295989b9194979a5092959850565b600080600080600080600060e0888a0312156140be57600080fd5b87356140c98161394c565b965060208801356140d98161394c565b955060408801359450606088013593506140f560808901613db9565b925060a0880135915060c0880135905092959891949750929550565b6000806040838503121561412457600080fd5b823561412f8161394c565b9150602083013561413f8161394c565b809150509250929050565b600181811c9082168061415e57607f821691505b6020821081141561417f57634e487b7160e01b600052602260045260246000fd5b50919050565b60006080828403121561419757600080fd5b6040516080810181811067ffffffffffffffff821117156141ba576141ba613b33565b60405282516141c881613a15565b815260208301516141d881613a15565b602082015260408301516141eb81613a15565b604082015260608301516141fe81613a15565b60608201529392505050565b6020808252818101527f455243323054656d706c6174653a204e4f54204445504c4f59455220524f4c45604082015260600190565b6020808252601f908201527f5265656e7472616e637947756172643a207265656e7472616e742063616c6c00604082015260600190565b634e487b7160e01b600052601160045260246000fd5b6000821982111561429f5761429f614276565b500190565b6000602082840312156142b657600080fd5b8151610cf48161394c565b634e487b7160e01b600052603260045260246000fd5b6000602082840312156142e957600080fd5b5051919050565b600081518084526020808501945080840160005b83811015613b1557815187529582019590820190600101614304565b60008186825b600281101561434e5781516001600160a01b0316835260209283019290910190600101614326565b50505060a0604083015261436560a08301866142f0565b828103606084015261437781866142f0565b905082810360808401526138518185613adc565b6001600160a01b03841681526060602082018190526000906143af90830185613adc565b82810360408401526143c181856142f0565b9695505050505050565b600085516143dd818460208a0161397e565b6bffffffffffffffffffffffff19606096871b8116919093019081529390941b166014830152602882015260480192915050565b6000835161442381846020880161397e565b9190910191825250602001919050565b85815260a06020820152600061444c60a08301876139aa565b60ff95909516604083015250606081019290925260809091015292915050565b83815260406020820152816040820152818360608301376000818301606090810191909152601f909201601f1916010192915050565b6000826144bf57634e487b7160e01b600052601260045260246000fd5b500490565b60006144d2613bbf84613b7a565b80848252602080830192508560051b8501368111156144f057600080fd5b855b8181101561454057803567ffffffffffffffff8111156145125760008081fd5b870136601f8201126145245760008081fd5b614532368235868401613dcf565b8652509382019382016144f2565b50919695505050505050565b600061455a613bbf84613b7a565b80848252602080830192508560051b85013681111561457857600080fd5b855b8181101561454057803567ffffffffffffffff81111561459a5760008081fd5b6145a636828a01613e27565b86525093820193820161457a565b60006000198214156145c8576145c8614276565b5060010190565b6000828210156145e1576145e1614276565b500390565b600080835481600182811c91508083168061460257607f831692505b602080841082141561462257634e487b7160e01b86526022600452602486fd5b818015614636576001811461464757614674565b60ff19861689528489019650614674565b60008a81526020902060005b8681101561466c5781548b820152908501908301614653565b505084890196505b509498975050505050505050565b60006020828403121561469457600080fd5b8151610cf481613a15565b600082516146b181846020870161397e565b919091019291505056fea26469706673582212208e84b5d213843f1ba8a5507fcbd1faf467499ef1dba3c15b079c835961b2ad8d64736f6c634300080a0033",
  "linkReferences": {},
  "deployedLinkReferences": {}
}