{
  "_format": "hh-sol-artifact-1",
  "contractName": "ERC20Template",
  "sourceName": "contracts/templates/ERC20Template.sol",
  "abi": [
    {
      "anonymous": false,
      "inputs": [
        {
          "indexed": true,
          "internalType": "address",
          "name": "user",
          "type": "address"
        },
        {
          "indexed": true,
          "internalType": "address",
          "name": "signer",
          "type": "address"
        },
        {
          "indexed": false,
          "internalType": "uint256",
          "name": "timestamp",
          "type": "uint256"
        },
        {
          "indexed": false,
          "internalType": "uint256",
          "name": "blockNumber",
          "type": "uint256"
        }
      ],
      "name": "AddedMinter",
      "type": "event"
    },
    {
      "anonymous": false,
      "inputs": [
        {
          "indexed": true,
          "internalType": "address",
          "name": "user",
          "type": "address"
        },
        {
          "indexed": true,
          "internalType": "address",
          "name": "signer",
          "type": "address"
        },
        {
          "indexed": false,
          "internalType": "uint256",
          "name": "timestamp",
          "type": "uint256"
        },
        {
          "indexed": false,
          "internalType": "uint256",
          "name": "blockNumber",
          "type": "uint256"
        }
      ],
      "name": "AddedPaymentManager",
      "type": "event"
    },
    {
      "anonymous": false,
      "inputs": [
        {
          "indexed": true,
          "internalType": "address",
          "name": "owner",
          "type": "address"
        },
        {
          "indexed": true,
          "internalType": "address",
          "name": "spender",
          "type": "address"
        },
        {
          "indexed": false,
          "internalType": "uint256",
          "name": "value",
          "type": "uint256"
        }
      ],
      "name": "Approval",
      "type": "event"
    },
    {
      "anonymous": false,
      "inputs": [
        {
          "indexed": true,
          "internalType": "address",
          "name": "signer",
          "type": "address"
        },
        {
          "indexed": false,
          "internalType": "uint256",
          "name": "timestamp",
          "type": "uint256"
        },
        {
          "indexed": false,
          "internalType": "uint256",
          "name": "blockNumber",
          "type": "uint256"
        }
      ],
      "name": "CleanedPermissions",
      "type": "event"
    },
    {
      "anonymous": false,
      "inputs": [
        {
          "indexed": false,
          "internalType": "address",
          "name": "currentMinter",
          "type": "address"
        },
        {
          "indexed": false,
          "internalType": "address",
          "name": "newMinter",
          "type": "address"
        }
      ],
      "name": "MinterApproved",
      "type": "event"
    },
    {
      "anonymous": false,
      "inputs": [
        {
          "indexed": false,
          "internalType": "address",
          "name": "currentMinter",
          "type": "address"
        },
        {
          "indexed": false,
          "internalType": "address",
          "name": "newMinter",
          "type": "address"
        }
      ],
      "name": "MinterProposed",
      "type": "event"
    },
    {
      "anonymous": false,
      "inputs": [
        {
          "indexed": false,
          "internalType": "bytes32",
          "name": "exchangeId",
          "type": "bytes32"
        },
        {
          "indexed": false,
          "internalType": "address",
          "name": "owner",
          "type": "address"
        }
      ],
      "name": "NewFixedRate",
      "type": "event"
    },
    {
      "anonymous": false,
      "inputs": [
        {
          "indexed": true,
          "internalType": "address",
          "name": "caller",
          "type": "address"
        },
        {
          "indexed": true,
          "internalType": "address",
          "name": "_newPaymentCollector",
          "type": "address"
        },
        {
          "indexed": false,
          "internalType": "uint256",
          "name": "timestamp",
          "type": "uint256"
        },
        {
          "indexed": false,
          "internalType": "uint256",
          "name": "blockNumber",
          "type": "uint256"
        }
      ],
      "name": "NewPaymentCollector",
      "type": "event"
    },
    {
      "anonymous": false,
      "inputs": [
        {
          "indexed": false,
          "internalType": "address",
          "name": "poolAddress",
          "type": "address"
        },
        {
          "indexed": false,
          "internalType": "address",
          "name": "ssContract",
          "type": "address"
        },
        {
          "indexed": false,
          "internalType": "address",
          "name": "basetokenAddress",
          "type": "address"
        }
      ],
      "name": "NewPool",
      "type": "event"
    },
    {
      "anonymous": false,
      "inputs": [
        {
          "indexed": true,
          "internalType": "address",
          "name": "consumer",
          "type": "address"
        },
        {
          "indexed": false,
          "internalType": "address",
          "name": "payer",
          "type": "address"
        },
        {
          "indexed": false,
          "internalType": "uint256",
          "name": "amount",
          "type": "uint256"
        },
        {
          "indexed": false,
          "internalType": "uint256",
          "name": "serviceIndex",
          "type": "uint256"
        },
        {
          "indexed": false,
          "internalType": "uint256",
          "name": "timestamp",
          "type": "uint256"
        },
        {
          "indexed": true,
          "internalType": "address",
          "name": "publishMarketAddress",
          "type": "address"
        },
        {
          "indexed": false,
          "internalType": "uint256",
          "name": "blockNumber",
          "type": "uint256"
        }
      ],
      "name": "OrderStarted",
      "type": "event"
    },
    {
      "anonymous": false,
      "inputs": [
        {
          "indexed": true,
          "internalType": "address",
          "name": "providerFeeAddress",
          "type": "address"
        },
        {
          "indexed": true,
          "internalType": "address",
          "name": "providerFeeToken",
          "type": "address"
        },
        {
          "indexed": false,
          "internalType": "uint256",
          "name": "providerFeeAmount",
          "type": "uint256"
        },
        {
          "indexed": false,
          "internalType": "bytes",
          "name": "providerData",
          "type": "bytes"
        },
        {
          "indexed": false,
          "internalType": "uint8",
          "name": "v",
          "type": "uint8"
        },
        {
          "indexed": false,
          "internalType": "bytes32",
          "name": "r",
          "type": "bytes32"
        },
        {
          "indexed": false,
          "internalType": "bytes32",
          "name": "s",
          "type": "bytes32"
        }
      ],
      "name": "ProviderFees",
      "type": "event"
    },
    {
      "anonymous": false,
      "inputs": [
        {
          "indexed": true,
          "internalType": "address",
          "name": "PublishMarketFeeAddress",
          "type": "address"
        },
        {
          "indexed": true,
          "internalType": "address",
          "name": "PublishMarketFeeToken",
          "type": "address"
        },
        {
          "indexed": false,
          "internalType": "uint256",
          "name": "PublishMarketFeeAmount",
          "type": "uint256"
        }
      ],
      "name": "PublishMarketFees",
      "type": "event"
    },
    {
      "anonymous": false,
      "inputs": [
        {
          "indexed": false,
          "internalType": "address",
          "name": "caller",
          "type": "address"
        },
        {
          "indexed": false,
          "internalType": "address",
          "name": "PublishMarketFeeAddress",
          "type": "address"
        },
        {
          "indexed": false,
          "internalType": "address",
          "name": "PublishMarketFeeToken",
          "type": "address"
        },
        {
          "indexed": false,
          "internalType": "uint256",
          "name": "PublishMarketFeeAmount",
          "type": "uint256"
        }
      ],
      "name": "PublishMarketFeesChanged",
      "type": "event"
    },
    {
      "anonymous": false,
      "inputs": [
        {
          "indexed": true,
          "internalType": "address",
          "name": "user",
          "type": "address"
        },
        {
          "indexed": true,
          "internalType": "address",
          "name": "signer",
          "type": "address"
        },
        {
          "indexed": false,
          "internalType": "uint256",
          "name": "timestamp",
          "type": "uint256"
        },
        {
          "indexed": false,
          "internalType": "uint256",
          "name": "blockNumber",
          "type": "uint256"
        }
      ],
      "name": "RemovedMinter",
      "type": "event"
    },
    {
      "anonymous": false,
      "inputs": [
        {
          "indexed": true,
          "internalType": "address",
          "name": "user",
          "type": "address"
        },
        {
          "indexed": true,
          "internalType": "address",
          "name": "signer",
          "type": "address"
        },
        {
          "indexed": false,
          "internalType": "uint256",
          "name": "timestamp",
          "type": "uint256"
        },
        {
          "indexed": false,
          "internalType": "uint256",
          "name": "blockNumber",
          "type": "uint256"
        }
      ],
      "name": "RemovedPaymentManager",
      "type": "event"
    },
    {
      "anonymous": false,
      "inputs": [
        {
          "indexed": true,
          "internalType": "address",
          "name": "from",
          "type": "address"
        },
        {
          "indexed": true,
          "internalType": "address",
          "name": "to",
          "type": "address"
        },
        {
          "indexed": false,
          "internalType": "uint256",
          "name": "value",
          "type": "uint256"
        }
      ],
      "name": "Transfer",
      "type": "event"
    },
    {
      "stateMutability": "payable",
      "type": "fallback"
    },
    {
      "inputs": [],
      "name": "BASE",
      "outputs": [
        {
          "internalType": "uint256",
          "name": "",
          "type": "uint256"
        }
      ],
      "stateMutability": "view",
      "type": "function"
    },
    {
      "inputs": [],
      "name": "BASE_COMMUNITY_FEE_PERCENTAGE",
      "outputs": [
        {
          "internalType": "uint256",
          "name": "",
          "type": "uint256"
        }
      ],
      "stateMutability": "view",
      "type": "function"
    },
    {
      "inputs": [],
      "name": "DOMAIN_SEPARATOR",
      "outputs": [
        {
          "internalType": "bytes32",
          "name": "",
          "type": "bytes32"
        }
      ],
      "stateMutability": "view",
      "type": "function"
    },
    {
      "inputs": [],
      "name": "PERMIT_TYPEHASH",
      "outputs": [
        {
          "internalType": "bytes32",
          "name": "",
          "type": "bytes32"
        }
      ],
      "stateMutability": "view",
      "type": "function"
    },
    {
      "inputs": [
        {
          "internalType": "address",
          "name": "_minter",
          "type": "address"
        }
      ],
      "name": "addMinter",
      "outputs": [],
      "stateMutability": "nonpayable",
      "type": "function"
    },
    {
      "inputs": [
        {
          "internalType": "address",
          "name": "_paymentManager",
          "type": "address"
        }
      ],
      "name": "addPaymentManager",
      "outputs": [],
      "stateMutability": "nonpayable",
      "type": "function"
    },
    {
      "inputs": [
        {
          "internalType": "address",
          "name": "owner",
          "type": "address"
        },
        {
          "internalType": "address",
          "name": "spender",
          "type": "address"
        }
      ],
      "name": "allowance",
      "outputs": [
        {
          "internalType": "uint256",
          "name": "",
          "type": "uint256"
        }
      ],
      "stateMutability": "view",
      "type": "function"
    },
    {
      "inputs": [
        {
          "internalType": "address",
          "name": "spender",
          "type": "address"
        },
        {
          "internalType": "uint256",
          "name": "amount",
          "type": "uint256"
        }
      ],
      "name": "approve",
      "outputs": [
        {
          "internalType": "bool",
          "name": "",
          "type": "bool"
        }
      ],
      "stateMutability": "nonpayable",
      "type": "function"
    },
    {
      "inputs": [
        {
          "internalType": "uint256",
          "name": "",
          "type": "uint256"
        }
      ],
      "name": "authERC20",
      "outputs": [
        {
          "internalType": "address",
          "name": "",
          "type": "address"
        }
      ],
      "stateMutability": "view",
      "type": "function"
    },
    {
      "inputs": [
        {
          "internalType": "address",
          "name": "account",
          "type": "address"
        }
      ],
      "name": "balanceOf",
      "outputs": [
        {
          "internalType": "uint256",
          "name": "",
          "type": "uint256"
        }
      ],
      "stateMutability": "view",
      "type": "function"
    },
    {
      "inputs": [
        {
          "internalType": "uint256",
          "name": "amount",
          "type": "uint256"
        }
      ],
      "name": "burn",
      "outputs": [],
      "stateMutability": "nonpayable",
      "type": "function"
    },
    {
      "inputs": [
        {
          "internalType": "address",
          "name": "account",
          "type": "address"
        },
        {
          "internalType": "uint256",
          "name": "amount",
          "type": "uint256"
        }
      ],
      "name": "burnFrom",
      "outputs": [],
      "stateMutability": "nonpayable",
      "type": "function"
    },
    {
      "inputs": [],
      "name": "cap",
      "outputs": [
        {
          "internalType": "uint256",
          "name": "",
          "type": "uint256"
        }
      ],
      "stateMutability": "view",
      "type": "function"
    },
    {
      "inputs": [],
      "name": "cleanFrom721",
      "outputs": [],
      "stateMutability": "nonpayable",
      "type": "function"
    },
    {
      "inputs": [],
      "name": "cleanPermissions",
      "outputs": [],
      "stateMutability": "nonpayable",
      "type": "function"
    },
    {
      "inputs": [
        {
          "internalType": "address",
          "name": "_dispenser",
          "type": "address"
        },
        {
          "internalType": "uint256",
          "name": "maxTokens",
          "type": "uint256"
        },
        {
          "internalType": "uint256",
          "name": "maxBalance",
          "type": "uint256"
        },
        {
          "internalType": "bool",
          "name": "withMint",
          "type": "bool"
        },
        {
          "internalType": "address",
          "name": "allowedSwapper",
          "type": "address"
        }
      ],
      "name": "createDispenser",
      "outputs": [],
      "stateMutability": "nonpayable",
      "type": "function"
    },
    {
      "inputs": [
        {
          "internalType": "address",
          "name": "fixedPriceAddress",
          "type": "address"
        },
        {
          "internalType": "address[]",
          "name": "addresses",
          "type": "address[]"
        },
        {
          "internalType": "uint256[]",
          "name": "uints",
          "type": "uint256[]"
        }
      ],
      "name": "createFixedRate",
      "outputs": [
        {
          "internalType": "bytes32",
          "name": "exchangeId",
          "type": "bytes32"
        }
      ],
      "stateMutability": "nonpayable",
      "type": "function"
    },
    {
      "inputs": [],
      "name": "decimals",
      "outputs": [
        {
          "internalType": "uint8",
          "name": "",
          "type": "uint8"
        }
      ],
      "stateMutability": "pure",
      "type": "function"
    },
    {
      "inputs": [
        {
          "internalType": "address",
          "name": "spender",
          "type": "address"
        },
        {
          "internalType": "uint256",
          "name": "subtractedValue",
          "type": "uint256"
        }
      ],
      "name": "decreaseAllowance",
      "outputs": [
        {
          "internalType": "bool",
          "name": "",
          "type": "bool"
        }
      ],
      "stateMutability": "nonpayable",
      "type": "function"
    },
    {
      "inputs": [
        {
          "internalType": "uint256[]",
          "name": "ssParams",
          "type": "uint256[]"
        },
        {
          "internalType": "uint256[]",
          "name": "swapFees",
          "type": "uint256[]"
        },
        {
          "internalType": "address[]",
          "name": "addresses",
          "type": "address[]"
        }
      ],
      "name": "deployPool",
      "outputs": [
        {
          "internalType": "address",
          "name": "pool",
          "type": "address"
        }
      ],
      "stateMutability": "nonpayable",
      "type": "function"
    },
    {
      "inputs": [],
      "name": "getERC721Address",
      "outputs": [
        {
          "internalType": "address",
          "name": "",
          "type": "address"
        }
      ],
      "stateMutability": "view",
      "type": "function"
    },
    {
      "inputs": [],
      "name": "getId",
      "outputs": [
        {
          "internalType": "uint8",
          "name": "",
          "type": "uint8"
        }
      ],
      "stateMutability": "pure",
      "type": "function"
    },
    {
      "inputs": [],
      "name": "getPaymentCollector",
      "outputs": [
        {
          "internalType": "address",
          "name": "",
          "type": "address"
        }
      ],
      "stateMutability": "view",
      "type": "function"
    },
    {
      "inputs": [
        {
          "internalType": "address",
          "name": "user",
          "type": "address"
        }
      ],
      "name": "getPermissions",
      "outputs": [
        {
          "components": [
            {
              "internalType": "bool",
              "name": "minter",
              "type": "bool"
            },
            {
              "internalType": "bool",
              "name": "paymentManager",
              "type": "bool"
            }
          ],
          "internalType": "struct ERC20Roles.RolesERC20",
          "name": "",
          "type": "tuple"
        }
      ],
      "stateMutability": "view",
      "type": "function"
    },
    {
      "inputs": [],
      "name": "getPublishingMarketFee",
      "outputs": [
        {
          "internalType": "address",
          "name": "",
          "type": "address"
        },
        {
          "internalType": "address",
          "name": "",
          "type": "address"
        },
        {
          "internalType": "uint256",
          "name": "",
          "type": "uint256"
        }
      ],
      "stateMutability": "view",
      "type": "function"
    },
    {
      "inputs": [
        {
          "internalType": "address",
          "name": "spender",
          "type": "address"
        },
        {
          "internalType": "uint256",
          "name": "addedValue",
          "type": "uint256"
        }
      ],
      "name": "increaseAllowance",
      "outputs": [
        {
          "internalType": "bool",
          "name": "",
          "type": "bool"
        }
      ],
      "stateMutability": "nonpayable",
      "type": "function"
    },
    {
      "inputs": [
        {
          "internalType": "string[]",
          "name": "strings_",
          "type": "string[]"
        },
        {
          "internalType": "address[]",
          "name": "addresses_",
          "type": "address[]"
        },
        {
          "internalType": "address[]",
          "name": "factoryAddresses_",
          "type": "address[]"
        },
        {
          "internalType": "uint256[]",
          "name": "uints_",
          "type": "uint256[]"
        },
        {
          "internalType": "bytes[]",
          "name": "bytes_",
          "type": "bytes[]"
        }
      ],
      "name": "initialize",
      "outputs": [
        {
          "internalType": "bool",
          "name": "",
          "type": "bool"
        }
      ],
      "stateMutability": "nonpayable",
      "type": "function"
    },
    {
      "inputs": [
        {
          "internalType": "address",
          "name": "user",
          "type": "address"
        }
      ],
      "name": "isERC20Deployer",
      "outputs": [
        {
          "internalType": "bool",
          "name": "deployer",
          "type": "bool"
        }
      ],
      "stateMutability": "nonpayable",
      "type": "function"
    },
    {
      "inputs": [],
      "name": "isInitialized",
      "outputs": [
        {
          "internalType": "bool",
          "name": "",
          "type": "bool"
        }
      ],
      "stateMutability": "view",
      "type": "function"
    },
    {
      "inputs": [
        {
          "internalType": "address",
          "name": "account",
          "type": "address"
        }
      ],
      "name": "isMinter",
      "outputs": [
        {
          "internalType": "bool",
          "name": "",
          "type": "bool"
        }
      ],
      "stateMutability": "view",
      "type": "function"
    },
    {
      "inputs": [
        {
          "internalType": "address",
          "name": "account",
          "type": "address"
        },
        {
          "internalType": "uint256",
          "name": "value",
          "type": "uint256"
        }
      ],
      "name": "mint",
      "outputs": [],
      "stateMutability": "nonpayable",
      "type": "function"
    },
    {
      "inputs": [],
      "name": "name",
      "outputs": [
        {
          "internalType": "string",
          "name": "",
          "type": "string"
        }
      ],
      "stateMutability": "view",
      "type": "function"
    },
    {
      "inputs": [
        {
          "internalType": "address",
          "name": "",
          "type": "address"
        }
      ],
      "name": "nonces",
      "outputs": [
        {
          "internalType": "uint256",
          "name": "",
          "type": "uint256"
        }
      ],
      "stateMutability": "view",
      "type": "function"
    },
    {
      "inputs": [
        {
          "internalType": "address",
          "name": "",
          "type": "address"
        }
      ],
      "name": "permissions",
      "outputs": [
        {
          "internalType": "bool",
          "name": "minter",
          "type": "bool"
        },
        {
          "internalType": "bool",
          "name": "paymentManager",
          "type": "bool"
        }
      ],
      "stateMutability": "view",
      "type": "function"
    },
    {
      "inputs": [
        {
          "internalType": "address",
          "name": "owner",
          "type": "address"
        },
        {
          "internalType": "address",
          "name": "spender",
          "type": "address"
        },
        {
          "internalType": "uint256",
          "name": "value",
          "type": "uint256"
        },
        {
          "internalType": "uint256",
          "name": "deadline",
          "type": "uint256"
        },
        {
          "internalType": "uint8",
          "name": "v",
          "type": "uint8"
        },
        {
          "internalType": "bytes32",
          "name": "r",
          "type": "bytes32"
        },
        {
          "internalType": "bytes32",
          "name": "s",
          "type": "bytes32"
        }
      ],
      "name": "permit",
      "outputs": [],
      "stateMutability": "nonpayable",
      "type": "function"
    },
    {
      "inputs": [
        {
          "internalType": "address",
          "name": "_minter",
          "type": "address"
        }
      ],
      "name": "removeMinter",
      "outputs": [],
      "stateMutability": "nonpayable",
      "type": "function"
    },
    {
      "inputs": [
        {
          "internalType": "address",
          "name": "_paymentManager",
          "type": "address"
        }
      ],
      "name": "removePaymentManager",
      "outputs": [],
      "stateMutability": "nonpayable",
      "type": "function"
    },
    {
      "inputs": [],
      "name": "router",
      "outputs": [
        {
          "internalType": "address",
          "name": "",
          "type": "address"
        }
      ],
      "stateMutability": "view",
      "type": "function"
    },
    {
      "inputs": [
        {
          "internalType": "bytes",
          "name": "_value",
          "type": "bytes"
        }
      ],
      "name": "setData",
      "outputs": [],
      "stateMutability": "nonpayable",
      "type": "function"
    },
    {
      "inputs": [
        {
          "internalType": "address",
          "name": "_newPaymentCollector",
          "type": "address"
        }
      ],
      "name": "setPaymentCollector",
      "outputs": [],
      "stateMutability": "nonpayable",
      "type": "function"
    },
    {
      "inputs": [
        {
          "internalType": "address",
          "name": "_publishMarketFeeAddress",
          "type": "address"
        },
        {
          "internalType": "address",
          "name": "_publishMarketFeeToken",
          "type": "address"
        },
        {
          "internalType": "uint256",
          "name": "_publishMarketFeeAmount",
          "type": "uint256"
        }
      ],
      "name": "setPublishingMarketFee",
      "outputs": [],
      "stateMutability": "nonpayable",
      "type": "function"
    },
    {
      "inputs": [
        {
          "internalType": "address",
          "name": "consumer",
          "type": "address"
        },
        {
          "internalType": "uint256",
          "name": "serviceIndex",
          "type": "uint256"
        },
        {
          "internalType": "address",
          "name": "providerFeeAddress",
          "type": "address"
        },
        {
          "internalType": "address",
          "name": "providerFeeToken",
          "type": "address"
        },
        {
          "internalType": "uint256",
          "name": "providerFeeAmount",
          "type": "uint256"
        },
        {
          "internalType": "uint8",
          "name": "v",
          "type": "uint8"
        },
        {
          "internalType": "bytes32",
          "name": "r",
          "type": "bytes32"
        },
        {
          "internalType": "bytes32",
          "name": "s",
          "type": "bytes32"
        },
        {
          "internalType": "bytes",
          "name": "providerData",
          "type": "bytes"
        }
      ],
      "name": "startOrder",
      "outputs": [],
      "stateMutability": "nonpayable",
      "type": "function"
    },
    {
      "inputs": [],
      "name": "symbol",
      "outputs": [
        {
          "internalType": "string",
          "name": "",
          "type": "string"
        }
      ],
      "stateMutability": "view",
      "type": "function"
    },
    {
      "inputs": [],
      "name": "totalSupply",
      "outputs": [
        {
          "internalType": "uint256",
          "name": "",
          "type": "uint256"
        }
      ],
      "stateMutability": "view",
      "type": "function"
    },
    {
      "inputs": [
        {
          "internalType": "address",
          "name": "recipient",
          "type": "address"
        },
        {
          "internalType": "uint256",
          "name": "amount",
          "type": "uint256"
        }
      ],
      "name": "transfer",
      "outputs": [
        {
          "internalType": "bool",
          "name": "",
          "type": "bool"
        }
      ],
      "stateMutability": "nonpayable",
      "type": "function"
    },
    {
      "inputs": [
        {
          "internalType": "address",
          "name": "sender",
          "type": "address"
        },
        {
          "internalType": "address",
          "name": "recipient",
          "type": "address"
        },
        {
          "internalType": "uint256",
          "name": "amount",
          "type": "uint256"
        }
      ],
      "name": "transferFrom",
      "outputs": [
        {
          "internalType": "bool",
          "name": "",
          "type": "bool"
        }
      ],
      "stateMutability": "nonpayable",
      "type": "function"
    },
    {
      "inputs": [],
      "name": "withdrawETH",
      "outputs": [],
      "stateMutability": "payable",
      "type": "function"
    }
  ],
  "bytecode": "0x6080604052600b805460ff60a01b191690553480156200001e57600080fd5b5060408051808201825260048152631d195cdd60e21b60208083019182528351808501909452600a8452691d195cdd14de5b589bdb60b21b9084015281519192916200006d9160039162000091565b5080516200008390600490602084019062000091565b505060016007555062000174565b8280546200009f9062000137565b90600052602060002090601f016020900481019282620000c357600085556200010e565b82601f10620000de57805160ff19168380011785556200010e565b828001600101855582156200010e579182015b828111156200010e578251825591602001919060010190620000f1565b506200011c92915062000120565b5090565b5b808211156200011c576000815560010162000121565b600181811c908216806200014c57607f821691505b602082108114156200016e57634e487b7160e01b600052602260045260246000fd5b50919050565b61433080620001846000396000f3fe6080604052600436106102725760003560e01c80635d1ca6311161014e578063aa271e1a116100bb578063dd62ed3e11610077578063dd62ed3e14610878578063e086e5ec146108be578063e487c2e8146108c6578063ec342ad0146108db578063ef867ff4146108f7578063f887ea401461091757005b8063aa271e1a146107aa578063aa492ef9146107e3578063ab62f0e114610803578063b2263a5d14610823578063b3998be014610838578063d505accf1461085857005b806395d89b411161010a57806395d89b41146106f557806396fb3eaf1461070a578063983b2d561461072a5780639b4f44b61461074a578063a457c2d71461076a578063a9059cbb1461078a57005b80635d1ca6311461062957806370a082311461063d57806379cc6790146106735780637ecebe001461069357806382c03da5146106c05780638b96412b146106d557005b8063313ce567116101ec57806340c10f19116101a857806340c10f191461057457806342966c68146105945780634f189cb2146105b457806357a3a31b146105c957806357ad5ff6146105e95780635bfe4da01461060957005b8063313ce567146104ac578063355274ea146104ce5780633644e515146104e3578063392e53cd146104f95780633950935114610518578063397b37431461053857005b806318160ddd1161023b57806318160ddd146103d9578063191c918a146103f857806323b872dd1461041857806325b00243146104385780633092afd51461045857806330adf81f1461047857005b80627ffb781461027457806301e88208146102ab57806306fdde03146102fb578063095ea7b31461031d578063160a79251461034d575b005b34801561028057600080fd5b50600c546001600160a01b03165b6040516001600160a01b0390911681526020015b60405180910390f35b3480156102b757600080fd5b506102e46102c636600461360b565b60056020526000908152604090205460ff8082169161010090041682565b6040805192151583529015156020830152016102a2565b34801561030757600080fd5b50610310610937565b6040516102a29190613680565b34801561032957600080fd5b5061033d610338366004613693565b6109c9565b60405190151581526020016102a2565b34801561035957600080fd5b506103ba61036836600461360b565b6040805180820190915260008082526020820152506001600160a01b031660009081526005602090815260409182902082518084019093525460ff808216151584526101009091041615159082015290565b60408051825115158152602092830151151592810192909252016102a2565b3480156103e557600080fd5b506002545b6040519081526020016102a2565b34801561040457600080fd5b506102726104133660046136cd565b6109df565b34801561042457600080fd5b5061033d61043336600461372c565b610b3a565b34801561044457600080fd5b5061027261045336600461360b565b610be6565b34801561046457600080fd5b5061027261047336600461360b565b610c80565b34801561048457600080fd5b506103ea7f6e71edae12b1b97f4d1f60370fef10105fa2faae0126114a169c64845d6126c981565b3480156104b857600080fd5b5060125b60405160ff90911681526020016102a2565b3480156104da57600080fd5b50600a546103ea565b3480156104ef57600080fd5b506103ea60115481565b34801561050557600080fd5b50600b54600160a01b900460ff1661033d565b34801561052457600080fd5b5061033d610533366004613693565b610d17565b34801561054457600080fd5b50600e54600f54601054604080516001600160a01b039485168152939092166020840152908201526060016102a2565b34801561058057600080fd5b5061027261058f366004613693565b610d53565b3480156105a057600080fd5b506102726105af36600461376d565b610e24565b3480156105c057600080fd5b50610272610e2e565b3480156105d557600080fd5b506102726105e436600461360b565b610f15565b3480156105f557600080fd5b5061027261060436600461372c565b611057565b34801561061557600080fd5b5061028e6106243660046138c0565b6111ab565b34801561063557600080fd5b5060016104bc565b34801561064957600080fd5b506103ea61065836600461360b565b6001600160a01b031660009081526020819052604090205490565b34801561067f57600080fd5b5061027261068e366004613693565b611533565b34801561069f57600080fd5b506103ea6106ae36600461360b565b60126020526000908152604090205481565b3480156106cc57600080fd5b506102726115b9565b3480156106e157600080fd5b506103ea6106f0366004613948565b611613565b34801561070157600080fd5b506103106117e0565b34801561071657600080fd5b5061033d61072536600461360b565b6117ef565b34801561073657600080fd5b5061027261074536600461360b565b61186a565b34801561075657600080fd5b50610272610765366004613a42565b611901565b34801561077657600080fd5b5061033d610785366004613693565b611db2565b34801561079657600080fd5b5061033d6107a5366004613693565b611e4b565b3480156107b657600080fd5b5061033d6107c536600461360b565b6001600160a01b031660009081526005602052604090205460ff1690565b3480156107ef57600080fd5b506102726107fe36600461360b565b611e58565b34801561080f57600080fd5b5061027261081e366004613aef565b611eef565b34801561082f57600080fd5b506103ea612020565b34801561084457600080fd5b5061033d610853366004613bad565b612036565b34801561086457600080fd5b50610272610873366004613c9e565b612170565b34801561088457600080fd5b506103ea610893366004613d0c565b6001600160a01b03918216600090815260016020908152604080832093909416825291909152205490565b610272612382565b3480156108d257600080fd5b5061028e6123c2565b3480156108e757600080fd5b506103ea670de0b6b3a764000081565b34801561090357600080fd5b5061028e61091236600461376d565b612457565b34801561092357600080fd5b5060135461028e906001600160a01b031681565b60606008805461094690613d45565b80601f016020809104026020016040519081016040528092919081815260200182805461097290613d45565b80156109bf5780601f10610994576101008083540402835291602001916109bf565b820191906000526020600020905b8154815290600101906020018083116109a257829003601f168201915b5050505050905090565b60006109d6338484612481565b50600192915050565b600c5460405163160a792560e01b81523360048201526001600160a01b039091169063160a7925906024016080604051808303816000875af1158015610a29573d6000803e3d6000fd5b505050506040513d601f19601f82011682018060405250810190610a4d9190613d80565b60200151610a765760405162461bcd60e51b8152600401610a6d90613e05565b60405180910390fd5b60026007541415610a995760405162461bcd60e51b8152600401610a6d90613e3a565b6002600755601354604051636b14d00560e11b81526001600160a01b038781166004830152306024830152604482018790526064820186905233608483015283811660a48301529091169063d629a00a9060c401600060405180830381600087803b158015610b0757600080fd5b505af1158015610b1b573d6000803e3d6000fd5b505050508115610b2e57610b2e856125a5565b50506001600755505050565b6000610b478484846126a7565b6001600160a01b038416600090815260016020908152604080832033845290915290205482811015610bcc5760405162461bcd60e51b815260206004820152602860248201527f45524332303a207472616e7366657220616d6f756e74206578636565647320616044820152676c6c6f77616e636560c01b6064820152608401610a6d565b610bd98533858403612481565b60019150505b9392505050565b600c5460405163160a792560e01b81523360048201526001600160a01b039091169063160a7925906024016080604051808303816000875af1158015610c30573d6000803e3d6000fd5b505050506040513d601f19601f82011682018060405250810190610c549190613d80565b60200151610c745760405162461bcd60e51b8152600401610a6d90613e05565b610c7d81612877565b50565b600c5460405163160a792560e01b81523360048201526001600160a01b039091169063160a7925906024016080604051808303816000875af1158015610cca573d6000803e3d6000fd5b505050506040513d601f19601f82011682018060405250810190610cee9190613d80565b60200151610d0e5760405162461bcd60e51b8152600401610a6d90613e05565b610c7d816128d8565b3360008181526001602090815260408083206001600160a01b038716845290915281205490916109d6918590610d4e908690613e87565b612481565b3360009081526005602052604090205460ff16610db25760405162461bcd60e51b815260206004820152601960248201527f455243323054656d706c6174653a204e4f54204d494e544552000000000000006044820152606401610a6d565b600a54610dc882610dc260025490565b90612938565b1115610e165760405162461bcd60e51b815260206004820152601f60248201527f44617461546f6b656e54656d706c6174653a20636170206578636565646564006044820152606401610a6d565b610e208282612944565b5050565b610c7d3382612a23565b600c546040516331a9108f60e11b8152600160048201526001600160a01b0390911690636352211e90602401602060405180830381865afa158015610e77573d6000803e3d6000fd5b505050506040513d601f19601f82011682018060405250810190610e9b9190613e9f565b6001600160a01b0316336001600160a01b031614610efb5760405162461bcd60e51b815260206004820152601b60248201527f455243323054656d706c6174653a206e6f74204e46544f776e657200000000006044820152606401610a6d565b610f03612b71565b600d80546001600160a01b0319169055565b33600090815260056020526040902054610100900460ff1680610fa65750600c5460405163160a792560e01b81523360048201526001600160a01b039091169063160a7925906024016080604051808303816000875af1158015610f7d573d6000803e3d6000fd5b505050506040513d601f19601f82011682018060405250810190610fa19190613d80565b602001515b6110065760405162461bcd60e51b815260206004820152602b60248201527f455243323054656d706c6174653a204e4f54205041594d454e54204d414e414760448201526a22a91037b91027aba722a960a91b6064820152608401610a6d565b61100f81612c20565b604080514281524360208201526001600160a01b0383169133917f4d7694d695c57cc54947177c8e8a0e61aae664e9223492a798c32fadfc6419cc910160405180910390a350565b600e546001600160a01b031633146110c45760405162461bcd60e51b815260206004820152602a60248201527f455243323054656d706c6174653a206e6f74207075626c6973684d61726b65746044820152694665654164647265737360b01b6064820152608401610a6d565b6001600160a01b03831661112b5760405162461bcd60e51b815260206004820152602860248201527f496e76616c6964205f7075626c6973684d61726b657446656541646472657373604482015267206164647265737360c01b6064820152608401610a6d565b600e80546001600160a01b038581166001600160a01b03199283168117909355600f80549186169190921681179091556010839055604080513381526020810193909352820152606081018290527fe0b85b6f04fa914cf57f6401c5672a83a32b1c388d194c3d78e17f2897d46f439060800160405180910390a1505050565b600c5460405163160a792560e01b81523360048201526000916001600160a01b03169063160a7925906024016080604051808303816000875af11580156111f6573d6000803e3d6000fd5b505050506040513d601f19601f8201168201806040525081019061121a9190613d80565b6020015161123a5760405162461bcd60e51b8152600401610a6d90613e05565b600254156112965760405162461bcd60e51b8152602060048201526024808201527f455243323054656d706c6174653a20746f6b656e7320616c7265616479206d696044820152631b9d195960e21b6064820152608401610a6d565b6112b9826000815181106112ac576112ac613ebc565b60200260200101516125a5565b601360009054906101000a90046001600160a01b03166001600160a01b031663510f34656040518163ffffffff1660e01b8152600401602060405180830381865afa15801561130c573d6000803e3d6000fd5b505050506040513d601f19601f820116820180604052508101906113309190613ed2565b8460038151811061134357611343613ebc565b602002602001015110156113d95760405162461bcd60e51b815260206004820152605160248201527f455243323054656d706c6174653a2056657374696e6720706572696f6420746f60448201527f6f206c6f772e2053656520466163746f7279526f757465722e6d696e56657374606482015270696e67506572696f64496e426c6f636b7360781b608482015260a401610a6d565b60006040518060400160405280306001600160a01b03166001600160a01b031681526020018460018151811061141157611411613ebc565b60209081029190910101516001600160a01b0390811690915260135460405163ee3bc63560e01b8152929350169063ee3bc63590611459908490899089908990600401613f5f565b6020604051808303816000875af1158015611478573d6000803e3d6000fd5b505050506040513d601f19601f8201168201806040525081019061149c9190613e9f565b91507fd02da1bec30f7f750aa0a131745dfb9ce96767c45a192dc26409f5d690e0b96782846000815181106114d3576114d3613ebc565b6020026020010151856001815181106114ee576114ee613ebc565b6020026020010151604051611523939291906001600160a01b0393841681529183166020830152909116604082015260600190565b60405180910390a1509392505050565b600061153f8333610893565b90508181101561159d5760405162461bcd60e51b8152602060048201526024808201527f45524332303a206275726e20616d6f756e74206578636565647320616c6c6f77604482015263616e636560e01b6064820152608401610a6d565b6115aa8333848403612481565b6115b48383612a23565b505050565b600c546001600160a01b03163314610efb5760405162461bcd60e51b815260206004820152601f60248201527f455243323054656d706c6174653a204e4f542037323120436f6e7472616374006044820152606401610a6d565b600c5460405163160a792560e01b81523360048201526000916001600160a01b03169063160a7925906024016080604051808303816000875af115801561165e573d6000803e3d6000fd5b505050506040513d601f19601f820116820180604052508101906116829190613d80565b602001516116a25760405162461bcd60e51b8152600401610a6d90613e05565b600260075414156116c55760405162461bcd60e51b8152600401610a6d90613e3a565b6002600755601354604051638244937560e01b81526001600160a01b03909116906382449375906116fe90879087908790600401613fca565b6020604051808303816000875af115801561171d573d6000803e3d6000fd5b505050506040513d601f19601f820116820180604052508101906117419190613ed2565b905060008260048151811061175857611758613ebc565b6020026020010151111561176f5761176f846125a5565b7f195d202f33578769e120c3041341554af3193e67ee004175095bc9c06e6e616581846000815181106117a4576117a4613ebc565b60200260200101516040516117cc9291909182526001600160a01b0316602082015260400190565b60405180910390a160016007559392505050565b60606009805461094690613d45565b600c5460405163160a792560e01b81526001600160a01b038381166004830152600092169063160a7925906024016080604051808303816000875af115801561183c573d6000803e3d6000fd5b505050506040513d601f19601f820116820180604052508101906118609190613d80565b6020015192915050565b600c5460405163160a792560e01b81523360048201526001600160a01b039091169063160a7925906024016080604051808303816000875af11580156118b4573d6000803e3d6000fd5b505050506040513d601f19601f820116820180604052508101906118d89190613d80565b602001516118f85760405162461bcd60e51b8152600401610a6d90613e05565b610c7d816125a5565b600260075414156119245760405162461bcd60e51b8152600401610a6d90613e3a565b600260075533600090815260208190526040812054670de0b6b3a764000091908211156119a15760405162461bcd60e51b815260206004820152602560248201527f4e6f7420656e6f756768204461746120546f6b656e7320746f2073746172742060448201526427b93232b960d91b6064820152608401610a6d565b600e5460408051338152602081018590529081018c90524260608201524360808201526001600160a01b03918216918d16907fe1c4fa794edfa8f619b8257a077398950357b9c6398528f94480307352f9afcc9060a00160405180910390a36000601054118015611a1c5750600f546001600160a01b031615155b8015611a325750600e546001600160a01b031615155b15611b5d57601054600f54611a56916001600160a01b039091169033903090612c42565b601054611a64906064612cad565b600e54601054919250611a9a916001600160a01b0390911690611a879084612cb9565b600f546001600160a01b03169190612cc5565b600f54600e546010546001600160a01b0392831692909116907ff666b31c81334b6085802ba4149907fa724689d43bc31df6de1a51291ddc55b490611adf9085612cb9565b60405190815260200160405180910390a38015611b5d57600b54600f54611b13916001600160a01b03918216911683612cc5565b600f54600b546040518381526001600160a01b0392831692909116907ff666b31c81334b6085802ba4149907fa724689d43bc31df6de1a51291ddc55b49060200160405180910390a35b60006040518060400160405280601c81526020017f19457468657265756d205369676e6564204d6573736167653a0a3332000000008152509050600081858c8c8c604051602001611bb1949392919061400a565b60405160208183030381529060405280519060200120604051602001611bd8929190614050565b60408051601f198184030181528282528051602091820120600080855291840180845281905260ff8c1692840192909252606083018a9052608083018990529092509060019060a0016020604051602081039080840390855afa158015611c43573d6000803e3d6000fd5b5050506020604051035190508b6001600160a01b0316816001600160a01b031614611ca75760405162461bcd60e51b8152602060048201526014602482015273496e76616c69642070726f76696465722066656560601b6044820152606401610a6d565b8a6001600160a01b03168c6001600160a01b03167f144fc6ed7d0a617ba44a01131b1f724d0370297a3640b6201f343e081ada64468c898d8d8d604051611cf2959493929190614072565b60405180910390a360008a118015611d1257506001600160a01b038b1615155b8015611d2657506001600160a01b038c1615155b15611d4057611d406001600160a01b038c16338e8d612c42565b611d51611d4b6123c2565b86611e4b565b611d9d5760405162461bcd60e51b815260206004820152601e60248201527f4661696c656420746f2073656e6420445420746f207075626c697368657200006044820152606401610a6d565b50506001600755505050505050505050505050565b3360009081526001602090815260408083206001600160a01b038616845290915281205482811015611e345760405162461bcd60e51b815260206004820152602560248201527f45524332303a2064656372656173656420616c6c6f77616e63652062656c6f77604482015264207a65726f60d81b6064820152608401610a6d565b611e413385858403612481565b5060019392505050565b60006109d63384846126a7565b600c5460405163160a792560e01b81523360048201526001600160a01b039091169063160a7925906024016080604051808303816000875af1158015611ea2573d6000803e3d6000fd5b505050506040513d601f19601f82011682018060405250810190611ec69190613d80565b60200151611ee65760405162461bcd60e51b8152600401610a6d90613e05565b610c7d81612cf5565b600c5460405163160a792560e01b81523360048201526001600160a01b039091169063160a7925906024016080604051808303816000875af1158015611f39573d6000803e3d6000fd5b505050506040513d601f19601f82011682018060405250810190611f5d9190613d80565b60200151611f7d5760405162461bcd60e51b8152600401610a6d90613e05565b6040516bffffffffffffffffffffffff193060601b16602082015260009060340160408051601f19818403018152908290528051602090910120600c546301caf8fd60e31b83529092506001600160a01b031690630e57c7e890611fe9908490879087906004016140ab565b600060405180830381600087803b15801561200357600080fd5b505af1158015612017573d6000803e3d6000fd5b50505050505050565b6120336064670de0b6b3a76400006140e1565b81565b600b54600090600160a01b900460ff16156120ad5760405162461bcd60e51b815260206004820152603160248201527f455243323054656d706c6174653a20746f6b656e20696e7374616e636520616c6044820152701c9958591e481a5b9a5d1a585b1a5e9959607a1b6064820152608401610a6d565b6121616120ba8b8d614103565b8a8a8080602002602001604051908101604052809392919081815260200183836020028082843760009201919091525050604080516020808e0282810182019093528d82529093508d92508c91829185019084908082843760009201919091525050604080516020808d0282810182019093528c82529093508c92508b91829185019084908082843760009201919091525061215c92508991508a905061418b565b612e03565b9b9a5050505050505050505050565b438410156121b35760405162461bcd60e51b815260206004820152601060248201526f115490cc8c11150e881156141254915160821b6044820152606401610a6d565b6011546001600160a01b038816600090815260126020526040812080549192917f6e71edae12b1b97f4d1f60370fef10105fa2faae0126114a169c64845d6126c9918b918b918b919087612206836141f3565b909155506040805160208101969096526001600160a01b0394851690860152929091166060840152608083015260a082015260c0810187905260e0016040516020818303038152906040528051906020012060405160200161227f92919061190160f01b81526002810192909252602282015260420190565b60408051601f198184030181528282528051602091820120600080855291840180845281905260ff88169284019290925260608301869052608083018590529092509060019060a0016020604051602081039080840390855afa1580156122ea573d6000803e3d6000fd5b5050604051601f1901519150506001600160a01b038116158015906123205750886001600160a01b0316816001600160a01b0316145b61236c5760405162461bcd60e51b815260206004820152601a60248201527f455243323044543a20494e56414c49445f5349474e41545552450000000000006044820152606401610a6d565b612377898989612481565b505050505050505050565b61238a6123c2565b6001600160a01b03166108fc479081150290604051600060405180830381858888f19350505050158015610c7d573d6000803e3d6000fd5b600d546000906001600160a01b031661244757600c546040516331a9108f60e11b8152600160048201526001600160a01b0390911690636352211e90602401602060405180830381865afa15801561241e573d6000803e3d6000fd5b505050506040513d601f19601f820116820180604052508101906124429190613e9f565b905090565b50600d546001600160a01b031690565b6006818154811061246757600080fd5b6000918252602090912001546001600160a01b0316905081565b6001600160a01b0383166124e35760405162461bcd60e51b8152602060048201526024808201527f45524332303a20617070726f76652066726f6d20746865207a65726f206164646044820152637265737360e01b6064820152608401610a6d565b6001600160a01b0382166125445760405162461bcd60e51b815260206004820152602260248201527f45524332303a20617070726f766520746f20746865207a65726f206164647265604482015261737360f01b6064820152608401610a6d565b6001600160a01b0383811660008181526001602090815260408083209487168084529482529182902085905590518481527f8c5be1e5ebec7d5bd14f71427d1e84f3dd0314c0f7b2291e5b200ac8c7c3b925910160405180910390a3505050565b6001600160a01b0381166000908152600560205260409020805460ff161561260f5760405162461bcd60e51b815260206004820152601d60248201527f4552433230526f6c65733a2020414c52454144592041204d494e5445520000006044820152606401610a6d565b8054600160ff19909116811782556006805491820181556000527ff652222313e28459528d920b65115c16c04f3efc82aaedc97be59f3f377c0d3f0180546001600160a01b0319166001600160a01b038416908117909155604080514281524360208201523392917f4f7e100eb1ee13e903798bd0d6aa854152e07eb05544f392b9409c12935c809591015b60405180910390a35050565b6001600160a01b03831661270b5760405162461bcd60e51b815260206004820152602560248201527f45524332303a207472616e736665722066726f6d20746865207a65726f206164604482015264647265737360d81b6064820152608401610a6d565b6001600160a01b03821661276d5760405162461bcd60e51b815260206004820152602360248201527f45524332303a207472616e7366657220746f20746865207a65726f206164647260448201526265737360e81b6064820152608401610a6d565b6001600160a01b038316600090815260208190526040902054818110156127e55760405162461bcd60e51b815260206004820152602660248201527f45524332303a207472616e7366657220616d6f756e7420657863656564732062604482015265616c616e636560d01b6064820152608401610a6d565b6001600160a01b0380851660009081526020819052604080822085850390559185168152908120805484929061281c908490613e87565b92505081905550826001600160a01b0316846001600160a01b03167fddf252ad1be2c89b69c2b068fc378daa952ba7f163c4a11628f55a4df523b3ef8460405161286891815260200190565b60405180910390a35b50505050565b6001600160a01b03811660008181526005602052604090819020805461ff00191681559051909133917faee911eec8b2df8f3ae0464841541b1e5f339519bd5cf51889fe8b07fecff6589061269b9042904390918252602082015260400190565b6001600160a01b03811660008181526005602052604090819020805460ff191681559051909133917fefa2735987005aaa89c050c0ff8cc9ae7d9079d19382081c429130f98c52d4809061269b9042904390918252602082015260400190565b6000610bdf8284613e87565b6001600160a01b03821661299a5760405162461bcd60e51b815260206004820152601f60248201527f45524332303a206d696e7420746f20746865207a65726f2061646472657373006044820152606401610a6d565b80600260008282546129ac9190613e87565b90915550506001600160a01b038216600090815260208190526040812080548392906129d9908490613e87565b90915550506040518181526001600160a01b038316906000907fddf252ad1be2c89b69c2b068fc378daa952ba7f163c4a11628f55a4df523b3ef9060200160405180910390a35050565b6001600160a01b038216612a835760405162461bcd60e51b815260206004820152602160248201527f45524332303a206275726e2066726f6d20746865207a65726f206164647265736044820152607360f81b6064820152608401610a6d565b6001600160a01b03821660009081526020819052604090205481811015612af75760405162461bcd60e51b815260206004820152602260248201527f45524332303a206275726e20616d6f756e7420657863656564732062616c616e604482015261636560f01b6064820152608401610a6d565b6001600160a01b0383166000908152602081905260408120838303905560028054849290612b2690849061420e565b90915550506040518281526000906001600160a01b038516907fddf252ad1be2c89b69c2b068fc378daa952ba7f163c4a11628f55a4df523b3ef9060200160405180910390a3505050565b60005b600654811015612bd75760006005600060068481548110612b9757612b97613ebc565b60009182526020808320909101546001600160a01b031683528201929092526040019020805461ffff191690555080612bcf816141f3565b915050612b74565b50612be46006600061353f565b6040805142815243602082015233917f712bc71db81927a76b8bf1ea346247bb0ad58f18e4e5c1bd4aa0ec6573e02a2b910160405180910390a2565b600d80546001600160a01b0319166001600160a01b0392909216919091179055565b6040516001600160a01b03808516602483015283166044820152606481018290526128719085906323b872dd60e01b906084015b60408051601f198184030181529190526020810180516001600160e01b03166001600160e01b0319909316929092179091526132f5565b6000610bdf82846140e1565b6000610bdf828461420e565b6040516001600160a01b0383166024820152604481018290526115b490849063a9059cbb60e01b90606401612c76565b6001600160a01b03811660009081526005602052604090208054610100900460ff1615612d6f5760405162461bcd60e51b815260206004820152602260248201527f4552433230526f6c65733a2020414c5245414459204120464545204d414e414760448201526122a960f11b6064820152608401610a6d565b805461ff001916610100178155600680546001810182556000919091527ff652222313e28459528d920b65115c16c04f3efc82aaedc97be59f3f377c0d3f0180546001600160a01b0384166001600160a01b03199091168117909155604080514281524360208201523392917fb17da2e9910b4ba5754e8872385ba315a238bafb5ae221fc85093c33432c40a7910161269b565b60008084600081518110612e1957612e19613ebc565b60200260200101519050600085600181518110612e3857612e38613ebc565b6020026020010151905060006001600160a01b0316826001600160a01b03161415612eba5760405162461bcd60e51b815260206004820152602c60248201527f455243323054656d706c6174653a20496e76616c6964206d696e7465722c202060448201526b7a65726f206164647265737360a01b6064820152608401610a6d565b6001600160a01b038116612f365760405162461bcd60e51b815260206004820152603c60248201527f455243323054656d706c6174653a20496e76616c696420636f6d6d756e69747960448201527f2066656520636f6c6c6563746f722c207a65726f2061646472657373000000006064820152608401610a6d565b84600081518110612f4957612f49613ebc565b602002602001015160001415612fad5760405162461bcd60e51b8152602060048201526024808201527f44617461546f6b656e54656d706c6174653a20496e76616c6964206361702076604482015263616c756560e01b6064820152608401610a6d565b84600081518110612fc057612fc0613ebc565b6020026020010151600a8190555087600081518110612fe157612fe1613ebc565b602002602001015160089080519060200190612ffe92919061355d565b508760018151811061301257613012613ebc565b60200260200101516009908051906020019061302f92919061355d565b50600c80546001600160a01b0319166001600160a01b03841617905585518690600290811061306057613060613ebc565b6020908102919091010151601380546001600160a01b039283166001600160a01b0319909116179055600b80546001600160a81b03191691831691909117600160a01b17905586516130bd9088906000906112ac576112ac613ebc565b60006001600160a01b0316876001815181106130db576130db613ebc565b60200260200101516001600160a01b031614613185576131148760018151811061310757613107613ebc565b6020026020010151612c20565b8660018151811061312757613127613ebc565b60200260200101516001600160a01b0316336001600160a01b03167f4d7694d695c57cc54947177c8e8a0e61aae664e9223492a798c32fadfc6419cc424360405161317c929190918252602082015260400190565b60405180910390a35b8660028151811061319857613198613ebc565b6020026020010151600e60006101000a8154816001600160a01b0302191690836001600160a01b03160217905550866003815181106131d9576131d9613ebc565b6020026020010151600f60006101000a8154816001600160a01b0302191690836001600160a01b031602179055508460018151811061321a5761321a613ebc565b602002602001015160108190555060004690507f8b73c3c69bb8fe3d512ecc4cf759cc79239f7b179b0ffacaa9a75d522b39400f600860405161325d9190614225565b60408051918290038220828201825260018352603160f81b6020938401528151928301939093528101919091527fc89efdaa54c0f20c7adf612882df0950f5a951637e0307cdcb4c672f298b8bc66060820152608081018290523060a082015260c00160408051808303601f1901815291905280516020909101206011555050600b54600160a01b900460ff16979650505050505050565b600061334a826040518060400160405280602081526020017f5361666545524332303a206c6f772d6c6576656c2063616c6c206661696c6564815250856001600160a01b03166133c79092919063ffffffff16565b8051909150156115b4578080602001905181019061336891906142c1565b6115b45760405162461bcd60e51b815260206004820152602a60248201527f5361666545524332303a204552433230206f7065726174696f6e20646964206e6044820152691bdd081cdd58d8d9595960b21b6064820152608401610a6d565b60606133d684846000856133de565b949350505050565b60608247101561343f5760405162461bcd60e51b815260206004820152602660248201527f416464726573733a20696e73756666696369656e742062616c616e636520666f6044820152651c8818d85b1b60d21b6064820152608401610a6d565b843b61348d5760405162461bcd60e51b815260206004820152601d60248201527f416464726573733a2063616c6c20746f206e6f6e2d636f6e74726163740000006044820152606401610a6d565b600080866001600160a01b031685876040516134a991906142de565b60006040518083038185875af1925050503d80600081146134e6576040519150601f19603f3d011682016040523d82523d6000602084013e6134eb565b606091505b50915091506134fb828286613506565b979650505050505050565b60608315613515575081610bdf565b8251156135255782518084602001fd5b8160405162461bcd60e51b8152600401610a6d9190613680565b5080546000825590600052602060002090810190610c7d91906135e1565b82805461356990613d45565b90600052602060002090601f01602090048101928261358b57600085556135d1565b82601f106135a457805160ff19168380011785556135d1565b828001600101855582156135d1579182015b828111156135d15782518255916020019190600101906135b6565b506135dd9291506135e1565b5090565b5b808211156135dd57600081556001016135e2565b6001600160a01b0381168114610c7d57600080fd5b60006020828403121561361d57600080fd5b8135610bdf816135f6565b60005b8381101561364357818101518382015260200161362b565b838111156128715750506000910152565b6000815180845261366c816020860160208601613628565b601f01601f19169290920160200192915050565b602081526000610bdf6020830184613654565b600080604083850312156136a657600080fd5b82356136b1816135f6565b946020939093013593505050565b8015158114610c7d57600080fd5b600080600080600060a086880312156136e557600080fd5b85356136f0816135f6565b94506020860135935060408601359250606086013561370e816136bf565b9150608086013561371e816135f6565b809150509295509295909350565b60008060006060848603121561374157600080fd5b833561374c816135f6565b9250602084013561375c816135f6565b929592945050506040919091013590565b60006020828403121561377f57600080fd5b5035919050565b634e487b7160e01b600052604160045260246000fd5b604051601f8201601f1916810167ffffffffffffffff811182821017156137c5576137c5613786565b604052919050565b600067ffffffffffffffff8211156137e7576137e7613786565b5060051b60200190565b600082601f83011261380257600080fd5b81356020613817613812836137cd565b61379c565b82815260059290921b8401810191818101908684111561383657600080fd5b8286015b84811015613851578035835291830191830161383a565b509695505050505050565b600082601f83011261386d57600080fd5b8135602061387d613812836137cd565b82815260059290921b8401810191818101908684111561389c57600080fd5b8286015b848110156138515780356138b3816135f6565b83529183019183016138a0565b6000806000606084860312156138d557600080fd5b833567ffffffffffffffff808211156138ed57600080fd5b6138f9878388016137f1565b9450602086013591508082111561390f57600080fd5b61391b878388016137f1565b9350604086013591508082111561393157600080fd5b5061393e8682870161385c565b9150509250925092565b60008060006060848603121561395d57600080fd5b8335613968816135f6565b9250602084013567ffffffffffffffff8082111561398557600080fd5b6139918783880161385c565b935060408601359150808211156139a757600080fd5b5061393e868287016137f1565b803560ff811681146139c557600080fd5b919050565b600067ffffffffffffffff8311156139e4576139e4613786565b6139f7601f8401601f191660200161379c565b9050828152838383011115613a0b57600080fd5b828260208301376000602084830101529392505050565b600082601f830112613a3357600080fd5b610bdf838335602085016139ca565b60008060008060008060008060006101208a8c031215613a6157600080fd5b8935613a6c816135f6565b985060208a0135975060408a0135613a83816135f6565b965060608a0135613a93816135f6565b955060808a01359450613aa860a08b016139b4565b935060c08a0135925060e08a013591506101008a013567ffffffffffffffff811115613ad357600080fd5b613adf8c828d01613a22565b9150509295985092959850929598565b60008060208385031215613b0257600080fd5b823567ffffffffffffffff80821115613b1a57600080fd5b818501915085601f830112613b2e57600080fd5b813581811115613b3d57600080fd5b866020828501011115613b4f57600080fd5b60209290920196919550909350505050565b60008083601f840112613b7357600080fd5b50813567ffffffffffffffff811115613b8b57600080fd5b6020830191508360208260051b8501011115613ba657600080fd5b9250929050565b60008060008060008060008060008060a08b8d031215613bcc57600080fd5b8a3567ffffffffffffffff80821115613be457600080fd5b613bf08e838f01613b61565b909c509a5060208d0135915080821115613c0957600080fd5b613c158e838f01613b61565b909a50985060408d0135915080821115613c2e57600080fd5b613c3a8e838f01613b61565b909850965060608d0135915080821115613c5357600080fd5b613c5f8e838f01613b61565b909650945060808d0135915080821115613c7857600080fd5b50613c858d828e01613b61565b915080935050809150509295989b9194979a5092959850565b600080600080600080600060e0888a031215613cb957600080fd5b8735613cc4816135f6565b96506020880135613cd4816135f6565b95506040880135945060608801359350613cf0608089016139b4565b925060a0880135915060c0880135905092959891949750929550565b60008060408385031215613d1f57600080fd5b8235613d2a816135f6565b91506020830135613d3a816135f6565b809150509250929050565b600181811c90821680613d5957607f821691505b60208210811415613d7a57634e487b7160e01b600052602260045260246000fd5b50919050565b600060808284031215613d9257600080fd5b6040516080810181811067ffffffffffffffff82111715613db557613db5613786565b6040528251613dc3816136bf565b81526020830151613dd3816136bf565b60208201526040830151613de6816136bf565b60408201526060830151613df9816136bf565b60608201529392505050565b6020808252818101527f455243323054656d706c6174653a204e4f54204445504c4f59455220524f4c45604082015260600190565b6020808252601f908201527f5265656e7472616e637947756172643a207265656e7472616e742063616c6c00604082015260600190565b634e487b7160e01b600052601160045260246000fd5b60008219821115613e9a57613e9a613e71565b500190565b600060208284031215613eb157600080fd5b8151610bdf816135f6565b634e487b7160e01b600052603260045260246000fd5b600060208284031215613ee457600080fd5b5051919050565b600081518084526020808501945080840160005b83811015613f1b57815187529582019590820190600101613eff565b509495945050505050565b600081518084526020808501945080840160005b83811015613f1b5781516001600160a01b031687529582019590820190600101613f3a565b60008186825b6002811015613f8d5781516001600160a01b0316835260209283019290910190600101613f65565b50505060a06040830152613fa460a0830186613eeb565b8281036060840152613fb68186613eeb565b905082810360808401526134fb8185613f26565b6001600160a01b0384168152606060208201819052600090613fee90830185613f26565b82810360408401526140008185613eeb565b9695505050505050565b6000855161401c818460208a01613628565b6bffffffffffffffffffffffff19606096871b8116919093019081529390941b166014830152602882015260480192915050565b60008351614062818460208801613628565b9190910191825250602001919050565b85815260a06020820152600061408b60a0830187613654565b60ff95909516604083015250606081019290925260809091015292915050565b83815260406020820152816040820152818360608301376000818301606090810191909152601f909201601f1916010192915050565b6000826140fe57634e487b7160e01b600052601260045260246000fd5b500490565b6000614111613812846137cd565b80848252602080830192508560051b85013681111561412f57600080fd5b855b8181101561417f57803567ffffffffffffffff8111156141515760008081fd5b870136601f8201126141635760008081fd5b6141713682358684016139ca565b865250938201938201614131565b50919695505050505050565b6000614199613812846137cd565b80848252602080830192508560051b8501368111156141b757600080fd5b855b8181101561417f57803567ffffffffffffffff8111156141d95760008081fd5b6141e536828a01613a22565b8652509382019382016141b9565b600060001982141561420757614207613e71565b5060010190565b60008282101561422057614220613e71565b500390565b600080835481600182811c91508083168061424157607f831692505b602080841082141561426157634e487b7160e01b86526022600452602486fd5b8180156142755760018114614286576142b3565b60ff198616895284890196506142b3565b60008a81526020902060005b868110156142ab5781548b820152908501908301614292565b505084890196505b509498975050505050505050565b6000602082840312156142d357600080fd5b8151610bdf816136bf565b600082516142f0818460208701613628565b919091019291505056fea26469706673582212208de1f00af6287c6fd197023b3d74008154a6259cada7a6855e4014bb58e697f264736f6c634300080a0033",
  "linkReferences": {},
  "deployedLinkReferences": {}
}