{
  "_format": "hh-sol-artifact-1",
  "contractName": "ERC20Template",
  "sourceName": "contracts/templates/ERC20Template.sol",
  "abi": [
    {
      "anonymous": false,
      "inputs": [
        {
          "indexed": true,
          "internalType": "address",
          "name": "user",
          "type": "address"
        },
        {
          "indexed": true,
          "internalType": "address",
          "name": "signer",
          "type": "address"
        },
        {
          "indexed": false,
          "internalType": "uint256",
          "name": "timestamp",
          "type": "uint256"
        },
        {
          "indexed": false,
          "internalType": "uint256",
          "name": "blockNumber",
          "type": "uint256"
        }
      ],
      "name": "AddedMinter",
      "type": "event"
    },
    {
      "anonymous": false,
      "inputs": [
        {
          "indexed": true,
          "internalType": "address",
          "name": "user",
          "type": "address"
        },
        {
          "indexed": true,
          "internalType": "address",
          "name": "signer",
          "type": "address"
        },
        {
          "indexed": false,
          "internalType": "uint256",
          "name": "timestamp",
          "type": "uint256"
        },
        {
          "indexed": false,
          "internalType": "uint256",
          "name": "blockNumber",
          "type": "uint256"
        }
      ],
      "name": "AddedPaymentManager",
      "type": "event"
    },
    {
      "anonymous": false,
      "inputs": [
        {
          "indexed": true,
          "internalType": "address",
          "name": "owner",
          "type": "address"
        },
        {
          "indexed": true,
          "internalType": "address",
          "name": "spender",
          "type": "address"
        },
        {
          "indexed": false,
          "internalType": "uint256",
          "name": "value",
          "type": "uint256"
        }
      ],
      "name": "Approval",
      "type": "event"
    },
    {
      "anonymous": false,
      "inputs": [
        {
          "indexed": true,
          "internalType": "address",
          "name": "signer",
          "type": "address"
        },
        {
          "indexed": false,
          "internalType": "uint256",
          "name": "timestamp",
          "type": "uint256"
        },
        {
          "indexed": false,
          "internalType": "uint256",
          "name": "blockNumber",
          "type": "uint256"
        }
      ],
      "name": "CleanedPermissions",
      "type": "event"
    },
    {
      "anonymous": false,
      "inputs": [
        {
          "indexed": true,
          "internalType": "address",
          "name": "consumeFeeAddress",
          "type": "address"
        },
        {
          "indexed": true,
          "internalType": "address",
          "name": "consumeFeeToken",
          "type": "address"
        },
        {
          "indexed": false,
          "internalType": "uint256",
          "name": "consumeFeeAmount",
          "type": "uint256"
        }
      ],
      "name": "ConsumeMarketFees",
      "type": "event"
    },
    {
      "anonymous": false,
      "inputs": [
        {
          "indexed": false,
          "internalType": "address",
          "name": "currentMinter",
          "type": "address"
        },
        {
          "indexed": false,
          "internalType": "address",
          "name": "newMinter",
          "type": "address"
        }
      ],
      "name": "MinterApproved",
      "type": "event"
    },
    {
      "anonymous": false,
      "inputs": [
        {
          "indexed": false,
          "internalType": "address",
          "name": "currentMinter",
          "type": "address"
        },
        {
          "indexed": false,
          "internalType": "address",
          "name": "newMinter",
          "type": "address"
        }
      ],
      "name": "MinterProposed",
      "type": "event"
    },
    {
      "anonymous": false,
      "inputs": [
        {
          "indexed": false,
          "internalType": "bytes32",
          "name": "exchangeId",
          "type": "bytes32"
        },
        {
          "indexed": false,
          "internalType": "address",
          "name": "owner",
          "type": "address"
        }
      ],
      "name": "NewFixedRate",
      "type": "event"
    },
    {
      "anonymous": false,
      "inputs": [
        {
          "indexed": true,
          "internalType": "address",
          "name": "caller",
          "type": "address"
        },
        {
          "indexed": true,
          "internalType": "address",
          "name": "_newPaymentCollector",
          "type": "address"
        },
        {
          "indexed": false,
          "internalType": "uint256",
          "name": "timestamp",
          "type": "uint256"
        },
        {
          "indexed": false,
          "internalType": "uint256",
          "name": "blockNumber",
          "type": "uint256"
        }
      ],
      "name": "NewPaymentCollector",
      "type": "event"
    },
    {
      "anonymous": false,
      "inputs": [
        {
          "indexed": false,
          "internalType": "address",
          "name": "poolAddress",
          "type": "address"
        },
        {
          "indexed": false,
          "internalType": "address",
          "name": "ssContract",
          "type": "address"
        },
        {
          "indexed": false,
          "internalType": "address",
          "name": "basetokenAddress",
          "type": "address"
        }
      ],
      "name": "NewPool",
      "type": "event"
    },
    {
      "anonymous": false,
      "inputs": [
        {
          "indexed": true,
          "internalType": "address",
          "name": "consumer",
          "type": "address"
        },
        {
          "indexed": false,
          "internalType": "address",
          "name": "payer",
          "type": "address"
        },
        {
          "indexed": false,
          "internalType": "uint256",
          "name": "amount",
          "type": "uint256"
        },
        {
          "indexed": false,
          "internalType": "uint256",
          "name": "serviceIndex",
          "type": "uint256"
        },
        {
          "indexed": false,
          "internalType": "uint256",
          "name": "timestamp",
          "type": "uint256"
        },
        {
          "indexed": true,
          "internalType": "address",
          "name": "publishMarketAddress",
          "type": "address"
        },
        {
          "indexed": true,
          "internalType": "address",
          "name": "consumeFeeMarketAddress",
          "type": "address"
        },
        {
          "indexed": false,
          "internalType": "uint256",
          "name": "blockNumber",
          "type": "uint256"
        }
      ],
      "name": "OrderStarted",
      "type": "event"
    },
    {
      "anonymous": false,
      "inputs": [
        {
          "indexed": true,
          "internalType": "address",
          "name": "PublishMarketFeeAddress",
          "type": "address"
        },
        {
          "indexed": true,
          "internalType": "address",
          "name": "PublishMarketFeeToken",
          "type": "address"
        },
        {
          "indexed": false,
          "internalType": "uint256",
          "name": "PublishMarketFeeAmount",
          "type": "uint256"
        }
      ],
      "name": "PublishMarketFees",
      "type": "event"
    },
    {
      "anonymous": false,
      "inputs": [
        {
          "indexed": false,
          "internalType": "address",
          "name": "caller",
          "type": "address"
        },
        {
          "indexed": false,
          "internalType": "address",
          "name": "PublishMarketFeeAddress",
          "type": "address"
        },
        {
          "indexed": false,
          "internalType": "address",
          "name": "PublishMarketFeeToken",
          "type": "address"
        },
        {
          "indexed": false,
          "internalType": "uint256",
          "name": "PublishMarketFeeAmount",
          "type": "uint256"
        }
      ],
      "name": "PublishMarketFeesChanged",
      "type": "event"
    },
    {
      "anonymous": false,
      "inputs": [
        {
          "indexed": true,
          "internalType": "address",
          "name": "user",
          "type": "address"
        },
        {
          "indexed": true,
          "internalType": "address",
          "name": "signer",
          "type": "address"
        },
        {
          "indexed": false,
          "internalType": "uint256",
          "name": "timestamp",
          "type": "uint256"
        },
        {
          "indexed": false,
          "internalType": "uint256",
          "name": "blockNumber",
          "type": "uint256"
        }
      ],
      "name": "RemovedMinter",
      "type": "event"
    },
    {
      "anonymous": false,
      "inputs": [
        {
          "indexed": true,
          "internalType": "address",
          "name": "user",
          "type": "address"
        },
        {
          "indexed": true,
          "internalType": "address",
          "name": "signer",
          "type": "address"
        },
        {
          "indexed": false,
          "internalType": "uint256",
          "name": "timestamp",
          "type": "uint256"
        },
        {
          "indexed": false,
          "internalType": "uint256",
          "name": "blockNumber",
          "type": "uint256"
        }
      ],
      "name": "RemovedPaymentManager",
      "type": "event"
    },
    {
      "anonymous": false,
      "inputs": [
        {
          "indexed": true,
          "internalType": "address",
          "name": "from",
          "type": "address"
        },
        {
          "indexed": true,
          "internalType": "address",
          "name": "to",
          "type": "address"
        },
        {
          "indexed": false,
          "internalType": "uint256",
          "name": "value",
          "type": "uint256"
        }
      ],
      "name": "Transfer",
      "type": "event"
    },
    {
      "stateMutability": "payable",
      "type": "fallback"
    },
    {
      "inputs": [],
      "name": "BASE",
      "outputs": [
        {
          "internalType": "uint256",
          "name": "",
          "type": "uint256"
        }
      ],
      "stateMutability": "view",
      "type": "function"
    },
    {
      "inputs": [],
      "name": "BASE_COMMUNITY_FEE_PERCENTAGE",
      "outputs": [
        {
          "internalType": "uint256",
          "name": "",
          "type": "uint256"
        }
      ],
      "stateMutability": "view",
      "type": "function"
    },
    {
      "inputs": [],
      "name": "DOMAIN_SEPARATOR",
      "outputs": [
        {
          "internalType": "bytes32",
          "name": "",
          "type": "bytes32"
        }
      ],
      "stateMutability": "view",
      "type": "function"
    },
    {
      "inputs": [],
      "name": "PERMIT_TYPEHASH",
      "outputs": [
        {
          "internalType": "bytes32",
          "name": "",
          "type": "bytes32"
        }
      ],
      "stateMutability": "view",
      "type": "function"
    },
    {
      "inputs": [
        {
          "internalType": "address",
          "name": "_minter",
          "type": "address"
        }
      ],
      "name": "addMinter",
      "outputs": [],
      "stateMutability": "nonpayable",
      "type": "function"
    },
    {
      "inputs": [
        {
          "internalType": "address",
          "name": "_paymentManager",
          "type": "address"
        }
      ],
      "name": "addPaymentManager",
      "outputs": [],
      "stateMutability": "nonpayable",
      "type": "function"
    },
    {
      "inputs": [
        {
          "internalType": "address",
          "name": "owner",
          "type": "address"
        },
        {
          "internalType": "address",
          "name": "spender",
          "type": "address"
        }
      ],
      "name": "allowance",
      "outputs": [
        {
          "internalType": "uint256",
          "name": "",
          "type": "uint256"
        }
      ],
      "stateMutability": "view",
      "type": "function"
    },
    {
      "inputs": [
        {
          "internalType": "address",
          "name": "spender",
          "type": "address"
        },
        {
          "internalType": "uint256",
          "name": "amount",
          "type": "uint256"
        }
      ],
      "name": "approve",
      "outputs": [
        {
          "internalType": "bool",
          "name": "",
          "type": "bool"
        }
      ],
      "stateMutability": "nonpayable",
      "type": "function"
    },
    {
      "inputs": [
        {
          "internalType": "uint256",
          "name": "",
          "type": "uint256"
        }
      ],
      "name": "authERC20",
      "outputs": [
        {
          "internalType": "address",
          "name": "",
          "type": "address"
        }
      ],
      "stateMutability": "view",
      "type": "function"
    },
    {
      "inputs": [
        {
          "internalType": "address",
          "name": "account",
          "type": "address"
        }
      ],
      "name": "balanceOf",
      "outputs": [
        {
          "internalType": "uint256",
          "name": "",
          "type": "uint256"
        }
      ],
      "stateMutability": "view",
      "type": "function"
    },
    {
      "inputs": [
        {
          "internalType": "uint256",
          "name": "amount",
          "type": "uint256"
        }
      ],
      "name": "burn",
      "outputs": [],
      "stateMutability": "nonpayable",
      "type": "function"
    },
    {
      "inputs": [
        {
          "internalType": "address",
          "name": "account",
          "type": "address"
        },
        {
          "internalType": "uint256",
          "name": "amount",
          "type": "uint256"
        }
      ],
      "name": "burnFrom",
      "outputs": [],
      "stateMutability": "nonpayable",
      "type": "function"
    },
    {
      "inputs": [],
      "name": "cap",
      "outputs": [
        {
          "internalType": "uint256",
          "name": "",
          "type": "uint256"
        }
      ],
      "stateMutability": "view",
      "type": "function"
    },
    {
      "inputs": [],
      "name": "cleanFrom721",
      "outputs": [],
      "stateMutability": "nonpayable",
      "type": "function"
    },
    {
      "inputs": [],
      "name": "cleanPermissions",
      "outputs": [],
      "stateMutability": "nonpayable",
      "type": "function"
    },
    {
      "inputs": [
        {
          "internalType": "address",
          "name": "_dispenser",
          "type": "address"
        },
        {
          "internalType": "uint256",
          "name": "maxTokens",
          "type": "uint256"
        },
        {
          "internalType": "uint256",
          "name": "maxBalance",
          "type": "uint256"
        },
        {
          "internalType": "bool",
          "name": "withMint",
          "type": "bool"
        },
        {
          "internalType": "address",
          "name": "allowedSwapper",
          "type": "address"
        }
      ],
      "name": "createDispenser",
      "outputs": [],
      "stateMutability": "nonpayable",
      "type": "function"
    },
    {
      "inputs": [
        {
          "internalType": "address",
          "name": "fixedPriceAddress",
          "type": "address"
        },
        {
          "internalType": "address[]",
          "name": "addresses",
          "type": "address[]"
        },
        {
          "internalType": "uint256[]",
          "name": "uints",
          "type": "uint256[]"
        }
      ],
      "name": "createFixedRate",
      "outputs": [
        {
          "internalType": "bytes32",
          "name": "exchangeId",
          "type": "bytes32"
        }
      ],
      "stateMutability": "nonpayable",
      "type": "function"
    },
    {
      "inputs": [],
      "name": "decimals",
      "outputs": [
        {
          "internalType": "uint8",
          "name": "",
          "type": "uint8"
        }
      ],
      "stateMutability": "pure",
      "type": "function"
    },
    {
      "inputs": [
        {
          "internalType": "address",
          "name": "spender",
          "type": "address"
        },
        {
          "internalType": "uint256",
          "name": "subtractedValue",
          "type": "uint256"
        }
      ],
      "name": "decreaseAllowance",
      "outputs": [
        {
          "internalType": "bool",
          "name": "",
          "type": "bool"
        }
      ],
      "stateMutability": "nonpayable",
      "type": "function"
    },
    {
      "inputs": [
        {
          "internalType": "uint256[]",
          "name": "ssParams",
          "type": "uint256[]"
        },
        {
          "internalType": "uint256[]",
          "name": "swapFees",
          "type": "uint256[]"
        },
        {
          "internalType": "address[]",
          "name": "addresses",
          "type": "address[]"
        }
      ],
      "name": "deployPool",
      "outputs": [
        {
          "internalType": "address",
          "name": "pool",
          "type": "address"
        }
      ],
      "stateMutability": "nonpayable",
      "type": "function"
    },
    {
      "inputs": [],
      "name": "getERC721Address",
      "outputs": [
        {
          "internalType": "address",
          "name": "",
          "type": "address"
        }
      ],
      "stateMutability": "view",
      "type": "function"
    },
    {
      "inputs": [],
      "name": "getId",
      "outputs": [
        {
          "internalType": "uint8",
          "name": "",
          "type": "uint8"
        }
      ],
      "stateMutability": "pure",
      "type": "function"
    },
    {
      "inputs": [],
      "name": "getPaymentCollector",
      "outputs": [
        {
          "internalType": "address",
          "name": "",
          "type": "address"
        }
      ],
      "stateMutability": "view",
      "type": "function"
    },
    {
      "inputs": [],
      "name": "getPublishingMarketFee",
      "outputs": [
        {
          "internalType": "address",
          "name": "",
          "type": "address"
        },
        {
          "internalType": "address",
          "name": "",
          "type": "address"
        },
        {
          "internalType": "uint256",
          "name": "",
          "type": "uint256"
        }
      ],
      "stateMutability": "view",
      "type": "function"
    },
    {
      "inputs": [
        {
          "internalType": "address",
          "name": "spender",
          "type": "address"
        },
        {
          "internalType": "uint256",
          "name": "addedValue",
          "type": "uint256"
        }
      ],
      "name": "increaseAllowance",
      "outputs": [
        {
          "internalType": "bool",
          "name": "",
          "type": "bool"
        }
      ],
      "stateMutability": "nonpayable",
      "type": "function"
    },
    {
      "inputs": [
        {
          "internalType": "string[]",
          "name": "strings_",
          "type": "string[]"
        },
        {
          "internalType": "address[]",
          "name": "addresses_",
          "type": "address[]"
        },
        {
          "internalType": "address[]",
          "name": "factoryAddresses_",
          "type": "address[]"
        },
        {
          "internalType": "uint256[]",
          "name": "uints_",
          "type": "uint256[]"
        },
        {
          "internalType": "bytes[]",
          "name": "bytes_",
          "type": "bytes[]"
        }
      ],
      "name": "initialize",
      "outputs": [
        {
          "internalType": "bool",
          "name": "",
          "type": "bool"
        }
      ],
      "stateMutability": "nonpayable",
      "type": "function"
    },
    {
      "inputs": [],
      "name": "isInitialized",
      "outputs": [
        {
          "internalType": "bool",
          "name": "",
          "type": "bool"
        }
      ],
      "stateMutability": "view",
      "type": "function"
    },
    {
      "inputs": [
        {
          "internalType": "address",
          "name": "account",
          "type": "address"
        }
      ],
      "name": "isMinter",
      "outputs": [
        {
          "internalType": "bool",
          "name": "",
          "type": "bool"
        }
      ],
      "stateMutability": "view",
      "type": "function"
    },
    {
      "inputs": [
        {
          "internalType": "address",
          "name": "account",
          "type": "address"
        },
        {
          "internalType": "uint256",
          "name": "value",
          "type": "uint256"
        }
      ],
      "name": "mint",
      "outputs": [],
      "stateMutability": "nonpayable",
      "type": "function"
    },
    {
      "inputs": [],
      "name": "name",
      "outputs": [
        {
          "internalType": "string",
          "name": "",
          "type": "string"
        }
      ],
      "stateMutability": "view",
      "type": "function"
    },
    {
      "inputs": [
        {
          "internalType": "address",
          "name": "",
          "type": "address"
        }
      ],
      "name": "nonces",
      "outputs": [
        {
          "internalType": "uint256",
          "name": "",
          "type": "uint256"
        }
      ],
      "stateMutability": "view",
      "type": "function"
    },
    {
      "inputs": [
        {
          "internalType": "address",
          "name": "",
          "type": "address"
        }
      ],
      "name": "permissions",
      "outputs": [
        {
          "internalType": "bool",
          "name": "minter",
          "type": "bool"
        },
        {
          "internalType": "bool",
          "name": "paymentManager",
          "type": "bool"
        }
      ],
      "stateMutability": "view",
      "type": "function"
    },
    {
      "inputs": [
        {
          "internalType": "address",
          "name": "owner",
          "type": "address"
        },
        {
          "internalType": "address",
          "name": "spender",
          "type": "address"
        },
        {
          "internalType": "uint256",
          "name": "value",
          "type": "uint256"
        },
        {
          "internalType": "uint256",
          "name": "deadline",
          "type": "uint256"
        },
        {
          "internalType": "uint8",
          "name": "v",
          "type": "uint8"
        },
        {
          "internalType": "bytes32",
          "name": "r",
          "type": "bytes32"
        },
        {
          "internalType": "bytes32",
          "name": "s",
          "type": "bytes32"
        }
      ],
      "name": "permit",
      "outputs": [],
      "stateMutability": "nonpayable",
      "type": "function"
    },
    {
      "inputs": [
        {
          "internalType": "address",
          "name": "_minter",
          "type": "address"
        }
      ],
      "name": "removeMinter",
      "outputs": [],
      "stateMutability": "nonpayable",
      "type": "function"
    },
    {
      "inputs": [
        {
          "internalType": "address",
          "name": "_paymentManager",
          "type": "address"
        }
      ],
      "name": "removePaymentManager",
      "outputs": [],
      "stateMutability": "nonpayable",
      "type": "function"
    },
    {
      "inputs": [],
      "name": "router",
      "outputs": [
        {
          "internalType": "address",
          "name": "",
          "type": "address"
        }
      ],
      "stateMutability": "view",
      "type": "function"
    },
    {
      "inputs": [
        {
          "internalType": "bytes",
          "name": "_value",
          "type": "bytes"
        }
      ],
      "name": "setData",
      "outputs": [],
      "stateMutability": "nonpayable",
      "type": "function"
    },
    {
      "inputs": [
        {
          "internalType": "address",
          "name": "_newPaymentCollector",
          "type": "address"
        }
      ],
      "name": "setPaymentCollector",
      "outputs": [],
      "stateMutability": "nonpayable",
      "type": "function"
    },
    {
      "inputs": [
        {
          "internalType": "address",
          "name": "_publishMarketFeeAddress",
          "type": "address"
        },
        {
          "internalType": "address",
          "name": "_publishMarketFeeToken",
          "type": "address"
        },
        {
          "internalType": "uint256",
          "name": "_publishMarketFeeAmount",
          "type": "uint256"
        }
      ],
      "name": "setPublishingMarketFee",
      "outputs": [],
      "stateMutability": "nonpayable",
      "type": "function"
    },
    {
      "inputs": [
        {
          "internalType": "address",
          "name": "consumer",
          "type": "address"
        },
        {
          "internalType": "uint256",
          "name": "amount",
          "type": "uint256"
        },
        {
          "internalType": "uint256",
          "name": "serviceIndex",
          "type": "uint256"
        },
        {
          "internalType": "address",
          "name": "consumeFeeAddress",
          "type": "address"
        },
        {
          "internalType": "address",
          "name": "consumeFeeToken",
          "type": "address"
        },
        {
          "internalType": "uint256",
          "name": "consumeFeeAmount",
          "type": "uint256"
        }
      ],
      "name": "startOrder",
      "outputs": [],
      "stateMutability": "nonpayable",
      "type": "function"
    },
    {
      "inputs": [],
      "name": "symbol",
      "outputs": [
        {
          "internalType": "string",
          "name": "",
          "type": "string"
        }
      ],
      "stateMutability": "view",
      "type": "function"
    },
    {
      "inputs": [],
      "name": "totalSupply",
      "outputs": [
        {
          "internalType": "uint256",
          "name": "",
          "type": "uint256"
        }
      ],
      "stateMutability": "view",
      "type": "function"
    },
    {
      "inputs": [
        {
          "internalType": "address",
          "name": "recipient",
          "type": "address"
        },
        {
          "internalType": "uint256",
          "name": "amount",
          "type": "uint256"
        }
      ],
      "name": "transfer",
      "outputs": [
        {
          "internalType": "bool",
          "name": "",
          "type": "bool"
        }
      ],
      "stateMutability": "nonpayable",
      "type": "function"
    },
    {
      "inputs": [
        {
          "internalType": "address",
          "name": "sender",
          "type": "address"
        },
        {
          "internalType": "address",
          "name": "recipient",
          "type": "address"
        },
        {
          "internalType": "uint256",
          "name": "amount",
          "type": "uint256"
        }
      ],
      "name": "transferFrom",
      "outputs": [
        {
          "internalType": "bool",
          "name": "",
          "type": "bool"
        }
      ],
      "stateMutability": "nonpayable",
      "type": "function"
    },
    {
      "inputs": [],
      "name": "withdrawETH",
      "outputs": [],
      "stateMutability": "payable",
      "type": "function"
    }
  ],
  "bytecode": "0x6080604052600b805460ff60a01b191690553480156200001e57600080fd5b5060408051808201825260048152631d195cdd60e21b60208083019182528351808501909452600a8452691d195cdd14de5b589bdb60b21b9084015281519192916200006d9160039162000091565b5080516200008390600490602084019062000091565b505060016007555062000174565b8280546200009f9062000137565b90600052602060002090601f016020900481019282620000c357600085556200010e565b82601f10620000de57805160ff19168380011785556200010e565b828001600101855582156200010e579182015b828111156200010e578251825591602001919060010190620000f1565b506200011c92915062000120565b5090565b5b808211156200011c576000815560010162000121565b600181811c908216806200014c57607f821691505b602082108114156200016e57634e487b7160e01b600052602260045260246000fd5b50919050565b61409380620001846000396000f3fe60806040526004361061025c5760003560e01c80635d1ca63111610143578063aa492ef9116100bb578063e086e5ec11610077578063e086e5ec146107dc578063e487c2e8146107e4578063ec342ad0146107f9578063ef867ff414610815578063f887ea4014610835578063fda9dae71461085557005b8063aa492ef914610701578063ab62f0e114610721578063b2263a5d14610741578063b3998be014610756578063d505accf14610776578063dd62ed3e1461079657005b80638b96412b1161010a5780638b96412b1461063357806395d89b4114610653578063983b2d5614610668578063a457c2d714610688578063a9059cbb146106a8578063aa271e1a146106c857005b80635d1ca6311461058757806370a082311461059b57806379cc6790146105d15780637ecebe00146105f157806382c03da51461061e57005b8063355274ea116101d657806340c10f191161019d57806340c10f19146104d257806342966c68146104f25780634f189cb21461051257806357a3a31b1461052757806357ad5ff6146105475780635bfe4da01461056757005b8063355274ea1461042c5780633644e51514610441578063392e53cd146104575780633950935114610476578063397b37431461049657005b8063191c918a11610225578063191c918a1461035657806323b872dd1461037657806325b00243146103965780633092afd5146103b657806330adf81f146103d6578063313ce5671461040a57005b80627ffb781461025e57806301e882081461029557806306fdde03146102e5578063095ea7b31461030757806318160ddd14610337575b005b34801561026a57600080fd5b50600c546001600160a01b03165b6040516001600160a01b0390911681526020015b60405180910390f35b3480156102a157600080fd5b506102ce6102b036600461347a565b60056020526000908152604090205460ff8082169161010090041682565b60408051921515835290151560208301520161028c565b3480156102f157600080fd5b506102fa610875565b60405161028c91906134c3565b34801561031357600080fd5b506103276103223660046134f6565b610907565b604051901515815260200161028c565b34801561034357600080fd5b506002545b60405190815260200161028c565b34801561036257600080fd5b5061025c610371366004613530565b61091d565b34801561038257600080fd5b5061032761039136600461358f565b610a78565b3480156103a257600080fd5b5061025c6103b136600461347a565b610b24565b3480156103c257600080fd5b5061025c6103d136600461347a565b610bbe565b3480156103e257600080fd5b506103487f6e71edae12b1b97f4d1f60370fef10105fa2faae0126114a169c64845d6126c981565b34801561041657600080fd5b5060125b60405160ff909116815260200161028c565b34801561043857600080fd5b50600a54610348565b34801561044d57600080fd5b5061034860115481565b34801561046357600080fd5b50600b54600160a01b900460ff16610327565b34801561048257600080fd5b506103276104913660046134f6565b610c55565b3480156104a257600080fd5b50600e54600f54601054604080516001600160a01b0394851681529390921660208401529082015260600161028c565b3480156104de57600080fd5b5061025c6104ed3660046134f6565b610c91565b3480156104fe57600080fd5b5061025c61050d3660046135d0565b610d62565b34801561051e57600080fd5b5061025c610d6c565b34801561053357600080fd5b5061025c61054236600461347a565b610e53565b34801561055357600080fd5b5061025c61056236600461358f565b610f95565b34801561057357600080fd5b50610278610582366004613723565b6110e9565b34801561059357600080fd5b50600161041a565b3480156105a757600080fd5b506103486105b636600461347a565b6001600160a01b031660009081526020819052604090205490565b3480156105dd57600080fd5b5061025c6105ec3660046134f6565b6113cf565b3480156105fd57600080fd5b5061034861060c36600461347a565b60126020526000908152604090205481565b34801561062a57600080fd5b5061025c611455565b34801561063f57600080fd5b5061034861064e3660046137ab565b6114af565b34801561065f57600080fd5b506102fa61167c565b34801561067457600080fd5b5061025c61068336600461347a565b61168b565b34801561069457600080fd5b506103276106a33660046134f6565b611722565b3480156106b457600080fd5b506103276106c33660046134f6565b6117bb565b3480156106d457600080fd5b506103276106e336600461347a565b6001600160a01b031660009081526005602052604090205460ff1690565b34801561070d57600080fd5b5061025c61071c36600461347a565b6117c8565b34801561072d57600080fd5b5061025c61073c366004613817565b61185f565b34801561074d57600080fd5b50610348611990565b34801561076257600080fd5b506103276107713660046138d5565b6119a6565b34801561078257600080fd5b5061025c6107913660046139c6565b611ae0565b3480156107a257600080fd5b506103486107b1366004613a3d565b6001600160a01b03918216600090815260016020908152604080832093909416825291909152205490565b61025c611cf2565b3480156107f057600080fd5b50610278611d32565b34801561080557600080fd5b50610348670de0b6b3a764000081565b34801561082157600080fd5b506102786108303660046135d0565b611dc7565b34801561084157600080fd5b50601354610278906001600160a01b031681565b34801561086157600080fd5b5061025c610870366004613a76565b611df1565b60606008805461088490613add565b80601f01602080910402602001604051908101604052809291908181526020018280546108b090613add565b80156108fd5780601f106108d2576101008083540402835291602001916108fd565b820191906000526020600020905b8154815290600101906020018083116108e057829003601f168201915b5050505050905090565b60006109143384846122f0565b50600192915050565b600c5460405163160a792560e01b81523360048201526001600160a01b039091169063160a7925906024016080604051808303816000875af1158015610967573d6000803e3d6000fd5b505050506040513d601f19601f8201168201806040525081019061098b9190613b18565b602001516109b45760405162461bcd60e51b81526004016109ab90613b9d565b60405180910390fd5b600260075414156109d75760405162461bcd60e51b81526004016109ab90613bd2565b6002600755601354604051636b14d00560e11b81526001600160a01b038781166004830152306024830152604482018790526064820186905233608483015283811660a48301529091169063d629a00a9060c401600060405180830381600087803b158015610a4557600080fd5b505af1158015610a59573d6000803e3d6000fd5b505050508115610a6c57610a6c85612414565b50506001600755505050565b6000610a85848484612516565b6001600160a01b038416600090815260016020908152604080832033845290915290205482811015610b0a5760405162461bcd60e51b815260206004820152602860248201527f45524332303a207472616e7366657220616d6f756e74206578636565647320616044820152676c6c6f77616e636560c01b60648201526084016109ab565b610b1785338584036122f0565b60019150505b9392505050565b600c5460405163160a792560e01b81523360048201526001600160a01b039091169063160a7925906024016080604051808303816000875af1158015610b6e573d6000803e3d6000fd5b505050506040513d601f19601f82011682018060405250810190610b929190613b18565b60200151610bb25760405162461bcd60e51b81526004016109ab90613b9d565b610bbb816126e6565b50565b600c5460405163160a792560e01b81523360048201526001600160a01b039091169063160a7925906024016080604051808303816000875af1158015610c08573d6000803e3d6000fd5b505050506040513d601f19601f82011682018060405250810190610c2c9190613b18565b60200151610c4c5760405162461bcd60e51b81526004016109ab90613b9d565b610bbb81612747565b3360008181526001602090815260408083206001600160a01b03871684529091528120549091610914918590610c8c908690613c1f565b6122f0565b3360009081526005602052604090205460ff16610cf05760405162461bcd60e51b815260206004820152601960248201527f455243323054656d706c6174653a204e4f54204d494e5445520000000000000060448201526064016109ab565b600a54610d0682610d0060025490565b906127a7565b1115610d545760405162461bcd60e51b815260206004820152601f60248201527f44617461546f6b656e54656d706c6174653a206361702065786365656465640060448201526064016109ab565b610d5e82826127b3565b5050565b610bbb3382612892565b600c546040516331a9108f60e11b8152600160048201526001600160a01b0390911690636352211e90602401602060405180830381865afa158015610db5573d6000803e3d6000fd5b505050506040513d601f19601f82011682018060405250810190610dd99190613c37565b6001600160a01b0316336001600160a01b031614610e395760405162461bcd60e51b815260206004820152601b60248201527f455243323054656d706c6174653a206e6f74204e46544f776e6572000000000060448201526064016109ab565b610e416129e0565b600d80546001600160a01b0319169055565b33600090815260056020526040902054610100900460ff1680610ee45750600c5460405163160a792560e01b81523360048201526001600160a01b039091169063160a7925906024016080604051808303816000875af1158015610ebb573d6000803e3d6000fd5b505050506040513d601f19601f82011682018060405250810190610edf9190613b18565b602001515b610f445760405162461bcd60e51b815260206004820152602b60248201527f455243323054656d706c6174653a204e4f54205041594d454e54204d414e414760448201526a22a91037b91027aba722a960a91b60648201526084016109ab565b610f4d81612a8f565b604080514281524360208201526001600160a01b0383169133917f4d7694d695c57cc54947177c8e8a0e61aae664e9223492a798c32fadfc6419cc910160405180910390a350565b600e546001600160a01b031633146110025760405162461bcd60e51b815260206004820152602a60248201527f455243323054656d706c6174653a206e6f74207075626c6973684d61726b65746044820152694665654164647265737360b01b60648201526084016109ab565b6001600160a01b0383166110695760405162461bcd60e51b815260206004820152602860248201527f496e76616c6964205f7075626c6973684d61726b657446656541646472657373604482015267206164647265737360c01b60648201526084016109ab565b600e80546001600160a01b038581166001600160a01b03199283168117909355600f80549186169190921681179091556010839055604080513381526020810193909352820152606081018290527fe0b85b6f04fa914cf57f6401c5672a83a32b1c388d194c3d78e17f2897d46f439060800160405180910390a1505050565b600c5460405163160a792560e01b81523360048201526000916001600160a01b03169063160a7925906024016080604051808303816000875af1158015611134573d6000803e3d6000fd5b505050506040513d601f19601f820116820180604052508101906111589190613b18565b602001516111785760405162461bcd60e51b81526004016109ab90613b9d565b600254156111d45760405162461bcd60e51b8152602060048201526024808201527f455243323054656d706c6174653a20746f6b656e7320616c7265616479206d696044820152631b9d195960e21b60648201526084016109ab565b6111f7826000815181106111ea576111ea613c54565b6020026020010151612414565b622504908460038151811061120e5761120e613c54565b6020026020010151116112755760405162461bcd60e51b815260206004820152602960248201527f455243323054656d706c6174653a206d696e696d756d20626c6f636b73206e6f6044820152681d081c995858da195960ba1b60648201526084016109ab565b60006040518060400160405280306001600160a01b03166001600160a01b03168152602001846001815181106112ad576112ad613c54565b60209081029190910101516001600160a01b0390811690915260135460405163ee3bc63560e01b8152929350169063ee3bc635906112f5908490899089908990600401613cde565b6020604051808303816000875af1158015611314573d6000803e3d6000fd5b505050506040513d601f19601f820116820180604052508101906113389190613c37565b91507fd02da1bec30f7f750aa0a131745dfb9ce96767c45a192dc26409f5d690e0b967828460008151811061136f5761136f613c54565b60200260200101518560018151811061138a5761138a613c54565b60200260200101516040516113bf939291906001600160a01b0393841681529183166020830152909116604082015260600190565b60405180910390a1509392505050565b60006113db83336107b1565b9050818110156114395760405162461bcd60e51b8152602060048201526024808201527f45524332303a206275726e20616d6f756e74206578636565647320616c6c6f77604482015263616e636560e01b60648201526084016109ab565b61144683338484036122f0565b6114508383612892565b505050565b600c546001600160a01b03163314610e395760405162461bcd60e51b815260206004820152601f60248201527f455243323054656d706c6174653a204e4f542037323120436f6e74726163740060448201526064016109ab565b600c5460405163160a792560e01b81523360048201526000916001600160a01b03169063160a7925906024016080604051808303816000875af11580156114fa573d6000803e3d6000fd5b505050506040513d601f19601f8201168201806040525081019061151e9190613b18565b6020015161153e5760405162461bcd60e51b81526004016109ab90613b9d565b600260075414156115615760405162461bcd60e51b81526004016109ab90613bd2565b6002600755601354604051638244937560e01b81526001600160a01b039091169063824493759061159a90879087908790600401613d49565b6020604051808303816000875af11580156115b9573d6000803e3d6000fd5b505050506040513d601f19601f820116820180604052508101906115dd9190613d89565b90506000826004815181106115f4576115f4613c54565b6020026020010151111561160b5761160b84612414565b7f195d202f33578769e120c3041341554af3193e67ee004175095bc9c06e6e6165818460008151811061164057611640613c54565b60200260200101516040516116689291909182526001600160a01b0316602082015260400190565b60405180910390a160016007559392505050565b60606009805461088490613add565b600c5460405163160a792560e01b81523360048201526001600160a01b039091169063160a7925906024016080604051808303816000875af11580156116d5573d6000803e3d6000fd5b505050506040513d601f19601f820116820180604052508101906116f99190613b18565b602001516117195760405162461bcd60e51b81526004016109ab90613b9d565b610bbb81612414565b3360009081526001602090815260408083206001600160a01b0386168452909152812054828110156117a45760405162461bcd60e51b815260206004820152602560248201527f45524332303a2064656372656173656420616c6c6f77616e63652062656c6f77604482015264207a65726f60d81b60648201526084016109ab565b6117b133858584036122f0565b5060019392505050565b6000610914338484612516565b600c5460405163160a792560e01b81523360048201526001600160a01b039091169063160a7925906024016080604051808303816000875af1158015611812573d6000803e3d6000fd5b505050506040513d601f19601f820116820180604052508101906118369190613b18565b602001516118565760405162461bcd60e51b81526004016109ab90613b9d565b610bbb81612ab1565b600c5460405163160a792560e01b81523360048201526001600160a01b039091169063160a7925906024016080604051808303816000875af11580156118a9573d6000803e3d6000fd5b505050506040513d601f19601f820116820180604052508101906118cd9190613b18565b602001516118ed5760405162461bcd60e51b81526004016109ab90613b9d565b6040516bffffffffffffffffffffffff193060601b16602082015260009060340160408051601f19818403018152908290528051602090910120600c546301caf8fd60e31b83529092506001600160a01b031690630e57c7e89061195990849087908790600401613da2565b600060405180830381600087803b15801561197357600080fd5b505af1158015611987573d6000803e3d6000fd5b50505050505050565b6119a36064670de0b6b3a7640000613dd8565b81565b600b54600090600160a01b900460ff1615611a1d5760405162461bcd60e51b815260206004820152603160248201527f455243323054656d706c6174653a20746f6b656e20696e7374616e636520616c6044820152701c9958591e481a5b9a5d1a585b1a5e9959607a1b60648201526084016109ab565b611ad1611a2a8b8d613e52565b8a8a8080602002602001604051908101604052809392919081815260200183836020028082843760009201919091525050604080516020808e0282810182019093528d82529093508d92508c91829185019084908082843760009201919091525050604080516020808d0282810182019093528c82529093508c92508b918291850190849080828437600092019190915250611acc92508991508a9050613eda565b612bbf565b9b9a5050505050505050505050565b43841015611b235760405162461bcd60e51b815260206004820152601060248201526f115490cc8c11150e881156141254915160821b60448201526064016109ab565b6011546001600160a01b038816600090815260126020526040812080549192917f6e71edae12b1b97f4d1f60370fef10105fa2faae0126114a169c64845d6126c9918b918b918b919087611b7683613f56565b909155506040805160208101969096526001600160a01b0394851690860152929091166060840152608083015260a082015260c0810187905260e00160405160208183030381529060405280519060200120604051602001611bef92919061190160f01b81526002810192909252602282015260420190565b60408051601f198184030181528282528051602091820120600080855291840180845281905260ff88169284019290925260608301869052608083018590529092509060019060a0016020604051602081039080840390855afa158015611c5a573d6000803e3d6000fd5b5050604051601f1901519150506001600160a01b03811615801590611c905750886001600160a01b0316816001600160a01b0316145b611cdc5760405162461bcd60e51b815260206004820152601a60248201527f455243323044543a20494e56414c49445f5349474e415455524500000000000060448201526064016109ab565b611ce78989896122f0565b505050505050505050565b611cfa611d32565b6001600160a01b03166108fc479081150290604051600060405180830381858888f19350505050158015610bbb573d6000803e3d6000fd5b600d546000906001600160a01b0316611db757600c546040516331a9108f60e11b8152600160048201526001600160a01b0390911690636352211e90602401602060405180830381865afa158015611d8e573d6000803e3d6000fd5b505050506040513d601f19601f82011682018060405250810190611db29190613c37565b905090565b50600d546001600160a01b031690565b60068181548110611dd757600080fd5b6000918252602090912001546001600160a01b0316905081565b60026007541415611e145760405162461bcd60e51b81526004016109ab90613bd2565b6002600755336000908152602081905260408120548190871115611e885760405162461bcd60e51b815260206004820152602560248201527f4e6f7420656e6f756768204461746120546f6b656e7320746f2073746172742060448201526427b93232b960d91b60648201526084016109ab565b600e5460408051338152602081018a90529081018890524260608201524360808201526001600160a01b0387811692811691908b16907fb07adb6a34680ecbbc7935971c45a07b9baf67ce5dc57332d51e3a5745c9e9639060a00160405180910390a46000601054118015611f075750600f546001600160a01b031615155b8015611f1d5750600e546001600160a01b031615155b15611fdc57601054600f54611f41916001600160a01b0390911690339030906130b1565b601054611f4f90606461311c565b600e54601054919250611f85916001600160a01b0390911690611f729084613128565b600f546001600160a01b03169190613134565b600f54600e546010546001600160a01b0392831692909116907ff666b31c81334b6085802ba4149907fa724689d43bc31df6de1a51291ddc55b490611fca9085613128565b60405190815260200160405180910390a35b600083118015611ff457506001600160a01b03841615155b801561200857506001600160a01b03851615155b15612099576120226001600160a01b0385163330866130b1565b61202d83606461311c565b915061204e8561203d8585613128565b6001600160a01b0387169190613134565b6001600160a01b038085169086167f504f65f39bc14c176feeffb7a6f6f46cf702ca4dcc8e6197b5a4c741dd94f3d16120878686613128565b60405190815260200160405180910390a35b6000811180156120a95750600082115b80156120c25750600f546001600160a01b038581169116145b80156120d657506001600160a01b03841615155b1561218257600b546120f5906001600160a01b031661203d83856127a7565b600b546040518281526001600160a01b038681169216907ff666b31c81334b6085802ba4149907fa724689d43bc31df6de1a51291ddc55b49060200160405180910390a3600b546040518381526001600160a01b038681169216907f504f65f39bc14c176feeffb7a6f6f46cf702ca4dcc8e6197b5a4c741dd94f3d19060200160405180910390a3612284565b60008111801561219c5750600f546001600160a01b031615155b1561220857600b54600f546121be916001600160a01b03918216911683613134565b600f54600b546040518381526001600160a01b0392831692909116907ff666b31c81334b6085802ba4149907fa724689d43bc31df6de1a51291ddc55b49060200160405180910390a35b60008211801561222057506001600160a01b03841615155b1561228457600b5461223f906001600160a01b03868116911684613134565b600b546040518381526001600160a01b038681169216907f504f65f39bc14c176feeffb7a6f6f46cf702ca4dcc8e6197b5a4c741dd94f3d19060200160405180910390a35b61229561228f611d32565b886117bb565b6122e15760405162461bcd60e51b815260206004820152601e60248201527f4661696c656420746f2073656e6420445420746f207075626c6973686572000060448201526064016109ab565b50506001600755505050505050565b6001600160a01b0383166123525760405162461bcd60e51b8152602060048201526024808201527f45524332303a20617070726f76652066726f6d20746865207a65726f206164646044820152637265737360e01b60648201526084016109ab565b6001600160a01b0382166123b35760405162461bcd60e51b815260206004820152602260248201527f45524332303a20617070726f766520746f20746865207a65726f206164647265604482015261737360f01b60648201526084016109ab565b6001600160a01b0383811660008181526001602090815260408083209487168084529482529182902085905590518481527f8c5be1e5ebec7d5bd14f71427d1e84f3dd0314c0f7b2291e5b200ac8c7c3b925910160405180910390a3505050565b6001600160a01b0381166000908152600560205260409020805460ff161561247e5760405162461bcd60e51b815260206004820152601d60248201527f4552433230526f6c65733a2020414c52454144592041204d494e54455200000060448201526064016109ab565b8054600160ff19909116811782556006805491820181556000527ff652222313e28459528d920b65115c16c04f3efc82aaedc97be59f3f377c0d3f0180546001600160a01b0319166001600160a01b038416908117909155604080514281524360208201523392917f4f7e100eb1ee13e903798bd0d6aa854152e07eb05544f392b9409c12935c809591015b60405180910390a35050565b6001600160a01b03831661257a5760405162461bcd60e51b815260206004820152602560248201527f45524332303a207472616e736665722066726f6d20746865207a65726f206164604482015264647265737360d81b60648201526084016109ab565b6001600160a01b0382166125dc5760405162461bcd60e51b815260206004820152602360248201527f45524332303a207472616e7366657220746f20746865207a65726f206164647260448201526265737360e81b60648201526084016109ab565b6001600160a01b038316600090815260208190526040902054818110156126545760405162461bcd60e51b815260206004820152602660248201527f45524332303a207472616e7366657220616d6f756e7420657863656564732062604482015265616c616e636560d01b60648201526084016109ab565b6001600160a01b0380851660009081526020819052604080822085850390559185168152908120805484929061268b908490613c1f565b92505081905550826001600160a01b0316846001600160a01b03167fddf252ad1be2c89b69c2b068fc378daa952ba7f163c4a11628f55a4df523b3ef846040516126d791815260200190565b60405180910390a35b50505050565b6001600160a01b03811660008181526005602052604090819020805461ff00191681559051909133917faee911eec8b2df8f3ae0464841541b1e5f339519bd5cf51889fe8b07fecff6589061250a9042904390918252602082015260400190565b6001600160a01b03811660008181526005602052604090819020805460ff191681559051909133917fefa2735987005aaa89c050c0ff8cc9ae7d9079d19382081c429130f98c52d4809061250a9042904390918252602082015260400190565b6000610b1d8284613c1f565b6001600160a01b0382166128095760405162461bcd60e51b815260206004820152601f60248201527f45524332303a206d696e7420746f20746865207a65726f20616464726573730060448201526064016109ab565b806002600082825461281b9190613c1f565b90915550506001600160a01b03821660009081526020819052604081208054839290612848908490613c1f565b90915550506040518181526001600160a01b038316906000907fddf252ad1be2c89b69c2b068fc378daa952ba7f163c4a11628f55a4df523b3ef9060200160405180910390a35050565b6001600160a01b0382166128f25760405162461bcd60e51b815260206004820152602160248201527f45524332303a206275726e2066726f6d20746865207a65726f206164647265736044820152607360f81b60648201526084016109ab565b6001600160a01b038216600090815260208190526040902054818110156129665760405162461bcd60e51b815260206004820152602260248201527f45524332303a206275726e20616d6f756e7420657863656564732062616c616e604482015261636560f01b60648201526084016109ab565b6001600160a01b0383166000908152602081905260408120838303905560028054849290612995908490613f71565b90915550506040518281526000906001600160a01b038516907fddf252ad1be2c89b69c2b068fc378daa952ba7f163c4a11628f55a4df523b3ef9060200160405180910390a3505050565b60005b600654811015612a465760006005600060068481548110612a0657612a06613c54565b60009182526020808320909101546001600160a01b031683528201929092526040019020805461ffff191690555080612a3e81613f56565b9150506129e3565b50612a53600660006133ae565b6040805142815243602082015233917f712bc71db81927a76b8bf1ea346247bb0ad58f18e4e5c1bd4aa0ec6573e02a2b910160405180910390a2565b600d80546001600160a01b0319166001600160a01b0392909216919091179055565b6001600160a01b03811660009081526005602052604090208054610100900460ff1615612b2b5760405162461bcd60e51b815260206004820152602260248201527f4552433230526f6c65733a2020414c5245414459204120464545204d414e414760448201526122a960f11b60648201526084016109ab565b805461ff001916610100178155600680546001810182556000919091527ff652222313e28459528d920b65115c16c04f3efc82aaedc97be59f3f377c0d3f0180546001600160a01b0384166001600160a01b03199091168117909155604080514281524360208201523392917fb17da2e9910b4ba5754e8872385ba315a238bafb5ae221fc85093c33432c40a7910161250a565b60008084600081518110612bd557612bd5613c54565b60200260200101519050600085600181518110612bf457612bf4613c54565b6020026020010151905060006001600160a01b0316826001600160a01b03161415612c765760405162461bcd60e51b815260206004820152602c60248201527f455243323054656d706c6174653a20496e76616c6964206d696e7465722c202060448201526b7a65726f206164647265737360a01b60648201526084016109ab565b6001600160a01b038116612cf25760405162461bcd60e51b815260206004820152603c60248201527f455243323054656d706c6174653a20496e76616c696420636f6d6d756e69747960448201527f2066656520636f6c6c6563746f722c207a65726f20616464726573730000000060648201526084016109ab565b84600081518110612d0557612d05613c54565b602002602001015160001415612d695760405162461bcd60e51b8152602060048201526024808201527f44617461546f6b656e54656d706c6174653a20496e76616c6964206361702076604482015263616c756560e01b60648201526084016109ab565b84600081518110612d7c57612d7c613c54565b6020026020010151600a8190555087600081518110612d9d57612d9d613c54565b602002602001015160089080519060200190612dba9291906133cc565b5087600181518110612dce57612dce613c54565b602002602001015160099080519060200190612deb9291906133cc565b50600c80546001600160a01b0319166001600160a01b038416179055855186906002908110612e1c57612e1c613c54565b6020908102919091010151601380546001600160a01b039283166001600160a01b0319909116179055600b80546001600160a81b03191691831691909117600160a01b1790558651612e799088906000906111ea576111ea613c54565b60006001600160a01b031687600181518110612e9757612e97613c54565b60200260200101516001600160a01b031614612f4157612ed087600181518110612ec357612ec3613c54565b6020026020010151612a8f565b86600181518110612ee357612ee3613c54565b60200260200101516001600160a01b0316336001600160a01b03167f4d7694d695c57cc54947177c8e8a0e61aae664e9223492a798c32fadfc6419cc4243604051612f38929190918252602082015260400190565b60405180910390a35b86600281518110612f5457612f54613c54565b6020026020010151600e60006101000a8154816001600160a01b0302191690836001600160a01b0316021790555086600381518110612f9557612f95613c54565b6020026020010151600f60006101000a8154816001600160a01b0302191690836001600160a01b0316021790555084600181518110612fd657612fd6613c54565b602002602001015160108190555060004690507f8b73c3c69bb8fe3d512ecc4cf759cc79239f7b179b0ffacaa9a75d522b39400f60086040516130199190613f88565b60408051918290038220828201825260018352603160f81b6020938401528151928301939093528101919091527fc89efdaa54c0f20c7adf612882df0950f5a951637e0307cdcb4c672f298b8bc66060820152608081018290523060a082015260c00160408051808303601f1901815291905280516020909101206011555050600b54600160a01b900460ff16979650505050505050565b6040516001600160a01b03808516602483015283166044820152606481018290526126e09085906323b872dd60e01b906084015b60408051601f198184030181529190526020810180516001600160e01b03166001600160e01b031990931692909217909152613164565b6000610b1d8284613dd8565b6000610b1d8284613f71565b6040516001600160a01b03831660248201526044810182905261145090849063a9059cbb60e01b906064016130e5565b60006131b9826040518060400160405280602081526020017f5361666545524332303a206c6f772d6c6576656c2063616c6c206661696c6564815250856001600160a01b03166132369092919063ffffffff16565b80519091501561145057808060200190518101906131d79190614024565b6114505760405162461bcd60e51b815260206004820152602a60248201527f5361666545524332303a204552433230206f7065726174696f6e20646964206e6044820152691bdd081cdd58d8d9595960b21b60648201526084016109ab565b6060613245848460008561324d565b949350505050565b6060824710156132ae5760405162461bcd60e51b815260206004820152602660248201527f416464726573733a20696e73756666696369656e742062616c616e636520666f6044820152651c8818d85b1b60d21b60648201526084016109ab565b843b6132fc5760405162461bcd60e51b815260206004820152601d60248201527f416464726573733a2063616c6c20746f206e6f6e2d636f6e747261637400000060448201526064016109ab565b600080866001600160a01b031685876040516133189190614041565b60006040518083038185875af1925050503d8060008114613355576040519150601f19603f3d011682016040523d82523d6000602084013e61335a565b606091505b509150915061336a828286613375565b979650505050505050565b60608315613384575081610b1d565b8251156133945782518084602001fd5b8160405162461bcd60e51b81526004016109ab91906134c3565b5080546000825590600052602060002090810190610bbb9190613450565b8280546133d890613add565b90600052602060002090601f0160209004810192826133fa5760008555613440565b82601f1061341357805160ff1916838001178555613440565b82800160010185558215613440579182015b82811115613440578251825591602001919060010190613425565b5061344c929150613450565b5090565b5b8082111561344c5760008155600101613451565b6001600160a01b0381168114610bbb57600080fd5b60006020828403121561348c57600080fd5b8135610b1d81613465565b60005b838110156134b257818101518382015260200161349a565b838111156126e05750506000910152565b60208152600082518060208401526134e2816040850160208701613497565b601f01601f19169190910160400192915050565b6000806040838503121561350957600080fd5b823561351481613465565b946020939093013593505050565b8015158114610bbb57600080fd5b600080600080600060a0868803121561354857600080fd5b853561355381613465565b94506020860135935060408601359250606086013561357181613522565b9150608086013561358181613465565b809150509295509295909350565b6000806000606084860312156135a457600080fd5b83356135af81613465565b925060208401356135bf81613465565b929592945050506040919091013590565b6000602082840312156135e257600080fd5b5035919050565b634e487b7160e01b600052604160045260246000fd5b604051601f8201601f1916810167ffffffffffffffff81118282101715613628576136286135e9565b604052919050565b600067ffffffffffffffff82111561364a5761364a6135e9565b5060051b60200190565b600082601f83011261366557600080fd5b8135602061367a61367583613630565b6135ff565b82815260059290921b8401810191818101908684111561369957600080fd5b8286015b848110156136b4578035835291830191830161369d565b509695505050505050565b600082601f8301126136d057600080fd5b813560206136e061367583613630565b82815260059290921b840181019181810190868411156136ff57600080fd5b8286015b848110156136b457803561371681613465565b8352918301918301613703565b60008060006060848603121561373857600080fd5b833567ffffffffffffffff8082111561375057600080fd5b61375c87838801613654565b9450602086013591508082111561377257600080fd5b61377e87838801613654565b9350604086013591508082111561379457600080fd5b506137a1868287016136bf565b9150509250925092565b6000806000606084860312156137c057600080fd5b83356137cb81613465565b9250602084013567ffffffffffffffff808211156137e857600080fd5b6137f4878388016136bf565b9350604086013591508082111561380a57600080fd5b506137a186828701613654565b6000806020838503121561382a57600080fd5b823567ffffffffffffffff8082111561384257600080fd5b818501915085601f83011261385657600080fd5b81358181111561386557600080fd5b86602082850101111561387757600080fd5b60209290920196919550909350505050565b60008083601f84011261389b57600080fd5b50813567ffffffffffffffff8111156138b357600080fd5b6020830191508360208260051b85010111156138ce57600080fd5b9250929050565b60008060008060008060008060008060a08b8d0312156138f457600080fd5b8a3567ffffffffffffffff8082111561390c57600080fd5b6139188e838f01613889565b909c509a5060208d013591508082111561393157600080fd5b61393d8e838f01613889565b909a50985060408d013591508082111561395657600080fd5b6139628e838f01613889565b909850965060608d013591508082111561397b57600080fd5b6139878e838f01613889565b909650945060808d01359150808211156139a057600080fd5b506139ad8d828e01613889565b915080935050809150509295989b9194979a5092959850565b600080600080600080600060e0888a0312156139e157600080fd5b87356139ec81613465565b965060208801356139fc81613465565b95506040880135945060608801359350608088013560ff81168114613a2057600080fd5b9699959850939692959460a0840135945060c09093013592915050565b60008060408385031215613a5057600080fd5b8235613a5b81613465565b91506020830135613a6b81613465565b809150509250929050565b60008060008060008060c08789031215613a8f57600080fd5b8635613a9a81613465565b955060208701359450604087013593506060870135613ab881613465565b92506080870135613ac881613465565b8092505060a087013590509295509295509295565b600181811c90821680613af157607f821691505b60208210811415613b1257634e487b7160e01b600052602260045260246000fd5b50919050565b600060808284031215613b2a57600080fd5b6040516080810181811067ffffffffffffffff82111715613b4d57613b4d6135e9565b6040528251613b5b81613522565b81526020830151613b6b81613522565b60208201526040830151613b7e81613522565b60408201526060830151613b9181613522565b60608201529392505050565b6020808252818101527f455243323054656d706c6174653a204e4f54204445504c4f59455220524f4c45604082015260600190565b6020808252601f908201527f5265656e7472616e637947756172643a207265656e7472616e742063616c6c00604082015260600190565b634e487b7160e01b600052601160045260246000fd5b60008219821115613c3257613c32613c09565b500190565b600060208284031215613c4957600080fd5b8151610b1d81613465565b634e487b7160e01b600052603260045260246000fd5b600081518084526020808501945080840160005b83811015613c9a57815187529582019590820190600101613c7e565b509495945050505050565b600081518084526020808501945080840160005b83811015613c9a5781516001600160a01b031687529582019590820190600101613cb9565b60008186825b6002811015613d0c5781516001600160a01b0316835260209283019290910190600101613ce4565b50505060a06040830152613d2360a0830186613c6a565b8281036060840152613d358186613c6a565b9050828103608084015261336a8185613ca5565b6001600160a01b0384168152606060208201819052600090613d6d90830185613ca5565b8281036040840152613d7f8185613c6a565b9695505050505050565b600060208284031215613d9b57600080fd5b5051919050565b83815260406020820152816040820152818360608301376000818301606090810191909152601f909201601f1916010192915050565b600082613df557634e487b7160e01b600052601260045260246000fd5b500490565b600067ffffffffffffffff831115613e1457613e146135e9565b613e27601f8401601f19166020016135ff565b9050828152838383011115613e3b57600080fd5b828260208301376000602084830101529392505050565b6000613e6061367584613630565b80848252602080830192508560051b850136811115613e7e57600080fd5b855b81811015613ece57803567ffffffffffffffff811115613ea05760008081fd5b870136601f820112613eb25760008081fd5b613ec0368235868401613dfa565b865250938201938201613e80565b50919695505050505050565b6000613ee861367584613630565b80848252602080830192508560051b850136811115613f0657600080fd5b855b81811015613ece57803567ffffffffffffffff811115613f285760008081fd5b870136601f820112613f3a5760008081fd5b613f48368235868401613dfa565b865250938201938201613f08565b6000600019821415613f6a57613f6a613c09565b5060010190565b600082821015613f8357613f83613c09565b500390565b600080835481600182811c915080831680613fa457607f831692505b6020808410821415613fc457634e487b7160e01b86526022600452602486fd5b818015613fd85760018114613fe957614016565b60ff19861689528489019650614016565b60008a81526020902060005b8681101561400e5781548b820152908501908301613ff5565b505084890196505b509498975050505050505050565b60006020828403121561403657600080fd5b8151610b1d81613522565b60008251614053818460208701613497565b919091019291505056fea2646970667358221220f24e755cf3b0dedeab6a17fa084e85f25190ac6f3aa51c4cd0e30b6fb0437d7964736f6c634300080a0033",
  "linkReferences": {},
  "deployedLinkReferences": {}
}