{
  "_format": "hh-sol-artifact-1",
  "contractName": "MockExchange",
  "sourceName": "contracts/utils/mock/MockExchange.sol",
  "abi": [
    {
      "inputs": [
        {
          "internalType": "address",
          "name": "_token",
          "type": "address"
        },
        {
          "internalType": "uint256",
          "name": "_amount",
          "type": "uint256"
        }
      ],
      "name": "deposit",
      "outputs": [],
      "stateMutability": "nonpayable",
      "type": "function"
    },
    {
      "inputs": [
        {
          "internalType": "address",
          "name": "_token",
          "type": "address"
        },
        {
          "internalType": "uint256",
          "name": "_amount",
          "type": "uint256"
        },
        {
          "internalType": "uint256",
          "name": "_deadline",
          "type": "uint256"
        },
        {
          "internalType": "uint8",
          "name": "v",
          "type": "uint8"
        },
        {
          "internalType": "bytes32",
          "name": "r",
          "type": "bytes32"
        },
        {
          "internalType": "bytes32",
          "name": "s",
          "type": "bytes32"
        }
      ],
      "name": "depositWithPermit",
      "outputs": [],
      "stateMutability": "nonpayable",
      "type": "function"
    }
  ],
  "bytecode": "0x608060405234801561001057600080fd5b506102e8806100206000396000f3fe608060405234801561001057600080fd5b50600436106100365760003560e01c806312a62cff1461003b57806347e7ef2414610050575b600080fd5b61004e6100493660046101ff565b610063565b005b61004e61005e36600461025f565b610167565b60405163d505accf60e01b8152336004820152306024820152604481018690526064810185905260ff8416608482015260a4810183905260c481018290526001600160a01b0387169063d505accf9060e401600060405180830381600087803b1580156100cf57600080fd5b505af11580156100e3573d6000803e3d6000fd5b50506040516323b872dd60e01b8152336004820152306024820152604481018890526001600160a01b03891692506323b872dd91506064016020604051808303816000875af115801561013a573d6000803e3d6000fd5b505050506040513d601f19601f8201168201806040525081019061015e9190610289565b50505050505050565b6040516323b872dd60e01b8152336004820152306024820152604481018290526001600160a01b038316906323b872dd906064016020604051808303816000875af11580156101ba573d6000803e3d6000fd5b505050506040513d601f19601f820116820180604052508101906101de9190610289565b505050565b80356001600160a01b03811681146101fa57600080fd5b919050565b60008060008060008060c0878903121561021857600080fd5b610221876101e3565b95506020870135945060408701359350606087013560ff8116811461024557600080fd5b9598949750929560808101359460a0909101359350915050565b6000806040838503121561027257600080fd5b61027b836101e3565b946020939093013593505050565b60006020828403121561029b57600080fd5b815180151581146102ab57600080fd5b939250505056fea2646970667358221220b64cb5396b278e00bcddbd7674062e64d32b808116bb0067eb2f5270ad8069ae64736f6c634300080a0033",
  "linkReferences": {},
  "deployedLinkReferences": {}
}