{
  "_format": "hh-sol-artifact-1",
  "contractName": "MockExchange",
  "sourceName": "contracts/utils/mock/MockExchange.sol",
  "abi": [
    {
      "inputs": [
        {
          "internalType": "address",
          "name": "_token",
          "type": "address"
        },
        {
          "internalType": "uint256",
          "name": "_amount",
          "type": "uint256"
        }
      ],
      "name": "deposit",
      "outputs": [],
      "stateMutability": "nonpayable",
      "type": "function"
    },
    {
      "inputs": [
        {
          "internalType": "address",
          "name": "_token",
          "type": "address"
        },
        {
          "internalType": "uint256",
          "name": "_amount",
          "type": "uint256"
        },
        {
          "internalType": "uint256",
          "name": "_deadline",
          "type": "uint256"
        },
        {
          "internalType": "uint8",
          "name": "v",
          "type": "uint8"
        },
        {
          "internalType": "bytes32",
          "name": "r",
          "type": "bytes32"
        },
        {
          "internalType": "bytes32",
          "name": "s",
          "type": "bytes32"
        }
      ],
      "name": "depositWithPermit",
      "outputs": [],
      "stateMutability": "nonpayable",
      "type": "function"
    }
  ],
  "bytecode": "0x608060405234801561001057600080fd5b5061027e806100206000396000f3fe608060405234801561001057600080fd5b50600436106100365760003560e01c806312a62cff1461003b57806347e7ef2414610084575b600080fd5b610082600480360360c081101561005157600080fd5b506001600160a01b038135169060208101359060408101359060ff6060820135169060808101359060a001356100b0565b005b6100826004803603604081101561009a57600080fd5b506001600160a01b0381351690602001356101c3565b6040805163d505accf60e01b8152336004820152306024820152604481018790526064810186905260ff8516608482015260a4810184905260c4810183905290516001600160a01b0388169163d505accf9160e480830192600092919082900301818387803b15801561012257600080fd5b505af1158015610136573d6000803e3d6000fd5b5050604080516323b872dd60e01b81523360048201523060248201526044810189905290516001600160a01b038a1693506323b872dd925060648083019260209291908290030181600087803b15801561018f57600080fd5b505af11580156101a3573d6000803e3d6000fd5b505050506040513d60208110156101b957600080fd5b5050505050505050565b604080516323b872dd60e01b81523360048201523060248201526044810183905290516001600160a01b038416916323b872dd9160648083019260209291908290030181600087803b15801561021857600080fd5b505af115801561022c573d6000803e3d6000fd5b505050506040513d602081101561024257600080fd5b5050505056fea2646970667358221220ed065a6e74a522441c315de5152361923a4be53091bd226208763c072a4ff6b364736f6c63430007010033",
  "linkReferences": {},
  "deployedLinkReferences": {}
}