{
  "_format": "hh-sol-artifact-1",
  "contractName": "BMath",
  "sourceName": "contracts/pools/balancer/BMath.sol",
  "abi": [
    {
      "inputs": [],
      "name": "BONE",
      "outputs": [
        {
          "internalType": "uint256",
          "name": "",
          "type": "uint256"
        }
      ],
      "stateMutability": "view",
      "type": "function"
    },
    {
      "inputs": [],
      "name": "BPOW_PRECISION",
      "outputs": [
        {
          "internalType": "uint256",
          "name": "",
          "type": "uint256"
        }
      ],
      "stateMutability": "view",
      "type": "function"
    },
    {
      "inputs": [],
      "name": "EXIT_FEE",
      "outputs": [
        {
          "internalType": "uint256",
          "name": "",
          "type": "uint256"
        }
      ],
      "stateMutability": "view",
      "type": "function"
    },
    {
      "inputs": [],
      "name": "INIT_POOL_SUPPLY",
      "outputs": [
        {
          "internalType": "uint256",
          "name": "",
          "type": "uint256"
        }
      ],
      "stateMutability": "view",
      "type": "function"
    },
    {
      "inputs": [],
      "name": "MAX_BOUND_TOKENS",
      "outputs": [
        {
          "internalType": "uint256",
          "name": "",
          "type": "uint256"
        }
      ],
      "stateMutability": "view",
      "type": "function"
    },
    {
      "inputs": [],
      "name": "MAX_BPOW_BASE",
      "outputs": [
        {
          "internalType": "uint256",
          "name": "",
          "type": "uint256"
        }
      ],
      "stateMutability": "view",
      "type": "function"
    },
    {
      "inputs": [],
      "name": "MAX_FEE",
      "outputs": [
        {
          "internalType": "uint256",
          "name": "",
          "type": "uint256"
        }
      ],
      "stateMutability": "view",
      "type": "function"
    },
    {
      "inputs": [],
      "name": "MAX_IN_RATIO",
      "outputs": [
        {
          "internalType": "uint256",
          "name": "",
          "type": "uint256"
        }
      ],
      "stateMutability": "view",
      "type": "function"
    },
    {
      "inputs": [],
      "name": "MAX_OUT_RATIO",
      "outputs": [
        {
          "internalType": "uint256",
          "name": "",
          "type": "uint256"
        }
      ],
      "stateMutability": "view",
      "type": "function"
    },
    {
      "inputs": [],
      "name": "MAX_TOTAL_WEIGHT",
      "outputs": [
        {
          "internalType": "uint256",
          "name": "",
          "type": "uint256"
        }
      ],
      "stateMutability": "view",
      "type": "function"
    },
    {
      "inputs": [],
      "name": "MAX_WEIGHT",
      "outputs": [
        {
          "internalType": "uint256",
          "name": "",
          "type": "uint256"
        }
      ],
      "stateMutability": "view",
      "type": "function"
    },
    {
      "inputs": [],
      "name": "MIN_BALANCE",
      "outputs": [
        {
          "internalType": "uint256",
          "name": "",
          "type": "uint256"
        }
      ],
      "stateMutability": "view",
      "type": "function"
    },
    {
      "inputs": [],
      "name": "MIN_BOUND_TOKENS",
      "outputs": [
        {
          "internalType": "uint256",
          "name": "",
          "type": "uint256"
        }
      ],
      "stateMutability": "view",
      "type": "function"
    },
    {
      "inputs": [],
      "name": "MIN_BPOW_BASE",
      "outputs": [
        {
          "internalType": "uint256",
          "name": "",
          "type": "uint256"
        }
      ],
      "stateMutability": "view",
      "type": "function"
    },
    {
      "inputs": [],
      "name": "MIN_FEE",
      "outputs": [
        {
          "internalType": "uint256",
          "name": "",
          "type": "uint256"
        }
      ],
      "stateMutability": "view",
      "type": "function"
    },
    {
      "inputs": [],
      "name": "MIN_WEIGHT",
      "outputs": [
        {
          "internalType": "uint256",
          "name": "",
          "type": "uint256"
        }
      ],
      "stateMutability": "view",
      "type": "function"
    },
    {
      "inputs": [],
      "name": "_swapPublishMarketFee",
      "outputs": [
        {
          "internalType": "uint256",
          "name": "",
          "type": "uint256"
        }
      ],
      "stateMutability": "view",
      "type": "function"
    },
    {
      "inputs": [
        {
          "internalType": "uint256[4]",
          "name": "data",
          "type": "uint256[4]"
        },
        {
          "internalType": "uint256",
          "name": "tokenAmountOut",
          "type": "uint256"
        },
        {
          "internalType": "uint256",
          "name": "_consumeMarketSwapFee",
          "type": "uint256"
        }
      ],
      "name": "calcInGivenOut",
      "outputs": [
        {
          "internalType": "uint256",
          "name": "tokenAmountIn",
          "type": "uint256"
        },
        {
          "internalType": "uint256",
          "name": "tokenAmountInBalance",
          "type": "uint256"
        },
        {
          "components": [
            {
              "internalType": "uint256",
              "name": "LPFee",
              "type": "uint256"
            },
            {
              "internalType": "uint256",
              "name": "oceanFeeAmount",
              "type": "uint256"
            },
            {
              "internalType": "uint256",
              "name": "publishMarketFeeAmount",
              "type": "uint256"
            },
            {
              "internalType": "uint256",
              "name": "consumeMarketFee",
              "type": "uint256"
            }
          ],
          "internalType": "struct BMath.swapfees",
          "name": "_swapfees",
          "type": "tuple"
        }
      ],
      "stateMutability": "view",
      "type": "function"
    },
    {
      "inputs": [
        {
          "internalType": "uint256[4]",
          "name": "data",
          "type": "uint256[4]"
        },
        {
          "internalType": "uint256",
          "name": "tokenAmountIn",
          "type": "uint256"
        },
        {
          "internalType": "uint256",
          "name": "_consumeMarketSwapFee",
          "type": "uint256"
        }
      ],
      "name": "calcOutGivenIn",
      "outputs": [
        {
          "internalType": "uint256",
          "name": "tokenAmountOut",
          "type": "uint256"
        },
        {
          "internalType": "uint256",
          "name": "balanceInToAdd",
          "type": "uint256"
        },
        {
          "components": [
            {
              "internalType": "uint256",
              "name": "LPFee",
              "type": "uint256"
            },
            {
              "internalType": "uint256",
              "name": "oceanFeeAmount",
              "type": "uint256"
            },
            {
              "internalType": "uint256",
              "name": "publishMarketFeeAmount",
              "type": "uint256"
            },
            {
              "internalType": "uint256",
              "name": "consumeMarketFee",
              "type": "uint256"
            }
          ],
          "internalType": "struct BMath.swapfees",
          "name": "_swapfees",
          "type": "tuple"
        }
      ],
      "stateMutability": "view",
      "type": "function"
    },
    {
      "inputs": [
        {
          "internalType": "address",
          "name": "",
          "type": "address"
        }
      ],
      "name": "communityFees",
      "outputs": [
        {
          "internalType": "uint256",
          "name": "",
          "type": "uint256"
        }
      ],
      "stateMutability": "view",
      "type": "function"
    },
    {
      "inputs": [],
      "name": "getOPCFee",
      "outputs": [
        {
          "internalType": "uint256",
          "name": "",
          "type": "uint256"
        }
      ],
      "stateMutability": "view",
      "type": "function"
    },
    {
      "inputs": [
        {
          "internalType": "address",
          "name": "",
          "type": "address"
        }
      ],
      "name": "publishMarketFees",
      "outputs": [
        {
          "internalType": "uint256",
          "name": "",
          "type": "uint256"
        }
      ],
      "stateMutability": "view",
      "type": "function"
    }
  ],
  "bytecode": "0x608060405234801561001057600080fd5b50610ea5806100206000396000f3fe608060405234801561001057600080fd5b50600436106101425760003560e01c80639381cd2b116100b8578063bc063e1a1161007c578063bc063e1a1461025b578063bc694ea214610263578063c36596a61461016a578063c6580d121461026b578063e4a28a5214610147578063ec0930211461027357600080fd5b80639381cd2b1461023b578063992e2a9214610243578063b0e0d1361461024b578063b7b800a41461024b578063ba019dab1461025357600080fd5b806351705cd01161010a57806351705cd0146101a157806376c7a3c7146101ef5780637a284be4146101f75780637c5918b314610200578063867378c514610220578063892cdf9e1461022857600080fd5b806309a3bbe414610147578063189d00ca14610162578063218b53821461016a57806329b88a6a146101795780633006219214610181575b600080fd5b61014f61027b565b6040519081526020015b60405180910390f35b61014f610291565b61014f670de0b6b3a764000081565b61014f6102a8565b61014f61018f366004610cce565b60056020526000908152604090205481565b6101b46101af366004610d0d565b610322565b6040805193845260208085019390935281518482015291810151606080850191909152918101516080840152015160a082015260c001610159565b61014f6104da565b61014f60005481565b61014f61020e366004610cce565b60066020526000908152604090205481565b61014f6104ee565b6101b4610236366004610d0d565b610505565b61014f61069d565b61014f6106b0565b61014f600281565b61014f600181565b61014f6106ce565b61014f6106e1565b61014f600081565b61014f610700565b61028e670de0b6b3a76400006032610daf565b81565b61028e6402540be400670de0b6b3a7640000610de4565b6002546004805460405163b8421e2b60e01b81526001600160a01b0391821692810192909252600092169063b8421e2b90602401602060405180830381865afa1580156102f9573d6000803e3d6000fd5b505050506040513d601f19601f8201168201806040525081019061031d9190610df8565b905090565b6000806103506040518060800160405280600081526020016000815260200160008152602001600081525090565b600061036b87600360200201518860015b6020020151610713565b9050600061038088600260200201518861083c565b90506000610395896002602002015183610713565b905060006103a38285610899565b90506103b781670de0b6b3a764000061083c565b905060008054896103c66102a8565b6001546103d39190610e11565b6103dd9190610e11565b6103e79190610e11565b90506104156103fe8c60005b6020020151846109c5565b610410670de0b6b3a76400008461083c565b610713565b975061043d886104338a610438670de0b6b3a76400006104336102a8565b61083c565b6109c5565b866020018181525050610462886104338a610438670de0b6b3a764000060005461083c565b866040018181525050610487886104338a610438670de0b6b3a764000060015461083c565b86526104a38861043381610438670de0b6b3a76400008e61083c565b60608701526104ca6104b68c60006103f3565b610410670de0b6b3a764000060015461083c565b9650505050505093509350939050565b61028e612710670de0b6b3a7640000610de4565b61028e64e8d4a51000670de0b6b3a7640000610de4565b6000806105336040518060800160405280600081526020016000815260200160008152602001600081525090565b60006105488760016020020151886003610361565b90506105668661043388610438670de0b6b3a76400006104336102a8565b82602001818152505061058b8661043388610438670de0b6b3a764000060005461083c565b8260400181815250506105b08661043388610438670de0b6b3a764000060015461083c565b82526105cc8661043381610438670de0b6b3a76400008a61083c565b60608301526000805486906105df6102a8565b6001546105ec9190610e11565b6105f69190610e11565b6106009190610e11565b90506000610616670de0b6b3a76400008361083c565b905061062288826109c5565b8951909150600090610638906104108185610aa0565b905060006106468286610899565b9050600061065c670de0b6b3a76400008361083c565b905061066f8c60026020020151826109c5565b98508861068a8c89604001518a602001516104339190610e11565b9850985050505050505093509350939050565b61028e670de0b6b3a76400006064610daf565b6106c36003670de0b6b3a7640000610de4565b61028e906001610e11565b61028e600a670de0b6b3a7640000610de4565b60016106f6670de0b6b3a76400006002610daf565b61028e9190610e29565b61028e6002670de0b6b3a7640000610de4565b6000816107565760405162461bcd60e51b815260206004820152600c60248201526b4552525f4449565f5a45524f60a01b60448201526064015b60405180910390fd5b600061076a670de0b6b3a764000085610daf565b90508315806107895750670de0b6b3a76400006107878583610de4565b145b6107c85760405162461bcd60e51b815260206004820152601060248201526f11549497d1125597d25395115493905360821b604482015260640161074d565b60006107d5600285610de4565b6107df9083610e11565b9050818110156108245760405162461bcd60e51b815260206004820152601060248201526f11549497d1125597d25395115493905360821b604482015260640161074d565b60006108308583610de4565b93505050505b92915050565b600080600061084b8585610af9565b9150915080156108915760405162461bcd60e51b81526020600482015260116024820152704552525f5355425f554e444552464c4f5760781b604482015260640161074d565b509392505050565b600060018310156108e45760405162461bcd60e51b81526020600482015260156024820152744552525f42504f575f424153455f544f4f5f4c4f5760581b604482015260640161074d565b60016108f9670de0b6b3a76400006002610daf565b6109039190610e29565b83111561094b5760405162461bcd60e51b815260206004820152601660248201527508aa4a4be84a09eaebe8482a68abea89e9ebe90928e960531b604482015260640161074d565b600061095683610b30565b90506000610964848361083c565b9050600061097a8661097585610b4e565b610b62565b90508161098b579250610836915050565b60006109ae87846109a96402540be400670de0b6b3a7640000610de4565b610bde565b90506109ba82826109c5565b979650505050505050565b6000806109d28385610daf565b90508315806109e95750826109e78583610de4565b145b610a285760405162461bcd60e51b815260206004820152601060248201526f4552525f4d554c5f4f564552464c4f5760801b604482015260640161074d565b6000610a3d6002670de0b6b3a7640000610de4565b610a479083610e11565b905081811015610a8c5760405162461bcd60e51b815260206004820152601060248201526f4552525f4d554c5f4f564552464c4f5760801b604482015260640161074d565b6000610830670de0b6b3a764000083610de4565b600080610aad8385610e11565b905083811015610af25760405162461bcd60e51b815260206004820152601060248201526f4552525f4144445f4f564552464c4f5760801b604482015260640161074d565b9392505050565b600080828410610b1857610b0d8385610e29565b600091509150610b29565b610b228484610e29565b6001915091505b9250929050565b6000670de0b6b3a7640000610b4483610b4e565b6108369190610daf565b6000610836670de0b6b3a764000083610de4565b60008281610b71600285610e40565b610b8357670de0b6b3a7640000610b85565b815b9050610b92600285610de4565b93505b8315610bd657610ba582836109c5565b9150610bb2600285610e40565b15610bc457610bc181836109c5565b90505b610bcf600285610de4565b9350610b95565b949350505050565b6000828180610bf587670de0b6b3a7640000610af9565b9092509050670de0b6b3a764000080600060015b888410610cbf576000610c24670de0b6b3a764000083610daf565b9050600080610c448a610c3f85670de0b6b3a764000061083c565b610af9565b91509150610c5687610438848c6109c5565b9650610c628784610713565b965086610c7157505050610cbf565b8715610c7b579315935b8015610c85579315935b8415610c9c57610c95868861083c565b9550610ca9565b610ca68688610aa0565b95505b5050508080610cb790610e54565b915050610c09565b50909998505050505050505050565b600060208284031215610ce057600080fd5b81356001600160a01b0381168114610af257600080fd5b634e487b7160e01b600052604160045260246000fd5b600080600060c08486031215610d2257600080fd5b84601f850112610d3157600080fd5b6040516080810181811067ffffffffffffffff82111715610d5457610d54610cf7565b604052806080860187811115610d6957600080fd5b865b81811015610d83578035835260209283019201610d6b565b509197913596505060a094909401359392505050565b634e487b7160e01b600052601160045260246000fd5b6000816000190483118215151615610dc957610dc9610d99565b500290565b634e487b7160e01b600052601260045260246000fd5b600082610df357610df3610dce565b500490565b600060208284031215610e0a57600080fd5b5051919050565b60008219821115610e2457610e24610d99565b500190565b600082821015610e3b57610e3b610d99565b500390565b600082610e4f57610e4f610dce565b500690565b6000600019821415610e6857610e68610d99565b506001019056fea2646970667358221220c71e7a83f17f46173e67645b593b38f54e7b00674200a49347c157a1338f8b7464736f6c634300080c0033",
  "linkReferences": {},
  "deployedLinkReferences": {}
}