{
  "_format": "hh-sol-artifact-1",
  "contractName": "V3DTFactory",
  "sourceName": "contracts/v3/V3DTFactory.sol",
  "abi": [
    {
      "inputs": [
        {
          "internalType": "address",
          "name": "_template",
          "type": "address"
        },
        {
          "internalType": "address",
          "name": "_collector",
          "type": "address"
        }
      ],
      "stateMutability": "nonpayable",
      "type": "constructor"
    },
    {
      "anonymous": false,
      "inputs": [
        {
          "indexed": false,
          "internalType": "address",
          "name": "instance",
          "type": "address"
        }
      ],
      "name": "InstanceDeployed",
      "type": "event"
    },
    {
      "anonymous": false,
      "inputs": [
        {
          "indexed": true,
          "internalType": "address",
          "name": "newTokenAddress",
          "type": "address"
        },
        {
          "indexed": true,
          "internalType": "address",
          "name": "templateAddress",
          "type": "address"
        },
        {
          "indexed": true,
          "internalType": "string",
          "name": "tokenName",
          "type": "string"
        }
      ],
      "name": "TokenCreated",
      "type": "event"
    },
    {
      "anonymous": false,
      "inputs": [
        {
          "indexed": true,
          "internalType": "address",
          "name": "tokenAddress",
          "type": "address"
        },
        {
          "indexed": false,
          "internalType": "string",
          "name": "tokenName",
          "type": "string"
        },
        {
          "indexed": false,
          "internalType": "string",
          "name": "tokenSymbol",
          "type": "string"
        },
        {
          "indexed": false,
          "internalType": "uint256",
          "name": "tokenCap",
          "type": "uint256"
        },
        {
          "indexed": true,
          "internalType": "address",
          "name": "registeredBy",
          "type": "address"
        },
        {
          "indexed": true,
          "internalType": "string",
          "name": "blob",
          "type": "string"
        }
      ],
      "name": "TokenRegistered",
      "type": "event"
    },
    {
      "inputs": [
        {
          "internalType": "string",
          "name": "blob",
          "type": "string"
        },
        {
          "internalType": "string",
          "name": "name",
          "type": "string"
        },
        {
          "internalType": "string",
          "name": "symbol",
          "type": "string"
        },
        {
          "internalType": "uint256",
          "name": "cap",
          "type": "uint256"
        }
      ],
      "name": "createToken",
      "outputs": [
        {
          "internalType": "address",
          "name": "token",
          "type": "address"
        }
      ],
      "stateMutability": "nonpayable",
      "type": "function"
    },
    {
      "inputs": [],
      "name": "getCurrentTokenCount",
      "outputs": [
        {
          "internalType": "uint256",
          "name": "",
          "type": "uint256"
        }
      ],
      "stateMutability": "view",
      "type": "function"
    },
    {
      "inputs": [],
      "name": "getTokenTemplate",
      "outputs": [
        {
          "internalType": "address",
          "name": "",
          "type": "address"
        }
      ],
      "stateMutability": "view",
      "type": "function"
    }
  ],
  "bytecode": "0x6080604052600160025534801561001557600080fd5b506040516107fc3803806107fc83398101604081905261003491610121565b6001600160a01b0382161580159061005457506001600160a01b03811615155b6100d45760405162461bcd60e51b815260206004820152604160248201527f4454466163746f72793a20496e76616c69642074656d706c61746520746f6b6560448201527f6e2f636f6d6d756e6974792066656520636f6c6c6563746f72206164647265736064820152607360f81b608482015260a40160405180910390fd5b600080546001600160a01b039384166001600160a01b03199182161790915560018054929093169116179055610154565b80516001600160a01b038116811461011c57600080fd5b919050565b6000806040838503121561013457600080fd5b61013d83610105565b915061014b60208401610105565b90509250929050565b610699806101636000396000f3fe608060405234801561001057600080fd5b50600436106100415760003560e01c8063490aad7614610046578063c6cf868a14610070578063efbe8fd114610081575b600080fd5b6000546001600160a01b03165b6040516001600160a01b0390911681526020015b60405180910390f35b600254604051908152602001610067565b61005361008f36600461046e565b6000816100ee5760405162461bcd60e51b815260206004820152602260248201527f4454466163746f72793a207a65726f20636170206973206e6f7420616c6c6f77604482015261195960f21b60648201526084015b60405180910390fd5b600054610103906001600160a01b031661033b565b90506001600160a01b0381166101815760405162461bcd60e51b815260206004820152603a60248201527f4454466163746f72793a204661696c656420746f20706572666f726d206d696e60448201527f696d616c206465706c6f79206f662061206e657720746f6b656e00000000000060648201526084016100e5565b60015460405163120e1a5f60e31b815282916001600160a01b0380841692639070d2f8926101bf928a928a9233928b928f929091169060040161055a565b6020604051808303816000875af11580156101de573d6000803e3d6000fd5b505050506040513d601f19601f8201168201806040525081019061020291906105c2565b6102655760405162461bcd60e51b815260206004820152602e60248201527f4454466163746f72793a20556e61626c6520746f20696e697469616c697a652060448201526d746f6b656e20696e7374616e636560901b60648201526084016100e5565b8460405161027391906105eb565b6040519081900381206000805491926001600160a01b03928316928616917fb51c8cbe199ffe8b0d1d39b62d473569750653cb18b165f77ae423b3900180ad91a4856040516102c291906105eb565b6040518091039020336001600160a01b0316836001600160a01b03167f437e99a69c634128e67a85656b80d03b028ba37525b15070606e5c28e846984a88888860405161031193929190610607565b60405180910390a460016002600082825461032c919061063d565b90915550919695505050505050565b6000808260601b9050604051733d602d80600a3d3981f3363d3d373d3d3d363d7360601b81528160148201526e5af43d82803e903d91602b57fd5bf360881b60288201526037816000f06040516001600160a01b03821681529093507f117c72e6c25f0a072e36e148df71468ce2f3dbe7defec5b2c257a6e3eb65278c915060200160405180910390a150919050565b634e487b7160e01b600052604160045260246000fd5b600082601f8301126103f257600080fd5b813567ffffffffffffffff8082111561040d5761040d6103cb565b604051601f8301601f19908116603f01168101908282118183101715610435576104356103cb565b8160405283815286602085880101111561044e57600080fd5b836020870160208301376000602085830101528094505050505092915050565b6000806000806080858703121561048457600080fd5b843567ffffffffffffffff8082111561049c57600080fd5b6104a8888389016103e1565b955060208701359150808211156104be57600080fd5b6104ca888389016103e1565b945060408701359150808211156104e057600080fd5b506104ed878288016103e1565b949793965093946060013593505050565b60005b83811015610519578181015183820152602001610501565b83811115610528576000848401525b50505050565b600081518084526105468160208601602086016104fe565b601f01601f19169290920160200192915050565b60c08152600061056d60c083018961052e565b828103602084015261057f818961052e565b6001600160a01b0388811660408601526060850188905284820360808601529091506105ab828761052e565b925080851660a08501525050979650505050505050565b6000602082840312156105d457600080fd5b815180151581146105e457600080fd5b9392505050565b600082516105fd8184602087016104fe565b9190910192915050565b60608152600061061a606083018661052e565b828103602084015261062c818661052e565b915050826040830152949350505050565b6000821982111561065e57634e487b7160e01b600052601160045260246000fd5b50019056fea2646970667358221220ae3dd12a6c6f6b43e389f19643ca2e4a09e28982b4579ad68cb7ea4605edafb364736f6c634300080a0033",
  "linkReferences": {},
  "deployedLinkReferences": {}
}