{
  "_format": "hh-sol-artifact-1",
  "contractName": "BFactory",
  "sourceName": "contracts/pools/balancer/BFactory.sol",
  "abi": [
    {
      "inputs": [
        {
          "internalType": "address",
          "name": "_bpoolTemplate",
          "type": "address"
        },
        {
          "internalType": "address",
          "name": "_opfCollector",
          "type": "address"
        },
        {
          "internalType": "address[]",
          "name": "_preCreatedPools",
          "type": "address[]"
        }
      ],
      "stateMutability": "nonpayable",
      "type": "constructor"
    },
    {
      "anonymous": false,
      "inputs": [
        {
          "indexed": true,
          "internalType": "address",
          "name": "newBPoolAddress",
          "type": "address"
        },
        {
          "indexed": true,
          "internalType": "address",
          "name": "registeredBy",
          "type": "address"
        },
        {
          "indexed": true,
          "internalType": "address",
          "name": "datatokenAddress",
          "type": "address"
        },
        {
          "indexed": false,
          "internalType": "address",
          "name": "basetokenAddress",
          "type": "address"
        },
        {
          "indexed": false,
          "internalType": "address",
          "name": "bpoolTemplateAddress",
          "type": "address"
        },
        {
          "indexed": false,
          "internalType": "address",
          "name": "ssAddress",
          "type": "address"
        }
      ],
      "name": "BPoolCreated",
      "type": "event"
    },
    {
      "anonymous": false,
      "inputs": [
        {
          "indexed": false,
          "internalType": "address",
          "name": "instance",
          "type": "address"
        }
      ],
      "name": "InstanceDeployed",
      "type": "event"
    },
    {
      "inputs": [],
      "name": "BONE",
      "outputs": [
        {
          "internalType": "uint256",
          "name": "",
          "type": "uint256"
        }
      ],
      "stateMutability": "view",
      "type": "function"
    },
    {
      "inputs": [],
      "name": "BPOW_PRECISION",
      "outputs": [
        {
          "internalType": "uint256",
          "name": "",
          "type": "uint256"
        }
      ],
      "stateMutability": "view",
      "type": "function"
    },
    {
      "inputs": [],
      "name": "EXIT_FEE",
      "outputs": [
        {
          "internalType": "uint256",
          "name": "",
          "type": "uint256"
        }
      ],
      "stateMutability": "view",
      "type": "function"
    },
    {
      "inputs": [],
      "name": "INIT_POOL_SUPPLY",
      "outputs": [
        {
          "internalType": "uint256",
          "name": "",
          "type": "uint256"
        }
      ],
      "stateMutability": "view",
      "type": "function"
    },
    {
      "inputs": [],
      "name": "MAX_BOUND_TOKENS",
      "outputs": [
        {
          "internalType": "uint256",
          "name": "",
          "type": "uint256"
        }
      ],
      "stateMutability": "view",
      "type": "function"
    },
    {
      "inputs": [],
      "name": "MAX_BPOW_BASE",
      "outputs": [
        {
          "internalType": "uint256",
          "name": "",
          "type": "uint256"
        }
      ],
      "stateMutability": "view",
      "type": "function"
    },
    {
      "inputs": [],
      "name": "MAX_FEE",
      "outputs": [
        {
          "internalType": "uint256",
          "name": "",
          "type": "uint256"
        }
      ],
      "stateMutability": "view",
      "type": "function"
    },
    {
      "inputs": [],
      "name": "MAX_IN_RATIO",
      "outputs": [
        {
          "internalType": "uint256",
          "name": "",
          "type": "uint256"
        }
      ],
      "stateMutability": "view",
      "type": "function"
    },
    {
      "inputs": [],
      "name": "MAX_OUT_RATIO",
      "outputs": [
        {
          "internalType": "uint256",
          "name": "",
          "type": "uint256"
        }
      ],
      "stateMutability": "view",
      "type": "function"
    },
    {
      "inputs": [],
      "name": "MAX_TOTAL_WEIGHT",
      "outputs": [
        {
          "internalType": "uint256",
          "name": "",
          "type": "uint256"
        }
      ],
      "stateMutability": "view",
      "type": "function"
    },
    {
      "inputs": [],
      "name": "MAX_WEIGHT",
      "outputs": [
        {
          "internalType": "uint256",
          "name": "",
          "type": "uint256"
        }
      ],
      "stateMutability": "view",
      "type": "function"
    },
    {
      "inputs": [],
      "name": "MIN_BALANCE",
      "outputs": [
        {
          "internalType": "uint256",
          "name": "",
          "type": "uint256"
        }
      ],
      "stateMutability": "view",
      "type": "function"
    },
    {
      "inputs": [],
      "name": "MIN_BOUND_TOKENS",
      "outputs": [
        {
          "internalType": "uint256",
          "name": "",
          "type": "uint256"
        }
      ],
      "stateMutability": "view",
      "type": "function"
    },
    {
      "inputs": [],
      "name": "MIN_BPOW_BASE",
      "outputs": [
        {
          "internalType": "uint256",
          "name": "",
          "type": "uint256"
        }
      ],
      "stateMutability": "view",
      "type": "function"
    },
    {
      "inputs": [],
      "name": "MIN_FEE",
      "outputs": [
        {
          "internalType": "uint256",
          "name": "",
          "type": "uint256"
        }
      ],
      "stateMutability": "view",
      "type": "function"
    },
    {
      "inputs": [],
      "name": "MIN_WEIGHT",
      "outputs": [
        {
          "internalType": "uint256",
          "name": "",
          "type": "uint256"
        }
      ],
      "stateMutability": "view",
      "type": "function"
    },
    {
      "inputs": [
        {
          "internalType": "address",
          "name": "poolTemplate",
          "type": "address"
        }
      ],
      "name": "isPoolTemplate",
      "outputs": [
        {
          "internalType": "bool",
          "name": "",
          "type": "bool"
        }
      ],
      "stateMutability": "view",
      "type": "function"
    },
    {
      "inputs": [],
      "name": "opfCollector",
      "outputs": [
        {
          "internalType": "address",
          "name": "",
          "type": "address"
        }
      ],
      "stateMutability": "view",
      "type": "function"
    }
  ],
  "bytecode": "0x608060405234801561001057600080fd5b5060405161071238038061071283398101604081905261002f9161021d565b6001600160a01b0383166100a05760405162461bcd60e51b815260206004820152602d60248201527f42466163746f72793a20696e76616c69642062706f6f6c2074656d706c61746560448201526c207a65726f206164647265737360981b60648201526084015b60405180910390fd5b6001600160a01b0382166100f65760405162461bcd60e51b815260206004820152601660248201527f42466163746f72793a207a65726f2061646472657373000000000000000000006044820152606401610097565b600080546001600160a01b0319166001600160a01b03841617905561013c836001600160a01b03166000908152600160208190526040909120805460ff19169091179055565b8051156101e35760005b81518110156101e15760006001600160a01b0316336001600160a01b031683838151811061017657610176610305565b602090810291909101810151604080516000808252938101849052908101929092526001600160a01b0316907fbb6121447d29a04cc37bfd93cdf6a9dd08229f2d941116c1528f04698c4e790e9060600160405180910390a4806101d98161031b565b915050610146565b505b505050610344565b80516001600160a01b038116811461020257600080fd5b919050565b634e487b7160e01b600052604160045260246000fd5b60008060006060848603121561023257600080fd5b61023b846101eb565b9250602061024a8186016101eb565b60408601519093506001600160401b038082111561026757600080fd5b818701915087601f83011261027b57600080fd5b81518181111561028d5761028d610207565b8060051b604051601f19603f830116810181811085821117156102b2576102b2610207565b60405291825284820192508381018501918a8311156102d057600080fd5b938501935b828510156102f5576102e6856101eb565b845293850193928501926102d5565b8096505050505050509250925092565b634e487b7160e01b600052603260045260246000fd5b600060001982141561033d57634e487b7160e01b600052601160045260246000fd5b5060010190565b6103bf806103536000396000f3fe608060405234801561001057600080fd5b50600436106101165760003560e01c8063b7b800a4116100a2578063c07c00fe11610071578063c07c00fe146101b8578063c36596a61461013e578063c6580d12146101f4578063e4a28a521461011b578063ec093021146101fc57600080fd5b8063b7b800a414610198578063ba019dab146101a0578063bc063e1a146101a8578063bc694ea2146101b057600080fd5b8063867378c5116100e9578063867378c5146101555780639381cd2b1461015d578063992e2a9214610165578063a28f78f11461016d578063b0e0d1361461019857600080fd5b806309a3bbe41461011b578063189d00ca14610136578063218b53821461013e57806376c7a3c71461014d575b600080fd5b610123610204565b6040519081526020015b60405180910390f35b61012361021a565b610123670de0b6b3a764000081565b610123610231565b610123610246565b61012361025d565b610123610270565b600054610180906001600160a01b031681565b6040516001600160a01b03909116815260200161012d565b610123600281565b610123600181565b61012361028e565b6101236102a1565b6101e46101c63660046102d3565b6001600160a01b031660009081526001602052604090205460ff1690565b604051901515815260200161012d565b610123600081565b6101236102c0565b610217670de0b6b3a76400006032610319565b81565b6102176402540be400670de0b6b3a7640000610338565b610217620f4240670de0b6b3a7640000610338565b61021764e8d4a51000670de0b6b3a7640000610338565b610217670de0b6b3a76400006064610319565b6102836003670de0b6b3a7640000610338565b61021790600161035a565b610217600a670de0b6b3a7640000610338565b60016102b6670de0b6b3a76400006002610319565b6102179190610372565b6102176002670de0b6b3a7640000610338565b6000602082840312156102e557600080fd5b81356001600160a01b03811681146102fc57600080fd5b9392505050565b634e487b7160e01b600052601160045260246000fd5b600081600019048311821515161561033357610333610303565b500290565b60008261035557634e487b7160e01b600052601260045260246000fd5b500490565b6000821982111561036d5761036d610303565b500190565b60008282101561038457610384610303565b50039056fea26469706673582212207473fb1bce44c8cb190897a5fe10ec3c1e1c5ccf08be8c1e3ce63ceb1bd8369264736f6c634300080a0033",
  "linkReferences": {},
  "deployedLinkReferences": {}
}