{
  "_format": "hh-sol-artifact-1",
  "contractName": "SideStaking",
  "sourceName": "contracts/pools/ssContracts/SideStaking.sol",
  "abi": [
    {
      "inputs": [
        {
          "internalType": "address",
          "name": "_router",
          "type": "address"
        }
      ],
      "stateMutability": "nonpayable",
      "type": "constructor"
    },
    {
      "inputs": [
        {
          "internalType": "address",
          "name": "datatokenAddress",
          "type": "address"
        },
        {
          "internalType": "address",
          "name": "stakeToken",
          "type": "address"
        },
        {
          "internalType": "uint256",
          "name": "amount",
          "type": "uint256"
        }
      ],
      "name": "Stake",
      "outputs": [],
      "stateMutability": "nonpayable",
      "type": "function"
    },
    {
      "inputs": [
        {
          "internalType": "address",
          "name": "datatokenAddress",
          "type": "address"
        },
        {
          "internalType": "address",
          "name": "stakeToken",
          "type": "address"
        },
        {
          "internalType": "uint256",
          "name": "dtAmountIn",
          "type": "uint256"
        },
        {
          "internalType": "uint256",
          "name": "poolAmountOut",
          "type": "uint256"
        }
      ],
      "name": "UnStake",
      "outputs": [],
      "stateMutability": "nonpayable",
      "type": "function"
    },
    {
      "inputs": [
        {
          "internalType": "address",
          "name": "datatokenAddress",
          "type": "address"
        },
        {
          "internalType": "address",
          "name": "stakeToken",
          "type": "address"
        },
        {
          "internalType": "uint256",
          "name": "amount",
          "type": "uint256"
        }
      ],
      "name": "canStake",
      "outputs": [
        {
          "internalType": "bool",
          "name": "",
          "type": "bool"
        }
      ],
      "stateMutability": "view",
      "type": "function"
    },
    {
      "inputs": [
        {
          "internalType": "address",
          "name": "datatokenAddress",
          "type": "address"
        },
        {
          "internalType": "address",
          "name": "stakeToken",
          "type": "address"
        },
        {
          "internalType": "uint256",
          "name": "lptIn",
          "type": "uint256"
        }
      ],
      "name": "canUnStake",
      "outputs": [
        {
          "internalType": "bool",
          "name": "",
          "type": "bool"
        }
      ],
      "stateMutability": "view",
      "type": "function"
    },
    {
      "inputs": [
        {
          "internalType": "address",
          "name": "datatokenAddress",
          "type": "address"
        }
      ],
      "name": "getAvailableVesting",
      "outputs": [
        {
          "internalType": "uint256",
          "name": "",
          "type": "uint256"
        }
      ],
      "stateMutability": "view",
      "type": "function"
    },
    {
      "inputs": [
        {
          "internalType": "address",
          "name": "datatokenAddress",
          "type": "address"
        }
      ],
      "name": "getBaseTokenAddress",
      "outputs": [
        {
          "internalType": "address",
          "name": "",
          "type": "address"
        }
      ],
      "stateMutability": "view",
      "type": "function"
    },
    {
      "inputs": [
        {
          "internalType": "address",
          "name": "datatokenAddress",
          "type": "address"
        }
      ],
      "name": "getBaseTokenBalance",
      "outputs": [
        {
          "internalType": "uint256",
          "name": "",
          "type": "uint256"
        }
      ],
      "stateMutability": "view",
      "type": "function"
    },
    {
      "inputs": [
        {
          "internalType": "address",
          "name": "datatokenAddress",
          "type": "address"
        }
      ],
      "name": "getDatatokenBalance",
      "outputs": [
        {
          "internalType": "uint256",
          "name": "",
          "type": "uint256"
        }
      ],
      "stateMutability": "view",
      "type": "function"
    },
    {
      "inputs": [
        {
          "internalType": "address",
          "name": "datatokenAddress",
          "type": "address"
        }
      ],
      "name": "getDatatokenCirculatingSupply",
      "outputs": [
        {
          "internalType": "uint256",
          "name": "",
          "type": "uint256"
        }
      ],
      "stateMutability": "view",
      "type": "function"
    },
    {
      "inputs": [
        {
          "internalType": "address",
          "name": "datatokenAddress",
          "type": "address"
        }
      ],
      "name": "getDatatokenCurrentCirculatingSupply",
      "outputs": [
        {
          "internalType": "uint256",
          "name": "",
          "type": "uint256"
        }
      ],
      "stateMutability": "view",
      "type": "function"
    },
    {
      "inputs": [],
      "name": "getId",
      "outputs": [
        {
          "internalType": "uint8",
          "name": "",
          "type": "uint8"
        }
      ],
      "stateMutability": "pure",
      "type": "function"
    },
    {
      "inputs": [
        {
          "internalType": "address",
          "name": "datatokenAddress",
          "type": "address"
        }
      ],
      "name": "getPoolAddress",
      "outputs": [
        {
          "internalType": "address",
          "name": "",
          "type": "address"
        }
      ],
      "stateMutability": "view",
      "type": "function"
    },
    {
      "inputs": [
        {
          "internalType": "address",
          "name": "datatokenAddress",
          "type": "address"
        }
      ],
      "name": "getPublisherAddress",
      "outputs": [
        {
          "internalType": "address",
          "name": "",
          "type": "address"
        }
      ],
      "stateMutability": "view",
      "type": "function"
    },
    {
      "inputs": [
        {
          "internalType": "address",
          "name": "datatokenAddress",
          "type": "address"
        }
      ],
      "name": "getVesting",
      "outputs": [],
      "stateMutability": "nonpayable",
      "type": "function"
    },
    {
      "inputs": [
        {
          "internalType": "address",
          "name": "datatokenAddress",
          "type": "address"
        }
      ],
      "name": "getvestingAmount",
      "outputs": [
        {
          "internalType": "uint256",
          "name": "",
          "type": "uint256"
        }
      ],
      "stateMutability": "view",
      "type": "function"
    },
    {
      "inputs": [
        {
          "internalType": "address",
          "name": "datatokenAddress",
          "type": "address"
        }
      ],
      "name": "getvestingAmountSoFar",
      "outputs": [
        {
          "internalType": "uint256",
          "name": "",
          "type": "uint256"
        }
      ],
      "stateMutability": "view",
      "type": "function"
    },
    {
      "inputs": [
        {
          "internalType": "address",
          "name": "datatokenAddress",
          "type": "address"
        }
      ],
      "name": "getvestingEndBlock",
      "outputs": [
        {
          "internalType": "uint256",
          "name": "",
          "type": "uint256"
        }
      ],
      "stateMutability": "view",
      "type": "function"
    },
    {
      "inputs": [
        {
          "internalType": "address",
          "name": "datatokenAddress",
          "type": "address"
        }
      ],
      "name": "getvestingLastBlock",
      "outputs": [
        {
          "internalType": "uint256",
          "name": "",
          "type": "uint256"
        }
      ],
      "stateMutability": "view",
      "type": "function"
    },
    {
      "inputs": [
        {
          "internalType": "address",
          "name": "datatokenAddress",
          "type": "address"
        },
        {
          "internalType": "address",
          "name": "baseTokenAddress",
          "type": "address"
        },
        {
          "internalType": "address",
          "name": "poolAddress",
          "type": "address"
        },
        {
          "internalType": "address",
          "name": "publisherAddress",
          "type": "address"
        },
        {
          "internalType": "uint256[]",
          "name": "ssParams",
          "type": "uint256[]"
        }
      ],
      "name": "newDatatokenCreated",
      "outputs": [
        {
          "internalType": "bool",
          "name": "",
          "type": "bool"
        }
      ],
      "stateMutability": "nonpayable",
      "type": "function"
    },
    {
      "inputs": [],
      "name": "router",
      "outputs": [
        {
          "internalType": "address",
          "name": "",
          "type": "address"
        }
      ],
      "stateMutability": "view",
      "type": "function"
    },
    {
      "inputs": [
        {
          "internalType": "address",
          "name": "datatokenAddress",
          "type": "address"
        },
        {
          "internalType": "address",
          "name": "poolAddress",
          "type": "address"
        },
        {
          "internalType": "uint256",
          "name": "swapFee",
          "type": "uint256"
        }
      ],
      "name": "setPoolSwapFee",
      "outputs": [],
      "stateMutability": "nonpayable",
      "type": "function"
    }
  ],
  "bytecode": "0x60806040523480156200001157600080fd5b5060405162002661380380620026618339810160408190526200003491620000ba565b60016000556001600160a01b038116620000945760405162461bcd60e51b815260206004820152601760248201527f496e76616c6964205f726f757465722061646472657373000000000000000000604482015260640160405180910390fd5b600180546001600160a01b0319166001600160a01b0392909216919091179055620000ec565b600060208284031215620000cd57600080fd5b81516001600160a01b0381168114620000e557600080fd5b9392505050565b61256580620000fc6000396000f3fe608060405234801561001057600080fd5b50600436106101375760003560e01c806399039fcf116100b8578063efd481031161007c578063efd4810314610292578063f03cd396146102a5578063f6da805f146102b8578063f887ea40146102cb578063fa93fd6d146102de578063ff299f33146102f157600080fd5b806399039fcf14610233578063bccf74fe14610246578063bcf7135e14610259578063c4be24901461026c578063cc49ede71461027f57600080fd5b806367f5494d116100ff57806367f5494d146101d25780636aca230c146101e5578063799ece85146101f85780637b01ab301461020b57806383b87e5a1461022057600080fd5b80631228cbee1461013c5780631f16cde61461016c5780632686375b1461017f57806326b1f01f146101a05780635d1ca631146101c3575b600080fd5b61014f61014a36600461201b565b610304565b6040516001600160a01b0390911681526020015b60405180910390f35b61014f61017a36600461201b565b61034e565b61019261018d36600461201b565b610398565b604051908152602001610163565b6101b36101ae366004612038565b6103df565b6040519015158152602001610163565b60405160018152602001610163565b6101926101e036600461201b565b6104ec565b6101926101f336600461201b565b610549565b61019261020636600461201b565b610644565b61021e610219366004612079565b61068b565b005b6101b361022e366004612106565b61076b565b61021e610241366004612038565b6110bf565b61019261025436600461201b565b6111ca565b61019261026736600461201b565b611211565b61019261027a36600461201b565b611259565b61021e61028d36600461201b565b6112a0565b6101b36102a0366004612038565b611402565b6101926102b336600461201b565b611506565b6101926102c636600461201b565b61154d565b60015461014f906001600160a01b031681565b61014f6102ec36600461201b565b6115b3565b61021e6102ff366004612038565b6115ff565b6001600160a01b03811660009081526002602052604081205460ff1661032c57506000919050565b506001600160a01b039081166000908152600260205260409020600101541690565b6001600160a01b03811660009081526002602052604081205460ff1661037657506000919050565b506001600160a01b039081166000908152600260205260409020600701541690565b6001600160a01b03811660009081526002602052604081205460ff166103c057506000919050565b506001600160a01b03166000908152600260205260409020600a015490565b6001600160a01b0383811660009081526002602052604081206001015490911633146104265760405162461bcd60e51b815260040161041d906121f9565b60405180910390fd5b6001600160a01b03841660009081526002602052604090205460ff1661044e575060006104e5565b6001600160a01b03848116600090815260026020526040902054610100900481169084161415610480575060006104e5565b6001600160a01b0384166000908152600260205260409020600c810154600a909101546104ad9190612246565b6104b7908361225d565b6001600160a01b03851660009081526002602081905260409091200154106104e1575060016104e5565b5060005b9392505050565b6001600160a01b03811660009081526002602052604081205460ff1661051457506000919050565b6001600160a01b0382166000908152600260208190526040909120908101546003909101546105439190612246565b92915050565b6001600160a01b038116600090815260026020526040812060090154819081904311156105a4576001600160a01b0384166000908152600260205260409020600b81015460099091015461059d9190612246565b90506105cd565b6001600160a01b0384166000908152600260205260409020600b01546105ca9043612246565b90505b6001600160a01b0384166000908152600260205260408120600881015460099091015461061f916105fd91612246565b6001600160a01b0387166000908152600260205260409020600a01549061190f565b90508061063157506000949350505050565b61063b828261191b565b95945050505050565b6001600160a01b03811660009081526002602052604081205460ff1661066c57506000919050565b506001600160a01b031660009081526002602052604090206009015490565b600260005414156106ae5760405162461bcd60e51b815260040161041d90612275565b600260008181556001600160a01b0386168152602091909152604090205460ff166106d857610760565b6001600160a01b038481166000908152600260205260409020600101541633146107145760405162461bcd60e51b815260040161041d906121f9565b6000610721858584611402565b90508061072e5750610760565b6001600160a01b0385166000908152600260208190526040822001805485929061075990849061225d565b9091555050505b505060016000555050565b6001546000906001600160a01b031633146107b65760405162461bcd60e51b815260206004820152600b60248201526a27a7262c902927aaaa22a960a91b604482015260640161041d565b600260005414156107d95760405162461bcd60e51b815260040161041d90612275565b60026000556001600160a01b03841661082a5760405162461bcd60e51b8152602060048201526013602482015272496e76616c696420706f6f6c4164647265737360681b604482015260640161041d565b6000849050306001600160a01b0316816001600160a01b0316633018205f6040518163ffffffff1660e01b8152600401602060405180830381865afa158015610877573d6000803e3d6000fd5b505050506040513d601f19601f8201168201806040525081019061089b91906122ac565b6001600160a01b0316146108f15760405162461bcd60e51b815260206004820152601e60248201527f576520617265206e6f742074686520706f6f6c20636f6e74726f6c6c65720000604482015260640161041d565b866001600160a01b0316816001600160a01b031663458c3fb56040518163ffffffff1660e01b8152600401602060405180830381865afa158015610939573d6000803e3d6000fd5b505050506040513d601f19601f8201168201806040525081019061095d91906122ac565b6001600160a01b0316146109b35760405162461bcd60e51b815260206004820152601b60248201527f44617461746f6b656e2061646472657373206d6973736d617463680000000000604482015260640161041d565b856001600160a01b0316816001600160a01b0316634df947d06040518163ffffffff1660e01b8152600401602060405180830381865afa1580156109fb573d6000803e3d6000fd5b505050506040513d601f19601f82011682018060405250810190610a1f91906122ac565b6001600160a01b031614610a755760405162461bcd60e51b815260206004820152601b60248201527f62617365546f6b656e2061646472657373206d6973736d617463680000000000604482015260640161041d565b604051623d104160e31b815230600482015287906001600160a01b038216906301e88208906024016040805180830381865afa158015610ab9573d6000803e3d6000fd5b505050506040513d601f19601f82011682018060405250810190610add91906122de565b51610b2a5760405162461bcd60e51b815260206004820152601a60248201527f62617365546f6b656e2061646472657373206d69736d61746368000000000000604482015260640161041d565b806001600160a01b03166340c10f1930836001600160a01b031663355274ea6040518163ffffffff1660e01b8152600401602060405180830381865afa158015610b78573d6000803e3d6000fd5b505050506040513d601f19601f82011682018060405250810190610b9c9190612339565b6040516001600160e01b031960e085901b1681526001600160a01b0390921660048301526024820152604401600060405180830381600087803b158015610be257600080fd5b505af1158015610bf6573d6000803e3d6000fd5b50505050806001600160a01b03166318160ddd6040518163ffffffff1660e01b8152600401602060405180830381865afa158015610c38573d6000803e3d6000fd5b505050506040513d601f19601f82011682018060405250810190610c5c9190612339565b6040516370a0823160e01b81523060048201526001600160a01b038316906370a0823190602401602060405180830381865afa158015610ca0573d6000803e3d6000fd5b505050506040513d601f19601f82011682018060405250810190610cc49190612339565b14610cff5760405162461bcd60e51b815260206004820152600b60248201526a135a5b9d0819985a5b195960aa1b604482015260640161041d565b83600281518110610d1257610d12612352565b6020026020010151610d87600a836001600160a01b03166318160ddd6040518163ffffffff1660e01b8152600401602060405180830381865afa158015610d5d573d6000803e3d6000fd5b505050506040513d601f19601f82011682018060405250810190610d819190612339565b9061190f565b1015610dc75760405162461bcd60e51b815260206004820152600f60248201526e4d61782076657374696e672031302560881b604482015260640161041d565b604051806101e00160405280600115158152602001886001600160a01b03168152602001876001600160a01b03168152602001600015158152602001826001600160a01b03166318160ddd6040518163ffffffff1660e01b8152600401602060405180830381865afa158015610e41573d6000803e3d6000fd5b505050506040513d601f19601f82011682018060405250810190610e659190612339565b8152602001826001600160a01b031663355274ea6040518163ffffffff1660e01b8152600401602060405180830381865afa158015610ea8573d6000803e3d6000fd5b505050506040513d601f19601f82011682018060405250810190610ecc9190612339565b815260200185600481518110610ee457610ee4612352565b602002602001015181526020016000815260200185600081518110610f0b57610f0b612352565b60200260200101518152602001866001600160a01b0316815260200143815260200185600381518110610f4057610f40612352565b602002602001015143610f53919061225d565b815260200185600281518110610f6b57610f6b612352565b60209081029190910181015182524382820152600060409283018190526001600160a01b038c8116825260028084529184902085518154948701516001600160a81b0319958616911515610100600160a81b031916919091176101009184168202178255948601516001808301805460608a0151938616971696909617600160a01b921515929092029190911790945560808601519281019290925560a0850151600383015560c0850151600483015560e085015160058301559284015160068201556101208401516007820180546001600160a01b031916919094161790925561014083015160088301556101608301516009830155610180830151600a8301556101a0830151600b8301556101c090920151600c9091015584516110ab918a91879190811061109e5761109e612352565b6020026020010151611927565b600192505050600160005595945050505050565b600260005414156110e25760405162461bcd60e51b815260040161041d90612275565b600260008181556001600160a01b0385168152602091909152604090205460ff1661110c576111c0565b6001600160a01b038381166000908152600260205260409020600101541633146111485760405162461bcd60e51b815260040161041d906121f9565b60006111558484846103df565b90508061116257506111c0565b6001600160a01b03808516600081815260026020526040902060010154869261118d92911685611c99565b6001600160a01b038516600090815260026020819052604082200180548592906111b8908490612246565b909155505050505b5050600160005550565b6001600160a01b03811660009081526002602052604081205460ff166111f257506000919050565b506001600160a01b03166000908152600260205260409020600c015490565b6001600160a01b03811660009081526002602052604081205460ff1661123957506000919050565b506001600160a01b03166000908152600260208190526040909120015490565b6001600160a01b03811660009081526002602052604081205460ff1661128157506000919050565b506001600160a01b031660009081526002602052604090206004015490565b600260005414156112c35760405162461bcd60e51b815260040161041d90612275565b600260008181556001600160a01b0383168152602091909152604090205460ff166113285760405162461bcd60e51b815260206004820152601560248201527422a9291d24b73b30b634b2103230ba30ba37b5b2b760591b604482015260640161041d565b600061133382610549565b905060008111801561136157506001600160a01b038216600090815260026020819052604090912001548111155b156113f9576001600160a01b03808316600081815260026020526040902043600b82015560070154849261139792911684611d84565b6001600160a01b038316600090815260026020819052604082200180548492906113c2908490612246565b90915550506001600160a01b0383166000908152600260205260408120600c0180548492906113f290849061225d565b9091555050505b50506001600055565b6001600160a01b03831660009081526002602052604081205460ff1661142a575060006104e5565b6001600160a01b038481166000908152600260205260409020600101541633146114665760405162461bcd60e51b815260040161041d906121f9565b6001600160a01b03848116600090815260026020526040902054610100900481169084161415611498575060006104e5565b6040516370a0823160e01b8152306004820152829033906370a0823190602401602060405180830381865afa1580156114d5573d6000803e3d6000fd5b505050506040513d601f19601f820116820180604052508101906114f99190612339565b106104e1575060016104e5565b6001600160a01b03811660009081526002602052604081205460ff1661152e57506000919050565b506001600160a01b03166000908152600260205260409020600b015490565b6001600160a01b03811660009081526002602052604081205460ff1661157557506000919050565b6001600160a01b0382166000908152600260208190526040909120600c810154918101546003909101546115a99190612246565b6105439190612246565b6001600160a01b03811660009081526002602052604081205460ff166115db57506000919050565b506001600160a01b0390811660009081526002602052604090205461010090041690565b600260005414156116225760405162461bcd60e51b815260040161041d90612275565b60026000556001600160a01b0382166116735760405162461bcd60e51b8152602060048201526013602482015272496e76616c696420706f6f6c4164647265737360681b604482015260640161041d565b6000829050306001600160a01b0316816001600160a01b0316633018205f6040518163ffffffff1660e01b8152600401602060405180830381865afa1580156116c0573d6000803e3d6000fd5b505050506040513d601f19601f820116820180604052508101906116e491906122ac565b6001600160a01b03161461173a5760405162461bcd60e51b815260206004820152601e60248201527f576520617265206e6f742074686520706f6f6c20636f6e74726f6c6c65720000604482015260640161041d565b836001600160a01b0316816001600160a01b031663458c3fb56040518163ffffffff1660e01b8152600401602060405180830381865afa158015611782573d6000803e3d6000fd5b505050506040513d601f19601f820116820180604052508101906117a691906122ac565b6001600160a01b0316146117fc5760405162461bcd60e51b815260206004820152601b60248201527f44617461746f6b656e2061646472657373206d6973736d617463680000000000604482015260640161041d565b6040516396fb3eaf60e01b815233600482015284906001600160a01b038216906396fb3eaf906024016020604051808303816000875af1158015611844573d6000803e3d6000fd5b505050506040513d601f19601f820116820180604052508101906118689190612368565b6118a95760405162461bcd60e51b81526020600482015260126024820152712737ba1022a9219918102232b83637bcb2b960711b604482015260640161041d565b6040516334e1990760e01b8152600481018490526001600160a01b038316906334e1990790602401600060405180830381600087803b1580156118eb57600080fd5b505af11580156118ff573d6000803e3d6000fd5b5050600160005550505050505050565b60006104e58284612383565b60006104e582846123a5565b6001600160a01b03821660009081526002602052604090205460ff1661194b575050565b6001600160a01b038216600090815260026020526040902060010154600160a01b900460ff161561197a575050565b6001600160a01b0382166000908152600260205260408120600101805460ff60a01b1916600160a01b1790556119b9670de0b6b3a764000060056123a5565b905060006119d0670de0b6b3a764000060056123a5565b6001600160a01b0385166000908152600260205260408120600401549192506119fa856012612246565b611a0590600a6124a8565b6001600160a01b038716600090815260026020526040902060060154670de0b6b3a76400009086908690611a3a9087906123a5565b611a4491906123a5565b611a4e9190612383565b611a589190612383565b611a6291906123a5565b6001600160a01b038088166000818152600260205260409020600101549293508892611a8f921684611c99565b6001600160a01b0380881660009081526002602052604090208054600190910154610100909104821691611ac69183911686611c99565b6001600160a01b03888116600081815260026020526040908190206001810154905491516309ef3f5b60e01b815260048101939093526024830187905260448301899052610100909104831660648301526084820187905260a482018990529091169081906309ef3f5b9060c401600060405180830381600087803b158015611b4e57600080fd5b505af1158015611b62573d6000803e3d6000fd5b505050506001600160a01b03891660009081526002602052604081206004018054879290611b91908490612246565b90915550506001600160a01b03891660009081526002602081905260408220018054869290611bc1908490612246565b90915550506001600160a01b038981166000908152600260205260408082206001015490516370a0823160e01b815230600482015292169182906370a0823190602401602060405180830381865afa158015611c21573d6000803e3d6000fd5b505050506040513d601f19601f82011682018060405250810190611c459190612339565b6001600160a01b03808d16600090815260026020819052604090912060070154929350611c8c9290911690611c7b90849061190f565b6001600160a01b0385169190611d84565b5050505050505050505050565b604051636eb1769f60e11b81523060048201526001600160a01b038381166024830152600091839186169063dd62ed3e90604401602060405180830381865afa158015611cea573d6000803e3d6000fd5b505050506040513d601f19601f82011682018060405250810190611d0e9190612339565b611d18919061225d565b6040516001600160a01b038516602482015260448101829052909150611d7e90859063095ea7b360e01b906064015b60408051601f198184030181529190526020810180516001600160e01b03166001600160e01b031990931692909217909152611db9565b50505050565b6040516001600160a01b038316602482015260448101829052611db490849063a9059cbb60e01b90606401611d47565b505050565b6000611e0e826040518060400160405280602081526020017f5361666545524332303a206c6f772d6c6576656c2063616c6c206661696c6564815250856001600160a01b0316611e8b9092919063ffffffff16565b805190915015611db45780806020019051810190611e2c9190612368565b611db45760405162461bcd60e51b815260206004820152602a60248201527f5361666545524332303a204552433230206f7065726174696f6e20646964206e6044820152691bdd081cdd58d8d9595960b21b606482015260840161041d565b6060611e9a8484600085611ea2565b949350505050565b606082471015611f035760405162461bcd60e51b815260206004820152602660248201527f416464726573733a20696e73756666696369656e742062616c616e636520666f6044820152651c8818d85b1b60d21b606482015260840161041d565b843b611f515760405162461bcd60e51b815260206004820152601d60248201527f416464726573733a2063616c6c20746f206e6f6e2d636f6e7472616374000000604482015260640161041d565b600080866001600160a01b03168587604051611f6d91906124e0565b60006040518083038185875af1925050503d8060008114611faa576040519150601f19603f3d011682016040523d82523d6000602084013e611faf565b606091505b5091509150611fbf828286611fca565b979650505050505050565b60608315611fd95750816104e5565b825115611fe95782518084602001fd5b8160405162461bcd60e51b815260040161041d91906124fc565b6001600160a01b038116811461201857600080fd5b50565b60006020828403121561202d57600080fd5b81356104e581612003565b60008060006060848603121561204d57600080fd5b833561205881612003565b9250602084013561206881612003565b929592945050506040919091013590565b6000806000806080858703121561208f57600080fd5b843561209a81612003565b935060208501356120aa81612003565b93969395505050506040820135916060013590565b634e487b7160e01b600052604160045260246000fd5b604051601f8201601f1916810167ffffffffffffffff811182821017156120fe576120fe6120bf565b604052919050565b600080600080600060a0868803121561211e57600080fd5b853561212981612003565b945060208681013561213a81612003565b9450604087013561214a81612003565b9350606087013561215a81612003565b9250608087013567ffffffffffffffff8082111561217757600080fd5b818901915089601f83011261218b57600080fd5b81358181111561219d5761219d6120bf565b8060051b91506121ae8483016120d5565b818152918301840191848101908c8411156121c857600080fd5b938501935b838510156121e6578435825293850193908501906121cd565b8096505050505050509295509295909350565b6020808252601c908201527f4552523a204f6e6c7920706f6f6c2063616e2063616c6c207468697300000000604082015260600190565b634e487b7160e01b600052601160045260246000fd5b60008282101561225857612258612230565b500390565b6000821982111561227057612270612230565b500190565b6020808252601f908201527f5265656e7472616e637947756172643a207265656e7472616e742063616c6c00604082015260600190565b6000602082840312156122be57600080fd5b81516104e581612003565b805180151581146122d957600080fd5b919050565b6000604082840312156122f057600080fd5b6040516040810181811067ffffffffffffffff82111715612313576123136120bf565b60405261231f836122c9565b815261232d602084016122c9565b60208201529392505050565b60006020828403121561234b57600080fd5b5051919050565b634e487b7160e01b600052603260045260246000fd5b60006020828403121561237a57600080fd5b6104e5826122c9565b6000826123a057634e487b7160e01b600052601260045260246000fd5b500490565b60008160001904831182151516156123bf576123bf612230565b500290565b600181815b808511156123ff5781600019048211156123e5576123e5612230565b808516156123f257918102915b93841c93908002906123c9565b509250929050565b60008261241657506001610543565b8161242357506000610543565b816001811461243957600281146124435761245f565b6001915050610543565b60ff84111561245457612454612230565b50506001821b610543565b5060208310610133831016604e8410600b8410161715612482575081810a610543565b61248c83836123c4565b80600019048211156124a0576124a0612230565b029392505050565b60006104e58383612407565b60005b838110156124cf5781810151838201526020016124b7565b83811115611d7e5750506000910152565b600082516124f28184602087016124b4565b9190910192915050565b602081526000825180602084015261251b8160408501602087016124b4565b601f01601f1916919091016040019291505056fea2646970667358221220eb67a68e28feb1d4f3e9c7f3061e7e4478fda57a1f8076a1c0b0945e8cd4c9cf64736f6c634300080a0033",
  "linkReferences": {},
  "deployedLinkReferences": {}
}