{
  "_format": "hh-sol-artifact-1",
  "contractName": "SideStaking",
  "sourceName": "contracts/pools/ssContracts/SideStaking.sol",
  "abi": [
    {
      "inputs": [
        {
          "internalType": "address",
          "name": "_router",
          "type": "address"
        }
      ],
      "stateMutability": "nonpayable",
      "type": "constructor"
    },
    {
      "inputs": [
        {
          "internalType": "address",
          "name": "datatokenAddress",
          "type": "address"
        },
        {
          "internalType": "address",
          "name": "stakeToken",
          "type": "address"
        },
        {
          "internalType": "uint256",
          "name": "amount",
          "type": "uint256"
        }
      ],
      "name": "Stake",
      "outputs": [],
      "stateMutability": "nonpayable",
      "type": "function"
    },
    {
      "inputs": [
        {
          "internalType": "address",
          "name": "datatokenAddress",
          "type": "address"
        },
        {
          "internalType": "address",
          "name": "stakeToken",
          "type": "address"
        },
        {
          "internalType": "uint256",
          "name": "dtAmountIn",
          "type": "uint256"
        },
        {
          "internalType": "uint256",
          "name": "poolAmountOut",
          "type": "uint256"
        }
      ],
      "name": "UnStake",
      "outputs": [],
      "stateMutability": "nonpayable",
      "type": "function"
    },
    {
      "inputs": [
        {
          "internalType": "address",
          "name": "datatokenAddress",
          "type": "address"
        },
        {
          "internalType": "address",
          "name": "stakeToken",
          "type": "address"
        },
        {
          "internalType": "uint256",
          "name": "amount",
          "type": "uint256"
        }
      ],
      "name": "canStake",
      "outputs": [
        {
          "internalType": "bool",
          "name": "",
          "type": "bool"
        }
      ],
      "stateMutability": "view",
      "type": "function"
    },
    {
      "inputs": [
        {
          "internalType": "address",
          "name": "datatokenAddress",
          "type": "address"
        },
        {
          "internalType": "address",
          "name": "stakeToken",
          "type": "address"
        },
        {
          "internalType": "uint256",
          "name": "lptIn",
          "type": "uint256"
        }
      ],
      "name": "canUnStake",
      "outputs": [
        {
          "internalType": "bool",
          "name": "",
          "type": "bool"
        }
      ],
      "stateMutability": "view",
      "type": "function"
    },
    {
      "inputs": [
        {
          "internalType": "address",
          "name": "datatokenAddress",
          "type": "address"
        }
      ],
      "name": "getBaseTokenAddress",
      "outputs": [
        {
          "internalType": "address",
          "name": "",
          "type": "address"
        }
      ],
      "stateMutability": "view",
      "type": "function"
    },
    {
      "inputs": [
        {
          "internalType": "address",
          "name": "datatokenAddress",
          "type": "address"
        }
      ],
      "name": "getBaseTokenBalance",
      "outputs": [
        {
          "internalType": "uint256",
          "name": "",
          "type": "uint256"
        }
      ],
      "stateMutability": "view",
      "type": "function"
    },
    {
      "inputs": [
        {
          "internalType": "address",
          "name": "datatokenAddress",
          "type": "address"
        }
      ],
      "name": "getDataTokenBalance",
      "outputs": [
        {
          "internalType": "uint256",
          "name": "",
          "type": "uint256"
        }
      ],
      "stateMutability": "view",
      "type": "function"
    },
    {
      "inputs": [
        {
          "internalType": "address",
          "name": "datatokenAddress",
          "type": "address"
        }
      ],
      "name": "getDataTokenCirculatingSupply",
      "outputs": [
        {
          "internalType": "uint256",
          "name": "",
          "type": "uint256"
        }
      ],
      "stateMutability": "view",
      "type": "function"
    },
    {
      "inputs": [
        {
          "internalType": "address",
          "name": "datatokenAddress",
          "type": "address"
        }
      ],
      "name": "getDataTokenCurrentCirculatingSupply",
      "outputs": [
        {
          "internalType": "uint256",
          "name": "",
          "type": "uint256"
        }
      ],
      "stateMutability": "view",
      "type": "function"
    },
    {
      "inputs": [
        {
          "internalType": "address",
          "name": "datatokenAddress",
          "type": "address"
        }
      ],
      "name": "getPoolAddress",
      "outputs": [
        {
          "internalType": "address",
          "name": "",
          "type": "address"
        }
      ],
      "stateMutability": "view",
      "type": "function"
    },
    {
      "inputs": [
        {
          "internalType": "address",
          "name": "datatokenAddress",
          "type": "address"
        }
      ],
      "name": "getPublisherAddress",
      "outputs": [
        {
          "internalType": "address",
          "name": "",
          "type": "address"
        }
      ],
      "stateMutability": "view",
      "type": "function"
    },
    {
      "inputs": [
        {
          "internalType": "address",
          "name": "datatokenAddress",
          "type": "address"
        }
      ],
      "name": "getVesting",
      "outputs": [],
      "stateMutability": "nonpayable",
      "type": "function"
    },
    {
      "inputs": [
        {
          "internalType": "address",
          "name": "datatokenAddress",
          "type": "address"
        }
      ],
      "name": "getvestingAmount",
      "outputs": [
        {
          "internalType": "uint256",
          "name": "",
          "type": "uint256"
        }
      ],
      "stateMutability": "view",
      "type": "function"
    },
    {
      "inputs": [
        {
          "internalType": "address",
          "name": "datatokenAddress",
          "type": "address"
        }
      ],
      "name": "getvestingAmountSoFar",
      "outputs": [
        {
          "internalType": "uint256",
          "name": "",
          "type": "uint256"
        }
      ],
      "stateMutability": "view",
      "type": "function"
    },
    {
      "inputs": [
        {
          "internalType": "address",
          "name": "datatokenAddress",
          "type": "address"
        }
      ],
      "name": "getvestingEndBlock",
      "outputs": [
        {
          "internalType": "uint256",
          "name": "",
          "type": "uint256"
        }
      ],
      "stateMutability": "view",
      "type": "function"
    },
    {
      "inputs": [
        {
          "internalType": "address",
          "name": "datatokenAddress",
          "type": "address"
        }
      ],
      "name": "getvestingLastBlock",
      "outputs": [
        {
          "internalType": "uint256",
          "name": "",
          "type": "uint256"
        }
      ],
      "stateMutability": "view",
      "type": "function"
    },
    {
      "inputs": [
        {
          "internalType": "address",
          "name": "datatokenAddress",
          "type": "address"
        },
        {
          "internalType": "address",
          "name": "basetokenAddress",
          "type": "address"
        },
        {
          "internalType": "address",
          "name": "poolAddress",
          "type": "address"
        },
        {
          "internalType": "address",
          "name": "publisherAddress",
          "type": "address"
        },
        {
          "internalType": "uint256[]",
          "name": "ssParams",
          "type": "uint256[]"
        }
      ],
      "name": "newDataTokenCreated",
      "outputs": [
        {
          "internalType": "bool",
          "name": "",
          "type": "bool"
        }
      ],
      "stateMutability": "nonpayable",
      "type": "function"
    },
    {
      "inputs": [],
      "name": "router",
      "outputs": [
        {
          "internalType": "address",
          "name": "",
          "type": "address"
        }
      ],
      "stateMutability": "view",
      "type": "function"
    }
  ],
  "bytecode": "0x608060405234801561001057600080fd5b50604051620020d5380380620020d583398101604081905261003191610056565b600080546001600160a01b0319166001600160a01b0392909216919091179055610086565b60006020828403121561006857600080fd5b81516001600160a01b038116811461007f57600080fd5b9392505050565b61203f80620000966000396000f3fe608060405234801561001057600080fd5b50600436106101165760003560e01c8063bccf74fe116100a2578063efd4810311610071578063efd481031461024f578063f03cd39614610262578063f887ea4014610275578063f8932d6114610288578063fa93fd6d1461029b57600080fd5b8063bccf74fe14610203578063c1b4904d14610216578063c4be249014610229578063cc49ede71461023c57600080fd5b806353f0c3b4116100e957806353f0c3b4146101a2578063799ece85146101b55780637b01ab30146101c857806388afadce146101dd57806399039fcf146101f057600080fd5b80631228cbee1461011b5780631f16cde61461014b5780632686375b1461015e57806326b1f01f1461017f575b600080fd5b61012e610129366004611ba2565b6102ae565b6040516001600160a01b0390911681526020015b60405180910390f35b61012e610159366004611ba2565b6102fe565b61017161016c366004611ba2565b61034d565b604051908152602001610142565b61019261018d366004611cd6565b610399565b6040519015158152602001610142565b6101926101b0366004611bdc565b610475565b6101716101c3366004611ba2565b610e55565b6101db6101d6366004611d17565b610ea1565b005b6101716101eb366004611ba2565b610f60565b6101db6101fe366004611cd6565b610fc0565b610171610211366004611ba2565b611109565b610171610224366004611ba2565b611155565b610171610237366004611ba2565b6111a1565b6101db61024a366004611ba2565b6111ed565b61019261025d366004611cd6565b611467565b610171610270366004611ba2565b611580565b60005461012e906001600160a01b031681565b610171610296366004611ba2565b6115cc565b61012e6102a9366004611ba2565b61164c565b6001600160a01b038116600090815260016020819052604082205460ff161515146102db57506000919050565b506001600160a01b03908116600090815260016020819052604090912001541690565b6001600160a01b038116600090815260016020819052604082205460ff1615151461032b57506000919050565b506001600160a01b039081166000908152600160205260409020600701541690565b6001600160a01b038116600090815260016020819052604082205460ff1615151461037a57506000919050565b506001600160a01b03166000908152600160205260409020600a015490565b6001600160a01b0383811660009081526001602081905260408220015490911633146103e05760405162461bcd60e51b81526004016103d790611dec565b60405180910390fd5b6001600160a01b03841660009081526001602081905260409091205460ff1615151461040e5750600061046e565b6001600160a01b038481166000908152600160205260409020546101009004811690841614156104405750600061046e565b6001600160a01b038416600090815260016020526040902060020154821161046a5750600161046e565b5060005b9392505050565b600080546001600160a01b031633146104be5760405162461bcd60e51b815260206004820152600b60248201526a27a7262c902927aaaa22a960a91b60448201526064016103d7565b6001600160a01b03841661050a5760405162461bcd60e51b8152602060048201526013602482015272496e76616c696420706f6f6c4164647265737360681b60448201526064016103d7565b6000849050306001600160a01b0316816001600160a01b0316633018205f6040518163ffffffff1660e01b815260040160206040518083038186803b15801561055257600080fd5b505afa158015610566573d6000803e3d6000fd5b505050506040513d601f19601f8201168201806040525081019061058a9190611bbf565b6001600160a01b0316146105e05760405162461bcd60e51b815260206004820152601e60248201527f576520617265206e6f742074686520706f6f6c20636f6e74726f6c6c6572000060448201526064016103d7565b866001600160a01b0316816001600160a01b03166304ad79546040518163ffffffff1660e01b815260040160206040518083038186803b15801561062357600080fd5b505afa158015610637573d6000803e3d6000fd5b505050506040513d601f19601f8201168201806040525081019061065b9190611bbf565b6001600160a01b0316146106b15760405162461bcd60e51b815260206004820152601b60248201527f44617461546f6b656e2061646472657373206d6973736d61746368000000000060448201526064016103d7565b856001600160a01b0316816001600160a01b0316634df947d06040518163ffffffff1660e01b815260040160206040518083038186803b1580156106f457600080fd5b505afa158015610708573d6000803e3d6000fd5b505050506040513d601f19601f8201168201806040525081019061072c9190611bbf565b6001600160a01b0316146107825760405162461bcd60e51b815260206004820152601b60248201527f42617365546f6b656e2061646472657373206d6973736d61746368000000000060448201526064016103d7565b604051623d104160e31b815230600482015287906001600160a01b038216906301e8820890602401604080518083038186803b1580156107c157600080fd5b505afa1580156107d5573d6000803e3d6000fd5b505050506040513d601f19601f820116820180604052508101906107f99190611d78565b51151560011461084b5760405162461bcd60e51b815260206004820152601a60248201527f42617365546f6b656e2061646472657373206d69736d6174636800000000000060448201526064016103d7565b806001600160a01b03166340c10f1930836001600160a01b031663355274ea6040518163ffffffff1660e01b815260040160206040518083038186803b15801561089457600080fd5b505afa1580156108a8573d6000803e3d6000fd5b505050506040513d601f19601f820116820180604052508101906108cc9190611dd3565b6040516001600160e01b031960e085901b1681526001600160a01b0390921660048301526024820152604401600060405180830381600087803b15801561091257600080fd5b505af1158015610926573d6000803e3d6000fd5b50505050806001600160a01b03166318160ddd6040518163ffffffff1660e01b815260040160206040518083038186803b15801561096357600080fd5b505afa158015610977573d6000803e3d6000fd5b505050506040513d601f19601f8201168201806040525081019061099b9190611dd3565b6040516370a0823160e01b81523060048201526001600160a01b038316906370a082319060240160206040518083038186803b1580156109da57600080fd5b505afa1580156109ee573d6000803e3d6000fd5b505050506040513d601f19601f82011682018060405250810190610a129190611dd3565b14610a4d5760405162461bcd60e51b815260206004820152600b60248201526a135a5b9d0819985a5b195960aa1b60448201526064016103d7565b83600281518110610a6057610a60611fc5565b6020026020010151610ae4600a836001600160a01b03166318160ddd6040518163ffffffff1660e01b815260040160206040518083038186803b158015610aa657600080fd5b505afa158015610aba573d6000803e3d6000fd5b505050506040513d601f19601f82011682018060405250810190610ade9190611dd3565b9061169d565b1015610b245760405162461bcd60e51b815260206004820152600f60248201526e4d61782076657374696e672031302560881b60448201526064016103d7565b604051806101e00160405280600115158152602001886001600160a01b03168152602001876001600160a01b0316815260200160001515815260200185600281518110610b7357610b73611fc5565b6020026020010151836001600160a01b03166318160ddd6040518163ffffffff1660e01b815260040160206040518083038186803b158015610bb457600080fd5b505afa158015610bc8573d6000803e3d6000fd5b505050506040513d601f19601f82011682018060405250810190610bec9190611dd3565b610bf69190611f98565b8152602001826001600160a01b031663355274ea6040518163ffffffff1660e01b815260040160206040518083038186803b158015610c3457600080fd5b505afa158015610c48573d6000803e3d6000fd5b505050506040513d601f19601f82011682018060405250810190610c6c9190611dd3565b815260200185600481518110610c8457610c84611fc5565b602002602001015181526020016000815260200185600081518110610cab57610cab611fc5565b60200260200101518152602001866001600160a01b0316815260200143815260200185600381518110610ce057610ce0611fc5565b602002602001015143610cf39190611e54565b815260200185600281518110610d0b57610d0b611fc5565b60209081029190910181015182524382820152600060409283018190526001600160a01b038c8116825260018084529184902085518154948701516001600160a81b0319958616911515610100600160a81b0319169190911761010091841682021782559486015181840180546060890151928516961695909517600160a01b91151591909102179093556080850151600284015560a0850151600384015560c0850151600484015560e085015160058401559284015160068301556101208401516007830180546001600160a01b031916919094161790925561014083015160088201556101608301516009820155610180830151600a8201556101a0830151600b8201556101c090920151600c909201919091558451610e47918a918791908110610e3a57610e3a611fc5565b60200260200101516116a9565b506001979650505050505050565b6001600160a01b038116600090815260016020819052604082205460ff16151514610e8257506000919050565b506001600160a01b031660009081526001602052604090206009015490565b6001600160a01b03841660009081526001602081905260409091205460ff16151514610ecc57610f5a565b6001600160a01b0384811660009081526001602081905260409091200154163314610f095760405162461bcd60e51b81526004016103d790611dec565b6000610f16858584611467565b9050600181151514610f285750610f5a565b6001600160a01b03851660009081526001602052604081206002018054859290610f53908490611e54565b9091555050505b50505050565b6001600160a01b038116600090815260016020819052604082205460ff16151514610f8d57506000919050565b6001600160a01b03821660009081526001602052604090206002810154600390910154610fba9190611f98565b92915050565b6001600160a01b03831660009081526001602081905260409091205460ff16151514610feb57505050565b6001600160a01b03838116600090815260016020819052604090912001541633146110285760405162461bcd60e51b81526004016103d790611dec565b6000611035848484610399565b90506001811515146110475750505050565b6001600160a01b038481166000818152600160208190526040918290200154905163095ea7b360e01b81529216600483015260248201849052859163095ea7b390604401602060405180830381600087803b1580156110a557600080fd5b505af11580156110b9573d6000803e3d6000fd5b505050506040513d601f19601f820116820180604052508101906110dd9190611d5d565b506001600160a01b03851660009081526001602052604081206002018054859290610f53908490611f98565b6001600160a01b038116600090815260016020819052604082205460ff1615151461113657506000919050565b506001600160a01b03166000908152600160205260409020600c015490565b6001600160a01b038116600090815260016020819052604082205460ff1615151461118257506000919050565b506001600160a01b031660009081526001602052604090206002015490565b6001600160a01b038116600090815260016020819052604082205460ff161515146111ce57506000919050565b506001600160a01b031660009081526001602052604090206004015490565b6001600160a01b03811660009081526001602081905260409091205460ff161515146112535760405162461bcd60e51b815260206004820152601560248201527422a9291d24b73b30b634b2103230ba30ba37b5b2b760591b60448201526064016103d7565b6001600160a01b0381166000908152600160205260408120600901544311156112aa576001600160a01b0382166000908152600160205260409020600b8101546009909101546112a39190611f98565b90506112d3565b6001600160a01b0382166000908152600160205260409020600b01546112d09043611f98565b90505b6001600160a01b038216600090815260016020526040812060088101546009909101546113259161130391611f98565b6001600160a01b0385166000908152600160205260409020600a01549061169d565b90508061133157505050565b600061133d8383611b81565b905060008111801561136a57506001600160a01b0384166000908152600160205260409020600201548111155b15610f5a576001600160a01b038481166000818152600160205260409081902043600b82015560070154905163a9059cbb60e01b81529216600483015260248201839052859163a9059cbb90604401602060405180830381600087803b1580156113d357600080fd5b505af11580156113e7573d6000803e3d6000fd5b505050506040513d601f19601f8201168201806040525081019061140b9190611d5d565b506001600160a01b03851660009081526001602052604081206002018054849290611437908490611f98565b90915550506001600160a01b0385166000908152600160205260408120600c018054849290610f53908490611e54565b6001600160a01b038316600090815260016020819052604082205460ff161515146114945750600061046e565b6001600160a01b03848116600090815260016020819052604090912001541633146114d15760405162461bcd60e51b81526004016103d790611dec565b6001600160a01b038481166000908152600160205260409020546101009004811690841614156115035750600061046e565b6040516370a0823160e01b8152306004820152829033906370a082319060240160206040518083038186803b15801561153b57600080fd5b505afa15801561154f573d6000803e3d6000fd5b505050506040513d601f19601f820116820180604052508101906115739190611dd3565b1061046a5750600161046e565b6001600160a01b038116600090815260016020819052604082205460ff161515146115ad57506000919050565b506001600160a01b03166000908152600160205260409020600b015490565b6001600160a01b038116600090815260016020819052604082205460ff161515146115f957506000919050565b61160282611109565b61160b8361034d565b6001600160a01b038416600090815260016020526040902060028101546003909101546116389190611f98565b6116429190611f98565b610fba9190611e54565b6001600160a01b038116600090815260016020819052604082205460ff1615151461167957506000919050565b506001600160a01b0390811660009081526001602052604090205461010090041690565b600061046e8284611e6c565b6001600160a01b03821660009081526001602081905260409091205460ff161515146116d3575050565b6001600160a01b0382166000908152600160208190526040909120810154600160a01b900460ff1615151415611707575050565b6001600160a01b0382166000908152600160208190526040822001805460ff60a01b1916600160a01b179055611746670de0b6b3a76400006005611f79565b9050600061175d670de0b6b3a76400006005611f79565b6001600160a01b038516600090815260016020526040812060040154919250611787856012611f98565b61179290600a611ed1565b6001600160a01b038716600090815260016020526040902060060154670de0b6b3a764000090869086906117c7908790611f79565b6117d19190611f79565b6117db9190611e6c565b6117e59190611e6c565b6117ef9190611f79565b6001600160a01b038781166000818152600160208190526040918290200154905163095ea7b360e01b8152921660048301526024820183905291925087919063095ea7b390604401602060405180830381600087803b15801561185157600080fd5b505af1158015611865573d6000803e3d6000fd5b505050506040513d601f19601f820116820180604052508101906118899190611d5d565b506001600160a01b038781166000908152600160208190526040918290208054910154915163095ea7b360e01b8152918316600483015260248201869052610100900490911690819063095ea7b390604401602060405180830381600087803b1580156118f557600080fd5b505af1158015611909573d6000803e3d6000fd5b505050506040513d601f19601f8201168201806040525081019061192d9190611d5d565b506001600160a01b0388811660008181526001602081905260409182902090810154905491516309ef3f5b60e01b815260048101939093526024830187905260448301899052610100909104831660648301526084820187905260a482018990529091169081906309ef3f5b9060c401600060405180830381600087803b1580156119b757600080fd5b505af11580156119cb573d6000803e3d6000fd5b505050506001600160a01b038916600090815260016020526040812060040180548792906119fa908490611f98565b90915550506001600160a01b03891660009081526001602052604081206002018054869290611a2a908490611f98565b90915550506001600160a01b0389811660009081526001602081905260408083209091015490516370a0823160e01b815230600482015292169182906370a082319060240160206040518083038186803b158015611a8757600080fd5b505afa158015611a9b573d6000803e3d6000fd5b505050506040513d601f19601f82011682018060405250810190611abf9190611dd3565b6001600160a01b038c81166000908152600160205260409020600701549192508084169163a9059cbb9116611af584600261169d565b6040516001600160e01b031960e085901b1681526001600160a01b0390921660048301526024820152604401602060405180830381600087803b158015611b3b57600080fd5b505af1158015611b4f573d6000803e3d6000fd5b505050506040513d601f19601f82011682018060405250810190611b739190611d5d565b505050505050505050505050565b600061046e8284611f79565b80518015158114611b9d57600080fd5b919050565b600060208284031215611bb457600080fd5b813561046e81611ff1565b600060208284031215611bd157600080fd5b815161046e81611ff1565b600080600080600060a08688031215611bf457600080fd5b8535611bff81611ff1565b9450602086810135611c1081611ff1565b94506040870135611c2081611ff1565b93506060870135611c3081611ff1565b9250608087013567ffffffffffffffff80821115611c4d57600080fd5b818901915089601f830112611c6157600080fd5b813581811115611c7357611c73611fdb565b8060051b9150611c84848301611e23565b8181528481019084860184860187018e1015611c9f57600080fd5b600095505b83861015611cc2578035835260019590950194918601918601611ca4565b508096505050505050509295509295909350565b600080600060608486031215611ceb57600080fd5b8335611cf681611ff1565b92506020840135611d0681611ff1565b929592945050506040919091013590565b60008060008060808587031215611d2d57600080fd5b8435611d3881611ff1565b93506020850135611d4881611ff1565b93969395505050506040820135916060013590565b600060208284031215611d6f57600080fd5b61046e82611b8d565b600060408284031215611d8a57600080fd5b6040516040810181811067ffffffffffffffff82111715611dad57611dad611fdb565b604052611db983611b8d565b8152611dc760208401611b8d565b60208201529392505050565b600060208284031215611de557600080fd5b5051919050565b6020808252601c908201527f4552523a204f6e6c7920706f6f6c2063616e2063616c6c207468697300000000604082015260600190565b604051601f8201601f1916810167ffffffffffffffff81118282101715611e4c57611e4c611fdb565b604052919050565b60008219821115611e6757611e67611faf565b500190565b600082611e8957634e487b7160e01b600052601260045260246000fd5b500490565b600181815b80851115611ec9578160001904821115611eaf57611eaf611faf565b80851615611ebc57918102915b93841c9390800290611e93565b509250929050565b600061046e8383600082611ee757506001610fba565b81611ef457506000610fba565b8160018114611f0a5760028114611f1457611f30565b6001915050610fba565b60ff841115611f2557611f25611faf565b50506001821b610fba565b5060208310610133831016604e8410600b8410161715611f53575081810a610fba565b611f5d8383611e8e565b8060001904821115611f7157611f71611faf565b029392505050565b6000816000190483118215151615611f9357611f93611faf565b500290565b600082821015611faa57611faa611faf565b500390565b634e487b7160e01b600052601160045260246000fd5b634e487b7160e01b600052603260045260246000fd5b634e487b7160e01b600052604160045260246000fd5b6001600160a01b038116811461200657600080fd5b5056fea26469706673582212207602fa3a7555ea0fe42675b59c50fa6cabc4d4801b70b6839016f9c2959d4ec864736f6c63430008070033",
  "linkReferences": {},
  "deployedLinkReferences": {}
}