{
  "_format": "hh-sol-artifact-1",
  "contractName": "SideStaking",
  "sourceName": "contracts/pools/ssContracts/SideStaking.sol",
  "abi": [
    {
      "inputs": [
        {
          "internalType": "address",
          "name": "_router",
          "type": "address"
        }
      ],
      "stateMutability": "nonpayable",
      "type": "constructor"
    },
    {
      "inputs": [
        {
          "internalType": "address",
          "name": "datatokenAddress",
          "type": "address"
        },
        {
          "internalType": "address",
          "name": "stakeToken",
          "type": "address"
        },
        {
          "internalType": "uint256",
          "name": "amount",
          "type": "uint256"
        }
      ],
      "name": "Stake",
      "outputs": [],
      "stateMutability": "nonpayable",
      "type": "function"
    },
    {
      "inputs": [
        {
          "internalType": "address",
          "name": "datatokenAddress",
          "type": "address"
        },
        {
          "internalType": "address",
          "name": "stakeToken",
          "type": "address"
        },
        {
          "internalType": "uint256",
          "name": "dtAmountIn",
          "type": "uint256"
        },
        {
          "internalType": "uint256",
          "name": "poolAmountOut",
          "type": "uint256"
        }
      ],
      "name": "UnStake",
      "outputs": [],
      "stateMutability": "nonpayable",
      "type": "function"
    },
    {
      "inputs": [
        {
          "internalType": "address",
          "name": "datatokenAddress",
          "type": "address"
        },
        {
          "internalType": "address",
          "name": "stakeToken",
          "type": "address"
        },
        {
          "internalType": "uint256",
          "name": "amount",
          "type": "uint256"
        }
      ],
      "name": "canStake",
      "outputs": [
        {
          "internalType": "bool",
          "name": "",
          "type": "bool"
        }
      ],
      "stateMutability": "view",
      "type": "function"
    },
    {
      "inputs": [
        {
          "internalType": "address",
          "name": "datatokenAddress",
          "type": "address"
        },
        {
          "internalType": "address",
          "name": "stakeToken",
          "type": "address"
        },
        {
          "internalType": "uint256",
          "name": "lptIn",
          "type": "uint256"
        }
      ],
      "name": "canUnStake",
      "outputs": [
        {
          "internalType": "bool",
          "name": "",
          "type": "bool"
        }
      ],
      "stateMutability": "view",
      "type": "function"
    },
    {
      "inputs": [
        {
          "internalType": "address",
          "name": "datatokenAddress",
          "type": "address"
        }
      ],
      "name": "getBaseTokenAddress",
      "outputs": [
        {
          "internalType": "address",
          "name": "",
          "type": "address"
        }
      ],
      "stateMutability": "view",
      "type": "function"
    },
    {
      "inputs": [
        {
          "internalType": "address",
          "name": "datatokenAddress",
          "type": "address"
        }
      ],
      "name": "getBaseTokenBalance",
      "outputs": [
        {
          "internalType": "uint256",
          "name": "",
          "type": "uint256"
        }
      ],
      "stateMutability": "view",
      "type": "function"
    },
    {
      "inputs": [
        {
          "internalType": "address",
          "name": "datatokenAddress",
          "type": "address"
        }
      ],
      "name": "getDataTokenBalance",
      "outputs": [
        {
          "internalType": "uint256",
          "name": "",
          "type": "uint256"
        }
      ],
      "stateMutability": "view",
      "type": "function"
    },
    {
      "inputs": [
        {
          "internalType": "address",
          "name": "datatokenAddress",
          "type": "address"
        }
      ],
      "name": "getDataTokenCirculatingSupply",
      "outputs": [
        {
          "internalType": "uint256",
          "name": "",
          "type": "uint256"
        }
      ],
      "stateMutability": "view",
      "type": "function"
    },
    {
      "inputs": [
        {
          "internalType": "address",
          "name": "datatokenAddress",
          "type": "address"
        }
      ],
      "name": "getDataTokenCurrentCirculatingSupply",
      "outputs": [
        {
          "internalType": "uint256",
          "name": "",
          "type": "uint256"
        }
      ],
      "stateMutability": "view",
      "type": "function"
    },
    {
      "inputs": [
        {
          "internalType": "address",
          "name": "datatokenAddress",
          "type": "address"
        }
      ],
      "name": "getPoolAddress",
      "outputs": [
        {
          "internalType": "address",
          "name": "",
          "type": "address"
        }
      ],
      "stateMutability": "view",
      "type": "function"
    },
    {
      "inputs": [
        {
          "internalType": "address",
          "name": "datatokenAddress",
          "type": "address"
        }
      ],
      "name": "getPublisherAddress",
      "outputs": [
        {
          "internalType": "address",
          "name": "",
          "type": "address"
        }
      ],
      "stateMutability": "view",
      "type": "function"
    },
    {
      "inputs": [
        {
          "internalType": "address",
          "name": "datatokenAddress",
          "type": "address"
        }
      ],
      "name": "getVesting",
      "outputs": [],
      "stateMutability": "nonpayable",
      "type": "function"
    },
    {
      "inputs": [
        {
          "internalType": "address",
          "name": "datatokenAddress",
          "type": "address"
        }
      ],
      "name": "getvestingAmount",
      "outputs": [
        {
          "internalType": "uint256",
          "name": "",
          "type": "uint256"
        }
      ],
      "stateMutability": "view",
      "type": "function"
    },
    {
      "inputs": [
        {
          "internalType": "address",
          "name": "datatokenAddress",
          "type": "address"
        }
      ],
      "name": "getvestingAmountSoFar",
      "outputs": [
        {
          "internalType": "uint256",
          "name": "",
          "type": "uint256"
        }
      ],
      "stateMutability": "view",
      "type": "function"
    },
    {
      "inputs": [
        {
          "internalType": "address",
          "name": "datatokenAddress",
          "type": "address"
        }
      ],
      "name": "getvestingEndBlock",
      "outputs": [
        {
          "internalType": "uint256",
          "name": "",
          "type": "uint256"
        }
      ],
      "stateMutability": "view",
      "type": "function"
    },
    {
      "inputs": [
        {
          "internalType": "address",
          "name": "datatokenAddress",
          "type": "address"
        }
      ],
      "name": "getvestingLastBlock",
      "outputs": [
        {
          "internalType": "uint256",
          "name": "",
          "type": "uint256"
        }
      ],
      "stateMutability": "view",
      "type": "function"
    },
    {
      "inputs": [
        {
          "internalType": "address",
          "name": "datatokenAddress",
          "type": "address"
        },
        {
          "internalType": "address",
          "name": "basetokenAddress",
          "type": "address"
        },
        {
          "internalType": "address",
          "name": "poolAddress",
          "type": "address"
        },
        {
          "internalType": "address",
          "name": "publisherAddress",
          "type": "address"
        },
        {
          "internalType": "uint256[]",
          "name": "ssParams",
          "type": "uint256[]"
        }
      ],
      "name": "newDataTokenCreated",
      "outputs": [
        {
          "internalType": "bool",
          "name": "",
          "type": "bool"
        }
      ],
      "stateMutability": "nonpayable",
      "type": "function"
    },
    {
      "inputs": [],
      "name": "router",
      "outputs": [
        {
          "internalType": "address",
          "name": "",
          "type": "address"
        }
      ],
      "stateMutability": "view",
      "type": "function"
    }
  ],
  "bytecode": "0x60806040523480156200001157600080fd5b50604051620022ea380380620022ea8339810160408190526200003491620000ba565b60016000556001600160a01b038116620000945760405162461bcd60e51b815260206004820152601760248201527f496e76616c6964205f726f757465722061646472657373000000000000000000604482015260640160405180910390fd5b600180546001600160a01b0319166001600160a01b0392909216919091179055620000ec565b600060208284031215620000cd57600080fd5b81516001600160a01b0381168114620000e557600080fd5b9392505050565b6121ee80620000fc6000396000f3fe608060405234801561001057600080fd5b50600436106101165760003560e01c8063bccf74fe116100a2578063efd4810311610071578063efd481031461024f578063f03cd39614610262578063f887ea4014610275578063f8932d6114610288578063fa93fd6d1461029b57600080fd5b8063bccf74fe14610203578063c1b4904d14610216578063c4be249014610229578063cc49ede71461023c57600080fd5b806353f0c3b4116100e957806353f0c3b4146101a2578063799ece85146101b55780637b01ab30146101c857806388afadce146101dd57806399039fcf146101f057600080fd5b80631228cbee1461011b5780631f16cde61461014b5780632686375b1461015e57806326b1f01f1461017f575b600080fd5b61012e610129366004611ca4565b6102ae565b6040516001600160a01b0390911681526020015b60405180910390f35b61012e610159366004611ca4565b6102f8565b61017161016c366004611ca4565b610342565b604051908152602001610142565b61019261018d366004611cc1565b610389565b6040519015158152602001610142565b6101926101b0366004611d49565b610460565b6101716101c3366004611ca4565b610dd9565b6101db6101d6366004611e3c565b610e20565b005b6101716101eb366004611ca4565b610f00565b6101db6101fe366004611cc1565b610f5d565b610171610211366004611ca4565b611068565b610171610224366004611ca4565b6110af565b610171610237366004611ca4565b6110f7565b6101db61024a366004611ca4565b61113e565b61019261025d366004611cc1565b611384565b610171610270366004611ca4565b611488565b60015461012e906001600160a01b031681565b610171610296366004611ca4565b6114cf565b61012e6102a9366004611ca4565b61154c565b6001600160a01b03811660009081526002602052604081205460ff166102d657506000919050565b506001600160a01b039081166000908152600260205260409020600101541690565b6001600160a01b03811660009081526002602052604081205460ff1661032057506000919050565b506001600160a01b039081166000908152600260205260409020600701541690565b6001600160a01b03811660009081526002602052604081205460ff1661036a57506000919050565b506001600160a01b03166000908152600260205260409020600a015490565b6001600160a01b0383811660009081526002602052604081206001015490911633146103d05760405162461bcd60e51b81526004016103c790611e82565b60405180910390fd5b6001600160a01b03841660009081526002602052604090205460ff166103f857506000610459565b6001600160a01b0384811660009081526002602052604090205461010090048116908416141561042a57506000610459565b6001600160a01b03841660009081526002602081905260409091200154821161045557506001610459565b5060005b9392505050565b6001546000906001600160a01b031633146104ab5760405162461bcd60e51b815260206004820152600b60248201526a27a7262c902927aaaa22a960a91b60448201526064016103c7565b600260005414156104ce5760405162461bcd60e51b81526004016103c790611eb9565b60026000556001600160a01b03841661051f5760405162461bcd60e51b8152602060048201526013602482015272496e76616c696420706f6f6c4164647265737360681b60448201526064016103c7565b6000849050306001600160a01b0316816001600160a01b0316633018205f6040518163ffffffff1660e01b8152600401602060405180830381865afa15801561056c573d6000803e3d6000fd5b505050506040513d601f19601f820116820180604052508101906105909190611ef0565b6001600160a01b0316146105e65760405162461bcd60e51b815260206004820152601e60248201527f576520617265206e6f742074686520706f6f6c20636f6e74726f6c6c6572000060448201526064016103c7565b866001600160a01b0316816001600160a01b03166304ad79546040518163ffffffff1660e01b8152600401602060405180830381865afa15801561062e573d6000803e3d6000fd5b505050506040513d601f19601f820116820180604052508101906106529190611ef0565b6001600160a01b0316146106a85760405162461bcd60e51b815260206004820152601b60248201527f44617461546f6b656e2061646472657373206d6973736d61746368000000000060448201526064016103c7565b856001600160a01b0316816001600160a01b0316634df947d06040518163ffffffff1660e01b8152600401602060405180830381865afa1580156106f0573d6000803e3d6000fd5b505050506040513d601f19601f820116820180604052508101906107149190611ef0565b6001600160a01b03161461076a5760405162461bcd60e51b815260206004820152601b60248201527f42617365546f6b656e2061646472657373206d6973736d61746368000000000060448201526064016103c7565b604051623d104160e31b815230600482015287906001600160a01b038216906301e88208906024016040805180830381865afa1580156107ae573d6000803e3d6000fd5b505050506040513d601f19601f820116820180604052508101906107d29190611f22565b5161081f5760405162461bcd60e51b815260206004820152601a60248201527f42617365546f6b656e2061646472657373206d69736d6174636800000000000060448201526064016103c7565b806001600160a01b03166340c10f1930836001600160a01b031663355274ea6040518163ffffffff1660e01b8152600401602060405180830381865afa15801561086d573d6000803e3d6000fd5b505050506040513d601f19601f820116820180604052508101906108919190611f7d565b6040516001600160e01b031960e085901b1681526001600160a01b0390921660048301526024820152604401600060405180830381600087803b1580156108d757600080fd5b505af11580156108eb573d6000803e3d6000fd5b50505050806001600160a01b03166318160ddd6040518163ffffffff1660e01b8152600401602060405180830381865afa15801561092d573d6000803e3d6000fd5b505050506040513d601f19601f820116820180604052508101906109519190611f7d565b6040516370a0823160e01b81523060048201526001600160a01b038316906370a0823190602401602060405180830381865afa158015610995573d6000803e3d6000fd5b505050506040513d601f19601f820116820180604052508101906109b99190611f7d565b146109f45760405162461bcd60e51b815260206004820152600b60248201526a135a5b9d0819985a5b195960aa1b60448201526064016103c7565b83600281518110610a0757610a07611f96565b6020026020010151610a7c600a836001600160a01b03166318160ddd6040518163ffffffff1660e01b8152600401602060405180830381865afa158015610a52573d6000803e3d6000fd5b505050506040513d601f19601f82011682018060405250810190610a769190611f7d565b90611598565b1015610abc5760405162461bcd60e51b815260206004820152600f60248201526e4d61782076657374696e672031302560881b60448201526064016103c7565b604051806101e00160405280600115158152602001886001600160a01b03168152602001876001600160a01b0316815260200160001515815260200185600281518110610b0b57610b0b611f96565b6020026020010151836001600160a01b03166318160ddd6040518163ffffffff1660e01b8152600401602060405180830381865afa158015610b51573d6000803e3d6000fd5b505050506040513d601f19601f82011682018060405250810190610b759190611f7d565b610b7f9190611fc2565b8152602001826001600160a01b031663355274ea6040518163ffffffff1660e01b8152600401602060405180830381865afa158015610bc2573d6000803e3d6000fd5b505050506040513d601f19601f82011682018060405250810190610be69190611f7d565b815260200185600481518110610bfe57610bfe611f96565b602002602001015181526020016000815260200185600081518110610c2557610c25611f96565b60200260200101518152602001866001600160a01b0316815260200143815260200185600381518110610c5a57610c5a611f96565b602002602001015143610c6d9190611fd9565b815260200185600281518110610c8557610c85611f96565b60209081029190910181015182524382820152600060409283018190526001600160a01b038c8116825260028084529184902085518154948701516001600160a81b0319958616911515610100600160a81b031916919091176101009184168202178255948601516001808301805460608a0151938616971696909617600160a01b921515929092029190911790945560808601519281019290925560a0850151600383015560c0850151600483015560e085015160058301559284015160068201556101208401516007820180546001600160a01b031916919094161790925561014083015160088301556101608301516009830155610180830151600a8301556101a0830151600b8301556101c090920151600c909101558451610dc5918a918791908110610db857610db8611f96565b60200260200101516115a4565b600192505050600160005595945050505050565b6001600160a01b03811660009081526002602052604081205460ff16610e0157506000919050565b506001600160a01b031660009081526002602052604090206009015490565b60026000541415610e435760405162461bcd60e51b81526004016103c790611eb9565b600260008181556001600160a01b0386168152602091909152604090205460ff16610e6d57610ef5565b6001600160a01b03848116600090815260026020526040902060010154163314610ea95760405162461bcd60e51b81526004016103c790611e82565b6000610eb6858584611384565b905080610ec35750610ef5565b6001600160a01b03851660009081526002602081905260408220018054859290610eee908490611fd9565b9091555050505b505060016000555050565b6001600160a01b03811660009081526002602052604081205460ff16610f2857506000919050565b6001600160a01b038216600090815260026020819052604090912090810154600390910154610f579190611fc2565b92915050565b60026000541415610f805760405162461bcd60e51b81526004016103c790611eb9565b600260008181556001600160a01b0385168152602091909152604090205460ff16610faa5761105e565b6001600160a01b03838116600090815260026020526040902060010154163314610fe65760405162461bcd60e51b81526004016103c790611e82565b6000610ff3848484610389565b905080611000575061105e565b6001600160a01b03808516600081815260026020526040902060010154869261102b92911685611916565b6001600160a01b03851660009081526002602081905260408220018054859290611056908490611fc2565b909155505050505b5050600160005550565b6001600160a01b03811660009081526002602052604081205460ff1661109057506000919050565b506001600160a01b03166000908152600260205260409020600c015490565b6001600160a01b03811660009081526002602052604081205460ff166110d757506000919050565b506001600160a01b03166000908152600260208190526040909120015490565b6001600160a01b03811660009081526002602052604081205460ff1661111f57506000919050565b506001600160a01b031660009081526002602052604090206004015490565b600260005414156111615760405162461bcd60e51b81526004016103c790611eb9565b600260008181556001600160a01b0383168152602091909152604090205460ff166111c65760405162461bcd60e51b815260206004820152601560248201527422a9291d24b73b30b634b2103230ba30ba37b5b2b760591b60448201526064016103c7565b6001600160a01b03811660009081526002602052604081206009015443111561121d576001600160a01b0382166000908152600260205260409020600b8101546009909101546112169190611fc2565b9050611246565b6001600160a01b0382166000908152600260205260409020600b01546112439043611fc2565b90505b6001600160a01b038216600090815260026020526040812060088101546009909101546112989161127691611fc2565b6001600160a01b0385166000908152600260205260409020600a015490611598565b9050806112a657505061137c565b60006112b28383611a01565b90506000811180156112e057506001600160a01b038416600090815260026020819052604090912001548111155b15611378576001600160a01b03808516600081815260026020526040902043600b82015560070154869261131692911684611a0d565b6001600160a01b03851660009081526002602081905260408220018054849290611341908490611fc2565b90915550506001600160a01b0385166000908152600260205260408120600c018054849290611371908490611fd9565b9091555050505b5050505b506001600055565b6001600160a01b03831660009081526002602052604081205460ff166113ac57506000610459565b6001600160a01b038481166000908152600260205260409020600101541633146113e85760405162461bcd60e51b81526004016103c790611e82565b6001600160a01b0384811660009081526002602052604090205461010090048116908416141561141a57506000610459565b6040516370a0823160e01b8152306004820152829033906370a0823190602401602060405180830381865afa158015611457573d6000803e3d6000fd5b505050506040513d601f19601f8201168201806040525081019061147b9190611f7d565b1061045557506001610459565b6001600160a01b03811660009081526002602052604081205460ff166114b057506000919050565b506001600160a01b03166000908152600260205260409020600b015490565b6001600160a01b03811660009081526002602052604081205460ff166114f757506000919050565b61150082611068565b61150983610342565b6001600160a01b0384166000908152600260208190526040909120908101546003909101546115389190611fc2565b6115429190611fc2565b610f579190611fd9565b6001600160a01b03811660009081526002602052604081205460ff1661157457506000919050565b506001600160a01b0390811660009081526002602052604090205461010090041690565b60006104598284611ff1565b6001600160a01b03821660009081526002602052604090205460ff166115c8575050565b6001600160a01b038216600090815260026020526040902060010154600160a01b900460ff16156115f7575050565b6001600160a01b0382166000908152600260205260408120600101805460ff60a01b1916600160a01b179055611636670de0b6b3a76400006005612013565b9050600061164d670de0b6b3a76400006005612013565b6001600160a01b038516600090815260026020526040812060040154919250611677856012611fc2565b61168290600a612116565b6001600160a01b038716600090815260026020526040902060060154670de0b6b3a764000090869086906116b7908790612013565b6116c19190612013565b6116cb9190611ff1565b6116d59190611ff1565b6116df9190612013565b6001600160a01b03808816600081815260026020526040902060010154929350889261170c921684611916565b6001600160a01b03808816600090815260026020526040902080546001909101546101009091048216916117439183911686611916565b6001600160a01b03888116600081815260026020526040908190206001810154905491516309ef3f5b60e01b815260048101939093526024830187905260448301899052610100909104831660648301526084820187905260a482018990529091169081906309ef3f5b9060c401600060405180830381600087803b1580156117cb57600080fd5b505af11580156117df573d6000803e3d6000fd5b505050506001600160a01b0389166000908152600260205260408120600401805487929061180e908490611fc2565b90915550506001600160a01b0389166000908152600260208190526040822001805486929061183e908490611fc2565b90915550506001600160a01b038981166000908152600260205260408082206001015490516370a0823160e01b815230600482015292169182906370a0823190602401602060405180830381865afa15801561189e573d6000803e3d6000fd5b505050506040513d601f19601f820116820180604052508101906118c29190611f7d565b6001600160a01b03808d1660009081526002602081905260409091206007015492935061190992909116906118f8908490611598565b6001600160a01b0385169190611a0d565b5050505050505050505050565b604051636eb1769f60e11b81523060048201526001600160a01b038381166024830152600091839186169063dd62ed3e90604401602060405180830381865afa158015611967573d6000803e3d6000fd5b505050506040513d601f19601f8201168201806040525081019061198b9190611f7d565b6119959190611fd9565b6040516001600160a01b0385166024820152604481018290529091506119fb90859063095ea7b360e01b906064015b60408051601f198184030181529190526020810180516001600160e01b03166001600160e01b031990931692909217909152611a42565b50505050565b60006104598284612013565b6040516001600160a01b038316602482015260448101829052611a3d90849063a9059cbb60e01b906064016119c4565b505050565b6000611a97826040518060400160405280602081526020017f5361666545524332303a206c6f772d6c6576656c2063616c6c206661696c6564815250856001600160a01b0316611b149092919063ffffffff16565b805190915015611a3d5780806020019051810190611ab59190612122565b611a3d5760405162461bcd60e51b815260206004820152602a60248201527f5361666545524332303a204552433230206f7065726174696f6e20646964206e6044820152691bdd081cdd58d8d9595960b21b60648201526084016103c7565b6060611b238484600085611b2b565b949350505050565b606082471015611b8c5760405162461bcd60e51b815260206004820152602660248201527f416464726573733a20696e73756666696369656e742062616c616e636520666f6044820152651c8818d85b1b60d21b60648201526084016103c7565b843b611bda5760405162461bcd60e51b815260206004820152601d60248201527f416464726573733a2063616c6c20746f206e6f6e2d636f6e747261637400000060448201526064016103c7565b600080866001600160a01b03168587604051611bf69190612169565b60006040518083038185875af1925050503d8060008114611c33576040519150601f19603f3d011682016040523d82523d6000602084013e611c38565b606091505b5091509150611c48828286611c53565b979650505050505050565b60608315611c62575081610459565b825115611c725782518084602001fd5b8160405162461bcd60e51b81526004016103c79190612185565b6001600160a01b0381168114611ca157600080fd5b50565b600060208284031215611cb657600080fd5b813561045981611c8c565b600080600060608486031215611cd657600080fd5b8335611ce181611c8c565b92506020840135611cf181611c8c565b929592945050506040919091013590565b634e487b7160e01b600052604160045260246000fd5b604051601f8201601f1916810167ffffffffffffffff81118282101715611d4157611d41611d02565b604052919050565b600080600080600060a08688031215611d6157600080fd5b8535611d6c81611c8c565b9450602086810135611d7d81611c8c565b94506040870135611d8d81611c8c565b93506060870135611d9d81611c8c565b9250608087013567ffffffffffffffff80821115611dba57600080fd5b818901915089601f830112611dce57600080fd5b813581811115611de057611de0611d02565b8060051b9150611df1848301611d18565b818152918301840191848101908c841115611e0b57600080fd5b938501935b83851015611e2957843582529385019390850190611e10565b8096505050505050509295509295909350565b60008060008060808587031215611e5257600080fd5b8435611e5d81611c8c565b93506020850135611e6d81611c8c565b93969395505050506040820135916060013590565b6020808252601c908201527f4552523a204f6e6c7920706f6f6c2063616e2063616c6c207468697300000000604082015260600190565b6020808252601f908201527f5265656e7472616e637947756172643a207265656e7472616e742063616c6c00604082015260600190565b600060208284031215611f0257600080fd5b815161045981611c8c565b80518015158114611f1d57600080fd5b919050565b600060408284031215611f3457600080fd5b6040516040810181811067ffffffffffffffff82111715611f5757611f57611d02565b604052611f6383611f0d565b8152611f7160208401611f0d565b60208201529392505050565b600060208284031215611f8f57600080fd5b5051919050565b634e487b7160e01b600052603260045260246000fd5b634e487b7160e01b600052601160045260246000fd5b600082821015611fd457611fd4611fac565b500390565b60008219821115611fec57611fec611fac565b500190565b60008261200e57634e487b7160e01b600052601260045260246000fd5b500490565b600081600019048311821515161561202d5761202d611fac565b500290565b600181815b8085111561206d57816000190482111561205357612053611fac565b8085161561206057918102915b93841c9390800290612037565b509250929050565b60008261208457506001610f57565b8161209157506000610f57565b81600181146120a757600281146120b1576120cd565b6001915050610f57565b60ff8411156120c2576120c2611fac565b50506001821b610f57565b5060208310610133831016604e8410600b84101617156120f0575081810a610f57565b6120fa8383612032565b806000190482111561210e5761210e611fac565b029392505050565b60006104598383612075565b60006020828403121561213457600080fd5b61045982611f0d565b60005b83811015612158578181015183820152602001612140565b838111156119fb5750506000910152565b6000825161217b81846020870161213d565b9190910192915050565b60208152600082518060208401526121a481604085016020870161213d565b601f01601f1916919091016040019291505056fea26469706673582212206e920f12b437b730ffca95444be4d425595851d64769d2a337d290bc3d31eb3864736f6c634300080a0033",
  "linkReferences": {},
  "deployedLinkReferences": {}
}