{
  "_format": "hh-sol-artifact-1",
  "contractName": "SideStaking",
  "sourceName": "contracts/pools/ssContracts/SideStaking.sol",
  "abi": [
    {
      "inputs": [
        {
          "internalType": "address",
          "name": "_router",
          "type": "address"
        }
      ],
      "stateMutability": "nonpayable",
      "type": "constructor"
    },
    {
      "anonymous": false,
      "inputs": [
        {
          "indexed": true,
          "internalType": "address",
          "name": "datatokenAddress",
          "type": "address"
        },
        {
          "indexed": true,
          "internalType": "address",
          "name": "publisherAddress",
          "type": "address"
        },
        {
          "indexed": true,
          "internalType": "address",
          "name": "caller",
          "type": "address"
        },
        {
          "indexed": false,
          "internalType": "uint256",
          "name": "amountVested",
          "type": "uint256"
        }
      ],
      "name": "Vesting",
      "type": "event"
    },
    {
      "anonymous": false,
      "inputs": [
        {
          "indexed": true,
          "internalType": "address",
          "name": "datatokenAddress",
          "type": "address"
        },
        {
          "indexed": true,
          "internalType": "address",
          "name": "publisherAddress",
          "type": "address"
        },
        {
          "indexed": false,
          "internalType": "uint256",
          "name": "vestingEndBlock",
          "type": "uint256"
        },
        {
          "indexed": false,
          "internalType": "uint256",
          "name": "totalVestingAmount",
          "type": "uint256"
        }
      ],
      "name": "VestingCreated",
      "type": "event"
    },
    {
      "inputs": [
        {
          "internalType": "address",
          "name": "datatokenAddress",
          "type": "address"
        },
        {
          "internalType": "uint256",
          "name": "amount",
          "type": "uint256"
        }
      ],
      "name": "Stake",
      "outputs": [],
      "stateMutability": "nonpayable",
      "type": "function"
    },
    {
      "inputs": [
        {
          "internalType": "address",
          "name": "datatokenAddress",
          "type": "address"
        },
        {
          "internalType": "uint256",
          "name": "dtAmountIn",
          "type": "uint256"
        },
        {
          "internalType": "uint256",
          "name": "poolAmountOut",
          "type": "uint256"
        }
      ],
      "name": "UnStake",
      "outputs": [],
      "stateMutability": "nonpayable",
      "type": "function"
    },
    {
      "inputs": [
        {
          "internalType": "address",
          "name": "datatokenAddress",
          "type": "address"
        },
        {
          "internalType": "uint256",
          "name": "amount",
          "type": "uint256"
        }
      ],
      "name": "canStake",
      "outputs": [
        {
          "internalType": "bool",
          "name": "",
          "type": "bool"
        }
      ],
      "stateMutability": "view",
      "type": "function"
    },
    {
      "inputs": [
        {
          "internalType": "address",
          "name": "datatokenAddress",
          "type": "address"
        },
        {
          "internalType": "uint256",
          "name": "lptIn",
          "type": "uint256"
        }
      ],
      "name": "canUnStake",
      "outputs": [
        {
          "internalType": "bool",
          "name": "",
          "type": "bool"
        }
      ],
      "stateMutability": "view",
      "type": "function"
    },
    {
      "inputs": [
        {
          "internalType": "address",
          "name": "datatokenAddress",
          "type": "address"
        }
      ],
      "name": "getAvailableVesting",
      "outputs": [
        {
          "internalType": "uint256",
          "name": "",
          "type": "uint256"
        }
      ],
      "stateMutability": "view",
      "type": "function"
    },
    {
      "inputs": [
        {
          "internalType": "address",
          "name": "datatokenAddress",
          "type": "address"
        }
      ],
      "name": "getBaseTokenAddress",
      "outputs": [
        {
          "internalType": "address",
          "name": "",
          "type": "address"
        }
      ],
      "stateMutability": "view",
      "type": "function"
    },
    {
      "inputs": [
        {
          "internalType": "address",
          "name": "datatokenAddress",
          "type": "address"
        }
      ],
      "name": "getBaseTokenBalance",
      "outputs": [
        {
          "internalType": "uint256",
          "name": "",
          "type": "uint256"
        }
      ],
      "stateMutability": "view",
      "type": "function"
    },
    {
      "inputs": [
        {
          "internalType": "address",
          "name": "datatokenAddress",
          "type": "address"
        }
      ],
      "name": "getDatatokenBalance",
      "outputs": [
        {
          "internalType": "uint256",
          "name": "",
          "type": "uint256"
        }
      ],
      "stateMutability": "view",
      "type": "function"
    },
    {
      "inputs": [
        {
          "internalType": "address",
          "name": "datatokenAddress",
          "type": "address"
        }
      ],
      "name": "getDatatokenCirculatingSupply",
      "outputs": [
        {
          "internalType": "uint256",
          "name": "",
          "type": "uint256"
        }
      ],
      "stateMutability": "view",
      "type": "function"
    },
    {
      "inputs": [
        {
          "internalType": "address",
          "name": "datatokenAddress",
          "type": "address"
        }
      ],
      "name": "getDatatokenCurrentCirculatingSupply",
      "outputs": [
        {
          "internalType": "uint256",
          "name": "",
          "type": "uint256"
        }
      ],
      "stateMutability": "view",
      "type": "function"
    },
    {
      "inputs": [],
      "name": "getId",
      "outputs": [
        {
          "internalType": "uint8",
          "name": "",
          "type": "uint8"
        }
      ],
      "stateMutability": "pure",
      "type": "function"
    },
    {
      "inputs": [
        {
          "internalType": "address",
          "name": "datatokenAddress",
          "type": "address"
        }
      ],
      "name": "getPoolAddress",
      "outputs": [
        {
          "internalType": "address",
          "name": "",
          "type": "address"
        }
      ],
      "stateMutability": "view",
      "type": "function"
    },
    {
      "inputs": [
        {
          "internalType": "address",
          "name": "datatokenAddress",
          "type": "address"
        }
      ],
      "name": "getPublisherAddress",
      "outputs": [
        {
          "internalType": "address",
          "name": "",
          "type": "address"
        }
      ],
      "stateMutability": "view",
      "type": "function"
    },
    {
      "inputs": [
        {
          "internalType": "address",
          "name": "datatokenAddress",
          "type": "address"
        }
      ],
      "name": "getVesting",
      "outputs": [],
      "stateMutability": "nonpayable",
      "type": "function"
    },
    {
      "inputs": [
        {
          "internalType": "address",
          "name": "datatokenAddress",
          "type": "address"
        }
      ],
      "name": "getvestingAmount",
      "outputs": [
        {
          "internalType": "uint256",
          "name": "",
          "type": "uint256"
        }
      ],
      "stateMutability": "view",
      "type": "function"
    },
    {
      "inputs": [
        {
          "internalType": "address",
          "name": "datatokenAddress",
          "type": "address"
        }
      ],
      "name": "getvestingAmountSoFar",
      "outputs": [
        {
          "internalType": "uint256",
          "name": "",
          "type": "uint256"
        }
      ],
      "stateMutability": "view",
      "type": "function"
    },
    {
      "inputs": [
        {
          "internalType": "address",
          "name": "datatokenAddress",
          "type": "address"
        }
      ],
      "name": "getvestingEndBlock",
      "outputs": [
        {
          "internalType": "uint256",
          "name": "",
          "type": "uint256"
        }
      ],
      "stateMutability": "view",
      "type": "function"
    },
    {
      "inputs": [
        {
          "internalType": "address",
          "name": "datatokenAddress",
          "type": "address"
        }
      ],
      "name": "getvestingLastBlock",
      "outputs": [
        {
          "internalType": "uint256",
          "name": "",
          "type": "uint256"
        }
      ],
      "stateMutability": "view",
      "type": "function"
    },
    {
      "inputs": [
        {
          "internalType": "address",
          "name": "datatokenAddress",
          "type": "address"
        },
        {
          "internalType": "address",
          "name": "baseTokenAddress",
          "type": "address"
        },
        {
          "internalType": "address",
          "name": "poolAddress",
          "type": "address"
        },
        {
          "internalType": "address",
          "name": "publisherAddress",
          "type": "address"
        },
        {
          "internalType": "uint256[]",
          "name": "ssParams",
          "type": "uint256[]"
        }
      ],
      "name": "newDatatokenCreated",
      "outputs": [
        {
          "internalType": "bool",
          "name": "",
          "type": "bool"
        }
      ],
      "stateMutability": "nonpayable",
      "type": "function"
    },
    {
      "inputs": [],
      "name": "router",
      "outputs": [
        {
          "internalType": "address",
          "name": "",
          "type": "address"
        }
      ],
      "stateMutability": "view",
      "type": "function"
    },
    {
      "inputs": [
        {
          "internalType": "address",
          "name": "datatokenAddress",
          "type": "address"
        },
        {
          "internalType": "address",
          "name": "poolAddress",
          "type": "address"
        },
        {
          "internalType": "uint256",
          "name": "swapFee",
          "type": "uint256"
        }
      ],
      "name": "setPoolSwapFee",
      "outputs": [],
      "stateMutability": "nonpayable",
      "type": "function"
    }
  ],
  "bytecode": "0x60806040523480156200001157600080fd5b50604051620026a2380380620026a28339810160408190526200003491620000ba565b60016000556001600160a01b038116620000945760405162461bcd60e51b815260206004820152601760248201527f496e76616c6964205f726f757465722061646472657373000000000000000000604482015260640160405180910390fd5b600180546001600160a01b0319166001600160a01b0392909216919091179055620000ec565b600060208284031215620000cd57600080fd5b81516001600160a01b0381168114620000e557600080fd5b9392505050565b6125a680620000fc6000396000f3fe608060405234801561001057600080fd5b50600436106101375760003560e01c806383b87e5a116100b8578063ebedb8b31161007c578063ebedb8b314610293578063f03cd396146102a6578063f6da805f146102b9578063f887ea40146102cc578063fa93fd6d146102df578063ff299f33146102f257600080fd5b806383b87e5a14610234578063bccf74fe14610247578063bcf7135e1461025a578063c4be24901461026d578063cc49ede71461028057600080fd5b806354a97630116100ff57806354a97630146101d65780635d1ca631146101eb57806367f5494d146101fa5780636aca230c1461020d578063799ece851461022157600080fd5b80631228cbee1461013c5780631a1315661461016c5780631f16cde61461018f5780632686375b146101a25780632afbbacb146101c3575b600080fd5b61014f61014a366004612041565b610305565b6040516001600160a01b0390911681526020015b60405180910390f35b61017f61017a36600461205e565b61034f565b6040519015158152602001610163565b61014f61019d366004612041565b610434565b6101b56101b0366004612041565b61047e565b604051908152602001610163565b61017f6101d136600461205e565b6104c5565b6101e96101e436600461208a565b61058c565b005b60405160018152602001610163565b6101b5610208366004612041565b61066a565b6101b561021b366004612041565b50600090565b6101b561022f366004612041565b6106c1565b61017f610242366004612106565b610708565b6101b5610255366004612041565b61113b565b6101b5610268366004612041565b611182565b6101b561027b366004612041565b6111ca565b6101e961028e366004612041565b611211565b6101e96102a136600461205e565b6112a5565b6101b56102b4366004612041565b6113ad565b6101b56102c7366004612041565b6113f4565b60015461014f906001600160a01b031681565b61014f6102ed366004612041565b61145a565b6101e96103003660046121f9565b6114a6565b6001600160a01b03811660009081526002602052604081205460ff1661032d57506000919050565b506001600160a01b039081166000908152600260205260409020600101541690565b6001600160a01b03821660009081526002602052604081205460ff166103775750600061042e565b6001600160a01b038381166000908152600260205260409020600101541633146103bc5760405162461bcd60e51b81526004016103b39061223a565b60405180910390fd5b6040516370a0823160e01b8152306004820152829033906370a0823190602401602060405180830381865afa1580156103f9573d6000803e3d6000fd5b505050506040513d601f19601f8201168201806040525081019061041d9190612271565b1061042a5750600161042e565b5060005b92915050565b6001600160a01b03811660009081526002602052604081205460ff1661045c57506000919050565b506001600160a01b039081166000908152600260205260409020600701541690565b6001600160a01b03811660009081526002602052604081205460ff166104a657506000919050565b506001600160a01b03166000908152600260205260409020600a015490565b6001600160a01b0382811660009081526002602052604081206001015490911633146105035760405162461bcd60e51b81526004016103b39061223a565b6001600160a01b03831660009081526002602052604090205460ff1661052b5750600061042e565b6001600160a01b0383166000908152600260205260409020600c810154600a9091015461055891906122a0565b61056290836122b7565b6001600160a01b038416600090815260026020819052604090912001541061042a5750600161042e565b600260005414156105af5760405162461bcd60e51b81526004016103b3906122cf565b600260008181556001600160a01b0385168152602091909152604090205460ff166105d957610660565b6001600160a01b038381166000908152600260205260409020600101541633146106155760405162461bcd60e51b81526004016103b39061223a565b6000610621848361034f565b90508061062e5750610660565b6001600160a01b038416600090815260026020819052604082200180548592906106599084906122b7565b9091555050505b5050600160005550565b6001600160a01b03811660009081526002602052604081205460ff1661069257506000919050565b6001600160a01b03821660009081526002602081905260409091209081015460039091015461042e91906122a0565b6001600160a01b03811660009081526002602052604081205460ff166106e957506000919050565b506001600160a01b031660009081526002602052604090206009015490565b6001546000906001600160a01b031633146107535760405162461bcd60e51b815260206004820152600b60248201526a27a7262c902927aaaa22a960a91b60448201526064016103b3565b600260005414156107765760405162461bcd60e51b81526004016103b3906122cf565b60026000556001600160a01b0384166107c75760405162461bcd60e51b8152602060048201526013602482015272496e76616c696420706f6f6c4164647265737360681b60448201526064016103b3565b6000849050306001600160a01b0316816001600160a01b0316633018205f6040518163ffffffff1660e01b8152600401602060405180830381865afa158015610814573d6000803e3d6000fd5b505050506040513d601f19601f820116820180604052508101906108389190612306565b6001600160a01b03161461088e5760405162461bcd60e51b815260206004820152601e60248201527f576520617265206e6f742074686520706f6f6c20636f6e74726f6c6c6572000060448201526064016103b3565b866001600160a01b0316816001600160a01b031663458c3fb56040518163ffffffff1660e01b8152600401602060405180830381865afa1580156108d6573d6000803e3d6000fd5b505050506040513d601f19601f820116820180604052508101906108fa9190612306565b6001600160a01b0316146109505760405162461bcd60e51b815260206004820152601b60248201527f44617461746f6b656e2061646472657373206d6973736d61746368000000000060448201526064016103b3565b856001600160a01b0316816001600160a01b0316634df947d06040518163ffffffff1660e01b8152600401602060405180830381865afa158015610998573d6000803e3d6000fd5b505050506040513d601f19601f820116820180604052508101906109bc9190612306565b6001600160a01b031614610a125760405162461bcd60e51b815260206004820152601b60248201527f62617365546f6b656e2061646472657373206d6973736d61746368000000000060448201526064016103b3565b64e8d4a5100083600081518110610a2b57610a2b612323565b602002602001015111610a6f5760405162461bcd60e51b815260206004820152600c60248201526b496e76616c6964207261746560a01b60448201526064016103b3565b604051623d104160e31b815230600482015287906001600160a01b038216906301e88208906024016040805180830381865afa158015610ab3573d6000803e3d6000fd5b505050506040513d601f19601f82011682018060405250810190610ad7919061234e565b51610b245760405162461bcd60e51b815260206004820152601a60248201527f62617365546f6b656e2061646472657373206d69736d6174636800000000000060448201526064016103b3565b806001600160a01b03166340c10f1930836001600160a01b031663355274ea6040518163ffffffff1660e01b8152600401602060405180830381865afa158015610b72573d6000803e3d6000fd5b505050506040513d601f19601f82011682018060405250810190610b969190612271565b6040516001600160e01b031960e085901b1681526001600160a01b0390921660048301526024820152604401600060405180830381600087803b158015610bdc57600080fd5b505af1158015610bf0573d6000803e3d6000fd5b50505050806001600160a01b03166318160ddd6040518163ffffffff1660e01b8152600401602060405180830381865afa158015610c32573d6000803e3d6000fd5b505050506040513d601f19601f82011682018060405250810190610c569190612271565b6040516370a0823160e01b81523060048201526001600160a01b038316906370a0823190602401602060405180830381865afa158015610c9a573d6000803e3d6000fd5b505050506040513d601f19601f82011682018060405250810190610cbe9190612271565b1015610cfa5760405162461bcd60e51b815260206004820152600b60248201526a135a5b9d0819985a5b195960aa1b60448201526064016103b3565b600084600281518110610d0f57610d0f612323565b602002602001018181525050600084600381518110610d3057610d30612323565b60200260200101818152505083600281518110610d4f57610d4f612323565b6020026020010151610dc4600a836001600160a01b03166318160ddd6040518163ffffffff1660e01b8152600401602060405180830381865afa158015610d9a573d6000803e3d6000fd5b505050506040513d601f19601f82011682018060405250810190610dbe9190612271565b9061194a565b1015610e045760405162461bcd60e51b815260206004820152600f60248201526e4d61782076657374696e672031302560881b60448201526064016103b3565b604051806101e00160405280600115158152602001886001600160a01b03168152602001876001600160a01b03168152602001600015158152602001826001600160a01b03166318160ddd6040518163ffffffff1660e01b8152600401602060405180830381865afa158015610e7e573d6000803e3d6000fd5b505050506040513d601f19601f82011682018060405250810190610ea29190612271565b8152602001826001600160a01b031663355274ea6040518163ffffffff1660e01b8152600401602060405180830381865afa158015610ee5573d6000803e3d6000fd5b505050506040513d601f19601f82011682018060405250810190610f099190612271565b815260200185600481518110610f2157610f21612323565b602002602001015181526020016000815260200185600081518110610f4857610f48612323565b60200260200101518152602001866001600160a01b0316815260200143815260200185600381518110610f7d57610f7d612323565b602002602001015143610f9091906122b7565b815260200185600281518110610fa857610fa8612323565b60209081029190910181015182524382820152600060409283018190526001600160a01b038c811680835260028085529285902086518154888701516001600160a81b0319918216921515610100600160a81b0319169290921761010092861683021783558888015160018401805460608c0151928816931692909217600160a01b9115159190910217905560808801519482019490945560a0870151600382015560c0870151600482015560e087015160058201559286015160068401556101208601516007840180546001600160a01b031916918416919091179055610140860151600884015561016086015160098401819055610180870151600a85018190556101a0880151600b8601556101c090970151600c909401939093558451928352928201949094529288169290917f1fa0b22f78385180668c3daa666fbb365854697bc4033e144adc37f12aa88dfa910160405180910390a3611127888560018151811061111a5761111a612323565b602002602001015161195d565b600192505050600160005595945050505050565b6001600160a01b03811660009081526002602052604081205460ff1661116357506000919050565b506001600160a01b03166000908152600260205260409020600c015490565b6001600160a01b03811660009081526002602052604081205460ff166111aa57506000919050565b506001600160a01b03166000908152600260208190526040909120015490565b6001600160a01b03811660009081526002602052604081205460ff166111f257506000919050565b506001600160a01b031660009081526002602052604090206004015490565b600260005414156112345760405162461bcd60e51b81526004016103b3906122cf565b600260008181556001600160a01b0383168152602091909152604090205460ff166112995760405162461bcd60e51b815260206004820152601560248201527422a9291d24b73b30b634b2103230ba30ba37b5b2b760591b60448201526064016103b3565b60005b50506001600055565b600260005414156112c85760405162461bcd60e51b81526004016103b3906122cf565b600260008181556001600160a01b0384168152602091909152604090205460ff166112f25761129c565b6001600160a01b0382811660009081526002602052604090206001015416331461132e5760405162461bcd60e51b81526004016103b39061223a565b600061133a83836104c5565b905080611347575061129c565b6001600160a01b03808416600081815260026020526040902060010154859261137292911685611cbf565b6001600160a01b0384166000908152600260208190526040822001805485929061139d9084906122a0565b9091555050505050506001600055565b6001600160a01b03811660009081526002602052604081205460ff166113d557506000919050565b506001600160a01b03166000908152600260205260409020600b015490565b6001600160a01b03811660009081526002602052604081205460ff1661141c57506000919050565b6001600160a01b0382166000908152600260208190526040909120600c8101549181015460039091015461145091906122a0565b61042e91906122a0565b6001600160a01b03811660009081526002602052604081205460ff1661148257506000919050565b506001600160a01b0390811660009081526002602052604090205461010090041690565b826001600160a01b0381166114fd5760405162461bcd60e51b815260206004820152601e60248201527f496e76616c696420746f6b656e20636f6e74726163742061646472657373000060448201526064016103b3565b6040516396fb3eaf60e01b815233600482015281906001600160a01b038216906396fb3eaf90602401602060405180830381865afa158015611543573d6000803e3d6000fd5b505050506040513d601f19601f8201168201806040525081019061156791906123a9565b8061164e5750336001600160a01b0316816001600160a01b0316627ffb786040518163ffffffff1660e01b8152600401602060405180830381865afa1580156115b4573d6000803e3d6000fd5b505050506040513d601f19601f820116820180604052508101906115d89190612306565b6040516331a9108f60e11b8152600160048201526001600160a01b039190911690636352211e90602401602060405180830381865afa15801561161f573d6000803e3d6000fd5b505050506040513d601f19601f820116820180604052508101906116439190612306565b6001600160a01b0316145b61168a5760405162461bcd60e51b815260206004820152600d60248201526c24b73b30b634b21037bbb732b960991b60448201526064016103b3565b600260005414156116ad5760405162461bcd60e51b81526004016103b3906122cf565b600260008181556001600160a01b0387168152602091909152604090205460ff1661170e5760405162461bcd60e51b815260206004820152601160248201527024b73b30b634b2103230ba30ba37b5b2b760791b60448201526064016103b3565b6001600160a01b03841661175a5760405162461bcd60e51b8152602060048201526013602482015272496e76616c696420706f6f6c4164647265737360681b60448201526064016103b3565b6000849050306001600160a01b0316816001600160a01b0316633018205f6040518163ffffffff1660e01b8152600401602060405180830381865afa1580156117a7573d6000803e3d6000fd5b505050506040513d601f19601f820116820180604052508101906117cb9190612306565b6001600160a01b0316146118215760405162461bcd60e51b815260206004820152601e60248201527f576520617265206e6f742074686520706f6f6c20636f6e74726f6c6c6572000060448201526064016103b3565b856001600160a01b0316816001600160a01b031663458c3fb56040518163ffffffff1660e01b8152600401602060405180830381865afa158015611869573d6000803e3d6000fd5b505050506040513d601f19601f8201168201806040525081019061188d9190612306565b6001600160a01b0316146118e35760405162461bcd60e51b815260206004820152601b60248201527f44617461746f6b656e2061646472657373206d6973736d61746368000000000060448201526064016103b3565b6040516334e1990760e01b8152600481018590526001600160a01b038216906334e1990790602401600060405180830381600087803b15801561192557600080fd5b505af1158015611939573d6000803e3d6000fd5b505060016000555050505050505050565b600061195682846123c4565b9392505050565b6001600160a01b03821660009081526002602052604090205460ff16611981575050565b6001600160a01b038216600090815260026020526040902060010154600160a01b900460ff16156119b0575050565b6001600160a01b0382166000908152600260205260408120600101805460ff60a01b1916600160a01b1790556119ef670de0b6b3a764000060056123e6565b90506000611a06670de0b6b3a764000060056123e6565b6001600160a01b0385166000908152600260205260408120600481015460069091015492935091670de0b6b3a764000090859085908590611a488a60126122a0565b611a5390600a6124e9565b611a5d91906123e6565b611a6791906123e6565b611a7191906123e6565b611a7b91906123c4565b611a8591906123c4565b6001600160a01b038716600090815260026020526040812060040180549293508492909190611ab59084906122a0565b90915550506001600160a01b03861660009081526002602081905260408220018054839290611ae59084906122a0565b90915550506001600160a01b038087166000818152600260205260409020600101548892611b1592911684611cbf565b6001600160a01b0380881660009081526002602052604090208054600190910154610100909104821691611b4c9183911686611cbf565b6001600160a01b03888116600081815260026020526040908190206001810154905491516309ef3f5b60e01b815260048101939093526024830187905260448301899052610100909104831660648301526084820187905260a482018990529091169081906309ef3f5b9060c401600060405180830381600087803b158015611bd457600080fd5b505af1158015611be8573d6000803e3d6000fd5b505050506001600160a01b038981166000908152600260205260408082206001015490516370a0823160e01b815230600482015292169182906370a0823190602401602060405180830381865afa158015611c47573d6000803e3d6000fd5b505050506040513d601f19601f82011682018060405250810190611c6b9190612271565b6001600160a01b03808d16600090815260026020819052604090912060070154929350611cb29290911690611ca190849061194a565b6001600160a01b0385169190611daa565b5050505050505050505050565b604051636eb1769f60e11b81523060048201526001600160a01b038381166024830152600091839186169063dd62ed3e90604401602060405180830381865afa158015611d10573d6000803e3d6000fd5b505050506040513d601f19601f82011682018060405250810190611d349190612271565b611d3e91906122b7565b6040516001600160a01b038516602482015260448101829052909150611da490859063095ea7b360e01b906064015b60408051601f198184030181529190526020810180516001600160e01b03166001600160e01b031990931692909217909152611ddf565b50505050565b6040516001600160a01b038316602482015260448101829052611dda90849063a9059cbb60e01b90606401611d6d565b505050565b6000611e34826040518060400160405280602081526020017f5361666545524332303a206c6f772d6c6576656c2063616c6c206661696c6564815250856001600160a01b0316611eb19092919063ffffffff16565b805190915015611dda5780806020019051810190611e5291906123a9565b611dda5760405162461bcd60e51b815260206004820152602a60248201527f5361666545524332303a204552433230206f7065726174696f6e20646964206e6044820152691bdd081cdd58d8d9595960b21b60648201526084016103b3565b6060611ec08484600085611ec8565b949350505050565b606082471015611f295760405162461bcd60e51b815260206004820152602660248201527f416464726573733a20696e73756666696369656e742062616c616e636520666f6044820152651c8818d85b1b60d21b60648201526084016103b3565b843b611f775760405162461bcd60e51b815260206004820152601d60248201527f416464726573733a2063616c6c20746f206e6f6e2d636f6e747261637400000060448201526064016103b3565b600080866001600160a01b03168587604051611f939190612521565b60006040518083038185875af1925050503d8060008114611fd0576040519150601f19603f3d011682016040523d82523d6000602084013e611fd5565b606091505b5091509150611fe5828286611ff0565b979650505050505050565b60608315611fff575081611956565b82511561200f5782518084602001fd5b8160405162461bcd60e51b81526004016103b3919061253d565b6001600160a01b038116811461203e57600080fd5b50565b60006020828403121561205357600080fd5b813561195681612029565b6000806040838503121561207157600080fd5b823561207c81612029565b946020939093013593505050565b60008060006060848603121561209f57600080fd5b83356120aa81612029565b95602085013595506040909401359392505050565b634e487b7160e01b600052604160045260246000fd5b604051601f8201601f1916810167ffffffffffffffff811182821017156120fe576120fe6120bf565b604052919050565b600080600080600060a0868803121561211e57600080fd5b853561212981612029565b945060208681013561213a81612029565b9450604087013561214a81612029565b9350606087013561215a81612029565b9250608087013567ffffffffffffffff8082111561217757600080fd5b818901915089601f83011261218b57600080fd5b81358181111561219d5761219d6120bf565b8060051b91506121ae8483016120d5565b818152918301840191848101908c8411156121c857600080fd5b938501935b838510156121e6578435825293850193908501906121cd565b8096505050505050509295509295909350565b60008060006060848603121561220e57600080fd5b833561221981612029565b9250602084013561222981612029565b929592945050506040919091013590565b6020808252601c908201527f4552523a204f6e6c7920706f6f6c2063616e2063616c6c207468697300000000604082015260600190565b60006020828403121561228357600080fd5b5051919050565b634e487b7160e01b600052601160045260246000fd5b6000828210156122b2576122b261228a565b500390565b600082198211156122ca576122ca61228a565b500190565b6020808252601f908201527f5265656e7472616e637947756172643a207265656e7472616e742063616c6c00604082015260600190565b60006020828403121561231857600080fd5b815161195681612029565b634e487b7160e01b600052603260045260246000fd5b8051801515811461234957600080fd5b919050565b60006040828403121561236057600080fd5b6040516040810181811067ffffffffffffffff82111715612383576123836120bf565b60405261238f83612339565b815261239d60208401612339565b60208201529392505050565b6000602082840312156123bb57600080fd5b61195682612339565b6000826123e157634e487b7160e01b600052601260045260246000fd5b500490565b60008160001904831182151516156124005761240061228a565b500290565b600181815b808511156124405781600019048211156124265761242661228a565b8085161561243357918102915b93841c939080029061240a565b509250929050565b6000826124575750600161042e565b816124645750600061042e565b816001811461247a5760028114612484576124a0565b600191505061042e565b60ff8411156124955761249561228a565b50506001821b61042e565b5060208310610133831016604e8410600b84101617156124c3575081810a61042e565b6124cd8383612405565b80600019048211156124e1576124e161228a565b029392505050565b60006119568383612448565b60005b838110156125105781810151838201526020016124f8565b83811115611da45750506000910152565b600082516125338184602087016124f5565b9190910192915050565b602081526000825180602084015261255c8160408501602087016124f5565b601f01601f1916919091016040019291505056fea2646970667358221220c5d8219ab8498602a3c7728b5031f32891ea465e6f5767b7ffb85be9cb1380c364736f6c634300080c0033",
  "linkReferences": {},
  "deployedLinkReferences": {}
}