{
  "_format": "hh-sol-artifact-1",
  "contractName": "OPFCommunityFeeCollector",
  "sourceName": "contracts/communityFee/OPFCommunityFeeCollector.sol",
  "abi": [
    {
      "inputs": [
        {
          "internalType": "address payable",
          "name": "newCollector",
          "type": "address"
        },
        {
          "internalType": "address",
          "name": "OPFOwnerAddress",
          "type": "address"
        }
      ],
      "stateMutability": "nonpayable",
      "type": "constructor"
    },
    {
      "anonymous": false,
      "inputs": [
        {
          "indexed": true,
          "internalType": "address",
          "name": "previousOwner",
          "type": "address"
        },
        {
          "indexed": true,
          "internalType": "address",
          "name": "newOwner",
          "type": "address"
        }
      ],
      "name": "OwnershipTransferred",
      "type": "event"
    },
    {
      "stateMutability": "payable",
      "type": "fallback"
    },
    {
      "inputs": [
        {
          "internalType": "address payable",
          "name": "newCollector",
          "type": "address"
        }
      ],
      "name": "changeCollector",
      "outputs": [],
      "stateMutability": "nonpayable",
      "type": "function"
    },
    {
      "inputs": [],
      "name": "owner",
      "outputs": [
        {
          "internalType": "address",
          "name": "",
          "type": "address"
        }
      ],
      "stateMutability": "view",
      "type": "function"
    },
    {
      "inputs": [],
      "name": "renounceOwnership",
      "outputs": [],
      "stateMutability": "nonpayable",
      "type": "function"
    },
    {
      "inputs": [
        {
          "internalType": "address",
          "name": "newOwner",
          "type": "address"
        }
      ],
      "name": "transferOwnership",
      "outputs": [],
      "stateMutability": "nonpayable",
      "type": "function"
    },
    {
      "inputs": [],
      "name": "withdrawETH",
      "outputs": [],
      "stateMutability": "payable",
      "type": "function"
    },
    {
      "inputs": [
        {
          "internalType": "address",
          "name": "tokenAddress",
          "type": "address"
        }
      ],
      "name": "withdrawToken",
      "outputs": [],
      "stateMutability": "nonpayable",
      "type": "function"
    }
  ],
  "bytecode": "0x608060405234801561001057600080fd5b50604051610a9b380380610a9b83398101604081905261002f9161023a565b6100383361010a565b6001600160a01b0382161580159061005857506001600160a01b03811615155b6100df5760405162461bcd60e51b815260206004820152604760248201527f4f5046436f6d6d756e697479466565436f6c6c6563746f723a20636f6c6c656360448201527f746f722061646472657373206f72206f776e657220697320696e76616c6964206064820152666164647265737360c81b608482015260a4015b60405180910390fd5b600180546001600160a01b0319166001600160a01b0384161790556101038161015a565b5050610274565b600080546001600160a01b038381166001600160a01b0319831681178455604051919092169283917f8be0079c531659141344cd1fd0a4f28419497f9722a3daafe3b4186f6b6457e09190a35050565b6000546001600160a01b031633146101b45760405162461bcd60e51b815260206004820181905260248201527f4f776e61626c653a2063616c6c6572206973206e6f7420746865206f776e657260448201526064016100d6565b6001600160a01b0381166102195760405162461bcd60e51b815260206004820152602660248201527f4f776e61626c653a206e6577206f776e657220697320746865207a65726f206160448201526564647265737360d01b60648201526084016100d6565b6102228161010a565b50565b6001600160a01b038116811461022257600080fd5b6000806040838503121561024d57600080fd5b825161025881610225565b602084015190925061026981610225565b809150509250929050565b610818806102836000396000f3fe6080604052600436106100555760003560e01c8063715018a6146100575780637781127e1461006c578063894760691461008c5780638da5cb5b146100ac578063e086e5ec146100d8578063f2fde38b146100e0575b005b34801561006357600080fd5b50610055610100565b34801561007857600080fd5b506100556100873660046106d6565b61013f565b34801561009857600080fd5b506100556100a73660046106d6565b6101fd565b3480156100b857600080fd5b50600054604080516001600160a01b039092168252519081900360200190f35b610055610301565b3480156100ec57600080fd5b506100556100fb3660046106d6565b61033a565b6000546001600160a01b031633146101335760405162461bcd60e51b815260040161012a906106f3565b60405180910390fd5b61013d60006103ce565b565b6000546001600160a01b031633146101695760405162461bcd60e51b815260040161012a906106f3565b6001600160a01b0381166101db5760405162461bcd60e51b815260206004820152603360248201527f4f5046436f6d6d756e697479466565436f6c6c6563746f723a20696e76616c696044820152726420636f6c6c6563746f72206164647265737360681b606482015260840161012a565b600180546001600160a01b0319166001600160a01b0392909216919091179055565b6001600160a01b0381166102795760405162461bcd60e51b815260206004820152603860248201527f4f5046436f6d6d756e697479466565436f6c6c6563746f723a20696e76616c6960448201527f6420746f6b656e20636f6e747261637420616464726573730000000000000000606482015260840161012a565b6001546040516370a0823160e01b81523060048201526102fe916001600160a01b0390811691908416906370a0823190602401602060405180830381865afa1580156102c9573d6000803e3d6000fd5b505050506040513d601f19601f820116820180604052508101906102ed9190610728565b6001600160a01b038416919061041e565b50565b6001546040516001600160a01b03909116904780156108fc02916000818181858888f193505050501580156102fe573d6000803e3d6000fd5b6000546001600160a01b031633146103645760405162461bcd60e51b815260040161012a906106f3565b6001600160a01b0381166103c95760405162461bcd60e51b815260206004820152602660248201527f4f776e61626c653a206e6577206f776e657220697320746865207a65726f206160448201526564647265737360d01b606482015260840161012a565b6102fe815b600080546001600160a01b038381166001600160a01b0319831681178455604051919092169283917f8be0079c531659141344cd1fd0a4f28419497f9722a3daafe3b4186f6b6457e09190a35050565b604080516001600160a01b038416602482015260448082018490528251808303909101815260649091019091526020810180516001600160e01b031663a9059cbb60e01b179052610470908490610475565b505050565b60006104ca826040518060400160405280602081526020017f5361666545524332303a206c6f772d6c6576656c2063616c6c206661696c6564815250856001600160a01b03166105479092919063ffffffff16565b80519091501561047057808060200190518101906104e89190610741565b6104705760405162461bcd60e51b815260206004820152602a60248201527f5361666545524332303a204552433230206f7065726174696f6e20646964206e6044820152691bdd081cdd58d8d9595960b21b606482015260840161012a565b60606105568484600085610560565b90505b9392505050565b6060824710156105c15760405162461bcd60e51b815260206004820152602660248201527f416464726573733a20696e73756666696369656e742062616c616e636520666f6044820152651c8818d85b1b60d21b606482015260840161012a565b843b61060f5760405162461bcd60e51b815260206004820152601d60248201527f416464726573733a2063616c6c20746f206e6f6e2d636f6e7472616374000000604482015260640161012a565b600080866001600160a01b0316858760405161062b9190610793565b60006040518083038185875af1925050503d8060008114610668576040519150601f19603f3d011682016040523d82523d6000602084013e61066d565b606091505b509150915061067d828286610688565b979650505050505050565b60608315610697575081610559565b8251156106a75782518084602001fd5b8160405162461bcd60e51b815260040161012a91906107af565b6001600160a01b03811681146102fe57600080fd5b6000602082840312156106e857600080fd5b8135610559816106c1565b6020808252818101527f4f776e61626c653a2063616c6c6572206973206e6f7420746865206f776e6572604082015260600190565b60006020828403121561073a57600080fd5b5051919050565b60006020828403121561075357600080fd5b8151801515811461055957600080fd5b60005b8381101561077e578181015183820152602001610766565b8381111561078d576000848401525b50505050565b600082516107a5818460208701610763565b9190910192915050565b60208152600082518060208401526107ce816040850160208701610763565b601f01601f1916919091016040019291505056fea2646970667358221220e9ae0573f5ab5b9686448bbddb6ac3735c1cb5f8dddfad17ecd515acda0e5c5e64736f6c634300080a0033",
  "linkReferences": {},
  "deployedLinkReferences": {}
}