{
  "contractName": "BFactory",
  "abi": [
    {
      "constant": true,
      "inputs": [],
      "name": "MAX_TOTAL_WEIGHT",
      "outputs": [
        {
          "name": "",
          "type": "uint256"
        }
      ],
      "payable": false,
      "stateMutability": "view",
      "type": "function"
    },
    {
      "constant": true,
      "inputs": [],
      "name": "BPOW_PRECISION",
      "outputs": [
        {
          "name": "",
          "type": "uint256"
        }
      ],
      "payable": false,
      "stateMutability": "view",
      "type": "function"
    },
    {
      "constant": true,
      "inputs": [],
      "name": "MIN_WEIGHT",
      "outputs": [
        {
          "name": "",
          "type": "uint256"
        }
      ],
      "payable": false,
      "stateMutability": "view",
      "type": "function"
    },
    {
      "constant": true,
      "inputs": [],
      "name": "MIN_FEE",
      "outputs": [
        {
          "name": "",
          "type": "uint256"
        }
      ],
      "payable": false,
      "stateMutability": "view",
      "type": "function"
    },
    {
      "constant": true,
      "inputs": [],
      "name": "MIN_BALANCE",
      "outputs": [
        {
          "name": "",
          "type": "uint256"
        }
      ],
      "payable": false,
      "stateMutability": "view",
      "type": "function"
    },
    {
      "constant": true,
      "inputs": [],
      "name": "INIT_POOL_SUPPLY",
      "outputs": [
        {
          "name": "",
          "type": "uint256"
        }
      ],
      "payable": false,
      "stateMutability": "view",
      "type": "function"
    },
    {
      "constant": true,
      "inputs": [],
      "name": "MAX_OUT_RATIO",
      "outputs": [
        {
          "name": "",
          "type": "uint256"
        }
      ],
      "payable": false,
      "stateMutability": "view",
      "type": "function"
    },
    {
      "constant": true,
      "inputs": [],
      "name": "MAX_BOUND_TOKENS",
      "outputs": [
        {
          "name": "",
          "type": "uint256"
        }
      ],
      "payable": false,
      "stateMutability": "view",
      "type": "function"
    },
    {
      "constant": true,
      "inputs": [],
      "name": "MIN_BOUND_TOKENS",
      "outputs": [
        {
          "name": "",
          "type": "uint256"
        }
      ],
      "payable": false,
      "stateMutability": "view",
      "type": "function"
    },
    {
      "constant": true,
      "inputs": [],
      "name": "MIN_BPOW_BASE",
      "outputs": [
        {
          "name": "",
          "type": "uint256"
        }
      ],
      "payable": false,
      "stateMutability": "view",
      "type": "function"
    },
    {
      "constant": true,
      "inputs": [],
      "name": "MAX_FEE",
      "outputs": [
        {
          "name": "",
          "type": "uint256"
        }
      ],
      "payable": false,
      "stateMutability": "view",
      "type": "function"
    },
    {
      "constant": true,
      "inputs": [],
      "name": "MAX_BPOW_BASE",
      "outputs": [
        {
          "name": "",
          "type": "uint256"
        }
      ],
      "payable": false,
      "stateMutability": "view",
      "type": "function"
    },
    {
      "constant": true,
      "inputs": [],
      "name": "BONE",
      "outputs": [
        {
          "name": "",
          "type": "uint256"
        }
      ],
      "payable": false,
      "stateMutability": "view",
      "type": "function"
    },
    {
      "constant": true,
      "inputs": [],
      "name": "EXIT_FEE",
      "outputs": [
        {
          "name": "",
          "type": "uint256"
        }
      ],
      "payable": false,
      "stateMutability": "view",
      "type": "function"
    },
    {
      "constant": true,
      "inputs": [],
      "name": "MAX_WEIGHT",
      "outputs": [
        {
          "name": "",
          "type": "uint256"
        }
      ],
      "payable": false,
      "stateMutability": "view",
      "type": "function"
    },
    {
      "constant": true,
      "inputs": [],
      "name": "MAX_IN_RATIO",
      "outputs": [
        {
          "name": "",
          "type": "uint256"
        }
      ],
      "payable": false,
      "stateMutability": "view",
      "type": "function"
    },
    {
      "inputs": [
        {
          "name": "bpoolTemplate",
          "type": "address"
        }
      ],
      "payable": false,
      "stateMutability": "nonpayable",
      "type": "constructor"
    },
    {
      "anonymous": false,
      "inputs": [
        {
          "indexed": true,
          "name": "newBPoolAddress",
          "type": "address"
        },
        {
          "indexed": true,
          "name": "bpoolTemplateAddress",
          "type": "address"
        }
      ],
      "name": "BPoolCreated",
      "type": "event"
    },
    {
      "anonymous": false,
      "inputs": [
        {
          "indexed": false,
          "name": "bpoolAddress",
          "type": "address"
        },
        {
          "indexed": true,
          "name": "registeredBy",
          "type": "address"
        },
        {
          "indexed": true,
          "name": "registeredAt",
          "type": "uint256"
        }
      ],
      "name": "BPoolRegistered",
      "type": "event"
    },
    {
      "anonymous": false,
      "inputs": [
        {
          "indexed": false,
          "name": "instance",
          "type": "address"
        }
      ],
      "name": "InstanceDeployed",
      "type": "event"
    },
    {
      "constant": false,
      "inputs": [],
      "name": "newBPool",
      "outputs": [
        {
          "name": "bpool",
          "type": "address"
        }
      ],
      "payable": false,
      "stateMutability": "nonpayable",
      "type": "function"
    },
    {
      "constant": true,
      "inputs": [],
      "name": "getBPool",
      "outputs": [
        {
          "name": "",
          "type": "address"
        }
      ],
      "payable": false,
      "stateMutability": "view",
      "type": "function"
    }
  ],
  "bytecode": "0x608060405234801561001057600080fd5b5060405160208061067b8339810180604052602081101561003057600080fd5b5051600160a060020a0381166100a757604080517f08c379a000000000000000000000000000000000000000000000000000000000815260206004820152600d60248201527f4552525f414444524553535f3000000000000000000000000000000000000000604482015290519081900360640190fd5b60008054600160a060020a03909216600160a060020a03199092169190911790556105a4806100d76000396000f3fe608060405234801561001057600080fd5b5060043610610133576000357c010000000000000000000000000000000000000000000000000000000090048063b7b800a4116100bf578063c36596a61161008e578063c36596a61461015a578063c6580d12146101ce578063d556c5dc146101d6578063e4a28a5214610138578063ec093021146101de57610133565b8063b7b800a4146101ae578063ba019dab146101b6578063bc063e1a146101be578063bc694ea2146101c657610133565b806376c7a3c71161010657806376c7a3c714610186578063867378c51461018e5780639381cd2b14610196578063992e2a921461019e578063b0e0d136146101a657610133565b806309a3bbe414610138578063189d00ca14610152578063218b53821461015a5780632c500bc814610162575b600080fd5b6101406101e6565b60408051918252519081900360200190f35b6101406101f3565b610140610207565b61016a610213565b60408051600160a060020a039092168252519081900360200190f35b610140610222565b610140610234565b610140610248565b610140610255565b610140610261565b610140610266565b61014061026b565b610140610270565b610140610280565b61014061028c565b61016a610291565b6101406104b7565b6802b5e3af16b188000081565b6402540be400670de0b6b3a76400005b0481565b670de0b6b3a764000081565b600054600160a060020a031690565b620f4240670de0b6b3a7640000610203565b64e8d4a51000670de0b6b3a7640000610203565b68056bc75e2d6310000081565b6704a03ce68d21555681565b600881565b600281565b600181565b600a670de0b6b3a7640000610203565b671bc16d674ec7ffff81565b600081565b600080546102a790600160a060020a03166104c7565b9050600160a060020a03811661031e57604080517f08c379a000000000000000000000000000000000000000000000000000000000815260206004820152600d60248201527f4552525f414444524553535f3000000000000000000000000000000000000000604482015290519081900360640190fd5b604080517f506de97400000000000000000000000000000000000000000000000000000000815233600482015230602482015264e8d4a5100060448201526000606482018190526084820181905291518392600160a060020a0384169263506de9749260a48083019360209383900390910190829087803b1580156103a257600080fd5b505af11580156103b6573d6000803e3d6000fd5b505050506040513d60208110156103cc57600080fd5b505161043957604080517f08c379a000000000000000000000000000000000000000000000000000000000815260206004820152601460248201527f4552525f494e495449414c495a455f42504f4f4c000000000000000000000000604482015290519081900360640190fd5b60008054604051600160a060020a0391821692918516917f83d56eda3b93446228a036eafbbbcb38aa8f27a21a302b860469af9cb27c84eb91a360408051600160a060020a03841681529051439133917fd118fcb1d23a2666593cb19b9a570723bf5d77ffe779065f199ed2a97a7228869181900360200190a35090565b6002670de0b6b3a7640000610203565b6040517f3d602d80600a3d3981f3363d3d373d3d3d363d7300000000000000000000000081526c010000000000000000000000008202601482018190527f5af43d82803e903d91602b57fd5bf30000000000000000000000000000000000602883015260009160378184f060408051600160a060020a038316815290519194507f117c72e6c25f0a072e36e148df71468ce2f3dbe7defec5b2c257a6e3eb65278c925081900360200190a15091905056fea165627a7a72305820813b8c351f084d410d45a072ae1d1e461a15c9b5e5c70c0c59b718eb52959fe30029",
  "source": "pragma solidity ^0.5.7;\n// Copyright BigchainDB GmbH and Ocean Protocol contributors\n// SPDX-License-Identifier: (Apache-2.0 AND CC-BY-4.0)\n// Code is Apache-2.0 and docs are CC-BY-4.0\n\nimport './BPool.sol';\nimport './BConst.sol';\nimport '../utils/Deployer.sol';\n\n/*\n* @title BFactory contract\n* @author Ocean Protocol (with code from Balancer Labs)\n*\n* @dev Ocean implementation of Balancer BPool Factory\n*      BFactory deploys BPool proxy contracts.\n*      New BPool proxy contracts are links to the template contract's bytecode.\n*      Proxy contract functionality is based on Ocean Protocol custom\n*        implementation of ERC1167 standard.\n*/\ncontract BFactory is BConst, Deployer {\n\n    address private _bpoolTemplate;\n\n    event BPoolCreated(\n        address indexed newBPoolAddress,\n        address indexed bpoolTemplateAddress\n    );\n    \n    event BPoolRegistered(\n        address bpoolAddress,\n        address indexed registeredBy,\n        uint256 indexed registeredAt\n    );\n    \n    /* @dev Called on contract deployment. Cannot be called with zero address.\n       @param _bpoolTemplate -- address of a deployed BPool contract. */\n    constructor(address bpoolTemplate)\n        public \n    {\n        require(bpoolTemplate != address(0), 'ERR_ADDRESS_0');\n        _bpoolTemplate = bpoolTemplate;\n    }\n\n    /* @dev Deploys new BPool proxy contract.\n       Template contract address could not be a zero address. \n       @return address of a new proxy BPool contract */\n    function newBPool()\n        external\n        returns (address bpool)\n    {\n        bpool = deploy(_bpoolTemplate);\n        require(bpool != address(0), 'ERR_ADDRESS_0');\n        BPool bpoolInstance = BPool(bpool);\t\n        require(\n            bpoolInstance.initialize(\n                msg.sender,\n                address(this), \n                MIN_FEE, \n                false,\n                false\n            ),\n            'ERR_INITIALIZE_BPOOL'\n        );\n        emit BPoolCreated(bpool, _bpoolTemplate);\n        emit BPoolRegistered(bpool, msg.sender, block.number);\n    }\n\n\n    /* @dev get the bpool template address\n       @return the template address */\n    function getBPool()\n        external\n        view\n        returns (address)\n    {\n        return _bpoolTemplate;\n    }\n}\n",
  "sourcePath": "/Users/ahmedali/Desktop/work/ocean-contracts/contracts/balancer/BFactory.sol",
  "compiler": {
    "name": "solc",
    "version": "0.5.7+commit.6da8b019.Emscripten.clang"
  },
  "schemaVersion": "3.2.4",
  "updatedAt": "2020-09-21T11:28:22.471Z",
  "devdoc": {
    "methods": {}
  },
  "userdoc": {
    "methods": {}
  }
}