{
  "contractName": "DataTokenTemplate",
  "abi": [
    {
      "constant": false,
      "inputs": [
        {
          "name": "spender",
          "type": "address"
        },
        {
          "name": "value",
          "type": "uint256"
        }
      ],
      "name": "approve",
      "outputs": [
        {
          "name": "",
          "type": "bool"
        }
      ],
      "payable": false,
      "stateMutability": "nonpayable",
      "type": "function"
    },
    {
      "constant": true,
      "inputs": [],
      "name": "totalSupply",
      "outputs": [
        {
          "name": "",
          "type": "uint256"
        }
      ],
      "payable": false,
      "stateMutability": "view",
      "type": "function"
    },
    {
      "constant": false,
      "inputs": [
        {
          "name": "from",
          "type": "address"
        },
        {
          "name": "to",
          "type": "address"
        },
        {
          "name": "value",
          "type": "uint256"
        }
      ],
      "name": "transferFrom",
      "outputs": [
        {
          "name": "",
          "type": "bool"
        }
      ],
      "payable": false,
      "stateMutability": "nonpayable",
      "type": "function"
    },
    {
      "constant": false,
      "inputs": [
        {
          "name": "spender",
          "type": "address"
        },
        {
          "name": "addedValue",
          "type": "uint256"
        }
      ],
      "name": "increaseAllowance",
      "outputs": [
        {
          "name": "",
          "type": "bool"
        }
      ],
      "payable": false,
      "stateMutability": "nonpayable",
      "type": "function"
    },
    {
      "constant": true,
      "inputs": [
        {
          "name": "account",
          "type": "address"
        }
      ],
      "name": "balanceOf",
      "outputs": [
        {
          "name": "",
          "type": "uint256"
        }
      ],
      "payable": false,
      "stateMutability": "view",
      "type": "function"
    },
    {
      "constant": false,
      "inputs": [
        {
          "name": "spender",
          "type": "address"
        },
        {
          "name": "subtractedValue",
          "type": "uint256"
        }
      ],
      "name": "decreaseAllowance",
      "outputs": [
        {
          "name": "",
          "type": "bool"
        }
      ],
      "payable": false,
      "stateMutability": "nonpayable",
      "type": "function"
    },
    {
      "constant": false,
      "inputs": [
        {
          "name": "to",
          "type": "address"
        },
        {
          "name": "value",
          "type": "uint256"
        }
      ],
      "name": "transfer",
      "outputs": [
        {
          "name": "",
          "type": "bool"
        }
      ],
      "payable": false,
      "stateMutability": "nonpayable",
      "type": "function"
    },
    {
      "constant": true,
      "inputs": [],
      "name": "BASE_COMMUNITY_FEE_PERCENTAGE",
      "outputs": [
        {
          "name": "",
          "type": "uint256"
        }
      ],
      "payable": false,
      "stateMutability": "view",
      "type": "function"
    },
    {
      "constant": true,
      "inputs": [
        {
          "name": "owner",
          "type": "address"
        },
        {
          "name": "spender",
          "type": "address"
        }
      ],
      "name": "allowance",
      "outputs": [
        {
          "name": "",
          "type": "uint256"
        }
      ],
      "payable": false,
      "stateMutability": "view",
      "type": "function"
    },
    {
      "constant": true,
      "inputs": [],
      "name": "BASE",
      "outputs": [
        {
          "name": "",
          "type": "uint256"
        }
      ],
      "payable": false,
      "stateMutability": "view",
      "type": "function"
    },
    {
      "inputs": [
        {
          "name": "name",
          "type": "string"
        },
        {
          "name": "symbol",
          "type": "string"
        },
        {
          "name": "minter",
          "type": "address"
        },
        {
          "name": "cap",
          "type": "uint256"
        },
        {
          "name": "blob",
          "type": "string"
        },
        {
          "name": "feeCollector",
          "type": "address"
        }
      ],
      "payable": false,
      "stateMutability": "nonpayable",
      "type": "constructor"
    },
    {
      "anonymous": false,
      "inputs": [
        {
          "indexed": false,
          "name": "amount",
          "type": "uint256"
        },
        {
          "indexed": false,
          "name": "did",
          "type": "bytes32"
        },
        {
          "indexed": false,
          "name": "serviceId",
          "type": "uint256"
        },
        {
          "indexed": false,
          "name": "receiver",
          "type": "address"
        },
        {
          "indexed": false,
          "name": "startedAt",
          "type": "uint256"
        },
        {
          "indexed": false,
          "name": "feeCollector",
          "type": "address"
        },
        {
          "indexed": false,
          "name": "marketFee",
          "type": "uint256"
        }
      ],
      "name": "OrderStarted",
      "type": "event"
    },
    {
      "anonymous": false,
      "inputs": [
        {
          "indexed": false,
          "name": "orderTxId",
          "type": "bytes32"
        },
        {
          "indexed": false,
          "name": "consumer",
          "type": "address"
        },
        {
          "indexed": false,
          "name": "amount",
          "type": "uint256"
        },
        {
          "indexed": false,
          "name": "did",
          "type": "bytes32"
        },
        {
          "indexed": false,
          "name": "serviceId",
          "type": "uint256"
        },
        {
          "indexed": false,
          "name": "provider",
          "type": "address"
        }
      ],
      "name": "OrderFinished",
      "type": "event"
    },
    {
      "anonymous": false,
      "inputs": [
        {
          "indexed": true,
          "name": "from",
          "type": "address"
        },
        {
          "indexed": true,
          "name": "to",
          "type": "address"
        },
        {
          "indexed": false,
          "name": "value",
          "type": "uint256"
        }
      ],
      "name": "Transfer",
      "type": "event"
    },
    {
      "anonymous": false,
      "inputs": [
        {
          "indexed": true,
          "name": "owner",
          "type": "address"
        },
        {
          "indexed": true,
          "name": "spender",
          "type": "address"
        },
        {
          "indexed": false,
          "name": "value",
          "type": "uint256"
        }
      ],
      "name": "Approval",
      "type": "event"
    },
    {
      "constant": false,
      "inputs": [
        {
          "name": "name",
          "type": "string"
        },
        {
          "name": "symbol",
          "type": "string"
        },
        {
          "name": "minter",
          "type": "address"
        },
        {
          "name": "cap",
          "type": "uint256"
        },
        {
          "name": "blob",
          "type": "string"
        },
        {
          "name": "feeCollector",
          "type": "address"
        }
      ],
      "name": "initialize",
      "outputs": [
        {
          "name": "",
          "type": "bool"
        }
      ],
      "payable": false,
      "stateMutability": "nonpayable",
      "type": "function"
    },
    {
      "constant": false,
      "inputs": [
        {
          "name": "account",
          "type": "address"
        },
        {
          "name": "value",
          "type": "uint256"
        }
      ],
      "name": "mint",
      "outputs": [],
      "payable": true,
      "stateMutability": "payable",
      "type": "function"
    },
    {
      "constant": false,
      "inputs": [
        {
          "name": "receiver",
          "type": "address"
        },
        {
          "name": "amount",
          "type": "uint256"
        },
        {
          "name": "did",
          "type": "bytes32"
        },
        {
          "name": "serviceId",
          "type": "uint256"
        },
        {
          "name": "feeCollector",
          "type": "address"
        },
        {
          "name": "feePercentage",
          "type": "uint256"
        }
      ],
      "name": "startOrder",
      "outputs": [],
      "payable": false,
      "stateMutability": "nonpayable",
      "type": "function"
    },
    {
      "constant": false,
      "inputs": [
        {
          "name": "orderTxId",
          "type": "bytes32"
        },
        {
          "name": "consumer",
          "type": "address"
        },
        {
          "name": "amount",
          "type": "uint256"
        },
        {
          "name": "did",
          "type": "bytes32"
        },
        {
          "name": "serviceId",
          "type": "uint256"
        }
      ],
      "name": "finishOrder",
      "outputs": [],
      "payable": false,
      "stateMutability": "nonpayable",
      "type": "function"
    },
    {
      "constant": false,
      "inputs": [],
      "name": "pause",
      "outputs": [],
      "payable": false,
      "stateMutability": "nonpayable",
      "type": "function"
    },
    {
      "constant": false,
      "inputs": [],
      "name": "unpause",
      "outputs": [],
      "payable": false,
      "stateMutability": "nonpayable",
      "type": "function"
    },
    {
      "constant": false,
      "inputs": [
        {
          "name": "minter",
          "type": "address"
        }
      ],
      "name": "setMinter",
      "outputs": [],
      "payable": false,
      "stateMutability": "nonpayable",
      "type": "function"
    },
    {
      "constant": true,
      "inputs": [],
      "name": "name",
      "outputs": [
        {
          "name": "",
          "type": "string"
        }
      ],
      "payable": false,
      "stateMutability": "view",
      "type": "function"
    },
    {
      "constant": true,
      "inputs": [],
      "name": "symbol",
      "outputs": [
        {
          "name": "",
          "type": "string"
        }
      ],
      "payable": false,
      "stateMutability": "view",
      "type": "function"
    },
    {
      "constant": true,
      "inputs": [],
      "name": "blob",
      "outputs": [
        {
          "name": "",
          "type": "string"
        }
      ],
      "payable": false,
      "stateMutability": "view",
      "type": "function"
    },
    {
      "constant": true,
      "inputs": [],
      "name": "decimals",
      "outputs": [
        {
          "name": "",
          "type": "uint256"
        }
      ],
      "payable": false,
      "stateMutability": "view",
      "type": "function"
    },
    {
      "constant": true,
      "inputs": [],
      "name": "cap",
      "outputs": [
        {
          "name": "",
          "type": "uint256"
        }
      ],
      "payable": false,
      "stateMutability": "view",
      "type": "function"
    },
    {
      "constant": true,
      "inputs": [
        {
          "name": "account",
          "type": "address"
        }
      ],
      "name": "isMinter",
      "outputs": [
        {
          "name": "",
          "type": "bool"
        }
      ],
      "payable": false,
      "stateMutability": "view",
      "type": "function"
    },
    {
      "constant": true,
      "inputs": [],
      "name": "isInitialized",
      "outputs": [
        {
          "name": "",
          "type": "bool"
        }
      ],
      "payable": false,
      "stateMutability": "view",
      "type": "function"
    },
    {
      "constant": true,
      "inputs": [],
      "name": "isPaused",
      "outputs": [
        {
          "name": "",
          "type": "bool"
        }
      ],
      "payable": false,
      "stateMutability": "view",
      "type": "function"
    },
    {
      "constant": true,
      "inputs": [
        {
          "name": "amount",
          "type": "uint256"
        },
        {
          "name": "feePercentage",
          "type": "uint256"
        }
      ],
      "name": "calculateFee",
      "outputs": [
        {
          "name": "",
          "type": "uint256"
        }
      ],
      "payable": false,
      "stateMutability": "pure",
      "type": "function"
    },
    {
      "constant": true,
      "inputs": [
        {
          "name": "amount",
          "type": "uint256"
        },
        {
          "name": "feePercentage",
          "type": "uint256"
        }
      ],
      "name": "calculateTotalFee",
      "outputs": [
        {
          "name": "",
          "type": "uint256"
        }
      ],
      "payable": false,
      "stateMutability": "pure",
      "type": "function"
    }
  ],
  "bytecode": "0x60806040526003805461ffff191690553480156200001c57600080fd5b50604051620023d1380380620023d1833981018060405260c08110156200004257600080fd5b8101908080516401000000008111156200005b57600080fd5b820160208101848111156200006f57600080fd5b81516401000000008111828201871017156200008a57600080fd5b50509291906020018051640100000000811115620000a757600080fd5b82016020810184811115620000bb57600080fd5b8151640100000000811182820187101715620000d657600080fd5b505060208201516040830151606090930180519295919491926401000000008111156200010257600080fd5b820160208101848111156200011657600080fd5b81516401000000008111828201871017156200013157600080fd5b505060209091015190925090506200015786868686868664010000000062000164810204565b5050505050505062000426565b6000600160a060020a038516620001c7576040517f08c379a00000000000000000000000000000000000000000000000000000000081526004018080602001828103825260308152602001806200230e6030913960400191505060405180910390fd5b600954600160a060020a0316156200022b576040517f08c379a000000000000000000000000000000000000000000000000000000000815260040180806020018281038252602f815260200180620023a2602f913960400191505060405180910390fd5b600160a060020a0382166200028c576040517f08c379a00000000000000000000000000000000000000000000000000000000081526004018080602001828103825260408152602001806200233e6040913960400191505060405180910390fd5b60008411620002e7576040517f08c379a00000000000000000000000000000000000000000000000000000000081526004018080602001828103825260248152602001806200237e6024913960400191505060405180910390fd5b601260085560078490558651620003069060049060208a019062000381565b5082516200031c90600690602086019062000381565b5085516200033290600590602089019062000381565b505060098054600160a060020a03958616600160a060020a031991821617909155600a80549290951691161790925550506003805461ff00191661010090811791829055900460ff1692915050565b828054600181600116156101000203166002900490600052602060002090601f016020900481019282601f10620003c457805160ff1916838001178555620003f4565b82800160010185558215620003f4579182015b82811115620003f4578251825591602001919060010190620003d7565b506200040292915062000406565b5090565b6200042391905b808211156200040257600081556001016200040d565b90565b611ed880620004366000396000f3fe6080604052600436106101b9576000357c0100000000000000000000000000000000000000000000000000000000900480638456cb5911610109578063b2263a5d116100a7578063ec342ad011610081578063ec342ad0146107d0578063fca3b5aa146107e5578063fcff53a714610818578063fde0e7a814610848576101b9565b8063b2263a5d14610735578063d11ccfb71461074a578063dd62ed3e14610795576101b9565b8063a457c2d7116100e3578063a457c2d71461067b578063a9059cbb146106b4578063aa271e1a146106ed578063b187bd2614610720576101b9565b80638456cb59146104705780639070d2f81461048557806395d89b4114610666576101b9565b8063355274ea116101765780633f4ba83a116101505780633f4ba83a146103a757806340c10f19146103be5780634836d8dc146103ea57806370a082311461043d576101b9565b8063355274ea14610344578063392e53cd14610359578063395093511461036e576101b9565b806306fdde03146101be578063095ea7b31461024857806318160ddd1461029557806323b872dd146102bc578063313ce567146102ff57806334e7312214610314575b600080fd5b3480156101ca57600080fd5b506101d361085d565b6040805160208082528351818301528351919283929083019185019080838360005b8381101561020d5781810151838201526020016101f5565b50505050905090810190601f16801561023a5780820380516001836020036101000a031916815260200191505b509250505060405180910390f35b34801561025457600080fd5b506102816004803603604081101561026b57600080fd5b50600160a060020a0381351690602001356108f4565b604080519115158252519081900360200190f35b3480156102a157600080fd5b506102aa61094f565b60408051918252519081900360200190f35b3480156102c857600080fd5b50610281600480360360608110156102df57600080fd5b50600160a060020a03813581169160208101359091169060400135610955565b34801561030b57600080fd5b506102aa6109b0565b34801561032057600080fd5b506102aa6004803603604081101561033757600080fd5b50803590602001356109b6565b34801561035057600080fd5b506102aa6109e0565b34801561036557600080fd5b506102816109e6565b34801561037a57600080fd5b506102816004803603604081101561039157600080fd5b50600160a060020a0381351690602001356109f4565b3480156103b357600080fd5b506103bc610a46565b005b6103bc600480360360408110156103d457600080fd5b50600160a060020a038135169060200135610ae2565b3480156103f657600080fd5b506103bc600480360360c081101561040d57600080fd5b50600160a060020a0381358116916020810135916040820135916060810135916080820135169060a00135610bf2565b34801561044957600080fd5b506102aa6004803603602081101561046057600080fd5b5035600160a060020a0316610db5565b34801561047c57600080fd5b506103bc610dd0565b34801561049157600080fd5b50610281600480360360c08110156104a857600080fd5b8101906020810181356401000000008111156104c357600080fd5b8201836020820111156104d557600080fd5b803590602001918460018302840111640100000000831117156104f757600080fd5b91908080601f016020809104026020016040519081016040528093929190818152602001838380828437600092019190915250929594936020810193503591505064010000000081111561054a57600080fd5b82018360208201111561055c57600080fd5b8035906020019184600183028401116401000000008311171561057e57600080fd5b91908080601f0160208091040260200160405190810160405280939291908181526020018383808284376000920191909152509295600160a060020a03853516956020860135959194509250606081019150604001356401000000008111156105e657600080fd5b8201836020820111156105f857600080fd5b8035906020019184600183028401116401000000008311171561061a57600080fd5b91908080601f01602080910402602001604051908101604052809392919081815260200183838082843760009201919091525092955050509035600160a060020a03169150610e709050565b34801561067257600080fd5b506101d3610ed6565b34801561068757600080fd5b506102816004803603604081101561069e57600080fd5b50600160a060020a038135169060200135610f37565b3480156106c057600080fd5b50610281600480360360408110156106d757600080fd5b50600160a060020a038135169060200135610f89565b3480156106f957600080fd5b506102816004803603602081101561071057600080fd5b5035600160a060020a0316610fdb565b34801561072c57600080fd5b50610281610fef565b34801561074157600080fd5b506102aa610ff8565b34801561075657600080fd5b506103bc600480360360a081101561076d57600080fd5b50803590600160a060020a036020820135169060408101359060608101359060800135611003565b3480156107a157600080fd5b506102aa600480360360408110156107b857600080fd5b50600160a060020a03813581169160200135166110b4565b3480156107dc57600080fd5b506102aa6110df565b3480156107f157600080fd5b506103bc6004803603602081101561080857600080fd5b5035600160a060020a03166110eb565b34801561082457600080fd5b506102aa6004803603604081101561083b57600080fd5b50803590602001356111ab565b34801561085457600080fd5b506101d36111cf565b60048054604080516020601f60026000196101006001881615020190951694909404938401819004810282018101909252828152606093909290918301828280156108e95780601f106108be576101008083540402835291602001916108e9565b820191906000526020600020905b8154815290600101906020018083116108cc57829003601f168201915b505050505090505b90565b60035460009060ff161561093c5760405160e560020a62461bcd02815260040180806020018281038252602c815260200180611bb6602c913960400191505060405180910390fd5b6109468383611230565b90505b92915050565b60025490565b60035460009060ff161561099d5760405160e560020a62461bcd02815260040180806020018281038252602c815260200180611bb6602c913960400191505060405180910390fd5b6109a884848461124d565b949350505050565b60085490565b6000610946670de0b6b3a76400006109d4858563ffffffff6112da16565b9063ffffffff61133616565b60075490565b600354610100900460ff1690565b60035460009060ff1615610a3c5760405160e560020a62461bcd02815260040180806020018281038252602c815260200180611bb6602c913960400191505060405180910390fd5b6109468383611378565b60035460ff16610a8a5760405160e560020a62461bcd028152600401808060200182810382526030815260200180611e346030913960400191505060405180910390fd5b600954600160a060020a03163314610ad65760405160e560020a62461bcd028152600401808060200182810382526021815260200180611c686021913960400191505060405180910390fd5b6003805460ff19169055565b60035460ff1615610b275760405160e560020a62461bcd02815260040180806020018281038252602c815260200180611bb6602c913960400191505060405180910390fd5b600954600160a060020a03163314610b735760405160e560020a62461bcd028152600401808060200182810382526021815260200180611c686021913960400191505060405180910390fd5b600754610b8e82610b8261094f565b9063ffffffff6113cc16565b1115610be4576040805160e560020a62461bcd02815260206004820152601f60248201527f44617461546f6b656e54656d706c6174653a2063617020657863656564656400604482015290519081900360640190fd5b610bee8282611429565b5050565b600160a060020a038616610c3a5760405160e560020a62461bcd02815260040180806020018281038252602b815260200180611caf602b913960400191505060405180910390fd5b600160a060020a038216610c825760405160e560020a62461bcd02815260040180806020018281038252602b815260200180611caf602b913960400191505060405180910390fd5b6000610c9b866103e8670de0b6b3a76400005b046109b6565b90506000610ca987846109b6565b905086610cbc828463ffffffff6113cc16565b10610cfb5760405160e560020a62461bcd02815260040180806020018281038252602f815260200180611c04602f913960400191505060405180910390fd5b610d2488610d1f610d12858563ffffffff6113cc16565b8a9063ffffffff61151c16565b610f89565b50610d2f8482610f89565b50600a54610d4690600160a060020a031683610f89565b506040805188815260208101889052808201879052600160a060020a03808b166060830152436080830152861660a082015260c0810183905290517f234d8c52e37134fb00ac29f125561ed5fea64c79f2203d60d4f4e17afcfb40e99181900360e00190a15050505050505050565b600160a060020a031660009081526020819052604090205490565b60035460ff1615610e155760405160e560020a62461bcd02815260040180806020018281038252602c815260200180611bb6602c913960400191505060405180910390fd5b600954600160a060020a03163314610e615760405160e560020a62461bcd028152600401808060200182810382526021815260200180611c686021913960400191505060405180910390fd5b6003805460ff19166001179055565b600354600090610100900460ff1615610ebd5760405160e560020a62461bcd028152600401808060200182810382526035815260200180611c336035913960400191505060405180910390fd5b610ecb87878787878761155e565b979650505050505050565b60058054604080516020601f60026000196101006001881615020190951694909404938401819004810282018101909252828152606093909290918301828280156108e95780601f106108be576101008083540402835291602001916108e9565b60035460009060ff1615610f7f5760405160e560020a62461bcd02815260040180806020018281038252602c815260200180611bb6602c913960400191505060405180910390fd5b610946838361171e565b60035460009060ff1615610fd15760405160e560020a62461bcd02815260040180806020018281038252602c815260200180611bb6602c913960400191505060405180910390fd5b610946838361178c565b600954600160a060020a0391821691161490565b60035460ff1690565b66038d7ea4c6800081565b8215611051576110138484610f89565b6110515760405160e560020a62461bcd028152600401808060200182810382526029815260200180611cda6029913960400191505060405180910390fd5b60408051868152600160a060020a038616602082015280820185905260608101849052608081018390523360a082015290517f42150fdd49b467ae7aced88ce19fbcec3a999171cc3f4631935dad3542fda3e49181900360c00190a15050505050565b600160a060020a03918216600090815260016020908152604080832093909416825291909152205490565b670de0b6b3a764000081565b60035460ff16156111305760405160e560020a62461bcd02815260040180806020018281038252602c815260200180611bb6602c913960400191505060405180910390fd5b600954600160a060020a0316331461117c5760405160e560020a62461bcd028152600401808060200182810382526021815260200180611c686021913960400191505060405180910390fd5b6009805473ffffffffffffffffffffffffffffffffffffffff1916600160a060020a0392909216919091179055565b60006109466111ba84846109b6565b610b82856103e8670de0b6b3a7640000610c95565b60068054604080516020601f60026000196101006001881615020190951694909404938401819004810282018101909252828152606093909290918301828280156108e95780601f106108be576101008083540402835291602001916108e9565b600061124461123d6117a0565b84846117a4565b50600192915050565b600061125a848484611896565b6112d0846112666117a0565b6112cb85604051806060016040528060288152602001611db860289139600160a060020a038a166000908152600160205260408120906112a46117a0565b600160a060020a03168152602081019190915260400160002054919063ffffffff6119f816565b6117a4565b5060019392505050565b6000826112e957506000610949565b828202828482816112f657fe5b04146109465760405160e560020a62461bcd028152600401808060200182810382526021815260200180611d736021913960400191505060405180910390fd5b600061094683836040518060400160405280601a81526020017f536166654d6174683a206469766973696f6e206279207a65726f000000000000815250611a92565b60006112446113856117a0565b846112cb85600160006113966117a0565b600160a060020a03908116825260208083019390935260409182016000908120918c16815292529020549063ffffffff6113cc16565b600082820183811015610946576040805160e560020a62461bcd02815260206004820152601b60248201527f536166654d6174683a206164646974696f6e206f766572666c6f770000000000604482015290519081900360640190fd5b600160a060020a038216611487576040805160e560020a62461bcd02815260206004820152601f60248201527f45524332303a206d696e7420746f20746865207a65726f206164647265737300604482015290519081900360640190fd5b60025461149a908263ffffffff6113cc16565b600255600160a060020a0382166000908152602081905260409020546114c6908263ffffffff6113cc16565b600160a060020a0383166000818152602081815260408083209490945583518581529351929391927fddf252ad1be2c89b69c2b068fc378daa952ba7f163c4a11628f55a4df523b3ef9281900390910190a35050565b600061094683836040518060400160405280601e81526020017f536166654d6174683a207375627472616374696f6e206f766572666c6f7700008152506119f8565b6000600160a060020a0385166115a85760405160e560020a62461bcd028152600401808060200182810382526030815260200180611d036030913960400191505060405180910390fd5b600954600160a060020a0316156115f35760405160e560020a62461bcd02815260040180806020018281038252602f815260200180611de0602f913960400191505060405180910390fd5b600160a060020a03821661163b5760405160e560020a62461bcd028152600401808060200182810382526040815260200180611d336040913960400191505060405180910390fd5b6000841161167d5760405160e560020a62461bcd028152600401808060200182810382526024815260200180611d946024913960400191505060405180910390fd5b60126008556007849055865161169a9060049060208a0190611afa565b5082516116ae906006906020860190611afa565b5085516116c2906005906020890190611afa565b505060098054600160a060020a0395861673ffffffffffffffffffffffffffffffffffffffff1991821617909155600a80549290951691161790925550506003805461ff00191661010090811791829055900460ff1692915050565b600061124461172b6117a0565b846112cb85604051806060016040528060258152602001611e8860259139600160006117556117a0565b600160a060020a03908116825260208083019390935260409182016000908120918d1681529252902054919063ffffffff6119f816565b60006112446117996117a0565b8484611896565b3390565b600160a060020a0383166117ec5760405160e560020a62461bcd028152600401808060200182810382526024815260200180611e646024913960400191505060405180910390fd5b600160a060020a0382166118345760405160e560020a62461bcd028152600401808060200182810382526022815260200180611be26022913960400191505060405180910390fd5b600160a060020a03808416600081815260016020908152604080832094871680845294825291829020859055815185815291517f8c5be1e5ebec7d5bd14f71427d1e84f3dd0314c0f7b2291e5b200ac8c7c3b9259281900390910190a3505050565b600160a060020a0383166118de5760405160e560020a62461bcd028152600401808060200182810382526025815260200180611e0f6025913960400191505060405180910390fd5b600160a060020a0382166119265760405160e560020a62461bcd028152600401808060200182810382526023815260200180611b936023913960400191505060405180910390fd5b61196981604051806060016040528060268152602001611c8960269139600160a060020a038616600090815260208190526040902054919063ffffffff6119f816565b600160a060020a03808516600090815260208190526040808220939093559084168152205461199e908263ffffffff6113cc16565b600160a060020a038084166000818152602081815260409182902094909455805185815290519193928716927fddf252ad1be2c89b69c2b068fc378daa952ba7f163c4a11628f55a4df523b3ef92918290030190a3505050565b60008184841115611a8a5760405160e560020a62461bcd0281526004018080602001828103825283818151815260200191508051906020019080838360005b83811015611a4f578181015183820152602001611a37565b50505050905090810190601f168015611a7c5780820380516001836020036101000a031916815260200191505b509250505060405180910390fd5b505050900390565b60008183611ae45760405160e560020a62461bcd028152602060048201818152835160248401528351909283926044909101919085019080838360008315611a4f578181015183820152602001611a37565b506000838581611af057fe5b0495945050505050565b828054600181600116156101000203166002900490600052602060002090601f016020900481019282601f10611b3b57805160ff1916838001178555611b68565b82800160010185558215611b68579182015b82811115611b68578251825591602001919060010190611b4d565b50611b74929150611b78565b5090565b6108f191905b80821115611b745760008155600101611b7e56fe45524332303a207472616e7366657220746f20746865207a65726f206164647265737345524332305061757361626c653a207468697320746f6b656e20636f6e74726163742069732070617573656445524332303a20617070726f766520746f20746865207a65726f206164647265737344617461546f6b656e54656d706c6174653a20746f74616c2066656520657863656564732074686520616d6f756e7444617461546f6b656e54656d706c6174653a20746f6b656e20696e7374616e636520616c726561647920696e697469616c697a656444617461546f6b656e54656d706c6174653a20696e76616c6964206d696e74657245524332303a207472616e7366657220616d6f756e7420657863656564732062616c616e636544617461546f6b656e54656d706c6174653a20696e76616c6964207265636569766572206164647265737344617461546f6b656e54656d706c6174653a206661696c656420746f2066696e697368206f7264657244617461546f6b656e54656d706c6174653a20496e76616c6964206d696e7465722c20207a65726f206164647265737344617461546f6b656e54656d706c6174653a20496e76616c696420636f6d6d756e6974792066656520636f6c6c6563746f722c207a65726f2061646472657373536166654d6174683a206d756c7469706c69636174696f6e206f766572666c6f7744617461546f6b656e54656d706c6174653a20496e76616c6964206361702076616c756545524332303a207472616e7366657220616d6f756e74206578636565647320616c6c6f77616e636544617461546f6b656e54656d706c6174653a20496e76616c6964206d696e7465722c207a65726f206164647265737345524332303a207472616e736665722066726f6d20746865207a65726f206164647265737345524332305061757361626c653a207468697320746f6b656e20636f6e7472616374206973206e6f742070617573656445524332303a20617070726f76652066726f6d20746865207a65726f206164647265737345524332303a2064656372656173656420616c6c6f77616e63652062656c6f77207a65726fa165627a7a72305820d20681cb75bbf6cb7dc5f315b73e13a473e4776471f2e1e83a1ab55068c6f23d002944617461546f6b656e54656d706c6174653a20496e76616c6964206d696e7465722c20207a65726f206164647265737344617461546f6b656e54656d706c6174653a20496e76616c696420636f6d6d756e6974792066656520636f6c6c6563746f722c207a65726f206164647265737344617461546f6b656e54656d706c6174653a20496e76616c6964206361702076616c756544617461546f6b656e54656d706c6174653a20496e76616c6964206d696e7465722c207a65726f2061646472657373",
  "source": "pragma solidity ^0.5.7;\n// Copyright BigchainDB GmbH and Ocean Protocol contributors\n// SPDX-License-Identifier: (Apache-2.0 AND CC-BY-4.0)\n// Code is Apache-2.0 and docs are CC-BY-4.0\n\nimport './token/ERC20Pausable.sol';\nimport '../interfaces/IERC20Template.sol';\n\n/**\n* @title DataTokenTemplate\n*  \n* @dev DataTokenTemplate is an ERC20 compliant token template\n*      Used by the factory contract as a bytecode reference to \n*      deploy new DataTokens.\n*/\ncontract DataTokenTemplate is IERC20Template, ERC20Pausable {\n    using SafeMath for uint256;\n    \n    bool    private initialized = false;\n    string  private _name;\n    string  private _symbol;\n    string  private _blob;\n    uint256 private _cap;\n    uint256 private _decimals;\n    address private _minter;\n    address private _communityFeeCollector;\n    uint256 public constant BASE = 10**18;\n    uint256 public constant BASE_COMMUNITY_FEE_PERCENTAGE = BASE / 1000;\n\n    event OrderStarted(\n            uint256 amount, \n            bytes32 did, \n            uint256 serviceId, \n            address receiver, \n            uint256 startedAt,\n            address feeCollector,\n            uint256 marketFee\n    );\n\n    event OrderFinished(\n            bytes32 orderTxId, \n            address consumer, \n            uint256 amount, \n            bytes32 did, \n            uint256 serviceId, \n            address provider\n    );\n\n    modifier onlyNotInitialized() {\n        require(\n            !initialized,\n            'DataTokenTemplate: token instance already initialized'\n        );\n        _;\n    }\n    \n    modifier onlyMinter() {\n        require(\n            msg.sender == _minter,\n            'DataTokenTemplate: invalid minter' \n        );\n        _;\n    }\n\n    /**\n     * @dev constructor\n     *      Called prior contract deployment\n     * @param name refers to a template DataToken name\n     * @param symbol refers to a template DataToken symbol\n     * @param minter refers to an address that has minter role\n     * @param cap the total ERC20 cap\n     * @param blob data string refering to the resolver for the DID\n     * @param feeCollector it is the community fee collector address\n     */\n    constructor(\n        string memory name,\n        string memory symbol,\n        address minter,\n        uint256 cap,\n        string memory blob,\n        address feeCollector\n    )\n        public\n    {\n        _initialize(\n            name,\n            symbol,\n            minter,\n            cap,\n            blob,\n            feeCollector\n        );\n    }\n    \n    /**\n     * @dev initialize\n     *      Called prior contract initialization (e.g creating new DataToken instance)\n     *      Calls private _initialize function. Only if contract is not initialized.\n     * @param name refers to a new DataToken name\n     * @param symbol refers to a nea DataToken symbol\n     * @param minter refers to an address that has minter rights\n     * @param cap the total ERC20 cap\n     * @param blob data string refering to the resolver for the DID\n     * @param feeCollector it is the community fee collector address\n     */\n    function initialize(\n        string memory name,\n        string memory symbol,\n        address minter,\n        uint256 cap,\n        string memory blob,\n        address feeCollector\n    ) \n        public\n        onlyNotInitialized\n        returns(bool)\n    {\n        return _initialize(\n            name,\n            symbol,\n            minter,\n            cap,\n            blob,\n            feeCollector\n        );\n    }\n\n    /**\n     * @dev _initialize\n     *      Private function called on contract initialization.\n     * @param name refers to a new DataToken name\n     * @param symbol refers to a nea DataToken symbol\n     * @param minter refers to an address that has minter rights\n     * @param cap the total ERC20 cap\n     * @param blob data string refering to the resolver for the DID\n     * @param feeCollector it is the community fee collector address\n     */\n    function _initialize(\n        string memory name,\n        string memory symbol,\n        address minter,\n        uint256 cap,\n        string memory blob,\n        address feeCollector\n    )\n        private\n        returns(bool)\n    {\n        require(\n            minter != address(0), \n            'DataTokenTemplate: Invalid minter,  zero address'\n        );\n\n        require(\n            _minter == address(0), \n            'DataTokenTemplate: Invalid minter, zero address'\n        );\n\n        require(\n            feeCollector != address(0),\n            'DataTokenTemplate: Invalid community fee collector, zero address'\n        );\n\n        require(\n            cap > 0,\n            'DataTokenTemplate: Invalid cap value'\n        );\n        \n        _decimals = 18;\n        _cap = cap;\n        _name = name;\n        _blob = blob;\n        _symbol = symbol;\n        _minter = minter;\n        _communityFeeCollector = feeCollector;\n        initialized = true;\n        return initialized;\n    }\n\n    /**\n     * @dev mint\n     *      Only the minter address can call it.\n     *      msg.value should be higher than zero and gt or eq minting fee\n     * @param account refers to an address that token is going to be minted to.\n     * @param value refers to amount of tokens that is going to be minted.\n     */\n    function mint(\n        address account,\n        uint256 value\n    ) \n        public \n        payable \n        onlyNotPaused \n        onlyMinter \n    {\n        require(\n            totalSupply().add(value) <= _cap, \n            'DataTokenTemplate: cap exceeded'\n        );\n        _mint(account, value);\n    }\n\n    /**\n     * @dev startOrder\n     *      called by consumer prior ordering a service consume on a marketplace\n     * @param receiver refers to an address that provide a service.\n     * @param amount refers to amount of tokens that is going to be transfered.\n     * @param did refers to DID or decentralized identifier for an asset\n     * @param serviceId service index in the DID\n     * @param feeCollector marketplace fee collector\n     * @param feePercentage marketplace fee percentage\n     */\n    function startOrder(\n        address receiver, \n        uint256 amount,\n        bytes32 did,\n        uint256 serviceId,\n        address feeCollector,\n        uint256 feePercentage\n    )\n        public\n    {\n        require(\n            receiver != address(0),\n            'DataTokenTemplate: invalid receiver address'\n        );\n\n        require(\n            feeCollector != address(0),\n            'DataTokenTemplate: invalid receiver address'\n        );\n\n        uint256 communityFee = calculateFee(\n            amount, \n            BASE_COMMUNITY_FEE_PERCENTAGE\n        );\n        uint256 marketFee = calculateFee(amount, feePercentage);\n        \n        require(\n            marketFee.add(communityFee) < amount,\n            'DataTokenTemplate: total fee exceeds the amount'\n        );\n        \n        transfer(receiver, amount.sub(communityFee.add(marketFee)));\n        transfer(feeCollector, marketFee);\n        transfer(_communityFeeCollector, communityFee);\n\n        emit OrderStarted(\n            amount,\n            did,\n            serviceId,\n            receiver,\n            block.number,\n            feeCollector,\n            marketFee\n        );\n    }\n\n    /**\n     * @dev finishOrder\n     *      called by provider prior completing service delivery only\n     *      if there is a partial or full refund.\n     * @param orderTxId refers to the transaction Id  of startOrder acts \n     *                  as a payment reference.\n     * @param consumer refers to an address that has consumed that service.\n     * @param amount refers to amount of tokens that is going to be transfered.\n     * @param did refers to DID or decentralized identifier for an asset.\n     * @param serviceId service index in the DID.\n     */\n    function finishOrder(\n        bytes32 orderTxId, \n        address consumer, \n        uint256 amount,\n        bytes32 did, \n        uint256 serviceId\n    )\n        public\n    {\n        if ( amount > 0 )  \n            require(\n                transfer(consumer, amount),\n                'DataTokenTemplate: failed to finish order'\n            );\n\n        emit OrderFinished(\n            orderTxId, \n            consumer, \n            amount, \n            did, \n            serviceId, \n            msg.sender\n        );\n    }\n\n    /**\n     * @dev pause\n     *      It pauses the contract functionalities (transfer, mint, etc)\n     *      Only could be called if the contract is not already paused.\n     *      Only called by the minter address.\n     */\n    function pause() public onlyNotPaused onlyMinter {\n        paused = true;\n    }\n\n    /**\n     * @dev unpause\n     *      It unpauses the contract.\n     *      Only called if the contract is paused.\n     *      Only minter can call it.\n     */\n    function unpause() public onlyPaused onlyMinter {\n        paused = false;\n    }\n\n    /**\n     * @dev setMinter\n     *      It sets a new token minter address.\n     *      Only called be called if the contract is not paused.\n     *      Only the current minter can call it.\n     * @param minter refers to a new token minter address.\n     */\n    function setMinter(address minter) public onlyNotPaused onlyMinter {\n        _minter = minter;\n    }\n\n    /**\n     * @dev name\n     *      It returns the token name.\n     * @return DataToken name.\n     */\n    function name() public view returns(string memory) {\n        return _name;\n    }\n\n    /**\n     * @dev symbol\n     *      It returns the token symbol.\n     * @return DataToken symbol.\n     */\n    function symbol() public view returns(string memory) {\n        return _symbol;\n    }\n\n    /**\n     * @dev blob\n     *      It returns the blob (e.g https://123.com).\n     * @return DataToken blob.\n     */\n    function blob() public view returns(string memory) {\n        return _blob;\n    }\n\n    /**\n     * @dev decimals\n     *      It returns the token decimals.\n     *      how many supported decimal points\n     * @return DataToken decimals.\n     */\n    function decimals() public view returns(uint256) {\n        return _decimals;\n    }\n\n    /**\n     * @dev cap\n     *      it returns the capital.\n     * @return DataToken cap.\n     */\n    function cap() public view returns (uint256) {\n        return _cap;\n    }\n\n    /**\n     * @dev isMinter\n     *      It takes the address and checks whether it has a minter role.\n     * @param account refers to the address.\n     * @return true if account has a minter role.\n     */\n    function isMinter(address account) public view returns(bool) {\n        return (_minter == account);\n    } \n\n    /**\n     * @dev isInitialized\n     *      It checks whether the contract is initialized.\n     * @return true if the contract is initialized.\n     */ \n    function isInitialized() public view returns(bool) {\n        return initialized;\n    }\n\n    /**\n     * @dev isPaused\n     *      Function checks if the contract is paused.\n     * @return true if the contract is paused.\n     */ \n    function isPaused() public view returns(bool) {\n        return paused;\n    }\n\n    /**\n     * @dev calculateFee\n     *      giving a fee percentage, and amount it calculates the actual fee\n     * @param amount the amount of token\n     * @param feePercentage the fee percentage \n     * @return the token fee.\n     */ \n    function calculateFee(\n        uint256 amount,\n        uint256 feePercentage\n    )\n        public\n        pure\n        returns(uint256)\n    {\n        return amount.mul(feePercentage).div(BASE);\n    }\n\n     /**\n     * @dev calculateTotalFee\n     *      giving a fee percentage, and amount it calculates \n     *      the total fee (including the community fee) needed for order.\n     * @param amount the amount of token\n     * @param feePercentage the fee percentage \n     * @return the total order fee.\n     */ \n    function calculateTotalFee(\n        uint256 amount,\n        uint256 feePercentage\n    )\n        public\n        pure\n        returns(uint256)\n    {\n        return calculateFee(amount, BASE_COMMUNITY_FEE_PERCENTAGE).add(\n            calculateFee(amount, feePercentage)\n        );\n    }\n}",
  "sourcePath": "/Users/ahmedali/Desktop/work/ocean-contracts/contracts/templates/DataTokenTemplate.sol",
  "compiler": {
    "name": "solc",
    "version": "0.5.7+commit.6da8b019.Emscripten.clang"
  },
  "schemaVersion": "3.2.0",
  "updatedAt": "2020-08-29T17:23:10.809Z",
  "devdoc": {
    "details": "DataTokenTemplate is an ERC20 compliant token template     Used by the factory contract as a bytecode reference to      deploy new DataTokens.",
    "methods": {
      "allowance(address,address)": {
        "details": "See {IERC20-allowance}."
      },
      "approve(address,uint256)": {
        "details": "approve     Standard ERC20 approve function with onlyNotPaused modifier.     Can be called only if the contract is not paused.",
        "params": {
          "spender": "refers to an address that is allowed to spend tokens.",
          "value": "refers to amount of tokens that could be spent."
        },
        "return": "true if approval is success, false otherwise."
      },
      "balanceOf(address)": {
        "details": "See {IERC20-balanceOf}."
      },
      "blob()": {
        "details": "blob     It returns the blob (e.g https://123.com).",
        "return": "DataToken blob."
      },
      "calculateFee(uint256,uint256)": {
        "details": "calculateFee     giving a fee percentage, and amount it calculates the actual fee",
        "params": {
          "amount": "the amount of token",
          "feePercentage": "the fee percentage "
        },
        "return": "the token fee."
      },
      "calculateTotalFee(uint256,uint256)": {
        "details": "calculateTotalFee     giving a fee percentage, and amount it calculates      the total fee (including the community fee) needed for order.",
        "params": {
          "amount": "the amount of token",
          "feePercentage": "the fee percentage "
        },
        "return": "the total order fee."
      },
      "cap()": {
        "details": "cap     it returns the capital.",
        "return": "DataToken cap."
      },
      "constructor": {
        "details": "constructor     Called prior contract deployment",
        "params": {
          "blob": "data string refering to the resolver for the DID",
          "cap": "the total ERC20 cap",
          "feeCollector": "it is the community fee collector address",
          "minter": "refers to an address that has minter role",
          "name": "refers to a template DataToken name",
          "symbol": "refers to a template DataToken symbol"
        }
      },
      "decimals()": {
        "details": "decimals     It returns the token decimals.     how many supported decimal points",
        "return": "DataToken decimals."
      },
      "decreaseAllowance(address,uint256)": {
        "details": "decreaseAllowance     Standard ERC20 decreaseAllowance function with onlyNotPaused modifier.     Can be called only if the contract is not paused.",
        "params": {
          "spender": "refers to an address that is allowed to spend tokens.",
          "subtractedValue": "refers to an subtracted amount of tokens that could be spent."
        },
        "return": "true if allowance is decreased successfully, false otherwise."
      },
      "finishOrder(bytes32,address,uint256,bytes32,uint256)": {
        "details": "finishOrder     called by provider prior completing service delivery only     if there is a partial or full refund.",
        "params": {
          "amount": "refers to amount of tokens that is going to be transfered.",
          "consumer": "refers to an address that has consumed that service.",
          "did": "refers to DID or decentralized identifier for an asset.",
          "orderTxId": "refers to the transaction Id  of startOrder acts                  as a payment reference.",
          "serviceId": "service index in the DID."
        }
      },
      "increaseAllowance(address,uint256)": {
        "details": "increaseAllowance     Standard ERC20 increaseAllowance function with onlyNotPaused modifier.     Can be called only if the contract is not paused.",
        "params": {
          "addedValue": "refers to an added amount of tokens that could be spent.",
          "spender": "refers to an address that is allowed to spend tokens."
        },
        "return": "true if allowance is increased successfully, false otherwise."
      },
      "initialize(string,string,address,uint256,string,address)": {
        "details": "initialize     Called prior contract initialization (e.g creating new DataToken instance)     Calls private _initialize function. Only if contract is not initialized.",
        "params": {
          "blob": "data string refering to the resolver for the DID",
          "cap": "the total ERC20 cap",
          "feeCollector": "it is the community fee collector address",
          "minter": "refers to an address that has minter rights",
          "name": "refers to a new DataToken name",
          "symbol": "refers to a nea DataToken symbol"
        }
      },
      "isInitialized()": {
        "details": "isInitialized     It checks whether the contract is initialized.",
        "return": "true if the contract is initialized."
      },
      "isMinter(address)": {
        "details": "isMinter     It takes the address and checks whether it has a minter role.",
        "params": {
          "account": "refers to the address."
        },
        "return": "true if account has a minter role."
      },
      "isPaused()": {
        "details": "isPaused     Function checks if the contract is paused.",
        "return": "true if the contract is paused."
      },
      "mint(address,uint256)": {
        "details": "mint     Only the minter address can call it.     msg.value should be higher than zero and gt or eq minting fee",
        "params": {
          "account": "refers to an address that token is going to be minted to.",
          "value": "refers to amount of tokens that is going to be minted."
        }
      },
      "name()": {
        "details": "name     It returns the token name.",
        "return": "DataToken name."
      },
      "pause()": {
        "details": "pause     It pauses the contract functionalities (transfer, mint, etc)     Only could be called if the contract is not already paused.     Only called by the minter address."
      },
      "setMinter(address)": {
        "details": "setMinter     It sets a new token minter address.     Only called be called if the contract is not paused.     Only the current minter can call it.",
        "params": {
          "minter": "refers to a new token minter address."
        }
      },
      "startOrder(address,uint256,bytes32,uint256,address,uint256)": {
        "details": "startOrder     called by consumer prior ordering a service consume on a marketplace",
        "params": {
          "amount": "refers to amount of tokens that is going to be transfered.",
          "did": "refers to DID or decentralized identifier for an asset",
          "feeCollector": "marketplace fee collector",
          "feePercentage": "marketplace fee percentage",
          "receiver": "refers to an address that provide a service.",
          "serviceId": "service index in the DID"
        }
      },
      "symbol()": {
        "details": "symbol     It returns the token symbol.",
        "return": "DataToken symbol."
      },
      "totalSupply()": {
        "details": "See {IERC20-totalSupply}."
      },
      "transfer(address,uint256)": {
        "details": "transfer     Standard ERC20 transfer function with onlyNotPaused modifier.     Can be called only if the contract is not paused.",
        "params": {
          "to": "refers to an address that tokens are tranfered to.",
          "value": "refers to amount of tokens being tranfered."
        },
        "return": "true if transfer is success, false otherwise."
      },
      "transferFrom(address,address,uint256)": {
        "details": "transfer     Standard ERC20 transferFrom function with onlyNotPaused modifier.     Can be called only if the contract is not paused.",
        "params": {
          "from": "refers to an address that tokens are tranfered from.",
          "to": "refers to an address that tokens are tranfered to.",
          "value": "refers to amount of tokens being tranfered."
        },
        "return": "true if transfer is success, false otherwise."
      },
      "unpause()": {
        "details": "unpause     It unpauses the contract.     Only called if the contract is paused.     Only minter can call it."
      }
    },
    "title": "DataTokenTemplate "
  },
  "userdoc": {
    "methods": {}
  }
}