{
  "contractName": "DDO",
  "abi": [
    {
      "constant": true,
      "inputs": [
        {
          "name": "",
          "type": "bytes32"
        }
      ],
      "name": "didOwners",
      "outputs": [
        {
          "name": "",
          "type": "address"
        }
      ],
      "payable": false,
      "stateMutability": "view",
      "type": "function"
    },
    {
      "inputs": [],
      "payable": false,
      "stateMutability": "nonpayable",
      "type": "constructor"
    },
    {
      "anonymous": false,
      "inputs": [
        {
          "indexed": true,
          "name": "did",
          "type": "bytes32"
        },
        {
          "indexed": false,
          "name": "flags",
          "type": "bytes"
        },
        {
          "indexed": false,
          "name": "data",
          "type": "bytes"
        },
        {
          "indexed": false,
          "name": "createdAt",
          "type": "uint256"
        },
        {
          "indexed": false,
          "name": "createdBy",
          "type": "address"
        }
      ],
      "name": "DDOCreated",
      "type": "event"
    },
    {
      "anonymous": false,
      "inputs": [
        {
          "indexed": true,
          "name": "did",
          "type": "bytes32"
        },
        {
          "indexed": false,
          "name": "flags",
          "type": "bytes"
        },
        {
          "indexed": false,
          "name": "data",
          "type": "bytes"
        },
        {
          "indexed": false,
          "name": "updatedAt",
          "type": "uint256"
        },
        {
          "indexed": false,
          "name": "updatedBy",
          "type": "address"
        }
      ],
      "name": "DDOUpdated",
      "type": "event"
    },
    {
      "anonymous": false,
      "inputs": [
        {
          "indexed": false,
          "name": "did",
          "type": "bytes32"
        },
        {
          "indexed": false,
          "name": "owner",
          "type": "address"
        }
      ],
      "name": "DDOOwnershipTransferred",
      "type": "event"
    },
    {
      "constant": false,
      "inputs": [
        {
          "name": "did",
          "type": "bytes32"
        },
        {
          "name": "flags",
          "type": "bytes"
        },
        {
          "name": "data",
          "type": "bytes"
        }
      ],
      "name": "create",
      "outputs": [],
      "payable": false,
      "stateMutability": "nonpayable",
      "type": "function"
    },
    {
      "constant": false,
      "inputs": [
        {
          "name": "did",
          "type": "bytes32"
        },
        {
          "name": "flags",
          "type": "bytes"
        },
        {
          "name": "data",
          "type": "bytes"
        }
      ],
      "name": "update",
      "outputs": [],
      "payable": false,
      "stateMutability": "nonpayable",
      "type": "function"
    },
    {
      "constant": false,
      "inputs": [
        {
          "name": "did",
          "type": "bytes32"
        },
        {
          "name": "owner",
          "type": "address"
        }
      ],
      "name": "transferOwnership",
      "outputs": [],
      "payable": false,
      "stateMutability": "nonpayable",
      "type": "function"
    }
  ],
  "bytecode": "0x608060405234801561001057600080fd5b5061067c806100206000396000f3fe608060405234801561001057600080fd5b5060043610610068577c010000000000000000000000000000000000000000000000000000000060003504633c114577811461006d5780635eceb8e0146101385780639ec3485414610171578063ef5d6bbb1461023a575b600080fd5b6101366004803603606081101561008357600080fd5b813591908101906040810160208201356401000000008111156100a557600080fd5b8201836020820111156100b757600080fd5b803590602001918460018302840111640100000000831117156100d957600080fd5b9193909290916020810190356401000000008111156100f757600080fd5b82018360208201111561010957600080fd5b8035906020019184600183028401116401000000008311171561012b57600080fd5b509092509050610266565b005b6101556004803603602081101561014e57600080fd5b5035610377565b60408051600160a060020a039092168252519081900360200190f35b6101366004803603606081101561018757600080fd5b813591908101906040810160208201356401000000008111156101a957600080fd5b8201836020820111156101bb57600080fd5b803590602001918460018302840111640100000000831117156101dd57600080fd5b9193909290916020810190356401000000008111156101fb57600080fd5b82018360208201111561020d57600080fd5b8035906020019184600183028401116401000000008311171561022f57600080fd5b509092509050610392565b6101366004803603604081101561025057600080fd5b5080359060200135600160a060020a03166104e1565b6000858152602081905260409020548590600160a060020a031633146102c05760405160e560020a62461bcd02815260040180806020018281038252602c815260200180610625602c913960400191505060405180910390fd5b857fffb035a7c70f2d2e882d4082fbe148af2b511bfbd195f608a355de457f10bc5a86868686433360405180806020018060200185815260200184600160a060020a0316600160a060020a031681526020018381038352898982818152602001925080828437600083820152601f01601f191690910184810383528781526020019050878780828437600083820152604051601f909101601f19169092018290039a509098505050505050505050a2505050505050565b600060208190529081526040902054600160a060020a031681565b600085815260208190526040902054600160a060020a0316156103ff576040805160e560020a62461bcd02815260206004820152601760248201527f44444f3a2044494420616c726561647920657869737473000000000000000000604482015290519081900360640190fd5b60008581526020818152604091829020805473ffffffffffffffffffffffffffffffffffffffff1916331790819055825143938101849052600160a060020a0391909116606082018190526080808352820187905288937f5b334670e97ad5c8f9ebd52dd015e196220cf712504799f0464831c18ba5115e9389938993899389939092908190810160a08201898980828437600083820152601f01601f191690910184810383528781526020019050878780828437600083820152604051601f909101601f19169092018290039a509098505050505050505050a25050505050565b6000828152602081905260409020548290600160a060020a0316331461053b5760405160e560020a62461bcd02815260040180806020018281038252602c815260200180610625602c913960400191505060405180910390fd5b600160a060020a038216331480159061055c5750600160a060020a03821615155b6105b0576040805160e560020a62461bcd02815260206004820152601e60248201527f44444f3a20696e76616c69642044444f206f776e657220616464726573730000604482015290519081900360640190fd5b60008381526020818152604091829020805473ffffffffffffffffffffffffffffffffffffffff1916600160a060020a03861690811790915582518681529182015281517fe043ea96b38a3f601a9464a549e035e3b2b5bc81f81f0cd84fc61a9beec366d4929181900390910190a150505056fe44444f3a20496e76616c696420444944204f776e6572206f722044494420646f6573206e6f74206578697374a165627a7a72305820dd773dbf08375eb3e02ea478242655a2c563905777021927e0839d84015933dc0029",
  "source": "pragma solidity ^0.5.7;\n// Copyright BigchainDB GmbH and Ocean Protocol contributors\n// SPDX-License-Identifier: (Apache-2.0 AND CC-BY-4.0)\n// Code is Apache-2.0 and docs are CC-BY-4.0\n\n/**\n* @title DDO\n*  \n* @dev DDO stands for Decentralized Document. It allows publishers\n*      to publish their dataset metadata in decentralized way.\n*      It follows the Ocean DID Document standard: \n*      https://github.com/oceanprotocol/OEPs/blob/master/7/v0.2/README.md\n*/\ncontract DDO {\n\n    mapping(bytes32 => address) public didOwners;\n\n    event DDOCreated(\n        bytes32 indexed did,\n        bytes flags,\n        bytes data,\n        uint256 createdAt,\n        address createdBy\n    );\n    event DDOUpdated(\n        bytes32 indexed did,\n        bytes flags,\n        bytes data,\n        uint256 updatedAt,\n        address updatedBy\n    );\n    event  DDOOwnershipTransferred(\n        bytes32 did,\n        address owner\n    );\n\n    modifier onlyDIDOwner(bytes32 did)\n    {\n        require(\n            didOwners[did] == msg.sender,\n            'DDO: Invalid DID Owner or DID does not exist'\n        );\n        _;\n    }\n    constructor() public {}\n\n    /**\n     * @dev create\n     *      creates/publishes new DDO document on-chain. \n     * @param did refers to decentralized identifier\n     * @param flags special flags associated with DID\n     * @param data referes to the actual metadata\n     */\n    function create(\n        bytes32 did,\n        bytes calldata flags,\n        bytes calldata data\n    ) \n        external\n    {\n        require(\n            didOwners[did] == address(0),\n            'DDO: DID already exists'\n        );\n        didOwners[did] = msg.sender;\n        emit DDOCreated(\n            did,\n            flags,\n            data,\n            block.number,\n            didOwners[did]\n        );\n    }\n\n    /**\n     * @dev update\n     *      allows only did owners to update the DDO/metadata content\n     * @param did refers to decentralized identifier\n     * @param flags special flags associated with DID\n     * @param data referes to the actual metadata\n     */\n    function update(\n        bytes32 did,\n        bytes calldata flags,\n        bytes calldata data\n    ) \n        external\n        onlyDIDOwner(did)\n    {\n        emit DDOUpdated(\n            did,\n            flags,\n            data,\n            block.number,\n            msg.sender\n        );\n    }\n\n    /**\n     * @dev transferOwnership\n     *      allows only did owners to transfer did ownership\n     * @param did refers to decentralized identifier\n     * @param owner the new owner address\n     */\n    function transferOwnership(\n        bytes32 did,\n        address owner\n    )\n        external\n        onlyDIDOwner(did)\n    {\n        require(\n            owner != msg.sender &&\n            owner != address(0),\n            'DDO: invalid DDO owner address'\n        );\n        didOwners[did] = owner;\n        emit DDOOwnershipTransferred(\n            did,\n            owner\n        );\n    }\n}",
  "sourcePath": "/Users/ahmedali/Desktop/work/ocean-contracts/contracts/metadata/DDO.sol",
  "compiler": {
    "name": "solc",
    "version": "0.5.7+commit.6da8b019.Emscripten.clang"
  },
  "schemaVersion": "3.2.0",
  "updatedAt": "2020-08-29T17:23:10.807Z",
  "devdoc": {
    "details": "DDO stands for Decentralized Document. It allows publishers     to publish their dataset metadata in decentralized way.     It follows the Ocean DID Document standard:      https://github.com/oceanprotocol/OEPs/blob/master/7/v0.2/README.md",
    "methods": {
      "create(bytes32,bytes,bytes)": {
        "details": "create     creates/publishes new DDO document on-chain. ",
        "params": {
          "data": "referes to the actual metadata",
          "did": "refers to decentralized identifier",
          "flags": "special flags associated with DID"
        }
      },
      "transferOwnership(bytes32,address)": {
        "details": "transferOwnership     allows only did owners to transfer did ownership",
        "params": {
          "did": "refers to decentralized identifier",
          "owner": "the new owner address"
        }
      },
      "update(bytes32,bytes,bytes)": {
        "details": "update     allows only did owners to update the DDO/metadata content",
        "params": {
          "data": "referes to the actual metadata",
          "did": "refers to decentralized identifier",
          "flags": "special flags associated with DID"
        }
      }
    },
    "title": "DDO "
  },
  "userdoc": {
    "methods": {}
  }
}