{
  "contractName": "DTFactory",
  "abi": [
    {
      "inputs": [
        {
          "name": "_template",
          "type": "address"
        },
        {
          "name": "_collector",
          "type": "address"
        }
      ],
      "payable": false,
      "stateMutability": "nonpayable",
      "type": "constructor"
    },
    {
      "anonymous": false,
      "inputs": [
        {
          "indexed": true,
          "name": "newTokenAddress",
          "type": "address"
        },
        {
          "indexed": true,
          "name": "templateAddress",
          "type": "address"
        },
        {
          "indexed": true,
          "name": "tokenName",
          "type": "string"
        }
      ],
      "name": "TokenCreated",
      "type": "event"
    },
    {
      "anonymous": false,
      "inputs": [
        {
          "indexed": true,
          "name": "tokenAddress",
          "type": "address"
        },
        {
          "indexed": false,
          "name": "tokenName",
          "type": "string"
        },
        {
          "indexed": false,
          "name": "tokenSymbol",
          "type": "string"
        },
        {
          "indexed": false,
          "name": "tokenCap",
          "type": "uint256"
        },
        {
          "indexed": true,
          "name": "registeredBy",
          "type": "address"
        },
        {
          "indexed": false,
          "name": "registeredAt",
          "type": "uint256"
        },
        {
          "indexed": true,
          "name": "blob",
          "type": "string"
        }
      ],
      "name": "TokenRegistered",
      "type": "event"
    },
    {
      "anonymous": false,
      "inputs": [
        {
          "indexed": false,
          "name": "instance",
          "type": "address"
        }
      ],
      "name": "InstanceDeployed",
      "type": "event"
    },
    {
      "constant": false,
      "inputs": [
        {
          "name": "blob",
          "type": "string"
        },
        {
          "name": "name",
          "type": "string"
        },
        {
          "name": "symbol",
          "type": "string"
        },
        {
          "name": "cap",
          "type": "uint256"
        }
      ],
      "name": "createToken",
      "outputs": [
        {
          "name": "token",
          "type": "address"
        }
      ],
      "payable": false,
      "stateMutability": "nonpayable",
      "type": "function"
    },
    {
      "constant": true,
      "inputs": [],
      "name": "getCurrentTokenIndex",
      "outputs": [
        {
          "name": "",
          "type": "uint256"
        }
      ],
      "payable": false,
      "stateMutability": "view",
      "type": "function"
    },
    {
      "constant": true,
      "inputs": [],
      "name": "getTokenTemplate",
      "outputs": [
        {
          "name": "",
          "type": "address"
        }
      ],
      "payable": false,
      "stateMutability": "view",
      "type": "function"
    }
  ],
  "bytecode": "0x6080604052600160025534801561001557600080fd5b50604051604080610aa48339810180604052604081101561003557600080fd5b508051602090910151600160a060020a0382161580159061005e5750600160a060020a03811615155b6100b3576040517f08c379a000000000000000000000000000000000000000000000000000000000815260040180806020018281038252602f815260200180610a75602f913960400191505060405180910390fd5b60008054600160a060020a03938416600160a060020a03199182161790915560018054929093169116179055610987806100ee6000396000f3fe608060405234801561001057600080fd5b506004361061005d577c010000000000000000000000000000000000000000000000000000000060003504633434a2e98114610062578063490aad761461007c578063efbe8fd1146100a0575b600080fd5b61006a610256565b60408051918252519081900360200190f35b61008461025c565b60408051600160a060020a039092168252519081900360200190f35b610084600480360360808110156100b657600080fd5b8101906020810181356401000000008111156100d157600080fd5b8201836020820111156100e357600080fd5b8035906020019184600183028401116401000000008311171561010557600080fd5b91908080601f016020809104026020016040519081016040528093929190818152602001838380828437600092019190915250929594936020810193503591505064010000000081111561015857600080fd5b82018360208201111561016a57600080fd5b8035906020019184600183028401116401000000008311171561018c57600080fd5b91908080601f01602080910402602001604051908101604052809392919081815260200183838082843760009201919091525092959493602081019350359150506401000000008111156101df57600080fd5b8201836020820111156101f157600080fd5b8035906020019184600183028401116401000000008311171561021357600080fd5b91908080601f016020809104026020016040519081016040528093929190818152602001838380828437600092019190915250929550509135925061026b915050565b60025490565b600054600160a060020a031690565b60008082116102c5576040517f08c379a00000000000000000000000000000000000000000000000000000000081526004018080602001828103825260228152602001806109006022913960400191505060405180910390fd5b6000546102da90600160a060020a0316610820565b9050600160a060020a03811661033b576040517f08c379a000000000000000000000000000000000000000000000000000000000815260040180806020018281038252603a815260200180610922603a913960400191505060405180910390fd5b6001546040517f9070d2f8000000000000000000000000000000000000000000000000000000008152336044820181905260648201859052600160a060020a0392831660a4830181905260c060048401908152885160c485015288518695861694639070d2f8948b948b9491938b938f939182916024810191608482019160e4019060208c019080838360005b838110156103e05781810151838201526020016103c8565b50505050905090810190601f16801561040d5780820380516001836020036101000a031916815260200191505b5084810383528951815289516020918201918b019080838360005b83811015610440578181015183820152602001610428565b50505050905090810190601f16801561046d5780820380516001836020036101000a031916815260200191505b50848103825286518152865160209182019188019080838360005b838110156104a0578181015183820152602001610488565b50505050905090810190601f1680156104cd5780820380516001836020036101000a031916815260200191505b509950505050505050505050602060405180830381600087803b1580156104f357600080fd5b505af1158015610507573d6000803e3d6000fd5b505050506040513d602081101561051d57600080fd5b5050604080517f392e53cd0000000000000000000000000000000000000000000000000000000081529051600160a060020a0383169163392e53cd916004808301926020929190829003018186803b15801561057857600080fd5b505afa15801561058c573d6000803e3d6000fd5b505050506040513d60208110156105a257600080fd5b50516105f9576040517f08c379a000000000000000000000000000000000000000000000000000000000815260040180806020018281038252602e8152602001806108d2602e913960400191505060405180910390fd5b846040518082805190602001908083835b602083106106295780518252601f19909201916020918201910161060a565b5181516020939093036101000a60001901801990911692169190911790526040519201829003822060008054919550600160a060020a039182169450908716927fb51c8cbe199ffe8b0d1d39b62d473569750653cb18b165f77ae423b3900180ad9250a4856040518082805190602001908083835b602083106106bd5780518252601f19909201916020918201910161069e565b6001836020036101000a038019825116818451168082178552505050505050905001915050604051809103902033600160a060020a031683600160a060020a03167f5242aec5021ca3b80047b99ba11a4f6ee963561e3ca5c01854964affbf18c08988888843604051808060200180602001858152602001848152602001838103835287818151815260200191508051906020019080838360005b83811015610770578181015183820152602001610758565b50505050905090810190601f16801561079d5780820380516001836020036101000a031916815260200191505b50838103825286518152865160209182019188019080838360005b838110156107d05781810151838201526020016107b8565b50505050905090810190601f1680156107fd5780820380516001836020036101000a031916815260200191505b50965050505050505060405180910390a450600280546001019055949350505050565b6040517f3d602d80600a3d3981f3363d3d373d3d3d363d7300000000000000000000000081526c010000000000000000000000008202601482018190527f5af43d82803e903d91602b57fd5bf30000000000000000000000000000000000602883015260009160378184f060408051600160a060020a038316815290519194507f117c72e6c25f0a072e36e148df71468ce2f3dbe7defec5b2c257a6e3eb65278c925081900360200190a15091905056fe4454466163746f72793a20556e61626c6520746f20696e697469616c697a6520746f6b656e20696e7374616e63654454466163746f72793a207a65726f20636170206973206e6f7420616c6c6f7765644454466163746f72793a204661696c656420746f20706572666f726d206d696e696d616c206465706c6f79206f662061206e657720746f6b656ea165627a7a72305820c2ffac5b93a9daceae5eb1619b7bedf7c7fcccb1d6a6c3070b0c445f101c86e600294454466163746f72793a20496e76616c696420746f6b656e20666163746f727920696e697469616c697a6174696f6e",
  "source": "pragma solidity ^0.5.7;\n// Copyright BigchainDB GmbH and Ocean Protocol contributors\n// SPDX-License-Identifier: (Apache-2.0 AND CC-BY-4.0)\n// Code is Apache-2.0 and docs are CC-BY-4.0\n\nimport './utils/Deployer.sol';\nimport './interfaces/IERC20Template.sol';\n\n/**\n * @title DTFactory contract\n * @author Ocean Protocol Team\n *\n * @dev Implementation of Ocean DataTokens Factory\n *\n *      DTFactory deploys DataToken proxy contracts.\n *      New DataToken proxy contracts are links to the template contract's bytecode.\n *      Proxy contract functionality is based on Ocean Protocol custom implementation of ERC1167 standard.\n */\ncontract DTFactory is Deployer {\n    address private tokenTemplate;\n    address private communityFeeCollector;\n    uint256 private currentTokenCount = 1;\n\n    event TokenCreated(\n        address indexed newTokenAddress,\n        address indexed templateAddress,\n        string indexed tokenName\n    );\n\n    event TokenRegistered(\n        address indexed tokenAddress,\n        string tokenName,\n        string tokenSymbol,\n        uint256 tokenCap,\n        address indexed registeredBy,\n        uint256 registeredAt,\n        string indexed blob\n    );\n\n    /**\n     * @dev constructor\n     *      Called on contract deployment. Could not be called with zero address parameters.\n     * @param _template refers to the address of a deployed DataToken contract.\n     */\n    constructor(\n        address _template,\n        address _collector\n    ) public {\n        require(\n            _template != address(0) &&\n            _collector != address(0),\n            'DTFactory: Invalid token factory initialization'\n        );\n        tokenTemplate = _template;\n        communityFeeCollector = _collector;\n    }\n\n    /**\n     * @dev Deploys new DataToken proxy contract.\n     *      Template contract address could not be a zero address.\n     * @return address of a new proxy DataToken contract\n     */\n    function createToken(\n        string memory blob,\n        string memory name,\n        string memory symbol,\n        uint256 cap\n    )\n        public\n        returns (address token)\n    {\n        require(\n            cap > 0,\n            'DTFactory: zero cap is not allowed'\n        );\n\n        token = deploy(tokenTemplate);\n\n        require(\n            token != address(0),\n            'DTFactory: Failed to perform minimal deploy of a new token'\n        );\n\n\n        IERC20Template tokenInstance = IERC20Template(token);\n        tokenInstance.initialize(\n            name,\n            symbol,\n            msg.sender,\n            cap,\n            blob,\n            communityFeeCollector\n        );\n\n        require(\n            tokenInstance.isInitialized(),\n            'DTFactory: Unable to initialize token instance'\n        );\n\n        emit TokenCreated(token, tokenTemplate, name);\n\n        emit TokenRegistered(\n            token,\n            name,\n            symbol,\n            cap,\n            msg.sender,\n            block.number,\n            blob\n        );\n\n        currentTokenCount += 1;\n    }\n\n    /**\n     * @dev get the current token index.\n     * @return the current token count\n     */\n    function getCurrentTokenIndex() external view returns (uint256) {\n        return currentTokenCount;\n    }\n\n    /**\n     * @dev get the token template address\n     * @return the template address\n     */\n    function getTokenTemplate() external view returns (address) {\n        return tokenTemplate;\n    }\n}\n",
  "sourcePath": "/Users/ahmedali/Desktop/work/ocean-contracts/contracts/DTFactory.sol",
  "compiler": {
    "name": "solc",
    "version": "0.5.7+commit.6da8b019.Emscripten.clang"
  },
  "schemaVersion": "3.2.0",
  "updatedAt": "2020-08-29T17:23:10.740Z",
  "devdoc": {
    "author": "Ocean Protocol Team",
    "details": "Implementation of Ocean DataTokens Factory *      DTFactory deploys DataToken proxy contracts.     New DataToken proxy contracts are links to the template contract's bytecode.     Proxy contract functionality is based on Ocean Protocol custom implementation of ERC1167 standard.",
    "methods": {
      "constructor": {
        "details": "constructor     Called on contract deployment. Could not be called with zero address parameters.",
        "params": {
          "_template": "refers to the address of a deployed DataToken contract."
        }
      },
      "createToken(string,string,string,uint256)": {
        "details": "Deploys new DataToken proxy contract.     Template contract address could not be a zero address.",
        "return": "address of a new proxy DataToken contract"
      },
      "getCurrentTokenIndex()": {
        "details": "get the current token index.",
        "return": "the current token count"
      },
      "getTokenTemplate()": {
        "details": "get the token template address",
        "return": "the template address"
      }
    },
    "title": "DTFactory contract"
  },
  "userdoc": {
    "methods": {}
  }
}