{
  "contractName": "DTFactory",
  "abi": [
    {
      "constant": true,
      "inputs": [
        {
          "name": "str1",
          "type": "string"
        },
        {
          "name": "str2",
          "type": "string"
        }
      ],
      "name": "concatenateStrings",
      "outputs": [
        {
          "name": "",
          "type": "string"
        }
      ],
      "payable": false,
      "stateMutability": "pure",
      "type": "function"
    },
    {
      "constant": true,
      "inputs": [
        {
          "name": "value",
          "type": "uint256"
        }
      ],
      "name": "uintToString",
      "outputs": [
        {
          "name": "",
          "type": "string"
        }
      ],
      "payable": false,
      "stateMutability": "pure",
      "type": "function"
    },
    {
      "inputs": [
        {
          "name": "_template",
          "type": "address"
        }
      ],
      "payable": false,
      "stateMutability": "nonpayable",
      "type": "constructor"
    },
    {
      "anonymous": false,
      "inputs": [
        {
          "indexed": true,
          "name": "newTokenAddress",
          "type": "address"
        },
        {
          "indexed": true,
          "name": "templateAddress",
          "type": "address"
        },
        {
          "indexed": true,
          "name": "tokenName",
          "type": "string"
        }
      ],
      "name": "TokenCreated",
      "type": "event"
    },
    {
      "anonymous": false,
      "inputs": [
        {
          "indexed": false,
          "name": "tokenAddress",
          "type": "address"
        },
        {
          "indexed": false,
          "name": "tokenName",
          "type": "string"
        },
        {
          "indexed": false,
          "name": "tokenSymbol",
          "type": "string"
        },
        {
          "indexed": false,
          "name": "tokenCap",
          "type": "uint256"
        },
        {
          "indexed": true,
          "name": "registeredBy",
          "type": "address"
        },
        {
          "indexed": true,
          "name": "registeredAt",
          "type": "uint256"
        },
        {
          "indexed": true,
          "name": "blob",
          "type": "string"
        }
      ],
      "name": "TokenRegistered",
      "type": "event"
    },
    {
      "anonymous": false,
      "inputs": [
        {
          "indexed": false,
          "name": "instance",
          "type": "address"
        }
      ],
      "name": "InstanceDeployed",
      "type": "event"
    },
    {
      "constant": false,
      "inputs": [
        {
          "name": "blob",
          "type": "string"
        }
      ],
      "name": "createToken",
      "outputs": [
        {
          "name": "token",
          "type": "address"
        }
      ],
      "payable": false,
      "stateMutability": "nonpayable",
      "type": "function"
    },
    {
      "constant": true,
      "inputs": [],
      "name": "getCurrentTokenIndex",
      "outputs": [
        {
          "name": "",
          "type": "uint256"
        }
      ],
      "payable": false,
      "stateMutability": "view",
      "type": "function"
    },
    {
      "constant": true,
      "inputs": [],
      "name": "getTokenTemplate",
      "outputs": [
        {
          "name": "",
          "type": "address"
        }
      ],
      "payable": false,
      "stateMutability": "view",
      "type": "function"
    }
  ],
  "bytecode": "0x60806040526001805534801561001457600080fd5b50604051602080610cf78339810180604052602081101561003457600080fd5b5051600160a060020a038116610095576040517f08c379a000000000000000000000000000000000000000000000000000000000815260040180806020018281038252602f815260200180610cc8602f913960400191505060405180910390fd5b60008054600160a060020a03909216600160a060020a0319909216919091179055610c03806100c56000396000f3fe608060405234801561001057600080fd5b5060043610610073577c010000000000000000000000000000000000000000000000000000000060003504633434a2e9811461007857806345576f9414610092578063490aad76146101545780637a36b3ee1461015c578063e9395679146102fe575b600080fd5b61008061031b565b60408051918252519081900360200190f35b610138600480360360208110156100a857600080fd5b8101906020810181356401000000008111156100c357600080fd5b8201836020820111156100d557600080fd5b803590602001918460018302840111640100000000831117156100f757600080fd5b91908080601f016020809104026020016040519081016040528093929190818152602001838380828437600092019190915250929550610321945050505050565b60408051600160a060020a039092168252519081900360200190f35b6101386108db565b6102896004803603604081101561017257600080fd5b81019060208101813564010000000081111561018d57600080fd5b82018360208201111561019f57600080fd5b803590602001918460018302840111640100000000831117156101c157600080fd5b91908080601f016020809104026020016040519081016040528093929190818152602001838380828437600092019190915250929594936020810193503591505064010000000081111561021457600080fd5b82018360208201111561022657600080fd5b8035906020019184600183028401116401000000008311171561024857600080fd5b91908080601f0160208091040260200160405190810160405280939291908181526020018383808284376000920191909152509295506108ea945050505050565b6040805160208082528351818301528351919283929083019185019080838360005b838110156102c35781810151838201526020016102ab565b50505050905090810190601f1680156102f05780820380516001836020036101000a031916815260200191505b509250505060405180910390f35b6102896004803603602081101561031457600080fd5b50356109a5565b60015490565b6000805461033790600160a060020a0316610abe565b9050600160a060020a038116610398576040517f08c379a000000000000000000000000000000000000000000000000000000000815260040180806020018281038252603a815260200180610b9e603a913960400191505060405180910390fd5b60606103e36040518060400160405280600281526020017f44540000000000000000000000000000000000000000000000000000000000008152506103de6001546109a5565b6108ea565b90506060819050600083905080600160a060020a0316630a6f3d9b8484336000198a6040518663ffffffff167c010000000000000000000000000000000000000000000000000000000002815260040180806020018060200186600160a060020a0316600160a060020a0316815260200185815260200180602001848103845289818151815260200191508051906020019080838360005b8381101561049357818101518382015260200161047b565b50505050905090810190601f1680156104c05780820380516001836020036101000a031916815260200191505b5084810383528851815288516020918201918a019080838360005b838110156104f35781810151838201526020016104db565b50505050905090810190601f1680156105205780820380516001836020036101000a031916815260200191505b50848103825285518152855160209182019187019080838360005b8381101561055357818101518382015260200161053b565b50505050905090810190601f1680156105805780820380516001836020036101000a031916815260200191505b5098505050505050505050602060405180830381600087803b1580156105a557600080fd5b505af11580156105b9573d6000803e3d6000fd5b505050506040513d60208110156105cf57600080fd5b5050604080517f392e53cd0000000000000000000000000000000000000000000000000000000081529051600160a060020a0383169163392e53cd916004808301926020929190829003018186803b15801561062a57600080fd5b505afa15801561063e573d6000803e3d6000fd5b505050506040513d602081101561065457600080fd5b50516106ab576040517f08c379a000000000000000000000000000000000000000000000000000000000815260040180806020018281038252602e815260200180610b70602e913960400191505060405180910390fd5b826040518082805190602001908083835b602083106106db5780518252601f1990920191602091820191016106bc565b5181516020939093036101000a60001901801990911692169190911790526040519201829003822060008054919550600160a060020a039182169450908916927fb51c8cbe199ffe8b0d1d39b62d473569750653cb18b165f77ae423b3900180ad9250a4846040518082805190602001908083835b6020831061076f5780518252601f199092019160209182019101610750565b6001836020036101000a03801982511681845116808217855250505050505090500191505060405180910390204333600160a060020a03167f5242aec5021ca3b80047b99ba11a4f6ee963561e3ca5c01854964affbf18c0898787876000196040518085600160a060020a0316600160a060020a031681526020018060200180602001848152602001838103835286818151815260200191508051906020019080838360005b8381101561082d578181015183820152602001610815565b50505050905090810190601f16801561085a5780820380516001836020036101000a031916815260200191505b50838103825285518152855160209182019187019080838360005b8381101561088d578181015183820152602001610875565b50505050905090810190601f1680156108ba5780820380516001836020036101000a031916815260200191505b50965050505050505060405180910390a45050600180548101905550919050565b600054600160a060020a031690565b606082826040516020018083805190602001908083835b602083106109205780518252601f199092019160209182019101610901565b51815160209384036101000a600019018019909216911617905285519190930192850191508083835b602083106109685780518252601f199092019160209182019101610949565b6001836020036101000a03801982511681845116808217855250505050505090500192505050604051602081830303815290604052905092915050565b6060816109e6575060408051808201909152600181527f30000000000000000000000000000000000000000000000000000000000000006020820152610ab9565b8160005b81156109fe57600101600a820491506109ea565b6060816040519080825280601f01601f191660200182016040528015610a2b576020820181803883390190505b50859350905060001982015b8315610ab357600a84066030017f01000000000000000000000000000000000000000000000000000000000000000282828060019003935081518110610a7957fe5b60200101907effffffffffffffffffffffffffffffffffffffffffffffffffffffffffffff1916908160001a905350600a84049350610a37565b50925050505b919050565b6040517f3d602d80600a3d3981f3363d3d373d3d3d363d7300000000000000000000000081526c010000000000000000000000008202601482018190527f5af43d82803e903d91602b57fd5bf30000000000000000000000000000000000602883015260009160378184f060408051600160a060020a038316815290519194507f117c72e6c25f0a072e36e148df71468ce2f3dbe7defec5b2c257a6e3eb65278c925081900360200190a15091905056fe4454466163746f72793a20556e61626c6520746f20696e697469616c697a6520746f6b656e20696e7374616e63654454466163746f72793a204661696c656420746f20706572666f726d206d696e696d616c206465706c6f79206f662061206e657720746f6b656ea165627a7a723058207895487e2b702384a168e62d3838fd3fea2447acc272b11bb56561d30ad4d35d00294454466163746f72793a20496e76616c696420746f6b656e20666163746f727920696e697469616c697a6174696f6e",
  "source": "pragma solidity ^0.5.7;\n// Copyright BigchainDB GmbH and Ocean Protocol contributors\n// SPDX-License-Identifier: (Apache-2.0 AND CC-BY-4.0)\n// Code is Apache-2.0 and docs are CC-BY-4.0\n\nimport './utils/Deployer.sol';\nimport './utils/Converter.sol';\nimport './interfaces/IERC20Template.sol';\n/**\n* @title DTFactory contract\n* @author Ocean Protocol Team\n*\n* @dev Implementation of Ocean DataTokens Factory\n*\n*      DTFactory deploys DataToken proxy contracts.\n*      New DataToken proxy contracts are links to the template contract's bytecode. \n*      Proxy contract functionality is based on Ocean Protocol custom implementation of ERC1167 standard.\n*/\ncontract DTFactory is Deployer, Converter {\n\n    address private tokenTemplate;\n    uint256 private currentTokenCount = 1;\n    // cap has max uint256 (2^256 -1)\n    uint256 constant private cap = \n    115792089237316195423570985008687907853269984665640564039457584007913129639935;\n    string constant private TOKEN_NAME_PREFIX = 'DT';\n\n    event TokenCreated(\n        address indexed newTokenAddress, \n        address indexed templateAddress,\n        string indexed tokenName\n    );\n    \n    event TokenRegistered(\n        address tokenAddress,\n        string tokenName,\n        string tokenSymbol,\n        uint256 tokenCap,\n        address indexed registeredBy,\n        uint256 indexed registeredAt,\n        string indexed blob\n    );\n    \n    /**\n     * @dev constructor\n     *      Called on contract deployment. Could not be called with zero address parameters.\n     * @param _template refers to the address of a deployed DataToken contract.\n     */\n    constructor(\n        address _template\n    ) \n        public \n    {\n        require(\n            _template != address(0),\n            'DTFactory: Invalid token factory initialization'\n        );\n        tokenTemplate = _template;\n    }\n\n    /**\n     * @dev Deploys new DataToken proxy contract.\n     *      Template contract address could not be a zero address. \n     * @return address of a new proxy DataToken contract\n     */\n    function createToken(\n        string memory blob\n    ) \n        public\n        returns (address token)\n    {\n\n        token = deploy(tokenTemplate);\n        \n        require(\n            token != address(0),\n            'DTFactory: Failed to perform minimal deploy of a new token'\n        );\n        \n        string memory name = concatenateStrings(\n            TOKEN_NAME_PREFIX, \n            uintToString(currentTokenCount)\n        );\n        string memory symbol = name; \n\n        IERC20Template tokenInstance = IERC20Template(token);\n        tokenInstance.initialize(\n            name,\n            symbol,\n            msg.sender,\n            cap,\n            blob\n        );\n\n        require(\n            tokenInstance.isInitialized(),\n            'DTFactory: Unable to initialize token instance'\n        );\n\n        emit TokenCreated(\n            token, \n            tokenTemplate,\n            name\n        );\n\n        emit TokenRegistered(\n            token,\n            name,\n            symbol,\n            cap,\n            msg.sender,\n            block.number,\n            blob\n        );\n\n        currentTokenCount += 1;\n    }\n\n    /**\n     * @dev get the current token index. \n     * @return the current token count\n     */\n    function getCurrentTokenIndex()\n        external\n        view\n        returns (uint256)\n    {\n        return currentTokenCount;\n    }\n\n    /**\n     * @dev get the token template address\n     * @return the template address\n     */\n    function getTokenTemplate()\n        external\n        view\n        returns (address)\n    {\n        return tokenTemplate;\n    }\n}\n",
  "sourcePath": "/Users/ahmedali/Desktop/work/Ocean/ocean-contracts/contracts/DTFactory.sol",
  "compiler": {
    "name": "solc",
    "version": "0.5.7+commit.6da8b019.Emscripten.clang"
  },
  "schemaVersion": "3.2.0",
  "updatedAt": "2020-07-20T07:42:20.237Z",
  "devdoc": {
    "author": "Ocean Protocol Team",
    "details": "Implementation of Ocean DataTokens Factory *      DTFactory deploys DataToken proxy contracts.     New DataToken proxy contracts are links to the template contract's bytecode.      Proxy contract functionality is based on Ocean Protocol custom implementation of ERC1167 standard.",
    "methods": {
      "concatenateStrings(string,string)": {
        "details": "concatenateStrings     concatenates two strings",
        "params": {
          "str1": "refers to first string",
          "str2": "refers to second string"
        },
        "return": "catenated string value"
      },
      "constructor": {
        "details": "constructor     Called on contract deployment. Could not be called with zero address parameters.",
        "params": {
          "_template": "refers to the address of a deployed DataToken contract."
        }
      },
      "createToken(string)": {
        "details": "Deploys new DataToken proxy contract.     Template contract address could not be a zero address. ",
        "return": "address of a new proxy DataToken contract"
      },
      "getCurrentTokenIndex()": {
        "details": "get the current token index. ",
        "return": "the current token count"
      },
      "getTokenTemplate()": {
        "details": "get the token template address",
        "return": "the template address"
      },
      "uintToString(uint256)": {
        "details": "uintToString     converts an integer value to a string value",
        "params": {
          "value": "refers to integer value"
        },
        "return": "converted string value"
      }
    },
    "title": "DTFactory contract"
  },
  "userdoc": {
    "methods": {}
  }
}