{
  "contractName": "Factory",
  "abi": [
    {
      "constant": true,
      "inputs": [
        {
          "name": "value",
          "type": "uint256"
        }
      ],
      "name": "uintToString",
      "outputs": [
        {
          "name": "",
          "type": "string"
        }
      ],
      "payable": false,
      "stateMutability": "pure",
      "type": "function"
    },
    {
      "inputs": [
        {
          "name": "_template",
          "type": "address"
        },
        {
          "name": "_feeManager",
          "type": "address"
        }
      ],
      "payable": false,
      "stateMutability": "nonpayable",
      "type": "constructor"
    },
    {
      "anonymous": false,
      "inputs": [
        {
          "indexed": false,
          "name": "newTokenAddress",
          "type": "address"
        },
        {
          "indexed": false,
          "name": "templateAddress",
          "type": "address"
        },
        {
          "indexed": false,
          "name": "tokenName",
          "type": "string"
        }
      ],
      "name": "TokenCreated",
      "type": "event"
    },
    {
      "anonymous": false,
      "inputs": [
        {
          "indexed": true,
          "name": "tokenAddress",
          "type": "address"
        },
        {
          "indexed": true,
          "name": "tokenName",
          "type": "string"
        },
        {
          "indexed": true,
          "name": "tokenSymbol",
          "type": "string"
        },
        {
          "indexed": false,
          "name": "tokenCap",
          "type": "uint256"
        },
        {
          "indexed": false,
          "name": "RegisteredBy",
          "type": "address"
        },
        {
          "indexed": false,
          "name": "RegisteredAt",
          "type": "uint256"
        },
        {
          "indexed": false,
          "name": "blob",
          "type": "string"
        }
      ],
      "name": "TokenRegistered",
      "type": "event"
    },
    {
      "anonymous": false,
      "inputs": [
        {
          "indexed": false,
          "name": "instance",
          "type": "address"
        }
      ],
      "name": "InstanceDeployed",
      "type": "event"
    },
    {
      "constant": false,
      "inputs": [
        {
          "name": "blob",
          "type": "string"
        }
      ],
      "name": "createToken",
      "outputs": [
        {
          "name": "token",
          "type": "address"
        }
      ],
      "payable": false,
      "stateMutability": "nonpayable",
      "type": "function"
    }
  ],
  "bytecode": "0x6080604052600160025534801561001557600080fd5b50604051604080610dfc8339810180604052604081101561003557600080fd5b810190808051906020019092919080519060200190929190505050600073ffffffffffffffffffffffffffffffffffffffff168273ffffffffffffffffffffffffffffffffffffffff16141580156100ba5750600073ffffffffffffffffffffffffffffffffffffffff168173ffffffffffffffffffffffffffffffffffffffff1614155b61010f576040517f08c379a000000000000000000000000000000000000000000000000000000000815260040180806020018281038252602c815260200180610dd0602c913960400191505060405180910390fd5b81600160006101000a81548173ffffffffffffffffffffffffffffffffffffffff021916908373ffffffffffffffffffffffffffffffffffffffff160217905550806000806101000a81548173ffffffffffffffffffffffffffffffffffffffff021916908373ffffffffffffffffffffffffffffffffffffffff1602179055505050610c2f806101a16000396000f3fe608060405234801561001057600080fd5b5060043610610053576000357c01000000000000000000000000000000000000000000000000000000009004806345576f9414610058578063e939567914610153575b600080fd5b6101116004803603602081101561006e57600080fd5b810190808035906020019064010000000081111561008b57600080fd5b82018360208201111561009d57600080fd5b803590602001918460018302840111640100000000831117156100bf57600080fd5b91908080601f016020809104026020016040519081016040528093929190818152602001838380828437600081840152601f19601f8201169050808301925050505050505091929192905050506101fa565b604051808273ffffffffffffffffffffffffffffffffffffffff1673ffffffffffffffffffffffffffffffffffffffff16815260200191505060405180910390f35b61017f6004803603602081101561016957600080fd5b8101908080359060200190929190505050610977565b6040518080602001828103825283818151815260200191508051906020019080838360005b838110156101bf5780820151818401526020810190506101a4565b50505050905090810190601f1680156101ec5780820380516001836020036101000a031916815260200191505b509250505060405180910390f35b6000610227600160009054906101000a900473ffffffffffffffffffffffffffffffffffffffff16610ac6565b9050600073ffffffffffffffffffffffffffffffffffffffff168173ffffffffffffffffffffffffffffffffffffffff1614156102af576040517f08c379a0000000000000000000000000000000000000000000000000000000008152600401808060200182810382526038815260200180610bcc6038913960400191505060405180910390fd5b60606102bc600254610977565b905060606102cb600254610977565b905060008390508073ffffffffffffffffffffffffffffffffffffffff16639070d2f88484337fffffffffffffffffffffffffffffffffffffffffffffffffffffffffffffffff8a6000809054906101000a900473ffffffffffffffffffffffffffffffffffffffff166040518763ffffffff167c01000000000000000000000000000000000000000000000000000000000281526004018080602001806020018773ffffffffffffffffffffffffffffffffffffffff1673ffffffffffffffffffffffffffffffffffffffff168152602001868152602001806020018573ffffffffffffffffffffffffffffffffffffffff1673ffffffffffffffffffffffffffffffffffffffff16815260200184810384528a818151815260200191508051906020019080838360005b838110156104125780820151818401526020810190506103f7565b50505050905090810190601f16801561043f5780820380516001836020036101000a031916815260200191505b50848103835289818151815260200191508051906020019080838360005b8381101561047857808201518184015260208101905061045d565b50505050905090810190601f1680156104a55780820380516001836020036101000a031916815260200191505b50848103825286818151815260200191508051906020019080838360005b838110156104de5780820151818401526020810190506104c3565b50505050905090810190601f16801561050b5780820380516001836020036101000a031916815260200191505b509950505050505050505050602060405180830381600087803b15801561053157600080fd5b505af1158015610545573d6000803e3d6000fd5b505050506040513d602081101561055b57600080fd5b8101908080519060200190929190505050508073ffffffffffffffffffffffffffffffffffffffff1663392e53cd6040518163ffffffff167c010000000000000000000000000000000000000000000000000000000002815260040160206040518083038186803b1580156105cf57600080fd5b505afa1580156105e3573d6000803e3d6000fd5b505050506040513d60208110156105f957600080fd5b810190808051906020019092919050505061065f576040517f08c379a000000000000000000000000000000000000000000000000000000000815260040180806020018281038252602c815260200180610ba0602c913960400191505060405180910390fd5b7fb51c8cbe199ffe8b0d1d39b62d473569750653cb18b165f77ae423b3900180ad84600160009054906101000a900473ffffffffffffffffffffffffffffffffffffffff1685604051808473ffffffffffffffffffffffffffffffffffffffff1673ffffffffffffffffffffffffffffffffffffffff1681526020018373ffffffffffffffffffffffffffffffffffffffff1673ffffffffffffffffffffffffffffffffffffffff16815260200180602001828103825283818151815260200191508051906020019080838360005b8381101561074957808201518184015260208101905061072e565b50505050905090810190601f1680156107765780820380516001836020036101000a031916815260200191505b5094505050505060405180910390a1816040518082805190602001908083835b602083106107b95780518252602082019150602081019050602083039250610796565b6001836020036101000a0380198251168184511680821785525050505050509050019150506040518091039020836040518082805190602001908083835b6020831061081a57805182526020820191506020810190506020830392506107f7565b6001836020036101000a03801982511681845116808217855250505050505090500191505060405180910390208573ffffffffffffffffffffffffffffffffffffffff167f5242aec5021ca3b80047b99ba11a4f6ee963561e3ca5c01854964affbf18c0897fffffffffffffffffffffffffffffffffffffffffffffffffffffffffffffffff33438b604051808581526020018473ffffffffffffffffffffffffffffffffffffffff1673ffffffffffffffffffffffffffffffffffffffff16815260200183815260200180602001828103825283818151815260200191508051906020019080838360005b83811015610921578082015181840152602081019050610906565b50505050905090810190601f16801561094e5780820380516001836020036101000a031916815260200191505b509550505050505060405180910390a46001600260008282540192505081905550505050919050565b606060008214156109bf576040518060400160405280600181526020017f30000000000000000000000000000000000000000000000000000000000000008152509050610ac1565b600082905060005b600082146109e9578080600101915050600a82816109e157fe5b0491506109c7565b6060816040519080825280601f01601f191660200182016040528015610a1e5781602001600182028038833980820191505090505b50905060006001830390508593505b60008414610ab957600a8481610a3f57fe5b066030017f01000000000000000000000000000000000000000000000000000000000000000282828060019003935081518110610a7857fe5b60200101907effffffffffffffffffffffffffffffffffffffffffffffffffffffffffffff1916908160001a905350600a8481610ab157fe5b049350610a2d565b819450505050505b919050565b600080826c010000000000000000000000000290506040517f3d602d80600a3d3981f3363d3d373d3d3d363d7300000000000000000000000081528160148201527f5af43d82803e903d91602b57fd5bf3000000000000000000000000000000000060288201526037816000f09250507f117c72e6c25f0a072e36e148df71468ce2f3dbe7defec5b2c257a6e3eb65278c82604051808273ffffffffffffffffffffffffffffffffffffffff1673ffffffffffffffffffffffffffffffffffffffff16815260200191505060405180910390a15091905056fe466163746f72793a20556e61626c6520746f20696e697469616c697a6520746f6b656e20696e7374616e6365466163746f72793a204661696c656420746f20706572666f726d206d696e696d616c206465706c6f79206f662061206e657720746f6b656ea165627a7a7230582005ffe13a7dee58f05e8e0e4cc7148e39854c1da046fed52e56af2e12d208d7e40029466163746f72793a20496e76616c696420546f6b656e466163746f727920696e697469616c697a6174696f6e",
  "source": "pragma solidity ^0.5.7;\n// Copyright BigchainDB GmbH and Ocean Protocol contributors\n// SPDX-License-Identifier: (Apache-2.0 AND CC-BY-4.0)\n// Code is Apache-2.0 and docs are CC-BY-4.0\n\nimport './utils/Deployer.sol';\nimport './utils/Converter.sol';\nimport './interfaces/IERC20Template.sol';\n/**\n* @title Factory contract\n* @author Ocean Protocol Team\n*\n* @dev Implementation of Ocean DataTokens Factory\n*\n*      Factory deploys DataToken proxy contracts.\n*      New DataToken proxy contracts are links to the template contract's bytecode. \n*      Proxy contract functionality is based on Ocean Protocol custom implementation of ERC1167 standard.\n*/\ncontract Factory is Deployer, Converter {\n\n    address payable private feeManager;\n    address private tokenTemplate;\n    uint256 private currentTokenCount = 1;\n    // cap has max uint256 (2^256 -1)\n    uint256 constant private cap = \n    115792089237316195423570985008687907853269984665640564039457584007913129639935;\n\n    event TokenCreated(\n        address newTokenAddress, \n        address templateAddress,\n        string tokenName\n    );\n    \n    event TokenRegistered(\n        address indexed tokenAddress,\n        string indexed tokenName,\n        string indexed tokenSymbol,\n        uint256 tokenCap,\n        address RegisteredBy,\n        uint256 RegisteredAt,\n        string blob\n    );\n    \n    /**\n     * @dev constructor\n     *      Called on contract deployment. Could not be called with zero address parameters.\n     * @param _template refers to the address of a deployed DataToken contract.\n     * @param _feeManager refers to the address of a fee manager .\n     */\n    constructor(\n        address _template,\n        address payable _feeManager\n    ) \n        public \n    {\n        require(\n            _template != address(0) && _feeManager != address(0),\n            'Factory: Invalid TokenFactory initialization'\n        );\n        tokenTemplate = _template;\n        feeManager = _feeManager;\n    }\n\n    /**\n     * @dev Deploys new DataToken proxy contract.\n     *      Template contract address could not be a zero address. \n     * @return address of a new proxy DataToken contract\n     */\n    function createToken(\n        string memory blob\n    ) \n        public\n        returns (address token)\n    {\n\n        token = deploy(tokenTemplate);\n        \n        require(\n            token != address(0),\n            'Factory: Failed to perform minimal deploy of a new token'\n        );\n        \n        string memory name = uintToString(currentTokenCount);\n        string memory symbol = uintToString(currentTokenCount); \n\n        IERC20Template tokenInstance = IERC20Template(token);\n        tokenInstance.initialize(\n            name,\n            symbol,\n            msg.sender,\n            cap,\n            blob,\n            feeManager\n        );\n\n        require(\n            tokenInstance.isInitialized(),\n            'Factory: Unable to initialize token instance'\n        );\n\n        emit TokenCreated(\n            token, \n            tokenTemplate,\n            name\n        );\n\n        emit TokenRegistered(\n            token,\n            name,\n            symbol,\n            cap,\n            msg.sender,\n            block.number,\n            blob\n        );\n\n        currentTokenCount += 1;\n    }\n}",
  "sourcePath": "/home/ssallam/pycharm_projects/contracts/contracts/Factory.sol",
  "compiler": {
    "name": "solc",
    "version": "0.5.7+commit.6da8b019.Emscripten.clang"
  },
  "schemaVersion": "3.2.0",
  "updatedAt": "2020-06-04T09:08:21.668Z",
  "networkType": "ethereum",
  "devdoc": {
    "author": "Ocean Protocol Team",
    "details": "Implementation of Ocean DataTokens Factory *      Factory deploys DataToken proxy contracts.     New DataToken proxy contracts are links to the template contract's bytecode.      Proxy contract functionality is based on Ocean Protocol custom implementation of ERC1167 standard.",
    "methods": {
      "constructor": {
        "details": "constructor     Called on contract deployment. Could not be called with zero address parameters.",
        "params": {
          "_feeManager": "refers to the address of a fee manager .",
          "_template": "refers to the address of a deployed DataToken contract."
        }
      },
      "createToken(string)": {
        "details": "Deploys new DataToken proxy contract.     Template contract address could not be a zero address. ",
        "return": "address of a new proxy DataToken contract"
      },
      "uintToString(uint256)": {
        "details": "uintToString     converts an integer value to a string value",
        "params": {
          "value": "refers to integer value"
        },
        "return": "converted string value"
      }
    },
    "title": "Factory contract"
  },
  "userdoc": {
    "methods": {}
  }
}