{
  "contractName": "Factory",
  "abi": [
    {
      "constant": true,
      "inputs": [
        {
          "name": "str1",
          "type": "string"
        },
        {
          "name": "str2",
          "type": "string"
        }
      ],
      "name": "concatenateStrings",
      "outputs": [
        {
          "name": "",
          "type": "string"
        }
      ],
      "payable": false,
      "stateMutability": "pure",
      "type": "function"
    },
    {
      "constant": true,
      "inputs": [
        {
          "name": "value",
          "type": "uint256"
        }
      ],
      "name": "uintToString",
      "outputs": [
        {
          "name": "",
          "type": "string"
        }
      ],
      "payable": false,
      "stateMutability": "pure",
      "type": "function"
    },
    {
      "inputs": [
        {
          "name": "_template",
          "type": "address"
        }
      ],
      "payable": false,
      "stateMutability": "nonpayable",
      "type": "constructor"
    },
    {
      "anonymous": false,
      "inputs": [
        {
          "indexed": true,
          "name": "newTokenAddress",
          "type": "address"
        },
        {
          "indexed": true,
          "name": "templateAddress",
          "type": "address"
        },
        {
          "indexed": true,
          "name": "tokenName",
          "type": "string"
        }
      ],
      "name": "TokenCreated",
      "type": "event"
    },
    {
      "anonymous": false,
      "inputs": [
        {
          "indexed": false,
          "name": "tokenAddress",
          "type": "address"
        },
        {
          "indexed": false,
          "name": "tokenName",
          "type": "string"
        },
        {
          "indexed": false,
          "name": "tokenSymbol",
          "type": "string"
        },
        {
          "indexed": false,
          "name": "tokenCap",
          "type": "uint256"
        },
        {
          "indexed": true,
          "name": "registeredBy",
          "type": "address"
        },
        {
          "indexed": true,
          "name": "registeredAt",
          "type": "uint256"
        },
        {
          "indexed": true,
          "name": "blob",
          "type": "string"
        }
      ],
      "name": "TokenRegistered",
      "type": "event"
    },
    {
      "anonymous": false,
      "inputs": [
        {
          "indexed": false,
          "name": "instance",
          "type": "address"
        }
      ],
      "name": "InstanceDeployed",
      "type": "event"
    },
    {
      "constant": false,
      "inputs": [
        {
          "name": "blob",
          "type": "string"
        }
      ],
      "name": "createToken",
      "outputs": [
        {
          "name": "token",
          "type": "address"
        }
      ],
      "payable": false,
      "stateMutability": "nonpayable",
      "type": "function"
    },
    {
      "constant": true,
      "inputs": [],
      "name": "getCurrentTokenIndex",
      "outputs": [
        {
          "name": "",
          "type": "uint256"
        }
      ],
      "payable": false,
      "stateMutability": "view",
      "type": "function"
    },
    {
      "constant": true,
      "inputs": [],
      "name": "getTokenTemplate",
      "outputs": [
        {
          "name": "",
          "type": "address"
        }
      ],
      "payable": false,
      "stateMutability": "view",
      "type": "function"
    }
  ],
  "bytecode": "0x60806040526001805534801561001457600080fd5b5060405160208061105d8339810180604052602081101561003457600080fd5b8101908080519060200190929190505050600073ffffffffffffffffffffffffffffffffffffffff168173ffffffffffffffffffffffffffffffffffffffff1614156100cb576040517f08c379a000000000000000000000000000000000000000000000000000000000815260040180806020018281038252602c815260200180611031602c913960400191505060405180910390fd5b806000806101000a81548173ffffffffffffffffffffffffffffffffffffffff021916908373ffffffffffffffffffffffffffffffffffffffff16021790555050610f168061011b6000396000f3fe608060405234801561001057600080fd5b5060043610610074576000357c0100000000000000000000000000000000000000000000000000000000900480633434a2e91461007957806345576f9414610097578063490aad76146101925780637a36b3ee146101dc578063e9395679146103a7575b600080fd5b61008161044e565b6040518082815260200191505060405180910390f35b610150600480360360208110156100ad57600080fd5b81019080803590602001906401000000008111156100ca57600080fd5b8201836020820111156100dc57600080fd5b803590602001918460018302840111640100000000831117156100fe57600080fd5b91908080601f016020809104026020016040519081016040528093929190818152602001838380828437600081840152601f19601f820116905080830192505050505050509192919290505050610458565b604051808273ffffffffffffffffffffffffffffffffffffffff1673ffffffffffffffffffffffffffffffffffffffff16815260200191505060405180910390f35b61019a610b6d565b604051808273ffffffffffffffffffffffffffffffffffffffff1673ffffffffffffffffffffffffffffffffffffffff16815260200191505060405180910390f35b61032c600480360360408110156101f257600080fd5b810190808035906020019064010000000081111561020f57600080fd5b82018360208201111561022157600080fd5b8035906020019184600183028401116401000000008311171561024357600080fd5b91908080601f016020809104026020016040519081016040528093929190818152602001838380828437600081840152601f19601f820116905080830192505050505050509192919290803590602001906401000000008111156102a657600080fd5b8201836020820111156102b857600080fd5b803590602001918460018302840111640100000000831117156102da57600080fd5b91908080601f016020809104026020016040519081016040528093929190818152602001838380828437600081840152601f19601f820116905080830192505050505050509192919290505050610b96565b6040518080602001828103825283818151815260200191508051906020019080838360005b8381101561036c578082015181840152602081019050610351565b50505050905090810190601f1680156103995780820380516001836020036101000a031916815260200191505b509250505060405180910390f35b6103d3600480360360208110156103bd57600080fd5b8101908080359060200190929190505050610c5e565b6040518080602001828103825283818151815260200191508051906020019080838360005b838110156104135780820151818401526020810190506103f8565b50505050905090810190601f1680156104405780820380516001836020036101000a031916815260200191505b509250505060405180910390f35b6000600154905090565b60006104846000809054906101000a900473ffffffffffffffffffffffffffffffffffffffff16610dad565b9050600073ffffffffffffffffffffffffffffffffffffffff168173ffffffffffffffffffffffffffffffffffffffff16141561050c576040517f08c379a0000000000000000000000000000000000000000000000000000000008152600401808060200182810382526038815260200180610eb36038913960400191505060405180910390fd5b60606105576040518060400160405280600281526020017f4454000000000000000000000000000000000000000000000000000000000000815250610552600154610c5e565b610b96565b9050606081905060008390508073ffffffffffffffffffffffffffffffffffffffff16630a6f3d9b8484337fffffffffffffffffffffffffffffffffffffffffffffffffffffffffffffffff8a6040518663ffffffff167c01000000000000000000000000000000000000000000000000000000000281526004018080602001806020018673ffffffffffffffffffffffffffffffffffffffff1673ffffffffffffffffffffffffffffffffffffffff16815260200185815260200180602001848103845289818151815260200191508051906020019080838360005b8381101561064f578082015181840152602081019050610634565b50505050905090810190601f16801561067c5780820380516001836020036101000a031916815260200191505b50848103835288818151815260200191508051906020019080838360005b838110156106b557808201518184015260208101905061069a565b50505050905090810190601f1680156106e25780820380516001836020036101000a031916815260200191505b50848103825285818151815260200191508051906020019080838360005b8381101561071b578082015181840152602081019050610700565b50505050905090810190601f1680156107485780820380516001836020036101000a031916815260200191505b5098505050505050505050602060405180830381600087803b15801561076d57600080fd5b505af1158015610781573d6000803e3d6000fd5b505050506040513d602081101561079757600080fd5b8101908080519060200190929190505050508073ffffffffffffffffffffffffffffffffffffffff1663392e53cd6040518163ffffffff167c010000000000000000000000000000000000000000000000000000000002815260040160206040518083038186803b15801561080b57600080fd5b505afa15801561081f573d6000803e3d6000fd5b505050506040513d602081101561083557600080fd5b810190808051906020019092919050505061089b576040517f08c379a000000000000000000000000000000000000000000000000000000000815260040180806020018281038252602c815260200180610e87602c913960400191505060405180910390fd5b826040518082805190602001908083835b602083106108cf57805182526020820191506020810190506020830392506108ac565b6001836020036101000a03801982511681845116808217855250505050505090500191505060405180910390206000809054906101000a900473ffffffffffffffffffffffffffffffffffffffff1673ffffffffffffffffffffffffffffffffffffffff168573ffffffffffffffffffffffffffffffffffffffff167fb51c8cbe199ffe8b0d1d39b62d473569750653cb18b165f77ae423b3900180ad60405160405180910390a4846040518082805190602001908083835b602083106109ab5780518252602082019150602081019050602083039250610988565b6001836020036101000a0380198251168184511680821785525050505050509050019150506040518091039020433373ffffffffffffffffffffffffffffffffffffffff167f5242aec5021ca3b80047b99ba11a4f6ee963561e3ca5c01854964affbf18c0898787877fffffffffffffffffffffffffffffffffffffffffffffffffffffffffffffffff604051808573ffffffffffffffffffffffffffffffffffffffff1673ffffffffffffffffffffffffffffffffffffffff1681526020018060200180602001848152602001838103835286818151815260200191508051906020019080838360005b83811015610ab1578082015181840152602081019050610a96565b50505050905090810190601f168015610ade5780820380516001836020036101000a031916815260200191505b50838103825285818151815260200191508051906020019080838360005b83811015610b17578082015181840152602081019050610afc565b50505050905090810190601f168015610b445780820380516001836020036101000a031916815260200191505b50965050505050505060405180910390a460018060008282540192505081905550505050919050565b60008060009054906101000a900473ffffffffffffffffffffffffffffffffffffffff16905090565b606082826040516020018083805190602001908083835b60208310610bd05780518252602082019150602081019050602083039250610bad565b6001836020036101000a03801982511681845116808217855250505050505090500182805190602001908083835b60208310610c215780518252602082019150602081019050602083039250610bfe565b6001836020036101000a03801982511681845116808217855250505050505090500192505050604051602081830303815290604052905092915050565b60606000821415610ca6576040518060400160405280600181526020017f30000000000000000000000000000000000000000000000000000000000000008152509050610da8565b600082905060005b60008214610cd0578080600101915050600a8281610cc857fe5b049150610cae565b6060816040519080825280601f01601f191660200182016040528015610d055781602001600182028038833980820191505090505b50905060006001830390508593505b60008414610da057600a8481610d2657fe5b066030017f01000000000000000000000000000000000000000000000000000000000000000282828060019003935081518110610d5f57fe5b60200101907effffffffffffffffffffffffffffffffffffffffffffffffffffffffffffff1916908160001a905350600a8481610d9857fe5b049350610d14565b819450505050505b919050565b600080826c010000000000000000000000000290506040517f3d602d80600a3d3981f3363d3d373d3d3d363d7300000000000000000000000081528160148201527f5af43d82803e903d91602b57fd5bf3000000000000000000000000000000000060288201526037816000f09250507f117c72e6c25f0a072e36e148df71468ce2f3dbe7defec5b2c257a6e3eb65278c82604051808273ffffffffffffffffffffffffffffffffffffffff1673ffffffffffffffffffffffffffffffffffffffff16815260200191505060405180910390a15091905056fe466163746f72793a20556e61626c6520746f20696e697469616c697a6520746f6b656e20696e7374616e6365466163746f72793a204661696c656420746f20706572666f726d206d696e696d616c206465706c6f79206f662061206e657720746f6b656ea165627a7a72305820be0b85cf1098ee51321ae6c4f042c52bb6d975450fb3ecdd84c00d959feb9ee80029466163746f72793a20496e76616c696420546f6b656e466163746f727920696e697469616c697a6174696f6e",
  "source": "pragma solidity ^0.5.7;\n// Copyright BigchainDB GmbH and Ocean Protocol contributors\n// SPDX-License-Identifier: (Apache-2.0 AND CC-BY-4.0)\n// Code is Apache-2.0 and docs are CC-BY-4.0\n\nimport './utils/Deployer.sol';\nimport './utils/Converter.sol';\nimport './interfaces/IERC20Template.sol';\n/**\n* @title Factory contract\n* @author Ocean Protocol Team\n*\n* @dev Implementation of Ocean DataTokens Factory\n*\n*      Factory deploys DataToken proxy contracts.\n*      New DataToken proxy contracts are links to the template contract's bytecode. \n*      Proxy contract functionality is based on Ocean Protocol custom implementation of ERC1167 standard.\n*/\ncontract Factory is Deployer, Converter {\n\n    address private tokenTemplate;\n    uint256 private currentTokenCount = 1;\n    // cap has max uint256 (2^256 -1)\n    uint256 constant private cap = \n    115792089237316195423570985008687907853269984665640564039457584007913129639935;\n    string constant private TOKEN_NAME_PREFIX = 'DT';\n\n    event TokenCreated(\n        address indexed newTokenAddress, \n        address indexed templateAddress,\n        string indexed tokenName\n    );\n    \n    event TokenRegistered(\n        address tokenAddress,\n        string tokenName,\n        string tokenSymbol,\n        uint256 tokenCap,\n        address indexed registeredBy,\n        uint256 indexed registeredAt,\n        string indexed blob\n    );\n    \n    /**\n     * @dev constructor\n     *      Called on contract deployment. Could not be called with zero address parameters.\n     * @param _template refers to the address of a deployed DataToken contract.\n     */\n    constructor(\n        address _template\n    ) \n        public \n    {\n        require(\n            _template != address(0),\n            'Factory: Invalid TokenFactory initialization'\n        );\n        tokenTemplate = _template;\n    }\n\n    /**\n     * @dev Deploys new DataToken proxy contract.\n     *      Template contract address could not be a zero address. \n     * @return address of a new proxy DataToken contract\n     */\n    function createToken(\n        string memory blob\n    ) \n        public\n        returns (address token)\n    {\n\n        token = deploy(tokenTemplate);\n        \n        require(\n            token != address(0),\n            'Factory: Failed to perform minimal deploy of a new token'\n        );\n        \n        string memory name = concatenateStrings(\n            TOKEN_NAME_PREFIX, \n            uintToString(currentTokenCount)\n        );\n        string memory symbol = name; \n\n        IERC20Template tokenInstance = IERC20Template(token);\n        tokenInstance.initialize(\n            name,\n            symbol,\n            msg.sender,\n            cap,\n            blob\n        );\n\n        require(\n            tokenInstance.isInitialized(),\n            'Factory: Unable to initialize token instance'\n        );\n\n        emit TokenCreated(\n            token, \n            tokenTemplate,\n            name\n        );\n\n        emit TokenRegistered(\n            token,\n            name,\n            symbol,\n            cap,\n            msg.sender,\n            block.number,\n            blob\n        );\n\n        currentTokenCount += 1;\n    }\n\n    /**\n     * @dev get the current token index. \n     * @return the current token count\n     */\n    function getCurrentTokenIndex()\n        external\n        view\n        returns (uint256)\n    {\n        return currentTokenCount;\n    }\n\n    /**\n     * @dev get the token template address\n     * @return the template address\n     */\n    function getTokenTemplate()\n        external\n        view\n        returns (address)\n    {\n        return tokenTemplate;\n    }\n}",
  "sourcePath": "/Users/ahmedali/Desktop/work/Ocean/contracts/contracts/Factory.sol",
  "compiler": {
    "name": "solc",
    "version": "0.5.7+commit.6da8b019.Emscripten.clang"
  },
  "schemaVersion": "3.2.0",
  "updatedAt": "2020-06-18T13:08:30.796Z",
  "devdoc": {
    "author": "Ocean Protocol Team",
    "details": "Implementation of Ocean DataTokens Factory *      Factory deploys DataToken proxy contracts.     New DataToken proxy contracts are links to the template contract's bytecode.      Proxy contract functionality is based on Ocean Protocol custom implementation of ERC1167 standard.",
    "methods": {
      "concatenateStrings(string,string)": {
        "details": "concatenateStrings     concatenates two strings",
        "params": {
          "str1": "refers to first string",
          "str2": "refers to second string"
        },
        "return": "catenated string value"
      },
      "constructor": {
        "details": "constructor     Called on contract deployment. Could not be called with zero address parameters.",
        "params": {
          "_template": "refers to the address of a deployed DataToken contract."
        }
      },
      "createToken(string)": {
        "details": "Deploys new DataToken proxy contract.     Template contract address could not be a zero address. ",
        "return": "address of a new proxy DataToken contract"
      },
      "getCurrentTokenIndex()": {
        "details": "get the current token index. ",
        "return": "the current token count"
      },
      "getTokenTemplate()": {
        "details": "get the token template address",
        "return": "the template address"
      },
      "uintToString(uint256)": {
        "details": "uintToString     converts an integer value to a string value",
        "params": {
          "value": "refers to integer value"
        },
        "return": "converted string value"
      }
    },
    "title": "Factory contract"
  },
  "userdoc": {
    "methods": {}
  }
}