{
  "contractName": "FixedRateExchange",
  "abi": [
    {
      "inputs": [],
      "payable": false,
      "stateMutability": "nonpayable",
      "type": "constructor"
    },
    {
      "anonymous": false,
      "inputs": [
        {
          "indexed": true,
          "name": "exchangeId",
          "type": "bytes32"
        },
        {
          "indexed": true,
          "name": "baseToken",
          "type": "address"
        },
        {
          "indexed": true,
          "name": "dataToken",
          "type": "address"
        },
        {
          "indexed": false,
          "name": "exchangeOwner",
          "type": "address"
        },
        {
          "indexed": false,
          "name": "fixedRate",
          "type": "uint256"
        }
      ],
      "name": "ExchangeCreated",
      "type": "event"
    },
    {
      "anonymous": false,
      "inputs": [
        {
          "indexed": true,
          "name": "exchangeId",
          "type": "bytes32"
        },
        {
          "indexed": true,
          "name": "exchangeOwner",
          "type": "address"
        },
        {
          "indexed": false,
          "name": "newRate",
          "type": "uint256"
        }
      ],
      "name": "ExchangeRateChanged",
      "type": "event"
    },
    {
      "anonymous": false,
      "inputs": [
        {
          "indexed": true,
          "name": "exchangeId",
          "type": "bytes32"
        },
        {
          "indexed": true,
          "name": "exchangeOwner",
          "type": "address"
        },
        {
          "indexed": false,
          "name": "timestamp",
          "type": "uint256"
        }
      ],
      "name": "ExchangeActivated",
      "type": "event"
    },
    {
      "anonymous": false,
      "inputs": [
        {
          "indexed": true,
          "name": "exchangeId",
          "type": "bytes32"
        },
        {
          "indexed": true,
          "name": "exchangeOwner",
          "type": "address"
        },
        {
          "indexed": false,
          "name": "timestamp",
          "type": "uint256"
        }
      ],
      "name": "ExchangeDeactivated",
      "type": "event"
    },
    {
      "anonymous": false,
      "inputs": [
        {
          "indexed": true,
          "name": "exchangeId",
          "type": "bytes32"
        },
        {
          "indexed": true,
          "name": "by",
          "type": "address"
        },
        {
          "indexed": false,
          "name": "baseTokenSwappedAmount",
          "type": "uint256"
        },
        {
          "indexed": false,
          "name": "dataTokenSwappedAmount",
          "type": "uint256"
        }
      ],
      "name": "Swapped",
      "type": "event"
    },
    {
      "constant": false,
      "inputs": [
        {
          "name": "baseToken",
          "type": "address"
        },
        {
          "name": "dataToken",
          "type": "address"
        },
        {
          "name": "fixedRate",
          "type": "uint256"
        }
      ],
      "name": "create",
      "outputs": [],
      "payable": false,
      "stateMutability": "nonpayable",
      "type": "function"
    },
    {
      "constant": true,
      "inputs": [
        {
          "name": "baseToken",
          "type": "address"
        },
        {
          "name": "dataToken",
          "type": "address"
        },
        {
          "name": "exchangeOwner",
          "type": "address"
        }
      ],
      "name": "generateExchangeId",
      "outputs": [
        {
          "name": "",
          "type": "bytes32"
        }
      ],
      "payable": false,
      "stateMutability": "pure",
      "type": "function"
    },
    {
      "constant": false,
      "inputs": [
        {
          "name": "exchangeId",
          "type": "bytes32"
        },
        {
          "name": "dataTokenAmount",
          "type": "uint256"
        }
      ],
      "name": "swap",
      "outputs": [],
      "payable": false,
      "stateMutability": "nonpayable",
      "type": "function"
    },
    {
      "constant": true,
      "inputs": [],
      "name": "getNumberOfExchanges",
      "outputs": [
        {
          "name": "",
          "type": "uint256"
        }
      ],
      "payable": false,
      "stateMutability": "view",
      "type": "function"
    },
    {
      "constant": false,
      "inputs": [
        {
          "name": "exchangeId",
          "type": "bytes32"
        },
        {
          "name": "newRate",
          "type": "uint256"
        }
      ],
      "name": "setRate",
      "outputs": [],
      "payable": false,
      "stateMutability": "nonpayable",
      "type": "function"
    },
    {
      "constant": false,
      "inputs": [
        {
          "name": "exchangeId",
          "type": "bytes32"
        }
      ],
      "name": "activate",
      "outputs": [],
      "payable": false,
      "stateMutability": "nonpayable",
      "type": "function"
    },
    {
      "constant": false,
      "inputs": [
        {
          "name": "exchangeId",
          "type": "bytes32"
        }
      ],
      "name": "deactivate",
      "outputs": [],
      "payable": false,
      "stateMutability": "nonpayable",
      "type": "function"
    },
    {
      "constant": true,
      "inputs": [
        {
          "name": "exchangeId",
          "type": "bytes32"
        }
      ],
      "name": "getRate",
      "outputs": [
        {
          "name": "",
          "type": "uint256"
        }
      ],
      "payable": false,
      "stateMutability": "view",
      "type": "function"
    },
    {
      "constant": true,
      "inputs": [
        {
          "name": "exchangeId",
          "type": "bytes32"
        }
      ],
      "name": "getExchange",
      "outputs": [
        {
          "name": "exchangeOwner",
          "type": "address"
        },
        {
          "name": "dataToken",
          "type": "address"
        },
        {
          "name": "baseToken",
          "type": "address"
        },
        {
          "name": "fixedRate",
          "type": "uint256"
        },
        {
          "name": "active",
          "type": "bool"
        }
      ],
      "payable": false,
      "stateMutability": "view",
      "type": "function"
    },
    {
      "constant": true,
      "inputs": [],
      "name": "getExchanges",
      "outputs": [
        {
          "name": "",
          "type": "bytes32[]"
        }
      ],
      "payable": false,
      "stateMutability": "view",
      "type": "function"
    },
    {
      "constant": true,
      "inputs": [
        {
          "name": "exchangeId",
          "type": "bytes32"
        }
      ],
      "name": "isActive",
      "outputs": [
        {
          "name": "",
          "type": "bool"
        }
      ],
      "payable": false,
      "stateMutability": "view",
      "type": "function"
    }
  ],
  "bytecode": "0x608060405234801561001057600080fd5b5061107d806100206000396000f3fe608060405234801561001057600080fd5b50600436106100c6576000357c010000000000000000000000000000000000000000000000000000000090048063680819eb1161008e578063680819eb146101e7578063b32b56f91461020a578063b424142914610239578063c1f6572e14610241578063de06074314610279578063ffe5725f1461029c576100c6565b80631e2e3a6b146100cb57806322eee84c146101235780634c87087d1461014257806359db6e85146101995780635c36901c146101b6575b600080fd5b6100d36102d2565b60408051602080825283518183015283519192839290830191858101910280838360005b8381101561010f5781810151838201526020016100f7565b505050509050019250505060405180910390f35b6101406004803603602081101561013957600080fd5b503561032a565b005b61015f6004803603602081101561015857600080fd5b503561042f565b60408051600160a060020a039687168152948616602086015292909416838301526060830152911515608082015290519081900360a00190f35b610140600480360360208110156101af57600080fd5b5035610472565b6101d3600480360360208110156101cc57600080fd5b5035610576565b604080519115158252519081900360200190f35b610140600480360360408110156101fd57600080fd5b508035906020013561058e565b6102276004803603602081101561022057600080fd5b5035610679565b60408051918252519081900360200190f35b61022761068e565b6102276004803603606081101561025757600080fd5b50600160a060020a038135811691602081013582169160409091013516610694565b6101406004803603604081101561028f57600080fd5b50803590602001356106eb565b610140600480360360608110156102b257600080fd5b50600160a060020a038135811691602081013590911690604001356109bc565b6060600180548060200260200160405190810160405280929190818152602001828054801561032057602002820191906000526020600020905b81548152602001906001019080831161030c575b5050505050905090565b6000818152602081905260409020548190600160a060020a031633146103845760405160e560020a62461bcd028152600401808060200182810382526029815260200180610ebb6029913960400191505060405180910390fd5b60008281526020819052604090206004015460ff1615156001146103dc5760405160e560020a62461bcd028152600401808060200182810382526032815260200180610e896032913960400191505060405180910390fd5b60008281526020818152604091829020600401805460ff1916905581514381529151339285927f14191bfb69ceeccbd98997805241020d32f08f4abaa39bf36feba101e3af7f7d92918290030190a35050565b60009081526020819052604090208054600182015460028301546003840154600490940154600160a060020a03938416959284169493909116929160ff90911690565b6000818152602081905260409020548190600160a060020a031633146104cc5760405160e560020a62461bcd028152600401808060200182810382526029815260200180610ebb6029913960400191505060405180910390fd5b60008281526020819052604090206004015460ff16156105205760405160e560020a62461bcd028152600401808060200182810382526030815260200180610f5b6030913960400191505060405180910390fd5b60008281526020818152604091829020600401805460ff1916600117905581514381529151339285927ffff081f3f63b1b815cf7fc769716bbe9358b523efc4a0e7ed2071853fe39bfb492918290030190a35050565b60009081526020819052604090206004015460ff1690565b6000828152602081905260409020548290600160a060020a031633146105e85760405160e560020a62461bcd028152600401808060200182810382526029815260200180610ebb6029913960400191505060405180910390fd5b6000821161062a5760405160e560020a62461bcd028152600401808060200182810382526023815260200180610e3b6023913960400191505060405180910390fd5b6000838152602081815260409182902060030184905581518481529151339286927fe50f9919fdc524004a4ee0cb934f4734f144bec0713a52e5483b753f5de0f08c92918290030190a3505050565b60009081526020819052604090206003015490565b60015490565b604080516c01000000000000000000000000600160a060020a039586168102602080840191909152948616810260348301529290941690910260488401528051603c818503018152605c9093019052815191012090565b600082815260208190526040902060030154829015801590610723575060008181526020819052604090206004015460ff1615156001145b6107615760405160e560020a62461bcd02815260040180806020018281038252602b815260200180610e10602b913960400191505060405180910390fd5b60008381526020819052604081206003015461079e90670de0b6b3a76400009061079290869063ffffffff610c9a16565b9063ffffffff610cff16565b6000858152602081815260408083206002810154905482517f23b872dd000000000000000000000000000000000000000000000000000000008152336004820152600160a060020a03918216602482015260448101879052925195965016936323b872dd93606480840194938390030190829087803b15801561082057600080fd5b505af1158015610834573d6000803e3d6000fd5b505050506040513d602081101561084a57600080fd5b505161088a5760405160e560020a62461bcd028152600401808060200182810382526040815260200180610ee46040913960400191505060405180910390fd5b6000848152602081815260408083206001810154905482517f23b872dd000000000000000000000000000000000000000000000000000000008152600160a060020a0391821660048201523360248201526044810189905292519116936323b872dd93606480850194919392918390030190829087803b15801561090d57600080fd5b505af1158015610921573d6000803e3d6000fd5b505050506040513d602081101561093757600080fd5b50516109775760405160e560020a62461bcd028152600401808060200182810382526040815260200180610fdf6040913960400191505060405180910390fd5b60408051828152602081018590528151339287927f816ecef7c59c8574653ab4522960d26a6d2987e94d760cd775b6c9273ef81f23929081900390910190a350505050565b60006109c9848433610694565b60008181526020819052604090206003015490915015610a1d5760405160e560020a62461bcd02815260040180806020018281038252602b815260200180610e5e602b913960400191505060405180910390fd5b600160a060020a038416610a655760405160e560020a62461bcd028152600401808060200182810382526033815260200180610fac6033913960400191505060405180910390fd5b600160a060020a038316610aad5760405160e560020a62461bcd02815260040180806020018281038252603381526020018061101f6033913960400191505060405180910390fd5b82600160a060020a031684600160a060020a03161415610b015760405160e560020a62461bcd028152600401808060200182810382526037815260200180610f246037913960400191505060405180910390fd5b60008211610b435760405160e560020a62461bcd02815260040180806020018281038252602e815260200180610de2602e913960400191505060405180910390fd5b6040805160a08101825233808252600160a060020a0386811660208085018281528a8416868801818152606088018b8152600160808a0181815260008d81528088528c81209b518c5473ffffffffffffffffffffffffffffffffffffffff19908116918c16919091178d5596518c840180548916918c16919091179055935160028c01805490971699169890981790945551600389015594516004909701805460ff1916971515979097179096558054808201825593527fb10e2d527612073b26eecdfd717e6a320cf44b4afac2b0732d9fcbe2b7fa0cf690920186905584519283529082018690528351909385927feb7a353641f7d3cc54b497ef1553fdc292b64d9cc3be8587c23dfba01f310b19929081900390910190a4604080514381529051339183917ffff081f3f63b1b815cf7fc769716bbe9358b523efc4a0e7ed2071853fe39bfb49181900360200190a350505050565b600082610ca957506000610cf9565b82820282848281610cb657fe5b0414610cf65760405160e560020a62461bcd028152600401808060200182810382526021815260200180610f8b6021913960400191505060405180910390fd5b90505b92915050565b6000610cf683836040518060400160405280601a81526020017f536166654d6174683a206469766973696f6e206279207a65726f00000000000081525060008183610dcb5760405160e560020a62461bcd0281526004018080602001828103825283818151815260200191508051906020019080838360005b83811015610d90578181015183820152602001610d78565b50505050905090810190601f168015610dbd5780820380516001836020036101000a031916815260200191505b509250505060405180910390fd5b506000838581610dd757fe5b049594505050505056fe46697865645261746545786368616e67653a20496e76616c69642065786368616e676520726174652076616c756546697865645261746545786368616e67653a2045786368616e676520646f6573206e6f742065786973742146697865645261746545786368616e67653a20526174696f206d757374206265203e3046697865645261746545786368616e67653a2045786368616e676520616c7265616479206578697374732146697865645261746545786368616e67653a2045786368616e676520697320616c726561647920646561637469766174656446697865645261746545786368616e67653a20696e76616c69642065786368616e6765206f776e657246697865645261746545786368616e67653a207472616e7366657246726f6d206661696c656420696e207468652062617365546f6b656e20636f6e747261637446697865645261746545786368616e67653a20496e76616c69642064617461746f6b656e2c2020657175616c732062617365746f6b656e46697865645261746545786368616e67653a2045786368616e676520697320616c726561647920616374697661746564536166654d6174683a206d756c7469706c69636174696f6e206f766572666c6f7746697865645261746545786368616e67653a20496e76616c69642062617365746f6b656e2c20207a65726f206164647265737346697865645261746545786368616e67653a207472616e7366657246726f6d206661696c656420696e207468652064617461546f6b656e20636f6e747261637446697865645261746545786368616e67653a20496e76616c69642064617461746f6b656e2c20207a65726f2061646472657373a165627a7a723058205bf014129a341a9eaf9792b282e6ed6f6b5c7baabc32c31671b7b3147ce13a920029",
  "source": "pragma solidity ^0.5.7;\n// Copyright BigchainDB GmbH and Ocean Protocol contributors\n// SPDX-License-Identifier: (Apache-2.0 AND CC-BY-4.0)\n// Code is Apache-2.0 and docs are CC-BY-4.0\n\nimport '../interfaces/IERC20Template.sol';\nimport 'openzeppelin-solidity/contracts/math/SafeMath.sol';\n\n/**\n * @title FixedRateExchange\n * @dev FixedRateExchange is a fixed rate exchange Contract\n */\ncontract FixedRateExchange {\n    using SafeMath for uint256;\n\n    struct Exchange {\n        address exchangeOwner;\n        address dataToken;\n        address baseToken;\n        uint256 fixedRate;\n        bool active;\n    }\n\n    // maps an exchangeId to an exchange\n    mapping(bytes32 => Exchange) exchanges;\n    bytes32[] exchangeIds;\n\n    modifier onlyActiveExchange(\n        bytes32 exchangeId\n    )\n    {\n        require(\n            exchanges[exchangeId].fixedRate != 0 &&\n            exchanges[exchangeId].active == true,\n            'FixedRateExchange: Exchange does not exist!'\n        );\n        _;\n    }\n\n    modifier onlyExchangeOwner(\n        bytes32 exchangeId\n    )\n    {\n        require(\n            exchanges[exchangeId].exchangeOwner == msg.sender,\n            'FixedRateExchange: invalid exchange owner'\n        );\n        _;\n    }\n\n    event ExchangeCreated(\n        bytes32 indexed exchangeId,\n        address indexed baseToken,\n        address indexed dataToken,\n        address exchangeOwner,\n        uint256 fixedRate\n    );\n\n    event ExchangeRateChanged(\n        bytes32 indexed exchangeId,\n        address indexed exchangeOwner,\n        uint256 newRate\n    );\n\n    event ExchangeActivated(\n        bytes32 indexed exchangeId,\n        address indexed exchangeOwner,\n        uint256 timestamp\n    );\n\n    event ExchangeDeactivated(\n        bytes32 indexed exchangeId,\n        address indexed exchangeOwner,\n        uint256 timestamp\n    );\n\n    event Swapped(\n        bytes32 indexed exchangeId,\n        address indexed by,\n        uint256 baseTokenSwappedAmount,\n        uint256 dataTokenSwappedAmount\n    );\n\n\n    constructor () public {}\n\n    function create(\n        address baseToken,\n        address dataToken,\n        uint256 fixedRate\n    )\n        external\n    {\n        bytes32 exchangeId = generateExchangeId(\n            baseToken,\n            dataToken,\n            msg.sender\n        );\n        require(\n            exchanges[exchangeId].fixedRate == 0,\n            'FixedRateExchange: Exchange already exists!'\n        );\n\n        require(\n            baseToken != address(0),\n            'FixedRateExchange: Invalid basetoken,  zero address'\n        );\n        require(\n            dataToken != address(0),\n            'FixedRateExchange: Invalid datatoken,  zero address'\n        );\n        require(\n            baseToken != dataToken,\n            'FixedRateExchange: Invalid datatoken,  equals basetoken'\n        );\n        require(\n            fixedRate > 0, \n            'FixedRateExchange: Invalid exchange rate value'\n        );\n\n        exchanges[exchangeId] = Exchange({\n            exchangeOwner: msg.sender,\n            dataToken: dataToken,\n            baseToken: baseToken,\n            fixedRate: fixedRate,\n            active: true\n        });\n        exchangeIds.push(exchangeId);\n\n        emit ExchangeCreated(\n            exchangeId,\n            baseToken,\n            dataToken,\n            msg.sender,\n            fixedRate\n        );\n\n        emit ExchangeActivated(\n            exchangeId,\n            msg.sender,\n            block.number\n        );\n    }\n\n    function generateExchangeId(\n        address baseToken,\n        address dataToken,\n        address exchangeOwner\n    )\n        public\n        pure\n        returns (bytes32)\n    {\n        return keccak256(\n            abi.encodePacked(\n                baseToken,\n                dataToken,\n                exchangeOwner\n            )\n        );\n    }\n\n    function swap(\n        bytes32 exchangeId,\n        uint256 dataTokenAmount\n    )\n        external\n        onlyActiveExchange(\n            exchangeId\n        )\n    {\n        uint256 baseTokenAmount = \n            dataTokenAmount.mul(exchanges[exchangeId].fixedRate).div(10 ** 18);\n        require(\n            IERC20Template(exchanges[exchangeId].baseToken).transferFrom(\n                msg.sender,\n                exchanges[exchangeId].exchangeOwner,\n                baseTokenAmount\n            ),\n            'FixedRateExchange: transferFrom failed in the baseToken contract'\n        );\n        require(\n            IERC20Template(exchanges[exchangeId].dataToken).transferFrom(\n                exchanges[exchangeId].exchangeOwner,\n                msg.sender,\n                dataTokenAmount\n            ),\n            'FixedRateExchange: transferFrom failed in the dataToken contract'\n        );\n\n        emit Swapped(\n            exchangeId,\n            msg.sender,\n            baseTokenAmount,\n            dataTokenAmount\n        );\n    }\n\n    function getNumberOfExchanges()\n        external\n        view\n        returns (uint256)\n    {\n        return exchangeIds.length;\n    }\n\n    function setRate(\n        bytes32 exchangeId,\n        uint256 newRate\n    )\n        external\n        onlyExchangeOwner(exchangeId)\n    {\n        require(\n            newRate >0,\n            'FixedRateExchange: Ratio must be >0'\n        );\n\n        exchanges[exchangeId].fixedRate = newRate;\n        emit ExchangeRateChanged(\n            exchangeId,\n            msg.sender,\n            newRate\n        );\n    }\n\n\n    function activate(\n        bytes32 exchangeId\n    )\n        external\n        onlyExchangeOwner(exchangeId)\n    {\n        require(\n            exchanges[exchangeId].active == false,\n            'FixedRateExchange: Exchange is already activated'\n        );\n\n        exchanges[exchangeId].active = true;\n\n        emit ExchangeActivated(\n            exchangeId,\n            msg.sender,\n            block.number\n        );\n    }\n\n    function deactivate(\n        bytes32 exchangeId\n    )\n        external\n        onlyExchangeOwner(exchangeId)\n    {\n        require(\n            exchanges[exchangeId].active == true,\n            'FixedRateExchange: Exchange is already deactivated'\n        );\n\n        exchanges[exchangeId].active = false;\n\n        emit ExchangeDeactivated(\n            exchangeId,\n            msg.sender,\n            block.number\n        );\n    }\n\n    \n    function getRate(\n        bytes32 exchangeId\n    )\n        external\n        view\n        returns(uint256)\n    {\n        return exchanges[exchangeId].fixedRate;\n    }\n\n    function getExchange(\n        bytes32 exchangeId\n    )\n        external\n        view\n        returns (\n            address exchangeOwner,\n            address dataToken,\n            address baseToken,\n            uint256 fixedRate,\n            bool active\n        )\n    {\n        exchangeOwner = exchanges[exchangeId].exchangeOwner;\n        dataToken = exchanges[exchangeId].dataToken;\n        baseToken = exchanges[exchangeId].baseToken;\n        fixedRate = exchanges[exchangeId].fixedRate;\n        active = exchanges[exchangeId].active;\n    }\n\n    function getExchanges()\n        external \n        view \n        returns (bytes32[] memory)\n    {\n        return exchangeIds;\n    }\n\n    function isActive(\n        bytes32 exchangeId\n    )\n        external\n        view\n        returns(bool)\n    {\n        return exchanges[exchangeId].active;\n    }\n}",
  "sourcePath": "/Users/ahmedali/Desktop/work/ocean-contracts/contracts/fixedrate/FixedRateExchange.sol",
  "compiler": {
    "name": "solc",
    "version": "0.5.7+commit.6da8b019.Emscripten.clang"
  },
  "schemaVersion": "3.2.0",
  "updatedAt": "2020-08-18T09:47:27.808Z",
  "devdoc": {
    "details": "FixedRateExchange is a fixed rate exchange Contract",
    "methods": {},
    "title": "FixedRateExchange"
  },
  "userdoc": {
    "methods": {}
  }
}