{
  "contractName": "FixedRateExchange",
  "abi": [
    {
      "inputs": [],
      "payable": false,
      "stateMutability": "nonpayable",
      "type": "constructor"
    },
    {
      "anonymous": false,
      "inputs": [
        {
          "indexed": true,
          "name": "exchangeId",
          "type": "bytes32"
        },
        {
          "indexed": true,
          "name": "baseToken",
          "type": "address"
        },
        {
          "indexed": true,
          "name": "dataToken",
          "type": "address"
        },
        {
          "indexed": false,
          "name": "exchangeOwner",
          "type": "address"
        },
        {
          "indexed": false,
          "name": "fixedRate",
          "type": "uint256"
        }
      ],
      "name": "ExchangeCreated",
      "type": "event"
    },
    {
      "anonymous": false,
      "inputs": [
        {
          "indexed": true,
          "name": "exchangeId",
          "type": "bytes32"
        },
        {
          "indexed": true,
          "name": "exchangeOwner",
          "type": "address"
        },
        {
          "indexed": false,
          "name": "newRate",
          "type": "uint256"
        }
      ],
      "name": "ExchangeRateChanged",
      "type": "event"
    },
    {
      "anonymous": false,
      "inputs": [
        {
          "indexed": true,
          "name": "exchangeId",
          "type": "bytes32"
        },
        {
          "indexed": true,
          "name": "exchangeOwner",
          "type": "address"
        },
        {
          "indexed": false,
          "name": "timestamp",
          "type": "uint256"
        }
      ],
      "name": "ExchangeActivated",
      "type": "event"
    },
    {
      "anonymous": false,
      "inputs": [
        {
          "indexed": true,
          "name": "exchangeId",
          "type": "bytes32"
        },
        {
          "indexed": true,
          "name": "exchangeOwner",
          "type": "address"
        },
        {
          "indexed": false,
          "name": "timestamp",
          "type": "uint256"
        }
      ],
      "name": "ExchangeDeactivated",
      "type": "event"
    },
    {
      "anonymous": false,
      "inputs": [
        {
          "indexed": true,
          "name": "exchangeId",
          "type": "bytes32"
        },
        {
          "indexed": true,
          "name": "by",
          "type": "address"
        },
        {
          "indexed": false,
          "name": "baseTokenSwappedAmount",
          "type": "uint256"
        },
        {
          "indexed": false,
          "name": "dataTokenSwappedAmount",
          "type": "uint256"
        }
      ],
      "name": "Swapped",
      "type": "event"
    },
    {
      "constant": false,
      "inputs": [
        {
          "name": "baseToken",
          "type": "address"
        },
        {
          "name": "dataToken",
          "type": "address"
        },
        {
          "name": "fixedRate",
          "type": "uint256"
        }
      ],
      "name": "create",
      "outputs": [],
      "payable": false,
      "stateMutability": "nonpayable",
      "type": "function"
    },
    {
      "constant": true,
      "inputs": [
        {
          "name": "baseToken",
          "type": "address"
        },
        {
          "name": "dataToken",
          "type": "address"
        },
        {
          "name": "exchangeOwner",
          "type": "address"
        }
      ],
      "name": "generateExchangeId",
      "outputs": [
        {
          "name": "",
          "type": "bytes32"
        }
      ],
      "payable": false,
      "stateMutability": "pure",
      "type": "function"
    },
    {
      "constant": true,
      "inputs": [
        {
          "name": "exchangeId",
          "type": "bytes32"
        },
        {
          "name": "dataTokenAmount",
          "type": "uint256"
        }
      ],
      "name": "CalcInGivenOut",
      "outputs": [
        {
          "name": "baseTokenAmount",
          "type": "uint256"
        }
      ],
      "payable": false,
      "stateMutability": "view",
      "type": "function"
    },
    {
      "constant": false,
      "inputs": [
        {
          "name": "exchangeId",
          "type": "bytes32"
        },
        {
          "name": "dataTokenAmount",
          "type": "uint256"
        }
      ],
      "name": "swap",
      "outputs": [],
      "payable": false,
      "stateMutability": "nonpayable",
      "type": "function"
    },
    {
      "constant": true,
      "inputs": [],
      "name": "getNumberOfExchanges",
      "outputs": [
        {
          "name": "",
          "type": "uint256"
        }
      ],
      "payable": false,
      "stateMutability": "view",
      "type": "function"
    },
    {
      "constant": false,
      "inputs": [
        {
          "name": "exchangeId",
          "type": "bytes32"
        },
        {
          "name": "newRate",
          "type": "uint256"
        }
      ],
      "name": "setRate",
      "outputs": [],
      "payable": false,
      "stateMutability": "nonpayable",
      "type": "function"
    },
    {
      "constant": false,
      "inputs": [
        {
          "name": "exchangeId",
          "type": "bytes32"
        }
      ],
      "name": "activate",
      "outputs": [],
      "payable": false,
      "stateMutability": "nonpayable",
      "type": "function"
    },
    {
      "constant": false,
      "inputs": [
        {
          "name": "exchangeId",
          "type": "bytes32"
        }
      ],
      "name": "deactivate",
      "outputs": [],
      "payable": false,
      "stateMutability": "nonpayable",
      "type": "function"
    },
    {
      "constant": true,
      "inputs": [
        {
          "name": "exchangeId",
          "type": "bytes32"
        }
      ],
      "name": "getRate",
      "outputs": [
        {
          "name": "",
          "type": "uint256"
        }
      ],
      "payable": false,
      "stateMutability": "view",
      "type": "function"
    },
    {
      "constant": true,
      "inputs": [
        {
          "name": "exchangeId",
          "type": "bytes32"
        }
      ],
      "name": "getSupply",
      "outputs": [
        {
          "name": "supply",
          "type": "uint256"
        }
      ],
      "payable": false,
      "stateMutability": "view",
      "type": "function"
    },
    {
      "constant": true,
      "inputs": [
        {
          "name": "exchangeId",
          "type": "bytes32"
        }
      ],
      "name": "getExchange",
      "outputs": [
        {
          "name": "exchangeOwner",
          "type": "address"
        },
        {
          "name": "dataToken",
          "type": "address"
        },
        {
          "name": "baseToken",
          "type": "address"
        },
        {
          "name": "fixedRate",
          "type": "uint256"
        },
        {
          "name": "active",
          "type": "bool"
        },
        {
          "name": "supply",
          "type": "uint256"
        }
      ],
      "payable": false,
      "stateMutability": "view",
      "type": "function"
    },
    {
      "constant": true,
      "inputs": [],
      "name": "getExchanges",
      "outputs": [
        {
          "name": "",
          "type": "bytes32[]"
        }
      ],
      "payable": false,
      "stateMutability": "view",
      "type": "function"
    },
    {
      "constant": true,
      "inputs": [
        {
          "name": "exchangeId",
          "type": "bytes32"
        }
      ],
      "name": "isActive",
      "outputs": [
        {
          "name": "",
          "type": "bool"
        }
      ],
      "payable": false,
      "stateMutability": "view",
      "type": "function"
    }
  ],
  "bytecode": "0x608060405234801561001057600080fd5b506114a9806100206000396000f3fe608060405234801561001057600080fd5b50600436106100d35760003560e060020a90048063680819eb11610090578063c03002311161006a578063c030023114610275578063c1f6572e14610298578063de060743146102d0578063ffe5725f146102f3576100d3565b8063680819eb1461022d578063b32b56f914610250578063b42414291461026d576100d3565b80631e2e3a6b146100d857806322eee84c146101305780634c87087d1461014f57806354d9be59146101b057806359db6e85146101df5780635c36901c146101fc575b600080fd5b6100e0610329565b60408051602080825283518183015283519192839290830191858101910280838360005b8381101561011c578181015183820152602001610104565b505050509050019250505060405180910390f35b61014d6004803603602081101561014657600080fd5b5035610381565b005b61016c6004803603602081101561016557600080fd5b5035610486565b60408051600160a060020a0397881681529587166020870152939095168484015260608401919091521515608083015260a082019290925290519081900360c00190f35b6101cd600480360360208110156101c657600080fd5b50356104db565b60408051918252519081900360200190f35b61014d600480360360208110156101f557600080fd5b5035610661565b6102196004803603602081101561021257600080fd5b5035610765565b604080519115158252519081900360200190f35b61014d6004803603604081101561024357600080fd5b508035906020013561077d565b6101cd6004803603602081101561026657600080fd5b5035610868565b6101cd61087d565b6101cd6004803603604081101561028b57600080fd5b5080359060200135610883565b6101cd600480360360608110156102ae57600080fd5b50600160a060020a03813581169160208101358216916040909101351661093e565b61014d600480360360408110156102e657600080fd5b5080359060200135610995565b61014d6004803603606081101561030957600080fd5b50600160a060020a03813581169160208101359091169060400135610c77565b6060600180548060200260200160405190810160405280929190818152602001828054801561037757602002820191906000526020600020905b815481526020019060010190808311610363575b5050505050905090565b6000818152602081905260409020548190600160a060020a031633146103db5760405160e560020a62461bcd0281526004018080602001828103825260298152602001806112be6029913960400191505060405180910390fd5b60008281526020819052604090206004015460ff1615156001146104335760405160e560020a62461bcd0281526004018080602001828103825260328152602001806112606032913960400191505060405180910390fd5b60008281526020818152604091829020600401805460ff1916905581514381529151339285927f14191bfb69ceeccbd98997805241020d32f08f4abaa39bf36feba101e3af7f7d92918290030190a35050565b60008181526020819052604081208054600182015460028301546003840154600490940154600160a060020a03938416959284169493909116929160ff909116906104d0876104db565b905091939550919395565b60008181526020819052604081206004015460ff166104fc5750600061065c565b6000828152602081815260408083206001810154905482517f70a08231000000000000000000000000000000000000000000000000000000008152600160a060020a03918216600482015292519116926370a082319260248082019391829003018186803b15801561056d57600080fd5b505afa158015610581573d6000803e3d6000fd5b505050506040513d602081101561059757600080fd5b50516000848152602081815260408083206001810154905482517fdd62ed3e000000000000000000000000000000000000000000000000000000008152600160a060020a0391821660048201523060248201529251959650939493169263dd62ed3e92604480840193919291829003018186803b15801561061757600080fd5b505afa15801561062b573d6000803e3d6000fd5b505050506040513d602081101561064157600080fd5b505190508082101561065557819250610659565b8092505b50505b919050565b6000818152602081905260409020548190600160a060020a031633146106bb5760405160e560020a62461bcd0281526004018080602001828103825260298152602001806112be6029913960400191505060405180910390fd5b60008281526020819052604090206004015460ff161561070f5760405160e560020a62461bcd02815260040180806020018281038252603081526020018061135e6030913960400191505060405180910390fd5b60008281526020818152604091829020600401805460ff1916600117905581514381529151339285927ffff081f3f63b1b815cf7fc769716bbe9358b523efc4a0e7ed2071853fe39bfb492918290030190a35050565b60009081526020819052604090206004015460ff1690565b6000828152602081905260409020548290600160a060020a031633146107d75760405160e560020a62461bcd0281526004018080602001828103825260298152602001806112be6029913960400191505060405180910390fd5b600082116108195760405160e560020a62461bcd0281526004018080602001828103825260238152602001806112126023913960400191505060405180910390fd5b6000838152602081815260409182902060030184905581518481529151339286927fe50f9919fdc524004a4ee0cb934f4734f144bec0713a52e5483b753f5de0f08c92918290030190a3505050565b60009081526020819052604090206003015490565b60015490565b6000828152602081905260408120600301548390158015906108bb575060008181526020819052604090206004015460ff1615156001145b6108f95760405160e560020a62461bcd02815260040180806020018281038252602b8152602001806111e7602b913960400191505060405180910390fd5b60008481526020819052604090206003015461093690670de0b6b3a76400009061092a90869063ffffffff61107116565b9063ffffffff6110d616565b949350505050565b604080516c01000000000000000000000000600160a060020a039586168102602080840191909152948616810260348301529290941690910260488401528051603c818503018152605c9093019052815191012090565b6000828152602081905260409020600301548290158015906109cd575060008181526020819052604090206004015460ff1615156001145b610a0b5760405160e560020a62461bcd02815260040180806020018281038252602b8152602001806111e7602b913960400191505060405180910390fd5b60008211610a4d5760405160e560020a62461bcd0281526004018080602001828103825260298152602001806114556029913960400191505060405180910390fd5b6000610a598484610883565b6000858152602081815260408083206002810154905482517f23b872dd000000000000000000000000000000000000000000000000000000008152336004820152600160a060020a03918216602482015260448101879052925195965016936323b872dd93606480840194938390030190829087803b158015610adb57600080fd5b505af1158015610aef573d6000803e3d6000fd5b505050506040513d6020811015610b0557600080fd5b5051610b455760405160e560020a62461bcd0281526004018080602001828103825260408152602001806112e76040913960400191505060405180910390fd5b6000848152602081815260408083206001810154905482517f23b872dd000000000000000000000000000000000000000000000000000000008152600160a060020a0391821660048201523360248201526044810189905292519116936323b872dd93606480850194919392918390030190829087803b158015610bc857600080fd5b505af1158015610bdc573d6000803e3d6000fd5b505050506040513d6020811015610bf257600080fd5b5051610c325760405160e560020a62461bcd0281526004018080602001828103825260408152602001806113e26040913960400191505060405180910390fd5b60408051828152602081018590528151339287927f816ecef7c59c8574653ab4522960d26a6d2987e94d760cd775b6c9273ef81f23929081900390910190a350505050565b600160a060020a038316610cbf5760405160e560020a62461bcd0281526004018080602001828103825260338152602001806113af6033913960400191505060405180910390fd5b600160a060020a038216610d075760405160e560020a62461bcd0281526004018080602001828103825260338152602001806114226033913960400191505060405180910390fd5b81600160a060020a031683600160a060020a03161415610d5b5760405160e560020a62461bcd0281526004018080602001828103825260378152602001806113276037913960400191505060405180910390fd5b60008111610d9d5760405160e560020a62461bcd02815260040180806020018281038252602e8152602001806111b9602e913960400191505060405180910390fd5b600083600160a060020a031663355274ea6040518163ffffffff1660e060020a02815260040160206040518083038186803b158015610ddb57600080fd5b505afa158015610def573d6000803e3d6000fd5b505050506040513d6020811015610e0557600080fd5b5051118015610e7b5750600082600160a060020a031663355274ea6040518163ffffffff1660e060020a02815260040160206040518083038186803b158015610e4d57600080fd5b505afa158015610e61573d6000803e3d6000fd5b505050506040513d6020811015610e7757600080fd5b5051115b610eb95760405160e560020a62461bcd02815260040180806020018281038252602c815260200180611292602c913960400191505060405180910390fd5b6000610ec684843361093e565b60008181526020819052604090206003015490915015610f1a5760405160e560020a62461bcd02815260040180806020018281038252602b815260200180611235602b913960400191505060405180910390fd5b6040805160a08101825233808252600160a060020a0386811660208085018281528a8416868801818152606088018b8152600160808a0181815260008d81528088528c81209b518c5473ffffffffffffffffffffffffffffffffffffffff19908116918c16919091178d5596518c840180548916918c16919091179055935160028c01805490971699169890981790945551600389015594516004909701805460ff1916971515979097179096558054808201825593527fb10e2d527612073b26eecdfd717e6a320cf44b4afac2b0732d9fcbe2b7fa0cf690920186905584519283529082018690528351909385927feb7a353641f7d3cc54b497ef1553fdc292b64d9cc3be8587c23dfba01f310b19929081900390910190a4604080514381529051339183917ffff081f3f63b1b815cf7fc769716bbe9358b523efc4a0e7ed2071853fe39bfb49181900360200190a350505050565b600082611080575060006110d0565b8282028284828161108d57fe5b04146110cd5760405160e560020a62461bcd02815260040180806020018281038252602181526020018061138e6021913960400191505060405180910390fd5b90505b92915050565b60006110cd83836040518060400160405280601a81526020017f536166654d6174683a206469766973696f6e206279207a65726f000000000000815250600081836111a25760405160e560020a62461bcd0281526004018080602001828103825283818151815260200191508051906020019080838360005b8381101561116757818101518382015260200161114f565b50505050905090810190601f1680156111945780820380516001836020036101000a031916815260200191505b509250505060405180910390fd5b5060008385816111ae57fe5b049594505050505056fe46697865645261746545786368616e67653a20496e76616c69642065786368616e676520726174652076616c756546697865645261746545786368616e67653a2045786368616e676520646f6573206e6f742065786973742146697865645261746545786368616e67653a20526174696f206d757374206265203e3046697865645261746545786368616e67653a2045786368616e676520616c7265616479206578697374732146697865645261746545786368616e67653a2045786368616e676520697320616c726561647920646561637469766174656446697865645261746545786368616e67653a20455243323020636f6d7061746962696c697479206572726f7246697865645261746545786368616e67653a20696e76616c69642065786368616e6765206f776e657246697865645261746545786368616e67653a207472616e7366657246726f6d206661696c656420696e207468652062617365546f6b656e20636f6e747261637446697865645261746545786368616e67653a20496e76616c69642064617461746f6b656e2c2020657175616c732062617365746f6b656e46697865645261746545786368616e67653a2045786368616e676520697320616c726561647920616374697661746564536166654d6174683a206d756c7469706c69636174696f6e206f766572666c6f7746697865645261746545786368616e67653a20496e76616c69642062617365746f6b656e2c20207a65726f206164647265737346697865645261746545786368616e67653a207472616e7366657246726f6d206661696c656420696e207468652064617461546f6b656e20636f6e747261637446697865645261746545786368616e67653a20496e76616c69642064617461746f6b656e2c20207a65726f206164647265737346697865645261746545786368616e67653a207a65726f206461746120746f6b656e20616d6f756e74a165627a7a72305820461dd89ed82050371e2b29fe4645151eab0e7b04bf96ad5007a92c1e138466d90029",
  "source": "pragma solidity ^0.5.7;\n// Copyright BigchainDB GmbH and Ocean Protocol contributors\n// SPDX-License-Identifier: (Apache-2.0 AND CC-BY-4.0)\n// Code is Apache-2.0 and docs are CC-BY-4.0\n\nimport '../interfaces/IERC20Template.sol';\nimport 'openzeppelin-solidity/contracts/math/SafeMath.sol';\n\n/**\n * @title FixedRateExchange\n * @dev FixedRateExchange is a fixed rate exchange Contract\n *      Marketplaces uses this contract to allow consumers \n *      exchanging datatokens with ocean token using a fixed \n *      exchange rate.\n */\ncontract FixedRateExchange {\n    using SafeMath for uint256;\n    uint256 private constant BASE = 10 ** 18;\n    struct Exchange {\n        address exchangeOwner;\n        address dataToken;\n        address baseToken;\n        uint256 fixedRate;\n        bool active;\n    }\n\n    // maps an exchangeId to an exchange\n    mapping(bytes32 => Exchange) exchanges;\n    bytes32[] exchangeIds;\n\n    modifier onlyActiveExchange(\n        bytes32 exchangeId\n    )\n    {\n        require(\n            exchanges[exchangeId].fixedRate != 0 &&\n            exchanges[exchangeId].active == true,\n            'FixedRateExchange: Exchange does not exist!'\n        );\n        _;\n    }\n\n    modifier onlyExchangeOwner(\n        bytes32 exchangeId\n    )\n    {\n        require(\n            exchanges[exchangeId].exchangeOwner == msg.sender,\n            'FixedRateExchange: invalid exchange owner'\n        );\n        _;\n    }\n\n    event ExchangeCreated(\n        bytes32 indexed exchangeId,\n        address indexed baseToken,\n        address indexed dataToken,\n        address exchangeOwner,\n        uint256 fixedRate\n    );\n\n    event ExchangeRateChanged(\n        bytes32 indexed exchangeId,\n        address indexed exchangeOwner,\n        uint256 newRate\n    );\n\n    event ExchangeActivated(\n        bytes32 indexed exchangeId,\n        address indexed exchangeOwner,\n        uint256 timestamp\n    );\n\n    event ExchangeDeactivated(\n        bytes32 indexed exchangeId,\n        address indexed exchangeOwner,\n        uint256 timestamp\n    );\n\n    event Swapped(\n        bytes32 indexed exchangeId,\n        address indexed by,\n        uint256 baseTokenSwappedAmount,\n        uint256 dataTokenSwappedAmount\n    );\n\n\n    constructor () public {}\n\n    /**\n     * @dev create\n     *      creates new exchange pairs between base token\n     *      (ocean token) and data tokens.\n     * @param baseToken refers to a ocean token contract address\n     * @param dataToken refers to a data token contract address\n     * @param fixedRate refers to the exact fixed exchange rate in wei\n     */\n    function create(\n        address baseToken,\n        address dataToken,\n        uint256 fixedRate\n    )\n        external\n    {\n        require(\n            baseToken != address(0),\n            'FixedRateExchange: Invalid basetoken,  zero address'\n        );\n        require(\n            dataToken != address(0),\n            'FixedRateExchange: Invalid datatoken,  zero address'\n        );\n        require(\n            baseToken != dataToken,\n            'FixedRateExchange: Invalid datatoken,  equals basetoken'\n        );\n        require(\n            fixedRate > 0, \n            'FixedRateExchange: Invalid exchange rate value'\n        );\n        require(\n            IERC20Template(baseToken).cap() > 0 &&\n            IERC20Template(dataToken).cap() > 0,\n            'FixedRateExchange: ERC20 compatibility error'\n        );\n        bytes32 exchangeId = generateExchangeId(\n            baseToken,\n            dataToken,\n            msg.sender\n        );\n        require(\n            exchanges[exchangeId].fixedRate == 0,\n            'FixedRateExchange: Exchange already exists!'\n        );\n        exchanges[exchangeId] = Exchange({\n            exchangeOwner: msg.sender,\n            dataToken: dataToken,\n            baseToken: baseToken,\n            fixedRate: fixedRate,\n            active: true\n        });\n        exchangeIds.push(exchangeId);\n\n        emit ExchangeCreated(\n            exchangeId,\n            baseToken,\n            dataToken,\n            msg.sender,\n            fixedRate\n        );\n\n        emit ExchangeActivated(\n            exchangeId,\n            msg.sender,\n            block.number\n        );\n    }\n\n    /**\n     * @dev generateExchangeId\n     *      creates unique exchange identifier for two token pairs.\n     * @param baseToken refers to a ocean token contract address\n     * @param dataToken refers to a data token contract address\n     * @param exchangeOwner exchange owner address\n     */\n    function generateExchangeId(\n        address baseToken,\n        address dataToken,\n        address exchangeOwner\n    )\n        public\n        pure\n        returns (bytes32)\n    {\n        return keccak256(\n            abi.encodePacked(\n                baseToken,\n                dataToken,\n                exchangeOwner\n            )\n        );\n    }\n    \n    /**\n     * @dev CalcInGivenOut\n     *      Calculates how many basetokens are needed to get specifyed amount of datatokens\n     * @param exchangeId a unique exchange idnetifier \n     * @param dataTokenAmount the amount of data tokens to be exchanged\n     */\n    function CalcInGivenOut(\n        bytes32 exchangeId,\n        uint256 dataTokenAmount\n    )\n        public\n        view\n        onlyActiveExchange(\n            exchangeId\n        )\n        returns (uint256 baseTokenAmount)\n    {\n        baseTokenAmount = dataTokenAmount.mul(\n            exchanges[exchangeId].fixedRate).div(BASE);\n    }\n    \n    /**\n     * @dev swap\n     *      atomic swap between two registered fixed rate exchange.\n     * @param exchangeId a unique exchange idnetifier \n     * @param dataTokenAmount the amount of data tokens to be exchanged\n     */\n    function swap(\n        bytes32 exchangeId,\n        uint256 dataTokenAmount\n    )\n        external\n        onlyActiveExchange(\n            exchangeId\n        )\n    {\n        require(\n            dataTokenAmount > 0,\n            'FixedRateExchange: zero data token amount'\n        );\n        uint256 baseTokenAmount = CalcInGivenOut(exchangeId,dataTokenAmount);\n        require(\n            IERC20Template(exchanges[exchangeId].baseToken).transferFrom(\n                msg.sender,\n                exchanges[exchangeId].exchangeOwner,\n                baseTokenAmount\n            ),\n            'FixedRateExchange: transferFrom failed in the baseToken contract'\n        );\n        require(\n            IERC20Template(exchanges[exchangeId].dataToken).transferFrom(\n                exchanges[exchangeId].exchangeOwner,\n                msg.sender,\n                dataTokenAmount\n            ),\n            'FixedRateExchange: transferFrom failed in the dataToken contract'\n        );\n\n        emit Swapped(\n            exchangeId,\n            msg.sender,\n            baseTokenAmount,\n            dataTokenAmount\n        );\n    }\n\n    /**\n     * @dev getNumberOfExchanges\n     *      gets the total number of registered exchanges\n     * @return total number of registered exchange IDs\n     */\n    function getNumberOfExchanges()\n        external\n        view\n        returns (uint256)\n    {\n        return exchangeIds.length;\n    }\n\n    /**\n     * @dev setRate\n     *      changes the fixed rate for an exchange with a new rate\n     * @param exchangeId a unique exchange idnetifier\n     * @param newRate new fixed rate value\n     */\n    function setRate(\n        bytes32 exchangeId,\n        uint256 newRate\n    )\n        external\n        onlyExchangeOwner(exchangeId)\n    {\n        require(\n            newRate >0,\n            'FixedRateExchange: Ratio must be >0'\n        );\n\n        exchanges[exchangeId].fixedRate = newRate;\n        emit ExchangeRateChanged(\n            exchangeId,\n            msg.sender,\n            newRate\n        );\n    }\n\n     /**\n     * @dev activate\n     *      sets exchange status to active to true (only called by exchagne owner)\n     * @param exchangeId a unique exchange idnetifier\n     */\n    function activate(\n        bytes32 exchangeId\n    )\n        external\n        onlyExchangeOwner(exchangeId)\n    {\n        require(\n            exchanges[exchangeId].active == false,\n            'FixedRateExchange: Exchange is already activated'\n        );\n\n        exchanges[exchangeId].active = true;\n\n        emit ExchangeActivated(\n            exchangeId,\n            msg.sender,\n            block.number\n        );\n    }\n\n    /**\n     * @dev deactivate\n     *      sets exchange status to active to false (only called by exchagne owner)\n     * @param exchangeId a unique exchange idnetifier\n     */\n    function deactivate(\n        bytes32 exchangeId\n    )\n        external\n        onlyExchangeOwner(exchangeId)\n    {\n        require(\n            exchanges[exchangeId].active == true,\n            'FixedRateExchange: Exchange is already deactivated'\n        );\n\n        exchanges[exchangeId].active = false;\n\n        emit ExchangeDeactivated(\n            exchangeId,\n            msg.sender,\n            block.number\n        );\n    }\n\n    /**\n     * @dev getRate\n     *      gets the current fixed rate for an exchange\n     * @param exchangeId a unique exchange idnetifier\n     * @return fixed rate value\n     */\n    function getRate(\n        bytes32 exchangeId\n    )\n        external\n        view\n        returns(uint256)\n    {\n        return exchanges[exchangeId].fixedRate;\n    }\n\n    /**\n     * @dev getSupply\n     *      gets the current supply of datatokens in an fixed\n     *      rate exchagne\n     * @param  exchangeId the exchange ID\n     * @return supply\n     */\n    function getSupply(bytes32 exchangeId)\n        public\n        view\n        returns (uint256 supply)\n    {\n        if(exchanges[exchangeId].active == false)\n            supply = 0;\n        else {\n            uint256 balance = IERC20Template(exchanges[exchangeId].dataToken)\n                .balanceOf(exchanges[exchangeId].exchangeOwner);\n            uint256 allowance = IERC20Template(exchanges[exchangeId].dataToken)\n                .allowance(exchanges[exchangeId].exchangeOwner, address(this));\n            if(balance < allowance)\n                supply = balance;\n            else\n                supply = allowance;\n        }\n    }\n\n    /**\n     * @dev getExchange\n     *      gets all the exchange details\n     * @param exchangeId a unique exchange idnetifier\n     * @return all the exchange details including  the exchange Owner\n     *         the dataToken contract address, the base token address, the \n     *         fixed rate, whether the exchange is active and the supply or the \n     *         the current data token liquidity.\n     */\n    function getExchange(\n        bytes32 exchangeId\n    )\n        external\n        view\n        returns (\n            address exchangeOwner,\n            address dataToken,\n            address baseToken,\n            uint256 fixedRate,\n            bool active,\n            uint256 supply\n        )\n    {\n        exchangeOwner = exchanges[exchangeId].exchangeOwner;\n        dataToken = exchanges[exchangeId].dataToken;\n        baseToken = exchanges[exchangeId].baseToken;\n        fixedRate = exchanges[exchangeId].fixedRate;\n        active = exchanges[exchangeId].active;\n        supply = getSupply(exchangeId);\n    }\n\n    /**\n     * @dev getExchanges\n     *      gets all the exchanges list\n     * @return a list of all registered exchange Ids\n     */\n    function getExchanges()\n        external \n        view \n        returns (bytes32[] memory)\n    {\n        return exchangeIds;\n    }\n\n    /**\n     * @dev isActive\n     *      checks whether exchange is active\n     * @param exchangeId a unique exchange idnetifier\n     * @return true if exchange is true, otherwise returns false\n     */\n    function isActive(\n        bytes32 exchangeId\n    )\n        external\n        view\n        returns (bool)\n    {\n        return exchanges[exchangeId].active;\n    }\n}",
  "sourcePath": "/Users/ahmedali/Desktop/work/ocean-contracts/contracts/fixedRate/FixedRateExchange.sol",
  "compiler": {
    "name": "solc",
    "version": "0.5.7+commit.6da8b019.Emscripten.clang"
  },
  "schemaVersion": "3.2.4",
  "updatedAt": "2020-09-21T11:28:22.525Z",
  "devdoc": {
    "details": "FixedRateExchange is a fixed rate exchange Contract     Marketplaces uses this contract to allow consumers      exchanging datatokens with ocean token using a fixed      exchange rate.",
    "methods": {
      "CalcInGivenOut(bytes32,uint256)": {
        "details": "CalcInGivenOut     Calculates how many basetokens are needed to get specifyed amount of datatokens",
        "params": {
          "dataTokenAmount": "the amount of data tokens to be exchanged",
          "exchangeId": "a unique exchange idnetifier "
        }
      },
      "activate(bytes32)": {
        "details": "activate     sets exchange status to active to true (only called by exchagne owner)",
        "params": {
          "exchangeId": "a unique exchange idnetifier"
        }
      },
      "create(address,address,uint256)": {
        "details": "create     creates new exchange pairs between base token     (ocean token) and data tokens.",
        "params": {
          "baseToken": "refers to a ocean token contract address",
          "dataToken": "refers to a data token contract address",
          "fixedRate": "refers to the exact fixed exchange rate in wei"
        }
      },
      "deactivate(bytes32)": {
        "details": "deactivate     sets exchange status to active to false (only called by exchagne owner)",
        "params": {
          "exchangeId": "a unique exchange idnetifier"
        }
      },
      "generateExchangeId(address,address,address)": {
        "details": "generateExchangeId     creates unique exchange identifier for two token pairs.",
        "params": {
          "baseToken": "refers to a ocean token contract address",
          "dataToken": "refers to a data token contract address",
          "exchangeOwner": "exchange owner address"
        }
      },
      "getExchange(bytes32)": {
        "details": "getExchange     gets all the exchange details",
        "params": {
          "exchangeId": "a unique exchange idnetifier"
        },
        "return": "all the exchange details including  the exchange Owner        the dataToken contract address, the base token address, the         fixed rate, whether the exchange is active and the supply or the         the current data token liquidity."
      },
      "getExchanges()": {
        "details": "getExchanges     gets all the exchanges list",
        "return": "a list of all registered exchange Ids"
      },
      "getNumberOfExchanges()": {
        "details": "getNumberOfExchanges     gets the total number of registered exchanges",
        "return": "total number of registered exchange IDs"
      },
      "getRate(bytes32)": {
        "details": "getRate     gets the current fixed rate for an exchange",
        "params": {
          "exchangeId": "a unique exchange idnetifier"
        },
        "return": "fixed rate value"
      },
      "getSupply(bytes32)": {
        "details": "getSupply     gets the current supply of datatokens in an fixed     rate exchagne",
        "params": {
          "exchangeId": "the exchange ID"
        },
        "return": "supply"
      },
      "isActive(bytes32)": {
        "details": "isActive     checks whether exchange is active",
        "params": {
          "exchangeId": "a unique exchange idnetifier"
        },
        "return": "true if exchange is true, otherwise returns false"
      },
      "setRate(bytes32,uint256)": {
        "details": "setRate     changes the fixed rate for an exchange with a new rate",
        "params": {
          "exchangeId": "a unique exchange idnetifier",
          "newRate": "new fixed rate value"
        }
      },
      "swap(bytes32,uint256)": {
        "details": "swap     atomic swap between two registered fixed rate exchange.",
        "params": {
          "dataTokenAmount": "the amount of data tokens to be exchanged",
          "exchangeId": "a unique exchange idnetifier "
        }
      }
    },
    "title": "FixedRateExchange"
  },
  "userdoc": {
    "methods": {}
  }
}