{
  "contractName": "SFactory",
  "abi": [
    {
      "constant": true,
      "inputs": [],
      "name": "MAX_TOTAL_WEIGHT",
      "outputs": [
        {
          "name": "",
          "type": "uint256"
        }
      ],
      "payable": false,
      "stateMutability": "view",
      "type": "function"
    },
    {
      "constant": true,
      "inputs": [],
      "name": "BPOW_PRECISION",
      "outputs": [
        {
          "name": "",
          "type": "uint256"
        }
      ],
      "payable": false,
      "stateMutability": "view",
      "type": "function"
    },
    {
      "constant": true,
      "inputs": [],
      "name": "MIN_WEIGHT",
      "outputs": [
        {
          "name": "",
          "type": "uint256"
        }
      ],
      "payable": false,
      "stateMutability": "view",
      "type": "function"
    },
    {
      "constant": true,
      "inputs": [],
      "name": "MIN_FEE",
      "outputs": [
        {
          "name": "",
          "type": "uint256"
        }
      ],
      "payable": false,
      "stateMutability": "view",
      "type": "function"
    },
    {
      "constant": true,
      "inputs": [
        {
          "name": "str1",
          "type": "string"
        },
        {
          "name": "str2",
          "type": "string"
        }
      ],
      "name": "concatenateStrings",
      "outputs": [
        {
          "name": "",
          "type": "string"
        }
      ],
      "payable": false,
      "stateMutability": "pure",
      "type": "function"
    },
    {
      "constant": true,
      "inputs": [],
      "name": "MIN_BALANCE",
      "outputs": [
        {
          "name": "",
          "type": "uint256"
        }
      ],
      "payable": false,
      "stateMutability": "view",
      "type": "function"
    },
    {
      "constant": true,
      "inputs": [],
      "name": "INIT_POOL_SUPPLY",
      "outputs": [
        {
          "name": "",
          "type": "uint256"
        }
      ],
      "payable": false,
      "stateMutability": "view",
      "type": "function"
    },
    {
      "constant": true,
      "inputs": [],
      "name": "MAX_OUT_RATIO",
      "outputs": [
        {
          "name": "",
          "type": "uint256"
        }
      ],
      "payable": false,
      "stateMutability": "view",
      "type": "function"
    },
    {
      "constant": true,
      "inputs": [],
      "name": "MAX_BOUND_TOKENS",
      "outputs": [
        {
          "name": "",
          "type": "uint256"
        }
      ],
      "payable": false,
      "stateMutability": "view",
      "type": "function"
    },
    {
      "constant": true,
      "inputs": [],
      "name": "MIN_BOUND_TOKENS",
      "outputs": [
        {
          "name": "",
          "type": "uint256"
        }
      ],
      "payable": false,
      "stateMutability": "view",
      "type": "function"
    },
    {
      "constant": true,
      "inputs": [],
      "name": "MIN_BPOW_BASE",
      "outputs": [
        {
          "name": "",
          "type": "uint256"
        }
      ],
      "payable": false,
      "stateMutability": "view",
      "type": "function"
    },
    {
      "constant": true,
      "inputs": [],
      "name": "MAX_FEE",
      "outputs": [
        {
          "name": "",
          "type": "uint256"
        }
      ],
      "payable": false,
      "stateMutability": "view",
      "type": "function"
    },
    {
      "constant": true,
      "inputs": [],
      "name": "MAX_BPOW_BASE",
      "outputs": [
        {
          "name": "",
          "type": "uint256"
        }
      ],
      "payable": false,
      "stateMutability": "view",
      "type": "function"
    },
    {
      "constant": true,
      "inputs": [],
      "name": "BONE",
      "outputs": [
        {
          "name": "",
          "type": "uint256"
        }
      ],
      "payable": false,
      "stateMutability": "view",
      "type": "function"
    },
    {
      "constant": true,
      "inputs": [],
      "name": "EXIT_FEE",
      "outputs": [
        {
          "name": "",
          "type": "uint256"
        }
      ],
      "payable": false,
      "stateMutability": "view",
      "type": "function"
    },
    {
      "constant": true,
      "inputs": [],
      "name": "MAX_WEIGHT",
      "outputs": [
        {
          "name": "",
          "type": "uint256"
        }
      ],
      "payable": false,
      "stateMutability": "view",
      "type": "function"
    },
    {
      "constant": true,
      "inputs": [
        {
          "name": "value",
          "type": "uint256"
        }
      ],
      "name": "uintToString",
      "outputs": [
        {
          "name": "",
          "type": "string"
        }
      ],
      "payable": false,
      "stateMutability": "pure",
      "type": "function"
    },
    {
      "constant": true,
      "inputs": [],
      "name": "MAX_IN_RATIO",
      "outputs": [
        {
          "name": "",
          "type": "uint256"
        }
      ],
      "payable": false,
      "stateMutability": "view",
      "type": "function"
    },
    {
      "inputs": [
        {
          "name": "spoolTemplate",
          "type": "address"
        }
      ],
      "payable": false,
      "stateMutability": "nonpayable",
      "type": "constructor"
    },
    {
      "anonymous": false,
      "inputs": [
        {
          "indexed": true,
          "name": "newSPoolAddress",
          "type": "address"
        },
        {
          "indexed": true,
          "name": "spoolTemplateAddress",
          "type": "address"
        }
      ],
      "name": "SPoolCreated",
      "type": "event"
    },
    {
      "anonymous": false,
      "inputs": [
        {
          "indexed": false,
          "name": "spoolAddress",
          "type": "address"
        },
        {
          "indexed": true,
          "name": "registeredBy",
          "type": "address"
        },
        {
          "indexed": true,
          "name": "registeredAt",
          "type": "uint256"
        }
      ],
      "name": "SPoolRegistered",
      "type": "event"
    },
    {
      "anonymous": false,
      "inputs": [
        {
          "indexed": false,
          "name": "instance",
          "type": "address"
        }
      ],
      "name": "InstanceDeployed",
      "type": "event"
    },
    {
      "constant": false,
      "inputs": [],
      "name": "newSPool",
      "outputs": [
        {
          "name": "spool",
          "type": "address"
        }
      ],
      "payable": false,
      "stateMutability": "nonpayable",
      "type": "function"
    },
    {
      "constant": true,
      "inputs": [],
      "name": "getSPool",
      "outputs": [
        {
          "name": "",
          "type": "address"
        }
      ],
      "payable": false,
      "stateMutability": "view",
      "type": "function"
    }
  ],
  "bytecode": "0x608060405234801561001057600080fd5b50604051602080610aa98339810180604052602081101561003057600080fd5b5051600160a060020a0381166100a757604080517f08c379a000000000000000000000000000000000000000000000000000000000815260206004820152600d60248201527f4552525f414444524553535f3000000000000000000000000000000000000000604482015290519081900360640190fd5b60008054600160a060020a03909216600160a060020a03199092169190911790556109d2806100d76000396000f3fe608060405234801561001057600080fd5b5060043610610149576000357c010000000000000000000000000000000000000000000000000000000090048063b0e0d136116100ca578063c36596a61161008e578063c36596a614610170578063c6580d121461038e578063e4a28a521461014e578063e939567914610396578063ec093021146103b357610149565b8063b0e0d13614610366578063b7b800a41461036e578063ba019dab14610376578063bc063e1a1461037e578063bc694ea21461038657610149565b806376c7a3c71161011157806376c7a3c7146101a45780637a36b3ee146101ac578063867378c51461034e5780639381cd2b14610356578063992e2a921461035e57610149565b806309a3bbe41461014e578063189d00ca14610168578063218b538214610170578063409f84fc146101785780635a15126d1461019c575b600080fd5b6101566103bb565b60408051918252519081900360200190f35b6101566103c8565b6101566103dc565b6101806103e8565b60408051600160a060020a039092168252519081900360200190f35b6101806103f7565b6101566106a2565b6102d9600480360360408110156101c257600080fd5b8101906020810181356401000000008111156101dd57600080fd5b8201836020820111156101ef57600080fd5b8035906020019184600183028401116401000000008311171561021157600080fd5b91908080601f016020809104026020016040519081016040528093929190818152602001838380828437600092019190915250929594936020810193503591505064010000000081111561026457600080fd5b82018360208201111561027657600080fd5b8035906020019184600183028401116401000000008311171561029857600080fd5b91908080601f0160208091040260200160405190810160405280939291908181526020018383808284376000920191909152509295506106b4945050505050565b6040805160208082528351818301528351919283929083019185019080838360005b838110156103135781810151838201526020016102fb565b50505050905090810190601f1680156103405780820380516001836020036101000a031916815260200191505b509250505060405180910390f35b61015661076f565b610156610783565b610156610790565b61015661079c565b6101566107a1565b6101566107a6565b6101566107ab565b6101566107bb565b6101566107c7565b6102d9600480360360208110156103ac57600080fd5b50356107cc565b6101566108e5565b6802b5e3af16b188000081565b6402540be400670de0b6b3a76400005b0481565b670de0b6b3a764000081565b600054600160a060020a031690565b6000805461040d90600160a060020a03166108f5565b9050600160a060020a03811661048457604080517f08c379a000000000000000000000000000000000000000000000000000000000815260206004820152600d60248201527f4552525f414444524553535f3000000000000000000000000000000000000000604482015290519081900360640190fd5b604080517f506de97400000000000000000000000000000000000000000000000000000000815233600482015230602482015264e8d4a5100060448201526000606482018190526084820181905291518392600160a060020a0384169263506de9749260a48083019360209383900390910190829087803b15801561050857600080fd5b505af115801561051c573d6000803e3d6000fd5b505050506040513d602081101561053257600080fd5b5050604080517f392e53cd0000000000000000000000000000000000000000000000000000000081529051600160a060020a0383169163392e53cd916004808301926020929190829003018186803b15801561058d57600080fd5b505afa1580156105a1573d6000803e3d6000fd5b505050506040513d60208110156105b757600080fd5b505161062457604080517f08c379a000000000000000000000000000000000000000000000000000000000815260206004820152601460248201527f4552525f494e495449414c495a455f53504f4f4c000000000000000000000000604482015290519081900360640190fd5b60008054604051600160a060020a0391821692918516917f75c84bc3fea03d287558c86073810ad6f2c1bd373d9982ac615203d1539aff1391a360408051600160a060020a03841681529051439133917f14e7567eaf089d4c31f0ebf88996f9e09fdb0dd445800675a7c81a5dfe8e37e59181900360200190a35090565b620f4240670de0b6b3a76400006103d8565b606082826040516020018083805190602001908083835b602083106106ea5780518252601f1990920191602091820191016106cb565b51815160209384036101000a600019018019909216911617905285519190930192850191508083835b602083106107325780518252601f199092019160209182019101610713565b6001836020036101000a03801982511681845116808217855250505050505090500192505050604051602081830303815290604052905092915050565b64e8d4a51000670de0b6b3a76400006103d8565b68056bc75e2d6310000081565b6704a03ce68d21555681565b600881565b600281565b600181565b600a670de0b6b3a76400006103d8565b671bc16d674ec7ffff81565b600081565b60608161080d575060408051808201909152600181527f300000000000000000000000000000000000000000000000000000000000000060208201526108e0565b8160005b811561082557600101600a82049150610811565b6060816040519080825280601f01601f191660200182016040528015610852576020820181803883390190505b50859350905060001982015b83156108da57600a84066030017f010000000000000000000000000000000000000000000000000000000000000002828280600190039350815181106108a057fe5b60200101907effffffffffffffffffffffffffffffffffffffffffffffffffffffffffffff1916908160001a905350600a8404935061085e565b50925050505b919050565b6002670de0b6b3a76400006103d8565b6040517f3d602d80600a3d3981f3363d3d373d3d3d363d7300000000000000000000000081526c010000000000000000000000008202601482018190527f5af43d82803e903d91602b57fd5bf30000000000000000000000000000000000602883015260009160378184f060408051600160a060020a038316815290519194507f117c72e6c25f0a072e36e148df71468ce2f3dbe7defec5b2c257a6e3eb65278c925081900360200190a15091905056fea165627a7a72305820d785ce7d97f7f4b6c43461a5c5ef66464dce95462e1b7630d8225237dc51a27f0029",
  "source": "pragma solidity ^0.5.7;\n// Copyright BigchainDB GmbH and Ocean Protocol contributors\n// SPDX-License-Identifier: (Apache-2.0 AND CC-BY-4.0)\n// Code is Apache-2.0 and docs are CC-BY-4.0\n\nimport './utils/Deployer.sol';\nimport './utils/Converter.sol';\nimport './balancer/SPool.sol';\nimport './balancer/BConst.sol';\n\n/*\n* @title SFactory contract\n* @author Ocean Protocol (with code from Balancer Labs)\n*\n* @dev Ocean implementation of Balancer SPool Factory\n*      SFactory deploys SPool proxy contracts.\n*      New SPool proxy contracts are links to the template contract's bytecode. \n*      Proxy contract functionality is based on Ocean Protocol custom\n*        implementation of ERC1167 standard.\n*/\n\ncontract SFactory is BConst, Deployer, Converter {\n\n    address private _spoolTemplate;\n\n    event SPoolCreated(\n        address indexed newSPoolAddress, \n        address indexed spoolTemplateAddress\n    );\n    \n    event SPoolRegistered(\n        address spoolAddress,\n        address indexed registeredBy,\n        uint256 indexed registeredAt\n    );\n    \n    /* @dev Called on contract deployment. Cannot be called with zero address.\n       @param _spoolTemplate -- address of a deployed SPool contract. */\n    constructor(address spoolTemplate) \n        public \n    {\n        require(spoolTemplate != address(0), 'ERR_ADDRESS_0');\n        _spoolTemplate = spoolTemplate;\n    }\n\n    /* @dev Deploys new SPool proxy contract.\n       Template contract address could not be a zero address. \n       @return address of a new proxy SPool contract */\n    function newSPool() \n        public\n        returns (address spool)\n    {\n        spool = deploy(_spoolTemplate);\n        require(spool != address(0), 'ERR_ADDRESS_0');\n        \n        // replace SPool with interface\n        SPool spoolInstance = SPool(spool);\n\n        spoolInstance.initialize(\n            msg.sender,\n            address(this), \n            MIN_FEE, \n            false,\n            false\n        );\n\t\n        require(spoolInstance.isInitialized(), 'ERR_INITIALIZE_SPOOL');\n        emit SPoolCreated(spool, _spoolTemplate);\n        emit SPoolRegistered(spool, msg.sender, block.number);\n    }\n\n\n    /* @dev get the spool template address\n       @return the template address */\n    function getSPool()\n        external\n        view\n        returns (address)\n    {\n        return _spoolTemplate;\n    }\n}\n",
  "sourcePath": "/Users/ahmedali/Desktop/work/Ocean/ocean-contracts/contracts/SFactory.sol",
  "compiler": {
    "name": "solc",
    "version": "0.5.7+commit.6da8b019.Emscripten.clang"
  },
  "schemaVersion": "3.2.0",
  "updatedAt": "2020-07-20T07:42:20.247Z",
  "devdoc": {
    "methods": {
      "concatenateStrings(string,string)": {
        "details": "concatenateStrings     concatenates two strings",
        "params": {
          "str1": "refers to first string",
          "str2": "refers to second string"
        },
        "return": "catenated string value"
      },
      "uintToString(uint256)": {
        "details": "uintToString     converts an integer value to a string value",
        "params": {
          "value": "refers to integer value"
        },
        "return": "converted string value"
      }
    }
  },
  "userdoc": {
    "methods": {}
  }
}