{
  "contractName": "SPool",
  "abi": [
    {
      "constant": true,
      "inputs": [],
      "name": "name",
      "outputs": [
        {
          "name": "",
          "type": "string"
        }
      ],
      "payable": false,
      "stateMutability": "view",
      "type": "function"
    },
    {
      "constant": false,
      "inputs": [
        {
          "name": "dst",
          "type": "address"
        },
        {
          "name": "amt",
          "type": "uint256"
        }
      ],
      "name": "approve",
      "outputs": [
        {
          "name": "",
          "type": "bool"
        }
      ],
      "payable": false,
      "stateMutability": "nonpayable",
      "type": "function"
    },
    {
      "constant": true,
      "inputs": [],
      "name": "MAX_TOTAL_WEIGHT",
      "outputs": [
        {
          "name": "",
          "type": "uint256"
        }
      ],
      "payable": false,
      "stateMutability": "view",
      "type": "function"
    },
    {
      "constant": true,
      "inputs": [],
      "name": "totalSupply",
      "outputs": [
        {
          "name": "",
          "type": "uint256"
        }
      ],
      "payable": false,
      "stateMutability": "view",
      "type": "function"
    },
    {
      "constant": true,
      "inputs": [],
      "name": "BPOW_PRECISION",
      "outputs": [
        {
          "name": "",
          "type": "uint256"
        }
      ],
      "payable": false,
      "stateMutability": "view",
      "type": "function"
    },
    {
      "constant": true,
      "inputs": [],
      "name": "MIN_WEIGHT",
      "outputs": [
        {
          "name": "",
          "type": "uint256"
        }
      ],
      "payable": false,
      "stateMutability": "view",
      "type": "function"
    },
    {
      "constant": false,
      "inputs": [
        {
          "name": "src",
          "type": "address"
        },
        {
          "name": "dst",
          "type": "address"
        },
        {
          "name": "amt",
          "type": "uint256"
        }
      ],
      "name": "transferFrom",
      "outputs": [
        {
          "name": "",
          "type": "bool"
        }
      ],
      "payable": false,
      "stateMutability": "nonpayable",
      "type": "function"
    },
    {
      "constant": true,
      "inputs": [],
      "name": "decimals",
      "outputs": [
        {
          "name": "",
          "type": "uint8"
        }
      ],
      "payable": false,
      "stateMutability": "view",
      "type": "function"
    },
    {
      "constant": true,
      "inputs": [
        {
          "name": "tokenBalanceIn",
          "type": "uint256"
        },
        {
          "name": "tokenWeightIn",
          "type": "uint256"
        },
        {
          "name": "poolSupply",
          "type": "uint256"
        },
        {
          "name": "totalWeight",
          "type": "uint256"
        },
        {
          "name": "poolAmountOut",
          "type": "uint256"
        },
        {
          "name": "swapFee",
          "type": "uint256"
        }
      ],
      "name": "calcSingleInGivenPoolOut",
      "outputs": [
        {
          "name": "tokenAmountIn",
          "type": "uint256"
        }
      ],
      "payable": false,
      "stateMutability": "pure",
      "type": "function"
    },
    {
      "constant": false,
      "inputs": [
        {
          "name": "dst",
          "type": "address"
        },
        {
          "name": "amt",
          "type": "uint256"
        }
      ],
      "name": "decreaseApproval",
      "outputs": [
        {
          "name": "",
          "type": "bool"
        }
      ],
      "payable": false,
      "stateMutability": "nonpayable",
      "type": "function"
    },
    {
      "constant": true,
      "inputs": [
        {
          "name": "whom",
          "type": "address"
        }
      ],
      "name": "balanceOf",
      "outputs": [
        {
          "name": "",
          "type": "uint256"
        }
      ],
      "payable": false,
      "stateMutability": "view",
      "type": "function"
    },
    {
      "constant": true,
      "inputs": [],
      "name": "MIN_FEE",
      "outputs": [
        {
          "name": "",
          "type": "uint256"
        }
      ],
      "payable": false,
      "stateMutability": "view",
      "type": "function"
    },
    {
      "constant": true,
      "inputs": [
        {
          "name": "tokenBalanceOut",
          "type": "uint256"
        },
        {
          "name": "tokenWeightOut",
          "type": "uint256"
        },
        {
          "name": "poolSupply",
          "type": "uint256"
        },
        {
          "name": "totalWeight",
          "type": "uint256"
        },
        {
          "name": "tokenAmountOut",
          "type": "uint256"
        },
        {
          "name": "swapFee",
          "type": "uint256"
        }
      ],
      "name": "calcPoolInGivenSingleOut",
      "outputs": [
        {
          "name": "poolAmountIn",
          "type": "uint256"
        }
      ],
      "payable": false,
      "stateMutability": "pure",
      "type": "function"
    },
    {
      "constant": true,
      "inputs": [
        {
          "name": "tokenBalanceIn",
          "type": "uint256"
        },
        {
          "name": "tokenWeightIn",
          "type": "uint256"
        },
        {
          "name": "poolSupply",
          "type": "uint256"
        },
        {
          "name": "totalWeight",
          "type": "uint256"
        },
        {
          "name": "tokenAmountIn",
          "type": "uint256"
        },
        {
          "name": "swapFee",
          "type": "uint256"
        }
      ],
      "name": "calcPoolOutGivenSingleIn",
      "outputs": [
        {
          "name": "poolAmountOut",
          "type": "uint256"
        }
      ],
      "payable": false,
      "stateMutability": "pure",
      "type": "function"
    },
    {
      "constant": true,
      "inputs": [],
      "name": "MIN_BALANCE",
      "outputs": [
        {
          "name": "",
          "type": "uint256"
        }
      ],
      "payable": false,
      "stateMutability": "view",
      "type": "function"
    },
    {
      "constant": true,
      "inputs": [
        {
          "name": "tokenBalanceOut",
          "type": "uint256"
        },
        {
          "name": "tokenWeightOut",
          "type": "uint256"
        },
        {
          "name": "poolSupply",
          "type": "uint256"
        },
        {
          "name": "totalWeight",
          "type": "uint256"
        },
        {
          "name": "poolAmountIn",
          "type": "uint256"
        },
        {
          "name": "swapFee",
          "type": "uint256"
        }
      ],
      "name": "calcSingleOutGivenPoolIn",
      "outputs": [
        {
          "name": "tokenAmountOut",
          "type": "uint256"
        }
      ],
      "payable": false,
      "stateMutability": "pure",
      "type": "function"
    },
    {
      "constant": true,
      "inputs": [],
      "name": "INIT_POOL_SUPPLY",
      "outputs": [
        {
          "name": "",
          "type": "uint256"
        }
      ],
      "payable": false,
      "stateMutability": "view",
      "type": "function"
    },
    {
      "constant": true,
      "inputs": [],
      "name": "symbol",
      "outputs": [
        {
          "name": "",
          "type": "string"
        }
      ],
      "payable": false,
      "stateMutability": "view",
      "type": "function"
    },
    {
      "constant": true,
      "inputs": [],
      "name": "MAX_OUT_RATIO",
      "outputs": [
        {
          "name": "",
          "type": "uint256"
        }
      ],
      "payable": false,
      "stateMutability": "view",
      "type": "function"
    },
    {
      "constant": true,
      "inputs": [
        {
          "name": "tokenBalanceIn",
          "type": "uint256"
        },
        {
          "name": "tokenWeightIn",
          "type": "uint256"
        },
        {
          "name": "tokenBalanceOut",
          "type": "uint256"
        },
        {
          "name": "tokenWeightOut",
          "type": "uint256"
        },
        {
          "name": "swapFee",
          "type": "uint256"
        }
      ],
      "name": "calcSpotPrice",
      "outputs": [
        {
          "name": "spotPrice",
          "type": "uint256"
        }
      ],
      "payable": false,
      "stateMutability": "pure",
      "type": "function"
    },
    {
      "constant": false,
      "inputs": [
        {
          "name": "dst",
          "type": "address"
        },
        {
          "name": "amt",
          "type": "uint256"
        }
      ],
      "name": "transfer",
      "outputs": [
        {
          "name": "",
          "type": "bool"
        }
      ],
      "payable": false,
      "stateMutability": "nonpayable",
      "type": "function"
    },
    {
      "constant": true,
      "inputs": [],
      "name": "MAX_BOUND_TOKENS",
      "outputs": [
        {
          "name": "",
          "type": "uint256"
        }
      ],
      "payable": false,
      "stateMutability": "view",
      "type": "function"
    },
    {
      "constant": true,
      "inputs": [],
      "name": "MIN_BOUND_TOKENS",
      "outputs": [
        {
          "name": "",
          "type": "uint256"
        }
      ],
      "payable": false,
      "stateMutability": "view",
      "type": "function"
    },
    {
      "constant": true,
      "inputs": [],
      "name": "MIN_BPOW_BASE",
      "outputs": [
        {
          "name": "",
          "type": "uint256"
        }
      ],
      "payable": false,
      "stateMutability": "view",
      "type": "function"
    },
    {
      "constant": true,
      "inputs": [
        {
          "name": "tokenBalanceIn",
          "type": "uint256"
        },
        {
          "name": "tokenWeightIn",
          "type": "uint256"
        },
        {
          "name": "tokenBalanceOut",
          "type": "uint256"
        },
        {
          "name": "tokenWeightOut",
          "type": "uint256"
        },
        {
          "name": "tokenAmountIn",
          "type": "uint256"
        },
        {
          "name": "swapFee",
          "type": "uint256"
        }
      ],
      "name": "calcOutGivenIn",
      "outputs": [
        {
          "name": "tokenAmountOut",
          "type": "uint256"
        }
      ],
      "payable": false,
      "stateMutability": "pure",
      "type": "function"
    },
    {
      "constant": true,
      "inputs": [],
      "name": "MAX_FEE",
      "outputs": [
        {
          "name": "",
          "type": "uint256"
        }
      ],
      "payable": false,
      "stateMutability": "view",
      "type": "function"
    },
    {
      "constant": true,
      "inputs": [],
      "name": "MAX_BPOW_BASE",
      "outputs": [
        {
          "name": "",
          "type": "uint256"
        }
      ],
      "payable": false,
      "stateMutability": "view",
      "type": "function"
    },
    {
      "constant": true,
      "inputs": [],
      "name": "BONE",
      "outputs": [
        {
          "name": "",
          "type": "uint256"
        }
      ],
      "payable": false,
      "stateMutability": "view",
      "type": "function"
    },
    {
      "constant": true,
      "inputs": [],
      "name": "EXIT_FEE",
      "outputs": [
        {
          "name": "",
          "type": "uint256"
        }
      ],
      "payable": false,
      "stateMutability": "view",
      "type": "function"
    },
    {
      "constant": false,
      "inputs": [
        {
          "name": "dst",
          "type": "address"
        },
        {
          "name": "amt",
          "type": "uint256"
        }
      ],
      "name": "increaseApproval",
      "outputs": [
        {
          "name": "",
          "type": "bool"
        }
      ],
      "payable": false,
      "stateMutability": "nonpayable",
      "type": "function"
    },
    {
      "constant": true,
      "inputs": [
        {
          "name": "src",
          "type": "address"
        },
        {
          "name": "dst",
          "type": "address"
        }
      ],
      "name": "allowance",
      "outputs": [
        {
          "name": "",
          "type": "uint256"
        }
      ],
      "payable": false,
      "stateMutability": "view",
      "type": "function"
    },
    {
      "constant": true,
      "inputs": [],
      "name": "MAX_WEIGHT",
      "outputs": [
        {
          "name": "",
          "type": "uint256"
        }
      ],
      "payable": false,
      "stateMutability": "view",
      "type": "function"
    },
    {
      "constant": true,
      "inputs": [],
      "name": "MAX_IN_RATIO",
      "outputs": [
        {
          "name": "",
          "type": "uint256"
        }
      ],
      "payable": false,
      "stateMutability": "view",
      "type": "function"
    },
    {
      "constant": true,
      "inputs": [
        {
          "name": "tokenBalanceIn",
          "type": "uint256"
        },
        {
          "name": "tokenWeightIn",
          "type": "uint256"
        },
        {
          "name": "tokenBalanceOut",
          "type": "uint256"
        },
        {
          "name": "tokenWeightOut",
          "type": "uint256"
        },
        {
          "name": "tokenAmountOut",
          "type": "uint256"
        },
        {
          "name": "swapFee",
          "type": "uint256"
        }
      ],
      "name": "calcInGivenOut",
      "outputs": [
        {
          "name": "tokenAmountIn",
          "type": "uint256"
        }
      ],
      "payable": false,
      "stateMutability": "pure",
      "type": "function"
    },
    {
      "inputs": [],
      "payable": false,
      "stateMutability": "nonpayable",
      "type": "constructor"
    },
    {
      "anonymous": false,
      "inputs": [
        {
          "indexed": true,
          "name": "caller",
          "type": "address"
        },
        {
          "indexed": true,
          "name": "tokenIn",
          "type": "address"
        },
        {
          "indexed": true,
          "name": "tokenOut",
          "type": "address"
        },
        {
          "indexed": false,
          "name": "tokenAmountIn",
          "type": "uint256"
        },
        {
          "indexed": false,
          "name": "tokenAmountOut",
          "type": "uint256"
        }
      ],
      "name": "LOG_SWAP",
      "type": "event"
    },
    {
      "anonymous": false,
      "inputs": [
        {
          "indexed": true,
          "name": "caller",
          "type": "address"
        },
        {
          "indexed": true,
          "name": "tokenIn",
          "type": "address"
        },
        {
          "indexed": false,
          "name": "tokenAmountIn",
          "type": "uint256"
        }
      ],
      "name": "LOG_JOIN",
      "type": "event"
    },
    {
      "anonymous": false,
      "inputs": [
        {
          "indexed": true,
          "name": "caller",
          "type": "address"
        },
        {
          "indexed": true,
          "name": "tokenOut",
          "type": "address"
        },
        {
          "indexed": false,
          "name": "tokenAmountOut",
          "type": "uint256"
        }
      ],
      "name": "LOG_EXIT",
      "type": "event"
    },
    {
      "anonymous": true,
      "inputs": [
        {
          "indexed": true,
          "name": "sig",
          "type": "bytes4"
        },
        {
          "indexed": true,
          "name": "caller",
          "type": "address"
        },
        {
          "indexed": false,
          "name": "data",
          "type": "bytes"
        }
      ],
      "name": "LOG_CALL",
      "type": "event"
    },
    {
      "anonymous": false,
      "inputs": [
        {
          "indexed": true,
          "name": "src",
          "type": "address"
        },
        {
          "indexed": true,
          "name": "dst",
          "type": "address"
        },
        {
          "indexed": false,
          "name": "amt",
          "type": "uint256"
        }
      ],
      "name": "Approval",
      "type": "event"
    },
    {
      "anonymous": false,
      "inputs": [
        {
          "indexed": true,
          "name": "src",
          "type": "address"
        },
        {
          "indexed": true,
          "name": "dst",
          "type": "address"
        },
        {
          "indexed": false,
          "name": "amt",
          "type": "uint256"
        }
      ],
      "name": "Transfer",
      "type": "event"
    },
    {
      "constant": true,
      "inputs": [],
      "name": "isInitialized",
      "outputs": [
        {
          "name": "",
          "type": "bool"
        }
      ],
      "payable": false,
      "stateMutability": "view",
      "type": "function"
    },
    {
      "constant": false,
      "inputs": [
        {
          "name": "controller",
          "type": "address"
        },
        {
          "name": "factory",
          "type": "address"
        },
        {
          "name": "swapFee",
          "type": "uint256"
        },
        {
          "name": "publicSwap",
          "type": "bool"
        },
        {
          "name": "finalized",
          "type": "bool"
        }
      ],
      "name": "initialize",
      "outputs": [
        {
          "name": "",
          "type": "bool"
        }
      ],
      "payable": false,
      "stateMutability": "nonpayable",
      "type": "function"
    },
    {
      "constant": true,
      "inputs": [],
      "name": "isPublicSwap",
      "outputs": [
        {
          "name": "",
          "type": "bool"
        }
      ],
      "payable": false,
      "stateMutability": "view",
      "type": "function"
    },
    {
      "constant": true,
      "inputs": [],
      "name": "isFinalized",
      "outputs": [
        {
          "name": "",
          "type": "bool"
        }
      ],
      "payable": false,
      "stateMutability": "view",
      "type": "function"
    },
    {
      "constant": true,
      "inputs": [
        {
          "name": "t",
          "type": "address"
        }
      ],
      "name": "isBound",
      "outputs": [
        {
          "name": "",
          "type": "bool"
        }
      ],
      "payable": false,
      "stateMutability": "view",
      "type": "function"
    },
    {
      "constant": true,
      "inputs": [],
      "name": "getNumTokens",
      "outputs": [
        {
          "name": "",
          "type": "uint256"
        }
      ],
      "payable": false,
      "stateMutability": "view",
      "type": "function"
    },
    {
      "constant": true,
      "inputs": [],
      "name": "getCurrentTokens",
      "outputs": [
        {
          "name": "tokens",
          "type": "address[]"
        }
      ],
      "payable": false,
      "stateMutability": "view",
      "type": "function"
    },
    {
      "constant": true,
      "inputs": [],
      "name": "getFinalTokens",
      "outputs": [
        {
          "name": "tokens",
          "type": "address[]"
        }
      ],
      "payable": false,
      "stateMutability": "view",
      "type": "function"
    },
    {
      "constant": true,
      "inputs": [
        {
          "name": "token",
          "type": "address"
        }
      ],
      "name": "getDenormalizedWeight",
      "outputs": [
        {
          "name": "",
          "type": "uint256"
        }
      ],
      "payable": false,
      "stateMutability": "view",
      "type": "function"
    },
    {
      "constant": true,
      "inputs": [],
      "name": "getTotalDenormalizedWeight",
      "outputs": [
        {
          "name": "",
          "type": "uint256"
        }
      ],
      "payable": false,
      "stateMutability": "view",
      "type": "function"
    },
    {
      "constant": true,
      "inputs": [
        {
          "name": "token",
          "type": "address"
        }
      ],
      "name": "getNormalizedWeight",
      "outputs": [
        {
          "name": "",
          "type": "uint256"
        }
      ],
      "payable": false,
      "stateMutability": "view",
      "type": "function"
    },
    {
      "constant": true,
      "inputs": [
        {
          "name": "token",
          "type": "address"
        }
      ],
      "name": "getBalance",
      "outputs": [
        {
          "name": "",
          "type": "uint256"
        }
      ],
      "payable": false,
      "stateMutability": "view",
      "type": "function"
    },
    {
      "constant": true,
      "inputs": [],
      "name": "getSwapFee",
      "outputs": [
        {
          "name": "",
          "type": "uint256"
        }
      ],
      "payable": false,
      "stateMutability": "view",
      "type": "function"
    },
    {
      "constant": true,
      "inputs": [],
      "name": "getController",
      "outputs": [
        {
          "name": "",
          "type": "address"
        }
      ],
      "payable": false,
      "stateMutability": "view",
      "type": "function"
    },
    {
      "constant": false,
      "inputs": [
        {
          "name": "swapFee",
          "type": "uint256"
        }
      ],
      "name": "setSwapFee",
      "outputs": [],
      "payable": false,
      "stateMutability": "nonpayable",
      "type": "function"
    },
    {
      "constant": false,
      "inputs": [
        {
          "name": "manager",
          "type": "address"
        }
      ],
      "name": "setController",
      "outputs": [],
      "payable": false,
      "stateMutability": "nonpayable",
      "type": "function"
    },
    {
      "constant": false,
      "inputs": [
        {
          "name": "public_",
          "type": "bool"
        }
      ],
      "name": "setPublicSwap",
      "outputs": [],
      "payable": false,
      "stateMutability": "nonpayable",
      "type": "function"
    },
    {
      "constant": false,
      "inputs": [],
      "name": "finalize",
      "outputs": [],
      "payable": false,
      "stateMutability": "nonpayable",
      "type": "function"
    },
    {
      "constant": false,
      "inputs": [
        {
          "name": "token",
          "type": "address"
        },
        {
          "name": "balance",
          "type": "uint256"
        },
        {
          "name": "denorm",
          "type": "uint256"
        }
      ],
      "name": "bind",
      "outputs": [],
      "payable": false,
      "stateMutability": "nonpayable",
      "type": "function"
    },
    {
      "constant": false,
      "inputs": [
        {
          "name": "token",
          "type": "address"
        },
        {
          "name": "balance",
          "type": "uint256"
        },
        {
          "name": "denorm",
          "type": "uint256"
        }
      ],
      "name": "rebind",
      "outputs": [],
      "payable": false,
      "stateMutability": "nonpayable",
      "type": "function"
    },
    {
      "constant": false,
      "inputs": [
        {
          "name": "token",
          "type": "address"
        }
      ],
      "name": "unbind",
      "outputs": [],
      "payable": false,
      "stateMutability": "nonpayable",
      "type": "function"
    },
    {
      "constant": false,
      "inputs": [
        {
          "name": "token",
          "type": "address"
        }
      ],
      "name": "gulp",
      "outputs": [],
      "payable": false,
      "stateMutability": "nonpayable",
      "type": "function"
    },
    {
      "constant": true,
      "inputs": [
        {
          "name": "tokenIn",
          "type": "address"
        },
        {
          "name": "tokenOut",
          "type": "address"
        }
      ],
      "name": "getSpotPrice",
      "outputs": [
        {
          "name": "spotPrice",
          "type": "uint256"
        }
      ],
      "payable": false,
      "stateMutability": "view",
      "type": "function"
    },
    {
      "constant": true,
      "inputs": [
        {
          "name": "tokenIn",
          "type": "address"
        },
        {
          "name": "tokenOut",
          "type": "address"
        }
      ],
      "name": "getSpotPriceSansFee",
      "outputs": [
        {
          "name": "spotPrice",
          "type": "uint256"
        }
      ],
      "payable": false,
      "stateMutability": "view",
      "type": "function"
    },
    {
      "constant": false,
      "inputs": [
        {
          "name": "poolAmountOut",
          "type": "uint256"
        },
        {
          "name": "maxAmountsIn",
          "type": "uint256[]"
        }
      ],
      "name": "joinPool",
      "outputs": [],
      "payable": false,
      "stateMutability": "nonpayable",
      "type": "function"
    },
    {
      "constant": false,
      "inputs": [
        {
          "name": "poolAmountIn",
          "type": "uint256"
        },
        {
          "name": "minAmountsOut",
          "type": "uint256[]"
        }
      ],
      "name": "exitPool",
      "outputs": [],
      "payable": false,
      "stateMutability": "nonpayable",
      "type": "function"
    },
    {
      "constant": false,
      "inputs": [
        {
          "name": "tokenIn",
          "type": "address"
        },
        {
          "name": "tokenAmountIn",
          "type": "uint256"
        },
        {
          "name": "tokenOut",
          "type": "address"
        },
        {
          "name": "minAmountOut",
          "type": "uint256"
        },
        {
          "name": "maxPrice",
          "type": "uint256"
        }
      ],
      "name": "swapExactAmountIn",
      "outputs": [
        {
          "name": "tokenAmountOut",
          "type": "uint256"
        },
        {
          "name": "spotPriceAfter",
          "type": "uint256"
        }
      ],
      "payable": false,
      "stateMutability": "nonpayable",
      "type": "function"
    },
    {
      "constant": false,
      "inputs": [
        {
          "name": "tokenIn",
          "type": "address"
        },
        {
          "name": "maxAmountIn",
          "type": "uint256"
        },
        {
          "name": "tokenOut",
          "type": "address"
        },
        {
          "name": "tokenAmountOut",
          "type": "uint256"
        },
        {
          "name": "maxPrice",
          "type": "uint256"
        }
      ],
      "name": "swapExactAmountOut",
      "outputs": [
        {
          "name": "tokenAmountIn",
          "type": "uint256"
        },
        {
          "name": "spotPriceAfter",
          "type": "uint256"
        }
      ],
      "payable": false,
      "stateMutability": "nonpayable",
      "type": "function"
    },
    {
      "constant": false,
      "inputs": [
        {
          "name": "tokenIn",
          "type": "address"
        },
        {
          "name": "tokenAmountIn",
          "type": "uint256"
        },
        {
          "name": "minPoolAmountOut",
          "type": "uint256"
        }
      ],
      "name": "joinswapExternAmountIn",
      "outputs": [
        {
          "name": "poolAmountOut",
          "type": "uint256"
        }
      ],
      "payable": false,
      "stateMutability": "nonpayable",
      "type": "function"
    },
    {
      "constant": false,
      "inputs": [
        {
          "name": "tokenIn",
          "type": "address"
        },
        {
          "name": "poolAmountOut",
          "type": "uint256"
        },
        {
          "name": "maxAmountIn",
          "type": "uint256"
        }
      ],
      "name": "joinswapPoolAmountOut",
      "outputs": [
        {
          "name": "tokenAmountIn",
          "type": "uint256"
        }
      ],
      "payable": false,
      "stateMutability": "nonpayable",
      "type": "function"
    },
    {
      "constant": false,
      "inputs": [
        {
          "name": "tokenOut",
          "type": "address"
        },
        {
          "name": "poolAmountIn",
          "type": "uint256"
        },
        {
          "name": "minAmountOut",
          "type": "uint256"
        }
      ],
      "name": "exitswapPoolAmountIn",
      "outputs": [
        {
          "name": "tokenAmountOut",
          "type": "uint256"
        }
      ],
      "payable": false,
      "stateMutability": "nonpayable",
      "type": "function"
    },
    {
      "constant": false,
      "inputs": [
        {
          "name": "tokenOut",
          "type": "address"
        },
        {
          "name": "tokenAmountOut",
          "type": "uint256"
        },
        {
          "name": "maxPoolAmountIn",
          "type": "uint256"
        }
      ],
      "name": "exitswapExternAmountOut",
      "outputs": [
        {
          "name": "poolAmountIn",
          "type": "uint256"
        }
      ],
      "payable": false,
      "stateMutability": "nonpayable",
      "type": "function"
    }
  ],
  "bytecode": "0x60c0604052601360808190527f42616c616e63657220506f6f6c20546f6b656e0000000000000000000000000060a090815262000040916003919062000169565b506040805180820190915260038082527f42505400000000000000000000000000000000000000000000000000000000006020909201918252620000879160049162000169565b506005805460ff19908116601217909155600c80549091169055348015620000ae57600080fd5b50620000cd338064e8d4a51000600080640100000000620000d4810204565b506200020e565b6006805460058054600160a060020a0397881662010000026201000060b060020a0319909116179055600794909455911515740100000000000000000000000000000000000000000260a060020a60ff021995909416600160a060020a03199093169290921793909316919091179091556008805491151560ff19928316179055600c80549091166001179081905560ff1690565b828054600181600116156101000203166002900490600052602060002090601f016020900481019282601f10620001ac57805160ff1916838001178555620001dc565b82800160010185558215620001dc579182015b82811115620001dc578251825591602001919060010190620001bf565b50620001ea929150620001ee565b5090565b6200020b91905b80821115620001ea5760008155600101620001f5565b90565b615ab9806200021e6000396000f3fe608060405234801561001057600080fd5b5060043610610403576000357c0100000000000000000000000000000000000000000000000000000000900480638c28cbe811610227578063bc694ea211610142578063d73dd623116100d5578063ec093021116100a4578063ec09302114610cdc578063f1b8a9b714610ce4578063f8b2cb4f14610d0a578063f8d6aed414610d30578063fde924f714610d6b57610403565b8063d73dd62314610c50578063dd62ed3e14610c7c578063e4a28a5214610509578063e4e1e53814610caa57610403565b8063cc77828d11610111578063cc77828d14610c12578063cd2ed8fb14610c1a578063cf5e7bd314610c22578063d4cadf6814610c4857610403565b8063bc694ea214610baa578063be3bbd2e14610bb2578063c36596a61461057d578063c6580d1214610c0a57610403565b8063a221ee49116101ba578063b7b800a411610189578063b7b800a414610b57578063ba019dab14610b5f578063ba9530a614610b67578063bc063e1a14610ba257610403565b8063a221ee4914610a77578063a9059cbb14610aac578063b02f0b7314610ad8578063b0e0d13614610b4f57610403565b80639381cd2b116101f65780639381cd2b14610a39578063948d8ce614610a4157806395d89b4114610a67578063992e2a9214610a6f57610403565b80638c28cbe8146109dd5780638d4e408314610a0357806392eefe9b14610a0b578063936c347714610a3157610403565b806346ab38f1116103225780636d06dfa0116102b55780638201aa3f116102845780638201aa3f146108e457806382f652ad146109245780638656b6531461095f578063867378c51461099a57806389298012146109a257610403565b80636d06dfa01461082b57806370a082311461085d57806376c7a3c7146108835780637c5e9ea41461088b57610403565b8063506de974116102f1578063506de9741461074c5780635c1bbaf7146107925780635db34277146107cd57806366188463146107ff57610403565b806346ab38f11461067c57806349b59552146106ae5780634bb278f3146106cd5780634f69c0d4146106d557610403565b8063218b53821161039a578063313ce56711610369578063313ce5671461060557806334e1990714610623578063392e53cd146106425780633fdddaa21461064a57610403565b8063218b53821461057d57806323b872dd146105855780632f37b624146105bb5780633018205f146105e157610403565b80631446a7ff116103d65780631446a7ff1461051157806315e84af91461053f57806318160ddd1461056d578063189d00ca1461057557610403565b806302c967481461040857806306fdde031461044c578063095ea7b3146104c957806309a3bbe414610509575b600080fd5b61043a6004803603606081101561041e57600080fd5b50600160a060020a038135169060208101359060400135610d73565b60408051918252519081900360200190f35b6104546110e4565b6040805160208082528351818301528351919283929083019185019080838360005b8381101561048e578181015183820152602001610476565b50505050905090810190601f1680156104bb5780820380516001836020036101000a031916815260200191505b509250505060405180910390f35b6104f5600480360360408110156104df57600080fd5b50600160a060020a03813516906020013561117a565b604080519115158252519081900360200190f35b61043a6111cf565b61043a6004803603604081101561052757600080fd5b50600160a060020a03813581169160200135166111dc565b61043a6004803603604081101561055557600080fd5b50600160a060020a0381358116916020013516611336565b61043a611487565b61043a61148d565b61043a6114a1565b6104f56004803603606081101561059b57600080fd5b50600160a060020a038135811691602081013590911690604001356114ad565b6104f5600480360360208110156105d157600080fd5b5035600160a060020a0316611612565b6105e9611630565b60408051600160a060020a039092168252519081900360200190f35b61060d611691565b6040805160ff9092168252519081900360200190f35b6106406004803603602081101561063957600080fd5b503561169a565b005b6104f56118be565b6106406004803603606081101561066057600080fd5b50600160a060020a0381351690602081013590604001356118c7565b61043a6004803603606081101561069257600080fd5b50600160a060020a038135169060208101359060400135611d13565b610640600480360360208110156106c457600080fd5b50351515612023565b6106406121b4565b610640600480360360408110156106eb57600080fd5b8135919081019060408101602082013564010000000081111561070d57600080fd5b82018360208201111561071f57600080fd5b8035906020019184602083028401116401000000008311171561074157600080fd5b5090925090506123cb565b6104f5600480360360a081101561076257600080fd5b50600160a060020a03813581169160208101359091169060408101359060608101351515906080013515156126c4565b61043a600480360360c08110156107a857600080fd5b5080359060208101359060408101359060608101359060808101359060a00135612739565b61043a600480360360608110156107e357600080fd5b50600160a060020a0381351690602081013590604001356127f1565b6104f56004803603604081101561081557600080fd5b50600160a060020a038135169060200135612ae6565b61043a6004803603606081101561084157600080fd5b50600160a060020a038135169060208101359060400135612bbe565b61043a6004803603602081101561087357600080fd5b5035600160a060020a0316612ee1565b61043a612efc565b6108cb600480360360a08110156108a157600080fd5b50600160a060020a0381358116916020810135916040820135169060608101359060800135612f0e565b6040805192835260208301919091528051918290030190f35b6108cb600480360360a08110156108fa57600080fd5b50600160a060020a0381358116916020810135916040820135169060608101359060800135613410565b61043a600480360360c081101561093a57600080fd5b5080359060208101359060408101359060608101359060808101359060a001356138f9565b61043a600480360360c081101561097557600080fd5b5080359060208101359060408101359060608101359060808101359060a001356139b8565b61043a613a59565b61043a600480360360c08110156109b857600080fd5b5080359060208101359060408101359060608101359060808101359060a00135613a6d565b610640600480360360208110156109f357600080fd5b5035600160a060020a0316613b1d565b6104f5613cee565b61064060048036036020811015610a2157600080fd5b5035600160a060020a0316613cf7565b61043a613e41565b61043a613e99565b61043a60048036036020811015610a5757600080fd5b5035600160a060020a0316613ea6565b610454613f74565b61043a613fd5565b61043a600480360360a0811015610a8d57600080fd5b5080359060208101359060408101359060608101359060800135613fe1565b6104f560048036036040811015610ac257600080fd5b50600160a060020a038135169060200135614046565b61064060048036036040811015610aee57600080fd5b81359190810190604081016020820135640100000000811115610b1057600080fd5b820183602082011115610b2257600080fd5b80359060200191846020830284011164010000000083111715610b4457600080fd5b50909250905061405c565b61043a6143a2565b61043a6143a7565b61043a6143ac565b61043a600480360360c0811015610b7d57600080fd5b5080359060208101359060408101359060608101359060808101359060a001356143b1565b61043a614432565b61043a614442565b610bba61444e565b60408051602080825283518183015283519192839290830191858101910280838360005b83811015610bf6578181015183820152602001610bde565b505050509050019250505060405180910390f35b61043a614546565b610bba61454b565b61043a61459c565b61064060048036036020811015610c3857600080fd5b5035600160a060020a03166145a2565b61043a61492f565b6104f560048036036040811015610c6657600080fd5b50600160a060020a038135169060200135614987565b61043a60048036036040811015610c9257600080fd5b50600160a060020a0381358116916020013516614a08565b61064060048036036060811015610cc057600080fd5b50600160a060020a038135169060208101359060400135614a33565b61043a614cb7565b61043a60048036036020811015610cfa57600080fd5b5035600160a060020a0316614cc7565b61043a60048036036020811015610d2057600080fd5b5035600160a060020a0316614da7565b61043a600480360360c0811015610d4657600080fd5b5080359060208101359060408101359060608101359060808101359060a00135614e75565b6104f5614ef8565b600033600160a060020a0316600035600160e060020a031916600160e060020a03191660003660405180806020018281038252848482818152602001925080828437600083820152604051601f909101601f19169092018290039550909350505050a2600554610100900460ff1615610e24576040805160e560020a62461bcd02815260206004820152600b602482015260008051602061598e833981519152604482015290519081900360640190fd5b6005805461ff00191661010017905560085460ff16610e7b576040805160e560020a62461bcd028152602060048201526011602482015260008051602061596e833981519152604482015290519081900360640190fd5b600160a060020a0384166000908152600a602052604090205460ff16610ed9576040805160e560020a62461bcd02815260206004820152600d60248201526000805160206159ee833981519152604482015290519081900360640190fd5b600160a060020a0384166000908152600a60205260409020600390810154610f0e91670de0b6b3a76400005b04600101614f08565b831115610f65576040805160e560020a62461bcd02815260206004820152601160248201527f4552525f4d41585f4f55545f524154494f000000000000000000000000000000604482015290519081900360640190fd5b600160a060020a0384166000908152600a6020526040902060038101546002808301549054600b54600754610f9f949392919089906138f9565b915081610fe4576040805160e560020a62461bcd02815260206004820152600f6024820152600080516020615a6e833981519152604482015290519081900360640190fd5b8282111561102a576040805160e560020a62461bcd02815260206004820152600c60248201526000805160206159ae833981519152604482015290519081900360640190fd5b611038816003015485614ff1565b600382015560006110498382614f08565b604080518781529051919250600160a060020a0388169133917fe74c91552b64c2e2e7bd255639e004e693bd3e1d01cc33e65610b86afcc1ffed919081900360200190a36110973384615062565b6110a96110a48483614ff1565b615070565b6005546110c590620100009004600160a060020a03168261507c565b6110d0863387615086565b50506005805461ff00191690559392505050565b60038054604080516020601f60026000196101006001881615020190951694909404938401819004810282018101909252828152606093909290918301828280156111705780601f1061114557610100808354040283529160200191611170565b820191906000526020600020905b81548152906001019060200180831161115357829003601f168201915b5050505050905090565b336000818152600160209081526040808320600160a060020a03871680855290835281842086905581518681529151939490939092600080516020615a0e833981519152928290030190a35060015b92915050565b6802b5e3af16b188000081565b600554600090610100900460ff161561122d576040805160e560020a62461bcd02815260206004820152600b602482015260008051602061598e833981519152604482015290519081900360640190fd5b600160a060020a0383166000908152600a602052604090205460ff1661128b576040805160e560020a62461bcd02815260206004820152600d60248201526000805160206159ee833981519152604482015290519081900360640190fd5b600160a060020a0382166000908152600a602052604090205460ff166112e9576040805160e560020a62461bcd02815260206004820152600d60248201526000805160206159ee833981519152604482015290519081900360640190fd5b600160a060020a038084166000908152600a6020526040808220928516825281206003808401546002808601549284015490840154939461132d9492939290613fe1565b95945050505050565b600554600090610100900460ff1615611387576040805160e560020a62461bcd02815260206004820152600b602482015260008051602061598e833981519152604482015290519081900360640190fd5b600160a060020a0383166000908152600a602052604090205460ff166113e5576040805160e560020a62461bcd02815260206004820152600d60248201526000805160206159ee833981519152604482015290519081900360640190fd5b600160a060020a0382166000908152600a602052604090205460ff16611443576040805160e560020a62461bcd02815260206004820152600d60248201526000805160206159ee833981519152604482015290519081900360640190fd5b600160a060020a038084166000908152600a602052604080822092851682529020600380830154600280850154928401549084015460075461132d94929190613fe1565b60025490565b6402540be400670de0b6b3a76400005b0481565b670de0b6b3a764000081565b600033600160a060020a03851614806114e95750600160a060020a03841660009081526001602090815260408083203384529091529020548211155b61153d576040805160e560020a62461bcd02815260206004820152601560248201527f4552525f42544f4b454e5f4241445f43414c4c45520000000000000000000000604482015290519081900360640190fd5b61154884848461517b565b33600160a060020a038516148015906115865750600160a060020a038416600090815260016020908152604080832033845290915290205460001914155b1561160857600160a060020a03841660009081526001602090815260408083203384529091529020546115b99083614ff1565b600160a060020a0385811660009081526001602090815260408083203380855290835292819020859055805194855251928716939192600080516020615a0e8339815191529281900390910190a35b5060019392505050565b600160a060020a03166000908152600a602052604090205460ff1690565b600554600090610100900460ff1615611681576040805160e560020a62461bcd02815260206004820152600b602482015260008051602061598e833981519152604482015290519081900360640190fd5b50600654600160a060020a031690565b60055460ff1690565b33600160a060020a0316600035600160e060020a031916600160e060020a03191660003660405180806020018281038252848482818152602001925080828437600083820152604051601f909101601f19169092018290039550909350505050a2600554610100900460ff1615611749576040805160e560020a62461bcd02815260206004820152600b602482015260008051602061598e833981519152604482015290519081900360640190fd5b6005805461ff00191661010017905560085460ff16156117a1576040805160e560020a62461bcd0281526020600482015260106024820152600080516020615a2e833981519152604482015290519081900360640190fd5b600654600160a060020a031633146117f1576040805160e560020a62461bcd02815260206004820152601260248201526000805160206159ce833981519152604482015290519081900360640190fd5b64e8d4a5100081101561184e576040805160e560020a62461bcd02815260206004820152600b60248201527f4552525f4d494e5f464545000000000000000000000000000000000000000000604482015290519081900360640190fd5b67016345785d8a00008111156118ae576040805160e560020a62461bcd02815260206004820152600b60248201527f4552525f4d41585f464545000000000000000000000000000000000000000000604482015290519081900360640190fd5b6007556005805461ff0019169055565b600c5460ff1690565b33600160a060020a0316600035600160e060020a031916600160e060020a03191660003660405180806020018281038252848482818152602001925080828437600083820152604051601f909101601f19169092018290039550909350505050a2600554610100900460ff1615611976576040805160e560020a62461bcd02815260206004820152600b602482015260008051602061598e833981519152604482015290519081900360640190fd5b6005805461ff00191661010017905560065433600160a060020a03909116146119d7576040805160e560020a62461bcd02815260206004820152601260248201526000805160206159ce833981519152604482015290519081900360640190fd5b600160a060020a0383166000908152600a602052604090205460ff16611a35576040805160e560020a62461bcd02815260206004820152600d60248201526000805160206159ee833981519152604482015290519081900360640190fd5b60085460ff1615611a7e576040805160e560020a62461bcd0281526020600482015260106024820152600080516020615a2e833981519152604482015290519081900360640190fd5b670de0b6b3a7640000811015611ade576040805160e560020a62461bcd02815260206004820152600e60248201527f4552525f4d494e5f574549474854000000000000000000000000000000000000604482015290519081900360640190fd5b6802b5e3af16b1880000811115611b3f576040805160e560020a62461bcd02815260206004820152600e60248201527f4552525f4d41585f574549474854000000000000000000000000000000000000604482015290519081900360640190fd5b620f4240821015611b9a576040805160e560020a62461bcd02815260206004820152600f60248201527f4552525f4d494e5f42414c414e43450000000000000000000000000000000000604482015290519081900360640190fd5b600160a060020a0383166000908152600a602052604090206002015480821115611c3d57611bd3600b54611bce8484614ff1565b615297565b600b8190556802b5e3af16b18800001015611c38576040805160e560020a62461bcd02815260206004820152601460248201527f4552525f4d41585f544f54414c5f574549474854000000000000000000000000604482015290519081900360640190fd5b611c5e565b80821015611c5e57611c5a600b54611c558385614ff1565b614ff1565b600b555b600160a060020a0384166000908152600a602052604090206002810183905560030180549084905580841115611ca757611ca28533611c9d8785614ff1565b6152f4565b611d01565b80841015611d01576000611cbb8286614ff1565b90506000611cca826000614f08565b9050611ce08733611cdb8585614ff1565b615086565b600554611cfe908890620100009004600160a060020a031683615086565b50505b50506005805461ff0019169055505050565b600033600160a060020a0316600035600160e060020a031916600160e060020a03191660003660405180806020018281038252848482818152602001925080828437600083820152604051601f909101601f19169092018290039550909350505050a2600554610100900460ff1615611dc4576040805160e560020a62461bcd02815260206004820152600b602482015260008051602061598e833981519152604482015290519081900360640190fd5b6005805461ff00191661010017905560085460ff16611e1b576040805160e560020a62461bcd028152602060048201526011602482015260008051602061596e833981519152604482015290519081900360640190fd5b600160a060020a0384166000908152600a602052604090205460ff16611e79576040805160e560020a62461bcd02815260206004820152600d60248201526000805160206159ee833981519152604482015290519081900360640190fd5b600160a060020a0384166000908152600a6020526040902060038101546002808301549054600b54600754611eb394939291908990613a6d565b915082821015611efb576040805160e560020a62461bcd02815260206004820152600d6024820152600080516020615a4e833981519152604482015290519081900360640190fd5b600160a060020a0385166000908152600a60205260409020600390810154611f2b91670de0b6b3a7640000610f05565b821115611f82576040805160e560020a62461bcd02815260206004820152601160248201527f4552525f4d41585f4f55545f524154494f000000000000000000000000000000604482015290519081900360640190fd5b611f90816003015483614ff1565b60038201556000611fa18582614f08565b604080518581529051919250600160a060020a0388169133917fe74c91552b64c2e2e7bd255639e004e693bd3e1d01cc33e65610b86afcc1ffed919081900360200190a3611fef3386615062565b611ffc6110a48683614ff1565b60055461201890620100009004600160a060020a03168261507c565b6110d0863385615086565b33600160a060020a0316600035600160e060020a031916600160e060020a03191660003660405180806020018281038252848482818152602001925080828437600083820152604051601f909101601f19169092018290039550909350505050a2600554610100900460ff16156120d2576040805160e560020a62461bcd02815260206004820152600b602482015260008051602061598e833981519152604482015290519081900360640190fd5b6005805461ff00191661010017905560085460ff161561212a576040805160e560020a62461bcd0281526020600482015260106024820152600080516020615a2e833981519152604482015290519081900360640190fd5b600654600160a060020a0316331461217a576040805160e560020a62461bcd02815260206004820152601260248201526000805160206159ce833981519152604482015290519081900360640190fd5b6006805491151560a060020a0274ff0000000000000000000000000000000000000000199092169190911790556005805461ff0019169055565b33600160a060020a0316600035600160e060020a031916600160e060020a03191660003660405180806020018281038252848482818152602001925080828437600083820152604051601f909101601f19169092018290039550909350505050a2600554610100900460ff1615612263576040805160e560020a62461bcd02815260206004820152600b602482015260008051602061598e833981519152604482015290519081900360640190fd5b6005805461ff00191661010017905560065433600160a060020a03909116146122c4576040805160e560020a62461bcd02815260206004820152601260248201526000805160206159ce833981519152604482015290519081900360640190fd5b60085460ff161561230d576040805160e560020a62461bcd0281526020600482015260106024820152600080516020615a2e833981519152604482015290519081900360640190fd5b60095460021115612368576040805160e560020a62461bcd02815260206004820152600e60248201527f4552525f4d494e5f544f4b454e53000000000000000000000000000000000000604482015290519081900360640190fd5b6008805460ff191660011790556006805474ff0000000000000000000000000000000000000000191660a060020a1790556123ab68056bc75e2d63100000615366565b6123be3368056bc75e2d6310000061507c565b6005805461ff0019169055565b33600160a060020a0316600035600160e060020a031916600160e060020a03191660003660405180806020018281038252848482818152602001925080828437600083820152604051601f909101601f19169092018290039550909350505050a2600554610100900460ff161561247a576040805160e560020a62461bcd02815260206004820152600b602482015260008051602061598e833981519152604482015290519081900360640190fd5b6005805461ff00191661010017905560085460ff166124d1576040805160e560020a62461bcd028152602060048201526011602482015260008051602061596e833981519152604482015290519081900360640190fd5b60006124db611487565b905060006124e9858361536f565b90508061252e576040805160e560020a62461bcd02815260206004820152600f6024820152600080516020615a6e833981519152604482015290519081900360640190fd5b60005b6009548110156126b05760006009828154811061254a57fe5b6000918252602080832090910154600160a060020a0316808352600a90915260408220600301549092509061257f8583614f08565b9050806125c4576040805160e560020a62461bcd02815260206004820152600f6024820152600080516020615a6e833981519152604482015290519081900360640190fd5b8787858181106125d057fe5b9050602002013581111561261c576040805160e560020a62461bcd02815260206004820152600c60248201526000805160206159ae833981519152604482015290519081900360640190fd5b600160a060020a0383166000908152600a60205260409020600301546126429082615297565b600160a060020a0384166000818152600a60209081526040918290206003019390935580518481529051919233927f63982df10efd8dfaaaa0fcc7f50b2d93b7cba26ccc48adee2873220d485dc39a9281900390910190a36126a58333836152f4565b505050600101612531565b506126ba85615366565b611d01338661507c565b600c5460009060ff1615612722576040805160e560020a62461bcd02815260206004820152601760248201527f4552525f414c52454144595f494e495449414c495a4544000000000000000000604482015290519081900360640190fd5b61272f86868686866154ab565b9695505050505050565b600080612746878661536f565b905060006127548786615297565b90506000612762828961536f565b90506000612778670de0b6b3a76400008561536f565b905060006127868383615557565b90506000612794828e614f08565b905060006127a2828f614ff1565b905060006127c16127bb670de0b6b3a76400008a614ff1565b8b614f08565b90506127de826127d9670de0b6b3a764000084614ff1565b61536f565b9f9e505050505050505050505050505050565b600033600160a060020a0316600035600160e060020a031916600160e060020a03191660003660405180806020018281038252848482818152602001925080828437600083820152604051601f909101601f19169092018290039550909350505050a2600554610100900460ff16156128a2576040805160e560020a62461bcd02815260206004820152600b602482015260008051602061598e833981519152604482015290519081900360640190fd5b6005805461ff00191661010017905560085460ff166128f9576040805160e560020a62461bcd028152602060048201526011602482015260008051602061596e833981519152604482015290519081900360640190fd5b600160a060020a0384166000908152600a602052604090205460ff16612957576040805160e560020a62461bcd02815260206004820152600d60248201526000805160206159ee833981519152604482015290519081900360640190fd5b600160a060020a0384166000908152600a6020526040902060030154612989906002670de0b6b3a76400005b04614f08565b8311156129e0576040805160e560020a62461bcd02815260206004820152601060248201527f4552525f4d41585f494e5f524154494f00000000000000000000000000000000604482015290519081900360640190fd5b600160a060020a0384166000908152600a6020526040902060038101546002808301549054600b54600754612a1a949392919089906139b8565b915082821015612a62576040805160e560020a62461bcd02815260206004820152600d6024820152600080516020615a4e833981519152604482015290519081900360640190fd5b612a70816003015485615297565b6003820155604080518581529051600160a060020a0387169133917f63982df10efd8dfaaaa0fcc7f50b2d93b7cba26ccc48adee2873220d485dc39a9181900360200190a3612abe82615366565b612ac8338361507c565b612ad38533866152f4565b506005805461ff00191690559392505050565b336000908152600160209081526040808320600160a060020a038616845290915281205480831115612b3b57336000908152600160209081526040808320600160a060020a0388168452909152812055612b6a565b612b458184614ff1565b336000908152600160209081526040808320600160a060020a03891684529091529020555b336000818152600160209081526040808320600160a060020a038916808552908352928190205481519081529051929392600080516020615a0e833981519152929181900390910190a35060019392505050565b600033600160a060020a0316600035600160e060020a031916600160e060020a03191660003660405180806020018281038252848482818152602001925080828437600083820152604051601f909101601f19169092018290039550909350505050a2600554610100900460ff1615612c6f576040805160e560020a62461bcd02815260206004820152600b602482015260008051602061598e833981519152604482015290519081900360640190fd5b6005805461ff00191661010017905560085460ff16612cc6576040805160e560020a62461bcd028152602060048201526011602482015260008051602061596e833981519152604482015290519081900360640190fd5b600160a060020a0384166000908152600a602052604090205460ff16612d24576040805160e560020a62461bcd02815260206004820152600d60248201526000805160206159ee833981519152604482015290519081900360640190fd5b600160a060020a0384166000908152600a6020526040902060038101546002808301549054600b54600754612d5e94939291908990612739565b915081612da3576040805160e560020a62461bcd02815260206004820152600f6024820152600080516020615a6e833981519152604482015290519081900360640190fd5b82821115612de9576040805160e560020a62461bcd02815260206004820152600c60248201526000805160206159ae833981519152604482015290519081900360640190fd5b600160a060020a0385166000908152600a6020526040902060030154612e19906002670de0b6b3a7640000612983565b821115612e70576040805160e560020a62461bcd02815260206004820152601060248201527f4552525f4d41585f494e5f524154494f00000000000000000000000000000000604482015290519081900360640190fd5b612e7e816003015483615297565b6003820155604080518381529051600160a060020a0387169133917f63982df10efd8dfaaaa0fcc7f50b2d93b7cba26ccc48adee2873220d485dc39a9181900360200190a3612ecc84615366565b612ed6338561507c565b612ad38533846152f4565b600160a060020a031660009081526020819052604090205490565b620f4240670de0b6b3a764000061149d565b6040805160208082523690820181905260009283923392600160e060020a03198535169285929081908101848480828437600083820152604051601f909101601f19169092018290039550909350505050a2600554610100900460ff1615612fae576040805160e560020a62461bcd02815260206004820152600b602482015260008051602061598e833981519152604482015290519081900360640190fd5b6005805461ff001916610100179055600160a060020a0387166000908152600a602052604090205460ff1661301b576040805160e560020a62461bcd02815260206004820152600d60248201526000805160206159ee833981519152604482015290519081900360640190fd5b600160a060020a0385166000908152600a602052604090205460ff16613079576040805160e560020a62461bcd02815260206004820152600d60248201526000805160206159ee833981519152604482015290519081900360640190fd5b60065460a060020a900460ff166130da576040805160e560020a62461bcd02815260206004820152601360248201527f4552525f535741505f4e4f545f5055424c494300000000000000000000000000604482015290519081900360640190fd5b600160a060020a038088166000908152600a60205260408082209288168252902060038082015461311391670de0b6b3a7640000610f05565b86111561316a576040805160e560020a62461bcd02815260206004820152601160248201527f4552525f4d41585f4f55545f524154494f000000000000000000000000000000604482015290519081900360640190fd5b600061318b8360030154846002015484600301548560020154600754613fe1565b9050858111156131e5576040805160e560020a62461bcd02815260206004820152601360248201527f4552525f4241445f4c494d49545f505249434500000000000000000000000000604482015290519081900360640190fd5b61320583600301548460020154846003015485600201548b600754614e75565b94508885111561324d576040805160e560020a62461bcd02815260206004820152600c60248201526000805160206159ae833981519152604482015290519081900360640190fd5b61325b836003015486615297565b8360030181905550613271826003015488614ff1565b600380840182905584015460028086015490850154600754613294949190613fe1565b9350808410156132dc576040805160e560020a62461bcd02815260206004820152600f6024820152600080516020615a6e833981519152604482015290519081900360640190fd5b85841115613334576040805160e560020a62461bcd02815260206004820152600f60248201527f4552525f4c494d49545f50524943450000000000000000000000000000000000604482015290519081900360640190fd5b61333e858861536f565b811115613383576040805160e560020a62461bcd02815260206004820152600f6024820152600080516020615a6e833981519152604482015290519081900360640190fd5b87600160a060020a03168a600160a060020a031633600160a060020a03167f908fb5ee8f16c6bc9bc3690973819f32a4d4b10188134543c88706e0e1d43378888b604051808381526020018281526020019250505060405180910390a46133eb8a33876152f4565b6133f6883389615086565b5050506005805461ff001916905590969095509350505050565b6040805160208082523690820181905260009283923392600160e060020a03198535169285929081908101848480828437600083820152604051601f909101601f19169092018290039550909350505050a2600554610100900460ff16156134b0576040805160e560020a62461bcd02815260206004820152600b602482015260008051602061598e833981519152604482015290519081900360640190fd5b6005805461ff001916610100179055600160a060020a0387166000908152600a602052604090205460ff1661351d576040805160e560020a62461bcd02815260206004820152600d60248201526000805160206159ee833981519152604482015290519081900360640190fd5b600160a060020a0385166000908152600a602052604090205460ff1661357b576040805160e560020a62461bcd02815260206004820152600d60248201526000805160206159ee833981519152604482015290519081900360640190fd5b60065460a060020a900460ff166135dc576040805160e560020a62461bcd02815260206004820152601360248201527f4552525f535741505f4e4f545f5055424c494300000000000000000000000000604482015290519081900360640190fd5b600160a060020a038088166000908152600a6020526040808220928816825290206003820154613616906002670de0b6b3a7640000612983565b88111561366d576040805160e560020a62461bcd02815260206004820152601060248201527f4552525f4d41585f494e5f524154494f00000000000000000000000000000000604482015290519081900360640190fd5b600061368e8360030154846002015484600301548560020154600754613fe1565b9050858111156136e8576040805160e560020a62461bcd02815260206004820152601360248201527f4552525f4241445f4c494d49545f505249434500000000000000000000000000604482015290519081900360640190fd5b61370883600301548460020154846003015485600201548d6007546143b1565b945086851015613750576040805160e560020a62461bcd02815260206004820152600d6024820152600080516020615a4e833981519152604482015290519081900360640190fd5b61375e83600301548a615297565b8360030181905550613774826003015486614ff1565b600380840182905584015460028086015490850154600754613797949190613fe1565b9350808410156137df576040805160e560020a62461bcd02815260206004820152600f6024820152600080516020615a6e833981519152604482015290519081900360640190fd5b85841115613837576040805160e560020a62461bcd02815260206004820152600f60248201527f4552525f4c494d49545f50524943450000000000000000000000000000000000604482015290519081900360640190fd5b613841898661536f565b811115613886576040805160e560020a62461bcd02815260206004820152600f6024820152600080516020615a6e833981519152604482015290519081900360640190fd5b87600160a060020a03168a600160a060020a031633600160a060020a03167f908fb5ee8f16c6bc9bc3690973819f32a4d4b10188134543c88706e0e1d433788c89604051808381526020018281526020019250505060405180910390a46138ee8a338b6152f4565b6133f6883387615086565b600080613906878661536f565b9050600061391c670de0b6b3a764000083614ff1565b9050600061392a8286614f08565b90506000613944876127d9670de0b6b3a764000085614ff1565b905060006139528c83614ff1565b90506000613960828e61536f565b9050600061396e8288615557565b9050600061397c828e614f08565b9050600061398a8e83614ff1565b90506139a3816127d9670de0b6b3a76400006000614ff1565b99505050505050505050509695505050505050565b6000806139c5878661536f565b905060006139e46139de670de0b6b3a764000084614ff1565b85614f08565b90506000613a03866139fe670de0b6b3a764000085614ff1565b614f08565b90506000613a118b83615297565b90506000613a1f828d61536f565b90506000613a2d8287615557565b90506000613a3b828d614f08565b9050613a47818d614ff1565b9e9d5050505050505050505050505050565b64e8d4a51000670de0b6b3a764000061149d565b600080613a7a878661536f565b90506000613a95856139fe670de0b6b3a76400006000614ff1565b90506000613aa38883614ff1565b90506000613ab1828a61536f565b90506000613ad082613acb670de0b6b3a76400008861536f565b615557565b90506000613ade828e614f08565b90506000613aec8e83614ff1565b90506000613b056127bb670de0b6b3a76400008a614ff1565b90506127de826139fe670de0b6b3a764000084614ff1565b33600160a060020a0316600035600160e060020a031916600160e060020a03191660003660405180806020018281038252848482818152602001925080828437600083820152604051601f909101601f19169092018290039550909350505050a2600554610100900460ff1615613bcc576040805160e560020a62461bcd02815260206004820152600b602482015260008051602061598e833981519152604482015290519081900360640190fd5b6005805461ff001916610100179055600160a060020a0381166000908152600a602052604090205460ff16613c39576040805160e560020a62461bcd02815260206004820152600d60248201526000805160206159ee833981519152604482015290519081900360640190fd5b604080517f70a082310000000000000000000000000000000000000000000000000000000081523060048201529051600160a060020a038316916370a08231916024808301926020929190829003018186803b158015613c9857600080fd5b505afa158015613cac573d6000803e3d6000fd5b505050506040513d6020811015613cc257600080fd5b5051600160a060020a039091166000908152600a60205260409020600301556005805461ff0019169055565b60085460ff1690565b33600160a060020a0316600035600160e060020a031916600160e060020a03191660003660405180806020018281038252848482818152602001925080828437600083820152604051601f909101601f19169092018290039550909350505050a2600554610100900460ff1615613da6576040805160e560020a62461bcd02815260206004820152600b602482015260008051602061598e833981519152604482015290519081900360640190fd5b6005805461ff00191661010017905560065433600160a060020a0390911614613e07576040805160e560020a62461bcd02815260206004820152601260248201526000805160206159ce833981519152604482015290519081900360640190fd5b6006805473ffffffffffffffffffffffffffffffffffffffff1916600160a060020a03929092169190911790556005805461ff0019169055565b600554600090610100900460ff1615613e92576040805160e560020a62461bcd02815260206004820152600b602482015260008051602061598e833981519152604482015290519081900360640190fd5b50600b5490565b68056bc75e2d6310000081565b600554600090610100900460ff1615613ef7576040805160e560020a62461bcd02815260206004820152600b602482015260008051602061598e833981519152604482015290519081900360640190fd5b600160a060020a0382166000908152600a602052604090205460ff16613f55576040805160e560020a62461bcd02815260206004820152600d60248201526000805160206159ee833981519152604482015290519081900360640190fd5b50600160a060020a03166000908152600a602052604090206002015490565b60048054604080516020601f60026000196101006001881615020190951694909404938401819004810282018101909252828152606093909290918301828280156111705780601f1061114557610100808354040283529160200191611170565b6704a03ce68d21555681565b600080613fee878761536f565b90506000613ffc868661536f565b9050600061400a838361536f565b9050600061402c670de0b6b3a76400006127d9670de0b6b3a764000089614ff1565b90506140388282614f08565b9a9950505050505050505050565b600061405333848461517b565b50600192915050565b33600160a060020a0316600035600160e060020a031916600160e060020a03191660003660405180806020018281038252848482818152602001925080828437600083820152604051601f909101601f19169092018290039550909350505050a2600554610100900460ff161561410b576040805160e560020a62461bcd02815260206004820152600b602482015260008051602061598e833981519152604482015290519081900360640190fd5b6005805461ff00191661010017905560085460ff16614162576040805160e560020a62461bcd028152602060048201526011602482015260008051602061596e833981519152604482015290519081900360640190fd5b600061416c611487565b9050600061417b856000614f08565b905060006141898683614ff1565b90506000614197828561536f565b9050806141dc576040805160e560020a62461bcd02815260206004820152600f6024820152600080516020615a6e833981519152604482015290519081900360640190fd5b6141e63388615062565b60055461420290620100009004600160a060020a03168461507c565b61420b82615070565b60005b60095481101561438d5760006009828154811061422757fe5b6000918252602080832090910154600160a060020a0316808352600a90915260408220600301549092509061425c8583614f08565b9050806142a1576040805160e560020a62461bcd02815260206004820152600f6024820152600080516020615a6e833981519152604482015290519081900360640190fd5b8989858181106142ad57fe5b905060200201358110156142f9576040805160e560020a62461bcd02815260206004820152600d6024820152600080516020615a4e833981519152604482015290519081900360640190fd5b600160a060020a0383166000908152600a602052604090206003015461431f9082614ff1565b600160a060020a0384166000818152600a60209081526040918290206003019390935580518481529051919233927fe74c91552b64c2e2e7bd255639e004e693bd3e1d01cc33e65610b86afcc1ffed9281900390910190a3614382833383615086565b50505060010161420e565b50506005805461ff0019169055505050505050565b600881565b600281565b600181565b6000806143be878661536f565b905060006143d4670de0b6b3a764000085614ff1565b90506143e08582614f08565b905060006143f28a6127d98c85615297565b905060006144008285615557565b90506000614416670de0b6b3a764000083614ff1565b90506144228a82614f08565b9c9b505050505050505050505050565b600a670de0b6b3a764000061149d565b671bc16d674ec7ffff81565b600554606090610100900460ff161561449f576040805160e560020a62461bcd02815260206004820152600b602482015260008051602061598e833981519152604482015290519081900360640190fd5b60085460ff166144e7576040805160e560020a62461bcd028152602060048201526011602482015260008051602061596e833981519152604482015290519081900360640190fd5b600980548060200260200160405190810160405280929190818152602001828054801561117057602002820191906000526020600020905b8154600160a060020a0316815260019091019060200180831161451f575050505050905090565b600081565b600554606090610100900460ff16156144e7576040805160e560020a62461bcd02815260206004820152600b602482015260008051602061598e833981519152604482015290519081900360640190fd5b60095490565b33600160a060020a0316600035600160e060020a031916600160e060020a03191660003660405180806020018281038252848482818152602001925080828437600083820152604051601f909101601f19169092018290039550909350505050a2600554610100900460ff1615614651576040805160e560020a62461bcd02815260206004820152600b602482015260008051602061598e833981519152604482015290519081900360640190fd5b6005805461ff00191661010017905560065433600160a060020a03909116146146b2576040805160e560020a62461bcd02815260206004820152601260248201526000805160206159ce833981519152604482015290519081900360640190fd5b600160a060020a0381166000908152600a602052604090205460ff16614710576040805160e560020a62461bcd02815260206004820152600d60248201526000805160206159ee833981519152604482015290519081900360640190fd5b60085460ff1615614759576040805160e560020a62461bcd0281526020600482015260106024820152600080516020615a2e833981519152604482015290519081900360640190fd5b600160a060020a0381166000908152600a6020526040812060030154906147808282614f08565b600b54600160a060020a0385166000908152600a60205260409020600201549192506147ab91614ff1565b600b55600160a060020a0383166000908152600a60205260409020600101546009805460001981019190829081106147df57fe5b60009182526020909120015460098054600160a060020a03909216918490811061480557fe5b9060005260206000200160006101000a815481600160a060020a030219169083600160a060020a0316021790555081600a60006009858154811061484557fe5b6000918252602080832090910154600160a060020a03168352820192909252604001902060010155600980548061487857fe5b600082815260208082206000199084018101805473ffffffffffffffffffffffffffffffffffffffff191690559092019092556040805160808101825283815280830184815281830185815260608301868152600160a060020a038c168752600a909552929094209051815460ff191690151517815592516001840155516002830155516003909101556149118533611cdb8787614ff1565b600554611d01908690620100009004600160a060020a031685615086565b600554600090610100900460ff1615614980576040805160e560020a62461bcd02815260206004820152600b602482015260008051602061598e833981519152604482015290519081900360640190fd5b5060075490565b336000908152600160209081526040808320600160a060020a03861684529091528120546149b59083615297565b336000818152600160209081526040808320600160a060020a038916808552908352928190208590558051948552519193600080516020615a0e833981519152929081900390910190a350600192915050565b600160a060020a03918216600090815260016020908152604080832093909416825291909152205490565b33600160a060020a0316600035600160e060020a031916600160e060020a03191660003660405180806020018281038252848482818152602001925080828437600083820152604051601f909101601f19169092018290039550909350505050a2600654600160a060020a03163314614ae4576040805160e560020a62461bcd02815260206004820152601260248201526000805160206159ce833981519152604482015290519081900360640190fd5b600160a060020a0383166000908152600a602052604090205460ff1615614b55576040805160e560020a62461bcd02815260206004820152600c60248201527f4552525f49535f424f554e440000000000000000000000000000000000000000604482015290519081900360640190fd5b60085460ff1615614b9e576040805160e560020a62461bcd0281526020600482015260106024820152600080516020615a2e833981519152604482015290519081900360640190fd5b600954600811614bf8576040805160e560020a62461bcd02815260206004820152600e60248201527f4552525f4d41585f544f4b454e53000000000000000000000000000000000000604482015290519081900360640190fd5b604080516080810182526001808252600980546020808501918252600085870181815260608701828152600160a060020a038c16808452600a9094529782209651875460ff1916901515178755925186860155915160028601559451600390940193909355805491820181559091527f6e1540171b6c0c960b71a7020d9f60077f6af931a8bbf590da0223dacf75c7af01805473ffffffffffffffffffffffffffffffffffffffff19169091179055614cb28383836118c7565b505050565b6002670de0b6b3a764000061149d565b600554600090610100900460ff1615614d18576040805160e560020a62461bcd02815260206004820152600b602482015260008051602061598e833981519152604482015290519081900360640190fd5b600160a060020a0382166000908152600a602052604090205460ff16614d76576040805160e560020a62461bcd02815260206004820152600d60248201526000805160206159ee833981519152604482015290519081900360640190fd5b600160a060020a0382166000908152600a6020526040902060020154600b54614da090829061536f565b9392505050565b600554600090610100900460ff1615614df8576040805160e560020a62461bcd02815260206004820152600b602482015260008051602061598e833981519152604482015290519081900360640190fd5b600160a060020a0382166000908152600a602052604090205460ff16614e56576040805160e560020a62461bcd02815260206004820152600d60248201526000805160206159ee833981519152604482015290519081900360640190fd5b50600160a060020a03166000908152600a602052604090206003015490565b600080614e82858861536f565b90506000614e908786614ff1565b90506000614e9e888361536f565b90506000614eac8285615557565b9050614ec081670de0b6b3a7640000614ff1565b9050614ed4670de0b6b3a764000087614ff1565b9450614ee9614ee38c83614f08565b8661536f565b9b9a5050505050505050505050565b60065460a060020a900460ff1690565b6000828202831580614f22575082848281614f1f57fe5b04145b614f76576040805160e560020a62461bcd02815260206004820152601060248201527f4552525f4d554c5f4f564552464c4f5700000000000000000000000000000000604482015290519081900360640190fd5b6706f05b59d3b20000810181811015614fd9576040805160e560020a62461bcd02815260206004820152601060248201527f4552525f4d554c5f4f564552464c4f5700000000000000000000000000000000604482015290519081900360640190fd5b6000670de0b6b3a7640000825b049695505050505050565b6000806000615000858561567a565b91509150801561505a576040805160e560020a62461bcd02815260206004820152601160248201527f4552525f5355425f554e444552464c4f57000000000000000000000000000000604482015290519081900360640190fd5b509392505050565b61506c828261569f565b5050565b615079816156aa565b50565b61506c8282615786565b604080517fa9059cbb000000000000000000000000000000000000000000000000000000008152600160a060020a03848116600483015260248201849052915160009286169163a9059cbb91604480830192602092919082900301818787803b1580156150f257600080fd5b505af1158015615106573d6000803e3d6000fd5b505050506040513d602081101561511c57600080fd5b5051905080615175576040805160e560020a62461bcd02815260206004820152600f60248201527f4552525f45524332305f46414c53450000000000000000000000000000000000604482015290519081900360640190fd5b50505050565b600160a060020a0383166000908152602081905260409020548111156151eb576040805160e560020a62461bcd02815260206004820152601460248201527f4552525f494e53554646494349454e545f42414c000000000000000000000000604482015290519081900360640190fd5b600160a060020a03831660009081526020819052604090205461520e9082614ff1565b600160a060020a03808516600090815260208190526040808220939093559084168152205461523d9082615297565b600160a060020a038084166000818152602081815260409182902094909455805185815290519193928716927fddf252ad1be2c89b69c2b068fc378daa952ba7f163c4a11628f55a4df523b3ef92918290030190a3505050565b600082820183811015614da0576040805160e560020a62461bcd02815260206004820152601060248201527f4552525f4144445f4f564552464c4f5700000000000000000000000000000000604482015290519081900360640190fd5b604080517f23b872dd000000000000000000000000000000000000000000000000000000008152600160a060020a0384811660048301523060248301526044820184905291516000928616916323b872dd91606480830192602092919082900301818787803b1580156150f257600080fd5b61507981615791565b6000816153c6576040805160e560020a62461bcd02815260206004820152600c60248201527f4552525f4449565f5a45524f0000000000000000000000000000000000000000604482015290519081900360640190fd5b670de0b6b3a764000083028315806153ee5750670de0b6b3a76400008482816153eb57fe5b04145b615442576040805160e560020a62461bcd02815260206004820152601060248201527f4552525f4449565f494e5445524e414c00000000000000000000000000000000604482015290519081900360640190fd5b600283048101818110156154a0576040805160e560020a62461bcd02815260206004820152601060248201527f4552525f4449565f494e5445524e414c00000000000000000000000000000000604482015290519081900360640190fd5b6000848281614fe657fe5b6006805460058054600160a060020a03978816620100000275ffffffffffffffffffffffffffffffffffffffff00001990911617905560079490945591151560a060020a0274ff0000000000000000000000000000000000000000199590941673ffffffffffffffffffffffffffffffffffffffff199093169290921793909316919091179091556008805491151560ff19928316179055600c80549091166001179081905560ff1690565b600060018310156155b2576040805160e560020a62461bcd02815260206004820152601560248201527f4552525f42504f575f424153455f544f4f5f4c4f570000000000000000000000604482015290519081900360640190fd5b671bc16d674ec7ffff831115615612576040805160e560020a62461bcd02815260206004820152601660248201527f4552525f42504f575f424153455f544f4f5f4849474800000000000000000000604482015290519081900360640190fd5b600061561d83615806565b9050600061562b8483614ff1565b905060006156418661563c85615821565b61582f565b9050816156525792506111c9915050565b600061566387846305f5e10061588f565b905061566f8282614f08565b979650505050505050565b6000808284106156905750508082036000615698565b505081810360015b9250929050565b61506c82308361517b565b30600090815260208190526040902054811115615711576040805160e560020a62461bcd02815260206004820152601460248201527f4552525f494e53554646494349454e545f42414c000000000000000000000000604482015290519081900360640190fd5b3060009081526020819052604090205461572b9082614ff1565b306000908152602081905260409020556002546157489082614ff1565b60025560408051828152905160009130917fddf252ad1be2c89b69c2b068fc378daa952ba7f163c4a11628f55a4df523b3ef9181900360200190a350565b61506c30838361517b565b306000908152602081905260409020546157ab9082615297565b306000908152602081905260409020556002546157c89082615297565b60025560408051828152905130916000917fddf252ad1be2c89b69c2b068fc378daa952ba7f163c4a11628f55a4df523b3ef9181900360200190a350565b6000670de0b6b3a764000061581a83615821565b0292915050565b670de0b6b3a7640000900490565b600082816002840661584957670de0b6b3a764000061584b565b815b90506002840493505b8315615887576158648283614f08565b9150600284061561587c576158798183614f08565b90505b600284049350615854565b949350505050565b60008281806158a687670de0b6b3a764000061567a565b9092509050670de0b6b3a764000080600060015b88841061595e576000670de0b6b3a7640000820290506000806158ee8a6158e985670de0b6b3a7640000614ff1565b61567a565b91509150615900876139fe848c614f08565b965061590c878461536f565b96508661591b5750505061595e565b8715615925579315935b801561592f579315935b84156159465761593f8688614ff1565b9550615953565b6159508688615297565b95505b5050506001016158ba565b5090999850505050505050505056fe4552525f4e4f545f46494e414c495a45440000000000000000000000000000004552525f5245454e5452590000000000000000000000000000000000000000004552525f4c494d49545f494e00000000000000000000000000000000000000004552525f4e4f545f434f4e54524f4c4c455200000000000000000000000000004552525f4e4f545f424f554e44000000000000000000000000000000000000008c5be1e5ebec7d5bd14f71427d1e84f3dd0314c0f7b2291e5b200ac8c7c3b9254552525f49535f46494e414c495a4544000000000000000000000000000000004552525f4c494d49545f4f5554000000000000000000000000000000000000004552525f4d4154485f415050524f580000000000000000000000000000000000a165627a7a7230582015fa4ac21a709ce524d6c7217a3afc0dba7716bd26707fa71bc99d2b260780e20029",
  "source": "pragma solidity ^0.5.7;\n// Copyright BigchainDB GmbH and Ocean Protocol contributors\n// SPDX-License-Identifier: (Apache-2.0 AND CC-BY-4.0)\n// Code is Apache-2.0 and docs are CC-BY-4.0\n\nimport './BToken.sol';\nimport './BMath.sol';\n\n/**\n* @title SPool\n*  \n* @dev Used by the (Ocean version) SFactory contract as a bytecode reference to \n*      deploy new SPools.\n*\n* This contract is is nearly identical to the BPool.sol contract at [1]\n*  The only difference is the \"Proxy contract functionality\" section \n*  given below. We'd inherit from BPool if we could, for simplicity.\n*  But we can't, because the proxy section needs to access private\n*  variables declared in BPool, and Solidity disallows this. Therefore\n*  the best we can do for now is clearly demarcate the proxy section. \n*\n*  [1] https://github.com/balancer-labs/balancer-core/contracts/.\n*/\ncontract SPool is BToken, BMath {\n\n    struct Record {\n        bool bound;   // is token bound to pool\n        uint index;   // private\n        uint denorm;  // denormalized weight\n        uint balance;\n    }\n\n    event LOG_SWAP(\n        address indexed caller,\n        address indexed tokenIn,\n        address indexed tokenOut,\n        uint256         tokenAmountIn,\n        uint256         tokenAmountOut\n    );\n\n    event LOG_JOIN(\n        address indexed caller,\n        address indexed tokenIn,\n        uint256         tokenAmountIn\n    );\n\n    event LOG_EXIT(\n        address indexed caller,\n        address indexed tokenOut,\n        uint256         tokenAmountOut\n    );\n\n    event LOG_CALL(\n        bytes4  indexed sig,\n        address indexed caller,\n        bytes           data\n    ) anonymous;\n\n    modifier _logs_() {\n        emit LOG_CALL(msg.sig, msg.sender, msg.data);\n        _;\n    }\n\n    modifier _lock_() {\n        require(\n            !_mutex, \n            'ERR_REENTRY'\n        );\n        _mutex = true;\n        _;\n        _mutex = false;\n    }\n\n    modifier _viewlock_() {\n        require(!_mutex, 'ERR_REENTRY');\n        _;\n    }\n    \n    bool private _mutex;\n\n    address private _factory;    // SFactory address to push token exitFee to\n    address private _controller; // has CONTROL role\n    bool private _publicSwap; // true if PUBLIC can call SWAP functions\n\n    // `setSwapFee` and `finalize` require CONTROL\n    // `finalize` sets `PUBLIC can SWAP`, `PUBLIC can JOIN`\n    uint private _swapFee;\n    bool private _finalized;\n\n    address[] private _tokens;\n    mapping(address=>Record) private  _records;\n    uint private _totalWeight;\n\n    //-----------------------------------------------------------------------\n    //Proxy contract functionality: begin\n    bool private initialized = false; \n    modifier onlyNotInitialized() {\n        require(\n            !initialized, \n            'ERR_ALREADY_INITIALIZED'\n        );\n        _;\n    }\n    function isInitialized() public view returns(bool) {\n        return initialized;\n    }\n    \n    // Called prior to contract deployment\n    constructor() public {\n        _initialize(msg.sender, msg.sender, MIN_FEE, false, false);\n    }\n    \n    // Called prior to contract initialization (e.g creating new SPool instance)\n    // Calls private _initialize function. Only if contract is not initialized.\n    function initialize(\n        address controller, \n        address factory, \n        uint swapFee,\n        bool publicSwap,\n        bool finalized\n    )\n        public\n        onlyNotInitialized\n        returns(bool)\n    {\n        return _initialize(controller, factory, swapFee, publicSwap, finalized);\n    }\n\t\n    // Private function called on contract initialization.\n    function _initialize(\n        address controller, \n        address factory, \n        uint swapFee,\n        bool publicSwap, \n        bool finalized\n    )\n        private\n        returns(bool)\n    {\n        _controller = controller;\n        _factory = factory;\n        _swapFee = swapFee;\n        _publicSwap = publicSwap;\n        _finalized = finalized;\n\t\n        initialized = true;\n        return initialized;\n    }\n    \n    //Proxy contract functionality: end\n    //-----------------------------------------------------------------------\n\n    function isPublicSwap()\n        external view\n        returns (bool)\n    {\n        return _publicSwap;\n    }\n\n    function isFinalized()\n        external view\n        returns (bool)\n    {\n        return _finalized;\n    }\n\n    function isBound(address t)\n        external view\n        returns (bool)\n    {\n        return _records[t].bound;\n    }\n\n    function getNumTokens()\n        external view\n        returns (uint) \n    {\n        return _tokens.length;\n    }\n\n    function getCurrentTokens()\n        external view _viewlock_\n        returns (address[] memory tokens)\n    {\n        return _tokens;\n    }\n\n    function getFinalTokens()\n        external view\n        _viewlock_\n        returns (address[] memory tokens)\n    {\n        require(_finalized, 'ERR_NOT_FINALIZED');\n        return _tokens;\n    }\n\n    function getDenormalizedWeight(address token)\n        external view\n        _viewlock_\n        returns (uint)\n    {\n\n        require(_records[token].bound, 'ERR_NOT_BOUND');\n        return _records[token].denorm;\n    }\n\n    function getTotalDenormalizedWeight()\n        external view\n        _viewlock_\n        returns (uint)\n    {\n        return _totalWeight;\n    }\n\n    function getNormalizedWeight(address token)\n        external view\n        _viewlock_\n        returns (uint)\n    {\n\n        require(_records[token].bound, 'ERR_NOT_BOUND');\n        uint denorm = _records[token].denorm;\n        return bdiv(denorm, _totalWeight);\n    }\n\n    function getBalance(address token)\n        external view\n        _viewlock_\n        returns (uint)\n    {\n\n        require(_records[token].bound, 'ERR_NOT_BOUND');\n        return _records[token].balance;\n    }\n\n    function getSwapFee()\n        external view\n        _viewlock_\n        returns (uint)\n    {\n        return _swapFee;\n    }\n\n    function getController()\n        external view\n        _viewlock_\n        returns (address)\n    {\n        return _controller;\n    }\n\n    function setSwapFee(uint swapFee)\n        external\n        _logs_\n        _lock_\n    { \n        require(!_finalized, 'ERR_IS_FINALIZED');\n        require(msg.sender == _controller, 'ERR_NOT_CONTROLLER');\n        require(swapFee >= MIN_FEE, 'ERR_MIN_FEE');\n        require(swapFee <= MAX_FEE, 'ERR_MAX_FEE');\n        _swapFee = swapFee;\n    }\n\n    function setController(address manager)\n        external\n        _logs_\n        _lock_\n    {\n        require(msg.sender == _controller, 'ERR_NOT_CONTROLLER');\n        _controller = manager;\n    }\n\t\n    function setPublicSwap(bool public_)\n        external\n        _logs_\n        _lock_\n    {\n        require(!_finalized, 'ERR_IS_FINALIZED');\n        require(msg.sender == _controller, 'ERR_NOT_CONTROLLER');\n        _publicSwap = public_;\n    }\n\n    function finalize()\n        external\n        _logs_\n        _lock_\n    {\n        require(msg.sender == _controller, 'ERR_NOT_CONTROLLER');\n        require(!_finalized, 'ERR_IS_FINALIZED');\n        require(_tokens.length >= MIN_BOUND_TOKENS, 'ERR_MIN_TOKENS');\n\n        _finalized = true;\n        _publicSwap = true;\n\n        _mintPoolShare(INIT_POOL_SUPPLY);\n        _pushPoolShare(msg.sender, INIT_POOL_SUPPLY);\n    }\n\n\n    function bind(address token, uint balance, uint denorm)\n        external\n        _logs_\n        // _lock_  Bind does not lock because it jumps to `rebind`, which does\n    {\n        require(msg.sender == _controller, 'ERR_NOT_CONTROLLER');\n        require(!_records[token].bound, 'ERR_IS_BOUND');\n        require(!_finalized, 'ERR_IS_FINALIZED');\n\n        require(_tokens.length < MAX_BOUND_TOKENS, 'ERR_MAX_TOKENS');\n\n        _records[token] = Record({\n            bound: true,\n            index: _tokens.length,\n            denorm: 0,\n            // balance and denorm will be validated\n            balance: 0   // and set by `rebind`\n        });\n        _tokens.push(token);\n        rebind(token, balance, denorm);\n    }\n\n    function rebind(address token, uint balance, uint denorm)\n        public\n        _logs_\n        _lock_\n    {\n\n        require(msg.sender == _controller, 'ERR_NOT_CONTROLLER');\n        require(_records[token].bound, 'ERR_NOT_BOUND');\n        require(!_finalized, 'ERR_IS_FINALIZED');\n\n        require(denorm >= MIN_WEIGHT, 'ERR_MIN_WEIGHT');\n        require(denorm <= MAX_WEIGHT, 'ERR_MAX_WEIGHT');\n        require(balance >= MIN_BALANCE, 'ERR_MIN_BALANCE');\n\n        // Adjust the denorm and totalWeight\n        uint oldWeight = _records[token].denorm;\n        if (denorm > oldWeight) {\n            _totalWeight = badd(_totalWeight, bsub(denorm, oldWeight));\n            require(_totalWeight <= MAX_TOTAL_WEIGHT, 'ERR_MAX_TOTAL_WEIGHT');\n        } else if (denorm < oldWeight) {\n            _totalWeight = bsub(_totalWeight, bsub(oldWeight, denorm));\n        }        \n        _records[token].denorm = denorm;\n\n        // Adjust the balance record and actual token balance\n        uint oldBalance = _records[token].balance;\n        _records[token].balance = balance;\n        if (balance > oldBalance) {\n            _pullUnderlying(token, msg.sender, bsub(balance, oldBalance));\n        } else if (balance < oldBalance) {\n            // In this case liquidity is being withdrawn, so charge EXIT_FEE\n            uint tokenBalanceWithdrawn = bsub(oldBalance, balance);\n            uint tokenExitFee = bmul(tokenBalanceWithdrawn, EXIT_FEE);\n            _pushUnderlying(token, msg.sender, bsub(tokenBalanceWithdrawn, tokenExitFee));\n            _pushUnderlying(token, _factory, tokenExitFee);\n        }\n    }\n\n    function unbind(address token)\n        external\n        _logs_\n        _lock_\n    {\n\n        require(msg.sender == _controller, 'ERR_NOT_CONTROLLER');\n        require(_records[token].bound, 'ERR_NOT_BOUND');\n        require(!_finalized, 'ERR_IS_FINALIZED');\n\n        uint tokenBalance = _records[token].balance;\n        uint tokenExitFee = bmul(tokenBalance, EXIT_FEE);\n\n        _totalWeight = bsub(_totalWeight, _records[token].denorm);\n\n        // Swap the token-to-unbind with the last token,\n        // then delete the last token\n        uint index = _records[token].index;\n        uint last = _tokens.length - 1;\n        _tokens[index] = _tokens[last];\n        _records[_tokens[index]].index = index;\n        _tokens.pop();\n        _records[token] = Record({\n            bound: false,\n            index: 0,\n            denorm: 0,\n            balance: 0\n        });\n\n        _pushUnderlying(token, msg.sender, bsub(tokenBalance, tokenExitFee));\n        _pushUnderlying(token, _factory, tokenExitFee);\n    }\n\n    // Absorb any tokens that have been sent to this contract into the pool\n    function gulp(address token)\n        external\n        _logs_\n        _lock_\n    {\n        require(_records[token].bound, 'ERR_NOT_BOUND');\n        _records[token].balance = IERC20(token).balanceOf(address(this));\n    }\n\n    function getSpotPrice(address tokenIn, address tokenOut)\n        external view\n        _viewlock_\n        returns (uint spotPrice)\n    {\n        require(_records[tokenIn].bound, 'ERR_NOT_BOUND');\n        require(_records[tokenOut].bound, 'ERR_NOT_BOUND');\n        Record storage inRecord = _records[tokenIn];\n        Record storage outRecord = _records[tokenOut];\n        return calcSpotPrice(\n            inRecord.balance, \n            inRecord.denorm, \n            outRecord.balance, \n            outRecord.denorm, \n            _swapFee\n        );\n    }\n\n    function getSpotPriceSansFee(address tokenIn, address tokenOut)\n        external view\n        _viewlock_\n        returns (uint spotPrice)\n    {\n        require(_records[tokenIn].bound, 'ERR_NOT_BOUND');\n        require(_records[tokenOut].bound, 'ERR_NOT_BOUND');\n        Record storage inRecord = _records[tokenIn];\n        Record storage outRecord = _records[tokenOut];\n        return calcSpotPrice(\n            inRecord.balance, \n            inRecord.denorm, \n            outRecord.balance, \n            outRecord.denorm, \n            0\n        );\n    }\n\n    function joinPool(uint poolAmountOut, uint[] calldata maxAmountsIn)\n        external\n        _logs_\n        _lock_\n    {\n        require(_finalized, 'ERR_NOT_FINALIZED');\n\n        uint poolTotal = totalSupply();\n        uint ratio = bdiv(poolAmountOut, poolTotal);\n        require(ratio != 0, 'ERR_MATH_APPROX');\n\n        for (uint i = 0; i < _tokens.length; i++) {\n            address t = _tokens[i];\n            uint bal = _records[t].balance;\n            uint tokenAmountIn = bmul(ratio, bal);\n            require(tokenAmountIn != 0, 'ERR_MATH_APPROX');\n            require(tokenAmountIn <= maxAmountsIn[i], 'ERR_LIMIT_IN');\n            _records[t].balance = badd(_records[t].balance, tokenAmountIn);\n            emit LOG_JOIN(msg.sender, t, tokenAmountIn);\n            _pullUnderlying(t, msg.sender, tokenAmountIn);\n        }\n        _mintPoolShare(poolAmountOut);\n        _pushPoolShare(msg.sender, poolAmountOut);\n    }\n\n    function exitPool(uint poolAmountIn, uint[] calldata minAmountsOut)\n        external\n        _logs_\n        _lock_\n    {\n        require(_finalized, 'ERR_NOT_FINALIZED');\n\n        uint poolTotal = totalSupply();\n        uint exitFee = bmul(poolAmountIn, EXIT_FEE);\n        uint pAiAfterExitFee = bsub(poolAmountIn, exitFee);\n        uint ratio = bdiv(pAiAfterExitFee, poolTotal);\n        require(ratio != 0, 'ERR_MATH_APPROX');\n\n        _pullPoolShare(msg.sender, poolAmountIn);\n        _pushPoolShare(_factory, exitFee);\n        _burnPoolShare(pAiAfterExitFee);\n\n        for (uint i = 0; i < _tokens.length; i++) {\n            address t = _tokens[i];\n            uint bal = _records[t].balance;\n            uint tokenAmountOut = bmul(ratio, bal);\n            require(tokenAmountOut != 0, 'ERR_MATH_APPROX');\n            require(tokenAmountOut >= minAmountsOut[i], 'ERR_LIMIT_OUT');\n            _records[t].balance = bsub(_records[t].balance, tokenAmountOut);\n            emit LOG_EXIT(msg.sender, t, tokenAmountOut);\n            _pushUnderlying(t, msg.sender, tokenAmountOut);\n        }\n\n    }\n\n\n    function swapExactAmountIn(\n        address tokenIn,\n        uint tokenAmountIn,\n        address tokenOut,\n        uint minAmountOut,\n        uint maxPrice\n    )\n        external\n        _logs_\n        _lock_\n        returns (uint tokenAmountOut, uint spotPriceAfter)\n    {\n\n        require(_records[tokenIn].bound, 'ERR_NOT_BOUND');\n        require(_records[tokenOut].bound, 'ERR_NOT_BOUND');\n        require(_publicSwap, 'ERR_SWAP_NOT_PUBLIC');\n\n        Record storage inRecord = _records[address(tokenIn)];\n        Record storage outRecord = _records[address(tokenOut)];\n\n        require(\n            tokenAmountIn <= bmul(inRecord.balance, MAX_IN_RATIO), \n            'ERR_MAX_IN_RATIO'\n        );\n\n        uint spotPriceBefore = calcSpotPrice(\n            inRecord.balance,\n            inRecord.denorm,\n            outRecord.balance,\n            outRecord.denorm,\n            _swapFee\n        );\n        require(spotPriceBefore <= maxPrice, 'ERR_BAD_LIMIT_PRICE');\n\n        tokenAmountOut = calcOutGivenIn(\n            inRecord.balance,\n            inRecord.denorm,\n            outRecord.balance,\n            outRecord.denorm,\n            tokenAmountIn,\n            _swapFee\n        );\n        require(tokenAmountOut >= minAmountOut, 'ERR_LIMIT_OUT');\n\n        inRecord.balance = badd(inRecord.balance, tokenAmountIn);\n        outRecord.balance = bsub(outRecord.balance, tokenAmountOut);\n\n        spotPriceAfter = calcSpotPrice(\n            inRecord.balance,\n            inRecord.denorm,\n            outRecord.balance,\n            outRecord.denorm,\n            _swapFee\n        );\n        require(spotPriceAfter >= spotPriceBefore, 'ERR_MATH_APPROX');     \n        require(spotPriceAfter <= maxPrice, 'ERR_LIMIT_PRICE');\n        require(\n            spotPriceBefore <= bdiv(tokenAmountIn, tokenAmountOut), \n            'ERR_MATH_APPROX'\n        );\n\n        emit LOG_SWAP(\n            msg.sender, \n            tokenIn, \n            tokenOut, \n            tokenAmountIn, \n            tokenAmountOut\n        );\n\n        _pullUnderlying(tokenIn, msg.sender, tokenAmountIn);\n        _pushUnderlying(tokenOut, msg.sender, tokenAmountOut);\n\n        return (tokenAmountOut, spotPriceAfter);\n    }\n\n    function swapExactAmountOut(\n        address tokenIn,\n        uint maxAmountIn,\n        address tokenOut,\n        uint tokenAmountOut,\n        uint maxPrice\n    )\n        external\n        _logs_\n        _lock_ \n        returns (uint tokenAmountIn, uint spotPriceAfter)\n    {\n        require(_records[tokenIn].bound, 'ERR_NOT_BOUND');\n        require(_records[tokenOut].bound, 'ERR_NOT_BOUND');\n        require(_publicSwap, 'ERR_SWAP_NOT_PUBLIC');\n\n        Record storage inRecord = _records[address(tokenIn)];\n        Record storage outRecord = _records[address(tokenOut)];\n\n        require(\n            tokenAmountOut <= bmul(outRecord.balance, MAX_OUT_RATIO), \n            'ERR_MAX_OUT_RATIO'\n        );\n\n        uint spotPriceBefore = calcSpotPrice(\n            inRecord.balance,\n            inRecord.denorm,\n            outRecord.balance,\n            outRecord.denorm,\n            _swapFee\n        );\n        \n        require(spotPriceBefore <= maxPrice, 'ERR_BAD_LIMIT_PRICE');\n\n        tokenAmountIn = calcInGivenOut(\n            inRecord.balance,\n            inRecord.denorm,\n            outRecord.balance,\n            outRecord.denorm,\n            tokenAmountOut,\n            _swapFee\n        );\n        require(tokenAmountIn <= maxAmountIn, 'ERR_LIMIT_IN');\n\n        inRecord.balance = badd(inRecord.balance, tokenAmountIn);\n        outRecord.balance = bsub(outRecord.balance, tokenAmountOut);\n\n        spotPriceAfter = calcSpotPrice(\n            inRecord.balance,\n            inRecord.denorm,\n            outRecord.balance,\n            outRecord.denorm,\n            _swapFee\n        );\n        require(spotPriceAfter >= spotPriceBefore, 'ERR_MATH_APPROX');\n        require(spotPriceAfter <= maxPrice, 'ERR_LIMIT_PRICE');\n        require(\n            spotPriceBefore <= bdiv(tokenAmountIn, tokenAmountOut), \n            'ERR_MATH_APPROX'\n        );\n\n        emit LOG_SWAP(\n            msg.sender, \n            tokenIn, \n            tokenOut, \n            tokenAmountIn, \n            tokenAmountOut\n        );\n\n        _pullUnderlying(tokenIn, msg.sender, tokenAmountIn);\n        _pushUnderlying(tokenOut, msg.sender, tokenAmountOut);\n\n        return (tokenAmountIn, spotPriceAfter);\n    }\n\n\n    function joinswapExternAmountIn(\n        address tokenIn, \n        uint tokenAmountIn, \n        uint minPoolAmountOut\n    )\n        external\n        _logs_\n        _lock_\n        returns (uint poolAmountOut)\n\n    {        \n        require(_finalized, 'ERR_NOT_FINALIZED');\n        require(_records[tokenIn].bound, 'ERR_NOT_BOUND');\n        require(\n            tokenAmountIn <= bmul(_records[tokenIn].balance, MAX_IN_RATIO), \n            'ERR_MAX_IN_RATIO'\n        );\n\n        Record storage inRecord = _records[tokenIn];\n\n        poolAmountOut = calcPoolOutGivenSingleIn(\n            inRecord.balance,\n            inRecord.denorm,\n            _totalSupply,\n            _totalWeight,\n            tokenAmountIn,\n            _swapFee\n        );\n\n        require(poolAmountOut >= minPoolAmountOut, 'ERR_LIMIT_OUT');\n\n        inRecord.balance = badd(inRecord.balance, tokenAmountIn);\n\n        emit LOG_JOIN(msg.sender, tokenIn, tokenAmountIn);\n\n        _mintPoolShare(poolAmountOut);\n        _pushPoolShare(msg.sender, poolAmountOut);\n        _pullUnderlying(tokenIn, msg.sender, tokenAmountIn);\n\n        return poolAmountOut;\n    }\n\n    function joinswapPoolAmountOut(\n        address tokenIn, \n        uint poolAmountOut, \n        uint maxAmountIn\n    )\n        external\n        _logs_\n        _lock_\n        returns (uint tokenAmountIn)\n    {\n        require(_finalized, 'ERR_NOT_FINALIZED');\n        require(_records[tokenIn].bound, 'ERR_NOT_BOUND');\n\n        Record storage inRecord = _records[tokenIn];\n\n        tokenAmountIn = calcSingleInGivenPoolOut(\n            inRecord.balance,\n            inRecord.denorm,\n            _totalSupply,\n            _totalWeight,\n            poolAmountOut,\n            _swapFee\n        );\n\n        require(tokenAmountIn != 0, 'ERR_MATH_APPROX');\n        require(tokenAmountIn <= maxAmountIn, 'ERR_LIMIT_IN');\n        \n        require(\n            tokenAmountIn <= bmul(_records[tokenIn].balance, MAX_IN_RATIO), \n            'ERR_MAX_IN_RATIO'\n        );\n\n        inRecord.balance = badd(inRecord.balance, tokenAmountIn);\n\n        emit LOG_JOIN(msg.sender, tokenIn, tokenAmountIn);\n\n        _mintPoolShare(poolAmountOut);\n        _pushPoolShare(msg.sender, poolAmountOut);\n        _pullUnderlying(tokenIn, msg.sender, tokenAmountIn);\n\n        return tokenAmountIn;\n    }\n\n    function exitswapPoolAmountIn(\n        address tokenOut, \n        uint poolAmountIn, \n        uint minAmountOut\n    )\n        external\n        _logs_\n        _lock_\n        returns (uint tokenAmountOut)\n    {\n        require(_finalized, 'ERR_NOT_FINALIZED');\n        require(_records[tokenOut].bound, 'ERR_NOT_BOUND');\n\n        Record storage outRecord = _records[tokenOut];\n\n        tokenAmountOut = calcSingleOutGivenPoolIn(\n            outRecord.balance,\n            outRecord.denorm,\n            _totalSupply,\n            _totalWeight,\n            poolAmountIn,\n            _swapFee\n        );\n\n        require(tokenAmountOut >= minAmountOut, 'ERR_LIMIT_OUT');\n        \n        require(\n            tokenAmountOut <= bmul(_records[tokenOut].balance, MAX_OUT_RATIO), \n            'ERR_MAX_OUT_RATIO'\n        );\n\n        outRecord.balance = bsub(outRecord.balance, tokenAmountOut);\n\n        uint exitFee = bmul(poolAmountIn, EXIT_FEE);\n\n        emit LOG_EXIT(msg.sender, tokenOut, tokenAmountOut);\n\n        _pullPoolShare(msg.sender, poolAmountIn);\n        _burnPoolShare(bsub(poolAmountIn, exitFee));\n        _pushPoolShare(_factory, exitFee);\n        _pushUnderlying(tokenOut, msg.sender, tokenAmountOut);\n\n        return tokenAmountOut;\n    }\n\n    function exitswapExternAmountOut(\n        address tokenOut, \n        uint tokenAmountOut, \n        uint maxPoolAmountIn\n    )\n        external\n        _logs_\n        _lock_\n        returns (uint poolAmountIn)\n    {\n        require(_finalized, 'ERR_NOT_FINALIZED');\n        require(_records[tokenOut].bound, 'ERR_NOT_BOUND');\n        require(\n            tokenAmountOut <= bmul(_records[tokenOut].balance, MAX_OUT_RATIO), \n            'ERR_MAX_OUT_RATIO'\n        );\n\n        Record storage outRecord = _records[tokenOut];\n\n        poolAmountIn = calcPoolInGivenSingleOut(\n            outRecord.balance,\n            outRecord.denorm,\n            _totalSupply,\n            _totalWeight,\n            tokenAmountOut,\n            _swapFee\n        );\n\n        require(poolAmountIn != 0, 'ERR_MATH_APPROX');\n        require(poolAmountIn <= maxPoolAmountIn, 'ERR_LIMIT_IN');\n\n        outRecord.balance = bsub(outRecord.balance, tokenAmountOut);\n\n        uint exitFee = bmul(poolAmountIn, EXIT_FEE);\n\n        emit LOG_EXIT(msg.sender, tokenOut, tokenAmountOut);\n\n        _pullPoolShare(msg.sender, poolAmountIn);\n        _burnPoolShare(bsub(poolAmountIn, exitFee));\n        _pushPoolShare(_factory, exitFee);\n        _pushUnderlying(tokenOut, msg.sender, tokenAmountOut);        \n\n        return poolAmountIn;\n    }\n\n\n    // ==\n    // 'Underlying' token-manipulation functions make external calls but are NOT locked\n    // You must `_lock_` or otherwise ensure reentry-safety\n\n    function _pullUnderlying(address erc20, address from, uint amount)\n        internal\n    {\n        bool xfer = IERC20(erc20).transferFrom(from, address(this), amount);\n        require(xfer, 'ERR_ERC20_FALSE');\n    }\n\n    function _pushUnderlying(address erc20, address to, uint amount)\n        internal\n    {\n        bool xfer = IERC20(erc20).transfer(to, amount);\n        require(xfer, 'ERR_ERC20_FALSE');\n    }\n\n    function _pullPoolShare(address from, uint amount)\n        internal\n    {\n        _pull(from, amount);\n    }\n\n    function _pushPoolShare(address to, uint amount)\n        internal\n    {\n        _push(to, amount);\n    }\n\n    function _mintPoolShare(uint amount)\n        internal\n    {\n        _mint(amount);\n    }\n\n    function _burnPoolShare(uint amount)\n        internal\n    {\n        _burn(amount);\n    }\n\n}\n",
  "sourcePath": "/Users/ahmedali/Desktop/work/Ocean/ocean-contracts/contracts/balancer/SPool.sol",
  "compiler": {
    "name": "solc",
    "version": "0.5.7+commit.6da8b019.Emscripten.clang"
  },
  "schemaVersion": "3.2.0",
  "updatedAt": "2020-07-20T07:42:20.323Z",
  "devdoc": {
    "details": "Used by the (Ocean version) SFactory contract as a bytecode reference to      deploy new SPools. * This contract is is nearly identical to the BPool.sol contract at [1] The only difference is the \"Proxy contract functionality\" section  given below. We'd inherit from BPool if we could, for simplicity. But we can't, because the proxy section needs to access private variables declared in BPool, and Solidity disallows this. Therefore the best we can do for now is clearly demarcate the proxy section.  *  [1] https://github.com/balancer-labs/balancer-core/contracts/.",
    "methods": {},
    "title": "SPool "
  },
  "userdoc": {
    "methods": {
      "calcInGivenOut(uint256,uint256,uint256,uint256,uint256,uint256)": {
        "notice": "******************************************************************************************** // calcInGivenOut                                                                            // // aI = tokenAmountIn                                                                        // // bO = tokenBalanceOut               /  /     bO      \\    (wO / wI)      \\                 // // bI = tokenBalanceIn          bI * |  | ------------  | ^            - 1  |                // // aO = tokenAmountOut    aI =        \\  \\ ( bO - aO ) /                   /                 // // wI = tokenWeightIn           --------------------------------------------                 // // wO = tokenWeightOut                          ( 1 - sF )                                   // // sF = swapFee                                                                              //*********************************************************************************************"
      },
      "calcOutGivenIn(uint256,uint256,uint256,uint256,uint256,uint256)": {
        "notice": "******************************************************************************************** // calcOutGivenIn                                                                            // // aO = tokenAmountOut                                                                       // // bO = tokenBalanceOut                                                                      // // bI = tokenBalanceIn              /      /            bI             \\    (wI / wO) \\      // // aI = tokenAmountIn    aO = bO * |  1 - | --------------------------  | ^            |     // // wI = tokenWeightIn               \\      \\ ( bI + ( aI * ( 1 - sF )) /              /      // // wO = tokenWeightOut                                                                       // // sF = swapFee                                                                              //*********************************************************************************************"
      },
      "calcPoolInGivenSingleOut(uint256,uint256,uint256,uint256,uint256,uint256)": {
        "notice": "******************************************************************************************** // calcPoolInGivenSingleOut                                                                  // // pAi = poolAmountIn               // /               tAo             \\\\     / wO \\     \\   // // bO = tokenBalanceOut            // | bO - -------------------------- |\\   | ---- |     \\  // // tAo = tokenAmountOut      pS - ||   \\     1 - ((1 - (tO / tW)) * sF)/  | ^ \\ tW /  * pS | // // ps = poolSupply                 \\\\ -----------------------------------/                /  // // wO = tokenWeightOut  pAi =       \\\\               bO                 /                /   // // tW = totalWeight           -------------------------------------------------------------  // // sF = swapFee                                        ( 1 - eF )                            // // eF = exitFee                                                                              //*********************************************************************************************"
      },
      "calcPoolOutGivenSingleIn(uint256,uint256,uint256,uint256,uint256,uint256)": {
        "notice": "******************************************************************************************** // calcPoolOutGivenSingleIn                                                                  // // pAo = poolAmountOut         /                                              \\              // // tAi = tokenAmountIn        ///      /     //    wI \\      \\\\       \\     wI \\             // // wI = tokenWeightIn        //| tAi *| 1 - || 1 - --  | * sF || + tBi \\    --  \\            // // tW = totalWeight     pAo=||  \\      \\     \\\\    tW /      //         | ^ tW   | * pS - pS // // tBi = tokenBalanceIn      \\\\  ------------------------------------- /        /            // // pS = poolSupply            \\\\                    tBi               /        /             // // sF = swapFee                \\                                              /              //*********************************************************************************************"
      },
      "calcSingleInGivenPoolOut(uint256,uint256,uint256,uint256,uint256,uint256)": {
        "notice": "******************************************************************************************** // calcSingleInGivenPoolOut                                                                  // // tAi = tokenAmountIn              //(pS + pAo)\\     /    1    \\\\                           // // pS = poolSupply                 || ---------  | ^ | --------- || * bI - bI                // // pAo = poolAmountOut              \\\\    pS    /     \\(wI / tW)//                           // // bI = balanceIn          tAi =  --------------------------------------------               // // wI = weightIn                              /      wI  \\                                   // // tW = totalWeight                          |  1 - ----  |  * sF                            // // sF = swapFee                               \\      tW  /                                   //*********************************************************************************************"
      },
      "calcSingleOutGivenPoolIn(uint256,uint256,uint256,uint256,uint256,uint256)": {
        "notice": "******************************************************************************************** // calcSingleOutGivenPoolIn                                                                  // // tAo = tokenAmountOut            /      /                                             \\\\   // // bO = tokenBalanceOut           /      // pS - (pAi * (1 - eF)) \\     /    1    \\      \\\\  // // pAi = poolAmountIn            | bO - || ----------------------- | ^ | --------- | * b0 || // // ps = poolSupply                \\      \\\\          pS           /     \\(wO / tW)/      //  // // wI = tokenWeightIn      tAo =   \\      \\                                             //   // // tW = totalWeight                    /     /      wO \\       \\                             // // sF = swapFee                    *  | 1 - |  1 - ---- | * sF  |                            // // eF = exitFee                        \\     \\      tW /       /                             //*********************************************************************************************"
      },
      "calcSpotPrice(uint256,uint256,uint256,uint256,uint256)": {
        "notice": "******************************************************************************************** // calcSpotPrice                                                                             // // sP = spotPrice                                                                            // // bI = tokenBalanceIn                ( bI / wI )         1                                  // // bO = tokenBalanceOut         sP =  -----------  *  ----------                             // // wI = tokenWeightIn                 ( bO / wO )     ( 1 - sF )                             // // wO = tokenWeightOut                                                                       // // sF = swapFee                                                                              //*********************************************************************************************"
      }
    }
  }
}